{
  "contracts/OnChainExpenses.sol": {
    "OnChainExpenses": {
      "abi": [
        {
          "inputs": [
            {
              "internalType": "address",
              "name": "_iAppPublicKey",
              "type": "address"
            },
            {
              "internalType": "address",
              "name": "_stableCoinAddress",
              "type": "address"
            }
          ],
          "stateMutability": "nonpayable",
          "type": "constructor"
        },
        {
          "anonymous": false,
          "inputs": [
            {
              "indexed": true,
              "internalType": "uint256",
              "name": "expenseId",
              "type": "uint256"
            },
            {
              "indexed": true,
              "internalType": "address",
              "name": "creator",
              "type": "address"
            },
            {
              "indexed": true,
              "internalType": "address",
              "name": "payer",
              "type": "address"
            },
            {
              "indexed": false,
              "internalType": "string",
              "name": "title",
              "type": "string"
            }
          ],
          "name": "ExpenseCreated",
          "type": "event"
        },
        {
          "anonymous": false,
          "inputs": [
            {
              "indexed": true,
              "internalType": "uint256",
              "name": "expenseId",
              "type": "uint256"
            },
            {
              "indexed": false,
              "internalType": "string",
              "name": "ipfsHash",
              "type": "string"
            },
            {
              "indexed": false,
              "internalType": "uint256",
              "name": "amount",
              "type": "uint256"
            },
            {
              "indexed": false,
              "internalType": "string",
              "name": "category",
              "type": "string"
            }
          ],
          "name": "ItemAdded",
          "type": "event"
        },
        {
          "anonymous": false,
          "inputs": [
            {
              "indexed": true,
              "internalType": "uint256",
              "name": "expenseId",
              "type": "uint256"
            },
            {
              "indexed": false,
              "internalType": "uint256[]",
              "name": "itemIds",
              "type": "uint256[]"
            },
            {
              "indexed": false,
              "internalType": "uint256",
              "name": "totalAmount",
              "type": "uint256"
            }
          ],
          "name": "ItemsPaidBatch",
          "type": "event"
        },
        {
          "anonymous": false,
          "inputs": [
            {
              "indexed": true,
              "internalType": "uint256",
              "name": "expenseId",
              "type": "uint256"
            },
            {
              "indexed": false,
              "internalType": "uint256",
              "name": "totalAmount",
              "type": "uint256"
            }
          ],
          "name": "PaymentCompleted",
          "type": "event"
        },
        {
          "anonymous": false,
          "inputs": [
            {
              "indexed": true,
              "internalType": "uint256",
              "name": "expenseId",
              "type": "uint256"
            }
          ],
          "name": "ReadyForReview",
          "type": "event"
        },
        {
          "inputs": [
            {
              "internalType": "uint256",
              "name": "expenseId",
              "type": "uint256"
            },
            {
              "internalType": "string",
              "name": "_ipfsHash",
              "type": "string"
            },
            {
              "internalType": "uint256",
              "name": "_amount",
              "type": "uint256"
            },
            {
              "internalType": "string",
              "name": "_category",
              "type": "string"
            }
          ],
          "name": "addExpenseItem",
          "outputs": [],
          "stateMutability": "nonpayable",
          "type": "function"
        },
        {
          "inputs": [
            {
              "internalType": "uint256",
              "name": "expenseId",
              "type": "uint256"
            },
            {
              "internalType": "uint256[]",
              "name": "itemIds",
              "type": "uint256[]"
            },
            {
              "internalType": "uint256",
              "name": "totalAmount",
              "type": "uint256"
            }
          ],
          "name": "batchPayItems",
          "outputs": [],
          "stateMutability": "nonpayable",
          "type": "function"
        },
        {
          "inputs": [
            {
              "internalType": "string",
              "name": "_title",
              "type": "string"
            },
            {
              "internalType": "address",
              "name": "_payer",
              "type": "address"
            }
          ],
          "name": "createExpenseRequest",
          "outputs": [
            {
              "internalType": "uint256",
              "name": "",
              "type": "uint256"
            }
          ],
          "stateMutability": "nonpayable",
          "type": "function"
        },
        {
          "inputs": [
            {
              "internalType": "uint256",
              "name": "expenseId",
              "type": "uint256"
            }
          ],
          "name": "getAllExpenseItems",
          "outputs": [
            {
              "internalType": "string[]",
              "name": "ipfsHashes",
              "type": "string[]"
            },
            {
              "internalType": "uint256[]",
              "name": "amounts",
              "type": "uint256[]"
            },
            {
              "internalType": "string[]",
              "name": "categories",
              "type": "string[]"
            },
            {
              "internalType": "bool[]",
              "name": "paidStatus",
              "type": "bool[]"
            },
            {
              "internalType": "uint256[]",
              "name": "timestamps",
              "type": "uint256[]"
            }
          ],
          "stateMutability": "view",
          "type": "function"
        },
        {
          "inputs": [
            {
              "internalType": "address",
              "name": "creator",
              "type": "address"
            }
          ],
          "name": "getCreatorExpenses",
          "outputs": [
            {
              "internalType": "uint256[]",
              "name": "",
              "type": "uint256[]"
            }
          ],
          "stateMutability": "view",
          "type": "function"
        },
        {
          "inputs": [],
          "name": "getExpenseCounter",
          "outputs": [
            {
              "internalType": "uint256",
              "name": "",
              "type": "uint256"
            }
          ],
          "stateMutability": "view",
          "type": "function"
        },
        {
          "inputs": [
            {
              "internalType": "uint256",
              "name": "expenseId",
              "type": "uint256"
            },
            {
              "internalType": "uint256",
              "name": "itemId",
              "type": "uint256"
            }
          ],
          "name": "getExpenseItem",
          "outputs": [
            {
              "internalType": "string",
              "name": "ipfsHash",
              "type": "string"
            },
            {
              "internalType": "uint256",
              "name": "amount",
              "type": "uint256"
            },
            {
              "internalType": "string",
              "name": "category",
              "type": "string"
            },
            {
              "internalType": "bool",
              "name": "paid",
              "type": "bool"
            },
            {
              "internalType": "uint256",
              "name": "timestamp",
              "type": "uint256"
            }
          ],
          "stateMutability": "view",
          "type": "function"
        },
        {
          "inputs": [
            {
              "internalType": "uint256",
              "name": "expenseId",
              "type": "uint256"
            }
          ],
          "name": "getExpenseRequest",
          "outputs": [
            {
              "internalType": "string",
              "name": "title",
              "type": "string"
            },
            {
              "internalType": "address",
              "name": "creator",
              "type": "address"
            },
            {
              "internalType": "address",
              "name": "payer",
              "type": "address"
            },
            {
              "internalType": "uint256",
              "name": "timestamp",
              "type": "uint256"
            },
            {
              "internalType": "bool",
              "name": "readyToReview",
              "type": "bool"
            },
            {
              "internalType": "bool",
              "name": "fullyPaid",
              "type": "bool"
            },
            {
              "internalType": "uint256",
              "name": "totalPaidAmount",
              "type": "uint256"
            },
            {
              "internalType": "uint256",
              "name": "itemCount",
              "type": "uint256"
            }
          ],
          "stateMutability": "view",
          "type": "function"
        },
        {
          "inputs": [
            {
              "internalType": "address",
              "name": "payer",
              "type": "address"
            }
          ],
          "name": "getExpensesReadyForReview",
          "outputs": [
            {
              "internalType": "uint256[]",
              "name": "",
              "type": "uint256[]"
            }
          ],
          "stateMutability": "view",
          "type": "function"
        },
        {
          "inputs": [
            {
              "internalType": "uint256",
              "name": "expenseId",
              "type": "uint256"
            }
          ],
          "name": "getUnpaidTotal",
          "outputs": [
            {
              "internalType": "uint256",
              "name": "",
              "type": "uint256"
            }
          ],
          "stateMutability": "view",
          "type": "function"
        },
        {
          "inputs": [],
          "name": "iAppPublicKey",
          "outputs": [
            {
              "internalType": "address",
              "name": "",
              "type": "address"
            }
          ],
          "stateMutability": "view",
          "type": "function"
        },
        {
          "inputs": [],
          "name": "owner",
          "outputs": [
            {
              "internalType": "address",
              "name": "",
              "type": "address"
            }
          ],
          "stateMutability": "view",
          "type": "function"
        },
        {
          "inputs": [
            {
              "internalType": "uint256",
              "name": "expenseId",
              "type": "uint256"
            }
          ],
          "name": "setReadyForReview",
          "outputs": [],
          "stateMutability": "nonpayable",
          "type": "function"
        },
        {
          "inputs": [],
          "name": "stableCoin",
          "outputs": [
            {
              "internalType": "contract IERC20",
              "name": "",
              "type": "address"
            }
          ],
          "stateMutability": "view",
          "type": "function"
        },
        {
          "inputs": [
            {
              "internalType": "address",
              "name": "_newIAppPublicKey",
              "type": "address"
            }
          ],
          "name": "updateIAppPublicKey",
          "outputs": [],
          "stateMutability": "nonpayable",
          "type": "function"
        },
        {
          "inputs": [
            {
              "internalType": "address",
              "name": "_newStableCoinAddress",
              "type": "address"
            }
          ],
          "name": "updateStableCoin",
          "outputs": [],
          "stateMutability": "nonpayable",
          "type": "function"
        }
      ],
      "evm": {
        "assembly": "// RO data = 0/0 bytes\n// RW data = 488/66080 bytes\n// Stack size = 32768 bytes\n\n// Instructions = 16373\n// Code size = 59055 bytes\n\n      : @0 (gas: 1)\n     0: jump @14 if a0 == a1\n      : @1 (gas: 9)\n     3: a3 = a1 << 0x20\n     6: a3 = a3 >> 0x20\n     9: a4 = a0 << 0x20\n    12: a4 = a4 >> 0x20\n    15: a4 = a4 + a2\n    18: a3 = a3 - a4\n    21: a4 = a2 << 0x1\n    24: a4 = -a4\n    26: jump @7 if a4 >=u a3\n      : @2 (gas: 1)\n    29: jump @11 if a0 >=u a1\n      : @3 (gas: 1)\n    32: jump @14 if a2 == 0\n      : @4 (gas: 3)\n    35: a2 = a2 + a0\n    38: a3 = a0\n    40: fallthrough\n      : @5 (gas: 6)\n    41: a4 = u8 [a1]\n    43: a1 = a1 + 0x1\n    46: a5 = a3 + 0x1\n    49: u8 [a3] = a4\n    51: a3 = a5\n    53: jump @5 if a5 != a2\n      : @6 (gas: 1)\n    56: jump @14\n      : @7 (gas: 1)\n    58: jump @14 if a2 == 0\n      : @8 (gas: 3)\n    61: a2 = a2 + a0\n    64: a3 = a0\n    66: fallthrough\n      : @9 (gas: 6)\n    67: a4 = u8 [a1]\n    69: a1 = a1 + 0x1\n    72: a5 = a3 + 0x1\n    75: u8 [a3] = a4\n    77: a3 = a5\n    79: jump @9 if a5 != a2\n      : @10 (gas: 1)\n    82: jump @14\n      : @11 (gas: 1)\n    84: jump @14 if a2 == 0\n      : @12 (gas: 2)\n    87: i32 a3 = a2 + 0xffffffffffffffff\n    90: fallthrough\n      : @13 (gas: 7)\n    91: a4 = a1 + a3\n    94: a4 = u8 [a4]\n    96: a2 = a2 + 0xffffffffffffffff\n    99: a5 = a0 + a3\n   102: u8 [a5] = a4\n   104: i32 a3 = a3 + 0xffffffffffffffff\n   107: jump @13 if a2 != 0\n      : @14 (gas: 1)\n   110: ret\n      : @15 (gas: 2)\n   112: a1 = i32 [0x201f0]\n   117: jump @60 if a1 == 0\n      : @16 (gas: 4)\n   121: a0 = 0x30220\n   126: i32 a0 = a0 + 0\n   128: ecalli 14 // 'set_immutable_data'\n   130: jump @60\n      : @17 (gas: 8)\n   133: sp = sp + 0xfffffffffffffff0\n   136: u64 [sp + 0x8] = ra\n   139: u64 [sp] = s0\n   141: a2 = a1\n   143: s0 = a0\n   145: a1 = 0x20\n   148: a0 = a2\n   150: ra = 2, jump @28\n      : @18 [@dyn 1] (gas: 100)\n   155: a1 = u8 [a0 + 0x1]\n   158: a2 = u8 [a0]\n   160: a3 = u8 [a0 + 0x2]\n   163: a4 = u8 [a0 + 0x3]\n   166: a1 = a1 << 0x8\n   169: a1 = a1 | a2\n   172: a3 = a3 << 0x10\n   175: a4 = a4 << 0x18\n   178: a3 = a3 | a4\n   181: a1 = a1 | a3\n   184: a2 = u8 [a0 + 0x5]\n   187: a3 = u8 [a0 + 0x4]\n   190: a4 = u8 [a0 + 0x6]\n   193: a5 = u8 [a0 + 0x7]\n   196: a2 = a2 << 0x8\n   199: a2 = a2 | a3\n   202: a4 = a4 << 0x10\n   205: a5 = a5 << 0x18\n   208: a4 = a4 | a5\n   211: a2 = a2 | a4\n   214: a2 = a2 << 0x20\n   217: t0 = a2 | a1\n   220: a2 = u8 [a0 + 0x9]\n   223: a3 = u8 [a0 + 0x8]\n   226: a4 = u8 [a0 + 0xa]\n   229: a5 = u8 [a0 + 0xb]\n   232: a2 = a2 << 0x8\n   235: a2 = a2 | a3\n   238: a4 = a4 << 0x10\n   241: a5 = a5 << 0x18\n   244: a4 = a4 | a5\n   247: a2 = a2 | a4\n   250: a3 = u8 [a0 + 0xd]\n   253: a4 = u8 [a0 + 0xc]\n   256: a5 = u8 [a0 + 0xe]\n   259: a1 = u8 [a0 + 0xf]\n   262: a3 = a3 << 0x8\n   265: a3 = a3 | a4\n   268: a5 = a5 << 0x10\n   271: a1 = a1 << 0x18\n   274: a1 = a1 | a5\n   277: a1 = a1 | a3\n   280: a1 = a1 << 0x20\n   283: t1 = a1 | a2\n   286: a1 = u8 [a0 + 0x11]\n   289: a3 = u8 [a0 + 0x10]\n   292: a4 = u8 [a0 + 0x12]\n   295: a5 = u8 [a0 + 0x13]\n   298: a1 = a1 << 0x8\n   301: a1 = a1 | a3\n   304: a4 = a4 << 0x10\n   307: a5 = a5 << 0x18\n   310: a4 = a4 | a5\n   313: a1 = a1 | a4\n   316: a3 = u8 [a0 + 0x15]\n   319: a4 = u8 [a0 + 0x14]\n   322: a5 = u8 [a0 + 0x16]\n   325: a2 = u8 [a0 + 0x17]\n   328: a3 = a3 << 0x8\n   331: a3 = a3 | a4\n   334: a5 = a5 << 0x10\n   337: a2 = a2 << 0x18\n   340: a2 = a2 | a5\n   343: a2 = a2 | a3\n   346: a2 = a2 << 0x20\n   349: a3 = a2 | a1\n   352: a1 = u8 [a0 + 0x19]\n   355: a2 = u8 [a0 + 0x18]\n   358: a4 = u8 [a0 + 0x1a]\n   361: a5 = u8 [a0 + 0x1b]\n   364: a1 = a1 << 0x8\n   367: a1 = a1 | a2\n   370: a4 = a4 << 0x10\n   373: a5 = a5 << 0x18\n   376: a4 = a4 | a5\n   379: a1 = a1 | a4\n   382: a2 = u8 [a0 + 0x1d]\n   385: a4 = u8 [a0 + 0x1c]\n   388: a5 = u8 [a0 + 0x1e]\n   391: a0 = u8 [a0 + 0x1f]\n   394: a2 = a2 << 0x8\n   397: a2 = a2 | a4\n   400: a5 = a5 << 0x10\n   403: a0 = a0 << 0x18\n   406: a0 = a0 | a5\n   409: a0 = a0 | a2\n   412: a0 = a0 << 0x20\n   415: a0 = a0 | a1\n   418: a0 = reverse a0\n   420: a1 = reverse a3\n   422: a2 = reverse t1\n   424: a3 = reverse t0\n   426: u64 [s0 + 0x18] = a3\n   429: u64 [s0 + 0x10] = a2\n   432: u64 [s0 + 0x8] = a1\n   435: u64 [s0] = a0\n   437: ra = u64 [sp + 0x8]\n   440: s0 = u64 [sp]\n   442: sp = sp + 0x10\n   445: ret\n      : @19 (gas: 12)\n   447: sp = sp + 0xffffffffffffffd8\n   450: u64 [sp + 0x20] = ra\n   453: u64 [sp + 0x18] = s0\n   456: u64 [sp + 0x10] = s1\n   459: a2 = u64 [a1]\n   461: u64 [sp + 0x8] = a2\n   464: a2 = u64 [a1 + 0x8]\n   467: u64 [sp] = a2\n   469: s0 = u64 [a1 + 0x10]\n   472: s1 = u64 [a1 + 0x18]\n   475: a1 = 0x20\n   478: ra = 4, jump @28\n      : @20 [@dyn 2] (gas: 71)\n   483: a1 = reverse s1\n   485: a2 = reverse s0\n   487: a3 = u64 [sp]\n   489: a3 = reverse a3\n   491: a4 = u64 [sp + 0x8]\n   494: a4 = reverse a4\n   496: u8 [a0 + 0x18] = a4\n   499: u8 [a0 + 0x10] = a3\n   502: u8 [a0 + 0x8] = a2\n   505: u8 [a0] = a1\n   507: a5 = a4 >> 0x38\n   510: u8 [a0 + 0x1f] = a5\n   513: a5 = a4 >> 0x30\n   516: u8 [a0 + 0x1e] = a5\n   519: a5 = a4 >> 0x28\n   522: u8 [a0 + 0x1d] = a5\n   525: a5 = a4 >> 0x20\n   528: u8 [a0 + 0x1c] = a5\n   531: a5 = a4 >> 0x18\n   534: u8 [a0 + 0x1b] = a5\n   537: a5 = a4 >> 0x10\n   540: u8 [a0 + 0x1a] = a5\n   543: a4 = a4 >> 0x8\n   546: u8 [a0 + 0x19] = a4\n   549: a4 = a3 >> 0x38\n   552: u8 [a0 + 0x17] = a4\n   555: a4 = a3 >> 0x30\n   558: u8 [a0 + 0x16] = a4\n   561: a4 = a3 >> 0x28\n   564: u8 [a0 + 0x15] = a4\n   567: a4 = a3 >> 0x20\n   570: u8 [a0 + 0x14] = a4\n   573: a4 = a3 >> 0x18\n   576: u8 [a0 + 0x13] = a4\n   579: a4 = a3 >> 0x10\n   582: u8 [a0 + 0x12] = a4\n   585: a3 = a3 >> 0x8\n   588: u8 [a0 + 0x11] = a3\n   591: a3 = a2 >> 0x38\n   594: u8 [a0 + 0xf] = a3\n   597: a3 = a2 >> 0x30\n   600: u8 [a0 + 0xe] = a3\n   603: a3 = a2 >> 0x28\n   606: u8 [a0 + 0xd] = a3\n   609: a3 = a2 >> 0x20\n   612: u8 [a0 + 0xc] = a3\n   615: a3 = a2 >> 0x18\n   618: u8 [a0 + 0xb] = a3\n   621: a3 = a2 >> 0x10\n   624: u8 [a0 + 0xa] = a3\n   627: a2 = a2 >> 0x8\n   630: u8 [a0 + 0x9] = a2\n   633: a2 = a1 >> 0x38\n   636: u8 [a0 + 0x7] = a2\n   639: a2 = a1 >> 0x30\n   642: u8 [a0 + 0x6] = a2\n   645: a2 = a1 >> 0x28\n   648: u8 [a0 + 0x5] = a2\n   651: a2 = a1 >> 0x20\n   654: u8 [a0 + 0x4] = a2\n   657: a2 = a1 >> 0x18\n   660: u8 [a0 + 0x3] = a2\n   663: a2 = a1 >> 0x10\n   666: u8 [a0 + 0x2] = a2\n   669: a1 = a1 >> 0x8\n   672: u8 [a0 + 0x1] = a1\n   675: ra = u64 [sp + 0x20]\n   678: s0 = u64 [sp + 0x18]\n   681: s1 = u64 [sp + 0x10]\n   684: sp = sp + 0x28\n   687: ret\n      : @21 (gas: 43)\n   689: sp = sp + 0xffffffffffffffa0\n   692: u64 [sp + 0x58] = ra\n   695: u64 [sp + 0x50] = s0\n   698: u64 [sp + 0x48] = s1\n   701: s0 = sp + 0x60\n   704: sp = sp & 0xffffffffffffffe0\n   707: s1 = a0\n   709: a0 = u64 [a1 + 0x18]\n   712: a2 = u64 [a1 + 0x10]\n   715: a3 = u64 [a1 + 0x8]\n   718: a1 = u64 [a1]\n   720: a0 = reverse a0\n   722: a2 = reverse a2\n   724: a3 = reverse a3\n   726: a1 = reverse a1\n   728: u64 [sp + 0x18] = a1\n   731: u64 [sp + 0x10] = a3\n   734: u64 [sp + 0x8] = a2\n   737: u64 [sp] = a0\n   739: u64 [sp + 56] = 0\n   742: u64 [sp + 48] = 0\n   745: u64 [sp + 40] = 0\n   748: u64 [sp + 32] = 0\n   751: u32 [sp + 64] = 0x20\n   755: i32 a1 = sp + 0\n   757: i32 a3 = sp + 0x20\n   760: i32 a4 = sp + 0x40\n   763: a2 = 0xffffffffffffffff\n   766: a0 = 0\n   768: ecalli 7 // 'get_storage'\n   770: a0 = u64 [sp + 0x38]\n   773: a1 = u64 [sp + 0x30]\n   776: a2 = u64 [sp + 0x28]\n   779: a3 = u64 [sp + 0x20]\n   782: a0 = reverse a0\n   784: a1 = reverse a1\n   786: a2 = reverse a2\n   788: a3 = reverse a3\n   790: u64 [s1 + 0x18] = a3\n   793: u64 [s1 + 0x10] = a2\n   796: u64 [s1 + 0x8] = a1\n   799: u64 [s1] = a0\n   801: t0 = 6, jump @2030\n      : @22 [@dyn 3] (gas: 1)\n   807: ret\n      : @23 (gas: 40)\n   809: sp = sp + 0xffffffffffffffa0\n   812: u64 [sp + 0x58] = ra\n   815: u64 [sp + 0x50] = s0\n   818: s0 = sp + 0x60\n   821: sp = sp & 0xffffffffffffffe0\n   824: t0 = u64 [a0]\n   826: a3 = u64 [a0 + 0x8]\n   829: a4 = u64 [a0 + 0x10]\n   832: a0 = u64 [a0 + 0x18]\n   835: t1 = u64 [a1]\n   837: a2 = u64 [a1 + 0x8]\n   840: a5 = u64 [a1 + 0x10]\n   843: a1 = u64 [a1 + 0x18]\n   846: t2 = reverse a0\n   848: a4 = reverse a4\n   850: a3 = reverse a3\n   852: a0 = reverse t0\n   854: t0 = reverse a1\n   856: a5 = reverse a5\n   858: a2 = reverse a2\n   860: a1 = reverse t1\n   862: u64 [sp + 0x18] = a0\n   865: u64 [sp + 0x10] = a3\n   868: u64 [sp + 0x8] = a4\n   871: u64 [sp] = t2\n   873: u64 [sp + 0x38] = a1\n   876: u64 [sp + 0x30] = a2\n   879: u64 [sp + 0x28] = a5\n   882: u64 [sp + 0x20] = t0\n   885: i32 a1 = sp + 0\n   887: i32 a3 = sp + 0x20\n   890: a2 = 0xffffffffffffffff\n   893: a4 = 0x20\n   896: a0 = 0\n   898: ecalli 15 // 'set_storage'\n   900: sp = s0 + 0xffffffffffffffa0\n   903: ra = u64 [sp + 0x58]\n   906: s0 = u64 [sp + 0x50]\n   909: sp = sp + 0x60\n   912: ret\n      : @24 (gas: 24)\n   914: sp = sp + 0xffffffffffffff60\n   918: u64 [sp + 0x98] = ra\n   922: u64 [sp + 0x90] = s0\n   926: u64 [sp + 0x88] = s1\n   930: s0 = sp + 0xa0\n   934: sp = sp & 0xffffffffffffffe0\n   937: a4 = u64 [a3]\n   939: u64 [sp + 0x38] = a4\n   942: a4 = u64 [a3 + 0x8]\n   945: u64 [sp + 0x30] = a4\n   948: a4 = u64 [a3 + 0x10]\n   951: u64 [sp + 0x28] = a4\n   954: a3 = u64 [a3 + 0x18]\n   957: u64 [sp + 0x20] = a3\n   960: a3 = u64 [a2]\n   962: u64 [sp + 0x18] = a3\n   965: a3 = u64 [a2 + 0x8]\n   968: u64 [sp + 0x10] = a3\n   971: a3 = u64 [a2 + 0x10]\n   974: u64 [sp + 0x8] = a3\n   977: a2 = u64 [a2 + 0x18]\n   980: u64 [sp] = a2\n   982: s1 = a1\n   984: ra = 8, jump @28\n      : @25 [@dyn 4] (gas: 35)\n   989: a1 = u64 [sp]\n   991: a1 = reverse a1\n   993: a2 = u64 [sp + 0x8]\n   996: a2 = reverse a2\n   998: a3 = u64 [sp + 0x10]\n  1001: a3 = reverse a3\n  1003: a4 = u64 [sp + 0x18]\n  1006: a4 = reverse a4\n  1008: u64 [sp + 0x58] = a4\n  1011: u64 [sp + 0x50] = a3\n  1014: u64 [sp + 0x48] = a2\n  1017: u64 [sp + 0x40] = a1\n  1020: a1 = u64 [sp + 0x20]\n  1023: a1 = reverse a1\n  1025: a2 = u64 [sp + 0x28]\n  1028: a2 = reverse a2\n  1030: a3 = u64 [sp + 0x30]\n  1033: a3 = reverse a3\n  1035: a4 = u64 [sp + 0x38]\n  1038: a4 = reverse a4\n  1040: u64 [sp + 0x78] = a4\n  1043: u64 [sp + 0x70] = a3\n  1046: u64 [sp + 0x68] = a2\n  1049: u64 [sp + 0x60] = a1\n  1052: i32 a2 = a0 + 0\n  1054: i32 a3 = s1 + 0\n  1056: i32 a0 = sp + 0x40\n  1059: a1 = 0x2\n  1062: ecalli 6 // 'deposit_event'\n  1064: sp = s0 + 0xffffffffffffff60\n  1068: ra = u64 [sp + 0x98]\n  1072: s0 = u64 [sp + 0x90]\n  1076: s1 = u64 [sp + 0x88]\n  1080: sp = sp + 0xa0\n  1084: ret\n      : @26 [@dyn 5] (gas: 2)\n  1086: u64 [sp + 0x58] = a1\n  1089: ra = 12, jump @28\n      : @27 [@dyn 6] (gas: 58)\n  1094: a1 = reverse s1\n  1096: u64 [sp + 0x98] = a1\n  1100: a1 = u64 [sp]\n  1102: a1 = reverse a1\n  1104: u64 [sp + 0x90] = a1\n  1108: a1 = u64 [sp + 0x8]\n  1111: a1 = reverse a1\n  1113: u64 [sp + 0x88] = a1\n  1117: a1 = u64 [sp + 0x10]\n  1120: a1 = reverse a1\n  1122: u64 [sp + 0x80] = a1\n  1126: a1 = u64 [sp + 0x18]\n  1129: a1 = reverse a1\n  1131: u64 [sp + 0xb8] = a1\n  1135: a1 = u64 [sp + 0x20]\n  1138: a1 = reverse a1\n  1140: u64 [sp + 0xb0] = a1\n  1144: a1 = u64 [sp + 0x28]\n  1147: a1 = reverse a1\n  1149: u64 [sp + 0xa8] = a1\n  1153: a1 = u64 [sp + 0x30]\n  1156: a1 = reverse a1\n  1158: u64 [sp + 0xa0] = a1\n  1162: a1 = u64 [sp + 0x38]\n  1165: a1 = reverse a1\n  1167: u64 [sp + 0xd8] = a1\n  1171: a1 = u64 [sp + 0x40]\n  1174: a1 = reverse a1\n  1176: u64 [sp + 0xd0] = a1\n  1180: a1 = u64 [sp + 0x48]\n  1183: a1 = reverse a1\n  1185: u64 [sp + 0xc8] = a1\n  1189: a1 = u64 [sp + 0x50]\n  1192: a1 = reverse a1\n  1194: u64 [sp + 0xc0] = a1\n  1198: a1 = u64 [sp + 0x60]\n  1201: a1 = reverse a1\n  1203: u64 [sp + 0xf8] = a1\n  1207: a1 = u64 [sp + 0x68]\n  1210: a1 = reverse a1\n  1212: u64 [sp + 0xf0] = a1\n  1216: a1 = u64 [sp + 0x70]\n  1219: a1 = reverse a1\n  1221: u64 [sp + 0xe8] = a1\n  1225: a1 = u64 [sp + 0x78]\n  1228: a1 = reverse a1\n  1230: u64 [sp + 0xe0] = a1\n  1234: i32 a2 = a0 + 0\n  1236: a3 = i32 [sp + 0x58]\n  1239: i32 a0 = sp + 0x80\n  1243: a1 = 0x4\n  1246: ecalli 6 // 'deposit_event'\n  1248: sp = s0 + 0xfffffffffffffee0\n  1252: ra = u64 [sp + 0x118]\n  1256: s0 = u64 [sp + 0x110]\n  1260: s1 = u64 [sp + 0x108]\n  1264: sp = sp + 0x120\n  1268: ret\n      : @28 (gas: 2)\n  1270: i32 a2 = a0 >> 0x10\n  1273: jump @33 if a2 != 0\n      : @29 (gas: 4)\n  1276: a1 = a1 + a0\n  1279: i32 a1 = a1 + 0x1f\n  1282: a1 = a1 & 0xffffffffffffffe0\n  1285: jump @33 if a1 >u 65536\n      : @30 (gas: 3)\n  1291: a2 = 0x201ec\n  1296: a3 = i32 [0x201ec]\n  1301: jump @32 if a3 >=u a1\n      : @31 (gas: 2)\n  1304: u32 [0x201ec] = a1\n  1309: fallthrough\n      : @32 (gas: 4)\n  1310: a1 = 0x20200\n  1315: i32 a0 = a0 + 0\n  1317: a0 = a0 + a1\n  1320: ret\n      : @33 (gas: 1)\n  1322: trap\n      : @34 (gas: 6)\n  1323: sp = sp + 0xfffffffffffffff0\n  1326: u64 [sp + 0x8] = ra\n  1329: u64 [sp] = s0\n  1331: s0 = a0 & 0x1\n  1334: ecalli 4 // 'call_data_size'\n  1336: fallthrough\n      : @35 (gas: 2)\n  1337: u32 [0x201e8] = a0\n  1342: jump @37 if s0 == 0\n      : @36 (gas: 1)\n  1345: ra = 14, jump @38\n      : @37 [@dyn 7] (gas: 1)\n  1349: ra = 16, jump @63\n      : @38 [@dyn 8] (gas: 14)\n  1354: sp = sp + 0xfffffffffffffd00\n  1358: a0 = sp + 0x200\n  1362: u64 [a0 + 0xf8] = ra\n  1366: u64 [a0 + 0xf0] = s0\n  1370: u64 [a0 + 0xe8] = s1\n  1374: s0 = sp + 0x300\n  1378: sp = sp & 0xffffffffffffffe0\n  1381: u64 [sp + 376] = 0\n  1385: u64 [sp + 368] = 0\n  1389: u64 [sp + 360] = 0\n  1393: u64 [sp + 352] = 0\n  1397: i32 a0 = sp + 0x160\n  1401: ecalli 16 // 'value_transferred'\n  1403: fallthrough\n      : @39 (gas: 8)\n  1404: a0 = u64 [sp + 0x170]\n  1408: a1 = u64 [sp + 0x178]\n  1412: a2 = u64 [sp + 0x168]\n  1416: a3 = u64 [sp + 0x160]\n  1420: a1 = a1 | a2\n  1423: a0 = a0 | a3\n  1426: a0 = a0 | a1\n  1429: jump @56 if a0 != 0\n      : @40 (gas: 15)\n  1433: s1 = i32 [0x201e8]\n  1438: a0 = s1 << 0x20\n  1441: a0 = a0 >> 0x20\n  1444: a0 = a0 + 0x1f\n  1447: a0 = a0 & 0xffffffffffffffe0\n  1450: a1 = a0 + 0x80\n  1454: a0 = a1 <u a0\n  1457: u64 [sp + 344] = 0\n  1461: u64 [sp + 0x140] = a1\n  1465: u64 [sp + 0x148] = a0\n  1469: a0 = 0 if a0 != 0\n  1471: u64 [sp + 0x150] = a0\n  1475: a0 = 0x40\n  1478: a1 = sp + 0x140\n  1482: ra = 18, jump @19\n      : @41 [@dyn 9] (gas: 3)\n  1487: a0 = 0x80\n  1491: a1 = s1\n  1493: ra = 20, jump @28\n      : @42 [@dyn 10] (gas: 5)\n  1498: i32 a0 = a0 + 0\n  1500: a1 = s1\n  1502: a2 = 0\n  1504: ecalli 2 // 'call_data_copy'\n  1506: fallthrough\n      : @43 (gas: 1)\n  1507: jump @57 if s1 <u 64\n      : @44 (gas: 7)\n  1512: u64 [sp + 280] = 0\n  1516: u64 [sp + 272] = 0\n  1520: u64 [sp + 256] = 0x80\n  1526: a0 = sp + 0x120\n  1530: a1 = sp + 0x100\n  1534: u64 [sp + 264] = 0\n  1538: ra = 22, jump @1699\n      : @45 [@dyn 11] (gas: 13)\n  1544: a0 = u64 [sp + 0x120]\n  1548: u64 [sp + 0x20] = a0\n  1551: a0 = u64 [sp + 0x128]\n  1555: u64 [sp + 0x18] = a0\n  1558: a0 = u32 [sp + 0x130]\n  1562: u64 [sp + 0x10] = a0\n  1565: u64 [sp + 216] = 0\n  1569: u64 [sp + 208] = 0\n  1573: u64 [sp + 192] = 0xa0\n  1579: a0 = sp + 0xe0\n  1583: a1 = sp + 0xc0\n  1587: u64 [sp + 200] = 0\n  1591: ra = 24, jump @1699\n      : @46 [@dyn 12] (gas: 31)\n  1597: a0 = u64 [sp + 0xe0]\n  1601: u64 [sp + 0x38] = a0\n  1604: a0 = u64 [sp + 0xe8]\n  1608: u64 [sp + 0x30] = a0\n  1611: a0 = u32 [sp + 0xf0]\n  1615: u64 [sp + 0x28] = a0\n  1618: s1 = 0x30200\n  1623: i32 a0 = s1 + 0\n  1625: ecalli 5 // 'caller'\n  1627: a0 = u64 [0x30208]\n  1632: a1 = i32 [0x30210]\n  1637: a2 = u64 [0x30200]\n  1642: a0 = reverse a0\n  1644: a3 = a0 << 0x20\n  1647: a1 = reverse a1\n  1649: a1 = a1 >> 0x20\n  1652: a1 = a1 | a3\n  1655: u64 [sp + 0x8] = a1\n  1658: a0 = a0 >> 0x20\n  1661: a1 = reverse a2\n  1663: s1 = a1 << 0x20\n  1666: a0 = a0 | s1\n  1669: u64 [sp] = a0\n  1671: s1 = a1 >> 0x20\n  1674: u64 [sp + 408] = 0\n  1678: u64 [sp + 400] = 0\n  1682: u64 [sp + 392] = 0\n  1686: u64 [sp + 384] = 0x3\n  1691: a0 = sp + 0xa0\n  1695: a1 = sp + 0x180\n  1699: ra = 26, jump @21\n      : @47 [@dyn 13] (gas: 17)\n  1704: a0 = u32 [sp + 0xb4]\n  1708: a0 = a0 << 0x20\n  1711: a1 = u64 [sp + 0xb8]\n  1715: a0 = a0 | s1\n  1718: u64 [sp + 440] = 0\n  1722: u64 [sp + 432] = 0\n  1726: u64 [sp + 424] = 0\n  1730: u64 [sp + 416] = 0x3\n  1735: u64 [sp + 0x1d8] = a1\n  1739: a1 = u64 [sp]\n  1741: u64 [sp + 0x1c8] = a1\n  1745: a1 = u64 [sp + 0x8]\n  1748: u64 [sp + 0x1c0] = a1\n  1752: u64 [sp + 0x1d0] = a0\n  1756: a0 = sp + 0x1a0\n  1760: a1 = sp + 0x1c0\n  1764: ra = 28, jump @23\n      : @48 [@dyn 14] (gas: 8)\n  1769: u64 [sp + 504] = 0\n  1773: u64 [sp + 496] = 0\n  1777: u64 [sp + 488] = 0\n  1781: s1 = 0x2\n  1784: u64 [sp + 0x1e0] = s1\n  1788: a0 = sp + 0x80\n  1792: a1 = sp + 0x1e0\n  1796: ra = 30, jump @21\n      : @49 [@dyn 15] (gas: 19)\n  1801: a0 = u32 [sp + 0x94]\n  1805: a0 = a0 << 0x20\n  1808: a1 = u64 [sp + 0x98]\n  1812: a2 = u64 [sp + 0x10]\n  1815: a0 = a0 | a2\n  1818: a3 = sp + 0x200\n  1822: u64 [a3 + 24] = 0\n  1825: u64 [a3 + 16] = 0\n  1828: u64 [a3 + 8] = 0\n  1831: u64 [a3] = s1\n  1833: a2 = u64 [sp + 0x18]\n  1836: u64 [a3 + 0x28] = a2\n  1839: a2 = u64 [sp + 0x20]\n  1842: u64 [a3 + 0x20] = a2\n  1845: u64 [a3 + 0x38] = a1\n  1848: u64 [a3 + 0x30] = a0\n  1851: a0 = sp + 0x200\n  1855: a1 = sp + 0x220\n  1859: ra = 32, jump @23\n      : @50 [@dyn 16] (gas: 9)\n  1864: a0 = sp + 0x200\n  1868: u64 [a0 + 88] = 0\n  1871: u64 [a0 + 80] = 0\n  1874: u64 [a0 + 72] = 0\n  1877: s1 = 0x4\n  1880: u64 [a0 + 0x40] = s1\n  1883: a0 = sp + 0x60\n  1886: a1 = sp + 0x240\n  1890: ra = 34, jump @21\n      : @51 [@dyn 17] (gas: 19)\n  1895: a0 = u32 [sp + 0x74]\n  1898: a0 = a0 << 0x20\n  1901: a1 = u64 [sp + 0x78]\n  1904: a2 = u64 [sp + 0x28]\n  1907: a0 = a0 | a2\n  1910: a3 = sp + 0x200\n  1914: u64 [a3 + 120] = 0\n  1917: u64 [a3 + 112] = 0\n  1920: u64 [a3 + 104] = 0\n  1923: u64 [a3 + 0x60] = s1\n  1926: a2 = u64 [sp + 0x30]\n  1929: u64 [a3 + 0x88] = a2\n  1933: a2 = u64 [sp + 0x38]\n  1936: u64 [a3 + 0x80] = a2\n  1940: u64 [a3 + 0x98] = a1\n  1944: u64 [a3 + 0x90] = a0\n  1948: a0 = sp + 0x260\n  1952: a1 = sp + 0x280\n  1956: ra = 36, jump @23\n      : @52 [@dyn 18] (gas: 12)\n  1961: a1 = sp + 0x200\n  1965: u64 [a1 + 184] = 0\n  1969: u64 [a1 + 176] = 0\n  1973: u64 [a1 + 168] = 0\n  1977: u64 [a1 + 160] = 0x1\n  1982: u64 [a1 + 216] = 0\n  1986: u64 [a1 + 208] = 0\n  1990: u64 [a1 + 200] = 0\n  1994: u64 [a1 + 192] = 0\n  1998: a0 = sp + 0x2a0\n  2002: a1 = sp + 0x2c0\n  2006: ra = 38, jump @23\n      : @53 [@dyn 19] (gas: 3)\n  2011: a0 = sp + 0x40\n  2014: a1 = 0x40\n  2017: ra = 40, jump @17\n      : @54 [@dyn 20] (gas: 12)\n  2022: a0 = u64 [sp + 0x58]\n  2025: a1 = u64 [sp + 0x50]\n  2028: a2 = u64 [sp + 0x48]\n  2031: s1 = u64 [sp + 0x40]\n  2034: a0 = a0 | a2\n  2037: a2 = s1 | a1\n  2040: a2 = a2 | a0\n  2043: a2 = a2 >> 0x20\n  2046: a0 = a0 | a1\n  2049: a0 = a0 << 0x20\n  2052: a0 = a0 | a2\n  2055: jump @58 if a0 == 0\n      : @55 (gas: 1)\n  2058: trap\n      : @56 (gas: 4)\n  2059: a1 = 0x20200\n  2064: i32 a1 = a1 + 0\n  2066: a0 = 0x1\n  2069: jump @62\n      : @57 (gas: 4)\n  2071: a1 = 0x20200\n  2076: i32 a1 = a1 + 0\n  2078: a0 = 0x1\n  2081: jump @62\n      : @58 (gas: 3)\n  2083: a0 = s1\n  2085: a1 = 0\n  2087: ra = 42, jump @28\n      : @59 [@dyn 21] (gas: 5)\n  2092: i32 a0 = a0 + 0\n  2094: a1 = 0\n  2096: a2 = 0\n  2098: ecalli 2 // 'call_data_copy'\n  2100: jump @15\n      : @60 (gas: 3)\n  2103: a0 = s1\n  2105: a1 = 0\n  2107: ra = 44, jump @28\n      : @61 [@dyn 22] (gas: 6)\n  2112: i32 a1 = a0 + 0\n  2114: a0 = 0\n  2116: a2 = 0\n  2118: ra = 0x2e\n  2121: ecalli 13 // 'seal_return'\n  2123: jump @63\n      : @62 (gas: 4)\n  2125: a2 = 0\n  2127: ra = 0x2e\n  2130: ecalli 13 // 'seal_return'\n  2132: fallthrough\n      : @63 [@dyn 23] (gas: 16)\n  2133: sp = sp + 0xfffffffffffffe10\n  2137: u64 [sp + 0x1e8] = ra\n  2141: u64 [sp + 0x1e0] = s0\n  2145: u64 [sp + 0x1d8] = s1\n  2149: s0 = sp + 0x1f0\n  2153: sp = sp + 0xffffffffffffa890\n  2157: sp = sp & 0xffffffffffffffe0\n  2160: s1 = sp\n  2162: a2 = s1 + 0x4138\n  2166: u64 [a2 + 1472] = 0\n  2170: u64 [a2 + 1464] = 0\n  2174: u64 [a2 + 1448] = 0x80\n  2180: a0 = 0x40\n  2183: a1 = s1 + 0x46e0\n  2187: u64 [a2 + 1456] = 0\n  2191: ra = 48, jump @19\n      : @64 [@dyn 24] (gas: 4)\n  2196: a0 = 0x201e8\n  2201: u64 [s1 + 0x1b8] = a0\n  2205: a0 = i32 [0x201e8]\n  2210: jump @66 if a0 >=u 4\n      : @65 (gas: 1)\n  2214: jump @1604\n      : @66 (gas: 8)\n  2218: a0 = s1 + 0x4000\n  2222: i32 a0 = a0 + 0x700\n  2226: a1 = 0\n  2228: ra = 0x32\n  2231: ecalli 3 // 'call_data_load'\n  2233: t0 = 0x34\n  2236: a3 = s1 + 0x4138\n  2240: jump @68\n      : @67 [@dyn 25] (gas: 3)\n  2242: t0 = 0x34\n  2245: a3 = s1 + 0x4138\n  2249: fallthrough\n      : @68 [@dyn 26] (gas: 2)\n  2250: a0 = i32 [a3 + 0x5e4]\n  2254: jump @70 if a0 != 2376452955\n      : @69 (gas: 1)\n  2261: jump @303\n      : @70 (gas: 1)\n  2264: jump @134 if a0 == 2569421541\n      : @71 (gas: 2)\n  2272: a2 = s1 + 0x5138\n  2276: jump @73 if a0 != 3193053574\n      : @72 (gas: 1)\n  2283: jump @457\n      : @73 (gas: 1)\n  2286: jump @185 if a0 == 3268395733\n      : @74 (gas: 1)\n  2294: jump @145 if a0 == 3471626662\n      : @75 (gas: 1)\n  2302: jump @77 if a0 != 3511846196\n      : @76 (gas: 1)\n  2309: jump @517\n      : @77 (gas: 1)\n  2312: jump @79 if a0 != 3770346281\n      : @78 (gas: 1)\n  2319: jump @238\n      : @79 (gas: 1)\n  2322: jump @81 if a0 != 3929341873\n      : @80 (gas: 1)\n  2329: jump @598\n      : @81 (gas: 1)\n  2332: jump @83 if a0 != 4159381654\n      : @82 (gas: 1)\n  2339: jump @350\n      : @83 (gas: 1)\n  2342: jump @85 if a0 != 89252255\n      : @84 (gas: 1)\n  2349: jump @486\n      : @85 (gas: 2)\n  2352: a2 = s1 + 0x4938\n  2356: jump @87 if a0 != 290449221\n      : @86 (gas: 1)\n  2363: jump @414\n      : @87 (gas: 1)\n  2366: jump @175 if a0 == 508174838\n      : @88 (gas: 1)\n  2374: jump @90 if a0 != 540655728\n      : @89 (gas: 1)\n  2381: jump @314\n      : @90 (gas: 1)\n  2384: jump @92 if a0 != 1494239286\n      : @91 (gas: 1)\n  2391: jump @272\n      : @92 (gas: 1)\n  2394: jump @94 if a0 == 1715869594\n      : @93 (gas: 1)\n  2401: jump @383\n      : @94 (gas: 9)\n  2404: u64 [a2 + 1024] = 0\n  2408: u64 [a2 + 1016] = 0\n  2412: u64 [a2 + 1008] = 0\n  2416: u64 [a2 + 1000] = 0\n  2420: a0 = s1 + 0x5000\n  2424: i32 a0 = a0 + 0xfffffffffffffd20\n  2428: ra = 0x36\n  2431: ecalli 16 // 'value_transferred'\n  2433: fallthrough\n      : @95 [@dyn 27] (gas: 10)\n  2434: a3 = s1 + 0x4938\n  2438: a4 = a3 + 0x300\n  2442: a0 = u64 [a4 + 0xf8]\n  2446: a1 = u64 [a3 + 0x400]\n  2450: a2 = u64 [a4 + 0xf0]\n  2454: a3 = u64 [a4 + 0xe8]\n  2458: a1 = a1 | a2\n  2461: a0 = a0 | a3\n  2464: a0 = a0 | a1\n  2467: jump @97 if a0 == 0\n      : @96 (gas: 1)\n  2470: jump @1607\n      : @97 (gas: 1)\n  2474: t0 = 56, jump @2026\n      : @98 [@dyn 28] (gas: 1)\n  2480: jump @100 if a1 <u a0\n      : @99 (gas: 1)\n  2483: jump @1608\n      : @100 (gas: 24)\n  2487: a0 = s1 + 0x5000\n  2491: i32 a0 = a0 + 0xfffffffffffffd40\n  2495: a1 = 0x4\n  2498: ecalli 3 // 'call_data_load'\n  2500: a0 = s1 + 0x4938\n  2504: a5 = a0 + 0x400\n  2508: a4 = u64 [a5 + 0x20]\n  2511: a3 = u64 [a5 + 0x18]\n  2514: a1 = u64 [a5 + 0x10]\n  2517: a2 = u64 [a5 + 0x8]\n  2520: a0 = s1 + 0x1138\n  2524: a5 = s1 + 0x100\n  2528: u64 [a5 + 0x80] = a4\n  2532: u64 [a0 + 0x6e0] = a4\n  2536: u64 [a5 + 0x88] = a3\n  2540: a4 = a0 + 0x600\n  2544: u64 [a4 + 0xd8] = a3\n  2548: u64 [a5 + 0x90] = a1\n  2552: u64 [a4 + 0xd0] = a1\n  2556: a1 = s1 + 0x1800\n  2560: u64 [a5 + 0x98] = a2\n  2564: u64 [a4 + 0xc8] = a2\n  2568: a0 = 0\n  2570: ra = 58, jump @19\n      : @101 [@dyn 29] (gas: 9)\n  2575: a0 = s1 + 0x1138\n  2579: u64 [a0 + 1728] = 0\n  2583: u64 [a0 + 1720] = 0\n  2587: u64 [a0 + 1712] = 0\n  2591: a2 = a0\n  2593: a0 = 0x20\n  2596: a1 = s1 + 0x17e0\n  2600: u64 [a2 + 1704] = 0\n  2604: ra = 60, jump @19\n      : @102 [@dyn 30] (gas: 4)\n  2609: a2 = 0x201ec\n  2614: a0 = i32 [0x201ec]\n  2619: a1 = 0x3f\n  2622: jump @104 if a1 <u a0\n      : @103 (gas: 4)\n  2625: u32 [0x201ec] = 0x40\n  2631: u64 [s1 + 0x170] = a2\n  2635: t0 = 0x3e\n  2638: jump @1993\n      : @104 (gas: 2)\n  2642: u64 [s1 + 0x170] = a2\n  2646: t0 = 62, jump @1993\n      : @105 [@dyn 31] (gas: 9)\n  2652: a0 = 0x20200\n  2657: i32 a0 = a0 + 0\n  2659: i32 a2 = a2 + 0\n  2661: a1 = 0x40\n  2664: u64 [s1 + 0x178] = a0\n  2668: ra = 0x40\n  2671: ecalli 8 // 'hash_keccak_256'\n  2673: t0 = 0x42\n  2676: jump @1941\n      : @106 [@dyn 32] (gas: 1)\n  2680: t0 = 66, jump @1941\n      : @107 [@dyn 33] (gas: 8)\n  2686: a5 = a1 + 0x400\n  2690: u64 [a5 + 0x28] = a3\n  2693: u64 [a5 + 0x30] = a2\n  2696: u64 [a5 + 0x38] = a4\n  2699: u64 [a5 + 0x40] = a0\n  2702: a0 = s1 + 0x17c0\n  2706: a1 = s1 + 0x4d60\n  2710: ra = 68, jump @21\n      : @108 [@dyn 34] (gas: 13)\n  2715: a0 = s1 + 0x1138\n  2719: a1 = u64 [a0 + 0x690]\n  2723: u64 [s1 + 0x1b8] = a1\n  2727: a1 = u64 [a0 + 0x688]\n  2731: u64 [s1 + 0x1b0] = a1\n  2735: a0 = u32 [a0 + 0x698]\n  2739: u64 [s1 + 0x1a8] = a0\n  2743: a0 = 0x30200\n  2748: u64 [s1 + 0x1a0] = a0\n  2752: i32 a0 = a0 + 0\n  2754: ra = 0x46\n  2757: ecalli 5 // 'caller'\n  2759: fallthrough\n      : @109 [@dyn 35] (gas: 3)\n  2760: a5 = s1 + 0x100\n  2764: a2 = u64 [a5 + 0xa0]\n  2768: t0 = 72, jump @1936\n      : @110 [@dyn 36] (gas: 1)\n  2774: jump @112 if a0 != 0\n      : @111 (gas: 1)\n  2777: jump @1609\n      : @112 (gas: 3)\n  2781: a0 = s1 + 0x17a0\n  2785: a1 = 0x40\n  2788: ra = 74, jump @17\n      : @113 [@dyn 37] (gas: 14)\n  2793: a4 = s1 + 0x1138\n  2797: t0 = u64 [a4 + 0x680]\n  2801: a1 = a4 + 0x600\n  2805: a5 = u64 [a1 + 0x78]\n  2808: a3 = u64 [a1 + 0x70]\n  2811: a0 = u64 [a1 + 0x68]\n  2814: a2 = a3 | t0\n  2817: a1 = a0 | a5\n  2820: a1 = a1 | a2\n  2823: a1 = a1 >> 0x20\n  2826: a2 = a2 | a5\n  2829: a2 = a2 << 0x20\n  2832: a1 = a1 | a2\n  2835: jump @115 if a1 == 0\n      : @114 (gas: 1)\n  2838: jump @1603\n      : @115 (gas: 11)\n  2842: u64 [a4 + 1624] = 0\n  2846: u64 [a4 + 1616] = 0\n  2850: u64 [a4 + 1608] = 0\n  2854: u64 [s1 + 0x1b0] = a3\n  2858: a3 = 0x8c379a000000000\n  2868: a1 = s1 + 0x1780\n  2872: u64 [a4 + 0x660] = a3\n  2876: u64 [s1 + 0x1b8] = a0\n  2880: u64 [s1 + 0x1a8] = t0\n  2884: u64 [s1 + 0x1a0] = a5\n  2888: ra = 76, jump @19\n      : @116 [@dyn 38] (gas: 1)\n  2893: t0 = 78, jump @1939\n      : @117 [@dyn 39] (gas: 1)\n  2899: jump @119 if a0 != 0\n      : @118 (gas: 1)\n  2902: jump @1603\n      : @119 (gas: 4)\n  2906: i32 a0 = a1 + 0x4\n  2909: t0 = 0x50\n  2912: a2 = s1 + 0x1138\n  2916: fallthrough\n      : @120 [@dyn 40] (gas: 8)\n  2917: u64 [a2 + 1600] = 0\n  2921: u64 [a2 + 1592] = 0\n  2925: u64 [a2 + 1576] = 0x20\n  2930: a1 = s1 + 0x1760\n  2934: u64 [a2 + 1584] = 0\n  2938: u64 [s1 + 0x1a8] = a3\n  2942: u64 [s1 + 0x1a0] = a4\n  2946: ra = 82, jump @19\n      : @121 [@dyn 41] (gas: 1)\n  2951: t0 = 84, jump @1952\n      : @122 [@dyn 42] (gas: 1)\n  2957: jump @124 if a0 != 0\n      : @123 (gas: 1)\n  2960: jump @1603\n      : @124 (gas: 4)\n  2964: i32 a0 = a1 + 0x24\n  2967: t0 = 0x56\n  2970: a2 = s1 + 0x1138\n  2974: fallthrough\n      : @125 [@dyn 43] (gas: 6)\n  2975: u64 [a2 + 1568] = 0\n  2979: u64 [a2 + 1560] = 0\n  2983: u64 [a2 + 1544] = 0x24\n  2988: a1 = s1 + 0x1740\n  2992: u64 [a2 + 1552] = 0\n  2996: ra = 88, jump @19\n      : @126 [@dyn 44] (gas: 1)\n  3001: t0 = 90, jump @1953\n      : @127 [@dyn 45] (gas: 1)\n  3007: jump @129 if a0 != 0\n      : @128 (gas: 1)\n  3010: jump @1603\n      : @129 (gas: 14)\n  3014: i32 a0 = a1 + 0x44\n  3017: a1 = u64 [0x20148]\n  3022: u64 [s1 + 0x1a0] = a2\n  3026: a4 = s1 + 0x1138\n  3030: u64 [a4 + 0x600] = a1\n  3034: a1 = u64 [0x20150]\n  3039: a2 = u64 [0x20158]\n  3044: a3 = u64 [0x20160]\n  3049: a5 = a4 + 0x500\n  3053: u64 [a5 + 0xf8] = a1\n  3057: u64 [a5 + 0xf0] = a2\n  3061: a1 = s1 + 0x1720\n  3065: u64 [a5 + 0xe8] = a3\n  3069: ra = 92, jump @19\n      : @130 [@dyn 46] (gas: 1)\n  3074: t0 = 94, jump @1951\n      : @131 [@dyn 47] (gas: 1)\n  3080: jump @133 if a0 != 0\n      : @132 (gas: 1)\n  3083: jump @1603\n      : @133 (gas: 10)\n  3087: i32 a0 = a2 + 0x64\n  3090: a3 = s1 + 0x1138\n  3094: u64 [a3 + 1496] = 0\n  3098: u64 [a3 + 1488] = 0\n  3102: a1 = 0x74696f6e00000000\n  3112: u64 [a3 + 0x5e0] = a1\n  3116: a1 = s1 + 0x1700\n  3120: u64 [a3 + 1480] = 0\n  3124: ra = 0x458\n  3128: jump @19\n      : @134 (gas: 9)\n  3131: a0 = s1 + 0x5138\n  3135: u64 [a0 + 128] = 0\n  3139: u64 [a0 + 120] = 0\n  3142: u64 [a0 + 112] = 0\n  3145: u64 [a0 + 104] = 0\n  3148: a0 = s1 + 0x5000\n  3152: i32 a0 = a0 + 0x1a0\n  3156: ecalli 16 // 'value_transferred'\n  3158: fallthrough\n      : @135 (gas: 9)\n  3159: a3 = s1 + 0x5138\n  3163: a0 = u64 [a3 + 0x78]\n  3166: a1 = u64 [a3 + 0x80]\n  3170: a2 = u64 [a3 + 0x70]\n  3173: a3 = u64 [a3 + 0x68]\n  3176: a1 = a1 | a2\n  3179: a0 = a0 | a3\n  3182: a0 = a0 | a1\n  3185: jump @137 if a0 == 0\n      : @136 (gas: 1)\n  3188: jump @1622\n      : @137 (gas: 3)\n  3192: a0 = u64 [s1 + 0x1b8]\n  3196: a0 = i32 [a0]\n  3198: jump @139 if a0 >u 3\n      : @138 (gas: 1)\n  3202: jump @1623\n      : @139 (gas: 8)\n  3206: a1 = s1 + 0x5138\n  3210: u64 [a1 + 160] = 0\n  3214: u64 [a1 + 152] = 0\n  3218: u64 [a1 + 144] = 0\n  3222: u64 [a1 + 136] = 0x4\n  3227: a0 = s1 + 0x2b20\n  3231: a1 = s1 + 0x51c0\n  3235: ra = 96, jump @21\n      : @140 [@dyn 48] (gas: 12)\n  3240: a1 = s1 + 0x2938\n  3244: a2 = a1 + 0x100\n  3248: a0 = u64 [a2 + 0xf8]\n  3252: a1 = s1 + 0x100\n  3256: u64 [a1 + 0xa8] = a0\n  3260: a0 = u64 [a2 + 0xf0]\n  3264: u64 [a1 + 0xb8] = a0\n  3268: a0 = u64 [a2 + 0xe8]\n  3272: u64 [a1 + 0xb0] = a0\n  3276: a0 = s1 + 0x2b00\n  3280: a1 = 0x40\n  3283: ra = 98, jump @17\n      : @141 [@dyn 49] (gas: 7)\n  3288: a3 = s1 + 0x2938\n  3292: a5 = a3 + 0x100\n  3296: a4 = u64 [a5 + 0xe0]\n  3300: a1 = u64 [a5 + 0xd8]\n  3304: a2 = u64 [a5 + 0xd0]\n  3308: a0 = u64 [a5 + 0xc8]\n  3312: t0 = 100, jump @2017\n      : @142 [@dyn 50] (gas: 1)\n  3318: jump @144 if a1 == 0\n      : @143 (gas: 1)\n  3321: jump @1603\n      : @144 (gas: 15)\n  3325: a4 = s1 + 0x100\n  3329: a1 = u64 [a4 + 0xa8]\n  3333: a1 = a1 << 0x20\n  3336: a2 = a1 >> 0x20\n  3339: u64 [a3 + 448] = 0\n  3343: a1 = u64 [a4 + 0xb0]\n  3347: a5 = a3 + 0x100\n  3351: u64 [a5 + 0xa8] = a1\n  3355: a1 = u64 [a4 + 0xb8]\n  3359: u64 [a5 + 0xb0] = a1\n  3363: a1 = s1 + 0x2ae0\n  3367: u64 [a5 + 0xb8] = a2\n  3371: u64 [s1 + 0x1b8] = a0\n  3375: ra = 0x348\n  3379: jump @19\n      : @145 (gas: 8)\n  3382: u64 [a2 + 448] = 0\n  3386: u64 [a2 + 440] = 0\n  3390: u64 [a2 + 432] = 0\n  3394: u64 [a2 + 424] = 0\n  3398: a0 = s1 + 0x5000\n  3402: i32 a0 = a0 + 0x2e0\n  3406: ecalli 16 // 'value_transferred'\n  3408: fallthrough\n      : @146 (gas: 10)\n  3409: a3 = s1 + 0x5138\n  3413: a4 = a3 + 0x100\n  3417: a0 = u64 [a4 + 0xb8]\n  3421: a1 = u64 [a4 + 0xc0]\n  3425: a2 = u64 [a4 + 0xb0]\n  3429: a3 = u64 [a4 + 0xa8]\n  3433: a1 = a1 | a2\n  3436: a0 = a0 | a3\n  3439: a0 = a0 | a1\n  3442: jump @148 if a0 == 0\n      : @147 (gas: 1)\n  3445: jump @1624\n      : @148 (gas: 3)\n  3449: a0 = u64 [s1 + 0x1b8]\n  3453: a0 = i32 [a0]\n  3455: jump @150 if a0 >u 67\n      : @149 (gas: 1)\n  3459: jump @1625\n      : @150 (gas: 21)\n  3463: a0 = s1 + 0x5000\n  3467: i32 a0 = a0 + 0x300\n  3471: a1 = 0x4\n  3474: ecalli 3 // 'call_data_load'\n  3476: a1 = s1 + 0x5138\n  3480: a2 = a1 + 0x100\n  3484: a0 = u64 [a2 + 0xe0]\n  3488: u64 [s1 + 0x1a0] = a0\n  3492: a0 = u64 [a2 + 0xd8]\n  3496: u64 [s1 + 0x1a8] = a0\n  3500: a0 = u64 [a2 + 0xd0]\n  3504: u64 [s1 + 0x1b0] = a0\n  3508: a0 = u64 [a2 + 0xc8]\n  3512: u64 [s1 + 0x1b8] = a0\n  3516: a0 = s1 + 0x5000\n  3520: i32 a0 = a0 + 0x320\n  3524: a1 = 0x24\n  3527: ecalli 3 // 'call_data_load'\n  3529: t0 = 0x66\n  3532: a1 = s1 + 0x5138\n  3536: fallthrough\n      : @151 [@dyn 51] (gas: 23)\n  3537: a0 = u64 [a1 + 0x200]\n  3541: a3 = s1 + 0x100\n  3545: u64 [a3 + 0x70] = a0\n  3548: a2 = a1 + 0x100\n  3552: a0 = u64 [a2 + 0xf8]\n  3556: u64 [a3 + 0x78] = a0\n  3559: a0 = u64 [a2 + 0xf0]\n  3563: u64 [a3 + 0x80] = a0\n  3567: a0 = u64 [a2 + 0xe8]\n  3571: u64 [a3 + 0x88] = a0\n  3575: a2 = s1 + 0x3138\n  3579: a0 = u64 [a3 + 0xa0]\n  3583: a4 = a2 + 0x600\n  3587: u64 [a4 + 0x80] = a0\n  3591: a0 = u64 [a3 + 0xa8]\n  3595: u64 [a4 + 0x78] = a0\n  3598: a0 = u64 [a3 + 0xb0]\n  3602: u64 [a4 + 0x70] = a0\n  3605: a1 = s1 + 0x37a0\n  3609: a0 = u64 [a3 + 0xb8]\n  3613: u64 [a4 + 0x68] = a0\n  3616: a0 = 0\n  3618: ra = 104, jump @19\n      : @152 [@dyn 52] (gas: 9)\n  3623: a0 = s1 + 0x3138\n  3627: u64 [a0 + 1632] = 0\n  3631: u64 [a0 + 1624] = 0\n  3635: u64 [a0 + 1616] = 0\n  3639: a2 = a0\n  3641: a0 = 0x20\n  3644: a1 = s1 + 0x3780\n  3648: u64 [a2 + 1608] = 0\n  3652: ra = 106, jump @19\n      : @153 [@dyn 53] (gas: 3)\n  3657: a2 = 0x201ec\n  3662: a0 = i32 [0x201ec]\n  3667: jump @155 if a0 >u 63\n      : @154 (gas: 2)\n  3671: u32 [0x201ec] = 0x40\n  3677: fallthrough\n      : @155 (gas: 15)\n  3678: u64 [s1 + 0x198] = a2\n  3682: a0 = sp + 0xffffffffffffffe0\n  3685: a2 = a0 & 0xffffffffffffffe0\n  3688: u64 [s1 + 0x168] = a2\n  3692: sp = a2\n  3694: a0 = 0x20200\n  3699: i32 a0 = a0 + 0\n  3701: i32 a2 = a2 + 0\n  3703: a1 = 0x40\n  3706: u64 [s1 + 0x190] = a0\n  3710: ra = 0x6c\n  3713: ecalli 8 // 'hash_keccak_256'\n  3715: a3 = u64 [s1 + 0x168]\n  3719: t0 = 0x6e\n  3722: jump @1946\n      : @156 [@dyn 54] (gas: 2)\n  3726: a3 = u64 [s1 + 0x168]\n  3730: t0 = 110, jump @1946\n      : @157 [@dyn 55] (gas: 8)\n  3736: a5 = a1 + 0x200\n  3740: u64 [a5 + 0x8] = a3\n  3743: u64 [a5 + 0x10] = a2\n  3746: u64 [a5 + 0x18] = a4\n  3749: u64 [a5 + 0x20] = a0\n  3752: a0 = s1 + 0x3760\n  3756: a1 = s1 + 0x5340\n  3760: ra = 112, jump @21\n      : @158 [@dyn 56] (gas: 15)\n  3765: a0 = s1 + 0x3138\n  3769: a1 = u64 [a0 + 0x630]\n  3773: u64 [s1 + 0x160] = a1\n  3777: a1 = u64 [a0 + 0x628]\n  3781: u64 [s1 + 0x158] = a1\n  3785: a0 = u32 [a0 + 0x638]\n  3789: u64 [s1 + 0x150] = a0\n  3793: a0 = 0x30200\n  3798: u64 [s1 + 0x168] = a0\n  3802: i32 a0 = a0 + 0\n  3804: u64 [s1 + 0x148] = a0\n  3808: ra = 0x72\n  3811: ecalli 5 // 'caller'\n  3813: t0 = 0x74\n  3816: jump @1942\n      : @159 [@dyn 57] (gas: 1)\n  3820: t0 = 116, jump @1942\n      : @160 [@dyn 58] (gas: 2)\n  3826: a1 = 0x1\n  3829: jump @162 if a0 != 0\n      : @161 (gas: 1)\n  3832: jump @690\n      : @162 (gas: 13)\n  3835: a0 = u64 [s1 + 0x1b8]\n  3839: a2 = s1 + 0x3138\n  3843: a3 = a2 + 0x600\n  3847: u64 [a3 + 0x8] = a0\n  3850: a0 = u64 [s1 + 0x1b0]\n  3854: u64 [a3 + 0x10] = a0\n  3857: a0 = u64 [s1 + 0x1a8]\n  3861: u64 [a3 + 0x18] = a0\n  3864: a1 = s1 + 0x3740\n  3868: a0 = u64 [s1 + 0x1a0]\n  3872: u64 [a3 + 0x20] = a0\n  3875: a0 = 0\n  3877: ra = 118, jump @19\n      : @163 [@dyn 59] (gas: 9)\n  3882: a0 = s1 + 0x3138\n  3886: u64 [a0 + 1536] = 0\n  3890: u64 [a0 + 1528] = 0\n  3894: u64 [a0 + 1520] = 0\n  3898: a2 = a0\n  3900: a0 = 0x20\n  3903: a1 = s1 + 0x3720\n  3907: u64 [a2 + 1512] = 0\n  3911: ra = 120, jump @19\n      : @164 [@dyn 60] (gas: 3)\n  3916: a2 = u64 [s1 + 0x198]\n  3920: a0 = i32 [a2]\n  3922: jump @166 if a0 >u 63\n      : @165 (gas: 2)\n  3926: u32 [a2 + 0] = 0x40\n  3929: fallthrough\n      : @166 (gas: 4)\n  3930: a0 = sp + 0xffffffffffffffe0\n  3933: a0 = a0 & 0xffffffffffffffe0\n  3936: u64 [s1 + 0x160] = a0\n  3940: t0 = 122, jump @2038\n      : @167 [@dyn 61] (gas: 5)\n  3946: ra = 0x7c\n  3949: ecalli 8 // 'hash_keccak_256'\n  3951: a3 = u64 [s1 + 0x160]\n  3955: t0 = 0x7e\n  3958: jump @1940\n      : @168 [@dyn 62] (gas: 2)\n  3962: a3 = u64 [s1 + 0x160]\n  3966: t0 = 126, jump @1940\n      : @169 [@dyn 63] (gas: 8)\n  3972: a3 = a1 + 0x200\n  3976: u64 [a3 + 0x28] = a4\n  3979: u64 [a3 + 0x30] = a5\n  3982: u64 [a3 + 0x38] = a2\n  3985: u64 [a3 + 0x40] = a0\n  3988: a0 = s1 + 0x3700\n  3992: a1 = s1 + 0x5360\n  3996: ra = 128, jump @21\n      : @170 [@dyn 64] (gas: 12)\n  4002: a0 = s1 + 0x3138\n  4006: a1 = u64 [a0 + 0x5d0]\n  4010: u64 [s1 + 0x160] = a1\n  4014: a1 = u64 [a0 + 0x5c8]\n  4018: u64 [s1 + 0x158] = a1\n  4022: a0 = u32 [a0 + 0x5d8]\n  4026: u64 [s1 + 0x150] = a0\n  4030: a0 = u64 [s1 + 0x148]\n  4034: ra = 0x82\n  4038: ecalli 5 // 'caller'\n  4040: t0 = 0x84\n  4044: jump @1942\n      : @171 [@dyn 65] (gas: 1)\n  4048: t0 = 132, jump @1942\n      : @172 [@dyn 66] (gas: 1)\n  4055: jump @174 if a0 == 0\n      : @173 (gas: 1)\n  4058: jump @682\n      : @174 (gas: 2)\n  4061: a1 = 0x1\n  4064: jump @690\n      : @175 (gas: 8)\n  4067: u64 [a2 + 416] = 0\n  4071: u64 [a2 + 408] = 0\n  4075: u64 [a2 + 400] = 0\n  4079: u64 [a2 + 392] = 0\n  4083: a0 = s1 + 0x5000\n  4087: i32 a0 = a0 + 0xfffffffffffffac0\n  4091: ecalli 16 // 'value_transferred'\n  4093: fallthrough\n      : @176 (gas: 10)\n  4094: a4 = s1 + 0x4938\n  4098: a5 = a4 + 0x100\n  4102: a0 = u64 [a5 + 0x98]\n  4106: a1 = u64 [a5 + 0xa0]\n  4110: a2 = u64 [a5 + 0x90]\n  4114: a3 = u64 [a5 + 0x88]\n  4118: a1 = a1 | a2\n  4121: a0 = a0 | a3\n  4124: a0 = a0 | a1\n  4127: jump @178 if a0 == 0\n      : @177 (gas: 1)\n  4130: jump @1626\n      : @178 (gas: 3)\n  4134: a0 = u64 [s1 + 0x1b8]\n  4138: a0 = i32 [a0]\n  4140: jump @180 if a0 >u 3\n      : @179 (gas: 1)\n  4144: jump @1627\n      : @180 (gas: 7)\n  4148: u64 [a4 + 448] = 0\n  4152: u64 [a4 + 440] = 0\n  4156: u64 [a4 + 432] = 0\n  4160: u64 [a4 + 424] = 0x1\n  4165: a0 = s1 + 0x1140\n  4169: a1 = s1 + 0x4ae0\n  4173: ra = 134, jump @21\n      : @181 [@dyn 67] (gas: 13)\n  4179: a1 = s1 + 0x1138\n  4183: a0 = u64 [a1 + 0x20]\n  4186: a2 = s1 + 0x100\n  4190: u64 [a2 + 0xb8] = a0\n  4194: a0 = u64 [a1 + 0x18]\n  4197: u64 [a2 + 0xb0] = a0\n  4201: a0 = u64 [a1 + 0x10]\n  4204: u64 [a2 + 0xa8] = a0\n  4208: a0 = u64 [a1 + 0x8]\n  4211: u64 [a2 + 0xa0] = a0\n  4215: a0 = s1 + 0x1120\n  4219: a1 = 0x40\n  4222: ra = 136, jump @17\n      : @182 [@dyn 68] (gas: 14)\n  4228: a3 = s1 + 0x1138\n  4232: a0 = u64 [a3]\n  4234: a4 = a3 + 0xffffffffffffff00\n  4238: a1 = u64 [a4 + 0xf8]\n  4242: a2 = u64 [a4 + 0xf0]\n  4246: a3 = u64 [a4 + 0xe8]\n  4250: a0 = a0 | a2\n  4253: a2 = a3 | a1\n  4256: a2 = a2 | a0\n  4259: a2 = a2 >> 0x20\n  4262: a0 = a0 | a1\n  4265: a0 = a0 << 0x20\n  4268: a0 = a0 | a2\n  4271: jump @184 if a0 == 0\n      : @183 (gas: 1)\n  4274: jump @1603\n      : @184 (gas: 17)\n  4278: a0 = s1 + 0x7ff\n  4282: a0 = a0 + 0x139\n  4286: a4 = s1 + 0x100\n  4290: a1 = u64 [a4 + 0xa0]\n  4294: a5 = a0 + 0x700\n  4298: u64 [a5 + 0xc8] = a1\n  4302: a1 = u64 [a4 + 0xa8]\n  4306: u64 [a5 + 0xd0] = a1\n  4310: a1 = u64 [a4 + 0xb0]\n  4314: u64 [a5 + 0xd8] = a1\n  4318: a1 = s1 + 0x1100\n  4322: a2 = u64 [a4 + 0xb8]\n  4326: u64 [a5 + 0xe0] = a2\n  4330: a0 = a3\n  4332: u64 [a4 + 0xb8] = a3\n  4336: ra = 0x348\n  4340: jump @19\n      : @185 (gas: 9)\n  4343: u64 [a2 + 288] = 0\n  4347: u64 [a2 + 280] = 0\n  4351: u64 [a2 + 272] = 0\n  4355: u64 [a2 + 264] = 0\n  4359: a0 = s1 + 0x5000\n  4363: i32 a0 = a0 + 0x240\n  4367: ra = 0x8a\n  4371: ecalli 16 // 'value_transferred'\n  4373: fallthrough\n      : @186 [@dyn 69] (gas: 3)\n  4374: a3 = s1 + 0x5138\n  4378: a4 = a3 + 0x100\n  4382: t0 = 140, jump @2037\n      : @187 [@dyn 70] (gas: 1)\n  4389: jump @189 if a0 == 0\n      : @188 (gas: 1)\n  4392: jump @1628\n      : @189 (gas: 1)\n  4396: t0 = 142, jump @2026\n      : @190 [@dyn 71] (gas: 1)\n  4403: jump @192 if a1 <u a0\n      : @191 (gas: 1)\n  4406: jump @1629\n      : @192 (gas: 5)\n  4410: a0 = 0xffffffff\n  4420: u64 [s1 + 0x158] = a0\n  4424: u64 [s1 + 256] = 0xff00\n  4431: a0 = s1 + 0x32e0\n  4435: ra = 144, jump @1785\n      : @193 [@dyn 72] (gas: 16)\n  4442: a1 = s1 + 0x3138\n  4446: a2 = a1 + 0x100\n  4450: a0 = u64 [a2 + 0xb8]\n  4454: u64 [s1 + 0x150] = a0\n  4458: a0 = u64 [a2 + 0xb0]\n  4462: u64 [s1 + 0x148] = a0\n  4466: a0 = u64 [a2 + 0xa8]\n  4470: u64 [s1 + 0x140] = a0\n  4474: a1 = s1 + 0x5138\n  4478: u64 [a1 + 320] = 0\n  4482: u64 [a1 + 312] = 0\n  4486: u64 [a1 + 304] = 0\n  4490: u64 [a1 + 296] = 0x1\n  4495: a0 = s1 + 0x32c0\n  4499: a1 = s1 + 0x5260\n  4503: ra = 146, jump @21\n      : @194 [@dyn 73] (gas: 17)\n  4509: a4 = s1 + 0x3138\n  4513: a5 = a4 + 0x100\n  4517: a0 = u64 [a5 + 0xa0]\n  4521: a1 = u64 [a5 + 0x98]\n  4525: a2 = u64 [a5 + 0x90]\n  4529: a3 = u64 [a5 + 0x88]\n  4533: u64 [s1 + 0x178] = a0\n  4537: u64 [a5 + 0x60] = a0\n  4540: u64 [s1 + 0x170] = a1\n  4544: u64 [a5 + 0x58] = a1\n  4547: u64 [s1 + 0x168] = a2\n  4551: u64 [a5 + 0x50] = a2\n  4554: a0 = s1 + 0x32a0\n  4558: a1 = s1 + 0x3280\n  4562: u64 [s1 + 0x160] = a3\n  4566: u64 [a5 + 0x48] = a3\n  4569: ra = 148, jump @1836\n      : @195 [@dyn 74] (gas: 2)\n  4576: a0 = 0x3000\n  4580: t0 = 150, jump @2015\n      : @196 [@dyn 75] (gas: 19)\n  4587: a0 = u64 [a2 + 0x80]\n  4591: a1 = s1 + 0x100\n  4595: u64 [a1 + 0x20] = a0\n  4598: a0 = u64 [a2 + 0x78]\n  4601: u64 [a1 + 0x18] = a0\n  4604: a0 = u64 [a2 + 0x70]\n  4607: u64 [a1 + 0x10] = a0\n  4610: a0 = u64 [a2 + 0x68]\n  4613: u64 [a1 + 0x8] = a0\n  4616: u64 [s1 + 312] = 0\n  4620: u64 [s1 + 304] = 0\n  4624: u64 [s1 + 296] = 0\n  4628: u64 [s1 + 384] = 0\n  4632: t1 = 0\n  4634: t2 = 0\n  4636: t0 = 0\n  4638: ra = 0\n  4640: a4 = s1 + 0x2938\n  4644: fallthrough\n      : @197 (gas: 17)\n  4645: a0 = u64 [s1 + 0x160]\n  4649: a0 = t1 <u a0\n  4652: a2 = u64 [s1 + 0x168]\n  4656: a1 = t2 ^ a2\n  4659: a2 = t2 <u a2\n  4662: a2 = a0 if a1 == 0\n  4665: a5 = u64 [s1 + 0x170]\n  4669: a0 = t0 <u a5\n  4672: a3 = u64 [s1 + 0x178]\n  4676: a1 = ra ^ a3\n  4679: a3 = ra <u a3\n  4682: a3 = a0 if a1 == 0\n  4685: a0 = t0 ^ a5\n  4688: a0 = a0 | a1\n  4691: a3 = a2 if a0 == 0\n  4694: a2 = u64 [s1 + 0x180]\n  4698: jump @199 if a3 != 0\n      : @198 (gas: 1)\n  4701: jump @609\n      : @199 (gas: 11)\n  4704: u64 [s1 + 0x1b8] = t1\n  4708: u64 [a4 + 0x748] = t1\n  4712: u64 [s1 + 0x1b0] = t2\n  4716: u64 [a4 + 0x750] = t2\n  4720: u64 [s1 + 0x1a0] = t0\n  4724: u64 [a4 + 0x758] = t0\n  4728: a1 = s1 + 0x3080\n  4732: u64 [s1 + 0x1a8] = ra\n  4736: u64 [a4 + 0x760] = ra\n  4740: a0 = 0\n  4742: ra = 152, jump @19\n      : @200 [@dyn 76] (gas: 2)\n  4748: a0 = 0x2938\n  4752: t0 = 154, jump @2027\n      : @201 [@dyn 77] (gas: 4)\n  4759: i32 a1 = a1 + 0x60\n  4762: a1 = a1 + s1\n  4765: u64 [a2 + 1832] = 0\n  4769: ra = 156, jump @19\n      : @202 [@dyn 78] (gas: 3)\n  4775: a2 = 0x201ec\n  4780: a0 = i32 [0x201ec]\n  4785: jump @204 if a0 >u 63\n      : @203 (gas: 2)\n  4789: u32 [0x201ec] = 0x40\n  4795: fallthrough\n      : @204 (gas: 15)\n  4796: u64 [s1 + 0x190] = a2\n  4800: a0 = sp + 0xffffffffffffffe0\n  4803: a2 = a0 & 0xffffffffffffffe0\n  4806: u64 [s1 + 0x198] = a2\n  4810: sp = a2\n  4812: a0 = 0x20200\n  4817: i32 a0 = a0 + 0\n  4819: i32 a2 = a2 + 0\n  4821: a1 = 0x40\n  4824: u64 [s1 + 0x188] = a0\n  4828: ra = 0x9e\n  4832: ecalli 8 // 'hash_keccak_256'\n  4834: a3 = u64 [s1 + 0x198]\n  4838: t0 = 0xa0\n  4842: jump @1940\n      : @205 [@dyn 79] (gas: 2)\n  4846: a3 = u64 [s1 + 0x198]\n  4850: t0 = 160, jump @1940\n      : @206 [@dyn 80] (gas: 8)\n  4857: a3 = a1 + 0x100\n  4861: u64 [a3 + 0x48] = a4\n  4864: u64 [a3 + 0x50] = a5\n  4867: u64 [a3 + 0x58] = a2\n  4870: u64 [a3 + 0x60] = a0\n  4873: a0 = s1 + 0x3040\n  4877: a1 = s1 + 0x5280\n  4881: ra = 162, jump @21\n      : @207 [@dyn 81] (gas: 3)\n  4887: t0 = 0xa4\n  4891: a4 = s1 + 0x2938\n  4895: fallthrough\n      : @208 [@dyn 82] (gas: 17)\n  4896: a3 = a4 + 0x700\n  4900: a0 = u64 [a3 + 0x8]\n  4903: a1 = u64 [a3 + 0x18]\n  4906: a2 = u64 [a3 + 0x10]\n  4909: a3 = u64 [s1 + 0x140]\n  4913: a0 = a0 ^ a3\n  4916: a3 = u64 [s1 + 0x150]\n  4920: a1 = a1 ^ a3\n  4923: a3 = u64 [s1 + 0x148]\n  4927: a2 = a2 ^ a3\n  4930: a2 = a2 & 0xffffffffffffffff\n  4933: a5 = u64 [s1 + 0x158]\n  4937: a1 = a1 & a5\n  4940: a0 = a0 & 0xffffffffffffffff\n  4943: a0 = a0 | a1\n  4946: a0 = a0 | a2\n  4949: jump @211 if a0 == 0\n      : @209 (gas: 5)\n  4952: t1 = u64 [s1 + 0x1b8]\n  4956: t2 = u64 [s1 + 0x1b0]\n  4960: ra = u64 [s1 + 0x1a8]\n  4964: a1 = u64 [s1 + 0x1a0]\n  4968: fallthrough\n      : @210 (gas: 9)\n  4969: t1 = t1 + 0x1\n  4972: a0 = t1 <u 0x1\n  4975: t2 = t2 + a0\n  4978: a0 = t1 | t2\n  4981: a0 = a0 <u 0x1\n  4984: t0 = a1 + a0\n  4987: a1 = t0 <u a1\n  4990: ra = ra + a1\n  4993: jump @197\n      : @211 (gas: 12)\n  4996: a0 = u64 [s1 + 0x1b8]\n  5000: a1 = a4 + 0x600\n  5004: u64 [a1 + 0xe8] = a0\n  5008: a0 = u64 [s1 + 0x1b0]\n  5012: u64 [a1 + 0xf0] = a0\n  5016: a0 = u64 [s1 + 0x1a0]\n  5020: u64 [a1 + 0xf8] = a0\n  5024: a1 = s1 + 0x3020\n  5028: a0 = u64 [s1 + 0x1a8]\n  5032: u64 [a4 + 0x700] = a0\n  5036: a0 = 0\n  5038: ra = 166, jump @19\n      : @212 [@dyn 83] (gas: 9)\n  5044: a0 = s1 + 0x2938\n  5048: u64 [a0 + 1760] = 0\n  5052: u64 [a0 + 1752] = 0\n  5056: u64 [a0 + 1744] = 0\n  5060: a2 = a0\n  5062: a0 = 0x20\n  5065: a1 = s1 + 0x3000\n  5069: u64 [a2 + 1736] = 0\n  5073: ra = 168, jump @19\n      : @213 [@dyn 84] (gas: 3)\n  5079: a2 = u64 [s1 + 0x190]\n  5083: a0 = i32 [a2]\n  5085: jump @215 if a0 >u 63\n      : @214 (gas: 2)\n  5089: u32 [a2 + 0] = 0x40\n  5092: fallthrough\n      : @215 (gas: 4)\n  5093: a0 = sp + 0xffffffffffffffe0\n  5096: a0 = a0 & 0xffffffffffffffe0\n  5099: u64 [s1 + 0x198] = a0\n  5103: t0 = 170, jump @2005\n      : @216 [@dyn 85] (gas: 4)\n  5110: ra = 0xac\n  5114: ecalli 8 // 'hash_keccak_256'\n  5116: t0 = 0xae\n  5120: jump @1956\n      : @217 [@dyn 86] (gas: 1)\n  5124: t0 = 174, jump @1956\n      : @218 [@dyn 87] (gas: 7)\n  5131: u64 [a3 + 0x68] = a4\n  5134: u64 [a3 + 0x70] = a5\n  5137: u64 [a3 + 0x78] = a2\n  5140: u64 [a3 + 0x80] = a0\n  5144: a0 = s1 + 0x2fe0\n  5148: a1 = s1 + 0x52a0\n  5152: ra = 176, jump @21\n      : @219 [@dyn 88] (gas: 3)\n  5158: t0 = 0xb2\n  5162: a4 = s1 + 0x2938\n  5166: fallthrough\n      : @220 [@dyn 89] (gas: 2)\n  5167: a0 = u8 [a4 + 0x6a8]\n  5171: jump @209 if a0 == 0\n      : @221 (gas: 12)\n  5175: a0 = u64 [s1 + 0x1b8]\n  5179: a2 = a4 + 0x600\n  5183: u64 [a2 + 0x88] = a0\n  5187: a0 = u64 [s1 + 0x1b0]\n  5191: u64 [a2 + 0x90] = a0\n  5195: a0 = u64 [s1 + 0x1a0]\n  5199: u64 [a2 + 0x98] = a0\n  5203: a1 = s1 + 0x2fc0\n  5207: a0 = u64 [s1 + 0x1a8]\n  5211: u64 [a2 + 0xa0] = a0\n  5215: a0 = 0\n  5217: ra = 180, jump @19\n      : @222 [@dyn 90] (gas: 9)\n  5223: a0 = s1 + 0x2938\n  5227: u64 [a0 + 1664] = 0\n  5231: u64 [a0 + 1656] = 0\n  5235: u64 [a0 + 1648] = 0\n  5239: a2 = a0\n  5241: a0 = 0x20\n  5244: a1 = s1 + 0x2fa0\n  5248: u64 [a2 + 1640] = 0\n  5252: ra = 182, jump @19\n      : @223 [@dyn 91] (gas: 3)\n  5258: a2 = u64 [s1 + 0x190]\n  5262: a0 = i32 [a2]\n  5264: jump @225 if a0 >u 63\n      : @224 (gas: 2)\n  5268: u32 [a2 + 0] = 0x40\n  5271: fallthrough\n      : @225 (gas: 4)\n  5272: a0 = sp + 0xffffffffffffffe0\n  5275: a0 = a0 & 0xffffffffffffffe0\n  5278: u64 [s1 + 0x198] = a0\n  5282: t0 = 184, jump @2005\n      : @226 [@dyn 92] (gas: 4)\n  5289: ra = 0xba\n  5293: ecalli 8 // 'hash_keccak_256'\n  5295: t0 = 0xbc\n  5299: jump @1956\n      : @227 [@dyn 93] (gas: 1)\n  5303: t0 = 188, jump @1956\n      : @228 [@dyn 94] (gas: 7)\n  5310: u64 [a3 + 0x88] = a4\n  5314: u64 [a3 + 0x90] = a5\n  5318: u64 [a3 + 0x98] = a2\n  5322: u64 [a3 + 0xa0] = a0\n  5326: a0 = s1 + 0x2f80\n  5330: a1 = s1 + 0x52c0\n  5334: ra = 190, jump @21\n      : @229 [@dyn 95] (gas: 3)\n  5340: t0 = 0xc0\n  5344: a4 = s1 + 0x2938\n  5348: fallthrough\n      : @230 [@dyn 96] (gas: 4)\n  5349: a0 = u64 [a4 + 0x648]\n  5353: a1 = u64 [s1 + 0x100]\n  5357: a0 = a0 & a1\n  5360: jump @209 if a0 != 0\n      : @231 (gas: 22)\n  5364: a5 = s1 + 0x100\n  5368: a0 = u64 [a5 + 0x38]\n  5371: a1 = a4 + 0x500\n  5375: u64 [a1 + 0xe8] = a0\n  5379: a0 = u64 [a5 + 0x8]\n  5382: u64 [a4 + 0x608] = a0\n  5386: a0 = u64 [a5 + 0x30]\n  5389: u64 [a1 + 0xf0] = a0\n  5393: a0 = u64 [a5 + 0x10]\n  5396: u64 [a4 + 0x610] = a0\n  5400: a0 = u64 [a5 + 0x28]\n  5403: u64 [a1 + 0xf8] = a0\n  5407: a0 = u64 [a5 + 0x18]\n  5410: u64 [a4 + 0x618] = a0\n  5414: a0 = u64 [a5 + 0x80]\n  5418: u64 [a4 + 0x600] = a0\n  5422: a0 = s1 + 0x2f60\n  5426: a1 = s1 + 0x2f40\n  5430: a2 = s1 + 0x2f20\n  5434: a3 = u64 [a5 + 0x20]\n  5437: u64 [a4 + 0x620] = a3\n  5441: ra = 194, jump @1858\n      : @232 [@dyn 97] (gas: 7)\n  5448: a4 = s1 + 0x2938\n  5452: a5 = a4 + 0x600\n  5456: a1 = u64 [a5 + 0x40]\n  5459: a2 = u64 [a5 + 0x38]\n  5462: a3 = u64 [a5 + 0x30]\n  5465: a0 = u64 [a5 + 0x28]\n  5468: t0 = 196, jump @1955\n      : @233 [@dyn 98] (gas: 1)\n  5475: jump @235 if a1 == 0\n      : @234 (gas: 1)\n  5478: jump @1603\n      : @235 (gas: 11)\n  5482: a1 = u64 [s1 + 0x1b8]\n  5486: a3 = a4 + 0x500\n  5490: u64 [a3 + 0xc8] = a1\n  5494: a1 = u64 [s1 + 0x1b0]\n  5498: u64 [a3 + 0xd0] = a1\n  5502: a1 = u64 [s1 + 0x1a0]\n  5506: u64 [a3 + 0xd8] = a1\n  5510: a1 = s1 + 0x2f00\n  5514: a2 = u64 [s1 + 0x1a8]\n  5518: u64 [a3 + 0xe0] = a2\n  5522: ra = 198, jump @19\n      : @236 [@dyn 99] (gas: 15)\n  5528: a0 = s1 + 0x2938\n  5532: a1 = u64 [s1 + 0x180]\n  5536: u64 [a0 + 0x5a0] = a1\n  5540: a0 = s1 + 0x2938\n  5544: a1 = u64 [s1 + 0x128]\n  5548: u64 [a0 + 0x598] = a1\n  5552: a0 = s1 + 0x2938\n  5556: a1 = u64 [s1 + 0x130]\n  5560: u64 [a0 + 0x590] = a1\n  5564: a0 = s1 + 0x2ee0\n  5568: a1 = s1 + 0x2ec0\n  5572: a2 = s1 + 0x2938\n  5576: a3 = u64 [s1 + 0x138]\n  5580: u64 [a2 + 0x588] = a3\n  5584: ra = 200, jump @1900\n      : @237 [@dyn 100] (gas: 16)\n  5591: a2 = s1 + 0x100\n  5595: a1 = u64 [a2 + 0xa0]\n  5599: ra = u64 [s1 + 0x1a8]\n  5603: t2 = u64 [s1 + 0x1b0]\n  5607: t1 = u64 [s1 + 0x1b8]\n  5611: a4 = s1 + 0x2938\n  5615: a3 = a4 + 0x500\n  5619: a0 = u64 [a3 + 0xc0]\n  5623: u64 [a2 + 0x80] = a0\n  5627: a0 = u64 [a3 + 0xb8]\n  5631: u64 [a2 + 0x28] = a0\n  5634: a0 = u64 [a3 + 0xb0]\n  5638: u64 [a2 + 0x30] = a0\n  5641: a0 = u64 [a3 + 0xa8]\n  5645: u64 [a2 + 0x38] = a0\n  5648: jump @210\n      : @238 (gas: 9)\n  5651: u64 [a2 + 1568] = 0\n  5655: u64 [a2 + 1560] = 0\n  5659: u64 [a2 + 1552] = 0\n  5663: u64 [a2 + 1544] = 0\n  5667: a0 = s1 + 0x5000\n  5671: i32 a0 = a0 + 0x740\n  5675: ra = 0xca\n  5679: ecalli 16 // 'value_transferred'\n  5681: fallthrough\n      : @239 [@dyn 101] (gas: 3)\n  5682: a3 = s1 + 0x5138\n  5686: a4 = a3 + 0x600\n  5690: t0 = 204, jump @2037\n      : @240 [@dyn 102] (gas: 1)\n  5697: jump @242 if a0 == 0\n      : @241 (gas: 1)\n  5700: jump @1630\n      : @242 (gas: 1)\n  5704: t0 = 206, jump @2026\n      : @243 [@dyn 103] (gas: 1)\n  5711: jump @245 if a1 <u a0\n      : @244 (gas: 1)\n  5714: jump @1631\n      : @245 (gas: 2)\n  5718: a0 = s1 + 0x4280\n  5722: ra = 208, jump @1785\n      : @246 [@dyn 104] (gas: 2)\n  5729: a0 = 0x4000\n  5733: t0 = 210, jump @2015\n      : @247 [@dyn 105] (gas: 14)\n  5740: a0 = u64 [a2 + 0x58]\n  5743: u64 [s1 + 0x188] = a0\n  5747: a0 = u64 [a2 + 0x50]\n  5750: u64 [s1 + 0x190] = a0\n  5754: a0 = u64 [a2 + 0x48]\n  5757: u64 [s1 + 0x198] = a0\n  5761: a1 = s1 + 0x5138\n  5765: u64 [a1 + 1600] = 0\n  5769: u64 [a1 + 1592] = 0\n  5773: u64 [a1 + 1584] = 0\n  5777: u64 [a1 + 1576] = 0x3\n  5782: a0 = s1 + 0x4260\n  5786: a1 = s1 + 0x5760\n  5790: ra = 212, jump @21\n      : @248 [@dyn 106] (gas: 13)\n  5796: a1 = s1 + 0x4138\n  5800: a0 = u64 [a1 + 0x130]\n  5804: u64 [s1 + 0x1b8] = a0\n  5808: a0 = u64 [a1 + 0x128]\n  5812: u64 [s1 + 0x1b0] = a0\n  5816: a0 = u32 [a1 + 0x138]\n  5820: u64 [s1 + 0x1a8] = a0\n  5824: a0 = 0x30200\n  5829: u64 [s1 + 0x1a0] = a0\n  5833: i32 a0 = a0 + 0\n  5835: ra = 0xd6\n  5839: ecalli 5 // 'caller'\n  5841: fallthrough\n      : @249 [@dyn 107] (gas: 3)\n  5842: a5 = s1 + 0x100\n  5846: a2 = u64 [a5 + 0xa0]\n  5850: t0 = 216, jump @1936\n      : @250 [@dyn 108] (gas: 1)\n  5857: jump @252 if a0 != 0\n      : @251 (gas: 1)\n  5860: jump @1632\n      : @252 (gas: 3)\n  5864: a0 = s1 + 0x4240\n  5868: a1 = 0x40\n  5871: ra = 218, jump @17\n      : @253 [@dyn 109] (gas: 14)\n  5877: a4 = s1 + 0x4138\n  5881: t0 = u64 [a4 + 0x120]\n  5885: a1 = a4 + 0x100\n  5889: a5 = u64 [a1 + 0x18]\n  5892: a3 = u64 [a1 + 0x10]\n  5895: a0 = u64 [a1 + 0x8]\n  5898: a2 = a3 | t0\n  5901: a1 = a0 | a5\n  5904: a1 = a1 | a2\n  5907: a1 = a1 >> 0x20\n  5910: a2 = a2 | a5\n  5913: a2 = a2 << 0x20\n  5916: a1 = a1 | a2\n  5919: jump @255 if a1 == 0\n      : @254 (gas: 1)\n  5922: jump @1603\n      : @255 (gas: 11)\n  5926: u64 [a4 + 248] = 0\n  5930: u64 [a4 + 240] = 0\n  5934: u64 [a4 + 232] = 0\n  5938: u64 [s1 + 0x1b0] = a3\n  5942: a3 = 0x8c379a000000000\n  5952: a1 = s1 + 0x4220\n  5956: u64 [a4 + 0x100] = a3\n  5960: u64 [s1 + 0x1b8] = a0\n  5964: u64 [s1 + 0x1a8] = t0\n  5968: u64 [s1 + 0x1a0] = a5\n  5972: ra = 220, jump @19\n      : @256 [@dyn 110] (gas: 1)\n  5978: t0 = 222, jump @1939\n      : @257 [@dyn 111] (gas: 1)\n  5985: jump @259 if a0 != 0\n      : @258 (gas: 1)\n  5988: jump @1603\n      : @259 (gas: 11)\n  5992: i32 a0 = a1 + 0x4\n  5995: a2 = s1 + 0x4138\n  5999: a5 = 0\n  6001: u64 [a2 + 224] = 0\n  6005: u64 [a2 + 216] = 0\n  6009: u64 [a2 + 200] = 0x20\n  6014: a1 = s1 + 0x4200\n  6018: u64 [a2 + 208] = 0\n  6022: u64 [s1 + 0x1a8] = a3\n  6026: u64 [s1 + 0x1a0] = a4\n  6030: ra = 224, jump @19\n      : @260 [@dyn 112] (gas: 1)\n  6036: t0 = 226, jump @1952\n      : @261 [@dyn 113] (gas: 1)\n  6043: jump @263 if a0 != 0\n      : @262 (gas: 1)\n  6046: jump @1603\n      : @263 (gas: 8)\n  6050: i32 a0 = a1 + 0x24\n  6053: a2 = s1 + 0x4138\n  6057: u64 [a2 + 192] = 0\n  6061: u64 [a2 + 184] = 0\n  6065: u64 [a2 + 168] = 0x21\n  6070: a1 = s1 + 0x41e0\n  6074: u64 [a2 + 176] = 0\n  6078: ra = 228, jump @19\n      : @264 [@dyn 114] (gas: 1)\n  6084: t0 = 230, jump @1953\n      : @265 [@dyn 115] (gas: 1)\n  6091: jump @267 if a0 != 0\n      : @266 (gas: 1)\n  6094: jump @1603\n      : @267 (gas: 13)\n  6098: i32 a0 = a1 + 0x44\n  6101: a1 = u64 [0x20000]\n  6106: u64 [s1 + 0x1a0] = a2\n  6110: a4 = s1 + 0x4138\n  6114: u64 [a4 + 0xa0] = a1\n  6118: a1 = u64 [0x20008]\n  6123: a2 = u64 [0x20010]\n  6128: a3 = u64 [0x20018]\n  6133: u64 [a4 + 0x98] = a1\n  6137: u64 [a4 + 0x90] = a2\n  6141: a1 = s1 + 0x41c0\n  6145: u64 [a4 + 0x88] = a3\n  6149: ra = 232, jump @19\n      : @268 [@dyn 116] (gas: 1)\n  6155: t0 = 234, jump @1951\n      : @269 [@dyn 117] (gas: 1)\n  6162: jump @271 if a0 != 0\n      : @270 (gas: 1)\n  6165: jump @1603\n      : @271 (gas: 10)\n  6169: i32 a0 = a2 + 0x64\n  6172: a3 = s1 + 0x4138\n  6176: u64 [a3 + 120] = 0\n  6179: u64 [a3 + 112] = 0\n  6182: a1 = 0x6e00000000000000\n  6192: u64 [a3 + 0x80] = a1\n  6196: a1 = s1 + 0x41a0\n  6200: u64 [a3 + 104] = 0\n  6203: ra = 0x458\n  6207: jump @19\n      : @272 (gas: 9)\n  6210: u64 [a2 + 640] = 0\n  6214: u64 [a2 + 632] = 0\n  6218: u64 [a2 + 624] = 0\n  6222: u64 [a2 + 616] = 0\n  6226: a0 = s1 + 0x5000\n  6230: i32 a0 = a0 + 0xfffffffffffffba0\n  6234: ra = 0xec\n  6238: ecalli 16 // 'value_transferred'\n  6240: fallthrough\n      : @273 [@dyn 118] (gas: 10)\n  6241: a3 = s1 + 0x4938\n  6245: a4 = a3 + 0x200\n  6249: a0 = u64 [a4 + 0x78]\n  6252: a1 = u64 [a4 + 0x80]\n  6256: a2 = u64 [a4 + 0x70]\n  6259: a3 = u64 [a4 + 0x68]\n  6262: a1 = a1 | a2\n  6265: a0 = a0 | a3\n  6268: a0 = a0 | a1\n  6271: jump @275 if a0 == 0\n      : @274 (gas: 1)\n  6274: jump @1635\n      : @275 (gas: 1)\n  6278: t0 = 238, jump @2026\n      : @276 [@dyn 119] (gas: 1)\n  6285: jump @278 if a1 <u a0\n      : @277 (gas: 1)\n  6288: jump @1636\n      : @278 (gas: 24)\n  6292: a0 = s1 + 0x5000\n  6296: i32 a0 = a0 + 0xfffffffffffffbc0\n  6300: a1 = 0x4\n  6303: ecalli 3 // 'call_data_load'\n  6305: a0 = s1 + 0x4938\n  6309: a5 = a0 + 0x200\n  6313: a4 = u64 [a5 + 0xa0]\n  6317: a3 = u64 [a5 + 0x98]\n  6321: a1 = u64 [a5 + 0x90]\n  6325: a2 = u64 [a5 + 0x88]\n  6329: a0 = s1 + 0x1138\n  6333: a5 = s1 + 0x100\n  6337: u64 [a5 + 0x98] = a4\n  6341: u64 [a0 + 0x520] = a4\n  6345: u64 [a5 + 0xa0] = a3\n  6349: a4 = a0 + 0x500\n  6353: u64 [a4 + 0x18] = a3\n  6356: u64 [a5 + 0xa8] = a1\n  6360: u64 [a4 + 0x10] = a1\n  6363: a1 = s1 + 0x1640\n  6367: u64 [a5 + 0xb0] = a2\n  6371: u64 [a4 + 0x8] = a2\n  6374: a0 = 0\n  6376: ra = 240, jump @19\n      : @279 [@dyn 120] (gas: 2)\n  6382: a0 = 0x1138\n  6386: t0 = 242, jump @2035\n      : @280 [@dyn 121] (gas: 3)\n  6393: a1 = s1 + 0x1620\n  6397: u64 [a2 + 1256] = 0\n  6401: ra = 244, jump @19\n      : @281 [@dyn 122] (gas: 4)\n  6407: a2 = 0x201ec\n  6412: a0 = i32 [0x201ec]\n  6417: a1 = 0x3f\n  6420: jump @283 if a1 <u a0\n      : @282 (gas: 4)\n  6423: u32 [0x201ec] = 0x40\n  6429: u64 [s1 + 0x190] = a2\n  6433: t0 = 0xf6\n  6437: jump @1993\n      : @283 (gas: 2)\n  6441: u64 [s1 + 0x190] = a2\n  6445: t0 = 246, jump @1993\n      : @284 [@dyn 123] (gas: 9)\n  6452: a0 = 0x20200\n  6457: i32 a0 = a0 + 0\n  6459: i32 a2 = a2 + 0\n  6461: a1 = 0x40\n  6464: u64 [s1 + 0x188] = a0\n  6468: ra = 0xf8\n  6472: ecalli 8 // 'hash_keccak_256'\n  6474: t0 = 0xfa\n  6478: jump @1941\n      : @285 [@dyn 124] (gas: 1)\n  6482: t0 = 250, jump @1941\n      : @286 [@dyn 125] (gas: 8)\n  6489: a5 = a1 + 0x200\n  6493: u64 [a5 + 0xa8] = a3\n  6497: u64 [a5 + 0xb0] = a2\n  6501: u64 [a5 + 0xb8] = a4\n  6505: u64 [a5 + 0xc0] = a0\n  6509: a0 = s1 + 0x1600\n  6513: a1 = s1 + 0x4be0\n  6517: ra = 252, jump @21\n      : @287 [@dyn 126] (gas: 15)\n  6523: a0 = s1 + 0x1138\n  6527: a1 = u64 [a0 + 0x4d0]\n  6531: u64 [s1 + 0x180] = a1\n  6535: a1 = u64 [a0 + 0x4c8]\n  6539: u64 [s1 + 0x178] = a1\n  6543: a0 = u32 [a0 + 0x4d8]\n  6547: u64 [s1 + 0x170] = a0\n  6551: a0 = 0x30200\n  6556: u64 [s1 + 0x1b8] = a0\n  6560: i32 a0 = a0 + 0\n  6562: u64 [s1 + 0x168] = a0\n  6566: ra = 0xfe\n  6570: ecalli 5 // 'caller'\n  6572: t0 = 0x100\n  6576: jump @1944\n      : @288 [@dyn 127] (gas: 1)\n  6580: t0 = 256, jump @1944\n      : @289 [@dyn 128] (gas: 2)\n  6587: a1 = 0x1\n  6590: jump @291 if a0 != 0\n      : @290 (gas: 1)\n  6593: jump @750\n      : @291 (gas: 4)\n  6596: a0 = u64 [s1 + 0x1b0]\n  6600: t0 = 0x102\n  6604: a2 = s1 + 0x1138\n  6608: fallthrough\n      : @292 [@dyn 129] (gas: 11)\n  6609: a3 = a2 + 0x400\n  6613: u64 [a3 + 0xa8] = a0\n  6617: a0 = u64 [s1 + 0x1a8]\n  6621: u64 [a3 + 0xb0] = a0\n  6625: a0 = u64 [s1 + 0x1a0]\n  6629: u64 [a3 + 0xb8] = a0\n  6633: a1 = s1 + 0x15e0\n  6637: a0 = u64 [s1 + 0x198]\n  6641: u64 [a3 + 0xc0] = a0\n  6645: a0 = 0\n  6647: ra = 260, jump @19\n      : @293 [@dyn 130] (gas: 9)\n  6653: a0 = s1 + 0x1138\n  6657: u64 [a0 + 1184] = 0\n  6661: u64 [a0 + 1176] = 0\n  6665: u64 [a0 + 1168] = 0\n  6669: a2 = a0\n  6671: a0 = 0x20\n  6674: a1 = s1 + 0x15c0\n  6678: u64 [a2 + 1160] = 0\n  6682: ra = 262, jump @19\n      : @294 [@dyn 131] (gas: 3)\n  6688: a2 = u64 [s1 + 0x190]\n  6692: a0 = i32 [a2]\n  6694: jump @296 if a0 >u 63\n      : @295 (gas: 2)\n  6698: u32 [a2 + 0] = 0x40\n  6701: fallthrough\n      : @296 (gas: 4)\n  6702: a0 = sp + 0xffffffffffffffe0\n  6705: a0 = a0 & 0xffffffffffffffe0\n  6708: u64 [s1 + 0x180] = a0\n  6712: t0 = 264, jump @2005\n      : @297 [@dyn 132] (gas: 27)\n  6719: ecalli 8 // 'hash_keccak_256'\n  6721: a3 = u64 [s1 + 0x180]\n  6725: a0 = u64 [a3]\n  6727: a1 = u64 [a3 + 0x8]\n  6730: a2 = u64 [a3 + 0x10]\n  6733: a3 = u64 [a3 + 0x18]\n  6736: a0 = reverse a0\n  6738: a1 = reverse a1\n  6740: a2 = reverse a2\n  6742: a3 = reverse a3\n  6744: a4 = a3 + 0x2\n  6747: a3 = a4 <u a3\n  6750: a5 = a2 + a3\n  6753: a2 = a5 <u a2\n  6756: a2 = a3 if a3 == 0\n  6759: a2 = a2 + a1\n  6762: a1 = a2 <u a1\n  6765: a0 = a0 + a1\n  6768: a1 = s1 + 0x4938\n  6772: a3 = a1 + 0x200\n  6776: u64 [a3 + 0xc8] = a4\n  6780: u64 [a3 + 0xd0] = a5\n  6784: u64 [a3 + 0xd8] = a2\n  6788: u64 [a3 + 0xe0] = a0\n  6792: a0 = s1 + 0x15a0\n  6796: a1 = s1 + 0x4c00\n  6800: ra = 266, jump @21\n      : @298 [@dyn 133] (gas: 12)\n  6806: a0 = s1 + 0x1138\n  6810: a1 = u64 [a0 + 0x470]\n  6814: u64 [s1 + 0x180] = a1\n  6818: a1 = u64 [a0 + 0x468]\n  6822: u64 [s1 + 0x178] = a1\n  6826: a0 = u32 [a0 + 0x478]\n  6830: u64 [s1 + 0x170] = a0\n  6834: a0 = u64 [s1 + 0x168]\n  6838: ra = 0x10c\n  6842: ecalli 5 // 'caller'\n  6844: t0 = 0x10e\n  6848: jump @1944\n      : @299 [@dyn 134] (gas: 1)\n  6852: t0 = 270, jump @1944\n      : @300 [@dyn 135] (gas: 1)\n  6859: jump @302 if a0 == 0\n      : @301 (gas: 1)\n  6862: jump @742\n      : @302 (gas: 2)\n  6865: a1 = 0x1\n  6868: jump @750\n      : @303 (gas: 9)\n  6871: a0 = s1 + 0x5138\n  6875: u64 [a0 + 64] = 0\n  6878: u64 [a0 + 56] = 0\n  6881: u64 [a0 + 48] = 0\n  6884: u64 [a0 + 40] = 0\n  6887: a0 = s1 + 0x5000\n  6891: i32 a0 = a0 + 0x160\n  6895: ecalli 16 // 'value_transferred'\n  6897: fallthrough\n      : @304 (gas: 9)\n  6898: a3 = s1 + 0x5138\n  6902: a0 = u64 [a3 + 0x38]\n  6905: a1 = u64 [a3 + 0x40]\n  6908: a2 = u64 [a3 + 0x30]\n  6911: a3 = u64 [a3 + 0x28]\n  6914: a1 = a1 | a2\n  6917: a0 = a0 | a3\n  6920: a0 = a0 | a1\n  6923: jump @306 if a0 == 0\n      : @305 (gas: 1)\n  6926: jump @1637\n      : @306 (gas: 3)\n  6930: a0 = u64 [s1 + 0x1b8]\n  6934: a1 = i32 [a0]\n  6936: jump @308 if a1 >u 3\n      : @307 (gas: 1)\n  6940: jump @1638\n      : @308 (gas: 8)\n  6944: a1 = s1 + 0x5138\n  6948: u64 [a1 + 96] = 0\n  6951: u64 [a1 + 88] = 0\n  6954: u64 [a1 + 80] = 0\n  6957: u64 [a1 + 72] = 0x3\n  6961: a0 = s1 + 0x2ac0\n  6965: a1 = s1 + 0x5180\n  6969: ra = 272, jump @21\n      : @309 [@dyn 136] (gas: 12)\n  6975: a1 = s1 + 0x2938\n  6979: a2 = a1 + 0x100\n  6983: a0 = u64 [a2 + 0x98]\n  6987: a1 = s1 + 0x100\n  6991: u64 [a1 + 0xa8] = a0\n  6995: a0 = u64 [a2 + 0x90]\n  6999: u64 [a1 + 0xb8] = a0\n  7003: a0 = u64 [a2 + 0x88]\n  7007: u64 [a1 + 0xb0] = a0\n  7011: a0 = s1 + 0x2aa0\n  7015: a1 = 0x40\n  7018: ra = 274, jump @17\n      : @310 [@dyn 137] (gas: 7)\n  7024: a3 = s1 + 0x2938\n  7028: a5 = a3 + 0x100\n  7032: a4 = u64 [a5 + 0x80]\n  7036: a1 = u64 [a5 + 0x78]\n  7039: a2 = u64 [a5 + 0x70]\n  7042: a0 = u64 [a5 + 0x68]\n  7045: t0 = 276, jump @2017\n      : @311 [@dyn 138] (gas: 1)\n  7052: jump @313 if a1 == 0\n      : @312 (gas: 1)\n  7055: jump @1603\n      : @313 (gas: 15)\n  7059: a4 = s1 + 0x100\n  7063: a1 = u64 [a4 + 0xa8]\n  7067: a1 = a1 << 0x20\n  7070: a2 = a1 >> 0x20\n  7073: u64 [a3 + 352] = 0\n  7077: a1 = u64 [a4 + 0xb0]\n  7081: a5 = a3 + 0x100\n  7085: u64 [a5 + 0x48] = a1\n  7088: a1 = u64 [a4 + 0xb8]\n  7092: u64 [a5 + 0x50] = a1\n  7095: a1 = s1 + 0x2a80\n  7099: u64 [a5 + 0x58] = a2\n  7102: u64 [s1 + 0x1b8] = a0\n  7106: ra = 0x348\n  7110: jump @19\n      : @314 (gas: 11)\n  7113: u64 [a2 + 480] = 0\n  7117: u64 [a2 + 472] = 0\n  7121: u64 [a2 + 464] = 0\n  7125: u64 [a2 + 456] = 0\n  7129: a0 = s1 + 0x5000\n  7133: i32 a0 = a0 + 0xfffffffffffffb00\n  7137: ra = 0x116\n  7141: ecalli 16 // 'value_transferred'\n  7143: a0 = 0x5000\n  7147: t0 = 0x118\n  7151: jump @2033\n      : @315 [@dyn 139] (gas: 2)\n  7155: a0 = 0x5000\n  7159: t0 = 280, jump @2033\n      : @316 [@dyn 140] (gas: 8)\n  7166: a0 = u64 [a4 + 0xd8]\n  7170: a1 = u64 [a4 + 0xe0]\n  7174: a2 = u64 [a4 + 0xd0]\n  7178: a3 = u64 [a4 + 0xc8]\n  7182: a1 = a1 | a2\n  7185: a0 = a0 | a3\n  7188: a0 = a0 | a1\n  7191: jump @318 if a0 == 0\n      : @317 (gas: 1)\n  7194: jump @1639\n      : @318 (gas: 1)\n  7198: t0 = 282, jump @2026\n      : @319 [@dyn 141] (gas: 1)\n  7205: jump @321 if a1 <u a0\n      : @320 (gas: 1)\n  7208: jump @1640\n      : @321 (gas: 2)\n  7212: a0 = s1 + 0x1260\n  7216: ra = 284, jump @1785\n      : @322 [@dyn 142] (gas: 2)\n  7223: a0 = 0x1000\n  7227: t0 = 286, jump @2015\n      : @323 [@dyn 143] (gas: 14)\n  7234: a0 = u64 [a2 + 0x38]\n  7237: u64 [s1 + 0x188] = a0\n  7241: a0 = u64 [a2 + 0x30]\n  7244: u64 [s1 + 0x190] = a0\n  7248: a0 = u64 [a2 + 0x28]\n  7251: u64 [s1 + 0x198] = a0\n  7255: a1 = s1 + 0x4938\n  7259: u64 [a1 + 512] = 0\n  7263: u64 [a1 + 504] = 0\n  7267: u64 [a1 + 496] = 0\n  7271: u64 [a1 + 488] = 0x3\n  7276: a0 = s1 + 0x1240\n  7280: a1 = s1 + 0x4b20\n  7284: ra = 288, jump @21\n      : @324 [@dyn 144] (gas: 13)\n  7290: a1 = s1 + 0x1138\n  7294: a0 = u64 [a1 + 0x110]\n  7298: u64 [s1 + 0x1b8] = a0\n  7302: a0 = u64 [a1 + 0x108]\n  7306: u64 [s1 + 0x1b0] = a0\n  7310: a0 = u32 [a1 + 0x118]\n  7314: u64 [s1 + 0x1a8] = a0\n  7318: a0 = 0x30200\n  7323: u64 [s1 + 0x1a0] = a0\n  7327: i32 a0 = a0 + 0\n  7329: ra = 0x122\n  7333: ecalli 5 // 'caller'\n  7335: fallthrough\n      : @325 [@dyn 145] (gas: 3)\n  7336: a5 = s1 + 0x100\n  7340: a2 = u64 [a5 + 0xa0]\n  7344: t0 = 292, jump @1936\n      : @326 [@dyn 146] (gas: 1)\n  7351: jump @328 if a0 != 0\n      : @327 (gas: 1)\n  7354: jump @1641\n      : @328 (gas: 3)\n  7358: a0 = s1 + 0x1220\n  7362: a1 = 0x40\n  7365: ra = 294, jump @17\n      : @329 [@dyn 147] (gas: 13)\n  7371: a4 = s1 + 0x1138\n  7375: t0 = u64 [a4 + 0x100]\n  7379: a5 = u64 [a4 + 0xf8]\n  7383: a3 = u64 [a4 + 0xf0]\n  7387: a0 = u64 [a4 + 0xe8]\n  7391: a2 = a3 | t0\n  7394: a1 = a0 | a5\n  7397: a1 = a1 | a2\n  7400: a1 = a1 >> 0x20\n  7403: a2 = a2 | a5\n  7406: a2 = a2 << 0x20\n  7409: a1 = a1 | a2\n  7412: jump @331 if a1 == 0\n      : @330 (gas: 1)\n  7415: jump @1603\n      : @331 (gas: 11)\n  7419: u64 [a4 + 216] = 0\n  7423: u64 [a4 + 208] = 0\n  7427: u64 [a4 + 200] = 0\n  7431: u64 [s1 + 0x1b0] = a3\n  7435: a3 = 0x8c379a000000000\n  7445: a1 = s1 + 0x1200\n  7449: u64 [a4 + 0xe0] = a3\n  7453: u64 [s1 + 0x1b8] = a0\n  7457: u64 [s1 + 0x1a8] = t0\n  7461: u64 [s1 + 0x1a0] = a5\n  7465: ra = 296, jump @19\n      : @332 [@dyn 148] (gas: 1)\n  7471: t0 = 298, jump @1939\n      : @333 [@dyn 149] (gas: 1)\n  7478: jump @335 if a0 != 0\n      : @334 (gas: 1)\n  7481: jump @1603\n      : @335 (gas: 4)\n  7485: i32 a0 = a1 + 0x4\n  7488: t0 = 0x12c\n  7492: a2 = s1 + 0x1138\n  7496: fallthrough\n      : @336 [@dyn 150] (gas: 9)\n  7497: a5 = 0\n  7499: u64 [a2 + 192] = 0\n  7503: u64 [a2 + 184] = 0\n  7507: u64 [a2 + 168] = 0x20\n  7512: a1 = s1 + 0x11e0\n  7516: u64 [a2 + 176] = 0\n  7520: u64 [s1 + 0x1a8] = a3\n  7524: u64 [s1 + 0x1a0] = a4\n  7528: ra = 302, jump @19\n      : @337 [@dyn 151] (gas: 1)\n  7534: t0 = 304, jump @1952\n      : @338 [@dyn 152] (gas: 1)\n  7541: jump @340 if a0 != 0\n      : @339 (gas: 1)\n  7544: jump @1603\n      : @340 (gas: 4)\n  7548: i32 a0 = a1 + 0x24\n  7551: t0 = 0x132\n  7555: a2 = s1 + 0x1138\n  7559: fallthrough\n      : @341 [@dyn 153] (gas: 6)\n  7560: u64 [a2 + 160] = 0\n  7564: u64 [a2 + 152] = 0\n  7568: u64 [a2 + 136] = 0x25\n  7573: a1 = s1 + 0x11c0\n  7577: u64 [a2 + 144] = 0\n  7581: ra = 308, jump @19\n      : @342 [@dyn 154] (gas: 1)\n  7587: t0 = 310, jump @1953\n      : @343 [@dyn 155] (gas: 1)\n  7594: jump @345 if a0 != 0\n      : @344 (gas: 1)\n  7597: jump @1603\n      : @345 (gas: 13)\n  7601: i32 a0 = a1 + 0x44\n  7604: a1 = u64 [0x20000]\n  7609: u64 [s1 + 0x1a0] = a2\n  7613: a4 = s1 + 0x1138\n  7617: u64 [a4 + 0x80] = a1\n  7621: a1 = u64 [0x20008]\n  7626: a2 = u64 [0x20188]\n  7631: a3 = u64 [0x20190]\n  7636: u64 [a4 + 0x78] = a1\n  7639: u64 [a4 + 0x70] = a2\n  7642: a1 = s1 + 0x11a0\n  7646: u64 [a4 + 0x68] = a3\n  7649: ra = 312, jump @19\n      : @346 [@dyn 156] (gas: 1)\n  7655: t0 = 314, jump @1951\n      : @347 [@dyn 157] (gas: 1)\n  7662: jump @349 if a0 != 0\n      : @348 (gas: 1)\n  7665: jump @1603\n      : @349 (gas: 10)\n  7669: i32 a0 = a2 + 0x64\n  7672: a3 = s1 + 0x1138\n  7676: u64 [a3 + 88] = 0\n  7679: u64 [a3 + 80] = 0\n  7682: a1 = 0x63206b6579000000\n  7692: u64 [a3 + 0x60] = a1\n  7695: a1 = s1 + 0x1180\n  7699: u64 [a3 + 72] = 0\n  7702: ra = 0x458\n  7706: jump @19\n      : @350 (gas: 11)\n  7709: u64 [a2 + 1792] = 0\n  7713: u64 [a2 + 1784] = 0\n  7717: u64 [a2 + 1776] = 0\n  7721: u64 [a2 + 1768] = 0\n  7725: a0 = s1 + 0x6000\n  7729: i32 a0 = a0 + 0xfffffffffffff820\n  7733: ra = 0x13c\n  7737: ecalli 16 // 'value_transferred'\n  7739: a0 = 0x5000\n  7743: t0 = 0x13e\n  7747: jump @2002\n      : @351 [@dyn 158] (gas: 2)\n  7751: a0 = 0x5000\n  7755: t0 = 318, jump @2002\n      : @352 [@dyn 159] (gas: 1)\n  7762: jump @354 if a0 == 0\n      : @353 (gas: 1)\n  7765: jump @1644\n      : @354 (gas: 1)\n  7769: t0 = 320, jump @2026\n      : @355 [@dyn 160] (gas: 1)\n  7776: jump @357 if a1 <u a0\n      : @356 (gas: 1)\n  7779: jump @1645\n      : @357 (gas: 23)\n  7783: a0 = s1 + 0x6000\n  7787: i32 a0 = a0 + 0xfffffffffffff840\n  7791: a1 = 0x4\n  7794: ecalli 3 // 'call_data_load'\n  7796: a0 = s1 + 0x5138\n  7800: a5 = a0 + 0x700\n  7804: a1 = u64 [a5 + 0x20]\n  7807: a2 = u64 [a5 + 0x18]\n  7810: a3 = u64 [a5 + 0x10]\n  7813: a4 = u64 [a5 + 0x8]\n  7816: a0 = s1 + 0x4138\n  7820: u64 [s1 + 0x190] = a1\n  7824: a5 = a0 + 0x500\n  7828: u64 [a5 + 0xa0] = a1\n  7832: u64 [s1 + 0x188] = a2\n  7836: u64 [a5 + 0x98] = a2\n  7840: u64 [s1 + 0x180] = a3\n  7844: u64 [a5 + 0x90] = a3\n  7848: a1 = s1 + 0x46c0\n  7852: u64 [s1 + 0x178] = a4\n  7856: u64 [a5 + 0x88] = a4\n  7860: a0 = 0\n  7862: ra = 322, jump @19\n      : @358 [@dyn 161] (gas: 9)\n  7868: a0 = s1 + 0x4138\n  7872: u64 [a0 + 1408] = 0\n  7876: u64 [a0 + 1400] = 0\n  7880: u64 [a0 + 1392] = 0\n  7884: a2 = a0\n  7886: a0 = 0x20\n  7889: a1 = s1 + 0x46a0\n  7893: u64 [a2 + 1384] = 0\n  7897: ra = 324, jump @19\n      : @359 [@dyn 162] (gas: 5)\n  7903: a0 = 0x201ec\n  7908: u64 [s1 + 0x198] = a0\n  7912: a0 = i32 [0x201ec]\n  7917: a1 = 0x3f\n  7920: jump @361 if a1 <u a0\n      : @360 (gas: 4)\n  7923: a1 = u64 [s1 + 0x198]\n  7927: u32 [a1 + 0] = 0x40\n  7930: t0 = 0x146\n  7934: jump @1993\n      : @361 (gas: 1)\n  7938: t0 = 326, jump @1993\n      : @362 [@dyn 163] (gas: 10)\n  7945: a0 = 0x20200\n  7950: i32 a0 = a0 + 0\n  7952: i32 a2 = a2 + 0\n  7954: a1 = 0x40\n  7957: u64 [s1 + 0x170] = a0\n  7961: ra = 0x148\n  7965: ecalli 8 // 'hash_keccak_256'\n  7967: a3 = u64 [s1 + 0x1b8]\n  7971: t0 = 0x14a\n  7975: jump @1946\n      : @363 [@dyn 164] (gas: 2)\n  7979: a3 = u64 [s1 + 0x1b8]\n  7983: t0 = 330, jump @1946\n      : @364 [@dyn 165] (gas: 8)\n  7990: a5 = a1 + 0x700\n  7994: u64 [a5 + 0x28] = a3\n  7997: u64 [a5 + 0x30] = a2\n  8000: u64 [a5 + 0x38] = a4\n  8003: u64 [a5 + 0x40] = a0\n  8006: a0 = s1 + 0x4680\n  8010: a1 = s1 + 0x5860\n  8014: ra = 332, jump @21\n      : @365 [@dyn 166] (gas: 15)\n  8020: a0 = s1 + 0x4138\n  8024: a1 = u64 [a0 + 0x550]\n  8028: u64 [s1 + 0x1b0] = a1\n  8032: a1 = u64 [a0 + 0x548]\n  8036: u64 [s1 + 0x1a8] = a1\n  8040: a0 = u32 [a0 + 0x558]\n  8044: u64 [s1 + 0x1a0] = a0\n  8048: a0 = 0x30200\n  8053: u64 [s1 + 0x1b8] = a0\n  8057: i32 a0 = a0 + 0\n  8059: u64 [s1 + 0x168] = a0\n  8063: ra = 0x14e\n  8067: ecalli 5 // 'caller'\n  8069: t0 = 0x150\n  8073: jump @1945\n      : @366 [@dyn 167] (gas: 1)\n  8077: t0 = 336, jump @1945\n      : @367 [@dyn 168] (gas: 2)\n  8084: a1 = 0x1\n  8087: jump @369 if a0 != 0\n      : @368 (gas: 1)\n  8090: jump @812\n      : @369 (gas: 3)\n  8093: a0 = u64 [s1 + 0x178]\n  8097: a1 = 0x4000\n  8101: t0 = 338, jump @2040\n      : @370 [@dyn 169] (gas: 10)\n  8108: u64 [a3 + 0x28] = a0\n  8111: a0 = u64 [s1 + 0x180]\n  8115: u64 [a3 + 0x30] = a0\n  8118: a0 = u64 [s1 + 0x188]\n  8122: u64 [a3 + 0x38] = a0\n  8125: a1 = s1 + 0x4660\n  8129: a0 = u64 [s1 + 0x190]\n  8133: u64 [a3 + 0x40] = a0\n  8136: a0 = 0\n  8138: ra = 340, jump @19\n      : @371 [@dyn 170] (gas: 9)\n  8144: a0 = s1 + 0x4138\n  8148: u64 [a0 + 1312] = 0\n  8152: u64 [a0 + 1304] = 0\n  8156: u64 [a0 + 1296] = 0\n  8160: a2 = a0\n  8162: a0 = 0x20\n  8165: a1 = s1 + 0x4640\n  8169: u64 [a2 + 1288] = 0\n  8173: ra = 342, jump @19\n      : @372 [@dyn 171] (gas: 3)\n  8179: a0 = u64 [s1 + 0x198]\n  8183: a0 = i32 [a0]\n  8185: jump @374 if a0 >u 63\n      : @373 (gas: 4)\n  8189: a1 = u64 [s1 + 0x198]\n  8193: u32 [a1 + 0] = 0x40\n  8196: t0 = 0x158\n  8200: jump @1992\n      : @374 (gas: 1)\n  8204: t0 = 344, jump @1992\n      : @375 [@dyn 172] (gas: 6)\n  8211: a0 = u64 [s1 + 0x170]\n  8215: ra = 0x15a\n  8219: ecalli 8 // 'hash_keccak_256'\n  8221: a3 = u64 [s1 + 0x1b0]\n  8225: t0 = 0x15c\n  8229: jump @1940\n      : @376 [@dyn 173] (gas: 2)\n  8233: a3 = u64 [s1 + 0x1b0]\n  8237: t0 = 348, jump @1940\n      : @377 [@dyn 174] (gas: 8)\n  8244: a3 = a1 + 0x700\n  8248: u64 [a3 + 0x48] = a4\n  8251: u64 [a3 + 0x50] = a5\n  8254: u64 [a3 + 0x58] = a2\n  8257: u64 [a3 + 0x60] = a0\n  8260: a0 = s1 + 0x4620\n  8264: a1 = s1 + 0x5880\n  8268: ra = 350, jump @21\n      : @378 [@dyn 175] (gas: 12)\n  8274: a0 = s1 + 0x4138\n  8278: a1 = u64 [a0 + 0x4f0]\n  8282: u64 [s1 + 0x1b0] = a1\n  8286: a1 = u64 [a0 + 0x4e8]\n  8290: u64 [s1 + 0x1a8] = a1\n  8294: a0 = u32 [a0 + 0x4f8]\n  8298: u64 [s1 + 0x1a0] = a0\n  8302: a0 = u64 [s1 + 0x168]\n  8306: ra = 0x160\n  8310: ecalli 5 // 'caller'\n  8312: t0 = 0x162\n  8316: jump @1945\n      : @379 [@dyn 176] (gas: 1)\n  8320: t0 = 354, jump @1945\n      : @380 [@dyn 177] (gas: 1)\n  8327: jump @382 if a0 == 0\n      : @381 (gas: 1)\n  8330: jump @804\n      : @382 (gas: 2)\n  8333: a1 = 0x1\n  8336: jump @812\n      : @383 (gas: 1)\n  8339: jump @385 if a0 == 2142165999\n      : @384 (gas: 1)\n  8346: jump @1604\n      : @385 (gas: 8)\n  8350: u64 [a2 + 1152] = 0\n  8354: u64 [a2 + 1144] = 0\n  8358: u64 [a2 + 1136] = 0\n  8362: u64 [a2 + 1128] = 0\n  8366: a0 = s1 + 0x5000\n  8370: i32 a0 = a0 + 0xfffffffffffffda0\n  8374: ecalli 16 // 'value_transferred'\n  8376: fallthrough\n      : @386 (gas: 10)\n  8377: a3 = s1 + 0x4938\n  8381: a4 = a3 + 0x400\n  8385: a0 = u64 [a4 + 0x78]\n  8388: a1 = u64 [a4 + 0x80]\n  8392: a2 = u64 [a4 + 0x70]\n  8395: a3 = u64 [a4 + 0x68]\n  8398: a1 = a1 | a2\n  8401: a0 = a0 | a3\n  8404: a0 = a0 | a1\n  8407: jump @388 if a0 == 0\n      : @387 (gas: 1)\n  8410: jump @1646\n      : @388 (gas: 3)\n  8414: a0 = u64 [s1 + 0x1b8]\n  8418: a0 = i32 [a0]\n  8420: jump @390 if a0 >u 99\n      : @389 (gas: 1)\n  8424: jump @1647\n      : @390 (gas: 20)\n  8428: a0 = s1 + 0x5000\n  8432: i32 a0 = a0 + 0xfffffffffffffdc0\n  8436: a1 = 0x4\n  8439: ecalli 3 // 'call_data_load'\n  8441: a1 = s1 + 0x4938\n  8445: a2 = a1 + 0x400\n  8449: a0 = u64 [a2 + 0xa0]\n  8453: a1 = s1 + 0x100\n  8457: u64 [a1 + 0x20] = a0\n  8460: a0 = u64 [a2 + 0x98]\n  8464: u64 [a1 + 0x28] = a0\n  8467: a0 = u64 [a2 + 0x90]\n  8471: u64 [a1 + 0x30] = a0\n  8474: a0 = u64 [a2 + 0x88]\n  8478: u64 [a1 + 0x38] = a0\n  8481: a0 = s1 + 0x5000\n  8485: i32 a0 = a0 + 0xfffffffffffffde0\n  8489: a1 = 0x24\n  8492: ecalli 3 // 'call_data_load'\n  8494: fallthrough\n      : @391 (gas: 9)\n  8495: a2 = s1 + 0x4938\n  8499: a0 = a2 + 0x400\n  8503: a5 = u64 [a0 + 0xc0]\n  8507: a3 = u64 [a0 + 0xb8]\n  8511: a4 = u64 [a0 + 0xb0]\n  8515: a0 = a3 | a5\n  8518: a1 = a4 <u 0x1\n  8521: a1 = 0 if a0 != 0\n  8523: jump @393 if a1 != 0\n      : @392 (gas: 1)\n  8526: jump @1648\n      : @393 (gas: 19)\n  8530: a1 = u64 [a2 + 0x4a8]\n  8534: a0 = u64 [s1 + 0x1b8]\n  8538: t2 = u32 [a0]\n  8540: a0 = a1 + 0x23\n  8543: a2 = a0 <u a1\n  8546: t0 = a4 + a2\n  8549: u64 [s1 + 0x158] = a4\n  8553: a4 = t0 <u a4\n  8556: a4 = a2 if a2 == 0\n  8559: a4 = a4 + a3\n  8562: u64 [s1 + 0x168] = a3\n  8566: a2 = a4 <u a3\n  8569: u64 [s1 + 0x170] = a5\n  8573: a2 = a2 + a5\n  8576: a2 = a2 | a4\n  8579: a0 = a0 <u t2\n  8582: a0 = 0 if t0 != 0\n  8584: a0 = 0 if a2 != 0\n  8586: jump @395 if a0 != 0\n      : @394 (gas: 1)\n  8589: jump @1663\n      : @395 (gas: 24)\n  8593: u64 [s1 + 0x160] = a1\n  8597: i32 a1 = a1 + 0x4\n  8600: a0 = s1 + 0x5000\n  8604: i32 a0 = a0 + 0xfffffffffffffe00\n  8608: ecalli 3 // 'call_data_load'\n  8610: a0 = s1 + 0x4938\n  8614: a5 = a0 + 0x400\n  8618: a3 = u64 [a5 + 0xe0]\n  8622: a1 = u64 [a5 + 0xd8]\n  8626: a2 = u64 [a5 + 0xd0]\n  8630: a4 = u64 [a5 + 0xc8]\n  8634: a5 = s1 + 0x2938\n  8638: u64 [s1 + 0x1a0] = a3\n  8642: u64 [a5 + 0x120] = a3\n  8646: u64 [s1 + 0x1a8] = a1\n  8650: a3 = a5 + 0x100\n  8654: u64 [a3 + 0x18] = a1\n  8657: u64 [s1 + 0x1b0] = a2\n  8661: u64 [a3 + 0x10] = a2\n  8664: a0 = s1 + 0x2a60\n  8668: a1 = s1 + 0x2a40\n  8672: u64 [s1 + 0x198] = a4\n  8676: u64 [a3 + 0x8] = a4\n  8679: ra = 356, jump @1791\n      : @396 [@dyn 178] (gas: 13)\n  8686: a0 = s1 + 0x2938\n  8690: a2 = a0 + 0x100\n  8694: a1 = u64 [a2 + 0x28]\n  8697: u64 [s1 + 0x190] = a1\n  8701: a1 = u64 [a2 + 0x30]\n  8704: u64 [s1 + 0x188] = a1\n  8708: a1 = u64 [a2 + 0x38]\n  8711: u64 [s1 + 0x180] = a1\n  8715: a1 = u64 [a2 + 0x40]\n  8718: u64 [s1 + 0x178] = a1\n  8722: a0 = s1 + 0x2a20\n  8726: a1 = 0x40\n  8729: ra = 358, jump @17\n      : @397 [@dyn 179] (gas: 25)\n  8735: a0 = s1 + 0x2938\n  8739: a1 = u64 [a0 + 0x100]\n  8743: u64 [s1 + 0x100] = a1\n  8747: a2 = u64 [a0 + 0xf8]\n  8751: u64 [s1 + 0x108] = a2\n  8755: a4 = u64 [a0 + 0xf0]\n  8759: u64 [s1 + 0x110] = a4\n  8763: a5 = u64 [a0 + 0xe8]\n  8767: u64 [s1 + 0x118] = a5\n  8771: a3 = u64 [s1 + 0x178]\n  8775: u64 [a0 + 0xc0] = a3\n  8779: a3 = u64 [s1 + 0x180]\n  8783: u64 [a0 + 0xb8] = a3\n  8787: a3 = u64 [s1 + 0x188]\n  8791: u64 [a0 + 0xb0] = a3\n  8795: a3 = u64 [s1 + 0x190]\n  8799: u64 [a0 + 0xa8] = a3\n  8803: u64 [a0 + 0xe0] = a1\n  8807: u64 [a0 + 0xd8] = a2\n  8811: u64 [a0 + 0xd0] = a4\n  8815: a2 = a0\n  8817: a0 = s1 + 0x2a00\n  8821: a1 = s1 + 0x29e0\n  8825: u64 [a2 + 0xc8] = a5\n  8829: ra = 360, jump @1749\n      : @398 [@dyn 180] (gas: 7)\n  8836: a4 = s1 + 0x100\n  8840: a0 = u64 [a4 + 0x18]\n  8843: a1 = u64 [a4]\n  8845: a2 = u64 [a4 + 0x10]\n  8848: a2 = a2 | a1\n  8851: a3 = u64 [a4 + 0x8]\n  8854: t0 = 362, jump @2004\n      : @399 [@dyn 181] (gas: 1)\n  8861: jump @401 if a1 == 0\n      : @400 (gas: 1)\n  8864: jump @1603\n      : @401 (gas: 11)\n  8868: a2 = s1 + 0x2938\n  8872: a1 = u64 [s1 + 0x198]\n  8876: u64 [a2 + 0x88] = a1\n  8880: a1 = u64 [s1 + 0x1b0]\n  8884: u64 [a2 + 0x90] = a1\n  8888: a1 = u64 [s1 + 0x1a8]\n  8892: u64 [a2 + 0x98] = a1\n  8896: a1 = s1 + 0x29c0\n  8900: a3 = u64 [s1 + 0x1a0]\n  8904: u64 [a2 + 0xa0] = a3\n  8908: ra = 364, jump @19\n      : @402 [@dyn 182] (gas: 58)\n  8914: a2 = u64 [s1 + 0x198]\n  8918: a0 = a2 >> 0x3b\n  8921: a1 = u64 [s1 + 0x1b0]\n  8925: a1 = a1 << 0x5\n  8928: a1 = a1 | a0\n  8931: a2 = a2 << 0x5\n  8934: a0 = u64 [s1 + 0x160]\n  8938: t2 = a0 + 0x24\n  8941: t0 = t2 <u a0\n  8944: a0 = u64 [s1 + 0x158]\n  8948: ra = a0 + t0\n  8951: a1 = a1 + ra\n  8954: a2 = a2 + t2\n  8957: u64 [s1 + 0x160] = a2\n  8961: a2 = a2 <u t2\n  8964: t1 = a1 + a2\n  8967: a3 = t1 ^ ra\n  8970: a5 = t1 <u ra\n  8973: a5 = a2 if a3 == 0\n  8976: a2 = u64 [s1 + 0x1a0]\n  8980: a2 = a2 << 0x5\n  8983: a4 = u64 [s1 + 0x1a8]\n  8987: a3 = a4 >> 0x3b\n  8990: a2 = a2 | a3\n  8993: a3 = u64 [s1 + 0x1b0]\n  8997: a3 = a3 >> 0x3b\n  9000: a4 = a4 << 0x5\n  9003: a3 = a3 | a4\n  9006: a4 = ra <u a0\n  9009: a4 = t0 if t0 == 0\n  9012: a0 = u64 [s1 + 0x168]\n  9016: t0 = a0 + a4\n  9019: a0 = t0 <u a0\n  9022: a4 = u64 [s1 + 0x170]\n  9026: a4 = a4 + a0\n  9029: a1 = t0 + a3\n  9032: a2 = a2 + a4\n  9035: a0 = a1 <u t0\n  9038: a0 = a0 + a2\n  9041: a3 = a1 + a5\n  9044: a1 = a3 <u a1\n  9047: a5 = a0 + a1\n  9050: a0 = u64 [s1 + 0x1b8]\n  9054: a0 = u32 [a0]\n  9056: a1 = a5 <u 0x1\n  9059: a2 = a3 <u 0x1\n  9062: a2 = a1 if a5 != 0\n  9065: a1 = u64 [s1 + 0x160]\n  9069: a0 = a0 <u a1\n  9072: a0 = a0 ^ 0x1\n  9075: a1 = t1 <u 0x1\n  9078: u64 [s1 + 0x158] = t1\n  9082: a0 = a1 if t1 != 0\n  9085: u64 [s1 + 0x150] = a3\n  9089: u64 [s1 + 0x148] = a5\n  9093: a1 = a3 | a5\n  9096: a0 = a2 if a1 != 0\n  9099: jump @404 if a0 != 0\n      : @403 (gas: 1)\n  9102: jump @1664\n      : @404 (gas: 11)\n  9106: a0 = 0xffffffe0\n  9116: a1 = s1 + 0x100\n  9120: u64 [a1 + 0x40] = a0\n  9123: a0 = u64 [a1 + 0x18]\n  9126: u64 [a1 + 0xb0] = a0\n  9130: a0 = u64 [a1 + 0x10]\n  9133: u64 [a1 + 0xa8] = a0\n  9137: t1 = u64 [s1 + 0x108]\n  9141: a0 = u64 [a1]\n  9143: u64 [a1 + 0xb8] = a0\n  9147: fallthrough\n      : @405 (gas: 16)\n  9148: a0 = u64 [s1 + 0x160]\n  9152: a0 = t2 <u a0\n  9155: a2 = u64 [s1 + 0x158]\n  9159: a1 = ra ^ a2\n  9162: a2 = ra <u a2\n  9165: a2 = a0 if a1 == 0\n  9168: a0 = u64 [s1 + 0x150]\n  9172: a5 = t0 <u a0\n  9175: a3 = u64 [s1 + 0x148]\n  9179: a1 = a4 ^ a3\n  9182: a3 = a4 <u a3\n  9185: a3 = a5 if a1 == 0\n  9188: a0 = t0 ^ a0\n  9191: a0 = a0 | a1\n  9194: a3 = a2 if a0 == 0\n  9197: jump @407 if a3 != 0\n      : @406 (gas: 1)\n  9200: jump @958\n      : @407 (gas: 8)\n  9203: a0 = t2 | t0\n  9206: a1 = ra | a4\n  9209: a0 = a0 | a1\n  9212: a0 = a0 >> 0x20\n  9215: a1 = a1 | t0\n  9218: a1 = a1 << 0x20\n  9221: a0 = a0 | a1\n  9224: jump @409 if a0 == 0\n      : @408 (gas: 1)\n  9227: jump @1603\n      : @409 (gas: 10)\n  9231: u64 [s1 + 0x188] = t0\n  9235: u64 [s1 + 0x190] = a4\n  9239: u64 [s1 + 0x198] = ra\n  9243: i32 a1 = t2 + 0\n  9245: a0 = s1 + 0x5000\n  9249: i32 a0 = a0 + 0xfffffffffffffe20\n  9253: u64 [s1 + 0x180] = t2\n  9257: u64 [s1 + 0x1a0] = t1\n  9261: ecalli 3 // 'call_data_load'\n  9263: fallthrough\n      : @410 (gas: 10)\n  9264: a2 = u64 [s1 + 0x1a0]\n  9268: a5 = u64 [s1 + 0x1b8]\n  9272: a0 = a2 | a5\n  9275: a1 = u64 [s1 + 0x140]\n  9279: a3 = u64 [s1 + 0x1b0]\n  9283: a1 = a3 <u a1\n  9286: a4 = u64 [s1 + 0x1a8]\n  9290: a1 = 0 if a4 != 0\n  9292: a1 = 0 if a0 != 0\n  9294: jump @412 if a1 != 0\n      : @411 (gas: 1)\n  9297: jump @1603\n      : @412 (gas: 26)\n  9301: a1 = a3 + 0x20\n  9304: a0 = a1 <u a3\n  9307: a3 = a1\n  9309: u64 [s1 + 0x168] = a1\n  9313: a1 = a4 + a0\n  9316: u64 [s1 + 0x178] = a1\n  9320: a1 = a1 <u a4\n  9323: a1 = a0 if a0 == 0\n  9326: a4 = s1 + 0x4938\n  9330: t0 = u64 [a4 + 0x4e8]\n  9334: t2 = u64 [a4 + 0x4f0]\n  9338: a0 = u64 [a4 + 0x4f8]\n  9342: a4 = u64 [a4 + 0x500]\n  9346: a1 = a1 + a2\n  9349: u64 [s1 + 0x170] = a1\n  9353: a1 = a1 <u a2\n  9356: a5 = a5 + a1\n  9359: u64 [s1 + 0x1b8] = a5\n  9363: a5 = s1 + 0x1138\n  9367: u64 [a5 + 0x700] = a4\n  9371: u64 [a5 + 0x6f8] = a0\n  9375: u64 [a5 + 0x6f0] = t2\n  9379: a1 = s1 + 0x1820\n  9383: u64 [a5 + 0x6e8] = t0\n  9387: a0 = a3\n  9389: ra = 366, jump @19\n      : @413 [@dyn 183] (gas: 20)\n  9395: a2 = s1 + 0x100\n  9399: a1 = u64 [a2 + 0x80]\n  9403: a0 = a1 + 0x20\n  9406: a1 = a0 <u a1\n  9409: a3 = u64 [a2 + 0x98]\n  9413: ra = a3 + a1\n  9416: a3 = ra <u a3\n  9419: a3 = a1 if a1 == 0\n  9422: a1 = u64 [a2 + 0x88]\n  9426: t0 = a1 + a3\n  9429: a1 = t0 <u a1\n  9432: a4 = u64 [a2 + 0x90]\n  9436: a4 = a4 + a1\n  9439: a1 = u64 [a2 + 0x68]\n  9442: u64 [a2 + 0xb0] = a1\n  9446: a1 = u64 [a2 + 0x78]\n  9449: u64 [a2 + 0xa8] = a1\n  9453: t1 = u64 [s1 + 0x170]\n  9457: t2 = a0\n  9459: jump @405\n      : @414 (gas: 9)\n  9462: u64 [a3 + 1856] = 0\n  9466: u64 [a3 + 1848] = 0\n  9470: u64 [a3 + 1840] = 0\n  9474: u64 [a3 + 1832] = 0\n  9478: a0 = s1 + 0x5000\n  9482: i32 a0 = a0 + 0xfffffffffffff860\n  9486: ecalli 16 // 'value_transferred'\n  9488: a3 = s1 + 0x4138\n  9492: fallthrough\n      : @415 (gas: 9)\n  9493: a4 = a3 + 0x700\n  9497: a0 = u64 [a4 + 0x38]\n  9500: a1 = u64 [a4 + 0x40]\n  9503: a2 = u64 [a4 + 0x30]\n  9506: a3 = u64 [a4 + 0x28]\n  9509: a1 = a1 | a2\n  9512: a0 = a0 | a3\n  9515: a0 = a0 | a1\n  9518: jump @417 if a0 == 0\n      : @416 (gas: 1)\n  9521: jump @1649\n      : @417 (gas: 3)\n  9525: a0 = u64 [s1 + 0x1b8]\n  9529: a0 = i32 [a0]\n  9531: jump @419 if a0 >u 67\n      : @418 (gas: 1)\n  9535: jump @1650\n      : @419 (gas: 5)\n  9539: a0 = s1 + 0x5000\n  9543: i32 a0 = a0 + 0xfffffffffffff880\n  9547: a1 = 0x4\n  9550: ecalli 3 // 'call_data_load'\n  9552: fallthrough\n      : @420 (gas: 9)\n  9553: a5 = s1 + 0x4138\n  9557: a3 = a5 + 0x700\n  9561: a0 = u64 [a3 + 0x60]\n  9564: a1 = u64 [a3 + 0x58]\n  9567: a2 = u64 [a3 + 0x50]\n  9570: a3 = a1 | a0\n  9573: a4 = a2 <u 0x1\n  9576: a4 = 0 if a3 != 0\n  9578: jump @422 if a4 != 0\n      : @421 (gas: 1)\n  9581: jump @1651\n      : @422 (gas: 27)\n  9585: a3 = u64 [a5 + 0x748]\n  9589: a4 = u64 [s1 + 0x1b8]\n  9593: t0 = u32 [a4]\n  9595: a5 = a3 + 0x4\n  9598: a3 = a5 <u a3\n  9601: a4 = a2 + a3\n  9604: a2 = a4 <u a2\n  9607: a2 = a3 if a3 == 0\n  9610: a2 = a2 + a1\n  9613: a1 = a2 <u a1\n  9616: a3 = a0 + a1\n  9619: a0 = s1 + 0x7ff\n  9623: a0 = a0 + 0x139\n  9627: u64 [a0 + 1920] = 0\n  9631: u64 [a0 + 1912] = 0\n  9635: u64 [a0 + 1904] = 0\n  9639: u64 [a0 + 0x768] = t0\n  9643: a1 = a0 + 0x700\n  9647: u64 [a1 + 0x88] = a5\n  9651: u64 [a1 + 0x90] = a4\n  9655: u64 [a1 + 0x98] = a2\n  9659: a4 = a0\n  9661: a0 = s1 + 0x10e0\n  9665: a1 = s1 + 0x10c0\n  9669: a2 = s1 + 0x10a0\n  9673: u64 [a4 + 0x7a0] = a3\n  9677: ra = 368, jump @1759\n      : @423 [@dyn 184] (gas: 17)\n  9684: a1 = s1 + 0x7ff\n  9688: a1 = a1 + 0x139\n  9692: a2 = a1 + 0x700\n  9696: a0 = u64 [a2 + 0xc0]\n  9700: a1 = s1 + 0x100\n  9704: u64 [a1 + 0x38] = a0\n  9707: a0 = u64 [a2 + 0xb8]\n  9711: u64 [a1 + 0x40] = a0\n  9714: a0 = u64 [a2 + 0xb0]\n  9718: u64 [a1 + 0x48] = a0\n  9721: a0 = u64 [a2 + 0xa8]\n  9725: u64 [a1 + 0x50] = a0\n  9728: a0 = s1 + 0x5000\n  9732: i32 a0 = a0 + 0xfffffffffffff8a0\n  9736: a1 = 0x24\n  9739: ecalli 3 // 'call_data_load'\n  9741: fallthrough\n      : @424 (gas: 13)\n  9742: a2 = s1 + 0x4138\n  9746: a1 = u64 [a2 + 0x778]\n  9750: a3 = u64 [a2 + 0x780]\n  9754: a0 = 0x100000000\n  9764: a0 = a0 ^ a1\n  9767: a0 = a0 | a3\n  9770: u64 [s1 + 0xc0] = a1\n  9774: a1 = a1 >> 0x20\n  9777: a1 = a1 <u 0x1\n  9780: u64 [s1 + 0xb0] = a3\n  9784: a1 = 0 if a3 != 0\n  9786: a1 = 0 if a0 == 0\n  9788: jump @426 if a1 != 0\n      : @425 (gas: 1)\n  9791: jump @1652\n      : @426 (gas: 12)\n  9795: a1 = a2 + 0x700\n  9799: a0 = u64 [a1 + 0x70]\n  9802: u64 [s1 + 0xc8] = a0\n  9806: a0 = u64 [a1 + 0x68]\n  9809: u64 [s1 + 0xb8] = a0\n  9813: u64 [a2 + 1952] = 0\n  9817: u64 [a2 + 1944] = 0\n  9821: u64 [a2 + 1936] = 0\n  9825: u64 [a1 + 136] = 0x1\n  9830: a0 = s1 + 0x1080\n  9834: a1 = s1 + 0x48c0\n  9838: ra = 370, jump @21\n      : @427 [@dyn 185] (gas: 19)\n  9844: a0 = s1 + 0x7ff\n  9848: a0 = a0 + 0x139\n  9852: a5 = a0 + 0x700\n  9856: a1 = u64 [a5 + 0x60]\n  9859: u64 [s1 + 0xf8] = a1\n  9863: a3 = u64 [a5 + 0x58]\n  9866: u64 [s1 + 0xf0] = a3\n  9870: a4 = u64 [a5 + 0x50]\n  9873: u64 [s1 + 0xe8] = a4\n  9877: a2 = u64 [a5 + 0x48]\n  9880: u64 [s1 + 0xe0] = a2\n  9884: u64 [a5 + 0x20] = a1\n  9887: u64 [a5 + 0x18] = a3\n  9890: u64 [a5 + 0x10] = a4\n  9893: a3 = a0\n  9895: a0 = s1 + 0x1060\n  9899: a1 = s1 + 0x1040\n  9903: u64 [a3 + 0x708] = a2\n  9907: ra = 372, jump @1900\n      : @428 [@dyn 186] (gas: 20)\n  9914: a3 = s1 + 0x7ff\n  9918: a3 = a3 + 0x139\n  9922: a4 = a3 + 0x700\n  9926: a0 = u64 [a4 + 0x28]\n  9929: a1 = u64 [a4 + 0x30]\n  9932: a2 = u64 [a4 + 0x38]\n  9935: a3 = u64 [a4 + 0x40]\n  9938: a4 = s1 + 0x4138\n  9942: u64 [a4 + 1984] = 0\n  9946: u64 [a4 + 1976] = 0\n  9950: u64 [a4 + 1968] = 0\n  9954: u64 [a4 + 1960] = 0x1\n  9959: a5 = a4 + 0x700\n  9963: u64 [a5 + 0xe0] = a3\n  9967: u64 [a5 + 0xd8] = a2\n  9971: u64 [a5 + 0xd0] = a1\n  9975: u64 [a5 + 0xc8] = a0\n  9979: a0 = s1 + 0x48e0\n  9983: a1 = s1 + 0x4900\n  9987: ra = 374, jump @23\n      : @429 [@dyn 187] (gas: 14)\n  9993: a2 = s1 + 0x7ff\n  9997: a2 = a2 + 0x139\n 10001: a0 = u64 [s1 + 0xf8]\n 10005: u64 [a2 + 0x700] = a0\n 10009: a0 = u64 [s1 + 0xf0]\n 10013: a3 = a2 + 0x600\n 10017: u64 [a3 + 0xf8] = a0\n 10021: a0 = u64 [s1 + 0xe8]\n 10025: u64 [a3 + 0xf0] = a0\n 10029: a1 = s1 + 0x1020\n 10033: a0 = u64 [s1 + 0xe0]\n 10037: u64 [a3 + 0xe8] = a0\n 10041: a0 = 0\n 10043: ra = 376, jump @19\n      : @430 [@dyn 188] (gas: 10)\n 10049: a0 = s1 + 0x7ff\n 10053: a0 = a0 + 0x139\n 10057: u64 [a0 + 1760] = 0\n 10061: u64 [a0 + 1752] = 0\n 10065: u64 [a0 + 1744] = 0\n 10069: a2 = a0\n 10071: a0 = 0x20\n 10074: a1 = s1 + 0x1000\n 10078: u64 [a2 + 1736] = 0\n 10082: ra = 378, jump @19\n      : @431 [@dyn 189] (gas: 8)\n 10088: a0 = sp + 0xffffffffffffffe0\n 10091: a0 = a0 & 0xffffffffffffffe0\n 10094: u64 [s1 + 0x128] = a0\n 10098: sp = a0\n 10100: a2 = 0x201ec\n 10105: a0 = i32 [0x201ec]\n 10110: a1 = 0x3f\n 10113: jump @433 if a1 <u a0\n      : @432 (gas: 4)\n 10116: u32 [0x201ec] = 0x40\n 10122: u64 [s1 + 0x1a8] = a2\n 10126: t0 = 0x17c\n 10130: jump @1993\n      : @433 (gas: 2)\n 10134: u64 [s1 + 0x1a8] = a2\n 10138: t0 = 380, jump @1993\n      : @434 [@dyn 190] (gas: 7)\n 10145: a0 = 0x20200\n 10150: i32 a0 = a0 + 0\n 10152: i32 a2 = a2 + 0\n 10154: a1 = 0x40\n 10157: u64 [s1 + 0x1b0] = a0\n 10161: ecalli 8 // 'hash_keccak_256'\n 10163: fallthrough\n      : @435 (gas: 27)\n 10164: a0 = u64 [s1 + 0x1b8]\n 10168: t0 = u64 [a0 + 0x10]\n 10171: t2 = u64 [a0 + 0x18]\n 10174: a5 = a0\n 10176: a1 = u64 [s1 + 0x150]\n 10180: a4 = u64 [s1 + 0x140]\n 10184: a2 = a1 | a4\n 10187: a3 = u64 [s1 + 0x148]\n 10191: a0 = u64 [s1 + 0x138]\n 10195: a3 = a3 | a0\n 10198: a2 = a2 | a3\n 10201: a2 = a2 >> 0x20\n 10204: a3 = a3 | a4\n 10207: a3 = a3 << 0x20\n 10210: t1 = a3 | a2\n 10213: a3 = u64 [a5 + 0x8]\n 10216: a4 = u64 [a5]\n 10218: a2 = reverse t2\n 10220: a5 = reverse t0\n 10222: a0 = reverse a3\n 10224: a3 = reverse a4\n 10226: a4 = u64 [s1 + 0x128]\n 10230: u64 [a4 + 0x18] = a3\n 10233: u64 [a4 + 0x10] = a0\n 10236: u64 [a4 + 0x8] = a5\n 10239: u64 [a4] = a2\n 10241: jump @437 if t1 == 0\n      : @436 (gas: 1)\n 10244: jump @1603\n      : @437 (gas: 7)\n 10248: u64 [s1 + 0x108] = a2\n 10252: u64 [s1 + 0x110] = a5\n 10256: u64 [s1 + 0x118] = a3\n 10260: u64 [s1 + 0x120] = a0\n 10264: a0 = s1 + 0x7ff\n 10268: a0 = a0 + 0x7e1\n 10272: ra = 382, jump @17\n      : @438 [@dyn 191] (gas: 20)\n 10278: a2 = s1 + 0x7ff\n 10282: a2 = a2 + 0x139\n 10286: a0 = a2 + 0x600\n 10290: a4 = u64 [a0 + 0xc0]\n 10294: a3 = u64 [a0 + 0xb8]\n 10298: a1 = u64 [a0 + 0xb0]\n 10302: a0 = a4 >u 0\n 10304: a5 = a3 >u 0\n 10306: a5 = a0 if a4 != 0\n 10309: u64 [s1 + 0xd8] = a1\n 10313: a0 = a1 >u 0\n 10315: u64 [s1 + 0xd0] = a3\n 10319: u64 [s1 + 0xa8] = a4\n 10323: a3 = a3 | a4\n 10326: a1 = s1 + 0x100\n 10330: u64 [a1 + 0x58] = a0\n 10333: u64 [a1 + 0x60] = a5\n 10336: u64 [a1 + 0x70] = a3\n 10339: a0 = a5 if a3 != 0\n 10342: jump @440 if a0 == 0\n      : @439 (gas: 1)\n 10345: jump @1665\n      : @440 (gas: 6)\n 10349: a0 = u64 [a2 + 0x6a8]\n 10353: u64 [s1 + 0x100] = a0\n 10357: a0 = s1 + 0x7ff\n 10361: a0 = a0 + 0x7c1\n 10365: a1 = u64 [s1 + 0x128]\n 10369: ra = 384, jump @21\n      : @441 [@dyn 192] (gas: 16)\n 10375: a4 = s1 + 0x7ff\n 10379: a4 = a4 + 0x139\n 10383: a5 = a4 + 0x600\n 10387: a2 = u64 [a5 + 0x88]\n 10391: a0 = u64 [a5 + 0x90]\n 10395: a1 = u64 [a5 + 0x98]\n 10399: a3 = u64 [a5 + 0xa0]\n 10403: u64 [a5 + 0x60] = a3\n 10406: u64 [a5 + 0x58] = a1\n 10409: u64 [a5 + 0x50] = a0\n 10412: a0 = s1 + 0x7ff\n 10416: a0 = a0 + 0x7a1\n 10420: a1 = s1 + 0x7ff\n 10424: a1 = a1 + 0x781\n 10428: u64 [a5 + 0x48] = a2\n 10431: ra = 386, jump @1868\n      : @442 [@dyn 193] (gas: 20)\n 10438: a0 = s1 + 0x7ff\n 10442: a0 = a0 + 0x139\n 10446: a1 = a0 + 0x600\n 10450: a3 = u64 [a1 + 0x80]\n 10454: a4 = u64 [a1 + 0x78]\n 10457: a5 = u64 [a1 + 0x70]\n 10460: t0 = u64 [a0 + 0x668]\n 10464: a0 = a3 >u 0\n 10466: a1 = a4 >u 0\n 10468: a1 = a0 if a3 != 0\n 10471: a0 = a5 >u 0\n 10473: a2 = t0 <u 0x20\n 10476: a2 = a2 ^ 0x1\n 10479: a2 = a0 if a5 != 0\n 10482: a0 = a4 | a3\n 10485: a2 = a1 if a0 != 0\n 10488: a0 = u64 [s1 + 0x100]\n 10492: a0 = a0 <u 0x20\n 10495: u64 [s1 + 0x168] = a0\n 10499: jump @444 if a2 != 0\n      : @443 (gas: 1)\n 10502: jump @660\n      : @444 (gas: 19)\n 10505: u64 [s1 + 0x190] = t0\n 10509: u64 [s1 + 0x198] = a5\n 10513: u64 [s1 + 0x1a0] = a4\n 10517: u64 [s1 + 0x188] = a3\n 10521: a0 = s1 + 0x7ff\n 10525: a0 = a0 + 0x139\n 10529: a1 = u64 [s1 + 0x108]\n 10533: a3 = a0 + 0x600\n 10537: u64 [a3 + 0x28] = a1\n 10540: a1 = u64 [s1 + 0x110]\n 10544: u64 [a3 + 0x30] = a1\n 10547: a1 = u64 [s1 + 0x120]\n 10551: u64 [a3 + 0x38] = a1\n 10554: a1 = s1 + 0x7ff\n 10558: a1 = a1 + 0x761\n 10562: a2 = u64 [s1 + 0x118]\n 10566: u64 [a3 + 0x40] = a2\n 10569: a0 = 0\n 10571: ra = 388, jump @19\n      : @445 [@dyn 194] (gas: 3)\n 10577: a2 = u64 [s1 + 0x1a8]\n 10581: a0 = i32 [a2]\n 10583: jump @447 if a0 >u 31\n      : @446 (gas: 3)\n 10587: u32 [a2 + 0] = 0x20\n 10590: t0 = 0x186\n 10594: jump @2031\n      : @447 (gas: 1)\n 10598: t0 = 390, jump @2031\n      : @448 [@dyn 195] (gas: 4)\n 10605: a0 = u64 [s1 + 0x1b0]\n 10609: ra = 0x188\n 10613: ecalli 8 // 'hash_keccak_256'\n 10615: fallthrough\n      : @449 [@dyn 196] (gas: 11)\n 10616: a0 = u64 [s1 + 0x100]\n 10620: a1 = a0 + 0x1f\n 10623: a0 = a1 <u a0\n 10626: a5 = u64 [s1 + 0xd8]\n 10630: a2 = a5 + a0\n 10633: a3 = a2 <u a5\n 10636: a3 = a0 if a0 == 0\n 10639: a4 = u64 [s1 + 0xd0]\n 10643: a3 = a3 + a4\n 10646: u64 [s1 + 0x1b0] = a3\n 10650: t0 = 394, jump @1990\n      : @450 [@dyn 197] (gas: 35)\n 10657: a1 = u64 [s1 + 0x168]\n 10661: a1 = 0 if a5 != 0\n 10663: a3 = u64 [s1 + 0x170]\n 10667: a1 = 0 if a3 != 0\n 10669: a4 = 0 if a1 != 0\n 10671: a0 = 0 if a1 != 0\n 10673: t0 = t2 + a0\n 10676: a0 = t0 <u t2\n 10679: a5 = a2 + a0\n 10682: a4 = a4 + a5\n 10685: u64 [s1 + 0x1b8] = a4\n 10689: a5 = a4 ^ a2\n 10692: a3 = a4 <u a2\n 10695: a3 = a0 if a5 == 0\n 10698: u64 [s1 + 0x180] = a3\n 10702: a0 = u64 [s1 + 0x190]\n 10706: ra = a0 + 0x1f\n 10709: a4 = ra <u a0\n 10712: a3 = u64 [s1 + 0x198]\n 10716: a0 = a3 + a4\n 10719: a5 = a0 <u a3\n 10722: a5 = a4 if a4 == 0\n 10725: t1 = u64 [s1 + 0x1a0]\n 10729: t1 = t1 + a5\n 10732: a4 = t1 << 0x3b\n 10735: a3 = a0 >> 0x5\n 10738: a3 = a3 | a4\n 10741: a0 = a0 << 0x3b\n 10744: a4 = ra >> 0x5\n 10747: a0 = a0 | a4\n 10750: a0 = a0 + t2\n 10753: u64 [s1 + 0x198] = a0\n 10757: a0 = a0 <u t2\n 10760: t2 = t0\n 10762: t0 = 396, jump @2028\n      : @451 [@dyn 198] (gas: 17)\n 10769: a4 = u64 [s1 + 0x1b0]\n 10773: a0 = u64 [s1 + 0xd0]\n 10777: a0 = a4 <u a0\n 10780: a3 = u64 [s1 + 0xa8]\n 10784: a0 = a0 + a3\n 10787: a3 = a4 >> 0x5\n 10790: a4 = a0 << 0x3b\n 10793: a3 = a3 | a4\n 10796: a4 = u64 [s1 + 0x1a8]\n 10800: t0 = u64 [a4]\n 10802: a4 = u64 [a4 + 0x8]\n 10805: a0 = a0 >> 0x5\n 10808: a3 = 0 if a1 != 0\n 10810: a0 = 0 if a1 != 0\n 10812: a1 = reverse a4\n 10814: a4 = reverse t0\n 10816: t0 = 398, jump @2036\n      : @452 [@dyn 199] (gas: 25)\n 10823: t0 = a0 + a3\n 10826: a0 = u64 [s1 + 0x1a0]\n 10830: a0 = t1 <u a0\n 10833: a3 = u64 [s1 + 0x188]\n 10837: a0 = a0 + a3\n 10840: a3 = t1 >> 0x5\n 10843: a5 = a0 << 0x3b\n 10846: a3 = a3 | a5\n 10849: a0 = a0 >> 0x5\n 10852: a0 = a0 + a4\n 10855: a5 = s1 + 0x100\n 10859: a4 = u64 [a5 + 0xb8]\n 10863: a3 = a3 + a1\n 10866: a1 = a3 <u a1\n 10869: a0 = a0 + a1\n 10872: a2 = a2 + a3\n 10875: u64 [a5 + 0x88] = a2\n 10879: a1 = a2 <u a3\n 10882: a0 = a0 + a1\n 10885: u64 [a5 + 0x80] = a0\n 10889: a0 = sp + 0xffffffffffffffe0\n 10892: t1 = a0 & 0xffffffffffffffe0\n 10895: sp = t1\n 10897: u64 [s1 + 0x178] = t1\n 10901: fallthrough\n      : @453 (gas: 21)\n 10902: a0 = u64 [s1 + 0x198]\n 10906: a0 = t2 <u a0\n 10909: a2 = u64 [s1 + 0x190]\n 10913: a1 = a4 ^ a2\n 10916: a2 = a4 <u a2\n 10919: a2 = a0 if a1 == 0\n 10922: a5 = u64 [s1 + 0x188]\n 10926: a0 = ra <u a5\n 10929: a3 = u64 [s1 + 0x180]\n 10933: a1 = t0 ^ a3\n 10936: a3 = t0 <u a3\n 10939: a3 = a0 if a1 == 0\n 10942: a0 = ra ^ a5\n 10945: a0 = a0 | a1\n 10948: a3 = a2 if a0 == 0\n 10951: u64 [t1] = t2\n 10953: u64 [t1 + 0x8] = a4\n 10956: u64 [t1 + 0x10] = ra\n 10959: u64 [t1 + 0x18] = t0\n 10962: a0 = s1 + 0x4938\n 10966: jump @455 if a3 != 0\n      : @454 (gas: 1)\n 10969: jump @660\n      : @455 (gas: 11)\n 10972: u64 [a0 + 0] = 0\n 10974: u64 [a0 + 4294967288] = 0\n 10977: u64 [a0 + 4294967280] = 0\n 10980: u64 [a0 + 4294967272] = 0\n 10983: a1 = s1 + 0x4920\n 10987: a0 = t1\n 10989: u64 [s1 + 0x1b0] = t2\n 10993: u64 [s1 + 0x1b8] = a4\n 10997: u64 [s1 + 0x1a8] = t0\n 11001: u64 [s1 + 0x1a0] = ra\n 11005: ra = 400, jump @23\n      : @456 [@dyn 200] (gas: 15)\n 11011: t1 = u64 [s1 + 0x178]\n 11015: t0 = u64 [s1 + 0x1a8]\n 11019: a4 = u64 [s1 + 0x1b8]\n 11023: t2 = u64 [s1 + 0x1b0]\n 11027: t2 = t2 + 0x1\n 11030: a0 = t2 <u 0x1\n 11033: a4 = a4 + a0\n 11036: a0 = t2 | a4\n 11039: a0 = a0 <u 0x1\n 11042: a1 = u64 [s1 + 0x1a0]\n 11046: a0 = a0 + a1\n 11049: a1 = a0 <u a1\n 11052: t0 = t0 + a1\n 11055: ra = a0\n 11057: jump @453\n      : @457 (gas: 9)\n 11060: u64 [a2 + 192] = 0\n 11064: u64 [a2 + 184] = 0\n 11068: u64 [a2 + 176] = 0\n 11072: u64 [a2 + 168] = 0\n 11076: a0 = s1 + 0x5000\n 11080: i32 a0 = a0 + 0x1e0\n 11084: ra = 0x192\n 11088: ecalli 16 // 'value_transferred'\n 11090: fallthrough\n      : @458 [@dyn 201] (gas: 9)\n 11091: a3 = s1 + 0x5138\n 11095: a0 = u64 [a3 + 0xb8]\n 11099: a1 = u64 [a3 + 0xc0]\n 11103: a2 = u64 [a3 + 0xb0]\n 11107: a3 = u64 [a3 + 0xa8]\n 11111: a1 = a1 | a2\n 11114: a0 = a0 | a3\n 11117: a0 = a0 | a1\n 11120: jump @460 if a0 == 0\n      : @459 (gas: 1)\n 11123: jump @1653\n      : @460 (gas: 1)\n 11127: t0 = 404, jump @2026\n      : @461 [@dyn 202] (gas: 1)\n 11134: jump @463 if a1 <u a0\n      : @462 (gas: 1)\n 11137: jump @1654\n      : @463 (gas: 4)\n 11141: a0 = 0xffffffff\n 11151: u64 [s1 + 0x150] = a0\n 11155: a0 = s1 + 0x2ea0\n 11159: ra = 406, jump @1785\n      : @464 [@dyn 203] (gas: 16)\n 11166: a1 = s1 + 0x2938\n 11170: a2 = a1 + 0x500\n 11174: a0 = u64 [a2 + 0x78]\n 11177: u64 [s1 + 0x148] = a0\n 11181: a0 = u64 [a2 + 0x70]\n 11184: u64 [s1 + 0x140] = a0\n 11188: a0 = u64 [a2 + 0x68]\n 11191: u64 [s1 + 0x138] = a0\n 11195: a1 = s1 + 0x5138\n 11199: u64 [a1 + 224] = 0\n 11203: u64 [a1 + 216] = 0\n 11207: u64 [a1 + 208] = 0\n 11211: u64 [a1 + 200] = 0x1\n 11216: a0 = s1 + 0x2e80\n 11220: a1 = s1 + 0x5200\n 11224: ra = 408, jump @21\n      : @465 [@dyn 204] (gas: 17)\n 11230: a4 = s1 + 0x2938\n 11234: a5 = a4 + 0x500\n 11238: a0 = u64 [a5 + 0x60]\n 11241: a1 = u64 [a5 + 0x58]\n 11244: a2 = u64 [a5 + 0x50]\n 11247: a3 = u64 [a5 + 0x48]\n 11250: u64 [s1 + 0x170] = a0\n 11254: u64 [a5 + 0x20] = a0\n 11257: u64 [s1 + 0x168] = a1\n 11261: u64 [a5 + 0x18] = a1\n 11264: u64 [s1 + 0x160] = a2\n 11268: u64 [a5 + 0x10] = a2\n 11271: a0 = s1 + 0x2e60\n 11275: a1 = s1 + 0x2e40\n 11279: u64 [s1 + 0x158] = a3\n 11283: u64 [a5 + 0x8] = a3\n 11286: ra = 410, jump @1836\n      : @466 [@dyn 205] (gas: 20)\n 11293: a4 = s1 + 0x2938\n 11297: a1 = a4 + 0x500\n 11301: a0 = u64 [a1 + 0x40]\n 11304: a2 = s1 + 0x100\n 11308: u64 [a2 + 0x30] = a0\n 11311: a0 = u64 [a1 + 0x38]\n 11314: u64 [a2 + 0x28] = a0\n 11317: a0 = u64 [a1 + 0x30]\n 11320: u64 [a2 + 0x20] = a0\n 11323: a0 = u64 [a1 + 0x28]\n 11326: u64 [a2 + 0x18] = a0\n 11329: u64 [s1 + 392] = 0\n 11333: u64 [s1 + 384] = 0\n 11337: u64 [s1 + 376] = 0\n 11341: u64 [s1 + 440] = 0\n 11345: t1 = 0\n 11347: t2 = 0\n 11349: t0 = 0\n 11351: ra = 0\n 11353: fallthrough\n      : @467 (gas: 17)\n 11354: a0 = u64 [s1 + 0x158]\n 11358: a0 = t1 <u a0\n 11361: a2 = u64 [s1 + 0x160]\n 11365: a1 = t2 ^ a2\n 11368: a2 = t2 <u a2\n 11371: a2 = a0 if a1 == 0\n 11374: a5 = u64 [s1 + 0x168]\n 11378: a0 = t0 <u a5\n 11381: a3 = u64 [s1 + 0x170]\n 11385: a1 = ra ^ a3\n 11388: a3 = ra <u a3\n 11391: a3 = a0 if a1 == 0\n 11394: a0 = t0 ^ a5\n 11397: a0 = a0 | a1\n 11400: a3 = a2 if a0 == 0\n 11403: a2 = u64 [s1 + 0x1b8]\n 11407: jump @469 if a3 != 0\n      : @468 (gas: 1)\n 11410: jump @626\n      : @469 (gas: 11)\n 11413: u64 [s1 + 0x1b0] = t1\n 11417: u64 [a4 + 0x308] = t1\n 11421: u64 [s1 + 0x1a8] = t2\n 11425: u64 [a4 + 0x310] = t2\n 11429: u64 [s1 + 0x198] = t0\n 11433: u64 [a4 + 0x318] = t0\n 11437: a1 = s1 + 0x2c40\n 11441: u64 [s1 + 0x1a0] = ra\n 11445: u64 [a4 + 0x320] = ra\n 11449: a0 = 0\n 11451: ra = 412, jump @19\n      : @470 [@dyn 206] (gas: 9)\n 11457: a0 = s1 + 0x2938\n 11461: u64 [a0 + 768] = 0\n 11465: u64 [a0 + 760] = 0\n 11469: u64 [a0 + 752] = 0\n 11473: a2 = a0\n 11475: a0 = 0x20\n 11478: a1 = s1 + 0x2c20\n 11482: u64 [a2 + 744] = 0\n 11486: ra = 414, jump @19\n      : @471 [@dyn 207] (gas: 2)\n 11492: a1 = i32 [0x201ec]\n 11497: jump @473 if a1 >u 63\n      : @472 (gas: 2)\n 11501: u32 [0x201ec] = 0x40\n 11507: fallthrough\n      : @473 (gas: 13)\n 11508: a0 = sp + 0xffffffffffffffe0\n 11511: a2 = a0 & 0xffffffffffffffe0\n 11514: u64 [s1 + 0x190] = a2\n 11518: sp = a2\n 11520: a0 = 0x20200\n 11525: i32 a0 = a0 + 0\n 11527: i32 a2 = a2 + 0\n 11529: a1 = 0x40\n 11532: ra = 0x1a0\n 11536: ecalli 8 // 'hash_keccak_256'\n 11538: a3 = u64 [s1 + 0x190]\n 11542: t0 = 0x1a2\n 11546: jump @1946\n      : @474 [@dyn 208] (gas: 2)\n 11550: a3 = u64 [s1 + 0x190]\n 11554: t0 = 418, jump @1946\n      : @475 [@dyn 209] (gas: 7)\n 11561: u64 [a1 + 0xe8] = a3\n 11565: u64 [a1 + 0xf0] = a2\n 11569: u64 [a1 + 0xf8] = a4\n 11573: u64 [a1 + 0x100] = a0\n 11577: a0 = s1 + 0x2c00\n 11581: a1 = s1 + 0x5220\n 11585: ra = 420, jump @21\n      : @476 [@dyn 210] (gas: 18)\n 11591: a4 = s1 + 0x2938\n 11595: a3 = a4 + 0x200\n 11599: a0 = u64 [a3 + 0xc8]\n 11603: a1 = u64 [a3 + 0xd8]\n 11607: a2 = u64 [a3 + 0xd0]\n 11611: a3 = u64 [s1 + 0x138]\n 11615: a0 = a0 ^ a3\n 11618: a3 = u64 [s1 + 0x148]\n 11622: a1 = a1 ^ a3\n 11625: a3 = u64 [s1 + 0x140]\n 11629: a2 = a2 ^ a3\n 11632: a2 = a2 & 0xffffffffffffffff\n 11635: a5 = u64 [s1 + 0x150]\n 11639: a1 = a1 & a5\n 11642: a0 = a0 & 0xffffffffffffffff\n 11645: a0 = a0 | a1\n 11648: a0 = a0 | a2\n 11651: jump @478 if a0 == 0\n      : @477 (gas: 5)\n 11654: t1 = u64 [s1 + 0x1b0]\n 11658: t2 = u64 [s1 + 0x1a8]\n 11662: ra = u64 [s1 + 0x1a0]\n 11666: a1 = u64 [s1 + 0x198]\n 11670: jump @485\n      : @478 (gas: 21)\n 11673: a5 = s1 + 0x100\n 11677: a0 = u64 [a5 + 0x88]\n 11681: u64 [a4 + 0x268] = a0\n 11685: a0 = u64 [a5 + 0x18]\n 11688: u64 [a4 + 0x288] = a0\n 11692: a0 = u64 [a5 + 0x80]\n 11696: u64 [a4 + 0x270] = a0\n 11700: a0 = u64 [a5 + 0x20]\n 11703: u64 [a4 + 0x290] = a0\n 11707: a0 = u64 [a5 + 0x78]\n 11710: u64 [a4 + 0x278] = a0\n 11714: a0 = u64 [a5 + 0x28]\n 11717: u64 [a4 + 0x298] = a0\n 11721: a0 = u64 [a5 + 0xb8]\n 11725: u64 [a4 + 0x280] = a0\n 11729: a0 = s1 + 0x2be0\n 11733: a1 = s1 + 0x2bc0\n 11737: a2 = s1 + 0x2ba0\n 11741: a3 = u64 [a5 + 0x30]\n 11744: u64 [a4 + 0x2a0] = a3\n 11748: ra = 422, jump @1858\n      : @479 [@dyn 211] (gas: 7)\n 11755: a4 = s1 + 0x2938\n 11759: a5 = a4 + 0x200\n 11763: a1 = u64 [a5 + 0xc0]\n 11767: a2 = u64 [a5 + 0xb8]\n 11771: a3 = u64 [a5 + 0xb0]\n 11775: a0 = u64 [a5 + 0xa8]\n 11779: t0 = 424, jump @1955\n      : @480 [@dyn 212] (gas: 1)\n 11786: jump @482 if a1 == 0\n      : @481 (gas: 1)\n 11789: jump @1603\n      : @482 (gas: 11)\n 11793: a1 = u64 [s1 + 0x1b0]\n 11797: a3 = a4 + 0x200\n 11801: u64 [a3 + 0x48] = a1\n 11804: a1 = u64 [s1 + 0x1a8]\n 11808: u64 [a3 + 0x50] = a1\n 11811: a1 = u64 [s1 + 0x198]\n 11815: u64 [a3 + 0x58] = a1\n 11818: a1 = s1 + 0x2b80\n 11822: a2 = u64 [s1 + 0x1a0]\n 11826: u64 [a3 + 0x60] = a2\n 11829: ra = 426, jump @19\n      : @483 [@dyn 213] (gas: 15)\n 11835: a0 = s1 + 0x2938\n 11839: a1 = u64 [s1 + 0x1b8]\n 11843: u64 [a0 + 0x220] = a1\n 11847: a0 = s1 + 0x2938\n 11851: a1 = u64 [s1 + 0x178]\n 11855: u64 [a0 + 0x218] = a1\n 11859: a0 = s1 + 0x2938\n 11863: a1 = u64 [s1 + 0x180]\n 11867: u64 [a0 + 0x210] = a1\n 11871: a0 = s1 + 0x2b60\n 11875: a1 = s1 + 0x2b40\n 11879: a2 = s1 + 0x2938\n 11883: a3 = u64 [s1 + 0x188]\n 11887: u64 [a2 + 0x208] = a3\n 11891: ra = 428, jump @1900\n      : @484 [@dyn 214] (gas: 16)\n 11898: a2 = s1 + 0x100\n 11902: a1 = u64 [a2 + 0x98]\n 11906: ra = u64 [s1 + 0x1a0]\n 11910: t2 = u64 [s1 + 0x1a8]\n 11914: t1 = u64 [s1 + 0x1b0]\n 11918: a4 = s1 + 0x2938\n 11922: a3 = a4 + 0x200\n 11926: a0 = u64 [a3 + 0x40]\n 11929: u64 [a2 + 0xb8] = a0\n 11933: a0 = u64 [a3 + 0x38]\n 11936: u64 [a2 + 0x78] = a0\n 11939: a0 = u64 [a3 + 0x30]\n 11942: u64 [a2 + 0x80] = a0\n 11946: a0 = u64 [a3 + 0x28]\n 11949: u64 [a2 + 0x88] = a0\n 11953: fallthrough\n      : @485 (gas: 9)\n 11954: t1 = t1 + 0x1\n 11957: a0 = t1 <u 0x1\n 11960: t2 = t2 + a0\n 11963: a0 = t1 | t2\n 11966: a0 = a0 <u 0x1\n 11969: t0 = a1 + a0\n 11972: a1 = t0 <u a1\n 11975: ra = ra + a1\n 11978: jump @467\n      : @486 (gas: 10)\n 11981: u64 [a3 + 1536] = 0\n 11985: u64 [a3 + 1528] = 0\n 11989: u64 [a3 + 1520] = 0\n 11993: u64 [a3 + 1512] = 0\n 11997: a0 = s1 + 0x4000\n 12001: i32 a0 = a0 + 0x720\n 12005: ra = 0x1ae\n 12009: ecalli 16 // 'value_transferred'\n 12011: a3 = s1 + 0x4138\n 12015: jump @488\n      : @487 [@dyn 215] (gas: 2)\n 12017: a3 = s1 + 0x4138\n 12021: fallthrough\n      : @488 (gas: 9)\n 12022: a4 = a3 + 0x500\n 12026: a0 = u64 [a4 + 0xf8]\n 12030: a1 = u64 [a3 + 0x600]\n 12034: a2 = u64 [a4 + 0xf0]\n 12038: a3 = u64 [a4 + 0xe8]\n 12042: a1 = a1 | a2\n 12045: a0 = a0 | a3\n 12048: a0 = a0 | a1\n 12051: jump @490 if a0 == 0\n      : @489 (gas: 1)\n 12054: jump @1655\n      : @490 (gas: 1)\n 12058: t0 = 432, jump @2026\n      : @491 [@dyn 216] (gas: 1)\n 12065: jump @493 if a1 <u a0\n      : @492 (gas: 1)\n 12068: jump @1656\n      : @493 (gas: 25)\n 12072: a0 = s1 + 0x4000\n 12076: i32 a0 = a0 + 0x740\n 12080: a1 = 0x4\n 12083: ecalli 3 // 'call_data_load'\n 12085: a0 = s1 + 0x4138\n 12089: a5 = a0 + 0x600\n 12093: a1 = u64 [a5 + 0x20]\n 12096: a2 = u64 [a5 + 0x18]\n 12099: a3 = u64 [a5 + 0x10]\n 12102: a4 = u64 [a5 + 0x8]\n 12105: a0 = s1 + 0x7ff\n 12109: a0 = a0 + 0x139\n 12113: u64 [s1 + 0xf0] = a1\n 12117: a5 = a0 + 0x300\n 12121: u64 [a5 + 0xa0] = a1\n 12125: u64 [s1 + 0xe8] = a2\n 12129: u64 [a5 + 0x98] = a2\n 12133: u64 [s1 + 0xe0] = a3\n 12137: u64 [a5 + 0x90] = a3\n 12141: a1 = s1 + 0x7ff\n 12145: a1 = a1 + 0x4c1\n 12149: u64 [s1 + 0xd8] = a4\n 12153: u64 [a5 + 0x88] = a4\n 12157: a0 = 0\n 12159: ra = 434, jump @19\n      : @494 [@dyn 217] (gas: 11)\n 12165: a0 = s1 + 0x7ff\n 12169: a0 = a0 + 0x139\n 12173: u64 [a0 + 896] = 0\n 12177: u64 [a0 + 888] = 0\n 12181: u64 [a0 + 880] = 0\n 12185: a2 = a0\n 12187: a0 = 0x20\n 12190: a1 = s1 + 0x7ff\n 12194: a1 = a1 + 0x4a1\n 12198: u64 [a2 + 872] = 0\n 12202: ra = 436, jump @19\n      : @495 [@dyn 218] (gas: 4)\n 12208: a0 = 0x201ec\n 12213: u64 [s1 + 0x118] = a0\n 12217: a0 = i32 [0x201ec]\n 12222: jump @497 if a0 >u 63\n      : @496 (gas: 3)\n 12226: a1 = u64 [s1 + 0x118]\n 12230: u32 [a1 + 0] = 0x40\n 12233: fallthrough\n      : @497 (gas: 13)\n 12234: a0 = sp + 0xffffffffffffffe0\n 12237: a2 = a0 & 0xffffffffffffffe0\n 12240: u64 [s1 + 0x1b0] = a2\n 12244: sp = a2\n 12246: a0 = 0x20200\n 12251: i32 a0 = a0 + 0\n 12253: i32 a2 = a2 + 0\n 12255: a1 = 0x40\n 12258: u64 [s1 + 0xd0] = a0\n 12262: ra = 0x1b6\n 12266: ecalli 8 // 'hash_keccak_256'\n 12268: t0 = 0x1b8\n 12272: jump @1957\n      : @498 [@dyn 219] (gas: 1)\n 12276: t0 = 440, jump @1957\n      : @499 [@dyn 220] (gas: 18)\n 12283: a3 = a3 + 0x1\n 12286: a4 = a3 <u 0x1\n 12289: a2 = a2 + a4\n 12292: a4 = a3 | a2\n 12295: a4 = a4 <u 0x1\n 12298: a4 = a4 + a1\n 12301: a1 = a4 <u a1\n 12304: a0 = a0 + a1\n 12307: a1 = s1 + 0x4138\n 12311: a5 = a1 + 0x600\n 12315: u64 [a5 + 0x28] = a3\n 12318: u64 [a5 + 0x30] = a2\n 12321: u64 [a5 + 0x38] = a4\n 12324: u64 [a5 + 0x40] = a0\n 12327: a0 = s1 + 0x7ff\n 12331: a0 = a0 + 0x481\n 12335: a1 = s1 + 0x4760\n 12339: ra = 442, jump @21\n      : @500 [@dyn 221] (gas: 16)\n 12345: a0 = s1 + 0x7ff\n 12349: a0 = a0 + 0x139\n 12353: a1 = u64 [a0 + 0x350]\n 12357: u64 [s1 + 0x1a8] = a1\n 12361: a1 = u64 [a0 + 0x348]\n 12365: u64 [s1 + 0x1a0] = a1\n 12369: a0 = u32 [a0 + 0x358]\n 12373: u64 [s1 + 0x198] = a0\n 12377: a0 = 0x30200\n 12382: u64 [s1 + 0x1b0] = a0\n 12386: i32 a0 = a0 + 0\n 12388: u64 [s1 + 0x190] = a0\n 12392: ra = 0x1bc\n 12396: ecalli 5 // 'caller'\n 12398: t0 = 0x1be\n 12402: jump @1943\n      : @501 [@dyn 222] (gas: 1)\n 12406: t0 = 446, jump @1943\n      : @502 [@dyn 223] (gas: 2)\n 12413: a1 = 0x1\n 12416: jump @504 if a0 != 0\n      : @503 (gas: 1)\n 12419: jump @861\n      : @504 (gas: 15)\n 12422: a0 = u64 [s1 + 0xd8]\n 12426: a2 = s1 + 0x7ff\n 12430: a2 = a2 + 0x139\n 12434: a3 = a2 + 0x300\n 12438: u64 [a3 + 0x28] = a0\n 12441: a0 = u64 [s1 + 0xe0]\n 12445: u64 [a3 + 0x30] = a0\n 12448: a0 = u64 [s1 + 0xe8]\n 12452: u64 [a3 + 0x38] = a0\n 12455: a1 = s1 + 0x7ff\n 12459: a1 = a1 + 0x461\n 12463: a0 = u64 [s1 + 0xf0]\n 12467: u64 [a3 + 0x40] = a0\n 12470: a0 = 0\n 12472: ra = 448, jump @19\n      : @505 [@dyn 224] (gas: 11)\n 12478: a0 = s1 + 0x7ff\n 12482: a0 = a0 + 0x139\n 12486: u64 [a0 + 800] = 0\n 12490: u64 [a0 + 792] = 0\n 12494: u64 [a0 + 784] = 0\n 12498: a2 = a0\n 12500: a0 = 0x20\n 12503: a1 = s1 + 0x7ff\n 12507: a1 = a1 + 0x441\n 12511: u64 [a2 + 776] = 0\n 12515: ra = 450, jump @19\n      : @506 [@dyn 225] (gas: 3)\n 12521: a0 = u64 [s1 + 0x118]\n 12525: a0 = i32 [a0]\n 12527: jump @508 if a0 >u 63\n      : @507 (gas: 3)\n 12531: a1 = u64 [s1 + 0x118]\n 12535: u32 [a1 + 0] = 0x40\n 12538: fallthrough\n      : @508 (gas: 11)\n 12539: a0 = sp + 0xffffffffffffffe0\n 12542: a0 = a0 & 0xffffffffffffffe0\n 12545: u64 [s1 + 0x1a8] = a0\n 12549: sp = a0\n 12551: i32 a2 = a0 + 0\n 12553: a1 = 0x40\n 12556: a0 = u64 [s1 + 0xd0]\n 12560: ra = 0x1c4\n 12564: ecalli 8 // 'hash_keccak_256'\n 12566: t0 = 0x1c6\n 12570: jump @1999\n      : @509 [@dyn 226] (gas: 1)\n 12574: t0 = 454, jump @1999\n      : @510 [@dyn 227] (gas: 2)\n 12581: a4 = a3 + 0x2\n 12584: t0 = 456, jump @1988\n      : @511 [@dyn 228] (gas: 8)\n 12591: u64 [a3 + 0x48] = a4\n 12594: u64 [a3 + 0x50] = a5\n 12597: u64 [a3 + 0x58] = a2\n 12600: u64 [a3 + 0x60] = a0\n 12603: a0 = s1 + 0x7ff\n 12607: a0 = a0 + 0x421\n 12611: a1 = s1 + 0x4780\n 12615: ra = 458, jump @21\n      : @512 [@dyn 229] (gas: 13)\n 12621: a0 = s1 + 0x7ff\n 12625: a0 = a0 + 0x139\n 12629: a1 = u64 [a0 + 0x2f0]\n 12633: u64 [s1 + 0x1a8] = a1\n 12637: a1 = u64 [a0 + 0x2e8]\n 12641: u64 [s1 + 0x1a0] = a1\n 12645: a0 = u32 [a0 + 0x2f8]\n 12649: u64 [s1 + 0x198] = a0\n 12653: a0 = u64 [s1 + 0x190]\n 12657: ra = 0x1cc\n 12661: ecalli 5 // 'caller'\n 12663: t0 = 0x1ce\n 12667: jump @1943\n      : @513 [@dyn 230] (gas: 1)\n 12671: t0 = 462, jump @1943\n      : @514 [@dyn 231] (gas: 1)\n 12678: jump @516 if a0 == 0\n      : @515 (gas: 1)\n 12681: jump @853\n      : @516 (gas: 2)\n 12684: a1 = 0x1\n 12687: jump @861\n      : @517 (gas: 9)\n 12690: u64 [a2 + 800] = 0\n 12694: u64 [a2 + 792] = 0\n 12698: u64 [a2 + 784] = 0\n 12702: u64 [a2 + 776] = 0\n 12706: a0 = s1 + 0x5000\n 12710: i32 a0 = a0 + 0x440\n 12714: ra = 0x1d0\n 12718: ecalli 16 // 'value_transferred'\n 12720: fallthrough\n      : @518 [@dyn 232] (gas: 3)\n 12721: a3 = s1 + 0x5138\n 12725: a4 = a3 + 0x300\n 12729: t0 = 466, jump @2037\n      : @519 [@dyn 233] (gas: 1)\n 12736: jump @521 if a0 == 0\n      : @520 (gas: 1)\n 12739: jump @1657\n      : @521 (gas: 3)\n 12743: a0 = u64 [s1 + 0x1b8]\n 12747: a0 = i32 [a0]\n 12749: jump @523 if a0 >u 131\n      : @522 (gas: 1)\n 12754: jump @1658\n      : @523 (gas: 20)\n 12758: a0 = s1 + 0x5000\n 12762: i32 a0 = a0 + 0x460\n 12766: a1 = 0x4\n 12769: ecalli 3 // 'call_data_load'\n 12771: a1 = s1 + 0x5138\n 12775: a2 = a1 + 0x300\n 12779: a0 = u64 [a2 + 0x40]\n 12782: a1 = s1 + 0x100\n 12786: u64 [a1 + 0x28] = a0\n 12789: a0 = u64 [a2 + 0x38]\n 12792: u64 [a1 + 0x20] = a0\n 12795: a0 = u64 [a2 + 0x30]\n 12798: u64 [a1 + 0x18] = a0\n 12801: a0 = u64 [a2 + 0x28]\n 12804: u64 [a1 + 0x10] = a0\n 12807: a0 = s1 + 0x5000\n 12811: i32 a0 = a0 + 0x480\n 12815: a1 = 0x24\n 12818: ecalli 3 // 'call_data_load'\n 12820: fallthrough\n      : @524 (gas: 9)\n 12821: a2 = s1 + 0x5138\n 12825: a3 = a2 + 0x300\n 12829: a0 = u64 [a3 + 0x60]\n 12832: a1 = u64 [a3 + 0x58]\n 12835: a2 = u64 [a3 + 0x50]\n 12838: a3 = a1 | a0\n 12841: a4 = a2 <u 0x1\n 12844: a4 = 0 if a3 != 0\n 12846: jump @526 if a4 != 0\n      : @525 (gas: 1)\n 12849: jump @1659\n      : @526 (gas: 26)\n 12853: a3 = s1 + 0x5138\n 12857: a3 = u64 [a3 + 0x348]\n 12861: a4 = u64 [s1 + 0x1b8]\n 12865: t0 = u32 [a4]\n 12867: a5 = a3 + 0x4\n 12870: a3 = a5 <u a3\n 12873: a4 = a2 + a3\n 12876: a2 = a4 <u a2\n 12879: a2 = a3 if a3 == 0\n 12882: a2 = a2 + a1\n 12885: a1 = a2 <u a1\n 12888: a3 = a0 + a1\n 12891: a0 = s1 + 0x4138\n 12895: u64 [a0 + 0] = 0\n 12897: u64 [a0 + 4294967288] = 0\n 12900: u64 [a0 + 4294967280] = 0\n 12903: u64 [a0 + 0xffffffffffffffe8] = t0\n 12906: u64 [a0 + 0x8] = a5\n 12909: u64 [a0 + 0x10] = a4\n 12912: u64 [a0 + 0x18] = a2\n 12915: a4 = a0\n 12917: a0 = s1 + 0x4160\n 12921: a1 = s1 + 0x4140\n 12925: a2 = s1 + 0x4120\n 12929: u64 [a4 + 0x20] = a3\n 12932: ra = 468, jump @1759\n      : @527 [@dyn 234] (gas: 28)\n 12939: a1 = s1 + 0x4138\n 12943: a0 = u64 [a1 + 0x40]\n 12946: u64 [s1 + 0xf0] = a0\n 12950: a0 = u64 [a1 + 0x38]\n 12953: u64 [s1 + 0xf8] = a0\n 12957: a0 = u64 [a1 + 0x30]\n 12960: u64 [s1 + 0x100] = a0\n 12964: a0 = u64 [a1 + 0x28]\n 12967: u64 [s1 + 0x108] = a0\n 12971: a0 = s1 + 0x5000\n 12975: i32 a0 = a0 + 0x4a0\n 12979: a1 = 0x44\n 12982: ecalli 3 // 'call_data_load'\n 12984: a1 = s1 + 0x5138\n 12988: a2 = a1 + 0x300\n 12992: a0 = u64 [a2 + 0x80]\n 12996: u64 [s1 + 0xe8] = a0\n 13000: a0 = u64 [a2 + 0x78]\n 13003: u64 [s1 + 0xe0] = a0\n 13007: a0 = u64 [a2 + 0x70]\n 13010: u64 [s1 + 0xd8] = a0\n 13014: a0 = u64 [a2 + 0x68]\n 13017: u64 [s1 + 0xd0] = a0\n 13021: a0 = s1 + 0x5000\n 13025: i32 a0 = a0 + 0x4c0\n 13029: a1 = 0x64\n 13032: ecalli 3 // 'call_data_load'\n 13034: fallthrough\n      : @528 (gas: 9)\n 13035: a2 = s1 + 0x5138\n 13039: a3 = a2 + 0x300\n 13043: a0 = u64 [a3 + 0xa0]\n 13047: a1 = u64 [a3 + 0x98]\n 13051: a2 = u64 [a3 + 0x90]\n 13055: a3 = a1 | a0\n 13058: a4 = a2 <u 0x1\n 13061: a4 = 0 if a3 != 0\n 13063: jump @530 if a4 != 0\n      : @529 (gas: 1)\n 13066: jump @1660\n      : @530 (gas: 26)\n 13070: a3 = s1 + 0x5138\n 13074: a3 = u64 [a3 + 0x388]\n 13078: t1 = s1 + 0x3938\n 13082: a4 = u64 [s1 + 0x1b8]\n 13086: t0 = u32 [a4]\n 13088: a5 = a3 + 0x4\n 13091: a3 = a5 <u a3\n 13094: a4 = a2 + a3\n 13097: a2 = a4 <u a2\n 13100: a2 = a3 if a3 == 0\n 13103: a2 = a2 + a1\n 13106: a1 = a2 <u a1\n 13109: a3 = a0 + a1\n 13112: u64 [t1 + 1952] = 0\n 13116: u64 [t1 + 1944] = 0\n 13120: u64 [t1 + 1936] = 0\n 13124: u64 [t1 + 0x788] = t0\n 13128: u64 [t1 + 0x7a8] = a5\n 13132: a5 = t1 + 0x700\n 13136: u64 [a5 + 0xb0] = a4\n 13140: u64 [a5 + 0xb8] = a2\n 13144: a0 = s1 + 0x4100\n 13148: a1 = s1 + 0x40e0\n 13152: a2 = s1 + 0x40c0\n 13156: u64 [a5 + 0xc0] = a3\n 13160: ra = 470, jump @1759\n      : @531 [@dyn 235] (gas: 19)\n 13167: a1 = s1 + 0x3938\n 13171: a2 = a1 + 0x700\n 13175: a0 = u64 [a2 + 0xe0]\n 13179: u64 [s1 + 0xb0] = a0\n 13183: a0 = u64 [a2 + 0xd8]\n 13187: u64 [s1 + 0xb8] = a0\n 13191: a0 = u64 [a2 + 0xd0]\n 13195: u64 [s1 + 0xc0] = a0\n 13199: a0 = u64 [a2 + 0xc8]\n 13203: u64 [s1 + 0xc8] = a0\n 13207: a0 = s1 + 0x5138\n 13211: u64 [a0 + 960] = 0\n 13215: u64 [a0 + 952] = 0\n 13219: u64 [a0 + 944] = 0\n 13223: a1 = a0\n 13225: u64 [a1 + 936] = 0x2\n 13230: a0 = s1 + 0x40a0\n 13234: a1 = s1 + 0x54e0\n 13238: ra = 472, jump @21\n      : @532 [@dyn 236] (gas: 13)\n 13244: a1 = s1 + 0x3938\n 13248: a0 = u64 [a1 + 0x770]\n 13252: u64 [s1 + 0x1b8] = a0\n 13256: a0 = u64 [a1 + 0x768]\n 13260: u64 [s1 + 0x1b0] = a0\n 13264: a0 = u32 [a1 + 0x778]\n 13268: u64 [s1 + 0x1a8] = a0\n 13272: a0 = 0x30200\n 13277: u64 [s1 + 0x1a0] = a0\n 13281: i32 a0 = a0 + 0\n 13283: ra = 0x1da\n 13287: ecalli 5 // 'caller'\n 13289: fallthrough\n      : @533 [@dyn 237] (gas: 3)\n 13290: a5 = s1 + 0x100\n 13294: a2 = u64 [a5 + 0xa0]\n 13298: t0 = 476, jump @1936\n      : @534 [@dyn 238] (gas: 1)\n 13305: jump @536 if a0 == 0\n      : @535 (gas: 1)\n 13308: jump @641\n      : @536 (gas: 8)\n 13311: a1 = s1 + 0x5138\n 13315: u64 [a1 + 992] = 0\n 13319: u64 [a1 + 984] = 0\n 13323: u64 [a1 + 976] = 0\n 13327: u64 [a1 + 968] = 0x1\n 13332: a0 = s1 + 0x3fc0\n 13336: a1 = s1 + 0x5500\n 13340: ra = 478, jump @21\n      : @537 [@dyn 239] (gas: 25)\n 13346: a3 = s1 + 0x3938\n 13350: a4 = a3 + 0x600\n 13354: a0 = u64 [a4 + 0x90]\n 13358: a1 = u64 [a4 + 0x88]\n 13362: a2 = u64 [a4 + 0x98]\n 13366: a3 = u64 [a4 + 0xa0]\n 13370: a5 = u64 [s1 + 0x118]\n 13374: a4 = a5 ^ a0\n 13377: a0 = a5 <u a0\n 13380: a5 = u64 [s1 + 0x110]\n 13384: a5 = a5 <u a1\n 13387: a5 = a0 if a4 != 0\n 13390: a1 = u64 [s1 + 0x128]\n 13394: a0 = a1 ^ a3\n 13397: a1 = a1 <u a3\n 13400: a4 = u64 [s1 + 0x120]\n 13404: a3 = a4 <u a2\n 13407: a3 = a1 if a0 != 0\n 13410: a1 = a4 ^ a2\n 13413: a0 = a0 | a1\n 13416: a5 = a3 if a0 != 0\n 13419: u64 [s1 + 0x1b8] = a5\n 13423: a0 = s1 + 0x3fa0\n 13427: a1 = 0x40\n 13430: ra = 480, jump @17\n      : @538 [@dyn 240] (gas: 10)\n 13436: t0 = s1 + 0x3938\n 13440: a0 = u64 [t0 + 0x680]\n 13444: a5 = u64 [t0 + 0x678]\n 13448: t1 = u64 [t0 + 0x668]\n 13452: t2 = u64 [t0 + 0x670]\n 13456: a4 = a5 | a0\n 13459: a2 = t1 | a5\n 13462: a1 = t2 | a0\n 13465: a3 = u64 [s1 + 0x1b8]\n 13469: jump @540 if a3 != 0\n      : @539 (gas: 1)\n 13472: jump @933\n      : @540 (gas: 12)\n 13475: u64 [s1 + 0x198] = a2\n 13479: u64 [s1 + 0x1b8] = a1\n 13483: a1 = t2 >u 0\n 13485: a2 = t1 <u 0xffffffffffffff60\n 13489: a2 = a2 ^ 0x1\n 13492: a2 = a1 if t2 != 0\n 13495: a1 = a5 >u 0\n 13497: a3 = a0 >u 0\n 13499: a3 = a1 if a0 == 0\n 13502: u64 [s1 + 0x1a8] = a4\n 13506: a3 = a2 if a4 == 0\n 13509: jump @542 if a3 == 0\n      : @541 (gas: 1)\n 13512: jump @1670\n      : @542 (gas: 18)\n 13516: a1 = t1 + 0xa0\n 13520: a2 = a1 <u t1\n 13523: a3 = t2 + a2\n 13526: a4 = a3 <u t2\n 13529: a4 = a2 if a2 == 0\n 13532: a4 = a4 + a5\n 13535: a2 = a4 <u a5\n 13538: a2 = a2 + a0\n 13541: u64 [t0 + 0x5c8] = a1\n 13545: u64 [t0 + 0x5d0] = a3\n 13549: u64 [t0 + 0x5d8] = a4\n 13553: a0 = 0x40\n 13556: a1 = s1 + 0x3f00\n 13560: u64 [t0 + 0x5e0] = a2\n 13564: u64 [s1 + 0x1b0] = t1\n 13568: u64 [s1 + 0x1a0] = t2\n 13572: u64 [s1 + 0x190] = a5\n 13576: ra = 482, jump @19\n      : @543 [@dyn 241] (gas: 10)\n 13582: a3 = s1 + 0x100\n 13586: a1 = u64 [a3 + 0xb8]\n 13590: a0 = u64 [a3 + 0x98]\n 13594: a0 = a0 | a1\n 13597: a0 = a0 >> 0x20\n 13600: a2 = u64 [a3 + 0x90]\n 13604: a1 = a1 | a2\n 13607: a1 = a1 << 0x20\n 13610: a0 = a0 | a1\n 13613: jump @545 if a0 == 0\n      : @544 (gas: 1)\n 13616: jump @1603\n      : @545 (gas: 13)\n 13619: a0 = u64 [s1 + 0x108]\n 13623: a2 = s1 + 0x3938\n 13627: a3 = a2 + 0x500\n 13631: u64 [a3 + 0xa8] = a0\n 13635: a0 = u64 [s1 + 0x100]\n 13639: u64 [a3 + 0xb0] = a0\n 13643: a0 = u64 [s1 + 0xf8]\n 13647: u64 [a3 + 0xb8] = a0\n 13651: a1 = s1 + 0x3ee0\n 13655: a0 = u64 [s1 + 0xf0]\n 13659: u64 [a3 + 0xc0] = a0\n 13663: a0 = u64 [s1 + 0x1b0]\n 13667: ra = 484, jump @19\n      : @546 [@dyn 242] (gas: 10)\n 13673: a2 = 0x100000000\n 13683: a0 = 0xffffffe0\n 13693: a4 = s1 + 0x100\n 13697: a3 = u64 [a4 + 0xb0]\n 13701: a0 = a3 <u a0\n 13704: a1 = u64 [a4 + 0xa0]\n 13708: a0 = 0 if a1 != 0\n 13710: a1 = u64 [a4 + 0xa8]\n 13714: a0 = 0 if a1 != 0\n 13716: jump @548 if a0 != 0\n      : @547 (gas: 1)\n 13719: jump @1603\n      : @548 (gas: 16)\n 13722: u64 [s1 + 0x1b8] = a2\n 13726: i32 a2 = a3 + 0x20\n 13729: a0 = u64 [s1 + 0xd0]\n 13733: a5 = s1 + 0x3938\n 13737: a3 = a5 + 0x500\n 13741: u64 [a3 + 0x88] = a0\n 13745: a0 = u64 [s1 + 0xd8]\n 13749: u64 [a3 + 0x90] = a0\n 13753: a0 = u64 [s1 + 0xe0]\n 13757: u64 [a3 + 0x98] = a0\n 13761: a1 = s1 + 0x3ec0\n 13765: a0 = u64 [s1 + 0xe8]\n 13769: u64 [a3 + 0xa0] = a0\n 13773: u64 [s1 + 0xa8] = a2\n 13777: a0 = a2\n 13779: ra = 486, jump @19\n      : @549 [@dyn 243] (gas: 10)\n 13785: a3 = s1 + 0x100\n 13789: a1 = u64 [a3 + 0xb0]\n 13793: a0 = u64 [a3 + 0xb8]\n 13797: a0 = a0 + 0xffffffffffffffc0\n 13800: a0 = a1 <u a0\n 13803: a2 = u64 [a3 + 0xa0]\n 13807: a0 = 0 if a2 != 0\n 13809: a2 = u64 [a3 + 0xa8]\n 13813: a0 = 0 if a2 != 0\n 13815: jump @551 if a0 != 0\n      : @550 (gas: 1)\n 13818: jump @1603\n      : @551 (gas: 15)\n 13821: i32 a2 = a1 + 0x40\n 13824: a0 = u64 [s1 + 0xc8]\n 13828: a3 = s1 + 0x3938\n 13832: a4 = a3 + 0x500\n 13836: u64 [a4 + 0x68] = a0\n 13839: a0 = u64 [s1 + 0xc0]\n 13843: u64 [a4 + 0x70] = a0\n 13846: a0 = u64 [s1 + 0xb8]\n 13850: u64 [a4 + 0x78] = a0\n 13853: a1 = s1 + 0x3ea0\n 13857: a0 = u64 [s1 + 0xb0]\n 13861: u64 [a4 + 0x80] = a0\n 13865: u64 [s1 + 0xa0] = a2\n 13869: a0 = a2\n 13871: ra = 488, jump @19\n      : @552 [@dyn 244] (gas: 10)\n 13877: a0 = s1 + 0x100\n 13881: a3 = u64 [a0 + 0xa0]\n 13885: a2 = u64 [a0 + 0xa8]\n 13889: a1 = u64 [a0 + 0xb0]\n 13893: a4 = 0x100000000\n 13903: a0 = 0xffffffa0\n 13913: a0 = a1 <u a0\n 13916: a0 = 0 if a3 != 0\n 13918: a0 = 0 if a2 != 0\n 13920: jump @554 if a0 != 0\n      : @553 (gas: 1)\n 13923: jump @1603\n      : @554 (gas: 11)\n 13926: i32 a0 = a1 + 0x60\n 13929: a1 = s1 + 0x3938\n 13933: u64 [s1 + 0x1b8] = a4\n 13937: a4 = a1\n 13939: u64 [a1 + 1376] = 0\n 13943: u64 [a1 + 1368] = 0\n 13947: u64 [a1 + 1360] = 0\n 13951: a1 = s1 + 0x3e80\n 13955: u64 [a4 + 1352] = 0\n 13959: u64 [s1 + 0x68] = a0\n 13962: ra = 490, jump @19\n      : @555 [@dyn 245] (gas: 4)\n 13968: a0 = s1 + 0x5000\n 13972: i32 a0 = a0 + 0x520\n 13976: ecalli 9 // 'now'\n 13978: fallthrough\n      : @556 (gas: 10)\n 13979: a2 = s1 + 0x100\n 13983: a5 = u64 [a2 + 0xb0]\n 13987: a0 = u64 [a2 + 0xb8]\n 13991: a0 = a0 + 0xffffffffffffff80\n 13994: a0 = a5 <u a0\n 13997: a1 = u64 [a2 + 0xa0]\n 14001: a0 = 0 if a1 != 0\n 14003: a1 = u64 [a2 + 0xa8]\n 14007: a0 = 0 if a1 != 0\n 14009: jump @558 if a0 != 0\n      : @557 (gas: 1)\n 14012: jump @1603\n      : @558 (gas: 16)\n 14015: a3 = s1 + 0x5138\n 14019: a0 = a3 + 0x300\n 14023: a4 = u64 [a0 + 0xe8]\n 14027: a1 = u64 [a0 + 0xf0]\n 14031: a2 = u64 [a0 + 0xf8]\n 14035: a3 = u64 [a3 + 0x400]\n 14039: i32 a0 = a5 + 0x80\n 14043: a5 = s1 + 0x3938\n 14047: u64 [a5 + 0x540] = a3\n 14051: a3 = a5 + 0x500\n 14055: u64 [a3 + 0x38] = a2\n 14058: u64 [a3 + 0x30] = a1\n 14061: a1 = s1 + 0x3e60\n 14065: u64 [a3 + 0x28] = a4\n 14068: u64 [s1 + 0x48] = a0\n 14071: ra = 492, jump @19\n      : @559 [@dyn 246] (gas: 13)\n 14077: a0 = u64 [s1 + 0x128]\n 14081: a2 = s1 + 0x3938\n 14085: a3 = a2 + 0x500\n 14089: u64 [a3 + 0x20] = a0\n 14092: a0 = u64 [s1 + 0x120]\n 14096: u64 [a3 + 0x18] = a0\n 14099: a0 = u64 [s1 + 0x118]\n 14103: u64 [a3 + 0x10] = a0\n 14106: a1 = s1 + 0x3e40\n 14110: a0 = u64 [s1 + 0x110]\n 14114: u64 [a3 + 0x8] = a0\n 14117: a0 = 0\n 14119: ra = 494, jump @19\n      : @560 [@dyn 247] (gas: 2)\n 14125: a0 = 0x3938\n 14129: t0 = 496, jump @2035\n      : @561 [@dyn 248] (gas: 3)\n 14136: a1 = s1 + 0x3e20\n 14140: u64 [a2 + 1256] = 0\n 14144: ra = 498, jump @19\n      : @562 [@dyn 249] (gas: 7)\n 14150: a0 = sp + 0xffffffffffffffe0\n 14153: a0 = a0 & 0xffffffffffffffe0\n 14156: u64 [s1 + 0x1b8] = a0\n 14160: sp = a0\n 14162: a2 = 0x201ec\n 14167: a0 = i32 [0x201ec]\n 14172: jump @564 if a0 >u 63\n      : @563 (gas: 2)\n 14176: u32 [0x201ec] = 0x40\n 14182: fallthrough\n      : @564 (gas: 14)\n 14183: u64 [s1 + 0x58] = a2\n 14186: a0 = sp + 0xffffffffffffffe0\n 14189: a2 = a0 & 0xffffffffffffffe0\n 14192: u64 [s1 + 0x1a8] = a2\n 14196: sp = a2\n 14198: a0 = 0x20200\n 14203: i32 a0 = a0 + 0\n 14205: i32 a2 = a2 + 0\n 14207: a1 = 0x40\n 14210: u64 [s1 + 0x50] = a0\n 14213: ra = 0x1f4\n 14217: ecalli 8 // 'hash_keccak_256'\n 14219: t0 = 0x1f6\n 14223: jump @1999\n      : @565 [@dyn 250] (gas: 1)\n 14227: t0 = 502, jump @1999\n      : @566 [@dyn 251] (gas: 20)\n 14234: a4 = a3 + 0x5\n 14237: a3 = a4 <u a3\n 14240: a5 = a2 + a3\n 14243: a2 = a5 <u a2\n 14246: a2 = a3 if a3 == 0\n 14249: a2 = a2 + a1\n 14252: a1 = a2 <u a1\n 14255: a0 = a0 + a1\n 14258: a3 = s1 + 0x100\n 14262: a1 = u64 [a3 + 0xb8]\n 14266: u64 [a3 + 0xa8] = a4\n 14270: u64 [a1] = a4\n 14272: u64 [a3 + 0xa0] = a5\n 14276: u64 [a1 + 0x8] = a5\n 14279: u64 [a3 + 0x98] = a2\n 14283: u64 [a1 + 0x10] = a2\n 14286: u64 [a3 + 0x90] = a0\n 14290: u64 [a1 + 0x18] = a0\n 14293: a0 = s1 + 0x3e00\n 14297: ra = 504, jump @21\n      : @567 [@dyn 252] (gas: 12)\n 14303: t0 = s1 + 0x3938\n 14307: a0 = t0 + 0x400\n 14311: a5 = u64 [a0 + 0xe0]\n 14315: a4 = u64 [a0 + 0xd8]\n 14319: a3 = u64 [a0 + 0xd0]\n 14323: a0 = a5 >u 0\n 14325: a1 = a4 >u 0\n 14327: a1 = a0 if a5 != 0\n 14330: a0 = a4 | a5\n 14333: a2 = a3 >u 0\n 14335: a2 = a1 if a0 != 0\n 14338: jump @569 if a2 == 0\n      : @568 (gas: 1)\n 14341: jump @1676\n      : @569 (gas: 22)\n 14344: a0 = u64 [t0 + 0x4c8]\n 14348: u64 [s1 + 0x188] = a0\n 14352: a0 = a0 + 0x1\n 14355: a1 = a0 <u 0x1\n 14358: a1 = a1 + a3\n 14361: a2 = a0 | a1\n 14364: a2 = a2 <u 0x1\n 14367: a2 = a2 + a4\n 14370: u64 [s1 + 0x180] = a3\n 14374: a3 = a2 <u a4\n 14377: a3 = a3 + a5\n 14380: u64 [s1 + 0x178] = a4\n 14384: a4 = s1 + 0x5138\n 14388: u64 [a4 + 0x408] = a0\n 14392: a0 = a4 + 0x400\n 14396: u64 [a0 + 0x10] = a1\n 14399: u64 [a0 + 0x18] = a2\n 14402: u64 [a0 + 0x20] = a3\n 14405: a1 = s1 + 0x5540\n 14409: a0 = u64 [s1 + 0x1b8]\n 14413: u64 [s1 + 0x1b8] = a5\n 14417: ra = 506, jump @23\n      : @570 [@dyn 253] (gas: 28)\n 14423: a0 = sp + 0xffffffffffffffe0\n 14426: a0 = a0 & 0xffffffffffffffe0\n 14429: u64 [s1 + 0x98] = a0\n 14433: sp = a0\n 14435: a1 = s1 + 0x3938\n 14439: a5 = s1 + 0x100\n 14443: a0 = u64 [a5 + 0xb8]\n 14447: a2 = a1 + 0x400\n 14451: u64 [a2 + 0x60] = a0\n 14454: a0 = u64 [a5 + 0x78]\n 14457: u64 [a2 + 0x58] = a0\n 14460: a0 = u64 [a5 + 0x80]\n 14464: u64 [a2 + 0x50] = a0\n 14467: a0 = u64 [a5 + 0x88]\n 14471: u64 [a2 + 0x48] = a0\n 14474: a0 = u64 [a5 + 0x90]\n 14478: u64 [a2 + 0x80] = a0\n 14482: a0 = u64 [a5 + 0x98]\n 14486: u64 [a2 + 0x78] = a0\n 14489: a0 = u64 [a5 + 0xa0]\n 14493: u64 [a2 + 0x70] = a0\n 14496: a4 = a1\n 14498: a0 = s1 + 0x3dc0\n 14502: a1 = s1 + 0x3da0\n 14506: a2 = s1 + 0x3d80\n 14510: a3 = u64 [a5 + 0xa8]\n 14514: u64 [a4 + 0x468] = a3\n 14518: ra = 508, jump @1847\n      : @571 [@dyn 254] (gas: 2)\n 14525: a1 = s1 + 0x3938\n 14529: fallthrough\n      : @572 (gas: 22)\n 14530: t0 = u64 [a1 + 0x4b8]\n 14534: t1 = u64 [a1 + 0x4a8]\n 14538: t2 = u64 [a1 + 0x4c0]\n 14542: a3 = a1 + 0x400\n 14546: a2 = u64 [a3 + 0xb0]\n 14550: a4 = u64 [a3 + 0x98]\n 14554: a5 = u64 [a3 + 0xa0]\n 14558: a0 = u64 [a3 + 0x88]\n 14562: a1 = u64 [a3 + 0x90]\n 14566: u64 [s1 + 0x88] = a4\n 14570: a3 = u64 [s1 + 0x98]\n 14574: u64 [a3 + 0x10] = a4\n 14577: u64 [s1 + 0x80] = a5\n 14581: u64 [a3 + 0x18] = a5\n 14584: u64 [s1 + 0x70] = a0\n 14587: u64 [a3] = a0\n 14589: a2 = a2 | t2\n 14592: a0 = t1 | t0\n 14595: a0 = a0 | a2\n 14598: u64 [s1 + 0x78] = a1\n 14601: u64 [a3 + 0x8] = a1\n 14604: jump @574 if a0 == 0\n      : @573 (gas: 1)\n 14607: jump @1680\n      : @574 (gas: 3)\n 14610: a0 = s1 + 0x3d20\n 14614: a1 = u64 [s1 + 0x1b0]\n 14618: ra = 510, jump @17\n      : @575 [@dyn 255] (gas: 7)\n 14624: a1 = s1 + 0x3938\n 14628: a2 = u64 [a1 + 0x400]\n 14632: a4 = a1 + 0x300\n 14636: a3 = u64 [a4 + 0xf8]\n 14640: a0 = u64 [a4 + 0xf0]\n 14644: a1 = u64 [a4 + 0xe8]\n 14648: t0 = 512, jump @2009\n      : @576 [@dyn 256] (gas: 1)\n 14655: jump @578 if a0 == 0\n      : @577 (gas: 1)\n 14658: jump @1603\n      : @578 (gas: 3)\n 14661: a0 = s1 + 0x3d00\n 14665: u64 [s1 + 0x138] = a1\n 14669: ra = 514, jump @17\n      : @579 [@dyn 257] (gas: 19)\n 14675: a2 = s1 + 0x3938\n 14679: a0 = a2 + 0x300\n 14683: a4 = u64 [a0 + 0xe0]\n 14687: a1 = u64 [a0 + 0xd8]\n 14691: a3 = u64 [a0 + 0xd0]\n 14695: a0 = a4 >u 0\n 14697: a5 = a1 >u 0\n 14699: a5 = a0 if a4 != 0\n 14702: u64 [s1 + 0x170] = a3\n 14706: a0 = a3 >u 0\n 14708: u64 [s1 + 0x60] = a1\n 14711: a3 = s1 + 0x100\n 14715: u64 [a3 + 0x68] = a4\n 14718: a1 = a1 | a4\n 14721: u64 [s1 + 0x40] = a0\n 14724: u64 [a3 + 0x30] = a5\n 14727: u64 [a3 + 0x60] = a1\n 14730: a0 = a5 if a1 != 0\n 14733: jump @581 if a0 == 0\n      : @580 (gas: 1)\n 14736: jump @1683\n      : @581 (gas: 5)\n 14739: a0 = u64 [a2 + 0x3c8]\n 14743: u64 [s1 + 0x90] = a0\n 14747: a0 = s1 + 0x3ce0\n 14751: a1 = u64 [s1 + 0x98]\n 14755: ra = 516, jump @21\n      : @582 [@dyn 258] (gas: 13)\n 14761: a4 = s1 + 0x3938\n 14765: a5 = a4 + 0x300\n 14769: a2 = u64 [a5 + 0xa8]\n 14773: a0 = u64 [a5 + 0xb0]\n 14777: a1 = u64 [a5 + 0xb8]\n 14781: a3 = u64 [a5 + 0xc0]\n 14785: u64 [a5 + 0x80] = a3\n 14789: u64 [a5 + 0x78] = a1\n 14792: u64 [a5 + 0x70] = a0\n 14795: a0 = s1 + 0x3cc0\n 14799: a1 = s1 + 0x3ca0\n 14803: u64 [a5 + 0x68] = a2\n 14806: ra = 518, jump @1868\n      : @583 [@dyn 259] (gas: 19)\n 14813: a0 = s1 + 0x3938\n 14817: a1 = a0 + 0x300\n 14821: a3 = u64 [a1 + 0xa0]\n 14825: a4 = u64 [a1 + 0x98]\n 14829: a5 = u64 [a1 + 0x90]\n 14833: t0 = u64 [a0 + 0x388]\n 14837: a0 = a3 >u 0\n 14839: a1 = a4 >u 0\n 14841: a1 = a0 if a3 != 0\n 14844: a0 = a5 >u 0\n 14846: a2 = t0 <u 0x20\n 14849: a2 = a2 ^ 0x1\n 14852: a2 = a0 if a5 != 0\n 14855: a0 = a4 | a3\n 14858: a2 = a1 if a0 != 0\n 14861: a0 = u64 [s1 + 0x90]\n 14865: a0 = a0 <u 0x20\n 14868: u64 [s1 + 0x158] = a0\n 14872: jump @585 if a2 != 0\n      : @584 (gas: 1)\n 14875: jump @1233\n      : @585 (gas: 18)\n 14878: u64 [s1 + 0x190] = t0\n 14882: a0 = s1 + 0x100\n 14886: u64 [a0 + 0x98] = a5\n 14890: u64 [a0 + 0xb0] = a4\n 14894: u64 [a0 + 0xa0] = a3\n 14898: a0 = s1 + 0x3938\n 14902: a1 = u64 [s1 + 0x70]\n 14905: a3 = a0 + 0x300\n 14909: u64 [a3 + 0x48] = a1\n 14912: a1 = u64 [s1 + 0x78]\n 14915: u64 [a3 + 0x50] = a1\n 14918: a1 = u64 [s1 + 0x88]\n 14922: u64 [a3 + 0x58] = a1\n 14925: a1 = s1 + 0x3c80\n 14929: a2 = u64 [s1 + 0x80]\n 14933: u64 [a3 + 0x60] = a2\n 14936: a0 = 0\n 14938: ra = 520, jump @19\n      : @586 [@dyn 260] (gas: 3)\n 14944: a0 = u64 [s1 + 0x58]\n 14947: a0 = i32 [a0]\n 14949: jump @588 if a0 >u 31\n      : @587 (gas: 4)\n 14953: a1 = u64 [s1 + 0x58]\n 14956: u32 [a1 + 0] = 0x20\n 14959: t0 = 0x20a\n 14963: jump @2031\n      : @588 (gas: 1)\n 14967: t0 = 522, jump @2031\n      : @589 [@dyn 261] (gas: 4)\n 14974: a0 = u64 [s1 + 0x50]\n 14977: ra = 0x20c\n 14981: ecalli 8 // 'hash_keccak_256'\n 14983: fallthrough\n      : @590 [@dyn 262] (gas: 11)\n 14984: a0 = u64 [s1 + 0x90]\n 14988: a1 = a0 + 0x1f\n 14991: a0 = a1 <u a0\n 14994: a5 = u64 [s1 + 0x170]\n 14998: a2 = a5 + a0\n 15001: a3 = a2 <u a5\n 15004: a3 = a0 if a0 == 0\n 15007: a4 = u64 [s1 + 0x60]\n 15010: a3 = a3 + a4\n 15013: u64 [s1 + 0x188] = a3\n 15017: t0 = 526, jump @1990\n      : @591 [@dyn 263] (gas: 35)\n 15024: a1 = u64 [s1 + 0x158]\n 15028: a1 = 0 if a5 != 0\n 15030: a3 = u64 [s1 + 0x160]\n 15034: a1 = 0 if a3 != 0\n 15036: a4 = 0 if a1 != 0\n 15038: a0 = 0 if a1 != 0\n 15040: t0 = t2 + a0\n 15043: a0 = t0 <u t2\n 15046: a5 = a2 + a0\n 15049: a4 = a4 + a5\n 15052: u64 [s1 + 0x1b8] = a4\n 15056: a5 = a4 ^ a2\n 15059: a3 = a4 <u a2\n 15062: a3 = a0 if a5 == 0\n 15065: u64 [s1 + 0x180] = a3\n 15069: a0 = u64 [s1 + 0x190]\n 15073: ra = a0 + 0x1f\n 15076: a4 = ra <u a0\n 15079: a3 = u64 [s1 + 0x198]\n 15083: a0 = a3 + a4\n 15086: a5 = a0 <u a3\n 15089: a5 = a4 if a4 == 0\n 15092: t1 = u64 [s1 + 0x1b0]\n 15096: t1 = t1 + a5\n 15099: a4 = t1 << 0x3b\n 15102: a3 = a0 >> 0x5\n 15105: a3 = a3 | a4\n 15108: a0 = a0 << 0x3b\n 15111: a4 = ra >> 0x5\n 15114: a0 = a0 | a4\n 15117: a0 = a0 + t2\n 15120: u64 [s1 + 0x198] = a0\n 15124: a0 = a0 <u t2\n 15127: t2 = t0\n 15129: t0 = 528, jump @2028\n      : @592 [@dyn 264] (gas: 17)\n 15136: a4 = u64 [s1 + 0x188]\n 15140: a0 = u64 [s1 + 0x60]\n 15143: a0 = a4 <u a0\n 15146: a3 = u64 [s1 + 0x168]\n 15150: a0 = a0 + a3\n 15153: a3 = a4 >> 0x5\n 15156: a4 = a0 << 0x3b\n 15159: a3 = a3 | a4\n 15162: a4 = u64 [s1 + 0x1a8]\n 15166: t0 = u64 [a4]\n 15168: a4 = u64 [a4 + 0x8]\n 15171: a0 = a0 >> 0x5\n 15174: a3 = 0 if a1 != 0\n 15176: a0 = 0 if a1 != 0\n 15178: a1 = reverse a4\n 15180: a4 = reverse t0\n 15182: t0 = 530, jump @2036\n      : @593 [@dyn 265] (gas: 25)\n 15189: t0 = a0 + a3\n 15192: a0 = u64 [s1 + 0x1b0]\n 15196: a0 = t1 <u a0\n 15199: a3 = u64 [s1 + 0x1a0]\n 15203: a0 = a0 + a3\n 15206: a3 = t1 >> 0x5\n 15209: a5 = a0 << 0x3b\n 15212: a3 = a3 | a5\n 15215: a0 = a0 >> 0x5\n 15218: a0 = a0 + a4\n 15221: a5 = s1 + 0x100\n 15225: a4 = u64 [a5 + 0xb8]\n 15229: a3 = a3 + a1\n 15232: a1 = a3 <u a1\n 15235: a0 = a0 + a1\n 15238: a2 = a2 + a3\n 15241: u64 [a5 + 0x88] = a2\n 15245: a1 = a2 <u a3\n 15248: a0 = a0 + a1\n 15251: u64 [a5 + 0x80] = a0\n 15255: a0 = sp + 0xffffffffffffffe0\n 15258: t1 = a0 & 0xffffffffffffffe0\n 15261: sp = t1\n 15263: u64 [s1 + 0x178] = t1\n 15267: fallthrough\n      : @594 (gas: 20)\n 15268: a0 = u64 [s1 + 0x198]\n 15272: a0 = t2 <u a0\n 15275: a2 = u64 [s1 + 0x190]\n 15279: a1 = a4 ^ a2\n 15282: a2 = a4 <u a2\n 15285: a2 = a0 if a1 == 0\n 15288: a5 = u64 [s1 + 0x188]\n 15292: a0 = ra <u a5\n 15295: a3 = u64 [s1 + 0x180]\n 15299: a1 = t0 ^ a3\n 15302: a3 = t0 <u a3\n 15305: a3 = a0 if a1 == 0\n 15308: a0 = ra ^ a5\n 15311: a0 = a0 | a1\n 15314: a3 = a2 if a0 == 0\n 15317: u64 [t1] = t2\n 15319: u64 [t1 + 0x8] = a4\n 15322: u64 [t1 + 0x10] = ra\n 15325: u64 [t1 + 0x18] = t0\n 15328: jump @596 if a3 != 0\n      : @595 (gas: 1)\n 15331: jump @1233\n      : @596 (gas: 12)\n 15334: a0 = s1 + 0x5138\n 15338: u64 [a0 + 1088] = 0\n 15342: u64 [a0 + 1080] = 0\n 15346: u64 [a0 + 1072] = 0\n 15350: u64 [a0 + 1064] = 0\n 15354: a1 = s1 + 0x5560\n 15358: a0 = t1\n 15360: u64 [s1 + 0x1b0] = t2\n 15364: u64 [s1 + 0x1b8] = a4\n 15368: u64 [s1 + 0x1a8] = t0\n 15372: u64 [s1 + 0x1a0] = ra\n 15376: ra = 532, jump @23\n      : @597 [@dyn 266] (gas: 15)\n 15382: t1 = u64 [s1 + 0x178]\n 15386: t0 = u64 [s1 + 0x1a8]\n 15390: a4 = u64 [s1 + 0x1b8]\n 15394: t2 = u64 [s1 + 0x1b0]\n 15398: t2 = t2 + 0x1\n 15401: a0 = t2 <u 0x1\n 15404: a4 = a4 + a0\n 15407: a0 = t2 | a4\n 15410: a0 = a0 <u 0x1\n 15413: a1 = u64 [s1 + 0x1a0]\n 15417: a0 = a0 + a1\n 15420: a1 = a0 <u a1\n 15423: t0 = t0 + a1\n 15426: ra = a0\n 15428: jump @594\n      : @598 (gas: 8)\n 15431: u64 [a2 + 1728] = 0\n 15435: u64 [a2 + 1720] = 0\n 15439: u64 [a2 + 1712] = 0\n 15443: u64 [a2 + 1704] = 0\n 15447: a0 = s1 + 0x5000\n 15451: i32 a0 = a0 + 0x7e0\n 15455: ecalli 16 // 'value_transferred'\n 15457: fallthrough\n      : @599 (gas: 10)\n 15458: a3 = s1 + 0x5138\n 15462: a4 = a3 + 0x600\n 15466: a0 = u64 [a4 + 0xb8]\n 15470: a1 = u64 [a4 + 0xc0]\n 15474: a2 = u64 [a4 + 0xb0]\n 15478: a3 = u64 [a4 + 0xa8]\n 15482: a1 = a1 | a2\n 15485: a0 = a0 | a3\n 15488: a0 = a0 | a1\n 15491: jump @601 if a0 == 0\n      : @600 (gas: 1)\n 15494: jump @1661\n      : @601 (gas: 3)\n 15497: a0 = u64 [s1 + 0x1b8]\n 15501: a0 = i32 [a0]\n 15503: jump @603 if a0 >u 3\n      : @602 (gas: 1)\n 15507: jump @1662\n      : @603 (gas: 8)\n 15510: a1 = s1 + 0x5138\n 15514: u64 [a1 + 1760] = 0\n 15518: u64 [a1 + 1752] = 0\n 15522: u64 [a1 + 1744] = 0\n 15526: u64 [a1 + 1736] = 0x2\n 15531: a0 = s1 + 0x42e0\n 15535: a1 = s1 + 0x5800\n 15539: ra = 534, jump @21\n      : @604 [@dyn 267] (gas: 12)\n 15545: a1 = s1 + 0x4138\n 15549: a2 = a1 + 0x100\n 15553: a0 = u64 [a2 + 0xb8]\n 15557: a1 = s1 + 0x100\n 15561: u64 [a1 + 0xa8] = a0\n 15565: a0 = u64 [a2 + 0xb0]\n 15569: u64 [a1 + 0xb8] = a0\n 15573: a0 = u64 [a2 + 0xa8]\n 15577: u64 [a1 + 0xb0] = a0\n 15581: a0 = s1 + 0x42c0\n 15585: a1 = 0x40\n 15588: ra = 536, jump @17\n      : @605 [@dyn 268] (gas: 7)\n 15594: a3 = s1 + 0x4138\n 15598: a5 = a3 + 0x100\n 15602: a4 = u64 [a5 + 0xa0]\n 15606: a1 = u64 [a5 + 0x98]\n 15610: a2 = u64 [a5 + 0x90]\n 15614: a0 = u64 [a5 + 0x88]\n 15618: t0 = 538, jump @2017\n      : @606 [@dyn 269] (gas: 1)\n 15625: jump @608 if a1 == 0\n      : @607 (gas: 1)\n 15628: jump @1603\n      : @608 (gas: 15)\n 15631: a4 = s1 + 0x100\n 15635: a1 = u64 [a4 + 0xa8]\n 15639: a1 = a1 << 0x20\n 15642: a2 = a1 >> 0x20\n 15645: u64 [a3 + 384] = 0\n 15649: a1 = u64 [a4 + 0xb0]\n 15653: a5 = a3 + 0x100\n 15657: u64 [a5 + 0x68] = a1\n 15660: a1 = u64 [a4 + 0xb8]\n 15664: u64 [a5 + 0x70] = a1\n 15667: a1 = s1 + 0x42a0\n 15671: u64 [a5 + 0x78] = a2\n 15674: u64 [s1 + 0x1b8] = a0\n 15678: ra = 0x348\n 15682: jump @19\n      : @609 (gas: 12)\n 15685: a3 = s1 + 0x3138\n 15689: a0 = u64 [s1 + 0x138]\n 15693: a4 = a3 + 0x100\n 15697: u64 [a4 + 0x8] = a0\n 15700: a0 = u64 [s1 + 0x130]\n 15704: u64 [a4 + 0x10] = a0\n 15707: a0 = u64 [s1 + 0x128]\n 15711: u64 [a4 + 0x18] = a0\n 15714: a0 = s1 + 0x3260\n 15718: a1 = s1 + 0x3240\n 15722: u64 [a4 + 0x20] = a2\n 15725: ra = 540, jump @1836\n      : @610 [@dyn 270] (gas: 2)\n 15732: a0 = 0x3000\n 15736: t0 = 542, jump @2015\n      : @611 [@dyn 271] (gas: 14)\n 15743: a0 = u64 [a2 + 0x40]\n 15746: a1 = s1 + 0x100\n 15750: u64 [a1 + 0x58] = a0\n 15753: a0 = u64 [a2 + 0x38]\n 15756: u64 [a1 + 0x60] = a0\n 15759: a0 = u64 [a2 + 0x30]\n 15762: u64 [a1 + 0x68] = a0\n 15765: a0 = u64 [a2 + 0x28]\n 15768: u64 [a1 + 0x70] = a0\n 15771: a5 = 0\n 15773: a4 = 0\n 15775: t2 = 0\n 15777: t1 = 0\n 15779: fallthrough\n      : @612 (gas: 16)\n 15780: a0 = u64 [s1 + 0x138]\n 15784: a0 = a5 <u a0\n 15787: a2 = u64 [s1 + 0x130]\n 15791: a1 = a4 ^ a2\n 15794: a2 = a4 <u a2\n 15797: a2 = a0 if a1 == 0\n 15800: a0 = u64 [s1 + 0x128]\n 15804: t0 = t2 <u a0\n 15807: a3 = u64 [s1 + 0x180]\n 15811: a1 = t1 ^ a3\n 15814: a3 = t1 <u a3\n 15817: a3 = t0 if a1 == 0\n 15820: a0 = t2 ^ a0\n 15823: a0 = a0 | a1\n 15826: a3 = a2 if a0 == 0\n 15829: jump @675 if a3 == 0\n      : @613 (gas: 3)\n 15833: t0 = 0x220\n 15837: a1 = s1 + 0x3138\n 15841: fallthrough\n      : @614 [@dyn 272] (gas: 22)\n 15842: u64 [s1 + 0x1b8] = a5\n 15846: u64 [a1 + 0x8] = a5\n 15849: a5 = s1 + 0x100\n 15853: a0 = u64 [a5 + 0x8]\n 15856: u64 [a1 + 0x28] = a0\n 15859: u64 [a5 + 0xb0] = a4\n 15863: u64 [a1 + 0x10] = a4\n 15866: a0 = u64 [a5 + 0x10]\n 15869: u64 [a1 + 0x30] = a0\n 15872: u64 [s1 + 0x1a0] = t2\n 15876: u64 [a1 + 0x18] = t2\n 15879: a0 = u64 [a5 + 0x18]\n 15882: u64 [a1 + 0x38] = a0\n 15885: u64 [s1 + 0x1a8] = t1\n 15889: u64 [a1 + 0x20] = t1\n 15892: a4 = a1\n 15894: a0 = s1 + 0x3180\n 15898: a1 = s1 + 0x3160\n 15902: a2 = s1 + 0x3140\n 15906: a3 = u64 [a5 + 0x20]\n 15909: u64 [a4 + 0x40] = a3\n 15912: ra = 546, jump @1858\n      : @615 [@dyn 273] (gas: 6)\n 15919: a1 = s1 + 0x3138\n 15923: a0 = u64 [a1 + 0x60]\n 15926: a2 = u64 [a1 + 0x58]\n 15929: a3 = u64 [a1 + 0x50]\n 15932: a1 = u64 [a1 + 0x48]\n 15935: t0 = 548, jump @1991\n      : @616 [@dyn 274] (gas: 1)\n 15942: jump @618 if a0 == 0\n      : @617 (gas: 1)\n 15945: jump @1603\n      : @618 (gas: 2)\n 15948: a0 = s1 + 0x3120\n 15952: ra = 550, jump @17\n      : @619 [@dyn 275] (gas: 3)\n 15958: t0 = 0x228\n 15962: a1 = s1 + 0x3138\n 15966: fallthrough\n      : @620 [@dyn 276] (gas: 33)\n 15967: a0 = u64 [a1]\n 15969: a5 = s1 + 0x100\n 15973: u64 [a5 + 0x98] = a0\n 15977: a2 = a1 + 0xffffffffffffff00\n 15981: a0 = u64 [a2 + 0xf8]\n 15985: u64 [a5 + 0x90] = a0\n 15989: a0 = u64 [a2 + 0xf0]\n 15993: u64 [a5 + 0x88] = a0\n 15997: a0 = u64 [a2 + 0xe8]\n 16001: u64 [a5 + 0x78] = a0\n 16004: a1 = s1 + 0x2938\n 16008: a0 = u64 [a5 + 0xa8]\n 16012: a2 = a1 + 0x700\n 16016: u64 [a2 + 0xa0] = a0\n 16020: a0 = u64 [a5 + 0xa0]\n 16024: u64 [a2 + 0x98] = a0\n 16028: a0 = u64 [a5 + 0xb0]\n 16032: u64 [a2 + 0x90] = a0\n 16036: a0 = u64 [a5 + 0xb8]\n 16040: u64 [a2 + 0x88] = a0\n 16044: a0 = u64 [a5 + 0x58]\n 16047: u64 [a2 + 0xc0] = a0\n 16051: a0 = u64 [a5 + 0x60]\n 16054: u64 [a2 + 0xb8] = a0\n 16058: a0 = u64 [a5 + 0x68]\n 16061: u64 [a2 + 0xb0] = a0\n 16065: a4 = a1\n 16067: a0 = s1 + 0x3100\n 16071: a1 = s1 + 0x30e0\n 16075: a2 = s1 + 0x30c0\n 16079: a3 = u64 [a5 + 0x70]\n 16082: u64 [a4 + 0x7a8] = a3\n 16086: ra = 554, jump @1858\n      : @621 [@dyn 277] (gas: 7)\n 16093: a4 = s1 + 0x2938\n 16097: a5 = a4 + 0x700\n 16101: a1 = u64 [a5 + 0xe0]\n 16105: a2 = u64 [a5 + 0xd8]\n 16109: a3 = u64 [a5 + 0xd0]\n 16113: a0 = u64 [a5 + 0xc8]\n 16117: t0 = 556, jump @1955\n      : @622 [@dyn 278] (gas: 1)\n 16124: jump @624 if a1 == 0\n      : @623 (gas: 1)\n 16127: jump @1603\n      : @624 (gas: 11)\n 16130: a1 = u64 [s1 + 0x178]\n 16134: a3 = a4 + 0x700\n 16138: u64 [a3 + 0x68] = a1\n 16141: a1 = u64 [s1 + 0x188]\n 16145: u64 [a3 + 0x70] = a1\n 16148: a1 = u64 [s1 + 0x190]\n 16152: u64 [a3 + 0x78] = a1\n 16155: a1 = s1 + 0x30a0\n 16159: a2 = u64 [s1 + 0x198]\n 16163: u64 [a3 + 0x80] = a2\n 16167: ra = 558, jump @19\n      : @625 [@dyn 279] (gas: 15)\n 16173: a2 = s1 + 0x100\n 16177: a5 = u64 [a2 + 0xb8]\n 16181: a5 = a5 + 0x1\n 16184: a0 = a5 <u 0x1\n 16187: a4 = u64 [a2 + 0xb0]\n 16191: a4 = a4 + a0\n 16194: a0 = a5 | a4\n 16197: a0 = a0 <u 0x1\n 16200: a1 = u64 [a2 + 0xa0]\n 16204: a0 = a0 + a1\n 16207: a1 = a0 <u a1\n 16210: t1 = u64 [s1 + 0x1a8]\n 16214: t1 = t1 + a1\n 16217: t2 = a0\n 16219: jump @612\n      : @626 (gas: 11)\n 16222: a0 = u64 [s1 + 0x188]\n 16226: a3 = a4 + 0x400\n 16230: u64 [a3 + 0xc8] = a0\n 16234: a0 = u64 [s1 + 0x180]\n 16238: u64 [a3 + 0xd0] = a0\n 16242: a0 = u64 [s1 + 0x178]\n 16246: u64 [a3 + 0xd8] = a0\n 16250: a0 = s1 + 0x2e20\n 16254: a1 = s1 + 0x2e00\n 16258: u64 [a3 + 0xe0] = a2\n 16262: ra = 560, jump @1836\n      : @627 [@dyn 280] (gas: 16)\n 16269: a1 = s1 + 0x2938\n 16273: a0 = u64 [a1 + 0x500]\n 16277: a2 = s1 + 0x100\n 16281: u64 [a2 + 0x40] = a0\n 16284: a3 = a1 + 0x400\n 16288: a0 = u64 [a3 + 0xf8]\n 16292: u64 [a2 + 0x48] = a0\n 16295: a0 = u64 [a3 + 0xf0]\n 16299: u64 [a2 + 0x50] = a0\n 16302: a0 = u64 [a3 + 0xe8]\n 16306: u64 [a2 + 0x58] = a0\n 16309: a5 = 0\n 16311: a4 = 0\n 16313: t2 = 0\n 16315: t1 = 0\n 16317: fallthrough\n      : @628 (gas: 16)\n 16318: a0 = u64 [s1 + 0x188]\n 16322: a0 = a5 <u a0\n 16325: a2 = u64 [s1 + 0x180]\n 16329: a1 = a4 ^ a2\n 16332: a2 = a4 <u a2\n 16335: a2 = a0 if a1 == 0\n 16338: a0 = u64 [s1 + 0x178]\n 16342: t0 = t2 <u a0\n 16345: a3 = u64 [s1 + 0x1b8]\n 16349: a1 = t1 ^ a3\n 16352: a3 = t1 <u a3\n 16355: a3 = t0 if a1 == 0\n 16358: a0 = t2 ^ a0\n 16361: a0 = a0 | a1\n 16364: a3 = a2 if a0 == 0\n 16367: jump @630 if a3 != 0\n      : @629 (gas: 1)\n 16370: jump @947\n      : @630 (gas: 24)\n 16373: a1 = s1 + 0x2938\n 16377: u64 [s1 + 0x1b0] = a5\n 16381: a2 = a1 + 0x300\n 16385: u64 [a2 + 0xc8] = a5\n 16389: a5 = s1 + 0x100\n 16393: a0 = u64 [a5 + 0x18]\n 16396: u64 [a2 + 0xe8] = a0\n 16400: u64 [a5 + 0xa8] = a4\n 16404: u64 [a2 + 0xd0] = a4\n 16408: a0 = u64 [a5 + 0x20]\n 16411: u64 [a2 + 0xf0] = a0\n 16415: u64 [s1 + 0x198] = t2\n 16419: u64 [a1 + 0x3d8] = t2\n 16423: a0 = u64 [a5 + 0x28]\n 16426: u64 [a2 + 0xf8] = a0\n 16430: u64 [s1 + 0x1a0] = t1\n 16434: u64 [a1 + 0x3e0] = t1\n 16438: a4 = a1\n 16440: a0 = s1 + 0x2d40\n 16444: a1 = s1 + 0x2d20\n 16448: a2 = s1 + 0x2d00\n 16452: a3 = u64 [a5 + 0x30]\n 16455: u64 [a4 + 0x400] = a3\n 16459: ra = 562, jump @1858\n      : @631 [@dyn 281] (gas: 7)\n 16466: a1 = s1 + 0x2938\n 16470: a4 = a1 + 0x400\n 16474: a0 = u64 [a4 + 0x20]\n 16477: a2 = u64 [a4 + 0x18]\n 16480: a3 = u64 [a4 + 0x10]\n 16483: a1 = u64 [a4 + 0x8]\n 16486: t0 = 564, jump @1991\n      : @632 [@dyn 282] (gas: 1)\n 16493: jump @634 if a0 == 0\n      : @633 (gas: 1)\n 16496: jump @1603\n      : @634 (gas: 2)\n 16499: a0 = s1 + 0x2ce0\n 16503: ra = 566, jump @17\n      : @635 [@dyn 283] (gas: 41)\n 16509: a0 = s1 + 0x2938\n 16513: a0 = u64 [a0 + 0x3c0]\n 16517: a5 = s1 + 0x100\n 16521: u64 [a5 + 0x90] = a0\n 16525: a0 = s1 + 0x2938\n 16529: a0 = u64 [a0 + 0x3b8]\n 16533: u64 [a5 + 0x70] = a0\n 16536: a0 = s1 + 0x2938\n 16540: a0 = u64 [a0 + 0x3b0]\n 16544: u64 [a5 + 0x68] = a0\n 16547: a0 = s1 + 0x2938\n 16551: a0 = u64 [a0 + 0x3a8]\n 16555: u64 [a5 + 0x60] = a0\n 16558: a0 = s1 + 0x2938\n 16562: a1 = u64 [a5 + 0xa0]\n 16566: u64 [a0 + 0x360] = a1\n 16570: a0 = s1 + 0x2938\n 16574: a1 = u64 [a5 + 0x98]\n 16578: u64 [a0 + 0x358] = a1\n 16582: a0 = s1 + 0x2938\n 16586: a1 = u64 [a5 + 0xa8]\n 16590: u64 [a0 + 0x350] = a1\n 16594: a0 = s1 + 0x2938\n 16598: a1 = u64 [a5 + 0xb0]\n 16602: u64 [a0 + 0x348] = a1\n 16606: a0 = s1 + 0x2938\n 16610: a1 = u64 [a5 + 0x40]\n 16613: u64 [a0 + 0x380] = a1\n 16617: a0 = s1 + 0x2938\n 16621: a1 = u64 [a5 + 0x48]\n 16624: u64 [a0 + 0x378] = a1\n 16628: a0 = s1 + 0x2938\n 16632: a1 = u64 [a5 + 0x50]\n 16635: u64 [a0 + 0x370] = a1\n 16639: a0 = s1 + 0x2cc0\n 16643: a1 = s1 + 0x2ca0\n 16647: a2 = s1 + 0x2c80\n 16651: a3 = s1 + 0x2938\n 16655: a4 = u64 [a5 + 0x58]\n 16658: u64 [a3 + 0x368] = a4\n 16662: ra = 568, jump @1858\n      : @636 [@dyn 284] (gas: 7)\n 16669: a4 = s1 + 0x2938\n 16673: a5 = a4 + 0x300\n 16677: a1 = u64 [a5 + 0xa0]\n 16681: a2 = u64 [a5 + 0x98]\n 16685: a3 = u64 [a5 + 0x90]\n 16689: a0 = u64 [a5 + 0x88]\n 16693: t0 = 570, jump @1955\n      : @637 [@dyn 285] (gas: 1)\n 16700: jump @639 if a1 == 0\n      : @638 (gas: 1)\n 16703: jump @1603\n      : @639 (gas: 11)\n 16706: a1 = u64 [s1 + 0x160]\n 16710: a3 = a4 + 0x300\n 16714: u64 [a3 + 0x28] = a1\n 16717: a1 = u64 [s1 + 0x168]\n 16721: u64 [a3 + 0x30] = a1\n 16724: a1 = u64 [s1 + 0x170]\n 16728: u64 [a3 + 0x38] = a1\n 16731: a1 = s1 + 0x2c60\n 16735: a2 = u64 [s1 + 0x190]\n 16739: u64 [a3 + 0x40] = a2\n 16742: ra = 572, jump @19\n      : @640 [@dyn 286] (gas: 15)\n 16748: a2 = s1 + 0x100\n 16752: a5 = u64 [a2 + 0xb0]\n 16756: a5 = a5 + 0x1\n 16759: a0 = a5 <u 0x1\n 16762: a4 = u64 [a2 + 0xa8]\n 16766: a4 = a4 + a0\n 16769: a0 = a5 | a4\n 16772: a0 = a0 <u 0x1\n 16775: a1 = u64 [a2 + 0x98]\n 16779: a0 = a0 + a1\n 16782: a1 = a0 <u a1\n 16785: t1 = u64 [s1 + 0x1a0]\n 16789: t1 = t1 + a1\n 16792: t2 = a0\n 16794: jump @628\n      : @641 (gas: 3)\n 16797: a0 = s1 + 0x4080\n 16801: a1 = 0x40\n 16804: ra = 574, jump @17\n      : @642 [@dyn 287] (gas: 14)\n 16810: a2 = s1 + 0x3938\n 16814: t0 = u64 [a2 + 0x760]\n 16818: a1 = a2 + 0x700\n 16822: a5 = u64 [a1 + 0x58]\n 16825: a4 = u64 [a1 + 0x50]\n 16828: a0 = u64 [a1 + 0x48]\n 16831: a3 = a4 | t0\n 16834: a1 = a0 | a5\n 16837: a1 = a1 | a3\n 16840: a1 = a1 >> 0x20\n 16843: a3 = a3 | a5\n 16846: a3 = a3 << 0x20\n 16849: a1 = a1 | a3\n 16852: jump @644 if a1 == 0\n      : @643 (gas: 1)\n 16855: jump @1603\n      : @644 (gas: 11)\n 16858: u64 [a2 + 1848] = 0\n 16862: u64 [a2 + 1840] = 0\n 16866: u64 [a2 + 1832] = 0\n 16870: a3 = 0x8c379a000000000\n 16880: a1 = s1 + 0x4060\n 16884: u64 [a2 + 0x740] = a3\n 16888: u64 [s1 + 0x1b8] = a0\n 16892: u64 [s1 + 0x1b0] = a4\n 16896: u64 [s1 + 0x1a0] = t0\n 16900: u64 [s1 + 0x1a8] = a5\n 16904: ra = 576, jump @19\n      : @645 [@dyn 288] (gas: 6)\n 16910: a5 = s1 + 0x100\n 16914: a1 = u64 [a5 + 0xb8]\n 16918: a0 = u64 [a5 + 0xa8]\n 16922: a3 = u64 [a5 + 0xa0]\n 16926: a3 = a3 | a0\n 16929: t0 = 578, jump @1948\n      : @646 [@dyn 289] (gas: 1)\n 16936: jump @648 if a0 != 0\n      : @647 (gas: 1)\n 16939: jump @1603\n      : @648 (gas: 10)\n 16942: i32 a0 = a1 + 0x4\n 16945: a2 = s1 + 0x3938\n 16949: u64 [a2 + 1824] = 0\n 16953: u64 [a2 + 1816] = 0\n 16957: u64 [a2 + 1800] = 0x20\n 16962: a1 = s1 + 0x4040\n 16966: u64 [a2 + 1808] = 0\n 16970: u64 [s1 + 0x1a8] = a3\n 16974: u64 [s1 + 0x1a0] = a4\n 16978: ra = 580, jump @19\n      : @649 [@dyn 290] (gas: 1)\n 16984: t0 = 582, jump @1952\n      : @650 [@dyn 291] (gas: 1)\n 16991: jump @652 if a0 != 0\n      : @651 (gas: 1)\n 16994: jump @1603\n      : @652 (gas: 8)\n 16997: i32 a0 = a1 + 0x24\n 17000: a2 = s1 + 0x3938\n 17004: u64 [a2 + 1792] = 0\n 17008: u64 [a2 + 1784] = 0\n 17012: u64 [a2 + 1768] = 0x21\n 17017: a1 = s1 + 0x4020\n 17021: u64 [a2 + 1776] = 0\n 17025: ra = 584, jump @19\n      : @653 [@dyn 292] (gas: 10)\n 17031: a0 = s1 + 0x100\n 17035: a3 = u64 [a0 + 0xa8]\n 17039: a4 = u64 [a0 + 0xb0]\n 17043: a1 = u64 [a0 + 0xb8]\n 17047: a2 = 0x100000000\n 17057: a0 = 0xffffffbc\n 17067: a0 = a1 <u a0\n 17070: a0 = 0 if a4 != 0\n 17072: a0 = 0 if a3 != 0\n 17074: jump @655 if a0 != 0\n      : @654 (gas: 1)\n 17077: jump @1603\n      : @655 (gas: 14)\n 17080: i32 a0 = a1 + 0x44\n 17083: a1 = u64 [0x20020]\n 17088: u64 [s1 + 0x1a0] = a2\n 17092: a5 = s1 + 0x3938\n 17096: a4 = a5 + 0x600\n 17100: u64 [a4 + 0xe0] = a1\n 17104: a1 = u64 [0x20028]\n 17109: a2 = u64 [0x20030]\n 17114: a3 = u64 [0x20038]\n 17119: u64 [a4 + 0xd8] = a1\n 17123: u64 [a4 + 0xd0] = a2\n 17127: a1 = s1 + 0x4000\n 17131: u64 [a4 + 0xc8] = a3\n 17135: ra = 586, jump @19\n      : @656 [@dyn 293] (gas: 1)\n 17141: t0 = 588, jump @1951\n      : @657 [@dyn 294] (gas: 1)\n 17148: jump @659 if a0 != 0\n      : @658 (gas: 1)\n 17151: jump @1603\n      : @659 (gas: 10)\n 17154: i32 a0 = a2 + 0x64\n 17157: a3 = s1 + 0x3938\n 17161: u64 [a3 + 1720] = 0\n 17165: u64 [a3 + 1712] = 0\n 17169: a1 = 0x6e00000000000000\n 17179: u64 [a3 + 0x6c0] = a1\n 17183: a1 = s1 + 0x3fe0\n 17187: u64 [a3 + 1704] = 0\n 17191: ra = 0x458\n 17195: jump @19\n      : @660 (gas: 10)\n 17198: a4 = s1 + 0x100\n 17202: a0 = u64 [a4 + 0x68]\n 17205: a0 = a0 ^ 0x1\n 17208: a3 = u64 [s1 + 0xd8]\n 17212: a1 = u64 [a4 + 0x58]\n 17215: a0 = a1 if a3 != 0\n 17218: a1 = u64 [a4 + 0x60]\n 17221: a2 = u64 [a4 + 0x70]\n 17224: a0 = a1 if a2 != 0\n 17227: jump @662 if a0 != 0\n      : @661 (gas: 1)\n 17230: jump @945\n      : @662 (gas: 18)\n 17233: a0 = u64 [s1 + 0x100]\n 17237: a0 = a0 & 0xffffffffffffffe0\n 17240: u64 [s1 + 0x130] = a0\n 17244: a0 = s1 + 0x7ff\n 17248: a0 = a0 + 0x139\n 17252: a1 = u64 [s1 + 0x108]\n 17256: a2 = a0 + 0x500\n 17260: u64 [a2 + 0xe8] = a1\n 17264: a1 = u64 [s1 + 0x110]\n 17268: u64 [a2 + 0xf0] = a1\n 17272: a1 = u64 [s1 + 0x120]\n 17276: u64 [a2 + 0xf8] = a1\n 17280: a1 = s1 + 0x7ff\n 17284: a1 = a1 + 0x721\n 17288: a2 = u64 [s1 + 0x118]\n 17292: u64 [a0 + 0x600] = a2\n 17296: a0 = 0\n 17298: ra = 590, jump @19\n      : @663 [@dyn 295] (gas: 1)\n 17304: t0 = 592, jump @1998\n      : @664 [@dyn 296] (gas: 1)\n 17311: ra = 594, jump @28\n      : @665 [@dyn 297] (gas: 1)\n 17317: t0 = 596, jump @1984\n      : @666 [@dyn 298] (gas: 28)\n 17324: ecalli 8 // 'hash_keccak_256'\n 17326: u64 [s1 + 440] = 0x20\n 17331: a5 = 0\n 17333: u64 [s1 + 432] = 0\n 17337: u64 [s1 + 424] = 0\n 17341: a4 = 0\n 17343: t2 = 0\n 17345: u64 [s1 + 408] = 0\n 17349: u64 [s1 + 416] = 0\n 17353: a3 = u64 [s1 + 0x188]\n 17357: a0 = u64 [a3 + 0x18]\n 17360: a1 = u64 [a3 + 0x10]\n 17363: a2 = u64 [a3 + 0x8]\n 17366: t0 = u64 [a3]\n 17368: t1 = reverse a0\n 17370: a1 = reverse a1\n 17372: a3 = reverse a2\n 17374: a2 = reverse t0\n 17376: t0 = a2\n 17378: a0 = u64 [s1 + 0x190]\n 17382: u64 [a0 + 0x18] = a2\n 17385: u64 [s1 + 0x170] = a3\n 17389: u64 [a0 + 0x10] = a3\n 17392: u64 [s1 + 0x188] = a1\n 17396: u64 [a0 + 0x8] = a1\n 17399: a3 = t1\n 17401: u64 [a0] = t1\n 17403: fallthrough\n      : @667 (gas: 25)\n 17404: t1 = t0\n 17406: ra = a3\n 17408: a0 = u64 [s1 + 0x130]\n 17412: u64 [s1 + 0x180] = a4\n 17416: a0 = a4 <u a0\n 17419: a4 = a0 ^ 0x1\n 17422: u64 [s1 + 0x178] = t2\n 17426: a4 = 0x1 if t2 != 0\n 17429: a0 = u64 [s1 + 0x1a0]\n 17433: a2 = u64 [s1 + 0x198]\n 17437: a0 = a0 | a2\n 17440: a4 = 0x1 if a0 != 0\n 17443: a1 = u64 [s1 + 0x150]\n 17447: a0 = u64 [s1 + 0x1b8]\n 17451: a1 = a1 + a0\n 17454: a3 = u64 [s1 + 0x148]\n 17458: t0 = a5\n 17460: a3 = a3 + a5\n 17463: a2 = u64 [s1 + 0x140]\n 17467: t2 = u64 [s1 + 0x1b0]\n 17471: a2 = a2 + t2\n 17474: a0 = u64 [s1 + 0x138]\n 17478: a5 = u64 [s1 + 0x1a8]\n 17482: a0 = a0 + a5\n 17485: jump @669 if a4 == 0\n      : @668 (gas: 1)\n 17488: jump @998\n      : @669 (gas: 14)\n 17491: a4 = u64 [s1 + 0x1b8]\n 17495: a4 = a1 <u a4\n 17498: a3 = a3 + a4\n 17501: a5 = t0\n 17503: t0 = a3 ^ t0\n 17506: u64 [s1 + 0x158] = a5\n 17510: a5 = a3 <u a5\n 17513: a5 = a4 if t0 == 0\n 17516: a5 = a5 + a2\n 17519: a4 = a5 <u a2\n 17522: a2 = a2 <u t2\n 17525: a0 = a0 + a2\n 17528: a0 = a0 + a4\n 17531: t0 = 598, jump @1979\n      : @670 [@dyn 299] (gas: 3)\n 17538: u64 [s1 + 0x168] = ra\n 17542: u64 [s1 + 0x160] = t1\n 17546: jump @672 if a0 == 0\n      : @671 (gas: 1)\n 17549: jump @1603\n      : @672 (gas: 4)\n 17552: a0 = s1 + 0x7ff\n 17556: a0 = a0 + 0x521\n 17560: u64 [s1 + 0x1b0] = t2\n 17564: ra = 600, jump @17\n      : @673 [@dyn 300] (gas: 15)\n 17570: a3 = s1 + 0x7ff\n 17574: a3 = a3 + 0x139\n 17578: a0 = u64 [a3 + 0x400]\n 17582: a4 = a3 + 0x300\n 17586: a1 = u64 [a4 + 0xf8]\n 17590: a2 = u64 [a4 + 0xf0]\n 17594: a3 = u64 [a4 + 0xe8]\n 17598: a4 = s1 + 0x4938\n 17602: u64 [a4 + 0x20] = a0\n 17605: u64 [a4 + 0x18] = a1\n 17608: u64 [a4 + 0x10] = a2\n 17611: u64 [a4 + 0x8] = a3\n 17614: a1 = s1 + 0x4940\n 17618: a0 = u64 [s1 + 0x190]\n 17622: ra = 602, jump @23\n      : @674 [@dyn 301] (gas: 56)\n 17628: t2 = u64 [s1 + 0x168]\n 17632: t2 = t2 + 0x1\n 17635: a0 = t2 <u 0x1\n 17638: t0 = u64 [s1 + 0x188]\n 17642: t0 = t0 + a0\n 17645: a0 = t2 | t0\n 17648: a0 = a0 <u 0x1\n 17651: a1 = u64 [s1 + 0x170]\n 17655: t1 = a1 + a0\n 17658: a1 = t1 <u a1\n 17661: a0 = u64 [s1 + 0x160]\n 17665: a0 = a0 + a1\n 17668: a1 = u64 [s1 + 0x1b8]\n 17672: a2 = a1 + 0x20\n 17675: u64 [s1 + 0x168] = a2\n 17679: a3 = a2 <u a1\n 17682: a1 = u64 [s1 + 0x158]\n 17686: a2 = a1 + a3\n 17689: u64 [s1 + 0x160] = a2\n 17693: a4 = a2 <u a1\n 17696: a4 = a3 if a3 == 0\n 17699: a1 = u64 [s1 + 0x1b0]\n 17703: ra = a1 + a4\n 17706: a4 = ra <u a1\n 17709: a1 = u64 [s1 + 0x1a8]\n 17713: a1 = a1 + a4\n 17716: u64 [s1 + 0x1a8] = a1\n 17720: a1 = u64 [s1 + 0x180]\n 17724: a4 = a1 + 0x20\n 17727: a5 = a4 <u a1\n 17730: a2 = u64 [s1 + 0x178]\n 17734: a1 = a2 + a5\n 17737: a2 = a1 <u a2\n 17740: a2 = a5 if a5 == 0\n 17743: a3 = u64 [s1 + 0x198]\n 17747: a2 = a2 + a3\n 17750: a5 = a2 <u a3\n 17753: a3 = u64 [s1 + 0x1a0]\n 17757: a3 = a3 + a5\n 17760: u64 [s1 + 0x1a0] = a3\n 17764: u64 [s1 + 0x188] = t0\n 17768: a5 = u64 [s1 + 0x190]\n 17772: u64 [a5 + 0x8] = t0\n 17775: a3 = t2\n 17777: u64 [a5] = t2\n 17779: u64 [a5 + 0x10] = t1\n 17782: t0 = a0\n 17784: u64 [a5 + 0x18] = a0\n 17787: u64 [s1 + 0x170] = t1\n 17791: a0 = u64 [s1 + 0x168]\n 17795: u64 [s1 + 0x1b8] = a0\n 17799: a5 = u64 [s1 + 0x160]\n 17803: u64 [s1 + 0x1b0] = ra\n 17807: t2 = a1\n 17809: u64 [s1 + 0x198] = a2\n 17813: jump @667\n      : @675 (gas: 3)\n 17816: a0 = s1 + 0x3220\n 17820: a1 = 0x40\n 17823: ra = 604, jump @17\n      : @676 [@dyn 302] (gas: 13)\n 17829: a2 = s1 + 0x3138\n 17833: t0 = u64 [a2 + 0x100]\n 17837: a5 = u64 [a2 + 0xf8]\n 17841: a4 = u64 [a2 + 0xf0]\n 17845: a0 = u64 [a2 + 0xe8]\n 17849: a3 = a4 | t0\n 17852: a1 = a0 | a5\n 17855: a1 = a1 | a3\n 17858: a1 = a1 >> 0x20\n 17861: a3 = a3 | a5\n 17864: a3 = a3 << 0x20\n 17867: a1 = a1 | a3\n 17870: jump @678 if a1 == 0\n      : @677 (gas: 1)\n 17873: jump @1603\n      : @678 (gas: 10)\n 17876: u64 [a2 + 224] = 0\n 17880: u64 [a2 + 216] = 0\n 17884: u64 [a2 + 208] = 0\n 17888: a1 = s1 + 0x3200\n 17892: u64 [a2 + 200] = 0x20\n 17897: u64 [s1 + 0x1b8] = a0\n 17901: u64 [s1 + 0x1a0] = a4\n 17905: u64 [s1 + 0x1b0] = t0\n 17909: u64 [s1 + 0x1a8] = a5\n 17913: ra = 606, jump @19\n      : @679 [@dyn 303] (gas: 1)\n 17919: t0 = 608, jump @1975\n      : @680 [@dyn 304] (gas: 19)\n 17926: i32 a1 = a1 + 0x138\n 17930: a1 = a1 + s1\n 17933: u64 [a1 + 0x70] = a2\n 17936: u64 [a1 + 0x68] = a0\n 17939: a0 = u64 [a5 + 0x58]\n 17942: u64 [a1 + 0xa0] = a0\n 17946: a0 = u64 [a5 + 0x60]\n 17949: u64 [a1 + 0x98] = a0\n 17953: a0 = u64 [a5 + 0x68]\n 17956: u64 [a1 + 0x90] = a0\n 17960: a0 = u64 [a5 + 0x70]\n 17963: u64 [a1 + 0x88] = a0\n 17967: u64 [a1 + 0x78] = a3\n 17970: a3 = a1\n 17972: a0 = s1 + 0x31e0\n 17976: a1 = s1 + 0x31c0\n 17980: a2 = s1 + 0x31a0\n 17984: u64 [a3 + 0x80] = a4\n 17988: ra = 610, jump @1736\n      : @681 [@dyn 305] (gas: 6)\n 17994: a0 = s1 + 0x3138\n 17998: a1 = u64 [a0 + 0xb0]\n 18002: t0 = u64 [a0 + 0xc0]\n 18006: t1 = u64 [a0 + 0xa8]\n 18010: a3 = u64 [a0 + 0xb8]\n 18014: jump @954\n      : @682 (gas: 8)\n 18017: a1 = s1 + 0x5138\n 18021: u64 [a1 + 608] = 0\n 18025: u64 [a1 + 600] = 0\n 18029: u64 [a1 + 592] = 0\n 18033: u64 [a1 + 584] = 0x2\n 18038: a0 = s1 + 0x36e0\n 18042: a1 = s1 + 0x5380\n 18046: ra = 612, jump @21\n      : @683 [@dyn 306] (gas: 13)\n 18052: a0 = s1 + 0x3138\n 18056: a1 = u64 [a0 + 0x5b0]\n 18060: u64 [s1 + 0x160] = a1\n 18064: a1 = u64 [a0 + 0x5a8]\n 18068: u64 [s1 + 0x158] = a1\n 18072: a0 = u32 [a0 + 0x5b8]\n 18076: u64 [s1 + 0x150] = a0\n 18080: a0 = u64 [s1 + 0x148]\n 18084: ra = 0x266\n 18088: ecalli 5 // 'caller'\n 18090: a5 = u64 [s1 + 0x168]\n 18094: t0 = 0x268\n 18098: jump @1947\n      : @684 [@dyn 307] (gas: 2)\n 18102: a5 = u64 [s1 + 0x168]\n 18106: t0 = 616, jump @1947\n      : @685 [@dyn 308] (gas: 10)\n 18113: a2 = u64 [a4 + 0x50]\n 18116: a1 = a1 ^ a2\n 18119: a2 = u64 [a4 + 0x58]\n 18122: a0 = a0 ^ a2\n 18125: a0 = a0 | a1\n 18128: a1 = u64 [a4 + 0x60]\n 18131: a1 = a1 ^ a3\n 18134: a0 = a0 | a1\n 18137: a1 = 0x1\n 18140: jump @690 if a0 == 0\n      : @686 (gas: 8)\n 18143: a1 = s1 + 0x5138\n 18147: u64 [a1 + 640] = 0\n 18151: u64 [a1 + 632] = 0\n 18155: u64 [a1 + 624] = 0\n 18159: u64 [a1 + 616] = 0x3\n 18164: a0 = s1 + 0x36c0\n 18168: a1 = s1 + 0x53a0\n 18172: ra = 618, jump @21\n      : @687 [@dyn 309] (gas: 12)\n 18178: a0 = s1 + 0x3138\n 18182: a1 = u64 [a0 + 0x590]\n 18186: u64 [s1 + 0x160] = a1\n 18190: a1 = u64 [a0 + 0x588]\n 18194: u64 [s1 + 0x158] = a1\n 18198: a0 = u32 [a0 + 0x598]\n 18202: u64 [s1 + 0x150] = a0\n 18206: a0 = u64 [s1 + 0x148]\n 18210: ra = 0x26c\n 18214: ecalli 5 // 'caller'\n 18216: t0 = 0x26e\n 18220: jump @1942\n      : @688 [@dyn 310] (gas: 1)\n 18224: t0 = 622, jump @1942\n      : @689 [@dyn 311] (gas: 2)\n 18231: a1 = a0 <u 0x1\n 18234: fallthrough\n      : @690 (gas: 7)\n 18235: a2 = s1 + 0x3138\n 18239: u64 [a2 + 1408] = 0\n 18243: u64 [a2 + 1400] = 0\n 18247: u64 [a2 + 0x568] = a1\n 18251: a0 = s1 + 0x36a0\n 18255: u64 [a2 + 1392] = 0\n 18259: ra = 624, jump @1799\n      : @691 [@dyn 312] (gas: 3)\n 18265: a0 = u64 [s1 + 0x1a0]\n 18269: a1 = 0x3000\n 18273: t0 = 626, jump @2040\n      : @692 [@dyn 313] (gas: 10)\n 18280: u64 [a3 + 0x60] = a0\n 18283: a0 = u64 [s1 + 0x1a8]\n 18287: u64 [a3 + 0x58] = a0\n 18290: a0 = u64 [s1 + 0x1b0]\n 18294: u64 [a3 + 0x50] = a0\n 18297: a1 = s1 + 0x3680\n 18301: a0 = u64 [s1 + 0x1b8]\n 18305: u64 [a3 + 0x48] = a0\n 18308: a0 = 0\n 18310: ra = 628, jump @19\n      : @693 [@dyn 314] (gas: 9)\n 18316: a0 = s1 + 0x3138\n 18320: u64 [a0 + 1344] = 0\n 18324: u64 [a0 + 1336] = 0\n 18328: u64 [a0 + 1328] = 0\n 18332: a2 = a0\n 18334: a0 = 0x20\n 18337: a1 = s1 + 0x3660\n 18341: u64 [a2 + 1320] = 0\n 18345: ra = 630, jump @19\n      : @694 [@dyn 315] (gas: 3)\n 18351: a1 = u64 [s1 + 0x198]\n 18355: a0 = i32 [a1]\n 18357: jump @696 if a0 >u 63\n      : @695 (gas: 2)\n 18361: u32 [a1 + 0] = 0x40\n 18364: fallthrough\n      : @696 (gas: 4)\n 18365: a0 = sp + 0xffffffffffffffe0\n 18368: a0 = a0 & 0xffffffffffffffe0\n 18371: u64 [s1 + 0x168] = a0\n 18375: t0 = 632, jump @2038\n      : @697 [@dyn 316] (gas: 4)\n 18382: ra = 0x27a\n 18386: ecalli 8 // 'hash_keccak_256'\n 18388: t0 = 0x27c\n 18392: jump @1959\n      : @698 [@dyn 317] (gas: 1)\n 18396: t0 = 636, jump @1959\n      : @699 [@dyn 318] (gas: 8)\n 18403: a3 = a1 + 0x200\n 18407: u64 [a3 + 0x88] = a4\n 18411: u64 [a3 + 0x90] = a5\n 18415: u64 [a3 + 0x98] = a2\n 18419: u64 [a3 + 0xa0] = a0\n 18423: a0 = s1 + 0x3640\n 18427: a1 = s1 + 0x53c0\n 18431: ra = 638, jump @21\n      : @700 [@dyn 319] (gas: 28)\n 18437: a4 = s1 + 0x3138\n 18441: a5 = a4 + 0x500\n 18445: a0 = u64 [a5 + 0x10]\n 18448: a1 = u64 [a5 + 0x8]\n 18451: a2 = u64 [a5 + 0x18]\n 18454: a3 = u64 [a5 + 0x20]\n 18457: t0 = a4\n 18459: a5 = u64 [s1 + 0x180]\n 18463: a4 = a5 ^ a0\n 18466: a0 = a5 <u a0\n 18469: a5 = u64 [s1 + 0x188]\n 18473: a1 = a5 <u a1\n 18476: a1 = a0 if a4 != 0\n 18479: a4 = u64 [s1 + 0x170]\n 18483: a0 = a4 ^ a3\n 18486: a3 = a4 <u a3\n 18489: a5 = u64 [s1 + 0x178]\n 18493: a4 = a5 <u a2\n 18496: a4 = a3 if a0 != 0\n 18499: a2 = a2 ^ a5\n 18502: a0 = a0 | a2\n 18505: a1 = a4 if a0 != 0\n 18508: u64 [t0 + 1280] = 0\n 18512: u64 [t0 + 1272] = 0\n 18516: u64 [t0 + 0x4e8] = a1\n 18520: a0 = s1 + 0x3620\n 18524: u64 [t0 + 1264] = 0\n 18528: ra = 640, jump @1908\n      : @701 [@dyn 320] (gas: 13)\n 18535: a0 = u64 [s1 + 0x1a0]\n 18539: a2 = s1 + 0x3138\n 18543: a3 = a2 + 0x400\n 18547: u64 [a3 + 0xe0] = a0\n 18551: a0 = u64 [s1 + 0x1a8]\n 18555: u64 [a3 + 0xd8] = a0\n 18559: a0 = u64 [s1 + 0x1b0]\n 18563: u64 [a3 + 0xd0] = a0\n 18567: a1 = s1 + 0x3600\n 18571: a0 = u64 [s1 + 0x1b8]\n 18575: u64 [a3 + 0xc8] = a0\n 18579: a0 = 0\n 18581: ra = 642, jump @19\n      : @702 [@dyn 321] (gas: 9)\n 18587: a0 = s1 + 0x3138\n 18591: u64 [a0 + 1216] = 0\n 18595: u64 [a0 + 1208] = 0\n 18599: u64 [a0 + 1200] = 0\n 18603: a2 = a0\n 18605: a0 = 0x20\n 18608: a1 = s1 + 0x35e0\n 18612: u64 [a2 + 1192] = 0\n 18616: ra = 644, jump @19\n      : @703 [@dyn 322] (gas: 3)\n 18622: a1 = u64 [s1 + 0x198]\n 18626: a0 = i32 [a1]\n 18628: jump @705 if a0 >u 63\n      : @704 (gas: 2)\n 18632: u32 [a1 + 0] = 0x40\n 18635: fallthrough\n      : @705 (gas: 4)\n 18636: a0 = sp + 0xffffffffffffffe0\n 18639: a0 = a0 & 0xffffffffffffffe0\n 18642: u64 [s1 + 0x1b8] = a0\n 18646: t0 = 646, jump @2038\n      : @706 [@dyn 323] (gas: 5)\n 18653: ra = 0x288\n 18657: ecalli 8 // 'hash_keccak_256'\n 18659: a3 = u64 [s1 + 0x1b8]\n 18663: t0 = 0x28a\n 18667: jump @1949\n      : @707 [@dyn 324] (gas: 2)\n 18671: a3 = u64 [s1 + 0x1b8]\n 18675: t0 = 650, jump @1949\n      : @708 [@dyn 325] (gas: 19)\n 18682: a1 = s1 + 0x3138\n 18686: a0 = u64 [s1 + 0x170]\n 18690: u64 [a1 + 0x440] = a0\n 18694: a0 = u64 [s1 + 0x178]\n 18698: u64 [a1 + 0x438] = a0\n 18702: a0 = u64 [s1 + 0x180]\n 18706: u64 [a1 + 0x430] = a0\n 18710: a0 = u64 [s1 + 0x188]\n 18714: u64 [a1 + 0x428] = a0\n 18718: a0 = a1 + 0x400\n 18722: u64 [a0 + 0x48] = a4\n 18725: u64 [a0 + 0x50] = a5\n 18728: u64 [a0 + 0x58] = a2\n 18731: a4 = a1\n 18733: a0 = s1 + 0x35a0\n 18737: a1 = s1 + 0x3580\n 18741: a2 = s1 + 0x3560\n 18745: u64 [a4 + 0x460] = a3\n 18749: ra = 652, jump @1847\n      : @709 [@dyn 326] (gas: 27)\n 18756: a0 = s1 + 0x3138\n 18760: a5 = a0 + 0x400\n 18764: a1 = u64 [a5 + 0x68]\n 18767: u64 [s1 + 0x1a8] = a1\n 18771: a4 = u64 [a5 + 0x80]\n 18775: u64 [s1 + 0x1b8] = a4\n 18779: a2 = u64 [a5 + 0x70]\n 18782: u64 [s1 + 0x1a0] = a2\n 18786: a3 = u64 [a5 + 0x78]\n 18789: u64 [s1 + 0x1b0] = a3\n 18793: a0 = a1 + 0x1\n 18796: a1 = a0 <u 0x1\n 18799: a1 = a1 + a2\n 18802: a2 = a0 | a1\n 18805: a2 = a2 <u 0x1\n 18808: a2 = a2 + a3\n 18811: a3 = a2 <u a3\n 18814: a3 = a3 + a4\n 18817: a4 = s1 + 0x5138\n 18821: a5 = a4 + 0x200\n 18825: u64 [a5 + 0xa8] = a0\n 18829: u64 [a5 + 0xb0] = a1\n 18833: u64 [a5 + 0xb8] = a2\n 18837: u64 [a5 + 0xc0] = a3\n 18841: a0 = s1 + 0x3540\n 18845: a1 = s1 + 0x53e0\n 18849: ra = 654, jump @21\n      : @710 [@dyn 327] (gas: 13)\n 18855: a1 = s1 + 0x3138\n 18859: a2 = a1 + 0x400\n 18863: a0 = u64 [a2 + 0x20]\n 18866: u64 [s1 + 0x178] = a0\n 18870: a0 = u64 [a2 + 0x18]\n 18873: u64 [s1 + 0x170] = a0\n 18877: a0 = u64 [a2 + 0x10]\n 18880: u64 [s1 + 0x168] = a0\n 18884: a0 = u64 [a2 + 0x8]\n 18887: u64 [s1 + 0x160] = a0\n 18891: a1 = u64 [s1 + 0x1a8]\n 18895: a0 = a1 + 0x3\n 18898: t0 = 656, jump @1973\n      : @711 [@dyn 328] (gas: 8)\n 18905: a5 = a4 + 0x200\n 18909: u64 [a5 + 0xe0] = a1\n 18913: u64 [a5 + 0xd8] = a3\n 18917: u64 [a5 + 0xd0] = a2\n 18921: u64 [a5 + 0xc8] = a0\n 18925: a0 = s1 + 0x3520\n 18929: a1 = s1 + 0x5400\n 18933: ra = 658, jump @21\n      : @712 [@dyn 329] (gas: 6)\n 18939: a0 = s1 + 0x3138\n 18943: a0 = u8 [a0 + 0x3e8]\n 18947: u64 [s1 + 0x138] = a0\n 18951: a1 = u64 [s1 + 0x1a8]\n 18955: a0 = a1 + 0x4\n 18958: t0 = 660, jump @1973\n      : @713 [@dyn 330] (gas: 8)\n 18965: u64 [a4 + 0x300] = a1\n 18969: a1 = a4 + 0x200\n 18973: u64 [a1 + 0xf8] = a3\n 18977: u64 [a1 + 0xf0] = a2\n 18981: u64 [a1 + 0xe8] = a0\n 18985: a0 = s1 + 0x3500\n 18989: a1 = s1 + 0x5420\n 18993: ra = 662, jump @21\n      : @714 [@dyn 331] (gas: 22)\n 18999: a1 = s1 + 0x3138\n 19003: a2 = a1 + 0x300\n 19007: a0 = u64 [a2 + 0xe0]\n 19011: u64 [s1 + 0x130] = a0\n 19015: a0 = u64 [a2 + 0xd8]\n 19019: u64 [s1 + 0x128] = a0\n 19023: a0 = u64 [a2 + 0xd0]\n 19027: u64 [s1 + 0x120] = a0\n 19031: a0 = u64 [a2 + 0xc8]\n 19035: u64 [s1 + 0x118] = a0\n 19039: a0 = u64 [s1 + 0x1b8]\n 19043: u64 [a2 + 0xa0] = a0\n 19047: a0 = u64 [s1 + 0x1b0]\n 19051: u64 [a2 + 0x98] = a0\n 19055: a0 = u64 [s1 + 0x1a0]\n 19059: u64 [a2 + 0x90] = a0\n 19063: a3 = a1\n 19065: a0 = s1 + 0x34e0\n 19069: a1 = s1 + 0x34c0\n 19073: a2 = u64 [s1 + 0x1a8]\n 19077: u64 [a3 + 0x388] = a2\n 19081: ra = 664, jump @1877\n      : @715 [@dyn 332] (gas: 29)\n 19088: a5 = s1 + 0x3138\n 19092: a0 = u64 [a5 + 0x3c0]\n 19096: u64 [s1 + 0x188] = a0\n 19100: a0 = u64 [a5 + 0x3b8]\n 19104: u64 [s1 + 0x190] = a0\n 19108: a0 = u64 [a5 + 0x3b0]\n 19112: u64 [s1 + 0x198] = a0\n 19116: a0 = u64 [s1 + 0x1a8]\n 19120: a2 = a0 + 0x2\n 19123: a0 = a2 <u a0\n 19126: a3 = u64 [s1 + 0x1a0]\n 19130: a1 = a3 + a0\n 19133: a3 = a1 <u a3\n 19136: a3 = a0 if a0 == 0\n 19139: a0 = u64 [a5 + 0x3a8]\n 19143: u64 [s1 + 0x180] = a0\n 19147: a0 = u64 [s1 + 0x1b0]\n 19151: a3 = a3 + a0\n 19154: a0 = a3 <u a0\n 19157: a4 = u64 [s1 + 0x1b8]\n 19161: a0 = a0 + a4\n 19164: a4 = a5 + 0x300\n 19168: u64 [a4 + 0x60] = a0\n 19171: u64 [a4 + 0x58] = a3\n 19174: u64 [a4 + 0x50] = a1\n 19177: a0 = s1 + 0x34a0\n 19181: a1 = s1 + 0x3480\n 19185: u64 [a4 + 0x48] = a2\n 19188: ra = 666, jump @1877\n      : @716 [@dyn 333] (gas: 13)\n 19195: a1 = s1 + 0x3138\n 19199: a2 = a1 + 0x300\n 19203: a0 = u64 [a2 + 0x80]\n 19207: u64 [s1 + 0x140] = a0\n 19211: a0 = u64 [a2 + 0x78]\n 19214: u64 [s1 + 0x148] = a0\n 19218: a0 = u64 [a2 + 0x70]\n 19221: u64 [s1 + 0x150] = a0\n 19225: a0 = u64 [a2 + 0x68]\n 19228: u64 [s1 + 0x158] = a0\n 19232: a0 = s1 + 0x3460\n 19236: a1 = 0x40\n 19239: ra = 668, jump @17\n      : @717 [@dyn 334] (gas: 7)\n 19245: a2 = s1 + 0x3138\n 19249: a3 = a2 + 0x300\n 19253: a4 = u64 [a3 + 0x40]\n 19256: a5 = u64 [a3 + 0x38]\n 19259: a1 = u64 [a3 + 0x30]\n 19262: a0 = u64 [a3 + 0x28]\n 19265: t0 = 670, jump @2022\n      : @718 [@dyn 335] (gas: 1)\n 19272: jump @720 if a1 == 0\n      : @719 (gas: 1)\n 19275: jump @1603\n      : @720 (gas: 9)\n 19278: u64 [a2 + 800] = 0\n 19282: u64 [a2 + 792] = 0\n 19286: u64 [a2 + 784] = 0\n 19290: a1 = s1 + 0x3440\n 19294: u64 [a2 + 776] = 0xa0\n 19300: u64 [s1 + 0x1b8] = a0\n 19304: u64 [s1 + 0x1a0] = a4\n 19308: u64 [s1 + 0x1a8] = a5\n 19312: ra = 672, jump @19\n      : @721 [@dyn 336] (gas: 3)\n 19318: a0 = u64 [s1 + 0x1b8]\n 19322: a0 = a0 + 0xa0\n 19326: t0 = 674, jump @1974\n      : @722 [@dyn 337] (gas: 19)\n 19333: a1 = s1 + 0x3138\n 19337: a5 = a1 + 0x200\n 19341: u64 [a5 + 0xb0] = a2\n 19345: u64 [a5 + 0xa8] = a0\n 19349: a0 = u64 [s1 + 0x188]\n 19353: u64 [a5 + 0xe0] = a0\n 19357: a0 = u64 [s1 + 0x190]\n 19361: u64 [a5 + 0xd8] = a0\n 19365: a0 = u64 [s1 + 0x198]\n 19369: u64 [a5 + 0xd0] = a0\n 19373: a0 = u64 [s1 + 0x180]\n 19377: u64 [a5 + 0xc8] = a0\n 19381: u64 [a5 + 0xb8] = a3\n 19385: a3 = a1\n 19387: a0 = s1 + 0x3420\n 19391: a1 = s1 + 0x3400\n 19395: a2 = s1 + 0x33e0\n 19399: u64 [a3 + 0x2c0] = a4\n 19403: ra = 676, jump @1707\n      : @723 [@dyn 338] (gas: 1)\n 19409: t0 = 678, jump @1983\n      : @724 [@dyn 339] (gas: 1)\n 19416: jump @726 if a0 != 0\n      : @725 (gas: 1)\n 19419: jump @1603\n      : @726 (gas: 23)\n 19422: a3 = s1 + 0x3138\n 19426: u64 [s1 + 0x198] = a2\n 19430: a0 = u64 [a3 + 0x300]\n 19434: u64 [s1 + 0x110] = a0\n 19438: a5 = a3 + 0x200\n 19442: a0 = u64 [a5 + 0xf8]\n 19446: u64 [s1 + 0x180] = a0\n 19450: a0 = u64 [a5 + 0xf0]\n 19454: u64 [s1 + 0x188] = a0\n 19458: a0 = u64 [a5 + 0xe8]\n 19462: u64 [s1 + 0x190] = a0\n 19466: i32 a0 = a1 + 0x20\n 19469: a1 = u64 [s1 + 0x160]\n 19473: u64 [a5 + 0x88] = a1\n 19477: a1 = u64 [s1 + 0x168]\n 19481: u64 [a5 + 0x90] = a1\n 19485: a1 = u64 [s1 + 0x170]\n 19489: u64 [a5 + 0x98] = a1\n 19493: a1 = s1 + 0x33c0\n 19497: a2 = u64 [s1 + 0x178]\n 19501: u64 [a5 + 0xa0] = a2\n 19505: u64 [s1 + 0x178] = a4\n 19509: ra = 680, jump @19\n      : @727 [@dyn 340] (gas: 5)\n 19515: a3 = s1 + 0x100\n 19519: a1 = u64 [a3 + 0xb8]\n 19523: a0 = u64 [a3 + 0x78]\n 19526: a0 = a0 + 0xffffffffffffffc0\n 19529: t0 = 682, jump @1994\n      : @728 [@dyn 341] (gas: 1)\n 19536: jump @730 if a0 != 0\n      : @729 (gas: 1)\n 19539: jump @1603\n      : @730 (gas: 35)\n 19542: a2 = u64 [s1 + 0x190]\n 19546: t1 = a2 <u a1\n 19549: t0 = a2\n 19551: a3 = u64 [s1 + 0x1b0]\n 19555: a4 = u64 [s1 + 0x188]\n 19559: a1 = a4 ^ a3\n 19562: a2 = a4 <u a3\n 19565: a0 = a4\n 19567: a5 = a3\n 19569: a2 = t1 if a1 == 0\n 19572: a3 = u64 [s1 + 0x1a8]\n 19576: a4 = u64 [s1 + 0x180]\n 19580: a1 = a4 - a3\n 19583: t2 = a4 <u a3\n 19586: a4 = u64 [s1 + 0x1a0]\n 19590: a3 = u64 [s1 + 0x110]\n 19594: a4 = a3 - a4\n 19597: a4 = a4 - t2\n 19600: a3 = a1 <u a2\n 19603: a4 = a4 - a3\n 19606: a1 = a1 - a2\n 19609: a2 = a0 - a5\n 19612: a2 = a2 - t1\n 19615: a0 = u64 [s1 + 0x1b8]\n 19619: a3 = t0 - a0\n 19622: a0 = u64 [s1 + 0x1b8]\n 19626: i32 a0 = a0 + 0x40\n 19629: a5 = s1 + 0x3138\n 19633: u64 [a5 + 0x268] = a3\n 19637: a3 = a5 + 0x200\n 19641: u64 [a3 + 0x70] = a2\n 19644: u64 [a3 + 0x78] = a1\n 19647: a1 = s1 + 0x33a0\n 19651: u64 [a3 + 0x80] = a4\n 19655: ra = 684, jump @19\n      : @731 [@dyn 342] (gas: 3)\n 19661: t0 = 0x2ae\n 19665: a1 = s1 + 0x3138\n 19669: fallthrough\n      : @732 [@dyn 343] (gas: 22)\n 19670: a0 = u64 [s1 + 0x110]\n 19674: a2 = a1 + 0x200\n 19678: u64 [a2 + 0x20] = a0\n 19681: a0 = u64 [s1 + 0x180]\n 19685: u64 [a2 + 0x18] = a0\n 19688: a0 = u64 [s1 + 0x188]\n 19692: u64 [a2 + 0x10] = a0\n 19695: a0 = u64 [s1 + 0x190]\n 19699: u64 [a2 + 0x8] = a0\n 19702: a0 = u64 [s1 + 0x140]\n 19706: u64 [a2 + 0x40] = a0\n 19709: a0 = u64 [s1 + 0x148]\n 19713: u64 [a2 + 0x38] = a0\n 19716: a0 = u64 [s1 + 0x150]\n 19720: u64 [a2 + 0x30] = a0\n 19723: a4 = a1\n 19725: a0 = s1 + 0x3380\n 19729: a1 = s1 + 0x3360\n 19733: a2 = s1 + 0x3340\n 19737: a3 = u64 [s1 + 0x158]\n 19741: u64 [a4 + 0x228] = a3\n 19745: ra = 688, jump @1707\n      : @733 [@dyn 344] (gas: 10)\n 19751: a5 = s1 + 0x100\n 19755: a1 = u64 [a5 + 0x98]\n 19759: a2 = u64 [a5 + 0xb8]\n 19763: a4 = 0x100000000\n 19773: a0 = 0xffffffa0\n 19783: a0 = a2 <u a0\n 19786: a3 = u64 [a5 + 0xb0]\n 19790: a0 = 0 if a3 != 0\n 19792: a0 = 0 if a1 != 0\n 19794: jump @735 if a0 != 0\n      : @734 (gas: 1)\n 19797: jump @1603\n      : @735 (gas: 20)\n 19800: a3 = s1 + 0x3138\n 19804: a1 = a3 + 0x200\n 19808: a0 = u64 [a1 + 0x60]\n 19811: u64 [s1 + 0x178] = a0\n 19815: a0 = u64 [a1 + 0x58]\n 19818: u64 [s1 + 0x170] = a0\n 19822: a0 = u64 [a1 + 0x50]\n 19825: u64 [s1 + 0x180] = a0\n 19829: a0 = u64 [a1 + 0x48]\n 19832: u64 [s1 + 0x188] = a0\n 19836: a0 = u64 [s1 + 0x138]\n 19840: a1 = a0 >u 0\n 19842: i32 a0 = a2 + 0x60\n 19845: u64 [a3 + 512] = 0\n 19849: u64 [a3 + 504] = 0\n 19853: u64 [a3 + 0x1e8] = a1\n 19857: a1 = s1 + 0x3320\n 19861: u64 [a3 + 496] = 0\n 19865: u64 [s1 + 0x190] = a4\n 19869: ra = 690, jump @19\n      : @736 [@dyn 345] (gas: 5)\n 19875: a3 = s1 + 0x100\n 19879: a1 = u64 [a3 + 0xb8]\n 19883: a0 = u64 [a3 + 0x90]\n 19887: a0 = a0 + 0xffffffffffffff80\n 19890: t0 = 692, jump @1994\n      : @737 [@dyn 346] (gas: 1)\n 19897: jump @739 if a0 != 0\n      : @738 (gas: 1)\n 19900: jump @1603\n      : @739 (gas: 13)\n 19903: i32 a0 = a1 + 0x80\n 19907: a1 = u64 [s1 + 0x118]\n 19911: a3 = s1 + 0x3138\n 19915: a4 = a3 + 0x100\n 19919: u64 [a4 + 0xc8] = a1\n 19923: a1 = u64 [s1 + 0x120]\n 19927: u64 [a4 + 0xd0] = a1\n 19931: a1 = u64 [s1 + 0x128]\n 19935: u64 [a4 + 0xd8] = a1\n 19939: a1 = s1 + 0x3300\n 19943: a2 = u64 [s1 + 0x130]\n 19947: u64 [a4 + 0xe0] = a2\n 19951: ra = 694, jump @19\n      : @740 [@dyn 347] (gas: 15)\n 19957: a0 = u64 [s1 + 0x1b8]\n 19961: t1 = u64 [s1 + 0x188]\n 19965: t0 = t1 <u a0\n 19968: a5 = u64 [s1 + 0x1b0]\n 19972: a1 = u64 [s1 + 0x180]\n 19976: a0 = a1 ^ a5\n 19979: a2 = a1 <u a5\n 19982: a2 = t0 if a0 == 0\n 19985: a0 = u64 [s1 + 0x1a8]\n 19989: a3 = u64 [s1 + 0x170]\n 19993: t2 = a3 - a0\n 19996: a3 = a3 <u a0\n 19999: a0 = u64 [s1 + 0x1a0]\n 20003: a4 = u64 [s1 + 0x178]\n 20007: fallthrough\n      : @741 (gas: 11)\n 20008: a4 = a4 - a0\n 20011: a4 = a4 - a3\n 20014: a3 = t2 <u a2\n 20017: a3 = a4 - a3\n 20020: a0 = u64 [s1 + 0x1b8]\n 20024: a4 = t2 - a2\n 20027: a2 = a1 - a5\n 20030: a2 = a2 - t0\n 20033: a1 = t1 - a0\n 20036: a2 = a2 | a3\n 20039: jump @955\n      : @742 (gas: 8)\n 20042: a1 = s1 + 0x4938\n 20046: u64 [a1 + 768] = 0\n 20050: u64 [a1 + 760] = 0\n 20054: u64 [a1 + 752] = 0\n 20058: u64 [a1 + 744] = 0x2\n 20063: a0 = s1 + 0x1580\n 20067: a1 = s1 + 0x4c20\n 20071: ra = 696, jump @21\n      : @743 [@dyn 348] (gas: 13)\n 20077: a0 = s1 + 0x1138\n 20081: a1 = u64 [a0 + 0x450]\n 20085: u64 [s1 + 0x180] = a1\n 20089: a1 = u64 [a0 + 0x448]\n 20093: u64 [s1 + 0x178] = a1\n 20097: a0 = u32 [a0 + 0x458]\n 20101: u64 [s1 + 0x170] = a0\n 20105: a0 = u64 [s1 + 0x168]\n 20109: ra = 0x2ba\n 20113: ecalli 5 // 'caller'\n 20115: a5 = u64 [s1 + 0x1b8]\n 20119: t0 = 0x2bc\n 20123: jump @1947\n      : @744 [@dyn 349] (gas: 2)\n 20127: a5 = u64 [s1 + 0x1b8]\n 20131: t0 = 700, jump @1947\n      : @745 [@dyn 350] (gas: 10)\n 20138: a2 = u64 [a4 + 0x70]\n 20141: a1 = a1 ^ a2\n 20144: a2 = u64 [a4 + 0x78]\n 20147: a0 = a0 ^ a2\n 20150: a0 = a0 | a1\n 20153: a1 = u64 [a4 + 0x80]\n 20157: a1 = a1 ^ a3\n 20160: a0 = a0 | a1\n 20163: a1 = 0x1\n 20166: jump @750 if a0 == 0\n      : @746 (gas: 8)\n 20169: a1 = s1 + 0x4938\n 20173: u64 [a1 + 800] = 0\n 20177: u64 [a1 + 792] = 0\n 20181: u64 [a1 + 784] = 0\n 20185: u64 [a1 + 776] = 0x3\n 20190: a0 = s1 + 0x1560\n 20194: a1 = s1 + 0x4c40\n 20198: ra = 702, jump @21\n      : @747 [@dyn 351] (gas: 12)\n 20204: a0 = s1 + 0x1138\n 20208: a1 = u64 [a0 + 0x430]\n 20212: u64 [s1 + 0x180] = a1\n 20216: a1 = u64 [a0 + 0x428]\n 20220: u64 [s1 + 0x178] = a1\n 20224: a0 = u32 [a0 + 0x438]\n 20228: u64 [s1 + 0x170] = a0\n 20232: a0 = u64 [s1 + 0x168]\n 20236: ra = 0x2c0\n 20240: ecalli 5 // 'caller'\n 20242: t0 = 0x2c2\n 20246: jump @1944\n      : @748 [@dyn 352] (gas: 1)\n 20250: t0 = 706, jump @1944\n      : @749 [@dyn 353] (gas: 2)\n 20257: a1 = a0 <u 0x1\n 20260: fallthrough\n      : @750 (gas: 7)\n 20261: a2 = s1 + 0x1138\n 20265: u64 [a2 + 1056] = 0\n 20269: u64 [a2 + 1048] = 0\n 20273: u64 [a2 + 0x408] = a1\n 20277: a0 = s1 + 0x1540\n 20281: u64 [a2 + 1040] = 0\n 20285: ra = 708, jump @1799\n      : @751 [@dyn 354] (gas: 4)\n 20291: a0 = u64 [s1 + 0x198]\n 20295: t0 = 0x2c6\n 20299: a2 = s1 + 0x1138\n 20303: fallthrough\n      : @752 [@dyn 355] (gas: 11)\n 20304: u64 [a2 + 0x400] = a0\n 20308: a0 = u64 [s1 + 0x1a0]\n 20312: a3 = a2 + 0x300\n 20316: u64 [a3 + 0xf8] = a0\n 20320: a0 = u64 [s1 + 0x1a8]\n 20324: u64 [a3 + 0xf0] = a0\n 20328: a1 = s1 + 0x1520\n 20332: a0 = u64 [s1 + 0x1b0]\n 20336: u64 [a3 + 0xe8] = a0\n 20340: a0 = 0\n 20342: ra = 712, jump @19\n      : @753 [@dyn 356] (gas: 9)\n 20348: a0 = s1 + 0x1138\n 20352: u64 [a0 + 992] = 0\n 20356: u64 [a0 + 984] = 0\n 20360: u64 [a0 + 976] = 0\n 20364: a2 = a0\n 20366: a0 = 0x20\n 20369: a1 = s1 + 0x1500\n 20373: u64 [a2 + 968] = 0\n 20377: ra = 714, jump @19\n      : @754 [@dyn 357] (gas: 3)\n 20383: a2 = u64 [s1 + 0x190]\n 20387: a0 = i32 [a2]\n 20389: jump @756 if a0 >u 63\n      : @755 (gas: 2)\n 20393: u32 [a2 + 0] = 0x40\n 20396: fallthrough\n      : @756 (gas: 4)\n 20397: a0 = sp + 0xffffffffffffffe0\n 20400: a0 = a0 & 0xffffffffffffffe0\n 20403: u64 [s1 + 0x1b8] = a0\n 20407: t0 = 716, jump @2005\n      : @757 [@dyn 358] (gas: 31)\n 20414: ecalli 8 // 'hash_keccak_256'\n 20416: a3 = u64 [s1 + 0x1b8]\n 20420: a0 = u64 [a3]\n 20422: a1 = u64 [a3 + 0x8]\n 20425: a2 = u64 [a3 + 0x10]\n 20428: a3 = u64 [a3 + 0x18]\n 20431: a4 = reverse a0\n 20433: u64 [s1 + 0x1b8] = a4\n 20437: a5 = reverse a1\n 20439: u64 [s1 + 0x1a0] = a5\n 20443: a2 = reverse a2\n 20445: u64 [s1 + 0x1a8] = a2\n 20449: a0 = reverse a3\n 20451: u64 [s1 + 0x1b0] = a0\n 20455: a0 = a0 + 0x1\n 20458: a1 = a0 <u 0x1\n 20461: a1 = a1 + a2\n 20464: a2 = a0 | a1\n 20467: a2 = a2 <u 0x1\n 20470: a2 = a2 + a5\n 20473: a3 = a2 <u a5\n 20476: a3 = a3 + a4\n 20479: a4 = s1 + 0x4938\n 20483: a5 = a4 + 0x300\n 20487: u64 [a5 + 0x28] = a0\n 20490: u64 [a5 + 0x30] = a1\n 20493: u64 [a5 + 0x38] = a2\n 20496: u64 [a5 + 0x40] = a3\n 20499: a0 = s1 + 0x14e0\n 20503: a1 = s1 + 0x4c60\n 20507: ra = 718, jump @21\n      : @758 [@dyn 359] (gas: 10)\n 20513: a1 = s1 + 0x1138\n 20517: a0 = u32 [a1 + 0x3b8]\n 20521: u64 [s1 + 0x178] = a0\n 20525: a0 = u64 [a1 + 0x3b0]\n 20529: u64 [s1 + 0x170] = a0\n 20533: a0 = u64 [a1 + 0x3a8]\n 20537: u64 [s1 + 0x168] = a0\n 20541: a1 = u64 [s1 + 0x1b0]\n 20545: a0 = a1 + 0x2\n 20548: t0 = 720, jump @1937\n      : @759 [@dyn 360] (gas: 7)\n 20555: u64 [a5 + 0x60] = a1\n 20558: u64 [a5 + 0x58] = a3\n 20561: u64 [a5 + 0x50] = a2\n 20564: u64 [a5 + 0x48] = a0\n 20567: a0 = s1 + 0x14c0\n 20571: a1 = s1 + 0x4c80\n 20575: ra = 722, jump @21\n      : @760 [@dyn 361] (gas: 10)\n 20581: a1 = s1 + 0x1138\n 20585: a0 = u32 [a1 + 0x398]\n 20589: u64 [s1 + 0x160] = a0\n 20593: a0 = u64 [a1 + 0x390]\n 20597: u64 [s1 + 0x158] = a0\n 20601: a0 = u64 [a1 + 0x388]\n 20605: u64 [s1 + 0x150] = a0\n 20609: a1 = u64 [s1 + 0x1b0]\n 20613: a0 = a1 + 0x3\n 20616: t0 = 724, jump @1937\n      : @761 [@dyn 362] (gas: 7)\n 20623: u64 [a5 + 0x80] = a1\n 20627: u64 [a5 + 0x78] = a3\n 20630: u64 [a5 + 0x70] = a2\n 20633: u64 [a5 + 0x68] = a0\n 20636: a0 = s1 + 0x14a0\n 20640: a1 = s1 + 0x4ca0\n 20644: ra = 726, jump @21\n      : @762 [@dyn 363] (gas: 1)\n 20650: t0 = 728, jump @2032\n      : @763 [@dyn 364] (gas: 11)\n 20657: a0 = u64 [a2 + 0x80]\n 20661: u64 [s1 + 0x148] = a0\n 20665: a0 = u64 [a2 + 0x78]\n 20668: u64 [s1 + 0x140] = a0\n 20672: a0 = u64 [a2 + 0x70]\n 20675: u64 [s1 + 0x138] = a0\n 20679: a0 = u64 [a2 + 0x68]\n 20682: u64 [s1 + 0x130] = a0\n 20686: a1 = u64 [s1 + 0x1b0]\n 20690: a0 = a1 + 0x4\n 20693: t0 = 730, jump @1937\n      : @764 [@dyn 365] (gas: 7)\n 20700: u64 [a5 + 0xa0] = a1\n 20704: u64 [a5 + 0x98] = a3\n 20708: u64 [a5 + 0x90] = a2\n 20712: u64 [a5 + 0x88] = a0\n 20716: a0 = s1 + 0x1480\n 20720: a1 = s1 + 0x4cc0\n 20724: ra = 732, jump @21\n      : @765 [@dyn 366] (gas: 6)\n 20730: a0 = s1 + 0x1138\n 20734: a0 = u64 [a0 + 0x348]\n 20738: u64 [s1 + 0x128] = a0\n 20742: a1 = u64 [s1 + 0x1b0]\n 20746: a0 = a1 + 0x6\n 20749: t0 = 734, jump @1937\n      : @766 [@dyn 367] (gas: 7)\n 20756: u64 [a5 + 0xc0] = a1\n 20760: u64 [a5 + 0xb8] = a3\n 20764: u64 [a5 + 0xb0] = a2\n 20768: u64 [a5 + 0xa8] = a0\n 20772: a0 = s1 + 0x1460\n 20776: a1 = s1 + 0x4ce0\n 20780: ra = 736, jump @21\n      : @767 [@dyn 368] (gas: 1)\n 20786: t0 = 738, jump @2032\n      : @768 [@dyn 369] (gas: 11)\n 20793: a0 = u64 [a2 + 0x40]\n 20796: u64 [s1 + 0x120] = a0\n 20800: a0 = u64 [a2 + 0x38]\n 20803: u64 [s1 + 0x118] = a0\n 20807: a0 = u64 [a2 + 0x30]\n 20810: u64 [s1 + 0x110] = a0\n 20814: a0 = u64 [a2 + 0x28]\n 20817: u64 [s1 + 0x108] = a0\n 20821: a1 = u64 [s1 + 0x1b0]\n 20825: a0 = a1 + 0x5\n 20828: t0 = 740, jump @1937\n      : @769 [@dyn 370] (gas: 7)\n 20835: u64 [a5 + 0xe0] = a1\n 20839: u64 [a5 + 0xd8] = a3\n 20843: u64 [a5 + 0xd0] = a2\n 20847: u64 [a5 + 0xc8] = a0\n 20851: a0 = s1 + 0x1440\n 20855: a1 = s1 + 0x4d00\n 20859: ra = 742, jump @21\n      : @770 [@dyn 371] (gas: 1)\n 20865: t0 = 744, jump @2032\n      : @771 [@dyn 372] (gas: 21)\n 20872: a0 = u64 [a2 + 0x20]\n 20875: u64 [s1 + 0x100] = a0\n 20879: a0 = u64 [a2 + 0x18]\n 20882: u64 [s1 + 0xf8] = a0\n 20886: a0 = u64 [a2 + 0x10]\n 20889: u64 [s1 + 0xf0] = a0\n 20893: a0 = u64 [a2 + 0x8]\n 20896: u64 [s1 + 0xe8] = a0\n 20900: a0 = u64 [s1 + 0x1b8]\n 20904: a2 = a1 + 0x200\n 20908: u64 [a2 + 0xe0] = a0\n 20912: a0 = u64 [s1 + 0x1a0]\n 20916: u64 [a2 + 0xd8] = a0\n 20920: a0 = u64 [s1 + 0x1a8]\n 20924: u64 [a2 + 0xd0] = a0\n 20928: a3 = a1\n 20930: a0 = s1 + 0x1420\n 20934: a1 = s1 + 0x1400\n 20938: a2 = u64 [s1 + 0x1b0]\n 20942: u64 [a3 + 0x2c8] = a2\n 20946: ra = 746, jump @1877\n      : @772 [@dyn 373] (gas: 13)\n 20952: a1 = s1 + 0x1138\n 20956: a0 = u64 [a1 + 0x300]\n 20960: u64 [s1 + 0x180] = a0\n 20964: a2 = a1 + 0x200\n 20968: a0 = u64 [a2 + 0xf8]\n 20972: u64 [s1 + 0x188] = a0\n 20976: a0 = u64 [a2 + 0xf0]\n 20980: u64 [s1 + 0x190] = a0\n 20984: a0 = u64 [a2 + 0xe8]\n 20988: u64 [s1 + 0x198] = a0\n 20992: a0 = s1 + 0x13e0\n 20996: a1 = 0x40\n 20999: ra = 748, jump @17\n      : @773 [@dyn 374] (gas: 7)\n 21005: a2 = s1 + 0x1138\n 21009: a3 = a2 + 0x200\n 21013: a4 = u64 [a3 + 0xc0]\n 21017: a5 = u64 [a3 + 0xb8]\n 21021: a1 = u64 [a3 + 0xb0]\n 21025: a0 = u64 [a3 + 0xa8]\n 21029: t0 = 750, jump @2022\n      : @774 [@dyn 375] (gas: 1)\n 21036: jump @776 if a1 == 0\n      : @775 (gas: 1)\n 21039: jump @1603\n      : @776 (gas: 9)\n 21042: u64 [a2 + 672] = 0\n 21046: u64 [a2 + 664] = 0\n 21050: u64 [a2 + 656] = 0\n 21054: a1 = s1 + 0x13c0\n 21058: u64 [a2 + 648] = 0x100\n 21064: u64 [s1 + 0x1b8] = a0\n 21068: u64 [s1 + 0x1a0] = a4\n 21072: u64 [s1 + 0x1a8] = a5\n 21076: ra = 752, jump @19\n      : @777 [@dyn 376] (gas: 3)\n 21082: a0 = u64 [s1 + 0x1b8]\n 21086: a0 = a0 + 0x100\n 21090: t0 = 754, jump @1974\n      : @778 [@dyn 377] (gas: 19)\n 21097: a1 = s1 + 0x1138\n 21101: a5 = a1 + 0x200\n 21105: u64 [a5 + 0x30] = a2\n 21108: u64 [a5 + 0x28] = a0\n 21111: a0 = u64 [s1 + 0x180]\n 21115: u64 [a5 + 0x60] = a0\n 21118: a0 = u64 [s1 + 0x188]\n 21122: u64 [a5 + 0x58] = a0\n 21125: a0 = u64 [s1 + 0x190]\n 21129: u64 [a5 + 0x50] = a0\n 21132: a0 = u64 [s1 + 0x198]\n 21136: u64 [a5 + 0x48] = a0\n 21139: u64 [a5 + 0x38] = a3\n 21142: a3 = a1\n 21144: a0 = s1 + 0x13a0\n 21148: a1 = s1 + 0x1380\n 21152: a2 = s1 + 0x1360\n 21156: u64 [a3 + 0x240] = a4\n 21160: ra = 756, jump @1707\n      : @779 [@dyn 378] (gas: 1)\n 21166: t0 = 758, jump @1983\n      : @780 [@dyn 379] (gas: 1)\n 21173: jump @782 if a0 != 0\n      : @781 (gas: 1)\n 21176: jump @1603\n      : @782 (gas: 22)\n 21179: a3 = s1 + 0x1138\n 21183: u64 [s1 + 0x198] = a2\n 21187: a5 = a3 + 0x200\n 21191: a0 = u64 [a5 + 0x80]\n 21195: u64 [s1 + 0xe0] = a0\n 21199: a0 = u64 [a5 + 0x78]\n 21202: u64 [s1 + 0xd8] = a0\n 21206: a0 = u64 [a5 + 0x70]\n 21209: u64 [s1 + 0x180] = a0\n 21213: a0 = u64 [a5 + 0x68]\n 21216: u64 [s1 + 0x188] = a0\n 21220: i32 a0 = a1 + 0x20\n 21223: u64 [a3 + 544] = 0\n 21227: a1 = u64 [s1 + 0x168]\n 21231: u64 [a5 + 0x8] = a1\n 21234: a1 = u64 [s1 + 0x170]\n 21238: u64 [a5 + 0x10] = a1\n 21241: a1 = s1 + 0x1340\n 21245: a2 = u64 [s1 + 0x178]\n 21249: u64 [a5 + 0x18] = a2\n 21252: u64 [s1 + 0x190] = a4\n 21256: ra = 760, jump @19\n      : @783 [@dyn 380] (gas: 5)\n 21262: a3 = s1 + 0x100\n 21266: a1 = u64 [a3 + 0xb8]\n 21270: a0 = u64 [a3 + 0x90]\n 21274: a0 = a0 + 0xffffffffffffffc0\n 21277: t0 = 762, jump @1994\n      : @784 [@dyn 381] (gas: 1)\n 21284: jump @786 if a0 != 0\n      : @785 (gas: 1)\n 21287: jump @1603\n      : @786 (gas: 12)\n 21290: i32 a0 = a1 + 0x40\n 21293: a3 = s1 + 0x1138\n 21297: u64 [a3 + 512] = 0\n 21301: a1 = u64 [s1 + 0x150]\n 21305: a4 = a3 + 0x100\n 21309: u64 [a4 + 0xe8] = a1\n 21313: a1 = u64 [s1 + 0x158]\n 21317: u64 [a4 + 0xf0] = a1\n 21321: a1 = s1 + 0x1320\n 21325: a2 = u64 [s1 + 0x160]\n 21329: u64 [a4 + 0xf8] = a2\n 21333: ra = 764, jump @19\n      : @787 [@dyn 382] (gas: 10)\n 21339: a4 = s1 + 0x100\n 21343: a1 = u64 [a4 + 0xb8]\n 21347: a3 = 0x100000000\n 21357: a0 = 0xffffffa0\n 21367: a0 = a1 <u a0\n 21370: a2 = u64 [a4 + 0xb0]\n 21374: a0 = 0 if a2 != 0\n 21376: a2 = u64 [a4 + 0x98]\n 21380: a0 = 0 if a2 != 0\n 21382: jump @789 if a0 != 0\n      : @788 (gas: 1)\n 21385: jump @1603\n      : @789 (gas: 15)\n 21388: i32 a0 = a1 + 0x60\n 21391: a1 = u64 [s1 + 0x130]\n 21395: a2 = s1 + 0x1138\n 21399: u64 [s1 + 0x190] = a3\n 21403: a3 = a2\n 21405: a4 = a2 + 0x100\n 21409: u64 [a4 + 0xc8] = a1\n 21413: a1 = u64 [s1 + 0x138]\n 21417: u64 [a4 + 0xd0] = a1\n 21421: a1 = u64 [s1 + 0x140]\n 21425: u64 [a4 + 0xd8] = a1\n 21429: a1 = s1 + 0x1300\n 21433: a2 = u64 [s1 + 0x148]\n 21437: u64 [a3 + 0x1e0] = a2\n 21441: ra = 766, jump @19\n      : @790 [@dyn 383] (gas: 10)\n 21447: a3 = s1 + 0x100\n 21451: a2 = u64 [a3 + 0xb8]\n 21455: a0 = u64 [a3 + 0x90]\n 21459: a0 = a0 + 0xffffffffffffff80\n 21462: a0 = a2 <u a0\n 21465: a1 = u64 [a3 + 0xb0]\n 21469: a0 = 0 if a1 != 0\n 21471: a1 = u64 [a3 + 0x98]\n 21475: a0 = 0 if a1 != 0\n 21477: jump @792 if a0 != 0\n      : @791 (gas: 1)\n 21480: jump @1603\n      : @792 (gas: 10)\n 21483: a0 = u8 [s1 + 0x128]\n 21487: a1 = a0 >u 0\n 21489: i32 a0 = a2 + 0x80\n 21493: a2 = s1 + 0x1138\n 21497: u64 [a2 + 448] = 0\n 21501: u64 [a2 + 440] = 0\n 21505: u64 [a2 + 0x1a8] = a1\n 21509: a1 = s1 + 0x12e0\n 21513: u64 [a2 + 432] = 0\n 21517: ra = 768, jump @19\n      : @793 [@dyn 384] (gas: 10)\n 21523: a4 = s1 + 0x100\n 21527: a2 = u64 [a4 + 0xb8]\n 21531: a3 = 0x100000000\n 21541: a0 = 0xffffff60\n 21551: a0 = a2 <u a0\n 21554: a1 = u64 [a4 + 0xb0]\n 21558: a0 = 0 if a1 != 0\n 21560: a1 = u64 [a4 + 0x98]\n 21564: a0 = 0 if a1 != 0\n 21566: jump @795 if a0 != 0\n      : @794 (gas: 1)\n 21569: jump @1603\n      : @795 (gas: 12)\n 21572: a1 = u64 [s1 + 0x128]\n 21576: a0 = a1 & 0xff00\n 21581: a1 = a0 >u 0\n 21583: i32 a0 = a2 + 0xa0\n 21587: a2 = s1 + 0x1138\n 21591: u64 [a2 + 416] = 0\n 21595: u64 [a2 + 408] = 0\n 21599: u64 [a2 + 0x188] = a1\n 21603: a1 = s1 + 0x12c0\n 21607: u64 [a2 + 400] = 0\n 21611: u64 [s1 + 0x190] = a3\n 21615: ra = 770, jump @19\n      : @796 [@dyn 385] (gas: 10)\n 21621: a4 = s1 + 0x100\n 21625: a3 = u64 [a4 + 0x98]\n 21629: a1 = u64 [a4 + 0xb8]\n 21633: a0 = u64 [a4 + 0x90]\n 21637: a0 = a0 + 0xffffffffffffff40\n 21641: a0 = a1 <u a0\n 21644: a2 = u64 [a4 + 0xb0]\n 21648: a0 = 0 if a2 != 0\n 21650: a0 = 0 if a3 != 0\n 21652: jump @798 if a0 != 0\n      : @797 (gas: 1)\n 21655: jump @1603\n      : @798 (gas: 13)\n 21658: i32 a0 = a1 + 0xc0\n 21662: a1 = u64 [s1 + 0x108]\n 21666: a3 = s1 + 0x1138\n 21670: a4 = a3 + 0x100\n 21674: u64 [a4 + 0x68] = a1\n 21677: a1 = u64 [s1 + 0x110]\n 21681: u64 [a4 + 0x70] = a1\n 21684: a1 = u64 [s1 + 0x118]\n 21688: u64 [a4 + 0x78] = a1\n 21691: a1 = s1 + 0x12a0\n 21695: a2 = u64 [s1 + 0x120]\n 21699: u64 [a4 + 0x80] = a2\n 21703: ra = 772, jump @19\n      : @799 [@dyn 386] (gas: 4)\n 21709: a3 = s1 + 0x100\n 21713: a1 = u64 [a3 + 0xb8]\n 21717: a0 = 0xffffff20\n 21727: t0 = 774, jump @1994\n      : @800 [@dyn 387] (gas: 1)\n 21734: jump @802 if a0 != 0\n      : @801 (gas: 1)\n 21737: jump @1603\n      : @802 (gas: 13)\n 21740: i32 a0 = a1 + 0xe0\n 21744: a1 = u64 [s1 + 0xe8]\n 21748: a3 = s1 + 0x1138\n 21752: a4 = a3 + 0x100\n 21756: u64 [a4 + 0x48] = a1\n 21759: a1 = u64 [s1 + 0xf0]\n 21763: u64 [a4 + 0x50] = a1\n 21766: a1 = u64 [s1 + 0xf8]\n 21770: u64 [a4 + 0x58] = a1\n 21773: a1 = s1 + 0x1280\n 21777: a2 = u64 [s1 + 0x100]\n 21781: u64 [a4 + 0x60] = a2\n 21784: ra = 776, jump @19\n      : @803 [@dyn 388] (gas: 16)\n 21790: a4 = s1 + 0x100\n 21794: a0 = u64 [a4 + 0xb8]\n 21798: t1 = u64 [s1 + 0x188]\n 21802: t0 = t1 <u a0\n 21805: a5 = u64 [a4 + 0xb0]\n 21809: a1 = u64 [a4 + 0x80]\n 21813: a0 = a1 ^ a5\n 21816: a2 = a1 <u a5\n 21819: a2 = t0 if a0 == 0\n 21822: a0 = u64 [a4 + 0xa8]\n 21826: a3 = u64 [s1 + 0xd8]\n 21830: t2 = a3 - a0\n 21833: a3 = a3 <u a0\n 21836: a0 = u64 [a4 + 0xa0]\n 21840: a4 = u64 [s1 + 0xe0]\n 21844: jump @741\n      : @804 (gas: 8)\n 21847: a1 = s1 + 0x5138\n 21851: u64 [a1 + 1920] = 0\n 21855: u64 [a1 + 1912] = 0\n 21859: u64 [a1 + 1904] = 0\n 21863: u64 [a1 + 1896] = 0x2\n 21868: a0 = s1 + 0x4600\n 21872: a1 = s1 + 0x58a0\n 21876: ra = 778, jump @21\n      : @805 [@dyn 389] (gas: 13)\n 21882: a0 = s1 + 0x4138\n 21886: a1 = u64 [a0 + 0x4d0]\n 21890: u64 [s1 + 0x1b0] = a1\n 21894: a1 = u64 [a0 + 0x4c8]\n 21898: u64 [s1 + 0x1a8] = a1\n 21902: a0 = u32 [a0 + 0x4d8]\n 21906: u64 [s1 + 0x1a0] = a0\n 21910: a0 = u64 [s1 + 0x168]\n 21914: ra = 0x30c\n 21918: ecalli 5 // 'caller'\n 21920: a5 = u64 [s1 + 0x1b8]\n 21924: t0 = 0x30e\n 21928: jump @1947\n      : @806 [@dyn 390] (gas: 2)\n 21932: a5 = u64 [s1 + 0x1b8]\n 21936: t0 = 782, jump @1947\n      : @807 [@dyn 391] (gas: 10)\n 21943: a2 = u64 [a4 + 0xa0]\n 21947: a1 = a1 ^ a2\n 21950: a2 = u64 [a4 + 0xa8]\n 21954: a0 = a0 ^ a2\n 21957: a0 = a0 | a1\n 21960: a1 = u64 [a4 + 0xb0]\n 21964: a1 = a1 ^ a3\n 21967: a0 = a0 | a1\n 21970: a1 = 0x1\n 21973: jump @812 if a0 == 0\n      : @808 (gas: 8)\n 21976: a1 = s1 + 0x5138\n 21980: u64 [a1 + 1952] = 0\n 21984: u64 [a1 + 1944] = 0\n 21988: u64 [a1 + 1936] = 0\n 21992: u64 [a1 + 1928] = 0x3\n 21997: a0 = s1 + 0x45e0\n 22001: a1 = s1 + 0x58c0\n 22005: ra = 784, jump @21\n      : @809 [@dyn 392] (gas: 12)\n 22011: a0 = s1 + 0x4138\n 22015: a1 = u64 [a0 + 0x4b0]\n 22019: u64 [s1 + 0x1b0] = a1\n 22023: a1 = u64 [a0 + 0x4a8]\n 22027: u64 [s1 + 0x1a8] = a1\n 22031: a0 = u32 [a0 + 0x4b8]\n 22035: u64 [s1 + 0x1a0] = a0\n 22039: a0 = u64 [s1 + 0x168]\n 22043: ra = 0x312\n 22047: ecalli 5 // 'caller'\n 22049: t0 = 0x314\n 22053: jump @1945\n      : @810 [@dyn 393] (gas: 1)\n 22057: t0 = 788, jump @1945\n      : @811 [@dyn 394] (gas: 2)\n 22064: a1 = a0 <u 0x1\n 22067: fallthrough\n      : @812 (gas: 7)\n 22068: a2 = s1 + 0x4138\n 22072: u64 [a2 + 1184] = 0\n 22076: u64 [a2 + 1176] = 0\n 22080: u64 [a2 + 0x488] = a1\n 22084: a0 = s1 + 0x45c0\n 22088: u64 [a2 + 1168] = 0\n 22092: ra = 790, jump @1799\n      : @813 [@dyn 395] (gas: 7)\n 22098: a0 = 0x4138\n 22102: a2 = s1 + a0\n 22105: u64 [s1 + 352] = 0\n 22109: u64 [s1 + 336] = 0\n 22113: u64 [s1 + 328] = 0\n 22117: u64 [s1 + 344] = 0\n 22121: t0 = 792, jump @2016\n      : @814 [@dyn 396] (gas: 12)\n 22128: a0 = u64 [s1 + 0x178]\n 22132: a3 = a2 + 0x400\n 22136: u64 [a3 + 0x68] = a0\n 22139: a0 = u64 [s1 + 0x180]\n 22143: u64 [a3 + 0x70] = a0\n 22146: a0 = u64 [s1 + 0x188]\n 22150: u64 [a3 + 0x78] = a0\n 22153: a1 = s1 + 0x45a0\n 22157: a0 = u64 [s1 + 0x190]\n 22161: u64 [a3 + 0x80] = a0\n 22165: a0 = 0\n 22167: ra = 794, jump @19\n      : @815 [@dyn 397] (gas: 9)\n 22173: a0 = s1 + 0x4138\n 22177: u64 [a0 + 1120] = 0\n 22181: u64 [a0 + 1112] = 0\n 22185: u64 [a0 + 1104] = 0\n 22189: a2 = a0\n 22191: a0 = 0x20\n 22194: a1 = s1 + 0x4580\n 22198: u64 [a2 + 1096] = 0\n 22202: ra = 796, jump @19\n      : @816 [@dyn 398] (gas: 3)\n 22208: a0 = u64 [s1 + 0x198]\n 22212: a0 = i32 [a0]\n 22214: jump @818 if a0 >u 63\n      : @817 (gas: 4)\n 22218: a0 = u64 [s1 + 0x198]\n 22222: u32 [a0 + 0] = 0x40\n 22225: t0 = 0x31e\n 22229: jump @1978\n      : @818 (gas: 1)\n 22233: t0 = 798, jump @1978\n      : @819 [@dyn 399] (gas: 4)\n 22240: ra = 0x320\n 22244: ecalli 8 // 'hash_keccak_256'\n 22246: t0 = 0x322\n 22250: jump @1959\n      : @820 [@dyn 400] (gas: 1)\n 22254: t0 = 802, jump @1959\n      : @821 [@dyn 401] (gas: 8)\n 22261: a3 = a1 + 0x700\n 22265: u64 [a3 + 0xa8] = a4\n 22269: u64 [a3 + 0xb0] = a5\n 22273: u64 [a3 + 0xb8] = a2\n 22277: u64 [a3 + 0xc0] = a0\n 22281: a0 = s1 + 0x4560\n 22285: a1 = s1 + 0x58e0\n 22289: ra = 804, jump @21\n      : @822 [@dyn 402] (gas: 21)\n 22295: a5 = s1 + 0x4138\n 22299: a0 = u64 [a5 + 0x430]\n 22303: t0 = u64 [a5 + 0x428]\n 22307: t1 = u64 [a5 + 0x438]\n 22311: a3 = u64 [a5 + 0x440]\n 22315: a1 = u64 [s1 + 0x1b0]\n 22319: a4 = a1 ^ a0\n 22322: a0 = a1 <u a0\n 22325: a1 = u64 [s1 + 0x1b8]\n 22329: a1 = a1 <u t0\n 22332: a1 = a0 if a4 != 0\n 22335: a4 = u64 [s1 + 0x1a8]\n 22339: a0 = a4 ^ a3\n 22342: a3 = a4 <u a3\n 22345: a2 = u64 [s1 + 0x1a0]\n 22349: a4 = a2 <u t1\n 22352: a4 = a3 if a0 != 0\n 22355: a2 = a2 ^ t1\n 22358: a0 = a0 | a2\n 22361: a1 = a4 if a0 != 0\n 22364: jump @846 if a1 == 0\n      : @823 (gas: 12)\n 22368: a0 = u64 [s1 + 0x178]\n 22372: a2 = a5 + 0x300\n 22376: u64 [a2 + 0xc8] = a0\n 22380: a0 = u64 [s1 + 0x180]\n 22384: u64 [a2 + 0xd0] = a0\n 22388: a0 = u64 [s1 + 0x188]\n 22392: u64 [a2 + 0xd8] = a0\n 22396: a1 = s1 + 0x4500\n 22400: a0 = u64 [s1 + 0x190]\n 22404: u64 [a2 + 0xe0] = a0\n 22408: a0 = 0\n 22410: ra = 806, jump @19\n      : @824 [@dyn 403] (gas: 9)\n 22416: a0 = s1 + 0x4138\n 22420: u64 [a0 + 960] = 0\n 22424: u64 [a0 + 952] = 0\n 22428: u64 [a0 + 944] = 0\n 22432: a2 = a0\n 22434: a0 = 0x20\n 22437: a1 = s1 + 0x44e0\n 22441: u64 [a2 + 936] = 0\n 22445: ra = 808, jump @19\n      : @825 [@dyn 404] (gas: 3)\n 22451: a0 = u64 [s1 + 0x198]\n 22455: a0 = i32 [a0]\n 22457: jump @827 if a0 >u 63\n      : @826 (gas: 4)\n 22461: a0 = u64 [s1 + 0x198]\n 22465: u32 [a0 + 0] = 0x40\n 22468: t0 = 0x32a\n 22472: jump @1978\n      : @827 (gas: 1)\n 22476: t0 = 810, jump @1978\n      : @828 [@dyn 405] (gas: 5)\n 22483: ra = 0x32c\n 22487: ecalli 8 // 'hash_keccak_256'\n 22489: a3 = u64 [s1 + 0x168]\n 22493: t0 = 0x32e\n 22497: jump @1949\n      : @829 [@dyn 406] (gas: 2)\n 22501: a3 = u64 [s1 + 0x168]\n 22505: t0 = 814, jump @1949\n      : @830 [@dyn 407] (gas: 19)\n 22512: a1 = s1 + 0x4138\n 22516: a0 = u64 [s1 + 0x1a8]\n 22520: u64 [a1 + 0x340] = a0\n 22524: a0 = u64 [s1 + 0x1a0]\n 22528: u64 [a1 + 0x338] = a0\n 22532: a0 = u64 [s1 + 0x1b0]\n 22536: u64 [a1 + 0x330] = a0\n 22540: a0 = u64 [s1 + 0x1b8]\n 22544: u64 [a1 + 0x328] = a0\n 22548: a0 = a1 + 0x300\n 22552: u64 [a0 + 0x48] = a4\n 22555: u64 [a0 + 0x50] = a5\n 22558: u64 [a0 + 0x58] = a2\n 22561: a4 = a1\n 22563: a0 = s1 + 0x44a0\n 22567: a1 = s1 + 0x4480\n 22571: a2 = s1 + 0x4460\n 22575: u64 [a4 + 0x360] = a3\n 22579: ra = 816, jump @1847\n      : @831 [@dyn 408] (gas: 23)\n 22585: a3 = s1 + 0x4138\n 22589: a4 = a3 + 0x300\n 22593: a0 = u64 [a4 + 0x68]\n 22596: a1 = u64 [a4 + 0x80]\n 22600: a2 = u64 [a4 + 0x70]\n 22603: a3 = u64 [a4 + 0x78]\n 22606: a4 = a0 + 0x3\n 22609: a0 = a4 <u a0\n 22612: a5 = a2 + a0\n 22615: a2 = a5 <u a2\n 22618: a2 = a0 if a0 == 0\n 22621: a2 = a2 + a3\n 22624: a0 = a2 <u a3\n 22627: a0 = a0 + a1\n 22630: a1 = s1 + 0x5138\n 22634: a3 = a1 + 0x700\n 22638: u64 [a3 + 0xc8] = a4\n 22642: u64 [a3 + 0xd0] = a5\n 22646: u64 [a3 + 0xd8] = a2\n 22650: u64 [a3 + 0xe0] = a0\n 22654: a0 = s1 + 0x4440\n 22658: a1 = s1 + 0x5900\n 22662: ra = 818, jump @21\n      : @832 [@dyn 409] (gas: 3)\n 22668: a2 = s1 + 0x4138\n 22672: a0 = u8 [a2 + 0x308]\n 22676: jump @834 if a0 == 0\n      : @833 (gas: 6)\n 22679: a0 = s1 + 0x100\n 22683: a5 = u64 [a0 + 0xb8]\n 22687: a4 = u64 [a0 + 0xb0]\n 22691: a3 = u64 [a0 + 0xa8]\n 22695: a1 = u64 [a0 + 0xa0]\n 22699: jump @845\n      : @834 (gas: 12)\n 22702: a0 = u64 [s1 + 0x178]\n 22706: a1 = a2 + 0x200\n 22710: u64 [a1 + 0xe8] = a0\n 22714: a0 = u64 [s1 + 0x180]\n 22718: u64 [a1 + 0xf0] = a0\n 22722: a0 = u64 [s1 + 0x188]\n 22726: u64 [a1 + 0xf8] = a0\n 22730: a1 = s1 + 0x4420\n 22734: a0 = u64 [s1 + 0x190]\n 22738: u64 [a2 + 0x300] = a0\n 22742: a0 = 0\n 22744: ra = 820, jump @19\n      : @835 [@dyn 410] (gas: 2)\n 22750: a0 = 0x4138\n 22754: t0 = 822, jump @2034\n      : @836 [@dyn 411] (gas: 3)\n 22761: a1 = s1 + 0x4400\n 22765: u64 [a2 + 712] = 0\n 22769: ra = 824, jump @19\n      : @837 [@dyn 412] (gas: 3)\n 22775: a0 = u64 [s1 + 0x198]\n 22779: a0 = i32 [a0]\n 22781: jump @839 if a0 >u 63\n      : @838 (gas: 4)\n 22785: a0 = u64 [s1 + 0x198]\n 22789: u32 [a0 + 0] = 0x40\n 22792: t0 = 0x33a\n 22796: jump @1978\n      : @839 (gas: 1)\n 22800: t0 = 826, jump @1978\n      : @840 [@dyn 413] (gas: 36)\n 22807: ecalli 8 // 'hash_keccak_256'\n 22809: a3 = u64 [s1 + 0x168]\n 22813: a0 = u64 [a3]\n 22815: a1 = u64 [a3 + 0x8]\n 22818: a2 = u64 [a3 + 0x10]\n 22821: a3 = u64 [a3 + 0x18]\n 22824: a0 = reverse a0\n 22826: a1 = reverse a1\n 22828: a2 = reverse a2\n 22830: a3 = reverse a3\n 22832: a4 = a3 + 0x5\n 22835: a3 = a4 <u a3\n 22838: a5 = a2 + a3\n 22841: a2 = a5 <u a2\n 22844: a2 = a3 if a3 == 0\n 22847: a2 = a2 + a1\n 22850: a1 = a2 <u a1\n 22853: t0 = a0 + a1\n 22856: a3 = s1 + 0x4138\n 22860: a0 = u64 [s1 + 0x1a8]\n 22864: a1 = a3 + 0x200\n 22868: u64 [a1 + 0x60] = a0\n 22871: a0 = u64 [s1 + 0x1a0]\n 22875: u64 [a1 + 0x58] = a0\n 22878: a0 = u64 [s1 + 0x1b0]\n 22882: u64 [a1 + 0x50] = a0\n 22885: a0 = u64 [s1 + 0x1b8]\n 22889: u64 [a1 + 0x48] = a0\n 22892: u64 [a1 + 0x68] = a4\n 22895: u64 [a1 + 0x70] = a5\n 22898: u64 [a1 + 0x78] = a2\n 22901: a0 = s1 + 0x43c0\n 22905: a1 = s1 + 0x43a0\n 22909: a2 = s1 + 0x4380\n 22913: u64 [a3 + 0x280] = t0\n 22917: ra = 828, jump @1847\n      : @841 [@dyn 414] (gas: 7)\n 22923: a3 = s1 + 0x4138\n 22927: a4 = a3 + 0x200\n 22931: a0 = u64 [a4 + 0x88]\n 22935: a1 = u64 [a4 + 0xa0]\n 22939: a2 = u64 [a4 + 0x90]\n 22943: a3 = u64 [a4 + 0x98]\n 22947: t0 = 830, jump @2007\n      : @842 [@dyn 415] (gas: 11)\n 22954: i32 a3 = a3 + 0x138\n 22958: a3 = a3 + s1\n 22961: a5 = a3 + 0x700\n 22965: u64 [a5 + 0xe8] = a0\n 22969: u64 [a5 + 0xf0] = a2\n 22973: u64 [a5 + 0xf8] = a4\n 22977: a0 = s1 + 0x6000\n 22981: u64 [a0 + 0xfffffffffffff938] = a1\n 22985: a0 = s1 + 0x4360\n 22989: a1 = s1 + 0x5920\n 22993: ra = 832, jump @21\n      : @843 [@dyn 416] (gas: 23)\n 22999: a4 = s1 + 0x4138\n 23003: a5 = a4 + 0x200\n 23007: a0 = u64 [a5 + 0x28]\n 23010: a1 = u64 [a5 + 0x30]\n 23013: a2 = u64 [a5 + 0x38]\n 23016: a3 = u64 [a5 + 0x40]\n 23019: u64 [a4 + 0x1e0] = a3\n 23023: u64 [a4 + 0x1d8] = a2\n 23027: u64 [a4 + 0x1d0] = a1\n 23031: u64 [a4 + 0x1c8] = a0\n 23035: a0 = u64 [s1 + 0x158]\n 23039: u64 [a5] = a0\n 23041: a0 = u64 [s1 + 0x148]\n 23045: a5 = a4 + 0x100\n 23049: u64 [a5 + 0xf8] = a0\n 23053: a0 = u64 [s1 + 0x150]\n 23057: u64 [a5 + 0xf0] = a0\n 23061: a0 = s1 + 0x4340\n 23065: a1 = s1 + 0x4320\n 23069: a2 = s1 + 0x4300\n 23073: a3 = u64 [s1 + 0x160]\n 23077: u64 [a5 + 0xe8] = a3\n 23081: ra = 834, jump @1926\n      : @844 [@dyn 417] (gas: 14)\n 23087: a5 = u64 [s1 + 0x1b8]\n 23091: a4 = u64 [s1 + 0x1b0]\n 23095: a1 = u64 [s1 + 0x1a0]\n 23099: a3 = u64 [s1 + 0x1a8]\n 23103: a2 = s1 + 0x4138\n 23107: a0 = u64 [a2 + 0x220]\n 23111: u64 [s1 + 0x158] = a0\n 23115: a0 = u64 [a2 + 0x218]\n 23119: u64 [s1 + 0x148] = a0\n 23123: a0 = u64 [a2 + 0x210]\n 23127: u64 [s1 + 0x150] = a0\n 23131: a0 = u64 [a2 + 0x208]\n 23135: u64 [s1 + 0x160] = a0\n 23139: fallthrough\n      : @845 (gas: 13)\n 23140: a5 = a5 + 0x1\n 23143: a0 = a5 <u 0x1\n 23146: a4 = a4 + a0\n 23149: u64 [s1 + 0x1b8] = a5\n 23153: u64 [s1 + 0x1b0] = a4\n 23157: a0 = a5 | a4\n 23160: a0 = a0 <u 0x1\n 23163: a0 = a0 + a1\n 23166: a1 = a0 <u a1\n 23169: a3 = a3 + a1\n 23172: u64 [s1 + 0x1a8] = a3\n 23176: u64 [s1 + 0x1a0] = a0\n 23180: jump @814\n      : @846 (gas: 3)\n 23183: a0 = s1 + 0x4540\n 23187: a1 = 0x40\n 23190: ra = 836, jump @17\n      : @847 [@dyn 418] (gas: 7)\n 23196: a3 = s1 + 0x4138\n 23200: a5 = a3 + 0x400\n 23204: a0 = u64 [a5 + 0x20]\n 23207: a1 = u64 [a5 + 0x18]\n 23210: a2 = u64 [a5 + 0x10]\n 23213: a4 = u64 [a5 + 0x8]\n 23216: t0 = 838, jump @2019\n      : @848 [@dyn 419] (gas: 1)\n 23223: jump @850 if a0 == 0\n      : @849 (gas: 1)\n 23226: jump @1603\n      : @850 (gas: 14)\n 23229: a2 = s1 + 0x100\n 23233: a0 = u64 [a2 + 0x60]\n 23236: a1 = a3 + 0x300\n 23240: u64 [a1 + 0xe8] = a0\n 23244: a0 = u64 [a2 + 0x50]\n 23247: u64 [a1 + 0xf0] = a0\n 23251: a0 = u64 [a2 + 0x48]\n 23254: u64 [a1 + 0xf8] = a0\n 23258: a1 = s1 + 0x4520\n 23262: a0 = u64 [a2 + 0x58]\n 23265: u64 [a3 + 0x400] = a0\n 23269: a0 = a4\n 23271: u64 [s1 + 0x1b8] = a4\n 23275: ra = 840, jump @19\n      : @851 [@dyn 420] (gas: 3)\n 23281: a1 = 0x20\n 23284: a0 = u64 [s1 + 0x1b8]\n 23288: ra = 842, jump @28\n      : @852 [@dyn 421] (gas: 5)\n 23294: i32 a1 = a0 + 0\n 23296: a2 = 0x20\n 23299: a0 = 0\n 23301: ecalli 13 // 'seal_return'\n 23303: fallthrough\n      : @853 (gas: 9)\n 23304: a1 = s1 + 0x4138\n 23308: u64 [a1 + 1664] = 0\n 23312: u64 [a1 + 1656] = 0\n 23316: u64 [a1 + 1648] = 0\n 23320: u64 [a1 + 1640] = 0x2\n 23325: a0 = s1 + 0x7ff\n 23329: a0 = a0 + 0x401\n 23333: a1 = s1 + 0x47a0\n 23337: ra = 844, jump @21\n      : @854 [@dyn 422] (gas: 14)\n 23343: a0 = s1 + 0x7ff\n 23347: a0 = a0 + 0x139\n 23351: a1 = u64 [a0 + 0x2d0]\n 23355: u64 [s1 + 0x1a8] = a1\n 23359: a1 = u64 [a0 + 0x2c8]\n 23363: u64 [s1 + 0x1a0] = a1\n 23367: a0 = u32 [a0 + 0x2d8]\n 23371: u64 [s1 + 0x198] = a0\n 23375: a0 = u64 [s1 + 0x190]\n 23379: ra = 0x34e\n 23383: ecalli 5 // 'caller'\n 23385: a5 = u64 [s1 + 0x1b0]\n 23389: t0 = 0x350\n 23393: jump @1947\n      : @855 [@dyn 423] (gas: 2)\n 23396: a5 = u64 [s1 + 0x1b0]\n 23400: t0 = 848, jump @1947\n      : @856 [@dyn 424] (gas: 10)\n 23406: a2 = u64 [a4 + 0x98]\n 23410: a1 = a1 ^ a2\n 23413: a2 = u64 [a4 + 0xa0]\n 23417: a0 = a0 ^ a2\n 23420: a0 = a0 | a1\n 23423: a1 = u64 [a4 + 0xa8]\n 23427: a1 = a1 ^ a3\n 23430: a0 = a0 | a1\n 23433: a1 = 0x1\n 23436: jump @861 if a0 == 0\n      : @857 (gas: 9)\n 23439: a1 = s1 + 0x4138\n 23443: u64 [a1 + 1696] = 0\n 23447: u64 [a1 + 1688] = 0\n 23451: u64 [a1 + 1680] = 0\n 23455: u64 [a1 + 1672] = 0x3\n 23460: a0 = s1 + 0x7ff\n 23464: a0 = a0 + 0x3e1\n 23468: a1 = s1 + 0x47c0\n 23472: ra = 850, jump @21\n      : @858 [@dyn 425] (gas: 13)\n 23478: a0 = s1 + 0x7ff\n 23482: a0 = a0 + 0x139\n 23486: a1 = u64 [a0 + 0x2b0]\n 23490: u64 [s1 + 0x1a8] = a1\n 23494: a1 = u64 [a0 + 0x2a8]\n 23498: u64 [s1 + 0x1a0] = a1\n 23502: a0 = u32 [a0 + 0x2b8]\n 23506: u64 [s1 + 0x198] = a0\n 23510: a0 = u64 [s1 + 0x190]\n 23514: ra = 0x354\n 23518: ecalli 5 // 'caller'\n 23520: t0 = 0x356\n 23524: jump @1943\n      : @859 [@dyn 426] (gas: 1)\n 23527: t0 = 854, jump @1943\n      : @860 [@dyn 427] (gas: 2)\n 23533: a1 = a0 <u 0x1\n 23536: fallthrough\n      : @861 (gas: 9)\n 23537: a2 = s1 + 0x7ff\n 23541: a2 = a2 + 0x139\n 23545: u64 [a2 + 672] = 0\n 23549: u64 [a2 + 664] = 0\n 23553: u64 [a2 + 0x288] = a1\n 23557: a0 = s1 + 0x7ff\n 23561: a0 = a0 + 0x3c1\n 23565: u64 [a2 + 656] = 0\n 23569: ra = 856, jump @1799\n      : @862 [@dyn 428] (gas: 15)\n 23575: a0 = u64 [s1 + 0xf0]\n 23579: a2 = s1 + 0x7ff\n 23583: a2 = a2 + 0x139\n 23587: a3 = a2 + 0x200\n 23591: u64 [a3 + 0x80] = a0\n 23595: a0 = u64 [s1 + 0xe8]\n 23599: u64 [a3 + 0x78] = a0\n 23602: a0 = u64 [s1 + 0xe0]\n 23606: u64 [a3 + 0x70] = a0\n 23609: a1 = s1 + 0x7ff\n 23613: a1 = a1 + 0x3a1\n 23617: a0 = u64 [s1 + 0xd8]\n 23621: u64 [a3 + 0x68] = a0\n 23624: a0 = 0\n 23626: ra = 858, jump @19\n      : @863 [@dyn 429] (gas: 11)\n 23632: a0 = s1 + 0x7ff\n 23636: a0 = a0 + 0x139\n 23640: u64 [a0 + 608] = 0\n 23644: u64 [a0 + 600] = 0\n 23648: u64 [a0 + 592] = 0\n 23652: a2 = a0\n 23654: a0 = 0x20\n 23657: a1 = s1 + 0x7ff\n 23661: a1 = a1 + 0x381\n 23665: u64 [a2 + 584] = 0\n 23669: ra = 860, jump @19\n      : @864 [@dyn 430] (gas: 3)\n 23675: a0 = u64 [s1 + 0x118]\n 23679: a0 = i32 [a0]\n 23681: jump @866 if a0 >u 63\n      : @865 (gas: 4)\n 23685: a1 = u64 [s1 + 0x118]\n 23689: u32 [a1 + 0] = 0x40\n 23692: t0 = 0x35e\n 23696: jump @1992\n      : @866 (gas: 1)\n 23700: t0 = 862, jump @1992\n      : @867 [@dyn 431] (gas: 5)\n 23707: a0 = u64 [s1 + 0xd0]\n 23711: ra = 0x360\n 23715: ecalli 8 // 'hash_keccak_256'\n 23717: t0 = 0x362\n 23721: jump @1957\n      : @868 [@dyn 432] (gas: 1)\n 23725: t0 = 866, jump @1957\n      : @869 [@dyn 433] (gas: 2)\n 23732: a4 = a3 + 0x5\n 23735: t0 = 868, jump @1988\n      : @870 [@dyn 434] (gas: 8)\n 23742: u64 [a3 + 0xa8] = a4\n 23746: u64 [a3 + 0xb0] = a5\n 23750: u64 [a3 + 0xb8] = a2\n 23754: u64 [a3 + 0xc0] = a0\n 23758: a0 = s1 + 0x7ff\n 23762: a0 = a0 + 0x361\n 23766: a1 = s1 + 0x47e0\n 23770: ra = 870, jump @21\n      : @871 [@dyn 435] (gas: 21)\n 23776: a4 = s1 + 0x7ff\n 23780: a4 = a4 + 0x139\n 23784: a5 = a4 + 0x200\n 23788: a0 = u64 [a5 + 0x40]\n 23791: u64 [s1 + 0x110] = a0\n 23795: a1 = u64 [a5 + 0x38]\n 23798: u64 [s1 + 0x108] = a1\n 23802: a3 = u64 [a5 + 0x30]\n 23805: u64 [s1 + 0x100] = a3\n 23809: a2 = u64 [a5 + 0x28]\n 23812: u64 [s1 + 0xf8] = a2\n 23816: u64 [a5] = a0\n 23818: a5 = a4 + 0x100\n 23822: u64 [a5 + 0xf8] = a1\n 23826: u64 [a5 + 0xf0] = a3\n 23830: a0 = s1 + 0x7ff\n 23834: a0 = a0 + 0x341\n 23838: a1 = s1 + 0x7ff\n 23842: a1 = a1 + 0x321\n 23846: u64 [a5 + 0xe8] = a2\n 23850: ra = 872, jump @1820\n      : @872 [@dyn 436] (gas: 26)\n 23856: a1 = s1 + 0x7ff\n 23860: a1 = a1 + 0x139\n 23864: a2 = a1 + 0x200\n 23868: a0 = u64 [a2 + 0x20]\n 23871: u64 [s1 + 0x160] = a0\n 23875: a0 = u64 [a2 + 0x18]\n 23878: u64 [s1 + 0x168] = a0\n 23882: a0 = u64 [a2 + 0x10]\n 23885: u64 [s1 + 0x170] = a0\n 23889: a0 = u64 [a2 + 0x8]\n 23892: u64 [s1 + 0x178] = a0\n 23896: a0 = u64 [s1 + 0x110]\n 23900: a2 = a1 + 0x100\n 23904: u64 [a2 + 0xc0] = a0\n 23908: a0 = u64 [s1 + 0x108]\n 23912: u64 [a2 + 0xb8] = a0\n 23916: a0 = u64 [s1 + 0x100]\n 23920: u64 [a2 + 0xb0] = a0\n 23924: a3 = a1\n 23926: a0 = s1 + 0x7ff\n 23930: a0 = a0 + 0x301\n 23934: a1 = s1 + 0x7ff\n 23938: a1 = a1 + 0x2e1\n 23942: a2 = u64 [s1 + 0xf8]\n 23946: u64 [a3 + 0x1a8] = a2\n 23950: ra = 874, jump @1836\n      : @873 [@dyn 437] (gas: 25)\n 23956: a1 = s1 + 0x7ff\n 23960: a1 = a1 + 0x139\n 23964: a2 = a1 + 0x100\n 23968: a0 = u64 [a2 + 0xe0]\n 23972: u64 [s1 + 0x90] = a0\n 23976: a0 = u64 [a2 + 0xd8]\n 23980: u64 [s1 + 0x98] = a0\n 23984: a0 = u64 [a2 + 0xd0]\n 23988: u64 [s1 + 0xa0] = a0\n 23992: a0 = u64 [a2 + 0xc8]\n 23996: u64 [s1 + 0xa8] = a0\n 24000: a0 = u64 [s1 + 0x110]\n 24004: u64 [a2 + 0x80] = a0\n 24008: a0 = u64 [s1 + 0x108]\n 24012: u64 [a2 + 0x78] = a0\n 24015: a0 = u64 [s1 + 0x100]\n 24019: u64 [a2 + 0x70] = a0\n 24022: a3 = a1\n 24024: a0 = s1 + 0x7ff\n 24028: a0 = a0 + 0x2c1\n 24032: a1 = s1 + 0x7ff\n 24036: a1 = a1 + 0x2a1\n 24040: a2 = u64 [s1 + 0xf8]\n 24044: u64 [a3 + 0x168] = a2\n 24048: ra = 876, jump @1820\n      : @874 [@dyn 438] (gas: 25)\n 24054: a1 = s1 + 0x7ff\n 24058: a1 = a1 + 0x139\n 24062: a2 = a1 + 0x100\n 24066: a0 = u64 [a2 + 0xa0]\n 24070: u64 [s1 + 0x140] = a0\n 24074: a0 = u64 [a2 + 0x98]\n 24078: u64 [s1 + 0x148] = a0\n 24082: a0 = u64 [a2 + 0x90]\n 24086: u64 [s1 + 0x150] = a0\n 24090: a0 = u64 [a2 + 0x88]\n 24094: u64 [s1 + 0x158] = a0\n 24098: a0 = u64 [s1 + 0x110]\n 24102: u64 [a2 + 0x40] = a0\n 24105: a0 = u64 [s1 + 0x108]\n 24109: u64 [a2 + 0x38] = a0\n 24112: a0 = u64 [s1 + 0x100]\n 24116: u64 [a2 + 0x30] = a0\n 24119: a3 = a1\n 24121: a0 = s1 + 0x7ff\n 24125: a0 = a0 + 0x281\n 24129: a1 = s1 + 0x7ff\n 24133: a1 = a1 + 0x261\n 24137: a2 = u64 [s1 + 0xf8]\n 24141: u64 [a3 + 0x128] = a2\n 24145: ra = 878, jump @1791\n      : @875 [@dyn 439] (gas: 15)\n 24151: a1 = s1 + 0x7ff\n 24155: a1 = a1 + 0x139\n 24159: a2 = a1 + 0x100\n 24163: a0 = u64 [a2 + 0x48]\n 24166: u64 [s1 + 0x1b0] = a0\n 24170: a0 = u64 [a2 + 0x50]\n 24173: u64 [s1 + 0x1a8] = a0\n 24177: a0 = u64 [a2 + 0x58]\n 24180: u64 [s1 + 0x1a0] = a0\n 24184: a0 = u64 [a2 + 0x60]\n 24187: u64 [s1 + 0x198] = a0\n 24191: a0 = s1 + 0x7ff\n 24195: a0 = a0 + 0x241\n 24199: a1 = 0x40\n 24202: ra = 880, jump @17\n      : @876 [@dyn 440] (gas: 28)\n 24208: a0 = s1 + 0x7ff\n 24212: a0 = a0 + 0x139\n 24216: a1 = u64 [a0 + 0x120]\n 24220: u64 [s1 + 0xc0] = a1\n 24224: a4 = u64 [a0 + 0x118]\n 24228: u64 [s1 + 0xb8] = a4\n 24232: a3 = u64 [a0 + 0x110]\n 24236: u64 [s1 + 0xb0] = a3\n 24240: a5 = u64 [a0 + 0x108]\n 24244: u64 [s1 + 0xc8] = a5\n 24248: a2 = u64 [s1 + 0x198]\n 24252: u64 [a0 + 0xe0] = a2\n 24256: a2 = u64 [s1 + 0x1a0]\n 24260: u64 [a0 + 0xd8] = a2\n 24264: a2 = u64 [s1 + 0x1a8]\n 24268: u64 [a0 + 0xd0] = a2\n 24272: a2 = u64 [s1 + 0x1b0]\n 24276: u64 [a0 + 0xc8] = a2\n 24280: u64 [a0 + 0x100] = a1\n 24284: u64 [a0 + 0xf8] = a4\n 24288: u64 [a0 + 0xf0] = a3\n 24292: a2 = a0\n 24294: a0 = s1 + 0x7ff\n 24298: a0 = a0 + 0x221\n 24302: a1 = s1 + 0x7ff\n 24306: a1 = a1 + 0x201\n 24310: u64 [a2 + 0xe8] = a5\n 24314: ra = 882, jump @1749\n      : @877 [@dyn 441] (gas: 6)\n 24320: a3 = u64 [s1 + 0xb8]\n 24324: a0 = u64 [s1 + 0xc8]\n 24328: a1 = u64 [s1 + 0xc0]\n 24332: a2 = u64 [s1 + 0xb0]\n 24336: a2 = a2 | a1\n 24339: t0 = 884, jump @2004\n      : @878 [@dyn 442] (gas: 1)\n 24346: jump @880 if a1 == 0\n      : @879 (gas: 1)\n 24349: jump @1603\n      : @880 (gas: 13)\n 24352: a2 = s1 + 0x7ff\n 24356: a2 = a2 + 0x139\n 24360: a1 = u64 [s1 + 0xf8]\n 24364: u64 [a2 + 0xa8] = a1\n 24368: a1 = u64 [s1 + 0x100]\n 24372: u64 [a2 + 0xb0] = a1\n 24376: a1 = u64 [s1 + 0x108]\n 24380: u64 [a2 + 0xb8] = a1\n 24384: a1 = s1 + 0x7ff\n 24388: a1 = a1 + 0x1e1\n 24392: a3 = u64 [s1 + 0x110]\n 24396: u64 [a2 + 0xc0] = a3\n 24400: ra = 886, jump @19\n      : @881 [@dyn 443] (gas: 16)\n 24406: a3 = s1 + 0x7ff\n 24410: a3 = a3 + 0x139\n 24414: a1 = s1 + 0x100\n 24418: a0 = u64 [a1 + 0x10]\n 24421: u64 [a3 + 0x80] = a0\n 24425: a0 = u64 [a1 + 0x8]\n 24428: u64 [a3 + 0x78] = a0\n 24431: a0 = u64 [a1]\n 24433: u64 [a3 + 0x70] = a0\n 24436: a0 = s1 + 0x7ff\n 24440: a0 = a0 + 0x1c1\n 24444: a1 = s1 + 0x7ff\n 24448: a1 = a1 + 0x1a1\n 24452: a2 = u64 [s1 + 0xf8]\n 24456: u64 [a3 + 0x68] = a2\n 24459: ra = 888, jump @1791\n      : @882 [@dyn 444] (gas: 27)\n 24465: a3 = s1 + 0x7ff\n 24469: a3 = a3 + 0x139\n 24473: a0 = u64 [a3 + 0x88]\n 24477: a1 = u64 [a3 + 0xa0]\n 24481: a2 = u64 [a3 + 0x90]\n 24485: a3 = u64 [a3 + 0x98]\n 24489: t0 = a0 + 0xffffffffffffffe0\n 24492: a0 = t0 <u a0\n 24495: a4 = a2 + a0\n 24498: a4 = a4 + 0xffffffffffffffff\n 24501: a5 = a4 ^ a2\n 24504: a2 = a4 <u a2\n 24507: a2 = a0 if a5 == 0\n 24510: a0 = a3 + 0xffffffffffffffff\n 24513: a2 = a2 + a0\n 24516: a0 = a2 <u a0\n 24519: a3 = a3 <u 0x1\n 24522: a1 = a1 - a3\n 24525: a0 = a0 + a1\n 24528: a1 = t0 | a2\n 24531: a0 = a0 | a4\n 24534: a1 = a1 | a0\n 24537: a1 = a1 >> 0x20\n 24540: a0 = a0 | a2\n 24543: a0 = a0 << 0x20\n 24546: a0 = a0 | a1\n 24549: jump @884 if a0 == 0\n      : @883 (gas: 1)\n 24552: jump @1603\n      : @884 (gas: 10)\n 24555: a2 = u64 [s1 + 0xc0]\n 24559: a4 = u64 [s1 + 0xb8]\n 24563: a0 = a4 | a2\n 24566: a1 = 0xffffffe0\n 24576: a5 = u64 [s1 + 0xc8]\n 24580: a1 = a5 <u a1\n 24583: a3 = u64 [s1 + 0xb0]\n 24587: a1 = 0 if a3 != 0\n 24589: a1 = 0 if a0 != 0\n 24591: jump @886 if a1 != 0\n      : @885 (gas: 1)\n 24594: jump @1603\n      : @886 (gas: 22)\n 24597: a0 = a5\n 24599: a5 = a3\n 24601: a3 = a2\n 24603: a2 = a0 + 0x20\n 24606: a0 = a2 <u a0\n 24609: a1 = a5 + a0\n 24612: u64 [s1 + 0x58] = a1\n 24615: a1 = a1 <u a5\n 24618: a1 = a0 if a0 == 0\n 24621: a0 = u64 [s1 + 0x1b8]\n 24625: a0 = i32 [a0]\n 24627: u64 [s1 + 0x1b8] = a0\n 24631: a1 = a1 + a4\n 24634: u64 [s1 + 0x50] = a1\n 24637: a0 = a1 <u a4\n 24640: a0 = a0 + a3\n 24643: u64 [s1 + 0x60] = a0\n 24646: u64 [s1 + 0x68] = a2\n 24649: a0 = a2\n 24651: a1 = t0\n 24653: u64 [s1 + 0x1b0] = t0\n 24657: ra = 890, jump @28\n      : @887 [@dyn 445] (gas: 20)\n 24663: i32 a0 = a0 + 0\n 24665: a1 = i32 [s1 + 0x1b0]\n 24669: a2 = u64 [s1 + 0x1b8]\n 24673: ecalli 2 // 'call_data_copy'\n 24675: a3 = s1 + 0x7ff\n 24679: a3 = a3 + 0x139\n 24683: a1 = s1 + 0x100\n 24687: a0 = u64 [a1 + 0x10]\n 24690: u64 [a3 + 0x40] = a0\n 24693: a0 = u64 [a1 + 0x8]\n 24696: u64 [a3 + 0x38] = a0\n 24699: a0 = u64 [a1]\n 24701: u64 [a3 + 0x30] = a0\n 24704: a0 = s1 + 0x7ff\n 24708: a0 = a0 + 0x181\n 24712: a1 = s1 + 0x7ff\n 24716: a1 = a1 + 0x161\n 24720: a2 = u64 [s1 + 0xf8]\n 24724: u64 [a3 + 0x28] = a2\n 24727: ra = 892, jump @1836\n      : @888 [@dyn 446] (gas: 15)\n 24733: a1 = s1 + 0x7ff\n 24737: a1 = a1 + 0x139\n 24741: a0 = u64 [a1 + 0x60]\n 24744: u64 [s1 + 0x70] = a0\n 24747: a0 = u64 [a1 + 0x58]\n 24750: u64 [s1 + 0x78] = a0\n 24753: a0 = u64 [a1 + 0x50]\n 24756: u64 [s1 + 0x80] = a0\n 24760: a0 = u64 [a1 + 0x48]\n 24763: u64 [s1 + 0x88] = a0\n 24767: t0 = 0\n 24769: t1 = 0\n 24771: t2 = 0\n 24773: a5 = 0\n 24775: fallthrough\n      : @889 (gas: 16)\n 24776: a0 = u64 [s1 + 0xf8]\n 24780: a0 = t0 <u a0\n 24783: a2 = u64 [s1 + 0x100]\n 24787: a1 = t1 ^ a2\n 24790: a2 = t1 <u a2\n 24793: a2 = a0 if a1 == 0\n 24796: a4 = u64 [s1 + 0x108]\n 24800: a0 = t2 <u a4\n 24803: a3 = u64 [s1 + 0x110]\n 24807: a1 = a5 ^ a3\n 24810: a3 = a5 <u a3\n 24813: a3 = a0 if a1 == 0\n 24816: a0 = t2 ^ a4\n 24819: a0 = a0 | a1\n 24822: a3 = a2 if a0 == 0\n 24825: jump @891 if a3 != 0\n      : @890 (gas: 1)\n 24828: jump @1093\n      : @891 (gas: 16)\n 24831: u64 [s1 + 0x1a0] = t2\n 24835: u64 [s1 + 0x1a8] = a5\n 24839: u64 [s1 + 0x1b0] = t1\n 24843: u64 [s1 + 0x1b8] = t0\n 24847: a0 = u64 [s1 + 0xd8]\n 24851: a2 = s1 + 0x600\n 24855: u64 [a2 + 0x80] = a0\n 24859: a0 = u64 [s1 + 0xe0]\n 24863: u64 [a2 + 0x88] = a0\n 24867: a0 = u64 [s1 + 0xe8]\n 24871: u64 [a2 + 0x90] = a0\n 24875: a1 = s1 + 0x680\n 24879: a0 = u64 [s1 + 0xf0]\n 24883: u64 [a2 + 0x98] = a0\n 24887: a0 = 0\n 24889: ra = 894, jump @19\n      : @892 [@dyn 447] (gas: 7)\n 24895: u64 [s1 + 1656] = 0\n 24899: u64 [s1 + 1648] = 0\n 24903: u64 [s1 + 1640] = 0\n 24907: a0 = 0x20\n 24910: a1 = s1 + 0x660\n 24914: u64 [s1 + 1632] = 0\n 24918: ra = 896, jump @19\n      : @893 [@dyn 448] (gas: 3)\n 24924: a0 = u64 [s1 + 0x118]\n 24928: a0 = i32 [a0]\n 24930: jump @895 if a0 >u 63\n      : @894 (gas: 3)\n 24934: a0 = u64 [s1 + 0x118]\n 24938: u32 [a0 + 0] = 0x40\n 24941: fallthrough\n      : @895 (gas: 12)\n 24942: a0 = sp + 0xffffffffffffffe0\n 24945: a0 = a0 & 0xffffffffffffffe0\n 24948: u64 [s1 + 0x198] = a0\n 24952: sp = a0\n 24954: i32 a2 = a0 + 0\n 24956: a1 = 0x40\n 24959: a0 = u64 [s1 + 0xd0]\n 24963: ra = 0x382\n 24967: ecalli 8 // 'hash_keccak_256'\n 24969: a3 = u64 [s1 + 0x198]\n 24973: t0 = 0x384\n 24977: jump @1949\n      : @896 [@dyn 449] (gas: 2)\n 24980: a3 = u64 [s1 + 0x198]\n 24984: t0 = 900, jump @1949\n      : @897 [@dyn 450] (gas: 16)\n 24990: a0 = u64 [s1 + 0x1a8]\n 24994: u64 [s1 + 0x5f8] = a0\n 24998: a0 = u64 [s1 + 0x1a0]\n 25002: u64 [s1 + 0x5f0] = a0\n 25006: a0 = u64 [s1 + 0x1b0]\n 25010: u64 [s1 + 0x5e8] = a0\n 25014: a0 = u64 [s1 + 0x1b8]\n 25018: u64 [s1 + 0x5e0] = a0\n 25022: u64 [s1 + 0x600] = a4\n 25026: u64 [s1 + 0x608] = a5\n 25030: u64 [s1 + 0x610] = a2\n 25034: a0 = s1 + 0x620\n 25038: a1 = s1 + 0x600\n 25042: a2 = s1 + 0x5e0\n 25046: u64 [s1 + 0x618] = a3\n 25050: ra = 902, jump @1847\n      : @898 [@dyn 451] (gas: 16)\n 25056: a4 = s1 + 0x600\n 25060: a3 = u64 [a4 + 0x20]\n 25063: a2 = u64 [a4 + 0x28]\n 25066: a0 = u64 [a4 + 0x30]\n 25069: a1 = u64 [a4 + 0x38]\n 25072: u64 [s1 + 0x190] = a1\n 25076: u64 [s1 + 0x5b8] = a1\n 25080: u64 [s1 + 0x198] = a0\n 25084: u64 [s1 + 0x5b0] = a0\n 25088: u64 [s1 + 0x188] = a2\n 25092: u64 [s1 + 0x5a8] = a2\n 25096: a0 = s1 + 0x5c0\n 25100: a1 = s1 + 0x5a0\n 25104: u64 [s1 + 0x180] = a3\n 25108: u64 [s1 + 0x5a0] = a3\n 25112: ra = 904, jump @1877\n      : @899 [@dyn 452] (gas: 29)\n 25118: a0 = u64 [s1 + 0x5d8]\n 25122: a4 = s1 + 0x100\n 25126: u64 [a4 + 0x38] = a0\n 25129: a0 = u64 [s1 + 0x5d0]\n 25133: u64 [a4 + 0x30] = a0\n 25136: a0 = u64 [s1 + 0x5c8]\n 25140: u64 [a4 + 0x28] = a0\n 25143: a0 = u64 [s1 + 0x5c0]\n 25147: u64 [a4 + 0x20] = a0\n 25150: a0 = u64 [a4 + 0xa8]\n 25154: u64 [s1 + 0x558] = a0\n 25158: a0 = u64 [a4 + 0xa0]\n 25162: u64 [s1 + 0x550] = a0\n 25166: a0 = u64 [a4 + 0xb0]\n 25170: u64 [s1 + 0x548] = a0\n 25174: a0 = u64 [a4 + 0xb8]\n 25178: u64 [s1 + 0x540] = a0\n 25182: a0 = u64 [a4 + 0x60]\n 25185: u64 [s1 + 0x578] = a0\n 25189: a0 = u64 [a4 + 0x68]\n 25192: u64 [s1 + 0x570] = a0\n 25196: a0 = u64 [a4 + 0x70]\n 25199: u64 [s1 + 0x568] = a0\n 25203: a0 = s1 + 0x580\n 25207: a1 = s1 + 0x560\n 25211: a2 = s1 + 0x540\n 25215: a3 = u64 [a4 + 0x78]\n 25218: u64 [s1 + 0x560] = a3\n 25222: ra = 906, jump @1858\n      : @900 [@dyn 453] (gas: 6)\n 25228: a4 = s1 + 0x500\n 25232: a1 = u64 [a4 + 0x98]\n 25236: a2 = u64 [a4 + 0x90]\n 25240: a3 = u64 [a4 + 0x88]\n 25244: a0 = u64 [a4 + 0x80]\n 25248: t0 = 908, jump @1955\n      : @901 [@dyn 454] (gas: 1)\n 25254: jump @903 if a1 == 0\n      : @902 (gas: 1)\n 25257: jump @1603\n      : @903 (gas: 11)\n 25260: a1 = u64 [s1 + 0x120]\n 25264: a3 = s1 + 0x500\n 25268: u64 [a3 + 0x20] = a1\n 25271: a1 = u64 [s1 + 0x128]\n 25275: u64 [a3 + 0x28] = a1\n 25278: a1 = u64 [s1 + 0x130]\n 25282: u64 [a3 + 0x30] = a1\n 25285: a1 = s1 + 0x520\n 25289: a2 = u64 [s1 + 0x138]\n 25293: u64 [a3 + 0x38] = a2\n 25296: ra = 910, jump @19\n      : @904 [@dyn 455] (gas: 20)\n 25302: a0 = u64 [s1 + 0x1a8]\n 25306: u64 [s1 + 0x4d8] = a0\n 25310: a0 = u64 [s1 + 0x1a0]\n 25314: u64 [s1 + 0x4d0] = a0\n 25318: a0 = u64 [s1 + 0x1b0]\n 25322: u64 [s1 + 0x4c8] = a0\n 25326: a0 = u64 [s1 + 0x1b8]\n 25330: u64 [s1 + 0x4c0] = a0\n 25334: a0 = u64 [s1 + 0x160]\n 25338: u64 [s1 + 0x4f8] = a0\n 25342: a0 = u64 [s1 + 0x168]\n 25346: u64 [s1 + 0x4f0] = a0\n 25350: a0 = u64 [s1 + 0x170]\n 25354: u64 [s1 + 0x4e8] = a0\n 25358: a0 = s1 + 0x500\n 25362: a1 = s1 + 0x4e0\n 25366: a2 = s1 + 0x4c0\n 25370: a3 = u64 [s1 + 0x178]\n 25374: u64 [s1 + 0x4e0] = a3\n 25378: ra = 912, jump @1858\n      : @905 [@dyn 456] (gas: 21)\n 25384: a0 = u64 [s1 + 0x180]\n 25388: a0 = a0 + 0x1\n 25391: a1 = a0 <u 0x1\n 25394: a2 = u64 [s1 + 0x188]\n 25398: a1 = a1 + a2\n 25401: a2 = a0 | a1\n 25404: a2 = a2 <u 0x1\n 25407: a3 = u64 [s1 + 0x198]\n 25411: a2 = a2 + a3\n 25414: a3 = a2 <u a3\n 25417: a4 = u64 [s1 + 0x190]\n 25421: a3 = a3 + a4\n 25424: a4 = s1 + 0x4138\n 25428: a5 = a4 + 0x600\n 25432: u64 [a5 + 0xe0] = a3\n 25436: u64 [a5 + 0xd8] = a2\n 25440: u64 [a5 + 0xd0] = a1\n 25444: u64 [a5 + 0xc8] = a0\n 25448: a0 = s1 + 0x4a0\n 25452: a1 = s1 + 0x4800\n 25456: ra = 914, jump @21\n      : @906 [@dyn 457] (gas: 29)\n 25462: a0 = u64 [s1 + 0x4b8]\n 25466: a1 = s1 + 0x100\n 25470: u64 [a1 + 0x38] = a0\n 25473: a0 = u64 [s1 + 0x4b0]\n 25477: u64 [a1 + 0x30] = a0\n 25480: a0 = u64 [s1 + 0x4a8]\n 25484: u64 [a1 + 0x28] = a0\n 25487: a0 = u64 [s1 + 0x4a0]\n 25491: u64 [a1 + 0x20] = a0\n 25494: a0 = u64 [a1 + 0xa8]\n 25498: u64 [s1 + 0x458] = a0\n 25502: a0 = u64 [a1 + 0xa0]\n 25506: u64 [s1 + 0x450] = a0\n 25510: a0 = u64 [a1 + 0xb0]\n 25514: u64 [s1 + 0x448] = a0\n 25518: a0 = u64 [a1 + 0xb8]\n 25522: u64 [s1 + 0x440] = a0\n 25526: a0 = u64 [s1 + 0x90]\n 25530: u64 [s1 + 0x478] = a0\n 25534: a0 = u64 [s1 + 0x98]\n 25538: u64 [s1 + 0x470] = a0\n 25542: a0 = u64 [s1 + 0xa0]\n 25546: u64 [s1 + 0x468] = a0\n 25550: a0 = s1 + 0x480\n 25554: a1 = s1 + 0x460\n 25558: a2 = s1 + 0x440\n 25562: a3 = u64 [s1 + 0xa8]\n 25566: u64 [s1 + 0x460] = a3\n 25570: ra = 916, jump @1858\n      : @907 [@dyn 458] (gas: 6)\n 25576: a4 = s1 + 0x400\n 25580: a1 = u64 [a4 + 0x98]\n 25584: a2 = u64 [a4 + 0x90]\n 25588: a3 = u64 [a4 + 0x88]\n 25592: a0 = u64 [a4 + 0x80]\n 25596: t0 = 918, jump @1955\n      : @908 [@dyn 459] (gas: 1)\n 25602: jump @910 if a1 == 0\n      : @909 (gas: 1)\n 25605: jump @1603\n      : @910 (gas: 10)\n 25608: a1 = u64 [s1 + 0x120]\n 25612: u64 [s1 + 0x420] = a1\n 25616: a1 = u64 [s1 + 0x128]\n 25620: u64 [s1 + 0x428] = a1\n 25624: a1 = u64 [s1 + 0x130]\n 25628: u64 [s1 + 0x430] = a1\n 25632: a1 = s1 + 0x420\n 25636: a2 = u64 [s1 + 0x138]\n 25640: u64 [s1 + 0x438] = a2\n 25644: ra = 920, jump @19\n      : @911 [@dyn 460] (gas: 19)\n 25650: a1 = u64 [s1 + 0x180]\n 25654: a0 = a1 + 0x2\n 25657: a1 = a0 <u a1\n 25660: a3 = u64 [s1 + 0x188]\n 25664: a2 = a3 + a1\n 25667: a3 = a2 <u a3\n 25670: a3 = a1 if a1 == 0\n 25673: a1 = u64 [s1 + 0x198]\n 25677: a3 = a3 + a1\n 25680: a1 = a3 <u a1\n 25683: a4 = u64 [s1 + 0x190]\n 25687: a4 = a4 + a1\n 25690: u64 [s1 + 0x3f0] = a3\n 25694: u64 [s1 + 0x3e8] = a2\n 25698: u64 [s1 + 0x3e0] = a0\n 25702: a0 = s1 + 0x400\n 25706: a1 = s1 + 0x3e0\n 25710: u64 [s1 + 0x3f8] = a4\n 25714: ra = 922, jump @1877\n      : @912 [@dyn 461] (gas: 30)\n 25720: a1 = s1 + 0x400\n 25724: a0 = u64 [a1 + 0x18]\n 25727: a4 = s1 + 0x100\n 25731: u64 [a4 + 0x38] = a0\n 25734: a0 = u64 [a1 + 0x10]\n 25737: u64 [a4 + 0x30] = a0\n 25740: a0 = u64 [a1 + 0x8]\n 25743: u64 [a4 + 0x28] = a0\n 25746: a0 = u64 [a1]\n 25748: u64 [a4 + 0x20] = a0\n 25751: a0 = u64 [a4 + 0xa8]\n 25755: u64 [s1 + 0x398] = a0\n 25759: a0 = u64 [a4 + 0xa0]\n 25763: u64 [s1 + 0x390] = a0\n 25767: a0 = u64 [a4 + 0xb0]\n 25771: u64 [s1 + 0x388] = a0\n 25775: a0 = u64 [a4 + 0xb8]\n 25779: u64 [s1 + 0x380] = a0\n 25783: a0 = u64 [a4 + 0x40]\n 25786: u64 [s1 + 0x3b8] = a0\n 25790: a0 = u64 [a4 + 0x48]\n 25793: u64 [s1 + 0x3b0] = a0\n 25797: a0 = u64 [a4 + 0x50]\n 25800: u64 [s1 + 0x3a8] = a0\n 25804: a0 = s1 + 0x3c0\n 25808: a1 = s1 + 0x3a0\n 25812: a2 = s1 + 0x380\n 25816: a3 = u64 [a4 + 0x58]\n 25819: u64 [s1 + 0x3a0] = a3\n 25823: ra = 924, jump @1858\n      : @913 [@dyn 462] (gas: 6)\n 25829: a4 = s1 + 0x300\n 25833: a1 = u64 [a4 + 0xd8]\n 25837: a2 = u64 [a4 + 0xd0]\n 25841: a3 = u64 [a4 + 0xc8]\n 25845: a0 = u64 [a4 + 0xc0]\n 25849: t0 = 926, jump @1955\n      : @914 [@dyn 463] (gas: 1)\n 25855: jump @916 if a1 == 0\n      : @915 (gas: 1)\n 25858: jump @1603\n      : @916 (gas: 10)\n 25861: a1 = u64 [s1 + 0x120]\n 25865: u64 [s1 + 0x360] = a1\n 25869: a1 = u64 [s1 + 0x128]\n 25873: u64 [s1 + 0x368] = a1\n 25877: a1 = u64 [s1 + 0x130]\n 25881: u64 [s1 + 0x370] = a1\n 25885: a1 = s1 + 0x360\n 25889: a2 = u64 [s1 + 0x138]\n 25893: u64 [s1 + 0x378] = a2\n 25897: ra = 928, jump @19\n      : @917 [@dyn 464] (gas: 21)\n 25903: a0 = u64 [s1 + 0x1a8]\n 25907: a4 = s1 + 0x300\n 25911: u64 [a4 + 0x18] = a0\n 25914: a0 = u64 [s1 + 0x1a0]\n 25918: u64 [a4 + 0x10] = a0\n 25921: a0 = u64 [s1 + 0x1b0]\n 25925: u64 [a4 + 0x8] = a0\n 25928: a0 = u64 [s1 + 0x1b8]\n 25932: u64 [a4] = a0\n 25934: a0 = u64 [s1 + 0x140]\n 25938: u64 [a4 + 0x38] = a0\n 25941: a0 = u64 [s1 + 0x148]\n 25945: u64 [a4 + 0x30] = a0\n 25948: a0 = u64 [s1 + 0x150]\n 25952: u64 [a4 + 0x28] = a0\n 25955: a0 = s1 + 0x340\n 25959: a1 = s1 + 0x320\n 25963: a2 = s1 + 0x300\n 25967: a3 = u64 [s1 + 0x158]\n 25971: u64 [a4 + 0x20] = a3\n 25974: ra = 930, jump @1858\n      : @918 [@dyn 465] (gas: 3)\n 25980: a1 = u64 [s1 + 0x180]\n 25984: a0 = a1 + 0x3\n 25987: t0 = 932, jump @1972\n      : @919 [@dyn 466] (gas: 8)\n 25993: u64 [a4 + 0x700] = a1\n 25997: a1 = a4 + 0x600\n 26001: u64 [a1 + 0xf8] = a3\n 26005: u64 [a1 + 0xf0] = a2\n 26009: u64 [a1 + 0xe8] = a0\n 26013: a0 = s1 + 0x2e0\n 26017: a1 = s1 + 0x4820\n 26021: ra = 934, jump @21\n      : @920 [@dyn 467] (gas: 23)\n 26027: a0 = u64 [s1 + 0x2e0]\n 26031: a1 = s1 + 0x100\n 26035: u64 [a1 + 0x38] = a0\n 26038: a0 = u64 [a1 + 0xa8]\n 26042: u64 [s1 + 0x298] = a0\n 26046: a0 = u64 [a1 + 0xa0]\n 26050: u64 [s1 + 0x290] = a0\n 26054: a0 = u64 [a1 + 0xb0]\n 26058: u64 [s1 + 0x288] = a0\n 26062: a0 = u64 [a1 + 0xb8]\n 26066: u64 [s1 + 0x280] = a0\n 26070: a0 = u64 [s1 + 0xc0]\n 26074: u64 [s1 + 0x2b8] = a0\n 26078: a0 = u64 [s1 + 0xb8]\n 26082: u64 [s1 + 0x2b0] = a0\n 26086: a0 = u64 [s1 + 0xb0]\n 26090: u64 [s1 + 0x2a8] = a0\n 26094: a0 = s1 + 0x2c0\n 26098: a1 = s1 + 0x2a0\n 26102: a2 = s1 + 0x280\n 26106: a3 = u64 [s1 + 0xc8]\n 26110: u64 [s1 + 0x2a0] = a3\n 26114: ra = 936, jump @1858\n      : @921 [@dyn 468] (gas: 6)\n 26120: a4 = s1 + 0x200\n 26124: a1 = u64 [a4 + 0xd8]\n 26128: a2 = u64 [a4 + 0xd0]\n 26132: a3 = u64 [a4 + 0xc8]\n 26136: a0 = u64 [a4 + 0xc0]\n 26140: t0 = 938, jump @1955\n      : @922 [@dyn 469] (gas: 1)\n 26146: jump @924 if a1 == 0\n      : @923 (gas: 1)\n 26149: jump @1603\n      : @924 (gas: 8)\n 26152: a1 = u8 [s1 + 0x138]\n 26156: a1 = a1 >u 0\n 26158: u64 [s1 + 632] = 0\n 26162: u64 [s1 + 624] = 0\n 26166: u64 [s1 + 0x260] = a1\n 26170: a1 = s1 + 0x260\n 26174: u64 [s1 + 616] = 0\n 26178: ra = 940, jump @19\n      : @925 [@dyn 470] (gas: 3)\n 26184: a1 = u64 [s1 + 0x180]\n 26188: a0 = a1 + 0x4\n 26191: t0 = 942, jump @1972\n      : @926 [@dyn 471] (gas: 8)\n 26197: a5 = a4 + 0x700\n 26201: u64 [a5 + 0x10] = a2\n 26204: u64 [a5 + 0x8] = a0\n 26207: u64 [a5 + 0x18] = a3\n 26210: u64 [a5 + 0x20] = a1\n 26213: a0 = s1 + 0x240\n 26217: a1 = s1 + 0x4840\n 26221: ra = 944, jump @21\n      : @927 [@dyn 472] (gas: 29)\n 26227: a0 = u64 [s1 + 0x258]\n 26231: a1 = s1 + 0x100\n 26235: u64 [a1 + 0x98] = a0\n 26239: a0 = u64 [s1 + 0x250]\n 26243: u64 [a1 + 0x90] = a0\n 26247: a0 = u64 [s1 + 0x248]\n 26251: u64 [a1 + 0x88] = a0\n 26255: a0 = u64 [s1 + 0x240]\n 26259: u64 [a1 + 0x80] = a0\n 26263: a0 = u64 [a1 + 0xa8]\n 26267: u64 [a1 + 0xf8] = a0\n 26271: a0 = u64 [a1 + 0xa0]\n 26275: u64 [a1 + 0xf0] = a0\n 26279: a0 = u64 [a1 + 0xb0]\n 26283: u64 [a1 + 0xe8] = a0\n 26287: a0 = u64 [a1 + 0xb8]\n 26291: u64 [a1 + 0xe0] = a0\n 26295: a0 = u64 [s1 + 0x70]\n 26298: u64 [s1 + 0x218] = a0\n 26302: a0 = u64 [s1 + 0x78]\n 26305: u64 [s1 + 0x210] = a0\n 26309: a0 = u64 [s1 + 0x80]\n 26313: u64 [s1 + 0x208] = a0\n 26317: a0 = s1 + 0x220\n 26321: a1 = s1 + 0x200\n 26325: a2 = s1 + 0x1e0\n 26329: a3 = u64 [s1 + 0x88]\n 26333: u64 [s1 + 0x200] = a3\n 26337: ra = 946, jump @1858\n      : @928 [@dyn 473] (gas: 6)\n 26343: a4 = s1 + 0x200\n 26347: a1 = u64 [a4 + 0x38]\n 26350: a2 = u64 [a4 + 0x30]\n 26353: a3 = u64 [a4 + 0x28]\n 26356: a0 = u64 [a4 + 0x20]\n 26359: t0 = 948, jump @1955\n      : @929 [@dyn 474] (gas: 1)\n 26365: jump @931 if a1 == 0\n      : @930 (gas: 1)\n 26368: jump @1603\n      : @931 (gas: 10)\n 26371: a1 = u64 [s1 + 0x180]\n 26375: u64 [s1 + 0x1c0] = a1\n 26379: a1 = u64 [s1 + 0x188]\n 26383: u64 [s1 + 0x1c8] = a1\n 26387: a1 = u64 [s1 + 0x190]\n 26391: u64 [s1 + 0x1d0] = a1\n 26395: a1 = s1 + 0x1c0\n 26399: a2 = u64 [s1 + 0x198]\n 26403: u64 [s1 + 0x1d8] = a2\n 26407: ra = 950, jump @19\n      : @932 [@dyn 475] (gas: 14)\n 26413: t0 = u64 [s1 + 0x1b8]\n 26417: t0 = t0 + 0x1\n 26420: a0 = t0 <u 0x1\n 26423: t1 = u64 [s1 + 0x1b0]\n 26427: t1 = t1 + a0\n 26430: a0 = t0 | t1\n 26433: a0 = a0 <u 0x1\n 26436: a1 = u64 [s1 + 0x1a0]\n 26440: a0 = a0 + a1\n 26443: a1 = a0 <u a1\n 26446: a5 = u64 [s1 + 0x1a8]\n 26450: a5 = a5 + a1\n 26453: t2 = a0\n 26455: jump @889\n      : @933 (gas: 6)\n 26458: a0 = a2 | a1\n 26461: a0 = a0 >> 0x20\n 26464: a1 = a1 | a5\n 26467: a1 = a1 << 0x20\n 26470: a0 = a0 | a1\n 26473: jump @935 if a0 == 0\n      : @934 (gas: 1)\n 26476: jump @1603\n      : @935 (gas: 11)\n 26479: u64 [t0 + 1624] = 0\n 26483: u64 [t0 + 1616] = 0\n 26487: u64 [t0 + 1608] = 0\n 26491: a0 = 0x8c379a000000000\n 26501: a1 = s1 + 0x3f80\n 26505: u64 [t0 + 0x660] = a0\n 26509: a0 = t1\n 26511: u64 [s1 + 0x1b0] = t1\n 26515: u64 [s1 + 0x1a8] = a4\n 26519: u64 [s1 + 0x1a0] = t2\n 26523: ra = 952, jump @19\n      : @936 [@dyn 476] (gas: 10)\n 26529: a4 = s1 + 0x100\n 26533: a1 = u64 [a4 + 0xb0]\n 26537: a3 = 0x100000000\n 26547: a0 = 0xfffffffc\n 26557: a0 = a1 <u a0\n 26560: a2 = u64 [a4 + 0xa0]\n 26564: a0 = 0 if a2 != 0\n 26566: a2 = u64 [a4 + 0xa8]\n 26570: a0 = 0 if a2 != 0\n 26572: jump @938 if a0 != 0\n      : @937 (gas: 1)\n 26575: jump @1603\n      : @938 (gas: 9)\n 26578: i32 a0 = a1 + 0x4\n 26581: a2 = s1 + 0x3938\n 26585: u64 [a2 + 1600] = 0\n 26589: u64 [a2 + 1592] = 0\n 26593: u64 [a2 + 1576] = 0x20\n 26598: a1 = s1 + 0x3f60\n 26602: u64 [a2 + 1584] = 0\n 26606: u64 [s1 + 0x1b8] = a3\n 26610: ra = 954, jump @19\n      : @939 [@dyn 477] (gas: 10)\n 26616: a4 = s1 + 0x100\n 26620: a3 = u64 [a4 + 0xa0]\n 26624: a2 = u64 [a4 + 0xa8]\n 26628: a1 = u64 [a4 + 0xb0]\n 26632: a0 = u64 [a4 + 0xb8]\n 26636: a0 = a0 + 0xffffffffffffffdc\n 26639: a0 = a1 <u a0\n 26642: a0 = 0 if a3 != 0\n 26644: a0 = 0 if a2 != 0\n 26646: jump @941 if a0 != 0\n      : @940 (gas: 1)\n 26649: jump @1603\n      : @941 (gas: 8)\n 26652: i32 a0 = a1 + 0x24\n 26655: a4 = s1 + 0x3938\n 26659: u64 [a4 + 1568] = 0\n 26663: u64 [a4 + 1560] = 0\n 26667: u64 [a4 + 1544] = 0x12\n 26672: a1 = s1 + 0x3f40\n 26676: u64 [a4 + 1552] = 0\n 26680: ra = 956, jump @19\n      : @942 [@dyn 478] (gas: 9)\n 26686: a2 = s1 + 0x100\n 26690: a3 = u64 [a2 + 0xb0]\n 26694: a0 = 0xffffffbc\n 26704: a0 = a3 <u a0\n 26707: a1 = u64 [a2 + 0xa0]\n 26711: a0 = 0 if a1 != 0\n 26713: a1 = u64 [a2 + 0xa8]\n 26717: a0 = 0 if a1 != 0\n 26719: jump @944 if a0 != 0\n      : @943 (gas: 1)\n 26722: jump @1603\n      : @944 (gas: 12)\n 26725: i32 a0 = a3 + 0x44\n 26728: a1 = u64 [0x20040]\n 26733: a2 = u64 [0x20048]\n 26738: a4 = s1 + 0x3938\n 26742: u64 [a4 + 0x600] = a1\n 26746: u64 [a4 + 0x5f8] = a2\n 26750: a1 = 0x4944000000000000\n 26760: u64 [a4 + 0x5f0] = a1\n 26764: a1 = s1 + 0x3f20\n 26768: u64 [a4 + 1512] = 0\n 26772: ra = 0x500\n 26776: jump @19\n      : @945 (gas: 7)\n 26779: a2 = u64 [s1 + 0x100]\n 26783: a4 = u64 [s1 + 0xd0]\n 26787: a0 = a2 | a4\n 26790: a5 = u64 [s1 + 0xa8]\n 26794: a1 = a3 | a5\n 26797: a0 = a0 | a1\n 26800: jump @1012 if a0 != 0\n      : @946 (gas: 5)\n 26804: u64 [s1 + 416] = 0\n 26808: u64 [s1 + 408] = 0\n 26812: u64 [s1 + 424] = 0\n 26816: u64 [s1 + 432] = 0\n 26820: jump @1016\n      : @947 (gas: 3)\n 26823: a0 = s1 + 0x2de0\n 26827: a1 = 0x40\n 26830: ra = 958, jump @17\n      : @948 [@dyn 479] (gas: 14)\n 26836: a2 = s1 + 0x2938\n 26840: t0 = u64 [a2 + 0x4c0]\n 26844: a1 = a2 + 0x400\n 26848: a5 = u64 [a1 + 0xb8]\n 26852: a4 = u64 [a1 + 0xb0]\n 26856: a0 = u64 [a1 + 0xa8]\n 26860: a3 = a4 | t0\n 26863: a1 = a0 | a5\n 26866: a1 = a1 | a3\n 26869: a1 = a1 >> 0x20\n 26872: a3 = a3 | a5\n 26875: a3 = a3 << 0x20\n 26878: a1 = a1 | a3\n 26881: jump @950 if a1 == 0\n      : @949 (gas: 1)\n 26884: jump @1603\n      : @950 (gas: 10)\n 26887: u64 [a2 + 1184] = 0\n 26891: u64 [a2 + 1176] = 0\n 26895: u64 [a2 + 1168] = 0\n 26899: a1 = s1 + 0x2dc0\n 26903: u64 [a2 + 1160] = 0x20\n 26908: u64 [s1 + 0x1b8] = a0\n 26912: u64 [s1 + 0x1a0] = a4\n 26916: u64 [s1 + 0x1b0] = t0\n 26920: u64 [s1 + 0x1a8] = a5\n 26924: ra = 960, jump @19\n      : @951 [@dyn 480] (gas: 1)\n 26930: t0 = 962, jump @1975\n      : @952 [@dyn 481] (gas: 20)\n 26936: i32 a1 = a1 + 0xfffffffffffff938\n 26940: a1 = a1 + s1\n 26943: u64 [a1 + 0x430] = a2\n 26947: a2 = a1 + 0x400\n 26951: u64 [a2 + 0x28] = a0\n 26954: a0 = u64 [a5 + 0x40]\n 26957: u64 [a2 + 0x60] = a0\n 26960: a0 = u64 [a5 + 0x48]\n 26963: u64 [a2 + 0x58] = a0\n 26966: a0 = u64 [a5 + 0x50]\n 26969: u64 [a2 + 0x50] = a0\n 26972: a0 = u64 [a5 + 0x58]\n 26975: u64 [a2 + 0x48] = a0\n 26978: u64 [a2 + 0x38] = a3\n 26981: a3 = a1\n 26983: a0 = s1 + 0x2da0\n 26987: a1 = s1 + 0x2d80\n 26991: a2 = s1 + 0x2d60\n 26995: u64 [a3 + 0x440] = a4\n 26999: ra = 964, jump @1736\n      : @953 [@dyn 482] (gas: 6)\n 27005: a0 = s1 + 0x2938\n 27009: a1 = u64 [a0 + 0x470]\n 27013: t0 = u64 [a0 + 0x480]\n 27017: t1 = u64 [a0 + 0x468]\n 27021: a3 = u64 [a0 + 0x478]\n 27025: fallthrough\n      : @954 (gas: 22)\n 27026: a0 = u64 [s1 + 0x1a0]\n 27030: a4 = a1 ^ a0\n 27033: a5 = a1 <u a0\n 27036: ra = a0\n 27038: a0 = u64 [s1 + 0x1b8]\n 27042: t2 = t1 <u a0\n 27045: a5 = t2 if a4 == 0\n 27048: a0 = u64 [s1 + 0x1a8]\n 27052: a4 = a3 - a0\n 27055: a3 = a3 <u a0\n 27058: a0 = u64 [s1 + 0x1b0]\n 27062: a2 = t0 - a0\n 27065: a2 = a2 - a3\n 27068: a3 = a4 <u a5\n 27071: a2 = a2 - a3\n 27074: a0 = u64 [s1 + 0x1b8]\n 27078: a4 = a4 - a5\n 27081: a1 = a1 - ra\n 27084: a3 = a1 - t2\n 27087: a1 = t1 - a0\n 27090: a2 = a2 | a3\n 27093: fallthrough\n      : @955 (gas: 7)\n 27094: a3 = a1 | a4\n 27097: a3 = a3 | a2\n 27100: a2 = a2 | a4\n 27103: a3 = a3 >> 0x20\n 27106: a2 = a2 << 0x20\n 27109: a2 = a2 | a3\n 27112: jump @957 if a2 == 0\n      : @956 (gas: 1)\n 27115: jump @1603\n      : @957 (gas: 3)\n 27118: u64 [s1 + 0x1b8] = a1\n 27122: ra = 0x5ca\n 27126: jump @28\n      : @958 (gas: 27)\n 27129: a0 = s1 + 0x5000\n 27133: i32 a0 = a0 + 0xfffffffffffffe40\n 27137: a1 = 0x44\n 27140: ecalli 3 // 'call_data_load'\n 27142: a0 = s1 + 0x4938\n 27146: a2 = a0 + 0x500\n 27150: a1 = u64 [a2 + 0x20]\n 27153: u64 [s1 + 0xf8] = a1\n 27157: a1 = u64 [a2 + 0x18]\n 27160: u64 [s1 + 0xf0] = a1\n 27164: a1 = u64 [a2 + 0x10]\n 27167: u64 [s1 + 0xe8] = a1\n 27171: a0 = u64 [a2 + 0x8]\n 27174: u64 [s1 + 0xe0] = a0\n 27178: a3 = s1 + 0x100\n 27182: a0 = u64 [a3 + 0x20]\n 27185: a2 = s1 + 0x2938\n 27189: u64 [a2 + 0x80] = a0\n 27193: a0 = u64 [a3 + 0x28]\n 27196: u64 [a2 + 0x78] = a0\n 27199: a0 = u64 [a3 + 0x30]\n 27202: u64 [a2 + 0x70] = a0\n 27205: a1 = s1 + 0x29a0\n 27209: a0 = u64 [a3 + 0x38]\n 27212: u64 [a2 + 0x68] = a0\n 27215: a0 = 0\n 27217: ra = 966, jump @19\n      : @959 [@dyn 483] (gas: 9)\n 27223: a0 = s1 + 0x2938\n 27227: u64 [a0 + 96] = 0\n 27230: u64 [a0 + 88] = 0\n 27233: u64 [a0 + 80] = 0\n 27236: a2 = a0\n 27238: a0 = 0x20\n 27241: a1 = s1 + 0x2980\n 27245: u64 [a2 + 72] = 0\n 27248: ra = 968, jump @19\n      : @960 [@dyn 484] (gas: 4)\n 27254: a2 = 0x201ec\n 27259: a0 = i32 [0x201ec]\n 27264: a1 = 0x3f\n 27267: jump @962 if a1 <u a0\n      : @961 (gas: 4)\n 27270: u32 [0x201ec] = 0x40\n 27276: u64 [s1 + 0x190] = a2\n 27280: t0 = 0x3ca\n 27284: jump @1993\n      : @962 (gas: 2)\n 27287: u64 [s1 + 0x190] = a2\n 27291: t0 = 970, jump @1993\n      : @963 [@dyn 485] (gas: 9)\n 27297: a0 = 0x20200\n 27302: i32 a0 = a0 + 0\n 27304: i32 a2 = a2 + 0\n 27306: a1 = 0x40\n 27309: u64 [s1 + 0x198] = a0\n 27313: ra = 0x3cc\n 27317: ecalli 8 // 'hash_keccak_256'\n 27319: t0 = 0x3ce\n 27323: jump @1971\n      : @964 [@dyn 486] (gas: 1)\n 27326: t0 = 974, jump @1971\n      : @965 [@dyn 487] (gas: 2)\n 27332: a4 = a3 + 0x2\n 27335: t0 = 976, jump @1960\n      : @966 [@dyn 488] (gas: 7)\n 27341: u64 [a3 + 0x28] = a4\n 27344: u64 [a3 + 0x30] = a5\n 27347: u64 [a3 + 0x38] = a2\n 27350: u64 [a3 + 0x40] = a0\n 27353: a0 = s1 + 0x2960\n 27357: a1 = s1 + 0x4e60\n 27361: ra = 978, jump @21\n      : @967 [@dyn 489] (gas: 14)\n 27367: a0 = s1 + 0x2938\n 27371: a1 = u64 [a0 + 0x30]\n 27374: u64 [s1 + 0x1b8] = a1\n 27378: a1 = u64 [a0 + 0x28]\n 27381: u64 [s1 + 0x1b0] = a1\n 27385: a0 = u32 [a0 + 0x38]\n 27388: u64 [s1 + 0x1a8] = a0\n 27392: a0 = 0x30200\n 27397: u64 [s1 + 0x140] = a0\n 27401: i32 a0 = a0 + 0\n 27403: u64 [s1 + 0xd8] = a0\n 27407: ra = 0x3d4\n 27411: ecalli 5 // 'caller'\n 27413: fallthrough\n      : @968 [@dyn 490] (gas: 3)\n 27414: a5 = s1 + 0x100\n 27418: a2 = u64 [a5 + 0x40]\n 27421: t0 = 982, jump @1936\n      : @969 [@dyn 491] (gas: 1)\n 27427: jump @1051 if a0 != 0\n      : @970 (gas: 4)\n 27431: a0 = u64 [s1 + 0x138]\n 27435: t0 = 0x3d8\n 27439: a2 = s1 + 0x2138\n 27443: fallthrough\n      : @971 [@dyn 492] (gas: 11)\n 27444: a3 = a2 + 0x700\n 27448: u64 [a3 + 0x48] = a0\n 27451: a0 = u64 [s1 + 0x130]\n 27455: u64 [a3 + 0x50] = a0\n 27458: a0 = u64 [s1 + 0x128]\n 27462: u64 [a3 + 0x58] = a0\n 27465: a1 = s1 + 0x2880\n 27469: a0 = u64 [s1 + 0x120]\n 27473: u64 [a3 + 0x60] = a0\n 27476: a0 = 0\n 27478: ra = 986, jump @19\n      : @972 [@dyn 493] (gas: 2)\n 27484: a0 = 0x2138\n 27488: t0 = 988, jump @2027\n      : @973 [@dyn 494] (gas: 4)\n 27494: i32 a1 = a1 + 0xfffffffffffff860\n 27498: a1 = a1 + s1\n 27501: u64 [a2 + 1832] = 0\n 27505: ra = 990, jump @19\n      : @974 [@dyn 495] (gas: 3)\n 27511: a2 = u64 [s1 + 0x190]\n 27515: a0 = i32 [a2]\n 27517: jump @976 if a0 >u 63\n      : @975 (gas: 2)\n 27521: u32 [a2 + 0] = 0x40\n 27524: fallthrough\n      : @976 (gas: 4)\n 27525: a0 = sp + 0xffffffffffffffe0\n 27528: a0 = a0 & 0xffffffffffffffe0\n 27531: u64 [s1 + 0x1b8] = a0\n 27535: t0 = 992, jump @1962\n      : @977 [@dyn 496] (gas: 4)\n 27541: ra = 0x3e2\n 27545: ecalli 8 // 'hash_keccak_256'\n 27547: t0 = 0x3e4\n 27551: jump @1971\n      : @978 [@dyn 497] (gas: 1)\n 27554: t0 = 996, jump @1971\n      : @979 [@dyn 498] (gas: 2)\n 27560: a4 = a3 + 0x4\n 27563: t0 = 998, jump @1960\n      : @980 [@dyn 499] (gas: 7)\n 27569: u64 [a3 + 0x48] = a4\n 27572: u64 [a3 + 0x50] = a5\n 27575: u64 [a3 + 0x58] = a2\n 27578: u64 [a3 + 0x60] = a0\n 27581: a0 = s1 + 0x2840\n 27585: a1 = s1 + 0x4e80\n 27589: ra = 1000, jump @21\n      : @981 [@dyn 500] (gas: 3)\n 27595: a0 = s1 + 0x2138\n 27599: a0 = u8 [a0 + 0x708]\n 27603: jump @1075 if a0 != 0\n      : @982 (gas: 3)\n 27607: a0 = s1 + 0x18c0\n 27611: a1 = 0x40\n 27614: ra = 1002, jump @17\n      : @983 [@dyn 501] (gas: 14)\n 27620: a2 = s1 + 0x1138\n 27624: t0 = u64 [a2 + 0x7a0]\n 27628: a1 = a2 + 0x700\n 27632: a5 = u64 [a1 + 0x98]\n 27636: a4 = u64 [a1 + 0x90]\n 27640: a0 = u64 [a1 + 0x88]\n 27644: a3 = a4 | t0\n 27647: a1 = a0 | a5\n 27650: a1 = a1 | a3\n 27653: a1 = a1 >> 0x20\n 27656: a3 = a3 | a5\n 27659: a3 = a3 << 0x20\n 27662: a1 = a1 | a3\n 27665: jump @985 if a1 == 0\n      : @984 (gas: 1)\n 27668: jump @1603\n      : @985 (gas: 11)\n 27671: u64 [a2 + 1912] = 0\n 27675: u64 [a2 + 1904] = 0\n 27679: u64 [a2 + 1896] = 0\n 27683: a3 = 0x8c379a000000000\n 27693: a1 = s1 + 0x18a0\n 27697: u64 [a2 + 0x780] = a3\n 27701: u64 [s1 + 0x1b8] = a0\n 27705: u64 [s1 + 0x1b0] = a4\n 27709: u64 [s1 + 0x1a0] = t0\n 27713: u64 [s1 + 0x1a8] = a5\n 27717: ra = 1004, jump @19\n      : @986 [@dyn 502] (gas: 6)\n 27723: a5 = s1 + 0x100\n 27727: a1 = u64 [a5 + 0xb8]\n 27731: a0 = u64 [a5 + 0xa8]\n 27735: a3 = u64 [a5 + 0xa0]\n 27739: a3 = a3 | a0\n 27742: t0 = 1006, jump @1948\n      : @987 [@dyn 503] (gas: 1)\n 27748: jump @989 if a0 != 0\n      : @988 (gas: 1)\n 27751: jump @1603\n      : @989 (gas: 4)\n 27754: i32 a0 = a1 + 0x4\n 27757: t0 = 0x3f0\n 27761: a2 = s1 + 0x1138\n 27765: fallthrough\n      : @990 [@dyn 504] (gas: 8)\n 27766: u64 [a2 + 1888] = 0\n 27770: u64 [a2 + 1880] = 0\n 27774: u64 [a2 + 1864] = 0x20\n 27779: a1 = s1 + 0x1880\n 27783: u64 [a2 + 1872] = 0\n 27787: u64 [s1 + 0x1a8] = a3\n 27791: u64 [s1 + 0x1a0] = a4\n 27795: ra = 1010, jump @19\n      : @991 [@dyn 505] (gas: 10)\n 27801: a2 = s1 + 0x100\n 27805: a4 = u64 [a2 + 0xa8]\n 27809: a3 = u64 [a2 + 0xb0]\n 27813: a1 = u64 [a2 + 0xb8]\n 27817: a0 = u64 [a2 + 0xa0]\n 27821: a0 = a0 + 0xffffffffffffffdc\n 27824: a0 = a1 <u a0\n 27827: a0 = 0 if a3 != 0\n 27829: a0 = 0 if a4 != 0\n 27831: jump @993 if a0 != 0\n      : @992 (gas: 1)\n 27834: jump @1603\n      : @993 (gas: 4)\n 27837: i32 a0 = a1 + 0x24\n 27840: t0 = 0x3f4\n 27844: a2 = s1 + 0x1138\n 27848: fallthrough\n      : @994 [@dyn 506] (gas: 6)\n 27849: u64 [a2 + 1856] = 0\n 27853: u64 [a2 + 1848] = 0\n 27857: u64 [a2 + 1832] = 0x1c\n 27862: a1 = s1 + 0x1860\n 27866: u64 [a2 + 1840] = 0\n 27870: ra = 1014, jump @19\n      : @995 [@dyn 507] (gas: 9)\n 27876: a2 = s1 + 0x100\n 27880: a3 = u64 [a2 + 0xb8]\n 27884: a0 = 0xffffffbc\n 27894: a0 = a3 <u a0\n 27897: a1 = u64 [a2 + 0xb0]\n 27901: a0 = 0 if a1 != 0\n 27903: a1 = u64 [a2 + 0xa8]\n 27907: a0 = 0 if a1 != 0\n 27909: jump @997 if a0 != 0\n      : @996 (gas: 1)\n 27912: jump @1603\n      : @997 (gas: 14)\n 27915: i32 a0 = a3 + 0x44\n 27918: a1 = u64 [0x20130]\n 27923: a2 = u64 [0x20138]\n 27928: a3 = u64 [0x20140]\n 27933: a4 = s1 + 0x1138\n 27937: a5 = a4 + 0x700\n 27941: u64 [a5 + 0x20] = a1\n 27944: u64 [a5 + 0x18] = a2\n 27947: u64 [a5 + 0x10] = a3\n 27950: a2 = 0x7669657700000000\n 27960: a1 = s1 + 0x1840\n 27964: u64 [a5 + 0x8] = a2\n 27967: ra = 0x64e\n 27971: jump @19\n      : @998 (gas: 11)\n 27974: ra = t0\n 27976: a4 = u64 [s1 + 0x130]\n 27980: a5 = u64 [s1 + 0x100]\n 27984: a4 = a4 ^ a5\n 27987: t1 = u64 [s1 + 0xd0]\n 27991: a4 = a4 | t1\n 27994: t0 = u64 [s1 + 0xd8]\n 27998: t2 = u64 [s1 + 0xa8]\n 28002: a5 = t0 | t2\n 28005: a4 = a4 | a5\n 28008: jump @1011 if a4 == 0\n      : @999 (gas: 13)\n 28012: a4 = u64 [s1 + 0x1b8]\n 28016: a4 = a1 <u a4\n 28019: a3 = a3 + a4\n 28022: t0 = a3 ^ ra\n 28025: a5 = a3 <u ra\n 28028: a5 = a4 if t0 == 0\n 28031: a5 = a5 + a2\n 28034: t0 = a5 <u a2\n 28037: a4 = u64 [s1 + 0x1b0]\n 28041: a2 = a2 <u a4\n 28044: a0 = a0 + a2\n 28047: a0 = a0 + t0\n 28050: t0 = 1016, jump @1979\n      : @1000 [@dyn 508] (gas: 1)\n 28056: jump @1002 if a0 == 0\n      : @1001 (gas: 1)\n 28059: jump @1603\n      : @1002 (gas: 3)\n 28062: a0 = s1 + 0x7ff\n 28066: a0 = a0 + 0x701\n 28070: ra = 1018, jump @17\n      : @1003 [@dyn 509] (gas: 13)\n 28076: a0 = s1 + 0x7ff\n 28080: a0 = a0 + 0x139\n 28084: a2 = a0 + 0x500\n 28088: a1 = u64 [a2 + 0xe0]\n 28092: u64 [s1 + 0x1b0] = a1\n 28096: a1 = u64 [a2 + 0xd8]\n 28100: u64 [s1 + 0x1a8] = a1\n 28104: a1 = u64 [a2 + 0xd0]\n 28108: u64 [s1 + 0x1a0] = a1\n 28112: a0 = u64 [a2 + 0xc8]\n 28116: u64 [s1 + 0x198] = a0\n 28120: a0 = u64 [s1 + 0x100]\n 28124: t0 = 1020, jump @1987\n      : @1004 [@dyn 510] (gas: 1)\n 28130: ra = 1022, jump @2046\n      : @1005 [@dyn 511] (gas: 1)\n 28136: t0 = 1024, jump @2014\n      : @1006 [@dyn 512] (gas: 1)\n 28142: ra = 1026, jump @2041\n      : @1007 [@dyn 513] (gas: 1)\n 28148: t0 = 1028, jump @1969\n      : @1008 [@dyn 514] (gas: 1)\n 28154: ra = 1030, jump @2041\n      : @1009 [@dyn 515] (gas: 29)\n 28160: a4 = u64 [s1 + 0x1b8]\n 28164: a2 = a4 <u 0x80\n 28168: a3 = u64 [s1 + 0x170]\n 28172: a1 = a3 if a2 != 0\n 28175: a5 = u64 [s1 + 0x178]\n 28179: a3 = u64 [s1 + 0x188]\n 28183: a3 = a3 | a5\n 28186: a3 = a0 if a2 == 0\n 28189: a1 = 0xffffffffffffffff if a4 == 0\n 28192: a3 = 0xffffffffffffffff if a4 == 0\n 28195: a4 = u64 [s1 + 0x180]\n 28199: a4 = 0 if a2 == 0\n 28201: a5 = 0 if a2 == 0\n 28203: a0 = u64 [s1 + 0x198]\n 28207: a0 = a0 & ~a3\n 28210: a2 = u64 [s1 + 0x1a0]\n 28214: a1 = a2 & ~a1\n 28217: a2 = u64 [s1 + 0x1a8]\n 28221: a2 = a2 & ~a5\n 28224: a3 = u64 [s1 + 0x1b0]\n 28228: a3 = a3 & ~a4\n 28231: a4 = s1 + 0x4938\n 28235: u64 [a4 + 0x40] = a3\n 28238: u64 [a4 + 0x38] = a2\n 28241: u64 [a4 + 0x30] = a1\n 28244: u64 [a4 + 0x28] = a0\n 28247: a1 = s1 + 0x4960\n 28251: a0 = u64 [s1 + 0x190]\n 28255: ra = 1032, jump @23\n      : @1010 [@dyn 516] (gas: 4)\n 28261: t0 = u64 [s1 + 0xd8]\n 28265: t1 = u64 [s1 + 0xd0]\n 28269: t2 = u64 [s1 + 0xa8]\n 28273: fallthrough\n      : @1011 (gas: 19)\n 28274: a0 = t1 >> 0x3f\n 28277: a1 = t2 << 0x1\n 28280: a0 = a0 | a1\n 28283: a1 = t0 >> 0x3f\n 28286: a2 = t1 << 0x1\n 28289: a1 = a1 | a2\n 28292: a4 = u64 [s1 + 0x100]\n 28296: a2 = a4 >> 0x3f\n 28299: a3 = t0 << 0x1\n 28302: a2 = a2 | a3\n 28305: a3 = a4 << 0x1\n 28308: a3 = a3 + 0x1\n 28311: a4 = s1 + 0x4938\n 28315: u64 [a4 + 0x48] = a3\n 28318: u64 [a4 + 0x50] = a2\n 28321: u64 [a4 + 0x58] = a1\n 28324: u64 [a4 + 0x60] = a0\n 28327: a0 = 0x4980\n 28331: jump @1023\n      : @1012 (gas: 11)\n 28334: a4 = s1 + 0x100\n 28338: a0 = u64 [a4 + 0x40]\n 28341: a1 = u64 [a4 + 0x38]\n 28344: a0 = a0 | a1\n 28347: a1 = 0xffffffe0\n 28357: a2 = u64 [a4 + 0x50]\n 28360: a1 = a2 <u a1\n 28363: a3 = u64 [a4 + 0x48]\n 28366: a1 = 0 if a3 != 0\n 28368: a1 = 0 if a0 != 0\n 28370: jump @1014 if a1 != 0\n      : @1013 (gas: 1)\n 28373: jump @1603\n      : @1014 (gas: 4)\n 28376: i32 a1 = a2 + 0x20\n 28379: a0 = s1 + 0x7ff\n 28383: a0 = a0 + 0x741\n 28387: ra = 1034, jump @17\n      : @1015 [@dyn 517] (gas: 16)\n 28393: a5 = u64 [s1 + 0xa8]\n 28397: a4 = u64 [s1 + 0xd0]\n 28401: a3 = u64 [s1 + 0xd8]\n 28405: a0 = s1 + 0x7ff\n 28409: a0 = a0 + 0x139\n 28413: a2 = a0 + 0x600\n 28417: a1 = u64 [a2 + 0x20]\n 28420: u64 [s1 + 0x1b0] = a1\n 28424: a1 = u64 [a2 + 0x18]\n 28427: u64 [s1 + 0x1a8] = a1\n 28431: a1 = u64 [a2 + 0x10]\n 28434: u64 [s1 + 0x198] = a1\n 28438: a0 = u64 [a2 + 0x8]\n 28441: u64 [s1 + 0x1a0] = a0\n 28445: a2 = u64 [s1 + 0x100]\n 28449: fallthrough\n      : @1016 (gas: 16)\n 28450: a0 = a3 >> 0x3f\n 28453: a1 = a4 << 0x1\n 28456: a0 = a0 | a1\n 28459: u64 [s1 + 0x190] = a0\n 28463: a0 = a4 >> 0x3f\n 28466: a1 = a5 << 0x1\n 28469: a0 = a0 | a1\n 28472: u64 [s1 + 0x188] = a0\n 28476: a0 = a2 >> 0x3f\n 28479: a1 = a3 << 0x1\n 28482: a0 = a0 | a1\n 28485: u64 [s1 + 0x180] = a0\n 28489: a0 = a2 << 0x1\n 28492: u64 [s1 + 0x178] = a0\n 28496: a1 = a2 << 0x3\n 28499: t0 = 1036, jump @2011\n      : @1017 [@dyn 518] (gas: 1)\n 28505: ra = 1038, jump @2046\n      : @1018 [@dyn 519] (gas: 7)\n 28511: u64 [s1 + 0x158] = a0\n 28515: u64 [s1 + 0x170] = a1\n 28519: a0 = u64 [s1 + 0x100]\n 28523: i32 a2 = a0 << 0x3\n 28526: a0 = 0xffffffffffffffff\n 28529: a1 = 0xffffffffffffffff\n 28532: ra = 1040, jump @2041\n      : @1019 [@dyn 520] (gas: 10)\n 28538: u64 [s1 + 0x168] = a0\n 28542: u64 [s1 + 0x160] = a1\n 28546: a1 = u64 [s1 + 0x158]\n 28550: a0 = a0 | a1\n 28553: u64 [s1 + 0x158] = a0\n 28557: a0 = u64 [s1 + 0x1b8]\n 28561: i32 a2 = a0 + 0xffffffffffffff80\n 28564: a0 = 0xffffffffffffffff\n 28567: a1 = 0xffffffffffffffff\n 28570: ra = 1042, jump @2041\n      : @1020 [@dyn 521] (gas: 7)\n 28576: a4 = u64 [s1 + 0x1b8]\n 28580: a2 = a4 <u 0x80\n 28584: a3 = u64 [s1 + 0x158]\n 28588: a0 = a3 if a2 != 0\n 28591: a5 = u64 [s1 + 0x160]\n 28595: a3 = u64 [s1 + 0x170]\n 28599: t0 = 1044, jump @1995\n      : @1021 [@dyn 522] (gas: 2)\n 28605: a4 = u64 [s1 + 0x168]\n 28609: t0 = 1046, jump @1986\n      : @1022 [@dyn 523] (gas: 16)\n 28615: a5 = s1 + 0x100\n 28619: a4 = u64 [a5 + 0x78]\n 28622: a0 = a0 | a4\n 28625: a4 = u64 [a5 + 0x80]\n 28629: a1 = a1 | a4\n 28632: a4 = u64 [a5 + 0x88]\n 28636: a3 = a3 | a4\n 28639: a4 = u64 [a5 + 0x90]\n 28643: a2 = a2 | a4\n 28646: a4 = s1 + 0x4938\n 28650: u64 [a4 + 0x78] = a2\n 28653: u64 [a4 + 0x80] = a3\n 28657: u64 [a4 + 0x70] = a1\n 28660: u64 [a4 + 0x68] = a0\n 28663: a0 = 0x49a0\n 28667: fallthrough\n      : @1023 (gas: 3)\n 28668: a1 = s1 + a0\n 28671: a0 = u64 [s1 + 0x128]\n 28675: ra = 1048, jump @23\n      : @1024 [@dyn 524] (gas: 46)\n 28681: a0 = sp + 0xffffffffffffffe0\n 28684: a5 = a0 & 0xffffffffffffffe0\n 28687: sp = a5\n 28689: a0 = u64 [s1 + 0x108]\n 28693: a0 = a0 + 0x1\n 28696: a1 = a0 <u 0x1\n 28699: a2 = u64 [s1 + 0x110]\n 28703: a1 = a1 + a2\n 28706: a2 = a0 | a1\n 28709: a2 = a2 <u 0x1\n 28712: a3 = u64 [s1 + 0x120]\n 28716: a2 = a2 + a3\n 28719: a3 = a2 <u a3\n 28722: a4 = u64 [s1 + 0x118]\n 28726: a3 = a3 + a4\n 28729: u64 [s1 + 0x1b8] = a5\n 28733: u64 [a5 + 0x10] = a2\n 28736: u64 [a5 + 0x8] = a1\n 28739: u64 [a5] = a0\n 28741: u64 [a5 + 0x18] = a3\n 28744: a0 = 0x30200\n 28749: u64 [s1 + 0x1b0] = a0\n 28753: i32 a0 = a0 + 0\n 28755: u64 [s1 + 0x190] = a0\n 28759: ecalli 5 // 'caller'\n 28761: a2 = u64 [s1 + 0x1b0]\n 28765: a0 = u64 [a2 + 0x8]\n 28768: a1 = i32 [a2 + 0x10]\n 28771: a2 = u64 [a2]\n 28773: a0 = reverse a0\n 28775: a3 = a0 << 0x20\n 28778: a1 = reverse a1\n 28780: a1 = a1 >> 0x20\n 28783: a1 = a1 | a3\n 28786: u64 [s1 + 0x1a8] = a1\n 28790: a0 = a0 >> 0x20\n 28793: a1 = reverse a2\n 28795: a2 = a1 << 0x20\n 28798: a0 = a0 | a2\n 28801: u64 [s1 + 0x1a0] = a0\n 28805: a1 = a1 >> 0x20\n 28808: u64 [s1 + 0x198] = a1\n 28812: a0 = s1 + 0x7ff\n 28816: a0 = a0 + 0x6e1\n 28820: a1 = u64 [s1 + 0x1b8]\n 28824: ra = 1050, jump @21\n      : @1025 [@dyn 525] (gas: 17)\n 28830: a1 = s1 + 0x7ff\n 28834: a1 = a1 + 0x139\n 28838: a0 = u32 [a1 + 0x5bc]\n 28842: a1 = u64 [a1 + 0x5c0]\n 28846: a0 = a0 << 0x20\n 28849: a2 = u64 [s1 + 0x198]\n 28853: a0 = a0 | a2\n 28856: a2 = s1 + 0x4938\n 28860: u64 [a2 + 0xa0] = a1\n 28864: a1 = u64 [s1 + 0x1a0]\n 28868: u64 [a2 + 0x90] = a1\n 28872: a1 = u64 [s1 + 0x1a8]\n 28876: u64 [a2 + 0x88] = a1\n 28880: u64 [a2 + 0x98] = a0\n 28884: a1 = s1 + 0x49c0\n 28888: a0 = u64 [s1 + 0x1b8]\n 28892: ra = 1052, jump @23\n      : @1026 [@dyn 526] (gas: 6)\n 28898: a0 = sp + 0xffffffffffffffe0\n 28901: a5 = a0 & 0xffffffffffffffe0\n 28904: sp = a5\n 28906: a1 = u64 [s1 + 0x108]\n 28910: a0 = a1 + 0x2\n 28913: t0 = 1054, jump @1965\n      : @1027 [@dyn 527] (gas: 2)\n 28919: a0 = a0 + 0x6c1\n 28923: ra = 1056, jump @21\n      : @1028 [@dyn 528] (gas: 19)\n 28929: a1 = s1 + 0x7ff\n 28933: a1 = a1 + 0x139\n 28937: a0 = u32 [a1 + 0x59c]\n 28941: a1 = u64 [a1 + 0x5a0]\n 28945: a0 = a0 << 0x20\n 28948: a2 = u64 [s1 + 0xc0]\n 28952: a0 = a0 | a2\n 28955: a2 = u64 [s1 + 0xb0]\n 28959: a1 = a1 | a2\n 28962: a2 = u64 [s1 + 0xc8]\n 28966: a3 = s1 + 0x4938\n 28970: u64 [a3 + 0xb0] = a2\n 28974: a2 = u64 [s1 + 0xb8]\n 28978: u64 [a3 + 0xa8] = a2\n 28982: u64 [a3 + 0xc0] = a1\n 28986: u64 [a3 + 0xb8] = a0\n 28990: a1 = s1 + 0x49e0\n 28994: a0 = u64 [s1 + 0x1b8]\n 28998: ra = 1058, jump @23\n      : @1029 [@dyn 529] (gas: 32)\n 29004: a0 = s1 + 0x5000\n 29008: i32 a0 = a0 + 0xfffffffffffffa00\n 29012: ecalli 9 // 'now'\n 29014: a1 = u64 [s1 + 0x108]\n 29018: a0 = a1 + 0x3\n 29021: a1 = a0 <u a1\n 29024: a3 = u64 [s1 + 0x110]\n 29028: a2 = a3 + a1\n 29031: a3 = a2 <u a3\n 29034: a3 = a1 if a1 == 0\n 29037: a1 = u64 [s1 + 0x120]\n 29041: a3 = a3 + a1\n 29044: a1 = a3 <u a1\n 29047: a4 = u64 [s1 + 0x118]\n 29051: a1 = a1 + a4\n 29054: a4 = s1 + 0x4938\n 29058: a5 = a4 + 0x100\n 29062: u64 [a5] = a1\n 29064: a1 = u64 [a4 + 0xd0]\n 29068: u64 [a4 + 0xf8] = a3\n 29072: a3 = u64 [a4 + 0xe0]\n 29076: u64 [a4 + 0xf0] = a2\n 29080: a2 = u64 [a4 + 0xd8]\n 29084: u64 [a4 + 0xe8] = a0\n 29088: a0 = u64 [a4 + 0xc8]\n 29092: u64 [a5 + 0x20] = a3\n 29095: u64 [a5 + 0x18] = a2\n 29098: u64 [a5 + 0x10] = a1\n 29101: u64 [a5 + 0x8] = a0\n 29104: a0 = s1 + 0x4a20\n 29108: a1 = s1 + 0x4a40\n 29112: ra = 1060, jump @23\n      : @1030 [@dyn 530] (gas: 6)\n 29118: a0 = sp + 0xffffffffffffffe0\n 29121: a5 = a0 & 0xffffffffffffffe0\n 29124: sp = a5\n 29126: a1 = u64 [s1 + 0x108]\n 29130: a0 = a1 + 0x4\n 29133: t0 = 1062, jump @1965\n      : @1031 [@dyn 531] (gas: 2)\n 29139: a0 = a0 + 0x6a1\n 29143: ra = 1064, jump @21\n      : @1032 [@dyn 532] (gas: 17)\n 29149: a3 = s1 + 0x7ff\n 29153: a3 = a3 + 0x139\n 29157: a4 = a3 + 0x500\n 29161: a0 = u64 [a4 + 0x70]\n 29164: a1 = u64 [a4 + 0x68]\n 29167: a2 = u64 [a4 + 0x80]\n 29171: a3 = u64 [a4 + 0x78]\n 29174: a1 = a1 & 0xffffffffffff0000\n 29179: a4 = s1 + 0x4938\n 29183: a5 = a4 + 0x100\n 29187: u64 [a5 + 0x40] = a2\n 29190: u64 [a5 + 0x38] = a3\n 29193: u64 [a5 + 0x30] = a0\n 29196: u64 [a5 + 0x28] = a1\n 29199: a1 = s1 + 0x4a60\n 29203: a0 = u64 [s1 + 0x1b8]\n 29207: ra = 1066, jump @23\n      : @1033 [@dyn 533] (gas: 6)\n 29213: a5 = s1 + 0x100\n 29217: a1 = u64 [a5 + 0x8]\n 29220: a0 = a1 + 0x6\n 29223: a1 = a0 <u a1\n 29226: a3 = u64 [a5 + 0x10]\n 29229: t0 = 1068, jump @2010\n      : @1034 [@dyn 534] (gas: 18)\n 29235: a1 = u64 [a5 + 0x20]\n 29238: a3 = a3 + a1\n 29241: a1 = a3 <u a1\n 29244: a4 = u64 [a5 + 0x18]\n 29247: a1 = a1 + a4\n 29250: a4 = s1 + 0x4938\n 29254: a5 = a4 + 0x100\n 29258: u64 [a5 + 0x60] = a1\n 29261: u64 [a5 + 0x58] = a3\n 29264: u64 [a5 + 0x50] = a2\n 29267: u64 [a5 + 0x48] = a0\n 29270: u64 [a4 + 384] = 0\n 29274: u64 [a4 + 376] = 0\n 29278: u64 [a4 + 368] = 0\n 29282: u64 [a4 + 360] = 0\n 29286: a0 = s1 + 0x4a80\n 29290: a1 = s1 + 0x4aa0\n 29294: ra = 1070, jump @23\n      : @1035 [@dyn 535] (gas: 4)\n 29300: a0 = s1 + 0x7ff\n 29304: a0 = a0 + 0x681\n 29308: a1 = 0x40\n 29311: ra = 1072, jump @17\n      : @1036 [@dyn 536] (gas: 15)\n 29317: a2 = s1 + 0x7ff\n 29321: a2 = a2 + 0x139\n 29325: t0 = u64 [a2 + 0x560]\n 29329: a1 = a2 + 0x500\n 29333: a5 = u64 [a1 + 0x58]\n 29336: a4 = u64 [a1 + 0x50]\n 29339: a0 = u64 [a1 + 0x48]\n 29342: a3 = a4 | t0\n 29345: a1 = a0 | a5\n 29348: a1 = a1 | a3\n 29351: a1 = a1 >> 0x20\n 29354: a3 = a3 | a5\n 29357: a3 = a3 << 0x20\n 29360: a1 = a1 | a3\n 29363: jump @1038 if a1 == 0\n      : @1037 (gas: 1)\n 29366: jump @1603\n      : @1038 (gas: 11)\n 29369: u64 [a2 + 1344] = 0\n 29373: u64 [a2 + 1336] = 0\n 29377: u64 [a2 + 1328] = 0\n 29381: a1 = s1 + 0x7ff\n 29385: a1 = a1 + 0x661\n 29389: u64 [a2 + 1320] = 0x20\n 29394: u64 [s1 + 0x1b8] = a0\n 29398: u64 [s1 + 0x198] = a4\n 29402: u64 [s1 + 0x1a8] = t0\n 29406: u64 [s1 + 0x1a0] = a5\n 29410: ra = 1074, jump @19\n      : @1039 [@dyn 537] (gas: 4)\n 29416: a0 = u64 [s1 + 0x190]\n 29420: ra = 0x434\n 29424: ecalli 5 // 'caller'\n 29426: fallthrough\n      : @1040 [@dyn 538] (gas: 13)\n 29427: a0 = u64 [s1 + 0x1b0]\n 29431: a1 = u32 [a0 + 0x10]\n 29434: u64 [s1 + 0x190] = a1\n 29438: a1 = u64 [a0 + 0x8]\n 29441: u64 [s1 + 0x188] = a1\n 29445: a0 = u64 [a0]\n 29447: u64 [s1 + 0x1b0] = a0\n 29451: a0 = u64 [s1 + 0x1b8]\n 29455: a0 = a0 + 0x20\n 29458: a1 = u64 [s1 + 0x1b8]\n 29462: a1 = a0 <u a1\n 29465: a3 = u64 [s1 + 0x198]\n 29469: t0 = 1078, jump @1970\n      : @1041 [@dyn 539] (gas: 23)\n 29475: a1 = s1 + 0x7ff\n 29479: a1 = a1 + 0x139\n 29483: a5 = a1 + 0x400\n 29487: u64 [a5 + 0xd8] = a3\n 29491: u64 [a5 + 0xd0] = a2\n 29495: u64 [a5 + 0xc8] = a0\n 29499: a0 = u64 [s1 + 0x138]\n 29503: u64 [a1 + 0x500] = a0\n 29507: a0 = u64 [s1 + 0x140]\n 29511: u64 [a5 + 0xf8] = a0\n 29515: a0 = u64 [s1 + 0x148]\n 29519: u64 [a5 + 0xf0] = a0\n 29523: a0 = u64 [s1 + 0x150]\n 29527: u64 [a5 + 0xe8] = a0\n 29531: a3 = a1\n 29533: a0 = s1 + 0x7ff\n 29537: a0 = a0 + 0x641\n 29541: a1 = s1 + 0x7ff\n 29545: a1 = a1 + 0x621\n 29549: a2 = s1 + 0x7ff\n 29553: a2 = a2 + 0x601\n 29557: u64 [a3 + 0x4e0] = a4\n 29561: ra = 1080, jump @1707\n      : @1042 [@dyn 540] (gas: 19)\n 29567: ra = u64 [s1 + 0x1b8]\n 29571: a1 = s1 + 0x7ff\n 29575: a1 = a1 + 0x139\n 29579: a0 = u64 [a1 + 0x510]\n 29583: t0 = u64 [a1 + 0x520]\n 29587: t1 = u64 [a1 + 0x508]\n 29591: a3 = u64 [a1 + 0x518]\n 29595: a1 = u64 [s1 + 0x198]\n 29599: a4 = a0 ^ a1\n 29602: a5 = a0 <u a1\n 29605: t2 = a1\n 29607: a1 = t1 <u ra\n 29610: a5 = a1 if a4 == 0\n 29613: a2 = u64 [s1 + 0x1a0]\n 29617: a4 = a3 - a2\n 29620: a3 = a3 <u a2\n 29623: a2 = u64 [s1 + 0x1a8]\n 29627: a2 = t0 - a2\n 29630: t0 = 1082, jump @1989\n      : @1043 [@dyn 541] (gas: 1)\n 29636: jump @1045 if a0 == 0\n      : @1044 (gas: 1)\n 29639: jump @1603\n      : @1045 (gas: 99)\n 29642: a0 = u64 [s1 + 0xc0]\n 29646: a0 = a0 << 0x20\n 29649: a0 = a0 >> 0x20\n 29652: u64 [s1 + 0x1a8] = a0\n 29656: a0 = u64 [s1 + 0x188]\n 29660: a3 = reverse a0\n 29662: a2 = a3 << 0x20\n 29665: a0 = u64 [s1 + 0x190]\n 29669: a4 = reverse a0\n 29671: a4 = a4 >> 0x20\n 29674: t1 = a4 | a2\n 29677: a0 = u64 [s1 + 0x1b0]\n 29681: a4 = reverse a0\n 29683: a5 = a4 << 0x20\n 29686: a3 = a3 >> 0x20\n 29689: t2 = a5 | a3\n 29692: t0 = a4 >> 0x20\n 29695: a0 = u64 [s1 + 0xb8]\n 29699: a4 = s1 + 0x7ff\n 29703: a4 = a4 + 0x139\n 29707: u64 [a4 + 0x448] = a0\n 29711: a0 = u64 [s1 + 0xc8]\n 29715: u64 [a4 + 0x450] = a0\n 29719: a5 = u64 [0x20198]\n 29724: a0 = u64 [0x201a0]\n 29729: a2 = u64 [0x201a8]\n 29734: a3 = u64 [0x201b0]\n 29739: u64 [a4 + 0x4c0] = a5\n 29743: a5 = a4 + 0x400\n 29747: u64 [a5 + 0xb8] = a0\n 29751: u64 [a5 + 0xb0] = a2\n 29755: u64 [a5 + 0xa8] = a3\n 29759: u64 [a4 + 1120] = 0\n 29763: u64 [a4 + 1152] = 0\n 29767: a0 = u64 [s1 + 0xe0]\n 29771: u64 [a5 + 0x88] = a0\n 29775: a0 = u64 [s1 + 0xe8]\n 29779: u64 [a5 + 0x90] = a0\n 29783: a0 = u64 [s1 + 0x1a8]\n 29787: u64 [a5 + 0x58] = a0\n 29790: u64 [a4 + 0x478] = t0\n 29794: a0 = u64 [s1 + 0xf0]\n 29798: u64 [a5 + 0x98] = a0\n 29802: u64 [a4 + 0x470] = t2\n 29806: u64 [a4 + 0x468] = t1\n 29810: t0 = a4\n 29812: a2 = s1 + 0x7ff\n 29816: a2 = a2 + 0x5e1\n 29820: a3 = s1 + 0x7ff\n 29824: a3 = a3 + 0x5c1\n 29828: a4 = s1 + 0x7ff\n 29832: a4 = a4 + 0x5a1\n 29836: a5 = s1 + 0x7ff\n 29840: a5 = a5 + 0x581\n 29844: a0 = u64 [s1 + 0xf8]\n 29848: u64 [t0 + 0x4a0] = a0\n 29852: a0 = ra\n 29854: ra = 0x43c\n 29858: sp = sp + 0xfffffffffffffee0\n 29862: u64 [sp + 0x118] = ra\n 29866: u64 [sp + 0x110] = s0\n 29870: u64 [sp + 0x108] = s1\n 29874: s0 = sp + 0x120\n 29878: sp = sp & 0xffffffffffffffe0\n 29881: s1 = u64 [a5]\n 29883: u64 [sp + 0x60] = s1\n 29886: s1 = u64 [a5 + 0x8]\n 29889: u64 [sp + 0x68] = s1\n 29892: s1 = u64 [a5 + 0x10]\n 29895: u64 [sp + 0x70] = s1\n 29898: a5 = u64 [a5 + 0x18]\n 29901: u64 [sp + 0x78] = a5\n 29904: a5 = u64 [a4]\n 29906: u64 [sp + 0x38] = a5\n 29909: a5 = u64 [a4 + 0x8]\n 29912: u64 [sp + 0x40] = a5\n 29915: a5 = u64 [a4 + 0x10]\n 29918: u64 [sp + 0x48] = a5\n 29921: a4 = u64 [a4 + 0x18]\n 29924: u64 [sp + 0x50] = a4\n 29927: t0 = 0xa\n 29930: a4 = u64 [a3]\n 29932: u64 [sp + 0x18] = a4\n 29935: a4 = u64 [a3 + 0x8]\n 29938: u64 [sp + 0x20] = a4\n 29941: a4 = u64 [a3 + 0x10]\n 29944: u64 [sp + 0x28] = a4\n 29947: a3 = u64 [a3 + 0x18]\n 29950: u64 [sp + 0x30] = a3\n 29953: s1 = u64 [a2]\n 29955: a3 = u64 [a2 + 0x8]\n 29958: u64 [sp] = a3\n 29960: a3 = u64 [a2 + 0x10]\n 29963: u64 [sp + 0x8] = a3\n 29966: a2 = u64 [a2 + 0x18]\n 29969: u64 [sp + 0x10] = a2\n 29972: u64 [sp + 0x58] = a1\n 29975: ra = 0xc\n 29978: jump @28\n      : @1046 [@dyn 542] (gas: 4)\n 29981: a0 = s1 + 0x7ff\n 29985: a0 = a0 + 0x561\n 29989: a1 = 0x40\n 29992: ra = 1086, jump @17\n      : @1047 [@dyn 543] (gas: 8)\n 29998: a3 = s1 + 0x7ff\n 30002: a3 = a3 + 0x139\n 30006: a5 = a3 + 0x400\n 30010: a0 = u64 [a5 + 0x40]\n 30013: a1 = u64 [a5 + 0x38]\n 30016: a2 = u64 [a5 + 0x30]\n 30019: a4 = u64 [a5 + 0x28]\n 30022: t0 = 1088, jump @2019\n      : @1048 [@dyn 544] (gas: 1)\n 30028: jump @1050 if a0 == 0\n      : @1049 (gas: 1)\n 30031: jump @1603\n      : @1050 (gas: 15)\n 30034: a0 = u64 [s1 + 0xe0]\n 30038: a2 = a3 + 0x400\n 30042: u64 [a2 + 0x8] = a0\n 30045: a0 = u64 [s1 + 0xe8]\n 30049: u64 [a2 + 0x10] = a0\n 30052: a0 = u64 [s1 + 0xf0]\n 30056: u64 [a2 + 0x18] = a0\n 30059: a1 = s1 + 0x7ff\n 30063: a1 = a1 + 0x541\n 30067: a0 = u64 [s1 + 0xf8]\n 30071: u64 [a2 + 0x20] = a0\n 30074: a0 = a4\n 30076: u64 [s1 + 0x1b8] = a4\n 30080: ra = 0x348\n 30084: jump @19\n      : @1051 (gas: 3)\n 30087: a0 = s1 + 0x2940\n 30091: a1 = 0x40\n 30094: ra = 1090, jump @17\n      : @1052 [@dyn 545] (gas: 13)\n 30100: a2 = s1 + 0x2938\n 30104: t0 = u64 [a2 + 0x20]\n 30107: a5 = u64 [a2 + 0x18]\n 30110: a4 = u64 [a2 + 0x10]\n 30113: a3 = u64 [a2 + 0x8]\n 30116: a0 = a4 | t0\n 30119: a1 = a3 | a5\n 30122: a1 = a1 | a0\n 30125: a1 = a1 >> 0x20\n 30128: a0 = a0 | a5\n 30131: a0 = a0 << 0x20\n 30134: a0 = a0 | a1\n 30137: jump @1054 if a0 == 0\n      : @1053 (gas: 1)\n 30140: jump @1603\n      : @1054 (gas: 13)\n 30143: a0 = s1 + 0x2138\n 30147: u64 [a0 + 2040] = 0\n 30151: u64 [a0 + 2032] = 0\n 30155: u64 [a0 + 2024] = 0\n 30159: a0 = 0x8c379a000000000\n 30169: a1 = s1 + 0x2920\n 30173: u64 [a2] = a0\n 30175: a0 = a3\n 30177: u64 [s1 + 0x1b8] = a3\n 30181: u64 [s1 + 0x1b0] = a4\n 30185: u64 [s1 + 0x1a8] = t0\n 30189: u64 [s1 + 0x1a0] = a5\n 30193: ra = 1092, jump @19\n      : @1055 [@dyn 546] (gas: 1)\n 30199: t0 = 1094, jump @1939\n      : @1056 [@dyn 547] (gas: 1)\n 30205: jump @1058 if a0 != 0\n      : @1057 (gas: 1)\n 30208: jump @1603\n      : @1058 (gas: 4)\n 30211: i32 a0 = a1 + 0x4\n 30214: t0 = 0x448\n 30218: a2 = s1 + 0x2138\n 30222: fallthrough\n      : @1059 [@dyn 548] (gas: 8)\n 30223: u64 [a2 + 2016] = 0\n 30227: u64 [a2 + 2008] = 0\n 30231: u64 [a2 + 1992] = 0x20\n 30236: a1 = s1 + 0x2900\n 30240: u64 [a2 + 2000] = 0\n 30244: u64 [s1 + 0x1a8] = a3\n 30248: u64 [s1 + 0x1a0] = a4\n 30252: ra = 1098, jump @19\n      : @1060 [@dyn 549] (gas: 1)\n 30258: t0 = 1100, jump @1952\n      : @1061 [@dyn 550] (gas: 1)\n 30264: jump @1063 if a0 != 0\n      : @1062 (gas: 1)\n 30267: jump @1603\n      : @1063 (gas: 4)\n 30270: i32 a0 = a1 + 0x24\n 30273: t0 = 0x44e\n 30277: a2 = s1 + 0x2138\n 30281: fallthrough\n      : @1064 [@dyn 551] (gas: 6)\n 30282: u64 [a2 + 1984] = 0\n 30286: u64 [a2 + 1976] = 0\n 30290: u64 [a2 + 1960] = 0x22\n 30295: a1 = s1 + 0x28e0\n 30299: u64 [a2 + 1968] = 0\n 30303: ra = 1104, jump @19\n      : @1065 [@dyn 552] (gas: 1)\n 30309: t0 = 1106, jump @1953\n      : @1066 [@dyn 553] (gas: 1)\n 30315: jump @1068 if a0 != 0\n      : @1067 (gas: 1)\n 30318: jump @1603\n      : @1068 (gas: 14)\n 30321: i32 a0 = a1 + 0x44\n 30324: a1 = u64 [0x20070]\n 30329: u64 [s1 + 0x1a0] = a2\n 30333: a4 = s1 + 0x2138\n 30337: a5 = a4 + 0x700\n 30341: u64 [a5 + 0xa0] = a1\n 30345: a1 = u64 [0x20078]\n 30350: a2 = u64 [0x20080]\n 30355: a3 = u64 [0x20088]\n 30360: u64 [a5 + 0x98] = a1\n 30364: u64 [a5 + 0x90] = a2\n 30368: a1 = s1 + 0x28c0\n 30372: u64 [a5 + 0x88] = a3\n 30376: ra = 1108, jump @19\n      : @1069 [@dyn 554] (gas: 1)\n 30382: t0 = 1110, jump @1951\n      : @1070 [@dyn 555] (gas: 1)\n 30388: jump @1072 if a0 != 0\n      : @1071 (gas: 1)\n 30391: jump @1603\n      : @1072 (gas: 9)\n 30394: i32 a0 = a2 + 0x64\n 30397: a3 = s1 + 0x2138\n 30401: u64 [a3 + 1912] = 0\n 30405: u64 [a3 + 1904] = 0\n 30409: a1 = 0x6f6e000000000000\n 30419: u64 [a3 + 0x780] = a1\n 30423: a1 = s1 + 0x28a0\n 30427: u64 [a3 + 1896] = 0\n 30431: ra = 1112, jump @19\n      : @1073 [@dyn 556] (gas: 3)\n 30437: a1 = 0x84\n 30441: a0 = u64 [s1 + 0x1b8]\n 30445: ra = 1114, jump @28\n      : @1074 [@dyn 557] (gas: 5)\n 30451: i32 a1 = a0 + 0\n 30453: a0 = 0x1\n 30456: a2 = 0x84\n 30460: ecalli 13 // 'seal_return'\n 30462: fallthrough\n      : @1075 (gas: 3)\n 30463: a0 = s1 + 0x2820\n 30467: a1 = u64 [s1 + 0x118]\n 30471: ra = 1116, jump @17\n      : @1076 [@dyn 558] (gas: 2)\n 30477: a0 = 0x2000\n 30481: t0 = 1118, jump @2002\n      : @1077 [@dyn 559] (gas: 1)\n 30487: jump @1124 if a0 != 0\n      : @1078 (gas: 3)\n 30491: a0 = s1 + 0x1960\n 30495: a1 = 0x40\n 30498: ra = 1120, jump @17\n      : @1079 [@dyn 560] (gas: 13)\n 30504: a4 = s1 + 0x1938\n 30508: t0 = u64 [a4 + 0x40]\n 30511: a5 = u64 [a4 + 0x38]\n 30514: a3 = u64 [a4 + 0x30]\n 30517: a0 = u64 [a4 + 0x28]\n 30520: a2 = a3 | t0\n 30523: a1 = a0 | a5\n 30526: a1 = a1 | a2\n 30529: a1 = a1 >> 0x20\n 30532: a2 = a2 | a5\n 30535: a2 = a2 << 0x20\n 30538: a1 = a1 | a2\n 30541: jump @1081 if a1 == 0\n      : @1080 (gas: 1)\n 30544: jump @1603\n      : @1081 (gas: 11)\n 30547: u64 [a4 + 24] = 0\n 30550: u64 [a4 + 16] = 0\n 30553: u64 [a4 + 8] = 0\n 30556: a2 = 0x8c379a000000000\n 30566: a1 = s1 + 0x1940\n 30570: u64 [a4 + 0x20] = a2\n 30573: u64 [s1 + 0x1b8] = a0\n 30577: u64 [s1 + 0x1b0] = a3\n 30581: u64 [s1 + 0x1a8] = t0\n 30585: u64 [s1 + 0x1a0] = a5\n 30589: ra = 1122, jump @19\n      : @1082 [@dyn 561] (gas: 1)\n 30595: t0 = 1124, jump @1939\n      : @1083 [@dyn 562] (gas: 1)\n 30601: jump @1085 if a0 != 0\n      : @1084 (gas: 1)\n 30604: jump @1603\n      : @1085 (gas: 4)\n 30607: i32 a0 = a1 + 0x4\n 30610: t0 = 0x466\n 30614: a2 = s1 + 0x1938\n 30618: fallthrough\n      : @1086 [@dyn 563] (gas: 8)\n 30619: u64 [a2 + 0] = 0\n 30621: u64 [a2 + 4294967288] = 0\n 30624: u64 [a2 + 4294967272] = 0x20\n 30628: a1 = s1 + 0x1920\n 30632: u64 [a2 + 4294967280] = 0\n 30635: u64 [s1 + 0x1a8] = a3\n 30639: u64 [s1 + 0x1a0] = a4\n 30643: ra = 1128, jump @19\n      : @1087 [@dyn 564] (gas: 10)\n 30649: a4 = s1 + 0x100\n 30653: a3 = u64 [a4 + 0xa8]\n 30657: a2 = u64 [a4 + 0xb0]\n 30661: a1 = u64 [a4 + 0xb8]\n 30665: a0 = u64 [a4 + 0xa0]\n 30669: a0 = a0 + 0xffffffffffffffdc\n 30672: a0 = a1 <u a0\n 30675: a0 = 0 if a2 != 0\n 30677: a0 = 0 if a3 != 0\n 30679: jump @1089 if a0 != 0\n      : @1088 (gas: 1)\n 30682: jump @1603\n      : @1089 (gas: 8)\n 30685: i32 a0 = a1 + 0x24\n 30688: a4 = s1 + 0x1138\n 30692: u64 [a4 + 2016] = 0\n 30696: u64 [a4 + 2008] = 0\n 30700: u64 [a4 + 1992] = 0x11\n 30705: a1 = s1 + 0x1900\n 30709: u64 [a4 + 2000] = 0\n 30713: ra = 1130, jump @19\n      : @1090 [@dyn 565] (gas: 9)\n 30719: a3 = s1 + 0x100\n 30723: a2 = u64 [a3 + 0xb8]\n 30727: a0 = 0xffffffbc\n 30737: a0 = a2 <u a0\n 30740: a1 = u64 [a3 + 0xb0]\n 30744: a0 = 0 if a1 != 0\n 30746: a1 = u64 [a3 + 0xa8]\n 30750: a0 = 0 if a1 != 0\n 30752: jump @1092 if a0 != 0\n      : @1091 (gas: 1)\n 30755: jump @1603\n      : @1092 (gas: 13)\n 30758: i32 a0 = a2 + 0x44\n 30761: a1 = u64 [0x20120]\n 30766: a2 = u64 [0x20128]\n 30771: a3 = s1 + 0x1138\n 30775: a4 = a3 + 0x700\n 30779: u64 [a4 + 0xc0] = a1\n 30783: u64 [a4 + 0xb8] = a2\n 30787: a1 = 0x6400000000000000\n 30797: u64 [a4 + 0xb0] = a1\n 30801: a1 = s1 + 0x18e0\n 30805: u64 [a3 + 1960] = 0\n 30809: ra = 0x64e\n 30813: jump @19\n      : @1093 (gas: 4)\n 30816: a0 = s1 + 0x7ff\n 30820: a0 = a0 + 0x141\n 30824: a1 = 0x40\n 30827: ra = 1132, jump @17\n      : @1094 [@dyn 566] (gas: 14)\n 30833: a2 = s1 + 0x7ff\n 30837: a2 = a2 + 0x139\n 30841: t0 = u64 [a2 + 0x20]\n 30844: a5 = u64 [a2 + 0x18]\n 30847: a4 = u64 [a2 + 0x10]\n 30850: a0 = u64 [a2 + 0x8]\n 30853: a3 = a4 | t0\n 30856: a1 = a0 | a5\n 30859: a1 = a1 | a3\n 30862: a1 = a1 >> 0x20\n 30865: a3 = a3 | a5\n 30868: a3 = a3 << 0x20\n 30871: a1 = a1 | a3\n 30874: jump @1096 if a1 == 0\n      : @1095 (gas: 1)\n 30877: jump @1603\n      : @1096 (gas: 13)\n 30880: u64 [a2 + 0] = 0\n 30882: u64 [a2 + 4294967288] = 0\n 30885: a1 = s1 + 0x1000\n 30889: u64 [a1 + 4294965544] = 0\n 30893: a1 = s1 + 0x7ff\n 30897: a1 = a1 + 0x121\n 30901: a3 = s1 + 0x1000\n 30905: u64 [a3 + 4294965536] = 0xa0\n 30911: u64 [s1 + 0x130] = a0\n 30915: u64 [s1 + 0x128] = a4\n 30919: u64 [s1 + 0x118] = t0\n 30923: u64 [s1 + 0x120] = a5\n 30927: ra = 1134, jump @19\n      : @1097 [@dyn 567] (gas: 42)\n 30933: a0 = u64 [s1 + 0x130]\n 30937: a0 = a0 + 0xa0\n 30941: a1 = u64 [s1 + 0x130]\n 30945: a1 = a0 <u a1\n 30948: a2 = u64 [s1 + 0x128]\n 30952: a2 = a2 + a1\n 30955: a3 = u64 [s1 + 0x128]\n 30959: a3 = a2 <u a3\n 30962: a3 = a1 if a1 == 0\n 30965: a1 = u64 [s1 + 0x120]\n 30969: a3 = a3 + a1\n 30972: a1 = u64 [s1 + 0x120]\n 30976: a1 = a3 <u a1\n 30979: a4 = u64 [s1 + 0x118]\n 30983: a4 = a4 + a1\n 30986: a1 = s1 + 0x1000\n 30990: u64 [a1 + 0xfffffffffffff8c8] = a2\n 30994: a1 = s1 + 0x1000\n 30998: u64 [a1 + 0xfffffffffffff8c0] = a0\n 31002: a0 = u64 [s1 + 0x160]\n 31006: a1 = s1 + 0x1000\n 31010: u64 [a1 + 0xfffffffffffff8f8] = a0\n 31014: a0 = u64 [s1 + 0x168]\n 31018: a1 = s1 + 0x1000\n 31022: u64 [a1 + 0xfffffffffffff8f0] = a0\n 31026: a0 = u64 [s1 + 0x170]\n 31030: a1 = s1 + 0x1000\n 31034: u64 [a1 + 0xfffffffffffff8e8] = a0\n 31038: a0 = u64 [s1 + 0x178]\n 31042: a1 = s1 + 0x1000\n 31046: u64 [a1 + 0xfffffffffffff8e0] = a0\n 31050: a0 = s1 + 0x1000\n 31054: u64 [a0 + 0xfffffffffffff8d0] = a3\n 31058: a0 = s1 + 0x7ff\n 31062: a0 = a0 + 0x101\n 31066: a1 = s1 + 0x7ff\n 31070: a1 = a1 + 0xe1\n 31074: a2 = s1 + 0x7ff\n 31078: a2 = a2 + 0xc1\n 31082: a3 = s1 + 0x1000\n 31086: u64 [a3 + 0xfffffffffffff8d8] = a4\n 31090: ra = 1136, jump @1722\n      : @1098 [@dyn 568] (gas: 11)\n 31096: t2 = u64 [s1 + 0x120]\n 31100: t1 = u64 [s1 + 0x118]\n 31104: a1 = u64 [s1 + 0x128]\n 31108: a5 = u64 [s1 + 0x130]\n 31112: a2 = t2 | t1\n 31115: a3 = 0x100000000\n 31125: a0 = 0xffffffe0\n 31135: a0 = a5 <u a0\n 31138: a0 = 0 if a1 != 0\n 31140: a0 = 0 if a2 != 0\n 31142: jump @1100 if a0 != 0\n      : @1099 (gas: 1)\n 31145: jump @1603\n      : @1100 (gas: 45)\n 31148: a0 = s1 + 0x1000\n 31152: ra = u64 [a0 + 0xfffffffffffff900]\n 31156: u64 [s1 + 0x1b8] = ra\n 31160: a0 = s1 + 0x1000\n 31164: a4 = u64 [a0 + 0xfffffffffffff908]\n 31168: a0 = s1 + 0x1000\n 31172: t0 = u64 [a0 + 0xfffffffffffff918]\n 31176: u64 [s1 + 0x1a0] = t0\n 31180: a0 = s1 + 0x1000\n 31184: a0 = u64 [a0 + 0xfffffffffffff910]\n 31188: u64 [s1 + 0x1b0] = a0\n 31192: a0 = ra <u a5\n 31195: u64 [s1 + 0x190] = a0\n 31199: u64 [s1 + 0x1a8] = a3\n 31203: ra = a4\n 31205: a3 = a4 ^ a1\n 31208: u64 [s1 + 0x110] = a2\n 31212: a2 = a4 <u a1\n 31215: u64 [s1 + 0x198] = a4\n 31219: a2 = a0 if a3 == 0\n 31222: a3 = u64 [s1 + 0x1b0]\n 31226: a0 = a3 - t2\n 31229: a3 = a3 <u t2\n 31232: a4 = t0 - t1\n 31235: a4 = a4 - a3\n 31238: a3 = a0 <u a2\n 31241: t1 = a4 - a3\n 31244: a4 = a0 - a2\n 31247: a2 = ra - a1\n 31250: a0 = u64 [s1 + 0x190]\n 31254: a2 = a2 - a0\n 31257: a3 = u64 [s1 + 0x1b8]\n 31261: a3 = a3 - a5\n 31264: i32 a0 = a5 + 0x20\n 31267: a1 = s1 + 0x1000\n 31271: u64 [a1 + 0xfffffffffffff8a0] = a3\n 31275: a1 = s1 + 0x1000\n 31279: u64 [a1 + 0xfffffffffffff8a8] = a2\n 31283: a1 = s1 + 0x1000\n 31287: u64 [a1 + 0xfffffffffffff8b0] = a4\n 31291: a1 = s1 + 0x7ff\n 31295: a1 = a1 + 0xa1\n 31299: a2 = s1 + 0x1000\n 31303: u64 [a2 + 0xfffffffffffff8b8] = t1\n 31307: ra = 1138, jump @19\n      : @1101 [@dyn 569] (gas: 31)\n 31313: a0 = u64 [s1 + 0x1a0]\n 31317: a1 = s1 + 0x1000\n 31321: u64 [a1 + 0xfffffffffffff858] = a0\n 31325: a0 = u64 [s1 + 0x1b0]\n 31329: a1 = s1 + 0x1000\n 31333: u64 [a1 + 0xfffffffffffff850] = a0\n 31337: a0 = u64 [s1 + 0x198]\n 31341: a1 = s1 + 0x1000\n 31345: u64 [a1 + 0xfffffffffffff848] = a0\n 31349: a0 = u64 [s1 + 0x1b8]\n 31353: a1 = s1 + 0x1000\n 31357: u64 [a1 + 0xfffffffffffff840] = a0\n 31361: a0 = u64 [s1 + 0x90]\n 31365: a1 = s1 + 0x1000\n 31369: u64 [a1 + 0xfffffffffffff878] = a0\n 31373: a0 = u64 [s1 + 0x98]\n 31377: a1 = s1 + 0x1000\n 31381: u64 [a1 + 0xfffffffffffff870] = a0\n 31385: a0 = u64 [s1 + 0xa0]\n 31389: a1 = s1 + 0x1000\n 31393: u64 [a1 + 0xfffffffffffff868] = a0\n 31397: a0 = s1 + 0x7ff\n 31401: a0 = a0 + 0x81\n 31405: a1 = s1 + 0x7ff\n 31409: a1 = a1 + 0x61\n 31412: a2 = s1 + 0x7ff\n 31416: a2 = a2 + 0x41\n 31419: a3 = u64 [s1 + 0xa8]\n 31423: a4 = s1 + 0x1000\n 31427: u64 [a4 + 0xfffffffffffff860] = a3\n 31431: ra = 1140, jump @1736\n      : @1102 [@dyn 570] (gas: 10)\n 31437: a3 = s1 + 0x100\n 31441: a2 = u64 [a3 + 0x10]\n 31444: a1 = u64 [a3 + 0x28]\n 31447: a5 = u64 [a3 + 0x30]\n 31450: a0 = u64 [a3 + 0xa8]\n 31454: a0 = a0 + 0xffffffffffffffc0\n 31457: a0 = a5 <u a0\n 31460: a0 = 0 if a1 != 0\n 31462: a0 = 0 if a2 != 0\n 31464: jump @1104 if a0 != 0\n      : @1103 (gas: 1)\n 31467: jump @1603\n      : @1104 (gas: 43)\n 31470: a0 = s1 + 0x1000\n 31474: a0 = u64 [a0 + 0xfffffffffffff880]\n 31478: a2 = s1 + 0x1000\n 31482: a3 = u64 [a2 + 0xfffffffffffff888]\n 31486: a2 = s1 + 0x1000\n 31490: t1 = u64 [a2 + 0xfffffffffffff898]\n 31494: u64 [s1 + 0x1b0] = t1\n 31498: a2 = s1 + 0x1000\n 31502: a4 = u64 [a2 + 0xfffffffffffff890]\n 31506: u64 [s1 + 0x1b8] = a4\n 31510: t0 = a0 <u a5\n 31513: t2 = a0\n 31515: u64 [s1 + 0x1a0] = a0\n 31519: a0 = a3\n 31521: a3 = a3 ^ a1\n 31524: a2 = a0 <u a1\n 31527: ra = a0\n 31529: u64 [s1 + 0x1a8] = a0\n 31533: a2 = t0 if a3 == 0\n 31536: a3 = u64 [s1 + 0x120]\n 31540: a0 = a4 - a3\n 31543: a3 = a4 <u a3\n 31546: a4 = u64 [s1 + 0x118]\n 31550: a4 = t1 - a4\n 31553: a4 = a4 - a3\n 31556: a3 = a0 <u a2\n 31559: t1 = a4 - a3\n 31562: a4 = a0 - a2\n 31565: a2 = ra - a1\n 31568: a2 = a2 - t0\n 31571: a3 = t2 - a5\n 31574: i32 a0 = a5 + 0x40\n 31577: a1 = s1 + 0x1000\n 31581: u64 [a1 + 0xfffffffffffff820] = a3\n 31585: a1 = s1 + 0x1000\n 31589: u64 [a1 + 0xfffffffffffff828] = a2\n 31593: a1 = s1 + 0x1000\n 31597: u64 [a1 + 0xfffffffffffff830] = a4\n 31601: a1 = s1 + 0x7ff\n 31605: a1 = a1 + 0x21\n 31608: a2 = s1 + 0x1000\n 31612: u64 [a2 + 0xfffffffffffff838] = t1\n 31616: ra = 1142, jump @19\n      : @1105 [@dyn 571] (gas: 22)\n 31622: a0 = u64 [s1 + 0x1b0]\n 31626: a4 = s1 + 0x700\n 31630: u64 [a4 + 0xd8] = a0\n 31634: a0 = u64 [s1 + 0x1b8]\n 31638: u64 [a4 + 0xd0] = a0\n 31642: a0 = u64 [s1 + 0x1a8]\n 31646: u64 [a4 + 0xc8] = a0\n 31650: a0 = u64 [s1 + 0x1a0]\n 31654: u64 [a4 + 0xc0] = a0\n 31658: a0 = u64 [s1 + 0x140]\n 31662: u64 [a4 + 0xf8] = a0\n 31666: a0 = u64 [s1 + 0x148]\n 31670: u64 [a4 + 0xf0] = a0\n 31674: a0 = u64 [s1 + 0x150]\n 31678: u64 [a4 + 0xe8] = a0\n 31682: a0 = s1 + 0x7ff\n 31686: a0 = a0 + 0x1\n 31689: a1 = s1 + 0x7e0\n 31693: a2 = s1 + 0x7c0\n 31697: a3 = u64 [s1 + 0x158]\n 31701: u64 [a4 + 0xe0] = a3\n 31705: ra = 1144, jump @1722\n      : @1106 [@dyn 572] (gas: 9)\n 31711: a3 = s1 + 0x100\n 31715: a1 = u64 [a3 + 0x28]\n 31718: a5 = u64 [a3 + 0x30]\n 31721: a0 = 0xffffffa0\n 31731: a0 = a5 <u a0\n 31734: a0 = 0 if a1 != 0\n 31736: a2 = u64 [a3 + 0x10]\n 31739: a0 = 0 if a2 != 0\n 31741: jump @1108 if a0 != 0\n      : @1107 (gas: 1)\n 31744: jump @1603\n      : @1108 (gas: 38)\n 31747: a0 = s1 + 0x1000\n 31751: a2 = u64 [a0 + 0xfffffffffffff800]\n 31755: a0 = s1 + 0x1000\n 31759: a0 = u64 [a0 + 0xfffffffffffff808]\n 31763: a3 = s1 + 0x1000\n 31767: t1 = u64 [a3 + 0xfffffffffffff818]\n 31771: u64 [s1 + 0x1a8] = t1\n 31775: a3 = s1 + 0x1000\n 31779: a4 = u64 [a3 + 0xfffffffffffff810]\n 31783: u64 [s1 + 0x1b0] = a4\n 31787: t0 = a2 <u a5\n 31790: t2 = a2\n 31792: u64 [s1 + 0x198] = a2\n 31796: a3 = a0 ^ a1\n 31799: a2 = a0 <u a1\n 31802: ra = a0\n 31804: u64 [s1 + 0x1b8] = a0\n 31808: a2 = t0 if a3 == 0\n 31811: a3 = u64 [s1 + 0x120]\n 31815: a0 = a4 - a3\n 31818: a3 = a4 <u a3\n 31821: a4 = u64 [s1 + 0x118]\n 31825: a4 = t1 - a4\n 31828: a4 = a4 - a3\n 31831: a3 = a0 <u a2\n 31834: t1 = a4 - a3\n 31837: a4 = a0 - a2\n 31840: a2 = ra - a1\n 31843: a2 = a2 - t0\n 31846: a3 = t2 - a5\n 31849: i32 a0 = a5 + 0x60\n 31852: a1 = s1 + 0x700\n 31856: u64 [a1 + 0xa0] = a3\n 31860: u64 [a1 + 0xa8] = a2\n 31864: u64 [a1 + 0xb0] = a4\n 31868: a1 = s1 + 0x7a0\n 31872: u64 [s1 + 0x7b8] = t1\n 31876: ra = 1146, jump @19\n      : @1109 [@dyn 573] (gas: 3)\n 31882: a0 = s1 + 0x780\n 31886: a1 = u64 [s1 + 0xc8]\n 31890: ra = 1148, jump @17\n      : @1110 [@dyn 574] (gas: 13)\n 31896: a5 = s1 + 0x100\n 31900: a0 = u64 [a5 + 0x98]\n 31904: a3 = u64 [a5 + 0xb0]\n 31908: a2 = a0 | a3\n 31911: a1 = u64 [a5 + 0xa8]\n 31915: a4 = u64 [a5 + 0xb8]\n 31919: a1 = a1 | a4\n 31922: a2 = a2 | a1\n 31925: a2 = a2 >> 0x20\n 31928: a1 = a1 | a3\n 31931: a1 = a1 << 0x20\n 31934: a1 = a1 | a2\n 31937: jump @1112 if a1 == 0\n      : @1111 (gas: 1)\n 31940: jump @1603\n      : @1112 (gas: 15)\n 31943: a5 = s1 + 0x700\n 31947: a2 = u64 [a5 + 0x98]\n 31951: a1 = u64 [a5 + 0x90]\n 31955: a3 = u64 [a5 + 0x88]\n 31959: a4 = u64 [a5 + 0x80]\n 31963: u64 [s1 + 0x140] = a4\n 31967: u64 [a5 + 0x60] = a4\n 31970: u64 [s1 + 0x148] = a3\n 31974: u64 [a5 + 0x68] = a3\n 31977: u64 [s1 + 0x150] = a1\n 31981: u64 [a5 + 0x70] = a1\n 31984: a1 = s1 + 0x760\n 31988: u64 [s1 + 0x158] = a2\n 31992: u64 [a5 + 0x78] = a2\n 31995: ra = 1150, jump @19\n      : @1113 [@dyn 575] (gas: 8)\n 32001: t1 = u64 [s1 + 0x198]\n 32005: t0 = 0\n 32007: t2 = 0\n 32009: a5 = 0\n 32011: a4 = 0\n 32013: a0 = 0xffffffe0\n 32023: u64 [s1 + 0x138] = a0\n 32027: fallthrough\n      : @1114 (gas: 35)\n 32028: ra = t1 + 0x20\n 32031: a0 = u64 [s1 + 0x140]\n 32035: u64 [s1 + 0x178] = t0\n 32039: a0 = t0 <u a0\n 32042: a2 = u64 [s1 + 0x148]\n 32046: a3 = t2 ^ a2\n 32049: a2 = t2 <u a2\n 32052: a2 = a0 if a3 == 0\n 32055: a0 = u64 [s1 + 0x150]\n 32059: t0 = a5 <u a0\n 32062: a3 = u64 [s1 + 0x158]\n 32066: a1 = a4 ^ a3\n 32069: u64 [s1 + 0x170] = a4\n 32073: a3 = a4 <u a3\n 32076: a3 = t0 if a1 == 0\n 32079: u64 [s1 + 0x168] = a5\n 32083: a0 = a0 ^ a5\n 32086: a0 = a0 | a1\n 32089: u64 [s1 + 0x1a0] = ra\n 32093: a4 = ra <u t1\n 32096: a3 = a2 if a0 == 0\n 32099: a1 = s1 + 0x100\n 32103: a2 = u64 [a1 + 0xb8]\n 32107: a0 = a2 + a4\n 32110: u64 [a1 + 0x90] = a0\n 32114: a0 = a0 <u a2\n 32117: a0 = a4 if a4 == 0\n 32120: a2 = u64 [a1 + 0xb0]\n 32124: a0 = a0 + a2\n 32127: u64 [a1 + 0x88] = a0\n 32131: a0 = a0 <u a2\n 32134: a2 = u64 [a1 + 0xa8]\n 32138: a0 = a0 + a2\n 32141: u64 [a1 + 0x80] = a0\n 32145: jump @1116 if a3 != 0\n      : @1115 (gas: 1)\n 32148: jump @1389\n      : @1116 (gas: 14)\n 32151: u64 [s1 + 0x160] = t2\n 32155: u64 [s1 + 0x198] = t1\n 32159: a3 = u64 [s1 + 0x68]\n 32162: a4 = u64 [s1 + 0x50]\n 32165: a0 = a3 | a4\n 32168: a1 = u64 [s1 + 0x60]\n 32171: a2 = u64 [s1 + 0x58]\n 32174: a2 = a2 | a1\n 32177: a0 = a0 | a2\n 32180: a0 = a0 >> 0x20\n 32183: a2 = a2 | a4\n 32186: a2 = a2 << 0x20\n 32189: a0 = a0 | a2\n 32192: jump @1118 if a0 == 0\n      : @1117 (gas: 1)\n 32195: jump @1603\n      : @1118 (gas: 4)\n 32198: a0 = s1 + 0x6c0\n 32202: a1 = a3\n 32204: u64 [s1 + 0x68] = a3\n 32207: ra = 1152, jump @17\n      : @1119 [@dyn 576] (gas: 11)\n 32213: a3 = s1 + 0x100\n 32217: a0 = u64 [a3 + 0xb0]\n 32221: a1 = u64 [a3 + 0xa8]\n 32225: a0 = a0 | a1\n 32228: a1 = u64 [a3 + 0x98]\n 32232: a2 = u64 [a3 + 0x38]\n 32235: a1 = a1 <u a2\n 32238: a2 = u64 [a3 + 0xb8]\n 32242: a1 = 0 if a2 != 0\n 32244: a1 = 0 if a0 != 0\n 32246: jump @1121 if a1 != 0\n      : @1120 (gas: 1)\n 32249: jump @1603\n      : @1121 (gas: 16)\n 32252: a4 = s1 + 0x600\n 32256: a0 = u64 [a4 + 0xd8]\n 32260: a1 = u64 [a4 + 0xd0]\n 32264: a2 = u64 [a4 + 0xc0]\n 32268: a3 = u64 [a4 + 0xc8]\n 32272: a1 = a1 | a2\n 32275: a0 = a0 | a3\n 32278: a0 = a0 | a1\n 32281: a0 = a0 >u 0\n 32283: u64 [s1 + 1720] = 0\n 32287: u64 [s1 + 1712] = 0\n 32291: u64 [s1 + 1704] = 0\n 32295: a1 = s1 + 0x6a0\n 32299: u64 [a4 + 0xa0] = a0\n 32303: a0 = u64 [s1 + 0x1a0]\n 32307: ra = 1154, jump @19\n      : @1122 [@dyn 577] (gas: 5)\n 32313: a1 = u64 [s1 + 0x68]\n 32316: a0 = a1 + 0x20\n 32319: a1 = a0 <u a1\n 32322: a3 = u64 [s1 + 0x58]\n 32325: t0 = 1156, jump @2010\n      : @1123 [@dyn 578] (gas: 29)\n 32331: a1 = u64 [s1 + 0x50]\n 32334: a3 = a3 + a1\n 32337: a1 = a3 <u a1\n 32340: a4 = u64 [s1 + 0x60]\n 32343: a4 = a4 + a1\n 32346: u64 [s1 + 0x60] = a4\n 32349: t0 = u64 [s1 + 0x178]\n 32353: t0 = t0 + 0x1\n 32356: a1 = t0 <u 0x1\n 32359: t2 = u64 [s1 + 0x160]\n 32363: t2 = t2 + a1\n 32366: a1 = t0 | t2\n 32369: a1 = a1 <u 0x1\n 32372: a4 = u64 [s1 + 0x168]\n 32376: a5 = a4 + a1\n 32379: a4 = a5 <u a4\n 32382: a1 = u64 [s1 + 0x170]\n 32386: a4 = a4 + a1\n 32389: t1 = u64 [s1 + 0x1a0]\n 32393: a1 = u64 [s1 + 0x190]\n 32397: u64 [s1 + 0x1b8] = a1\n 32401: a1 = u64 [s1 + 0x188]\n 32405: u64 [s1 + 0x1b0] = a1\n 32409: a1 = u64 [s1 + 0x180]\n 32413: u64 [s1 + 0x1a8] = a1\n 32417: u64 [s1 + 0x68] = a0\n 32420: u64 [s1 + 0x58] = a2\n 32423: u64 [s1 + 0x50] = a3\n 32426: jump @1114\n      : @1124 (gas: 9)\n 32429: u64 [s1 + 360] = 0\n 32433: u64 [s1 + 352] = 0\n 32437: u64 [s1 + 336] = 0\n 32441: u64 [s1 + 344] = 0\n 32445: u64 [s1 + 392] = 0\n 32449: u64 [s1 + 384] = 0\n 32453: u64 [s1 + 368] = 0\n 32457: u64 [s1 + 376] = 0\n 32461: fallthrough\n      : @1125 (gas: 3)\n 32462: a0 = s1 + 0x2800\n 32466: a1 = u64 [s1 + 0x118]\n 32470: ra = 1158, jump @17\n      : @1126 [@dyn 579] (gas: 22)\n 32476: a3 = s1 + 0x2138\n 32480: a4 = a3 + 0x600\n 32484: a0 = u64 [a4 + 0xd0]\n 32488: a1 = u64 [a4 + 0xe0]\n 32492: a2 = u64 [a4 + 0xc8]\n 32496: t1 = u64 [a3 + 0x6d8]\n 32500: a3 = u64 [s1 + 0x180]\n 32504: a4 = a3 ^ a0\n 32507: a0 = a3 <u a0\n 32510: t0 = u64 [s1 + 0x188]\n 32514: a2 = t0 <u a2\n 32517: a2 = a0 if a4 != 0\n 32520: a5 = u64 [s1 + 0x170]\n 32524: a0 = a5 <u t1\n 32527: a4 = u64 [s1 + 0x178]\n 32531: t2 = a4 ^ a1\n 32534: a1 = a4 <u a1\n 32537: a1 = a0 if t2 == 0\n 32540: a0 = a5 ^ t1\n 32543: a0 = a0 | t2\n 32546: a1 = a2 if a0 == 0\n 32549: jump @1167 if a1 == 0\n      : @1127 (gas: 19)\n 32553: a1 = s1 + 0x1938\n 32557: u64 [a1 + 0x3a8] = t0\n 32561: a0 = u64 [s1 + 0x118]\n 32565: a2 = a1 + 0x300\n 32569: u64 [a2 + 0xc8] = a0\n 32573: u64 [a2 + 0xb0] = a3\n 32577: a0 = u64 [s1 + 0x110]\n 32581: u64 [a2 + 0xd0] = a0\n 32585: u64 [a2 + 0xb8] = a5\n 32589: a0 = u64 [s1 + 0x108]\n 32593: u64 [a2 + 0xd8] = a0\n 32597: u64 [a2 + 0xc0] = a4\n 32601: a4 = a1\n 32603: a0 = s1 + 0x1d20\n 32607: a1 = s1 + 0x1d00\n 32611: a2 = s1 + 0x1ce0\n 32615: a3 = u64 [s1 + 0x100]\n 32619: u64 [a4 + 0x3e0] = a3\n 32623: ra = 1160, jump @1858\n      : @1128 [@dyn 580] (gas: 7)\n 32629: a1 = s1 + 0x1938\n 32633: a0 = u64 [a1 + 0x400]\n 32637: a4 = a1 + 0x300\n 32641: a2 = u64 [a4 + 0xf8]\n 32645: a3 = u64 [a4 + 0xf0]\n 32649: a1 = u64 [a4 + 0xe8]\n 32653: t0 = 1162, jump @1991\n      : @1129 [@dyn 581] (gas: 1)\n 32659: jump @1131 if a0 == 0\n      : @1130 (gas: 1)\n 32662: jump @1603\n      : @1131 (gas: 2)\n 32665: a0 = s1 + 0x1cc0\n 32669: ra = 1164, jump @17\n      : @1132 [@dyn 582] (gas: 22)\n 32675: a1 = s1 + 0x1938\n 32679: a2 = a1 + 0x300\n 32683: a0 = u64 [a2 + 0xa0]\n 32687: u64 [s1 + 0x1a0] = a0\n 32691: a0 = u64 [a2 + 0x98]\n 32695: u64 [s1 + 0x1a8] = a0\n 32699: a0 = u64 [a2 + 0x90]\n 32703: u64 [s1 + 0x1b0] = a0\n 32707: a0 = u64 [a2 + 0x88]\n 32711: u64 [s1 + 0x1b8] = a0\n 32715: a0 = u64 [s1 + 0x120]\n 32719: u64 [a2 + 0x80] = a0\n 32723: a0 = u64 [s1 + 0x128]\n 32727: u64 [a2 + 0x78] = a0\n 32730: a0 = u64 [s1 + 0x130]\n 32734: u64 [a2 + 0x70] = a0\n 32737: a2 = a1\n 32739: a1 = s1 + 0x1ca0\n 32743: a0 = u64 [s1 + 0x138]\n 32747: u64 [a2 + 0x368] = a0\n 32751: a0 = 0\n 32753: ra = 1166, jump @19\n      : @1133 [@dyn 583] (gas: 9)\n 32759: a0 = s1 + 0x1938\n 32763: u64 [a0 + 864] = 0\n 32767: u64 [a0 + 856] = 0\n 32771: u64 [a0 + 848] = 0\n 32775: a2 = a0\n 32777: a0 = 0x20\n 32780: a1 = s1 + 0x1c80\n 32784: u64 [a2 + 840] = 0\n 32788: ra = 1168, jump @19\n      : @1134 [@dyn 584] (gas: 3)\n 32794: a1 = u64 [s1 + 0x190]\n 32798: a0 = i32 [a1]\n 32800: jump @1136 if a0 >u 63\n      : @1135 (gas: 2)\n 32804: u32 [a1 + 0] = 0x40\n 32807: fallthrough\n      : @1136 (gas: 4)\n 32808: a0 = sp + 0xffffffffffffffe0\n 32811: a0 = a0 & 0xffffffffffffffe0\n 32814: u64 [s1 + 0x148] = a0\n 32818: t0 = 1170, jump @1962\n      : @1137 [@dyn 585] (gas: 3)\n 32824: ra = 0x494\n 32828: ecalli 8 // 'hash_keccak_256'\n 32830: fallthrough\n      : @1138 [@dyn 586] (gas: 11)\n 32831: a3 = u64 [s1 + 0x148]\n 32835: a0 = u64 [a3]\n 32837: a1 = u64 [a3 + 0x8]\n 32840: a2 = u64 [a3 + 0x10]\n 32843: a3 = u64 [a3 + 0x18]\n 32846: a0 = reverse a0\n 32848: a1 = reverse a1\n 32850: a2 = reverse a2\n 32852: a3 = reverse a3\n 32854: a4 = a3 + 0x5\n 32857: t0 = 1174, jump @1960\n      : @1139 [@dyn 587] (gas: 7)\n 32863: u64 [a3 + 0x68] = a4\n 32866: u64 [a3 + 0x70] = a5\n 32869: u64 [a3 + 0x78] = a2\n 32872: u64 [a3 + 0x80] = a0\n 32876: a0 = s1 + 0x1c60\n 32880: a1 = s1 + 0x4ea0\n 32884: ra = 1176, jump @21\n      : @1140 [@dyn 588] (gas: 28)\n 32890: a4 = s1 + 0x1938\n 32894: a5 = a4 + 0x300\n 32898: a0 = u64 [a5 + 0x30]\n 32901: a1 = u64 [a5 + 0x28]\n 32904: a2 = u64 [a5 + 0x38]\n 32907: a3 = u64 [a5 + 0x40]\n 32910: t0 = a4\n 32912: a5 = u64 [s1 + 0x1b0]\n 32916: a4 = a5 ^ a0\n 32919: a0 = a5 <u a0\n 32922: a5 = u64 [s1 + 0x1b8]\n 32926: a1 = a5 <u a1\n 32929: a1 = a0 if a4 != 0\n 32932: a4 = u64 [s1 + 0x1a0]\n 32936: a0 = a4 ^ a3\n 32939: a3 = a4 <u a3\n 32942: a5 = u64 [s1 + 0x1a8]\n 32946: a4 = a5 <u a2\n 32949: a4 = a3 if a0 != 0\n 32952: a2 = a2 ^ a5\n 32955: a0 = a0 | a2\n 32958: a1 = a4 if a0 != 0\n 32961: u64 [t0 + 800] = 0\n 32965: u64 [t0 + 792] = 0\n 32969: u64 [t0 + 0x308] = a1\n 32973: a0 = s1 + 0x1c40\n 32977: u64 [t0 + 784] = 0\n 32981: ra = 1178, jump @1908\n      : @1141 [@dyn 589] (gas: 4)\n 32987: a0 = u64 [s1 + 0x120]\n 32991: t0 = 0x49c\n 32995: a2 = s1 + 0x1938\n 32999: fallthrough\n      : @1142 [@dyn 590] (gas: 11)\n 33000: u64 [a2 + 0x300] = a0\n 33004: a0 = u64 [s1 + 0x128]\n 33008: a3 = a2 + 0x200\n 33012: u64 [a3 + 0xf8] = a0\n 33016: a0 = u64 [s1 + 0x130]\n 33020: u64 [a3 + 0xf0] = a0\n 33024: a1 = s1 + 0x1c20\n 33028: a0 = u64 [s1 + 0x138]\n 33032: u64 [a3 + 0xe8] = a0\n 33036: a0 = 0\n 33038: ra = 1182, jump @19\n      : @1143 [@dyn 591] (gas: 2)\n 33044: a0 = 0x1938\n 33048: t0 = 1184, jump @2034\n      : @1144 [@dyn 592] (gas: 3)\n 33054: a1 = s1 + 0x1c00\n 33058: u64 [a2 + 712] = 0\n 33062: ra = 1186, jump @19\n      : @1145 [@dyn 593] (gas: 3)\n 33068: a1 = u64 [s1 + 0x190]\n 33072: a0 = i32 [a1]\n 33074: jump @1147 if a0 >u 63\n      : @1146 (gas: 2)\n 33078: u32 [a1 + 0] = 0x40\n 33081: fallthrough\n      : @1147 (gas: 4)\n 33082: a0 = sp + 0xffffffffffffffe0\n 33085: a0 = a0 & 0xffffffffffffffe0\n 33088: u64 [s1 + 0x148] = a0\n 33092: t0 = 1188, jump @1962\n      : @1148 [@dyn 594] (gas: 4)\n 33098: ra = 0x4a6\n 33102: ecalli 8 // 'hash_keccak_256'\n 33104: t0 = 0x4a8\n 33108: jump @1954\n      : @1149 [@dyn 595] (gas: 1)\n 33111: t0 = 1192, jump @1954\n      : @1150 [@dyn 596] (gas: 17)\n 33117: u64 [a1 + 0x260] = a0\n 33121: a0 = u64 [s1 + 0x1a8]\n 33125: u64 [a1 + 0x258] = a0\n 33129: a0 = u64 [s1 + 0x1b0]\n 33133: u64 [a1 + 0x250] = a0\n 33137: a0 = u64 [s1 + 0x1b8]\n 33141: u64 [a1 + 0x248] = a0\n 33145: a0 = a1 + 0x200\n 33149: u64 [a0 + 0x68] = a4\n 33152: u64 [a0 + 0x70] = a5\n 33155: u64 [a0 + 0x78] = a2\n 33158: a4 = a1\n 33160: a0 = s1 + 0x1bc0\n 33164: a1 = s1 + 0x1ba0\n 33168: a2 = s1 + 0x1b80\n 33172: u64 [a4 + 0x280] = a3\n 33176: ra = 1194, jump @1847\n      : @1151 [@dyn 597] (gas: 7)\n 33182: a3 = s1 + 0x1938\n 33186: a4 = a3 + 0x200\n 33190: a0 = u64 [a4 + 0x88]\n 33194: a1 = u64 [a4 + 0xa0]\n 33198: a2 = u64 [a4 + 0x90]\n 33202: a3 = u64 [a4 + 0x98]\n 33206: t0 = 1196, jump @1985\n      : @1152 [@dyn 598] (gas: 8)\n 33212: a3 = a1 + 0x500\n 33216: u64 [a3 + 0x88] = a4\n 33220: u64 [a3 + 0x90] = a5\n 33224: u64 [a3 + 0x98] = a2\n 33228: u64 [a3 + 0xa0] = a0\n 33232: a0 = s1 + 0x1b60\n 33236: a1 = s1 + 0x4ec0\n 33240: ra = 1198, jump @21\n      : @1153 [@dyn 599] (gas: 3)\n 33246: a1 = s1 + 0x1938\n 33250: a0 = u8 [a1 + 0x228]\n 33254: jump @1218 if a0 != 0\n      : @1154 (gas: 13)\n 33258: a0 = u64 [s1 + 0x138]\n 33262: a2 = a1 + 0x100\n 33266: u64 [a2 + 0x68] = a0\n 33269: a0 = u64 [s1 + 0x130]\n 33273: u64 [a2 + 0x70] = a0\n 33276: a0 = u64 [s1 + 0x128]\n 33280: u64 [a2 + 0x78] = a0\n 33283: a2 = a1\n 33285: a1 = s1 + 0x1aa0\n 33289: a0 = u64 [s1 + 0x120]\n 33293: u64 [a2 + 0x180] = a0\n 33297: a0 = 0\n 33299: ra = 1200, jump @19\n      : @1155 [@dyn 600] (gas: 9)\n 33306: a0 = s1 + 0x1938\n 33310: u64 [a0 + 352] = 0\n 33314: u64 [a0 + 344] = 0\n 33318: u64 [a0 + 336] = 0\n 33322: a2 = a0\n 33324: a0 = 0x20\n 33327: a1 = s1 + 0x1a80\n 33331: u64 [a2 + 328] = 0\n 33335: ra = 1202, jump @19\n      : @1156 [@dyn 601] (gas: 3)\n 33342: a1 = u64 [s1 + 0x190]\n 33346: a0 = i32 [a1]\n 33348: jump @1158 if a0 >u 63\n      : @1157 (gas: 2)\n 33352: u32 [a1 + 0] = 0x40\n 33355: fallthrough\n      : @1158 (gas: 4)\n 33356: a0 = sp + 0xffffffffffffffe0\n 33359: a0 = a0 & 0xffffffffffffffe0\n 33362: u64 [s1 + 0x148] = a0\n 33366: t0 = 1204, jump @1962\n      : @1159 [@dyn 602] (gas: 4)\n 33372: ra = 0x4b6\n 33376: ecalli 8 // 'hash_keccak_256'\n 33378: t0 = 0x4b8\n 33382: jump @1954\n      : @1160 [@dyn 603] (gas: 1)\n 33385: t0 = 1208, jump @1954\n      : @1161 [@dyn 604] (gas: 16)\n 33391: u64 [a1 + 0xe0] = a0\n 33395: a0 = u64 [s1 + 0x1a8]\n 33399: u64 [a1 + 0xd8] = a0\n 33403: a0 = u64 [s1 + 0x1b0]\n 33407: u64 [a1 + 0xd0] = a0\n 33411: a0 = u64 [s1 + 0x1b8]\n 33415: u64 [a1 + 0xc8] = a0\n 33419: u64 [a1 + 0xe8] = a4\n 33423: u64 [a1 + 0xf0] = a5\n 33427: u64 [a1 + 0xf8] = a2\n 33431: a4 = a1\n 33433: a0 = s1 + 0x1a40\n 33437: a1 = s1 + 0x1a20\n 33441: a2 = s1 + 0x1a00\n 33445: u64 [a4 + 0x100] = a3\n 33449: ra = 1210, jump @1847\n      : @1162 [@dyn 605] (gas: 2)\n 33455: a0 = 0x2000\n 33459: t0 = 1212, jump @2033\n      : @1163 [@dyn 606] (gas: 5)\n 33465: a0 = u64 [a4 + 0x8]\n 33468: a1 = u64 [a4 + 0x20]\n 33471: a2 = u64 [a4 + 0x10]\n 33474: a3 = u64 [a4 + 0x18]\n 33477: t0 = 1214, jump @2007\n      : @1164 [@dyn 607] (gas: 10)\n 33483: i32 a3 = a3 + 0xfffffffffffff938\n 33487: a3 = a3 + s1\n 33490: a5 = a3 + 0x500\n 33494: u64 [a5 + 0xa8] = a0\n 33498: u64 [a5 + 0xb0] = a2\n 33502: u64 [a5 + 0xb8] = a4\n 33506: u64 [a5 + 0xc0] = a1\n 33510: a0 = s1 + 0x19e0\n 33514: a1 = s1 + 0x4ee0\n 33518: ra = 1216, jump @21\n      : @1165 [@dyn 608] (gas: 21)\n 33525: a4 = s1 + 0x1938\n 33529: a0 = u64 [a4 + 0xa8]\n 33533: a1 = u64 [a4 + 0xb0]\n 33537: a2 = u64 [a4 + 0xb8]\n 33541: a3 = u64 [a4 + 0xc0]\n 33545: u64 [a4 + 0x60] = a3\n 33548: u64 [a4 + 0x58] = a2\n 33551: u64 [a4 + 0x50] = a1\n 33554: u64 [a4 + 0x48] = a0\n 33557: a0 = u64 [s1 + 0x158]\n 33561: u64 [a4 + 0x80] = a0\n 33565: a0 = u64 [s1 + 0x150]\n 33569: u64 [a4 + 0x78] = a0\n 33572: a0 = u64 [s1 + 0x160]\n 33576: u64 [a4 + 0x70] = a0\n 33579: a0 = s1 + 0x19c0\n 33583: a1 = s1 + 0x19a0\n 33587: a2 = s1 + 0x1980\n 33591: a3 = u64 [s1 + 0x168]\n 33595: u64 [a4 + 0x68] = a3\n 33598: ra = 1218, jump @1926\n      : @1166 [@dyn 609] (gas: 27)\n 33604: a1 = s1 + 0x1938\n 33608: a0 = u64 [a1 + 0xa0]\n 33612: a3 = s1 + 0x100\n 33616: u64 [a3 + 0x58] = a0\n 33619: a0 = u64 [a1 + 0x98]\n 33623: u64 [a3 + 0x50] = a0\n 33626: a0 = u64 [a1 + 0x90]\n 33630: u64 [a3 + 0x60] = a0\n 33633: a0 = u64 [a1 + 0x88]\n 33637: u64 [a3 + 0x68] = a0\n 33640: a1 = u64 [a3 + 0x88]\n 33644: a1 = a1 + 0x1\n 33647: a0 = a1 <u 0x1\n 33650: a2 = u64 [a3 + 0x80]\n 33654: a2 = a2 + a0\n 33657: u64 [a3 + 0x88] = a1\n 33661: u64 [a3 + 0x80] = a2\n 33665: a0 = a1 | a2\n 33668: a0 = a0 <u 0x1\n 33671: a1 = u64 [a3 + 0x70]\n 33674: a0 = a0 + a1\n 33677: a1 = a0 <u a1\n 33680: a2 = u64 [a3 + 0x78]\n 33683: a2 = a2 + a1\n 33686: u64 [a3 + 0x78] = a2\n 33689: u64 [a3 + 0x70] = a0\n 33692: jump @1125\n      : @1167 (gas: 17)\n 33695: a0 = u64 [s1 + 0xe0]\n 33699: a4 = s1 + 0x100\n 33703: a1 = u64 [a4 + 0x68]\n 33706: a0 = a0 ^ a1\n 33709: a1 = u64 [s1 + 0xf0]\n 33713: a2 = u64 [a4 + 0x50]\n 33716: a1 = a1 ^ a2\n 33719: a0 = a0 | a1\n 33722: a1 = u64 [s1 + 0xe8]\n 33726: a2 = u64 [a4 + 0x60]\n 33729: a1 = a1 ^ a2\n 33732: a2 = u64 [s1 + 0xf8]\n 33736: a3 = u64 [a4 + 0x58]\n 33739: a2 = a2 ^ a3\n 33742: a1 = a1 | a2\n 33745: a0 = a0 | a1\n 33748: jump @1249 if a0 != 0\n      : @1168 (gas: 8)\n 33752: a1 = s1 + 0x4938\n 33756: u64 [a1 + 1504] = 0\n 33760: u64 [a1 + 1496] = 0\n 33764: u64 [a1 + 1488] = 0\n 33768: u64 [a1 + 1480] = 0x4\n 33773: a0 = s1 + 0x2740\n 33777: a1 = s1 + 0x4f00\n 33781: ra = 1220, jump @21\n      : @1169 [@dyn 610] (gas: 11)\n 33788: a1 = s1 + 0x2138\n 33792: a2 = a1 + 0x600\n 33796: a0 = u64 [a2 + 0x18]\n 33799: u64 [s1 + 0x180] = a0\n 33803: a0 = u64 [a2 + 0x10]\n 33806: u64 [s1 + 0x178] = a0\n 33810: a0 = u64 [a2 + 0x8]\n 33813: u64 [s1 + 0x188] = a0\n 33817: a0 = s1 + 0x2720\n 33821: a1 = 0x40\n 33824: ra = 1222, jump @17\n      : @1170 [@dyn 611] (gas: 18)\n 33831: a2 = s1 + 0x2138\n 33835: a3 = u64 [a2 + 0x600]\n 33839: a5 = a2 + 0x500\n 33843: a4 = u64 [a5 + 0xf8]\n 33847: a1 = u64 [a5 + 0xf0]\n 33851: a0 = u64 [a5 + 0xe8]\n 33855: a5 = s1 + 0x100\n 33859: u64 [a5 + 0xb8] = a1\n 33863: u64 [a5 + 0xa8] = a3\n 33867: a3 = a3 | a1\n 33870: a1 = a0 | a4\n 33873: a1 = a1 | a3\n 33876: a1 = a1 >> 0x20\n 33879: u64 [a5 + 0xa0] = a4\n 33883: a3 = a3 | a4\n 33886: a3 = a3 << 0x20\n 33889: a1 = a1 | a3\n 33892: jump @1172 if a1 == 0\n      : @1171 (gas: 1)\n 33895: jump @1603\n      : @1172 (gas: 8)\n 33898: u64 [a2 + 1496] = 0\n 33902: u64 [a2 + 1488] = 0\n 33906: u64 [a2 + 1480] = 0\n 33910: a3 = 0xdd62ed3e00000000\n 33920: a1 = s1 + 0x2700\n 33924: u64 [a2 + 0x5e0] = a3\n 33928: u64 [s1 + 0x1b0] = a0\n 33932: ra = 1224, jump @19\n      : @1173 [@dyn 612] (gas: 4)\n 33939: a0 = u64 [s1 + 0xd8]\n 33943: ra = 0x4ca\n 33947: ecalli 5 // 'caller'\n 33949: fallthrough\n      : @1174 [@dyn 613] (gas: 14)\n 33950: a3 = s1 + 0x100\n 33954: a4 = u64 [a3 + 0xb0]\n 33958: a0 = u64 [a3 + 0xa8]\n 33962: a2 = u64 [a3 + 0xa0]\n 33966: a2 = a2 | a0\n 33969: a0 = 0x100000000\n 33979: u64 [a3 + 0x68] = a0\n 33982: a0 = 0xfffffffc\n 33992: a0 = a4 <u a0\n 33995: a1 = u64 [a3 + 0xb8]\n 33999: a0 = 0 if a1 != 0\n 34001: u64 [a3 + 0x70] = a2\n 34004: a0 = 0 if a2 != 0\n 34006: jump @1176 if a0 != 0\n      : @1175 (gas: 1)\n 34009: jump @1603\n      : @1176 (gas: 1)\n 34012: t0 = 1228, jump @1980\n      : @1177 [@dyn 614] (gas: 9)\n 34018: i32 a0 = a4 + 0x4\n 34021: a5 = s1 + 0x2138\n 34025: u64 [a5 + 1472] = 0\n 34029: a4 = a5 + 0x500\n 34033: u64 [a4 + 0xb8] = a1\n 34037: u64 [a4 + 0xb0] = a2\n 34041: a1 = s1 + 0x26e0\n 34045: u64 [a4 + 0xa8] = a3\n 34049: ra = 1230, jump @19\n      : @1178 [@dyn 615] (gas: 4)\n 34056: a0 = u64 [s1 + 0xd8]\n 34060: ra = 0x4d0\n 34064: ecalli 0 // 'address'\n 34065: fallthrough\n      : @1179 [@dyn 616] (gas: 10)\n 34066: a2 = s1 + 0x100\n 34070: a0 = u64 [a2 + 0x68]\n 34073: a0 = a0 + 0xffffffffffffffdc\n 34076: a1 = u64 [a2 + 0xb0]\n 34080: a0 = a1 <u a0\n 34083: a1 = u64 [a2 + 0xb8]\n 34087: a0 = 0 if a1 != 0\n 34089: a1 = u64 [a2 + 0x70]\n 34092: a0 = 0 if a1 != 0\n 34094: jump @1181 if a0 != 0\n      : @1180 (gas: 1)\n 34097: jump @1603\n      : @1181 (gas: 1)\n 34100: t0 = 1234, jump @1980\n      : @1182 [@dyn 617] (gas: 10)\n 34106: a0 = u64 [s1 + 0x1b0]\n 34110: i32 a0 = a0 + 0x24\n 34113: a4 = s1 + 0x2138\n 34117: u64 [a4 + 1440] = 0\n 34121: a5 = a4 + 0x500\n 34125: u64 [a5 + 0x98] = a1\n 34129: u64 [a5 + 0x90] = a2\n 34133: a1 = s1 + 0x26c0\n 34137: u64 [a5 + 0x88] = a3\n 34141: ra = 1236, jump @19\n      : @1183 [@dyn 618] (gas: 29)\n 34148: ecalli 10 // 'ref_time_left'\n 34150: a0 = u64 [s1 + 0x178]\n 34154: a0 = reverse a0\n 34156: a1 = a0 << 0x20\n 34159: a2 = u64 [s1 + 0x180]\n 34163: a2 = reverse a2\n 34165: a2 = a2 >> 0x20\n 34168: a3 = a2 | a1\n 34171: a1 = u64 [s1 + 0x188]\n 34175: a1 = reverse a1\n 34177: a2 = a1 << 0x20\n 34180: a0 = a0 >> 0x20\n 34183: a0 = a0 | a2\n 34186: a1 = a1 >> 0x20\n 34189: u64 [s1 + 0x168] = a0\n 34193: a2 = u64 [s1 + 0x140]\n 34197: u64 [a2 + 0x8] = a0\n 34200: u64 [s1 + 0x178] = a3\n 34204: u64 [a2] = a3\n 34206: u64 [s1 + 0x170] = a1\n 34210: u32 [a2 + 0x10] = a1\n 34213: a0 = s1 + 0x4938\n 34217: u64 [a0 + 1536] = 0\n 34221: u64 [a0 + 1528] = 0\n 34225: u64 [a0 + 1520] = 0\n 34229: u64 [a0 + 1512] = 0\n 34233: a1 = 0x44\n 34236: a0 = u64 [s1 + 0x1b0]\n 34240: ra = 1238, jump @28\n      : @1184 [@dyn 619] (gas: 4)\n 34247: u64 [s1 + 0x180] = a0\n 34251: a1 = 0x20\n 34254: a0 = u64 [s1 + 0x1b0]\n 34258: ra = 1240, jump @28\n      : @1185 [@dyn 620] (gas: 36)\n 34265: a4 = s1 + 0x100\n 34269: u64 [a4 + 136] = 0x20\n 34274: a1 = s1 + 0x4938\n 34278: u32 [a1 + 1544] = 0x20\n 34283: u64 [a1 + 1600] = 0\n 34287: u64 [a1 + 1592] = 0\n 34291: u64 [a1 + 1584] = 0\n 34295: u64 [a1 + 1576] = 0\n 34299: a1 = u64 [a4 + 0x40]\n 34302: a1 = a1 << 0x20\n 34305: a2 = a1 >> 0x20\n 34308: a1 = 0x1800000000\n 34318: u64 [a4 + 0x60] = a2\n 34321: t0 = a2 | a1\n 34324: a1 = s1 + 0x4f20\n 34328: a1 = a1 << 0x20\n 34331: a1 = a1 >> 0x20\n 34334: a2 = s1 + 0x4f60\n 34338: a2 = a2 << 0x20\n 34341: a3 = a2 | a1\n 34344: a1 = u64 [a4 + 0x80]\n 34348: a1 = a1 << 0x20\n 34351: a1 = a1 >> 0x20\n 34354: a2 = 0x4400000000\n 34364: a4 = a1 | a2\n 34367: a0 = a0 << 0x20\n 34370: a0 = a0 >> 0x20\n 34373: a1 = s1 + 0x4f40\n 34377: a1 = a1 << 0x20\n 34380: a5 = a1 | a0\n 34383: a1 = 0xffffffffffffffff\n 34386: a2 = 0xffffffffffffffff\n 34389: u64 [s1 + 0x180] = t0\n 34393: a0 = t0\n 34395: ecalli 1 // 'call'\n 34397: fallthrough\n      : @1186 (gas: 1)\n 34398: jump @1188 if a0 == 0\n      : @1187 (gas: 1)\n 34401: jump @1397\n      : @1188 (gas: 2)\n 34404: ecalli 12 // 'return_data_size'\n 34406: fallthrough\n      : @1189 (gas: 1)\n 34407: jump @1191 if a0 >=u 32\n      : @1190 (gas: 3)\n 34411: ecalli 12 // 'return_data_size'\n 34413: u64 [s1 + 0x188] = a0\n 34417: fallthrough\n      : @1191 (gas: 19)\n 34418: a2 = s1 + 0x2138\n 34422: a0 = u64 [s1 + 0x188]\n 34426: a4 = a2 + 0x500\n 34430: u64 [a4 + 0x28] = a0\n 34433: a0 = u64 [s1 + 0x1b0]\n 34437: u64 [a4 + 0x48] = a0\n 34440: u64 [s1 + 344] = 0\n 34444: u64 [a2 + 1328] = 0\n 34448: a0 = u64 [s1 + 0x1b8]\n 34452: u64 [a4 + 0x50] = a0\n 34455: u64 [a2 + 1336] = 0\n 34459: a0 = u64 [s1 + 0x1a0]\n 34463: u64 [a4 + 0x58] = a0\n 34466: u64 [a2 + 1344] = 0\n 34470: a0 = s1 + 0x2680\n 34474: a1 = s1 + 0x2660\n 34478: a3 = u64 [s1 + 0x1a8]\n 34482: u64 [a4 + 0x60] = a3\n 34485: ra = 1242, jump @1749\n      : @1192 [@dyn 621] (gas: 4)\n 34491: a3 = u64 [s1 + 0x158]\n 34495: a0 = a3 >u 0\n 34497: a1 = u64 [s1 + 0x188]\n 34501: t0 = 1244, jump @1964\n      : @1193 [@dyn 622] (gas: 1)\n 34507: jump @1195 if a2 != 0\n      : @1194 (gas: 1)\n 34510: jump @1694\n      : @1195 (gas: 3)\n 34513: a0 = s1 + 0x2640\n 34517: a1 = u64 [s1 + 0x1b0]\n 34521: ra = 1246, jump @17\n      : @1196 [@dyn 623] (gas: 7)\n 34528: a3 = s1 + 0x2138\n 34532: a4 = a3 + 0x500\n 34536: a0 = u64 [a4 + 0x10]\n 34539: a1 = u64 [a4 + 0x20]\n 34542: a2 = u64 [a4 + 0x8]\n 34545: a3 = u64 [a4 + 0x18]\n 34548: t0 = 1248, jump @2025\n      : @1197 [@dyn 624] (gas: 12)\n 34554: t0 = a3 <u a0\n 34557: a5 = u64 [s1 + 0xf8]\n 34561: a4 = a1 ^ a5\n 34564: a1 = a1 <u a5\n 34567: a1 = t0 if a4 == 0\n 34570: a0 = a0 ^ a3\n 34573: a0 = a0 | a4\n 34576: a1 = a2 if a0 == 0\n 34579: u64 [s1 + 0x1a8] = a1\n 34583: a0 = s1 + 0x2620\n 34587: a1 = 0x40\n 34590: ra = 1250, jump @17\n      : @1198 [@dyn 625] (gas: 17)\n 34597: a1 = s1 + 0x2138\n 34601: a3 = u64 [a1 + 0x500]\n 34605: a5 = a1 + 0x400\n 34609: a4 = u64 [a5 + 0xf8]\n 34613: a0 = u64 [a5 + 0xe8]\n 34617: a2 = u64 [a5 + 0xf0]\n 34621: a5 = s1 + 0x100\n 34625: u64 [a5 + 0xb8] = a0\n 34629: a1 = a0 | a4\n 34632: u64 [a5 + 0xa0] = a2\n 34636: a0 = a2 | a3\n 34639: u64 [a5 + 0x58] = a3\n 34642: u64 [a5 + 0xb0] = a4\n 34646: a3 = a3 | a4\n 34649: u64 [a5 + 0x88] = a3\n 34653: a2 = u64 [a5 + 0xa8]\n 34657: jump @1200 if a2 != 0\n      : @1199 (gas: 1)\n 34660: jump @1414\n      : @1200 (gas: 7)\n 34663: a1 = a1 | a0\n 34666: a1 = a1 >> 0x20\n 34669: a2 = u64 [s1 + 0x1b0]\n 34673: a0 = a0 | a2\n 34676: a0 = a0 << 0x20\n 34679: a0 = a0 | a1\n 34682: jump @1202 if a0 == 0\n      : @1201 (gas: 1)\n 34685: jump @1603\n      : @1202 (gas: 8)\n 34688: a2 = s1 + 0x1938\n 34692: u64 [a2 + 1144] = 0\n 34696: u64 [a2 + 1136] = 0\n 34700: u64 [a2 + 1128] = 0\n 34704: t0 = 0x4e4\n 34708: a0 = 0x8c379a000000000\n 34718: a1 = 0x2000\n 34722: fallthrough\n      : @1203 [@dyn 626] (gas: 5)\n 34723: i32 a1 = a1 + 0xfffffffffffffda0\n 34727: a1 = a1 + s1\n 34730: u64 [a2 + 0x480] = a0\n 34734: a0 = u64 [s1 + 0x1b8]\n 34738: ra = 1254, jump @19\n      : @1204 [@dyn 627] (gas: 5)\n 34745: a0 = 0x100000000\n 34755: a2 = s1 + 0x100\n 34759: u64 [a2 + 0xb0] = a0\n 34763: a0 = 0xfffffffc\n 34773: t0 = 1256, jump @1981\n      : @1205 [@dyn 628] (gas: 1)\n 34779: jump @1207 if a0 != 0\n      : @1206 (gas: 1)\n 34782: jump @1603\n      : @1207 (gas: 5)\n 34785: a0 = u64 [s1 + 0x1b8]\n 34789: i32 a0 = a0 + 0x4\n 34792: t0 = 0x4ea\n 34796: a2 = s1 + 0x1938\n 34800: fallthrough\n      : @1208 [@dyn 629] (gas: 6)\n 34801: u64 [a2 + 1120] = 0\n 34805: u64 [a2 + 1112] = 0\n 34809: u64 [a2 + 1096] = 0x20\n 34814: a1 = s1 + 0x1d80\n 34818: u64 [a2 + 1104] = 0\n 34822: ra = 1260, jump @19\n      : @1209 [@dyn 630] (gas: 4)\n 34829: a2 = s1 + 0x100\n 34833: a0 = u64 [a2 + 0xb0]\n 34837: a0 = a0 + 0xffffffffffffffdc\n 34840: t0 = 1262, jump @1981\n      : @1210 [@dyn 631] (gas: 1)\n 34846: jump @1212 if a0 != 0\n      : @1211 (gas: 1)\n 34849: jump @1603\n      : @1212 (gas: 1)\n 34852: t0 = 1264, jump @2001\n      : @1213 [@dyn 632] (gas: 6)\n 34858: u64 [a2 + 1088] = 0\n 34862: u64 [a2 + 1080] = 0\n 34866: u64 [a2 + 1064] = 0x16\n 34871: a1 = s1 + 0x1d60\n 34875: u64 [a2 + 1072] = 0\n 34879: ra = 1266, jump @19\n      : @1214 [@dyn 633] (gas: 3)\n 34886: a0 = 0xffffffbc\n 34896: a2 = s1 + 0x100\n 34900: t0 = 1268, jump @1981\n      : @1215 [@dyn 634] (gas: 1)\n 34906: jump @1217 if a0 != 0\n      : @1216 (gas: 1)\n 34909: jump @1603\n      : @1217 (gas: 14)\n 34912: a0 = u64 [s1 + 0x1b8]\n 34916: i32 a0 = a0 + 0x44\n 34919: a1 = u64 [0x200f0]\n 34924: a2 = u64 [0x20100]\n 34929: a3 = u64 [0x20108]\n 34934: a4 = s1 + 0x1938\n 34938: a5 = a4 + 0x400\n 34942: u64 [a5 + 0x20] = a1\n 34945: u64 [a5 + 0x18] = a2\n 34948: u64 [a5 + 0x10] = a3\n 34951: a1 = s1 + 0x1d40\n 34955: u64 [a4 + 1032] = 0\n 34959: ra = 0x64e\n 34963: jump @19\n      : @1218 (gas: 3)\n 34967: a0 = s1 + 0x1b40\n 34971: a1 = 0x40\n 34974: ra = 1270, jump @17\n      : @1219 [@dyn 635] (gas: 15)\n 34981: a0 = s1 + 0x1938\n 34985: a2 = a0 + 0x200\n 34989: a3 = u64 [a2 + 0x20]\n 34992: a4 = u64 [a2 + 0x18]\n 34995: a1 = u64 [a2 + 0x10]\n 34998: a0 = u64 [a2 + 0x8]\n 35001: u64 [s1 + 0x1b8] = a1\n 35005: a2 = a1 | a3\n 35008: a1 = a0 | a4\n 35011: a1 = a1 | a2\n 35014: a1 = a1 >> 0x20\n 35017: a2 = a2 | a4\n 35020: a2 = a2 << 0x20\n 35023: a1 = a1 | a2\n 35026: jump @1221 if a1 == 0\n      : @1220 (gas: 1)\n 35029: jump @1603\n      : @1221 (gas: 12)\n 35032: a1 = s1 + 0x1938\n 35036: u64 [s1 + 0x1a8] = a3\n 35040: a3 = a1\n 35042: u64 [a1 + 504] = 0\n 35046: u64 [a1 + 496] = 0\n 35050: u64 [a1 + 488] = 0\n 35054: a2 = 0x8c379a000000000\n 35064: a1 = s1 + 0x1b20\n 35068: u64 [a3 + 0x200] = a2\n 35072: u64 [s1 + 0x1b0] = a0\n 35076: u64 [s1 + 0x1a0] = a4\n 35080: ra = 1272, jump @19\n      : @1222 [@dyn 636] (gas: 14)\n 35087: a4 = s1 + 0x100\n 35091: a1 = u64 [a4 + 0xb0]\n 35095: a0 = u64 [a4 + 0xa8]\n 35099: a3 = u64 [a4 + 0xa0]\n 35103: a3 = a3 | a0\n 35106: a0 = 0x100000000\n 35116: u64 [a4 + 0xa0] = a0\n 35120: a0 = 0xfffffffc\n 35130: a0 = a1 <u a0\n 35133: a2 = u64 [a4 + 0xb8]\n 35137: a0 = 0 if a2 != 0\n 35139: u64 [a4 + 0xa8] = a3\n 35143: a0 = 0 if a3 != 0\n 35145: jump @1224 if a0 != 0\n      : @1223 (gas: 1)\n 35148: jump @1603\n      : @1224 (gas: 4)\n 35151: i32 a0 = a1 + 0x4\n 35154: t0 = 0x4fa\n 35158: a2 = s1 + 0x1938\n 35162: fallthrough\n      : @1225 [@dyn 637] (gas: 6)\n 35163: u64 [a2 + 480] = 0\n 35167: u64 [a2 + 472] = 0\n 35171: u64 [a2 + 456] = 0x20\n 35176: a1 = s1 + 0x1b00\n 35180: u64 [a2 + 464] = 0\n 35184: ra = 1276, jump @19\n      : @1226 [@dyn 638] (gas: 10)\n 35191: a3 = s1 + 0x100\n 35195: a2 = u64 [a3 + 0xb0]\n 35199: a0 = u64 [a3 + 0xa0]\n 35203: a0 = a0 + 0xffffffffffffffdc\n 35206: a0 = a2 <u a0\n 35209: a1 = u64 [a3 + 0xb8]\n 35213: a0 = 0 if a1 != 0\n 35215: a1 = u64 [a3 + 0xa8]\n 35219: a0 = 0 if a1 != 0\n 35221: jump @1228 if a0 != 0\n      : @1227 (gas: 1)\n 35224: jump @1603\n      : @1228 (gas: 8)\n 35227: i32 a0 = a2 + 0x24\n 35230: a3 = s1 + 0x1938\n 35234: u64 [a3 + 448] = 0\n 35238: u64 [a3 + 440] = 0\n 35242: u64 [a3 + 424] = 0x11\n 35247: a1 = s1 + 0x1ae0\n 35251: u64 [a3 + 432] = 0\n 35255: ra = 1278, jump @19\n      : @1229 [@dyn 639] (gas: 9)\n 35262: a0 = 0xffffffbc\n 35272: a2 = s1 + 0x100\n 35276: a1 = u64 [a2 + 0xb0]\n 35280: a0 = a1 <u a0\n 35283: a1 = u64 [a2 + 0xb8]\n 35287: a0 = 0 if a1 != 0\n 35289: a1 = u64 [a2 + 0xa8]\n 35293: a0 = 0 if a1 != 0\n 35295: jump @1231 if a0 != 0\n      : @1230 (gas: 1)\n 35298: jump @1603\n      : @1231 (gas: 13)\n 35301: a0 = u64 [s1 + 0x1b0]\n 35305: i32 a0 = a0 + 0x44\n 35308: a1 = u64 [0x20110]\n 35313: a2 = u64 [0x20118]\n 35318: a3 = s1 + 0x1938\n 35322: a4 = a3 + 0x100\n 35326: u64 [a4 + 0xa0] = a1\n 35330: u64 [a4 + 0x98] = a2\n 35334: a1 = 0x6400000000000000\n 35344: u64 [a4 + 0x90] = a1\n 35348: a1 = s1 + 0x1ac0\n 35352: u64 [a3 + 392] = 0\n 35356: ra = 1280, jump @19\n      : @1232 [@dyn 640] (gas: 4)\n 35363: a1 = 0x64\n 35366: a0 = u64 [s1 + 0x1b0]\n 35370: ra = 0x650\n 35374: jump @28\n      : @1233 (gas: 29)\n 35378: a3 = s1 + 0x100\n 35382: a0 = u64 [a3 + 0x58]\n 35385: a0 = a0 ^ 0x1\n 35388: a5 = u64 [a3 + 0x70]\n 35391: a1 = u64 [s1 + 0x40]\n 35394: a0 = a1 if a5 != 0\n 35397: a1 = u64 [a3 + 0x30]\n 35400: a2 = u64 [a3 + 0x60]\n 35403: a0 = a1 if a2 != 0\n 35406: t1 = u64 [s1 + 0x168]\n 35410: a1 = a5 | t1\n 35413: u64 [s1 + 0x40] = a1\n 35416: a2 = u64 [s1 + 0x60]\n 35419: t0 = a2 >> 0x3f\n 35422: t1 = t1 << 0x1\n 35425: t2 = a5 >> 0x3f\n 35428: ra = a2 << 0x1\n 35431: a1 = u64 [s1 + 0x90]\n 35435: a4 = a1 >> 0x3f\n 35438: a5 = a5 << 0x1\n 35441: a3 = a1 << 0x1\n 35444: u64 [s1 + 0x38] = a3\n 35447: u64 [s1 + 0x30] = t0\n 35450: u64 [s1 + 0x28] = t1\n 35453: u64 [s1 + 0x20] = a4\n 35456: u64 [s1 + 0x18] = t2\n 35459: u64 [s1 + 0x10] = a5\n 35462: u64 [s1 + 0x8] = ra\n 35465: jump @1268 if a0 == 0\n      : @1234 (gas: 15)\n 35469: a1 = a1 & 0xffffffffffffffe0\n 35472: u64 [s1 + 0x130] = a1\n 35476: a0 = s1 + 0x3938\n 35480: a1 = u64 [s1 + 0x70]\n 35483: a3 = a0 + 0x300\n 35487: u64 [a3 + 0x8] = a1\n 35490: a1 = u64 [s1 + 0x78]\n 35493: u64 [a3 + 0x10] = a1\n 35496: a1 = u64 [s1 + 0x88]\n 35500: u64 [a3 + 0x18] = a1\n 35503: a1 = s1 + 0x3c40\n 35507: a2 = u64 [s1 + 0x80]\n 35511: u64 [a3 + 0x20] = a2\n 35514: a0 = 0\n 35516: ra = 1282, jump @19\n      : @1235 [@dyn 641] (gas: 1)\n 35523: t0 = 1284, jump @1998\n      : @1236 [@dyn 642] (gas: 1)\n 35529: ra = 1286, jump @28\n      : @1237 [@dyn 643] (gas: 1)\n 35536: t0 = 1288, jump @1984\n      : @1238 [@dyn 644] (gas: 4)\n 35542: ra = 0x50a\n 35546: ecalli 8 // 'hash_keccak_256'\n 35548: t0 = 0x50c\n 35552: jump @2024\n      : @1239 [@dyn 645] (gas: 1)\n 35555: t0 = 1292, jump @2024\n      : @1240 [@dyn 646] (gas: 1)\n 35561: t0 = 1294, jump @1977\n      : @1241 [@dyn 647] (gas: 9)\n 35567: t0 = a0\n 35569: a1 = u64 [s1 + 0x190]\n 35573: u64 [a1 + 0x18] = a0\n 35576: u64 [s1 + 0x170] = ra\n 35580: u64 [a1 + 0x10] = ra\n 35583: u64 [a1 + 0x8] = t2\n 35586: u64 [a1] = t1\n 35588: u64 [s1 + 0x188] = t0\n 35592: t0 = 1296, jump @1968\n      : @1242 [@dyn 648] (gas: 9)\n 35598: ra = a5 + a3\n 35601: a2 = u64 [s1 + 0x140]\n 35605: a0 = u64 [s1 + 0x1b0]\n 35609: a2 = a2 + a0\n 35612: a0 = u64 [s1 + 0x148]\n 35616: a3 = a5\n 35618: a5 = u64 [s1 + 0x1a8]\n 35622: a0 = a0 + a5\n 35625: jump @1270 if a4 != 0\n      : @1243 (gas: 23)\n 35629: a4 = u64 [s1 + 0x1b8]\n 35633: a4 = a1 <u a4\n 35636: ra = ra + a4\n 35639: t0 = ra ^ a3\n 35642: u64 [s1 + 0x158] = a3\n 35646: a5 = ra <u a3\n 35649: a5 = a4 if t0 == 0\n 35652: a5 = a5 + a2\n 35655: t0 = a5 <u a2\n 35658: a3 = u64 [s1 + 0x1b0]\n 35662: a2 = a2 <u a3\n 35665: a0 = a0 + a2\n 35668: a0 = a0 + t0\n 35671: a2 = a1 | a5\n 35674: a0 = ra | a0\n 35677: a2 = a2 | a0\n 35680: a2 = a2 >> 0x20\n 35683: a0 = a0 | a5\n 35686: a0 = a0 << 0x20\n 35689: a0 = a0 | a2\n 35692: u64 [s1 + 0x168] = t1\n 35696: u64 [s1 + 0x160] = t2\n 35700: jump @1245 if a0 == 0\n      : @1244 (gas: 1)\n 35703: jump @1603\n      : @1245 (gas: 2)\n 35706: a0 = s1 + 0x3880\n 35710: ra = 1298, jump @17\n      : @1246 [@dyn 649] (gas: 15)\n 35717: a3 = s1 + 0x3138\n 35721: a4 = a3 + 0x700\n 35725: a0 = u64 [a4 + 0x60]\n 35728: a1 = u64 [a4 + 0x58]\n 35731: a2 = u64 [a4 + 0x50]\n 35734: a3 = u64 [a4 + 0x48]\n 35737: a4 = s1 + 0x5138\n 35741: a5 = a4 + 0x400\n 35745: u64 [a5 + 0x60] = a0\n 35748: u64 [a5 + 0x58] = a1\n 35751: u64 [a5 + 0x50] = a2\n 35754: u64 [a5 + 0x48] = a3\n 35757: a1 = s1 + 0x5580\n 35761: a0 = u64 [s1 + 0x190]\n 35765: ra = 1300, jump @23\n      : @1247 [@dyn 650] (gas: 1)\n 35772: t0 = 1302, jump @1938\n      : @1248 [@dyn 651] (gas: 18)\n 35778: t0 = u64 [s1 + 0x1a0]\n 35782: t0 = t0 + a5\n 35785: u64 [s1 + 0x1a0] = t0\n 35789: a5 = u64 [s1 + 0x190]\n 35793: u64 [a5 + 0x8] = t2\n 35796: u64 [a5] = t1\n 35798: u64 [a5 + 0x10] = ra\n 35801: t0 = a0\n 35803: u64 [a5 + 0x18] = a0\n 35806: u64 [s1 + 0x170] = ra\n 35810: a0 = u64 [s1 + 0x188]\n 35814: u64 [s1 + 0x1b8] = a0\n 35818: a5 = u64 [s1 + 0x168]\n 35822: u64 [s1 + 0x1b0] = a3\n 35826: a3 = a1\n 35828: u64 [s1 + 0x188] = t0\n 35832: t0 = 0x510\n 35836: jump @1968\n      : @1249 (gas: 3)\n 35839: a0 = s1 + 0x27e0\n 35843: a1 = 0x40\n 35846: ra = 1304, jump @17\n      : @1250 [@dyn 652] (gas: 19)\n 35853: a2 = s1 + 0x2138\n 35857: a5 = a2 + 0x600\n 35861: a3 = u64 [a5 + 0xc0]\n 35865: a4 = u64 [a5 + 0xb8]\n 35869: a0 = u64 [a5 + 0xb0]\n 35873: a1 = u64 [a5 + 0xa8]\n 35877: a5 = s1 + 0x100\n 35881: u64 [a5 + 0xb0] = a0\n 35885: u64 [a5 + 0xa8] = a3\n 35889: a0 = a0 | a3\n 35892: u64 [a5 + 0xb8] = a1\n 35896: a1 = a1 | a4\n 35899: a1 = a1 | a0\n 35902: a1 = a1 >> 0x20\n 35905: u64 [a5 + 0xa0] = a4\n 35909: a0 = a0 | a4\n 35912: a0 = a0 << 0x20\n 35915: a0 = a0 | a1\n 35918: jump @1252 if a0 == 0\n      : @1251 (gas: 1)\n 35921: jump @1603\n      : @1252 (gas: 7)\n 35924: u64 [a2 + 1688] = 0\n 35928: u64 [a2 + 1680] = 0\n 35932: u64 [a2 + 1672] = 0\n 35936: t0 = 0x51a\n 35940: a0 = 0x8c379a000000000\n 35950: a1 = 0x2000\n 35954: fallthrough\n      : @1253 [@dyn 653] (gas: 5)\n 35955: i32 a1 = a1 + 0x7c0\n 35959: a1 = a1 + s1\n 35962: u64 [a2 + 0x6a0] = a0\n 35966: a0 = u64 [s1 + 0x1b8]\n 35970: ra = 1308, jump @19\n      : @1254 [@dyn 654] (gas: 1)\n 35977: t0 = 1310, jump @1961\n      : @1255 [@dyn 655] (gas: 1)\n 35983: jump @1257 if a0 != 0\n      : @1256 (gas: 1)\n 35986: jump @1603\n      : @1257 (gas: 5)\n 35989: a0 = u64 [s1 + 0x1b8]\n 35993: i32 a0 = a0 + 0x4\n 35996: t0 = 0x520\n 36000: a2 = s1 + 0x2138\n 36004: fallthrough\n      : @1258 [@dyn 656] (gas: 6)\n 36005: u64 [a2 + 1664] = 0\n 36009: u64 [a2 + 1656] = 0\n 36013: u64 [a2 + 1640] = 0x20\n 36018: a1 = s1 + 0x27a0\n 36022: u64 [a2 + 1648] = 0\n 36026: ra = 1314, jump @19\n      : @1259 [@dyn 657] (gas: 4)\n 36033: a2 = s1 + 0x100\n 36037: a0 = u64 [a2 + 0xa0]\n 36041: a0 = a0 + 0xffffffffffffffdc\n 36044: t0 = 1316, jump @1963\n      : @1260 [@dyn 658] (gas: 1)\n 36050: jump @1262 if a0 != 0\n      : @1261 (gas: 1)\n 36053: jump @1603\n      : @1262 (gas: 5)\n 36056: a0 = u64 [s1 + 0x1b8]\n 36060: i32 a0 = a0 + 0x24\n 36063: t0 = 0x526\n 36067: a2 = s1 + 0x2138\n 36071: fallthrough\n      : @1263 [@dyn 659] (gas: 6)\n 36072: u64 [a2 + 1632] = 0\n 36076: u64 [a2 + 1624] = 0\n 36080: u64 [a2 + 1608] = 0x15\n 36085: a1 = s1 + 0x2780\n 36089: u64 [a2 + 1616] = 0\n 36093: ra = 1320, jump @19\n      : @1264 [@dyn 660] (gas: 3)\n 36100: a0 = 0xffffffbc\n 36110: a2 = s1 + 0x100\n 36114: t0 = 1322, jump @1963\n      : @1265 [@dyn 661] (gas: 1)\n 36120: jump @1267 if a0 != 0\n      : @1266 (gas: 1)\n 36123: jump @1603\n      : @1267 (gas: 14)\n 36126: a0 = u64 [s1 + 0x1b8]\n 36130: i32 a0 = a0 + 0x44\n 36133: a1 = u64 [0x20090]\n 36138: a2 = u64 [0x20098]\n 36143: a3 = s1 + 0x2138\n 36147: a4 = a3 + 0x600\n 36151: u64 [a4 + 0x40] = a1\n 36154: u64 [a4 + 0x38] = a2\n 36157: a1 = 0x6d61746368000000\n 36167: u64 [a4 + 0x30] = a1\n 36170: a1 = s1 + 0x2760\n 36174: u64 [a3 + 1576] = 0\n 36178: ra = 0x64e\n 36182: jump @19\n      : @1268 (gas: 4)\n 36186: a0 = a1 | a2\n 36189: a1 = u64 [s1 + 0x40]\n 36192: a0 = a0 | a1\n 36195: jump @1284 if a0 != 0\n      : @1269 (gas: 5)\n 36199: u64 [s1 + 416] = 0\n 36203: u64 [s1 + 408] = 0\n 36207: u64 [s1 + 424] = 0\n 36211: u64 [s1 + 432] = 0\n 36215: jump @1289\n      : @1270 (gas: 10)\n 36218: t1 = u64 [s1 + 0x1b0]\n 36222: t0 = u64 [s1 + 0x1b8]\n 36226: a4 = u64 [s1 + 0x90]\n 36230: a5 = u64 [s1 + 0x130]\n 36234: a4 = a4 ^ a5\n 36237: a5 = u64 [s1 + 0x60]\n 36240: a4 = a4 | a5\n 36243: a5 = u64 [s1 + 0x40]\n 36246: a4 = a4 | a5\n 36249: jump @1283 if a4 == 0\n      : @1271 (gas: 12)\n 36253: t2 = a3\n 36255: a4 = a1 <u t0\n 36258: a3 = ra + a4\n 36261: t0 = a3 ^ t2\n 36264: a5 = a3 <u t2\n 36267: a5 = a4 if t0 == 0\n 36270: a5 = a5 + a2\n 36273: a4 = a5 <u a2\n 36276: a2 = a2 <u t1\n 36279: a0 = a0 + a2\n 36282: a0 = a0 + a4\n 36285: t0 = 1324, jump @1979\n      : @1272 [@dyn 662] (gas: 1)\n 36291: jump @1274 if a0 == 0\n      : @1273 (gas: 1)\n 36294: jump @1603\n      : @1274 (gas: 2)\n 36297: a0 = s1 + 0x3c20\n 36301: ra = 1326, jump @17\n      : @1275 [@dyn 663] (gas: 12)\n 36308: a0 = s1 + 0x3938\n 36312: a1 = u64 [a0 + 0x300]\n 36316: u64 [s1 + 0x1b0] = a1\n 36320: a2 = a0 + 0x200\n 36324: a1 = u64 [a2 + 0xf8]\n 36328: u64 [s1 + 0x1a8] = a1\n 36332: a1 = u64 [a2 + 0xf0]\n 36336: u64 [s1 + 0x1a0] = a1\n 36340: a0 = u64 [a2 + 0xe8]\n 36344: u64 [s1 + 0x198] = a0\n 36348: a0 = u64 [s1 + 0x90]\n 36352: t0 = 1328, jump @1987\n      : @1276 [@dyn 664] (gas: 1)\n 36358: ra = 1330, jump @2046\n      : @1277 [@dyn 665] (gas: 1)\n 36364: t0 = 1332, jump @2014\n      : @1278 [@dyn 666] (gas: 1)\n 36370: ra = 1334, jump @2041\n      : @1279 [@dyn 667] (gas: 1)\n 36376: t0 = 1336, jump @1969\n      : @1280 [@dyn 668] (gas: 1)\n 36382: ra = 1338, jump @2041\n      : @1281 [@dyn 669] (gas: 1)\n 36388: t0 = 1340, jump @1950\n      : @1282 [@dyn 670] (gas: 8)\n 36394: a5 = a4 + 0x400\n 36398: u64 [a5 + 0x80] = a3\n 36402: u64 [a5 + 0x78] = a2\n 36405: u64 [a5 + 0x70] = a1\n 36408: u64 [a5 + 0x68] = a0\n 36411: a1 = s1 + 0x55a0\n 36415: a0 = u64 [s1 + 0x190]\n 36419: ra = 1342, jump @23\n      : @1283 [@dyn 671] (gas: 19)\n 36426: a0 = u64 [s1 + 0x30]\n 36429: a1 = u64 [s1 + 0x28]\n 36432: a0 = a0 | a1\n 36435: a1 = u64 [s1 + 0x18]\n 36438: a2 = u64 [s1 + 0x8]\n 36441: a1 = a1 | a2\n 36444: a2 = u64 [s1 + 0x20]\n 36447: a3 = u64 [s1 + 0x10]\n 36450: a2 = a2 | a3\n 36453: a3 = u64 [s1 + 0x38]\n 36456: a3 = a3 + 0x1\n 36459: a4 = s1 + 0x5138\n 36463: a5 = a4 + 0x400\n 36467: u64 [a5 + 0x88] = a3\n 36471: u64 [a5 + 0x90] = a2\n 36475: u64 [a5 + 0x98] = a1\n 36479: u64 [a5 + 0xa0] = a0\n 36483: a0 = 0x55c0\n 36487: jump @1296\n      : @1284 (gas: 1)\n 36490: t0 = 1344, jump @1996\n      : @1285 [@dyn 672] (gas: 1)\n 36496: jump @1287 if a1 != 0\n      : @1286 (gas: 1)\n 36499: jump @1603\n      : @1287 (gas: 4)\n 36502: a0 = u64 [s1 + 0x138]\n 36506: i32 a1 = a0 + 0x20\n 36509: a0 = s1 + 0x3c60\n 36513: ra = 1346, jump @17\n      : @1288 [@dyn 673] (gas: 12)\n 36520: a0 = s1 + 0x3938\n 36524: a2 = a0 + 0x300\n 36528: a1 = u64 [a2 + 0x40]\n 36531: a3 = s1 + 0x100\n 36535: u64 [a3 + 0xb0] = a1\n 36539: a1 = u64 [a2 + 0x38]\n 36542: u64 [a3 + 0xa8] = a1\n 36546: a1 = u64 [a2 + 0x30]\n 36549: u64 [a3 + 0x98] = a1\n 36553: a0 = u64 [a2 + 0x28]\n 36556: u64 [a3 + 0xa0] = a0\n 36560: fallthrough\n      : @1289 (gas: 15)\n 36561: a0 = u64 [s1 + 0x18]\n 36564: a1 = u64 [s1 + 0x8]\n 36567: a0 = a0 | a1\n 36570: u64 [s1 + 0x190] = a0\n 36574: a0 = u64 [s1 + 0x30]\n 36577: a1 = u64 [s1 + 0x28]\n 36580: a0 = a0 | a1\n 36583: u64 [s1 + 0x188] = a0\n 36587: a0 = u64 [s1 + 0x20]\n 36590: a1 = u64 [s1 + 0x10]\n 36593: a0 = a0 | a1\n 36596: u64 [s1 + 0x180] = a0\n 36600: a1 = u64 [s1 + 0x90]\n 36604: a1 = a1 << 0x3\n 36607: t0 = 1348, jump @2011\n      : @1290 [@dyn 674] (gas: 1)\n 36613: ra = 1350, jump @2046\n      : @1291 [@dyn 675] (gas: 7)\n 36619: u64 [s1 + 0x160] = a0\n 36623: u64 [s1 + 0x178] = a1\n 36627: a0 = u64 [s1 + 0x90]\n 36631: i32 a2 = a0 << 0x3\n 36634: a0 = 0xffffffffffffffff\n 36637: a1 = 0xffffffffffffffff\n 36640: ra = 1352, jump @2041\n      : @1292 [@dyn 676] (gas: 10)\n 36646: u64 [s1 + 0x170] = a0\n 36650: u64 [s1 + 0x168] = a1\n 36654: a1 = u64 [s1 + 0x160]\n 36658: a0 = a0 | a1\n 36661: u64 [s1 + 0x160] = a0\n 36665: a0 = u64 [s1 + 0x1b8]\n 36669: i32 a2 = a0 + 0xffffffffffffff80\n 36672: a0 = 0xffffffffffffffff\n 36675: a1 = 0xffffffffffffffff\n 36678: ra = 1354, jump @2041\n      : @1293 [@dyn 677] (gas: 7)\n 36684: a4 = u64 [s1 + 0x1b8]\n 36688: a2 = a4 <u 0x80\n 36692: a3 = u64 [s1 + 0x160]\n 36696: a0 = a3 if a2 != 0\n 36699: a5 = u64 [s1 + 0x168]\n 36703: a3 = u64 [s1 + 0x178]\n 36707: t0 = 1356, jump @1995\n      : @1294 [@dyn 678] (gas: 2)\n 36713: a4 = u64 [s1 + 0x170]\n 36717: t0 = 1358, jump @1986\n      : @1295 [@dyn 679] (gas: 17)\n 36723: a4 = u64 [s1 + 0x38]\n 36726: a0 = a0 | a4\n 36729: a5 = s1 + 0x100\n 36733: a4 = u64 [a5 + 0x80]\n 36737: a1 = a1 | a4\n 36740: a4 = u64 [a5 + 0x88]\n 36744: a3 = a3 | a4\n 36747: a4 = u64 [a5 + 0x90]\n 36751: a2 = a2 | a4\n 36754: a4 = s1 + 0x5138\n 36758: a5 = a4 + 0x400\n 36762: u64 [a5 + 0xb8] = a2\n 36766: u64 [a5 + 0xc0] = a3\n 36770: u64 [a5 + 0xb0] = a1\n 36774: u64 [a5 + 0xa8] = a0\n 36778: a0 = 0x55e0\n 36782: fallthrough\n      : @1296 (gas: 3)\n 36783: a1 = s1 + a0\n 36786: a0 = u64 [s1 + 0x98]\n 36790: ra = 1360, jump @23\n      : @1297 [@dyn 680] (gas: 3)\n 36797: a0 = s1 + 0x3c00\n 36801: a1 = u64 [s1 + 0xa8]\n 36805: ra = 1362, jump @17\n      : @1298 [@dyn 681] (gas: 31)\n 36812: a3 = s1 + 0x3938\n 36816: t0 = u64 [a3 + 0x2c8]\n 36820: a0 = a3 + 0x200\n 36824: a1 = u64 [a0 + 0xd0]\n 36828: a2 = u64 [a0 + 0xd8]\n 36832: a3 = u64 [a0 + 0xe0]\n 36836: a4 = u64 [s1 + 0x70]\n 36839: a4 = a4 + 0x1\n 36842: a5 = a4 <u 0x1\n 36845: a0 = u64 [s1 + 0x78]\n 36848: a5 = a5 + a0\n 36851: a0 = s1 + 0x5138\n 36855: u64 [a0 + 0x4d0] = a5\n 36859: a5 = a5 | a4\n 36862: u64 [a0 + 0x4c8] = a4\n 36866: a4 = a5 <u 0x1\n 36869: a5 = u64 [s1 + 0x88]\n 36873: a4 = a4 + a5\n 36876: u64 [a0 + 0x4d8] = a4\n 36880: a4 = a4 <u a5\n 36883: a5 = u64 [s1 + 0x80]\n 36887: a4 = a4 + a5\n 36890: a5 = a0 + 0x400\n 36894: u64 [a5 + 0xe0] = a4\n 36898: u64 [a0 + 0x500] = a3\n 36902: u64 [a5 + 0xf8] = a2\n 36906: u64 [a5 + 0xf0] = a1\n 36910: u64 [a0 + 0x4e8] = t0\n 36914: a0 = s1 + 0x5600\n 36918: a1 = s1 + 0x5620\n 36922: ra = 1364, jump @23\n      : @1299 [@dyn 682] (gas: 27)\n 36929: a0 = sp + 0xffffffffffffffe0\n 36932: a2 = a0 & 0xffffffffffffffe0\n 36935: sp = a2\n 36937: a0 = u64 [s1 + 0x70]\n 36940: a3 = a0 + 0x2\n 36943: a0 = a3 <u a0\n 36946: a1 = u64 [s1 + 0x78]\n 36949: a4 = a1 + a0\n 36952: a1 = a4 <u a1\n 36955: a1 = a0 if a0 == 0\n 36958: a0 = u64 [s1 + 0x88]\n 36962: a1 = a1 + a0\n 36965: a0 = a1 <u a0\n 36968: a5 = u64 [s1 + 0x80]\n 36972: a0 = a0 + a5\n 36975: u64 [s1 + 0x160] = a0\n 36979: u64 [a2 + 0x18] = a0\n 36982: u64 [s1 + 0x158] = a1\n 36986: u64 [a2 + 0x10] = a1\n 36989: u64 [s1 + 0x168] = a4\n 36993: u64 [a2 + 0x8] = a4\n 36996: u64 [s1 + 0x98] = a2\n 37000: u64 [s1 + 0x170] = a3\n 37004: u64 [a2] = a3\n 37006: a0 = s1 + 0x3be0\n 37010: a1 = u64 [s1 + 0xa0]\n 37014: ra = 1366, jump @17\n      : @1300 [@dyn 683] (gas: 7)\n 37021: a1 = s1 + 0x3938\n 37025: a4 = a1 + 0x200\n 37029: a2 = u64 [a4 + 0xc0]\n 37033: a3 = u64 [a4 + 0xb8]\n 37037: a0 = u64 [a4 + 0xb0]\n 37041: a1 = u64 [a4 + 0xa8]\n 37045: t0 = 1368, jump @2009\n      : @1301 [@dyn 684] (gas: 1)\n 37051: jump @1303 if a0 == 0\n      : @1302 (gas: 1)\n 37054: jump @1603\n      : @1303 (gas: 3)\n 37057: a0 = s1 + 0x3bc0\n 37061: u64 [s1 + 0x138] = a1\n 37065: ra = 1370, jump @17\n      : @1304 [@dyn 685] (gas: 18)\n 37072: a5 = s1 + 0x3938\n 37076: a0 = a5 + 0x200\n 37080: a3 = u64 [a0 + 0xa0]\n 37084: a2 = u64 [a0 + 0x98]\n 37088: a1 = u64 [a0 + 0x90]\n 37092: a0 = a3 >u 0\n 37094: a4 = a2 >u 0\n 37096: a4 = a0 if a3 != 0\n 37099: u64 [s1 + 0xa0] = a1\n 37103: a0 = a1 >u 0\n 37105: u64 [s1 + 0x90] = a2\n 37109: u64 [s1 + 0x60] = a3\n 37112: a2 = a2 | a3\n 37115: u64 [s1 + 0x30] = a0\n 37118: u64 [s1 + 0x38] = a4\n 37121: u64 [s1 + 0x130] = a2\n 37125: a0 = a4 if a2 != 0\n 37128: jump @1306 if a0 == 0\n      : @1305 (gas: 1)\n 37131: jump @1687\n      : @1306 (gas: 5)\n 37134: a0 = u64 [a5 + 0x288]\n 37138: u64 [s1 + 0xa8] = a0\n 37142: a0 = s1 + 0x3ba0\n 37146: a1 = u64 [s1 + 0x98]\n 37150: ra = 1372, jump @21\n      : @1307 [@dyn 686] (gas: 13)\n 37157: a4 = s1 + 0x3938\n 37161: a5 = a4 + 0x200\n 37165: a2 = u64 [a5 + 0x68]\n 37168: a0 = u64 [a5 + 0x70]\n 37171: a1 = u64 [a5 + 0x78]\n 37174: a3 = u64 [a5 + 0x80]\n 37178: u64 [a5 + 0x40] = a3\n 37181: u64 [a5 + 0x38] = a1\n 37184: u64 [a5 + 0x30] = a0\n 37187: a0 = s1 + 0x3b80\n 37191: a1 = s1 + 0x3b60\n 37195: u64 [a5 + 0x28] = a2\n 37198: ra = 1374, jump @1868\n      : @1308 [@dyn 687] (gas: 23)\n 37204: a0 = s1 + 0x3938\n 37208: a1 = a0 + 0x200\n 37212: a3 = u64 [a1 + 0x60]\n 37215: a4 = u64 [a1 + 0x58]\n 37218: a5 = u64 [a1 + 0x50]\n 37221: a2 = u64 [a1 + 0x48]\n 37224: a0 = a3 >u 0\n 37226: a1 = a4 >u 0\n 37228: a1 = a0 if a3 != 0\n 37231: a0 = a5 >u 0\n 37233: u64 [s1 + 0x198] = a2\n 37237: a2 = a2 <u 0x20\n 37240: a2 = a2 ^ 0x1\n 37243: u64 [s1 + 0x1a0] = a5\n 37247: a2 = a0 if a5 != 0\n 37250: u64 [s1 + 0x1a8] = a3\n 37254: u64 [s1 + 0x1b0] = a4\n 37258: a0 = a4 | a3\n 37261: a2 = a1 if a0 != 0\n 37264: a0 = u64 [s1 + 0xa8]\n 37268: a0 = a0 <u 0x20\n 37271: u64 [s1 + 0x40] = a0\n 37274: jump @1316 if a2 == 0\n      : @1309 (gas: 14)\n 37278: a0 = s1 + 0x3938\n 37282: a3 = s1 + 0x100\n 37286: a1 = u64 [a3 + 0x70]\n 37289: a4 = a0 + 0x200\n 37293: u64 [a4 + 0x8] = a1\n 37296: a1 = u64 [a3 + 0x68]\n 37299: u64 [a4 + 0x10] = a1\n 37302: a1 = u64 [a3 + 0x58]\n 37305: u64 [a4 + 0x18] = a1\n 37308: a1 = s1 + 0x3b40\n 37312: a2 = u64 [a3 + 0x60]\n 37315: u64 [a4 + 0x20] = a2\n 37318: a0 = 0\n 37320: ra = 1376, jump @19\n      : @1310 [@dyn 688] (gas: 3)\n 37327: a0 = u64 [s1 + 0x58]\n 37330: a0 = i32 [a0]\n 37332: jump @1312 if a0 >u 31\n      : @1311 (gas: 3)\n 37336: a1 = u64 [s1 + 0x58]\n 37339: u32 [a1 + 0] = 0x20\n 37342: fallthrough\n      : @1312 (gas: 117)\n 37343: a0 = sp + 0xffffffffffffffe0\n 37346: a0 = a0 & 0xffffffffffffffe0\n 37349: u64 [s1 + 0x180] = a0\n 37353: sp = a0\n 37355: i32 a2 = a0 + 0\n 37357: a1 = 0x20\n 37360: a0 = u64 [s1 + 0x50]\n 37363: ecalli 8 // 'hash_keccak_256'\n 37365: a0 = u64 [s1 + 0xa8]\n 37369: a1 = a0 + 0x1f\n 37372: a0 = a1 <u a0\n 37375: a5 = u64 [s1 + 0xa0]\n 37379: a2 = a5 + a0\n 37382: a3 = a2 <u a5\n 37385: a3 = a0 if a0 == 0\n 37388: a4 = u64 [s1 + 0x90]\n 37392: a3 = a3 + a4\n 37395: u64 [s1 + 0x178] = a3\n 37399: a3 = a3 << 0x3b\n 37402: a4 = a2 >> 0x5\n 37405: a4 = a4 | a3\n 37408: a0 = u64 [s1 + 0x180]\n 37412: t0 = u64 [a0 + 0x18]\n 37415: a2 = a2 << 0x3b\n 37418: a0 = u64 [a0 + 0x10]\n 37421: a1 = a1 >> 0x5\n 37424: a2 = a2 | a1\n 37427: t2 = reverse t0\n 37429: a0 = reverse a0\n 37431: a1 = u64 [s1 + 0x40]\n 37434: a1 = 0 if a5 != 0\n 37436: a3 = u64 [s1 + 0x130]\n 37440: a1 = 0 if a3 != 0\n 37442: a4 = 0 if a1 != 0\n 37444: a2 = 0 if a1 != 0\n 37446: t0 = t2 + a2\n 37449: a2 = t0 <u t2\n 37452: a5 = a0 + a2\n 37455: a4 = a4 + a5\n 37458: u64 [s1 + 0x1b8] = a4\n 37462: a5 = a4 ^ a0\n 37465: a3 = a4 <u a0\n 37468: a3 = a2 if a5 == 0\n 37471: u64 [s1 + 0x58] = a3\n 37474: a2 = u64 [s1 + 0x198]\n 37478: ra = a2 + 0x1f\n 37481: a4 = ra <u a2\n 37484: a3 = u64 [s1 + 0x1a0]\n 37488: a2 = a3 + a4\n 37491: a5 = a2 <u a3\n 37494: a5 = a4 if a4 == 0\n 37497: t1 = u64 [s1 + 0x1b0]\n 37501: t1 = t1 + a5\n 37504: a4 = t1 << 0x3b\n 37507: a3 = a2 >> 0x5\n 37510: a3 = a3 | a4\n 37513: a2 = a2 << 0x3b\n 37516: a4 = ra >> 0x5\n 37519: a2 = a2 | a4\n 37522: a2 = a2 + t2\n 37525: u64 [s1 + 0x190] = a2\n 37529: a4 = a2 <u t2\n 37532: t2 = t0\n 37534: a2 = a0 + a4\n 37537: a2 = a2 + a3\n 37540: a3 = a2 ^ a0\n 37543: u64 [s1 + 0x188] = a2\n 37547: a2 = a2 <u a0\n 37550: a2 = a4 if a3 == 0\n 37553: a4 = u64 [s1 + 0x178]\n 37557: a0 = u64 [s1 + 0x90]\n 37561: a0 = a4 <u a0\n 37564: a3 = u64 [s1 + 0x60]\n 37567: a0 = a0 + a3\n 37570: a3 = a4 >> 0x5\n 37573: a4 = a0 << 0x3b\n 37576: a3 = a3 | a4\n 37579: a4 = u64 [s1 + 0x180]\n 37583: t0 = u64 [a4]\n 37585: a4 = u64 [a4 + 0x8]\n 37588: a0 = a0 >> 0x5\n 37591: a3 = 0 if a1 != 0\n 37593: a0 = 0 if a1 != 0\n 37595: a1 = reverse a4\n 37597: a4 = reverse t0\n 37599: a0 = a0 + a4\n 37602: a3 = a3 + a1\n 37605: a5 = a3 <u a1\n 37608: a0 = a0 + a5\n 37611: ra = u64 [s1 + 0x58]\n 37614: ra = ra + a3\n 37617: a3 = ra <u a3\n 37620: t0 = a0 + a3\n 37623: a0 = u64 [s1 + 0x1b0]\n 37627: a0 = t1 <u a0\n 37630: a3 = u64 [s1 + 0x1a8]\n 37634: a0 = a0 + a3\n 37637: a3 = t1 >> 0x5\n 37640: a5 = a0 << 0x3b\n 37643: a3 = a3 | a5\n 37646: a0 = a0 >> 0x5\n 37649: a0 = a0 + a4\n 37652: a5 = s1 + 0x100\n 37656: a4 = u64 [a5 + 0xb8]\n 37660: a3 = a3 + a1\n 37663: a1 = a3 <u a1\n 37666: a0 = a0 + a1\n 37669: a2 = a2 + a3\n 37672: u64 [a5 + 0x80] = a2\n 37676: a1 = a2 <u a3\n 37679: a0 = a0 + a1\n 37682: u64 [a5 + 0x78] = a0\n 37685: a0 = sp + 0xffffffffffffffe0\n 37688: a0 = a0 & 0xffffffffffffffe0\n 37691: u64 [a5 + 0xb0] = a0\n 37695: sp = a0\n 37697: fallthrough\n      : @1313 (gas: 25)\n 37698: a0 = u64 [s1 + 0x190]\n 37702: a0 = t2 <u a0\n 37705: a2 = u64 [s1 + 0x188]\n 37709: a1 = a4 ^ a2\n 37712: a2 = a4 <u a2\n 37715: a2 = a0 if a1 == 0\n 37718: a5 = u64 [s1 + 0x180]\n 37722: a0 = ra <u a5\n 37725: a3 = u64 [s1 + 0x178]\n 37729: a1 = t0 ^ a3\n 37732: a3 = t0 <u a3\n 37735: a3 = a0 if a1 == 0\n 37738: a0 = ra ^ a5\n 37741: a0 = a0 | a1\n 37744: a3 = a2 if a0 == 0\n 37747: u64 [s1 + 0x1a8] = t2\n 37751: a0 = u64 [s1 + 0x1b0]\n 37755: u64 [a0] = t2\n 37757: u64 [s1 + 0x1b8] = a4\n 37761: u64 [a0 + 0x8] = a4\n 37764: u64 [s1 + 0x198] = ra\n 37768: u64 [a0 + 0x10] = ra\n 37771: u64 [s1 + 0x1a0] = t0\n 37775: u64 [a0 + 0x18] = t0\n 37778: jump @1316 if a3 == 0\n      : @1314 (gas: 8)\n 37781: a0 = s1 + 0x5138\n 37785: u64 [a0 + 1312] = 0\n 37789: u64 [a0 + 1304] = 0\n 37793: u64 [a0 + 1296] = 0\n 37797: u64 [a0 + 1288] = 0\n 37801: a1 = s1 + 0x5640\n 37805: a0 = u64 [s1 + 0x1b0]\n 37809: ra = 1378, jump @23\n      : @1315 [@dyn 689] (gas: 14)\n 37816: t2 = u64 [s1 + 0x1a8]\n 37820: t2 = t2 + 0x1\n 37823: a0 = t2 <u 0x1\n 37826: a4 = u64 [s1 + 0x1b8]\n 37830: a4 = a4 + a0\n 37833: a0 = t2 | a4\n 37836: a0 = a0 <u 0x1\n 37839: a1 = u64 [s1 + 0x198]\n 37843: a0 = a0 + a1\n 37846: a1 = a0 <u a1\n 37849: t0 = u64 [s1 + 0x1a0]\n 37853: t0 = t0 + a1\n 37856: ra = a0\n 37858: jump @1313\n      : @1316 (gas: 9)\n 37861: a0 = u64 [s1 + 0x40]\n 37864: a0 = a0 ^ 0x1\n 37867: a1 = u64 [s1 + 0xa0]\n 37871: a2 = u64 [s1 + 0x30]\n 37874: a0 = a2 if a1 != 0\n 37877: a1 = u64 [s1 + 0x38]\n 37880: a2 = u64 [s1 + 0x130]\n 37884: a0 = a1 if a2 != 0\n 37887: jump @1333 if a0 == 0\n      : @1317 (gas: 16)\n 37891: a0 = u64 [s1 + 0xa8]\n 37895: a0 = a0 & 0xffffffffffffffe0\n 37898: u64 [s1 + 0x130] = a0\n 37902: a0 = s1 + 0x3938\n 37906: a1 = u64 [s1 + 0x170]\n 37910: a3 = a0 + 0x100\n 37914: u64 [a3 + 0xc8] = a1\n 37918: a1 = u64 [s1 + 0x168]\n 37922: u64 [a3 + 0xd0] = a1\n 37926: a1 = u64 [s1 + 0x158]\n 37930: u64 [a3 + 0xd8] = a1\n 37934: a1 = s1 + 0x3b00\n 37938: a2 = u64 [s1 + 0x160]\n 37942: u64 [a3 + 0xe0] = a2\n 37946: a0 = 0\n 37948: ra = 1380, jump @19\n      : @1318 [@dyn 690] (gas: 1)\n 37955: t0 = 1382, jump @1998\n      : @1319 [@dyn 691] (gas: 1)\n 37961: ra = 1384, jump @28\n      : @1320 [@dyn 692] (gas: 1)\n 37968: t0 = 1386, jump @1984\n      : @1321 [@dyn 693] (gas: 4)\n 37974: ra = 0x56c\n 37978: ecalli 8 // 'hash_keccak_256'\n 37980: t0 = 0x56e\n 37984: jump @2024\n      : @1322 [@dyn 694] (gas: 1)\n 37987: t0 = 1390, jump @2024\n      : @1323 [@dyn 695] (gas: 1)\n 37993: t0 = 1392, jump @1977\n      : @1324 [@dyn 696] (gas: 9)\n 37999: t0 = a0\n 38001: a1 = u64 [s1 + 0x190]\n 38005: u64 [a1 + 0x18] = a0\n 38008: u64 [s1 + 0x170] = ra\n 38012: u64 [a1 + 0x10] = ra\n 38015: u64 [a1 + 0x8] = t2\n 38018: u64 [a1] = t1\n 38020: u64 [s1 + 0x188] = t0\n 38024: t0 = 1394, jump @1968\n      : @1325 [@dyn 697] (gas: 9)\n 38030: a3 = a3 + a5\n 38033: a2 = u64 [s1 + 0x140]\n 38037: a0 = u64 [s1 + 0x1b0]\n 38041: a2 = a2 + a0\n 38044: a0 = u64 [s1 + 0x148]\n 38048: ra = a5\n 38050: a5 = u64 [s1 + 0x1a8]\n 38054: a0 = a0 + a5\n 38057: jump @1335 if a4 != 0\n      : @1326 (gas: 14)\n 38061: a4 = u64 [s1 + 0x1b8]\n 38065: a4 = a1 <u a4\n 38068: a3 = a3 + a4\n 38071: t0 = a3 ^ ra\n 38074: u64 [s1 + 0x158] = ra\n 38078: a5 = a3 <u ra\n 38081: a5 = a4 if t0 == 0\n 38084: a5 = a5 + a2\n 38087: t0 = a5 <u a2\n 38090: a4 = u64 [s1 + 0x1b0]\n 38094: a2 = a2 <u a4\n 38097: a0 = a0 + a2\n 38100: a0 = a0 + t0\n 38103: t0 = 1396, jump @1979\n      : @1327 [@dyn 698] (gas: 3)\n 38109: u64 [s1 + 0x168] = t1\n 38113: u64 [s1 + 0x160] = t2\n 38117: jump @1329 if a0 == 0\n      : @1328 (gas: 1)\n 38120: jump @1603\n      : @1329 (gas: 2)\n 38123: a0 = s1 + 0x38e0\n 38127: ra = 1398, jump @17\n      : @1330 [@dyn 699] (gas: 15)\n 38134: a3 = s1 + 0x3138\n 38138: a4 = a3 + 0x700\n 38142: a0 = u64 [a4 + 0xc0]\n 38146: a1 = u64 [a4 + 0xb8]\n 38150: a2 = u64 [a4 + 0xb0]\n 38154: a3 = u64 [a4 + 0xa8]\n 38158: a4 = s1 + 0x5138\n 38162: a5 = a4 + 0x500\n 38166: u64 [a5 + 0x40] = a0\n 38169: u64 [a5 + 0x38] = a1\n 38172: u64 [a5 + 0x30] = a2\n 38175: u64 [a5 + 0x28] = a3\n 38178: a1 = s1 + 0x5660\n 38182: a0 = u64 [s1 + 0x190]\n 38186: ra = 1400, jump @23\n      : @1331 [@dyn 700] (gas: 1)\n 38193: t0 = 1402, jump @1938\n      : @1332 [@dyn 701] (gas: 18)\n 38199: t0 = u64 [s1 + 0x1a0]\n 38203: t0 = t0 + a5\n 38206: u64 [s1 + 0x1a0] = t0\n 38210: a5 = u64 [s1 + 0x190]\n 38214: u64 [a5 + 0x8] = t2\n 38217: u64 [a5] = t1\n 38219: u64 [a5 + 0x10] = ra\n 38222: t0 = a0\n 38224: u64 [a5 + 0x18] = a0\n 38227: u64 [s1 + 0x170] = ra\n 38231: a0 = u64 [s1 + 0x188]\n 38235: u64 [s1 + 0x1b8] = a0\n 38239: a5 = u64 [s1 + 0x168]\n 38243: u64 [s1 + 0x1b0] = a3\n 38247: a3 = a1\n 38249: u64 [s1 + 0x188] = t0\n 38253: t0 = 0x572\n 38257: jump @1968\n      : @1333 (gas: 8)\n 38260: a0 = u64 [s1 + 0xa8]\n 38264: a1 = u64 [s1 + 0x90]\n 38268: a0 = a0 | a1\n 38271: a1 = u64 [s1 + 0xa0]\n 38275: a2 = u64 [s1 + 0x60]\n 38278: a1 = a1 | a2\n 38281: a0 = a0 | a1\n 38284: jump @1349 if a0 != 0\n      : @1334 (gas: 5)\n 38288: u64 [s1 + 352] = 0\n 38292: u64 [s1 + 344] = 0\n 38296: u64 [s1 + 360] = 0\n 38300: u64 [s1 + 368] = 0\n 38304: jump @1354\n      : @1335 (gas: 12)\n 38307: t2 = u64 [s1 + 0x1b0]\n 38311: t1 = u64 [s1 + 0x1b8]\n 38315: a4 = u64 [s1 + 0xa8]\n 38319: a5 = u64 [s1 + 0x130]\n 38323: a4 = a4 ^ a5\n 38326: a5 = u64 [s1 + 0x90]\n 38330: t0 = a4 | a5\n 38333: a5 = u64 [s1 + 0xa0]\n 38337: a4 = u64 [s1 + 0x60]\n 38340: a5 = a5 | a4\n 38343: a4 = t0 | a5\n 38346: jump @1348 if a4 == 0\n      : @1336 (gas: 11)\n 38350: a4 = a1 <u t1\n 38353: a3 = a3 + a4\n 38356: t0 = a3 ^ ra\n 38359: a5 = a3 <u ra\n 38362: a5 = a4 if t0 == 0\n 38365: a5 = a5 + a2\n 38368: a4 = a5 <u a2\n 38371: a2 = a2 <u t2\n 38374: a0 = a0 + a2\n 38377: a0 = a0 + a4\n 38380: t0 = 1404, jump @1979\n      : @1337 [@dyn 702] (gas: 1)\n 38386: jump @1339 if a0 == 0\n      : @1338 (gas: 1)\n 38389: jump @1603\n      : @1339 (gas: 2)\n 38392: a0 = s1 + 0x3ae0\n 38396: ra = 1406, jump @17\n      : @1340 [@dyn 703] (gas: 12)\n 38403: a0 = s1 + 0x3938\n 38407: a2 = a0 + 0x100\n 38411: a1 = u64 [a2 + 0xc0]\n 38415: u64 [s1 + 0x1b0] = a1\n 38419: a1 = u64 [a2 + 0xb8]\n 38423: u64 [s1 + 0x1a8] = a1\n 38427: a1 = u64 [a2 + 0xb0]\n 38431: u64 [s1 + 0x1a0] = a1\n 38435: a0 = u64 [a2 + 0xa8]\n 38439: u64 [s1 + 0x198] = a0\n 38443: a0 = u64 [s1 + 0xa8]\n 38447: t0 = 1408, jump @1987\n      : @1341 [@dyn 704] (gas: 1)\n 38453: ra = 1410, jump @2046\n      : @1342 [@dyn 705] (gas: 1)\n 38459: t0 = 1412, jump @2014\n      : @1343 [@dyn 706] (gas: 1)\n 38465: ra = 1414, jump @2041\n      : @1344 [@dyn 707] (gas: 1)\n 38471: t0 = 1416, jump @1969\n      : @1345 [@dyn 708] (gas: 1)\n 38477: ra = 1418, jump @2041\n      : @1346 [@dyn 709] (gas: 1)\n 38483: t0 = 1420, jump @1950\n      : @1347 [@dyn 710] (gas: 8)\n 38489: a5 = a4 + 0x500\n 38493: u64 [a5 + 0x60] = a3\n 38496: u64 [a5 + 0x58] = a2\n 38499: u64 [a5 + 0x50] = a1\n 38502: u64 [a5 + 0x48] = a0\n 38505: a1 = s1 + 0x5680\n 38509: a0 = u64 [s1 + 0x190]\n 38513: ra = 1422, jump @23\n      : @1348 [@dyn 711] (gas: 23)\n 38520: a2 = u64 [s1 + 0x90]\n 38524: a0 = a2 >> 0x3f\n 38527: a1 = u64 [s1 + 0x60]\n 38530: a1 = a1 << 0x1\n 38533: a0 = a0 | a1\n 38536: a3 = u64 [s1 + 0xa0]\n 38540: a1 = a3 >> 0x3f\n 38543: a2 = a2 << 0x1\n 38546: a1 = a1 | a2\n 38549: a4 = u64 [s1 + 0xa8]\n 38553: a2 = a4 >> 0x3f\n 38556: a3 = a3 << 0x1\n 38559: a2 = a2 | a3\n 38562: a3 = a4 << 0x1\n 38565: a3 = a3 + 0x1\n 38568: a4 = s1 + 0x5138\n 38572: a5 = a4 + 0x500\n 38576: u64 [a5 + 0x68] = a3\n 38579: u64 [a5 + 0x70] = a2\n 38582: u64 [a5 + 0x78] = a1\n 38585: u64 [a5 + 0x80] = a0\n 38589: a0 = 0x56a0\n 38593: jump @1360\n      : @1349 (gas: 1)\n 38596: t0 = 1424, jump @1996\n      : @1350 [@dyn 712] (gas: 1)\n 38602: jump @1352 if a1 != 0\n      : @1351 (gas: 1)\n 38605: jump @1603\n      : @1352 (gas: 4)\n 38608: a0 = u64 [s1 + 0x138]\n 38612: i32 a1 = a0 + 0x20\n 38615: a0 = s1 + 0x3b20\n 38619: ra = 1426, jump @17\n      : @1353 [@dyn 713] (gas: 12)\n 38626: a0 = s1 + 0x3938\n 38630: a1 = u64 [a0 + 0x200]\n 38634: a2 = s1 + 0x100\n 38638: u64 [a2 + 0x70] = a1\n 38641: a3 = a0 + 0x100\n 38645: a1 = u64 [a3 + 0xf8]\n 38649: u64 [a2 + 0x68] = a1\n 38652: a1 = u64 [a3 + 0xf0]\n 38656: u64 [a2 + 0x58] = a1\n 38659: a0 = u64 [a3 + 0xe8]\n 38663: u64 [a2 + 0x60] = a0\n 38666: fallthrough\n      : @1354 (gas: 20)\n 38667: a2 = u64 [s1 + 0xa0]\n 38671: a0 = a2 >> 0x3f\n 38674: a3 = u64 [s1 + 0x90]\n 38678: a1 = a3 << 0x1\n 38681: a0 = a0 | a1\n 38684: u64 [s1 + 0x1b0] = a0\n 38688: a0 = a3 >> 0x3f\n 38691: a1 = u64 [s1 + 0x60]\n 38694: a1 = a1 << 0x1\n 38697: a0 = a0 | a1\n 38700: u64 [s1 + 0x1a8] = a0\n 38704: a3 = u64 [s1 + 0xa8]\n 38708: a0 = a3 >> 0x3f\n 38711: a1 = a2 << 0x1\n 38714: a0 = a0 | a1\n 38717: u64 [s1 + 0x1a0] = a0\n 38721: a0 = a3 << 0x1\n 38724: u64 [s1 + 0x198] = a0\n 38728: a1 = a3 << 0x3\n 38731: t0 = 1428, jump @2011\n      : @1355 [@dyn 714] (gas: 1)\n 38737: ra = 1430, jump @2046\n      : @1356 [@dyn 715] (gas: 7)\n 38743: u64 [s1 + 0x178] = a0\n 38747: u64 [s1 + 0x190] = a1\n 38751: a0 = u64 [s1 + 0xa8]\n 38755: i32 a2 = a0 << 0x3\n 38758: a0 = 0xffffffffffffffff\n 38761: a1 = 0xffffffffffffffff\n 38764: ra = 1432, jump @2041\n      : @1357 [@dyn 716] (gas: 10)\n 38770: u64 [s1 + 0x188] = a0\n 38774: u64 [s1 + 0x180] = a1\n 38778: a1 = u64 [s1 + 0x178]\n 38782: a0 = a0 | a1\n 38785: u64 [s1 + 0x178] = a0\n 38789: a0 = u64 [s1 + 0x1b8]\n 38793: i32 a2 = a0 + 0xffffffffffffff80\n 38796: a0 = 0xffffffffffffffff\n 38799: a1 = 0xffffffffffffffff\n 38802: ra = 1434, jump @2041\n      : @1358 [@dyn 717] (gas: 7)\n 38808: a4 = u64 [s1 + 0x1b8]\n 38812: a2 = a4 <u 0x80\n 38816: a3 = u64 [s1 + 0x178]\n 38820: a0 = a3 if a2 != 0\n 38823: a5 = u64 [s1 + 0x180]\n 38827: a3 = u64 [s1 + 0x190]\n 38831: t0 = 1436, jump @1995\n      : @1359 [@dyn 718] (gas: 27)\n 38837: a4 = u64 [s1 + 0x188]\n 38841: a4 = 0 if a2 == 0\n 38843: a1 = u64 [s1 + 0x158]\n 38847: a1 = a1 & ~a3\n 38850: a2 = u64 [s1 + 0x160]\n 38854: a0 = a2 & ~a0\n 38857: a2 = u64 [s1 + 0x168]\n 38861: a2 = a2 & ~a4\n 38864: a3 = u64 [s1 + 0x170]\n 38868: a3 = a3 & ~a5\n 38871: a5 = s1 + 0x100\n 38875: a4 = u64 [a5 + 0x98]\n 38879: a0 = a0 | a4\n 38882: a4 = u64 [a5 + 0xa0]\n 38886: a1 = a1 | a4\n 38889: a4 = u64 [a5 + 0xa8]\n 38893: a3 = a3 | a4\n 38896: a4 = u64 [a5 + 0xb0]\n 38900: a2 = a2 | a4\n 38903: a4 = s1 + 0x5138\n 38907: a5 = a4 + 0x500\n 38911: u64 [a5 + 0x98] = a2\n 38915: u64 [a5 + 0xa0] = a3\n 38919: u64 [a5 + 0x90] = a1\n 38923: u64 [a5 + 0x88] = a0\n 38927: a0 = 0x56c0\n 38931: fallthrough\n      : @1360 (gas: 3)\n 38932: a1 = s1 + a0\n 38935: a0 = u64 [s1 + 0x98]\n 38939: ra = 1438, jump @23\n      : @1361 [@dyn 719] (gas: 8)\n 38946: a0 = sp + 0xffffffffffffffe0\n 38949: a5 = a0 & 0xffffffffffffffe0\n 38952: sp = a5\n 38954: a1 = u64 [s1 + 0x70]\n 38957: a0 = a1 + 0x3\n 38960: a1 = a0 <u a1\n 38963: a3 = u64 [s1 + 0x78]\n 38966: t0 = 1440, jump @2010\n      : @1362 [@dyn 720] (gas: 13)\n 38972: a1 = u64 [s1 + 0x88]\n 38976: a3 = a3 + a1\n 38979: a1 = a3 <u a1\n 38982: a4 = u64 [s1 + 0x80]\n 38986: a1 = a1 + a4\n 38989: u64 [s1 + 0x1b8] = a5\n 38993: u64 [a5 + 0x10] = a3\n 38996: u64 [a5 + 0x8] = a2\n 38999: u64 [a5] = a0\n 39001: u64 [a5 + 0x18] = a1\n 39004: a0 = s1 + 0x3ac0\n 39008: a1 = u64 [s1 + 0x68]\n 39011: ra = 1442, jump @17\n      : @1363 [@dyn 721] (gas: 2)\n 39018: a0 = 0x4000\n 39022: t0 = 1444, jump @2033\n      : @1364 [@dyn 722] (gas: 12)\n 39028: a0 = u64 [a4 + 0x98]\n 39032: a1 = u64 [a4 + 0xa0]\n 39036: a2 = u64 [a4 + 0x90]\n 39040: a3 = u64 [a4 + 0x88]\n 39044: a1 = a1 | a2\n 39047: a0 = a0 | a3\n 39050: a0 = a0 | a1\n 39053: a0 = a0 >u 0\n 39055: u64 [s1 + 0x1b0] = a0\n 39059: a0 = s1 + 0x3aa0\n 39063: a1 = u64 [s1 + 0x1b8]\n 39067: ra = 1446, jump @21\n      : @1365 [@dyn 723] (gas: 2)\n 39074: a0 = 0x4000\n 39078: t0 = 1448, jump @2033\n      : @1366 [@dyn 724] (gas: 16)\n 39084: a0 = u64 [a4 + 0x68]\n 39087: a1 = u64 [a4 + 0x70]\n 39090: a2 = u64 [a4 + 0x80]\n 39094: a3 = u64 [a4 + 0x78]\n 39097: a0 = a0 & 0xffffffffffffff00\n 39101: a4 = u64 [s1 + 0x1b0]\n 39105: a0 = a0 | a4\n 39108: a4 = s1 + 0x5138\n 39112: a5 = a4 + 0x500\n 39116: u64 [a5 + 0xc0] = a2\n 39120: u64 [a5 + 0xb8] = a3\n 39124: u64 [a5 + 0xb0] = a1\n 39128: u64 [a5 + 0xa8] = a0\n 39132: a1 = s1 + 0x56e0\n 39136: a0 = u64 [s1 + 0x1b8]\n 39140: ra = 1450, jump @23\n      : @1367 [@dyn 725] (gas: 3)\n 39147: a0 = s1 + 0x3a80\n 39151: a1 = u64 [s1 + 0x48]\n 39154: ra = 1452, jump @17\n      : @1368 [@dyn 726] (gas: 30)\n 39161: t2 = s1 + 0x3938\n 39165: t0 = u64 [t2 + 0x148]\n 39169: t1 = u64 [t2 + 0x150]\n 39173: a0 = u64 [s1 + 0x70]\n 39176: a2 = a0 + 0x4\n 39179: a3 = a2 <u a0\n 39182: a0 = u64 [s1 + 0x78]\n 39185: a4 = a0 + a3\n 39188: a5 = a4 <u a0\n 39191: a5 = a3 if a3 == 0\n 39194: ra = u64 [t2 + 0x158]\n 39198: a0 = u64 [s1 + 0x88]\n 39202: a5 = a5 + a0\n 39205: a0 = a5 <u a0\n 39208: a1 = u64 [s1 + 0x80]\n 39212: a0 = a0 + a1\n 39215: a1 = u64 [t2 + 0x160]\n 39219: a3 = s1 + 0x5138\n 39223: u64 [a3 + 0x5e0] = a0\n 39227: a0 = a3 + 0x500\n 39231: u64 [a0 + 0xd8] = a5\n 39235: u64 [a0 + 0xd0] = a4\n 39239: u64 [a0 + 0xc8] = a2\n 39243: u64 [a3 + 0x600] = a1\n 39247: u64 [a3 + 0x5f8] = ra\n 39251: u64 [a3 + 0x5f0] = t1\n 39255: u64 [a3 + 0x5e8] = t0\n 39259: a0 = s1 + 0x5700\n 39263: a1 = s1 + 0x5720\n 39267: ra = 1454, jump @23\n      : @1369 [@dyn 727] (gas: 3)\n 39274: a0 = s1 + 0x3a60\n 39278: a1 = 0x40\n 39281: ra = 1456, jump @17\n      : @1370 [@dyn 728] (gas: 7)\n 39288: a1 = s1 + 0x3938\n 39292: a4 = a1 + 0x100\n 39296: a2 = u64 [a4 + 0x40]\n 39299: a3 = u64 [a4 + 0x38]\n 39302: a0 = u64 [a4 + 0x30]\n 39305: a1 = u64 [a4 + 0x28]\n 39308: t0 = 1458, jump @2008\n      : @1371 [@dyn 729] (gas: 1)\n 39314: jump @1373 if a0 == 0\n      : @1372 (gas: 1)\n 39317: jump @1603\n      : @1373 (gas: 8)\n 39320: a2 = s1 + 0x3938\n 39324: u64 [a2 + 288] = 0\n 39328: u64 [a2 + 280] = 0\n 39332: u64 [a2 + 272] = 0\n 39336: a1 = s1 + 0x3a40\n 39340: u64 [a2 + 264] = 0x60\n 39345: a0 = u64 [s1 + 0x1b8]\n 39349: ra = 1460, jump @19\n      : @1374 [@dyn 730] (gas: 5)\n 39356: a1 = u64 [s1 + 0x1b8]\n 39360: a0 = a1 + 0x60\n 39363: a1 = a0 <u a1\n 39366: a3 = u64 [s1 + 0x1b0]\n 39370: t0 = 1462, jump @1970\n      : @1375 [@dyn 731] (gas: 18)\n 39376: a1 = s1 + 0x3938\n 39380: u64 [a1 + 0xb0] = a2\n 39384: u64 [a1 + 0xa8] = a0\n 39388: a0 = u64 [s1 + 0xf0]\n 39392: u64 [a1 + 0xe0] = a0\n 39396: a0 = u64 [s1 + 0xf8]\n 39400: u64 [a1 + 0xd8] = a0\n 39404: a0 = u64 [s1 + 0x100]\n 39408: u64 [a1 + 0xd0] = a0\n 39412: a0 = u64 [s1 + 0x108]\n 39416: u64 [a1 + 0xc8] = a0\n 39420: u64 [a1 + 0xb8] = a3\n 39424: a3 = a1\n 39426: a0 = s1 + 0x3a20\n 39430: a1 = s1 + 0x3a00\n 39434: a2 = s1 + 0x39e0\n 39438: u64 [a3 + 0xc0] = a4\n 39442: ra = 1464, jump @1707\n      : @1376 [@dyn 732] (gas: 14)\n 39448: a3 = s1 + 0x100\n 39452: a0 = u64 [a3 + 0xa0]\n 39456: a1 = u64 [a3 + 0xa8]\n 39460: a1 = a1 | a0\n 39463: a0 = 0x100000000\n 39473: u64 [a3 + 0x90] = a0\n 39477: a0 = 0xffffffe0\n 39487: a2 = u64 [a3 + 0xb8]\n 39491: a0 = a2 <u a0\n 39494: a2 = u64 [a3 + 0xb0]\n 39498: a0 = 0 if a2 != 0\n 39500: u64 [a3 + 0x98] = a1\n 39504: a0 = 0 if a1 != 0\n 39506: jump @1378 if a0 != 0\n      : @1377 (gas: 1)\n 39509: jump @1603\n      : @1378 (gas: 21)\n 39512: a2 = s1 + 0x3938\n 39516: a0 = u64 [a2 + 0x100]\n 39520: u64 [s1 + 0x170] = a0\n 39524: a0 = u64 [a2 + 0xf8]\n 39528: u64 [s1 + 0x178] = a0\n 39532: a0 = u64 [a2 + 0xf0]\n 39536: u64 [s1 + 0x180] = a0\n 39540: a0 = u64 [a2 + 0xe8]\n 39544: u64 [s1 + 0x188] = a0\n 39548: a0 = u64 [s1 + 0x1b8]\n 39552: i32 a0 = a0 + 0x20\n 39555: a1 = u64 [s1 + 0xd0]\n 39559: u64 [a2 + 0x88] = a1\n 39563: a1 = u64 [s1 + 0xd8]\n 39567: u64 [a2 + 0x90] = a1\n 39571: a1 = u64 [s1 + 0xe0]\n 39575: u64 [a2 + 0x98] = a1\n 39579: a1 = s1 + 0x39c0\n 39583: a3 = u64 [s1 + 0xe8]\n 39587: u64 [a2 + 0xa0] = a3\n 39591: ra = 1466, jump @19\n      : @1379 [@dyn 733] (gas: 10)\n 39598: a2 = s1 + 0x100\n 39602: a0 = u64 [a2 + 0x90]\n 39606: a0 = a0 + 0xffffffffffffffc0\n 39609: a1 = u64 [a2 + 0xb8]\n 39613: a0 = a1 <u a0\n 39616: a1 = u64 [a2 + 0xb0]\n 39620: a0 = 0 if a1 != 0\n 39622: a1 = u64 [a2 + 0x98]\n 39626: a0 = 0 if a1 != 0\n 39628: jump @1381 if a0 != 0\n      : @1380 (gas: 1)\n 39631: jump @1603\n      : @1381 (gas: 32)\n 39634: a5 = u64 [s1 + 0x1b8]\n 39638: a0 = u64 [s1 + 0x188]\n 39642: t1 = a0 <u a5\n 39645: t0 = a0\n 39647: a3 = u64 [s1 + 0x1b0]\n 39651: a0 = u64 [s1 + 0x180]\n 39655: a1 = a0 ^ a3\n 39658: a2 = a0 <u a3\n 39661: ra = a3\n 39663: a2 = t1 if a1 == 0\n 39666: a3 = u64 [s1 + 0x1a0]\n 39670: a4 = u64 [s1 + 0x178]\n 39674: a1 = a4 - a3\n 39677: t2 = a4 <u a3\n 39680: a3 = u64 [s1 + 0x1a8]\n 39684: a4 = u64 [s1 + 0x170]\n 39688: a4 = a4 - a3\n 39691: a4 = a4 - t2\n 39694: a3 = a1 <u a2\n 39697: a4 = a4 - a3\n 39700: a1 = a1 - a2\n 39703: a2 = a0 - ra\n 39706: a2 = a2 - t1\n 39709: a3 = t0 - a5\n 39712: i32 a0 = a5 + 0x40\n 39715: a5 = s1 + 0x3938\n 39719: u64 [a5 + 0x68] = a3\n 39722: u64 [a5 + 0x70] = a2\n 39725: u64 [a5 + 0x78] = a1\n 39728: a1 = s1 + 0x39a0\n 39732: u64 [a5 + 0x80] = a4\n 39736: ra = 1468, jump @19\n      : @1382 [@dyn 734] (gas: 3)\n 39743: t0 = 0x5be\n 39747: a1 = s1 + 0x3938\n 39751: fallthrough\n      : @1383 [@dyn 735] (gas: 21)\n 39752: a0 = u64 [s1 + 0x170]\n 39756: u64 [a1 + 0x20] = a0\n 39759: a0 = u64 [s1 + 0x178]\n 39763: u64 [a1 + 0x18] = a0\n 39766: a0 = u64 [s1 + 0x180]\n 39770: u64 [a1 + 0x10] = a0\n 39773: a0 = u64 [s1 + 0x188]\n 39777: u64 [a1 + 0x8] = a0\n 39780: a0 = u64 [s1 + 0xb0]\n 39784: u64 [a1 + 0x40] = a0\n 39787: a0 = u64 [s1 + 0xb8]\n 39791: u64 [a1 + 0x38] = a0\n 39794: a0 = u64 [s1 + 0xc0]\n 39798: u64 [a1 + 0x30] = a0\n 39801: a4 = a1\n 39803: a0 = s1 + 0x3980\n 39807: a1 = s1 + 0x3960\n 39811: a2 = s1 + 0x3940\n 39815: a3 = u64 [s1 + 0xc8]\n 39819: u64 [a4 + 0x28] = a3\n 39822: ra = 1472, jump @1707\n      : @1384 [@dyn 736] (gas: 18)\n 39828: a1 = s1 + 0x3938\n 39832: a0 = u64 [a1 + 0x50]\n 39835: t0 = u64 [a1 + 0x60]\n 39838: t1 = u64 [a1 + 0x48]\n 39841: a3 = u64 [a1 + 0x58]\n 39844: a1 = u64 [s1 + 0x1b0]\n 39848: a4 = a0 ^ a1\n 39851: a5 = a0 <u a1\n 39854: t2 = a1\n 39856: ra = u64 [s1 + 0x1b8]\n 39860: a1 = t1 <u ra\n 39863: a5 = a1 if a4 == 0\n 39866: a2 = u64 [s1 + 0x1a0]\n 39870: a4 = a3 - a2\n 39873: a3 = a3 <u a2\n 39876: a2 = u64 [s1 + 0x1a8]\n 39880: a2 = t0 - a2\n 39883: t0 = 1474, jump @1989\n      : @1385 [@dyn 737] (gas: 1)\n 39889: jump @1387 if a0 == 0\n      : @1386 (gas: 1)\n 39892: jump @1603\n      : @1387 (gas: 24)\n 39895: t0 = s1 + 0x3138\n 39899: a0 = u64 [s1 + 0x110]\n 39903: u64 [t0 + 0x7c8] = a0\n 39907: a0 = u64 [s1 + 0x118]\n 39911: u64 [t0 + 0x7d0] = a0\n 39915: a0 = u64 [0x20050]\n 39920: a2 = u64 [0x20058]\n 39925: a3 = u64 [0x20060]\n 39930: a4 = u64 [0x20068]\n 39935: a5 = s1 + 0x3938\n 39939: u64 [a5] = a0\n 39941: a0 = a5 + 0xffffffffffffff00\n 39945: u64 [a0 + 0xf8] = a2\n 39949: u64 [a0 + 0xf0] = a3\n 39953: u64 [a0 + 0xe8] = a4\n 39957: a4 = s1 + 0x100\n 39961: a0 = u64 [a4 + 0x20]\n 39964: u64 [t0 + 0x7d8] = a0\n 39968: a2 = s1 + 0x3920\n 39972: a3 = s1 + 0x3900\n 39976: a0 = u64 [a4 + 0x28]\n 39979: u64 [t0 + 0x7e0] = a0\n 39983: a0 = u64 [a4 + 0xb8]\n 39987: ra = 1476, jump @24\n      : @1388 [@dyn 738] (gas: 6)\n 39994: a0 = 0\n 39996: a1 = u64 [s1 + 0x50]\n 39999: a2 = 0\n 40001: ecalli 13 // 'seal_return'\n 40003: a1 = 0x20200\n 40008: jump @1605\n      : @1389 (gas: 9)\n 40011: a0 = 0xffffff80\n 40021: a2 = s1 + 0x100\n 40025: a1 = u64 [a2 + 0x30]\n 40028: a0 = a1 <u a0\n 40031: a1 = u64 [a2 + 0x28]\n 40034: a0 = 0 if a1 != 0\n 40036: a1 = u64 [a2 + 0x10]\n 40039: a0 = 0 if a1 != 0\n 40041: jump @1391 if a0 != 0\n      : @1390 (gas: 1)\n 40044: jump @1603\n      : @1391 (gas: 31)\n 40047: a5 = u64 [s1 + 0x130]\n 40051: a0 = u64 [s1 + 0x1a0]\n 40055: t1 = a0 <u a5\n 40058: t2 = a0\n 40060: a3 = u64 [s1 + 0x128]\n 40064: t0 = u64 [s1 + 0x190]\n 40068: a1 = t0 ^ a3\n 40071: a2 = t0 <u a3\n 40074: ra = a3\n 40076: a2 = t1 if a1 == 0\n 40079: a3 = u64 [s1 + 0x120]\n 40083: a4 = u64 [s1 + 0x188]\n 40087: a1 = a4 - a3\n 40090: a0 = a1 <u a2\n 40093: a4 = a4 <u a3\n 40096: a0 = a0 + a4\n 40099: a3 = u64 [s1 + 0x118]\n 40103: a4 = u64 [s1 + 0x180]\n 40107: a4 = a4 - a3\n 40110: a4 = a4 - a0\n 40113: a1 = a1 - a2\n 40116: a2 = t0 - ra\n 40119: a2 = a2 - t1\n 40122: a3 = t2 - a5\n 40125: i32 a0 = a5 + 0x80\n 40129: u64 [s1 + 0x740] = a3\n 40133: u64 [s1 + 0x748] = a2\n 40137: u64 [s1 + 0x750] = a1\n 40141: a1 = s1 + 0x740\n 40145: u64 [s1 + 0x758] = a4\n 40149: ra = 1478, jump @19\n      : @1392 [@dyn 739] (gas: 21)\n 40156: a0 = u64 [s1 + 0x180]\n 40160: a1 = s1 + 0x600\n 40164: u64 [a1 + 0xf8] = a0\n 40168: a0 = u64 [s1 + 0x188]\n 40172: u64 [a1 + 0xf0] = a0\n 40176: a0 = u64 [s1 + 0x190]\n 40180: u64 [a1 + 0xe8] = a0\n 40184: a0 = u64 [s1 + 0x1a0]\n 40188: u64 [a1 + 0xe0] = a0\n 40192: a0 = u64 [s1 + 0x70]\n 40195: u64 [s1 + 0x718] = a0\n 40199: a0 = u64 [s1 + 0x78]\n 40202: u64 [s1 + 0x710] = a0\n 40206: a0 = u64 [s1 + 0x80]\n 40210: u64 [s1 + 0x708] = a0\n 40214: a0 = s1 + 0x720\n 40218: a1 = s1 + 0x700\n 40222: a2 = s1 + 0x6e0\n 40226: a3 = u64 [s1 + 0x88]\n 40230: u64 [s1 + 0x700] = a3\n 40234: ra = 1480, jump @1736\n      : @1393 [@dyn 740] (gas: 32)\n 40240: a0 = u64 [s1 + 0x728]\n 40244: t0 = u64 [s1 + 0x738]\n 40248: t1 = u64 [s1 + 0x720]\n 40252: a3 = u64 [s1 + 0x730]\n 40256: a1 = u64 [s1 + 0x128]\n 40260: a4 = a0 ^ a1\n 40263: a5 = a0 <u a1\n 40266: t2 = a1\n 40268: ra = u64 [s1 + 0x130]\n 40272: a1 = t1 <u ra\n 40275: a5 = a1 if a4 == 0\n 40278: a2 = u64 [s1 + 0x120]\n 40282: a4 = a3 - a2\n 40285: a3 = a3 <u a2\n 40288: a2 = u64 [s1 + 0x118]\n 40292: a2 = t0 - a2\n 40295: a2 = a2 - a3\n 40298: a3 = a4 <u a5\n 40301: a2 = a2 - a3\n 40304: a4 = a4 - a5\n 40307: a0 = a0 - t2\n 40310: a0 = a0 - a1\n 40313: a1 = t1 - ra\n 40316: a0 = a0 | a2\n 40319: a2 = a1\n 40321: a1 = a1 | a4\n 40324: a1 = a1 | a0\n 40327: a0 = a0 | a4\n 40330: a1 = a1 >> 0x20\n 40333: a0 = a0 << 0x20\n 40336: a0 = a0 | a1\n 40339: jump @1395 if a0 == 0\n      : @1394 (gas: 1)\n 40342: jump @1603\n      : @1395 (gas: 4)\n 40345: a0 = u64 [s1 + 0x130]\n 40349: a1 = a2\n 40351: u64 [s1 + 0x1b8] = a2\n 40355: ra = 1482, jump @28\n      : @1396 [@dyn 741] (gas: 5)\n 40362: i32 a1 = a0 + 0\n 40364: a2 = i32 [s1 + 0x1b8]\n 40368: a0 = 0\n 40370: ecalli 13 // 'seal_return'\n 40372: jump @853\n      : @1397 (gas: 3)\n 40375: a0 = s1 + 0x26a0\n 40379: a1 = 0x40\n 40382: ra = 1484, jump @17\n      : @1398 [@dyn 742] (gas: 14)\n 40389: a0 = s1 + 0x2138\n 40393: a2 = a0 + 0x500\n 40397: a1 = u64 [a2 + 0x80]\n 40401: u64 [s1 + 0x1b0] = a1\n 40405: a1 = u64 [a2 + 0x78]\n 40408: u64 [s1 + 0x1a8] = a1\n 40412: a1 = u64 [a2 + 0x70]\n 40415: u64 [s1 + 0x1a0] = a1\n 40419: a0 = u64 [a2 + 0x68]\n 40422: u64 [s1 + 0x1b8] = a0\n 40426: ra = 0x5ce\n 40430: ecalli 12 // 'return_data_size'\n 40432: t0 = 0x5d0\n 40436: jump @1976\n      : @1399 [@dyn 743] (gas: 1)\n 40439: t0 = 1488, jump @1976\n      : @1400 [@dyn 744] (gas: 1)\n 40445: jump @1402 if a1 == 0\n      : @1401 (gas: 1)\n 40448: jump @1603\n      : @1402 (gas: 2)\n 40451: a1 = a0 >> 0x20\n 40454: jump @1404 if a1 == 0\n      : @1403 (gas: 1)\n 40457: jump @1603\n      : @1404 (gas: 1)\n 40460: t0 = 1490, jump @2020\n      : @1405 [@dyn 745] (gas: 1)\n 40466: ra = 1492, jump @28\n      : @1406 [@dyn 746] (gas: 11)\n 40473: a1 = s1 + 0x4938\n 40477: a2 = u64 [s1 + 0x1a8]\n 40481: u32 [a1 + 0x648] = a2\n 40485: i32 a0 = a0 + 0\n 40487: a1 = s1 + 0x5000\n 40491: i32 a1 = a1 + 0xffffffffffffff80\n 40494: a2 = 0\n 40496: ecalli 11 // 'return_data_copy'\n 40498: a0 = s1 + 0x4938\n 40502: a0 = i32 [a0 + 0x648]\n 40506: fallthrough\n      : @1407 (gas: 2)\n 40507: a1 = u64 [s1 + 0x1b0]\n 40511: jump @1409 if a0 >=u a1\n      : @1408 (gas: 1)\n 40514: jump @1603\n      : @1409 (gas: 2)\n 40517: ecalli 12 // 'return_data_size'\n 40519: fallthrough\n      : @1410 (gas: 3)\n 40520: a1 = a0\n 40522: a0 = a0 >> 0x20\n 40525: jump @1412 if a0 == 0\n      : @1411 (gas: 1)\n 40528: jump @1603\n      : @1412 (gas: 3)\n 40531: a0 = u64 [s1 + 0x1b8]\n 40535: u64 [s1 + 0x1b0] = a1\n 40539: ra = 1494, jump @28\n      : @1413 [@dyn 747] (gas: 5)\n 40546: i32 a1 = a0 + 0\n 40548: a2 = i32 [s1 + 0x1b0]\n 40552: a0 = 0x1\n 40555: ecalli 13 // 'seal_return'\n 40557: fallthrough\n      : @1414 (gas: 7)\n 40558: a1 = a1 | a0\n 40561: a1 = a1 >> 0x20\n 40564: a2 = u64 [s1 + 0x1b0]\n 40568: a0 = a0 | a2\n 40571: a0 = a0 << 0x20\n 40574: a0 = a0 | a1\n 40577: jump @1416 if a0 == 0\n      : @1415 (gas: 1)\n 40580: jump @1603\n      : @1416 (gas: 9)\n 40583: a2 = s1 + 0x2138\n 40587: u64 [a2 + 1240] = 0\n 40591: u64 [a2 + 1232] = 0\n 40595: u64 [a2 + 1224] = 0\n 40599: a0 = 0x70a0823100000000\n 40609: a1 = s1 + 0x2600\n 40613: u64 [a2 + 0x4e0] = a0\n 40617: a0 = u64 [s1 + 0x1b8]\n 40621: ra = 1496, jump @19\n      : @1417 [@dyn 748] (gas: 4)\n 40628: a0 = u64 [s1 + 0xd8]\n 40632: ra = 0x5da\n 40636: ecalli 5 // 'caller'\n 40638: fallthrough\n      : @1418 [@dyn 749] (gas: 3)\n 40639: a0 = 0xfffffffc\n 40649: a2 = s1 + 0x100\n 40653: t0 = 1500, jump @1981\n      : @1419 [@dyn 750] (gas: 1)\n 40659: jump @1421 if a0 != 0\n      : @1420 (gas: 1)\n 40662: jump @1603\n      : @1421 (gas: 1)\n 40665: t0 = 1502, jump @1966\n      : @1422 [@dyn 751] (gas: 7)\n 40671: u64 [a4 + 1216] = 0\n 40675: a5 = a4 + 0x400\n 40679: u64 [a5 + 0xb8] = a1\n 40683: u64 [a5 + 0xb0] = a2\n 40687: a1 = s1 + 0x25e0\n 40691: u64 [a5 + 0xa8] = a3\n 40695: ra = 1504, jump @19\n      : @1423 [@dyn 752] (gas: 16)\n 40702: ecalli 10 // 'ref_time_left'\n 40704: a0 = u64 [s1 + 0x168]\n 40708: a1 = u64 [s1 + 0x140]\n 40712: u64 [a1 + 0x8] = a0\n 40715: a0 = u64 [s1 + 0x178]\n 40719: u64 [a1] = a0\n 40721: a0 = u64 [s1 + 0x170]\n 40725: u32 [a1 + 0x10] = a0\n 40728: a0 = s1 + 0x4938\n 40732: u64 [a0 + 1664] = 0\n 40736: u64 [a0 + 1656] = 0\n 40740: u64 [a0 + 1648] = 0\n 40744: u64 [a0 + 1640] = 0\n 40748: a1 = 0x24\n 40751: a0 = u64 [s1 + 0x1b8]\n 40755: ra = 1506, jump @28\n      : @1424 [@dyn 753] (gas: 4)\n 40762: u64 [s1 + 0x188] = a0\n 40766: a1 = 0x20\n 40769: a0 = u64 [s1 + 0x1b8]\n 40773: ra = 1508, jump @28\n      : @1425 [@dyn 754] (gas: 28)\n 40780: u64 [s1 + 424] = 0x20\n 40785: a1 = s1 + 0x4938\n 40789: u32 [a1 + 1672] = 0x20\n 40794: u64 [a1 + 1728] = 0\n 40798: u64 [a1 + 1720] = 0\n 40802: u64 [a1 + 1712] = 0\n 40806: u64 [a1 + 1704] = 0\n 40810: a1 = s1 + 0x4fa0\n 40814: a1 = a1 << 0x20\n 40817: a1 = a1 >> 0x20\n 40820: a2 = s1 + 0x4fe0\n 40824: a2 = a2 << 0x20\n 40827: a3 = a2 | a1\n 40830: a1 = u64 [s1 + 0x188]\n 40834: a1 = a1 << 0x20\n 40837: a1 = a1 >> 0x20\n 40840: a2 = 0x2400000000\n 40850: a4 = a1 | a2\n 40853: a0 = a0 << 0x20\n 40856: a0 = a0 >> 0x20\n 40859: a1 = s1 + 0x4fc0\n 40863: a1 = a1 << 0x20\n 40866: a5 = a1 | a0\n 40869: a1 = 0xffffffffffffffff\n 40872: a2 = 0xffffffffffffffff\n 40875: a0 = u64 [s1 + 0x180]\n 40879: ecalli 1 // 'call'\n 40881: fallthrough\n      : @1426 (gas: 1)\n 40882: jump @1457 if a0 != 0\n      : @1427 (gas: 2)\n 40886: ecalli 12 // 'return_data_size'\n 40888: fallthrough\n      : @1428 (gas: 1)\n 40889: jump @1430 if a0 >=u 32\n      : @1429 (gas: 3)\n 40893: ecalli 12 // 'return_data_size'\n 40895: u64 [s1 + 0x1a8] = a0\n 40899: fallthrough\n      : @1430 (gas: 19)\n 40900: a2 = s1 + 0x2138\n 40904: a0 = u64 [s1 + 0x1a8]\n 40908: a4 = a2 + 0x400\n 40912: u64 [a4 + 0x48] = a0\n 40915: a0 = u64 [s1 + 0x1b8]\n 40919: u64 [a4 + 0x68] = a0\n 40922: u64 [s1 + 392] = 0\n 40926: u64 [a2 + 1104] = 0\n 40930: a0 = u64 [s1 + 0x1a0]\n 40934: u64 [a4 + 0x70] = a0\n 40937: u64 [a2 + 1112] = 0\n 40941: a0 = u64 [s1 + 0x1b0]\n 40945: u64 [a4 + 0x78] = a0\n 40948: u64 [a2 + 1120] = 0\n 40952: a0 = s1 + 0x25a0\n 40956: a1 = s1 + 0x2580\n 40960: a3 = u64 [s1 + 0x158]\n 40964: u64 [a4 + 0x80] = a3\n 40968: ra = 1510, jump @1749\n      : @1431 [@dyn 755] (gas: 4)\n 40974: a3 = u64 [s1 + 0x188]\n 40978: a0 = a3 >u 0\n 40980: a1 = u64 [s1 + 0x1a8]\n 40984: t0 = 1512, jump @1964\n      : @1432 [@dyn 756] (gas: 1)\n 40990: jump @1434 if a2 != 0\n      : @1433 (gas: 1)\n 40993: jump @1694\n      : @1434 (gas: 3)\n 40996: a0 = s1 + 0x2560\n 41000: a1 = u64 [s1 + 0x1b8]\n 41004: ra = 1514, jump @17\n      : @1435 [@dyn 757] (gas: 7)\n 41011: a3 = s1 + 0x2138\n 41015: a4 = a3 + 0x400\n 41019: a0 = u64 [a4 + 0x30]\n 41022: a1 = u64 [a4 + 0x40]\n 41025: a2 = u64 [a4 + 0x28]\n 41028: a3 = u64 [a4 + 0x38]\n 41031: t0 = 1516, jump @2025\n      : @1436 [@dyn 758] (gas: 9)\n 41037: t0 = a3 <u a0\n 41040: a5 = u64 [s1 + 0xf8]\n 41044: a4 = a1 ^ a5\n 41047: a1 = a1 <u a5\n 41050: a1 = t0 if a4 == 0\n 41053: a0 = a0 ^ a3\n 41056: a0 = a0 | a4\n 41059: a1 = a2 if a0 == 0\n 41062: jump @1467 if a1 == 0\n      : @1437 (gas: 3)\n 41066: a0 = s1 + 0x1e40\n 41070: a1 = 0x40\n 41073: ra = 1518, jump @17\n      : @1438 [@dyn 759] (gas: 7)\n 41080: a0 = s1 + 0x1938\n 41084: a5 = a0 + 0x500\n 41088: a3 = u64 [a5 + 0x20]\n 41091: a4 = u64 [a5 + 0x18]\n 41094: a2 = u64 [a5 + 0x10]\n 41097: a1 = u64 [a5 + 0x8]\n 41100: t0 = 1520, jump @2000\n      : @1439 [@dyn 760] (gas: 1)\n 41106: jump @1441 if a0 == 0\n      : @1440 (gas: 1)\n 41109: jump @1603\n      : @1441 (gas: 8)\n 41112: a2 = s1 + 0x1938\n 41116: u64 [a2 + 1272] = 0\n 41120: u64 [a2 + 1264] = 0\n 41124: u64 [a2 + 1256] = 0\n 41128: t0 = 0x5f2\n 41132: a0 = 0x8c379a000000000\n 41142: a1 = 0x2000\n 41146: fallthrough\n      : @1442 [@dyn 761] (gas: 5)\n 41147: i32 a1 = a1 + 0xfffffffffffffe20\n 41151: a1 = a1 + s1\n 41154: u64 [a2 + 0x500] = a0\n 41158: a0 = u64 [s1 + 0x1b8]\n 41162: ra = 1524, jump @19\n      : @1443 [@dyn 762] (gas: 1)\n 41169: t0 = 1526, jump @1961\n      : @1444 [@dyn 763] (gas: 1)\n 41175: jump @1446 if a0 != 0\n      : @1445 (gas: 1)\n 41178: jump @1603\n      : @1446 (gas: 5)\n 41181: a0 = u64 [s1 + 0x1b8]\n 41185: i32 a0 = a0 + 0x4\n 41188: t0 = 0x5f8\n 41192: a2 = s1 + 0x1938\n 41196: fallthrough\n      : @1447 [@dyn 764] (gas: 6)\n 41197: u64 [a2 + 1248] = 0\n 41201: u64 [a2 + 1240] = 0\n 41205: u64 [a2 + 1224] = 0x20\n 41210: a1 = s1 + 0x1e00\n 41214: u64 [a2 + 1232] = 0\n 41218: ra = 1530, jump @19\n      : @1448 [@dyn 765] (gas: 4)\n 41225: a2 = s1 + 0x100\n 41229: a0 = u64 [a2 + 0xa0]\n 41233: a0 = a0 + 0xffffffffffffffdc\n 41236: t0 = 1532, jump @1963\n      : @1449 [@dyn 766] (gas: 1)\n 41242: jump @1451 if a0 != 0\n      : @1450 (gas: 1)\n 41245: jump @1603\n      : @1451 (gas: 1)\n 41248: t0 = 1534, jump @2001\n      : @1452 [@dyn 767] (gas: 6)\n 41254: u64 [a2 + 1216] = 0\n 41258: u64 [a2 + 1208] = 0\n 41262: u64 [a2 + 1192] = 0x14\n 41267: a1 = s1 + 0x1de0\n 41271: u64 [a2 + 1200] = 0\n 41275: ra = 1536, jump @19\n      : @1453 [@dyn 768] (gas: 3)\n 41282: a0 = 0xffffffbc\n 41292: a2 = s1 + 0x100\n 41296: t0 = 1538, jump @1963\n      : @1454 [@dyn 769] (gas: 1)\n 41302: jump @1456 if a0 != 0\n      : @1455 (gas: 1)\n 41305: jump @1603\n      : @1456 (gas: 14)\n 41308: a0 = u64 [s1 + 0x1b8]\n 41312: i32 a0 = a0 + 0x44\n 41315: a1 = u64 [0x200f0]\n 41320: a2 = u64 [0x200f8]\n 41325: a3 = s1 + 0x1938\n 41329: a4 = a3 + 0x400\n 41333: u64 [a4 + 0xa0] = a1\n 41337: u64 [a4 + 0x98] = a2\n 41341: a1 = 0x616e636500000000\n 41351: u64 [a4 + 0x90] = a1\n 41355: a1 = s1 + 0x1dc0\n 41359: u64 [a3 + 1160] = 0\n 41363: ra = 0x64e\n 41367: jump @19\n      : @1457 (gas: 3)\n 41371: a0 = s1 + 0x25c0\n 41375: a1 = 0x40\n 41378: ra = 1540, jump @17\n      : @1458 [@dyn 770] (gas: 14)\n 41385: a0 = s1 + 0x2138\n 41389: a2 = a0 + 0x400\n 41393: a1 = u64 [a2 + 0xa0]\n 41397: u64 [s1 + 0x1b0] = a1\n 41401: a1 = u64 [a2 + 0x98]\n 41405: u64 [s1 + 0x1a8] = a1\n 41409: a1 = u64 [a2 + 0x90]\n 41413: u64 [s1 + 0x1a0] = a1\n 41417: a0 = u64 [a2 + 0x88]\n 41421: u64 [s1 + 0x1b8] = a0\n 41425: ra = 0x606\n 41429: ecalli 12 // 'return_data_size'\n 41431: t0 = 0x608\n 41435: jump @1976\n      : @1459 [@dyn 771] (gas: 1)\n 41438: t0 = 1544, jump @1976\n      : @1460 [@dyn 772] (gas: 1)\n 41444: jump @1462 if a1 == 0\n      : @1461 (gas: 1)\n 41447: jump @1603\n      : @1462 (gas: 2)\n 41450: a1 = a0 >> 0x20\n 41453: jump @1464 if a1 == 0\n      : @1463 (gas: 1)\n 41456: jump @1603\n      : @1464 (gas: 1)\n 41459: t0 = 1546, jump @2020\n      : @1465 [@dyn 773] (gas: 1)\n 41465: ra = 1548, jump @28\n      : @1466 [@dyn 774] (gas: 11)\n 41472: a1 = s1 + 0x4938\n 41476: a2 = u64 [s1 + 0x1a8]\n 41480: u32 [a1 + 0x6c8] = a2\n 41484: i32 a0 = a0 + 0\n 41486: a1 = s1 + 0x5000\n 41490: i32 a1 = a1 + 0\n 41492: a2 = 0\n 41494: ecalli 11 // 'return_data_copy'\n 41496: a0 = s1 + 0x4938\n 41500: a0 = i32 [a0 + 0x6c8]\n 41504: jump @1407\n      : @1467 (gas: 4)\n 41507: a0 = u64 [s1 + 0x138]\n 41511: t0 = 0x60e\n 41515: a2 = s1 + 0x2138\n 41519: fallthrough\n      : @1468 [@dyn 775] (gas: 11)\n 41520: a3 = a2 + 0x400\n 41524: u64 [a3 + 0x8] = a0\n 41527: a0 = u64 [s1 + 0x130]\n 41531: u64 [a3 + 0x10] = a0\n 41534: a0 = u64 [s1 + 0x128]\n 41538: u64 [a3 + 0x18] = a0\n 41541: a1 = s1 + 0x2540\n 41545: a0 = u64 [s1 + 0x120]\n 41549: u64 [a3 + 0x20] = a0\n 41552: a0 = 0\n 41554: ra = 1552, jump @19\n      : @1469 [@dyn 776] (gas: 9)\n 41561: a0 = s1 + 0x2138\n 41565: u64 [a0 + 1024] = 0\n 41569: u64 [a0 + 1016] = 0\n 41573: u64 [a0 + 1008] = 0\n 41577: a2 = a0\n 41579: a0 = 0x20\n 41582: a1 = s1 + 0x2520\n 41586: u64 [a2 + 1000] = 0\n 41590: ra = 1554, jump @19\n      : @1470 [@dyn 777] (gas: 3)\n 41597: a0 = u64 [s1 + 0x190]\n 41601: a0 = i32 [a0]\n 41603: jump @1472 if a0 >u 63\n      : @1471 (gas: 3)\n 41607: a1 = u64 [s1 + 0x190]\n 41611: u32 [a1 + 0] = 0x40\n 41614: fallthrough\n      : @1472 (gas: 4)\n 41615: a0 = sp + 0xffffffffffffffe0\n 41618: a0 = a0 & 0xffffffffffffffe0\n 41621: u64 [s1 + 0x1b8] = a0\n 41625: t0 = 1556, jump @1962\n      : @1473 [@dyn 778] (gas: 4)\n 41631: ra = 0x616\n 41635: ecalli 8 // 'hash_keccak_256'\n 41637: t0 = 0x618\n 41641: jump @1941\n      : @1474 [@dyn 779] (gas: 1)\n 41644: t0 = 1560, jump @1941\n      : @1475 [@dyn 780] (gas: 8)\n 41650: a5 = a1 + 0x600\n 41654: u64 [a5 + 0xe8] = a3\n 41658: u64 [a5 + 0xf0] = a2\n 41662: u64 [a5 + 0xf8] = a4\n 41666: u64 [a1 + 0x700] = a0\n 41670: a0 = s1 + 0x2500\n 41674: a1 = s1 + 0x5020\n 41678: ra = 1562, jump @21\n      : @1476 [@dyn 781] (gas: 10)\n 41685: a1 = s1 + 0x2138\n 41689: a0 = u32 [a1 + 0x3d8]\n 41693: u64 [s1 + 0x188] = a0\n 41697: a0 = u64 [a1 + 0x3d0]\n 41701: u64 [s1 + 0x180] = a0\n 41705: a0 = u64 [a1 + 0x3c8]\n 41709: u64 [s1 + 0x158] = a0\n 41713: a0 = s1 + 0x24e0\n 41717: a1 = 0x40\n 41720: ra = 1564, jump @17\n      : @1477 [@dyn 782] (gas: 19)\n 41727: a1 = s1 + 0x2138\n 41731: a4 = a1 + 0x300\n 41735: a0 = u64 [a4 + 0xc0]\n 41739: a2 = u64 [a4 + 0xb8]\n 41743: a3 = u64 [a4 + 0xb0]\n 41747: a1 = u64 [a4 + 0xa8]\n 41751: a4 = s1 + 0x100\n 41755: u64 [a4 + 0xa8] = a0\n 41759: u64 [a4 + 0xb0] = a3\n 41763: a0 = a0 | a3\n 41766: u64 [a4 + 0xb8] = a1\n 41770: a1 = a1 | a2\n 41773: a1 = a1 | a0\n 41776: a1 = a1 >> 0x20\n 41779: u64 [a4 + 0xa0] = a2\n 41783: a0 = a0 | a2\n 41786: a0 = a0 << 0x20\n 41789: a0 = a0 | a1\n 41792: jump @1479 if a0 == 0\n      : @1478 (gas: 1)\n 41795: jump @1603\n      : @1479 (gas: 9)\n 41798: a2 = s1 + 0x2138\n 41802: u64 [a2 + 920] = 0\n 41806: u64 [a2 + 912] = 0\n 41810: u64 [a2 + 904] = 0\n 41814: a0 = 0x23b872dd00000000\n 41824: a1 = s1 + 0x24c0\n 41828: u64 [a2 + 0x3a0] = a0\n 41832: a0 = u64 [s1 + 0x1b8]\n 41836: ra = 1566, jump @19\n      : @1480 [@dyn 783] (gas: 4)\n 41843: a0 = u64 [s1 + 0xd8]\n 41847: ra = 0x620\n 41851: ecalli 5 // 'caller'\n 41853: fallthrough\n      : @1481 [@dyn 784] (gas: 14)\n 41854: a3 = s1 + 0x100\n 41858: a0 = u64 [a3 + 0xa8]\n 41862: a1 = u64 [a3 + 0xa0]\n 41866: a2 = a1 | a0\n 41869: a0 = 0x100000000\n 41879: u64 [a3 + 0x48] = a0\n 41882: a0 = 0xfffffffc\n 41892: a1 = u64 [a3 + 0xb8]\n 41896: a0 = a1 <u a0\n 41899: a1 = u64 [a3 + 0xb0]\n 41903: a0 = 0 if a1 != 0\n 41905: u64 [a3 + 0x50] = a2\n 41908: a0 = 0 if a2 != 0\n 41910: jump @1483 if a0 != 0\n      : @1482 (gas: 1)\n 41913: jump @1603\n      : @1483 (gas: 1)\n 41916: t0 = 1570, jump @1966\n      : @1484 [@dyn 785] (gas: 7)\n 41922: u64 [a4 + 896] = 0\n 41926: a5 = a4 + 0x300\n 41930: u64 [a5 + 0x78] = a1\n 41933: u64 [a5 + 0x70] = a2\n 41936: a1 = s1 + 0x24a0\n 41940: u64 [a5 + 0x68] = a3\n 41943: ra = 1572, jump @19\n      : @1485 [@dyn 786] (gas: 10)\n 41950: a2 = s1 + 0x100\n 41954: a0 = u64 [a2 + 0x48]\n 41957: a0 = a0 + 0xffffffffffffffdc\n 41960: a1 = u64 [a2 + 0xb8]\n 41964: a0 = a1 <u a0\n 41967: a1 = u64 [a2 + 0xb0]\n 41971: a0 = 0 if a1 != 0\n 41973: a1 = u64 [a2 + 0x50]\n 41976: a0 = 0 if a1 != 0\n 41978: jump @1487 if a0 != 0\n      : @1486 (gas: 1)\n 41981: jump @1603\n      : @1487 (gas: 5)\n 41984: a0 = u64 [s1 + 0x1b8]\n 41988: i32 a0 = a0 + 0x24\n 41991: t0 = 0x626\n 41995: a2 = s1 + 0x2138\n 41999: fallthrough\n      : @1488 [@dyn 787] (gas: 10)\n 42000: u64 [a2 + 864] = 0\n 42004: a1 = u64 [s1 + 0x158]\n 42008: a4 = a2 + 0x300\n 42012: u64 [a4 + 0x48] = a1\n 42015: a1 = u64 [s1 + 0x180]\n 42019: u64 [a4 + 0x50] = a1\n 42022: a1 = s1 + 0x2480\n 42026: a3 = u64 [s1 + 0x188]\n 42030: u64 [a4 + 0x58] = a3\n 42033: ra = 1576, jump @19\n      : @1489 [@dyn 788] (gas: 9)\n 42040: a0 = 0xffffffbc\n 42050: a2 = s1 + 0x100\n 42054: a1 = u64 [a2 + 0xb8]\n 42058: a0 = a1 <u a0\n 42061: a1 = u64 [a2 + 0xb0]\n 42065: a0 = 0 if a1 != 0\n 42067: a1 = u64 [a2 + 0x50]\n 42070: a0 = 0 if a1 != 0\n 42072: jump @1491 if a0 != 0\n      : @1490 (gas: 1)\n 42075: jump @1603\n      : @1491 (gas: 5)\n 42078: a0 = u64 [s1 + 0x1b8]\n 42082: i32 a0 = a0 + 0x44\n 42085: t0 = 0x62a\n 42089: a2 = s1 + 0x2138\n 42093: fallthrough\n      : @1492 [@dyn 789] (gas: 11)\n 42094: a1 = u64 [s1 + 0xe0]\n 42098: a4 = a2 + 0x300\n 42102: u64 [a4 + 0x28] = a1\n 42105: a1 = u64 [s1 + 0xe8]\n 42109: u64 [a4 + 0x30] = a1\n 42112: a1 = u64 [s1 + 0xf0]\n 42116: u64 [a4 + 0x38] = a1\n 42119: a1 = s1 + 0x2460\n 42123: a3 = u64 [s1 + 0xf8]\n 42127: u64 [a4 + 0x40] = a3\n 42130: ra = 1580, jump @19\n      : @1493 [@dyn 790] (gas: 16)\n 42137: ecalli 10 // 'ref_time_left'\n 42139: a0 = u64 [s1 + 0x140]\n 42143: a1 = u64 [s1 + 0x168]\n 42147: u64 [a0 + 0x8] = a1\n 42150: a1 = u64 [s1 + 0x178]\n 42154: u64 [a0] = a1\n 42156: a1 = u64 [s1 + 0x170]\n 42160: u32 [a0 + 0x10] = a1\n 42163: a0 = s1 + 0x4938\n 42167: u64 [a0 + 1824] = 0\n 42171: u64 [a0 + 1816] = 0\n 42175: u64 [a0 + 1808] = 0\n 42179: u64 [a0 + 1800] = 0\n 42183: a1 = 0x64\n 42186: a0 = u64 [s1 + 0x1b8]\n 42190: ra = 1582, jump @28\n      : @1494 [@dyn 791] (gas: 4)\n 42197: u64 [s1 + 0x180] = a0\n 42201: a1 = 0x20\n 42204: a0 = u64 [s1 + 0x1b8]\n 42208: ra = 1584, jump @28\n      : @1495 [@dyn 792] (gas: 33)\n 42215: a1 = a0\n 42217: a4 = s1 + 0x100\n 42221: u64 [a4 + 136] = 0x20\n 42226: a2 = s1 + 0x4938\n 42230: a3 = a2 + 0x700\n 42234: u32 [a3 + 40] = 0x20\n 42238: u64 [a3 + 96] = 0xffffffffffffffff\n 42242: u64 [a3 + 88] = 0xffffffffffffffff\n 42246: u64 [a3 + 80] = 0xffffffffffffffff\n 42250: u64 [a3 + 72] = 0xffffffffffffffff\n 42254: a0 = 0x800000000\n 42264: a2 = u64 [a4 + 0x60]\n 42267: a0 = a0 | a2\n 42270: a2 = s1 + 0x5040\n 42274: a2 = a2 << 0x20\n 42277: a2 = a2 >> 0x20\n 42280: a3 = s1 + 0x5080\n 42284: a3 = a3 << 0x20\n 42287: a3 = a3 | a2\n 42290: a2 = u64 [a4 + 0x80]\n 42294: a2 = a2 << 0x20\n 42297: a2 = a2 >> 0x20\n 42300: a4 = 0x6400000000\n 42310: a4 = a4 | a2\n 42313: a1 = a1 << 0x20\n 42316: a1 = a1 >> 0x20\n 42319: a2 = s1 + 0x5060\n 42323: a2 = a2 << 0x20\n 42326: a5 = a2 | a1\n 42329: a1 = 0xffffffffffffffff\n 42332: a2 = 0xffffffffffffffff\n 42335: ecalli 1 // 'call'\n 42337: fallthrough\n      : @1496 (gas: 1)\n 42338: jump @1526 if a0 != 0\n      : @1497 (gas: 2)\n 42342: ecalli 12 // 'return_data_size'\n 42344: fallthrough\n      : @1498 (gas: 1)\n 42345: jump @1500 if a0 >=u 32\n      : @1499 (gas: 3)\n 42349: ecalli 12 // 'return_data_size'\n 42351: u64 [s1 + 0x188] = a0\n 42355: fallthrough\n      : @1500 (gas: 19)\n 42356: a2 = s1 + 0x2138\n 42360: a0 = u64 [s1 + 0x188]\n 42364: a1 = a2 + 0x200\n 42368: u64 [a1 + 0xc8] = a0\n 42372: a0 = u64 [s1 + 0x1b8]\n 42376: u64 [a1 + 0xe8] = a0\n 42380: u64 [s1 + 384] = 0\n 42384: u64 [a2 + 720] = 0\n 42388: a0 = u64 [s1 + 0x1b0]\n 42392: u64 [a1 + 0xf0] = a0\n 42396: u64 [a2 + 728] = 0\n 42400: a0 = u64 [s1 + 0x1a0]\n 42404: u64 [a1 + 0xf8] = a0\n 42408: u64 [a2 + 736] = 0\n 42412: a0 = s1 + 0x2420\n 42416: a1 = s1 + 0x2400\n 42420: a3 = u64 [s1 + 0x1a8]\n 42424: u64 [a2 + 0x300] = a3\n 42428: ra = 1586, jump @1749\n      : @1501 [@dyn 793] (gas: 4)\n 42434: a3 = u64 [s1 + 0x180]\n 42438: a0 = a3 >u 0\n 42440: a1 = u64 [s1 + 0x188]\n 42444: t0 = 1588, jump @1964\n      : @1502 [@dyn 794] (gas: 1)\n 42450: jump @1504 if a2 != 0\n      : @1503 (gas: 1)\n 42453: jump @1694\n      : @1504 (gas: 3)\n 42456: a0 = s1 + 0x23e0\n 42460: a1 = u64 [s1 + 0x1b8]\n 42464: ra = 1590, jump @17\n      : @1505 [@dyn 795] (gas: 11)\n 42471: a3 = s1 + 0x2138\n 42475: a4 = a3 + 0x200\n 42479: a0 = u64 [a4 + 0xc0]\n 42483: a1 = u64 [a4 + 0xb8]\n 42487: a2 = u64 [a4 + 0xa8]\n 42491: a3 = u64 [a4 + 0xb0]\n 42495: a4 = a1 | a0\n 42498: a5 = a2 <u 0x2\n 42501: a5 = 0 if a3 != 0\n 42503: a5 = 0 if a4 != 0\n 42505: jump @1507 if a5 != 0\n      : @1506 (gas: 1)\n 42508: jump @1695\n      : @1507 (gas: 4)\n 42511: a1 = a1 | a2\n 42514: a0 = a0 | a3\n 42517: a0 = a0 | a1\n 42520: jump @1534 if a0 != 0\n      : @1508 (gas: 3)\n 42524: a0 = s1 + 0x1ee0\n 42528: a1 = 0x40\n 42531: ra = 1592, jump @17\n      : @1509 [@dyn 796] (gas: 7)\n 42538: a0 = s1 + 0x1938\n 42542: a5 = a0 + 0x500\n 42546: a3 = u64 [a5 + 0xc0]\n 42550: a4 = u64 [a5 + 0xb8]\n 42554: a2 = u64 [a5 + 0xb0]\n 42558: a1 = u64 [a5 + 0xa8]\n 42562: t0 = 1594, jump @2000\n      : @1510 [@dyn 797] (gas: 1)\n 42568: jump @1603 if a0 != 0\n      : @1511 (gas: 8)\n 42572: a2 = s1 + 0x1938\n 42576: u64 [a2 + 1432] = 0\n 42580: u64 [a2 + 1424] = 0\n 42584: u64 [a2 + 1416] = 0\n 42588: t0 = 0x63c\n 42592: a0 = 0x8c379a000000000\n 42602: a1 = 0x2000\n 42606: fallthrough\n      : @1512 [@dyn 798] (gas: 5)\n 42607: i32 a1 = a1 + 0xfffffffffffffec0\n 42611: a1 = a1 + s1\n 42614: u64 [a2 + 0x5a0] = a0\n 42618: a0 = u64 [s1 + 0x1b8]\n 42622: ra = 1598, jump @19\n      : @1513 [@dyn 799] (gas: 1)\n 42629: t0 = 1600, jump @1961\n      : @1514 [@dyn 800] (gas: 1)\n 42635: jump @1603 if a0 == 0\n      : @1515 (gas: 5)\n 42639: a0 = u64 [s1 + 0x1b8]\n 42643: i32 a0 = a0 + 0x4\n 42646: t0 = 0x642\n 42650: a2 = s1 + 0x1938\n 42654: fallthrough\n      : @1516 [@dyn 801] (gas: 6)\n 42655: u64 [a2 + 1408] = 0\n 42659: u64 [a2 + 1400] = 0\n 42663: u64 [a2 + 1384] = 0x20\n 42668: a1 = s1 + 0x1ea0\n 42672: u64 [a2 + 1392] = 0\n 42676: ra = 1604, jump @19\n      : @1517 [@dyn 802] (gas: 4)\n 42683: a2 = s1 + 0x100\n 42687: a0 = u64 [a2 + 0xa0]\n 42691: a0 = a0 + 0xffffffffffffffdc\n 42694: t0 = 1606, jump @1963\n      : @1518 [@dyn 803] (gas: 1)\n 42700: jump @1603 if a0 == 0\n      : @1519 (gas: 1)\n 42704: t0 = 1608, jump @2001\n      : @1520 [@dyn 804] (gas: 6)\n 42710: u64 [a2 + 1376] = 0\n 42714: u64 [a2 + 1368] = 0\n 42718: u64 [a2 + 1352] = 0xf\n 42723: a1 = s1 + 0x1e80\n 42727: u64 [a2 + 1360] = 0\n 42731: ra = 1610, jump @19\n      : @1521 [@dyn 805] (gas: 3)\n 42738: a0 = 0xffffffbc\n 42748: a2 = s1 + 0x100\n 42752: t0 = 1612, jump @1963\n      : @1522 [@dyn 806] (gas: 1)\n 42758: jump @1603 if a0 == 0\n      : @1523 (gas: 11)\n 42762: a0 = u64 [s1 + 0x1b8]\n 42766: i32 a0 = a0 + 0x44\n 42769: a1 = u64 [0x200e0]\n 42774: a2 = u64 [0x200e8]\n 42779: a3 = s1 + 0x1938\n 42783: u64 [a3 + 0x540] = a1\n 42787: u64 [a3 + 1328] = 0\n 42791: u64 [a3 + 0x538] = a2\n 42795: a1 = s1 + 0x1e60\n 42799: u64 [a3 + 1320] = 0\n 42803: ra = 1614, jump @19\n      : @1524 [@dyn 807] (gas: 3)\n 42810: a1 = 0x64\n 42813: a0 = u64 [s1 + 0x1b8]\n 42817: ra = 1616, jump @28\n      : @1525 [@dyn 808] (gas: 5)\n 42824: i32 a1 = a0 + 0\n 42826: a0 = 0x1\n 42829: a2 = 0x64\n 42832: ecalli 13 // 'seal_return'\n 42834: fallthrough\n      : @1526 (gas: 3)\n 42835: a0 = s1 + 0x2440\n 42839: a1 = 0x40\n 42842: ra = 1618, jump @17\n      : @1527 [@dyn 809] (gas: 14)\n 42849: a0 = s1 + 0x2138\n 42853: a2 = a0 + 0x300\n 42857: a1 = u64 [a2 + 0x20]\n 42860: u64 [s1 + 0x1b0] = a1\n 42864: a1 = u64 [a2 + 0x18]\n 42867: u64 [s1 + 0x1a8] = a1\n 42871: a1 = u64 [a2 + 0x10]\n 42874: u64 [s1 + 0x1a0] = a1\n 42878: a0 = u64 [a2 + 0x8]\n 42881: u64 [s1 + 0x1b8] = a0\n 42885: ra = 0x654\n 42889: ecalli 12 // 'return_data_size'\n 42891: t0 = 0x656\n 42895: jump @1976\n      : @1528 [@dyn 810] (gas: 1)\n 42898: t0 = 1622, jump @1976\n      : @1529 [@dyn 811] (gas: 1)\n 42904: jump @1603 if a1 != 0\n      : @1530 (gas: 2)\n 42908: a1 = a0 >> 0x20\n 42911: jump @1603 if a1 != 0\n      : @1531 (gas: 1)\n 42915: t0 = 1624, jump @2020\n      : @1532 [@dyn 812] (gas: 1)\n 42921: ra = 1626, jump @28\n      : @1533 [@dyn 813] (gas: 11)\n 42928: a1 = s1 + 0x4938\n 42932: a2 = u64 [s1 + 0x1a8]\n 42936: u32 [a1 + 0x768] = a2\n 42940: i32 a0 = a0 + 0\n 42942: a1 = s1 + 0x5000\n 42946: i32 a1 = a1 + 0xa0\n 42950: a2 = 0\n 42952: ecalli 11 // 'return_data_copy'\n 42954: a0 = s1 + 0x4938\n 42958: a0 = i32 [a0 + 0x768]\n 42962: jump @1407\n      : @1534 (gas: 1)\n 42965: t0 = 1628, jump @2016\n      : @1535 [@dyn 814] (gas: 3)\n 42971: a0 = s1 + 0x23c0\n 42975: a1 = u64 [s1 + 0x118]\n 42979: ra = 1630, jump @17\n      : @1536 [@dyn 815] (gas: 35)\n 42986: a4 = s1 + 0x2138\n 42990: a5 = a4 + 0x200\n 42994: a0 = u64 [a5 + 0x90]\n 42998: a1 = u64 [a5 + 0xa0]\n 43002: a2 = u64 [a5 + 0x88]\n 43006: a3 = u64 [a5 + 0x98]\n 43010: t1 = a4\n 43012: a5 = u64 [s1 + 0x1b0]\n 43016: a4 = a5 ^ a0\n 43019: a0 = a5 <u a0\n 43022: a5 = u64 [s1 + 0x1b8]\n 43026: a2 = a5 <u a2\n 43029: a2 = a0 if a4 != 0\n 43032: a0 = u64 [s1 + 0x1a0]\n 43036: t0 = a0 <u a3\n 43039: a5 = u64 [s1 + 0x1a8]\n 43043: a4 = a5 ^ a1\n 43046: a1 = a5 <u a1\n 43049: a1 = t0 if a4 == 0\n 43052: a0 = a0 ^ a3\n 43055: a0 = a0 | a4\n 43058: a1 = a2 if a0 == 0\n 43061: u64 [s1 + 0x188] = a1\n 43065: a0 = u64 [s1 + 0x120]\n 43069: a2 = t1 + 0x200\n 43073: u64 [a2 + 0x80] = a0\n 43077: a0 = u64 [s1 + 0x128]\n 43081: u64 [a2 + 0x78] = a0\n 43084: a0 = u64 [s1 + 0x130]\n 43088: u64 [a2 + 0x70] = a0\n 43091: a1 = s1 + 0x23a0\n 43095: a0 = u64 [s1 + 0x138]\n 43099: u64 [a2 + 0x68] = a0\n 43102: a0 = 0\n 43104: ra = 1632, jump @19\n      : @1537 [@dyn 816] (gas: 9)\n 43111: a0 = s1 + 0x2138\n 43115: u64 [a0 + 608] = 0\n 43119: u64 [a0 + 600] = 0\n 43123: u64 [a0 + 592] = 0\n 43127: a2 = a0\n 43129: a0 = 0x20\n 43132: a1 = s1 + 0x2380\n 43136: u64 [a2 + 584] = 0\n 43140: ra = 1634, jump @19\n      : @1538 [@dyn 817] (gas: 2)\n 43147: a0 = u64 [s1 + 0x188]\n 43151: jump @1550 if a0 == 0\n      : @1539 (gas: 3)\n 43155: a1 = u64 [s1 + 0x190]\n 43159: a0 = i32 [a1]\n 43161: jump @1541 if a0 >u 63\n      : @1540 (gas: 2)\n 43165: u32 [a1 + 0] = 0x40\n 43168: fallthrough\n      : @1541 (gas: 4)\n 43169: a0 = sp + 0xffffffffffffffe0\n 43172: a0 = a0 & 0xffffffffffffffe0\n 43175: u64 [s1 + 0x188] = a0\n 43179: t0 = 1636, jump @1962\n      : @1542 [@dyn 818] (gas: 32)\n 43185: ecalli 8 // 'hash_keccak_256'\n 43187: a5 = s1 + 0x100\n 43191: a1 = u64 [a5 + 0x88]\n 43195: a0 = u64 [a1 + 0x18]\n 43198: u64 [a5 + 0x80] = a0\n 43202: a0 = u64 [a1 + 0x10]\n 43205: u64 [a5 + 0x78] = a0\n 43208: a0 = u64 [a1 + 0x8]\n 43211: u64 [a5 + 0x70] = a0\n 43214: a0 = u64 [a1]\n 43216: u64 [a5 + 0x88] = a0\n 43220: a4 = s1 + 0x1938\n 43224: a0 = u64 [a5 + 0xa8]\n 43228: u64 [a4 + 0x6a0] = a0\n 43232: a0 = u64 [a5 + 0xa0]\n 43236: u64 [a4 + 0x698] = a0\n 43240: a0 = u64 [a5 + 0xb0]\n 43244: u64 [a4 + 0x690] = a0\n 43248: a0 = u64 [a5 + 0xb8]\n 43252: u64 [a4 + 0x688] = a0\n 43256: a0 = u64 [a5]\n 43258: u64 [a4 + 0x6c0] = a0\n 43262: a0 = u64 [a5 + 0x8]\n 43265: u64 [a4 + 0x6b8] = a0\n 43269: a0 = u64 [a5 + 0x10]\n 43272: u64 [a4 + 0x6b0] = a0\n 43276: a0 = s1 + 0x2000\n 43280: a1 = s1 + 0x1fe0\n 43284: a2 = s1 + 0x1fc0\n 43288: a3 = u64 [a5 + 0x18]\n 43291: u64 [a4 + 0x6a8] = a3\n 43295: ra = 1638, jump @1858\n      : @1543 [@dyn 819] (gas: 7)\n 43301: a1 = s1 + 0x1938\n 43305: a4 = a1 + 0x600\n 43309: a0 = u64 [a4 + 0xe0]\n 43313: a2 = u64 [a4 + 0xd8]\n 43317: a3 = u64 [a4 + 0xd0]\n 43321: a1 = u64 [a4 + 0xc8]\n 43325: t0 = 1640, jump @1991\n      : @1544 [@dyn 820] (gas: 1)\n 43331: jump @1603 if a0 != 0\n      : @1545 (gas: 22)\n 43335: a0 = u64 [s1 + 0x188]\n 43339: a0 = reverse a0\n 43341: a2 = u64 [s1 + 0x170]\n 43345: a2 = reverse a2\n 43347: a3 = u64 [s1 + 0x178]\n 43351: a3 = reverse a3\n 43353: a4 = u64 [s1 + 0x180]\n 43357: a4 = reverse a4\n 43359: a5 = a4 + 0x5\n 43362: u64 [s1 + 0x180] = a5\n 43366: a4 = a5 <u a4\n 43369: a5 = a3 + a4\n 43372: u64 [s1 + 0x178] = a5\n 43376: a3 = a5 <u a3\n 43379: a3 = a4 if a4 == 0\n 43382: a3 = a3 + a2\n 43385: u64 [s1 + 0x170] = a3\n 43389: a2 = a3 <u a2\n 43392: a0 = a0 + a2\n 43395: u64 [s1 + 0x188] = a0\n 43399: a0 = s1 + 0x1fa0\n 43403: ra = 1642, jump @17\n      : @1546 [@dyn 821] (gas: 23)\n 43410: a4 = s1 + 0x1938\n 43414: a5 = a4 + 0x600\n 43418: a0 = u64 [a5 + 0x68]\n 43421: a1 = u64 [a5 + 0x70]\n 43424: a2 = u64 [a5 + 0x78]\n 43427: a3 = u64 [a5 + 0x80]\n 43431: u64 [a5] = a3\n 43433: a3 = a4 + 0x500\n 43437: u64 [a3 + 0xf8] = a2\n 43441: u64 [a3 + 0xf0] = a1\n 43445: u64 [a3 + 0xe8] = a0\n 43449: a0 = u64 [s1 + 0x180]\n 43453: u64 [a5 + 0x8] = a0\n 43456: a0 = u64 [s1 + 0x178]\n 43460: u64 [a5 + 0x10] = a0\n 43463: a0 = u64 [s1 + 0x170]\n 43467: u64 [a5 + 0x18] = a0\n 43470: a0 = s1 + 0x1f60\n 43474: a1 = s1 + 0x1f40\n 43478: a2 = s1 + 0x1f20\n 43482: a3 = u64 [s1 + 0x188]\n 43486: u64 [a5 + 0x20] = a3\n 43489: ra = 1644, jump @1847\n      : @1547 [@dyn 822] (gas: 25)\n 43495: a0 = s1 + 0x1938\n 43499: t0 = u64 [a0 + 0x640]\n 43503: a4 = a0 + 0x600\n 43507: a1 = u64 [a4 + 0x38]\n 43510: a2 = u64 [a4 + 0x30]\n 43513: a3 = u64 [a4 + 0x28]\n 43516: a4 = sp + 0xffffffffffffffe0\n 43519: a0 = a4 & 0xffffffffffffffe0\n 43522: sp = a0\n 43524: a4 = a3 + 0x3\n 43527: a3 = a4 <u a3\n 43530: a5 = a2 + a3\n 43533: a2 = a5 <u a2\n 43536: a2 = a3 if a3 == 0\n 43539: a2 = a2 + a1\n 43542: a1 = a2 <u a1\n 43545: t0 = t0 + a1\n 43548: a1 = a0\n 43550: u64 [s1 + 0x188] = a0\n 43554: u64 [a0 + 0x10] = a2\n 43557: u64 [a0 + 0x8] = a5\n 43560: u64 [a0] = a4\n 43562: u64 [a0 + 0x18] = t0\n 43565: a0 = s1 + 0x1f00\n 43569: ra = 1646, jump @21\n      : @1548 [@dyn 823] (gas: 17)\n 43576: a3 = s1 + 0x1938\n 43580: a4 = a3 + 0x500\n 43584: a0 = u64 [a4 + 0xc8]\n 43588: a1 = u64 [a4 + 0xd0]\n 43592: a2 = u64 [a4 + 0xe0]\n 43596: a3 = u64 [a4 + 0xd8]\n 43600: a0 = a0 & 0xffffffffffffff00\n 43604: a0 = a0 | 0x1\n 43607: a4 = s1 + 0x4938\n 43611: a5 = a4 + 0x700\n 43615: u64 [a5 + 0xa0] = a2\n 43619: u64 [a5 + 0x98] = a3\n 43623: u64 [a5 + 0x90] = a1\n 43627: u64 [a5 + 0x88] = a0\n 43631: a1 = s1 + 0x50c0\n 43635: a0 = u64 [s1 + 0x188]\n 43639: ra = 1648, jump @23\n      : @1549 [@dyn 824] (gas: 18)\n 43646: a3 = s1 + 0x100\n 43650: a1 = u64 [a3 + 0xb8]\n 43654: a1 = a1 + 0x1\n 43657: a0 = a1 <u 0x1\n 43660: a2 = u64 [a3 + 0xb0]\n 43664: a2 = a2 + a0\n 43667: u64 [a3 + 0xb8] = a1\n 43671: u64 [a3 + 0xb0] = a2\n 43675: a0 = a1 | a2\n 43678: a0 = a0 <u 0x1\n 43681: a1 = u64 [a3 + 0xa0]\n 43685: a0 = a0 + a1\n 43688: a1 = a0 <u a1\n 43691: a2 = u64 [a3 + 0xa8]\n 43695: a2 = a2 + a1\n 43698: u64 [a3 + 0xa8] = a2\n 43702: u64 [a3 + 0xa0] = a0\n 43706: jump @1535\n      : @1550 (gas: 1)\n 43709: t0 = 1650, jump @2023\n      : @1551 [@dyn 825] (gas: 1)\n 43715: jump @1553 if a1 <u a0\n      : @1552 (gas: 3)\n 43718: a1 = u64 [s1 + 0x190]\n 43722: u32 [a1 + 0] = 0x40\n 43725: fallthrough\n      : @1553 (gas: 4)\n 43726: a0 = sp + 0xffffffffffffffe0\n 43729: a0 = a0 & 0xffffffffffffffe0\n 43732: u64 [s1 + 0x1b0] = a0\n 43736: t0 = 1652, jump @1962\n      : @1554 [@dyn 826] (gas: 4)\n 43742: ra = 0x676\n 43746: ecalli 8 // 'hash_keccak_256'\n 43748: t0 = 0x678\n 43752: jump @1957\n      : @1555 [@dyn 827] (gas: 1)\n 43755: t0 = 1656, jump @1957\n      : @1556 [@dyn 828] (gas: 15)\n 43761: a4 = a3 + 0x6\n 43764: a3 = a4 <u a3\n 43767: a5 = a2 + a3\n 43770: a2 = a5 <u a2\n 43773: a2 = a3 if a3 == 0\n 43776: a2 = a2 + a1\n 43779: a1 = a2 <u a1\n 43782: a0 = a0 + a1\n 43785: a1 = u64 [s1 + 0x1b8]\n 43789: u64 [a1] = a4\n 43791: u64 [a1 + 0x8] = a5\n 43794: u64 [a1 + 0x10] = a2\n 43797: u64 [a1 + 0x18] = a0\n 43800: a0 = s1 + 0x2360\n 43804: ra = 1658, jump @21\n      : @1557 [@dyn 829] (gas: 22)\n 43811: a5 = s1 + 0x2138\n 43815: a3 = u64 [a5 + 0x228]\n 43819: a0 = u64 [a5 + 0x230]\n 43823: a1 = u64 [a5 + 0x238]\n 43827: a2 = u64 [a5 + 0x240]\n 43831: a4 = u64 [s1 + 0xf8]\n 43835: u64 [a5 + 0x1e0] = a4\n 43839: a4 = u64 [s1 + 0xf0]\n 43843: u64 [a5 + 0x1d8] = a4\n 43847: a4 = u64 [s1 + 0xe8]\n 43851: u64 [a5 + 0x1d0] = a4\n 43855: a4 = u64 [s1 + 0xe0]\n 43859: u64 [a5 + 0x1c8] = a4\n 43863: u64 [a5 + 0x200] = a2\n 43867: a4 = a5 + 0x100\n 43871: u64 [a4 + 0xf8] = a1\n 43875: u64 [a4 + 0xf0] = a0\n 43879: a0 = s1 + 0x2340\n 43883: a1 = s1 + 0x2320\n 43887: a2 = s1 + 0x2300\n 43891: u64 [a4 + 0xe8] = a3\n 43895: ra = 1660, jump @1926\n      : @1558 [@dyn 830] (gas: 15)\n 43901: a3 = s1 + 0x2138\n 43905: a4 = a3 + 0x200\n 43909: a0 = u64 [a4 + 0x20]\n 43912: a1 = u64 [a4 + 0x18]\n 43915: a2 = u64 [a4 + 0x10]\n 43918: a3 = u64 [a4 + 0x8]\n 43921: a4 = s1 + 0x4938\n 43925: a5 = a4 + 0x700\n 43929: u64 [a5 + 0xc0] = a0\n 43933: u64 [a5 + 0xb8] = a1\n 43937: u64 [a5 + 0xb0] = a2\n 43941: u64 [a5 + 0xa8] = a3\n 43945: a1 = s1 + 0x50e0\n 43949: a0 = u64 [s1 + 0x1b8]\n 43953: ra = 1662, jump @23\n      : @1559 [@dyn 831] (gas: 3)\n 43960: a0 = 0x2138\n 43964: a3 = s1 + a0\n 43967: t0 = 1664, jump @2016\n      : @1560 [@dyn 832] (gas: 12)\n 43973: a0 = u64 [s1 + 0x138]\n 43977: a2 = a3 + 0x100\n 43981: u64 [a2 + 0xa8] = a0\n 43985: a0 = u64 [s1 + 0x130]\n 43989: u64 [a2 + 0xb0] = a0\n 43993: a0 = u64 [s1 + 0x128]\n 43997: u64 [a2 + 0xb8] = a0\n 44001: a1 = s1 + 0x22e0\n 44005: a0 = u64 [s1 + 0x120]\n 44009: u64 [a2 + 0xc0] = a0\n 44013: a0 = 0\n 44015: ra = 1666, jump @19\n      : @1561 [@dyn 833] (gas: 9)\n 44022: a0 = s1 + 0x2138\n 44026: u64 [a0 + 416] = 0\n 44030: u64 [a0 + 408] = 0\n 44034: u64 [a0 + 400] = 0\n 44038: a2 = a0\n 44040: a0 = 0x20\n 44043: a1 = s1 + 0x22c0\n 44047: u64 [a2 + 392] = 0\n 44051: ra = 1668, jump @19\n      : @1562 [@dyn 834] (gas: 3)\n 44058: a1 = u64 [s1 + 0x190]\n 44062: a0 = i32 [a1]\n 44064: jump @1564 if a0 >u 63\n      : @1563 (gas: 2)\n 44068: u32 [a1 + 0] = 0x40\n 44071: fallthrough\n      : @1564 (gas: 4)\n 44072: a0 = sp + 0xffffffffffffffe0\n 44075: a0 = a0 & 0xffffffffffffffe0\n 44078: u64 [s1 + 0x188] = a0\n 44082: t0 = 1670, jump @1962\n      : @1565 [@dyn 835] (gas: 4)\n 44088: ra = 0x688\n 44092: ecalli 8 // 'hash_keccak_256'\n 44094: t0 = 0x68a\n 44098: jump @1967\n      : @1566 [@dyn 836] (gas: 1)\n 44101: t0 = 1674, jump @1967\n      : @1567 [@dyn 837] (gas: 10)\n 44107: a0 = a0 + a1\n 44110: a1 = s1 + 0x4938\n 44114: a3 = a1 + 0x700\n 44118: u64 [a3 + 0xc8] = a4\n 44122: u64 [a3 + 0xd0] = a5\n 44126: u64 [a3 + 0xd8] = a2\n 44130: u64 [a3 + 0xe0] = a0\n 44134: a0 = s1 + 0x22a0\n 44138: a1 = s1 + 0x5100\n 44142: ra = 1676, jump @21\n      : @1568 [@dyn 838] (gas: 35)\n 44149: a4 = s1 + 0x2138\n 44153: a5 = a4 + 0x100\n 44157: a0 = u64 [a5 + 0x70]\n 44160: a1 = u64 [a5 + 0x68]\n 44163: a2 = u64 [a5 + 0x78]\n 44166: a3 = u64 [a5 + 0x80]\n 44170: t0 = a4\n 44172: a5 = u64 [s1 + 0x1b0]\n 44176: a4 = a5 ^ a0\n 44179: a0 = a5 <u a0\n 44182: a5 = u64 [s1 + 0x1b8]\n 44186: a5 = a5 <u a1\n 44189: a5 = a0 if a4 != 0\n 44192: a1 = u64 [s1 + 0x1a8]\n 44196: a0 = a1 ^ a3\n 44199: a1 = a1 <u a3\n 44202: a4 = u64 [s1 + 0x1a0]\n 44206: a3 = a4 <u a2\n 44209: a3 = a1 if a0 != 0\n 44212: a1 = a4 ^ a2\n 44215: a0 = a0 | a1\n 44218: a5 = a3 if a0 != 0\n 44221: u64 [s1 + 0x188] = a5\n 44225: a0 = u64 [s1 + 0x120]\n 44229: a2 = t0 + 0x100\n 44233: u64 [a2 + 0x60] = a0\n 44236: a0 = u64 [s1 + 0x128]\n 44240: u64 [a2 + 0x58] = a0\n 44243: a0 = u64 [s1 + 0x130]\n 44247: u64 [a2 + 0x50] = a0\n 44250: a1 = s1 + 0x2280\n 44254: a0 = u64 [s1 + 0x138]\n 44258: u64 [a2 + 0x48] = a0\n 44261: a0 = 0\n 44263: ra = 1678, jump @19\n      : @1569 [@dyn 839] (gas: 9)\n 44270: a0 = s1 + 0x2138\n 44274: u64 [a0 + 320] = 0\n 44278: u64 [a0 + 312] = 0\n 44282: u64 [a0 + 304] = 0\n 44286: a2 = a0\n 44288: a0 = 0x20\n 44291: a1 = s1 + 0x2260\n 44295: u64 [a2 + 296] = 0\n 44299: ra = 1680, jump @19\n      : @1570 [@dyn 840] (gas: 2)\n 44306: a0 = u64 [s1 + 0x188]\n 44310: jump @1581 if a0 == 0\n      : @1571 (gas: 3)\n 44314: a1 = u64 [s1 + 0x190]\n 44318: a0 = i32 [a1]\n 44320: jump @1573 if a0 >u 63\n      : @1572 (gas: 2)\n 44324: u32 [a1 + 0] = 0x40\n 44327: fallthrough\n      : @1573 (gas: 4)\n 44328: a0 = sp + 0xffffffffffffffe0\n 44331: a0 = a0 & 0xffffffffffffffe0\n 44334: u64 [s1 + 0x188] = a0\n 44338: t0 = 1682, jump @1962\n      : @1574 [@dyn 841] (gas: 4)\n 44344: ra = 0x694\n 44348: ecalli 8 // 'hash_keccak_256'\n 44350: t0 = 0x696\n 44354: jump @1967\n      : @1575 [@dyn 842] (gas: 1)\n 44357: t0 = 1686, jump @1967\n      : @1576 [@dyn 843] (gas: 19)\n 44363: a3 = a0 + a1\n 44366: a1 = s1 + 0x2138\n 44370: a0 = u64 [s1 + 0x1a8]\n 44374: u64 [a1 + 0xa0] = a0\n 44378: a0 = u64 [s1 + 0x1a0]\n 44382: u64 [a1 + 0x98] = a0\n 44386: a0 = u64 [s1 + 0x1b0]\n 44390: u64 [a1 + 0x90] = a0\n 44394: a0 = u64 [s1 + 0x1b8]\n 44398: u64 [a1 + 0x88] = a0\n 44402: u64 [a1 + 0xa8] = a4\n 44406: u64 [a1 + 0xb0] = a5\n 44410: u64 [a1 + 0xb8] = a2\n 44414: a4 = a1\n 44416: a0 = s1 + 0x2200\n 44420: a1 = s1 + 0x21e0\n 44424: a2 = s1 + 0x21c0\n 44428: u64 [a4 + 0xc0] = a3\n 44432: ra = 1688, jump @1847\n      : @1577 [@dyn 844] (gas: 6)\n 44438: a3 = s1 + 0x2138\n 44442: a0 = u64 [a3 + 0xc8]\n 44446: a1 = u64 [a3 + 0xe0]\n 44450: a2 = u64 [a3 + 0xd0]\n 44454: a3 = u64 [a3 + 0xd8]\n 44458: t0 = 1690, jump @1985\n      : @1578 [@dyn 845] (gas: 9)\n 44464: a3 = a1 + 0x700\n 44468: u64 [a3 + 0xe8] = a4\n 44472: u64 [a3 + 0xf0] = a5\n 44476: u64 [a3 + 0xf8] = a2\n 44480: a1 = s1 + 0x5138\n 44484: u64 [a1] = a0\n 44486: a0 = s1 + 0x21a0\n 44490: a1 = s1 + 0x5120\n 44494: ra = 1692, jump @21\n      : @1579 [@dyn 846] (gas: 20)\n 44501: a3 = s1 + 0x2138\n 44505: a0 = u8 [a3 + 0x68]\n 44508: a5 = s1 + 0x100\n 44512: a4 = u64 [a5 + 0xb8]\n 44516: a4 = a4 + 0x1\n 44519: a1 = a4 <u 0x1\n 44522: a2 = u64 [a5 + 0xb0]\n 44526: a2 = a2 + a1\n 44529: u64 [a5 + 0xb8] = a4\n 44533: u64 [a5 + 0xb0] = a2\n 44537: a1 = a4 | a2\n 44540: a1 = a1 <u 0x1\n 44543: a2 = u64 [a5 + 0xa0]\n 44547: a1 = a1 + a2\n 44550: a2 = a1 <u a2\n 44553: a4 = u64 [a5 + 0xa8]\n 44557: a4 = a4 + a2\n 44560: u64 [a5 + 0xa8] = a4\n 44564: u64 [a5 + 0xa0] = a1\n 44568: jump @1560 if a0 != 0\n      : @1580 (gas: 1)\n 44572: jump @1589\n      : @1581 (gas: 1)\n 44574: t0 = 1694, jump @2023\n      : @1582 [@dyn 847] (gas: 1)\n 44580: jump @1584 if a1 <u a0\n      : @1583 (gas: 3)\n 44583: a1 = u64 [s1 + 0x190]\n 44587: u32 [a1 + 0] = 0x40\n 44590: fallthrough\n      : @1584 (gas: 4)\n 44591: a0 = sp + 0xffffffffffffffe0\n 44594: a0 = a0 & 0xffffffffffffffe0\n 44597: u64 [s1 + 0x1b0] = a0\n 44601: t0 = 1696, jump @1962\n      : @1585 [@dyn 848] (gas: 4)\n 44607: ra = 0x6a2\n 44611: ecalli 8 // 'hash_keccak_256'\n 44613: t0 = 0x6a4\n 44617: jump @1958\n      : @1586 [@dyn 849] (gas: 1)\n 44620: t0 = 1700, jump @1958\n      : @1587 [@dyn 850] (gas: 2)\n 44626: a0 = s1 + 0x2240\n 44630: ra = 1702, jump @21\n      : @1588 [@dyn 851] (gas: 16)\n 44637: a3 = s1 + 0x2138\n 44641: a4 = a3 + 0x100\n 44645: a0 = u64 [a4 + 0x10]\n 44648: a1 = u64 [a4 + 0x18]\n 44651: a2 = u64 [a4 + 0x8]\n 44654: a3 = u64 [a4 + 0x20]\n 44657: a2 = a2 & 0xffffffffffff00ff\n 44662: a2 = a2 | 0x100\n 44666: a4 = s1 + 0x5138\n 44670: u64 [a4 + 0x20] = a3\n 44673: u64 [a4 + 0x18] = a1\n 44676: u64 [a4 + 0x10] = a0\n 44679: u64 [a4 + 0x8] = a2\n 44682: a1 = s1 + 0x5140\n 44686: a0 = u64 [s1 + 0x1b8]\n 44690: ra = 1704, jump @23\n      : @1589 [@dyn 852] (gas: 3)\n 44697: a0 = s1 + 0x2180\n 44701: a1 = 0x40\n 44704: ra = 1706, jump @17\n      : @1590 [@dyn 853] (gas: 6)\n 44711: a1 = s1 + 0x2138\n 44715: a2 = u64 [a1 + 0x60]\n 44718: a3 = u64 [a1 + 0x58]\n 44721: a0 = u64 [a1 + 0x50]\n 44724: a1 = u64 [a1 + 0x48]\n 44727: t0 = 1708, jump @2008\n      : @1591 [@dyn 854] (gas: 1)\n 44733: jump @1603 if a0 != 0\n      : @1592 (gas: 8)\n 44737: a0 = s1 + 0x2138\n 44741: u64 [a0 + 64] = 0\n 44744: u64 [a0 + 56] = 0\n 44747: u64 [a0 + 48] = 0\n 44750: a1 = s1 + 0x2160\n 44754: u64 [a0 + 40] = 0x40\n 44758: a0 = u64 [s1 + 0x1b8]\n 44762: ra = 1710, jump @19\n      : @1593 [@dyn 855] (gas: 5)\n 44769: a1 = u64 [s1 + 0x1b8]\n 44773: a0 = a1 + 0x40\n 44776: a1 = a0 <u a1\n 44779: a3 = u64 [s1 + 0x1b0]\n 44783: t0 = 1712, jump @1970\n      : @1594 [@dyn 856] (gas: 19)\n 44789: a5 = s1 + 0x1938\n 44793: u64 [a5 + 0x7d0] = a2\n 44797: u64 [a5 + 0x7c8] = a0\n 44801: a0 = u64 [s1 + 0x100]\n 44805: a1 = s1 + 0x2138\n 44809: u64 [a1] = a0\n 44811: a0 = u64 [s1 + 0x108]\n 44815: a2 = a1 + 0xffffffffffffff00\n 44819: u64 [a2 + 0xf8] = a0\n 44823: a0 = u64 [s1 + 0x110]\n 44827: u64 [a2 + 0xf0] = a0\n 44831: a0 = u64 [s1 + 0x118]\n 44835: u64 [a2 + 0xe8] = a0\n 44839: u64 [a5 + 0x7d8] = a3\n 44843: a0 = s1 + 0x2140\n 44847: a1 = s1 + 0x2120\n 44851: a2 = s1 + 0x2100\n 44855: u64 [a5 + 0x7e0] = a4\n 44859: ra = 1714, jump @1736\n      : @1595 [@dyn 857] (gas: 11)\n 44865: a3 = s1 + 0x100\n 44869: a0 = u64 [a3 + 0xa0]\n 44873: a1 = u64 [a3 + 0xa8]\n 44877: a0 = a0 | a1\n 44880: a1 = 0xffffffe0\n 44890: a2 = u64 [a3 + 0xb8]\n 44894: a1 = a2 <u a1\n 44897: a2 = u64 [a3 + 0xb0]\n 44901: a1 = 0 if a2 != 0\n 44903: a1 = 0 if a0 != 0\n 44905: jump @1603 if a1 == 0\n      : @1596 (gas: 14)\n 44909: a0 = s1 + 0x2138\n 44913: a1 = u64 [a0 + 0x20]\n 44916: u64 [s1 + 0x190] = a1\n 44920: a1 = u64 [a0 + 0x18]\n 44923: u64 [s1 + 0x188] = a1\n 44927: a1 = u64 [a0 + 0x10]\n 44930: u64 [s1 + 0x180] = a1\n 44934: a0 = u64 [a0 + 0x8]\n 44937: u64 [s1 + 0x178] = a0\n 44941: a0 = u64 [s1 + 0x1b8]\n 44945: i32 a0 = a0 + 0x20\n 44948: t0 = 0x6b4\n 44952: a2 = s1 + 0x1938\n 44956: fallthrough\n      : @1597 [@dyn 858] (gas: 11)\n 44957: a1 = u64 [s1 + 0xe0]\n 44961: a4 = a2 + 0x700\n 44965: u64 [a4 + 0xa8] = a1\n 44969: a1 = u64 [s1 + 0xe8]\n 44973: u64 [a4 + 0xb0] = a1\n 44977: a1 = u64 [s1 + 0xf0]\n 44981: u64 [a4 + 0xb8] = a1\n 44985: a1 = s1 + 0x20e0\n 44989: a3 = u64 [s1 + 0xf8]\n 44993: u64 [a4 + 0xc0] = a3\n 44997: ra = 1718, jump @19\n      : @1598 [@dyn 859] (gas: 31)\n 45004: t0 = u64 [s1 + 0x178]\n 45008: t2 = u64 [s1 + 0x1b8]\n 45012: a0 = t0 <u t2\n 45015: a5 = u64 [s1 + 0x1b0]\n 45019: a3 = u64 [s1 + 0x180]\n 45023: a1 = a3 ^ a5\n 45026: a2 = a3 <u a5\n 45029: t1 = a3\n 45031: a2 = a0 if a1 == 0\n 45034: a3 = u64 [s1 + 0x1a0]\n 45038: a4 = u64 [s1 + 0x188]\n 45042: a1 = a4 - a3\n 45045: ra = a4 <u a3\n 45048: a4 = u64 [s1 + 0x1a8]\n 45052: a3 = u64 [s1 + 0x190]\n 45056: a4 = a3 - a4\n 45059: a4 = a4 - ra\n 45062: a3 = a1 <u a2\n 45065: a4 = a4 - a3\n 45068: a2 = a1 - a2\n 45071: a1 = t1 - a5\n 45074: a0 = a1 - a0\n 45077: a1 = t0 - t2\n 45080: a0 = a0 | a4\n 45083: a3 = a1 | a2\n 45086: a3 = a3 | a0\n 45089: a0 = a0 | a2\n 45092: a3 = a3 >> 0x20\n 45095: a0 = a0 << 0x20\n 45098: a0 = a0 | a3\n 45101: jump @1603 if a0 != 0\n      : @1599 (gas: 23)\n 45105: a0 = u64 [0x200a0]\n 45110: a2 = u64 [0x200a8]\n 45115: a4 = s1 + 0x1938\n 45119: a5 = a4 + 0x700\n 45123: u64 [a5 + 0xa0] = a0\n 45127: u64 [a5 + 0x98] = a2\n 45131: a0 = u64 [0x200b0]\n 45136: a2 = u64 [0x200b8]\n 45141: a4 = s1 + 0x100\n 45145: a3 = u64 [a4 + 0x38]\n 45148: u64 [a5 + 0x68] = a3\n 45151: a3 = u64 [a4 + 0x30]\n 45154: u64 [a5 + 0x70] = a3\n 45157: u64 [a5 + 0x90] = a0\n 45161: u64 [a5 + 0x88] = a2\n 45165: a0 = u64 [a4 + 0x28]\n 45168: u64 [a5 + 0x78] = a0\n 45171: a2 = s1 + 0x20c0\n 45175: a3 = s1 + 0x20a0\n 45179: a0 = u64 [a4 + 0x20]\n 45182: u64 [a5 + 0x80] = a0\n 45186: a0 = u64 [a4 + 0xb8]\n 45190: ra = 1720, jump @24\n      : @1600 [@dyn 860] (gas: 3)\n 45197: a0 = s1 + 0x2080\n 45201: a1 = 0x40\n 45204: ra = 1722, jump @17\n      : @1601 [@dyn 861] (gas: 7)\n 45211: a3 = s1 + 0x1938\n 45215: a5 = a3 + 0x700\n 45219: a0 = u64 [a5 + 0x60]\n 45222: a1 = u64 [a5 + 0x58]\n 45225: a2 = u64 [a5 + 0x50]\n 45228: a4 = u64 [a5 + 0x48]\n 45231: t0 = 1724, jump @2019\n      : @1602 [@dyn 862] (gas: 1)\n 45237: jump @1696 if a0 == 0\n      : @1603 (gas: 1)\n 45241: trap\n      : @1604 (gas: 4)\n 45242: a1 = 0x20200\n 45247: i32 a1 = a1 + 0\n 45249: a0 = 0x1\n 45252: jump @1606\n      : @1605 (gas: 6)\n 45254: i32 a1 = a1 + 0\n 45256: a0 = 0x1\n 45259: a2 = 0\n 45261: ecalli 13 // 'seal_return'\n 45263: a1 = 0x20200\n 45268: jump @1605\n      : @1606 (gas: 4)\n 45270: a2 = 0\n 45272: ecalli 13 // 'seal_return'\n 45274: a1 = 0x20200\n 45279: jump @1605\n      : @1607 (gas: 2)\n 45281: a1 = 0x20200\n 45286: jump @1605\n      : @1608 (gas: 2)\n 45288: a1 = 0x20200\n 45293: jump @1605\n      : @1609 (gas: 3)\n 45295: a0 = u64 [s1 + 0x198]\n 45299: a1 = 0x1000\n 45303: t0 = 1726, jump @2040\n      : @1610 [@dyn 863] (gas: 10)\n 45309: u64 [a3 + 0xa8] = a0\n 45313: a0 = u64 [s1 + 0x190]\n 45317: u64 [a3 + 0xb0] = a0\n 45321: a0 = u64 [s1 + 0x188]\n 45325: u64 [a3 + 0xb8] = a0\n 45329: a1 = s1 + 0x16e0\n 45333: a0 = u64 [s1 + 0x180]\n 45337: u64 [a3 + 0xc0] = a0\n 45341: a0 = 0\n 45343: ra = 1728, jump @19\n      : @1611 [@dyn 864] (gas: 9)\n 45350: a0 = s1 + 0x1138\n 45354: u64 [a0 + 1440] = 0\n 45358: u64 [a0 + 1432] = 0\n 45362: u64 [a0 + 1424] = 0\n 45366: a2 = a0\n 45368: a0 = 0x20\n 45371: a1 = s1 + 0x16c0\n 45375: u64 [a2 + 1416] = 0\n 45379: ra = 1730, jump @19\n      : @1612 [@dyn 865] (gas: 7)\n 45386: a0 = sp + 0xffffffffffffffe0\n 45389: a0 = a0 & 0xffffffffffffffe0\n 45392: u64 [s1 + 0x1b8] = a0\n 45396: sp = a0\n 45398: a0 = u64 [s1 + 0x170]\n 45402: a0 = i32 [a0]\n 45404: jump @1614 if a0 >u 63\n      : @1613 (gas: 4)\n 45408: a1 = u64 [s1 + 0x170]\n 45412: u32 [a1 + 0] = 0x40\n 45415: t0 = 0x6c4\n 45419: jump @1992\n      : @1614 (gas: 1)\n 45422: t0 = 1732, jump @1992\n      : @1615 [@dyn 866] (gas: 5)\n 45428: a0 = u64 [s1 + 0x178]\n 45432: ra = 0x6c6\n 45436: ecalli 8 // 'hash_keccak_256'\n 45438: t0 = 0x6c8\n 45442: jump @1958\n      : @1616 [@dyn 867] (gas: 1)\n 45445: t0 = 1736, jump @1958\n      : @1617 [@dyn 868] (gas: 2)\n 45451: a0 = s1 + 0x16a0\n 45455: ra = 1738, jump @21\n      : @1618 [@dyn 869] (gas: 17)\n 45462: a3 = s1 + 0x1138\n 45466: a4 = a3 + 0x500\n 45470: a0 = u64 [a4 + 0x68]\n 45473: a1 = u64 [a4 + 0x70]\n 45476: a2 = u64 [a4 + 0x80]\n 45480: a3 = u64 [a4 + 0x78]\n 45483: a0 = a0 & 0xffffffffffffff00\n 45487: a0 = a0 | 0x1\n 45490: a4 = s1 + 0x4938\n 45494: a5 = a4 + 0x400\n 45498: u64 [a5 + 0x60] = a2\n 45501: u64 [a5 + 0x58] = a3\n 45504: u64 [a5 + 0x50] = a1\n 45507: u64 [a5 + 0x48] = a0\n 45510: a1 = s1 + 0x4d80\n 45514: a0 = u64 [s1 + 0x1b8]\n 45518: ra = 1740, jump @23\n      : @1619 [@dyn 870] (gas: 3)\n 45525: a0 = u64 [s1 + 0x180]\n 45529: a1 = 0x1000\n 45533: t0 = 1742, jump @2040\n      : @1620 [@dyn 871] (gas: 21)\n 45539: u64 [a3 + 0x40] = a0\n 45542: a0 = u64 [s1 + 0x188]\n 45546: u64 [a3 + 0x38] = a0\n 45549: a0 = u64 [s1 + 0x190]\n 45553: u64 [a3 + 0x30] = a0\n 45556: a0 = u64 [0x20168]\n 45561: a1 = u64 [s1 + 0x198]\n 45565: u64 [a3 + 0x28] = a1\n 45568: a1 = u64 [0x20170]\n 45573: u64 [a3 + 0x60] = a0\n 45576: a0 = u64 [0x20178]\n 45581: u64 [a3 + 0x58] = a1\n 45584: a1 = u64 [0x20180]\n 45589: u64 [a3 + 0x50] = a0\n 45592: a0 = a2\n 45594: a2 = s1 + 0x1680\n 45598: a3 = s1 + 0x1660\n 45602: u64 [a0 + 0x548] = a1\n 45606: a0 = 0\n 45608: a1 = 0\n 45610: ra = 1744, jump @24\n      : @1621 [@dyn 872] (gas: 3)\n 45617: a0 = 0\n 45619: a1 = u64 [s1 + 0x178]\n 45623: jump @1606\n      : @1622 (gas: 2)\n 45626: a1 = 0x20200\n 45631: jump @1605\n      : @1623 (gas: 2)\n 45634: a1 = 0x20200\n 45639: jump @1605\n      : @1624 (gas: 2)\n 45642: a1 = 0x20200\n 45647: jump @1605\n      : @1625 (gas: 2)\n 45650: a1 = 0x20200\n 45655: jump @1605\n      : @1626 (gas: 2)\n 45658: a1 = 0x20200\n 45663: jump @1605\n      : @1627 (gas: 2)\n 45666: a1 = 0x20200\n 45671: jump @1605\n      : @1628 (gas: 2)\n 45674: a1 = 0x20200\n 45679: jump @1605\n      : @1629 (gas: 2)\n 45682: a1 = 0x20200\n 45687: jump @1605\n      : @1630 (gas: 2)\n 45690: a1 = 0x20200\n 45695: jump @1605\n      : @1631 (gas: 2)\n 45698: a1 = 0x20200\n 45703: jump @1605\n      : @1632 (gas: 12)\n 45706: a0 = u64 [s1 + 0x188]\n 45710: a0 = a0 << 0x20\n 45713: a0 = a0 >> 0x20\n 45716: u64 [s1 + 0x1b8] = a0\n 45720: a1 = s1 + 0x5138\n 45724: u64 [a1 + 1632] = 0\n 45728: u64 [a1 + 1624] = 0\n 45732: u64 [a1 + 1616] = 0\n 45736: u64 [a1 + 1608] = 0x4\n 45741: a0 = s1 + 0x4180\n 45745: a1 = s1 + 0x5780\n 45749: ra = 1746, jump @21\n      : @1633 [@dyn 873] (gas: 22)\n 45756: a1 = s1 + 0x4138\n 45760: a0 = u32 [a1 + 0x5c]\n 45763: a0 = a0 << 0x20\n 45766: a1 = u64 [a1 + 0x60]\n 45769: a4 = s1 + 0x100\n 45773: a2 = u64 [a4 + 0xb8]\n 45777: a0 = a0 | a2\n 45780: a3 = s1 + 0x5138\n 45784: u64 [a3 + 1664] = 0\n 45788: u64 [a3 + 1656] = 0\n 45792: u64 [a3 + 1648] = 0\n 45796: a5 = a3 + 0x600\n 45800: u64 [a5 + 104] = 0x4\n 45804: a2 = u64 [a4 + 0x90]\n 45808: u64 [a5 + 0x90] = a2\n 45812: a2 = u64 [a4 + 0x98]\n 45816: u64 [a5 + 0x88] = a2\n 45820: u64 [a5 + 0xa0] = a1\n 45824: u64 [a5 + 0x98] = a0\n 45828: a0 = s1 + 0x57a0\n 45832: a1 = s1 + 0x57c0\n 45836: ra = 1748, jump @23\n      : @1634 [@dyn 874] (gas: 4)\n 45843: a1 = 0x20200\n 45848: i32 a1 = a1 + 0\n 45850: a0 = 0\n 45852: jump @1606\n      : @1635 (gas: 2)\n 45855: a1 = 0x20200\n 45860: jump @1605\n      : @1636 (gas: 2)\n 45863: a1 = 0x20200\n 45868: jump @1605\n      : @1637 (gas: 2)\n 45871: a1 = 0x20200\n 45876: jump @1605\n      : @1638 (gas: 2)\n 45879: a1 = 0x20200\n 45884: jump @1605\n      : @1639 (gas: 2)\n 45887: a1 = 0x20200\n 45892: jump @1605\n      : @1640 (gas: 2)\n 45895: a1 = 0x20200\n 45900: jump @1605\n      : @1641 (gas: 12)\n 45903: a0 = u64 [s1 + 0x188]\n 45907: a0 = a0 << 0x20\n 45910: a0 = a0 >> 0x20\n 45913: u64 [s1 + 0x1b8] = a0\n 45917: a1 = s1 + 0x4938\n 45921: u64 [a1 + 544] = 0\n 45925: u64 [a1 + 536] = 0\n 45929: u64 [a1 + 528] = 0\n 45933: u64 [a1 + 520] = 0x2\n 45938: a0 = s1 + 0x1160\n 45942: a1 = s1 + 0x4b40\n 45946: ra = 1750, jump @21\n      : @1642 [@dyn 875] (gas: 22)\n 45953: a1 = s1 + 0x1138\n 45957: a0 = u32 [a1 + 0x3c]\n 45960: a0 = a0 << 0x20\n 45963: a1 = u64 [a1 + 0x40]\n 45966: a4 = s1 + 0x100\n 45970: a2 = u64 [a4 + 0xb8]\n 45974: a0 = a0 | a2\n 45977: a3 = s1 + 0x4938\n 45981: u64 [a3 + 576] = 0\n 45985: u64 [a3 + 568] = 0\n 45989: u64 [a3 + 560] = 0\n 45993: a5 = a3 + 0x200\n 45997: u64 [a5 + 40] = 0x2\n 46001: a2 = u64 [a4 + 0x90]\n 46005: u64 [a5 + 0x50] = a2\n 46008: a2 = u64 [a4 + 0x98]\n 46012: u64 [a5 + 0x48] = a2\n 46015: u64 [a5 + 0x60] = a1\n 46018: u64 [a5 + 0x58] = a0\n 46021: a0 = s1 + 0x4b60\n 46025: a1 = s1 + 0x4b80\n 46029: ra = 1752, jump @23\n      : @1643 [@dyn 876] (gas: 4)\n 46036: a1 = 0x20200\n 46041: i32 a1 = a1 + 0\n 46043: a0 = 0\n 46045: jump @1606\n      : @1644 (gas: 2)\n 46048: a1 = 0x20200\n 46053: jump @1605\n      : @1645 (gas: 2)\n 46056: a1 = 0x20200\n 46061: jump @1605\n      : @1646 (gas: 2)\n 46064: a1 = 0x20200\n 46069: jump @1605\n      : @1647 (gas: 2)\n 46072: a1 = 0x20200\n 46077: jump @1605\n      : @1648 (gas: 2)\n 46080: a1 = 0x20200\n 46085: jump @1605\n      : @1649 (gas: 2)\n 46088: a1 = 0x20200\n 46093: jump @1605\n      : @1650 (gas: 2)\n 46096: a1 = 0x20200\n 46101: jump @1605\n      : @1651 (gas: 2)\n 46104: a1 = 0x20200\n 46109: jump @1605\n      : @1652 (gas: 2)\n 46112: a1 = 0x20200\n 46117: jump @1605\n      : @1653 (gas: 2)\n 46120: a1 = 0x20200\n 46125: jump @1605\n      : @1654 (gas: 2)\n 46128: a1 = 0x20200\n 46133: jump @1605\n      : @1655 (gas: 2)\n 46136: a1 = 0x20200\n 46141: jump @1605\n      : @1656 (gas: 2)\n 46144: a1 = 0x20200\n 46149: jump @1605\n      : @1657 (gas: 2)\n 46152: a1 = 0x20200\n 46157: jump @1605\n      : @1658 (gas: 2)\n 46160: a1 = 0x20200\n 46165: jump @1605\n      : @1659 (gas: 2)\n 46168: a1 = 0x20200\n 46173: jump @1605\n      : @1660 (gas: 2)\n 46176: a1 = 0x20200\n 46181: jump @1605\n      : @1661 (gas: 2)\n 46184: a1 = 0x20200\n 46189: jump @1605\n      : @1662 (gas: 2)\n 46192: a1 = 0x20200\n 46197: jump @1605\n      : @1663 (gas: 2)\n 46200: a1 = 0x20200\n 46205: jump @1605\n      : @1664 (gas: 2)\n 46208: a1 = 0x20200\n 46213: jump @1605\n      : @1665 (gas: 9)\n 46216: u64 [a2 + 984] = 0\n 46220: u64 [a2 + 976] = 0\n 46224: u64 [a2 + 968] = 0\n 46228: a0 = 0x4e487b7100000000\n 46238: a1 = s1 + 0x7ff\n 46242: a1 = a1 + 0x501\n 46246: u64 [a2 + 0x3e0] = a0\n 46250: a0 = 0\n 46252: ra = 1754, jump @19\n      : @1666 [@dyn 877] (gas: 11)\n 46259: a1 = s1 + 0x7ff\n 46263: a1 = a1 + 0x139\n 46267: u64 [a1 + 960] = 0\n 46271: u64 [a1 + 952] = 0\n 46275: u64 [a1 + 936] = 0x41\n 46280: a2 = a1\n 46282: a0 = 0x4\n 46285: a1 = s1 + 0x7ff\n 46289: a1 = a1 + 0x4e1\n 46293: u64 [a2 + 944] = 0\n 46297: ra = 1756, jump @19\n      : @1667 [@dyn 878] (gas: 3)\n 46304: a0 = u64 [s1 + 0x1a8]\n 46308: a0 = i32 [a0]\n 46310: jump @1669 if a0 >u 63\n      : @1668 (gas: 3)\n 46314: a1 = u64 [s1 + 0x1a8]\n 46318: u32 [a1 + 0] = 0x40\n 46321: fallthrough\n      : @1669 (gas: 5)\n 46322: a0 = 0x1\n 46325: a2 = 0x24\n 46328: a1 = u64 [s1 + 0x1b0]\n 46332: ecalli 13 // 'seal_return'\n 46334: fallthrough\n      : @1670 (gas: 10)\n 46335: a0 = s1 + 0x3138\n 46339: u64 [a0 + 1720] = 0\n 46343: u64 [a0 + 1712] = 0\n 46347: u64 [a0 + 1704] = 0\n 46351: a2 = a0\n 46353: a0 = 0x4e487b7100000000\n 46363: a1 = s1 + 0x37e0\n 46367: u64 [a2 + 0x6c0] = a0\n 46371: a0 = 0\n 46373: ra = 1758, jump @19\n      : @1671 [@dyn 879] (gas: 3)\n 46380: t0 = 0x6e0\n 46384: a1 = s1 + 0x3138\n 46388: fallthrough\n      : @1672 [@dyn 880] (gas: 8)\n 46389: u64 [a1 + 1696] = 0\n 46393: u64 [a1 + 1688] = 0\n 46397: u64 [a1 + 1672] = 0x41\n 46402: a2 = a1\n 46404: a0 = 0x4\n 46407: a1 = s1 + 0x37c0\n 46411: u64 [a2 + 1680] = 0\n 46415: ra = 1762, jump @19\n      : @1673 [@dyn 881] (gas: 2)\n 46422: a1 = i32 [0x201ec]\n 46427: jump @1675 if a1 >u 63\n      : @1674 (gas: 2)\n 46431: u32 [0x201ec] = 0x40\n 46437: fallthrough\n      : @1675 (gas: 7)\n 46438: a1 = 0x20200\n 46443: i32 a1 = a1 + 0\n 46445: a0 = 0x1\n 46448: a2 = 0x24\n 46451: ra = 0x6e4\n 46455: ecalli 13 // 'seal_return'\n 46457: fallthrough\n      : @1676 [@dyn 882] (gas: 5)\n 46458: a0 = s1 + 0x3138\n 46462: u64 [a0 + 1784] = 0\n 46466: u64 [a0 + 1776] = 0\n 46470: u64 [a0 + 1768] = 0\n 46474: t0 = 1766, jump @2006\n      : @1677 [@dyn 883] (gas: 5)\n 46480: i32 a1 = a1 + 0xfffffffffffff820\n 46484: a1 = a1 + s1\n 46487: u64 [a2 + 0x700] = a0\n 46491: a0 = 0\n 46493: ra = 1768, jump @19\n      : @1678 [@dyn 884] (gas: 3)\n 46500: t0 = 0x6ea\n 46504: a1 = s1 + 0x3138\n 46508: fallthrough\n      : @1679 [@dyn 885] (gas: 9)\n 46509: u64 [a1 + 1760] = 0\n 46513: u64 [a1 + 1752] = 0\n 46517: u64 [a1 + 1736] = 0x41\n 46522: a2 = a1\n 46524: a0 = 0x4\n 46527: a1 = s1 + 0x3800\n 46531: u64 [a2 + 1744] = 0\n 46535: ra = 0x6fc\n 46539: jump @19\n      : @1680 (gas: 5)\n 46543: a0 = s1 + 0x3938\n 46547: u64 [a0 + 1080] = 0\n 46551: u64 [a0 + 1072] = 0\n 46555: u64 [a0 + 1064] = 0\n 46559: t0 = 1772, jump @2006\n      : @1681 [@dyn 886] (gas: 5)\n 46565: i32 a1 = a1 + 0xfffffffffffffd60\n 46569: a1 = a1 + s1\n 46572: u64 [a2 + 0x440] = a0\n 46576: a0 = 0\n 46578: ra = 1774, jump @19\n      : @1682 [@dyn 887] (gas: 10)\n 46585: a0 = s1 + 0x3938\n 46589: u64 [a0 + 1056] = 0\n 46593: u64 [a0 + 1048] = 0\n 46597: u64 [a0 + 1040] = 0\n 46601: a2 = a0\n 46603: a0 = 0x4\n 46606: a1 = s1 + 0x3d40\n 46610: u64 [a2 + 1032] = 0\n 46614: ra = 0x6fc\n 46618: jump @19\n      : @1683 (gas: 5)\n 46622: a0 = s1 + 0x3138\n 46626: u64 [a0 + 1848] = 0\n 46630: u64 [a0 + 1840] = 0\n 46634: u64 [a0 + 1832] = 0\n 46638: t0 = 1776, jump @2006\n      : @1684 [@dyn 888] (gas: 5)\n 46644: i32 a1 = a1 + 0xfffffffffffff860\n 46648: a1 = a1 + s1\n 46651: u64 [a2 + 0x740] = a0\n 46655: a0 = 0\n 46657: ra = 1778, jump @19\n      : @1685 [@dyn 889] (gas: 3)\n 46664: t0 = 0x6f4\n 46668: a1 = s1 + 0x3138\n 46672: fallthrough\n      : @1686 [@dyn 890] (gas: 9)\n 46673: u64 [a1 + 1824] = 0\n 46677: u64 [a1 + 1816] = 0\n 46681: u64 [a1 + 1800] = 0x41\n 46686: a2 = a1\n 46688: a0 = 0x4\n 46691: a1 = s1 + 0x3840\n 46695: u64 [a2 + 1808] = 0\n 46699: ra = 0x6fc\n 46703: jump @19\n      : @1687 (gas: 5)\n 46707: a0 = s1 + 0x3138\n 46711: u64 [a0 + 1944] = 0\n 46715: u64 [a0 + 1936] = 0\n 46719: u64 [a0 + 1928] = 0\n 46723: t0 = 1782, jump @2006\n      : @1688 [@dyn 891] (gas: 5)\n 46729: i32 a1 = a1 + 0xfffffffffffff8c0\n 46733: a1 = a1 + s1\n 46736: u64 [a2 + 0x7a0] = a0\n 46740: a0 = 0\n 46742: ra = 1784, jump @19\n      : @1689 [@dyn 892] (gas: 3)\n 46749: t0 = 0x6fa\n 46753: a1 = s1 + 0x3138\n 46757: fallthrough\n      : @1690 [@dyn 893] (gas: 8)\n 46758: u64 [a1 + 1920] = 0\n 46762: u64 [a1 + 1912] = 0\n 46766: u64 [a1 + 1896] = 0x41\n 46771: a2 = a1\n 46773: a0 = 0x4\n 46776: a1 = s1 + 0x38a0\n 46780: u64 [a2 + 1904] = 0\n 46784: ra = 1788, jump @19\n      : @1691 [@dyn 894] (gas: 3)\n 46791: a0 = u64 [s1 + 0x58]\n 46794: a0 = i32 [a0]\n 46796: jump @1693 if a0 >u 63\n      : @1692 (gas: 3)\n 46800: a1 = u64 [s1 + 0x58]\n 46803: u32 [a1 + 0] = 0x40\n 46806: fallthrough\n      : @1693 (gas: 5)\n 46807: a0 = 0x1\n 46810: a2 = 0x24\n 46813: a1 = u64 [s1 + 0x50]\n 46816: ecalli 13 // 'seal_return'\n 46818: fallthrough\n      : @1694 (gas: 6)\n 46819: a0 = 0x1\n 46822: a1 = u64 [s1 + 0x198]\n 46826: ecalli 13 // 'seal_return'\n 46828: a0 = 0x1\n 46831: a1 = u64 [s1 + 0x198]\n 46835: jump @1606\n      : @1695 (gas: 3)\n 46838: a0 = 0x1\n 46841: a1 = u64 [s1 + 0x198]\n 46845: jump @1606\n      : @1696 (gas: 15)\n 46848: a3 = a4\n 46850: a2 = s1 + 0x1938\n 46854: a0 = u64 [s1 + 0xe0]\n 46858: a5 = a2 + 0x700\n 46862: u64 [a5 + 0x28] = a0\n 46865: a0 = u64 [s1 + 0xe8]\n 46869: u64 [a5 + 0x30] = a0\n 46872: a0 = u64 [s1 + 0xf0]\n 46876: u64 [a5 + 0x38] = a0\n 46879: a1 = s1 + 0x2060\n 46883: a0 = u64 [s1 + 0xf8]\n 46887: u64 [a5 + 0x40] = a0\n 46890: a0 = a4\n 46892: u64 [s1 + 0x1b8] = a3\n 46896: ra = 1790, jump @19\n      : @1697 [@dyn 895] (gas: 23)\n 46903: a5 = s1 + 0x100\n 46907: a0 = u64 [a5 + 0x20]\n 46910: a4 = s1 + 0x1938\n 46914: u64 [a4 + 0x700] = a0\n 46918: a0 = u64 [a5 + 0x28]\n 46921: u64 [a4 + 0x6f8] = a0\n 46925: a0 = u64 [a5 + 0x30]\n 46928: u64 [a4 + 0x6f0] = a0\n 46932: a0 = u64 [0x200c0]\n 46937: a1 = u64 [0x200c8]\n 46942: a2 = u64 [0x200d0]\n 46947: a3 = u64 [a5 + 0x38]\n 46950: u64 [a4 + 0x6e8] = a3\n 46954: u64 [a4 + 0x720] = a0\n 46958: u64 [a4 + 0x718] = a1\n 46962: u64 [a4 + 0x710] = a2\n 46966: a0 = u64 [0x200d8]\n 46971: a1 = 0x20\n 46974: a2 = s1 + 0x2040\n 46978: a3 = s1 + 0x2020\n 46982: u64 [a4 + 0x708] = a0\n 46986: a0 = u64 [a5 + 0xb8]\n 46990: ra = 1792, jump @24\n      : @1698 [@dyn 896] (gas: 3)\n 46997: a0 = 0\n 46999: a1 = u64 [s1 + 0x198]\n 47003: jump @1606\n      : @1699 (gas: 18)\n 47006: sp = sp + 0xffffffffffffffc0\n 47009: u64 [sp + 0x38] = ra\n 47012: u64 [sp + 0x30] = s0\n 47015: u64 [sp + 0x28] = s1\n 47018: s0 = sp + 0x40\n 47021: sp = sp & 0xfffffffffffffff0\n 47024: a2 = u64 [a1 + 0x10]\n 47027: a3 = u64 [a1 + 0x18]\n 47030: a4 = u64 [a1 + 0x8]\n 47033: a1 = u64 [a1]\n 47035: a3 = a3 | a4\n 47038: a4 = a1 | a2\n 47041: a4 = a4 | a3\n 47044: a4 = a4 >> 0x20\n 47047: a2 = a2 | a3\n 47050: a2 = a2 << 0x20\n 47053: a2 = a2 | a4\n 47056: jump @1705 if a2 != 0\n      : @1700 (gas: 3)\n 47059: s1 = a0\n 47061: a0 = sp\n 47063: ra = 1794, jump @17\n      : @1701 [@dyn 897] (gas: 1)\n 47070: t0 = 1796, jump @2003\n      : @1702 [@dyn 898] (gas: 1)\n 47076: jump @1706 if a3 == 0\n      : @1703 (gas: 1)\n 47079: t0 = 1798, jump @2018\n      : @1704 [@dyn 899] (gas: 1)\n 47085: ret\n      : @1705 (gas: 1)\n 47087: trap\n      : @1706 (gas: 7)\n 47088: a1 = 0x20200\n 47093: i32 a1 = a1 + 0\n 47095: a0 = 0x1\n 47098: a2 = 0\n 47100: ra = 0x708\n 47104: ecalli 13 // 'seal_return'\n 47106: fallthrough\n      : @1707 [@dyn 900] (gas: 21)\n 47107: sp = sp + 0xffffffffffffff10\n 47111: u64 [sp + 0xe8] = ra\n 47115: u64 [sp + 0xe0] = s0\n 47119: u64 [sp + 0xd8] = s1\n 47123: s0 = sp + 0xf0\n 47127: sp = sp & 0xfffffffffffffff0\n 47130: a5 = u64 [a1 + 0x10]\n 47133: a4 = u64 [a1 + 0x18]\n 47136: a3 = u64 [a1 + 0x8]\n 47139: a1 = u64 [a1]\n 47141: u64 [sp + 0x28] = a3\n 47144: u64 [sp + 0x18] = a4\n 47147: a4 = a4 | a3\n 47150: a3 = a1 | a5\n 47153: a3 = a3 | a4\n 47156: a3 = a3 >> 0x20\n 47159: u64 [sp + 0x20] = a5\n 47162: a4 = a4 | a5\n 47165: a4 = a4 << 0x20\n 47168: a3 = a3 | a4\n 47171: jump @1721 if a3 != 0\n      : @1708 (gas: 11)\n 47175: u64 [sp + 0x8] = a0\n 47178: a0 = u64 [a2 + 0x18]\n 47181: u64 [sp + 0x68] = a0\n 47184: s1 = u64 [a2 + 0x10]\n 47187: a0 = u64 [a2 + 0x8]\n 47190: u64 [sp + 0x60] = a0\n 47193: a0 = u64 [a2]\n 47195: u64 [sp + 0x58] = a0\n 47198: a0 = sp + 0xb0\n 47202: u64 [sp + 0x10] = a1\n 47205: ra = 1802, jump @17\n      : @1709 [@dyn 901] (gas: 12)\n 47212: a0 = u64 [sp + 0x58]\n 47215: a2 = a0 | s1\n 47218: a1 = u64 [sp + 0x68]\n 47221: a3 = u64 [sp + 0x60]\n 47224: a1 = a1 | a3\n 47227: a2 = a2 | a1\n 47230: a2 = a2 >> 0x20\n 47233: u64 [sp + 0x50] = s1\n 47236: a1 = a1 | s1\n 47239: a1 = a1 << 0x20\n 47242: a1 = a1 | a2\n 47245: jump @1721 if a1 != 0\n      : @1710 (gas: 15)\n 47249: a2 = u64 [sp + 0xc8]\n 47253: a3 = u64 [sp + 0xc0]\n 47257: a4 = u64 [sp + 0xb8]\n 47261: a1 = u64 [sp + 0xb0]\n 47265: u64 [sp + 0x30] = a1\n 47268: u64 [sp + 0x90] = a1\n 47272: u64 [sp + 0x38] = a4\n 47275: u64 [sp + 0x98] = a4\n 47279: u64 [sp + 0x40] = a3\n 47282: u64 [sp + 0xa0] = a3\n 47286: a1 = sp + 0x90\n 47290: u64 [sp + 0x48] = a2\n 47293: u64 [sp + 0xa8] = a2\n 47297: s1 = a0\n 47299: ra = 1804, jump @19\n      : @1711 [@dyn 902] (gas: 9)\n 47306: a0 = u64 [sp + 0x68]\n 47309: a1 = u64 [sp + 0x50]\n 47312: a1 = a1 | a0\n 47315: a0 = 0xffffffe0\n 47325: a2 = s1 <u a0\n 47328: a3 = u64 [sp + 0x60]\n 47331: a2 = 0 if a3 != 0\n 47333: a2 = 0 if a1 != 0\n 47335: jump @1721 if a2 == 0\n      : @1712 (gas: 9)\n 47339: a1 = u64 [sp + 0x20]\n 47342: a2 = u64 [sp + 0x18]\n 47345: a1 = a1 | a2\n 47348: a2 = u64 [sp + 0x10]\n 47351: a0 = a2 <u a0\n 47354: a3 = u64 [sp + 0x28]\n 47357: a0 = 0 if a3 != 0\n 47359: a0 = 0 if a1 != 0\n 47361: jump @1721 if a0 == 0\n      : @1713 (gas: 13)\n 47365: a5 = s1\n 47367: s1 = u64 [sp + 0x30]\n 47370: a3 = u64 [sp + 0x40]\n 47373: a0 = s1 | a3\n 47376: a1 = u64 [sp + 0x48]\n 47379: a4 = u64 [sp + 0x38]\n 47382: a1 = a1 | a4\n 47385: a0 = a0 | a1\n 47388: a0 = a0 >> 0x20\n 47391: a1 = a1 | a3\n 47394: a1 = a1 << 0x20\n 47397: a0 = a0 | a1\n 47400: jump @1721 if a0 != 0\n      : @1714 (gas: 5)\n 47404: i32 a0 = a5 + 0x20\n 47407: i32 a1 = a2 + 0x20\n 47410: u64 [sp + 0x28] = a1\n 47413: a1 = s1\n 47415: ra = 1806, jump @28\n      : @1715 [@dyn 903] (gas: 4)\n 47422: u64 [sp + 0x20] = a0\n 47425: a0 = u64 [sp + 0x28]\n 47428: a1 = s1\n 47430: ra = 1808, jump @28\n      : @1716 [@dyn 904] (gas: 4)\n 47437: a1 = a0\n 47439: a0 = u64 [sp + 0x20]\n 47442: a2 = s1\n 47444: ra = 1810, jump @0\n      : @1717 [@dyn 905] (gas: 27)\n 47451: a0 = u64 [sp + 0x58]\n 47454: a0 = a0 + s1\n 47457: a1 = a0 <u s1\n 47460: a2 = u64 [sp + 0x60]\n 47463: a4 = u64 [sp + 0x38]\n 47466: a2 = a2 + a4\n 47469: a2 = a2 + a1\n 47472: a3 = a2 ^ a4\n 47475: a4 = a2 <u a4\n 47478: a4 = a1 if a3 == 0\n 47481: a1 = u64 [sp + 0x50]\n 47484: a3 = u64 [sp + 0x40]\n 47487: a1 = a1 + a3\n 47490: a3 = a1 <u a3\n 47493: a5 = u64 [sp + 0x68]\n 47496: s1 = u64 [sp + 0x48]\n 47499: a5 = a5 + s1\n 47502: a3 = a3 + a5\n 47505: a4 = a4 + a1\n 47508: a1 = a4 <u a1\n 47511: a1 = a1 + a3\n 47514: a1 = a1 | a4\n 47517: a3 = 0xffffffe0\n 47527: a3 = a0 <u a3\n 47530: a3 = 0 if a2 != 0\n 47532: a3 = 0 if a1 != 0\n 47534: jump @1721 if a3 == 0\n      : @1718 (gas: 7)\n 47538: i32 a0 = a0 + 0x20\n 47541: u64 [sp + 136] = 0\n 47545: u64 [sp + 128] = 0\n 47549: u64 [sp + 120] = 0\n 47552: a1 = sp + 0x70\n 47555: u64 [sp + 112] = 0\n 47558: ra = 1812, jump @19\n      : @1719 [@dyn 906] (gas: 9)\n 47565: s1 = u64 [sp + 0x30]\n 47568: s1 = s1 + 0x1f\n 47571: a0 = 0x1ffffffe0\n 47581: a0 = a0 & s1\n 47584: a1 = u64 [sp + 0x58]\n 47587: a0 = a0 + a1\n 47590: a1 = a0 <u a1\n 47593: a3 = u64 [sp + 0x60]\n 47596: t0 = 1814, jump @2010\n      : @1720 [@dyn 907] (gas: 24)\n 47602: a1 = u64 [sp + 0x50]\n 47605: a3 = a3 + a1\n 47608: a1 = a3 <u a1\n 47611: a4 = u64 [sp + 0x68]\n 47614: a1 = a1 + a4\n 47617: a4 = a0 + 0x20\n 47620: a0 = a4 <u a0\n 47623: a5 = a2 + a0\n 47626: a2 = a5 <u a2\n 47629: a2 = a0 if a0 == 0\n 47632: a2 = a2 + a3\n 47635: a0 = a2 <u a3\n 47638: a0 = a0 + a1\n 47641: a1 = u64 [sp + 0x8]\n 47644: u64 [a1] = a4\n 47646: u64 [a1 + 0x8] = a5\n 47649: u64 [a1 + 0x10] = a2\n 47652: u64 [a1 + 0x18] = a0\n 47655: sp = s0 + 0xffffffffffffff10\n 47659: ra = u64 [sp + 0xe8]\n 47663: s0 = u64 [sp + 0xe0]\n 47667: s1 = u64 [sp + 0xd8]\n 47671: sp = sp + 0xf0\n 47675: ret\n      : @1721 (gas: 1)\n 47677: trap\n      : @1722 (gas: 22)\n 47678: sp = sp + 0xfffffffffffffe10\n 47682: u64 [sp + 0x1e8] = ra\n 47686: u64 [sp + 0x1e0] = s0\n 47690: u64 [sp + 0x1d8] = s1\n 47694: s0 = sp + 0x1f0\n 47698: sp = sp & 0xfffffffffffffff0\n 47701: a4 = u64 [a1 + 0x10]\n 47704: a3 = u64 [a1 + 0x18]\n 47707: a5 = u64 [a1 + 0x8]\n 47710: a1 = u64 [a1]\n 47712: u64 [sp + 0x98] = a3\n 47716: u64 [sp + 0x88] = a5\n 47720: a5 = a5 | a3\n 47723: a3 = a1 | a4\n 47726: a3 = a3 | a5\n 47729: a3 = a3 >> 0x20\n 47732: u64 [sp + 0x90] = a4\n 47736: a4 = a4 | a5\n 47739: a4 = a4 << 0x20\n 47742: a3 = a3 | a4\n 47745: u64 [sp + 0x8] = a0\n 47748: jump @1735 if a3 != 0\n      : @1723 (gas: 10)\n 47752: a0 = u64 [a2 + 0x18]\n 47755: u64 [sp + 0x38] = a0\n 47758: s1 = u64 [a2 + 0x10]\n 47761: a0 = u64 [a2 + 0x8]\n 47764: u64 [sp + 0x48] = a0\n 47767: a0 = u64 [a2]\n 47769: u64 [sp + 0x40] = a0\n 47772: a0 = sp + 0x1b0\n 47776: u64 [sp + 0x80] = a1\n 47780: ra = 1816, jump @17\n      : @1724 [@dyn 908] (gas: 12)\n 47787: a0 = u64 [sp + 0x40]\n 47790: a2 = a0 | s1\n 47793: a1 = u64 [sp + 0x38]\n 47796: a3 = u64 [sp + 0x48]\n 47799: a1 = a1 | a3\n 47802: a2 = a2 | a1\n 47805: a2 = a2 >> 0x20\n 47808: u64 [sp + 0x18] = s1\n 47811: a1 = a1 | s1\n 47814: a1 = a1 << 0x20\n 47817: a1 = a1 | a2\n 47820: jump @1735 if a1 != 0\n      : @1725 (gas: 13)\n 47824: a3 = u64 [sp + 0x1c8]\n 47828: u64 [sp + 0x30] = a3\n 47831: s1 = u64 [sp + 0x1c0]\n 47835: a2 = u64 [sp + 0x1b8]\n 47839: u64 [sp + 0x28] = a2\n 47842: a1 = u64 [sp + 0x1b0]\n 47846: u64 [sp + 0x20] = a1\n 47849: u64 [sp + 0x190] = a1\n 47853: u64 [sp + 0x198] = a2\n 47857: u64 [sp + 0x1a0] = s1\n 47861: a1 = sp + 0x190\n 47865: u64 [sp + 0x1a8] = a3\n 47869: ra = 1818, jump @19\n      : @1726 [@dyn 909] (gas: 65)\n 47876: ra = 0\n 47878: a5 = 0\n 47880: u64 [sp + 168] = 0\n 47884: t2 = 0\n 47886: a0 = s1 >> 0x3b\n 47889: a1 = u64 [sp + 0x30]\n 47892: a1 = a1 << 0x5\n 47895: a0 = a0 | a1\n 47898: u64 [sp + 0xe8] = a0\n 47902: a3 = u64 [sp + 0x28]\n 47905: a1 = a3 >> 0x3b\n 47908: u64 [sp + 0x10] = s1\n 47911: a2 = s1 << 0x5\n 47914: a1 = a1 | a2\n 47917: a0 = u64 [sp + 0x20]\n 47920: a2 = a0 >> 0x3b\n 47923: a3 = a3 << 0x5\n 47926: a2 = a2 | a3\n 47929: a3 = a0 << 0x5\n 47932: a4 = u64 [sp + 0x40]\n 47935: a3 = a3 + a4\n 47938: a4 = u64 [sp + 0x40]\n 47941: a4 = a3 <u a4\n 47944: a0 = u64 [sp + 0x48]\n 47947: a2 = a2 + a0\n 47950: a2 = a2 + a4\n 47953: a0 = a0 ^ a2\n 47956: s1 = u64 [sp + 0x48]\n 47959: s1 = a2 <u s1\n 47962: s1 = a4 if a0 == 0\n 47965: t1 = u64 [sp + 0x40]\n 47968: t0 = u64 [sp + 0x18]\n 47971: a1 = a1 + t0\n 47974: s1 = s1 + a1\n 47977: a0 = s1 <u a1\n 47980: u64 [sp + 0xe0] = a0\n 47984: a4 = a1 <u t0\n 47987: a1 = u64 [sp + 0x38]\n 47990: a0 = u64 [sp + 0xe8]\n 47994: a0 = a0 + a1\n 47997: a0 = a0 + a4\n 48000: a1 = u64 [sp + 0xe0]\n 48004: a0 = a0 + a1\n 48007: a1 = a3 + 0x20\n 48010: u64 [sp + 0xd8] = a1\n 48014: a1 = a1 <u a3\n 48017: a3 = u64 [sp + 0xa8]\n 48021: a4 = a2 + a1\n 48024: u64 [sp + 0xe8] = a4\n 48028: a2 = a4 <u a2\n 48031: a2 = a1 if a1 == 0\n 48034: a2 = a2 + s1\n 48037: u64 [sp + 0xd0] = a2\n 48041: a1 = a2 <u s1\n 48044: a0 = a0 + a1\n 48047: u64 [sp + 0xe0] = a0\n 48051: a0 = 0xffffffe0\n 48061: u64 [sp + 0xa0] = a0\n 48065: a4 = t1\n 48067: a0 = u64 [sp + 0x48]\n 48070: u64 [sp + 0xb8] = a0\n 48074: u64 [sp + 0xc0] = t0\n 48078: a0 = u64 [sp + 0x38]\n 48081: u64 [sp + 0xc8] = a0\n 48085: fallthrough\n      : @1727 (gas: 19)\n 48086: a0 = u64 [sp + 0x20]\n 48089: a0 = ra <u a0\n 48092: a2 = u64 [sp + 0x28]\n 48095: a1 = a5 ^ a2\n 48098: a2 = a5 <u a2\n 48101: a2 = a0 if a1 == 0\n 48104: s1 = u64 [sp + 0x10]\n 48107: t0 = a3 <u s1\n 48110: a0 = a3\n 48112: a3 = u64 [sp + 0x30]\n 48115: a1 = t2 ^ a3\n 48118: u64 [sp + 0x78] = t2\n 48121: a3 = t2 <u a3\n 48124: a3 = t0 if a1 == 0\n 48127: u64 [sp + 0xa8] = a0\n 48131: a0 = a0 ^ s1\n 48134: a0 = a0 | a1\n 48137: a3 = a2 if a0 == 0\n 48140: jump @1734 if a3 == 0\n      : @1728 (gas: 16)\n 48144: a3 = u64 [sp + 0xd0]\n 48148: u64 [sp + 0x68] = a5\n 48151: u64 [sp + 0x70] = ra\n 48154: a0 = u64 [sp + 0xc8]\n 48158: a1 = u64 [sp + 0xc0]\n 48162: a0 = a0 | a1\n 48165: ra = a4\n 48167: a1 = u64 [sp + 0xa0]\n 48171: a1 = a4 <u a1\n 48174: a2 = u64 [sp + 0xb8]\n 48178: a1 = 0 if a2 != 0\n 48180: a1 = 0 if a0 != 0\n 48182: a4 = u64 [sp + 0xe8]\n 48186: t2 = u64 [sp + 0xe0]\n 48190: a5 = u64 [sp + 0xd8]\n 48194: jump @1735 if a1 == 0\n      : @1729 (gas: 46)\n 48198: a2 = a5 <u t1\n 48201: s1 = u64 [sp + 0x48]\n 48204: a1 = a4 ^ s1\n 48207: a0 = a4 <u s1\n 48210: a0 = a2 if a1 == 0\n 48213: t0 = t1\n 48215: t1 = a3\n 48217: a1 = u64 [sp + 0x18]\n 48220: a3 = a3 - a1\n 48223: u64 [sp + 0xb0] = a3\n 48227: a3 = a4 - s1\n 48230: a3 = a3 - a2\n 48233: a2 = a5 - t0\n 48236: u64 [sp + 0xd8] = a5\n 48240: t0 = a2 + 0xffffffffffffffe0\n 48243: a2 = t0 <u a2\n 48246: a5 = a3 + a2\n 48249: a5 = a5 + 0xffffffffffffffff\n 48252: s1 = a5 ^ a3\n 48255: a3 = a5 <u a3\n 48258: a3 = a2 if s1 == 0\n 48261: a2 = t1 <u a1\n 48264: s1 = u64 [sp + 0x38]\n 48267: s1 = t2 - s1\n 48270: s1 = s1 - a2\n 48273: a1 = u64 [sp + 0xb0]\n 48277: a2 = a1 <u a0\n 48280: s1 = s1 - a2\n 48283: a1 = a1 - a0\n 48286: a0 = a1 <u 0x1\n 48289: s1 = s1 - a0\n 48292: a1 = a1 + 0xffffffffffffffff\n 48295: a3 = a3 + a1\n 48298: a0 = a3 <u a1\n 48301: s1 = s1 + a0\n 48304: a0 = ra + 0x20\n 48307: u64 [sp + 0x170] = t0\n 48311: u64 [sp + 0x178] = a5\n 48315: u64 [sp + 0x180] = a3\n 48319: a1 = sp + 0x170\n 48323: u64 [sp + 0x188] = s1\n 48327: u64 [sp + 0xb0] = a0\n 48331: u64 [sp + 0xe8] = a4\n 48335: u64 [sp + 0xe0] = t2\n 48339: s1 = ra\n 48341: ra = 1820, jump @19\n      : @1730 [@dyn 910] (gas: 10)\n 48348: a2 = u64 [sp + 0x98]\n 48352: a3 = u64 [sp + 0x90]\n 48356: a0 = a3 | a2\n 48359: a5 = u64 [sp + 0x80]\n 48363: a1 = u64 [sp + 0xa0]\n 48367: a1 = a5 <u a1\n 48370: a4 = u64 [sp + 0x88]\n 48374: a1 = 0 if a4 != 0\n 48376: a1 = 0 if a0 != 0\n 48378: jump @1735 if a1 == 0\n      : @1731 (gas: 29)\n 48382: a1 = a5 + 0x20\n 48385: a0 = a1 <u a5\n 48388: a5 = a1\n 48390: u64 [sp + 0x50] = a1\n 48393: a1 = a4 + a0\n 48396: u64 [sp + 0x60] = a1\n 48399: a1 = a1 <u a4\n 48402: a1 = a0 if a0 == 0\n 48405: a1 = a1 + a3\n 48408: u64 [sp + 0x58] = a1\n 48411: a0 = a1 <u a3\n 48414: a2 = a2 + a0\n 48417: u64 [sp + 0x98] = a2\n 48421: a0 = u64 [sp + 0xb0]\n 48425: a0 = a0 <u s1\n 48428: a1 = u64 [sp + 0xb8]\n 48432: a2 = a1 + a0\n 48435: u64 [sp + 0x90] = a2\n 48439: a1 = a2 <u a1\n 48442: a1 = a0 if a0 == 0\n 48445: a0 = u64 [sp + 0xc0]\n 48449: s1 = a0 + a1\n 48452: a0 = s1 <u a0\n 48455: a1 = u64 [sp + 0xc8]\n 48459: a1 = a1 + a0\n 48462: u64 [sp + 0xc8] = a1\n 48466: a0 = sp + 0x150\n 48470: a1 = a5\n 48472: ra = 1822, jump @17\n      : @1732 [@dyn 911] (gas: 20)\n 48479: a3 = u64 [sp + 0x150]\n 48483: a0 = u64 [sp + 0x158]\n 48487: a1 = u64 [sp + 0x160]\n 48491: a2 = u64 [sp + 0x168]\n 48495: a4 = u64 [sp + 0xe0]\n 48499: u64 [sp + 0x108] = a4\n 48503: a4 = u64 [sp + 0xd0]\n 48507: u64 [sp + 0x100] = a4\n 48511: a4 = u64 [sp + 0xe8]\n 48515: u64 [sp + 0xf8] = a4\n 48519: a4 = u64 [sp + 0xd8]\n 48523: u64 [sp + 0xf0] = a4\n 48527: u64 [sp + 0x128] = a2\n 48531: u64 [sp + 0x120] = a1\n 48535: u64 [sp + 0x118] = a0\n 48539: a0 = sp + 0x130\n 48543: a1 = sp + 0x110\n 48547: a2 = sp + 0xf0\n 48551: u64 [sp + 0x110] = a3\n 48555: ra = 1824, jump @1707\n      : @1733 [@dyn 912] (gas: 33)\n 48561: a0 = u64 [sp + 0x148]\n 48565: u64 [sp + 0xe0] = a0\n 48569: a0 = u64 [sp + 0x140]\n 48573: u64 [sp + 0xd0] = a0\n 48577: a0 = u64 [sp + 0x138]\n 48581: u64 [sp + 0xe8] = a0\n 48585: ra = u64 [sp + 0x70]\n 48588: ra = ra + 0x1\n 48591: a0 = ra <u 0x1\n 48594: a5 = u64 [sp + 0x68]\n 48597: a5 = a5 + a0\n 48600: a0 = ra | a5\n 48603: a0 = a0 <u 0x1\n 48606: a1 = u64 [sp + 0x130]\n 48610: u64 [sp + 0xd8] = a1\n 48614: a1 = u64 [sp + 0xa8]\n 48618: a0 = a0 + a1\n 48621: a1 = a0 <u a1\n 48624: t2 = u64 [sp + 0x78]\n 48627: t2 = t2 + a1\n 48630: a4 = u64 [sp + 0xb0]\n 48634: a1 = u64 [sp + 0x90]\n 48638: u64 [sp + 0xb8] = a1\n 48642: u64 [sp + 0xc0] = s1\n 48646: a1 = u64 [sp + 0x50]\n 48649: u64 [sp + 0x80] = a1\n 48653: a1 = u64 [sp + 0x60]\n 48656: u64 [sp + 0x88] = a1\n 48660: a1 = u64 [sp + 0x58]\n 48663: u64 [sp + 0x90] = a1\n 48667: a3 = a0\n 48669: t1 = u64 [sp + 0x40]\n 48672: jump @1727\n      : @1734 (gas: 15)\n 48675: a0 = u64 [sp + 0x8]\n 48678: a1 = u64 [sp + 0xd8]\n 48682: u64 [a0] = a1\n 48684: a1 = u64 [sp + 0xe8]\n 48688: u64 [a0 + 0x8] = a1\n 48691: a1 = u64 [sp + 0xd0]\n 48695: u64 [a0 + 0x10] = a1\n 48698: a1 = u64 [sp + 0xe0]\n 48702: u64 [a0 + 0x18] = a1\n 48705: sp = s0 + 0xfffffffffffffe10\n 48709: ra = u64 [sp + 0x1e8]\n 48713: s0 = u64 [sp + 0x1e0]\n 48717: s1 = u64 [sp + 0x1d8]\n 48721: sp = sp + 0x1f0\n 48725: ret\n      : @1735 (gas: 1)\n 48727: trap\n      : @1736 (gas: 22)\n 48728: sp = sp + 0xfffffffffffffea0\n 48732: u64 [sp + 0x158] = ra\n 48736: u64 [sp + 0x150] = s0\n 48740: u64 [sp + 0x148] = s1\n 48744: s0 = sp + 0x160\n 48748: sp = sp & 0xfffffffffffffff0\n 48751: a5 = u64 [a1 + 0x10]\n 48754: a3 = u64 [a1 + 0x18]\n 48757: a4 = u64 [a1 + 0x8]\n 48760: a1 = u64 [a1]\n 48762: u64 [sp + 0xa0] = a3\n 48766: u64 [sp + 0x90] = a4\n 48770: a4 = a4 | a3\n 48773: a3 = a1 | a5\n 48776: a3 = a3 | a4\n 48779: a3 = a3 >> 0x20\n 48782: u64 [sp + 0x98] = a5\n 48786: a4 = a4 | a5\n 48789: a4 = a4 << 0x20\n 48792: a3 = a3 | a4\n 48795: u64 [sp + 0x8] = a0\n 48798: jump @1748 if a3 != 0\n      : @1737 (gas: 10)\n 48802: a0 = u64 [a2 + 0x18]\n 48805: u64 [sp + 0xb0] = a0\n 48809: s1 = u64 [a2 + 0x10]\n 48812: a0 = u64 [a2 + 0x8]\n 48815: u64 [sp + 0x80] = a0\n 48819: a0 = u64 [a2]\n 48821: u64 [sp + 0x78] = a0\n 48824: a0 = sp + 0x120\n 48828: u64 [sp + 0xb8] = a1\n 48832: ra = 1826, jump @17\n      : @1738 [@dyn 913] (gas: 12)\n 48839: a0 = u64 [sp + 0x78]\n 48842: a2 = a0 | s1\n 48845: a1 = u64 [sp + 0xb0]\n 48849: a3 = u64 [sp + 0x80]\n 48853: a1 = a1 | a3\n 48856: a2 = a2 | a1\n 48859: a2 = a2 >> 0x20\n 48862: u64 [sp + 0xa8] = s1\n 48866: a1 = a1 | s1\n 48869: a1 = a1 << 0x20\n 48872: a1 = a1 | a2\n 48875: jump @1748 if a1 != 0\n      : @1739 (gas: 15)\n 48879: a4 = u64 [sp + 0x138]\n 48883: a1 = u64 [sp + 0x130]\n 48887: a2 = u64 [sp + 0x128]\n 48891: a3 = u64 [sp + 0x120]\n 48895: u64 [sp + 0x18] = a3\n 48898: u64 [sp + 0x100] = a3\n 48902: u64 [sp + 0x20] = a2\n 48905: u64 [sp + 0x108] = a2\n 48909: u64 [sp + 0x28] = a1\n 48912: u64 [sp + 0x110] = a1\n 48916: a1 = sp + 0x100\n 48920: u64 [sp + 0x30] = a4\n 48923: u64 [sp + 0x118] = a4\n 48927: s1 = a0\n 48929: ra = 1828, jump @19\n      : @1740 [@dyn 914] (gas: 8)\n 48936: a2 = 0\n 48938: a3 = 0\n 48940: t1 = 0\n 48942: t0 = 0\n 48944: a0 = 0xffffffe0\n 48954: u64 [sp + 0x10] = a0\n 48957: a5 = u64 [sp + 0x80]\n 48961: fallthrough\n      : @1741 (gas: 32)\n 48962: ra = s1 + 0x20\n 48965: a0 = u64 [sp + 0x18]\n 48968: u64 [sp + 0x68] = a2\n 48971: a0 = a2 <u a0\n 48974: a2 = u64 [sp + 0x20]\n 48977: a1 = a3 ^ a2\n 48980: u64 [sp + 0x60] = a3\n 48983: a2 = a3 <u a2\n 48986: a2 = a0 if a1 == 0\n 48989: a4 = u64 [sp + 0x28]\n 48992: a0 = t1 <u a4\n 48995: a3 = u64 [sp + 0x30]\n 48998: a1 = t0 ^ a3\n 49001: u64 [sp + 0x58] = t0\n 49004: a3 = t0 <u a3\n 49007: a3 = a0 if a1 == 0\n 49010: a0 = t1 ^ a4\n 49013: a4 = s1\n 49015: a0 = a0 | a1\n 49018: u64 [sp + 0x70] = ra\n 49021: a1 = ra <u s1\n 49024: a3 = a2 if a0 == 0\n 49027: a2 = a5 + a1\n 49030: s1 = a5\n 49032: a0 = a2 <u a5\n 49035: a0 = a1 if a1 == 0\n 49038: a1 = u64 [sp + 0xa8]\n 49042: a5 = a1 + a0\n 49045: a0 = a5 <u a1\n 49048: a1 = u64 [sp + 0xb0]\n 49052: a0 = a0 + a1\n 49055: jump @1747 if a3 == 0\n      : @1742 (gas: 16)\n 49059: u64 [sp + 0x38] = a0\n 49062: u64 [sp + 0x40] = a5\n 49065: u64 [sp + 0x48] = a2\n 49068: u64 [sp + 0x50] = t1\n 49071: u64 [sp + 0x78] = a4\n 49074: u64 [sp + 0x80] = s1\n 49078: a0 = u64 [sp + 0xa0]\n 49082: a1 = u64 [sp + 0x98]\n 49086: a0 = a0 | a1\n 49089: s1 = u64 [sp + 0x10]\n 49092: a2 = u64 [sp + 0xb8]\n 49096: a1 = a2 <u s1\n 49099: a3 = u64 [sp + 0x90]\n 49103: a1 = 0 if a3 != 0\n 49105: a1 = 0 if a0 != 0\n 49107: jump @1748 if a1 == 0\n      : @1743 (gas: 5)\n 49111: a1 = a2 + 0x20\n 49114: a0 = sp + 0xe0\n 49118: u64 [sp + 0x88] = a1\n 49122: u64 [sp + 0xb8] = a2\n 49126: ra = 1830, jump @17\n      : @1744 [@dyn 915] (gas: 9)\n 49133: a0 = u64 [sp + 0xa8]\n 49137: a1 = u64 [sp + 0xb0]\n 49141: a0 = a0 | a1\n 49144: a1 = u64 [sp + 0x78]\n 49147: a1 = a1 <u s1\n 49150: a2 = u64 [sp + 0x80]\n 49154: a1 = 0 if a2 != 0\n 49156: a1 = 0 if a0 != 0\n 49158: jump @1748 if a1 == 0\n      : @1745 (gas: 27)\n 49162: a0 = u64 [sp + 0x88]\n 49166: a1 = u64 [sp + 0xb8]\n 49170: a0 = a0 <u a1\n 49173: s1 = u64 [sp + 0x90]\n 49177: a1 = s1 + a0\n 49180: u64 [sp + 0x80] = a1\n 49184: a1 = a1 <u s1\n 49187: a1 = a0 if a0 == 0\n 49190: a0 = u64 [sp + 0xf8]\n 49194: a2 = u64 [sp + 0xf0]\n 49198: a3 = u64 [sp + 0xe8]\n 49202: a4 = u64 [sp + 0xe0]\n 49206: s1 = u64 [sp + 0x98]\n 49210: a1 = a1 + s1\n 49213: u64 [sp + 0x78] = a1\n 49216: a1 = a1 <u s1\n 49219: a5 = u64 [sp + 0xa0]\n 49223: a5 = a5 + a1\n 49226: u64 [sp + 0xa0] = a5\n 49230: u64 [sp + 0xc0] = a4\n 49234: u64 [sp + 0xc8] = a3\n 49238: u64 [sp + 0xd0] = a2\n 49242: a1 = sp + 0xc0\n 49246: u64 [sp + 0xd8] = a0\n 49250: s1 = u64 [sp + 0x70]\n 49253: a0 = s1\n 49255: ra = 1832, jump @19\n      : @1746 [@dyn 916] (gas: 24)\n 49262: a2 = u64 [sp + 0x68]\n 49265: a2 = a2 + 0x1\n 49268: a0 = a2 <u 0x1\n 49271: a3 = u64 [sp + 0x60]\n 49274: a3 = a3 + a0\n 49277: a0 = a2 | a3\n 49280: a0 = a0 <u 0x1\n 49283: a1 = u64 [sp + 0x50]\n 49286: t1 = a1 + a0\n 49289: a1 = t1 <u a1\n 49292: t0 = u64 [sp + 0x58]\n 49295: t0 = t0 + a1\n 49298: a5 = u64 [sp + 0x48]\n 49301: a1 = u64 [sp + 0x40]\n 49304: u64 [sp + 0xa8] = a1\n 49308: a1 = u64 [sp + 0x38]\n 49311: u64 [sp + 0xb0] = a1\n 49315: a1 = u64 [sp + 0x88]\n 49319: u64 [sp + 0xb8] = a1\n 49323: a1 = u64 [sp + 0x80]\n 49327: u64 [sp + 0x90] = a1\n 49331: a1 = u64 [sp + 0x78]\n 49334: u64 [sp + 0x98] = a1\n 49338: jump @1741\n      : @1747 (gas: 12)\n 49341: a3 = u64 [sp + 0x8]\n 49344: a1 = u64 [sp + 0x70]\n 49347: u64 [a3] = a1\n 49349: u64 [a3 + 0x8] = a2\n 49352: u64 [a3 + 0x10] = a5\n 49355: u64 [a3 + 0x18] = a0\n 49358: sp = s0 + 0xfffffffffffffea0\n 49362: ra = u64 [sp + 0x158]\n 49366: s0 = u64 [sp + 0x150]\n 49370: s1 = u64 [sp + 0x148]\n 49374: sp = sp + 0x160\n 49378: ret\n      : @1748 (gas: 1)\n 49380: trap\n      : @1749 (gas: 46)\n 49381: sp = sp + 0xffffffffffffff70\n 49385: u64 [sp + 0x88] = ra\n 49389: u64 [sp + 0x80] = s0\n 49393: u64 [sp + 0x78] = s1\n 49396: s0 = sp + 0x90\n 49400: sp = sp & 0xfffffffffffffff0\n 49403: t0 = a0\n 49405: a2 = u64 [a1]\n 49407: t2 = u64 [a0 + 0x8]\n 49410: a5 = u64 [a1 + 0x8]\n 49413: t1 = u64 [a0]\n 49415: a3 = a2 + 0x1f\n 49418: ra = a3 <u a2\n 49421: a2 = a5 + ra\n 49424: a3 = a3 & 0xffffffffffffffe0\n 49427: u64 [sp + 0x8] = t1\n 49430: t1 = t1 + a3\n 49433: a4 = t1 <u a3\n 49436: a3 = a2 + t2\n 49439: a3 = a3 + a4\n 49442: s1 = a3 ^ a2\n 49445: a0 = a3 <u a2\n 49448: a0 = a4 if s1 == 0\n 49451: a4 = u64 [t0 + 0x18]\n 49454: a5 = a2 <u a5\n 49457: s1 = u64 [a1 + 0x10]\n 49460: t0 = u64 [t0 + 0x10]\n 49463: a1 = u64 [a1 + 0x18]\n 49466: a5 = ra if ra == 0\n 49469: a5 = a5 + s1\n 49472: s1 = a5 <u s1\n 49475: a2 = a5 + t0\n 49478: a0 = a0 + a2\n 49481: a5 = a2 <u a5\n 49484: a2 = a0 <u a2\n 49487: a1 = a1 + a4\n 49490: a1 = a1 + s1\n 49493: a1 = a1 + a5\n 49496: a5 = a1 + a2\n 49499: a1 = a5 >u 0\n 49501: a2 = a0 >u 0\n 49503: a2 = a1 if a5 != 0\n 49506: a1 = a0 | a5\n 49509: s1 = a3 >u 0\n 49511: s1 = a2 if a1 != 0\n 49514: jump @1753 if s1 != 0\n      : @1750 (gas: 13)\n 49517: a1 = u64 [sp + 0x8]\n 49520: a1 = t1 <u a1\n 49523: a2 = a3 ^ t2\n 49526: s1 = a3 <u t2\n 49529: s1 = a1 if a2 == 0\n 49532: a1 = a0 <u t0\n 49535: a2 = a5 ^ a4\n 49538: a4 = a5 <u a4\n 49541: a4 = a1 if a2 == 0\n 49544: a1 = a0 ^ t0\n 49547: a1 = a1 | a2\n 49550: a4 = s1 if a1 == 0\n 49553: jump @1753 if a4 != 0\n      : @1751 (gas: 7)\n 49556: u64 [sp + 0x50] = t1\n 49559: u64 [sp + 0x58] = a3\n 49562: u64 [sp + 0x60] = a0\n 49565: a0 = 0x40\n 49568: a1 = sp + 0x50\n 49571: u64 [sp + 0x68] = a5\n 49574: ra = 1834, jump @19\n      : @1752 [@dyn 917] (gas: 6)\n 49581: sp = s0 + 0xffffffffffffff70\n 49585: ra = u64 [sp + 0x88]\n 49589: s0 = u64 [sp + 0x80]\n 49593: s1 = u64 [sp + 0x78]\n 49596: sp = sp + 0x90\n 49600: ret\n      : @1753 (gas: 1)\n 49602: t0 = 1836, jump @2021\n      : @1754 [@dyn 918] (gas: 1)\n 49608: ra = 1838, jump @19\n      : @1755 [@dyn 919] (gas: 7)\n 49615: u64 [sp + 40] = 0\n 49618: u64 [sp + 32] = 0\n 49621: u64 [sp + 16] = 0x41\n 49625: a0 = 0x4\n 49628: a1 = sp + 0x10\n 49631: u64 [sp + 24] = 0\n 49634: ra = 1840, jump @19\n      : @1756 [@dyn 920] (gas: 2)\n 49641: a1 = i32 [0x201ec]\n 49646: jump @1758 if a1 >u 63\n      : @1757 (gas: 2)\n 49650: u32 [0x201ec] = 0x40\n 49656: fallthrough\n      : @1758 (gas: 7)\n 49657: a1 = 0x20200\n 49662: i32 a1 = a1 + 0\n 49664: a0 = 0x1\n 49667: a2 = 0x24\n 49670: ra = 0x732\n 49674: ecalli 13 // 'seal_return'\n 49676: fallthrough\n      : @1759 [@dyn 921] (gas: 37)\n 49677: sp = sp + 0xfffffffffffffe40\n 49681: u64 [sp + 0x1b8] = ra\n 49685: u64 [sp + 0x1b0] = s0\n 49689: u64 [sp + 0x1a8] = s1\n 49693: s0 = sp + 0x1c0\n 49697: sp = sp & 0xffffffffffffffe0\n 49700: ra = u64 [a1]\n 49702: a4 = u64 [a2 + 0x8]\n 49705: t2 = u64 [a1 + 0x8]\n 49708: s1 = u64 [a2]\n 49710: a3 = ra + 0x1f\n 49713: t0 = a3 <u ra\n 49716: a5 = t2 + t0\n 49719: u64 [sp + 0x30] = s1\n 49722: t1 = a3 <u s1\n 49725: a3 = a5 ^ a4\n 49728: u64 [sp + 0x40] = a4\n 49731: a4 = a5 <u a4\n 49734: a4 = t1 if a3 == 0\n 49737: s1 = u64 [a1 + 0x10]\n 49740: a3 = a5 <u t2\n 49743: a3 = t0 if t0 == 0\n 49746: a5 = u64 [a2 + 0x18]\n 49749: t0 = u64 [a1 + 0x18]\n 49752: t1 = u64 [a2 + 0x10]\n 49755: a3 = a3 + s1\n 49758: a1 = a3 <u s1\n 49761: a1 = a1 + t0\n 49764: a2 = a1 ^ a5\n 49767: u64 [sp + 0x20] = a5\n 49770: a1 = a1 <s a5\n 49773: a5 = a3 <u t1\n 49776: a1 = a5 if a2 == 0\n 49779: a3 = a3 ^ t1\n 49782: a2 = a2 | a3\n 49785: a4 = a1 if a2 != 0\n 49788: jump @1777 if a4 == 0\n      : @1760 (gas: 13)\n 49792: u64 [sp + 0x18] = a0\n 49795: u64 [sp + 0x28] = t1\n 49798: a0 = ra | s1\n 49801: u64 [sp + 0x50] = t2\n 49804: u64 [sp + 0x38] = t0\n 49807: a1 = t2 | t0\n 49810: a0 = a0 | a1\n 49813: a0 = a0 >> 0x20\n 49816: u64 [sp + 0x48] = s1\n 49819: a1 = a1 | s1\n 49822: a1 = a1 << 0x20\n 49825: a0 = a0 | a1\n 49828: jump @1776 if a0 != 0\n      : @1761 (gas: 6)\n 49832: u64 [sp + 0x60] = ra\n 49835: i32 a1 = ra + 0\n 49837: i32 a0 = sp + 0x180\n 49841: u64 [sp + 0x10] = a1\n 49844: ecalli 3 // 'call_data_load'\n 49846: fallthrough\n      : @1762 (gas: 13)\n 49847: a2 = u64 [sp + 0x198]\n 49851: a3 = u64 [sp + 0x190]\n 49855: a4 = u64 [sp + 0x188]\n 49859: a0 = a2 >u 0\n 49861: a1 = a3 >u 0\n 49863: a1 = a0 if a2 != 0\n 49866: u64 [sp + 0x90] = a2\n 49870: u64 [sp + 0x88] = a3\n 49874: a0 = a3 | a2\n 49877: u64 [sp + 0x98] = a4\n 49881: a2 = a4 >u 0\n 49883: a2 = a1 if a0 != 0\n 49886: jump @1778 if a2 != 0\n      : @1763 (gas: 4)\n 49890: s1 = u64 [sp + 0x180]\n 49894: a0 = sp + 0x160\n 49898: a1 = 0x40\n 49901: ra = 1844, jump @17\n      : @1764 [@dyn 922] (gas: 31)\n 49908: t0 = u64 [sp + 0x178]\n 49912: a5 = u64 [sp + 0x170]\n 49916: u64 [sp + 0x78] = a5\n 49919: t1 = u64 [sp + 0x168]\n 49923: u64 [sp + 0x80] = t1\n 49927: t2 = u64 [sp + 0x160]\n 49931: u64 [sp + 0x70] = t2\n 49934: a0 = s1 + 0x1f\n 49937: u64 [sp + 0x58] = s1\n 49940: a1 = a0 <u s1\n 49943: a2 = u64 [sp + 0x98]\n 49947: a1 = a1 + a2\n 49950: a1 = a1 & 0x1\n 49953: a0 = a0 & 0xffffffffffffffe0\n 49956: a2 = a0 + 0x20\n 49959: a0 = a2 <u a0\n 49962: a3 = a1 + a0\n 49965: a4 = a3 <u a1\n 49968: a4 = a0 if a0 == 0\n 49971: u64 [sp + 312] = 0\n 49975: u64 [sp + 0x120] = a2\n 49979: s1 = t0\n 49981: u64 [sp + 0x158] = t0\n 49985: u64 [sp + 0x150] = a5\n 49989: u64 [sp + 0x148] = t1\n 49993: u64 [sp + 0x140] = t2\n 49997: u64 [sp + 0x128] = a3\n 50001: a0 = sp + 0x140\n 50005: a1 = sp + 0x120\n 50009: u64 [sp + 0x130] = a4\n 50013: ra = 1846, jump @1749\n      : @1765 [@dyn 923] (gas: 12)\n 50019: a2 = u64 [sp + 0x70]\n 50022: u64 [sp + 0x68] = s1\n 50025: a1 = u64 [sp + 0x80]\n 50029: a0 = a1 | s1\n 50032: a3 = u64 [sp + 0x78]\n 50035: a1 = a2 | a3\n 50038: a1 = a1 | a0\n 50041: a1 = a1 >> 0x20\n 50044: a0 = a0 | a3\n 50047: a0 = a0 << 0x20\n 50050: a0 = a0 | a1\n 50053: jump @1776 if a0 != 0\n      : @1766 (gas: 11)\n 50057: s1 = u64 [sp + 0x58]\n 50060: u64 [sp + 0x100] = s1\n 50064: a0 = u64 [sp + 0x98]\n 50068: u64 [sp + 0x108] = a0\n 50072: a0 = u64 [sp + 0x88]\n 50076: u64 [sp + 0x110] = a0\n 50080: a1 = sp + 0x100\n 50084: a0 = u64 [sp + 0x90]\n 50088: u64 [sp + 0x118] = a0\n 50092: a0 = a2\n 50094: ra = 1848, jump @19\n      : @1767 [@dyn 924] (gas: 46)\n 50101: a0 = u64 [sp + 0x60]\n 50104: a3 = a0 + s1\n 50107: a2 = a3 <u a0\n 50110: t2 = u64 [sp + 0x50]\n 50113: a0 = u64 [sp + 0x98]\n 50117: a0 = a0 + t2\n 50120: a0 = a0 + a2\n 50123: a4 = a0 ^ t2\n 50126: a1 = a0 <u t2\n 50129: a1 = a2 if a4 == 0\n 50132: ra = u64 [sp + 0x48]\n 50135: a2 = u64 [sp + 0x88]\n 50139: a2 = a2 + ra\n 50142: a5 = a3 + 0x20\n 50145: t0 = a5 <u a3\n 50148: a4 = a0 + t0\n 50151: a3 = u64 [sp + 0x30]\n 50154: a5 = a3 <u a5\n 50157: a3 = u64 [sp + 0x40]\n 50160: s1 = a4 ^ a3\n 50163: a3 = a3 <u a4\n 50166: a5 = a3 if s1 != 0\n 50169: a3 = a2 <u ra\n 50172: t1 = u64 [sp + 0x38]\n 50175: s1 = u64 [sp + 0x90]\n 50179: s1 = s1 + t1\n 50182: a3 = a3 + s1\n 50185: a1 = a1 + a2\n 50188: a2 = a1 <u a2\n 50191: a2 = a2 + a3\n 50194: a0 = a4 <u a0\n 50197: a0 = t0 if t0 == 0\n 50200: a0 = a0 + a1\n 50203: a1 = a0 <u a1\n 50206: a1 = a1 + a2\n 50209: a3 = u64 [sp + 0x20]\n 50212: a2 = a1 ^ a3\n 50215: a1 = a3 <u a1\n 50218: a4 = u64 [sp + 0x28]\n 50221: a3 = a4 <u a0\n 50224: a1 = a3 if a2 == 0\n 50227: a0 = a0 ^ a4\n 50230: a0 = a0 | a2\n 50233: a5 = a1 if a0 != 0\n 50236: a3 = u64 [sp + 0x98]\n 50240: jump @1783 if a5 != 0\n      : @1768 (gas: 7)\n 50244: a0 = ra | t1\n 50247: a1 = 0xffffffe0\n 50257: a2 = u64 [sp + 0x60]\n 50260: a1 = a2 <u a1\n 50263: a1 = 0 if t2 != 0\n 50265: a1 = 0 if a0 != 0\n 50267: jump @1776 if a1 == 0\n      : @1769 (gas: 15)\n 50271: a2 = u64 [sp + 0x88]\n 50275: a5 = u64 [sp + 0x58]\n 50278: a0 = a5 | a2\n 50281: a1 = u64 [sp + 0x90]\n 50285: a1 = a1 | a3\n 50288: a0 = a0 | a1\n 50291: a0 = a0 >> 0x20\n 50294: a1 = a1 | a2\n 50297: a1 = a1 << 0x20\n 50300: a0 = a0 | a1\n 50303: s1 = u64 [sp + 0x70]\n 50306: a2 = u64 [sp + 0x80]\n 50310: a3 = u64 [sp + 0x78]\n 50313: a4 = u64 [sp + 0x68]\n 50316: jump @1776 if a0 != 0\n      : @1770 (gas: 7)\n 50320: a0 = a3 | a4\n 50323: a1 = 0xffffffe0\n 50333: u64 [sp + 0x60] = a1\n 50336: a1 = s1 <u a1\n 50339: a1 = 0 if a2 != 0\n 50341: a1 = 0 if a0 != 0\n 50343: jump @1776 if a1 == 0\n      : @1771 (gas: 7)\n 50347: a0 = u64 [sp + 0x10]\n 50350: i32 a0 = a0 + 0x20\n 50353: u64 [sp + 0x50] = a0\n 50356: i32 a0 = s1 + 0x20\n 50359: a1 = a5\n 50361: s1 = a5\n 50363: ra = 1850, jump @28\n      : @1772 [@dyn 925] (gas: 5)\n 50370: i32 a0 = a0 + 0\n 50372: i32 a1 = s1 + 0\n 50374: a2 = u64 [sp + 0x50]\n 50377: ecalli 2 // 'call_data_copy'\n 50379: fallthrough\n      : @1773 (gas: 27)\n 50380: t0 = u64 [sp + 0x70]\n 50383: a0 = t0 + s1\n 50386: a1 = a0 <u t0\n 50389: a2 = u64 [sp + 0x98]\n 50393: a4 = u64 [sp + 0x80]\n 50397: a2 = a2 + a4\n 50400: a2 = a2 + a1\n 50403: a3 = a2 ^ a4\n 50406: a4 = a2 <u a4\n 50409: a4 = a1 if a3 == 0\n 50412: a1 = u64 [sp + 0x88]\n 50416: a3 = u64 [sp + 0x78]\n 50419: a1 = a1 + a3\n 50422: a3 = a1 <u a3\n 50425: a5 = u64 [sp + 0x90]\n 50429: s1 = u64 [sp + 0x68]\n 50432: a5 = a5 + s1\n 50435: a3 = a3 + a5\n 50438: a4 = a4 + a1\n 50441: a1 = a4 <u a1\n 50444: a1 = a1 + a3\n 50447: a1 = a1 | a4\n 50450: a3 = u64 [sp + 0x60]\n 50453: a3 = a0 <u a3\n 50456: a3 = 0 if a2 != 0\n 50458: a3 = 0 if a1 != 0\n 50460: jump @1776 if a3 == 0\n      : @1774 (gas: 8)\n 50463: s1 = t0\n 50465: i32 a0 = a0 + 0x20\n 50468: u64 [sp + 248] = 0\n 50472: u64 [sp + 240] = 0\n 50476: u64 [sp + 232] = 0\n 50480: a1 = sp + 0xe0\n 50484: u64 [sp + 224] = 0\n 50488: ra = 1852, jump @19\n      : @1775 [@dyn 926] (gas: 14)\n 50495: a0 = u64 [sp + 0x18]\n 50498: a1 = u64 [sp + 0x68]\n 50501: u64 [a0 + 0x18] = a1\n 50504: a1 = u64 [sp + 0x78]\n 50507: u64 [a0 + 0x10] = a1\n 50510: a1 = u64 [sp + 0x80]\n 50514: u64 [a0 + 0x8] = a1\n 50517: u64 [a0] = s1\n 50519: sp = s0 + 0xfffffffffffffe40\n 50523: ra = u64 [sp + 0x1b8]\n 50527: s0 = u64 [sp + 0x1b0]\n 50531: s1 = u64 [sp + 0x1a8]\n 50535: sp = sp + 0x1c0\n 50539: ret\n      : @1776 (gas: 1)\n 50541: trap\n      : @1777 (gas: 2)\n 50542: a1 = 0x20200\n 50547: jump @1784\n      : @1778 (gas: 8)\n 50549: u64 [sp + 208] = 0\n 50553: u64 [sp + 200] = 0\n 50557: u64 [sp + 192] = 0\n 50561: a0 = 0x4e487b7100000000\n 50571: a1 = sp + 0xc0\n 50575: u64 [sp + 0xd8] = a0\n 50579: a0 = 0\n 50581: ra = 1854, jump @19\n      : @1779 [@dyn 927] (gas: 7)\n 50588: u64 [sp + 184] = 0\n 50592: u64 [sp + 176] = 0\n 50596: u64 [sp + 160] = 0x41\n 50601: a0 = 0x4\n 50604: a1 = sp + 0xa0\n 50608: u64 [sp + 168] = 0\n 50612: ra = 1856, jump @19\n      : @1780 [@dyn 928] (gas: 2)\n 50619: a1 = i32 [0x201ec]\n 50624: jump @1782 if a1 >u 63\n      : @1781 (gas: 2)\n 50628: u32 [0x201ec] = 0x40\n 50634: fallthrough\n      : @1782 (gas: 7)\n 50635: a1 = 0x20200\n 50640: i32 a1 = a1 + 0\n 50642: a0 = 0x1\n 50645: a2 = 0x24\n 50648: ecalli 13 // 'seal_return'\n 50650: a1 = 0x20200\n 50655: jump @1784\n      : @1783 (gas: 2)\n 50657: a1 = 0x20200\n 50662: fallthrough\n      : @1784 (gas: 6)\n 50663: i32 a1 = a1 + 0\n 50665: a0 = 0x1\n 50668: a2 = 0\n 50670: ra = 0x742\n 50674: ecalli 13 // 'seal_return'\n 50676: fallthrough\n      : @1785 [@dyn 929] (gas: 13)\n 50677: sp = sp + 0xffffffffffffffc0\n 50680: u64 [sp + 0x38] = ra\n 50683: u64 [sp + 0x30] = s0\n 50686: u64 [sp + 0x28] = s1\n 50689: s0 = sp + 0x40\n 50692: sp = sp & 0xffffffffffffffe0\n 50695: s1 = a0\n 50697: i32 a0 = sp + 0\n 50699: a1 = 0x4\n 50702: ra = 0x744\n 50706: ecalli 3 // 'call_data_load'\n 50708: t0 = 0x746\n 50712: jump @2003\n      : @1786 [@dyn 930] (gas: 1)\n 50715: t0 = 1862, jump @2003\n      : @1787 [@dyn 931] (gas: 1)\n 50721: jump @1790 if a3 == 0\n      : @1788 (gas: 1)\n 50724: t0 = 1864, jump @2018\n      : @1789 [@dyn 932] (gas: 1)\n 50730: ret\n      : @1790 (gas: 7)\n 50732: a1 = 0x20200\n 50737: i32 a1 = a1 + 0\n 50739: a0 = 0x1\n 50742: a2 = 0\n 50744: ra = 0x74a\n 50748: ecalli 13 // 'seal_return'\n 50750: fallthrough\n      : @1791 [@dyn 933] (gas: 10)\n 50751: a4 = u64 [a1 + 0x18]\n 50754: a3 = u64 [a1 + 0x10]\n 50757: t1 = u64 [a1 + 0x8]\n 50760: t0 = a4 >u 0\n 50762: a5 = a3 >u 0\n 50764: a5 = t0 if a4 != 0\n 50767: t0 = a3 | a4\n 50770: a2 = t1 >u 0\n 50772: a2 = a5 if t0 != 0\n 50775: jump @1793 if a2 != 0\n      : @1792 (gas: 24)\n 50778: a1 = u64 [a1]\n 50780: a2 = a3 >> 0x3b\n 50783: a4 = a4 << 0x5\n 50786: t0 = a4 | a2\n 50789: a4 = t1 >> 0x3b\n 50792: a3 = a3 << 0x5\n 50795: a3 = a3 | a4\n 50798: a4 = a1 >> 0x3b\n 50801: t1 = t1 << 0x5\n 50804: a4 = t1 | a4\n 50807: a1 = a1 << 0x5\n 50810: a5 = a1 + 0x20\n 50813: a1 = a5 <u a1\n 50816: a2 = a4 + a1\n 50819: a4 = a2 <u a4\n 50822: a4 = a1 if a1 == 0\n 50825: a4 = a4 + a3\n 50828: a1 = a4 <u a3\n 50831: a1 = a1 + t0\n 50834: u64 [a0] = a5\n 50836: u64 [a0 + 0x8] = a2\n 50839: u64 [a0 + 0x10] = a4\n 50842: u64 [a0 + 0x18] = a1\n 50845: ret\n      : @1793 (gas: 6)\n 50847: sp = sp + 0xffffffffffffffb0\n 50850: u64 [sp + 0x48] = ra\n 50853: u64 [sp + 0x40] = s0\n 50856: s0 = sp + 0x50\n 50859: sp = sp & 0xfffffffffffffff0\n 50862: t0 = 1868, jump @1982\n      : @1794 [@dyn 934] (gas: 1)\n 50868: ra = 1870, jump @19\n      : @1795 [@dyn 935] (gas: 7)\n 50875: u64 [sp + 24] = 0\n 50878: u64 [sp + 16] = 0\n 50881: u64 [sp + 0] = 0x41\n 50884: a0 = 0x4\n 50887: a1 = sp\n 50889: u64 [sp + 8] = 0\n 50892: ra = 1872, jump @19\n      : @1796 [@dyn 936] (gas: 2)\n 50899: a1 = i32 [0x201ec]\n 50904: jump @1798 if a1 >u 63\n      : @1797 (gas: 2)\n 50908: u32 [0x201ec] = 0x40\n 50914: fallthrough\n      : @1798 (gas: 7)\n 50915: a1 = 0x20200\n 50920: i32 a1 = a1 + 0\n 50922: a0 = 0x1\n 50925: a2 = 0x24\n 50928: ra = 0x752\n 50932: ecalli 13 // 'seal_return'\n 50934: fallthrough\n      : @1799 [@dyn 937] (gas: 14)\n 50935: sp = sp + 0xffffffffffffff00\n 50939: u64 [sp + 0xf8] = ra\n 50943: u64 [sp + 0xf0] = s0\n 50947: u64 [sp + 0xe8] = s1\n 50951: s0 = sp + 0x100\n 50955: sp = sp & 0xfffffffffffffff0\n 50958: a1 = u64 [a0 + 0x10]\n 50961: a2 = u64 [a0 + 0x18]\n 50964: a3 = u64 [a0 + 0x8]\n 50967: a0 = u64 [a0]\n 50969: a2 = a2 | a3\n 50972: a0 = a0 | a1\n 50975: a0 = a0 | a2\n 50978: jump @1801 if a0 == 0\n      : @1800 (gas: 6)\n 50981: sp = s0 + 0xffffffffffffff00\n 50985: ra = u64 [sp + 0xf8]\n 50989: s0 = u64 [sp + 0xf0]\n 50993: s1 = u64 [sp + 0xe8]\n 50997: sp = sp + 0x100\n 51001: ret\n      : @1801 (gas: 3)\n 51003: a0 = sp + 0xc0\n 51007: a1 = 0x40\n 51010: ra = 1876, jump @17\n      : @1802 [@dyn 938] (gas: 5)\n 51017: a2 = u64 [sp + 0xd8]\n 51021: s1 = u64 [sp + 0xd0]\n 51025: a0 = u64 [sp + 0xc8]\n 51029: a1 = u64 [sp + 0xc0]\n 51033: t0 = 1878, jump @2039\n      : @1803 [@dyn 939] (gas: 1)\n 51039: jump @1816 if a0 != 0\n      : @1804 (gas: 8)\n 51043: u64 [sp + 176] = 0\n 51047: u64 [sp + 168] = 0\n 51051: u64 [sp + 160] = 0\n 51055: a0 = 0x8c379a000000000\n 51065: a1 = sp + 0xa0\n 51069: u64 [sp + 0xb8] = a0\n 51073: a0 = u64 [sp + 0x18]\n 51076: ra = 1880, jump @19\n      : @1805 [@dyn 940] (gas: 1)\n 51083: t0 = 1882, jump @1997\n      : @1806 [@dyn 941] (gas: 1)\n 51089: jump @1816 if a0 == 0\n      : @1807 (gas: 8)\n 51093: a0 = u64 [sp + 0x18]\n 51096: i32 a0 = a0 + 0x4\n 51099: u64 [sp + 152] = 0\n 51103: u64 [sp + 144] = 0\n 51107: u64 [sp + 128] = 0x20\n 51112: a1 = sp + 0x80\n 51116: u64 [sp + 136] = 0\n 51120: ra = 1884, jump @19\n      : @1808 [@dyn 942] (gas: 1)\n 51127: t0 = 1886, jump @2029\n      : @1809 [@dyn 943] (gas: 1)\n 51133: jump @1816 if a0 == 0\n      : @1810 (gas: 8)\n 51136: s1 = u64 [sp + 0x18]\n 51139: i32 a0 = s1 + 0x24\n 51142: u64 [sp + 120] = 0\n 51145: u64 [sp + 112] = 0\n 51148: u64 [sp + 96] = 0x25\n 51152: a1 = sp + 0x60\n 51155: u64 [sp + 104] = 0\n 51158: ra = 1888, jump @19\n      : @1811 [@dyn 944] (gas: 4)\n 51165: a0 = 0x100000000\n 51175: u64 [sp] = a0\n 51177: a0 = 0xffffffbc\n 51187: t0 = 1890, jump @2013\n      : @1812 [@dyn 945] (gas: 1)\n 51193: jump @1816 if a0 == 0\n      : @1813 (gas: 12)\n 51196: s1 = u64 [sp + 0x18]\n 51199: i32 a0 = s1 + 0x44\n 51202: a1 = u64 [0x201b8]\n 51207: u64 [sp + 0x58] = a1\n 51210: a1 = u64 [0x201c0]\n 51215: a2 = u64 [0x201c8]\n 51220: a3 = u64 [0x201d0]\n 51225: u64 [sp + 0x50] = a1\n 51228: u64 [sp + 0x48] = a2\n 51231: a1 = sp + 0x40\n 51234: u64 [sp + 0x40] = a3\n 51237: ra = 1892, jump @19\n      : @1814 [@dyn 946] (gas: 3)\n 51244: a0 = u64 [sp]\n 51246: a0 = a0 + 0xffffffffffffff9c\n 51249: t0 = 1894, jump @2013\n      : @1815 [@dyn 947] (gas: 1)\n 51255: jump @1817 if a0 != 0\n      : @1816 (gas: 1)\n 51258: trap\n      : @1817 (gas: 9)\n 51259: s1 = u64 [sp + 0x18]\n 51262: i32 a0 = s1 + 0x64\n 51265: u64 [sp + 48] = 0\n 51268: u64 [sp + 40] = 0\n 51271: a1 = 0x70656e7365000000\n 51281: u64 [sp + 0x38] = a1\n 51284: a1 = sp + 0x20\n 51287: u64 [sp + 32] = 0\n 51290: ra = 1896, jump @19\n      : @1818 [@dyn 948] (gas: 3)\n 51297: a1 = 0x84\n 51301: a0 = s1\n 51303: ra = 1898, jump @28\n      : @1819 [@dyn 949] (gas: 6)\n 51310: i32 a1 = a0 + 0\n 51312: a0 = 0x1\n 51315: a2 = 0x84\n 51319: ra = 0x76c\n 51323: ecalli 13 // 'seal_return'\n 51325: fallthrough\n      : @1820 [@dyn 950] (gas: 22)\n 51326: sp = sp + 0xfffffffffffffe30\n 51330: u64 [sp + 0x1c8] = ra\n 51334: u64 [sp + 0x1c0] = s0\n 51338: u64 [sp + 0x1b8] = s1\n 51342: s0 = sp + 0x1d0\n 51346: sp = sp & 0xfffffffffffffff0\n 51349: a2 = u64 [a1]\n 51351: a3 = u64 [a1 + 0x8]\n 51354: a4 = u64 [a1 + 0x10]\n 51357: a1 = u64 [a1 + 0x18]\n 51360: u64 [sp + 0x8] = a0\n 51363: u64 [sp + 0x40] = a1\n 51366: u64 [sp + 0x188] = a1\n 51370: u64 [sp + 0x78] = a4\n 51373: u64 [sp + 0x180] = a4\n 51377: u64 [sp + 0x80] = a3\n 51381: u64 [sp + 0x178] = a3\n 51385: a0 = sp + 0x190\n 51389: a1 = sp + 0x170\n 51393: u64 [sp + 0x88] = a2\n 51397: u64 [sp + 0x170] = a2\n 51401: ra = 1902, jump @1791\n      : @1821 [@dyn 951] (gas: 11)\n 51407: a0 = u64 [sp + 0x190]\n 51411: u64 [sp + 0x70] = a0\n 51414: a0 = u64 [sp + 0x198]\n 51418: u64 [sp + 0x58] = a0\n 51421: a0 = u64 [sp + 0x1a0]\n 51425: u64 [sp + 0x50] = a0\n 51428: a0 = u64 [sp + 0x1a8]\n 51432: u64 [sp + 0x48] = a0\n 51435: a0 = sp + 0x150\n 51439: a1 = 0x40\n 51442: ra = 1904, jump @17\n      : @1822 [@dyn 952] (gas: 23)\n 51449: a1 = u64 [sp + 0x168]\n 51453: u64 [sp + 0x68] = a1\n 51456: a0 = u64 [sp + 0x160]\n 51460: s1 = u64 [sp + 0x158]\n 51464: a2 = u64 [sp + 0x150]\n 51468: u64 [sp + 0x10] = a2\n 51471: a3 = u64 [sp + 0x48]\n 51474: u64 [sp + 0x128] = a3\n 51478: a3 = a0\n 51480: u64 [sp + 0x18] = a0\n 51483: a0 = u64 [sp + 0x50]\n 51486: u64 [sp + 0x120] = a0\n 51490: a0 = u64 [sp + 0x58]\n 51493: u64 [sp + 0x118] = a0\n 51497: a0 = u64 [sp + 0x70]\n 51500: u64 [sp + 0x110] = a0\n 51504: u64 [sp + 0x148] = a1\n 51508: u64 [sp + 0x140] = a3\n 51512: u64 [sp + 0x138] = s1\n 51516: a0 = sp + 0x130\n 51520: a1 = sp + 0x110\n 51524: u64 [sp + 0x130] = a2\n 51528: ra = 1906, jump @1749\n      : @1823 [@dyn 953] (gas: 6)\n 51534: a0 = u64 [sp + 0x10]\n 51537: u64 [sp + 0x60] = s1\n 51540: a2 = u64 [sp + 0x68]\n 51543: a2 = a2 | s1\n 51546: a3 = u64 [sp + 0x18]\n 51549: t0 = 1908, jump @2004\n      : @1824 [@dyn 954] (gas: 1)\n 51555: jump @1835 if a1 != 0\n      : @1825 (gas: 10)\n 51559: a1 = u64 [sp + 0x88]\n 51563: u64 [sp + 0xf0] = a1\n 51567: a1 = u64 [sp + 0x80]\n 51571: u64 [sp + 0xf8] = a1\n 51575: a1 = u64 [sp + 0x78]\n 51578: u64 [sp + 0x100] = a1\n 51582: a1 = sp + 0xf0\n 51586: s1 = u64 [sp + 0x40]\n 51589: u64 [sp + 0x108] = s1\n 51593: ra = 1910, jump @19\n      : @1826 [@dyn 955] (gas: 10)\n 51600: u64 [sp + 0xc8] = s1\n 51604: a0 = u64 [sp + 0x78]\n 51607: u64 [sp + 0xc0] = a0\n 51611: a0 = u64 [sp + 0x80]\n 51615: u64 [sp + 0xb8] = a0\n 51619: a0 = sp + 0xd0\n 51623: a1 = sp + 0xb0\n 51627: a2 = u64 [sp + 0x88]\n 51631: u64 [sp + 0xb0] = a2\n 51635: ra = 1912, jump @1791\n      : @1827 [@dyn 956] (gas: 43)\n 51641: t1 = 0\n 51643: t2 = 0\n 51645: t0 = 0\n 51647: a5 = 0\n 51649: a0 = u64 [sp + 0xd0]\n 51653: ra = u64 [sp + 0xe8]\n 51657: a2 = u64 [sp + 0xd8]\n 51661: a3 = u64 [sp + 0xe0]\n 51665: a4 = a0 + 0xffffffffffffffe0\n 51668: u64 [sp + 0x58] = a4\n 51671: a0 = a4 <u a0\n 51674: a4 = a2 + a0\n 51677: a4 = a4 + 0xffffffffffffffff\n 51680: a1 = a4 ^ a2\n 51683: u64 [sp + 0x50] = a4\n 51686: a2 = a4 <u a2\n 51689: a2 = a0 if a1 == 0\n 51692: a0 = a3 + 0xffffffffffffffff\n 51695: a2 = a2 + a0\n 51698: u64 [sp + 0x48] = a2\n 51701: a0 = a2 <u a0\n 51704: a2 = a3 <u 0x1\n 51707: a1 = ra - a2\n 51710: a0 = a0 + a1\n 51713: u64 [sp + 0x40] = a0\n 51716: a1 = u64 [sp + 0x10]\n 51719: a0 = a1 + 0x20\n 51722: u64 [sp + 0x38] = a0\n 51725: a0 = a0 <u a1\n 51728: a4 = u64 [sp + 0x60]\n 51731: a1 = a4 + a0\n 51734: u64 [sp + 0x30] = a1\n 51737: a1 = a1 <u a4\n 51740: a1 = a0 if a0 == 0\n 51743: a0 = u64 [sp + 0x18]\n 51746: a1 = a1 + a0\n 51749: u64 [sp + 0x28] = a1\n 51752: a0 = a1 <u a0\n 51755: s1 = u64 [sp + 0x68]\n 51758: a0 = a0 + s1\n 51761: u64 [sp + 0x20] = a0\n 51764: ra = s1\n 51766: fallthrough\n      : @1828 (gas: 16)\n 51767: a0 = u64 [sp + 0x58]\n 51770: a0 = t1 <u a0\n 51773: a2 = u64 [sp + 0x50]\n 51776: a1 = t2 ^ a2\n 51779: a2 = t2 <u a2\n 51782: a2 = a0 if a1 == 0\n 51785: s1 = u64 [sp + 0x48]\n 51788: a0 = t0 <u s1\n 51791: a3 = u64 [sp + 0x40]\n 51794: a1 = a5 ^ a3\n 51797: a3 = a5 <u a3\n 51800: a3 = a0 if a1 == 0\n 51803: a0 = t0 ^ s1\n 51806: a0 = a0 | a1\n 51809: a3 = a2 if a0 == 0\n 51812: jump @1834 if a3 == 0\n      : @1829 (gas: 20)\n 51816: u64 [sp + 0x80] = t1\n 51820: a1 = u64 [sp + 0x38]\n 51823: a0 = a1 + t1\n 51826: a1 = a0 <u a1\n 51829: u64 [sp + 0x78] = t2\n 51832: a4 = u64 [sp + 0x30]\n 51835: a2 = a4 + t2\n 51838: a2 = a2 + a1\n 51841: a3 = a2 ^ a4\n 51844: a4 = a2 <u a4\n 51847: a4 = a1 if a3 == 0\n 51850: u64 [sp + 0x88] = t0\n 51854: a3 = u64 [sp + 0x28]\n 51857: a1 = a3 + t0\n 51860: a3 = a1 <u a3\n 51863: u64 [sp + 0x70] = a5\n 51866: s1 = u64 [sp + 0x20]\n 51869: a5 = a5 + s1\n 51872: a3 = a3 + a5\n 51875: t0 = 1914, jump @2012\n      : @1830 [@dyn 957] (gas: 1)\n 51881: jump @1835 if a1 != 0\n      : @1831 (gas: 6)\n 51884: u64 [sp + 168] = 0\n 51888: u64 [sp + 160] = 0\n 51892: u64 [sp + 152] = 0\n 51896: a1 = sp + 0x90\n 51900: u64 [sp + 144] = 0x60\n 51905: ra = 1916, jump @19\n      : @1832 [@dyn 958] (gas: 5)\n 51912: a1 = u64 [sp + 0x80]\n 51916: a0 = a1 + 0x20\n 51919: a1 = a0 <u a1\n 51922: a3 = u64 [sp + 0x78]\n 51925: t0 = 1918, jump @2010\n      : @1833 [@dyn 959] (gas: 11)\n 51931: a1 = u64 [sp + 0x88]\n 51935: a3 = a3 + a1\n 51938: a1 = a3 <u a1\n 51941: a5 = u64 [sp + 0x70]\n 51944: a5 = a5 + a1\n 51947: t1 = a0\n 51949: t2 = a2\n 51951: t0 = a3\n 51953: ra = u64 [sp + 0x68]\n 51956: a4 = u64 [sp + 0x60]\n 51959: jump @1828\n      : @1834 (gas: 13)\n 51962: a0 = u64 [sp + 0x8]\n 51965: a1 = u64 [sp + 0x10]\n 51968: u64 [a0] = a1\n 51970: u64 [a0 + 0x8] = a4\n 51973: a1 = u64 [sp + 0x18]\n 51976: u64 [a0 + 0x10] = a1\n 51979: u64 [a0 + 0x18] = ra\n 51982: sp = s0 + 0xfffffffffffffe30\n 51986: ra = u64 [sp + 0x1c8]\n 51990: s0 = u64 [sp + 0x1c0]\n 51994: s1 = u64 [sp + 0x1b8]\n 51998: sp = sp + 0x1d0\n 52002: ret\n      : @1835 (gas: 1)\n 52004: trap\n      : @1836 (gas: 22)\n 52005: sp = sp + 0xfffffffffffffe80\n 52009: u64 [sp + 0x178] = ra\n 52013: u64 [sp + 0x170] = s0\n 52017: u64 [sp + 0x168] = s1\n 52021: s0 = sp + 0x180\n 52025: sp = sp & 0xfffffffffffffff0\n 52028: a2 = u64 [a1]\n 52030: a3 = u64 [a1 + 0x8]\n 52033: a4 = u64 [a1 + 0x10]\n 52036: a1 = u64 [a1 + 0x18]\n 52039: u64 [sp] = a0\n 52041: u64 [sp + 0x8] = a1\n 52044: u64 [sp + 0x138] = a1\n 52048: u64 [sp + 0x28] = a4\n 52051: u64 [sp + 0x130] = a4\n 52055: u64 [sp + 0x30] = a3\n 52058: u64 [sp + 0x128] = a3\n 52062: a0 = sp + 0x140\n 52066: a1 = sp + 0x120\n 52070: u64 [sp + 0x38] = a2\n 52073: u64 [sp + 0x120] = a2\n 52077: ra = 1920, jump @1791\n      : @1837 [@dyn 960] (gas: 11)\n 52083: a0 = u64 [sp + 0x140]\n 52087: u64 [sp + 0x40] = a0\n 52090: a0 = u64 [sp + 0x148]\n 52094: u64 [sp + 0x20] = a0\n 52097: a0 = u64 [sp + 0x150]\n 52101: u64 [sp + 0x18] = a0\n 52104: a0 = u64 [sp + 0x158]\n 52108: u64 [sp + 0x10] = a0\n 52111: a0 = sp + 0x100\n 52115: a1 = 0x40\n 52118: ra = 1922, jump @17\n      : @1838 [@dyn 961] (gas: 22)\n 52125: a0 = u64 [sp + 0x118]\n 52129: u64 [sp + 0x50] = a0\n 52132: a1 = u64 [sp + 0x110]\n 52136: u64 [sp + 0x48] = a1\n 52139: a3 = u64 [sp + 0x108]\n 52143: u64 [sp + 0x58] = a3\n 52146: s1 = u64 [sp + 0x100]\n 52150: a2 = u64 [sp + 0x10]\n 52153: u64 [sp + 0xd8] = a2\n 52157: a2 = u64 [sp + 0x18]\n 52160: u64 [sp + 0xd0] = a2\n 52164: a2 = u64 [sp + 0x20]\n 52167: u64 [sp + 0xc8] = a2\n 52171: a2 = u64 [sp + 0x40]\n 52174: u64 [sp + 0xc0] = a2\n 52178: u64 [sp + 0xf8] = a0\n 52182: u64 [sp + 0xf0] = a1\n 52186: u64 [sp + 0xe8] = a3\n 52190: a0 = sp + 0xe0\n 52194: a1 = sp + 0xc0\n 52198: u64 [sp + 0xe0] = s1\n 52202: ra = 1924, jump @1749\n      : @1839 [@dyn 962] (gas: 12)\n 52208: a0 = u64 [sp + 0x50]\n 52211: a1 = u64 [sp + 0x58]\n 52214: a0 = a0 | a1\n 52217: u64 [sp + 0x40] = s1\n 52220: a2 = u64 [sp + 0x48]\n 52223: a1 = s1 | a2\n 52226: a1 = a1 | a0\n 52229: a1 = a1 >> 0x20\n 52232: a0 = a0 | a2\n 52235: a0 = a0 << 0x20\n 52238: a0 = a0 | a1\n 52241: jump @1846 if a0 != 0\n      : @1840 (gas: 11)\n 52245: a0 = u64 [sp + 0x38]\n 52248: u64 [sp + 0xa0] = a0\n 52252: a0 = u64 [sp + 0x30]\n 52255: u64 [sp + 0xa8] = a0\n 52259: a0 = u64 [sp + 0x28]\n 52262: u64 [sp + 0xb0] = a0\n 52266: a1 = sp + 0xa0\n 52270: s1 = u64 [sp + 0x8]\n 52273: u64 [sp + 0xb8] = s1\n 52277: a0 = u64 [sp + 0x40]\n 52280: ra = 1926, jump @19\n      : @1841 [@dyn 963] (gas: 10)\n 52287: u64 [sp + 0x78] = s1\n 52290: a0 = u64 [sp + 0x28]\n 52293: u64 [sp + 0x70] = a0\n 52296: a0 = u64 [sp + 0x30]\n 52299: u64 [sp + 0x68] = a0\n 52302: a0 = sp + 0x80\n 52306: a1 = sp + 0x60\n 52309: a2 = u64 [sp + 0x38]\n 52312: u64 [sp + 0x60] = a2\n 52315: ra = 1928, jump @1791\n      : @1842 [@dyn 964] (gas: 25)\n 52321: a0 = u64 [sp + 0x80]\n 52325: s1 = u64 [sp + 0x98]\n 52329: a2 = u64 [sp + 0x88]\n 52333: a3 = u64 [sp + 0x90]\n 52337: a1 = a0 + 0xffffffffffffffe0\n 52340: a0 = a1 <u a0\n 52343: a4 = a2 + a0\n 52346: a4 = a4 + 0xffffffffffffffff\n 52349: a5 = a4 ^ a2\n 52352: a2 = a4 <u a2\n 52355: a2 = a0 if a5 == 0\n 52358: a0 = a3 + 0xffffffffffffffff\n 52361: a2 = a2 + a0\n 52364: a0 = a2 <u a0\n 52367: a3 = a3 <u 0x1\n 52370: s1 = s1 - a3\n 52373: a0 = a0 + s1\n 52376: a3 = a1 | a2\n 52379: a0 = a0 | a4\n 52382: a3 = a3 | a0\n 52385: a3 = a3 >> 0x20\n 52388: a0 = a0 | a2\n 52391: a0 = a0 << 0x20\n 52394: a0 = a0 | a3\n 52397: jump @1846 if a0 != 0\n      : @1843 (gas: 10)\n 52400: a0 = u64 [sp + 0x50]\n 52403: a2 = u64 [sp + 0x48]\n 52406: a0 = a0 | a2\n 52409: a4 = 0xffffffe0\n 52419: a2 = u64 [sp + 0x40]\n 52422: a2 = a2 <u a4\n 52425: a4 = u64 [sp + 0x58]\n 52428: a2 = 0 if a4 != 0\n 52430: a2 = 0 if a0 != 0\n 52432: jump @1846 if a2 == 0\n      : @1844 (gas: 6)\n 52435: a0 = i32 [0x201e8]\n 52440: u64 [sp + 0x38] = a0\n 52443: s1 = u64 [sp + 0x40]\n 52446: i32 a0 = s1 + 0x20\n 52449: u64 [sp + 0x30] = a1\n 52452: ra = 1930, jump @28\n      : @1845 [@dyn 965] (gas: 18)\n 52459: i32 a0 = a0 + 0\n 52461: a1 = i32 [sp + 0x30]\n 52464: a2 = u64 [sp + 0x38]\n 52467: ecalli 2 // 'call_data_copy'\n 52469: a0 = u64 [sp]\n 52471: a1 = u64 [sp + 0x50]\n 52474: u64 [a0 + 0x18] = a1\n 52477: a1 = u64 [sp + 0x48]\n 52480: u64 [a0 + 0x10] = a1\n 52483: a1 = u64 [sp + 0x58]\n 52486: u64 [a0 + 0x8] = a1\n 52489: u64 [a0] = s1\n 52491: sp = s0 + 0xfffffffffffffe80\n 52495: ra = u64 [sp + 0x178]\n 52499: s0 = u64 [sp + 0x170]\n 52503: s1 = u64 [sp + 0x168]\n 52507: sp = sp + 0x180\n 52511: ret\n      : @1846 (gas: 1)\n 52513: trap\n      : @1847 (gas: 31)\n 52514: sp = sp + 0xfffffffffffffee0\n 52518: u64 [sp + 0x118] = ra\n 52522: u64 [sp + 0x110] = s0\n 52526: u64 [sp + 0x108] = s1\n 52530: s0 = sp + 0x120\n 52534: sp = sp & 0xffffffffffffffe0\n 52537: s1 = sp\n 52539: u64 [s1 + 0x38] = a0\n 52542: a0 = u64 [a2]\n 52544: u64 [s1 + 0x40] = a0\n 52547: a0 = u64 [a2 + 0x8]\n 52550: u64 [s1 + 0x48] = a0\n 52553: a0 = u64 [a2 + 0x10]\n 52556: u64 [s1 + 0x50] = a0\n 52559: a0 = u64 [a2 + 0x18]\n 52562: u64 [s1 + 0x58] = a0\n 52565: a0 = u64 [a1 + 0x18]\n 52568: a2 = u64 [a1 + 0x10]\n 52571: a3 = u64 [a1 + 0x8]\n 52574: a1 = u64 [a1]\n 52576: u64 [s1 + 0x30] = a0\n 52579: u64 [s1 + 0xf8] = a0\n 52583: u64 [s1 + 0x28] = a2\n 52586: u64 [s1 + 0xf0] = a2\n 52590: u64 [s1 + 0x20] = a3\n 52593: u64 [s1 + 0xe8] = a3\n 52597: u64 [s1 + 0x18] = a1\n 52600: u64 [s1 + 0xe0] = a1\n 52604: a0 = s1 + 0xc0\n 52608: a1 = s1 + 0xe0\n 52612: ra = 1932, jump @21\n      : @1848 [@dyn 966] (gas: 20)\n 52619: a0 = u64 [s1 + 0xd8]\n 52623: t0 = u64 [s1 + 0xc0]\n 52627: a2 = u64 [s1 + 0xd0]\n 52631: a3 = u64 [s1 + 0xc8]\n 52635: a1 = u64 [s1 + 0x58]\n 52638: a4 = a0 ^ a1\n 52641: a1 = a1 <u a0\n 52644: a0 = u64 [s1 + 0x50]\n 52647: a5 = a0 <u a2\n 52650: a5 = a1 if a4 != 0\n 52653: a1 = u64 [s1 + 0x48]\n 52656: t1 = a3 ^ a1\n 52659: a3 = a1 <u a3\n 52662: a1 = u64 [s1 + 0x40]\n 52665: a1 = a1 <u t0\n 52668: a1 = a3 if t1 != 0\n 52671: a0 = a0 ^ a2\n 52674: a0 = a0 | a4\n 52677: a1 = a5 if a0 != 0\n 52680: jump @1853 if a1 == 0\n      : @1849 (gas: 11)\n 52684: a0 = u64 [s1 + 0x18]\n 52687: u64 [s1 + 0x60] = a0\n 52690: a0 = u64 [s1 + 0x20]\n 52693: u64 [s1 + 0x68] = a0\n 52696: a0 = u64 [s1 + 0x28]\n 52699: u64 [s1 + 0x70] = a0\n 52702: a1 = s1 + 0x60\n 52705: a0 = u64 [s1 + 0x30]\n 52708: u64 [s1 + 0x78] = a0\n 52711: a0 = 0\n 52713: ra = 1934, jump @19\n      : @1850 [@dyn 967] (gas: 2)\n 52720: a1 = i32 [0x201ec]\n 52725: jump @1852 if a1 >u 31\n      : @1851 (gas: 2)\n 52729: u32 [0x201ec] = 0x20\n 52735: fallthrough\n      : @1852 (gas: 72)\n 52736: a0 = sp + 0xffffffffffffffe0\n 52739: a2 = a0 & 0xffffffffffffffe0\n 52742: u64 [s1 + 0x30] = a2\n 52745: sp = a2\n 52747: a0 = 0x20200\n 52752: i32 a0 = a0 + 0\n 52754: i32 a2 = a2 + 0\n 52756: a1 = 0x20\n 52759: ecalli 8 // 'hash_keccak_256'\n 52761: t0 = u64 [s1 + 0x30]\n 52764: a0 = u64 [t0 + 0x18]\n 52767: a1 = u64 [t0 + 0x10]\n 52770: a3 = reverse a0\n 52772: a1 = reverse a1\n 52774: a4 = 0x5\n 52777: a0 = u64 [s1 + 0x40]\n 52780: a2 = a0 << 0x2\n 52783: t1 = a2 + a0\n 52786: a4 = a0 mulhu a4\n 52789: a2 = u64 [s1 + 0x48]\n 52792: a5 = a2 << 0x2\n 52795: a5 = a5 + a2\n 52798: a4 = a4 + a5\n 52801: t1 = t1 + a3\n 52804: a3 = t1 <u a3\n 52807: a0 = a1 + a4\n 52810: ra = a0 + a3\n 52813: a0 = ra ^ a1\n 52816: a1 = ra <u a1\n 52819: a1 = a3 if a0 == 0\n 52822: a0 = a4 <u a5\n 52825: a4 = 0x5\n 52828: a3 = a2 mulhu a4\n 52831: a0 = a0 + a3\n 52834: a2 = u64 [s1 + 0x50]\n 52837: a3 = a2 << 0x2\n 52840: t2 = a3 + a2\n 52843: a4 = a2 mulhu a4\n 52846: a5 = u64 [t0]\n 52848: a2 = u64 [s1 + 0x58]\n 52851: a3 = a2 << 0x2\n 52854: a3 = a3 + a2\n 52857: a3 = a3 + a4\n 52860: a4 = reverse a5\n 52862: a3 = a3 + a4\n 52865: a4 = u64 [t0 + 0x8]\n 52868: t2 = t2 + a0\n 52871: a0 = t2 <u a0\n 52874: a0 = a0 + a3\n 52877: a3 = reverse a4\n 52879: t2 = t2 + a3\n 52882: a3 = t2 <u a3\n 52885: a0 = a0 + a3\n 52888: a1 = a1 + t2\n 52891: a3 = a1 <u t2\n 52894: a0 = a0 + a3\n 52897: a3 = u64 [s1 + 0x38]\n 52900: u64 [a3] = t1\n 52902: u64 [a3 + 0x8] = ra\n 52905: u64 [a3 + 0x10] = a1\n 52908: u64 [a3 + 0x18] = a0\n 52911: a0 = 0\n 52913: u64 [a3 + 56] = 0\n 52916: u64 [a3 + 48] = 0\n 52919: u64 [a3 + 40] = 0\n 52922: u64 [a3 + 32] = 0\n 52925: sp = s0 + 0xfffffffffffffee0\n 52929: ra = u64 [sp + 0x118]\n 52933: s0 = u64 [sp + 0x110]\n 52937: s1 = u64 [sp + 0x108]\n 52941: sp = sp + 0x120\n 52945: ret\n      : @1853 (gas: 8)\n 52947: u64 [s1 + 176] = 0\n 52951: u64 [s1 + 168] = 0\n 52955: u64 [s1 + 160] = 0\n 52959: a0 = 0x4e487b7100000000\n 52969: a1 = s1 + 0xa0\n 52973: u64 [s1 + 0xb8] = a0\n 52977: a0 = 0\n 52979: ra = 1936, jump @19\n      : @1854 [@dyn 968] (gas: 7)\n 52986: u64 [s1 + 152] = 0\n 52990: u64 [s1 + 144] = 0\n 52994: u64 [s1 + 128] = 0x32\n 52999: a0 = 0x4\n 53002: a1 = s1 + 0x80\n 53006: u64 [s1 + 136] = 0\n 53010: ra = 1938, jump @19\n      : @1855 [@dyn 969] (gas: 2)\n 53017: a1 = i32 [0x201ec]\n 53022: jump @1857 if a1 >u 63\n      : @1856 (gas: 2)\n 53026: u32 [0x201ec] = 0x40\n 53032: fallthrough\n      : @1857 (gas: 7)\n 53033: a1 = 0x20200\n 53038: i32 a1 = a1 + 0\n 53040: a0 = 0x1\n 53043: a2 = 0x24\n 53046: ra = 0x794\n 53050: ecalli 13 // 'seal_return'\n 53052: fallthrough\n      : @1858 [@dyn 970] (gas: 22)\n 53053: sp = sp + 0xffffffffffffff40\n 53057: u64 [sp + 0xb8] = ra\n 53061: u64 [sp + 0xb0] = s0\n 53065: u64 [sp + 0xa8] = s1\n 53069: s0 = sp + 0xc0\n 53073: sp = sp & 0xfffffffffffffff0\n 53076: a4 = u64 [a1 + 0x10]\n 53079: a3 = u64 [a1 + 0x18]\n 53082: a5 = u64 [a1 + 0x8]\n 53085: a1 = u64 [a1]\n 53087: u64 [sp + 0x28] = a3\n 53090: u64 [sp + 0x20] = a5\n 53093: a5 = a5 | a3\n 53096: a3 = a1 | a4\n 53099: a3 = a3 | a5\n 53102: a3 = a3 >> 0x20\n 53105: u64 [sp + 0x30] = a4\n 53108: a4 = a4 | a5\n 53111: a4 = a4 << 0x20\n 53114: a3 = a3 | a4\n 53117: u64 [sp + 0x38] = a0\n 53120: jump @1862 if a3 != 0\n      : @1859 (gas: 10)\n 53124: a0 = u64 [a2 + 0x18]\n 53127: u64 [sp + 0x10] = a0\n 53130: s1 = u64 [a2 + 0x10]\n 53133: a0 = u64 [a2 + 0x8]\n 53136: u64 [sp + 0x8] = a0\n 53139: a0 = u64 [a2]\n 53141: u64 [sp] = a0\n 53143: a0 = sp + 0x80\n 53147: u64 [sp + 0x18] = a1\n 53150: ra = 1942, jump @17\n      : @1860 [@dyn 971] (gas: 19)\n 53157: t0 = u64 [sp + 0x10]\n 53160: a5 = u64 [sp + 0x8]\n 53163: t1 = u64 [sp]\n 53165: a0 = u64 [sp + 0x88]\n 53169: a1 = u64 [sp + 0x98]\n 53173: a2 = u64 [sp + 0x80]\n 53177: a3 = u64 [sp + 0x90]\n 53181: a4 = a0 ^ a5\n 53184: a0 = a5 <u a0\n 53187: a2 = t1 <u a2\n 53190: a2 = a0 if a4 != 0\n 53193: a0 = s1 <u a3\n 53196: a4 = a1 ^ t0\n 53199: a1 = t0 <u a1\n 53202: a1 = a0 if a4 == 0\n 53205: a3 = a3 ^ s1\n 53208: a3 = a3 | a4\n 53211: a1 = a2 if a3 == 0\n 53214: jump @1863 if a1 == 0\n      : @1861 (gas: 47)\n 53218: a0 = s1 >> 0x3b\n 53221: a1 = t0 << 0x5\n 53224: t0 = a1 | a0\n 53227: a1 = a5 >> 0x3b\n 53230: s1 = s1 << 0x5\n 53233: a1 = a1 | s1\n 53236: a2 = t1 >> 0x3b\n 53239: a3 = a5 << 0x5\n 53242: a2 = a2 | a3\n 53245: a3 = t1 << 0x5\n 53248: a0 = u64 [sp + 0x18]\n 53251: a3 = a3 + a0\n 53254: a4 = a3 <u a0\n 53257: a5 = u64 [sp + 0x20]\n 53260: a2 = a2 + a5\n 53263: a2 = a2 + a4\n 53266: a0 = a2 ^ a5\n 53269: s1 = a2 <u a5\n 53272: s1 = a4 if a0 == 0\n 53275: a5 = u64 [sp + 0x30]\n 53278: a1 = a1 + a5\n 53281: s1 = s1 + a1\n 53284: a4 = s1 <u a1\n 53287: a1 = a1 <u a5\n 53290: a5 = u64 [sp + 0x28]\n 53293: a0 = a5 + t0\n 53296: a0 = a0 + a1\n 53299: a0 = a0 + a4\n 53302: a1 = a3 + 0x20\n 53305: a3 = a1 <u a3\n 53308: a4 = a2 + a3\n 53311: a2 = a4 <u a2\n 53314: a2 = a3 if a3 == 0\n 53317: a2 = a2 + s1\n 53320: a3 = a2 <u s1\n 53323: a0 = a0 + a3\n 53326: a3 = u64 [sp + 0x38]\n 53329: u64 [a3] = a1\n 53331: u64 [a3 + 0x8] = a4\n 53334: u64 [a3 + 0x10] = a2\n 53337: u64 [a3 + 0x18] = a0\n 53340: sp = s0 + 0xffffffffffffff40\n 53344: ra = u64 [sp + 0xb8]\n 53348: s0 = u64 [sp + 0xb0]\n 53352: s1 = u64 [sp + 0xa8]\n 53356: sp = sp + 0xc0\n 53360: ret\n      : @1862 (gas: 1)\n 53362: trap\n      : @1863 (gas: 8)\n 53363: u64 [sp + 112] = 0\n 53366: u64 [sp + 104] = 0\n 53369: u64 [sp + 96] = 0\n 53372: a0 = 0x4e487b7100000000\n 53382: a1 = sp + 0x60\n 53385: u64 [sp + 0x78] = a0\n 53388: a0 = 0\n 53390: ra = 1944, jump @19\n      : @1864 [@dyn 972] (gas: 7)\n 53397: u64 [sp + 88] = 0\n 53400: u64 [sp + 80] = 0\n 53403: u64 [sp + 64] = 0x32\n 53407: a0 = 0x4\n 53410: a1 = sp + 0x40\n 53413: u64 [sp + 72] = 0\n 53416: ra = 1946, jump @19\n      : @1865 [@dyn 973] (gas: 2)\n 53423: a1 = i32 [0x201ec]\n 53428: jump @1867 if a1 >u 63\n      : @1866 (gas: 2)\n 53432: u32 [0x201ec] = 0x40\n 53438: fallthrough\n      : @1867 (gas: 7)\n 53439: a1 = 0x20200\n 53444: i32 a1 = a1 + 0\n 53446: a0 = 0x1\n 53449: a2 = 0x24\n 53452: ra = 0x79c\n 53456: ecalli 13 // 'seal_return'\n 53458: fallthrough\n      : @1868 [@dyn 974] (gas: 33)\n 53459: sp = sp + 0xffffffffffffffa0\n 53462: u64 [sp + 0x58] = ra\n 53465: u64 [sp + 0x50] = s0\n 53468: u64 [sp + 0x48] = s1\n 53471: s0 = sp + 0x60\n 53474: sp = sp & 0xfffffffffffffff0\n 53477: a2 = u64 [a1 + 0x10]\n 53480: a5 = u64 [a1 + 0x8]\n 53483: a4 = u64 [a1]\n 53485: a1 = u64 [a1 + 0x18]\n 53488: t0 = a2 << 0x3f\n 53491: a3 = a5 >> 0x1\n 53494: t0 = a3 | t0\n 53497: a3 = a1 << 0x3f\n 53500: a2 = a2 >> 0x1\n 53503: a3 = a3 | a2\n 53506: a5 = a5 << 0x3f\n 53509: a2 = a4 >> 0x1\n 53512: a5 = a5 | a2\n 53515: t1 = a1 >> 0x1\n 53518: a4 = a4 & 0x1\n 53521: a1 = -a4\n 53523: s1 = a4 <u 0x1\n 53526: a2 = a5 & 0x7f\n 53529: t2 = a1 & a3\n 53532: a3 = a1 & t0\n 53535: a2 = a5 if a4 != 0\n 53538: a4 = a1 & t1\n 53541: a1 = a2 <u 0x20\n 53544: a1 = 0 if a3 != 0\n 53546: a5 = t2 | a4\n 53549: a1 = 0 if a5 != 0\n 53551: jump @1871 if s1 != a1\n      : @1869 (gas: 5)\n 53554: u64 [a0] = a2\n 53556: u64 [a0 + 0x8] = a3\n 53559: u64 [a0 + 0x10] = t2\n 53562: u64 [a0 + 0x18] = a4\n 53565: t0 = 1950, jump @2030\n      : @1870 [@dyn 975] (gas: 1)\n 53571: ret\n      : @1871 (gas: 1)\n 53573: t0 = 1952, jump @1982\n      : @1872 [@dyn 976] (gas: 1)\n 53579: ra = 1954, jump @19\n      : @1873 [@dyn 977] (gas: 7)\n 53586: u64 [sp + 24] = 0\n 53589: u64 [sp + 16] = 0\n 53592: u64 [sp + 0] = 0x22\n 53595: a0 = 0x4\n 53598: a1 = sp\n 53600: u64 [sp + 8] = 0\n 53603: ra = 1956, jump @19\n      : @1874 [@dyn 978] (gas: 2)\n 53610: a1 = i32 [0x201ec]\n 53615: jump @1876 if a1 >u 63\n      : @1875 (gas: 2)\n 53619: u32 [0x201ec] = 0x40\n 53625: fallthrough\n      : @1876 (gas: 7)\n 53626: a1 = 0x20200\n 53631: i32 a1 = a1 + 0\n 53633: a0 = 0x1\n 53636: a2 = 0x24\n 53639: ra = 0x7a6\n 53643: ecalli 13 // 'seal_return'\n 53645: fallthrough\n      : @1877 [@dyn 979] (gas: 24)\n 53646: sp = sp + 0xfffffffffffffda0\n 53650: a2 = sp + 0x200\n 53654: u64 [a2 + 0x58] = ra\n 53657: u64 [a2 + 0x50] = s0\n 53660: u64 [a2 + 0x48] = s1\n 53663: s0 = sp + 0x260\n 53667: sp = sp & 0xffffffffffffffe0\n 53670: s1 = sp\n 53672: u64 [s1 + 0x10] = a0\n 53675: a0 = u64 [a1 + 0x18]\n 53678: a2 = u64 [a1 + 0x10]\n 53681: a3 = u64 [a1 + 0x8]\n 53684: a1 = u64 [a1]\n 53686: u64 [s1 + 0xb0] = a0\n 53690: u64 [s1 + 0x238] = a0\n 53694: u64 [s1 + 0xa8] = a2\n 53698: u64 [s1 + 0x230] = a2\n 53702: u64 [s1 + 0xa0] = a3\n 53706: u64 [s1 + 0x228] = a3\n 53710: u64 [s1 + 0x98] = a1\n 53714: u64 [s1 + 0x220] = a1\n 53718: a0 = s1 + 0x200\n 53722: a1 = 0x40\n 53725: ra = 1960, jump @17\n      : @1878 [@dyn 980] (gas: 12)\n 53732: a1 = s1 + 0x200\n 53736: a0 = u64 [a1 + 0x18]\n 53739: u64 [s1 + 0x18] = a0\n 53742: a0 = u64 [a1 + 0x10]\n 53745: u64 [s1 + 0x20] = a0\n 53748: a0 = u64 [a1 + 0x8]\n 53751: u64 [s1 + 0x28] = a0\n 53754: a0 = u64 [a1]\n 53756: u64 [s1 + 0x30] = a0\n 53759: a0 = s1 + 0x1e0\n 53763: a1 = s1 + 0x220\n 53767: ra = 1962, jump @21\n      : @1879 [@dyn 981] (gas: 16)\n 53774: a4 = s1 + 0x100\n 53778: a0 = u64 [a4 + 0xf8]\n 53782: a1 = u64 [a4 + 0xf0]\n 53786: a2 = u64 [a4 + 0xe8]\n 53790: a3 = u64 [a4 + 0xe0]\n 53794: u64 [s1 + 0x90] = a0\n 53798: u64 [a4 + 0xb8] = a0\n 53802: u64 [s1 + 0x88] = a1\n 53806: u64 [a4 + 0xb0] = a1\n 53810: u64 [s1 + 0x80] = a2\n 53814: u64 [a4 + 0xa8] = a2\n 53818: a0 = s1 + 0x1c0\n 53822: a1 = s1 + 0x1a0\n 53826: u64 [s1 + 0xb8] = a3\n 53830: u64 [a4 + 0xa0] = a3\n 53834: ra = 1964, jump @1868\n      : @1880 [@dyn 982] (gas: 6)\n 53840: a0 = u64 [s1 + 0x30]\n 53843: a1 = u64 [s1 + 0x18]\n 53846: a2 = u64 [s1 + 0x28]\n 53849: a2 = a2 | a1\n 53852: a3 = u64 [s1 + 0x20]\n 53855: t0 = 1966, jump @2004\n      : @1881 [@dyn 983] (gas: 1)\n 53861: jump @1899 if a1 != 0\n      : @1882 (gas: 15)\n 53865: a5 = s1 + 0x100\n 53869: a2 = u64 [a5 + 0xd8]\n 53873: a3 = u64 [a5 + 0xd0]\n 53877: a1 = u64 [a5 + 0xc8]\n 53881: a4 = u64 [a5 + 0xc0]\n 53885: u64 [s1 + 0x60] = a4\n 53888: u64 [a5 + 0x80] = a4\n 53892: u64 [s1 + 0x70] = a1\n 53895: u64 [a5 + 0x88] = a1\n 53899: u64 [s1 + 0x68] = a3\n 53902: u64 [a5 + 0x90] = a3\n 53906: a1 = s1 + 0x180\n 53910: u64 [s1 + 0x78] = a2\n 53913: u64 [a5 + 0x98] = a2\n 53917: ra = 1968, jump @19\n      : @1883 [@dyn 984] (gas: 3)\n 53924: a3 = u64 [s1 + 0xb8]\n 53928: a0 = a3 & 0x1\n 53931: jump @1889 if a0 != 0\n      : @1884 (gas: 10)\n 53935: a0 = u64 [s1 + 0x20]\n 53938: a1 = u64 [s1 + 0x18]\n 53941: a0 = a0 | a1\n 53944: a1 = 0xffffffe0\n 53954: a4 = u64 [s1 + 0x30]\n 53957: a1 = a4 <u a1\n 53960: a2 = u64 [s1 + 0x28]\n 53963: a1 = 0 if a2 != 0\n 53965: a1 = 0 if a0 != 0\n 53967: jump @1899 if a1 == 0\n      : @1885 (gas: 12)\n 53971: a1 = a3 & 0xffffffffffffff00\n 53975: i32 a0 = a4 + 0x20\n 53978: a3 = u64 [s1 + 0x80]\n 53982: a2 = s1 + 0x100\n 53986: u64 [a2 + 0x8] = a3\n 53989: u64 [a2] = a1\n 53991: a1 = u64 [s1 + 0x88]\n 53995: u64 [a2 + 0x10] = a1\n 53998: a1 = s1 + 0x100\n 54002: a3 = u64 [s1 + 0x90]\n 54006: u64 [a2 + 0x18] = a3\n 54009: ra = 1970, jump @19\n      : @1886 [@dyn 985] (gas: 14)\n 54016: t2 = 0\n 54018: t1 = 0\n 54020: t0 = 0\n 54022: a0 = u64 [s1 + 0x68]\n 54025: a1 = u64 [s1 + 0x60]\n 54028: a0 = a0 | a1\n 54031: a1 = u64 [s1 + 0x78]\n 54034: a2 = u64 [s1 + 0x70]\n 54037: a1 = a1 | a2\n 54040: a0 = a0 | a1\n 54043: a0 = a0 >u 0\n 54045: a0 = a0 << 0x5\n 54048: u64 [s1 + 0xb8] = a0\n 54052: fallthrough\n      : @1887 (gas: 24)\n 54053: a1 = u64 [s1 + 0xb8]\n 54057: a0 = a1 + 0x20\n 54060: a1 = a0 <u a1\n 54063: a2 = t2 + a1\n 54066: a3 = a2 <u t2\n 54069: a3 = a1 if a1 == 0\n 54072: a3 = a3 + t1\n 54075: a1 = a3 <u t1\n 54078: a4 = t0 + a1\n 54081: a1 = u64 [s1 + 0x30]\n 54084: u64 [s1 + 0xe0] = a1\n 54088: u64 [s1 + 0xc0] = a0\n 54092: a0 = u64 [s1 + 0x28]\n 54095: u64 [s1 + 0xe8] = a0\n 54099: a0 = u64 [s1 + 0x20]\n 54102: u64 [s1 + 0xf0] = a0\n 54106: u64 [s1 + 0xc8] = a2\n 54110: a0 = u64 [s1 + 0x18]\n 54113: u64 [s1 + 0xf8] = a0\n 54117: u64 [s1 + 0xd0] = a3\n 54121: a0 = s1 + 0xe0\n 54125: a1 = s1 + 0xc0\n 54129: u64 [s1 + 0xd8] = a4\n 54133: ra = 1972, jump @1749\n      : @1888 [@dyn 986] (gas: 16)\n 54139: a0 = u64 [s1 + 0x10]\n 54142: a1 = u64 [s1 + 0x18]\n 54145: u64 [a0 + 0x18] = a1\n 54148: a1 = u64 [s1 + 0x20]\n 54151: u64 [a0 + 0x10] = a1\n 54154: a1 = u64 [s1 + 0x28]\n 54157: u64 [a0 + 0x8] = a1\n 54160: a1 = u64 [s1 + 0x30]\n 54163: u64 [a0] = a1\n 54165: sp = s0 + 0xfffffffffffffda0\n 54169: a0 = sp + 0x200\n 54173: ra = u64 [a0 + 0x58]\n 54176: s0 = u64 [a0 + 0x50]\n 54179: s1 = u64 [a0 + 0x48]\n 54182: sp = sp + 0x260\n 54186: ret\n      : @1889 (gas: 12)\n 54188: a0 = u64 [s1 + 0x98]\n 54192: a2 = s1 + 0x100\n 54196: u64 [a2 + 0x60] = a0\n 54199: a0 = u64 [s1 + 0xa0]\n 54203: u64 [a2 + 0x68] = a0\n 54206: a0 = u64 [s1 + 0xa8]\n 54210: u64 [a2 + 0x70] = a0\n 54213: a1 = s1 + 0x160\n 54217: a0 = u64 [s1 + 0xb0]\n 54221: u64 [a2 + 0x78] = a0\n 54224: a0 = 0\n 54226: ra = 1974, jump @19\n      : @1890 [@dyn 987] (gas: 6)\n 54233: a0 = sp + 0xffffffffffffffe0\n 54236: a0 = a0 & 0xffffffffffffffe0\n 54239: u64 [s1 + 0x58] = a0\n 54242: sp = a0\n 54244: a1 = i32 [0x201ec]\n 54249: jump @1892 if a1 >u 31\n      : @1891 (gas: 2)\n 54253: u32 [0x201ec] = 0x20\n 54259: fallthrough\n      : @1892 (gas: 49)\n 54260: a0 = sp + 0xffffffffffffffe0\n 54263: a2 = a0 & 0xffffffffffffffe0\n 54266: u64 [s1 + 0xb0] = a2\n 54270: sp = a2\n 54272: a0 = 0x20200\n 54277: i32 a0 = a0 + 0\n 54279: i32 a2 = a2 + 0\n 54281: a1 = 0x20\n 54284: ecalli 8 // 'hash_keccak_256'\n 54286: u64 [s1 + 184] = 0\n 54290: t2 = 0\n 54292: t1 = 0\n 54294: t0 = 0\n 54296: a5 = u64 [s1 + 0xb0]\n 54300: a0 = u64 [a5 + 0x18]\n 54303: a1 = u64 [s1 + 0x30]\n 54306: a2 = a1 + 0x20\n 54309: u64 [s1 + 0x50] = a2\n 54312: a1 = a2 <u a1\n 54315: a2 = u64 [s1 + 0x28]\n 54318: a3 = a2 + a1\n 54321: u64 [s1 + 0x48] = a3\n 54324: a4 = a3 <u a2\n 54327: a4 = a1 if a1 == 0\n 54330: a1 = u64 [a5 + 0x10]\n 54333: a2 = u64 [a5 + 0x8]\n 54336: a3 = u64 [a5]\n 54338: a0 = reverse a0\n 54340: a1 = reverse a1\n 54342: ra = reverse a2\n 54344: a2 = reverse a3\n 54346: a5 = u64 [s1 + 0x58]\n 54349: a3 = a2\n 54351: u64 [a5 + 0x18] = a2\n 54354: a2 = ra\n 54356: u64 [s1 + 0x80] = a2\n 54360: u64 [a5 + 0x10] = a2\n 54363: u64 [s1 + 0x90] = a1\n 54367: u64 [a5 + 0x8] = a1\n 54370: a2 = a0\n 54372: u64 [a5] = a0\n 54374: a0 = u64 [s1 + 0x20]\n 54377: a4 = a4 + a0\n 54380: u64 [s1 + 0x40] = a4\n 54383: a0 = a4 <u a0\n 54386: a1 = u64 [s1 + 0x18]\n 54389: a0 = a0 + a1\n 54392: u64 [s1 + 0x38] = a0\n 54395: fallthrough\n      : @1893 (gas: 19)\n 54396: u64 [s1 + 0x88] = a3\n 54400: u64 [s1 + 0x98] = a2\n 54404: a0 = u64 [s1 + 0x60]\n 54407: a1 = u64 [s1 + 0xb8]\n 54411: a0 = a1 <u a0\n 54414: a2 = u64 [s1 + 0x70]\n 54417: a1 = t2 ^ a2\n 54420: a2 = t2 <u a2\n 54423: a2 = a0 if a1 == 0\n 54426: a4 = u64 [s1 + 0x68]\n 54429: a0 = t1 <u a4\n 54432: a3 = u64 [s1 + 0x78]\n 54435: a1 = t0 ^ a3\n 54438: a3 = t0 <u a3\n 54441: a3 = a0 if a1 == 0\n 54444: a0 = t1 ^ a4\n 54447: a0 = a0 | a1\n 54450: a3 = a2 if a0 == 0\n 54453: jump @1887 if a3 == 0\n      : @1894 (gas: 6)\n 54457: a0 = s1 + 0x140\n 54461: a1 = a5\n 54463: u64 [s1 + 0xb0] = t0\n 54467: u64 [s1 + 0xa8] = t1\n 54471: u64 [s1 + 0xa0] = t2\n 54475: ra = 1976, jump @21\n      : @1895 [@dyn 988] (gas: 20)\n 54482: a1 = u64 [s1 + 0x50]\n 54485: a0 = u64 [s1 + 0xb8]\n 54489: a0 = a0 + a1\n 54492: a1 = a0 <u a1\n 54495: a4 = u64 [s1 + 0x48]\n 54498: a2 = u64 [s1 + 0xa0]\n 54502: a2 = a2 + a4\n 54505: a2 = a2 + a1\n 54508: a3 = a2 ^ a4\n 54511: a4 = a2 <u a4\n 54514: a4 = a1 if a3 == 0\n 54517: a3 = u64 [s1 + 0x40]\n 54520: a1 = u64 [s1 + 0xa8]\n 54524: a1 = a1 + a3\n 54527: t0 = a1 <u a3\n 54530: a5 = u64 [s1 + 0x38]\n 54533: a3 = u64 [s1 + 0xb0]\n 54537: a5 = a5 + a3\n 54540: a3 = a5 + t0\n 54543: t0 = 1978, jump @2012\n      : @1896 [@dyn 989] (gas: 1)\n 54549: jump @1899 if a1 != 0\n      : @1897 (gas: 11)\n 54553: a5 = s1 + 0x100\n 54557: a2 = u64 [a5 + 0x58]\n 54560: a1 = u64 [a5 + 0x50]\n 54563: a3 = u64 [a5 + 0x48]\n 54566: a4 = u64 [a5 + 0x40]\n 54569: u64 [a5 + 0x20] = a4\n 54572: u64 [a5 + 0x28] = a3\n 54575: u64 [a5 + 0x30] = a1\n 54578: a1 = s1 + 0x120\n 54582: u64 [a5 + 0x38] = a2\n 54585: ra = 1980, jump @19\n      : @1898 [@dyn 990] (gas: 38)\n 54592: a3 = u64 [s1 + 0x98]\n 54596: a3 = a3 + 0x1\n 54599: a0 = a3 <u 0x1\n 54602: t2 = u64 [s1 + 0x90]\n 54606: t2 = t2 + a0\n 54609: a0 = a3 | t2\n 54612: a0 = a0 <u 0x1\n 54615: a1 = u64 [s1 + 0x80]\n 54619: t1 = a1 + a0\n 54622: a1 = t1 <u a1\n 54625: a0 = u64 [s1 + 0x88]\n 54629: a0 = a0 + a1\n 54632: a1 = u64 [s1 + 0xb8]\n 54636: ra = a1 + 0x20\n 54639: a2 = ra <u a1\n 54642: a4 = u64 [s1 + 0xa0]\n 54646: a1 = a4 + a2\n 54649: a4 = a1 <u a4\n 54652: a4 = a2 if a2 == 0\n 54655: a2 = u64 [s1 + 0xa8]\n 54659: a4 = a4 + a2\n 54662: a2 = a4 <u a2\n 54665: t0 = u64 [s1 + 0xb0]\n 54669: t0 = t0 + a2\n 54672: a2 = t2\n 54674: u64 [s1 + 0x90] = a2\n 54678: a5 = u64 [s1 + 0x58]\n 54681: u64 [a5 + 0x8] = a2\n 54684: a2 = a3\n 54686: u64 [a5] = a3\n 54688: u64 [a5 + 0x10] = t1\n 54691: a3 = a0\n 54693: u64 [a5 + 0x18] = a0\n 54696: u64 [s1 + 0x80] = t1\n 54700: u64 [s1 + 0xb8] = ra\n 54704: t2 = a1\n 54706: t1 = a4\n 54708: jump @1893\n      : @1899 (gas: 1)\n 54711: trap\n      : @1900 (gas: 16)\n 54712: a2 = u64 [a1]\n 54714: t0 = u64 [a1 + 0x18]\n 54717: a3 = u64 [a1 + 0x8]\n 54720: a5 = u64 [a1 + 0x10]\n 54723: a4 = a2 + 0x1\n 54726: a2 = a4 <u 0x1\n 54729: a2 = a2 + a3\n 54732: a3 = a4 | a2\n 54735: a3 = a3 <u 0x1\n 54738: a3 = a3 + a5\n 54741: a5 = a3 <u a5\n 54744: a5 = a5 + t0\n 54747: t0 = a2 | a5\n 54750: a1 = a4 | a3\n 54753: a1 = a1 | t0\n 54756: jump @1902 if a1 == 0\n      : @1901 (gas: 5)\n 54759: u64 [a0] = a4\n 54761: u64 [a0 + 0x8] = a2\n 54764: u64 [a0 + 0x10] = a3\n 54767: u64 [a0 + 0x18] = a5\n 54770: ret\n      : @1902 (gas: 6)\n 54772: sp = sp + 0xffffffffffffffb0\n 54775: u64 [sp + 0x48] = ra\n 54778: u64 [sp + 0x40] = s0\n 54781: s0 = sp + 0x50\n 54784: sp = sp & 0xfffffffffffffff0\n 54787: t0 = 1982, jump @1982\n      : @1903 [@dyn 991] (gas: 1)\n 54793: ra = 1984, jump @19\n      : @1904 [@dyn 992] (gas: 7)\n 54800: u64 [sp + 24] = 0\n 54803: u64 [sp + 16] = 0\n 54806: u64 [sp + 0] = 0x11\n 54809: a0 = 0x4\n 54812: a1 = sp\n 54814: u64 [sp + 8] = 0\n 54817: ra = 1986, jump @19\n      : @1905 [@dyn 993] (gas: 2)\n 54824: a1 = i32 [0x201ec]\n 54829: jump @1907 if a1 >u 63\n      : @1906 (gas: 2)\n 54833: u32 [0x201ec] = 0x40\n 54839: fallthrough\n      : @1907 (gas: 7)\n 54840: a1 = 0x20200\n 54845: i32 a1 = a1 + 0\n 54847: a0 = 0x1\n 54850: a2 = 0x24\n 54853: ra = 0x7c4\n 54857: ecalli 13 // 'seal_return'\n 54859: fallthrough\n      : @1908 [@dyn 994] (gas: 14)\n 54860: sp = sp + 0xffffffffffffff20\n 54864: u64 [sp + 0xd8] = ra\n 54868: u64 [sp + 0xd0] = s0\n 54872: u64 [sp + 0xc8] = s1\n 54876: s0 = sp + 0xe0\n 54880: sp = sp & 0xfffffffffffffff0\n 54883: a1 = u64 [a0 + 0x10]\n 54886: a2 = u64 [a0 + 0x18]\n 54889: a3 = u64 [a0 + 0x8]\n 54892: a0 = u64 [a0]\n 54894: a2 = a2 | a3\n 54897: a0 = a0 | a1\n 54900: a0 = a0 | a2\n 54903: jump @1910 if a0 == 0\n      : @1909 (gas: 6)\n 54906: sp = s0 + 0xffffffffffffff20\n 54910: ra = u64 [sp + 0xd8]\n 54914: s0 = u64 [sp + 0xd0]\n 54918: s1 = u64 [sp + 0xc8]\n 54922: sp = sp + 0xe0\n 54926: ret\n      : @1910 (gas: 3)\n 54928: a0 = sp + 0xa0\n 54932: a1 = 0x40\n 54935: ra = 1990, jump @17\n      : @1911 [@dyn 995] (gas: 5)\n 54942: a2 = u64 [sp + 0xb8]\n 54946: s1 = u64 [sp + 0xb0]\n 54950: a0 = u64 [sp + 0xa8]\n 54954: a1 = u64 [sp + 0xa0]\n 54958: t0 = 1992, jump @2039\n      : @1912 [@dyn 996] (gas: 1)\n 54964: jump @1922 if a0 != 0\n      : @1913 (gas: 8)\n 54968: u64 [sp + 144] = 0\n 54972: u64 [sp + 136] = 0\n 54976: u64 [sp + 128] = 0\n 54980: a0 = 0x8c379a000000000\n 54990: a1 = sp + 0x80\n 54994: u64 [sp + 0x98] = a0\n 54998: a0 = u64 [sp + 0x18]\n 55001: ra = 1994, jump @19\n      : @1914 [@dyn 997] (gas: 1)\n 55008: t0 = 1996, jump @1997\n      : @1915 [@dyn 998] (gas: 1)\n 55014: jump @1922 if a0 == 0\n      : @1916 (gas: 8)\n 55017: a0 = u64 [sp + 0x18]\n 55020: i32 a0 = a0 + 0x4\n 55023: u64 [sp + 120] = 0\n 55026: u64 [sp + 112] = 0\n 55029: u64 [sp + 96] = 0x20\n 55033: a1 = sp + 0x60\n 55036: u64 [sp + 104] = 0\n 55039: ra = 1998, jump @19\n      : @1917 [@dyn 999] (gas: 1)\n 55046: t0 = 2000, jump @2029\n      : @1918 [@dyn 1000] (gas: 1)\n 55052: jump @1922 if a0 == 0\n      : @1919 (gas: 8)\n 55055: s1 = u64 [sp + 0x18]\n 55058: i32 a0 = s1 + 0x24\n 55061: u64 [sp + 88] = 0\n 55064: u64 [sp + 80] = 0\n 55067: u64 [sp + 64] = 0xf\n 55071: a1 = sp + 0x40\n 55074: u64 [sp + 72] = 0\n 55077: ra = 2002, jump @19\n      : @1920 [@dyn 1001] (gas: 2)\n 55084: a0 = 0xffffffbc\n 55094: t0 = 2004, jump @2013\n      : @1921 [@dyn 1002] (gas: 1)\n 55100: jump @1923 if a0 != 0\n      : @1922 (gas: 1)\n 55103: trap\n      : @1923 (gas: 10)\n 55104: s1 = u64 [sp + 0x18]\n 55107: i32 a0 = s1 + 0x44\n 55110: a1 = u64 [0x201d8]\n 55115: a2 = u64 [0x201e0]\n 55120: u64 [sp + 0x38] = a1\n 55123: u64 [sp + 40] = 0\n 55126: u64 [sp + 0x30] = a2\n 55129: a1 = sp + 0x20\n 55132: u64 [sp + 32] = 0\n 55135: ra = 2006, jump @19\n      : @1924 [@dyn 1003] (gas: 3)\n 55142: a1 = 0x64\n 55145: a0 = s1\n 55147: ra = 2008, jump @28\n      : @1925 [@dyn 1004] (gas: 6)\n 55154: i32 a1 = a0 + 0\n 55156: a0 = 0x1\n 55159: a2 = 0x64\n 55162: ra = 0x7da\n 55166: ecalli 13 // 'seal_return'\n 55168: fallthrough\n      : @1926 [@dyn 1005] (gas: 45)\n 55169: sp = sp + 0xffffffffffffff90\n 55172: u64 [sp + 0x68] = ra\n 55175: u64 [sp + 0x60] = s0\n 55178: u64 [sp + 0x58] = s1\n 55181: s0 = sp + 0x70\n 55184: sp = sp & 0xfffffffffffffff0\n 55187: a3 = u64 [a1 + 0x18]\n 55190: u64 [sp + 0x8] = a3\n 55193: a4 = u64 [a2 + 0x18]\n 55196: t2 = u64 [a1]\n 55198: u64 [sp] = t2\n 55200: a3 = u64 [a1 + 0x8]\n 55203: s1 = u64 [a2 + 0x8]\n 55206: a5 = u64 [a2]\n 55208: t1 = u64 [a1 + 0x10]\n 55211: t0 = u64 [a2 + 0x10]\n 55214: a2 = s1 + a3\n 55217: t2 = t2 + a5\n 55220: a5 = t2 <u a5\n 55223: a2 = a2 + a5\n 55226: ra = a2 ^ s1\n 55229: s1 = a2 <u s1\n 55232: s1 = a5 if ra == 0\n 55235: a1 = t0 + t1\n 55238: a5 = u64 [sp + 0x8]\n 55241: a5 = a5 + a4\n 55244: a4 = a1 <u t0\n 55247: a4 = a4 + a5\n 55250: a5 = a1 + s1\n 55253: a1 = a5 <u a1\n 55256: ra = a4 + a1\n 55259: a4 = a2 ^ a3\n 55262: a3 = a2 <u a3\n 55265: a1 = u64 [sp]\n 55267: s1 = t2 <u a1\n 55270: s1 = a3 if a4 != 0\n 55273: t0 = a5 <u t1\n 55276: a1 = u64 [sp + 0x8]\n 55279: a4 = ra ^ a1\n 55282: a3 = ra <u a1\n 55285: a3 = t0 if a4 == 0\n 55288: a1 = a5 ^ t1\n 55291: a1 = a1 | a4\n 55294: s1 = a3 if a1 != 0\n 55297: jump @1928 if s1 != 0\n      : @1927 (gas: 10)\n 55300: u64 [a0] = t2\n 55302: u64 [a0 + 0x8] = a2\n 55305: u64 [a0 + 0x10] = a5\n 55308: u64 [a0 + 0x18] = ra\n 55311: sp = s0 + 0xffffffffffffff90\n 55314: ra = u64 [sp + 0x68]\n 55317: s0 = u64 [sp + 0x60]\n 55320: s1 = u64 [sp + 0x58]\n 55323: sp = sp + 0x70\n 55326: ret\n      : @1928 (gas: 1)\n 55328: t0 = 2012, jump @2021\n      : @1929 [@dyn 1006] (gas: 1)\n 55334: ra = 2014, jump @19\n      : @1930 [@dyn 1007] (gas: 7)\n 55341: u64 [sp + 40] = 0\n 55344: u64 [sp + 32] = 0\n 55347: u64 [sp + 16] = 0x11\n 55351: a0 = 0x4\n 55354: a1 = sp + 0x10\n 55357: u64 [sp + 24] = 0\n 55360: ra = 2016, jump @19\n      : @1931 [@dyn 1008] (gas: 2)\n 55367: a1 = i32 [0x201ec]\n 55372: jump @1933 if a1 >u 63\n      : @1932 (gas: 2)\n 55376: u32 [0x201ec] = 0x40\n 55382: fallthrough\n      : @1933 (gas: 8)\n 55383: a1 = 0x20200\n 55388: i32 a1 = a1 + 0\n 55390: a0 = 0x1\n 55393: a2 = 0x24\n 55396: ecalli 13 // 'seal_return'\n 55398: a0 = 0\n 55400: ra = 0x7e2\n 55404: jump @34\n      : @1934 [export #0: 'call'] (gas: 2)\n 55408: a0 = 0\n 55410: ra = 2018, jump @34\n      : @1935 [@dyn 1009] [export #1: 'deploy'] (gas: 2)\n 55417: a0 = 0x1\n 55420: ra = 2020, jump @34\n      : @1936 [@dyn 1010] (gas: 22)\n 55427: a0 = u64 [a2 + 0x8]\n 55430: a1 = u64 [a2]\n 55432: a2 = i32 [a2 + 0x10]\n 55435: a0 = reverse a0\n 55437: a3 = a0 >> 0x20\n 55440: a1 = reverse a1\n 55442: a4 = a1 << 0x20\n 55445: a3 = a3 | a4\n 55448: a0 = a0 << 0x20\n 55451: a2 = reverse a2\n 55453: a2 = a2 >> 0x20\n 55456: a0 = a0 | a2\n 55459: a1 = a1 >> 0x20\n 55462: a2 = u64 [a5 + 0xa8]\n 55466: a1 = a1 ^ a2\n 55469: a2 = u64 [a5 + 0xb0]\n 55473: a0 = a0 ^ a2\n 55476: a0 = a0 | a1\n 55479: a1 = u64 [a5 + 0xb8]\n 55483: a1 = a1 ^ a3\n 55486: a0 = a0 | a1\n 55489: jump [t0]\n      : @1937 (gas: 13)\n 55491: a1 = a0 <u a1\n 55494: a3 = u64 [s1 + 0x1a8]\n 55498: a2 = a3 + a1\n 55501: a3 = a2 <u a3\n 55504: a3 = a1 if a1 == 0\n 55507: a1 = u64 [s1 + 0x1a0]\n 55511: a3 = a3 + a1\n 55514: a1 = a3 <u a1\n 55517: a4 = u64 [s1 + 0x1b8]\n 55521: a1 = a1 + a4\n 55524: a4 = s1 + 0x4938\n 55528: a5 = a4 + 0x300\n 55532: jump [t0]\n      : @1938 (gas: 38)\n 55534: t1 = u64 [s1 + 0x168]\n 55538: t1 = t1 + 0x1\n 55541: a0 = t1 <u 0x1\n 55544: t2 = u64 [s1 + 0x160]\n 55548: t2 = t2 + a0\n 55551: a0 = t1 | t2\n 55554: a0 = a0 <u 0x1\n 55557: a1 = u64 [s1 + 0x170]\n 55561: ra = a1 + a0\n 55564: a1 = ra <u a1\n 55567: a0 = u64 [s1 + 0x188]\n 55571: a0 = a0 + a1\n 55574: a1 = u64 [s1 + 0x1b8]\n 55578: a2 = a1 + 0x20\n 55581: u64 [s1 + 0x188] = a2\n 55585: a3 = a2 <u a1\n 55588: a1 = u64 [s1 + 0x158]\n 55592: a2 = a1 + a3\n 55595: u64 [s1 + 0x168] = a2\n 55599: a4 = a2 <u a1\n 55602: a4 = a3 if a3 == 0\n 55605: a1 = u64 [s1 + 0x1b0]\n 55609: a3 = a1 + a4\n 55612: a4 = a3 <u a1\n 55615: a1 = u64 [s1 + 0x1a8]\n 55619: a1 = a1 + a4\n 55622: u64 [s1 + 0x1a8] = a1\n 55626: a1 = u64 [s1 + 0x198]\n 55630: a4 = a1 + 0x20\n 55633: a5 = a4 <u a1\n 55636: a2 = u64 [s1 + 0x178]\n 55640: a1 = a2 + a5\n 55643: a2 = a1 <u a2\n 55646: a2 = a5 if a5 == 0\n 55649: a5 = u64 [s1 + 0x180]\n 55653: a2 = a2 + a5\n 55656: a5 = a2 <u a5\n 55659: jump [t0]\n      : @1939 (gas: 12)\n 55661: a5 = s1 + 0x100\n 55665: a1 = u64 [a5 + 0xb8]\n 55669: a0 = u64 [a5 + 0xa8]\n 55673: a3 = u64 [a5 + 0xa0]\n 55677: a3 = a3 | a0\n 55680: a4 = 0x100000000\n 55690: a0 = 0xfffffffc\n 55700: a0 = a1 <u a0\n 55703: a2 = u64 [a5 + 0xb0]\n 55707: a0 = 0 if a2 != 0\n 55709: a0 = 0 if a3 != 0\n 55711: jump [t0]\n      : @1940 (gas: 18)\n 55713: a0 = u64 [a3]\n 55715: a1 = u64 [a3 + 0x8]\n 55718: a2 = u64 [a3 + 0x10]\n 55721: a3 = u64 [a3 + 0x18]\n 55724: a0 = reverse a0\n 55726: a1 = reverse a1\n 55728: a2 = reverse a2\n 55730: a3 = reverse a3\n 55732: a4 = a3 + 0x2\n 55735: a3 = a4 <u a3\n 55738: a5 = a2 + a3\n 55741: a2 = a5 <u a2\n 55744: a2 = a3 if a3 == 0\n 55747: a2 = a2 + a1\n 55750: a1 = a2 <u a1\n 55753: a0 = a0 + a1\n 55756: a1 = s1 + 0x5138\n 55760: jump [t0]\n      : @1941 (gas: 19)\n 55762: a3 = u64 [s1 + 0x1b8]\n 55766: a0 = u64 [a3]\n 55768: a1 = u64 [a3 + 0x8]\n 55771: a2 = u64 [a3 + 0x10]\n 55774: a3 = u64 [a3 + 0x18]\n 55777: a0 = reverse a0\n 55779: a1 = reverse a1\n 55781: a2 = reverse a2\n 55783: a3 = reverse a3\n 55785: a3 = a3 + 0x1\n 55788: a4 = a3 <u 0x1\n 55791: a2 = a2 + a4\n 55794: a4 = a3 | a2\n 55797: a4 = a4 <u 0x1\n 55800: a4 = a4 + a1\n 55803: a1 = a4 <u a1\n 55806: a0 = a0 + a1\n 55809: a1 = s1 + 0x4938\n 55813: jump [t0]\n      : @1942 (gas: 24)\n 55815: a5 = s1 + 0x100\n 55819: a2 = u64 [a5 + 0x68]\n 55822: a0 = u64 [a2 + 0x8]\n 55825: a1 = u64 [a2]\n 55827: a2 = i32 [a2 + 0x10]\n 55830: a0 = reverse a0\n 55832: a3 = a0 >> 0x20\n 55835: a1 = reverse a1\n 55837: a4 = a1 << 0x20\n 55840: a3 = a3 | a4\n 55843: a0 = a0 << 0x20\n 55846: a2 = reverse a2\n 55848: a2 = a2 >> 0x20\n 55851: a0 = a0 | a2\n 55854: a1 = a1 >> 0x20\n 55857: a2 = u64 [a5 + 0x50]\n 55860: a1 = a1 ^ a2\n 55863: a2 = u64 [a5 + 0x58]\n 55866: a0 = a0 ^ a2\n 55869: a0 = a0 | a1\n 55872: a1 = u64 [a5 + 0x60]\n 55875: a1 = a1 ^ a3\n 55878: a0 = a0 | a1\n 55881: jump [t0]\n      : @1943 (gas: 24)\n 55883: a5 = s1 + 0x100\n 55887: a2 = u64 [a5 + 0xb0]\n 55891: a0 = u64 [a2 + 0x8]\n 55894: a1 = u64 [a2]\n 55896: a2 = i32 [a2 + 0x10]\n 55899: a0 = reverse a0\n 55901: a3 = a0 >> 0x20\n 55904: a1 = reverse a1\n 55906: a4 = a1 << 0x20\n 55909: a3 = a3 | a4\n 55912: a0 = a0 << 0x20\n 55915: a2 = reverse a2\n 55917: a2 = a2 >> 0x20\n 55920: a0 = a0 | a2\n 55923: a1 = a1 >> 0x20\n 55926: a2 = u64 [a5 + 0x98]\n 55930: a1 = a1 ^ a2\n 55933: a2 = u64 [a5 + 0xa0]\n 55937: a0 = a0 ^ a2\n 55940: a0 = a0 | a1\n 55943: a1 = u64 [a5 + 0xa8]\n 55947: a1 = a1 ^ a3\n 55950: a0 = a0 | a1\n 55953: jump [t0]\n      : @1944 (gas: 24)\n 55955: a5 = s1 + 0x100\n 55959: a2 = u64 [a5 + 0xb8]\n 55963: a0 = u64 [a2 + 0x8]\n 55966: a1 = u64 [a2]\n 55968: a2 = i32 [a2 + 0x10]\n 55971: a0 = reverse a0\n 55973: a3 = a0 >> 0x20\n 55976: a1 = reverse a1\n 55978: a4 = a1 << 0x20\n 55981: a3 = a3 | a4\n 55984: a0 = a0 << 0x20\n 55987: a2 = reverse a2\n 55989: a2 = a2 >> 0x20\n 55992: a0 = a0 | a2\n 55995: a1 = a1 >> 0x20\n 55998: a2 = u64 [a5 + 0x70]\n 56001: a1 = a1 ^ a2\n 56004: a2 = u64 [a5 + 0x78]\n 56007: a0 = a0 ^ a2\n 56010: a0 = a0 | a1\n 56013: a1 = u64 [a5 + 0x80]\n 56017: a1 = a1 ^ a3\n 56020: a0 = a0 | a1\n 56023: jump [t0]\n      : @1945 (gas: 24)\n 56025: a5 = s1 + 0x100\n 56029: a2 = u64 [a5 + 0xb8]\n 56033: a0 = u64 [a2 + 0x8]\n 56036: a1 = u64 [a2]\n 56038: a2 = i32 [a2 + 0x10]\n 56041: a0 = reverse a0\n 56043: a3 = a0 >> 0x20\n 56046: a1 = reverse a1\n 56048: a4 = a1 << 0x20\n 56051: a3 = a3 | a4\n 56054: a0 = a0 << 0x20\n 56057: a2 = reverse a2\n 56059: a2 = a2 >> 0x20\n 56062: a0 = a0 | a2\n 56065: a1 = a1 >> 0x20\n 56068: a2 = u64 [a5 + 0xa0]\n 56072: a1 = a1 ^ a2\n 56075: a2 = u64 [a5 + 0xa8]\n 56079: a0 = a0 ^ a2\n 56082: a0 = a0 | a1\n 56085: a1 = u64 [a5 + 0xb0]\n 56089: a1 = a1 ^ a3\n 56092: a0 = a0 | a1\n 56095: jump [t0]\n      : @1946 (gas: 18)\n 56097: a0 = u64 [a3]\n 56099: a1 = u64 [a3 + 0x8]\n 56102: a2 = u64 [a3 + 0x10]\n 56105: a3 = u64 [a3 + 0x18]\n 56108: a0 = reverse a0\n 56110: a1 = reverse a1\n 56112: a2 = reverse a2\n 56114: a3 = reverse a3\n 56116: a3 = a3 + 0x1\n 56119: a4 = a3 <u 0x1\n 56122: a2 = a2 + a4\n 56125: a4 = a3 | a2\n 56128: a4 = a4 <u 0x1\n 56131: a4 = a4 + a1\n 56134: a1 = a4 <u a1\n 56137: a0 = a0 + a1\n 56140: a1 = s1 + 0x5138\n 56144: jump [t0]\n      : @1947 (gas: 15)\n 56146: a0 = u64 [a5 + 0x8]\n 56149: a1 = u64 [a5]\n 56151: a2 = i32 [a5 + 0x10]\n 56154: a0 = reverse a0\n 56156: a3 = a0 >> 0x20\n 56159: a1 = reverse a1\n 56161: a4 = a1 << 0x20\n 56164: a3 = a3 | a4\n 56167: a0 = a0 << 0x20\n 56170: a2 = reverse a2\n 56172: a2 = a2 >> 0x20\n 56175: a0 = a0 | a2\n 56178: a1 = a1 >> 0x20\n 56181: a4 = s1 + 0x100\n 56185: jump [t0]\n      : @1948 (gas: 7)\n 56187: a4 = 0x100000000\n 56197: a0 = 0xfffffffc\n 56207: a0 = a1 <u a0\n 56210: a2 = u64 [a5 + 0xb0]\n 56214: a0 = 0 if a2 != 0\n 56216: a0 = 0 if a3 != 0\n 56218: jump [t0]\n      : @1949 (gas: 17)\n 56220: a0 = u64 [a3]\n 56222: a1 = u64 [a3 + 0x8]\n 56225: a2 = u64 [a3 + 0x10]\n 56228: a3 = u64 [a3 + 0x18]\n 56231: a0 = reverse a0\n 56233: a1 = reverse a1\n 56235: a2 = reverse a2\n 56237: a3 = reverse a3\n 56239: a4 = a3 + 0x5\n 56242: a3 = a4 <u a3\n 56245: a5 = a2 + a3\n 56248: a2 = a5 <u a2\n 56251: a2 = a3 if a3 == 0\n 56254: a2 = a2 + a1\n 56257: a1 = a2 <u a1\n 56260: a3 = a0 + a1\n 56263: jump [t0]\n      : @1950 (gas: 23)\n 56265: a4 = u64 [s1 + 0x1b8]\n 56269: a2 = a4 <u 0x80\n 56273: a3 = u64 [s1 + 0x170]\n 56277: a1 = a3 if a2 != 0\n 56280: a5 = u64 [s1 + 0x178]\n 56284: a3 = u64 [s1 + 0x188]\n 56288: a3 = a3 | a5\n 56291: a3 = a0 if a2 == 0\n 56294: a1 = 0xffffffffffffffff if a4 == 0\n 56297: a3 = 0xffffffffffffffff if a4 == 0\n 56300: a4 = u64 [s1 + 0x180]\n 56304: a4 = 0 if a2 == 0\n 56306: a5 = 0 if a2 == 0\n 56308: a0 = u64 [s1 + 0x198]\n 56312: a0 = a0 & ~a3\n 56315: a2 = u64 [s1 + 0x1a0]\n 56319: a1 = a2 & ~a1\n 56322: a2 = u64 [s1 + 0x1a8]\n 56326: a2 = a2 & ~a5\n 56329: a3 = u64 [s1 + 0x1b0]\n 56333: a3 = a3 & ~a4\n 56336: a4 = s1 + 0x5138\n 56340: jump [t0]\n      : @1951 (gas: 10)\n 56342: a3 = s1 + 0x100\n 56346: a2 = u64 [a3 + 0xb8]\n 56350: a0 = u64 [a3 + 0xa0]\n 56354: a0 = a0 + 0xffffffffffffff9c\n 56357: a0 = a2 <u a0\n 56360: a1 = u64 [a3 + 0xb0]\n 56364: a0 = 0 if a1 != 0\n 56366: a1 = u64 [a3 + 0xa8]\n 56370: a0 = 0 if a1 != 0\n 56372: jump [t0]\n      : @1952 (gas: 10)\n 56374: a3 = s1 + 0x100\n 56378: a1 = u64 [a3 + 0xb8]\n 56382: a0 = u64 [a3 + 0xa0]\n 56386: a0 = a0 + 0xffffffffffffffdc\n 56389: a0 = a1 <u a0\n 56392: a2 = u64 [a3 + 0xb0]\n 56396: a0 = 0 if a2 != 0\n 56398: a2 = u64 [a3 + 0xa8]\n 56402: a0 = 0 if a2 != 0\n 56404: jump [t0]\n      : @1953 (gas: 10)\n 56406: a0 = s1 + 0x100\n 56410: a4 = u64 [a0 + 0xa8]\n 56414: a3 = u64 [a0 + 0xb0]\n 56418: a1 = u64 [a0 + 0xb8]\n 56422: a2 = 0x100000000\n 56432: a0 = 0xffffffbc\n 56442: a0 = a1 <u a0\n 56445: a0 = 0 if a3 != 0\n 56447: a0 = 0 if a4 != 0\n 56449: jump [t0]\n      : @1954 (gas: 20)\n 56451: a3 = u64 [s1 + 0x148]\n 56455: a0 = u64 [a3]\n 56457: a1 = u64 [a3 + 0x8]\n 56460: a2 = u64 [a3 + 0x10]\n 56463: a3 = u64 [a3 + 0x18]\n 56466: a0 = reverse a0\n 56468: a1 = reverse a1\n 56470: a2 = reverse a2\n 56472: a3 = reverse a3\n 56474: a4 = a3 + 0x5\n 56477: a3 = a4 <u a3\n 56480: a5 = a2 + a3\n 56483: a2 = a5 <u a2\n 56486: a2 = a3 if a3 == 0\n 56489: a2 = a2 + a1\n 56492: a1 = a2 <u a1\n 56495: a3 = a0 + a1\n 56498: a1 = s1 + 0x1938\n 56502: a0 = u64 [s1 + 0x1a0]\n 56506: jump [t0]\n      : @1955 (gas: 8)\n 56508: a1 = a1 | a3\n 56511: a3 = a0 | a2\n 56514: a3 = a3 | a1\n 56517: a3 = a3 >> 0x20\n 56520: a1 = a1 | a2\n 56523: a1 = a1 << 0x20\n 56526: a1 = a1 | a3\n 56529: jump [t0]\n      : @1956 (gas: 20)\n 56531: a3 = u64 [s1 + 0x198]\n 56535: a0 = u64 [a3]\n 56537: a1 = u64 [a3 + 0x8]\n 56540: a2 = u64 [a3 + 0x10]\n 56543: a3 = u64 [a3 + 0x18]\n 56546: a0 = reverse a0\n 56548: a1 = reverse a1\n 56550: a2 = reverse a2\n 56552: a3 = reverse a3\n 56554: a4 = a3 + 0x4\n 56557: a3 = a4 <u a3\n 56560: a5 = a2 + a3\n 56563: a2 = a5 <u a2\n 56566: a2 = a3 if a3 == 0\n 56569: a2 = a2 + a1\n 56572: a1 = a2 <u a1\n 56575: a0 = a0 + a1\n 56578: a1 = s1 + 0x5138\n 56582: a3 = a1 + 0x100\n 56586: jump [t0]\n      : @1957 (gas: 10)\n 56588: a3 = u64 [s1 + 0x1b0]\n 56592: a0 = u64 [a3]\n 56594: a1 = u64 [a3 + 0x8]\n 56597: a2 = u64 [a3 + 0x10]\n 56600: a3 = u64 [a3 + 0x18]\n 56603: a0 = reverse a0\n 56605: a1 = reverse a1\n 56607: a2 = reverse a2\n 56609: a3 = reverse a3\n 56611: jump [t0]\n      : @1958 (gas: 23)\n 56613: a3 = u64 [s1 + 0x1b0]\n 56617: a0 = u64 [a3]\n 56619: a1 = u64 [a3 + 0x8]\n 56622: a2 = u64 [a3 + 0x10]\n 56625: a3 = u64 [a3 + 0x18]\n 56628: a0 = reverse a0\n 56630: a1 = reverse a1\n 56632: a2 = reverse a2\n 56634: a3 = reverse a3\n 56636: a4 = a3 + 0x4\n 56639: a3 = a4 <u a3\n 56642: a5 = a2 + a3\n 56645: a2 = a5 <u a2\n 56648: a2 = a3 if a3 == 0\n 56651: a2 = a2 + a1\n 56654: a1 = a2 <u a1\n 56657: a0 = a0 + a1\n 56660: a1 = u64 [s1 + 0x1b8]\n 56664: u64 [a1] = a4\n 56666: u64 [a1 + 0x8] = a5\n 56669: u64 [a1 + 0x10] = a2\n 56672: u64 [a1 + 0x18] = a0\n 56675: jump [t0]\n      : @1959 (gas: 19)\n 56677: a3 = u64 [s1 + 0x168]\n 56681: a0 = u64 [a3]\n 56683: a1 = u64 [a3 + 0x8]\n 56686: a2 = u64 [a3 + 0x10]\n 56689: a3 = u64 [a3 + 0x18]\n 56692: a0 = reverse a0\n 56694: a1 = reverse a1\n 56696: a2 = reverse a2\n 56698: a3 = reverse a3\n 56700: a4 = a3 + 0x5\n 56703: a3 = a4 <u a3\n 56706: a5 = a2 + a3\n 56709: a2 = a5 <u a2\n 56712: a2 = a3 if a3 == 0\n 56715: a2 = a2 + a1\n 56718: a1 = a2 <u a1\n 56721: a0 = a0 + a1\n 56724: a1 = s1 + 0x5138\n 56728: jump [t0]\n      : @1960 (gas: 10)\n 56730: a3 = a4 <u a3\n 56733: a5 = a2 + a3\n 56736: a2 = a5 <u a2\n 56739: a2 = a3 if a3 == 0\n 56742: a2 = a2 + a1\n 56745: a1 = a2 <u a1\n 56748: a0 = a0 + a1\n 56751: a1 = s1 + 0x4938\n 56755: a3 = a1 + 0x500\n 56759: jump [t0]\n      : @1961 (gas: 14)\n 56761: a3 = s1 + 0x100\n 56765: a0 = u64 [a3 + 0xa8]\n 56769: a2 = u64 [a3 + 0xa0]\n 56773: a2 = a2 | a0\n 56776: a0 = 0x100000000\n 56786: u64 [a3 + 0xa0] = a0\n 56790: a0 = 0xfffffffc\n 56800: a1 = u64 [a3 + 0xb8]\n 56804: a0 = a1 <u a0\n 56807: a1 = u64 [a3 + 0xb0]\n 56811: a0 = 0 if a1 != 0\n 56813: u64 [a3 + 0xa8] = a2\n 56817: a0 = 0 if a2 != 0\n 56819: jump [t0]\n      : @1962 (gas: 5)\n 56821: sp = a0\n 56823: i32 a2 = a0 + 0\n 56825: a1 = 0x40\n 56828: a0 = u64 [s1 + 0x198]\n 56832: jump [t0]\n      : @1963 (gas: 7)\n 56834: a1 = u64 [a2 + 0xb8]\n 56838: a0 = a1 <u a0\n 56841: a1 = u64 [a2 + 0xb0]\n 56845: a0 = 0 if a1 != 0\n 56847: a1 = u64 [a2 + 0xa8]\n 56851: a0 = 0 if a1 != 0\n 56853: jump [t0]\n      : @1964 (gas: 9)\n 56855: a1 = a1 <u 0x20\n 56858: a1 = a1 ^ 0x1\n 56861: a1 = a0 if a3 != 0\n 56864: a0 = a3 >u 0\n 56866: a2 = a3 >u 0\n 56868: a2 = a0 if a3 == 0\n 56871: a0 = a3 | a3\n 56874: a2 = a1 if a0 == 0\n 56877: jump [t0]\n      : @1965 (gas: 18)\n 56879: a1 = a0 <u a1\n 56882: a3 = u64 [s1 + 0x110]\n 56886: a2 = a3 + a1\n 56889: a3 = a2 <u a3\n 56892: a3 = a1 if a1 == 0\n 56895: a1 = u64 [s1 + 0x120]\n 56899: a3 = a3 + a1\n 56902: a1 = a3 <u a1\n 56905: a4 = u64 [s1 + 0x118]\n 56909: a4 = a4 + a1\n 56912: a1 = a5\n 56914: u64 [s1 + 0x1b8] = a5\n 56918: u64 [a5 + 0x18] = a4\n 56921: u64 [a5 + 0x10] = a3\n 56924: u64 [a5 + 0x8] = a2\n 56927: u64 [a5] = a0\n 56929: a0 = s1 + 0x7ff\n 56933: jump [t0]\n      : @1966 (gas: 18)\n 56935: a2 = u64 [s1 + 0x140]\n 56939: a0 = u64 [a2 + 0x8]\n 56942: a1 = i32 [a2 + 0x10]\n 56945: a2 = u64 [a2]\n 56947: a0 = reverse a0\n 56949: a3 = a0 << 0x20\n 56952: a1 = reverse a1\n 56954: a1 = a1 >> 0x20\n 56957: a3 = a3 | a1\n 56960: a0 = a0 >> 0x20\n 56963: a1 = reverse a2\n 56965: a2 = a1 << 0x20\n 56968: a2 = a2 | a0\n 56971: a1 = a1 >> 0x20\n 56974: a0 = u64 [s1 + 0x1b8]\n 56978: i32 a0 = a0 + 0x4\n 56981: a4 = s1 + 0x2138\n 56985: jump [t0]\n      : @1967 (gas: 17)\n 56987: a3 = u64 [s1 + 0x188]\n 56991: a0 = u64 [a3]\n 56993: a1 = u64 [a3 + 0x8]\n 56996: a2 = u64 [a3 + 0x10]\n 56999: a3 = u64 [a3 + 0x18]\n 57002: a0 = reverse a0\n 57004: a1 = reverse a1\n 57006: a2 = reverse a2\n 57008: a3 = reverse a3\n 57010: a4 = a3 + 0x5\n 57013: a3 = a4 <u a3\n 57016: a5 = a2 + a3\n 57019: a2 = a5 <u a2\n 57022: a2 = a3 if a3 == 0\n 57025: a2 = a2 + a1\n 57028: a1 = a2 <u a1\n 57031: jump [t0]\n      : @1968 (gas: 15)\n 57033: a0 = u64 [s1 + 0x130]\n 57037: u64 [s1 + 0x198] = a4\n 57041: a0 = a4 <u a0\n 57044: a4 = a0 ^ 0x1\n 57047: u64 [s1 + 0x178] = a3\n 57051: a4 = 0x1 if a3 != 0\n 57054: u64 [s1 + 0x180] = a2\n 57058: a0 = u64 [s1 + 0x1a0]\n 57062: a0 = a0 | a2\n 57065: a4 = 0x1 if a0 != 0\n 57068: a1 = u64 [s1 + 0x138]\n 57072: a0 = u64 [s1 + 0x1b8]\n 57076: a1 = a1 + a0\n 57079: a3 = u64 [s1 + 0x150]\n 57083: jump [t0]\n      : @1969 (gas: 10)\n 57085: u64 [s1 + 0x178] = a0\n 57089: u64 [s1 + 0x180] = a1\n 57093: a0 = u64 [s1 + 0x170]\n 57097: a0 = a0 | a1\n 57100: u64 [s1 + 0x170] = a0\n 57104: a0 = u64 [s1 + 0x1b8]\n 57108: a2 = a0 + 0xffffffffffffff80\n 57111: a0 = 0xffffffffffffffff\n 57114: a1 = 0xffffffffffffffff\n 57117: jump [t0]\n      : @1970 (gas: 9)\n 57119: a2 = a3 + a1\n 57122: a3 = a2 <u a3\n 57125: a3 = a1 if a1 == 0\n 57128: a1 = u64 [s1 + 0x1a0]\n 57132: a3 = a3 + a1\n 57135: a1 = a3 <u a1\n 57138: a4 = u64 [s1 + 0x1a8]\n 57142: a4 = a4 + a1\n 57145: jump [t0]\n      : @1971 (gas: 10)\n 57147: a3 = u64 [s1 + 0x1b8]\n 57151: a0 = u64 [a3]\n 57153: a1 = u64 [a3 + 0x8]\n 57156: a2 = u64 [a3 + 0x10]\n 57159: a3 = u64 [a3 + 0x18]\n 57162: a0 = reverse a0\n 57164: a1 = reverse a1\n 57166: a2 = reverse a2\n 57168: a3 = reverse a3\n 57170: jump [t0]\n      : @1972 (gas: 12)\n 57172: a1 = a0 <u a1\n 57175: a3 = u64 [s1 + 0x188]\n 57179: a2 = a3 + a1\n 57182: a3 = a2 <u a3\n 57185: a3 = a1 if a1 == 0\n 57188: a1 = u64 [s1 + 0x198]\n 57192: a3 = a3 + a1\n 57195: a1 = a3 <u a1\n 57198: a4 = u64 [s1 + 0x190]\n 57202: a1 = a1 + a4\n 57205: a4 = s1 + 0x4138\n 57209: jump [t0]\n      : @1973 (gas: 12)\n 57211: a1 = a0 <u a1\n 57214: a3 = u64 [s1 + 0x1a0]\n 57218: a2 = a3 + a1\n 57221: a3 = a2 <u a3\n 57224: a3 = a1 if a1 == 0\n 57227: a1 = u64 [s1 + 0x1b0]\n 57231: a3 = a3 + a1\n 57234: a1 = a3 <u a1\n 57237: a4 = u64 [s1 + 0x1b8]\n 57241: a1 = a1 + a4\n 57244: a4 = s1 + 0x5138\n 57248: jump [t0]\n      : @1974 (gas: 13)\n 57250: a1 = u64 [s1 + 0x1b8]\n 57254: a1 = a0 <u a1\n 57257: a3 = u64 [s1 + 0x1b0]\n 57261: a2 = a3 + a1\n 57264: a3 = a2 <u a3\n 57267: a3 = a1 if a1 == 0\n 57270: a1 = u64 [s1 + 0x1a8]\n 57274: a3 = a3 + a1\n 57277: a1 = u64 [s1 + 0x1a8]\n 57281: a1 = a3 <u a1\n 57284: a4 = u64 [s1 + 0x1a0]\n 57288: a4 = a4 + a1\n 57291: jump [t0]\n      : @1975 (gas: 16)\n 57293: a5 = s1 + 0x100\n 57297: a0 = u64 [a5 + 0xb8]\n 57301: a0 = a0 + 0x20\n 57304: a1 = u64 [a5 + 0xb8]\n 57308: a1 = a0 <u a1\n 57311: a3 = u64 [a5 + 0xa0]\n 57315: a2 = a3 + a1\n 57318: a3 = a2 <u a3\n 57321: a3 = a1 if a1 == 0\n 57324: a1 = u64 [a5 + 0xa8]\n 57328: a3 = a3 + a1\n 57331: a1 = a3 <u a1\n 57334: a4 = u64 [a5 + 0xb0]\n 57338: a4 = a4 + a1\n 57341: a1 = 0x3000\n 57345: jump [t0]\n      : @1976 (gas: 13)\n 57347: a4 = s1 + 0x100\n 57351: a1 = u64 [a4 + 0xb0]\n 57355: a2 = u64 [a4 + 0xa0]\n 57359: a1 = a1 | a2\n 57362: a3 = u64 [a4 + 0xa8]\n 57366: a2 = u64 [a4 + 0xb8]\n 57370: a2 = a2 | a3\n 57373: a2 = a2 | a1\n 57376: a2 = a2 >> 0x20\n 57379: a1 = a1 | a3\n 57382: a1 = a1 << 0x20\n 57385: a1 = a1 | a2\n 57388: jump [t0]\n      : @1977 (gas: 14)\n 57390: u64 [s1 + 416] = 0\n 57394: a3 = u64 [s1 + 0x188]\n 57398: a0 = u64 [a3 + 0x18]\n 57401: a1 = u64 [a3 + 0x10]\n 57404: a2 = u64 [a3 + 0x8]\n 57407: a3 = u64 [a3]\n 57409: t1 = reverse a0\n 57411: t2 = reverse a1\n 57413: ra = reverse a2\n 57415: a2 = 0\n 57417: a4 = u64 [s1 + 0x198]\n 57421: a0 = reverse a3\n 57423: a3 = 0\n 57425: jump [t0]\n      : @1978 (gas: 8)\n 57427: a0 = sp + 0xffffffffffffffe0\n 57430: a0 = a0 & 0xffffffffffffffe0\n 57433: u64 [s1 + 0x168] = a0\n 57437: sp = a0\n 57439: i32 a2 = a0 + 0\n 57441: a1 = 0x40\n 57444: a0 = u64 [s1 + 0x170]\n 57448: jump [t0]\n      : @1979 (gas: 8)\n 57450: a2 = a1 | a5\n 57453: a0 = a0 | a3\n 57456: a2 = a2 | a0\n 57459: a2 = a2 >> 0x20\n 57462: a0 = a0 | a5\n 57465: a0 = a0 << 0x20\n 57468: a0 = a0 | a2\n 57471: jump [t0]\n      : @1980 (gas: 15)\n 57473: a2 = u64 [s1 + 0x140]\n 57477: a0 = u64 [a2 + 0x8]\n 57480: a1 = i32 [a2 + 0x10]\n 57483: a2 = u64 [a2]\n 57485: a0 = reverse a0\n 57487: a3 = a0 << 0x20\n 57490: a1 = reverse a1\n 57492: a1 = a1 >> 0x20\n 57495: a3 = a3 | a1\n 57498: a0 = a0 >> 0x20\n 57501: a1 = reverse a2\n 57503: a2 = a1 << 0x20\n 57506: a2 = a2 | a0\n 57509: a1 = a1 >> 0x20\n 57512: jump [t0]\n      : @1981 (gas: 7)\n 57514: a1 = u64 [a2 + 0xb8]\n 57518: a0 = a1 <u a0\n 57521: a1 = u64 [a2 + 0xa0]\n 57525: a0 = 0 if a1 != 0\n 57527: a1 = u64 [a2 + 0x88]\n 57531: a0 = 0 if a1 != 0\n 57533: jump [t0]\n      : @1982 (gas: 8)\n 57535: u64 [sp + 48] = 0\n 57538: u64 [sp + 40] = 0\n 57541: u64 [sp + 32] = 0\n 57544: a0 = 0x4e487b7100000000\n 57554: a1 = sp + 0x20\n 57557: u64 [sp + 0x38] = a0\n 57560: a0 = 0\n 57562: jump [t0]\n      : @1983 (gas: 12)\n 57564: a5 = s1 + 0x100\n 57568: a1 = u64 [a5 + 0xb8]\n 57572: a0 = u64 [a5 + 0xa0]\n 57576: a2 = u64 [a5 + 0xa8]\n 57580: a2 = a2 | a0\n 57583: a4 = 0x100000000\n 57593: a0 = 0xffffffe0\n 57603: a0 = a1 <u a0\n 57606: a3 = u64 [a5 + 0xb0]\n 57610: a0 = 0 if a3 != 0\n 57612: a0 = 0 if a2 != 0\n 57614: jump [t0]\n      : @1984 (gas: 8)\n 57616: a1 = sp + 0xffffffffffffffe0\n 57619: a1 = a1 & 0xffffffffffffffe0\n 57622: u64 [s1 + 0x188] = a1\n 57626: sp = a1\n 57628: i32 a0 = a0 + 0\n 57630: i32 a2 = a1 + 0\n 57632: a1 = 0x20\n 57635: jump [t0]\n      : @1985 (gas: 10)\n 57637: a4 = a0 + 0x3\n 57640: a0 = a4 <u a0\n 57643: a5 = a2 + a0\n 57646: a2 = a5 <u a2\n 57649: a2 = a0 if a0 == 0\n 57652: a2 = a2 + a3\n 57655: a0 = a2 <u a3\n 57658: a0 = a0 + a1\n 57661: a1 = s1 + 0x4938\n 57665: jump [t0]\n      : @1986 (gas: 10)\n 57667: a4 = 0 if a2 == 0\n 57669: a1 = u64 [s1 + 0x198]\n 57673: a1 = a1 & ~a3\n 57676: a2 = u64 [s1 + 0x1a0]\n 57680: a0 = a2 & ~a0\n 57683: a2 = u64 [s1 + 0x1a8]\n 57687: a2 = a2 & ~a4\n 57690: a3 = u64 [s1 + 0x1b0]\n 57694: a3 = a3 & ~a5\n 57697: jump [t0]\n      : @1987 (gas: 7)\n 57699: a0 = a0 << 0x3b\n 57702: a1 = a0 >> 0x38\n 57705: u64 [s1 + 0x1b8] = a1\n 57709: a2 = 0x80 - a1\n 57713: a0 = 0xffffffffffffffff\n 57716: a1 = 0xffffffffffffffff\n 57719: jump [t0]\n      : @1988 (gas: 10)\n 57721: a3 = a4 <u a3\n 57724: a5 = a2 + a3\n 57727: a2 = a5 <u a2\n 57730: a2 = a3 if a3 == 0\n 57733: a2 = a2 + a1\n 57736: a1 = a2 <u a1\n 57739: a0 = a0 + a1\n 57742: a1 = s1 + 0x4138\n 57746: a3 = a1 + 0x600\n 57750: jump [t0]\n      : @1989 (gas: 15)\n 57752: a2 = a2 - a3\n 57755: a3 = a4 <u a5\n 57758: a2 = a2 - a3\n 57761: a4 = a4 - a5\n 57764: a0 = a0 - t2\n 57767: a0 = a0 - a1\n 57770: a1 = t1 - ra\n 57773: a0 = a0 | a2\n 57776: a2 = a1 | a4\n 57779: a2 = a2 | a0\n 57782: a0 = a0 | a4\n 57785: a2 = a2 >> 0x20\n 57788: a0 = a0 << 0x20\n 57791: a0 = a0 | a2\n 57794: jump [t0]\n      : @1990 (gas: 12)\n 57796: a3 = a3 << 0x3b\n 57799: a4 = a2 >> 0x5\n 57802: a4 = a4 | a3\n 57805: a0 = u64 [s1 + 0x1a8]\n 57809: t1 = u64 [a0 + 0x18]\n 57812: a2 = a2 << 0x3b\n 57815: a3 = u64 [a0 + 0x10]\n 57818: a1 = a1 >> 0x5\n 57821: a0 = a1 | a2\n 57824: t2 = reverse t1\n 57826: a2 = reverse a3\n 57828: jump [t0]\n      : @1991 (gas: 8)\n 57830: a0 = a0 | a3\n 57833: a3 = a1 | a2\n 57836: a3 = a3 | a0\n 57839: a3 = a3 >> 0x20\n 57842: a0 = a0 | a2\n 57845: a0 = a0 << 0x20\n 57848: a0 = a0 | a3\n 57851: jump [t0]\n      : @1992 (gas: 7)\n 57853: a0 = sp + 0xffffffffffffffe0\n 57856: a0 = a0 & 0xffffffffffffffe0\n 57859: u64 [s1 + 0x1b0] = a0\n 57863: sp = a0\n 57865: i32 a2 = a0 + 0\n 57867: a1 = 0x40\n 57870: jump [t0]\n      : @1993 (gas: 5)\n 57872: a0 = sp + 0xffffffffffffffe0\n 57875: a2 = a0 & 0xffffffffffffffe0\n 57878: u64 [s1 + 0x1b8] = a2\n 57882: sp = a2\n 57884: jump [t0]\n      : @1994 (gas: 6)\n 57886: a0 = a1 <u a0\n 57889: a2 = u64 [a3 + 0xb0]\n 57893: a0 = 0 if a2 != 0\n 57895: a2 = u64 [a3 + 0x98]\n 57899: a0 = 0 if a2 != 0\n 57901: jump [t0]\n      : @1995 (gas: 7)\n 57903: a3 = a3 | a5\n 57906: a3 = a1 if a2 == 0\n 57909: a1 = 0xffffffffffffffff\n 57912: a0 = a1 if a4 == 0\n 57915: a3 = a1 if a4 == 0\n 57918: a5 = 0 if a2 == 0\n 57920: jump [t0]\n      : @1996 (gas: 11)\n 57922: a3 = s1 + 0x100\n 57926: a0 = u64 [a3 + 0x48]\n 57929: a1 = u64 [a3 + 0x40]\n 57932: a0 = a0 | a1\n 57935: a1 = 0xffffffe0\n 57945: a2 = u64 [a3 + 0x38]\n 57948: a1 = a2 <u a1\n 57951: a2 = u64 [a3 + 0x50]\n 57954: a1 = 0 if a2 != 0\n 57956: a1 = 0 if a0 != 0\n 57958: jump [t0]\n      : @1997 (gas: 11)\n 57960: a2 = u64 [sp + 0x8]\n 57963: a2 = a2 | s1\n 57966: s1 = 0x100000000\n 57976: a0 = 0xfffffffc\n 57986: a1 = u64 [sp + 0x18]\n 57989: a0 = a1 <u a0\n 57992: a1 = u64 [sp + 0x10]\n 57995: a0 = 0 if a1 != 0\n 57997: u64 [sp + 0x8] = a2\n 58000: a0 = 0 if a2 != 0\n 58002: jump [t0]\n      : @1998 (gas: 7)\n 58004: a0 = sp + 0xffffffffffffffe0\n 58007: a0 = a0 & 0xffffffffffffffe0\n 58010: u64 [s1 + 0x190] = a0\n 58014: sp = a0\n 58016: a1 = 0x20\n 58019: a0 = 0\n 58021: jump [t0]\n      : @1999 (gas: 10)\n 58023: a3 = u64 [s1 + 0x1a8]\n 58027: a0 = u64 [a3]\n 58029: a1 = u64 [a3 + 0x8]\n 58032: a2 = u64 [a3 + 0x10]\n 58035: a3 = u64 [a3 + 0x18]\n 58038: a0 = reverse a0\n 58040: a1 = reverse a1\n 58042: a2 = reverse a2\n 58044: a3 = reverse a3\n 58046: jump [t0]\n      : @2000 (gas: 13)\n 58048: a5 = s1 + 0x100\n 58052: u64 [a5 + 0xb0] = a2\n 58056: u64 [a5 + 0xa8] = a3\n 58060: a0 = a2 | a3\n 58063: u64 [a5 + 0xb8] = a1\n 58067: a1 = a1 | a4\n 58070: a1 = a1 | a0\n 58073: a1 = a1 >> 0x20\n 58076: u64 [a5 + 0xa0] = a4\n 58080: a0 = a0 | a4\n 58083: a0 = a0 << 0x20\n 58086: a0 = a0 | a1\n 58089: jump [t0]\n      : @2001 (gas: 5)\n 58091: a0 = u64 [s1 + 0x1b8]\n 58095: i32 a0 = a0 + 0x24\n 58098: a1 = 0x1938\n 58102: a2 = s1 + a1\n 58105: jump [t0]\n      : @2002 (gas: 11)\n 58107: i32 a0 = a0 + 0x138\n 58111: a3 = s1 + a0\n 58114: a4 = a3 + 0x600\n 58118: a0 = u64 [a4 + 0xf8]\n 58122: a1 = u64 [a3 + 0x700]\n 58126: a2 = u64 [a4 + 0xf0]\n 58130: a3 = u64 [a4 + 0xe8]\n 58134: a1 = a1 | a2\n 58137: a0 = a0 | a3\n 58140: a0 = a0 | a1\n 58143: jump [t0]\n      : @2003 (gas: 10)\n 58145: a0 = u64 [sp + 0x10]\n 58148: a1 = u64 [sp + 0x18]\n 58151: a2 = 0x100000000\n 58161: a2 = a2 ^ a0\n 58164: a2 = a2 | a1\n 58167: a3 = a0 >> 0x20\n 58170: a3 = a3 <u 0x1\n 58173: a3 = 0 if a1 != 0\n 58175: a3 = 0 if a2 == 0\n 58177: jump [t0]\n      : @2004 (gas: 7)\n 58179: a1 = a0 | a3\n 58182: a1 = a1 | a2\n 58185: a1 = a1 >> 0x20\n 58188: a2 = a2 | a3\n 58191: a2 = a2 << 0x20\n 58194: a1 = a1 | a2\n 58197: jump [t0]\n      : @2005 (gas: 5)\n 58199: sp = a0\n 58201: i32 a2 = a0 + 0\n 58203: a1 = 0x40\n 58206: a0 = u64 [s1 + 0x188]\n 58210: jump [t0]\n      : @2006 (gas: 4)\n 58212: a2 = a0\n 58214: a0 = 0x4e487b7100000000\n 58224: a1 = 0x4000\n 58228: jump [t0]\n      : @2007 (gas: 10)\n 58230: a0 = a0 + 0x1\n 58233: a4 = a0 <u 0x1\n 58236: a2 = a2 + a4\n 58239: a4 = a0 | a2\n 58242: a4 = a4 <u 0x1\n 58245: a4 = a4 + a3\n 58248: a3 = a4 <u a3\n 58251: a1 = a1 + a3\n 58254: a3 = 0x5000\n 58258: jump [t0]\n      : @2008 (gas: 13)\n 58260: a4 = s1 + 0x100\n 58264: u64 [a4 + 0xb0] = a0\n 58268: u64 [a4 + 0xa8] = a2\n 58272: a0 = a0 | a2\n 58275: u64 [a4 + 0xb8] = a1\n 58279: a1 = a1 | a3\n 58282: a1 = a1 | a0\n 58285: a1 = a1 >> 0x20\n 58288: u64 [a4 + 0xa0] = a3\n 58292: a0 = a0 | a3\n 58295: a0 = a0 << 0x20\n 58298: a0 = a0 | a1\n 58301: jump [t0]\n      : @2009 (gas: 12)\n 58303: a4 = s1 + 0x100\n 58307: u64 [a4 + 0x50] = a0\n 58310: u64 [a4 + 0x48] = a2\n 58313: a0 = a0 | a2\n 58316: a2 = a1 | a3\n 58319: a2 = a2 | a0\n 58322: a2 = a2 >> 0x20\n 58325: u64 [a4 + 0x40] = a3\n 58328: a0 = a0 | a3\n 58331: a0 = a0 << 0x20\n 58334: a0 = a0 | a2\n 58337: jump [t0]\n      : @2010 (gas: 4)\n 58339: a2 = a3 + a1\n 58342: a3 = a2 <u a3\n 58345: a3 = a1 if a1 == 0\n 58348: jump [t0]\n      : @2011 (gas: 5)\n 58350: u64 [s1 + 0x1b8] = a1\n 58354: i32 a2 = 0x80 - a1\n 58358: a0 = 0xffffffffffffffff\n 58361: a1 = 0xffffffffffffffff\n 58364: jump [t0]\n      : @2012 (gas: 11)\n 58366: a4 = a4 + a1\n 58369: a1 = a4 <u a1\n 58372: a1 = a1 + a3\n 58375: a1 = a1 | a2\n 58378: a2 = a0 | a4\n 58381: a2 = a2 | a1\n 58384: a1 = a1 | a4\n 58387: a2 = a2 >> 0x20\n 58390: a1 = a1 << 0x20\n 58393: a1 = a1 | a2\n 58396: jump [t0]\n      : @2013 (gas: 6)\n 58398: a0 = s1 <u a0\n 58401: a1 = u64 [sp + 0x10]\n 58404: a0 = 0 if a1 != 0\n 58406: a1 = u64 [sp + 0x8]\n 58409: a0 = 0 if a1 != 0\n 58411: jump [t0]\n      : @2014 (gas: 6)\n 58413: u64 [s1 + 0x188] = a0\n 58417: u64 [s1 + 0x170] = a1\n 58421: a0 = 0xffffffffffffffff\n 58424: a1 = 0xffffffffffffffff\n 58427: a2 = u64 [s1 + 0x1b8]\n 58431: jump [t0]\n      : @2015 (gas: 4)\n 58433: i32 a0 = a0 + 0x138\n 58437: a1 = s1 + a0\n 58440: a2 = a1 + 0x100\n 58444: jump [t0]\n      : @2016 (gas: 5)\n 58446: u64 [s1 + 440] = 0\n 58450: u64 [s1 + 432] = 0\n 58454: u64 [s1 + 416] = 0\n 58458: u64 [s1 + 424] = 0\n 58462: jump [t0]\n      : @2017 (gas: 8)\n 58464: a4 = a4 | a2\n 58467: a2 = a0 | a1\n 58470: a2 = a2 | a4\n 58473: a2 = a2 >> 0x20\n 58476: a1 = a1 | a4\n 58479: a1 = a1 << 0x20\n 58482: a1 = a1 | a2\n 58485: jump [t0]\n      : @2018 (gas: 12)\n 58487: a2 = u64 [sp]\n 58489: a3 = u64 [sp + 0x8]\n 58492: u64 [s1] = a2\n 58494: u64 [s1 + 0x8] = a3\n 58497: u64 [s1 + 0x10] = a0\n 58500: u64 [s1 + 0x18] = a1\n 58503: sp = s0 + 0xffffffffffffffc0\n 58506: ra = u64 [sp + 0x38]\n 58509: s0 = u64 [sp + 0x30]\n 58512: s1 = u64 [sp + 0x28]\n 58515: sp = sp + 0x40\n 58518: jump [t0]\n      : @2019 (gas: 8)\n 58520: a0 = a0 | a2\n 58523: a2 = a4 | a1\n 58526: a2 = a2 | a0\n 58529: a2 = a2 >> 0x20\n 58532: a0 = a0 | a1\n 58535: a0 = a0 << 0x20\n 58538: a0 = a0 | a2\n 58541: jump [t0]\n      : @2020 (gas: 6)\n 58543: a1 = a0\n 58545: u64 [s1 + 0x1a8] = a0\n 58549: i32 a0 = a0 + 0\n 58551: u64 [s1 + 0x1b0] = a0\n 58555: a0 = u64 [s1 + 0x1b8]\n 58559: jump [t0]\n      : @2021 (gas: 8)\n 58561: u64 [sp + 64] = 0\n 58564: u64 [sp + 56] = 0\n 58567: u64 [sp + 48] = 0\n 58570: a0 = 0x4e487b7100000000\n 58580: a1 = sp + 0x30\n 58583: u64 [sp + 0x48] = a0\n 58586: a0 = 0\n 58588: jump [t0]\n      : @2022 (gas: 9)\n 58590: u64 [s1 + 0x1b0] = a1\n 58594: a3 = a1 | a4\n 58597: a1 = a0 | a5\n 58600: a1 = a1 | a3\n 58603: a1 = a1 >> 0x20\n 58606: a3 = a3 | a5\n 58609: a3 = a3 << 0x20\n 58612: a1 = a1 | a3\n 58615: jump [t0]\n      : @2023 (gas: 8)\n 58617: a0 = sp + 0xffffffffffffffe0\n 58620: a0 = a0 & 0xffffffffffffffe0\n 58623: u64 [s1 + 0x1b8] = a0\n 58627: sp = a0\n 58629: a0 = u64 [s1 + 0x190]\n 58633: a0 = i32 [a0]\n 58635: a1 = 0x3f\n 58638: jump [t0]\n      : @2024 (gas: 7)\n 58640: a0 = 0x20\n 58643: u64 [s1 + 0x1b8] = a0\n 58647: a5 = 0\n 58649: u64 [s1 + 432] = 0\n 58653: u64 [s1 + 424] = 0\n 58657: u64 [s1 + 408] = 0\n 58661: jump [t0]\n      : @2025 (gas: 8)\n 58663: a5 = u64 [s1 + 0xe8]\n 58667: a4 = a0 ^ a5\n 58670: a0 = a0 <u a5\n 58673: a5 = u64 [s1 + 0xe0]\n 58677: a2 = a2 <u a5\n 58680: a2 = a0 if a4 != 0\n 58683: a0 = u64 [s1 + 0xf0]\n 58687: jump [t0]\n      : @2026 (gas: 4)\n 58689: a0 = u64 [s1 + 0x1b8]\n 58693: a0 = i32 [a0]\n 58695: a1 = 0x23\n 58698: jump [t0]\n      : @2027 (gas: 8)\n 58700: a0 = a0 + s1\n 58703: u64 [a0 + 1856] = 0\n 58707: u64 [a0 + 1848] = 0\n 58711: u64 [a0 + 1840] = 0\n 58715: a2 = a0\n 58717: a0 = 0x20\n 58720: a1 = 0x3000\n 58724: jump [t0]\n      : @2028 (gas: 7)\n 58726: a4 = a2 + a0\n 58729: a4 = a4 + a3\n 58732: a3 = a4 ^ a2\n 58735: u64 [s1 + 0x190] = a4\n 58739: a2 = a4 <u a2\n 58742: a2 = a0 if a3 == 0\n 58745: jump [t0]\n      : @2029 (gas: 8)\n 58747: a0 = s1 + 0xffffffffffffffdc\n 58750: a1 = u64 [sp + 0x18]\n 58753: a0 = a1 <u a0\n 58756: a1 = u64 [sp + 0x10]\n 58759: a0 = 0 if a1 != 0\n 58761: a1 = u64 [sp + 0x8]\n 58764: a0 = 0 if a1 != 0\n 58766: jump [t0]\n      : @2030 (gas: 6)\n 58768: sp = s0 + 0xffffffffffffffa0\n 58771: ra = u64 [sp + 0x58]\n 58774: s0 = u64 [sp + 0x50]\n 58777: s1 = u64 [sp + 0x48]\n 58780: sp = sp + 0x60\n 58783: jump [t0]\n      : @2031 (gas: 7)\n 58785: a0 = sp + 0xffffffffffffffe0\n 58788: a0 = a0 & 0xffffffffffffffe0\n 58791: u64 [s1 + 0x1a8] = a0\n 58795: sp = a0\n 58797: i32 a2 = a0 + 0\n 58799: a1 = 0x20\n 58802: jump [t0]\n      : @2032 (gas: 4)\n 58804: a0 = 0x1138\n 58808: a1 = s1 + a0\n 58811: a2 = a1 + 0x300\n 58815: jump [t0]\n      : @2033 (gas: 4)\n 58817: i32 a0 = a0 + 0xfffffffffffff938\n 58821: a3 = s1 + a0\n 58824: a4 = a3 + 0x100\n 58828: jump [t0]\n      : @2034 (gas: 7)\n 58830: a0 = a0 + s1\n 58833: u64 [a0 + 736] = 0\n 58837: u64 [a0 + 728] = 0\n 58841: u64 [a0 + 720] = 0\n 58845: a2 = a0\n 58847: a0 = 0x20\n 58850: jump [t0]\n      : @2035 (gas: 7)\n 58852: a0 = a0 + s1\n 58855: u64 [a0 + 1280] = 0\n 58859: u64 [a0 + 1272] = 0\n 58863: u64 [a0 + 1264] = 0\n 58867: a2 = a0\n 58869: a0 = 0x20\n 58872: jump [t0]\n      : @2036 (gas: 8)\n 58874: a0 = a0 + a4\n 58877: a3 = a3 + a1\n 58880: a5 = a3 <u a1\n 58883: a0 = a0 + a5\n 58886: ra = u64 [s1 + 0x180]\n 58890: ra = ra + a3\n 58893: a3 = ra <u a3\n 58896: jump [t0]\n      : @2037 (gas: 8)\n 58898: a0 = u64 [a4 + 0x18]\n 58901: a1 = u64 [a4 + 0x20]\n 58904: a2 = u64 [a4 + 0x10]\n 58907: a3 = u64 [a4 + 0x8]\n 58910: a1 = a1 | a2\n 58913: a0 = a0 | a3\n 58916: a0 = a0 | a1\n 58919: jump [t0]\n      : @2038 (gas: 5)\n 58921: sp = a0\n 58923: i32 a2 = a0 + 0\n 58925: a1 = 0x40\n 58928: a0 = u64 [s1 + 0x190]\n 58932: jump [t0]\n      : @2039 (gas: 11)\n 58934: u64 [sp + 0x10] = a0\n 58937: u64 [sp + 0x8] = a2\n 58940: a0 = a0 | a2\n 58943: u64 [sp + 0x18] = a1\n 58946: a1 = a1 | s1\n 58949: a1 = a1 | a0\n 58952: a1 = a1 >> 0x20\n 58955: a0 = a0 | s1\n 58958: a0 = a0 << 0x20\n 58961: a0 = a0 | a1\n 58964: jump [t0]\n      : @2040 (gas: 4)\n 58966: i32 a1 = a1 + 0x138\n 58970: a2 = s1 + a1\n 58973: a3 = a2 + 0x500\n 58977: jump [t0]\n      : @2041 (gas: 2)\n 58979: a3 = a2 & 0x40\n 58982: jump @2045 if a3 != 0\n      : @2042 (gas: 1)\n 58985: jump @2044 if a2 == 0\n      : @2043 (gas: 6)\n 58988: i32 a3 = 0x40 - a2\n 58991: a3 = a1 << a3\n 58994: a1 = a1 >> a2\n 58997: a0 = a0 >> a2\n 59000: a0 = a0 | a3\n 59003: ret\n      : @2044 (gas: 1)\n 59005: ret\n      : @2045 (gas: 4)\n 59007: a0 = a2 + 0xffffffffffffffc0\n 59010: a0 = a1 >> a0\n 59013: a1 = 0\n 59015: ret\n      : @2046 (gas: 2)\n 59017: a3 = a2 & 0x40\n 59020: jump @2050 if a3 != 0\n      : @2047 (gas: 1)\n 59023: jump @2049 if a2 == 0\n      : @2048 (gas: 6)\n 59026: i32 a3 = 0x40 - a2\n 59029: a3 = a0 >> a3\n 59032: a0 = a0 << a2\n 59035: a1 = a1 << a2\n 59038: a1 = a1 | a3\n 59041: ret\n      : @2049 (gas: 1)\n 59043: ret\n      : @2050 (gas: 4)\n 59045: a1 = a2 + 0xffffffffffffffc0\n 59048: a1 = a0 << a1\n 59051: a0 = 0\n 59053: ret\n",
        "bytecode": {
          "object": "50564d00009d0e010000000000010700c12002c000800381e86e776f20796c6e4f75206e61632072657473206574616470696f6320656c626170416920796c6e4f6570206e616320706874206d726f66726f697463612073692064696c61766e492065736e65707865b78815751ab018bc9c46ed36d44a83c97b404cbcc26722eef66616e277b474a479617020796c6e4f70206e616320726574206d726f66726569746361207369686d61206c61746f5473696d20746e756ffc4b8508653c599bca7e1cc01033a2e857c9b6a97ae3e52e68b1a234164a61cc03432b9bcebd4f80cc229f67cd71d641bbed5b54dbe903b9b9bde230624edac7726566736e6172540064656c696166206369666675736e496c616220746e65696c6c6120746e6569000065636e61776f726c61206d6574496961702079646165736d657469206f4e657463656c6573202065736e657078456461657220746f6e657220726f66207965726320796c6e4f6e616320726f74616d726f66726570206361207369687420c5b8d239e840449d853374d51c60f70f347d02ed9e6a18d0d61ad35c6f6004a04169206574616470696c6275702070708845f513d15dd881f31fcb15b9182552c717ce02582c4ff4c79051001cb0a1966874756120746f4e742064657a69726f737365636361206f78652073696874202064696c61766e49004449206d6574690481101100000000070000000b0000001900000027000000350000003b000000480000005300000062000000650000007200000082000000920000009d000000af000000ba0000006164647265737363616c6c63616c6c5f646174615f636f707963616c6c5f646174615f6c6f616463616c6c5f646174615f73697a6563616c6c65726465706f7369745f6576656e746765745f73746f72616765686173685f6b656363616b5f3235366e6f777265665f74696d655f6c65667472657475726e5f646174615f636f707972657475726e5f646174615f73697a657365616c5f72657475726e7365745f696d6d757461626c655f646174617365745f73746f7261676576616c75655f7472616e73666572726564051302c070d80463616c6cc079d8066465706c6f7906c16f0b83f202c0afe69b00e3012703dd033e04460445054a05cf05da0508063d06a806e906090748076707a907db07e6072c08400855089408c208ca088209b0090f0a310a5c0a780a7e0a9b0ac80ad60ae90a4d0b530b650b870b8d0b9f0bb90bbf0b020c080ca80cd80cf60cd10d270e490e8e0e980eb50eec0ef20e2a0f4c0f6a0f7a0f840fa20fd00fd70f531084101611251133115a119d11e011eb118c129712a712ee12f91217132013b413d713f61304140b1426142f1467148a14a914b714be14dc14e514481563159815d715321641164f1661166c16a416d216e116f5165a17611794179b17c417cb170b18121861188d18ee18f91807193419521959197b19b419bb19d119fd19201a3f1a961ac41acb1a3f1b701b8c1bf31bfe1b251c371c421c7a1ca81cb71ccb1c2f1d361d491d6e1d751d881da31daa1de71dee1d471e521e601ebc1edf1e091f2b1f361f541f8d1f941fac1fd01ff31f132029203420522080208720ee211f2284229d22d222b324d4257426ba26092741276827a12726288728c62851296d297829a129112a472a032b532b7e2b9e2bde2b1d2cc12ce42c1e2d292d472deb2d0a2e3b2e7a2ef12e212f852fb02ff42ffb2f393076307d30be30e9301e3125312f314d317f318631b131c0318b326f33bc33ea33f93322347c340e356935d93535369036fd362d373837463793379a37df375738bd3820393f395339a939dd39603a7e3a883ab03a203b553b163cb93cea3c093d743d7f3de23d2f3e463e563e5f3edd3efc3e2d3f8d3f52406d407d401d413c416c41aa410e42284258425f428742f542fc4298439f43a543ac438244a244dc44a545ff4506464a468446b646c146024730473747594768478c47af47ce47dc47e347054867489b48be48dd48ef48fa484449a749d949fb49154a374a904afb4a2d4b484b764b854bd14bd84b3b4c504ccd4cd64c274da34db94df54d6d4e9f4eaa4eec4e1a4f214f434f504f7c4f9f4fbe4f21504b5065508f50aa50b150dc50fa50145132513951635181518851d8510d522c525a526952ae52b5520e5324535b53c75313547554cd54e6541e557a55ac55b755fb5529563056525670569d56c056e056ee56f55617579057b357d357e557f05739588c58de58e958f75817598b59aa59d7592f5a9c5ab75af15afe5a2f5b645b6e5bb65be75bed5b175c505c7b5c9b5cad5cb45cbe5ce05c305d945df65d575e905e005f1a5f565f915f57609d603f615c6194619e61e0611e628c62a662d66228637663e863026432647864e564ff642f657c658965ab6508662266486655667366e766fd662d67a167f8673e68d468326938697d69576a766aa16abe6ac46acd6ae76a166b236b346b5c6b666b776b956ba26ba86bb16bcb6be46b4b6c646c766c996cc96ce46c986dac6de26de86dee6df46dfa6d006e656ee96e596f5f6f7a6fa06fbd6fc76f09709e70e270f77001714c71be71d371dd711d72337274728572e872f37223737f73c4731d752e754c759475f775fd750f76327638764a7665766b76ae76b476e576f3760d7717772877837789779b77b977ff777178d5787879517acd7a867bdf7b8a7c987c017dd57d397e4b7edc7e757f937fa37ff77f1a8038803f805f807a80db80e88014811e812c814a8157815d819e81bc81de811a823e825c8269826f82af82b982cb82f5824483fc83278493849e84e284088512853a856485c785d985bb86cb86e086fa862587a387b987db87f1870d881e882a8846885a88a5880f895b897789be89238ac38ac98ad08ad68ae38ae98aef8a0e8b858bbc8bc28b0d8c738c898c8f8ca58cc18cd28ce88c048d188dc38dd48d068e0c8e128e188e1e8e248e2a8e4a8e908ea88e058f0b8f268f4c8f698f738fbd8fcc8f41909d90bb90d09025915491cf91b8934394499450945694639469946f948e94dd94f69431953795f295039635963b96419647964d96539659967896ca96e2965197579772979897b59722983c986a987498a298ac98eb98f9986a9978999299bc99d099189aae9a3f9b489b949bd19b3a9cdc9c309daa9dc59df79dfd9d129e199e629eb49ebf9ed39edf9efe9e3a9f4c9f0ea01ea033a04da078a092a0bba0d1a0d7a0eda009a11aa126a142a156a1a9a1dea1e4a1f9a100a230a259a27da29fa2aca2b2a2d5a2ffa273a37ea3c2a3dea310a438a46ea499a4d5a4e7a4c2a5d2a5e7a52aa648a66fa685a68ba69fa6bba6cca6d6a6f2a606a73aa748a761a792a798a7a9a7b0a7dba7eaa767a88ba8b1a825a943a992a9e7a938aa7eaac3aadeaaebaaf1aa23ab7dabb8abc5abf6ab1aac38ac45ac4bac75aceeac12ad38ad45ad4bad96adb0add5ad24ae3fae4cae52ae5dae99aea7aebdaee1aef5ae41af9dafccaf8db09bb0b5b0fdb026b14ab174b185b18bb196b1d5b1e3b131b2bcb213b381b3d4b3b3b4e0b42cb535b556b57ab590b5a4b5adb5e5b5f9b534b648b651b689b69db6a6b6c7b637b795b7deb7e4b7edb703b86cb8cab83eb94db95bb9cdb9f2b9abba04bbdcbc5fbdb1bdc7be28bfedbf6ec0adc1c8c1cfc1e9c10dc2f4c263c3b5c3c2c43fc59cc5bbc5f5c51bc621c62ac63fc6b4c6bbc6d3c6f7c649c75fc78bc791c7b7c7bdc7ddc7f9c72cc837c861c86ec87ec8cfc8f9c84ec963c990c9b9c9a9cac8cadbca73cb9dcbf0cb3fcc61ccebcc8bcdf0cdface19cf3dcfa5cf95d0afd0d3d043d14bd152d16ad18ed1e4d10ed250d265d2a4d200d37bd3d9d3d2d415d540d509d610d628d64cd69ed6b4d6e0d6e6d606d70cd72cd73cd766d772d781d726d82dd847d879d883d8aa876e978a2098aa20977b2098bb20c89b0bc9ba0a979b019abbaeab20ae873751094ec87909647a017c8b95880195ac0178ab64caab9cf42836510934c87909647a017c8b95880195ac0178ab64caab9cf4281c51091a839aff01c8a80b7cbb9599ffc8a70c78cb83aaff5209f032003908f001025108c207330720020383770a0e28b5079511f07b10087b1564896475330820649750100260047c78017c797c7a027c7b03978808d4980897aa1097bb18d4ba0ad4a8087c79057c7a047c7b067c7c07979908d4a90997bb1097cc18d4cb0bd4b909979920d489027c79097c7a087c7b0a7c7c0b979908d4a90997bb1097cc18d4cb0bd4b9097c7a0d7c7b0c7c7c0e7c780f97aa08d4ba0a97cc10978818d4c808d4a808978820d498037c78117c7a107c7b127c7c13978808d4a80897bb1097cc18d4cb0bd4b8087c7a157c7b147c7c167c791797aa08d4ba0a97cc10979918d4c909d4a909979920d4890a7c78197c79187c7b1a7c7c1b978808d4980897bb1097cc18d4cb0bd4b8087c791d7c7b1c7c7c1e7c771f979908d4b90997cc10977718d4c707d49707977720d487076f776fa86f396f2a7b5a187b59107b58087b57821008821595111032009511d87b10207b15187b161082897b19088289087b1982851082861833082050100418036f686f59821a6faa821b086fbb787b18787a10787908787898bc38787c1f98bc30787c1e98bc28787c1d98bc20787c1c98bc18787c1b98bc10787c1a98bb08787b1998ab38787b1798ab30787b1698ab28787b1598ab20787b1498ab18787b1398ab10787b1298aa08787a11989a38787a0f989a30787a0e989a28787a0d989a20787a0c989a18787a0b989a10787a0a98990878790998893878790798893078790698892878790598892078790498891878790398891078790298880878780182102082151882161095112832009511a07b10587b15507b16489515608411e06476828718828910828a0882886f776f996faa6f887b18187b1a107b19087b17491138491130491128491120481140208318831a20831b403309ff33070a07821738821830821928821a206f776f886f996faa7b6a187b69107b68087b675012066fe20032009511a07b10587b15509515608411e08272827a08827b108277188283828908828c108288186f746fbb6faa6f276f826fcc6f996f387b17187b1a107b1b087b147b18387b19307b1c287b12208318831a203309ff330b2033070a0f9551a08210588215509511603200951160ff7b1098007b1590007b1688009515a0008411e082ab7b1b3882ab087b1b3082ab107b1b2882aa187b1a20829a7b1a18829a087b1a10829a107b1a088299187b1964865010081e0182186f888219086f99821a106faa821b186fbb7b1b587b1a507b19487b18408218206f888219286f99821a306faa821b386fbb7b1b787b1a707b19687b18608379836a8317403308020a06955160ff8210980082159000821688009511a00032007b185850100cb5006f687b18980082186f887b1890008218086f887b1888008218106f887b1880008218186f887b18b8008218206f887b18b0008218286f887b18a8008218306f887b18a0008218386f887b18d8008218406f887b18d0008218486f887b18c8008218506f887b18c0008218606f887b18f8008218686f887b18f0008218706f887b18e8008218786f887b18e0008379811a58831780003308040a069551e0fe8210180182151001821608019511200132008b7910520931c8780883881f8488e05638000001253309ec0102390aec0102ae8a093d08ec01020133080002028377c887073200009511f07b10087b158475010a04013d07e8010251050750100e095010101003951100fd951700027b70f8007b75f0007b76e800951500038411e049217801492170014921680149216001831760010a1001821770018218780182196801821a6001d49808d4a707d48707520776023906e8010297672098772095771f8477e095788000d87807492158017b1840017b17480194777b17500133074095184001501012f5fb33078000646850101421ff8377646833090a0201531640340249211801492110014921000180009517200195180001492108015010169cb100821720017b1720821728017b1718801730017b17104921d8004921d0004921c000a0009517e0009518c0004921c80050101867b1008217e0007b17388217e8007b17308017f0007b1728330600020383670a053a0708020339081002033a090002036f77977a206f88988820d4a8087b18089877206f98978620d467077b1798862049219801492190014921880149218001039517a0009518800150101a0efc8017b4009777208218b800d467074921b8014921b0014921a8014921a001037b18d80182187b18c8018218087b18c0017b17d0019517a0019518c00150101c45fc4921f8014921f0014921e8013306027b16e001951780009518e00150101eadfb8017940097772082189800821910d49707951a0002491a18491a10491a087ba68219187ba9288219207ba9207ba8387ba7309517000295182002501020e6fb951700024917584917504917483306047b7640951760951840025010224ffb801774977720821878821928d49707951a0002491a78491a70491a687ba6608219307ba988008219387ba980007ba898007ba79000951760029518800250102485fb951800024928b8004928b0004928a8004928a000014928d8004928d0004928c8004928c0009517a0029518c00250102653fb951740330840501028a4f8821758821850821948821640d49707d48609d47909989920d48707977720d4970751071c0033080002028388330701283833080002028388330701282c6467330850102acffc8377330833090a02283cf86467330850102cbbfc83783307330933002e0a0d280a330933002e0a0d01951110fe7b10e8017b15e0017b16d8019515f001951190a88411e06416956938414929c0054929b8054929a80580003307409568e0464929b00550103030f93307e801027b67b8013907e80102551704082814a800956700408377000733083300320a03330234956a3841280a330234956a38410181a7e40552475bcba58d0a2802125147e54226996303956938515247862152be0a2849225147d5c2cfc209085147a6d1ecce40045247348552d10a288d28524729ebbae00a28040d5247b1ff34ea0a282e3352479620ebf70a28fa1452479fe151050a28a02595693849524745e74f110a28bb1b5147f6214a1ea506524770c039200a287c125247364810590a28eb0e51479a1746660a283217492900044929f8034929f0034929e80395670050837720fd3300360a1001956a384995ab000382b7f80082a8000482b9f00082bae800d49808d4a707d48707510707283ba70050123897db00ac78072835a70095670050837740fd3308040a0395673849957c000482cb2082ca1882c81082c90895673811956c00017bcb80007b7be0067bca8800957b00067bbad8007bc890007bb8d000956800187bc998007bb9c800330750103ab5f7956738114927c0064927b8064927b00664793307209568e0174929a80650103c93f73309ec01023907ec010233083fac78142003ec0102407b69700133023e28c2d7007b69700150123ebad7003307000202837783993308407b6778013300400a08330242285ecf005012425acf00958c00047bca287bc9307bcb387bc7409567c0179568604d5010441bf895673811827890067b68b801827888067b68b001807798067b67a80133070002037b67a00183773300460a0501956c000182c9a000501248b3cd005207072816a6009567a01733084050104aa1f5956b381182b2800695b80006828c78828a70828768d42a09d4c708d49808988820d4c909979920d4980851080728a3a500492b5806492b5006492b48067b6ab001140a00000000a079c308956880177bba60067b67b8017b62a8017b6ca00150104c77f650124e20ce005207072863a50083870433025095693811014929400649293806492928062095686017492930067b6aa8017b6ba0015010523df6501254afd0005207072829a50083872433025695693811014929200649291806492908062495684017492910065010580bf650125a9dd00052070728f7a4008387443a084801027b69a001956b38117bb800063a085001023a095801023a0a60010295bc00057bc8f8007bc9f000956820177bcae80050105cc2f550125e14d00052070728aea400839764956a3811492ad805492ad0051408000000006e6f69747ba8e00595680017492ac805330058042887f59567385149278000491778491770491768956700508377a0010a1001956a385182a77882a8800082a97082aa68d49808d4a707d4870751070728c6a5008267b80181775617030828c0a500956838514928a000492898004928900049288800049567202b9568c0515010600ef695683829958900018297f800956800017b87a8008297f0007b87b8008297e8007b87b0009567002b330840501062b2f3956a382995ac000182cbe00082c8d80082c9d00082c7c80050126470d70051080728c0a300956b000182b8a800978820988920492ac00182b8b00095ac00017bc8a80082b8b8007bc8b0009568e02a7bc9b8007b67b80133004803288cf44929c0014929b8014929b0014929a801956700508377e0020a1001956a385195ab000182b7b80082b8c00082b9b00082baa800d49808d4a707d4870751070728d5a4008267b80181775617430828cfa40095670050837700033308040a0395683851958900018297e0007b67a0018297d8007b67a8018297d0007b67b0018297c8007b67b80195670050837720033308240a03330266956838510182870002956a00017ba770958900018297f8007ba7788297f0007ba780008297e8007ba788009569383182a7a000959b00067bb7800082a7a8007bb77882a7b0007bb7709568a03782a7b8007bb76833075010689df3956738314927600649275806492750066479330720956880374929480650106a7bf33309ec01023907ec010256173f0b2003ec010240017b6998019517e08479e07b69680164913307000202837783993308407b67900133006c0a08826a680133026e2897cc00826a680150126e8fcc00958c00027bca087bc9107bcb187bc720956760379568405350107001f495673831827830067b686001827828067b685801807738067b67500133070002037b67680183777b6748013300720a05330274281fcb005012741bcb003308015207062843388267b80195693831959a00067ba7088267b0017ba7108267a8017ba718956840378267a0017ba72033075010769af295673831492700064927f8054927f0056479330720956820374929e80550107878f282699801819756173f08480940019517e08477e07b67600150127ac5d60033007c0a08826a600133027e282bca00826a600150127e23ca00958a00027bab287bac307ba9387ba74095670037956860535020800015f3956738318278d0057b6860018278c8057b6858018077d8057b67500182674801330082000a0533028400283bca005022840037ca00510706288736330801285b374929a001492998014929900149298801956700508377c0fa0a1001956b384995bc000182c7980082c8a00082c9900082ca8800d49808d4a707d487075107072838a2008267b8018177561703082832a200492bc001492bb801492bb001492ba80101956740119568e04a5020860064f295683811828720956900017b97b8008287187b97b0008287107b97a8008287087b97a000956720113308405020880007f0956a381182a795ab00ff82b8f80082b9f00082bae800d49707d48a09d47909989920d48707977720d497075107072807a0009567ff0795773901956b000182b8a000957c00077bc8c80082b8a8007bc8d00082b8b0007bc8d8009568001182b9b8007bc9e00064a77bbab8003300480328cbf049292001492918014929100149290801956700508377400233008a000a1001956a385195ab000150228c00f4d4005107072842a10050228e0015d400ac7807283ca1001407ffffffff000000007b6758014926000100ff009567e03250209000a2b40095683831958900018297b8007b6750018297b0007b6748018297a8007b6740019568385149284001492838014928300149282801019567c03295686052502092001af1956b383195bc000182c7a00082c8980082c9900082ca88007b6778017bc7607b6870017bc8587b6968017bc9509567a032956880327b6a60017bca48502094004cb90033070030502296005dd20082978000956800017b87208297787b87188297707b87108297687b8708492638014926300149262801492680013303330433023300956b38290182676001d8730782696801d39408d89409da8709826c7001d8c207826a7801d3a008d8a00ada870ad3c207d48707da790a82698001520a0628e82a7b63b8017bb348077b64b0017bb450077b62a0017bb25807956880307b60a8017bb0600733075020980039ef3307382950229a00bcd200838860c868084929280750209c001eef3309ec01023907ec010256173f0b2003ec010240017b6990019517e08479e07b69980164913307000202837783993308407b67880133009e000a08826a98013302a00028b7c600826a98015022a000afc600958a00017bab487bac507ba9587ba76095674030956880525020a200a0ef3302a400956b38290195ba000782a70882a81882a910826a4001d3a707826a5001d3a808826a4801d3a9098499ff826c5801d2c8088477ffd48707d4970751072f8263b8018264b0018260a8018268a00101953301883701c87404d44307887701c87802d88208c8800028a4fe8267b80195b800067b87e8008267b0017b87f0008267a0017b87f800956820308267a8017bb7000733075020a60011ee956738294927e0064927d8064927d0066479330720956800304929c8065020a800eeed82699001819756173f08480940019517e08477e07b6798015022aa0068cf003300ac000a083302ae0028d3c8005022ae00cfc8007bab687bac707ba9787ba780009567e02f9568a0525020b00091ee3302b200956b3829017cb7a806510725ff8267b80195b900067b9788008267b0017b9790008267a0017b9798009568c02f8267a8017b97a00033075020b4005eed9567382949278006492778064927700664793307209568a02f492968065020b6003bed82699001819756173f08480940019517e08477e07b6798015022b800b5ce003300ba000a083302bc002820c8005022bc001cc8007bab88007bac90007ba998007ba7a0009567802f9568c0525020be00dbed3302c000956b38290182b7480682680001d28707520768fe956c000182c73895b800057b87e80082c7087bb7080682c7307b87f00082c7107bb7100682c7287b87f80082c7187bb7180682c780007bb700069567602f9568402f9569202f82ca207bba20065020c200fcb900956b382995bc000682c84082c93882ca3082c7285022c40060c70051080728539b008268b80195ba00057ba8c8008268b0017ba8d0008268a0017ba8d8009568002f8269a8017ba9e0005020c6002dec95673829826880017b78a00595673829826828017b78980595673829826830017b7890059567e02e9568c02e95693829826a38017b9a88055020c800e8bf00956900018298a0008260a8018264b0018263b801956b382995ba000582a7c0007b97800082a7b8007b972882a7b0007b973082a7a8007b97382859fd4929200649291806492910064929080695670050837740073300ca000a1001956a385195ab00065022cc00d8cf0051070728369c005022ce00f9ce00ac780728309c00956780425020d0009baf00330700405022d200dccd008297587b6788018297507b6790018297487b67980195683851492840064928380649283006492828060395676042956860575020d40013ec95683841828730017b67b801828728017b67b001808738017b67a80133070002037b67a00183773300d6000a0501956c000182c9a0005022d800a9c10052070728a69b00956740423308405020da0096e9956b384182b2200195b80001828c18828a10828708d42a09d4c708d49808988820d4c909979920d4980851080728979900492bf800492bf000492be8007b6ab001140a00000000a079c308956820427bba00017b67b8017b62a8017b6ca0015020dc006bea5022de0013c2005207072855990083870495693841330c4929e0004929d8004929c80020956800424929d0007b6aa8017b6ba0015020e00031ea5022e200a2c400520707281b9900838724956938414929c0004929b8004929a800219568e0414929b0005020e40001ea5022e60092c40052070728eb98008387443a080000027b69a001956b38417bb8a0003a080800023a091000023a0a1800027bb898007bb990009568c0417bba88005020e800bae95022ea000bc40052070728a49800839764956a3841491a78491a701408000000000000006e7ba880009568a041491a68330058042880e949298002492978024929700249296802956700508377a0fb3300ec000a1001956a384995ab000282b77882b8800082b97082ba68d49808d4a707d48707510707289d9a005022ee00bbcc00ac780728979a00956700508377c0fb3308040a0395673849957c000282cba00082ca980082c8900082c9880095673811956c00017bcb98007b7b20057bcaa000957b00057bba187bc8a8007bb810956840167bc9b0007bb90833075020f000d7e8330738115022f200f2cc00956820164929e8045020f400bee83309ec01023907ec010233083fac78152003ec0102407b6990013302f60028ebc8007b6990015022f600e3c8003307000202837783993308407b6788013300f8000a083302fa002884c0005022fa0080c000958c00027bcaa8007bc9b0007bcbb8007bc7c000956700169568e04b5020fc003ce9956738118278d0047b6880018278c8047b6878018077d8047b67700133070002037b67b80183777b6768013300fe000a053302000128e3c00050220001dfc0003308015207062864358267b001330202019569381101959a00047ba7a8008267a8017ba7b0008267a0017ba7b8009568e015826798017ba7c000330750200401c8e7956738114927a004492798044927900464793307209568c0154929880450200601a5e782699001819756173f08480940019517e08477e07b678001502208011fc9000a08826a800182a782a80882a91082aa186f776f886f996faa95ab02d8ab0ac8a90cd89c09daaa09c88909d88908c8870795683849958a00027babc8007bacd0007ba9d8007ba7e0009567a0159568004c50200a0121e895673811827870047b688001827868047b687801807778047b6770018267680133000c010a0533020e0128d3bf0050220e01cfbf00510706287c333308012851349567385149174049173849173049172895670050837760010a1001956a385182a73882a84082a93082aa28d49808d4a707d48707510707282198008267b801817856180308281b980095683851491860491858491850491848039567c02a956880515020100178e7956838299589000182979800956800017b87a800829790007b87b800829788007b87b0009567a02a330840502012011be5956a382995ac000182cb800082c87882c97082c76850221401dbc800510807282a9500956b000182b8a800978820988920492a600182b8b00095ac00017bc84882b8b8007bc8509568802a7bc9587b67b8013300480328f9e54929e0014929d8014929d0014929c80195670050837700fb330016010a10330700503302180128d2c9003307005050221801cac90082b7d80082b8e00082b9d00082bac800d49808d4a707d487075107072825970050221a0123c900ac7807281f97009567601250201c01c5a9003307001050221e0106c8008297387b6788018297307b6790018297287b67980195683849492800024928f8014928f0014928e80103956740129568204b502020013de695683811828710017b67b801828708017b67b001808718017b67a80133070002037b67a0018377330022010a0501956c000182c9a00050222401d3bb00520707289596009567201233084050202601c0e3956b381182b2000182bcf80082baf00082b7e800d42a09d4c708d49808988820d4c909979920d4980851080728c29300492bd800492bd000492bc8007b6ab001140a00000000a079c308956800127bbae0007b67b8017b62a8017b6ca0015020280196e450222a013ebc005207072880930083870433022c019569381101330c4929c0004929b8004929a800209568e0114929b0007b6aa8017b6ba00150202e0157e450223001c8be00520707284193008387243302320195693811014929a0004929980049298800259568c011492990005020340122e450223601b3be00520707280c93008387443a080000027b69a001956b38117bb880003a080800023a098801023a0a9001027bb8787bb9709568a0117bba6850203801dee350223a012fbe0052070728c89200839764956a3811491a58491a50140800000079656b20637ba86095688011491a483300580428a5e3492900074929f8064929f0064929e80695670060837720f833003c010a103307005033023e0128b8c4003307005050223e01b0c400510707288b950050224001e8c600ac78072885950095670060837740f83308040a0395673851957c000782c82082c91882ca1082cb08956738417b689001957c00057bc8a0007b6988017bc998007b6a80017bca90009568c0467b6b78017bcb880033075020420109e39567384149278005492778054927700564793307209568a0464929680550204401e6e23307ec01027b6798013907ec010233083fac781282689801480840330246012812c300502246010ec3003307000202837783993308407b677001330048010a08826ab80133024a0128fabb00826ab80150224a01f2bb00958c00077bca287bc9307bcb387bc740956780469568605850204c0163e395673841827850057b68b001827848057b68a801807758057b67a00133070002037b67b80183777b67680133004e010a05330250012850bb00502250014cbb00330801520706289a36826778013308004050225201b1c6007ba728826780017ba730826788017ba73895686046826790017ba740330750205401f5e1956738414927200549271805492710056479330720956840464929080550205601d2e182679801817756173f13826898014808403302580128f5c10050225801f1c1008267700133005a010a08826ab00133025c01287cb900826ab00150225c0174b900958a00077bab487bac507ba9587ba760956720469568805850205e0165e2956738418278f0047b68b0018278e8047b68a8018077f8047b67a00182676801330060010a0533026201285dba005022620159ba0051070628cd3433080128a4355147efdbae7f0b2820900049298004492978044929700449296804956700508377a0fd0a1001956a384995ab000482b77882b8800082b97082ba68d49808d4a707d48707510707281693008267b80181775617630828109300956700508377c0fd3308040a0395683849958900048297a000956800017b8720829798007b8728829790007b8730829788007b8738956700508377e0fd3308240a03019569384995970004827cc000827ab800827bb000d4ca0788b801947852080728b292008298a8048267b8018074958723d88709c89b027b6b5801d8b20bda990bc8ab0b7b6a6801d8ab097b6c7001c8c909d4b909d847079427949752070728eb92007b68600183880495670050837700fe0a0395673849957c000482cae00082c8d80082c9d00082cbc800956c38297b6aa0017bca20017b68a80195ca00017ba8187b69b0017ba9109567602a9568402a7b6b98017bab085020640158a40095673829957900018298287b6890018298307b6888018298387b6880018298407b6878019567202a330840502066016cde95673829827800017b6800018279f8007b690801827bf0007b6b1001827ce8007b6c1801826a78017b7ac000826a80017b7ab800826a88017b7ab000826a90017b7aa8007b78e0007b79d8007b7bd00064799567002a9568e0297b9cc80050206801689e00956b000182b71882b882b910d4890982ba0850226a01adc00051080728198e0095693829826898017b9888008268b0017b9890008268a8017b9898009568c029826aa0017b9aa00050206c01f3de8269980198973b8268b001978805d4780897990582676001957424d8740282675801c82700c80808c849097b696001d84909c89803d3030ad8030cdaa90c8269a001979905826ba80198ba3bd4a909826ab00198aa3b97bb05d4ba0ad8700bda220b82676801c8b702d87207826b7001c87b0bc8a208c8b909d82807c89707c8c80ad88a08c8870c8267b801807788c80188a901dbc80982686001d887078577018838017b635801db38077b6a50017b6c4801d4ca08db890752070728f290001407e0ffffff00000000956800017b87408287187b87b0008287107b87a8008263080182877b87b8000182676001d8740782695801d39008d89009da870982675001d8720c826a4801d3ab08d8ab0ada8c0ad37207d48707da790a520a06280946d42407d4b008d48707987720d42808978820d4870751070728ae8c007b6288017b6b90017b609801834895670050837720fe7b6480017b63a0010a03018269a001826cb801d4c90782684001826ab001d88a08826ba80194b8947852080728688c0095a820d8a807648a7b686801c87b087b687801d8b808da7708956b384982b2e80482b4f00482b7f80482bb0005c898087b687001d89808c88c0c7b6cb801956c38117bcb00077bc7f8067bc4f006956820187bc2e80664a750206e0112dd9569000182988000958720d88708829a9800c88a00d8a00ada880a82988800c8a802d88208829b9000c88b0b8298687b98b0008298787b98a80082637001647428c9fe492a4007492a3807492a3007492a280795670050837760f80a10956a38410195ab000782b73882b84082b93082ba28d49808d4a707d4870751070728d78e008267b80181775617430828d18e0095670050837780f83308040a0301956c384195ca000782a76082a85882a950d4780a889b0194ab520b0728ab8e0082ca4807826bb80180b295ac04d8ac0ac8a90bd89b09daaa09c88909d88908c8870a9567ff07957739014927800749277807492770077b726807957800077b8c88007b8b90007b899800647b9567e0109568c0109569a0107bbaa00750207001409c009568ff0795883901958900078297c000956800017b87388297b8007b87408297b0007b87488297a8007b8750956700508377a0f83308240a03019569384182987807829a800714070000000001000000d38707d4a7077b68c0009888208888017b6ab00094a8937852080728e18d00959800078287707b67c8008287687b67b8004929a00749299807492990074928880001956780109568c0485020720143dc9567ff0795773901957c000782c8607b68f80082ca587b6af00082cb507b6be80082c9487b69e0007bc8207bca187bcb10647a95676010956840107ba908075020740105af00956aff0795aa390195ab000782b72882b83082b93882ba40956b3841492bc007492bb807492bb007492ba8070195bc00077bcae0007bc9d8007bc8d0007bc7c8009567e048956800495020760126dc9569ff07959939018267f8007b9700078267f000959a00067ba7f8008267e8007ba7f000956820108267e0007ba7e80033075020780184da9567ff07957739014927e0064927d8064927d0066479330720956800104929c80650207a015dda9517e08477e07b67280164713309ec01023907ec010233083fac78152003ec0102407b69a80133027c01287eba007b69a80150227c0176ba003307000202837783993308407b67b0010a08018267b801827210827418647c82685001826b4001d4b809826a480182673801d47a0ad4a909989920d4ba0a97aa20d49a0382ca0882cb6f496f2c6fa76fba826b28017bba187bb7107bbc087bb951030728b588007b6908017b6c10017b6a18017b6720019567ff079577e10750207e0165d89569ff079599390195970006827bc000827ab8008278b0008eb78eacdbb70c7b68d8008e877b6ad0007b6ba800d4ba0a956800017b87587b8c607b8a70dbac07510707281f8c008297a8067b6700019567ff079577c107826828015020800130da956bff0795bb390195bc000682c9880082c7900082c8980082caa0007bca607bc8587bc7509567ff079577a1079568ff07958881077bc9485020820114a8009567ff079577390195780006828a8000828b78828c70827268068ea78eb8dba7088ec7882920859901dbc709d4ab07db7809826700018877207b67680152090628281a7b6290017b6c98017b6ba0017b6a88019567ff079577390182680801957a00067ba828826810017ba830826820017ba8389568ff0795886107826918017ba94033075020840174d88269a801819756171f0f48092033028601283fbc00502286013bbc008267b001330088010a08018267000195781fd87807826cd800c87c09d8c90ada770a826bd000c8ba0a7b6ab00150228a012ab8008268680194c8826a700194a8948b9487c87402d84207c8790cc8cb0b7b6bb801d39b0cd89b0adac70a7b6a80018267900195701fd8700b826a9801c8ba07d8a70cdabb0c8263a001c8c303973b3b987a05d4ba0a97773b980b05d4b707c847077b679801d84707642450228c015cbb00826bb0018267d000d87b07826aa800c8a70798ba05977b3bd4ba0a826ba80182b282bb08987705948a94876fb86f2b50228e01babb00c8a7028267a001d87307826a8801c8a707983a05977c3bd4ca0a987705c8b707956c000182cbb800c88a0ad88a08c88707c8a9097bc98800d8a908c887077bc780009517e08473e064317b6378010182679801d8740782699001d39b08d89b09da8709826c8801d8c007826a8001d3a208d8a20ada870ad3c007d48707da790a7b347b3b087b30107b321895673849520a0628551849074917f84917f04917e89568204964377b64b0017b6bb8017b62a8017b60a001502090012cd8826378018262a801826bb8018264b001954401884701c87b0bd4b4078877018268a001c88707d88708c8820264702865ff4929c0004929b8004929b0004929a800956700508377e001330092010a1001956a385182a7b80082a8c00082a9b00082aaa800d49808d4a707d4870751070728b5880050229401cab900ac780728af88001407ffffffff000000007b6750019567a02e502096015e9a0095683829958900058297787b6748018297707b6740018297687b673801956838514928e0004928d8004928d0004928c800019567802e9568005250209801d9d6956b382995bc000582c76082c85882c95082ca487b6770017bc7207b6868017bc8187b6960017bc9109567602e9568402e7b6a58017bca0850209a010f9f00956b382995b80005828740956900017b97308287387b97288287307b97208287287b97184926880149268001492678014926b80133033304330233000182675801d8730782696001d39408d89409da8709826c6801d8c207826a7001d3a008d8a00ada870ad3c207d48707da790a8269b801520a0628cc127b63b0017bb308037b64a8017bb410037b6298017bb218039568402c7b60a0017bb02003330750209c0104d595673829492700034927f8024927f00264793307209568202c4929e80250209e01e1d43908ec010256183f0b2003ec010240019517e08479e07b69900164913307000202837783993308403300a0010a08826a90013302a2012807ae00826a90015022a201ffad007b8ae8007b89f0007b8bf8007b8700019567002c956820525020a40170d5956b382995ba000282a7c80082a8d80082a9d000826a3801d3a707826a4801d3a808826a4001d3a9098499ff826c5001d2c8088477ffd48707d497075107168263b0018264a8018260a00182689801281c01956c000182c788007bb7680282c7187bb7880282c780007bb7700282c7207bb7900282c7787bb7780282c7287bb7980282c7b8007bb780029567e02b9568c02b9569a02b82ca307bbaa0025020a60159a100956b382995bc000282c8c00082c9b80082cab00082c7a8005022a801b9ae0051080728ac82008268b00195ba00027ba8488268a8017ba850826898017ba8589568802b8269a0017ba9605020aa018ad3956738298268b8017b78200295673829826878017b78180295673829826880017b7810029567602b9568402b95693829826a88017b9a08025020ac0145a70095690001829898008260a0018264a8018263b001956b382995ba000282a7407b97b80082a7387b977882a7307b97800082a7287b97880001953301883701c87404d44307887701c87802d88208c880002890fd492a0006492af805492af005492ae80595670040837720073300ae010a10956a38412807956a38410195ab000582b7f80082a8000682b9f00082bae800d49808d4a707d48707510707282285005022b00127b600ac7807281c850095670040837740073308040a0395673841957c000682c82082c91882ca1082cb089567ff07957739017b68f000957c00037bc8a0007b69e8007bc998007b6ae0007bca90009568ff079588c1047b6bd8007bcb880033075020b20140d29567ff079577390149278003492778034927700364793307209568ff079588a104492968035020b40115d23307ec01027b6718013907ec010256173f0c82681801480840019517e08479e07b69b00164913307000202837783993308407b67d0003300b6010a083302b801281cad005022b80118ad0095aa0188ab01c8b909d49a0b88bb01c88b0bd88b08c8870795683841958c00067bca287bc9307bcb387bc7409567ff0795778104956860475020ba017ed29567ff0795773901827850037b68a801827848037b68a001807758037b67980133070002037b67b00183777b6790013300bc010a053302be0128d9a9005022be01d5a900330801520706286e2b8267d8009569ff0795993901959a00037ba7288267e0007ba7308267e8007ba7389568ff07958861048267f0007ba74033075020c00107d19567ff079577390149272003492718034927100364793307209568ff0795884104492908035020c201dcd082671801817756173f0c82681801480840019517e08477e07b67a801647183793308408267d0003300c4010a083302c601288db1005022c60189b10095ab025022c80151b0007bab487bac507ba9587ba7609567ff0795772104956880475020ca016ad19567ff07957739018278f0027b68a8018278e8027b68a0018077f8027b679801826790013300cc010a053302ce0128d0a8005022ce01cca800510706287f2933080128622a4929200349291803492910034929080395670050837740043300d0010a1001956a385195ab00035022d20159b400510707288582008267b80181775627830009287e820095670050837760043308040a039568385195890003829740956800017b87288297387b87208297307b87188297287b871095670050837780043308240a030195693851959a000382a76082a85882a950d4780a889b0194ab520b0728278200956a385182aa4803826bb80180b295ac04d8ac0ac8a90bd89b09daaa09c88909d88908c8870a9567384149074917f84917f07b72e87b7c087b7b107b7918647b9567604195684041956920417bba205020d401898f00956838418287407b67f0008287387b67f8008287307b6700018287287b670801956700508377a0043308440a039568385195890003829780007b67e8008297787b67e0008297707b67d8008297687b67d000956700508377c0043308640a030195693851959a000382a7a00082a8980082a99000d4780a889b0194ab520b0728568100956a385182aa880395633839826bb80180b295ac04d8ac0ac8a90bd89b09daaa09c88909d88908c8870a4923a00749239807492390077b3288077b3ca807953c00077bcbb0007bc9b800956700419568e0409569c0407bcac0005020d601a58e0095683839958900078297e0007b67b0008297d8007b67b8008297d0007b67c0008297c8007b67c800956738514927c0034927b8034927b00364784928a803029567a0409568e0545020d801fbce95683839828770077b67b801828768077b67b001808778077b67a80133070002037b67a00183773300da010a0501956c000182c9a0005022dc0191a40051070628a10d956838514928e0034928d8034928d0034928c803019567c03f956800555020de0195ce956a383995ab000682b7900082b8880082b9980082baa000826c1801d37c0bd87c07826c1001d88c0cdbb70c82682801d3a807d8a808826b2001d89b0adb780ad39b08d48707db7a0c7b6cb8019567a03f3308405020e0010fcc9562383982278006822c78068223680682247006d47c0bd4c309d47408826ab801520a0628ba327b6998017b68b8018e48883960ff859901db48098ec88e7ada780a7b6ba801dab90a510a07283780009538a000d83809c8940ad84a0bda990bc8cb0bd8cb09c879097b28c8057b2ad0057b2bd8053307409568003f7b29e0057b63b0017b64a0017b6c90015020e201b7cc956a000182a8b80082a79800d4870798772082a99000d49808978820d4870751070628897b8267080195693839959a00057ba7a800826700017ba7b0008267f8007ba7b8009568e03e8267f0007ba7c0008267b0015020e4015ccc140900000000010000001407e0ffffff00000000956b000182bab000d87a0782b8a000948782b8a800948752070628227b7b69b80183a9208267d000956c383995ca00057ba788008267d8007ba790008267e0007ba798009568c03e8267e8007ba7a0007b69a80064975020e601eccb956a000182a8b00082a7b8009577c0d8780782a9a000949782a9a800949752070628bf7a8389408267c800956a383995ab00057bb7688267c0007bb7708267b8007bb7789568a03e8267b0007bb780007b69a00064975020e80190cb95670001827aa0008279a8008278b000140b00000000010000001407a0ffffff00000000d8780794a7949752070628567a838760956838397b6bb801648b4928600549285805492850059568803e492b48057b67685020ea0135cb95670050837720050a090195690001829cb0008297b800957780d87c078298a00094878298a800948752070628fd79956a385195a70003827be8008278f0008279f80082aa000483c78000956c38397bca400595ca00057ba9387ba8309568603e7bab287b67485020ec01c8ca8267280195693839959a00057ba720826720017ba718826718017ba7109568403e826710017ba70833075020ee0198ca330738395022f001b3ae009568203e4929e8045020f2017fca9517e08477e07b67b80164713309ec01023907ec010256173f0b2003ec010240017b69589517e08479e07b69a80164913307000202837783993308407b67503300f4010a083302f6012818ab005022f60114ab0095ab05d8ab0ac8a90cd89c09daaa09c88909d88908c88707956a000182a8b8007baba8007b8b7baca0007b8c087ba998007b89107ba790007b87189567003e5020f801d8ca9562383995270004827ce000827bd800827ad0008ec78eb8dbc708d4cb078ea9db780951090628757d8227c8047b678801957701887801c8a808d48709889901c8b9097b6a8001d8b90ac8ca0a7b6b7801956b38517bb7080495b700047b78107b79187b7a20956840558267b8017b6cb8015020fa01d8ca9517e08477e07b679800647195683839956c000182c7b800958900047b976082c7787b975882c780007b975082c788007b974882c790007b97800082c798007b977882c7a0007b9770648b9567c03d9568a03d9569803d82caa8007bba68045020fc016c940095683839018282b8048283a8048284c004958a000482a9b00082ab980082aca00082a7880082a890007b6b8800826a98007bab107b6c80007bac187b67707ba7d44909d42307d497077b68787ba80851070628c07c9567203d8268b0015020fe016bc79568383982890004958b000382baf80082b7f00082b8e8005022000287aa005107062877779567003d7b6838015020020238c79569383995970003827be0008278d800827ad0008eb78e8cdbb70c7b6a70018ea77b6860956a00017bab68d4b8087b67407bac307ba860db8c07510706288e7c8297c8037b6790009567e03c82689800502004020ec9956b383995bc000382c9a80082c7b00082c8b80082cac0007bca80007bc8787bc7709567c03c9568a03c7bc96850200602fd96009567383995780003828aa000828b9800828c9000827288038ea78eb8dba7088ec7882920859901dbc709d4ab07db7809826790008877207b6758015209062817507b629001956700017b7c98007b7bb0007b7aa00095673839826870957a00037ba8488268787ba850826888007ba8589568803c826980007ba96033075020080265c7826758817756171f1282685848082033020a02282eab0050220a022aab0082675033000c020a08018267900095781fd87807826c7001c87c09d8c90ada770a826b60c8ba0a7b6a880150220e021ba7008268580194c8826a600194a8948b9487c87402d84207c8790cc8cb0b7b6bb801d39b0cd89b0adac70a7b6a80018267900195701fd8700b826a9801c8ba07d8a70cdabb0c8263b001c8c303973b3b987a05d4ba0a97773b980b05d4b707c847077b679801d847076424502210024daa00826b8801826760d87b07826a6801c8a70798ba05977b3bd4ba0a826ba80182b282bb08987705948a94876fb86f2b50221202acaa00c8a7028267b001d87307826aa001c8a707983a05977c3bd4ca0a987705c8b707956c000182cbb800c88a0ad88a08c88707c8a9097bc98800d8a908c887077bc780009517e08473e064317b6378010182679801d8740782699001d39b08d89b09da8709826c8801d8c007826a8001d3a208d8a20ada870ad3c007d48707da790a7b347b3b087b30107b3218520a06284f4e95673851492740044927380449273004492728049568605564377b64b0017b6bb8017b62a8017b60a0015020140219c7826378018262a801826bb8018264b001954401884701c87b0bd4b4078877018268a001c88707d88708c8820264702860ff4929c0064929b8064929b0064929a806956700508377e0070a1001956a385195ab000682b7b80082b8c00082b9b00082baa800d49808d4a707d4870751070628e2778267b80181775617030728dd77956838514928e0064928d8064928d0064928c806029567e0429568005850201602fec595683841958900018297b800956800017b87a8008297b0007b87b8008297a8007b87b0009567c04233084050201802a1c3956a384195ac000182cba00082c8980082c9900082c7880050221a025ea70051080628ad73956b000182b8a800978820988920492a800182b8b00095ac00017bc86882b8b8007bc8709568a0427bc9787b67b80133004803287dc4956a38318267380195ab00017bb708826730017bb710826728017bb71895676032956840327bb92050201c02b88d003307003050221e02c9a600829740956800017b87588297387b87608297307b87688297287b8770330c330b330433030182673801d87c0782693001d39b08d89b09da870982672801d87402826a8001d3a308d8a30ada820ad37407d48707da790a510ac3073302200295683831017b6cb8017b8c08956c000182c7087b87287bcbb0007b8b1082c7107b87307b64a0017b841882c7187b87387b63a8017b8320648b95678031956860319569403182ca207bba405020220215910095683831828760828958828a5082884850222402a7a300510706287072956720315020260235c23302280295683831018287956c00017bc79800958900ff8297f8007bc790008297f0007bc788008297e8007bc7789568382982c7a800958900077b97a00082c7a0007b97980082c7b0007b97900082c7b8007b97880082c7587b97c00082c7607b97b80082c7687b97b000648b956700319568e0309569c03082ca707bbaa80750202a02679000956b382995bc000782c8e00082c9d80082cad00082c7c80050222c02c79d0051080628ba718268780195ba00077ba868826888017ba870826890017ba8789568a030826998017ba9800050202e0298c295690001829cb80095cc0188c701829bb000c87b0bd4bc078877018298a000c88707d887088263a801c8830364742849fe8267880195ba00047ba7c800826780017ba7d000826778017ba7d8009567202e9568002e7ba9e000502030029f8b009568382982870005956900017b9740958a000482a7f8007b974882a7f0007b975082a7e8007b9758330c330b330433030182678801d87c0782698001d39b08d89b09da870982677801d87402826ab801d3a308d8a30ada820ad37407d48707da790a520a0628d528956838297b6cb001958900037b9cc800956c000182c7187b97e8007bcba8007b9bd00082c7207b97f0007b6498017b84d80382c7287b97f8007b63a0017b83e003648b9567402d9568202d9569002d82ca307bba000450203202f28e0095683829958b000482b72082b91882ba1082b8085022340280a1005107062849709567e02c502036020ec0956738298277c003956c00017bc79000956738298277b8037bc770956738298277b0037bc768956738298277a8037bc7609567382982c8a0007b7860039567382982c898007b7858039567382982c8a8007b7850039567382982c8b0007b7848039567382982c8407b7880039567382982c8487b7878039567382982c8507b7870039567c02c9568a02c9569802c956a382982cb587bab680350203802278e00956b382995bc000382c8a00082c9980082ca900082c7880050223a02879b00510806287a6f8268600195ba00037ba828826868017ba830826870017ba8389568602c826990017ba94050203c0259c095690001829cb00095cc0188c701829ba800c87b0bd4bc0788770182989800c88707d887088263a001c8830364742824fe9567804033084050203e02e1be956938398292600795980007828c58828b50828748d42b0ad4c708d4a808988820d4ca0a97aa20d4a80851080628e26e492938074929300749292807140a00000000a079c308956860407b9a40077b67b8017b6bb0017b62a0017b6ca80150204002b7bf956c000182c8b80082c7a80082caa000d47a0a502242025a9900520706288e6e838704956938394929200749291807492908072095684040492910077b6aa8017b6ba001502044026dbf50224602de990052070628576e83872495693839492900074929f8064929e80621956820404929f006502048023ebf95670001827aa800827bb0008278b800140900000000010000001407bcffffff00000000d8780794b794a752070628046e8387443a082000027b69a001956c383995cb00067bb8e0003a082800023a093000023a0a3800027bb8d8007bb9d000956800407bbac80050204a02d0be50224c0221990052070628ba6d839764956a3839492ab806492ab0061408000000000000006e7ba8c0069568e03f492aa806330058042894be956b000182b768857701826ad80082b858dba80782b86082b970db9807520706284d25826700018477e07b6730019567ff079577390182680801957900057b98e800826810017b98f000826820017b98f8009568ff0795882107826918017b790006330750204e022dbe50225002fc9e005020520257c1502254026b9d000a084926b80120330c4926b0014926a801330b3304492698014926a001826a880182a71882a81082a90882a26f736f886f9a6f296492826790017b79187b6a70017b7a107b6888017b7808643a7b7301642364a0826730017b6b8001d87b07857b017b647801944b018267a00182699801d49707947b01826850018267b801c87808826a480164c2c8ca0a826940018264b001c8490982673801826ca801c8c707510b0628f628826bb801d8b80bc8ba0a642cd32a027b6c5801d8ca0cda2b0cc89c0cd89c0bd84909c89707c8b70750225602ef9b007b6068017b636001510706282c6c9567ff07957721057b64b00150205802e9bb956aff0795aa390182a7000495ab000382b8f80082b9f00082bae800956b38497bb7207bb8187bb9107bba08956840498267900150205a0253be8264680195440188470182628801c87202d4240788770182687001c87803d8830882676001c887078268b8019589207b696801d8890a82685801c8a8097b696001d8890bdaaa0b8268b001c8b800d8800b8268a801c8b8087b68a80182688001958b20d88b0c82697801c8c908d89809dacc09826a9801c8a909d8a90c826aa001c8ca0a7b6aa0017b628801826c90017bc208644a7bc47bc31064727bc7187b637001826768017b67b801826c60017b60b00164847b6998012867fe9567203233084050205c02e6ba9569383182920001829cf800829bf0008297e800d42b0ad4c708d4a808988820d4ca0a97aa20d4a80851080628e86a4929e0004929d8004929d000956800324929c800207b67b8017b6ba0017b62b0017b6ca80150205e02c6bb50226002ce990083883801c868087b89707b876882c7587b87a00082c7607b87980082c7687b87900082c7707b8788007b8a78648a9567e0319568c0319569a0317bab8000502062021478956738318278b0008272c0008273a800827ab8002834239568385149286002492858024928500249284802029567e036956880535020640233bc956738318278b0057b6860018278a8057b6858018077b8057b67500182674801330066020a05826c68013302680228a09400826c68015022680298940082b950d3980882b958d39707d4870782b860d3a808d4870733080151075f9568385149288002492878024928700249286802039567c0369568a05350206a02b5bb95673831827890057b686001827888057b685801807798057b6750018267480133006c020a0533026e0228db920050226e02d79200887801019569383149298005492978057b9868059567a0364929700550207002a47f8267a0013308003050227202f59e007ba7608267a8017ba7588267b0017ba750956880368267b8017ba74833075020740239ba95673831492740054927380549273005647933072095686036492928055020760216ba82689801818756173f08480840019517e08477e07b67680150227802629e0033007a020a0833027c02288d950050227c02899500958a00027bab88007bac90007ba998007ba7a000956740369568c05350207e02b2ba956b383195bc000582c71082c80882c91882ca2064b2826c8001d37c0bd87c07826c8801d88c08dbb708826b7001d3ab07d8ab0a826c7801d89c0bdb7a0bd3c909d49707db7b08492200054922f8047b28e804956720364922f00450208002ec8d008267a00195693831959a00047ba7e0008267a8017ba7d8008267b0017ba7d000956800368267b8017ba7c8003307502082022ab9956738314927c0044927b8044927b00464793307209568e0354929a8045020840207b982689801818756173f08480840019517e08477e07b67b80150228602539d00330088020a08826ab80133028a0228b19200826ab80150228a02a9920095683831826770017b874004826778017b873804826780017b873004826788017b872804958700047b7b487b7c507b7958648b9567a03595688035956960357bba600450208c02e5830095673831957c000482c8687b68a80182cb80007b6bb80182c9707b69a00182ca787b6ab001958701887801c89808d48709889901c8a909d8a90ac8ba0a956b385195bc00027bc7a8007bc8b0007bc9b8007bcac000956740359568e05350208e0210b995683831958900048297207b6778018297187b6770018297107b6768018297087b6760018268a80195870350229002a9950095bc00027bc8e0007bcad8007bc9d0007bc7c800956720359568005450209202bcb8956738317c77e8037b6738018268a801958704502294026d95007bb8000395b800027b8af8007b89f0007b87e80095670035956820545020960280b895683831958900038297e0007b6730018297d8007b6728018297d0007b6720018297c8007b6718018267b8017b97a0008267b0017b9798008267a0017b979000648a9567e0349568c0348269a8017ba9880350209802058700956c383182c7c0037b67880182c7b8037b67900182c7b0037b6798018267a801957902d87907826aa001c87a08d8a80ada770a82c7a8037b6780018267b001c87a0ad87a07826bb801c8b70795cb00037bb7607bba587bb8509567a034956880347bb94850209a029a86009568383195890003829780007b6740018297787b6748018297707b6750018297687b6758019567603433084050209c025eb595693831959a000382ab4082ac3882a83082a72850229e029d9900510806286e654929200349291803492910039568403449290803a0007b67b8017b6ba0017b6ca8015020a0024fb68267b8019577a0005022a20224940095683831958c00027bc9b0007bc7a800826788017bc7e000826790017bc7d800826798017bc7d000826780017bc7c8007bcab800648a95672034956800349569e0337babc0025020a402386c5022a6020b950052070628de64956a38317b69980182a700037b67100195ac000282c7f8007b67800182c7f0007b67880182c7e8007b679001838720826860017bc88800826868017bc89000826870017bc898009568c033826978017bc9a0007b6b78015020a8028ab5956a000182a8b80082a7789577c05022aa02d5950052070628666482699001d889036492826ab001826b8801d3ab08d8ab0964b764acda8309826aa801826b8001c9ab08d8ab04826ba001826a1001c9ba0bc94b0bd8980ac9ab0bc99808c9c709c939098267b801c9720a8267b801837740956c38317bca680295ca00027ba9707ba8789568a0337bab80005020ac02f8b43302ae02956838310182671001958900027b9720826780017b9718826788017b9710826790017b9708826740017b9740826748017b9738826750017b9730648b956780339568603395694033826a58017bba28025020b002e26a956c000182c8980082c9b800140b00000000010000001407a0ffffff00000000d8790782cab00094a79487520706286463956a383195a800028287607b6778018287587b6770018287507b6780018287487b678801826738018e78839760492a0002492af8017ba8e80195682033492af0017b6b90015020b20222b4956a000182a8b80082a790009577805022b4026c940052070628fd628387800082681801956a383195ab00017bb8c800826820017bb8d000826828017bb8d80095680033826930017bb9e0005020b602d0b38267b80182638801d87302826cb00182688001d3c807d8c809da72098267a801826a7001c97a04d87a0a8267a001826b780101c97b0bc9ab0bd8940ac9ab0a8267b801c9940bc9c809c92909c97308d4a909288f1b95683849492800034928f8024928f0024928e80202956780159568204c5020b8024ab495673811827850047b688001827848047b687801807758047b677001826768013300ba020a05826cb8013302bc0228b78c00826cb8015022bc02af8c0082b970d3980882b978d39707d4870782b88000d3a808d4870733080151075f956838494928200349281803492810034928080303956760159568404c5020be02cbb395673811827830047b688001827828047b687801807738047b677001826768013300c0020a053302c202287d8b005022c202798b00887801019569381149292004492918047b98080495674015492910045020c402ba77826798013302c60295693811017b9700048267a001959a00037ba7f8008267a8017ba7f000956820158267b0017ba7e80033075020c80249b2956738114927e0034927d8034927d0036479330720956800154929c8035020ca0226b282699001819756173f08480940019517e08477e07b67b8015022cc02a093000a08826ab80182a782a80882a91082aa186f7b7b6bb8016f8c7b6ca0016f997b69a8016fa77b67b001957701887801c89808d48709889901c8c909d8c90ac8ba0a956b384995bc00037bc7287bc8307bc9387bca409567e0149568604c5020ce0296b2956838118087b8037b6778018287b0037b6770018287a8037b6768018268b0019587025022d0027f88007bc8607bca587bc9507bc7489567c0149568804c5020d20252b295683811808798037b676001828790037b675801828788037b6750018268b0019587035022d4023b88007bc880007bca787bc9707bc7689567a0149568a04c5020d6020db25022d8020a9500829780007b6748018297787b6740018297707b6738018297687b6730018268b0019587045022da02ee87007bc8a0007bca98007bc990007bc78800956780149568c04c5020dc02bdb195673811827748037b6728018268b0019587065022de02b687007bc8c0007bcab8007bc9b0007bc7a800956760149568e04c5020e00285b15022e2028294008297407b6720018297387b6718018297307b6710018297287b6708018268b0019587055022e4026787007bc8e0007bcad8007bc9d0007bc7c800956740149568004d5020e60236b15022e8023394008297207b6700018297187b67f8008297107b67f0008297087b67e8008267b801958900027b97e0008267a0017b97d8008267a8017b97d000648a95672014956800148269b0017ba9c8025020ea02bc7f95683811828700037b678001958900028297f8007b6788018297f0007b6790018297e8007b6798019567e0133308405020ec027eae95693811959a000282abc00082acb80082a8b00082a7a8005022ee02b99200510806288a5e4929a00249299802492990029568c0134929880200017b67b8017b6ba0017b6ca8015020f0026baf8267b801957700015022f202408d0095683811958c00027bc9307bc728826780017bc760826788017bc758826790017bc750826798017bc7487bca38648a9567a01395688013956960137bab40025020f4025b655022f6022e8e0052070628015e956a38117b69980195ac000282c780007b67e00082c7787b67d80082c7707b67800182c7687b678801838720492a2002826868017bc808826870017bc81095684013826978017bc9187b6b90015020f802b7ae956a000182a8b80082a790009577c05022fa02018f0052070628925d838740956a3811492a00028268500195ab00017bb8e800826858017bb8f00095682013826960017bb9f8005020fc026aae956b000182b8b800140a00000000010000001407a0ffffff00000000d8780782b9b000949782b99800949752070628305d83876082683001956938117b6a9001649a959b00017bb8c800826838017bb8d000826840017bb8d80095680013826948017ba9e0015020fe02fead956a000182a9b80082a79000957780d8790782a8b000948782a89800948752070628d15c7c6728018e7883978000956938114929c0014929b8017b98a8019568e0124929b00150200003b2ad956b000182b9b800140a0000000001000000140760ffffff00000000d8790782b8b000948782b89800948752070628785c82682801848700ff008e788397a000956938114929a001492998017b9888019568c012492990017b6a90015020020350ad956b000182ba980082b8b80082b79000957740ffd8780782b9b000949794a752070628225c8387c00082680801956a381195ab00017bb868826810017bb870826818017bb8789568a012826920017bb9800050200403f8ac956a000182a8b800140720ffffff00000000502206033f8d0052070628d05b8387e0008268e800956a381195ab00017bb8488268f0007bb8508268f8007bb85895688012826900017bb96050200803a7ac956b000182b7b80082638801d8730282bcb00082b88000d3c807d8c809da720982b7a800826ad800c97a04d87a0a82b7a000826be00028d4f8956838514928800749287807492870074928680702956700469568a05850200a033dad956738418278d0047b68b0018278c8047b68a8018077d8047b67a0018267680133000c030a05826cb80133020e0328aa8500826cb80150220e03a2850082b9a000d3980882b9a800d39707d4870782b8b000d3a808d4870733080151075f956838514928a007492898074928900749288807039567e0459568c05850201003bcac956738418278b0047b68b0018278a8047b68a8018077b8047b67a00182676801330012030a053302140328b4840050221403b0840088780101956938414929a004492998047b9888049567c0454929900450201603ab7033073841c876094926600149265001492648014926580150221803e58d0082677801959a00047ba768826780017ba770826788017ba7789568a045826790017ba78000330750201a0328ab956738414927600449275804492750046479330720956880454929480450201c0305ab82679801817756173f138267980148074033021e03287e890050221e037a8900330020030a0833022203287b860050222203778600958a00077baba8007bacb0007ba9b8007ba7c000956760459568e05850202403a0ab956c384182c7300482c2280482c3380482ca40048268b001d3780bd878078268b801d82808dbb708826ba801d3ab07d8ab0a8269a001d8390bdb7a0bd33909d49707db7b08510833038267780195c900037b97c800826780017b97d000826788017b97d80095680045826790017b97e00033075020260335aa956738414927c0034927b8034927b00364793307209568e0444929a8035020280312aa82679801817756173f138267980148074033022a03288b880050222a0387880033002c030a08826a680133022e0328bb8300826a680150222e03b38300956838418267a8017b8740038267a0017b8738038267b0017b8730038267b8017b872803958700037b7b487b7c507b7958648b9567a04495688044956960447bba600350203003ef74956a384195ab000382b76882b8800082b97082ba78957b03d87b07c8790cd89c09da7709c8a909d8a907c8870795683851958a00077babc8007bacd0007ba9d8007ba7e0009567404495680059502032032baa956938417c97080351071a95670001827cb800827bb000827aa8008278a00028b90182677801959800027b87e800826780017b87f000826788017b87f80095682044826790017b970003330750203403e7a83307384150223603ec8c00956800444929c80250203803cea882679801817756173f138267980148074033023a032847870050223a034387000a08826a680182a782a80882a91082aa186f776f886f996faa95ab05d8ab0ac8a90cd89c09daaa09c88909d88908c88702956a38418267a80195a800027b87608267a0017b87588267b0017b87508267b8017b87487b8b687b8c707b89789567c0439568a043956980437ba2800250203c039d73956a384195ab000282b7880082b8a00082b9900082ba980050223e03d3890083aa3801c86a0a95ac00077bc7e8007bc9f0007bcbf800956700607b7838f9956760439568205950204003e0a8956b384195bc000282c72882c83082c93882ca407bbae0017bb9d8017bb8d0017bb7c801826758017bc78267480195bc00017bc7f800826750017bc7f000956740439568204395690043826a60017bcae80050204203587d826cb801826bb0018268a001826aa80195693841829720027b675801829718027b674801829710027b675001829708027b6760010195cc0188c701c87b0b7b6cb8017b6bb001d4bc07887701c88707d88708c88a0a7b6aa8017b67a00128e4fb9567404533084050204403efa5956a384195ac000482c72082c81882c91082cb0850224603e8890051070628ff559569000182976095a800037b87e8008297507b87f0008297487b87f800956820458297587ba7000464b77b6bb80150204803d4a63308208267b80150204a03fea9837833092033070a0d019568384149288006492878064928700649286806029567ff07957701049568a04750204c0388a79567ff07957739018278d0027b68a8018278c8027b68a0018077d8027b6798018267900133004e030a05826cb0013302500328f17f826cb00150225003ea7f82b99800d3980882b9a000d39707d4870782b8a800d3a808d48707330801510765956838414928a006492898064928900649288806039567ff079577e1039568c0475020520301a79567ff07957739018278b0027b68a8018278a8027b68a0018077b8027b67980182679001330054030a053302560328677e50225603647e887801019569ff07959939014929a002492998027b9888029567ff079577c1034929900250205803e66a8267f0009569ff0795993901959a00027ba780008267e8007ba7788267e0007ba7709568ff079588a1038267d8007ba768330750205a0375a59567ff079577390149276002492758024927500264793307209568ff07958881034929480250205c034aa582671801817756173f138268180148084033025e03286d850050225e036985008267d000330060030a083302620328638000502262035f800095ab0550226403c284007baba8007bacb0007ba9b8007ba7c0009567ff07957761039568e04750206603d7a5956bff0795bb390195bc000282c7407b67100182c8387b68080182ca307b6a000182c9287b69f8007bc795bc00017bc8f8007bcaf0009567ff07957741039568ff07958821037bc9e80050206803546b9568ff0795883901958900028297207b6760018297187b6768018297107b6770018297087b67780182671001958900017b97c000826708017b97b800826700017b97b000648a9567ff07957701039568ff079588e1028269f8007ba9a80150206a03976d9568ff0795883901958900018297e0007b6790008297d8007b6798008297d0007b67a0008297c8007b67a800826710017b978000826708017b9778826700017b9770648a9567ff079577c1029568ff079588a1028269f8007ba9680150206c038e6a9568ff0795883901958900018297a0007b674001829798007b674801829790007b675001829788007b675801826710017b9740826708017b9738826700017b9730648a9567ff07957781029568ff07958861028269f8007ba9280150206e03ee679568ff0795883901958900018297487b67b0018297507b67a8018297587b67a0018297607b6798019567ff079577410233084050207003fba19567ff0795773901827820017b68c000827b18017b6bb800827a10017b6ab000827c08017b6cc800826998017b79e0008269a0017b79d8008269a8017b79d0008269b0017b79c8007b7800017b7bf8007b7af00064799567ff07957721029568ff07958801027b9ce80050207203eb61826ab8008267c8008268c0008269b000d4890950227403308400510806289c519569ff07959939018268f8007b98a800826800017b98b000826808017b98b8009568ff079588e101826a10017b9ac000502076036fa2956aff0795aa3901956800018287107ba780008287087ba77882877ba7709567ff079577c1019568ff079588a1018269f8007ba96850207803b466956aff0795aa390182a7880082a8a00082a9900082aa98009572e0d87207c8790b95bbffd39b0cd89b09dac70995a7ffc87909d8790788aa01c9a808c88707d49208d4b707d47808988820d49707977720d4870751070628d1508269c000826bb800d49b071408e0ffffff00000000826cc800d88c08826ab00094a8947852080628a75064c764ac649a957920d87907c87c087b6858d8c808da77088267b80181777b67b801c8b8087b6850d8b807c8a7077b67607b6968649764287b62b00150207a03a5a483778168b0018269b8010a02956aff0795aa3901956800018287107ba7408287087ba73882877ba7309567ff07957781019568ff07958861018269f8007ba92850207c038e6a9568ff07958839018287607b67708287587b67788287507b6780008287487b678800330233033304330c018267f800d8720782690001d39308d89309da8709826b0801d8b407826a1001d3ac08d8ac0ada870ad3b407d48707da790a520a062864177b64a0017b6ca8017b63b0017b62b8018267d800956900067b9780008267e0007b9788008267e8007b979000956880068267f0007b979800330750207e0386a049267806492670064926680633072095686006492660065020800369a082671801817756173f0c82671801480740019517e08477e07b679801647183793308408267d000330082030a08826a980133028403280b7a826a980150228403047a8267a8017b67f8058267a0017b67f0058267b0017b67e8058267b8017b67e0057b6b00067b6c08067b69100695672006956800069569e0057b6a180650208603486b956b000682ba2082b92882b73082b8387b6890017b68b8057b6798017b67b0057b6988017b69a8059567c0059568a0057b6a80017b6aa00550208803766f8267d805956b00017bb7388267d0057bb7308267c8057bb7288267c0057bb72082b7a8007b67580582b7a0007b67500582b7b0007b67480582b7b8007b67400582b7607b67780582b7687b67700582b7707b67680595678005956860059569400582ba787b6a600550208a03b76c956b000582b8980082b9900082ba880082b7800050228c031c7a51080628104e82682001956a00057ba820826828017ba828826830017ba83095682005826938017ba93850208e03ef9e8267a8017b67d8048267a0017b67d0048267b0017b67c8048267b8017b67c004826760017b67f804826768017b67f004826770017b67e804956700059568e0049569c004826a78017b6ae004502090031b6c8267800195770188780182698801c89808d48709889901826a9801c8a909d8a90a826b9001c8ba0a956b384195bc00067bcae0007bc9d8007bc8d0007bc7c8009567a0049568004850209203419f8267b804956800017b87388267b0047b87308267a8047b87288267a0047b87208287a8007b6758048287a0007b6750048287b0007b6748048287b8007b674004826790007b677804826798007b6770048267a0007b676804956780049568600495694004826aa8007b6a6004502094035b6b956b000482b8980082b9900082ba880082b7800050229603c07851080628b44c826820017b682004826828017b682804826830017b68300495682004826938017b69380450209803939d82688001958702d88708826a8801c88a09d8a90ada880a82689801c88a0ad88a08826b9001c88b0b7b6af0037b69e8037b67e003956700049568e0037b6bf80350209a031c6d95680004828718956b00017bb7388287107bb7308287087bb72882877bb72082b7a8007b67980382b7a0007b67900382b7b0007b67880382b7b8007b67800382b7407b67b80382b7487b67b00382b7507b67a8039567c0039568a0039569800382ba587b6aa00350209c035e6a956b000382b8d80082b9d00082bac80082b7c00050229e03c37751080628b74b826820017b686003826828017b686803826830017b68700395686003826938017b6978035020a003969c8267a801956b00037bb7188267a0017bb7108267b0017bb7088267b8017bb7826740017bb738826748017bb730826750017bb728956740039568200395690003826a58017bba205020a203c769826880019587035022a403d1797bb8000795b800067b8af8007b89f0007b87e8009567e002956820485020a6030c9d8267e002956800017b87388287a8007b6798028287a0007b6790028287b0007b6788028287b8007b6780028267c0007b67b8028267b8007b67b0028267b0007b67a8029567c0029568a00295698002826ac8007b6aa0025020a8033b69956b000282b8d80082b9d00082bac80082b7c0005022aa03a07651080628944a7c6838018e8849267802492670027b68600295686002492668025020ac037d9b826880019587045022ae03057995bc00077bc9107bc7087bca187bc82095674002956840485020b003449c82675802956800017b879800826750027b879000826748027b878800826740027b8780008287a8007b87f8008287a0007b87f0008287b0007b87e8008287b8007b87e0008267707b6718028267787b671002826780007b67080295672002956800029569e001826a88007b6a00025020b2035c68956b000282b83882b93082ba2882b7205022b403c57551080628b949826880017b68c001826888017b68c801826890017b68d0019568c001826998017b69d8015020b603989a8262b8019522018827018263b001c87303d432078877018268a001c88707d88708826ca801c88c0c64742871f9d48907987720d4c808978820d48707510706284d49492258064922500649224806140700000000a079c3089568803f7b27600664377b63b0017b6ba8017b64a0015020b803249a956b000182b8b000140a00000000010000001407fcffffff00000000d8780782b9a000949782b9a800949752070628ea4883870495693839492940064929380649292806209568603f492930067b6ab8015020ba03cd99956b000182baa00082b9a80082b8b00082b7b8009577dcd8780794a7949752070628a048838724956b3839492b2006492b1806492b0806129568403f492b10065020bc03879995690001829ab0001407bcffffff00000000d87a078298a00094878298a800948752070628574883a7443a084000023a09480002956b38397bb800067bb9f805140800000000000044497bb8f0059568203f492be8053300000528279982690001826bd000d4b907826ca800d4ca08d487075207fe054926a001492698014926a8014926b001285e069567e02d3308405020be03b797956938298292c00495980004828cb800828bb0008287a800d42b0ad4c708d4a808988820d4ca0a97aa20d4a80851080628b5474929a00449299804492990049568c02d49298804207b67b8017b6ba0017b62b0017b6ca8015020c00393985022c2039b76838838f9c868087b893004958900047b972882c7407b976082c7487b975882c7507b975082c7587b97487b9a38648a9567a02d9568802d9569602d7bab40045020c403e15495673829827870048272800482736804827a7804018267a001d3780bd8780c64708267b801d87304dab40c8267a801c97a0bd87a0a8267b001c97209c9a909d8cb0ac9a9098267b801c9cb0bc90808c9480ac97308d4a90901d4b80ad49a0ad4b90998aa20979920d4a90951090628ce467b68b8013300ca0528009b95670050837740fe3308440a0395673849957900058298207b68f8008298187b68f0008298107b68e8008297087b67e000956a000182a720956938297b97800082a7287b977882a7307b97709568a02982a7387b976833075020c6036e97956738294917604917584917506479330720956880294919485020c8034f973309ec01023907ec010233083fac78142003ec0102407b6990013302ca03287c777b6990015022ca0375773307000202837783993308407b6798013300cc030a083302ce032880745022ce037d7495ab025022d003d3727bab287bac307ba9387ba740956760299568604e5020d203d097956738298278307b68b8018278287b68b0018077387b67a80133070002037b67400183777b67d8003300d4030a0501956c000182c9405022d603666d5207640a826738013302d8039569382101959a00077ba748826730017ba750826728017ba75895688028826720017ba76033075020da036996330738215022dc03ec79838860f8c86808492928075020de034e9682699001819756173f08480940019517e08477e07b67b8015022e00366723300e2030a083302e403289c735022e403997395ab045022e603ef717bab487bac507ba9587ba760956740289568804e5020e803ec96956738217c77080752072c0b9567c0183308405020ea03a794956938118292a00795980007828c9800828b900082878800d42b0ad4c708d4a808988820d4ca0a97aa20d4a80851080628a544492978074929700749296807140a00000000a079c3089568a0187b9a80077b67b8017b6bb0017b62a0017b6ca8015020ec037a95956c000182c8b80082c7a80082caa000d47a0a5022ee031d6f5207062852448387043302f00395693811014929600749295807492948072095688018492950077b6aa8017b6ba0015020f2032c9595690001829ba800829ab0008298b8008297a0009577dcd8780794a794b752070628ff438387243302f40395693811014929400749293807492928071c95686018492930075020f603e19495690001829ab8001407bcffffff00000000d87a078298b00094878298a800948752070628b14383a7443a083001023a093801023a0a400102956b381195bc00077bc8207bc9187bca1014090000000077656976956840187bc90833004e06287c946420826b3001826c0001d3cb0b8263d000d43b0b8262d8008264a800d4420cd4cb0b510b0a01826bb801d8b80bc8ba0ad30a02d80a0cda2b0cc89c0cd89c02826bb001d8b909c89707c827075022f803d872510706281e439567ff07957701075020fa03df929567ff0795773901957900058298e0007b68b0018298d8007b68a8018298d0007b68a0018297c8007b679801826700015022fc0387735020fe03a778502200044576502002047578502204040971502006046978826bb80188b98000826a7001db9a08826c7801826a8801d4ca0ada970a93b8ff93baff826b8001939b939c82679801e0a7078269a001e089088269a801e0c909826ab001e0ba0a956b38497bba407bb9387bb8307bb728956860498267900150200804ca948262d8008263d0008264a8000198373f974801d4870798283f973901d49808826b000198b93f972a01d4a90997ba0195aa01956b38497bba487bb9507bb8587bb76033078049285101956b000182b74082b838d487071408e0ffffff0000000082b950d8890882ba4894a8947852080628e4418398209567ff079577410750200a04a291826ca800826bd000826ad8009567ff0795773901957900068298207b68b0018298187b68a8018298107b6898018297087b67a001826900010198a73f97b801d487077b67900198b73f97c801d487077b67880198973f97a801d487077b6780019797017b67780197980350220c049b7450200e0430777b6758017b687001826700018a79033307ff3308ff50201004ef767b6768017b68600182685801d487077b6758018267b8018379803307ff3308ff50201204c976826bb80188b98000826a5801db9a07826c6001826a7001502214047872826b6801502216048271956c000182cb78d4b70782cb8000d4b80882cb8800d4ba0a82cb9000d4b909956b38497bb9787bba80007bb8707bb7683307a04901c87608826728015020180426939517e0847ce064c18267080195770188780182691001c89808d48709889901826a2001c8a909d8a90a826b1801c8ba0a7b6cb8017bc9107bc8087bc77bca1833070002037b67b00183777b6790010a058269b00182970881981082996f77977a206f88988820d4a8087b68a8019877206f98978920d497077b67a0019888207b6898019567ff079577e1068268b80150201a0419929568ff07958839018087bc058288c00597772082699801d49707956938497b98a0008268a0017b9890008268a8017b9888007b9798009568c0498267b80150201c044d929517e0847ce064c18268080195870250221e043e6d9577c10650202004b6919568ff079588390180879c058288a0059777208269c000d497078269b000d498088269c800956a38497ba9b0008269b8007ba9a8007ba8c0007ba7b8009568e0498267b80150202204e39195670050837700fa0a0982680801958703d88708826a1001c88a09d8a90ada880a82682001c88a0ad88a08826b1801c8b808956b384995bc00017bc882b8d0007bbaf80082bae0007bb9f00082b9d8007bb7e80082b7c8007bca207bc9187bc8107bc7089567204a9568404a5020240471919517e0847ce064c18268080195870450222604626c9577a10650202804da90956aff0795aa390195ab000582b77082b86882b9800082ba7884880000ff956b384995bc00017bc9407bca387bc7307bc8289568604a8267b80150202a041291956c000182c808958706d8870882ca1050222c04b67182c820c88a0ad88a0882cb18c8b808956b384995bc00017bc8607bca587bc9507bc748492b8001492b7801492b7001492b68019567804a9568a04a50202e04bb909567ff079577810633084050203004068e9569ff07959939018292600595980005828c58828b50828748d42b0ad4c708d4a808988820d4ca0a97aa20d4a80851080628033e4929400549293805492930059568ff079588610649292805207b67b8017b6b98017b62a8017b6ca00150203204dd8e82679001330034040a05018267b0018078107b6890018278087b68880182777b67b0018267b8019577208268b801d88708826a980150223604026c9568ff0795883901958c00047bcad8007bc9d0007bc7c800826738017b870005826740017bc7f800826748017bc7f000826750017bc7e800648a9567ff07957741069568ff07958821069569ff07959901067babe004502038048a448260b8019568ff0795883901828710058282200582830805828a180582689801d3870bd8870c6484d80308dab80c8269a001c99a0bd89a0a8269a801c9920950223a04da6d51070628f23c8267c0009777209877207b67a801826788016f7a97a920826790016f7b98bb20d49b038267b0016f7b97bc2098aa20d4ac0498b2208267b800956bff0795bb39017bb748048267c8007bb750043a0c9801023a07a001023a09a801023a0ab001027bbcc00495bc00047bc7b8007bc9b0007bcaa800492b6004492b80048267e0007bc788008267e8007bc790008267a8017bc7587bb278048267f0007bc798007bb470047bb3680464b29569ff079599e105956aff0795aac105956bff0795bba105956cff0795cc81058267f8007b27a004640733003c049511e0fe7b1018017b1510017b160801951520018411e082c67b166082c6087b166882c6107b167082cc187b1c7882bc7b1c3882bc087b1c4082bc107b1c4882bb187b1b5033020a82ab7b1b1882ab087b1b2082ab107b1b2882aa187b1a308296829a087b1a829a107b1a088299187b19107b185833000c28dc8f9567ff079577610533084050203e045d8b956aff0795aa390195ac000482c74082c83882c93082cb2850224004526f510706286a3b8267e00095a900047b97088267e8007b97108267f0007b97189568ff07958841058267f8007b972064b77b6bb80133004803283b8c9567402933084050204204f78a95693829829220829c18829b10829a08d42b07d4ca08d47808988820d4c707977720d4870751070628fd3a956738214927f8074927f0074927e807140700000000a079c308956820297b9764a77b6ab8017b6bb0017b62a8017b6ca00150204404ce8b50224604766352070628b93a8387043302480495693821014929e0074929d8074929c80720956800294929d0077b6aa8017b6ba00150204a04938b50224c040466520706287e3a83872433024e0495693821014929c0074929b8074929a807229568e0284929b00750205004608b50225204f165520706284b3a8387443a087000027b69a001956b382195bc00077bc8a0003a087800023a098000023a0a8800027bc898007bc990009568c0287bca880050205404178b50225604686552070628023a839764956a3821492a7807492a700714080000000000006e6f7ba880079568a028492a680750205804e08a330884008267b80150205a04098e8378330701330984000a0d01956720288268180150205c047e893307002050225e04ea6b5207960795676019330840502060046389956b381982b24082bc3882ba3082b728d42a09d4c708d49808988820d4c909979920d49808510806286939491b18491b10491b08140900000000a079c308956840197bb9207b67b8017b6ab0017b62a8017b6ca00150206204428a50226404ea61520706282d3983870433026604956938190149094919f84919e820956820194919f07b6aa8017b6ba001502068040c8a956b000182baa80082b9b00082b8b80082b7a0009577dcd87807949794a752070628df38838724956b3811492be007492bd807492bc8071195680019492bd00750206a04c689956a000182a9b8001407bcffffff00000000d8790782a8b000948782a8a80094875207062896388397443a082001023a09280102956a381195ab00077bb8c0007bb9b800140800000000000000647bb8b0009568e018492aa80733004e062862899567ff079577410133084050206c041a889569ff0795993901829220829c18829b10829708d42b0ad4c708d4a808988820d4ca0a97aa20d4a808510806281c3849094919f895680010492828f99568ff0795882101956a0010492a20f9a0007b6730017b6b28017b6218017b6c200150206e04f088826730019577a00082683001d8870882692801c88909826a2801d8a90ada880a82682001c88a0a82682001d88a08826b1801c88b0b956800107b89c8f8956800107b87c0f882676001956800107b87f8f882676801956800107b87f0f882677001956800107b87e8f882677801956800107b87e0f8956700107b7ad0f89567ff07957701019568ff079588e1009569ff079599c100956a00107babd8f850207004cc40826420018263180182682801826c3001d43409140a00000000010000001407e0ffffff00000000d87c079487949752070628103795670010827000f97b60b80195670010827b08f995670010827218f97b62a00195670010827710f97b67b001d8c0077b6790017b6aa80164b0d38b0a7b691001d88b097b6b9801daa709826ab001c94a07d84a0ac9320bc9ab0bd8970ac9ab03c9970bc9800982679001c97909826ab801c9ca0a83c720956800107b8aa0f8956800107b89a8f8956800107b8bb0f89568ff079588a100956900107b93b8f85020720474878267a001956800107b8758f88267b001956800107b8750f882679801956800107b8748f88267b801956800107b8740f882679000956800107b8778f882679800956800107b8770f88267a000956800107b8768f89567ff07957781009568ff079588619569ff07959941826aa800956b00107bba60f8502074049143956a000182a91082a82882ac3082a7a8009577c0d87c079487949752070628ce3595670010827780f895690010829a88f895690010829398f87b63b00195690010829b90f87b6bb801d8c70264747b67a00164a7d38a0ad8870964707b67a801daa209826a2001c9ab07d8ab0a826b1801c9b30bc9ab0bd8970ac9ab03c9970bc98009c92909c9c40a83c740956800107b8a20f8956800107b8928f8956800107b8b30f89568ff07958821956900107b9338f8502076043f868267b001956b00077bb7d8008267b8017bb7d0008267a8017bb7c8008267a0017bb7c000826740017bb7f800826748017bb7f000826750017bb7e8009567ff079577019568e0079569c007826a58017bbae00050207804653e956a000182a82882ac301407a0ffffff00000000d87c07948782a910949752070628b93495670010827900f895670010827708f8956a001082a318f87b63a801956a001082ab10f87b6bb001d8c90264947b699801d3870ad8870964707b67b801daa209826a2001c9ab07d8ab0a826b1801c9b30bc9ab0bd8970ac9ab03c9970bc98009c92909c9c40a83c760956800077b8aa0007b89a8007b8bb0009568a0077b63b80750207a043b85956780078268c80050207c04f383956c000182c7980082cab000d4a70982c8a80082cbb800d4b808d48909989920d4a808978820d4980851080628f533956c000782c9980082c8900082ca880082cb80007b6b40017bcb607b6a48017bca687b6850017bc870956860077b6958017bc97850207e04c4848263980133023304330c330b1407e0ffffff000000007b67380101953020826740017b627801d8720782694801d3940ad89409daa70982675001d87c02826a5801d3ab087b6b7001d8ab0ada820a7b6c6801d3c707d487077b60a001d8300bda790a956800018289b800c8b9077b879000d89707dabb078289b000c897077b878800d897078289a800c897077b878000520a0628b71e7b6460017b639801826a68826b50d4ba07826860826958d48909d49707987720d4b909979920d4970751070628f6329567c00664a87b6a6850208004b682956a000182a7b00082a8a800d4870782a8980082a938d8980882a9b8009498947852080628c032956b000682b7d80082b8d00082b9c00082bac800d49808d4a707d487078e774926b8064926b0064926a8069568a0067bb7a0008267a001502082048c83826868958720d88708826a58502284049e65826850c88a0ad88a08826b60c88b0b7b6b608262780195220188280182646001c88404d44208888801826b6801c88b0cd8bc0b82687001c88b0b8263a001826890017b68b801826888017b68b001826880017b68a8017b67687b69587b6a502872fe492668014926600149265001492658014926880149268001492670014926780101956700288268180150208604af81956a382195ab000682b7d00082b8e00082b9c80082a3d806826a8001d37a0bd87a0782628801d89209dbb709826c7001d83c07826b7801d38b04d88b08da4708d33c07d44707da790851087a04956838197b82a80382671801958900037b97c8007b9ab000826710017b97d0007b9cb800826708017b97d8007b9bc000648b9567201d9568001d9569e01c826a00017bbae00350208804ce4f9568381982870004958b000382b9f80082baf00082b8e80050228a0459625107062823319567c01c50208c04e88095683819958900038297a0007b67a001829798007b67a801829790007b67b001829788007b67b801826720017b978000826728017b9778826730017b977064899568a01c826738017b976803330750208e04ce819567381949276003492758034927500364793307209568801c4929480350209004ab8182689001818756173f08480840019517e08477e07b67480150229204c35d330094040a0801826a480182a782a80882a91082aa186f776f886f996faa95ab0550229604415d7bab687bac707ba9787ba780009567601c9568a04e502098043d82956b381995bc000382c73082c82882c93882ca4064b2826cb001d37c0bd87c07826cb801d88c08dbb708826ba001d3ab07d8ab0a826ca801d89c0bdb7a0bd3c909d49707db7b0849222003492218037b2808039567401c4922100350209a0477558267200133029c0495693819017b97000382672801959a00027ba7f800826730017ba7f0009568201c826738017ba7e800330750209e04b180330738195022a004b6649568001c4929c8025020a204998082689001818756173f08480840019517e08477e07b6748015022a404b15c3300a6040a083302a804282f5b5022a8042c5b7b8760028267a8017b8758028267b0017b8750028267b8017b874802958700027b7b687b7c707b7978648b9567c01b9568a01b9569801b7bba80025020aa048a4b956a381995ab000282b7880082b8a00082b9900082ba98005022ac046f5f958a00057bab88007bac90007ba998007ba7a0009567601b9568c04e5020ae04d980956838197c8728025207b10682673801958900017b9768826730017b9770826728017b977864899568a01a826720017b97800133075020b004ac7fff9567381949276001492758014927500164793307209568801a492948015020b204887fff82689001818756173f08480840019517e08477e07b6748015022b4049f5b3300b6040a083302b804281d5a5022b8041a5a7b87e0008267a8017b87d8008267b0017b87d0008267b8017b87c8007b8be8007b8cf0007b89f800648b9567401a9568201a9569001a7bba00015020ba04794a330700205022bc040e6382b70882b82082b91082ba185022be04b16083aa38f9c86a0a95ac00057bc7a8007bc9b0007bcbb8007bc8c0009567e0199568e04e5020c004c37fff956b381982b7a80082b8b00082b9b80082bac0007bba607bb9587bb8507bb748826758017bb78000826750017bb778826760017bb7709567c0199568a01995698019826a68017bba685020c2044354956838198287a000956a00017ba758828798007ba750828790007ba760828788007ba76882a8880095880188870182a98000c879097ba888007ba98000d4980788770182a870c88707d8870882a978c889097ba9787ba7702832fb8267e000956b000182b868d387078268f00082b950d39808d487078268e80082b960d398088269f80082ba58d3a909d49808d4870752072b08956838494928e0054928d8054928d0054928c80504956740279568004f5020c404bc7eff95683821958900068297187b6780018297107b6778018297087b678801956720273308405020c604657cff95693821829a0006959c000582cbf80082c8f00082c7e800956c00017bc8b8007bcaa800d48a0ad4b708d4a8089888207bcba000d4ba0a97aa20d4a80851080628522c4929d8054929d0054929c805140a000000003eed62dd956800277b9ae0057b67b0015020c804337dff8267d8003300ca040a0501956a000182abb00082a7a80082a9a000d47909140700000000010000007ba7681407fcffffff00000000d87b0782a8b80094877ba970949752070628e02b5022cc04a55b83b704956c3821492cc00595cb00057bb8b8007bb9b0009568e0267bbaa8005020ce04be7cff8267d8003300d0040a01956900018297689577dc8298b000d878078298b8009487829870948752070628882b5022d2044d5b8267b001837724956b3821492ba00595bc00057bc898007bc990009568c0267bca88005020d404627cff0a0a826778016f77977820826980016f99989920d4890a826888016f88978920987720d497079888207b676801826940017b97087b6a78017b9a7b6870017a981095673849492700064927f8054927f0054927e8053308448267b0015020d604367fff7b6780013308208267b0015020d804247fff956b0001492b8800209568384948280806204928400649283806492830064928280682b840978820988920140800000000180000007bb960d489029568204f9788209888209569604f979920d4890a82b8800097882098882014090000000044000000d4980b9777209877209568404f978820d4780c3308ff3309ff7b62800164270a01015107062856170a0c015517200b0a0c7b678801019569382182678801959b00057bb7288267b0017bb74849265801492930058267b8017bb750492938058267a0017bb758492940059567802695686026826aa8017bba605020da04303a826a58018ea7826888015022dc045257520906281530956740268268b0015020de04ac79ff956a382195ab000582b71082b82082b90882ba185022e004335ed87a02826cf800d3c80bd8c808dab208d3a707d4b707da79087b68a801956720263308405020e2046779ff95683821828a0005958c000482cbf80082c7e80082c9f000956c00017bc7b800d4b7087bc9a000d4a9077bca587bcbb000d4ba0a7bca880082c9a800520906280a17d478089888208269b001d49707977720d48707510706283c29956938194929780449297004492968043302e404140700000000a079c30833080020018388a0fdc868087b9780048267b8015020e6040d7aff14070000000001000000956900017b97b0001407fcffffff000000005022e804d55852070628db288267b8018377043302ea049569381901492960044929580449294804209568801d492950045020ec04b979ff956900018297b0009577dc5022ee0492585207062898285022f004c75a492940044929380449292804169568601d492930045020f2048079ff1407bcffffff00000000956900015022f4045658520706285c288267b8018377443a08f000023a090001023a0a080102956b381995bc00047bc8207bc9187bca109568401d492b080433004e06282c79ff9567401b3308405020f604e777ff9567381995790002829a20829b188298108297087b68b801d4a809d4b708d49808988820d4b909979920d4980851080628e427956838197b6aa801648a4928f8014928f0014928e801140900000000a079c3089568201b7ba900027b67b0017b6ba0015020f804b778ff956b000182b8b00082b7a80082baa000d47a0a140700000000010000007bb7a0001407fcffffff00000000d8780782b9b80094977bbaa80094a7520706286d278387043302fa0495693819014929e0014929d8014929c801209568001b4929d0015020fc044f78ff956a000182a9b00082a7a0009577dcd8790782a8b800948782a8a8009487520706282127839724956a3819492ac001492ab801492aa801119568e01a492ab0015020fe040878ff1407bcffffff00000000956900018298b000d878078298b80094878298a800948752070628d7268267b0018377443a081001023a09180102956a381995ab00017bb8a0007bb99800140800000000000000647bb890009568c01a492a880150200005a377ff3308648267b0013300500628c87aff956a000182a75885770182ac70826840dbc80782a83082a960db980782636801d43c087b684082696098923f97330198c43f97900182689000988b3f97cc01978a017b6a387b62307b63287b6b207b64187b6c107b60085107d1028488e07b68300195673839826870957a00037ba8088268787ba810826888007ba8189568403c826980007ba9203307502002050377ff50220405d157502006052d7aff50220805405633000a050a0833020c0528305a50220c052d5a50220e0545556472826890017b87187b6070017b80107b84087b837b62880150221005c153c8ac00826940018267b001c879098267480164ca826ca801c8c707520b5102826bb801d8b80bc8b000d3a0027b6a5801d8a00cda2b0cc89c0cd89c02826ab001d8a909c89707c82707d4c809d47007d47909989920d4c707977720d497077b6368017b64600151070628422595678038502012050775ff956a383195ab000782b76082b85882b95082ba48956b385195bc00047bc7607bc8587bc9507bca489568805582679001502014057477ff50221605324d8262a001c8c2027b62a001826c90017bc4087bc37bc01064727bc7187b607001826788017b67b801826c68017b6ab001648a7b6288013302100528cd529567e027330840502018057f74ff95693821959c000682cac00082cbb80082c7b00082c8a800956c00017bc7b0007bcaa800d4a7077bc8b800d4b808d478089888207bcba000d4b707977720d4870751070628682449299806492990064929880633021a05140700000000a079c30833080020018388c007c868087b97a0068267b80150201c053d75ff50221e0530515207062827248267b801837704330220059569382101492980064929780649296806209568a02749297006502022050575ff956900018297a0009577dc50222405365152070628e4238267b80183772433022605956938210149296006492958064929480615956880274929500650202805c274ff1407bcffffff000000009569000150222a05f050520706289e238267b8018377443a089000023a09980002956a382195ab00067bb8407bb9381408000000686374616d7bb83095686027492a280633004e06286974ffd49807826840d48707520727014926a001492698014926a8014926b001285a018263b0018262b801826b9000826c3001d3cb0b826c60d4cb0b826c40d4cb0b510bb10064a4d8280bc8b00ad34a02d84a0cda2b0cc89c0cd89c0bd83909c89707c8b70750222c05ad5251070628f3229567203c50202e05b872ff95673839827800037b68b001957900028298f8007b68a8018298f0007b68a0018297e8007b6798018267900050223005635350203205835850223405215650203605515850223805e55050203a05455850223c05a54d95bc00047bca80007bc9787bc8707bc7689568a0558267900150203e05e674ff826730826828d48707826818826908d49808826920826a10d4a909826a3895aa01956b385195bc00047bca88007bc990007bc898007bc7a0003307c05528280150224005b853520806282622826738018378209567603c50204205e471ff9567383995790003829840956a00017ba8b0008298387ba8a8008298307ba898008297287ba7a00001826718826808d487077b679001826730826828d487077b678801826720826810d487077b6780018268900097880350224405ef545020460584577b6760017b687801826790008a79033307ff3308ff5020480543577b6770017b68680182686001d487077b6760018267b8018379803307ff3308ff50204a051d57826bb80188b98000826a6001db9a07826c6801826a780150224c05cc52826b700150224e05d651826b38d4b707956c000182cb8000d4b80882cb8800d4ba0a82cb9000d4b909956b385195bc00047bc9b8007bcac0007bc8b0007bc7a8003307e05501c8760882679800502050057373ff9567003c8268a80050205205c070ff956a383982a2c80295a700028278d0008279d800827ae000826b7095bb0188bc01826778c87c0c956738517b7cd004d4bc0c7b7bc80488cb01826c8800c8cb0b7b7bd804d8cb0b826c8000c8cb0b957c00047bcbe0007b7a00057bc9f8007bc8f0007b72e804956700569568205650205405ef72ff9517e08479e06491826770957a02d87a07826878c8780bd88b08da770882678800c87808d87807826c8000c8c7077b6760017b97187b6858017b98107b6b68017b9b087b6998007b6a70017b9a9567e03b8268a00050205605ef6fff95683839958b000282b9c00082bab80082b7b00082b8a800502258050a5351070628fb1f9567c03b7b68380150205a05bc6fff956c383995c70002827aa00082799800827890008ea78e9bdba70b7b68a0008e877b6990007b6a60d4a9097b67307b6b387b693001db9b0751070628682582c788027b67a8009567a03b8268980050205c059371ff956b383995bc000282c96882c77082c87882ca80007bca407bc8387bc7309567803b9568603b7bc92850205e05853f9567383995780002828a60828b58828c508289488ea78eb8dba7088ec77b6998018899208599017b6ca001dbc7097b6aa8017b6bb001d4ab07db78098267a8008877207b674051094b0295673839956a000182a870957b00027bb80882a8687bb81082a8587bb8189568403b82a9607bb920330750206005f76fff826758817756171f0b826858480820019517e08477e07b678001647183793308208267500a088267a80095781fd87807826ca000c87c09d8c90ada770a826b9000c8ba0a7b6a780197aa3b989b05d4ab0b8267800182721897993b827710988805d489096f246f7782684094c8826a300194a8948b9489c89402d84209c8970cc8cb0b7b6bb801d37b0cd87b0adac90a7b6a588269980195901fd8900b826aa001c8ba09d8a90cdabb0c8263b001c8c303973b3b989a05d4ba0a97993b980b05d4b909c849097b699001d8490b6424c8b709c8a909d3790a7b698801d87909daab09826b780182679000d87b07826a60c8a70798ba05977b3bd4ba0a826b800182b282bb08987705948a94876fb86f2bc8b707c88a0ad88a0cc8c707826058c8a000d8a00ac8a7028267b001d87307826aa801c8a707983a05977c3bd4ca0a987705c8b707956c000182cbb800c88a0ad88a08c88707c8a9097bc98000d8a908c887077bc7789517e08477e07bc7b00064710182679001d8740782698801d39b08d89b09da8709826c8001d8c007826a7801d3a208d8a20ada870ad3c007d48707da790a7b64a8018267b0017b747b6bb8017b7b087b6098017b70107b62a0017b7218510a539567385149272005492718054927100549270805956840568267b00150206205786fff8264a801954401884701826bb801c87b0bd4b40788770182689801c88707d887088262a001c8820264702860ff8267408577018268a000826930db890782683882693001db9807510775018267a8008477e07b6730019567383982687001957a00017ba8c800826868017ba8d000826858017ba8d8009568003b826960017ba9e000330750206405836dff50226605514e50206805ad70ff50226a05c04c33006c050a0833026e0528b05050226e05ad5050227005c54b6472826890017b87187b6070017b80107b84087b837b62880150227205414ac8ca0a826940018267b001c879098267480164c0826ca801c8c707520bfa00826bb801d8b80bc8ba0ad30a027b605801d80a0cda2b0cc89c0cd89c02826bb001d8b909c89707c8270750227405934b7b6368017b64600151070628d11b9567e03850207605966bff956a383195ab000782b7c00082b8b80082b9b00082baa800956b385195bc00057bc7407bc8387bc9307bca28956860568267900150207805ff6dff50227a05bd438262a001c8c2027b62a001826c90017bc4087bc37bc01064727bc7187b607001826788017b67b801826c68017b6ab001648a7b628801330272052858498267a80082689000d487078268a000826960d49808d487075207380149266001492658014926680149267001286b018264b0018263b801826ba800826c3001d3cb0b826c9000d4cb02826ca000826b60d4bc0cd4c20b510bae00d8380bc8ba0ad30a02d80a0cda2b0cc89c0cd89c0bd84909c89707c8b70750227c057e4a51070628c41a9567e03a50207e05896aff95673839957900018298c0007b68b0018298b8007b68a8018298b0007b68a0018297a8007b6798018267a80050228005344b50208205545050228405f24d50208605225050228805b64850208a05165050228c05764595bc00057bca607bc9587bc8507bc748956880568267900150208e05b86cff8269900098973f826860978801d48707826aa00098a83f979901d49808826ba80098b93f97aa01d4a90997ba0195aa01956b385195bc00057bca687bc9707bc8787bc780003307a056285301502290057e4b52080628ec19826738018378209567203b50209205aa69ff9567383982780002956900017b9870957a000182a8f8007b986882a8f0007b985882a7e8007b9760018269a00098973f826a900097a801d487077b67b00198a73f826860978801d487077b67a801826aa80098a73f979801d487077b67a00197a7017b67980197a80350229405a34c50209605384f7b6778017b6890018267a8008a79033307ff3308ff50209805f74e7b6788017b68800182687801d487077b6778018267b8018379803307ff3308ff50209a05d14e826bb80188b98000826a7801db9a07826c8001826a900150229c05804a826b8801939b82685801e0a80882696001e0790782696801e0b909826a7001e0ca0a956c000182cb9800d4b70782cba000d4b80882cba800d4ba0a82cbb000d4b909956b385195bc00057bc998007bcaa0007bc890007bc788003307c05601c876088267980050209e050e6bff9517e0847ce064c1826870958703d88708826a785022a005ad4b82688800c88a0ad88a08826b8000c8b8087b6cb8017bca107bc9087bc77bc8189567c03a8268685020a2052268ff330700405022a405534d82b7980082b8a00082b9900082ba8800d49808d4a707d487078e777b67b0019567a03a8268b8015020a605166aff330700405022a8051b4d82b76882b87082b9800082ba78847700ff826bb001d4b707956b385195bc00057bc9c0007bcab8007bc8b0007bc7a8009568e0568267b8015020aa05456aff9567803a8268485020ac059367ff956438398242480182435001826770957904d8790a826778c8a70bd87b0cdaaa0c8240580182678800c87c0cd87c0782688000c8870782486001956a38517ba7e00595a700057b7cd8007b7bd0007b79c8007ba800067ba0f8057ba3f0057ba2e80595670057956820575020ae05c669ff9567603a3308405020b0051467ff95683839958b000182b94082ba3882b73082b8285022b205084a510706282417956938394929200149291801492910019568403a49290801608267b8015020b4050a68ff8268b801958760d88708826ab0015022b6055545956838397b89b0007b87a8008267f0007b87e0008267f8007b87d800826700017b87d000826708017b87c8007b8ab800648a9567203a9568003a9569e0397babc0005020b805f11d956a000182a7a00082a8a800d47808140700000000010000007ba790001407e0ffffff0000000082a9b800d8790782a9b00094977ba89800948752070628641695693839829700017b6770018297f8007b6778018297f0007b6780018297e8007b6788018267b8018377208268d0007b9888008268d8007b9890008268e0007b9898009568c039826ae8007b9aa0005020ba051867ff95690001829790009577c08298b800d878078298b000948782989800948752070628ea15826cb80182678801d8c7036472826ab00182678001d3a708d8a70964a0da8309826aa001826b7801c9ab08d8ab04826aa801826b7001c9ab0bc94b0bd8980ac9ab0bc99808c90709c93909c9c20a83c740956c38397bca687bc9707bc8789568a0397bcb80005020bc058766ff3302be059568383901826770017b8720826778017b8718826780017b8710826788017b87088267b0007b87408267b8007b87388267c0007b8730648b956780399568603995694039826ac8007bba285020c005751c95683839828750828260828348828a588268b001d3870bd8870c64848260b801d80308dab80c8269a001c99a0bd89a0a8269a801c992095022c205cd4551070628e51495623831826710017b27c807826718017b27d0073a075000023a095800023a0a6000023a0b680002956c38397bc795c700ff7b79f8007b7af0007b7be800956b000182b7207b27d80795692039956a003982b7287b27e00782b7b8005020c4055f67ff330782685033090a0d3308000202287e14140780ffffff0000000095690001829830d8780782982894878298109487520706284d14826c30018267a001d8c7036474826a280182629001d3a208d8a20964a0da8309826a2001826b8801c9ab08d89807d8ab0bc8b707826a1801826b8001c9ab0bc97b0bc99808c90209c93909c9c40a83c780007b6a40077b6948077b685007956840077b6b58075020c605ea64ff82678001956800067b87f800826788017b87f000826790017b87e8008267a0017b87e0008267707b6718078267787b671007826780007b67080795672007956800079569e006826a88007b6a00075020c8052e21826728078262380782632007826a300782682801d3870bd8870c648482603001d80308dab80c82692001c99a0bd89a0a82691801c99209c9a909d8cb0ac9a909c9cb0bc94707c98707c90308d497076489d4b808d47808d4b707988820977720d487075107062823138267300164987b69b8015020ca055367ff83788169b80133070a0d2854bd9567a0263308405020cc05c762ff9567382195790005829880007b68b0018298787b68a8018298707b68a0018297687b67b8013300ce050a0c3302d005280f425022d0050c4251080628b91298782051080628b0125022d205a3465020d405e466ff956838498269a8017a89480683779568005083888033090a0b9567384981774806018268b001ae87062877120a0c0164789877205107062869128267b8017b68b0015020d6059b66ff83788169b0013307010a0d01d478089888208269b001d49707977720d48707510706283512956938214929d8044929d0044929c8041407000000003182a070956800267b97e0048267b8015020d8051263ff8267d8003300da050a05011407fcffffff00000000956900015022dc05dd4152070628e3115022de058e3f492bc00495bc00047bc8b8007bc9b0009568e0257bcaa8005020e005c862ff0a0a82676801826840017b8708826778017b87826770017a871095673849492780064927780649277006492768063308248267b8015020e205c365ff7b6788013308208267b8015020e405b165ff4926a801209568384948288806204928c0064928b8064928b0064928a8069568a04f9788209888209569e04f979920d4890a8268880197882098882014090000000024000000d4980b9777209877209568c04f978820d4780c3308ff3309ff826780010a01015207e9010a0c015517200b0a0c7b67a80101956938218267a801959b00047bb7488267b8017bb76849268801492950048267a0017bb770492958048267b0017bb778492960049567a02595688025826a58017bba80005020e605dd20826a88018ea78268a8015022e805ff3d52090628c216956760258268b8015020ea055960ff956a382195ab000482b73082b84082b92882ba385022ec05e044d87a02826cf800d3c80bd8c808dab208d3a707d4b707da79085108bd019567401e3308405020ee051460ff95673819957c000582ca2082cb1882c91082c8085022f0053442510706282410956938194929f8044929f0044929e8043302f205140700000000a079c3083308002001838820fec868087b9700058267b8015020f405f560ff5022f605e83c52070628df0f8267b8018377043302f80595693819014929e0044929d8044929c804209568001e4929d0045020fa05bd60ff956900018297a0009577dc5022fc05ee3c520706289c0f5022fe05cb414929c0044929b8044929a804149568e01d4929b004502000068460ff1407bcffffff000000009569000150220206b23c52070628600f8267b8018377443a08f000023a09f80002956a381995ab00047bb8a0007bb9980014080000000065636e617bb890009568c01d492a880433004e06282860ff9567c02533084050200406e35eff95673821957900048298a0007b68b001829898007b68a801829890007b68a001829788007b67b801330006060a0c3302080628283e50220806253e51080628d20e98782051080628c90e50220a06bc4250200c06fd62ff956838498269a8017a89c806837795680050838833090a0b956738498177c806281bfc8267380133020e069569382101959a00047ba708826730017ba710826728017ba71895684025826720017ba7203307502010066d5fff95673821492700044927f8034927f0036479330720956820254929e80350201206495fff82679001817756173f0c82689001480840019517e08477e07b67b801502214065c3b330016060a0833021806282937502218062637958c00067bcae8007bc9f0007bcbf8007b870007956700259568205050201a06e35fff956838218087d8037b6788018287d0037b6780018287c8037b6758019567e02433084050201c068d5dff95683821958b000382b7c00082b9b80082bab00082b8a800956b00017bb7a8007bbab000d4a7077bb8b800d49808d478089888207bb9a000d49707977720d4870751070628760d95693821492998034929900349298803140700000000dd72b8239568c0247b97a0038267b80150201e06535eff8267d800330020060a0501956a000182a7a80082a8a000d47809140700000000010000007ba7481407fcffffff0000000082a8b800d8780782a8b00094877ba950949752070628000d50222206ab3a492b800395bc00037bc8787bc9709568a0247bca6850202406e85dff956900018297489577dc8298b800d878078298b0009487829850948752070628bc0c8267b8018377243302260695693821014929600382685801959b00037bb848826880017bb85095688024826a88017bba58502028068e5dff1407bcffffff00000000956900018298b800d878078298b00094878298509487520706285e0c8267b80183774433022a0695693821018268e000959b00037bb8288268e8007bb8308268f0007bb83895686024826af8007bba4050202c062d5dff0a0a82674001826868017b7808826878017b78826870017a781095673849492720074927180749271007492708073308648267b80150202e062860ff7b6780013308208267b801502030061660ff6478956b0001492b88002095693849959a0007481a2820491a60ff491a58ff491a50ff491a48ff1407000000000800000082b960d4970795694050979920989920956a805097aa20d49a0a82b98000979920989920140b0000000064000000d49b0b97882098882095696050979920d4890c3308ff3309ff0a01015207f1010a0c015517200b0a0c7b678801019569382182678801959800027b87c8008267b8017b87e800492680014929d0028267b0017b87f0004929d8028267a0017b87f8004929e0029567202495680024826aa8017b9a000350203206291b826a80018ea782688801502234064b38520906280e119567e0238268b80150203606a55aff956a382195ab000282b7c00082b8b80082b9a80082bab000d4780b889c0294ac94bc520c0628ea10d49808d4a707d487075207bd019567e01e33084050203806625aff95673819957c000582cac00082cbb80082c9b00082c8a80050223a067e3c5207710a9569381949299805492990054929880533023c06140700000000a079c30833080020018388c0fec868087b97a0058267b80150203e06415bff50224006343751072e0a8267b801837704330242069569381901492980054929780549296805209568a01e49297005502044060b5bff956900018297a0009577dc502246063c375107ed09502248061b3c4929600549295805492948050f9568801e4929500550204a06d45aff1407bcffffff000000009569000150224c0602375107b3098267b8018377443a08e000023a09e80002956a38197ba84005492a30057ba938059568601e492a280550204e068c5aff3308648267b80150205006b55dff83783307013309640a0d0195674024330840502052062b59ff95673821957900038298207b68b0018298187b68a8018298107b68a0018297087b67b801330054060a0c330256062874385022560671385208210998782052081a09502258060c3d50205a064d5dff956838498269a8017a8968078377956800508388a00033090a0b95673849817768072869f650225c06793c9567c0238268180150205e06a258ff956b382195bc000282c7900082c8a00082c9880082ca980064b3826cb001d37c0bd87c07826cb801d89c09dbb7098267a001d8a702826ca801d38c0bd88c08dab208d3a707d4b707da79087b68880182672001953900027b978000826728017b9778826730017b97709568a023826738017b97683307502060065f59ff9567382149276002492758024927500264793307209568802349294802502062063b59ff8267880151072e0282689001818756173f08480840019517e08477e07b678801502264064a350a08956c000182c888008287187bc780008287107bc7788287087bc77082877bc78800956b381982c7a8007bb7a00682c7a0007bb7980682c7b0007bb7900682c7b8007bb7880682c77bb7c00682c7087bb7b80682c7107bb7b006956700209568e01f9569c01f82ca187bbaa806502066061e2695683819958b000682b7e00082b9d80082bad00082b8c80050226806a93852077607826788016f77826970016f99826a78016faa826b80016fbb95bc057b6c8001d8bc0bc8ba0c7b6c7801d8ac0adabb0ac89a0a7b6a7001d89a09c897077b6788019567a01f50206a06fa56ff956b381995bc000682c76882c87082c97882ca80007bca95ba00057ba9f8007ba8f0007ba7e800826780017bc708826778017bc710826770017bc7189567601f9568401f9569201f826a88017bca2050206c0641239567381982724006957b000682b83882b93082ba28951be084b7e0647195ab03d8ab0ac8a90cd89c09daaa09c88909d88908c8820264787b6788017b79107b7c087b7b7b72189567001f50206e068058ff956a381995ab000582b7c80082b8d00082b9e00082bad800847700ff867701956b384995bc00077bc9a0007bca98007bc890007bc788009568c0508267880150207006b258ff956a000182a8b80095880188870182a9b000c879097ba8b8007ba9b000d4980788770182a8a000c88707d8870882a9a800c889097ba9a8007ba7a0002821fd502272063c3aac780b82689001480840019517e08477e07b67b001502274061d33330076060a083302780628243250227806213295ab06d8ab0ac8a90cd89c09daaa09c88909d88908c887078268b8017b8b7b8c087b89107b87189567602350207a069557ff956c382182ca280282c7300282c8380282c94002826bf8007bcbe001826bf0007bcbd801826be8007bcbd001826be0007bcbc8017bc9000295cb00017bb8f8007bb7f0009567402395682023956900237bbae80050207c060a2c956a382195ab000282b72082b81882b91082ba08956b384995bc00077bc7c0007bc8b8007bc9b0007bcaa8009568e0508267b80150207e067857ff33073821c8760a502280068f388267380195a900017b97a800826730017b97b000826728017b97b8009568e022826720017b97c000330750208206d055ff956738214927a001492798014927900164793307209568c0224929880150208406ac55ff82689001818756173f08480840019517e08477e07b67880150228606c331330088060a0833028a0628593250228a065632c8870795683849958a00077babc8007bacd0007ba9d8007ba7e0009567a0229568005150208c064356ff956b382195bc000182c77082c86882c97882ca800064b2826cb001d37c0bd87c07826cb801d88c0cdbb70c8268a801d3a807d8a808826ba001d89b0adb780ad39b08d48707db7a0c7b6c880182672001952900017b9760826728017b9758826730017b975095688022826738017b9748330750208e06d854ff956738214927400149273801492730016479330720956860224929280150209006b454ff826788015107080182689001818756173f08480840019517e08477e07b67880150229206c330330094060a0833029606285931502296065631c8870a956838218267a8017b87a0008267a0017b8798008267b0017b8790008267b8017b8788007b8ba8007b8cb0007b89b800648b956700229568e0219569c0217bbac00050209806921f956a382182a7c80082a8e00082a9d00082aad80050229a067b33958a00077babe8007bacf0007ba9f800956838517b879567a0219568205150209c06e354ff956a38217ca768956c000182cbb80095bb0188b80182c9b000c889097bcbb8007bc9b000d49b0888880182c9a000c89808d8980982cba800c89b0b7bcba8007bc8a0005207adfd287d50229e06db36ac780b82689001480840019517e08477e07b67b0015022a006bc2f3300a2060a083302a40628dc2e5022a406d92e956740225020a6065b54ff956a382195ab000182b71082b81882b90882ba208499ff00ff86990001956b38517bba207bb8187bb7107bb908956840518267b8015020a8069754ff956780213308405020aa06e551ff95683821828960828a588287508288485022ac06dd345207fc019567382149174049173849173095686021491728408267b8015020ae06e552ff8268b801958740d88708826ab0015022b0063030956c38197bc9d0077bc7c80782670001956838217b8782670801958900ff7b97f800826710017b97f000826718017b97e8007bcad8079567402195682021956900217bcbe0075020b2061d0f956a000182a7a00082a8a800d487071408e0ffffff0000000082a9b800d8890882a9b0009498947851085001956738218278207b6890018278187b6888018278107b6880018277087b6778018267b8018377203302b40695693819018268e000959b00077bb8a8008268e8007bb8b0008268f0007bb8b8009568e020826af8007bbac0005020b606fa51ff826278018264b801d84207826cb001826a8001d3ca08d8ca0964a3da8709826aa001826b8801c9ab08d8ab00826ba801826a9001c9ba0bc90b0bd8980ac9ab0bc99809c9c308c97807c94208d4b707d4980ad47a0ad4970798aa20977720d4a70752078c003a07a000023a09a80002956b381995bc00077bc7a0007bc998003a07b000023a09b80002956b000182ba387bca6882ba307bca707bc790007bc9880082b7287bc7789569c020956aa02082b7207bc7800082b7b8005020b8060c53ff956780203308405020ba06f14fff956a381995ac000782c76082c85882c95082cb485022bc06e93351074b0600330800020283883307012812838833070133090a0d330800020228f233090a0d330800020228e7330800020228e0330800020228d982679801330800105022be065f357ba7a800826790017ba7b000826788017ba7b8009568e016826780017ba7c00033075020c006a050ff956738114927a005492798054927900564793307209568c016492988055020c2067c50ff9517e08477e07b67b801647182677001817756173f12826870014808403302c4062892305022c4068f30826778013300c6060a083302c80628a32b5022c806a02b9567a0165020ca062251ff956a381195ab000582b76882b87082b9800082ba78847700ff867701956b384995bc00047bc9607bca587bc8507bc7489568804d8267b8015020cc065b51ff82678001330800105022ce0679347ba740826788017ba738826790017ba7303a07680102826898017ba8283a087001027ba7603a077801027ba8583a088001027ba750649795698016956a60167b784805330733085020d0066851ff330782687801289ffe33080002022887fe3308000202287ffe33080002022877fe3308000202286ffe33080002022867fe3308000202285ffe33080002022857fe3308000202284ffe33080002022847fe3308000202283ffe826788019777209877207b67b80195683851492860064928580649285006492848060495678041956880575020d206fc4fff9568384180875c977720828860956b000182b9b800d49707956a3851492a8006492a7806492a700695ac0006491c680482b990007bc9900082b998007bc988007bc8a0007bc798009567a0579568c0575020d4061d50ff33080002028388330728bafd330800020228a2fd3308000202289afd33080002022892fd3308000202288afd33080002022882fd3308000202287afd826788019777209877207b67b801956838494928200249281802492810024928080202956760119568404b5020d606374fff9568381180873c977720828840956b000182b9b800d49707956a3849492a4002492a3802492a300295ac0002491c280282b990007bc95082b998007bc9487bc8607bc7589567604b9568804b5020d8065c4fff33080002028388330728f9fc330800020228e1fc330800020228d9fc330800020228d1fc330800020228c9fc330800020228c1fc330800020228b9fc330800020228b1fc330800020228a9fc330800020228a1fc33080002022899fc33080002022891fc33080002022889fc33080002022881fc33080002022879fc33080002022871fc33080002022869fc33080002022861fc33080002022859fc33080002022851fc33080002022849fc33080002022841fc4929d8034929d0034929c803140700000000717b484e9568ff07958801057b97e00333075020da06134dff9568ff07958839014928c0034928b8034928a8034164893307049568ff079588e1044929b0035020dc06e64cff8267a801817756173f0c8268a801480840013307013309248268b0010a0d01956738314927b8064927b0064927a8066479140700000000717b484e9568e0377b97c00633075020de069a4cff3302e00695683831014928a00649289806492888064164893307049568c037492990065020e206704cff3908ec010256183f0b2003ec01024001330800020283883307013309243300e4060a0d01956738314927f8064927f0064927e8065022e606da2d838820f8c868087b97000733075020e806224cff3302ea0695683831014928e0064928d8064928c806416489330704956800384929d0063300fc0628f44bff956738394927380449273004492728045022ec06852d838860fdc868087b97400433075020ee06cd4bff9567383949272004492718044927100464793307049568403d492908043300fc0628a54bff956738314927380749273007492728075022f006362d838860f8c868087b97400733075020f2067e4bff3302f406956838310149282007492818074928080741648933070495684038492910073300fc0628504bff956738314927980749279007492788075022f606e12c8388c0f8c868087b97a00733075020f806294bff3302fa0695683831014928800749287807492868074164893307049568a038492970075020fc06ff4aff826758817756173f0b826858480840013307013309248268500a0d01330701826898010a0d3307018268980128e3f93307018268980128d9f964ba956938198267e000959c00077bc7288267e8007bc7308267f0007bc738956860208267f8007bc74064b77b6ab8015020fe068f4aff956c000182c720956b38197bb7000782c7287bb7f80682c7307bb7f0063a07c000023a08c800023a09d0000282ca387bbae8067bb720077bb818077bb910073a07d8000233082095694020956a20207bb7080782c7b80050200007044cff330782689801283bf99511c07b10387b15307b16289515408411f0828910828a18828b088288d4ba0ad4980bd4ab0b98bb20d4a909979920d4b90952091f6476641750200207ae48ff50220407432b510a0c50220607902c320000330800020283883307013309330008070a0d01951110ff7b10e8007b15e0007b16d8009515f0008411f0828c10828b18828a0882887b1a287b1b18d4ab0bd4c80ad4ba0a98aa207b1c20d4cb0b97bb20d4ba0a520afa017b17088297187b17688296108297087b176082977b17589517b0007b181050200a072048ff821758d46709821868821a60d4a808d489099899207b1650d46808978820d498085208b0018219c800821ac000821bb8008218b0007b18307b1890007b1b387b1b98007b1a407b1aa000951890007b19487b19a800647650200c07fc48ff821768821850d478081407e0ffffff00000000d87609821a6094a9948951095601821820821918d49808821910d87907821a2894a7948751073c01646c821630821a40d4a607821848821b38d4b808d48707987720d4a808978820d487075207150183c7208398207b1828646850200e07bf4bff7b1720821728646850201007b04bff6478821720646950201207ac46ff821758c86707d86708821960821b38c8b909c88909d3b90ad8b90bdaa80b821850821a40c8a808d8a80a821c68821648c86c0cc8ca0ac88b0bd88b08c8a808d4b808140ae0ffffff00000000d8a70a949a948a510a8f00837720492188004921800049117895187049117050201407f947ff82163095661f1407e0ffffff01000000d26707821858c88707d88708821a6050221607f729821850c88a0ad88a08821b68c8b808957b20d87b07c8790cd89c09da7709c8a909d8a907c887078218087b8b7b8c087b89107b8718955110ff8210e8008215e0008216d8009511f000320000951110fe7b10e8017b15e0017b16d8019515f0018411f0828b10828a18828c0882887b1a98007b1c8800d4ac0cd4b80ad4ca0a98aa207b1b9000d4cb0b97bb20d4ba0a7b1708520ad3038297187b17388296108297087b174882977b17409517b0017b18800050201807e145ff821740d46709821838821a48d4a808d489099899207b1618d46808978820d4980852088b03821ac8017b1a308216c0018219b8017b19288218b0017b18207b1890017b1998017b16a001951890017b1aa80150201a07c246ff3300330c4921a800330498673b821830978805d487077b17e800821a2898a83b7b1610976905d4980882172098793b97aa05d4a909977a05821b40c8ba0a821b40d8ba0b821748c87909c8b909d39707821648d86906da7b06821340821218c82808c88606d886077b17e000d8280b8218388217e800c88707c8b7078218e000c8870795a8207b18d800d8a808821aa800c8890b7b1be800d89b09da8809c869097b19d000d86908c887077b17e0001407e0ffffff000000007b17a000643b8217487b17b8007b12c0008217387b17c80001821720d87007821928d39c08d89c09da8709821610d86a0264a7821a30d3a4087b1478d8a40ada820a7b17a800d36707d48707da790a510a1702821ad0007b1c687b10708217c8008218c000d4870764b08218a000d88b088219b80094989478821be8008214e000821cd80051081502d83c09821648d36b08d86b07da8907643264a3821818c98a0a7b1ab000c96b0ac99a0ac92c097b1cd8009592e0d89209c89a0c95ccffd3ac06d8ac0ada690ad88309821638c96406c996068218b000d87809c99606c97808888701c976069588ffc88a0ad88a07c876069507207b1270017b1c78017b1a8001951870017b1688017b17b0007b1be8007b14e000640650201c07ea44ff82199800821a9000d49a07821c80008218a000d88c08821b880094b8947851085d0195c820d8c807648c7b1850c87b087b1860d8b808da7708c8a8087b1858d8a807c879097b1998008217b000d867078218b800c878097b199000d88908da77088217c000c88706d876078218c800c878087b18c8009517500164c850201e072d43ff821a5001821758018218600182196801821be0007b1b0801821bd0007b1b0001821be8007b1bf800821bd8007b1bf0007b1928017b1820017b17180195173001951810019519f0007b1a10015020200758fa821748017b17e000821740017b17d000821738017b17e800821070950001880701821c68c87c0cd4c007887701821830017b18d8008218a800c88707d88708821478c88404821bb000821890007b18b8007b16c0008218507b1880008218607b1888008218587b189000647a82134028b6fd8217088218d8007b788218e8007b78088218d0007b78108218e0007b7818955110fe8210e8018215e0018216d8019511f0013200009511a0fe7b1058017b1550017b164801951560018411f0828c10828a18828b0882887b1aa0007b1b9000d4ab0bd4c80ad4ba0a98aa207b1c9800d4cb0b97bb20d4ba0a7b1708520a46028297187b17b0008296108297087b17800082977b1778951720017b18b80050202207c541ff821778d467098218b000821a8000d4a808d489099899207b16a800d46808978820d498085208f901821b38018218300182192801821a20017b1a187b1a00017b19207b1908017b18287b181001951800017b1b307b1b18016476502024079e42ff3309330a330333021407e0ffffff000000007b1710821c8000019560208217187b1968d87907821920d39a087b1a60d89a09da8709821b28d8b307821a30d3a2087b1258d8a20ada870ad3b307646bd487077b1070d86008da790ac88c0964c6d8c907da88078218a800c8780cd88c078218b000c88707510a1e017b17387b1c407b19487b13507b1b787b1680008217a00082189800d487078216108219b800d86908821a900094a89478510811019598209517e0007b1888007b19b800502026079f40ff8217a8008218b000d48707821878d8680882198000949894785108de00821788008218b800d8870782169000c876087b188000d86808da77088217f8008219f000821ae800821be00082169800c868087b1878d86808821ca000c88c0c7b1ca0007b1bc0007b1ac8007b19d0009518c0007b17d8008216706467502028075841ff821968959901889701821a60c87a0ad4a907887701821850c87803d88308821258c88202821c488218407b18a8008218387b18b000821888007b18b800821880007b1890008218787b1898002888fe821a088218707ba87ba9087bac107ba7189551a0fe82105801821550018216480195116001320000951170ff7b1088007b1580007b1678951590008411f064728289827408828c088273959a1fd89a00c80c0984aae07b1308c8a303d8a30bc8490ac8ba0ad39a06d89a07da6b07822b18d8c90c828610822210828818da000cc86c0cd86c06c82c09c89707d8c90cd89709c8b808c86808c8c808c8980c8ec88e79dbc809d4c7088ea6db8906520658821808d88308d34a09d84a06da9806d82708d3bc09d8bc0bda980bd32708d49808da860b520b317b13507b1a587b17603307409518507b1c6850202a071940ff955170ff821088008215800082167895119000320050222c07ff2250202e07f73fff4911284911204911104133070495181049111850203007dd3fff3908ec010256183f0b2003ec0102400133080002028388330701330924330032070a0d01951140fe7b10b8017b15b0017b16a8019515c0018411e08280829b088284088296950a1fd80a02c8240c7b1630d86a03d3bc0a7b1b40d8bc0bdaa30b828610d84c0ada220a829c18828218829310c86a0ad86a08c82808d3c8097b1c20d9c808d83a0cda9c08d33a0ad4a909db980b510bf2027b17187b1328d460077b14507b1238d42408d487079877207b1648d46808978820d487075207c9027b10608308831780017b18100a030182199801821a9001821b88018e978ea8db97087b1990007b1a8800d49a077b1b98008eb9db780952099702821680019517600133084050203407983dff82127801821c70017b1c78821368017b138000821460017b147095671f7b1658d8670882199800c898088488018477e0957920d87907c8780ad88a0bda770b492138017b19200164267b1258017b1c50017b1348017b1440017b1a280195174001951820017b1b30015020360788fd8219707b166882188000d46807821a78d4a908d47808988820d4a707977720d487075207e8018216587b160001821798007b170801821788007b17100195180001821790007b171801649750203807113eff821760c8670ad87a0982145082179800c84707c89707d3470bd84708dab90882104882198800c8090995ac20d8ac02c8270b821a30d8ca0c821a40d3ab06d8ba0adb6a0cd8090a82133882169000c83606c86a0ac89808d89809c8a909d87b07da2207c88707d88708c89808821a20d3a809d88a08821b28d87b0ada9a08d3b707d49707db780c821a9800520ca101d430071408e0ffffff00000000821960d88908944894785108120182198800821c58d49c0782189000d4a808d48707987720d49808978820d4870782167082198000821a78821b685207e100d4ba071408e0ffffff000000007b1860d88608949894785108c6008217108377207b175083672064c864c650203a073b40ff837783688219500a0201821270c86207d8270882199800821b8000c8b909c88909d3b90ad8b90bdaa80b82188800821a78c8a808d8a80a821c9000821668c86c0cc8ca0ac88b0bd88b08c8a808d4b808821a60d8a70a949a948a510a5164268377204921f8004921f0004921e8009518e0004921e00050203c07873cff8217188218687b78188218787b7810821880007b78087b76955140fe8210b8018215b0018216a8019511c001320000330800020228744921d0004921c8004921c000140700000000717b484e9518c0007b17d800330750203e072a3cff4921b8004921b0004921a000413307049518a0004921a800502040070b3cff3908ec010256183f0b2003ec01024001330800020283883307013309240a0d3308000202280833080002020183883307013309330042070a0d019511c07b10387b15307b16289515408411e064768317330804330044070a033302460728091d50224607061d510a0b50224807531e320033080002028388330701330933004a070a0d01828b18828a108283088eb28eacdbb20cd4ba028e39db2c09520948828898a93b97bb05d49b02983b3b97aa05d4ba0a988b3b973305d4b30b978805958c20d88c08c88b09d8b90bda880bc8ab0bd8ab08c828087b7c7b79087b7b107b781832009511b07b10487b15409515508411f050224c07111a50204e070b3bff491118491110490141330704641849110850205007f33aff3908ec010256183f0b2003ec0102400133080002028388330701330924330052070a0d01951100ff7b10f8007b15f0007b16e800951500018411f0827810827918827a088277d4a909d48707d49707510719955100ff8210f8008215f0008216e8009511000132009517c000330840502054074339ff8219d8008216d0008217c8008218c00050225607dd1e5207db004921b0004921a8004921a000140700000000a079c3089518a0007b17b800821718502058073b3aff50225a07dd1a5107a90082171883770449219800492190004921800020951880004921880050205c070f3aff50225e07c41d51077d8216188367244911784911704911602595186049116850206007e939ff140700000000010000007b171407bcffffff00000000502262072b1c5107418216188367443a08b801027b18583a08c001023a09c801023a0ad001027b18507b19489518407b1a40502064079a39ff821795779c50226607ed1b52070400821618836764491130491128140800000065736e65707b1838951820491120502068076539ff33088400646750206a078f3cff83783307013309840033006c070a0d01951130fe7b10c8017b15c0017b16b8019515d0018411f08289828a08828b108288187b17087b18407b1888017b1b787b1b80017b1a80007b1a780195179001951870017b1988007b19700150206e0776fd821790017b1770821798017b17588217a0017b17508217a8017b174895175001330840502070079337ff821868017b18688217600182165801821950017b1910821a487b1a2801647a7b17188217507b1720018217587b1718018217707b1710017b1848017b1a40017b16380195173001951810017b193001502072079df78217107b1660821968d46909821a1850227407e6195208c101821888007b18f000821880007b18f8008218787b1800019518f0008216407b160801502076073638ff7b16c8008217787b17c000821780007b17b8009517d0009518b000821988007b19b000502078078cfc330333043302330c8217d0008210e8008219d800821ae000957be07b1b58d87b07c8790b95bbffd39b087b1b50d89b09da870995a7ffc879097b1948d8790788a901c99008c887077b17408218109587207b1738d88707821b60c87b087b1830d8b808da7708821718c878087b1828d87807821668c867077b1720646001821758d87307821950d39408d89409da8709821648d86207821a40d3ac08d8ac0ada870ad36207d48707da790a510a96007b138000821838c83807d887087b1478821b30c84b09c88909d3b90ad8b90bdaa80b7b128800821a28c82a08d8a80a7b1c70821620c86c0cc8ca0a50227a075b1952087b4921a8004921a0004921980095189000492190006050207c07fe36ff82188000958720d88708821a7850227e070e1982188800c88a0ad88a08821c70c88c0c6473649464a2821068821b602840ff8217088218107b787b7b088218187b78107b7018955130fe8210c8018215c0018216b8019511d001320000951180fe7b1078017b1570017b166801951580018411f08289828a08828b108288187b177b18087b1838017b1b287b1b30017b1a307b1a280195174001951820017b19387b19200150208007d2fa821740017b1740821748017b1720821750017b1718821758017b17109517000133084050208207ef34ff821718017b1750821810017b1848821a08017b1a58821600018219107b19d8008219187b19d0008219207b19c8008219407b19c0007b17f8007b18f0007b1ae8009517e0009518c0007b16e00050208407fbf4821750821858d487077b1640821948d49608d47808988820d49707977720d48707520710018217387b17a0008217307b17a8008217287b17b0009518a0008216087b16b800821740502086078735ff7b16788217287b17708217307b1768951780009518608219387b196050208807e4f9821780008216980082198800821a90009578e0d87807c8790b95bbffd39b0cd89b09dac70995a7ffc87909d8790788aa01c9a606c86707d4980ad4b707d47a0a98aa20d49707977720d4a707520774821750821948d49707140be0ffffff00000000821940d8b909821b5894b994795109513907e801027b17388216408367207b183050208a071238ff83778118308219380a0282178218507b78188218487b78108218587b78087b76955180fe821078018215700182166801951180013200009511e0fe7b1018017b1510017b160801951520018411e064167b673882977b67408297087b67488297107b67508297187b6758828718828910828a0882887b67307b67f8007b69287b69f0007b6a207b6ae8007b68187b68e0009567c0009568e00050208c072d35ff8267d8008262c0008269d000826ac800826858d3870bd87808826750d8970cdbb80c826848d38a03d8a80a826840d82808db3a08d39707d4b707db7c0851080b018267187b67608267207b67688267287b67709568608267307b6778330750208e07d633ff3908ec010256181f0b2003ec010220019517e08479e07b693064913307000202837783993308200a088262308227188228106f7a6f88330b05826740977902c87903d6b70b826948979c02c89c0cc8cb0bc8a303d8a30ac8b807c8a700d38007d88008da7a08d8cb07330b05d6b90ac8a707826950979a02c89a04d6b90b822c826958979a02c89a0ac8ba0a6fcbc8ba0a822b08c87404d87407c8a7076fbac8a404d8a40ac8a707c84808d8480ac8a707826a387ba37ba0087ba8107ba7183307491a38491a30491a28491a209551e0fe8210180182151001821608019511200132004926b0004926a8004926a000140700000000717b484e9568a0007b67b800330750209007cc32ff49269800492690004926800032330704956880004926880050209207ad32ff3908ec010256183f0b2003ec0102400133080002028388330701330924330094070a0d01951140ff7b10b8007b15b0007b16a8009515c0008411f0828b10828a18828c0882887b1a287b1c20d4ac0cd4b80ad4ca0a98aa207b1b30d4cb0b97bb20d4ba0a7b1738520af2008297187b17108296108297087b170882977b17951780007b181850209607e730ff821210821c088213821788008218980082198000821a9000d3c70bd87c07d89309dbb709d8a607d3280bd88208dab708d36a0ad4ba0adaa9085108950098673b972805d4780298c83b976605d4680898393b97ca05d4a909973a05821718c87a0ad87a0b821c20c8c909c8b909d3c907d8c906da7b06821c30c8c808c88606d8860bd8c808821c28c82c07c88707c8b70795a820d8a80ac8a90bd89b09daaa09c86909d8690ac8a707821a387ba87bab087ba9107ba718955140ff8210b8008215b0008216a8009511c000320000491170491168491160140700000000717b484e9518607b17783307502098073131ff4911584911504911403233070495184049114850209a071731ff3908ec010256183f0b2003ec010240013308000202838833070133092433009c070a0d019511a07b10587b15507b16489515608411f0828910828c08828b82881897923f98ca01d42a02978a3f989901d49a0a97cc3f98b901d49c0c98830184bb019ab888b60184c97fd2a804d2280adbbc09d2380b88982094a8d4b40c94c8ab86167b797b7a087b74107b7b1850229e07531432005022a0077a0f5020a2077430ff49111849111049012233070464184911085020a4075c30ff3908ec010256183f0b2003ec01024001330800020283883307013309243300a6070a0d019511a0fd951900027b90587b95507b9648951560028411e064167b6710828718828910828a0882887b67b0007b6738027b69a8007b6930027b6aa0007b6a28027b6898007b682002956700023308405020a807a82eff956800028287187b67188287107b67208287087b672882877b67309567e001956820025020aa07aa30ff956b000182b7f80082b8f00082b9e80082bae0007b6790007bb7b8007b6888007bb8b0007b6980007bb9a8009567c0019568a0017b6ab8007bbaa0005020ac0789fe826730826818826928d48909826a205022ae07e41052085203956c000182c9d80082cad00082c8c80082cbc0007b6b607bcb80007b68707bc888007b6a687bca9000956880017b69787bc998005020b007222fff826ab80084a70152070101826720826818d487071408e0ffffff00000000826b30d88b08826928949894785108e80284a800ff83b720826a8000956900017b9a087b98826888007b981095680001826a90007b9a185020b207c62eff330433033302826768826860d48707826878826970d49808d487078e779777057b67b800018268b800958720d88708c88409d8490ada880ac83a0ad83a08c8820b8268307b68e0007b67c0008267287b67e8008267207b67f0007b69c8008267187b67f8007b6ad0009567e0009568c0007b6bd8005020b40770ed8267108268187b78188268207b78108268287b78088268307b789551a0fd9517000282705882755082764895116002320082679800956900017b97608267a0007b97688267a8007b9770956860018267b0007b977833075020b607ed2dff9517e08477e07b675864713908ec010256181f0b2003ec010220019517e08479e07b69b00064913307000202837783993308200a084926b800330433033302826cb00082c7188268309589207b6950d88908826928c8890a7b6a48d89a0bda880b82c81082c90882ca6f776f886f906fa9826c58649a7bc91864097b6980007bc9107b6890007bc80864797bc7826720c87b0b7b6b40d87b07826818c887077b6738017b6a88007b6998008267608268b800d87807826970d39408d89409da8709826b68d8b307826a78d3a208d8a20ada870ad3b307d48707da790a510a70fe9567400164c87b62b0007b63a8007b64a0005020b807e62dff8268508267b800c88707d88708826b488269a000c8b909c88909d3b90ad8b90bdaa80b826a408268a800c8a808d8a802826c38826ab000c8ac0cc82c0a5022ba07ef0e5208a200956c000182c95882c85082ca4882cb407bcb207bca287bc830956820017bc9385020bc07862cff826a980095aa0188a70182649000c87404d44a0788770182688000c87803d8830882678800c887078268b800958020d88009826ba000c89b08d8b80bda990b8269a800c89b0bd89b098262b000c8920264497b699000826c587bc90864a97bca7bc310647a7bc7187b6380007b60b800648464b328c8fe008289828218828a08828c10959b0188b901c8a909d49b0a88aa01c8ca0ad8ca0cc82c0cd4c902d4ab08d428085108107b7b7b79087b7a107b7c1832009511b07b10487b15409515508411f05022be07bc0a5020c007b62bff49111849111049011133070464184911085020c2079e2bff3908ec010256183f0b2003ec01024001330800020283883307013309243300c4070a0d01951120ff7b10d8007b15d0007b16c8009515e0008411f0827810827918827a088277d4a909d48707d49707510719955120ff8210d8008215d0008216c8009511e00032009517a0003308405020c607ee29ff8219b8008216b0008217a8008218a0005022c807880f52078b00492190004921880049218000140700000000a079c308951880007b1798008217185020ca07e62aff5022cc07880b510759821718837704491178491170491160209518604911685020ce07c02aff5022d007750e5107338216188367244911584911504911400f9518404911485020d2079a2aff1407bcffffff000000005022d407e80c520704008216188367443a08d801023a09e001027b18384911287b19309518204911205020d607602aff33086464675020d8078b2dff83783307013309643300da070a0d019511907b10687b15607b16589515708411f0828a187b1a08829b1882847b14828a08829608829c828310829210c8a609c8c404d8c40cc8c909d36900d86906da0c06c83208821c08c8bc0cd8280bc8cb0bc8680cd88c08c88b00d3a90bd8a90a8218d88406dbba06d83c02821808d3800bd8800adab20ad33c08d4b808db8a0652061f7b747b79087b7c107b701895519082106882156082165895117032005022dc07a10c5020de079929ff491128491120491110113307049518104911185020e0077f29ff3908ec010256183f0b2003ec01024001330800020283883307013309240a0d33073300e20728bf2cff33075020e207b92cff3307015020e407af2cff82970882988199106f77987a206f88978b20d4ba0a9777206f99989920d4970798882082c9a800d3980882c9b000d39707d4870782c8b800d3a808d487073202d88708826aa801c88a09d8a90ada880a8268a001c88a0ad88a08826bb801c8b808956b384995bc000332028263680195330188370182646001c87404d4430788770182687001c87800d8800882678801c887078268b8019589207b698801d8890a82685801c8a8097b696801d8890bdaaa0b8268b001c8b80ad88a0b8268a801c8b8087b68a80182689801958b20d88b0c82697801c8c908d89809dacc09826c8001c8c909d8c90c3202956c000182c8b80082c7a80082caa000d47a0a140b00000000010000001407fcffffff00000000d8780782c9b000949794a7320282a782a80882a91082aa186f776f886f996faa95ab02d8ab0ac8a90cd89c09daaa09c88909d88908c88707956838513202826ab80182a782a80882a91082aa186f776f886f996faa95aa0188ab01c8b909d49a0b88bb01c88b0bd88b08c88707956838493202956c000182c96882970882988199106f77987a206f88978b20d4ba0a9777206f99989920d4970798882082c950d3980882c958d39707d4870782c860d3a808d487073202956c000182c9b00082970882988199106f77987a206f88978b20d4ba0a9777206f99989920d4970798882082c99800d3980882c9a000d39707d4870782c8a800d3a808d487073202956c000182c9b80082970882988199106f77987a206f88978b20d4ba0a9777206f99989920d4970798882082c970d3980882c978d39707d4870782c88000d3a808d487073202956c000182c9b80082970882988199106f77987a206f88978b20d4ba0a9777206f99989920d4970798882082c9a000d3980882c9a800d39707d4870782c8b000d3a808d48707320282a782a80882a91082aa186f776f886f996faa95aa0188ab01c8b909d49a0b88bb01c88b0bd88b08c8870795683851320282c70882c881c9106f77987a206f88978b20d4ba0a9777206f99989920d49707988820956b00013202140b00000000010000001407fcffffff00000000d8780782c9b000949794a7320282a782a80882a91082aa186f776f886f996faa95ab05d8ab0ac8a90cd89c09daaa09c88909d88908c8870a3202826bb80188b98000826a7001db9a08826c7801826a8801d4ca0ada970a93b8ff93baff826b8001939b939c82679801e0a7078269a001e089088269a801e0c909826ab001e0ba0a956b38513202956a000182a9b80082a7a00095779cd8790782a8b000948782a8a80094873202956a000182a8b80082a7a0009577dcd8780782a9b000949782a9a8009497320295670001827ba800827ab0008278b800140900000000010000001407bcffffff00000000d8780794a794b73202826a480182a782a80882a91082aa186f776f886f996faa95ab05d8ab0ac8a90cd89c09daaa09c88909d88908c8870a956838198267a0013202d4a808d4970ad48a0a98aa20d49808978820d4a8083202826a980182a782a80882a91082aa186f776f886f996faa95ab04d8ab0ac8a90cd89c09daaa09c88909d88908c8870795683851958a00013202826ab00182a782a80882a91082aa186f776f886f996faa3202826ab00182a782a80882a91082aa186f776f886f996faa95ab04d8ab0ac8a90cd89c09daaa09c88909d88908c887078268b8017b8b7b8c087b89107b87183202826a680182a782a80882a91082aa186f776f886f996faa95ab05d8ab0ac8a90cd89c09daaa09c88909d88908c88707956838513202d8ab0ac8a90cd89c09daaa09c88909d88908c8870795683849958a00053202956a000182a7a80082a9a000d47909140700000000010000007ba7a0001407fcffffff0000000082a8b800d8780782a8b00094877ba9a80094973202647183793308408267980132028298b800d878078298b00094878298a80094873202888820858801dba7088ea78ea9daa709d4aa07da78093202d88708826a1001c88a09d8a90ada880a82682001c88a0ad88a08826b1801c88b0b64c87b6cb8017bcb187bca107bc9087bc79567ff0732028269400182970881981082996f77977a206f88988820d48a0a9877206f98978920d479099888208267b801837704956b38213202826a880182a782a80882a91082aa186f776f886f996faa95ab05d8ab0ac8a90cd89c09daaa09c88909d889083202826730017b6b9801d87b07857b017b6a780194ab017b6980018267a001d49707947b01826838018267b801c87808826a500132027b6778017b68800182677001d487077b6770018267b8019579803307ff3308ff3202c88a09d8a90ada880a8268a001c88a0ad88a08826ba801c88b0b3202826ab80182a782a80882a91082aa186f776f886f996faa3202d88708826a8801c88a09d8a90ada880a82689801c88a0ad88a08826b9001c8b808956b38413202d88708826aa001c88a09d8a90ada880a8268b001c88a0ad88a08826bb801c8b808956b385132028268b801d88708826ab001c88a09d8a90ada880a8268a801c88a0a8268a801d88a08826ba001c88b0b3202956c000182c7b80095772082c8b800d8870882caa000c88a09d8a90ada880a82c8a800c88a0ad88a0882cbb000c88b0b330800303202956b000182b8b00082b9a000d4980882baa80082b9b800d4a909d48909989920d4a808978820d4980832024926a001826a880182a71882a81082a90882aa6f736f846f903309826b98016fa7330a32029517e08477e07b67680164718379330840826770013202d4c809d4a707d47909989920d4c707977720d4970732028269400182970881981082996f77977a206f88988820d48a0a9877206f98978920d4790998882032028298b800d878078298a00094878298880094873202491130491128491120140700000000717b484e9518207b173833073202956c000182c8b80082c7a00082c9a800d47909140b00000000010000001407e0ffffff00000000d8780782cab00094a7949732029518e08488e07b6888016481837783893308203202957b03d87b07c8790cd89c09da7709c8a909d8a907c88707956838493202939b82689801e0a8088269a001e079078269a801e0b909826ab001e0ca0a320297773b9878387b68b8019a8980003307ff3308ff3202d8ab0ac8a90cd89c09daaa09c88909d88908c8870795683841958a00063202c9a909d8cb0ac9a909c9cb0bc94707c98707c90308d49707d4b809d47909d4b707989920977720d49707320297aa3b989b05d4ab0b8267a80182731897993b827a10988805d498076f346fa93202d4a707d4980ad47a0a98aa20d49707977720d4a70732029517e08477e07b67b0016471837933084032029517e08479e07b69b80164913202d8780782a9b000949782a9980094973202d4ca0ada980a3308ffdab807dab80a939c3202956a000182a74882a840d487071408e0ffffff0000000082a938d8890882a950949894783202821908d46909140600000000010000001407fcffffff00000000821818d8780782181094877b1908949732029517e08477e07b679001647133082033073202826aa80182a782a80882a91082aa186f776f886f996faa3202956c00017bc9b0007bcaa800d4a9077bc8b800d4b808d478089888207bcba000d4b707977720d4870732028267b80183772433083819c88609320283773801c8760a95ab000682b7f80082a8000782b9f00082bae800d49808d4a707d48707320282171082181814090000000001000000d37909d48909987a2088aa01948a939a3202d4a708d49808988820d4a909979920d498083202647183793308408267880132026479140700000000717b484e330800403202957701887b01c8b909d4970b88bb01c8ab0bd8ab0ac8a808330a00503202956b00017bb7b0007bb9a800d497077bb8b800d4a808d478089888207bbaa000d4a707977720d487073202956b00017bb7507bb948d49707d4a809d479099899207bba40d4a707977720d497073202c88a09d8a90ada880a32027b68b8018d8980003307ff3308ff3202c88b0bd88b08c8a808d49808d4b709d48909d4b808989920978820d498083202d876078218109487821808948732027b6788017b6870013307ff3308ff8269b801320283773801c876089589000132024926b8014926b0014926a0014926a8013202d49b0bd48709d4b909989920d4b808978820d4980832028219821a087b697b6a087b67107b68189551c08210388215308216289511403202d49707d48b09d47909989920d48707977720d49707320264787b67a80183777b67b0018267b8013202491140491138491130140700000000717b484e9518307b1748330732027b68b001d4b80ad4c708d4a808988820d4ca0a97aa20d4a80832029517e08477e07b67b801647182679001817733083f32023307207b67b801330c4926b0014926a801492698013202826ce800d3c70bd8c707826ce000d8c909dbb7098267f00032028267b80181773308233202c867074927400749273807492730076479330720330800303202c8790bc8ab0bd39b0a7b6b9001d89b09daa70932029567dc821818d878078218109487821808948732029551a082105882155082164895116032029517e08477e07b67a80164718379330820320233073811c87608958900033202837738f9c8760a95ab00013202c867074927e0024927d8024927d00264793307203202c86707492700054927f8044927f00464793307203202c8b707c88a0ad88a0cc8c70782608001c8a000d8a00a320282b71882b82082b91082ba08d49808d4a707d487073202647183793308408267900132027b17107b1908d497077b1818d46808d47808988820d46707977720d48707320283883801c88609959a00053202849a40520a195109148d9a40cfa80ad09808d09707d4a707320032009597c0d0780733083200849a40520a195109148d9a40d0a70acf9707cf9808d4a808320032009598c0cf87083307320049922425494b2a252da9944c4949214225a952484992244992244992244992244992244992244992244992244992244992244992542529a524292949a84a494a922449922449922449922449922449922449922449929224294955494a9228492549559282922425294955559292a42495244544444a9224254952a1524a4992524a49524911115142519122458a142952a4489122458a14295294481111519224082161284d4a43224444442422221a11912442924422a2488428540d11414404914824228888201289840a219492a4a44444880891484484281211112222111122914492922489089124498424492449221111112222424444444842922449920ca550aa50950a55aa3422222245449088102244449412254620011148404020810412482011484020810412111191464444244904898814912411111111111185888812114248824844102a9112412449448888888810a51141221222224992244944440410111121482431224444842091c488101182444244841022222204894444001111894812d1482449125144444488081111111111091111114122228988888888484444442322229224a2888814111111111191122312918888888848242285888812114288602451a8448a44049124112122222242142911248988442211294444948810452611a44844104912114444444444118124898888684444449244141111212288442412894810454424499244444444444444149188888868442011480410810844444444444484882022222212894444021188489224111155311249229124492411111111511081248210221849142a114544042249228288912412892492241111932449121111111151101151228228328940141148121141c4888888888888828888121144914904a2884044444410312211894824128944444424021149124844444444440411111111111111818888888888442289888888460412814404229048242222424410111111218a46041291202292244992444444001111110412892242444410482422424410482444440821222208241249001189444444442312499244201191222222222222128948410422821092202222102a11450422222222888888881045141148121123222222a22022a2440451641281a2245549922411111111414444444414114892489288469224494411912422828888888888041191249088482222914844222222a28888404444924420118108241289888810114444444488a211814424888888244992888808202222824022118b08111141209188112122082412222284904482402291049048242222228a880824028988149124111111111151101151228210218944044225a288884024494410111111218a2822902422904824220511112522882212118828222210491211444444444411812409444444442312499244141191222212894422d28888484a44942492442249252211454444444444221191404422914844828888888888888888888822221029492011111111111144224924912492249148224912492449924449224924224904104924a21889249148922449922489882822a21189485422291249444424928888882888482249249144224a44444431922449228a884823922425224a922489888888882822221011118944221169440490441295884422224244101189442291a48808444492444484888888082222222222220a2222a244044914421244440442251a4911894892245545921211111141444444258a482449222222828888884812119140444412959224914822222222128944440aa2484420a29144924804a2a8922492442491249224492205221249122555814422499288248924926224924422499292445292282222888848924492121111118d88882489402280884044229188880811414492442291884820229124492222aa4622492492248924222222220a22224a4410229844a11245440422222282888888442289244944442222119148242222221188888808242212894424888888888888880844444444224924264992242222228a6244442449041211292249222222222222a22022224a44042142442651a8441411489224894892880822222222421451442049444422918848414444948808a2884ca212514420812489882022222222a2884092444444442302892844448a48244992883422495222224a92248992242922128844229188481111894422228d8888a44444444992241111111111118188888888888888424410111111218a46049288881011444444441249249124894810111149228928924a241149922422121111414424912489888888888808020820225194442222222222220a222289a2241191482422a220222280005249228a888804118d88248a92888888888824922022128944a420021141128510c12451a8248a082449924444914824828888a8a42411499244121191242282248a88481289444422454444204644444444442229499244041111118124228888884a94489224898808222222228948202222a25292241249444444224924220529928840a291449224025154491249229248124992249102914492444955209148922422492289a4188924914892a424494444441111414444922492948888884644442449a2484444880822222222221244444404928824221289442422128944241081449224a91a89249148922422462289249124524424814892401241c42222222212111111119148248a8844202222229044241289882022892491444a44444444442022129148a46a24924422499224222212118988444411910844244920892022222211894844444444444424221189888844202222229044241289481091449248222512444492244992444400111111414444024922224444048124111122828888000248250911112184888820902422028888482491244922111111111111110581205028a2222249554522915a1149242289489488442489a4449224094424111144444444244944104924892412894422892412914492482211914a89888822912022229224491211112222824024492412891411114444442222424410111111114544049224499288881011444444444411818c8888082202894422521011512282283289401411888888882022498a2492482249121111818888888888288888281141149944208a8808444444444424292222109188482492244922222222828844229188042222222288884820222222828888888888888888222202111111114924898824124922128888482412912022490249444410114144202222222222228a88080249444444444424222222222288480249a488a412914424499248242292882062442291482412292222828808208044251189442211252222228888049288888888888820221149229288491249924444848820222222228a880824492249222242441011111111450432222222888811111111511011512282283289405192a2288a244992882489082222222212489288202222222281481211042212894424101111114444241011111104128944221288888808028944221111111145440411111111119120222222904444041111440422924824124911114120898888442291884422124144249024222222222288082080445192882822222222828848a228892222222288082080445112a1888888882022221295444424128988202280401211914824224144242249441291888810114444444444111181482491241111212288888888882202191111114422220211894422a22022a2440451442202514420222222828888882492482249121111111111051111252288221211882222021111111111498a880822124992244944444444109188884844444444444104228228221181a22455499224119148249224222288888808442222222282882489888822222222228288888888888898242249129148109124812412914844a2081241a911112122828888888888221241249248928888101141444444444491202322222282888888442222051111512222882212118828229040444444041191482412454444440411914824121111115144444410111111111111914811111141444444444444229122222282884824128988041111111111111111111151444404111109241111111111114144249212111109222222922449922449922489480091a8a44a92248a24492a82228a8824291111912022491289aa9148128924499288888888888888828848441045641295882212414444444444444404912411111111114144229148444444442291888844101111411291482422414444444444444444440491449248221111111141442291484444444444444444440411111124111111111144124922894444440491489294888888884422111189202222822422222222828844225124128988481009222222228848444444444444444444041111112451444404912092242288888888888888888844222222228248922089888888882092481249a4244992880820a288082202082051942422424404111191549288081141440089a22421444400111189482411119148101111912449928888101111049188244992a48888202222465224914492449264922449442252442291484422922492824852224108491091084225a2489020492282482412218a68248888188944225210412482283289208a04099224228888481011119124499288082022222288884890246244888808222222a92411234244101140a2284908212249009148118944241149922492044944101111111111110441100411918824898a44229148928820222649124992489248240920492589082222221289442226892491241209828848124444229204119188208248229148249298089222892491442229218a22a994444a2211114144442211111111112445820822221289444444444410512491249248441111119124114152248820229248884892882092244892442449444444109120222249922449222222444404118d44a288442288888888888888282222228288888888a424924890441251a2244a9288888810428888888888884844441411111111514444444a92242549929424494a4992242241442449904424128988149148104992244992888800a22222822049c48810111104492246848820481222224208111141902422028888202228d1882082880491244992244912402422220892442c118908222222a924111122828800124549428888082022221109229224499224252222828888202212892412894444444444444444444444444404111109208054121111111111892891482449924422898888888808222222222222222222222222128988209244524944444444448a922291449224492222222211414444444444444444222282480248298988888888489114892492244912111111440411918824499288888844221109a22a8098884492482492482289482491482492882449922449942022124954121111498a8888089224489224924812492422222292242222226244101111114924914892242222222222228a888820222222482288888888888888448a88828888121144914904d1284955822411114424499144124924492222228888111111115110414410452611449120222222224911114144444410111111414444241229220a444494884014994410458288888888882222820892248844444444202222922422128988481011894422914422922449928824924412491211112122109148242281888888884892489244440011118868444402480089521224222222021147128952124422222222509428899224225124222212814804224488884812401249249104902492246ad22846442211918844442488224822021149122492248948202222222291442292249224111111408c4404028808204822112342442022411244848840001124911042449288884820224922499224114544001111818888041001248a92448c0811818848a2284944848840001189a22412424444001111484444922449244992489224492211892491881408024114098222911441221245229244924492244912914420224922922422104422524a4444149148202222222212492249121111408c440482241231224404221224918811212210400449248488248044442489888844442449a22449922448221011111111114110044110442489082449922489888888044924021189482412934492481291208888244144242249101189082248221289444444c4442022101111912489482412894444444404929224492491482412514420222222482202111151892249224944442022492489481091249522894424914444224912498114c9242a2992481289249124a91455924492441249224992245292482292248992aa24499248244912912491248946224924922489281289242222220291449248222589249188444444444444140802411409822291144122124522924492449220228940444444449244048248444a898888221291481211118988482492449224491224118888888888882008822008224922029124912492241149221224910844442212898c4412491291241209828848124444229204119188208a44229188442291888888980824254910492492120944101191a488084490442212111111118804222249924424918888888888880844021149122411111122104904111111111111454404119100228048142511111111118988888888404422519444a488a444241149922489241181889148241289448a8848104912499144120992888808218428222212118908940a092092949288149194882489489224222222101111111189444444440411119114492491244992922449a208149548202222914844912049120422a248458ca42589081469124992888800222210d100224882888888401189221111910844221022444444124924012489248946a3181189444422121111411441121188489220912449440211491224111111408c44048224123122440422122441448808041041120921222280888888042222222222a24890240902115154118988914824220522224a44208ac824822812444444442022222222818888888848248924494444001111886844248004108952124424914024912825918811914844020144244a49246244229188048a48148988884420128122444444440049249144124092489246a3181111111111111111114411241181888888a4922411094444440411111101c44844208848c4881011884810414488080410414442888888082402258d0422128944228a0491080211514445248808444444144924914892242222128948818888121188882293088a482449111111111145221111892022222288288aa24412492289084424892222229148444482884892942449522425021111119188888888404412894822894424486412411409922449a2241188888888888888888888882022492222222202912022222222a2404444890844914904512448444444442022491449249144922422128944a440444489084444914904512448444444444444111141444404111151442012914422924822115190c82482281244202249424492440422814892202249440422892022228a88888888880822220144a2221289442212312222222222109188a444241149922449922442888808219224228948442012884892208652a9508542a18820222222a2404444890824511491481051248840441289442449442022482412222121214544058a848484848484848484844412111121221049221211111111111111089590909090909048222222440422494422222222912422102a2121212121212121212121212121212121212121211111404414888808252202514426d18888028828103122948840886028894644049128103122948888888820120522224a444444441089021123428988888808225120624428118114c9244d944822454422918814814844221142484444484444a0489224494a9224a94090a0a1148d888824294992248924494a2490244992242222128944240a240920a94892a4a22449922491a44052a01448922449922449922480542422492009204912244992244952928888684444244911491249124992121148922449129188442222225051924492244992244992244912492491442291249208204a4462922449499248129144a44854444492a4924812499224492249922489888888281091884445529224492212892492484481888888888888888888082222229224494424494444229128491489442222a21111912445244924492492281181242249248988884422118902550124264992244992a424494924914892444412898a4444202249544424124944442489444444a4409224499224918888482429494444342212a9a424499224499224499224a9a42449922449922449202212058124920442044349342222525292244992244992244912499224491229d288a844244a44241091884892489224892822222222482249922412111111512049224992489224499248922449922449129100928a4822499244120920a948920a549a24224912492249922495121111812449a488886828220288281011121108110c2585c2523449924a140912144ad12495949424499224499294a424491048921208110c25d188884892922422228a042222828888002212082289081181204912492080020892848410922450824c92009204a24089684444a4244924222222824824128904221191444924121111114192248888884424029188888808aa2222922449922449922449922449d224499224491291244992449224091211110291248824a992242549444434222252921289444422884422914820128944229148444444044992244922914844228124492409222292244992244992244902485209491228a924498a88884644444a499224498944221111888848922449922491244992022182490a959254922449922449922449495292a424495292922422228a8800220a448444044204434934222292a4244992249124a948202922224992244924499224499224499224499224494a1211114d1240522089248110c150124d922429499224494a9224a5942428082449098408869268449248495244444444241049929488404444444444444404499220222222914844221089240124a98844a44844025592242931922449129148442222224892242922491491482422059214229844a15254912449922455a514895492241991489224499224a28808249244922491249220224992440291449248229144924822455229119525499224499292942409024952022182a1241a11114952924444449140444410111140440241922492409024892410409049084992400a94449324495249499224499224494a92244952922449412089248110c1505211051248292529492492484a2489241251249124924824128924924844124922292222010490a84a52952449124549aa922449a2484a2949499224498a48292529492492488a482925294992249222524a494a128924924a5295244912a5949294240a2080445592aa24499222221149121589442251442451544424515444440001a48a9254254992449424498a9254254992441425a92a4a529524491225294a52952449122549928822220144009128aa1245a2a82495a4449248224592a2482a252949248a925425499222924844129128221291a42491448a925495481249244a248924124522492412292291481249248a88442449524492aaa24aa21225499222a994a42445a2a8240124151191000248544954294992242a1289444a22929224494449922449929424922455922429894a4954a2a82449459200925449000124299544a928495511914812498a448a44444492920092a44a92a44a5400519224491411892491a4489224494a52445292244952522a2289225144444992a4529224494992a4a2889204905424499292284a8922a2482289a29488285192484a9252499292a81489225122a29488282549242549922a5192244952244a9224a9a49224492a2900"
        },
        "methodIdentifiers": {
          "addExpenseItem(uint256,string,uint256,string)": "d1528534",
          "batchPayItems(uint256,uint256[],uint256)": "7faedbef",
          "createExpenseRequest(string,address)": "114fe745",
          "getAllExpenseItems(uint256)": "0551e19f",
          "getCreatorExpenses(address)": "be522186",
          "getExpenseCounter()": "1e4a21f6",
          "getExpenseItem(uint256,uint256)": "ceecd1a6",
          "getExpenseRequest(uint256)": "59104836",
          "getExpensesReadyForReview(address)": "c2cfc2d5",
          "getUnpaidTotal(uint256)": "f7eb2096",
          "iAppPublicKey()": "ea34ffb1",
          "owner()": "8da5cb5b",
          "setReadyForReview(uint256)": "6646179a",
          "stableCoin()": "992642e5",
          "updateIAppPublicKey(address)": "2039c070",
          "updateStableCoin(address)": "e0baeb29"
        }
      },
      "hash": "63cb2dcf4013fd79848c5ab0dab5d45ddd0a655b58abf4f10709ae796635362f",
      "factoryDependencies": {}
    }
  }
}