{
  "contracts/MockUSDStableCoin.sol": {
    "MockUSDStableCoin": {
      "abi": [
        {
          "inputs": [],
          "stateMutability": "nonpayable",
          "type": "constructor"
        },
        {
          "anonymous": false,
          "inputs": [
            {
              "indexed": true,
              "internalType": "address",
              "name": "owner",
              "type": "address"
            },
            {
              "indexed": true,
              "internalType": "address",
              "name": "spender",
              "type": "address"
            },
            {
              "indexed": false,
              "internalType": "uint256",
              "name": "value",
              "type": "uint256"
            }
          ],
          "name": "Approval",
          "type": "event"
        },
        {
          "anonymous": false,
          "inputs": [
            {
              "indexed": true,
              "internalType": "address",
              "name": "from",
              "type": "address"
            },
            {
              "indexed": false,
              "internalType": "uint256",
              "name": "amount",
              "type": "uint256"
            }
          ],
          "name": "Burn",
          "type": "event"
        },
        {
          "anonymous": false,
          "inputs": [
            {
              "indexed": true,
              "internalType": "address",
              "name": "to",
              "type": "address"
            },
            {
              "indexed": false,
              "internalType": "uint256",
              "name": "amount",
              "type": "uint256"
            }
          ],
          "name": "Mint",
          "type": "event"
        },
        {
          "anonymous": false,
          "inputs": [
            {
              "indexed": true,
              "internalType": "address",
              "name": "from",
              "type": "address"
            },
            {
              "indexed": true,
              "internalType": "address",
              "name": "to",
              "type": "address"
            },
            {
              "indexed": false,
              "internalType": "uint256",
              "name": "value",
              "type": "uint256"
            }
          ],
          "name": "Transfer",
          "type": "event"
        },
        {
          "inputs": [
            {
              "internalType": "address",
              "name": "",
              "type": "address"
            },
            {
              "internalType": "address",
              "name": "",
              "type": "address"
            }
          ],
          "name": "allowance",
          "outputs": [
            {
              "internalType": "uint256",
              "name": "",
              "type": "uint256"
            }
          ],
          "stateMutability": "view",
          "type": "function"
        },
        {
          "inputs": [
            {
              "internalType": "uint256",
              "name": "amount",
              "type": "uint256"
            }
          ],
          "name": "amountInUSD",
          "outputs": [
            {
              "internalType": "string",
              "name": "",
              "type": "string"
            }
          ],
          "stateMutability": "view",
          "type": "function"
        },
        {
          "inputs": [
            {
              "internalType": "address",
              "name": "spender",
              "type": "address"
            },
            {
              "internalType": "uint256",
              "name": "amount",
              "type": "uint256"
            }
          ],
          "name": "approve",
          "outputs": [
            {
              "internalType": "bool",
              "name": "",
              "type": "bool"
            }
          ],
          "stateMutability": "nonpayable",
          "type": "function"
        },
        {
          "inputs": [
            {
              "internalType": "address",
              "name": "",
              "type": "address"
            }
          ],
          "name": "balanceOf",
          "outputs": [
            {
              "internalType": "uint256",
              "name": "",
              "type": "uint256"
            }
          ],
          "stateMutability": "view",
          "type": "function"
        },
        {
          "inputs": [
            {
              "internalType": "address",
              "name": "account",
              "type": "address"
            }
          ],
          "name": "balanceOfInUSD",
          "outputs": [
            {
              "internalType": "string",
              "name": "",
              "type": "string"
            }
          ],
          "stateMutability": "view",
          "type": "function"
        },
        {
          "inputs": [
            {
              "internalType": "address[]",
              "name": "recipients",
              "type": "address[]"
            },
            {
              "internalType": "uint256[]",
              "name": "amounts",
              "type": "uint256[]"
            }
          ],
          "name": "batchMint",
          "outputs": [],
          "stateMutability": "nonpayable",
          "type": "function"
        },
        {
          "inputs": [
            {
              "internalType": "uint256",
              "name": "amount",
              "type": "uint256"
            }
          ],
          "name": "burn",
          "outputs": [],
          "stateMutability": "nonpayable",
          "type": "function"
        },
        {
          "inputs": [],
          "name": "decimals",
          "outputs": [
            {
              "internalType": "uint8",
              "name": "",
              "type": "uint8"
            }
          ],
          "stateMutability": "view",
          "type": "function"
        },
        {
          "inputs": [
            {
              "internalType": "address",
              "name": "spender",
              "type": "address"
            },
            {
              "internalType": "uint256",
              "name": "subtractedValue",
              "type": "uint256"
            }
          ],
          "name": "decreaseAllowance",
          "outputs": [
            {
              "internalType": "bool",
              "name": "",
              "type": "bool"
            }
          ],
          "stateMutability": "nonpayable",
          "type": "function"
        },
        {
          "inputs": [
            {
              "internalType": "uint256",
              "name": "amount",
              "type": "uint256"
            }
          ],
          "name": "faucet",
          "outputs": [],
          "stateMutability": "nonpayable",
          "type": "function"
        },
        {
          "inputs": [
            {
              "internalType": "address",
              "name": "spender",
              "type": "address"
            },
            {
              "internalType": "uint256",
              "name": "addedValue",
              "type": "uint256"
            }
          ],
          "name": "increaseAllowance",
          "outputs": [
            {
              "internalType": "bool",
              "name": "",
              "type": "bool"
            }
          ],
          "stateMutability": "nonpayable",
          "type": "function"
        },
        {
          "inputs": [
            {
              "internalType": "address",
              "name": "to",
              "type": "address"
            },
            {
              "internalType": "uint256",
              "name": "amount",
              "type": "uint256"
            }
          ],
          "name": "mint",
          "outputs": [],
          "stateMutability": "nonpayable",
          "type": "function"
        },
        {
          "inputs": [],
          "name": "name",
          "outputs": [
            {
              "internalType": "string",
              "name": "",
              "type": "string"
            }
          ],
          "stateMutability": "view",
          "type": "function"
        },
        {
          "inputs": [],
          "name": "owner",
          "outputs": [
            {
              "internalType": "address",
              "name": "",
              "type": "address"
            }
          ],
          "stateMutability": "view",
          "type": "function"
        },
        {
          "inputs": [],
          "name": "symbol",
          "outputs": [
            {
              "internalType": "string",
              "name": "",
              "type": "string"
            }
          ],
          "stateMutability": "view",
          "type": "function"
        },
        {
          "inputs": [],
          "name": "totalSupply",
          "outputs": [
            {
              "internalType": "uint256",
              "name": "",
              "type": "uint256"
            }
          ],
          "stateMutability": "view",
          "type": "function"
        },
        {
          "inputs": [
            {
              "internalType": "address",
              "name": "to",
              "type": "address"
            },
            {
              "internalType": "uint256",
              "name": "amount",
              "type": "uint256"
            }
          ],
          "name": "transfer",
          "outputs": [
            {
              "internalType": "bool",
              "name": "",
              "type": "bool"
            }
          ],
          "stateMutability": "nonpayable",
          "type": "function"
        },
        {
          "inputs": [
            {
              "internalType": "address",
              "name": "from",
              "type": "address"
            },
            {
              "internalType": "address",
              "name": "to",
              "type": "address"
            },
            {
              "internalType": "uint256",
              "name": "amount",
              "type": "uint256"
            }
          ],
          "name": "transferFrom",
          "outputs": [
            {
              "internalType": "bool",
              "name": "",
              "type": "bool"
            }
          ],
          "stateMutability": "nonpayable",
          "type": "function"
        },
        {
          "inputs": [
            {
              "internalType": "address",
              "name": "newOwner",
              "type": "address"
            }
          ],
          "name": "transferOwnership",
          "outputs": [],
          "stateMutability": "nonpayable",
          "type": "function"
        }
      ],
      "evm": {
        "assembly": "// RO data = 0/0 bytes\n// RW data = 408/66000 bytes\n// Stack size = 32768 bytes\n\n// Instructions = 13003\n// Code size = 45900 bytes\n\n      : @0 (gas: 14)\n     0: sp = sp + 0xffffffffffffff80\n     3: u64 [sp + 0x78] = ra\n     6: u64 [sp + 0x70] = s0\n     9: u64 [sp + 0x68] = s1\n    12: t0 = u64 [a2 + 0x10]\n    15: s1 = u64 [a2 + 0x18]\n    18: a3 = u64 [a2 + 0x8]\n    21: a4 = u64 [a2]\n    23: u64 [sp + 0x50] = a3\n    26: a2 = a3 | s1\n    29: a3 = a4 | t0\n    32: a2 = a2 | a3\n    35: u64 [sp + 0x8] = a0\n    38: jump @4 if a2 == 0\n      : @1 (gas: 11)\n    42: a0 = u64 [a1 + 0x18]\n    45: u64 [sp + 0x60] = a0\n    48: a2 = u64 [a1 + 0x10]\n    51: s0 = u64 [a1 + 0x8]\n    54: t2 = u64 [a1]\n    56: ra = 0\n    58: a0 = a4\n    60: t1 = 0\n    62: a3 = 0\n    64: u64 [sp + 88] = 0x1\n    68: fallthrough\n      : @2 (gas: 121)\n    69: u64 [sp + 0x10] = s0\n    72: u64 [sp + 0x38] = t0\n    75: u64 [sp + 0x48] = s1\n    78: u64 [sp + 0x40] = a0\n    81: a0 = a0 & 0x1\n    84: a4 = -a0\n    86: a1 = a2\n    88: u64 [sp + 0x20] = a2\n    91: a2 = 0x1\n    94: a2 = t2 if a0 != 0\n    97: a0 = a3 * a2\n   100: a3 = t1 mulhu a2\n   103: a3 = a3 + a0\n   106: a0 = a4 & s0\n   109: s1 = t1 * a0\n   112: a3 = a3 + s1\n   115: s0 = u64 [sp + 0x60]\n   118: s0 = s0 & a4\n   121: a4 = a4 & a1\n   124: a1 = u64 [sp + 0x58]\n   127: s1 = a1 * s0\n   130: t0 = a1 mulhu a4\n   133: t0 = t0 + s1\n   136: s1 = ra * a4\n   139: t0 = t0 + s1\n   142: t0 = t0 + a3\n   145: a3 = t1 * a2\n   148: t1 = a1 * a4\n   151: t1 = t1 + a3\n   154: a4 = t1 <u a3\n   157: s0 = t0 + a4\n   160: a3 = a2 mulhu a1\n   163: s1 = a0 * a1\n   166: a3 = a3 + s1\n   169: t0 = a2 * ra\n   172: a4 = t0 + a3\n   175: u64 [sp + 0x30] = a4\n   178: a5 = a4 <u t0\n   181: a4 = a2 mulhu ra\n   184: a4 = a4 + a5\n   187: a3 = a3 <u s1\n   190: a5 = a0 mulhu a1\n   193: a3 = a3 + a5\n   196: a5 = a0 * ra\n   199: a0 = a0 mulhu ra\n   202: a4 = a4 + a3\n   205: a3 = a4 <u a3\n   208: a0 = a0 + a3\n   211: a4 = a4 + a5\n   214: a3 = a4 <u a5\n   217: a0 = a0 + a3\n   220: a0 = a0 + s0\n   223: t1 = t1 + a4\n   226: a3 = t1 <u a4\n   229: a0 = a0 + a3\n   232: u64 [sp + 0x28] = a0\n   235: a1 = a2 * a1\n   238: u64 [sp + 0x58] = a1\n   241: a1 = u64 [sp + 0x10]\n   244: a2 = a1 * t2\n   247: a0 = t2 mulhu t2\n   250: a0 = a0 + a2\n   253: a3 = a0 <u a2\n   256: a4 = a1 mulhu t2\n   259: a3 = a3 + a4\n   262: a0 = a0 + a2\n   265: u64 [sp + 0x18] = a0\n   268: a2 = a0 <u a2\n   271: a2 = a2 + a4\n   274: a2 = a2 + a3\n   277: a3 = a2 <u a3\n   280: a4 = a1 mulhu a1\n   283: a3 = a3 + a4\n   286: a4 = a1 * a1\n   289: a5 = a4 + a2\n   292: a2 = a5 <u a4\n   295: a3 = a3 + a2\n   298: a0 = u64 [sp + 0x20]\n   301: s0 = a1 * a0\n   304: a1 = u64 [sp + 0x60]\n   307: a4 = t2 * a1\n   310: s1 = t2 mulhu a0\n   313: a2 = s1 + s0\n   316: a2 = a2 + a4\n   319: a4 = a4 + s1\n   322: a4 = a4 + s0\n   325: s1 = t2 * a0\n   328: a2 = a2 + a4\n   331: a4 = s1 + s1\n   334: s1 = a4 <u s1\n   337: s1 = s1 + a2\n   340: a2 = a5 + a4\n   343: a4 = a2 <u a5\n   346: a3 = a3 + s1\n   349: s1 = u64 [sp + 0x48]\n   352: a3 = a3 + a4\n   355: u64 [sp + 0x60] = a3\n   358: a5 = u64 [sp + 0x50]\n   361: a3 = a5 >> 0x1\n   364: a0 = u64 [sp + 0x38]\n   367: a4 = a0 << 0x3f\n   370: a5 = a5 << 0x3f\n   373: a3 = a3 | a4\n   376: a4 = u64 [sp + 0x40]\n   379: a4 = a4 >> 0x1\n   382: s0 = a4 | a5\n   385: a4 = a0 >> 0x1\n   388: a5 = s1 << 0x3f\n   391: t0 = a4 | a5\n   394: s1 = s1 >> 0x1\n   397: a0 = s0\n   399: a4 = s0 | t0\n   402: a5 = a3 | s1\n   405: a4 = a4 | a5\n   408: t2 = t2 * t2\n   411: ra = u64 [sp + 0x30]\n   414: a5 = ra\n   416: u64 [sp + 0x50] = a3\n   419: a3 = u64 [sp + 0x28]\n   422: s0 = u64 [sp + 0x18]\n   425: jump @2 if a4 != 0\n      : @3 (gas: 1)\n   429: jump @5\n      : @4 (gas: 5)\n   431: a5 = 0\n   433: t1 = 0\n   435: a3 = 0\n   437: u64 [sp + 88] = 0x1\n   441: fallthrough\n      : @5 (gas: 11)\n   442: a0 = u64 [sp + 0x8]\n   445: a1 = u64 [sp + 0x58]\n   448: u64 [a0] = a1\n   450: u64 [a0 + 0x8] = a5\n   453: u64 [a0 + 0x10] = t1\n   456: u64 [a0 + 0x18] = a3\n   459: ra = u64 [sp + 0x78]\n   462: s0 = u64 [sp + 0x70]\n   465: s1 = u64 [sp + 0x68]\n   468: sp = sp + 0x80\n   472: ret\n      : @6 (gas: 1)\n   474: jump @20 if a0 == a1\n      : @7 (gas: 9)\n   477: a3 = a1 << 0x20\n   480: a3 = a3 >> 0x20\n   483: a4 = a0 << 0x20\n   486: a4 = a4 >> 0x20\n   489: a4 = a4 + a2\n   492: a3 = a3 - a4\n   495: a4 = a2 << 0x1\n   498: a4 = -a4\n   500: jump @13 if a4 >=u a3\n      : @8 (gas: 1)\n   503: jump @17 if a0 >=u a1\n      : @9 (gas: 1)\n   506: jump @20 if a2 == 0\n      : @10 (gas: 3)\n   509: a2 = a2 + a0\n   512: a3 = a0\n   514: fallthrough\n      : @11 (gas: 6)\n   515: a4 = u8 [a1]\n   517: a1 = a1 + 0x1\n   520: a5 = a3 + 0x1\n   523: u8 [a3] = a4\n   525: a3 = a5\n   527: jump @11 if a5 != a2\n      : @12 (gas: 1)\n   530: jump @20\n      : @13 (gas: 1)\n   532: jump @20 if a2 == 0\n      : @14 (gas: 3)\n   535: a2 = a2 + a0\n   538: a3 = a0\n   540: fallthrough\n      : @15 (gas: 6)\n   541: a4 = u8 [a1]\n   543: a1 = a1 + 0x1\n   546: a5 = a3 + 0x1\n   549: u8 [a3] = a4\n   551: a3 = a5\n   553: jump @15 if a5 != a2\n      : @16 (gas: 1)\n   556: jump @20\n      : @17 (gas: 1)\n   558: jump @20 if a2 == 0\n      : @18 (gas: 2)\n   561: i32 a3 = a2 + 0xffffffffffffffff\n   564: fallthrough\n      : @19 (gas: 7)\n   565: a4 = a1 + a3\n   568: a4 = u8 [a4]\n   570: a2 = a2 + 0xffffffffffffffff\n   573: a5 = a0 + a3\n   576: u8 [a5] = a4\n   578: i32 a3 = a3 + 0xffffffffffffffff\n   581: jump @19 if a2 != 0\n      : @20 (gas: 1)\n   584: ret\n      : @21 (gas: 2)\n   586: a1 = i32 [0x201a0]\n   591: jump @105 if a1 == 0\n      : @22 (gas: 4)\n   595: a0 = 0x301d0\n   600: i32 a0 = a0 + 0\n   602: ecalli 8 // 'set_immutable_data'\n   604: jump @105\n      : @23 (gas: 8)\n   607: sp = sp + 0xfffffffffffffff0\n   610: u64 [sp + 0x8] = ra\n   613: u64 [sp] = s0\n   615: a2 = a1\n   617: s0 = a0\n   619: a1 = 0x20\n   622: a0 = a2\n   624: ra = 2, jump @38\n      : @24 [@dyn 1] (gas: 100)\n   629: a1 = u8 [a0 + 0x1]\n   632: a2 = u8 [a0]\n   634: a3 = u8 [a0 + 0x2]\n   637: a4 = u8 [a0 + 0x3]\n   640: a1 = a1 << 0x8\n   643: a1 = a1 | a2\n   646: a3 = a3 << 0x10\n   649: a4 = a4 << 0x18\n   652: a3 = a3 | a4\n   655: a1 = a1 | a3\n   658: a2 = u8 [a0 + 0x5]\n   661: a3 = u8 [a0 + 0x4]\n   664: a4 = u8 [a0 + 0x6]\n   667: a5 = u8 [a0 + 0x7]\n   670: a2 = a2 << 0x8\n   673: a2 = a2 | a3\n   676: a4 = a4 << 0x10\n   679: a5 = a5 << 0x18\n   682: a4 = a4 | a5\n   685: a2 = a2 | a4\n   688: a2 = a2 << 0x20\n   691: t0 = a2 | a1\n   694: a2 = u8 [a0 + 0x9]\n   697: a3 = u8 [a0 + 0x8]\n   700: a4 = u8 [a0 + 0xa]\n   703: a5 = u8 [a0 + 0xb]\n   706: a2 = a2 << 0x8\n   709: a2 = a2 | a3\n   712: a4 = a4 << 0x10\n   715: a5 = a5 << 0x18\n   718: a4 = a4 | a5\n   721: a2 = a2 | a4\n   724: a3 = u8 [a0 + 0xd]\n   727: a4 = u8 [a0 + 0xc]\n   730: a5 = u8 [a0 + 0xe]\n   733: a1 = u8 [a0 + 0xf]\n   736: a3 = a3 << 0x8\n   739: a3 = a3 | a4\n   742: a5 = a5 << 0x10\n   745: a1 = a1 << 0x18\n   748: a1 = a1 | a5\n   751: a1 = a1 | a3\n   754: a1 = a1 << 0x20\n   757: t1 = a1 | a2\n   760: a1 = u8 [a0 + 0x11]\n   763: a3 = u8 [a0 + 0x10]\n   766: a4 = u8 [a0 + 0x12]\n   769: a5 = u8 [a0 + 0x13]\n   772: a1 = a1 << 0x8\n   775: a1 = a1 | a3\n   778: a4 = a4 << 0x10\n   781: a5 = a5 << 0x18\n   784: a4 = a4 | a5\n   787: a1 = a1 | a4\n   790: a3 = u8 [a0 + 0x15]\n   793: a4 = u8 [a0 + 0x14]\n   796: a5 = u8 [a0 + 0x16]\n   799: a2 = u8 [a0 + 0x17]\n   802: a3 = a3 << 0x8\n   805: a3 = a3 | a4\n   808: a5 = a5 << 0x10\n   811: a2 = a2 << 0x18\n   814: a2 = a2 | a5\n   817: a2 = a2 | a3\n   820: a2 = a2 << 0x20\n   823: a3 = a2 | a1\n   826: a1 = u8 [a0 + 0x19]\n   829: a2 = u8 [a0 + 0x18]\n   832: a4 = u8 [a0 + 0x1a]\n   835: a5 = u8 [a0 + 0x1b]\n   838: a1 = a1 << 0x8\n   841: a1 = a1 | a2\n   844: a4 = a4 << 0x10\n   847: a5 = a5 << 0x18\n   850: a4 = a4 | a5\n   853: a1 = a1 | a4\n   856: a2 = u8 [a0 + 0x1d]\n   859: a4 = u8 [a0 + 0x1c]\n   862: a5 = u8 [a0 + 0x1e]\n   865: a0 = u8 [a0 + 0x1f]\n   868: a2 = a2 << 0x8\n   871: a2 = a2 | a4\n   874: a5 = a5 << 0x10\n   877: a0 = a0 << 0x18\n   880: a0 = a0 | a5\n   883: a0 = a0 | a2\n   886: a0 = a0 << 0x20\n   889: a0 = a0 | a1\n   892: a0 = reverse a0\n   894: a1 = reverse a3\n   896: a2 = reverse t1\n   898: a3 = reverse t0\n   900: u64 [s0 + 0x18] = a3\n   903: u64 [s0 + 0x10] = a2\n   906: u64 [s0 + 0x8] = a1\n   909: u64 [s0] = a0\n   911: ra = u64 [sp + 0x8]\n   914: s0 = u64 [sp]\n   916: sp = sp + 0x10\n   919: ret\n      : @25 (gas: 12)\n   921: sp = sp + 0xffffffffffffffd8\n   924: u64 [sp + 0x20] = ra\n   927: u64 [sp + 0x18] = s0\n   930: u64 [sp + 0x10] = s1\n   933: a2 = u64 [a1]\n   935: u64 [sp + 0x8] = a2\n   938: a2 = u64 [a1 + 0x8]\n   941: u64 [sp] = a2\n   943: s0 = u64 [a1 + 0x10]\n   946: s1 = u64 [a1 + 0x18]\n   949: a1 = 0x20\n   952: ra = 4, jump @38\n      : @26 [@dyn 2] (gas: 71)\n   957: a1 = reverse s1\n   959: a2 = reverse s0\n   961: a3 = u64 [sp]\n   963: a3 = reverse a3\n   965: a4 = u64 [sp + 0x8]\n   968: a4 = reverse a4\n   970: u8 [a0 + 0x18] = a4\n   973: u8 [a0 + 0x10] = a3\n   976: u8 [a0 + 0x8] = a2\n   979: u8 [a0] = a1\n   981: a5 = a4 >> 0x38\n   984: u8 [a0 + 0x1f] = a5\n   987: a5 = a4 >> 0x30\n   990: u8 [a0 + 0x1e] = a5\n   993: a5 = a4 >> 0x28\n   996: u8 [a0 + 0x1d] = a5\n   999: a5 = a4 >> 0x20\n  1002: u8 [a0 + 0x1c] = a5\n  1005: a5 = a4 >> 0x18\n  1008: u8 [a0 + 0x1b] = a5\n  1011: a5 = a4 >> 0x10\n  1014: u8 [a0 + 0x1a] = a5\n  1017: a4 = a4 >> 0x8\n  1020: u8 [a0 + 0x19] = a4\n  1023: a4 = a3 >> 0x38\n  1026: u8 [a0 + 0x17] = a4\n  1029: a4 = a3 >> 0x30\n  1032: u8 [a0 + 0x16] = a4\n  1035: a4 = a3 >> 0x28\n  1038: u8 [a0 + 0x15] = a4\n  1041: a4 = a3 >> 0x20\n  1044: u8 [a0 + 0x14] = a4\n  1047: a4 = a3 >> 0x18\n  1050: u8 [a0 + 0x13] = a4\n  1053: a4 = a3 >> 0x10\n  1056: u8 [a0 + 0x12] = a4\n  1059: a3 = a3 >> 0x8\n  1062: u8 [a0 + 0x11] = a3\n  1065: a3 = a2 >> 0x38\n  1068: u8 [a0 + 0xf] = a3\n  1071: a3 = a2 >> 0x30\n  1074: u8 [a0 + 0xe] = a3\n  1077: a3 = a2 >> 0x28\n  1080: u8 [a0 + 0xd] = a3\n  1083: a3 = a2 >> 0x20\n  1086: u8 [a0 + 0xc] = a3\n  1089: a3 = a2 >> 0x18\n  1092: u8 [a0 + 0xb] = a3\n  1095: a3 = a2 >> 0x10\n  1098: u8 [a0 + 0xa] = a3\n  1101: a2 = a2 >> 0x8\n  1104: u8 [a0 + 0x9] = a2\n  1107: a2 = a1 >> 0x38\n  1110: u8 [a0 + 0x7] = a2\n  1113: a2 = a1 >> 0x30\n  1116: u8 [a0 + 0x6] = a2\n  1119: a2 = a1 >> 0x28\n  1122: u8 [a0 + 0x5] = a2\n  1125: a2 = a1 >> 0x20\n  1128: u8 [a0 + 0x4] = a2\n  1131: a2 = a1 >> 0x18\n  1134: u8 [a0 + 0x3] = a2\n  1137: a2 = a1 >> 0x10\n  1140: u8 [a0 + 0x2] = a2\n  1143: a1 = a1 >> 0x8\n  1146: u8 [a0 + 0x1] = a1\n  1149: ra = u64 [sp + 0x20]\n  1152: s0 = u64 [sp + 0x18]\n  1155: s1 = u64 [sp + 0x10]\n  1158: sp = sp + 0x28\n  1161: ret\n      : @27 (gas: 32)\n  1163: sp = sp + 0xffffffffffffffa0\n  1166: u64 [sp + 0x58] = ra\n  1169: u64 [sp + 0x50] = s0\n  1172: u64 [sp + 0x48] = s1\n  1175: s0 = sp + 0x60\n  1178: sp = sp & 0xffffffffffffffe0\n  1181: s1 = a0\n  1183: a0 = u64 [a1 + 0x18]\n  1186: a2 = u64 [a1 + 0x10]\n  1189: a3 = u64 [a1 + 0x8]\n  1192: a1 = u64 [a1]\n  1194: a0 = reverse a0\n  1196: a2 = reverse a2\n  1198: a3 = reverse a3\n  1200: a1 = reverse a1\n  1202: u64 [sp + 0x18] = a1\n  1205: u64 [sp + 0x10] = a3\n  1208: u64 [sp + 0x8] = a2\n  1211: u64 [sp] = a0\n  1213: u64 [sp + 56] = 0\n  1216: u64 [sp + 48] = 0\n  1219: u64 [sp + 40] = 0\n  1222: u64 [sp + 32] = 0\n  1225: u32 [sp + 64] = 0x20\n  1229: i32 a1 = sp + 0\n  1231: i32 a3 = sp + 0x20\n  1234: i32 a4 = sp + 0x40\n  1237: a2 = 0xffffffffffffffff\n  1240: a0 = 0\n  1242: ra = 0x6\n  1245: ecalli 5 // 'get_storage'\n  1247: fallthrough\n      : @28 [@dyn 3] (gas: 6)\n  1248: a0 = u64 [sp + 0x38]\n  1251: a1 = u64 [sp + 0x30]\n  1254: a2 = u64 [sp + 0x28]\n  1257: a3 = u64 [sp + 0x20]\n  1260: a0 = reverse a0\n  1262: t0 = 8, jump @1558\n      : @29 [@dyn 4] (gas: 5)\n  1268: u64 [s1 + 0x18] = a3\n  1271: u64 [s1 + 0x10] = a2\n  1274: u64 [s1 + 0x8] = a1\n  1277: u64 [s1] = a0\n  1279: t0 = 10, jump @1572\n      : @30 [@dyn 5] (gas: 1)\n  1285: ret\n      : @31 (gas: 40)\n  1287: sp = sp + 0xffffffffffffffa0\n  1290: u64 [sp + 0x58] = ra\n  1293: u64 [sp + 0x50] = s0\n  1296: s0 = sp + 0x60\n  1299: sp = sp & 0xffffffffffffffe0\n  1302: t0 = u64 [a0]\n  1304: a3 = u64 [a0 + 0x8]\n  1307: a4 = u64 [a0 + 0x10]\n  1310: a0 = u64 [a0 + 0x18]\n  1313: t1 = u64 [a1]\n  1315: a2 = u64 [a1 + 0x8]\n  1318: a5 = u64 [a1 + 0x10]\n  1321: a1 = u64 [a1 + 0x18]\n  1324: t2 = reverse a0\n  1326: a4 = reverse a4\n  1328: a3 = reverse a3\n  1330: a0 = reverse t0\n  1332: t0 = reverse a1\n  1334: a5 = reverse a5\n  1336: a2 = reverse a2\n  1338: a1 = reverse t1\n  1340: u64 [sp + 0x18] = a0\n  1343: u64 [sp + 0x10] = a3\n  1346: u64 [sp + 0x8] = a4\n  1349: u64 [sp] = t2\n  1351: u64 [sp + 0x38] = a1\n  1354: u64 [sp + 0x30] = a2\n  1357: u64 [sp + 0x28] = a5\n  1360: u64 [sp + 0x20] = t0\n  1363: i32 a1 = sp + 0\n  1365: i32 a3 = sp + 0x20\n  1368: a2 = 0xffffffffffffffff\n  1371: a4 = 0x20\n  1374: a0 = 0\n  1376: ecalli 9 // 'set_storage'\n  1378: sp = s0 + 0xffffffffffffffa0\n  1381: ra = u64 [sp + 0x58]\n  1384: s0 = u64 [sp + 0x50]\n  1387: sp = sp + 0x60\n  1390: ret\n      : @32 (gas: 24)\n  1392: sp = sp + 0xffffffffffffff60\n  1396: u64 [sp + 0x98] = ra\n  1400: u64 [sp + 0x90] = s0\n  1404: u64 [sp + 0x88] = s1\n  1408: s0 = sp + 0xa0\n  1412: sp = sp & 0xffffffffffffffe0\n  1415: a4 = u64 [a3]\n  1417: u64 [sp + 0x38] = a4\n  1420: a4 = u64 [a3 + 0x8]\n  1423: u64 [sp + 0x30] = a4\n  1426: a4 = u64 [a3 + 0x10]\n  1429: u64 [sp + 0x28] = a4\n  1432: a3 = u64 [a3 + 0x18]\n  1435: u64 [sp + 0x20] = a3\n  1438: a3 = u64 [a2]\n  1440: u64 [sp + 0x18] = a3\n  1443: a3 = u64 [a2 + 0x8]\n  1446: u64 [sp + 0x10] = a3\n  1449: a3 = u64 [a2 + 0x10]\n  1452: u64 [sp + 0x8] = a3\n  1455: a2 = u64 [a2 + 0x18]\n  1458: u64 [sp] = a2\n  1460: s1 = a1\n  1462: ra = 12, jump @38\n      : @33 [@dyn 6] (gas: 35)\n  1467: a1 = u64 [sp]\n  1469: a1 = reverse a1\n  1471: a2 = u64 [sp + 0x8]\n  1474: a2 = reverse a2\n  1476: a3 = u64 [sp + 0x10]\n  1479: a3 = reverse a3\n  1481: a4 = u64 [sp + 0x18]\n  1484: a4 = reverse a4\n  1486: u64 [sp + 0x58] = a4\n  1489: u64 [sp + 0x50] = a3\n  1492: u64 [sp + 0x48] = a2\n  1495: u64 [sp + 0x40] = a1\n  1498: a1 = u64 [sp + 0x20]\n  1501: a1 = reverse a1\n  1503: a2 = u64 [sp + 0x28]\n  1506: a2 = reverse a2\n  1508: a3 = u64 [sp + 0x30]\n  1511: a3 = reverse a3\n  1513: a4 = u64 [sp + 0x38]\n  1516: a4 = reverse a4\n  1518: u64 [sp + 0x78] = a4\n  1521: u64 [sp + 0x70] = a3\n  1524: u64 [sp + 0x68] = a2\n  1527: u64 [sp + 0x60] = a1\n  1530: i32 a2 = a0 + 0\n  1532: i32 a3 = s1 + 0\n  1534: i32 a0 = sp + 0x40\n  1537: a1 = 0x2\n  1540: ecalli 4 // 'deposit_event'\n  1542: sp = s0 + 0xffffffffffffff60\n  1546: ra = u64 [sp + 0x98]\n  1550: s0 = u64 [sp + 0x90]\n  1554: s1 = u64 [sp + 0x88]\n  1558: sp = sp + 0xa0\n  1562: ret\n      : @34 (gas: 33)\n  1564: sp = sp + 0xffffffffffffff20\n  1568: u64 [sp + 0xd8] = ra\n  1572: u64 [sp + 0xd0] = s0\n  1576: u64 [sp + 0xc8] = s1\n  1580: s0 = sp + 0xe0\n  1584: sp = sp & 0xffffffffffffffe0\n  1587: a5 = u64 [a4]\n  1589: u64 [sp + 0x40] = a5\n  1592: a5 = u64 [a4 + 0x8]\n  1595: u64 [sp + 0x48] = a5\n  1598: a5 = u64 [a4 + 0x10]\n  1601: u64 [sp + 0x50] = a5\n  1604: a4 = u64 [a4 + 0x18]\n  1607: u64 [sp + 0x58] = a4\n  1610: t0 = 0xe\n  1613: a4 = u64 [a3]\n  1615: u64 [sp + 0x18] = a4\n  1618: a4 = u64 [a3 + 0x8]\n  1621: u64 [sp + 0x20] = a4\n  1624: a4 = u64 [a3 + 0x10]\n  1627: u64 [sp + 0x28] = a4\n  1630: a3 = u64 [a3 + 0x18]\n  1633: u64 [sp + 0x30] = a3\n  1636: s1 = u64 [a2]\n  1638: a3 = u64 [a2 + 0x8]\n  1641: u64 [sp] = a3\n  1643: a3 = u64 [a2 + 0x10]\n  1646: u64 [sp + 0x8] = a3\n  1649: a2 = u64 [a2 + 0x18]\n  1652: u64 [sp + 0x10] = a2\n  1655: u64 [sp + 56] = 0x20\n  1659: ra = 0x10\n  1662: jump @38\n      : @35 [@dyn 7] (gas: 2)\n  1665: u64 [sp + 0x38] = a1\n  1668: ra = 16, jump @38\n      : @36 [@dyn 8] (gas: 41)\n  1672: a1 = reverse s1\n  1674: u64 [sp + 0x78] = a1\n  1677: a1 = u64 [sp]\n  1679: a1 = reverse a1\n  1681: u64 [sp + 0x70] = a1\n  1684: a1 = u64 [sp + 0x8]\n  1687: a1 = reverse a1\n  1689: u64 [sp + 0x68] = a1\n  1692: a1 = u64 [sp + 0x10]\n  1695: a1 = reverse a1\n  1697: u64 [sp + 0x60] = a1\n  1700: a1 = u64 [sp + 0x18]\n  1703: a1 = reverse a1\n  1705: u64 [sp + 0x98] = a1\n  1709: a1 = u64 [sp + 0x20]\n  1712: a1 = reverse a1\n  1714: u64 [sp + 0x90] = a1\n  1718: a1 = u64 [sp + 0x28]\n  1721: a1 = reverse a1\n  1723: u64 [sp + 0x88] = a1\n  1727: a1 = u64 [sp + 0x30]\n  1730: a1 = reverse a1\n  1732: u64 [sp + 0x80] = a1\n  1736: a1 = u64 [sp + 0x40]\n  1739: a1 = reverse a1\n  1741: u64 [sp + 0xb8] = a1\n  1745: a1 = u64 [sp + 0x48]\n  1748: a1 = reverse a1\n  1750: u64 [sp + 0xb0] = a1\n  1754: a1 = u64 [sp + 0x50]\n  1757: a1 = reverse a1\n  1759: u64 [sp + 0xa8] = a1\n  1763: a1 = u64 [sp + 0x58]\n  1766: a1 = reverse a1\n  1768: u64 [sp + 0xa0] = a1\n  1772: i32 a2 = a0 + 0\n  1774: a3 = i32 [sp + 0x38]\n  1777: i32 a0 = sp + 0x60\n  1780: a1 = 0x3\n  1783: ecalli 4 // 'deposit_event'\n  1785: t0 = 18, jump @1578\n      : @37 [@dyn 9] (gas: 1)\n  1791: ret\n      : @38 (gas: 2)\n  1793: i32 a2 = a0 >> 0x10\n  1796: jump @43 if a2 != 0\n      : @39 (gas: 4)\n  1799: a1 = a1 + a0\n  1802: i32 a1 = a1 + 0x1f\n  1805: a1 = a1 & 0xffffffffffffffe0\n  1808: jump @43 if a1 >u 65536\n      : @40 (gas: 3)\n  1814: a2 = 0x2019c\n  1819: a3 = i32 [0x2019c]\n  1824: jump @42 if a3 >=u a1\n      : @41 (gas: 2)\n  1827: u32 [0x2019c] = a1\n  1832: fallthrough\n      : @42 (gas: 4)\n  1833: a1 = 0x201b0\n  1838: i32 a0 = a0 + 0\n  1840: a0 = a0 + a1\n  1843: ret\n      : @43 (gas: 1)\n  1845: trap\n      : @44 (gas: 6)\n  1846: sp = sp + 0xfffffffffffffff0\n  1849: u64 [sp + 0x8] = ra\n  1852: u64 [sp] = s0\n  1854: s0 = a0 & 0x1\n  1857: ecalli 2 // 'call_data_size'\n  1859: fallthrough\n      : @45 (gas: 2)\n  1860: u32 [0x20198] = a0\n  1865: jump @47 if s0 == 0\n      : @46 (gas: 1)\n  1868: ra = 20, jump @48\n      : @47 [@dyn 10] (gas: 1)\n  1872: ra = 22, jump @107\n      : @48 [@dyn 11] (gas: 15)\n  1877: sp = sp + 0xfffffffffffffac0\n  1881: a0 = sp + 0x500\n  1885: u64 [a0 + 0x38] = ra\n  1888: u64 [a0 + 0x30] = s0\n  1891: u64 [a0 + 0x28] = s1\n  1894: s0 = sp + 0x540\n  1898: sp = sp & 0xffffffffffffffe0\n  1901: s1 = sp\n  1903: u64 [s1 + 696] = 0\n  1907: u64 [s1 + 688] = 0\n  1911: u64 [s1 + 672] = 0x80\n  1917: a0 = 0x40\n  1920: a1 = s1 + 0x2a0\n  1924: u64 [s1 + 680] = 0\n  1928: ra = 24, jump @25\n      : @49 [@dyn 12] (gas: 7)\n  1933: u64 [s1 + 728] = 0\n  1937: u64 [s1 + 720] = 0\n  1941: u64 [s1 + 712] = 0\n  1945: u64 [s1 + 704] = 0\n  1949: i32 a0 = s1 + 0x2c0\n  1953: ecalli 10 // 'value_transferred'\n  1955: fallthrough\n      : @50 (gas: 9)\n  1956: a4 = s1 + 0x200\n  1960: a0 = u64 [a4 + 0xd0]\n  1964: a1 = u64 [a4 + 0xd8]\n  1968: a2 = u64 [a4 + 0xc8]\n  1972: a3 = u64 [a4 + 0xc0]\n  1976: a1 = a1 | a2\n  1979: a0 = a0 | a3\n  1982: a0 = a0 | a1\n  1985: jump @102 if a0 != 0\n      : @51 (gas: 7)\n  1989: u64 [s1 + 760] = 0\n  1993: u64 [s1 + 752] = 0\n  1997: u64 [s1 + 744] = 0\n  2001: u64 [s1 + 736] = 0\n  2005: a0 = s1 + 0x280\n  2009: a1 = s1 + 0x2e0\n  2013: ra = 26, jump @27\n      : @52 [@dyn 13] (gas: 11)\n  2018: a2 = u64 [s1 + 0x280]\n  2022: a0 = u64 [s1 + 0x288]\n  2026: a1 = u64 [s1 + 0x290]\n  2030: a3 = u64 [s1 + 0x298]\n  2034: u64 [s1 + 0x258] = a3\n  2038: u64 [s1 + 0x250] = a1\n  2042: u64 [s1 + 0x248] = a0\n  2046: a0 = s1 + 0x260\n  2050: a1 = s1 + 0x240\n  2054: u64 [s1 + 0x240] = a2\n  2058: ra = 28, jump @1168\n      : @53 [@dyn 14] (gas: 10)\n  2063: a0 = s1 + 0x200\n  2067: a2 = u64 [a0 + 0x78]\n  2070: a3 = u64 [a0 + 0x70]\n  2073: a5 = u64 [a0 + 0x60]\n  2076: a4 = u64 [a0 + 0x68]\n  2079: a0 = a3 | a2\n  2082: a1 = a5 <u 0x20\n  2085: a1 = 0 if a4 != 0\n  2087: a1 = 0 if a0 != 0\n  2089: jump @63 if a1 != 0\n      : @54 (gas: 11)\n  2093: u64 [s1 + 0x40] = a5\n  2096: u64 [s1 + 0x48] = a4\n  2099: u64 [s1 + 0x50] = a3\n  2102: u64 [s1 + 0x58] = a2\n  2105: u64 [s1 + 568] = 0\n  2109: u64 [s1 + 560] = 0\n  2113: u64 [s1 + 552] = 0\n  2117: a1 = s1 + 0x220\n  2121: u64 [s1 + 544] = 0\n  2125: a0 = 0\n  2127: ra = 30, jump @25\n      : @55 [@dyn 15] (gas: 2)\n  2132: a1 = i32 [0x2019c]\n  2137: jump @57 if a1 >u 31\n      : @56 (gas: 2)\n  2141: u32 [0x2019c] = 0x20\n  2147: fallthrough\n      : @57 (gas: 10)\n  2148: a0 = sp + 0xffffffffffffffe0\n  2151: a2 = a0 & 0xffffffffffffffe0\n  2154: u64 [s1 + 0x30] = a2\n  2157: sp = a2\n  2159: a0 = 0x201b0\n  2164: i32 a0 = a0 + 0\n  2166: i32 a2 = a2 + 0\n  2168: a1 = 0x20\n  2171: ecalli 6 // 'hash_keccak_256'\n  2173: t0 = 32, jump @1525\n      : @58 [@dyn 16] (gas: 29)\n  2179: t0 = u64 [t2 + 0x8]\n  2182: a2 = u64 [t2]\n  2184: a4 = a3 ^ ra\n  2187: u64 [s1 + 0x30] = a3\n  2190: a3 = a3 <u ra\n  2193: a3 = a1 if a4 == 0\n  2196: t2 = reverse a2\n  2198: t0 = reverse t0\n  2200: a1 = a0 <u a5\n  2203: a2 = u64 [s1 + 0x58]\n  2206: a1 = a1 + a2\n  2209: a0 = a0 >> 0x5\n  2212: a2 = a1 << 0x3b\n  2215: a0 = a0 | a2\n  2218: a1 = a1 >> 0x5\n  2221: a0 = a0 + t0\n  2224: a2 = a0 <u t0\n  2227: a1 = a1 + t2\n  2230: a1 = a1 + a2\n  2233: a3 = a3 + a0\n  2236: u64 [s1 + 0x28] = a3\n  2239: a0 = a3 <u a0\n  2242: a0 = a0 + a1\n  2245: u64 [s1 + 0x20] = a0\n  2248: a0 = sp + 0xffffffffffffffe0\n  2251: a4 = a0 & 0xffffffffffffffe0\n  2254: sp = a4\n  2256: u64 [s1 + 0x18] = a4\n  2259: fallthrough\n      : @59 (gas: 20)\n  2260: a0 = u64 [s1 + 0x38]\n  2263: a0 = t1 <u a0\n  2266: a2 = u64 [s1 + 0x30]\n  2269: a1 = ra ^ a2\n  2272: a2 = ra <u a2\n  2275: a2 = a0 if a1 == 0\n  2278: a5 = u64 [s1 + 0x28]\n  2281: a0 = t0 <u a5\n  2284: a3 = u64 [s1 + 0x20]\n  2287: a1 = t2 ^ a3\n  2290: a3 = t2 <u a3\n  2293: a3 = a0 if a1 == 0\n  2296: a0 = t0 ^ a5\n  2299: a0 = a0 | a1\n  2302: a3 = a2 if a0 == 0\n  2305: u64 [a4] = t1\n  2307: u64 [a4 + 0x8] = ra\n  2310: u64 [a4 + 0x10] = t0\n  2313: u64 [a4 + 0x18] = t2\n  2316: jump @63 if a3 == 0\n      : @60 (gas: 11)\n  2319: u64 [s1 + 792] = 0\n  2323: u64 [s1 + 784] = 0\n  2327: u64 [s1 + 776] = 0\n  2331: u64 [s1 + 768] = 0\n  2335: a1 = s1 + 0x300\n  2339: a0 = a4\n  2341: u64 [s1 + 0x58] = t1\n  2344: u64 [s1 + 0x50] = ra\n  2347: u64 [s1 + 0x48] = t2\n  2350: u64 [s1 + 0x40] = t0\n  2353: ra = 34, jump @31\n      : @61 [@dyn 17] (gas: 1)\n  2358: t0 = 36, jump @1548\n      : @62 [@dyn 18] (gas: 2)\n  2364: t0 = a0\n  2366: jump @59\n      : @63 (gas: 13)\n  2368: a1 = u64 [0x20000]\n  2373: u64 [s1 + 832] = 0x1e\n  2378: u64 [s1 + 824] = 0\n  2382: u64 [s1 + 816] = 0\n  2386: u64 [s1 + 0x358] = a1\n  2390: a0 = u64 [0x20008]\n  2395: u64 [s1 + 808] = 0\n  2399: u64 [s1 + 800] = 0\n  2403: u64 [s1 + 840] = 0\n  2407: u64 [s1 + 0x350] = a0\n  2411: a0 = s1 + 0x320\n  2415: a1 = s1 + 0x340\n  2419: ra = 38, jump @31\n      : @64 [@dyn 19] (gas: 7)\n  2424: u64 [s1 + 888] = 0\n  2428: u64 [s1 + 880] = 0\n  2432: u64 [s1 + 872] = 0\n  2436: u64 [s1 + 864] = 0x1\n  2441: a0 = s1 + 0x200\n  2445: a1 = s1 + 0x360\n  2449: ra = 40, jump @27\n      : @65 [@dyn 20] (gas: 12)\n  2454: a4 = s1 + 0x200\n  2458: a2 = u64 [a4]\n  2460: a0 = u64 [a4 + 0x8]\n  2463: a1 = u64 [a4 + 0x10]\n  2466: a3 = u64 [a4 + 0x18]\n  2469: u64 [s1 + 0x1d8] = a3\n  2473: u64 [s1 + 0x1d0] = a1\n  2477: u64 [s1 + 0x1c8] = a0\n  2481: a0 = s1 + 0x1e0\n  2485: a1 = s1 + 0x1c0\n  2489: u64 [s1 + 0x1c0] = a2\n  2493: ra = 42, jump @1168\n      : @66 [@dyn 21] (gas: 15)\n  2498: a0 = s1 + 0x100\n  2502: a3 = u64 [a0 + 0xf8]\n  2506: a4 = u64 [a0 + 0xf0]\n  2510: a5 = u64 [a0 + 0xe8]\n  2514: t0 = u64 [s1 + 0x1e0]\n  2518: a0 = a3 >u 0\n  2520: a1 = a4 >u 0\n  2522: a1 = a0 if a3 != 0\n  2525: a0 = a5 >u 0\n  2527: a2 = t0 <u 0x20\n  2530: a2 = a2 ^ 0x1\n  2533: a2 = a0 if a5 != 0\n  2536: a0 = a4 | a3\n  2539: a2 = a1 if a0 != 0\n  2542: jump @76 if a2 == 0\n      : @67 (gas: 11)\n  2546: u64 [s1 + 0x40] = t0\n  2549: u64 [s1 + 0x48] = a5\n  2552: u64 [s1 + 0x50] = a4\n  2555: u64 [s1 + 0x58] = a3\n  2558: u64 [s1 + 440] = 0\n  2562: u64 [s1 + 432] = 0\n  2566: u64 [s1 + 424] = 0\n  2570: a1 = s1 + 0x1a0\n  2574: u64 [s1 + 416] = 0x1\n  2579: a0 = 0\n  2581: ra = 44, jump @25\n      : @68 [@dyn 22] (gas: 2)\n  2586: a1 = i32 [0x2019c]\n  2591: jump @70 if a1 >u 31\n      : @69 (gas: 2)\n  2595: u32 [0x2019c] = 0x20\n  2601: fallthrough\n      : @70 (gas: 10)\n  2602: a0 = sp + 0xffffffffffffffe0\n  2605: a2 = a0 & 0xffffffffffffffe0\n  2608: u64 [s1 + 0x30] = a2\n  2611: sp = a2\n  2613: a0 = 0x201b0\n  2618: i32 a0 = a0 + 0\n  2620: i32 a2 = a2 + 0\n  2622: a1 = 0x20\n  2625: ecalli 6 // 'hash_keccak_256'\n  2627: t0 = 46, jump @1525\n      : @71 [@dyn 23] (gas: 29)\n  2633: t0 = u64 [t2 + 0x8]\n  2636: a2 = u64 [t2]\n  2638: a4 = a3 ^ ra\n  2641: u64 [s1 + 0x30] = a3\n  2644: a3 = a3 <u ra\n  2647: a3 = a1 if a4 == 0\n  2650: t2 = reverse a2\n  2652: t0 = reverse t0\n  2654: a1 = a0 <u a5\n  2657: a2 = u64 [s1 + 0x58]\n  2660: a1 = a1 + a2\n  2663: a0 = a0 >> 0x5\n  2666: a2 = a1 << 0x3b\n  2669: a0 = a0 | a2\n  2672: a1 = a1 >> 0x5\n  2675: a0 = a0 + t0\n  2678: a2 = a0 <u t0\n  2681: a1 = a1 + t2\n  2684: a1 = a1 + a2\n  2687: a3 = a3 + a0\n  2690: u64 [s1 + 0x28] = a3\n  2693: a0 = a3 <u a0\n  2696: a0 = a0 + a1\n  2699: u64 [s1 + 0x20] = a0\n  2702: a0 = sp + 0xffffffffffffffe0\n  2705: a4 = a0 & 0xffffffffffffffe0\n  2708: sp = a4\n  2710: u64 [s1 + 0x18] = a4\n  2713: fallthrough\n      : @72 (gas: 20)\n  2714: a0 = u64 [s1 + 0x38]\n  2717: a0 = t1 <u a0\n  2720: a2 = u64 [s1 + 0x30]\n  2723: a1 = ra ^ a2\n  2726: a2 = ra <u a2\n  2729: a2 = a0 if a1 == 0\n  2732: a5 = u64 [s1 + 0x28]\n  2735: a0 = t0 <u a5\n  2738: a3 = u64 [s1 + 0x20]\n  2741: a1 = t2 ^ a3\n  2744: a3 = t2 <u a3\n  2747: a3 = a0 if a1 == 0\n  2750: a0 = t0 ^ a5\n  2753: a0 = a0 | a1\n  2756: a3 = a2 if a0 == 0\n  2759: u64 [a4] = t1\n  2761: u64 [a4 + 0x8] = ra\n  2764: u64 [a4 + 0x10] = t0\n  2767: u64 [a4 + 0x18] = t2\n  2770: jump @76 if a3 == 0\n      : @73 (gas: 11)\n  2773: u64 [s1 + 920] = 0\n  2777: u64 [s1 + 912] = 0\n  2781: u64 [s1 + 904] = 0\n  2785: u64 [s1 + 896] = 0\n  2789: a1 = s1 + 0x380\n  2793: a0 = a4\n  2795: u64 [s1 + 0x58] = t1\n  2798: u64 [s1 + 0x50] = ra\n  2801: u64 [s1 + 0x48] = t2\n  2804: u64 [s1 + 0x40] = t0\n  2807: ra = 48, jump @31\n      : @74 [@dyn 24] (gas: 1)\n  2812: t0 = 50, jump @1548\n      : @75 [@dyn 25] (gas: 2)\n  2818: t0 = a0\n  2820: jump @72\n      : @76 (gas: 12)\n  2822: u64 [s1 + 952] = 0\n  2826: u64 [s1 + 944] = 0\n  2830: u64 [s1 + 936] = 0\n  2834: u64 [s1 + 928] = 0x1\n  2839: u64 [s1 + 976] = 0\n  2843: u64 [s1 + 968] = 0\n  2847: u64 [s1 + 960] = 0x8\n  2852: a0 = 0x4d55534400000000\n  2862: u64 [s1 + 0x3d8] = a0\n  2866: a0 = s1 + 0x3a0\n  2870: a1 = s1 + 0x3c0\n  2874: ra = 52, jump @31\n      : @77 [@dyn 26] (gas: 7)\n  2879: u64 [s1 + 1016] = 0\n  2883: u64 [s1 + 1008] = 0\n  2887: u64 [s1 + 1000] = 0\n  2891: u64 [s1 + 992] = 0x2\n  2896: a0 = s1 + 0x180\n  2900: a1 = s1 + 0x3e0\n  2904: ra = 54, jump @27\n      : @78 [@dyn 27] (gas: 17)\n  2909: a0 = u64 [s1 + 0x180]\n  2913: a1 = u64 [s1 + 0x188]\n  2917: a2 = u64 [s1 + 0x190]\n  2921: a3 = u64 [s1 + 0x198]\n  2925: a0 = a0 & 0xffffffffffffff00\n  2929: a0 = a0 | 0x6\n  2932: u64 [s1 + 1048] = 0\n  2936: u64 [s1 + 1040] = 0\n  2940: u64 [s1 + 1032] = 0\n  2944: u64 [s1 + 1024] = 0x2\n  2949: u64 [s1 + 0x438] = a3\n  2953: u64 [s1 + 0x430] = a2\n  2957: u64 [s1 + 0x428] = a1\n  2961: u64 [s1 + 0x420] = a0\n  2965: a0 = s1 + 0x400\n  2969: a1 = s1 + 0x420\n  2973: ra = 56, jump @31\n      : @79 [@dyn 28] (gas: 29)\n  2978: a0 = 0x301b0\n  2983: u64 [s1 + 0x58] = a0\n  2986: i32 a0 = a0 + 0\n  2988: u64 [s1 + 0x50] = a0\n  2991: ecalli 3 // 'caller'\n  2993: a2 = u64 [s1 + 0x58]\n  2996: a0 = u64 [a2 + 0x8]\n  2999: a1 = i32 [a2 + 0x10]\n  3002: a2 = u64 [a2]\n  3004: a0 = reverse a0\n  3006: a3 = a0 << 0x20\n  3009: a1 = reverse a1\n  3011: a1 = a1 >> 0x20\n  3014: a1 = a1 | a3\n  3017: u64 [s1 + 0x48] = a1\n  3020: a0 = a0 >> 0x20\n  3023: a1 = reverse a2\n  3025: a2 = a1 << 0x20\n  3028: a0 = a0 | a2\n  3031: u64 [s1 + 0x40] = a0\n  3034: a1 = a1 >> 0x20\n  3037: u64 [s1 + 0x38] = a1\n  3040: u64 [s1 + 1112] = 0\n  3044: u64 [s1 + 1104] = 0\n  3048: u64 [s1 + 1096] = 0\n  3052: u64 [s1 + 1088] = 0x6\n  3057: a0 = s1 + 0x160\n  3061: a1 = s1 + 0x440\n  3065: ra = 58, jump @27\n      : @80 [@dyn 29] (gas: 19)\n  3070: a0 = u32 [s1 + 0x174]\n  3074: a0 = a0 << 0x20\n  3077: a1 = u64 [s1 + 0x178]\n  3081: a2 = u64 [s1 + 0x38]\n  3084: a0 = a0 | a2\n  3087: u64 [s1 + 1144] = 0\n  3091: u64 [s1 + 1136] = 0\n  3095: u64 [s1 + 1128] = 0\n  3099: a3 = s1 + 0x400\n  3103: u64 [a3 + 96] = 0x6\n  3107: u64 [a3 + 0x98] = a1\n  3111: a1 = u64 [s1 + 0x40]\n  3114: u64 [a3 + 0x88] = a1\n  3118: a1 = u64 [s1 + 0x48]\n  3121: u64 [a3 + 0x80] = a1\n  3125: u64 [a3 + 0x90] = a0\n  3129: a0 = s1 + 0x460\n  3133: a1 = s1 + 0x480\n  3137: ra = 60, jump @31\n      : @81 [@dyn 30] (gas: 6)\n  3142: a0 = u64 [s1 + 0x50]\n  3145: ra = 0x3e\n  3148: ecalli 3 // 'caller'\n  3150: a2 = u64 [s1 + 0x58]\n  3153: t0 = 0x40\n  3156: jump @1531\n      : @82 [@dyn 31] (gas: 2)\n  3160: a2 = u64 [s1 + 0x58]\n  3163: t0 = 64, jump @1531\n      : @83 [@dyn 32] (gas: 7)\n  3169: u64 [s1 + 344] = 0\n  3173: u64 [s1 + 0x150] = a1\n  3177: u64 [s1 + 0x148] = a0\n  3181: a1 = s1 + 0x140\n  3185: u64 [s1 + 0x140] = a3\n  3189: a0 = 0\n  3191: ra = 66, jump @25\n      : @84 [@dyn 33] (gas: 7)\n  3196: u64 [s1 + 312] = 0\n  3200: u64 [s1 + 304] = 0\n  3204: u64 [s1 + 288] = 0x4\n  3209: a0 = 0x20\n  3212: a1 = s1 + 0x120\n  3216: u64 [s1 + 296] = 0\n  3220: ra = 68, jump @25\n      : @85 [@dyn 34] (gas: 2)\n  3225: a1 = i32 [0x2019c]\n  3230: jump @87 if a1 >u 63\n      : @86 (gas: 2)\n  3234: u32 [0x2019c] = 0x40\n  3240: fallthrough\n      : @87 (gas: 11)\n  3241: a0 = sp + 0xffffffffffffffe0\n  3244: a2 = a0 & 0xffffffffffffffe0\n  3247: u64 [s1 + 0x48] = a2\n  3250: sp = a2\n  3252: a0 = 0x201b0\n  3257: i32 a0 = a0 + 0\n  3259: i32 a2 = a2 + 0\n  3261: a1 = 0x40\n  3264: ra = 0x46\n  3267: ecalli 6 // 'hash_keccak_256'\n  3269: fallthrough\n      : @88 [@dyn 35] (gas: 7)\n  3270: a3 = u64 [s1 + 0x48]\n  3273: a0 = u64 [a3 + 0x18]\n  3276: a1 = u64 [a3 + 0x10]\n  3279: a2 = u64 [a3 + 0x8]\n  3282: a3 = u64 [a3]\n  3284: a0 = reverse a0\n  3286: t0 = 72, jump @1558\n      : @89 [@dyn 36] (gas: 13)\n  3292: u64 [s1 + 0x4b8] = a3\n  3296: u64 [s1 + 0x4b0] = a2\n  3300: u64 [s1 + 0x4a8] = a1\n  3304: u64 [s1 + 0x4a0] = a0\n  3308: u64 [s1 + 1240] = 0\n  3312: u64 [s1 + 1232] = 0\n  3316: u64 [s1 + 1224] = 0\n  3320: a0 = 0xe8d4a51000\n  3330: u64 [s1 + 0x48] = a0\n  3333: u64 [s1 + 0x4c0] = a0\n  3337: a0 = s1 + 0x4a0\n  3341: a1 = s1 + 0x4c0\n  3345: ra = 74, jump @31\n      : @90 [@dyn 37] (gas: 12)\n  3350: u64 [s1 + 1272] = 0\n  3354: u64 [s1 + 1264] = 0\n  3358: u64 [s1 + 1256] = 0\n  3362: u64 [s1 + 1248] = 0x3\n  3367: u64 [s1 + 1304] = 0\n  3371: u64 [s1 + 1296] = 0\n  3375: u64 [s1 + 1288] = 0\n  3379: a0 = u64 [s1 + 0x48]\n  3382: u64 [s1 + 0x500] = a0\n  3386: a0 = s1 + 0x4e0\n  3390: a1 = s1 + 0x500\n  3394: ra = 76, jump @31\n      : @91 [@dyn 38] (gas: 3)\n  3399: a0 = s1 + 0x100\n  3403: a1 = 0x40\n  3406: ra = 78, jump @23\n      : @92 [@dyn 39] (gas: 6)\n  3411: a4 = s1 + 0x100\n  3415: a3 = u64 [a4 + 0x18]\n  3418: a1 = u64 [a4 + 0x10]\n  3421: a2 = u64 [a4 + 0x8]\n  3424: a0 = u64 [a4]\n  3426: t0 = 80, jump @1562\n      : @93 [@dyn 40] (gas: 1)\n  3432: jump @101 if a1 != 0\n      : @94 (gas: 8)\n  3436: u64 [s1 + 248] = 0\n  3440: u64 [s1 + 240] = 0\n  3444: u64 [s1 + 232] = 0\n  3448: a1 = s1 + 0xe0\n  3452: a2 = u64 [s1 + 0x48]\n  3455: u64 [s1 + 0xe0] = a2\n  3459: u64 [s1 + 0x48] = a0\n  3462: ra = 82, jump @25\n      : @95 [@dyn 41] (gas: 6)\n  3467: a0 = u64 [s1 + 0x50]\n  3470: ra = 0x54\n  3473: ecalli 3 // 'caller'\n  3475: a2 = u64 [s1 + 0x58]\n  3478: t0 = 0x56\n  3481: jump @1522\n      : @96 [@dyn 42] (gas: 2)\n  3485: a2 = u64 [s1 + 0x58]\n  3488: t0 = 86, jump @1522\n      : @97 [@dyn 43] (gas: 28)\n  3494: t0 = a1 | a0\n  3497: a3 = a3 >> 0x20\n  3500: a2 = reverse a2\n  3502: a1 = a2 << 0x20\n  3505: a1 = a1 | a3\n  3508: a2 = a2 >> 0x20\n  3511: u64 [s1 + 152] = 0\n  3515: u64 [s1 + 184] = 0\n  3519: u64 [s1 + 176] = 0\n  3523: u64 [s1 + 168] = 0\n  3527: u64 [s1 + 160] = 0\n  3531: a3 = u64 [0x20010]\n  3536: a4 = u64 [0x20018]\n  3541: a5 = u64 [0x20020]\n  3546: a0 = u64 [0x20028]\n  3551: u64 [s1 + 0xd8] = a3\n  3555: u64 [s1 + 0xd0] = a4\n  3559: u64 [s1 + 0xc8] = a5\n  3563: u64 [s1 + 0xc0] = a0\n  3567: u64 [s1 + 0x90] = a2\n  3571: u64 [s1 + 0x88] = a1\n  3575: a1 = 0x20\n  3578: a2 = s1 + 0xc0\n  3582: a3 = s1 + 0xa0\n  3586: a4 = s1 + 0x80\n  3590: u64 [s1 + 0x80] = t0\n  3594: a0 = u64 [s1 + 0x48]\n  3597: ra = 88, jump @34\n      : @98 [@dyn 44] (gas: 3)\n  3602: a0 = s1 + 0x60\n  3605: a1 = 0x40\n  3608: ra = 90, jump @23\n      : @99 [@dyn 45] (gas: 5)\n  3613: a3 = u64 [s1 + 0x78]\n  3616: a1 = u64 [s1 + 0x70]\n  3619: a2 = u64 [s1 + 0x68]\n  3622: a0 = u64 [s1 + 0x60]\n  3625: t0 = 92, jump @1562\n      : @100 [@dyn 46] (gas: 1)\n  3631: jump @103 if a1 == 0\n      : @101 (gas: 1)\n  3634: trap\n      : @102 (gas: 7)\n  3635: a1 = 0x201b0\n  3640: i32 a1 = a1 + 0\n  3642: a0 = 0x1\n  3645: a2 = 0\n  3647: ra = 0x62\n  3650: ecalli 7 // 'seal_return'\n  3652: jump @107\n      : @103 (gas: 2)\n  3654: u64 [s1 + 0x58] = a0\n  3657: ra = 94, jump @38\n      : @104 [@dyn 47] (gas: 5)\n  3662: i32 a0 = a0 + 0\n  3664: a1 = 0\n  3666: a2 = 0\n  3668: ecalli 0 // 'call_data_copy'\n  3669: jump @21\n      : @105 (gas: 3)\n  3672: a0 = u64 [s1 + 0x58]\n  3675: a1 = 0\n  3677: ra = 96, jump @38\n      : @106 [@dyn 48] (gas: 6)\n  3682: i32 a1 = a0 + 0\n  3684: a0 = 0\n  3686: a2 = 0\n  3688: ra = 0x62\n  3691: ecalli 7 // 'seal_return'\n  3693: fallthrough\n      : @107 [@dyn 49] (gas: 16)\n  3694: sp = sp + 0xfffffffffffffe10\n  3698: u64 [sp + 0x1e8] = ra\n  3702: u64 [sp + 0x1e0] = s0\n  3706: u64 [sp + 0x1d8] = s1\n  3710: s0 = sp + 0x1f0\n  3714: sp = sp + 0xffffffffffffc350\n  3718: sp = sp & 0xffffffffffffffe0\n  3721: s1 = sp\n  3723: a2 = s1 + 0x3058\n  3727: u64 [a2 + 1216] = 0\n  3731: u64 [a2 + 1208] = 0\n  3735: u64 [a2 + 1192] = 0x80\n  3741: a0 = 0x40\n  3744: a1 = s1 + 0x3500\n  3748: u64 [a2 + 1200] = 0\n  3752: ra = 100, jump @25\n      : @108 [@dyn 50] (gas: 4)\n  3757: a0 = 0x20198\n  3762: u64 [s1 + 0x18] = a0\n  3765: a0 = i32 [0x20198]\n  3770: jump @110 if a0 >=u 4\n      : @109 (gas: 1)\n  3774: jump @1137\n      : @110 (gas: 6)\n  3777: a0 = s1 + 0x3000\n  3781: i32 a0 = a0 + 0x520\n  3785: a1 = 0\n  3787: ra = 0x66\n  3790: ecalli 1 // 'call_data_load'\n  3792: fallthrough\n      : @111 [@dyn 51] (gas: 3)\n  3793: a3 = s1 + 0x3058\n  3797: a0 = i32 [a3 + 0x4e4]\n  3801: jump @113 if a0 != 2376452955\n      : @112 (gas: 1)\n  3808: jump @582\n      : @113 (gas: 1)\n  3811: jump @175 if a0 == 2514000705\n      : @114 (gas: 2)\n  3819: a2 = s1 + 0x3858\n  3823: jump @116 if a0 != 2757214935\n      : @115 (gas: 1)\n  3830: jump @433\n      : @116 (gas: 1)\n  3833: jump @196 if a0 == 2835717307\n      : @117 (gas: 1)\n  3841: jump @119 if a0 != 3350784628\n      : @118 (gas: 1)\n  3848: jump @650\n      : @119 (gas: 1)\n  3851: jump @121 if a0 != 3714247998\n      : @120 (gas: 1)\n  3858: jump @307\n      : @121 (gas: 1)\n  3861: jump @251 if a0 == 117300739\n      : @122 (gas: 1)\n  3869: jump @124 if a0 != 157198259\n      : @123 (gas: 1)\n  3876: jump @730\n      : @124 (gas: 1)\n  3879: jump @126 if a0 != 350744129\n      : @125 (gas: 1)\n  3886: jump @334\n      : @126 (gas: 1)\n  3889: jump @128 if a0 != 404098525\n      : @127 (gas: 1)\n  3896: jump @765\n      : @128 (gas: 1)\n  3899: jump @130 if a0 != 599290589\n      : @129 (gas: 1)\n  3906: jump @510\n      : @130 (gas: 1)\n  3909: jump @132 if a0 != 826074471\n      : @131 (gas: 1)\n  3916: jump @719\n      : @132 (gas: 1)\n  3919: jump @134 if a0 != 961581905\n      : @133 (gas: 1)\n  3926: jump @593\n      : @134 (gas: 1)\n  3929: jump @136 if a0 != 1086394137\n      : @135 (gas: 1)\n  3936: jump @270\n      : @136 (gas: 1)\n  3939: jump @138 if a0 != 1117154408\n      : @137 (gas: 1)\n  3946: jump @475\n      : @138 (gas: 1)\n  3949: jump @140 if a0 != 1469143191\n      : @139 (gas: 1)\n  3956: jump @405\n      : @140 (gas: 1)\n  3959: jump @142 if a0 == 1750544647\n      : @141 (gas: 1)\n  3966: jump @560\n      : @142 (gas: 11)\n  3969: u64 [a2 + 544] = 0\n  3973: u64 [a2 + 536] = 0\n  3977: u64 [a2 + 528] = 0\n  3981: u64 [a2 + 520] = 0\n  3985: a0 = s1 + 0x4000\n  3989: i32 a0 = a0 + 0xfffffffffffffa60\n  3993: ra = 0x68\n  3996: ecalli 10 // 'value_transferred'\n  3998: a0 = 0x4000\n  4002: t0 = 0x6a\n  4005: jump @1577\n      : @143 [@dyn 52] (gas: 2)\n  4009: a0 = 0x4000\n  4013: t0 = 106, jump @1577\n      : @144 [@dyn 53] (gas: 1)\n  4019: t0 = 108, jump @1557\n      : @145 [@dyn 54] (gas: 1)\n  4025: jump @147 if a0 == 0\n      : @146 (gas: 1)\n  4028: jump @1090\n      : @147 (gas: 3)\n  4031: a0 = u64 [s1 + 0x18]\n  4034: a0 = i32 [a0]\n  4036: jump @149 if a0 >u 67\n      : @148 (gas: 1)\n  4040: jump @1091\n      : @149 (gas: 5)\n  4043: a0 = s1 + 0x4000\n  4047: i32 a0 = a0 + 0xfffffffffffffa80\n  4051: a1 = 0x4\n  4054: ecalli 1 // 'call_data_load'\n  4056: fallthrough\n      : @150 (gas: 9)\n  4057: a2 = s1 + 0x3858\n  4061: a0 = a2 + 0x200\n  4065: a5 = u64 [a0 + 0x40]\n  4068: a3 = u64 [a0 + 0x38]\n  4071: a4 = u64 [a0 + 0x30]\n  4074: a0 = a3 | a5\n  4077: a1 = a4 <u 0x1\n  4080: a1 = 0 if a0 != 0\n  4082: jump @152 if a1 != 0\n      : @151 (gas: 1)\n  4085: jump @1092\n      : @152 (gas: 19)\n  4088: a1 = u64 [a2 + 0x228]\n  4092: a0 = u64 [s1 + 0x18]\n  4095: t2 = u32 [a0]\n  4097: a0 = a1 + 0x23\n  4100: a2 = a0 <u a1\n  4103: t0 = a4 + a2\n  4106: u64 [s1 + 0x88] = a4\n  4110: a4 = t0 <u a4\n  4113: a4 = a2 if a2 == 0\n  4116: a4 = a4 + a3\n  4119: u64 [s1 + 0x90] = a3\n  4123: a2 = a4 <u a3\n  4126: u64 [s1 + 0x98] = a5\n  4130: a2 = a2 + a5\n  4133: a2 = a2 | a4\n  4136: a0 = a0 <u t2\n  4139: a0 = 0 if t0 != 0\n  4141: a0 = 0 if a2 != 0\n  4143: jump @154 if a0 != 0\n      : @153 (gas: 1)\n  4146: jump @1093\n      : @154 (gas: 24)\n  4149: u64 [s1 + 0x80] = a1\n  4153: i32 a1 = a1 + 0x4\n  4156: a0 = s1 + 0x4000\n  4160: i32 a0 = a0 + 0xfffffffffffffaa0\n  4164: ecalli 1 // 'call_data_load'\n  4166: a0 = s1 + 0x3858\n  4170: a5 = a0 + 0x200\n  4174: a3 = u64 [a5 + 0x60]\n  4177: a1 = u64 [a5 + 0x58]\n  4180: a2 = u64 [a5 + 0x50]\n  4183: a4 = u64 [a5 + 0x48]\n  4186: a5 = s1 + 0x2058\n  4190: u64 [s1 + 0xc8] = a3\n  4194: u64 [a5 + 0x4c0] = a3\n  4198: u64 [s1 + 0xd0] = a1\n  4202: a3 = a5 + 0x400\n  4206: u64 [a3 + 0xb8] = a1\n  4210: u64 [s1 + 0xd8] = a2\n  4214: u64 [a3 + 0xb0] = a2\n  4218: a0 = s1 + 0x2520\n  4222: a1 = s1 + 0x2500\n  4226: u64 [s1 + 0xc0] = a4\n  4230: u64 [a3 + 0xa8] = a4\n  4234: ra = 110, jump @1216\n      : @155 [@dyn 55] (gas: 13)\n  4239: a0 = s1 + 0x2058\n  4243: a2 = a0 + 0x400\n  4247: a1 = u64 [a2 + 0xc8]\n  4251: u64 [s1 + 0xb8] = a1\n  4255: a1 = u64 [a2 + 0xd0]\n  4259: u64 [s1 + 0xb0] = a1\n  4263: a1 = u64 [a2 + 0xd8]\n  4267: u64 [s1 + 0xa8] = a1\n  4271: a1 = u64 [a2 + 0xe0]\n  4275: u64 [s1 + 0xa0] = a1\n  4279: a0 = s1 + 0x24e0\n  4283: a1 = 0x40\n  4286: ra = 112, jump @23\n      : @156 [@dyn 56] (gas: 26)\n  4291: a0 = s1 + 0x2058\n  4295: a2 = u64 [a0 + 0x4a0]\n  4299: u64 [s1 + 0x48] = a2\n  4302: a1 = u64 [a0 + 0x498]\n  4306: u64 [s1 + 0x40] = a1\n  4309: a4 = u64 [a0 + 0x490]\n  4313: u64 [s1 + 0x38] = a4\n  4316: a5 = u64 [a0 + 0x488]\n  4320: u64 [s1 + 0x50] = a5\n  4323: a3 = u64 [s1 + 0xa0]\n  4327: u64 [a0 + 0x460] = a3\n  4331: a3 = u64 [s1 + 0xa8]\n  4335: u64 [a0 + 0x458] = a3\n  4339: a3 = u64 [s1 + 0xb0]\n  4343: u64 [a0 + 0x450] = a3\n  4347: a3 = u64 [s1 + 0xb8]\n  4351: u64 [a0 + 0x448] = a3\n  4355: a3 = a0 + 0x400\n  4359: u64 [a3 + 0x80] = a2\n  4363: u64 [a3 + 0x78] = a1\n  4366: u64 [a3 + 0x70] = a4\n  4369: a2 = a0\n  4371: a0 = s1 + 0x24c0\n  4375: a1 = s1 + 0x24a0\n  4379: u64 [a2 + 0x468] = a5\n  4383: ra = 114, jump @1177\n      : @157 [@dyn 57] (gas: 12)\n  4388: a0 = u64 [s1 + 0x50]\n  4391: a1 = u64 [s1 + 0x48]\n  4394: a2 = u64 [s1 + 0x38]\n  4397: a2 = a2 | a1\n  4400: a3 = u64 [s1 + 0x40]\n  4403: a1 = a0 | a3\n  4406: a1 = a1 | a2\n  4409: a1 = a1 >> 0x20\n  4412: a2 = a2 | a3\n  4415: a2 = a2 << 0x20\n  4418: a1 = a1 | a2\n  4421: jump @159 if a1 == 0\n      : @158 (gas: 1)\n  4424: jump @1003\n      : @159 (gas: 12)\n  4427: a2 = s1 + 0x2058\n  4431: a1 = u64 [s1 + 0xc0]\n  4435: a4 = a2 + 0x400\n  4439: u64 [a4 + 0x28] = a1\n  4442: a1 = u64 [s1 + 0xd8]\n  4446: u64 [a4 + 0x30] = a1\n  4449: a1 = u64 [s1 + 0xd0]\n  4453: u64 [a4 + 0x38] = a1\n  4456: a1 = s1 + 0x2480\n  4460: a3 = u64 [s1 + 0xc8]\n  4464: u64 [a4 + 0x40] = a3\n  4467: ra = 116, jump @25\n      : @160 [@dyn 58] (gas: 1)\n  4472: t0 = 118, jump @1575\n      : @161 [@dyn 59] (gas: 52)\n  4478: t0 = t2 <u a0\n  4481: a3 = u64 [s1 + 0x88]\n  4485: t1 = a3 + t0\n  4488: a1 = a1 + t1\n  4491: a5 = t2 + a2\n  4494: a2 = a5 <u t2\n  4497: ra = a1 + a2\n  4500: a4 = ra ^ t1\n  4503: a1 = ra <u t1\n  4506: a1 = a2 if a4 == 0\n  4509: a0 = u64 [s1 + 0xc8]\n  4513: a0 = a0 << 0x5\n  4516: a4 = u64 [s1 + 0xd0]\n  4520: a2 = a4 >> 0x3b\n  4523: a0 = a0 | a2\n  4526: u64 [s1 + 0xc8] = a0\n  4530: a2 = u64 [s1 + 0xd8]\n  4534: a2 = a2 >> 0x3b\n  4537: a4 = a4 << 0x5\n  4540: a2 = a2 | a4\n  4543: a4 = t1 <u a3\n  4546: a4 = t0 if t0 == 0\n  4549: a0 = u64 [s1 + 0x90]\n  4553: a4 = a4 + a0\n  4556: a0 = a4 <u a0\n  4559: t0 = u64 [s1 + 0x98]\n  4563: t0 = t0 + a0\n  4566: a2 = a2 + a4\n  4569: a3 = a2 + a1\n  4572: a0 = a3 <u a2\n  4575: u64 [s1 + 0xd8] = a4\n  4579: a2 = a2 <u a4\n  4582: a1 = u64 [s1 + 0xc8]\n  4586: a1 = a1 + t0\n  4589: a1 = a1 + a2\n  4592: a4 = a1 + a0\n  4595: a0 = u64 [s1 + 0x18]\n  4598: a0 = u32 [a0]\n  4600: a1 = a4 <u 0x1\n  4603: a2 = a3 <u 0x1\n  4606: a2 = a1 if a4 != 0\n  4609: u64 [s1 + 0x80] = a5\n  4613: a0 = a0 <u a5\n  4616: a0 = a0 ^ 0x1\n  4619: a1 = ra <u 0x1\n  4622: u64 [s1 + 0x78] = ra\n  4625: a0 = a1 if ra != 0\n  4628: u64 [s1 + 0x70] = a3\n  4631: u64 [s1 + 0x68] = a4\n  4634: a1 = a3 | a4\n  4637: a0 = a2 if a1 != 0\n  4640: jump @163 if a0 != 0\n      : @162 (gas: 1)\n  4643: jump @1152\n      : @163 (gas: 13)\n  4646: a0 = 0xffffffff\n  4656: u64 [s1 + 0x60] = a0\n  4659: a0 = 0xffffffe0\n  4669: u64 [s1 + 0x58] = a0\n  4672: a0 = u64 [s1 + 0x50]\n  4675: u64 [s1 + 0xc8] = a0\n  4679: a0 = u64 [s1 + 0x38]\n  4682: u64 [s1 + 0xc0] = a0\n  4686: ra = u64 [s1 + 0x40]\n  4689: a0 = u64 [s1 + 0x48]\n  4692: u64 [s1 + 0xd0] = a0\n  4696: a4 = u64 [s1 + 0xd8]\n  4700: fallthrough\n      : @164 (gas: 16)\n  4701: a0 = u64 [s1 + 0x80]\n  4705: a0 = t2 <u a0\n  4708: a2 = u64 [s1 + 0x78]\n  4711: a1 = t1 ^ a2\n  4714: a2 = t1 <u a2\n  4717: a2 = a0 if a1 == 0\n  4720: a5 = u64 [s1 + 0x70]\n  4723: a0 = a4 <u a5\n  4726: a3 = u64 [s1 + 0x68]\n  4729: a1 = t0 ^ a3\n  4732: a3 = t0 <u a3\n  4735: a3 = a0 if a1 == 0\n  4738: a0 = a4 ^ a5\n  4741: a0 = a0 | a1\n  4744: a3 = a2 if a0 == 0\n  4747: jump @166 if a3 != 0\n      : @165 (gas: 1)\n  4750: jump @967\n      : @166 (gas: 8)\n  4753: a0 = t2 | a4\n  4756: a1 = t1 | t0\n  4759: a0 = a0 | a1\n  4762: a0 = a0 >> 0x20\n  4765: a1 = a1 | a4\n  4768: a1 = a1 << 0x20\n  4771: a0 = a0 | a1\n  4774: jump @168 if a0 == 0\n      : @167 (gas: 1)\n  4777: jump @1003\n      : @168 (gas: 10)\n  4780: u64 [s1 + 0xb8] = ra\n  4784: u64 [s1 + 0xd8] = a4\n  4788: u64 [s1 + 0xa0] = t0\n  4792: u64 [s1 + 0xa8] = t1\n  4796: u64 [s1 + 0xb0] = t2\n  4800: i32 a1 = t2 + 0\n  4802: a0 = s1 + 0x4000\n  4806: i32 a0 = a0 + 0xfffffffffffffac0\n  4810: ecalli 1 // 'call_data_load'\n  4812: fallthrough\n      : @169 (gas: 12)\n  4813: a0 = s1 + 0x3858\n  4817: ra = u64 [a0 + 0x280]\n  4821: t2 = u64 [a0 + 0x278]\n  4825: a2 = ra >u 0\n  4827: a3 = t2 >> 0x20\n  4830: a3 = a3 >u 0\n  4832: a3 = a2 if ra != 0\n  4835: a2 = u64 [s1 + 0x60]\n  4838: a2 = t2 ^ a2\n  4841: a2 = a2 | ra\n  4844: a3 = 0 if a2 == 0\n  4846: jump @171 if a3 == 0\n      : @170 (gas: 1)\n  4849: jump @1087\n      : @171 (gas: 10)\n  4852: a5 = u64 [s1 + 0xd0]\n  4856: a2 = u64 [s1 + 0xb8]\n  4860: t1 = a2 | a5\n  4863: a3 = u64 [s1 + 0x58]\n  4866: a4 = u64 [s1 + 0xc8]\n  4870: a3 = a4 <u a3\n  4873: a1 = u64 [s1 + 0xc0]\n  4877: a3 = 0 if a1 != 0\n  4879: a3 = 0 if t1 != 0\n  4881: jump @173 if a3 != 0\n      : @172 (gas: 1)\n  4884: jump @1003\n      : @173 (gas: 23)\n  4887: a3 = a4 + 0x20\n  4890: t0 = a0\n  4892: a4 = a3 <u a4\n  4895: a0 = a3\n  4897: u64 [s1 + 0x88] = a3\n  4901: a3 = a1 + a4\n  4904: u64 [s1 + 0x98] = a3\n  4908: a3 = a3 <u a1\n  4911: a3 = a4 if a4 == 0\n  4914: t1 = u64 [t0 + 0x270]\n  4918: a4 = u64 [t0 + 0x268]\n  4922: a3 = a3 + a2\n  4925: u64 [s1 + 0x90] = a3\n  4929: a3 = a3 <u a2\n  4932: a5 = a5 + a3\n  4935: u64 [s1 + 0xd0] = a5\n  4939: a3 = s1 + 0x1858\n  4943: u64 [a3 + 0x368] = a4\n  4947: u64 [a3 + 0x370] = t1\n  4951: u64 [a3 + 0x378] = t2\n  4955: a1 = s1 + 0x1bc0\n  4959: u64 [a3 + 0x380] = ra\n  4963: ra = 120, jump @25\n      : @174 [@dyn 60] (gas: 20)\n  4968: a1 = u64 [s1 + 0xb0]\n  4972: a0 = a1 + 0x20\n  4975: a1 = a0 <u a1\n  4978: a3 = u64 [s1 + 0xa8]\n  4982: t1 = a3 + a1\n  4985: a3 = t1 <u a3\n  4988: a3 = a1 if a1 == 0\n  4991: a1 = u64 [s1 + 0xd8]\n  4995: a3 = a3 + a1\n  4998: a1 = a3 <u a1\n  5001: t0 = u64 [s1 + 0xa0]\n  5005: t0 = t0 + a1\n  5008: a1 = u64 [s1 + 0x88]\n  5012: u64 [s1 + 0xc8] = a1\n  5016: a1 = u64 [s1 + 0x98]\n  5020: u64 [s1 + 0xc0] = a1\n  5024: ra = u64 [s1 + 0x90]\n  5028: t2 = a0\n  5030: a4 = a3\n  5032: jump @164\n      : @175 (gas: 12)\n  5035: a0 = s1 + 0x3858\n  5039: u64 [a0 + 1056] = 0\n  5043: u64 [a0 + 1048] = 0\n  5047: u64 [a0 + 1040] = 0\n  5051: u64 [a0 + 1032] = 0\n  5055: a0 = s1 + 0x4000\n  5059: i32 a0 = a0 + 0xfffffffffffffc60\n  5063: ra = 0x7a\n  5066: ecalli 10 // 'value_transferred'\n  5068: a0 = 0x4000\n  5072: t0 = 0x7c\n  5075: jump @1576\n      : @176 [@dyn 61] (gas: 2)\n  5079: a0 = 0x4000\n  5083: t0 = 124, jump @1576\n      : @177 [@dyn 62] (gas: 1)\n  5089: t0 = 126, jump @1557\n      : @178 [@dyn 63] (gas: 1)\n  5095: jump @180 if a0 == 0\n      : @179 (gas: 1)\n  5098: jump @1094\n      : @180 (gas: 3)\n  5101: a0 = u64 [s1 + 0x18]\n  5104: a0 = i32 [a0]\n  5106: jump @182 if a0 >u 3\n      : @181 (gas: 1)\n  5110: jump @1095\n      : @182 (gas: 3)\n  5113: a0 = s1 + 0x2820\n  5117: a1 = 0x40\n  5120: ra = 128, jump @23\n      : @183 [@dyn 64] (gas: 18)\n  5126: a1 = s1 + 0x2058\n  5130: a2 = a1 + 0x700\n  5134: a0 = u64 [a2 + 0xe0]\n  5138: u64 [s1 + 0x38] = a0\n  5141: a0 = u64 [a2 + 0xd8]\n  5145: u64 [s1 + 0x40] = a0\n  5148: a0 = u64 [a2 + 0xd0]\n  5152: u64 [s1 + 0x48] = a0\n  5155: a0 = u64 [a2 + 0xc8]\n  5159: u64 [s1 + 0x50] = a0\n  5162: a1 = s1 + 0x3858\n  5166: u64 [a1 + 1088] = 0\n  5170: u64 [a1 + 1080] = 0\n  5174: u64 [a1 + 1072] = 0\n  5178: u64 [a1 + 1064] = 0x1\n  5183: a0 = s1 + 0x2800\n  5187: a1 = s1 + 0x3c80\n  5191: ra = 130, jump @27\n      : @184 [@dyn 65] (gas: 35)\n  5197: a0 = s1 + 0x2058\n  5201: t2 = u64 [a0 + 0x7b8]\n  5205: ra = u64 [a0 + 0x7b0]\n  5209: t1 = u64 [a0 + 0x7c0]\n  5213: a4 = u64 [a0 + 0x7a8]\n  5217: a0 = t2 << 0x3f\n  5220: a1 = ra >> 0x1\n  5223: a0 = a0 | a1\n  5226: a1 = t1 << 0x3f\n  5229: a2 = t2 >> 0x1\n  5232: a1 = a1 | a2\n  5235: a2 = ra << 0x3f\n  5238: a3 = a4 >> 0x1\n  5241: a5 = a3 | a2\n  5244: a2 = t1 >> 0x1\n  5247: u64 [s1 + 0xc8] = a4\n  5251: a4 = a4 & 0x1\n  5254: a3 = -a4\n  5256: a1 = a1 & a3\n  5259: t0 = a3 & a0\n  5262: a2 = a2 & a3\n  5265: a0 = a5 & 0x7f\n  5268: u64 [s1 + 0xd0] = a0\n  5272: a5 = a0 if a4 == 0\n  5275: u64 [s1 + 0x98] = a5\n  5279: a0 = a5 <u 0x20\n  5282: u64 [s1 + 0x88] = t0\n  5286: a0 = 0 if t0 != 0\n  5288: u64 [s1 + 0x90] = a1\n  5292: u64 [s1 + 0x80] = a2\n  5296: a1 = a1 | a2\n  5299: a0 = 0 if a1 != 0\n  5301: u64 [s1 + 0xd8] = a4\n  5305: a1 = a4 <u 0x1\n  5308: jump @186 if a1 == a0\n      : @185 (gas: 1)\n  5311: jump @1096\n      : @186 (gas: 12)\n  5314: a2 = u64 [s1 + 0x40]\n  5317: a3 = u64 [s1 + 0x50]\n  5320: a0 = a3 | a2\n  5323: a1 = u64 [s1 + 0x48]\n  5326: a4 = u64 [s1 + 0x38]\n  5329: a1 = a1 | a4\n  5332: a0 = a0 | a1\n  5335: a0 = a0 >> 0x20\n  5338: a1 = a1 | a2\n  5341: a1 = a1 << 0x20\n  5344: a1 = a1 | a0\n  5347: jump @188 if a1 == 0\n      : @187 (gas: 1)\n  5350: jump @1003\n      : @188 (gas: 16)\n  5353: a0 = a3\n  5355: u64 [s1 + 0xb0] = ra\n  5359: u64 [s1 + 0xb8] = t2\n  5363: u64 [s1 + 0xc0] = t1\n  5367: a1 = u64 [s1 + 0x98]\n  5371: a3 = s1 + 0x2058\n  5375: a4 = a3 + 0x700\n  5379: u64 [a4 + 0x88] = a1\n  5383: a1 = u64 [s1 + 0x88]\n  5387: u64 [a4 + 0x90] = a1\n  5391: a1 = u64 [s1 + 0x90]\n  5395: u64 [a4 + 0x98] = a1\n  5399: a1 = s1 + 0x27e0\n  5403: a2 = u64 [s1 + 0x80]\n  5407: u64 [a4 + 0xa0] = a2\n  5411: ra = 132, jump @25\n      : @189 [@dyn 66] (gas: 2)\n  5417: a0 = u64 [s1 + 0xd8]\n  5421: jump @191 if a0 == 0\n      : @190 (gas: 1)\n  5424: jump @945\n      : @191 (gas: 1)\n  5427: t0 = 134, jump @1554\n      : @192 [@dyn 67] (gas: 1)\n  5434: jump @194 if a1 != 0\n      : @193 (gas: 1)\n  5437: jump @1003\n      : @194 (gas: 14)\n  5440: a0 = u64 [s1 + 0xc8]\n  5444: a1 = a0 & 0xffffffffffffff00\n  5448: i32 a0 = a3 + 0x20\n  5451: a2 = s1 + 0x2058\n  5455: a3 = u64 [s1 + 0xb0]\n  5459: a4 = a2 + 0x700\n  5463: u64 [a4 + 0x10] = a3\n  5466: u64 [a4 + 0x8] = a1\n  5469: a1 = u64 [s1 + 0xb8]\n  5473: u64 [a4 + 0x18] = a1\n  5476: a1 = s1 + 0x2760\n  5480: a3 = u64 [s1 + 0xc0]\n  5484: u64 [a4 + 0x20] = a3\n  5487: ra = 136, jump @25\n      : @195 [@dyn 68] (gas: 9)\n  5493: a5 = u64 [s1 + 0x50]\n  5496: t2 = 0\n  5498: t1 = 0\n  5500: t0 = 0\n  5502: a0 = u64 [s1 + 0xd0]\n  5506: a0 = a0 >u 0\n  5508: a0 = a0 << 0x5\n  5511: u64 [s1 + 0xd8] = a0\n  5515: jump @988\n      : @196 (gas: 11)\n  5518: u64 [a2 + 1184] = 0\n  5522: u64 [a2 + 1176] = 0\n  5526: u64 [a2 + 1168] = 0\n  5530: u64 [a2 + 1160] = 0\n  5534: a0 = s1 + 0x4000\n  5538: i32 a0 = a0 + 0xfffffffffffffce0\n  5542: ra = 0x8a\n  5546: ecalli 10 // 'value_transferred'\n  5548: a0 = 0x4000\n  5552: t0 = 0x8c\n  5556: jump @1576\n      : @197 [@dyn 69] (gas: 2)\n  5560: a0 = 0x4000\n  5564: t0 = 140, jump @1576\n      : @198 [@dyn 70] (gas: 1)\n  5571: t0 = 142, jump @1571\n      : @199 [@dyn 71] (gas: 1)\n  5578: jump @201 if a0 == 0\n      : @200 (gas: 1)\n  5581: jump @1102\n      : @201 (gas: 4)\n  5584: a0 = u64 [s1 + 0x18]\n  5587: a0 = i32 [a0]\n  5589: a1 = 0x43\n  5592: jump @203 if a1 <u a0\n      : @202 (gas: 1)\n  5595: jump @1103\n      : @203 (gas: 4)\n  5598: a0 = s1 + 0x2f00\n  5602: ra = 0x90\n  5606: t0 = 0x504\n  5610: jump @1574\n      : @204 [@dyn 72] (gas: 31)\n  5614: a1 = s1 + 0x2858\n  5618: a2 = a1 + 0x600\n  5622: a0 = u64 [a2 + 0xb8]\n  5626: u64 [s1 + 0x90] = a0\n  5630: a0 = u64 [a2 + 0xb0]\n  5634: u64 [s1 + 0xb0] = a0\n  5638: a0 = u64 [a2 + 0xa8]\n  5642: u64 [s1 + 0xb8] = a0\n  5646: a0 = s1 + 0x4000\n  5650: i32 a0 = a0 + 0xfffffffffffffd00\n  5654: a1 = 0x24\n  5657: ecalli 1 // 'call_data_load'\n  5659: a0 = s1 + 0x3858\n  5663: a2 = a0 + 0x400\n  5667: a1 = u64 [a2 + 0xc0]\n  5671: u64 [s1 + 0xd8] = a1\n  5675: a1 = u64 [a2 + 0xb8]\n  5679: u64 [s1 + 0xd0] = a1\n  5683: a1 = u64 [a2 + 0xb0]\n  5687: u64 [s1 + 0xc8] = a1\n  5691: a0 = u64 [a2 + 0xa8]\n  5695: u64 [s1 + 0xc0] = a0\n  5699: a0 = 0x301b0\n  5704: u64 [s1 + 0xa8] = a0\n  5708: i32 a0 = a0 + 0\n  5710: u64 [s1 + 0x88] = a0\n  5714: ra = 0x92\n  5718: ecalli 3 // 'caller'\n  5720: a2 = u64 [s1 + 0xa8]\n  5724: t0 = 0x94\n  5728: jump @1520\n      : @205 [@dyn 73] (gas: 2)\n  5732: a2 = u64 [s1 + 0xa8]\n  5736: t0 = 148, jump @1520\n      : @206 [@dyn 74] (gas: 8)\n  5743: u64 [a2 + 1696] = 0\n  5747: a4 = a2 + 0x600\n  5751: u64 [a4 + 0x98] = a1\n  5755: u64 [a4 + 0x90] = a0\n  5759: a1 = s1 + 0x2ee0\n  5763: u64 [a4 + 0x88] = a3\n  5767: a0 = 0\n  5769: ra = 150, jump @25\n      : @207 [@dyn 75] (gas: 9)\n  5775: a0 = s1 + 0x2858\n  5779: u64 [a0 + 1664] = 0\n  5783: u64 [a0 + 1656] = 0\n  5787: u64 [a0 + 1648] = 0\n  5791: a3 = a0\n  5793: a0 = 0x20\n  5796: a1 = s1 + 0x2ec0\n  5800: u64 [a3 + 1640] = 0x4\n  5805: ra = 152, jump @25\n      : @208 [@dyn 76] (gas: 3)\n  5811: a1 = 0x2019c\n  5816: a0 = i32 [0x2019c]\n  5821: jump @210 if a0 >u 63\n      : @209 (gas: 2)\n  5825: u32 [0x2019c] = 0x40\n  5831: fallthrough\n      : @210 (gas: 15)\n  5832: a0 = sp + 0xffffffffffffffe0\n  5835: a2 = a0 & 0xffffffffffffffe0\n  5838: u64 [s1 + 0x80] = a2\n  5842: sp = a2\n  5844: a0 = 0x201b0\n  5849: i32 a0 = a0 + 0\n  5851: i32 a2 = a2 + 0\n  5853: u64 [s1 + 0xa0] = a1\n  5857: a1 = 0x40\n  5860: u64 [s1 + 0x98] = a0\n  5864: ra = 0x9a\n  5868: ecalli 6 // 'hash_keccak_256'\n  5870: a3 = u64 [s1 + 0x80]\n  5874: t0 = 0x9c\n  5878: jump @1538\n      : @211 [@dyn 77] (gas: 2)\n  5882: a3 = u64 [s1 + 0x80]\n  5886: t0 = 156, jump @1538\n      : @212 [@dyn 78] (gas: 8)\n  5893: a5 = a4 + 0x400\n  5897: u64 [a5 + 0xe0] = a3\n  5901: u64 [a5 + 0xd8] = a2\n  5905: u64 [a5 + 0xd0] = a1\n  5909: u64 [a5 + 0xc8] = a0\n  5913: a0 = s1 + 0x2ea0\n  5917: a1 = s1 + 0x3d20\n  5921: ra = 158, jump @27\n      : @213 [@dyn 79] (gas: 31)\n  5927: a4 = s1 + 0x2858\n  5931: a5 = a4 + 0x600\n  5935: a0 = u64 [a5 + 0x50]\n  5938: a1 = u64 [a5 + 0x48]\n  5941: a2 = u64 [a5 + 0x58]\n  5944: a3 = u64 [a5 + 0x60]\n  5947: t0 = a4\n  5949: a5 = u64 [s1 + 0xc8]\n  5953: a4 = a0 ^ a5\n  5956: a0 = a0 <u a5\n  5959: a5 = u64 [s1 + 0xc0]\n  5963: a1 = a1 <u a5\n  5966: a1 = a0 if a4 != 0\n  5969: a4 = u64 [s1 + 0xd8]\n  5973: a0 = a3 ^ a4\n  5976: a3 = a3 <u a4\n  5979: a5 = u64 [s1 + 0xd0]\n  5983: a4 = a2 <u a5\n  5986: a4 = a3 if a0 != 0\n  5989: a2 = a2 ^ a5\n  5992: a0 = a0 | a2\n  5995: a1 = a4 if a0 != 0\n  5998: a0 = a1 ^ 0x1\n  6001: u64 [t0 + 1600] = 0\n  6005: u64 [t0 + 1592] = 0\n  6009: u64 [t0 + 0x628] = a0\n  6013: a0 = s1 + 0x2e80\n  6017: u64 [t0 + 1584] = 0\n  6021: ra = 0xa0\n  6025: t0 = 0x564\n  6029: jump @1542\n      : @214 [@dyn 80] (gas: 18)\n  6033: a0 = u64 [s1 + 0x90]\n  6037: a0 = a0 << 0x20\n  6040: a2 = a0 >> 0x20\n  6043: a0 = u64 [s1 + 0xb8]\n  6047: a1 = u64 [s1 + 0xb0]\n  6051: a0 = a0 | a1\n  6054: u64 [s1 + 0x80] = a2\n  6058: a0 = a0 | a2\n  6061: a0 = a0 >u 0\n  6063: a1 = s1 + 0x2858\n  6067: u64 [a1 + 1568] = 0\n  6071: u64 [a1 + 1560] = 0\n  6075: u64 [a1 + 0x608] = a0\n  6079: a0 = s1 + 0x2e60\n  6083: u64 [a1 + 1552] = 0\n  6087: ra = 0xa2\n  6091: t0 = 0x582\n  6095: jump @1542\n      : @215 [@dyn 81] (gas: 6)\n  6099: a0 = u64 [s1 + 0x88]\n  6103: ra = 0xa4\n  6107: ecalli 3 // 'caller'\n  6109: a2 = u64 [s1 + 0xa8]\n  6113: t0 = 0xa6\n  6117: jump @1520\n      : @216 [@dyn 82] (gas: 2)\n  6121: a2 = u64 [s1 + 0xa8]\n  6125: t0 = 166, jump @1520\n      : @217 [@dyn 83] (gas: 8)\n  6132: u64 [a2 + 1536] = 0\n  6136: a4 = a2 + 0x500\n  6140: u64 [a4 + 0xf8] = a1\n  6144: u64 [a4 + 0xf0] = a0\n  6148: a1 = s1 + 0x2e40\n  6152: u64 [a4 + 0xe8] = a3\n  6156: a0 = 0\n  6158: ra = 168, jump @25\n      : @218 [@dyn 84] (gas: 3)\n  6164: t0 = 0xaa\n  6168: a1 = s1 + 0x2858\n  6172: fallthrough\n      : @219 [@dyn 85] (gas: 8)\n  6173: u64 [a1 + 1504] = 0\n  6177: u64 [a1 + 1496] = 0\n  6181: u64 [a1 + 1480] = 0x4\n  6186: a2 = a1\n  6188: a0 = 0x20\n  6191: a1 = s1 + 0x2e20\n  6195: u64 [a2 + 1488] = 0\n  6199: ra = 172, jump @25\n      : @220 [@dyn 86] (gas: 7)\n  6205: a1 = u64 [s1 + 0xa0]\n  6209: a0 = sp + 0xffffffffffffffe0\n  6212: a0 = a0 & 0xffffffffffffffe0\n  6215: u64 [s1 + 0x90] = a0\n  6219: sp = a0\n  6221: a0 = i32 [a1]\n  6223: jump @222 if a0 >u 63\n      : @221 (gas: 2)\n  6227: u32 [a1 + 0] = 0x40\n  6230: fallthrough\n      : @222 (gas: 12)\n  6231: a0 = sp + 0xffffffffffffffe0\n  6234: a0 = a0 & 0xffffffffffffffe0\n  6237: u64 [s1 + 0x78] = a0\n  6240: sp = a0\n  6242: i32 a2 = a0 + 0\n  6244: a1 = 0x40\n  6247: a0 = u64 [s1 + 0x98]\n  6251: ra = 0xae\n  6255: ecalli 6 // 'hash_keccak_256'\n  6257: a3 = u64 [s1 + 0x78]\n  6260: t0 = 0xb0\n  6264: jump @1552\n      : @223 [@dyn 87] (gas: 2)\n  6268: a3 = u64 [s1 + 0x78]\n  6271: t0 = 176, jump @1552\n      : @224 [@dyn 88] (gas: 3)\n  6278: i32 a0 = a0 + 0xfffffffffffffe00\n  6282: a0 = a0 + s1\n  6285: ra = 178, jump @27\n      : @225 [@dyn 89] (gas: 22)\n  6291: a5 = s1 + 0x2858\n  6295: a3 = u64 [a5 + 0x5a8]\n  6299: a0 = u64 [a5 + 0x5b0]\n  6303: a1 = u64 [a5 + 0x5b8]\n  6307: a2 = u64 [a5 + 0x5c0]\n  6311: a4 = u64 [s1 + 0xd8]\n  6315: u64 [a5 + 0x560] = a4\n  6319: a4 = u64 [s1 + 0xd0]\n  6323: u64 [a5 + 0x558] = a4\n  6327: a4 = u64 [s1 + 0xc8]\n  6331: u64 [a5 + 0x550] = a4\n  6335: a4 = u64 [s1 + 0xc0]\n  6339: u64 [a5 + 0x548] = a4\n  6343: a4 = a5 + 0x500\n  6347: u64 [a4 + 0x80] = a2\n  6351: u64 [a4 + 0x78] = a1\n  6354: u64 [a4 + 0x70] = a0\n  6357: a0 = s1 + 0x2de0\n  6361: a1 = s1 + 0x2dc0\n  6365: a2 = s1 + 0x2da0\n  6369: u64 [a4 + 0x68] = a3\n  6372: ra = 180, jump @1336\n      : @226 [@dyn 90] (gas: 15)\n  6378: a3 = s1 + 0x2858\n  6382: a4 = a3 + 0x500\n  6386: a0 = u64 [a4 + 0xa0]\n  6390: a1 = u64 [a4 + 0x98]\n  6394: a2 = u64 [a4 + 0x90]\n  6398: a3 = u64 [a4 + 0x88]\n  6402: a4 = s1 + 0x3858\n  6406: u64 [a4 + 0x500] = a0\n  6410: a0 = a4 + 0x400\n  6414: u64 [a0 + 0xf8] = a1\n  6418: u64 [a0 + 0xf0] = a2\n  6422: u64 [a0 + 0xe8] = a3\n  6426: a1 = s1 + 0x3d40\n  6430: a0 = u64 [s1 + 0x90]\n  6434: ra = 182, jump @31\n      : @227 [@dyn 91] (gas: 12)\n  6440: a2 = s1 + 0x2858\n  6444: u64 [a2 + 1344] = 0\n  6448: a0 = u64 [s1 + 0x80]\n  6452: a3 = a2 + 0x500\n  6456: u64 [a3 + 0x38] = a0\n  6459: a0 = u64 [s1 + 0xb0]\n  6463: u64 [a3 + 0x30] = a0\n  6466: a1 = s1 + 0x2d80\n  6470: a0 = u64 [s1 + 0xb8]\n  6474: u64 [a3 + 0x28] = a0\n  6477: a0 = 0\n  6479: ra = 184, jump @25\n      : @228 [@dyn 92] (gas: 3)\n  6485: t0 = 0xba\n  6489: a1 = s1 + 0x2858\n  6493: fallthrough\n      : @229 [@dyn 93] (gas: 8)\n  6494: u64 [a1 + 1312] = 0\n  6498: u64 [a1 + 1304] = 0\n  6502: u64 [a1 + 1288] = 0x4\n  6507: a2 = a1\n  6509: a0 = 0x20\n  6512: a1 = s1 + 0x2d60\n  6516: u64 [a2 + 1296] = 0\n  6520: ra = 188, jump @25\n      : @230 [@dyn 94] (gas: 7)\n  6526: a1 = u64 [s1 + 0xa0]\n  6530: a0 = sp + 0xffffffffffffffe0\n  6533: a0 = a0 & 0xffffffffffffffe0\n  6536: u64 [s1 + 0x90] = a0\n  6540: sp = a0\n  6542: a0 = i32 [a1]\n  6544: jump @232 if a0 >=u 64\n      : @231 (gas: 2)\n  6548: u32 [a1 + 0] = 0x40\n  6551: fallthrough\n      : @232 (gas: 12)\n  6552: a0 = sp + 0xffffffffffffffe0\n  6555: a0 = a0 & 0xffffffffffffffe0\n  6558: u64 [s1 + 0xa0] = a0\n  6562: sp = a0\n  6564: i32 a2 = a0 + 0\n  6566: a1 = 0x40\n  6569: a0 = u64 [s1 + 0x98]\n  6573: ra = 0xbe\n  6577: ecalli 6 // 'hash_keccak_256'\n  6579: a3 = u64 [s1 + 0xa0]\n  6583: t0 = 0xc0\n  6587: jump @1552\n      : @233 [@dyn 95] (gas: 2)\n  6591: a3 = u64 [s1 + 0xa0]\n  6595: t0 = 192, jump @1552\n      : @234 [@dyn 96] (gas: 3)\n  6602: i32 a0 = a0 + 0xfffffffffffffd40\n  6606: a0 = a0 + s1\n  6609: ra = 194, jump @27\n      : @235 [@dyn 97] (gas: 22)\n  6615: a5 = s1 + 0x2858\n  6619: a3 = u64 [a5 + 0x4e8]\n  6623: a0 = u64 [a5 + 0x4f0]\n  6627: a1 = u64 [a5 + 0x4f8]\n  6631: a2 = u64 [a5 + 0x500]\n  6635: a4 = u64 [s1 + 0xd8]\n  6639: u64 [a5 + 0x4a0] = a4\n  6643: a4 = u64 [s1 + 0xd0]\n  6647: u64 [a5 + 0x498] = a4\n  6651: a4 = u64 [s1 + 0xc8]\n  6655: u64 [a5 + 0x490] = a4\n  6659: a4 = u64 [s1 + 0xc0]\n  6663: u64 [a5 + 0x488] = a4\n  6667: a4 = a5 + 0x400\n  6671: u64 [a4 + 0xc0] = a2\n  6675: u64 [a4 + 0xb8] = a1\n  6679: u64 [a4 + 0xb0] = a0\n  6683: a0 = s1 + 0x2d20\n  6687: a1 = s1 + 0x2d00\n  6691: a2 = s1 + 0x2ce0\n  6695: u64 [a4 + 0xa8] = a3\n  6699: ra = 196, jump @1344\n      : @236 [@dyn 98] (gas: 2)\n  6705: a0 = 0x3000\n  6709: t0 = 198, jump @1576\n      : @237 [@dyn 99] (gas: 13)\n  6716: a0 = u64 [a4 + 0xe0]\n  6720: a1 = u64 [a4 + 0xd8]\n  6724: a2 = u64 [a4 + 0xd0]\n  6728: a3 = u64 [a4 + 0xc8]\n  6732: a4 = s1 + 0x3858\n  6736: a5 = a4 + 0x500\n  6740: u64 [a5 + 0x20] = a0\n  6743: u64 [a5 + 0x18] = a1\n  6746: u64 [a5 + 0x10] = a2\n  6749: u64 [a5 + 0x8] = a3\n  6752: a1 = s1 + 0x3d60\n  6756: a0 = u64 [s1 + 0x90]\n  6760: ra = 200, jump @31\n      : @238 [@dyn 100] (gas: 3)\n  6766: a0 = s1 + 0x2cc0\n  6770: a1 = 0x40\n  6773: ra = 202, jump @23\n      : @239 [@dyn 101] (gas: 7)\n  6779: a3 = s1 + 0x2858\n  6783: a5 = a3 + 0x400\n  6787: a4 = u64 [a5 + 0x80]\n  6791: a1 = u64 [a5 + 0x78]\n  6794: a2 = u64 [a5 + 0x70]\n  6797: a0 = u64 [a5 + 0x68]\n  6800: t0 = 204, jump @1528\n      : @240 [@dyn 102] (gas: 1)\n  6807: jump @242 if a1 == 0\n      : @241 (gas: 1)\n  6810: jump @1003\n      : @242 (gas: 12)\n  6813: a1 = u64 [s1 + 0xc0]\n  6817: a4 = a3 + 0x400\n  6821: u64 [a4 + 0x48] = a1\n  6824: a1 = u64 [s1 + 0xc8]\n  6828: u64 [a4 + 0x50] = a1\n  6831: a1 = u64 [s1 + 0xd0]\n  6835: u64 [a4 + 0x58] = a1\n  6838: a1 = s1 + 0x2ca0\n  6842: a2 = u64 [s1 + 0xd8]\n  6846: u64 [a4 + 0x60] = a2\n  6849: u64 [s1 + 0xd8] = a0\n  6853: ra = 206, jump @25\n      : @243 [@dyn 103] (gas: 6)\n  6859: a0 = u64 [s1 + 0x88]\n  6863: ra = 0xd0\n  6867: ecalli 3 // 'caller'\n  6869: a2 = u64 [s1 + 0xa8]\n  6873: t0 = 0xd2\n  6877: jump @1522\n      : @244 [@dyn 104] (gas: 2)\n  6881: a2 = u64 [s1 + 0xa8]\n  6885: t0 = 210, jump @1522\n      : @245 [@dyn 105] (gas: 43)\n  6892: t0 = a1 | a0\n  6895: a3 = a3 >> 0x20\n  6898: a2 = reverse a2\n  6900: a1 = a2 << 0x20\n  6903: a1 = a1 | a3\n  6906: a2 = a2 >> 0x20\n  6909: a3 = s1 + 0x2858\n  6913: a0 = u64 [s1 + 0x80]\n  6917: u64 [a3 + 0x3f8] = a0\n  6921: a3 = u64 [0x20030]\n  6926: a4 = s1 + 0x2858\n  6930: u64 [a4 + 1024] = 0\n  6934: a4 = s1 + 0x2858\n  6938: a0 = u64 [s1 + 0xb0]\n  6942: u64 [a4 + 0x3f0] = a0\n  6946: a4 = s1 + 0x2858\n  6950: a0 = u64 [s1 + 0xb8]\n  6954: u64 [a4 + 0x3e8] = a0\n  6958: a0 = s1 + 0x2858\n  6962: u64 [a0 + 0x440] = a3\n  6966: a3 = u64 [0x20038]\n  6971: a4 = u64 [0x20040]\n  6976: a5 = u64 [0x20048]\n  6981: a0 = s1 + 0x2858\n  6985: u64 [a0 + 1056] = 0\n  6989: a0 = s1 + 0x2858\n  6993: u64 [a0 + 0x438] = a3\n  6997: a0 = s1 + 0x2858\n  7001: u64 [a0 + 0x430] = a4\n  7005: a0 = s1 + 0x2858\n  7009: u64 [a0 + 0x428] = a5\n  7013: a0 = s1 + 0x2858\n  7017: u64 [a0 + 0x418] = a2\n  7021: a0 = s1 + 0x2858\n  7025: u64 [a0 + 0x410] = a1\n  7029: a1 = 0x20\n  7032: a2 = s1 + 0x2c80\n  7036: a3 = s1 + 0x2c60\n  7040: a4 = s1 + 0x2c40\n  7044: a0 = s1 + 0x2858\n  7048: u64 [a0 + 0x408] = t0\n  7052: a0 = u64 [s1 + 0xd8]\n  7056: ra = 212, jump @34\n      : @246 [@dyn 106] (gas: 3)\n  7062: a0 = s1 + 0x2c20\n  7066: a1 = 0x40\n  7069: ra = 214, jump @23\n      : @247 [@dyn 107] (gas: 7)\n  7075: a3 = s1 + 0x2858\n  7079: a5 = a3 + 0x300\n  7083: a4 = u64 [a5 + 0xe0]\n  7087: a1 = u64 [a5 + 0xd8]\n  7091: a2 = u64 [a5 + 0xd0]\n  7095: a0 = u64 [a5 + 0xc8]\n  7099: t0 = 216, jump @1528\n      : @248 [@dyn 108] (gas: 1)\n  7106: jump @250 if a1 == 0\n      : @249 (gas: 1)\n  7109: jump @1003\n      : @250 (gas: 8)\n  7112: u64 [a3 + 960] = 0\n  7116: u64 [a3 + 952] = 0\n  7120: u64 [a3 + 936] = 0x1\n  7125: a1 = s1 + 0x2c00\n  7129: u64 [a3 + 944] = 0\n  7133: u64 [s1 + 0xd8] = a0\n  7137: ra = 0x410\n  7141: jump @25\n      : @251 (gas: 8)\n  7144: u64 [a3 + 1280] = 0\n  7148: u64 [a3 + 1272] = 0\n  7152: u64 [a3 + 1264] = 0\n  7156: u64 [a3 + 1256] = 0\n  7160: a0 = s1 + 0x3000\n  7164: i32 a0 = a0 + 0x540\n  7168: ecalli 10 // 'value_transferred'\n  7170: fallthrough\n      : @252 (gas: 10)\n  7171: a3 = s1 + 0x3058\n  7175: a4 = a3 + 0x400\n  7179: a0 = u64 [a4 + 0xf8]\n  7183: a1 = u64 [a3 + 0x500]\n  7187: a2 = u64 [a4 + 0xf0]\n  7191: a3 = u64 [a4 + 0xe8]\n  7195: a1 = a1 | a2\n  7198: a0 = a0 | a3\n  7201: a0 = a0 | a1\n  7204: jump @254 if a0 == 0\n      : @253 (gas: 1)\n  7207: jump @1104\n      : @254 (gas: 3)\n  7210: a0 = u64 [s1 + 0x18]\n  7213: a0 = i32 [a0]\n  7215: jump @256 if a0 >u 3\n      : @255 (gas: 1)\n  7219: jump @1105\n      : @256 (gas: 3)\n  7222: a0 = s1 + 0x2a0\n  7226: a1 = 0x40\n  7229: ra = 218, jump @23\n      : @257 [@dyn 109] (gas: 16)\n  7235: a0 = u64 [s1 + 0x2b8]\n  7239: u64 [s1 + 0x38] = a0\n  7242: a0 = u64 [s1 + 0x2b0]\n  7246: u64 [s1 + 0x40] = a0\n  7249: a0 = u64 [s1 + 0x2a8]\n  7253: u64 [s1 + 0x48] = a0\n  7256: a0 = u64 [s1 + 0x2a0]\n  7260: u64 [s1 + 0x50] = a0\n  7263: a0 = s1 + 0x3058\n  7267: u64 [a0 + 1312] = 0\n  7271: u64 [a0 + 1304] = 0\n  7275: u64 [a0 + 1296] = 0\n  7279: u64 [a0 + 1288] = 0\n  7283: a0 = s1 + 0x280\n  7287: a1 = s1 + 0x3560\n  7291: ra = 220, jump @27\n      : @258 [@dyn 110] (gas: 34)\n  7297: a2 = u64 [s1 + 0x290]\n  7301: t2 = u64 [s1 + 0x288]\n  7305: t0 = u64 [s1 + 0x298]\n  7309: a5 = u64 [s1 + 0x280]\n  7313: a0 = a2 << 0x3f\n  7316: a1 = t2 >> 0x1\n  7319: a0 = a0 | a1\n  7322: a1 = t0 << 0x3f\n  7325: u64 [s1 + 0xd0] = a2\n  7329: a2 = a2 >> 0x1\n  7332: a1 = a1 | a2\n  7335: a2 = t2 << 0x3f\n  7338: a3 = a5 >> 0x1\n  7341: a4 = a3 | a2\n  7344: a2 = t0 >> 0x1\n  7347: u64 [s1 + 0xc8] = a5\n  7351: a5 = a5 & 0x1\n  7354: a3 = -a5\n  7356: a1 = a1 & a3\n  7359: t1 = a3 & a0\n  7362: a2 = a2 & a3\n  7365: ra = a4 & 0x7f\n  7368: a4 = ra if a5 == 0\n  7371: u64 [s1 + 0x98] = a4\n  7375: a0 = a4 <u 0x20\n  7378: u64 [s1 + 0x88] = t1\n  7382: a0 = 0 if t1 != 0\n  7384: u64 [s1 + 0x90] = a1\n  7388: u64 [s1 + 0x80] = a2\n  7392: a1 = a1 | a2\n  7395: a0 = 0 if a1 != 0\n  7397: u64 [s1 + 0xd8] = a5\n  7401: a1 = a5 <u 0x1\n  7404: jump @260 if a1 == a0\n      : @259 (gas: 1)\n  7407: jump @1106\n      : @260 (gas: 12)\n  7410: a2 = u64 [s1 + 0x40]\n  7413: a4 = u64 [s1 + 0x50]\n  7416: a0 = a4 | a2\n  7419: a1 = u64 [s1 + 0x38]\n  7422: a3 = u64 [s1 + 0x48]\n  7425: a1 = a1 | a3\n  7428: a0 = a0 | a1\n  7431: a0 = a0 >> 0x20\n  7434: a1 = a1 | a2\n  7437: a1 = a1 << 0x20\n  7440: a1 = a1 | a0\n  7443: jump @262 if a1 == 0\n      : @261 (gas: 1)\n  7446: jump @1003\n      : @262 (gas: 15)\n  7449: a0 = a4\n  7451: u64 [s1 + 0xb0] = ra\n  7455: u64 [s1 + 0xb8] = t2\n  7459: u64 [s1 + 0xc0] = t0\n  7463: a1 = u64 [s1 + 0x98]\n  7467: a3 = s1 + 0x200\n  7471: u64 [a3 + 0x60] = a1\n  7474: a1 = u64 [s1 + 0x88]\n  7478: u64 [a3 + 0x68] = a1\n  7481: a1 = u64 [s1 + 0x90]\n  7485: u64 [a3 + 0x70] = a1\n  7488: a1 = s1 + 0x260\n  7492: a2 = u64 [s1 + 0x80]\n  7496: u64 [a3 + 0x78] = a2\n  7499: ra = 222, jump @25\n      : @263 [@dyn 111] (gas: 2)\n  7505: a0 = u64 [s1 + 0xd8]\n  7509: jump @265 if a0 == 0\n      : @264 (gas: 1)\n  7512: jump @956\n      : @265 (gas: 1)\n  7515: t0 = 224, jump @1554\n      : @266 [@dyn 112] (gas: 1)\n  7522: jump @268 if a1 != 0\n      : @267 (gas: 1)\n  7525: jump @1003\n      : @268 (gas: 13)\n  7528: a0 = u64 [s1 + 0xc8]\n  7532: a1 = a0 & 0xffffffffffffff00\n  7536: i32 a0 = a3 + 0x20\n  7539: a3 = u64 [s1 + 0xb8]\n  7543: a2 = s1 + 0x100\n  7547: u64 [a2 + 0xe8] = a3\n  7551: u64 [a2 + 0xe0] = a1\n  7555: a1 = u64 [s1 + 0xd0]\n  7559: u64 [a2 + 0xf0] = a1\n  7563: a1 = s1 + 0x1e0\n  7567: a3 = u64 [s1 + 0xc0]\n  7571: u64 [a2 + 0xf8] = a3\n  7575: ra = 226, jump @25\n      : @269 [@dyn 113] (gas: 9)\n  7581: a5 = u64 [s1 + 0x50]\n  7584: t2 = 0\n  7586: t1 = 0\n  7588: t0 = 0\n  7590: a0 = u64 [s1 + 0xb0]\n  7594: a0 = a0 >u 0\n  7596: a0 = a0 << 0x5\n  7599: u64 [s1 + 0xd8] = a0\n  7603: jump @995\n      : @270 (gas: 8)\n  7606: u64 [a3 + 1920] = 0\n  7610: u64 [a3 + 1912] = 0\n  7614: u64 [a3 + 1904] = 0\n  7618: u64 [a3 + 1896] = 0\n  7622: a0 = s1 + 0x3000\n  7626: i32 a0 = a0 + 0x7c0\n  7630: ecalli 10 // 'value_transferred'\n  7632: fallthrough\n      : @271 (gas: 10)\n  7633: a3 = s1 + 0x3058\n  7637: a4 = a3 + 0x700\n  7641: a0 = u64 [a4 + 0x78]\n  7644: a1 = u64 [a4 + 0x80]\n  7648: a2 = u64 [a4 + 0x70]\n  7651: a3 = u64 [a4 + 0x68]\n  7654: a1 = a1 | a2\n  7657: a0 = a0 | a3\n  7660: a0 = a0 | a1\n  7663: jump @273 if a0 == 0\n      : @272 (gas: 1)\n  7666: jump @1112\n      : @273 (gas: 4)\n  7669: a0 = u64 [s1 + 0x18]\n  7672: a0 = i32 [a0]\n  7674: a1 = 0x43\n  7677: jump @275 if a1 <u a0\n      : @274 (gas: 1)\n  7680: jump @1113\n      : @275 (gas: 4)\n  7683: a0 = s1 + 0x14a0\n  7687: ra = 0xe4\n  7691: t0 = 0x504\n  7695: jump @1574\n      : @276 [@dyn 114] (gas: 28)\n  7699: a1 = s1 + 0x1058\n  7703: a0 = u64 [a1 + 0x450]\n  7707: u64 [s1 + 0xd0] = a0\n  7711: a0 = u64 [a1 + 0x448]\n  7715: u64 [s1 + 0xd8] = a0\n  7719: a0 = u32 [a1 + 0x458]\n  7723: u64 [s1 + 0xc8] = a0\n  7727: a0 = s1 + 0x3000\n  7731: i32 a0 = a0 + 0x7e0\n  7735: a1 = 0x24\n  7738: ecalli 1 // 'call_data_load'\n  7740: a1 = s1 + 0x3058\n  7744: a2 = a1 + 0x700\n  7748: a0 = u64 [a2 + 0xa0]\n  7752: u64 [s1 + 0xc0] = a0\n  7756: a0 = u64 [a2 + 0x98]\n  7760: u64 [s1 + 0xb8] = a0\n  7764: a0 = u64 [a2 + 0x90]\n  7768: u64 [s1 + 0xb0] = a0\n  7772: a0 = u64 [a2 + 0x88]\n  7776: u64 [s1 + 0xa8] = a0\n  7780: u64 [a1 + 1984] = 0\n  7784: u64 [a1 + 1976] = 0\n  7788: u64 [a1 + 1968] = 0\n  7792: u64 [a2 + 168] = 0x6\n  7797: a0 = s1 + 0x1480\n  7801: a1 = s1 + 0x3800\n  7805: ra = 230, jump @27\n      : @277 [@dyn 115] (gas: 15)\n  7811: a0 = s1 + 0x1058\n  7815: a1 = u64 [a0 + 0x430]\n  7819: u64 [s1 + 0xa0] = a1\n  7823: a1 = u64 [a0 + 0x428]\n  7827: u64 [s1 + 0x98] = a1\n  7831: a0 = u32 [a0 + 0x438]\n  7835: u64 [s1 + 0x90] = a0\n  7839: a0 = 0x301b0\n  7844: u64 [s1 + 0x88] = a0\n  7848: i32 a0 = a0 + 0\n  7850: ra = 0xe8\n  7854: ecalli 3 // 'caller'\n  7856: a2 = u64 [s1 + 0x88]\n  7860: t0 = 0xea\n  7864: jump @1530\n      : @278 [@dyn 116] (gas: 2)\n  7868: a2 = u64 [s1 + 0x88]\n  7872: t0 = 234, jump @1530\n      : @279 [@dyn 117] (gas: 16)\n  7879: a2 = u64 [s1 + 0x90]\n  7883: a1 = a1 ^ a2\n  7886: a2 = u64 [s1 + 0x98]\n  7890: a0 = a0 ^ a2\n  7893: a0 = a0 | a1\n  7896: a1 = u64 [s1 + 0xa0]\n  7900: a1 = a1 ^ a3\n  7903: a0 = a0 | a1\n  7906: a0 = a0 <u 0x1\n  7909: a1 = s1 + 0x1058\n  7913: u64 [a1 + 1056] = 0\n  7917: u64 [a1 + 1048] = 0\n  7921: u64 [a1 + 0x408] = a0\n  7925: a0 = s1 + 0x1460\n  7929: u64 [a1 + 1040] = 0\n  7933: ra = 236, jump @1352\n      : @280 [@dyn 118] (gas: 15)\n  7939: a0 = u64 [s1 + 0xd8]\n  7943: a1 = u64 [s1 + 0xc8]\n  7947: a0 = a0 | a1\n  7950: a1 = u64 [s1 + 0xd0]\n  7954: a0 = a0 | a1\n  7957: a0 = a0 >u 0\n  7959: a1 = s1 + 0x1058\n  7963: u64 [a1 + 1024] = 0\n  7967: u64 [a1 + 1016] = 0\n  7971: u64 [a1 + 0x3e8] = a0\n  7975: a0 = s1 + 0x1440\n  7979: u64 [a1 + 1008] = 0\n  7983: ra = 0xee\n  7987: t0 = 0x5c6\n  7991: jump @1542\n      : @281 [@dyn 119] (gas: 12)\n  7995: a2 = s1 + 0x1058\n  7999: u64 [a2 + 992] = 0\n  8003: a0 = u64 [s1 + 0xc8]\n  8007: a3 = a2 + 0x300\n  8011: u64 [a3 + 0xd8] = a0\n  8015: a0 = u64 [s1 + 0xd0]\n  8019: u64 [a3 + 0xd0] = a0\n  8023: a1 = s1 + 0x1420\n  8027: a0 = u64 [s1 + 0xd8]\n  8031: u64 [a3 + 0xc8] = a0\n  8035: a0 = 0\n  8037: ra = 240, jump @25\n      : @282 [@dyn 120] (gas: 3)\n  8043: t0 = 0xf2\n  8047: a1 = s1 + 0x1058\n  8051: fallthrough\n      : @283 [@dyn 121] (gas: 8)\n  8052: u64 [a1 + 960] = 0\n  8056: u64 [a1 + 952] = 0\n  8060: u64 [a1 + 936] = 0x4\n  8065: a2 = a1\n  8067: a0 = 0x20\n  8070: a1 = s1 + 0x1400\n  8074: u64 [a2 + 944] = 0\n  8078: ra = 244, jump @25\n      : @284 [@dyn 122] (gas: 6)\n  8084: a0 = sp + 0xffffffffffffffe0\n  8087: a0 = a0 & 0xffffffffffffffe0\n  8090: u64 [s1 + 0xa0] = a0\n  8094: sp = a0\n  8096: a1 = i32 [0x2019c]\n  8101: jump @286 if a1 >u 63\n      : @285 (gas: 2)\n  8105: u32 [0x2019c] = 0x40\n  8111: fallthrough\n      : @286 (gas: 14)\n  8112: a0 = sp + 0xffffffffffffffe0\n  8115: a2 = a0 & 0xffffffffffffffe0\n  8118: u64 [s1 + 0x98] = a2\n  8122: sp = a2\n  8124: a0 = 0x201b0\n  8129: i32 a0 = a0 + 0\n  8131: i32 a2 = a2 + 0\n  8133: a1 = 0x40\n  8136: u64 [s1 + 0x90] = a0\n  8140: ra = 0xf6\n  8144: ecalli 6 // 'hash_keccak_256'\n  8146: a3 = u64 [s1 + 0x98]\n  8150: t0 = 0xf8\n  8154: jump @1529\n      : @287 [@dyn 123] (gas: 2)\n  8158: a3 = u64 [s1 + 0x98]\n  8162: t0 = 248, jump @1529\n      : @288 [@dyn 124] (gas: 7)\n  8169: a1 = u64 [s1 + 0xa0]\n  8173: u64 [a1 + 0x18] = a3\n  8176: u64 [a1 + 0x10] = a2\n  8179: u64 [a1 + 0x8] = a4\n  8182: u64 [a1] = a0\n  8184: a0 = s1 + 0x13e0\n  8188: ra = 250, jump @27\n      : @289 [@dyn 125] (gas: 22)\n  8194: a4 = s1 + 0x1058\n  8198: a3 = u64 [a4 + 0x388]\n  8202: a0 = u64 [a4 + 0x390]\n  8206: a1 = u64 [a4 + 0x398]\n  8210: a2 = u64 [a4 + 0x3a0]\n  8214: a5 = u64 [s1 + 0xc0]\n  8218: u64 [a4 + 0x340] = a5\n  8222: a5 = u64 [s1 + 0xb8]\n  8226: u64 [a4 + 0x338] = a5\n  8230: a5 = u64 [s1 + 0xb0]\n  8234: u64 [a4 + 0x330] = a5\n  8238: a5 = u64 [s1 + 0xa8]\n  8242: u64 [a4 + 0x328] = a5\n  8246: a5 = a4 + 0x300\n  8250: u64 [a5 + 0x60] = a2\n  8253: u64 [a5 + 0x58] = a1\n  8256: u64 [a5 + 0x50] = a0\n  8259: a0 = s1 + 0x13c0\n  8263: a1 = s1 + 0x13a0\n  8267: a2 = s1 + 0x1380\n  8271: u64 [a5 + 0x48] = a3\n  8274: ra = 252, jump @1344\n      : @290 [@dyn 126] (gas: 15)\n  8280: a3 = s1 + 0x1058\n  8284: a4 = a3 + 0x300\n  8288: a0 = u64 [a4 + 0x80]\n  8292: a1 = u64 [a4 + 0x78]\n  8295: a2 = u64 [a4 + 0x70]\n  8298: a3 = u64 [a4 + 0x68]\n  8301: a4 = s1 + 0x3058\n  8305: a5 = a4 + 0x700\n  8309: u64 [a5 + 0xe0] = a0\n  8313: u64 [a5 + 0xd8] = a1\n  8317: u64 [a5 + 0xd0] = a2\n  8321: u64 [a5 + 0xc8] = a3\n  8325: a1 = s1 + 0x3820\n  8329: a0 = u64 [s1 + 0xa0]\n  8333: ra = 254, jump @31\n      : @291 [@dyn 127] (gas: 8)\n  8339: a1 = s1 + 0x3858\n  8343: u64 [a1 + 0] = 0\n  8345: u64 [a1 + 4294967288] = 0\n  8348: u64 [a1 + 4294967280] = 0\n  8351: u64 [a1 + 4294967272] = 0x3\n  8355: a0 = s1 + 0x1360\n  8359: a1 = s1 + 0x3840\n  8363: ra = 256, jump @27\n      : @292 [@dyn 128] (gas: 23)\n  8369: a4 = s1 + 0x1058\n  8373: a5 = a4 + 0x300\n  8377: a3 = u64 [a5 + 0x8]\n  8380: a0 = u64 [a5 + 0x10]\n  8383: a1 = u64 [a5 + 0x18]\n  8386: a2 = u64 [a5 + 0x20]\n  8389: a5 = u64 [s1 + 0xc0]\n  8393: u64 [a4 + 0x2c0] = a5\n  8397: a5 = u64 [s1 + 0xb8]\n  8401: u64 [a4 + 0x2b8] = a5\n  8405: a5 = u64 [s1 + 0xb0]\n  8409: u64 [a4 + 0x2b0] = a5\n  8413: a5 = u64 [s1 + 0xa8]\n  8417: u64 [a4 + 0x2a8] = a5\n  8421: a5 = a4 + 0x200\n  8425: u64 [a5 + 0xe0] = a2\n  8429: u64 [a5 + 0xd8] = a1\n  8433: u64 [a5 + 0xd0] = a0\n  8437: a0 = s1 + 0x1340\n  8441: a1 = s1 + 0x1320\n  8445: a2 = s1 + 0x1300\n  8449: u64 [a5 + 0xc8] = a3\n  8453: ra = 258, jump @1344\n      : @293 [@dyn 129] (gas: 18)\n  8459: a3 = s1 + 0x1058\n  8463: a4 = a3 + 0x200\n  8467: a0 = u64 [a4 + 0xe8]\n  8471: a1 = u64 [a4 + 0xf0]\n  8475: a2 = u64 [a4 + 0xf8]\n  8479: a3 = u64 [a3 + 0x300]\n  8483: a4 = s1 + 0x3858\n  8487: u64 [a4 + 32] = 0\n  8490: u64 [a4 + 24] = 0\n  8493: u64 [a4 + 16] = 0\n  8496: u64 [a4 + 8] = 0x3\n  8500: u64 [a4 + 0x40] = a3\n  8503: u64 [a4 + 0x38] = a2\n  8506: u64 [a4 + 0x30] = a1\n  8509: u64 [a4 + 0x28] = a0\n  8512: a0 = s1 + 0x3860\n  8516: a1 = s1 + 0x3880\n  8520: ra = 260, jump @31\n      : @294 [@dyn 130] (gas: 3)\n  8526: a0 = s1 + 0x12e0\n  8530: a1 = 0x40\n  8533: ra = 262, jump @23\n      : @295 [@dyn 131] (gas: 7)\n  8539: a3 = s1 + 0x1058\n  8543: a5 = a3 + 0x200\n  8547: a0 = u64 [a5 + 0xa0]\n  8551: a1 = u64 [a5 + 0x98]\n  8555: a2 = u64 [a5 + 0x90]\n  8559: a4 = u64 [a5 + 0x88]\n  8563: t0 = 264, jump @1526\n      : @296 [@dyn 132] (gas: 1)\n  8570: jump @298 if a0 == 0\n      : @297 (gas: 1)\n  8573: jump @1003\n      : @298 (gas: 13)\n  8576: a0 = u64 [s1 + 0xa8]\n  8580: a2 = a3 + 0x200\n  8584: u64 [a2 + 0x68] = a0\n  8587: a0 = u64 [s1 + 0xb0]\n  8591: u64 [a2 + 0x70] = a0\n  8594: a0 = u64 [s1 + 0xb8]\n  8598: u64 [a2 + 0x78] = a0\n  8601: a1 = s1 + 0x12c0\n  8605: a0 = u64 [s1 + 0xc0]\n  8609: u64 [a2 + 0x80] = a0\n  8613: a0 = a4\n  8615: u64 [s1 + 0xa0] = a4\n  8619: ra = 266, jump @25\n      : @299 [@dyn 133] (gas: 28)\n  8625: a0 = u64 [0x200a8]\n  8630: a1 = s1 + 0x1058\n  8634: u64 [a1 + 576] = 0\n  8638: a1 = s1 + 0x1058\n  8642: a2 = u64 [s1 + 0xc8]\n  8646: u64 [a1 + 0x238] = a2\n  8650: a1 = s1 + 0x1058\n  8654: u64 [a1 + 0x260] = a0\n  8658: a0 = u64 [0x200b0]\n  8663: a1 = u64 [0x200b8]\n  8668: a2 = u64 [0x200c0]\n  8673: a3 = s1 + 0x1058\n  8677: a4 = u64 [s1 + 0xd0]\n  8681: u64 [a3 + 0x230] = a4\n  8685: a3 = s1 + 0x1058\n  8689: u64 [a3 + 0x258] = a0\n  8693: a0 = s1 + 0x1058\n  8697: u64 [a0 + 0x250] = a1\n  8701: a0 = s1 + 0x1058\n  8705: u64 [a0 + 0x248] = a2\n  8709: a1 = 0x20\n  8712: a2 = s1 + 0x12a0\n  8716: a3 = s1 + 0x1280\n  8720: a0 = s1 + 0x1058\n  8724: a4 = u64 [s1 + 0xd8]\n  8728: u64 [a0 + 0x228] = a4\n  8732: a0 = u64 [s1 + 0xa0]\n  8736: ra = 268, jump @32\n      : @300 [@dyn 134] (gas: 3)\n  8742: a0 = s1 + 0x1260\n  8746: a1 = 0x40\n  8749: ra = 270, jump @23\n      : @301 [@dyn 135] (gas: 7)\n  8755: a3 = s1 + 0x1058\n  8759: a5 = a3 + 0x200\n  8763: a0 = u64 [a5 + 0x20]\n  8766: a1 = u64 [a5 + 0x18]\n  8769: a2 = u64 [a5 + 0x10]\n  8772: a4 = u64 [a5 + 0x8]\n  8775: t0 = 272, jump @1526\n      : @302 [@dyn 136] (gas: 1)\n  8782: jump @304 if a0 == 0\n      : @303 (gas: 1)\n  8785: jump @1003\n      : @304 (gas: 13)\n  8788: a0 = u64 [s1 + 0xa8]\n  8792: a1 = a3 + 0x100\n  8796: u64 [a1 + 0xe8] = a0\n  8800: a0 = u64 [s1 + 0xb0]\n  8804: u64 [a1 + 0xf0] = a0\n  8808: a0 = u64 [s1 + 0xb8]\n  8812: u64 [a1 + 0xf8] = a0\n  8816: a1 = s1 + 0x1240\n  8820: a0 = u64 [s1 + 0xc0]\n  8824: u64 [a3 + 0x200] = a0\n  8828: a0 = a4\n  8830: u64 [s1 + 0xc0] = a4\n  8834: ra = 274, jump @25\n      : @305 [@dyn 137] (gas: 27)\n  8840: a5 = s1 + 0x1058\n  8844: u64 [a5 + 416] = 0\n  8848: a0 = u64 [s1 + 0xc8]\n  8852: a4 = a5 + 0x100\n  8856: u64 [a4 + 0x98] = a0\n  8860: a0 = u64 [s1 + 0xd0]\n  8864: u64 [a4 + 0x90] = a0\n  8868: a0 = u64 [s1 + 0xd8]\n  8872: u64 [a4 + 0x88] = a0\n  8876: u64 [a5 + 448] = 0\n  8880: u64 [a5 + 440] = 0\n  8884: u64 [a5 + 432] = 0\n  8888: a0 = u64 [0x20030]\n  8893: a1 = u64 [0x20038]\n  8898: a2 = u64 [0x20040]\n  8903: a3 = u64 [0x20048]\n  8908: u64 [a4 + 0xe0] = a0\n  8912: u64 [a4 + 0xd8] = a1\n  8916: u64 [a4 + 0xd0] = a2\n  8920: u64 [a4 + 0xc8] = a3\n  8924: a1 = 0x20\n  8927: a2 = s1 + 0x1220\n  8931: a3 = s1 + 0x1200\n  8935: a4 = s1 + 0x11e0\n  8939: u64 [a5 + 424] = 0\n  8943: a0 = u64 [s1 + 0xc0]\n  8947: ra = 276, jump @34\n      : @306 [@dyn 138] (gas: 5)\n  8953: a0 = 0\n  8955: a1 = u64 [s1 + 0x90]\n  8959: a2 = 0\n  8961: ecalli 7 // 'seal_return'\n  8963: jump @1089\n      : @307 (gas: 9)\n  8966: u64 [a2 + 1440] = 0\n  8970: u64 [a2 + 1432] = 0\n  8974: u64 [a2 + 1424] = 0\n  8978: u64 [a2 + 1416] = 0\n  8982: a0 = s1 + 0x4000\n  8986: i32 a0 = a0 + 0xfffffffffffffde0\n  8990: ra = 0x116\n  8994: ecalli 10 // 'value_transferred'\n  8996: fallthrough\n      : @308 [@dyn 139] (gas: 3)\n  8997: a3 = s1 + 0x3858\n  9001: a4 = a3 + 0x500\n  9005: t0 = 280, jump @1571\n      : @309 [@dyn 140] (gas: 1)\n  9012: jump @311 if a0 == 0\n      : @310 (gas: 1)\n  9015: jump @1114\n      : @311 (gas: 4)\n  9018: a0 = u64 [s1 + 0x18]\n  9021: a0 = i32 [a0]\n  9023: a1 = 0x43\n  9026: jump @313 if a1 <u a0\n      : @312 (gas: 1)\n  9029: jump @1115\n      : @313 (gas: 6)\n  9032: a0 = 0xffffffff\n  9042: u64 [s1 + 0xd8] = a0\n  9046: a0 = s1 + 0x3460\n  9050: ra = 0x11a\n  9054: t0 = 0x504\n  9058: jump @1574\n      : @314 [@dyn 141] (gas: 11)\n  9062: a1 = s1 + 0x3058\n  9066: a0 = u64 [a1 + 0x408]\n  9070: u64 [s1 + 0xd0] = a0\n  9074: a0 = u64 [a1 + 0x410]\n  9078: u64 [s1 + 0xb0] = a0\n  9082: a0 = u32 [a1 + 0x418]\n  9086: u64 [s1 + 0xa8] = a0\n  9090: a0 = s1 + 0x3440\n  9094: ra = 0x11c\n  9098: t0 = 0x50e\n  9102: jump @1574\n      : @315 [@dyn 142] (gas: 19)\n  9106: a1 = s1 + 0x3058\n  9110: a2 = a1 + 0x300\n  9114: a0 = u64 [a2 + 0xf8]\n  9118: u64 [s1 + 0xc8] = a0\n  9122: a0 = u64 [a2 + 0xf0]\n  9126: u64 [s1 + 0xc0] = a0\n  9130: a0 = u64 [a2 + 0xe8]\n  9134: u64 [s1 + 0xb8] = a0\n  9138: u64 [a1 + 992] = 0\n  9142: a0 = u64 [s1 + 0xa8]\n  9146: u64 [a2 + 0xd8] = a0\n  9150: a0 = u64 [s1 + 0xb0]\n  9154: u64 [a2 + 0xd0] = a0\n  9158: a2 = a1\n  9160: a1 = s1 + 0x3420\n  9164: a0 = u64 [s1 + 0xd0]\n  9168: u64 [a2 + 0x3c8] = a0\n  9172: a0 = 0\n  9174: ra = 286, jump @25\n      : @316 [@dyn 143] (gas: 3)\n  9180: t0 = 0x120\n  9184: a1 = s1 + 0x3058\n  9188: fallthrough\n      : @317 [@dyn 144] (gas: 8)\n  9189: u64 [a1 + 960] = 0\n  9193: u64 [a1 + 952] = 0\n  9197: u64 [a1 + 936] = 0x5\n  9202: a2 = a1\n  9204: a0 = 0x20\n  9207: a1 = s1 + 0x3400\n  9211: u64 [a2 + 944] = 0\n  9215: ra = 290, jump @25\n      : @318 [@dyn 145] (gas: 3)\n  9221: a1 = 0x2019c\n  9226: a0 = i32 [0x2019c]\n  9231: jump @320 if a0 >u 63\n      : @319 (gas: 2)\n  9235: u32 [0x2019c] = 0x40\n  9241: fallthrough\n      : @320 (gas: 15)\n  9242: a0 = sp + 0xffffffffffffffe0\n  9245: a2 = a0 & 0xffffffffffffffe0\n  9248: u64 [s1 + 0xa8] = a2\n  9252: sp = a2\n  9254: a0 = 0x201b0\n  9259: i32 a0 = a0 + 0\n  9261: i32 a2 = a2 + 0\n  9263: u64 [s1 + 0xd0] = a1\n  9267: a1 = 0x40\n  9270: u64 [s1 + 0xb0] = a0\n  9274: ra = 0x124\n  9278: ecalli 6 // 'hash_keccak_256'\n  9280: a3 = u64 [s1 + 0xa8]\n  9284: t0 = 0x126\n  9288: jump @1579\n      : @321 [@dyn 146] (gas: 2)\n  9292: a3 = u64 [s1 + 0xa8]\n  9296: t0 = 294, jump @1579\n      : @322 [@dyn 147] (gas: 27)\n  9303: u64 [s1 + 0xa0] = a0\n  9307: a0 = reverse a1\n  9309: u64 [s1 + 0x98] = a0\n  9313: a0 = reverse a2\n  9315: u64 [s1 + 0x90] = a0\n  9319: a0 = reverse a3\n  9321: u64 [s1 + 0x88] = a0\n  9325: a0 = sp + 0xffffffffffffffe0\n  9328: a0 = a0 & 0xffffffffffffffe0\n  9331: u64 [s1 + 0xa8] = a0\n  9335: sp = a0\n  9337: a0 = u64 [s1 + 0xb8]\n  9341: a0 = a0 & 0xffffffffffffffff\n  9344: a2 = u64 [s1 + 0xc0]\n  9348: a1 = a2 & 0xffffffffffffffff\n  9351: a2 = u64 [s1 + 0xd8]\n  9355: a3 = u64 [s1 + 0xc8]\n  9359: a2 = a2 & a3\n  9362: a3 = s1 + 0x3058\n  9366: u64 [a3 + 928] = 0\n  9370: a4 = a3 + 0x300\n  9374: u64 [a4 + 0x98] = a2\n  9378: u64 [a4 + 0x90] = a1\n  9382: a1 = s1 + 0x33e0\n  9386: u64 [a4 + 0x88] = a0\n  9390: a0 = 0\n  9392: ra = 296, jump @25\n      : @323 [@dyn 148] (gas: 14)\n  9398: a0 = u64 [s1 + 0x88]\n  9402: a1 = s1 + 0x3058\n  9406: a2 = a1 + 0x300\n  9410: u64 [a2 + 0x80] = a0\n  9414: a0 = u64 [s1 + 0x90]\n  9418: u64 [a2 + 0x78] = a0\n  9421: a0 = u64 [s1 + 0x98]\n  9425: u64 [a2 + 0x70] = a0\n  9428: a3 = a1\n  9430: a0 = 0x20\n  9433: a1 = s1 + 0x33c0\n  9437: a2 = u64 [s1 + 0xa0]\n  9441: u64 [a3 + 0x368] = a2\n  9445: ra = 298, jump @25\n      : @324 [@dyn 149] (gas: 3)\n  9451: a1 = u64 [s1 + 0xd0]\n  9455: a0 = i32 [a1]\n  9457: jump @326 if a0 >u 63\n      : @325 (gas: 2)\n  9461: u32 [a1 + 0] = 0x40\n  9464: fallthrough\n      : @326 (gas: 12)\n  9465: a0 = sp + 0xffffffffffffffe0\n  9468: a0 = a0 & 0xffffffffffffffe0\n  9471: u64 [s1 + 0xd8] = a0\n  9475: sp = a0\n  9477: i32 a2 = a0 + 0\n  9479: a1 = 0x40\n  9482: a0 = u64 [s1 + 0xb0]\n  9486: ra = 0x12c\n  9490: ecalli 6 // 'hash_keccak_256'\n  9492: a3 = u64 [s1 + 0xd8]\n  9496: t0 = 0x12e\n  9500: jump @1529\n      : @327 [@dyn 150] (gas: 2)\n  9504: a3 = u64 [s1 + 0xd8]\n  9508: t0 = 302, jump @1529\n      : @328 [@dyn 151] (gas: 7)\n  9515: a1 = u64 [s1 + 0xa8]\n  9519: u64 [a1 + 0x18] = a3\n  9522: u64 [a1 + 0x10] = a2\n  9525: u64 [a1 + 0x8] = a4\n  9528: u64 [a1] = a0\n  9530: a0 = s1 + 0x33a0\n  9534: ra = 304, jump @27\n      : @329 [@dyn 152] (gas: 13)\n  9540: a1 = s1 + 0x3058\n  9544: a2 = a1 + 0x300\n  9548: a0 = u64 [a2 + 0x60]\n  9551: u64 [s1 + 0xd8] = a0\n  9555: a0 = u64 [a2 + 0x58]\n  9558: u64 [s1 + 0xd0] = a0\n  9562: a0 = u64 [a2 + 0x50]\n  9565: u64 [s1 + 0xc8] = a0\n  9569: a0 = u64 [a2 + 0x48]\n  9572: u64 [s1 + 0xc0] = a0\n  9576: a0 = s1 + 0x3380\n  9580: a1 = 0x40\n  9583: ra = 306, jump @23\n      : @330 [@dyn 153] (gas: 7)\n  9589: a3 = s1 + 0x3058\n  9593: a5 = a3 + 0x300\n  9597: a0 = u64 [a5 + 0x40]\n  9600: a1 = u64 [a5 + 0x38]\n  9603: a2 = u64 [a5 + 0x30]\n  9606: a4 = u64 [a5 + 0x28]\n  9609: t0 = 308, jump @1526\n      : @331 [@dyn 154] (gas: 1)\n  9616: jump @333 if a0 == 0\n      : @332 (gas: 1)\n  9619: jump @1003\n      : @333 (gas: 14)\n  9622: a0 = u64 [s1 + 0xc0]\n  9626: a2 = a3 + 0x300\n  9630: u64 [a2 + 0x8] = a0\n  9633: a0 = u64 [s1 + 0xc8]\n  9637: u64 [a2 + 0x10] = a0\n  9640: a0 = u64 [s1 + 0xd0]\n  9644: u64 [a2 + 0x18] = a0\n  9647: a1 = s1 + 0x3360\n  9651: a0 = u64 [s1 + 0xd8]\n  9655: u64 [a2 + 0x20] = a0\n  9658: a0 = a4\n  9660: u64 [s1 + 0xd8] = a4\n  9664: ra = 0x410\n  9668: jump @25\n      : @334 (gas: 9)\n  9671: u64 [a3 + 1408] = 0\n  9675: u64 [a3 + 1400] = 0\n  9679: u64 [a3 + 1392] = 0\n  9683: u64 [a3 + 1384] = 0\n  9687: a0 = s1 + 0x3000\n  9691: i32 a0 = a0 + 0x5c0\n  9695: ra = 0x136\n  9699: ecalli 10 // 'value_transferred'\n  9701: fallthrough\n      : @335 [@dyn 155] (gas: 10)\n  9702: a3 = s1 + 0x3058\n  9706: a4 = a3 + 0x500\n  9710: a0 = u64 [a4 + 0x78]\n  9713: a1 = u64 [a4 + 0x80]\n  9717: a2 = u64 [a4 + 0x70]\n  9720: a3 = u64 [a4 + 0x68]\n  9723: a1 = a1 | a2\n  9726: a0 = a0 | a3\n  9729: a0 = a0 | a1\n  9732: jump @337 if a0 == 0\n      : @336 (gas: 1)\n  9735: jump @1116\n      : @337 (gas: 4)\n  9738: a0 = u64 [s1 + 0x18]\n  9741: a0 = i32 [a0]\n  9743: a1 = 0x23\n  9746: jump @339 if a1 <u a0\n      : @338 (gas: 1)\n  9749: jump @1117\n      : @339 (gas: 5)\n  9752: a0 = s1 + 0x7ff\n  9756: a0 = a0 + 0xe1\n  9760: ra = 0x138\n  9764: t0 = 0x504\n  9768: jump @1574\n      : @340 [@dyn 156] (gas: 13)\n  9772: a3 = s1 + 0x7ff\n  9776: a3 = a3 + 0x51\n  9779: a0 = u64 [a3 + 0x90]\n  9783: a1 = u64 [a3 + 0x98]\n  9787: a2 = u32 [a3 + 0xa0]\n  9791: u64 [a3 + 136] = 0\n  9795: u64 [a3 + 0x80] = a2\n  9799: u64 [a3 + 0x78] = a1\n  9802: a1 = s1 + 0x7ff\n  9806: a1 = a1 + 0xc1\n  9810: u64 [a3 + 0x70] = a0\n  9813: a0 = 0\n  9815: ra = 314, jump @25\n      : @341 [@dyn 157] (gas: 11)\n  9821: a1 = s1 + 0x7ff\n  9825: a1 = a1 + 0x51\n  9828: u64 [a1 + 104] = 0\n  9831: u64 [a1 + 96] = 0\n  9834: u64 [a1 + 80] = 0x4\n  9838: a2 = a1\n  9840: a0 = 0x20\n  9843: a1 = s1 + 0x7ff\n  9847: a1 = a1 + 0xa1\n  9851: u64 [a2 + 88] = 0\n  9854: ra = 316, jump @25\n      : @342 [@dyn 158] (gas: 2)\n  9860: a1 = i32 [0x2019c]\n  9865: jump @344 if a1 >u 63\n      : @343 (gas: 2)\n  9869: u32 [0x2019c] = 0x40\n  9875: fallthrough\n      : @344 (gas: 13)\n  9876: a0 = sp + 0xffffffffffffffe0\n  9879: a2 = a0 & 0xffffffffffffffe0\n  9882: u64 [s1 + 0xd8] = a2\n  9886: sp = a2\n  9888: a0 = 0x201b0\n  9893: i32 a0 = a0 + 0\n  9895: i32 a2 = a2 + 0\n  9897: a1 = 0x40\n  9900: ra = 0x13e\n  9904: ecalli 6 // 'hash_keccak_256'\n  9906: a3 = u64 [s1 + 0xd8]\n  9910: t0 = 0x140\n  9914: jump @1553\n      : @345 [@dyn 159] (gas: 2)\n  9918: a3 = u64 [s1 + 0xd8]\n  9922: t0 = 320, jump @1553\n      : @346 [@dyn 160] (gas: 9)\n  9929: a5 = a4 + 0x500\n  9933: u64 [a5 + 0xa0] = a3\n  9937: u64 [a5 + 0x98] = a2\n  9941: u64 [a5 + 0x90] = a1\n  9945: u64 [a5 + 0x88] = a0\n  9949: a0 = s1 + 0x7ff\n  9953: a0 = a0 + 0x81\n  9957: a1 = s1 + 0x35e0\n  9961: ra = 322, jump @27\n      : @347 [@dyn 161] (gas: 20)\n  9967: a1 = s1 + 0x7ff\n  9971: a1 = a1 + 0x51\n  9974: a0 = u64 [a1 + 0x30]\n  9977: u64 [s1 + 0xd8] = a0\n  9981: a0 = u64 [a1 + 0x38]\n  9984: u64 [s1 + 0xd0] = a0\n  9988: a0 = u64 [a1 + 0x40]\n  9991: u64 [s1 + 0xc8] = a0\n  9995: a0 = u64 [a1 + 0x48]\n  9998: u64 [s1 + 0xc0] = a0\n 10002: a0 = s1 + 0x3058\n 10006: u64 [a0 + 1472] = 0\n 10010: u64 [a0 + 1464] = 0\n 10014: u64 [a0 + 1456] = 0\n 10018: a1 = a0\n 10020: u64 [a1 + 1448] = 0x2\n 10025: a0 = s1 + 0x7ff\n 10029: a0 = a0 + 0x61\n 10032: a1 = s1 + 0x3600\n 10036: ra = 324, jump @27\n      : @348 [@dyn 162] (gas: 17)\n 10042: a0 = s1 + 0x7ff\n 10046: a0 = a0 + 0x51\n 10049: a2 = u8 [a0 + 0x10]\n 10052: u64 [s1 + 0xb8] = a2\n 10056: a0 = s1 + 0x1000\n 10060: u64 [a0 + 4294965304] = 0\n 10064: a0 = s1 + 0x1000\n 10068: u64 [a0 + 4294965296] = 0\n 10072: a0 = s1 + 0x1000\n 10076: u64 [a0 + 4294965288] = 0\n 10080: a0 = s1 + 0x7ff\n 10084: a0 = a0 + 0x41\n 10087: a1 = s1 + 0x7ff\n 10091: a1 = a1 + 0x21\n 10094: a3 = s1 + 0x1000\n 10098: u64 [a3 + 0xfffffffffffff820] = a2\n 10102: ra = 326, jump @1224\n      : @349 [@dyn 163] (gas: 25)\n 10108: a0 = s1 + 0x1000\n 10112: a0 = u64 [a0 + 0xfffffffffffff840]\n 10116: a1 = s1 + 0x1000\n 10120: a1 = u64 [a1 + 0xfffffffffffff848]\n 10124: a3 = s1 + 0x7ff\n 10128: a3 = a3 + 0x51\n 10131: a2 = u64 [a3]\n 10133: a3 = u64 [a3 + 0x8]\n 10136: u64 [s1 + 0x7d8] = a3\n 10140: u64 [s1 + 0x7d0] = a2\n 10144: u64 [s1 + 0x7c8] = a1\n 10148: u64 [s1 + 0x7c0] = a0\n 10152: a0 = u64 [s1 + 0xc0]\n 10156: u64 [s1 + 0x7f8] = a0\n 10160: a0 = u64 [s1 + 0xc8]\n 10164: u64 [s1 + 0x7f0] = a0\n 10168: a0 = u64 [s1 + 0xd0]\n 10172: u64 [s1 + 0x7e8] = a0\n 10176: a0 = s1 + 0x7ff\n 10180: a0 = a0 + 0x1\n 10183: a1 = s1 + 0x7e0\n 10187: a2 = s1 + 0x7c0\n 10191: a3 = u64 [s1 + 0xd8]\n 10195: u64 [s1 + 0x7e0] = a3\n 10199: ra = 328, jump @1233\n      : @350 [@dyn 164] (gas: 20)\n 10205: a0 = s1 + 0x1000\n 10209: a0 = u64 [a0 + 0xfffffffffffff800]\n 10213: u64 [s1 + 0xb0] = a0\n 10217: a0 = s1 + 0x1000\n 10221: a0 = u64 [a0 + 0xfffffffffffff808]\n 10225: u64 [s1 + 0xa8] = a0\n 10229: a0 = s1 + 0x1000\n 10233: a0 = u64 [a0 + 0xfffffffffffff810]\n 10237: u64 [s1 + 0xa0] = a0\n 10241: a0 = s1 + 0x1000\n 10245: a0 = u64 [a0 + 0xfffffffffffff818]\n 10249: u64 [s1 + 0x98] = a0\n 10253: u64 [s1 + 1944] = 0\n 10257: u64 [s1 + 1936] = 0\n 10261: u64 [s1 + 1928] = 0\n 10265: a0 = s1 + 0x7a0\n 10269: a1 = s1 + 0x780\n 10273: a2 = u64 [s1 + 0xb8]\n 10277: u64 [s1 + 0x780] = a2\n 10281: ra = 330, jump @1224\n      : @351 [@dyn 165] (gas: 20)\n 10287: a0 = u64 [s1 + 0x7a0]\n 10291: a1 = u64 [s1 + 0x7a8]\n 10295: a2 = u64 [s1 + 0x7b0]\n 10299: a3 = u64 [s1 + 0x7b8]\n 10303: u64 [s1 + 0x738] = a3\n 10307: u64 [s1 + 0x730] = a2\n 10311: u64 [s1 + 0x728] = a1\n 10315: u64 [s1 + 0x720] = a0\n 10319: a0 = u64 [s1 + 0xc0]\n 10323: u64 [s1 + 0x758] = a0\n 10327: a0 = u64 [s1 + 0xc8]\n 10331: u64 [s1 + 0x750] = a0\n 10335: a0 = u64 [s1 + 0xd0]\n 10339: u64 [s1 + 0x748] = a0\n 10343: a0 = s1 + 0x760\n 10347: a1 = s1 + 0x740\n 10351: a2 = s1 + 0x720\n 10355: a3 = u64 [s1 + 0xd8]\n 10359: u64 [s1 + 0x740] = a3\n 10363: ra = 332, jump @1259\n      : @352 [@dyn 166] (gas: 16)\n 10369: a0 = u64 [s1 + 0x760]\n 10373: u64 [s1 + 0xd8] = a0\n 10377: a0 = u64 [s1 + 0x768]\n 10381: u64 [s1 + 0xd0] = a0\n 10385: a0 = u64 [s1 + 0x770]\n 10389: u64 [s1 + 0xc8] = a0\n 10393: a0 = u64 [s1 + 0x778]\n 10397: u64 [s1 + 0xc0] = a0\n 10401: u64 [s1 + 1784] = 0\n 10405: u64 [s1 + 1776] = 0\n 10409: a0 = u64 [s1 + 0xb8]\n 10413: u64 [s1 + 0x6e0] = a0\n 10417: a0 = s1 + 0x700\n 10421: a1 = s1 + 0x6e0\n 10425: u64 [s1 + 1768] = 0\n 10429: ra = 334, jump @1284\n      : @353 [@dyn 167] (gas: 12)\n 10435: a4 = s1 + 0x700\n 10439: a2 = u64 [a4]\n 10441: a0 = u64 [a4 + 0x8]\n 10444: a1 = u64 [a4 + 0x10]\n 10447: a3 = u64 [a4 + 0x18]\n 10450: u64 [s1 + 0x6b8] = a3\n 10454: u64 [s1 + 0x6b0] = a1\n 10458: u64 [s1 + 0x6a8] = a0\n 10462: a0 = s1 + 0x6c0\n 10466: a1 = s1 + 0x6a0\n 10470: u64 [s1 + 0x6a0] = a2\n 10474: ra = 336, jump @1224\n      : @354 [@dyn 168] (gas: 20)\n 10480: a0 = u64 [s1 + 0x6c0]\n 10484: a1 = u64 [s1 + 0x6c8]\n 10488: a2 = u64 [s1 + 0x6d0]\n 10492: a3 = u64 [s1 + 0x6d8]\n 10496: u64 [s1 + 0x658] = a3\n 10500: u64 [s1 + 0x650] = a2\n 10504: u64 [s1 + 0x648] = a1\n 10508: u64 [s1 + 0x640] = a0\n 10512: a0 = u64 [s1 + 0xc0]\n 10516: u64 [s1 + 0x678] = a0\n 10520: a0 = u64 [s1 + 0xc8]\n 10524: u64 [s1 + 0x670] = a0\n 10528: a0 = u64 [s1 + 0xd0]\n 10532: u64 [s1 + 0x668] = a0\n 10536: a0 = s1 + 0x680\n 10540: a1 = s1 + 0x660\n 10544: a2 = s1 + 0x640\n 10548: a3 = u64 [s1 + 0xd8]\n 10552: u64 [s1 + 0x660] = a3\n 10556: ra = 338, jump @1233\n      : @355 [@dyn 169] (gas: 19)\n 10562: a0 = u64 [s1 + 0x680]\n 10566: u64 [s1 + 0xb8] = a0\n 10570: a0 = u64 [s1 + 0x688]\n 10574: u64 [s1 + 0x90] = a0\n 10578: a0 = u64 [s1 + 0x690]\n 10582: u64 [s1 + 0x88] = a0\n 10586: a0 = u64 [s1 + 0x698]\n 10590: u64 [s1 + 0x80] = a0\n 10594: a0 = u64 [s1 + 0x98]\n 10598: u64 [s1 + 0x618] = a0\n 10602: a0 = u64 [s1 + 0xa0]\n 10606: u64 [s1 + 0x610] = a0\n 10610: a0 = u64 [s1 + 0xa8]\n 10614: u64 [s1 + 0x608] = a0\n 10618: a0 = s1 + 0x620\n 10622: a1 = s1 + 0x600\n 10626: a2 = u64 [s1 + 0xb0]\n 10630: u64 [s1 + 0x600] = a2\n 10634: ra = 340, jump @1412\n      : @356 [@dyn 170] (gas: 20)\n 10640: a1 = s1 + 0x600\n 10644: a0 = u64 [a1 + 0x38]\n 10647: u64 [s1 + 0xd0] = a0\n 10651: a0 = u64 [a1 + 0x30]\n 10654: u64 [s1 + 0xc8] = a0\n 10658: a0 = u64 [a1 + 0x28]\n 10661: u64 [s1 + 0xd8] = a0\n 10665: a0 = u64 [a1 + 0x20]\n 10668: u64 [s1 + 0xc0] = a0\n 10672: a0 = u64 [s1 + 0x80]\n 10676: u64 [s1 + 0x5d8] = a0\n 10680: a0 = u64 [s1 + 0x88]\n 10684: u64 [s1 + 0x5d0] = a0\n 10688: a0 = u64 [s1 + 0x90]\n 10692: u64 [s1 + 0x5c8] = a0\n 10696: a0 = s1 + 0x5e0\n 10700: a1 = s1 + 0x5c0\n 10704: a2 = u64 [s1 + 0xb8]\n 10708: u64 [s1 + 0x5c0] = a2\n 10712: ra = 342, jump @1496\n      : @357 [@dyn 171] (gas: 12)\n 10718: a1 = s1 + 0x500\n 10722: a0 = u64 [a1 + 0xf8]\n 10726: u64 [s1 + 0x88] = a0\n 10730: a0 = u64 [a1 + 0xf0]\n 10734: u64 [s1 + 0x80] = a0\n 10738: a0 = u64 [a1 + 0xe8]\n 10742: u64 [s1 + 0x90] = a0\n 10746: a0 = u64 [a1 + 0xe0]\n 10750: u64 [s1 + 0x98] = a0\n 10754: a0 = s1 + 0x5a0\n 10758: a1 = 0x40\n 10761: ra = 344, jump @23\n      : @358 [@dyn 172] (gas: 1)\n 10767: t0 = 346, jump @1564\n      : @359 [@dyn 173] (gas: 1)\n 10774: jump @361 if a0 == 0\n      : @360 (gas: 1)\n 10777: jump @1003\n      : @361 (gas: 11)\n 10780: a2 = s1 + 0x500\n 10784: a0 = u64 [a2 + 0xb8]\n 10788: u64 [s1 + 0xa0] = a0\n 10792: a0 = u64 [a2 + 0xb0]\n 10796: u64 [s1 + 0xa8] = a0\n 10800: a0 = u64 [a2 + 0xa8]\n 10804: u64 [s1 + 0xb0] = a0\n 10808: a0 = u64 [a2 + 0xa0]\n 10812: u64 [s1 + 0xb8] = a0\n 10816: a0 = s1 + 0x580\n 10820: ra = 348, jump @23\n      : @362 [@dyn 174] (gas: 13)\n 10826: a1 = u64 [s1 + 0xb8]\n 10830: a0 = a1 + 0x20\n 10833: a1 = a0 <u a1\n 10836: a3 = u64 [s1 + 0xb0]\n 10840: a2 = a3 + a1\n 10843: a3 = a2 <u a3\n 10846: a3 = a1 if a1 == 0\n 10849: a1 = u64 [s1 + 0xa8]\n 10853: a3 = a3 + a1\n 10856: a1 = a3 <u a1\n 10859: a4 = u64 [s1 + 0xa0]\n 10863: a1 = a1 + a4\n 10866: t0 = 350, jump @1537\n      : @363 [@dyn 175] (gas: 1)\n 10873: jump @365 if a1 == 0\n      : @364 (gas: 1)\n 10876: jump @1003\n      : @365 (gas: 10)\n 10879: a1 = u64 [s1 + 0xd0]\n 10883: a2 = u64 [s1 + 0xc8]\n 10887: a1 = a1 | a2\n 10890: a2 = 0xffffffe0\n 10900: t0 = u64 [s1 + 0xc0]\n 10904: a2 = t0 <u a2\n 10907: a3 = u64 [s1 + 0xd8]\n 10911: a2 = 0 if a3 != 0\n 10913: a2 = 0 if a1 != 0\n 10915: jump @367 if a2 != 0\n      : @366 (gas: 1)\n 10918: jump @1003\n      : @367 (gas: 13)\n 10921: t1 = u64 [s1 + 0x598]\n 10925: a2 = s1 + 0x500\n 10929: a5 = u64 [a2 + 0x90]\n 10933: a1 = u64 [a2 + 0x80]\n 10937: a3 = u64 [a2 + 0x88]\n 10941: a4 = a1 | a5\n 10944: a2 = a3 | t1\n 10947: a4 = a4 | a2\n 10950: a4 = a4 >> 0x20\n 10953: a2 = a2 | a5\n 10956: a2 = a2 << 0x20\n 10959: a2 = a2 | a4\n 10962: jump @369 if a2 == 0\n      : @368 (gas: 1)\n 10965: jump @1003\n      : @369 (gas: 7)\n 10968: i32 a2 = t0 + 0x20\n 10971: u64 [s1 + 0x78] = a2\n 10974: u64 [s1 + 0xd0] = t1\n 10978: u64 [s1 + 0xc8] = a5\n 10982: u64 [s1 + 0xc0] = a3\n 10986: u64 [s1 + 0xd8] = a1\n 10990: ra = 352, jump @38\n      : @370 [@dyn 176] (gas: 4)\n 10996: u64 [s1 + 0x70] = a0\n 10999: a0 = u64 [s1 + 0x78]\n 11002: a1 = u64 [s1 + 0xd8]\n 11006: ra = 354, jump @38\n      : @371 [@dyn 177] (gas: 4)\n 11012: a1 = a0\n 11014: a0 = u64 [s1 + 0x70]\n 11017: a2 = u64 [s1 + 0xd8]\n 11021: ra = 356, jump @6\n      : @372 [@dyn 178] (gas: 38)\n 11027: a0 = u64 [s1 + 0xb8]\n 11031: a1 = u64 [s1 + 0xd8]\n 11035: t0 = a1 + a0\n 11038: a0 = t0 <u a1\n 11041: a1 = u64 [s1 + 0xb0]\n 11045: a2 = u64 [s1 + 0xc0]\n 11049: a1 = a1 + a2\n 11052: a5 = a1 + a0\n 11055: a1 = a5 ^ a2\n 11058: a2 = a5 <u a2\n 11061: a2 = a0 if a1 == 0\n 11064: a0 = u64 [s1 + 0xa8]\n 11068: a3 = u64 [s1 + 0xc8]\n 11072: a0 = a0 + a3\n 11075: a4 = a0 + a2\n 11078: a1 = a4 <u a0\n 11081: a0 = a0 <u a3\n 11084: a2 = u64 [s1 + 0xa0]\n 11088: a3 = u64 [s1 + 0xd0]\n 11092: a2 = a2 + a3\n 11095: a0 = a0 + a2\n 11098: t1 = a0 + a1\n 11101: a0 = t0 + 0x20\n 11104: a1 = a0 <u t0\n 11107: a2 = a5 + a1\n 11110: a3 = a2 <u a5\n 11113: a3 = a1 if a1 == 0\n 11116: a3 = a3 + a4\n 11119: a1 = a3 <u a4\n 11122: a1 = a1 + t1\n 11125: a1 = a1 | a2\n 11128: a2 = a0 | a3\n 11131: a2 = a2 | a1\n 11134: a1 = a1 | a3\n 11137: a2 = a2 >> 0x20\n 11140: a1 = a1 << 0x20\n 11143: a1 = a1 | a2\n 11146: jump @374 if a1 == 0\n      : @373 (gas: 1)\n 11149: jump @1003\n      : @374 (gas: 11)\n 11152: u64 [s1 + 0xc0] = t1\n 11156: u64 [s1 + 0xc8] = a4\n 11160: u64 [s1 + 0xd0] = a5\n 11164: u64 [s1 + 0xd8] = t0\n 11168: u64 [s1 + 1392] = 0\n 11172: u64 [s1 + 1384] = 0\n 11176: a1 = 0x2e00000000000000\n 11186: u64 [s1 + 0x578] = a1\n 11190: a1 = s1 + 0x560\n 11194: u64 [s1 + 1376] = 0\n 11198: ra = 358, jump @25\n      : @375 [@dyn 179] (gas: 1)\n 11204: t0 = 360, jump @1560\n      : @376 [@dyn 180] (gas: 1)\n 11211: jump @378 if a0 == 0\n      : @377 (gas: 1)\n 11214: jump @1003\n      : @378 (gas: 2)\n 11217: a0 = s1 + 0x540\n 11221: ra = 362, jump @23\n      : @379 [@dyn 181] (gas: 13)\n 11227: a1 = u64 [s1 + 0xd8]\n 11231: a0 = a1 + 0x21\n 11234: a1 = a0 <u a1\n 11237: a3 = u64 [s1 + 0xd0]\n 11241: a2 = a3 + a1\n 11244: a3 = a2 <u a3\n 11247: a3 = a1 if a1 == 0\n 11250: a1 = u64 [s1 + 0xc8]\n 11254: a3 = a3 + a1\n 11257: a1 = a3 <u a1\n 11260: a4 = u64 [s1 + 0xc0]\n 11264: a1 = a1 + a4\n 11267: t0 = 364, jump @1537\n      : @380 [@dyn 182] (gas: 1)\n 11274: jump @382 if a1 == 0\n      : @381 (gas: 1)\n 11277: jump @1003\n      : @382 (gas: 10)\n 11280: a1 = u64 [s1 + 0x88]\n 11284: a2 = u64 [s1 + 0x80]\n 11288: a1 = a1 | a2\n 11291: a2 = 0xffffffe0\n 11301: t0 = u64 [s1 + 0x98]\n 11305: a2 = t0 <u a2\n 11308: a3 = u64 [s1 + 0x90]\n 11312: a2 = 0 if a3 != 0\n 11314: a2 = 0 if a1 != 0\n 11316: jump @384 if a2 != 0\n      : @383 (gas: 1)\n 11319: jump @1003\n      : @384 (gas: 16)\n 11322: a3 = s1 + 0x500\n 11326: a2 = u64 [a3 + 0x58]\n 11329: a4 = u64 [a3 + 0x50]\n 11332: a1 = u64 [a3 + 0x40]\n 11335: a5 = u64 [a3 + 0x48]\n 11338: a3 = a1 | a4\n 11341: u64 [s1 + 0x90] = a2\n 11345: u64 [s1 + 0x80] = a5\n 11349: a2 = a2 | a5\n 11352: a3 = a3 | a2\n 11355: a3 = a3 >> 0x20\n 11358: u64 [s1 + 0x88] = a4\n 11362: a2 = a2 | a4\n 11365: a2 = a2 << 0x20\n 11368: a2 = a2 | a3\n 11371: jump @386 if a2 == 0\n      : @385 (gas: 1)\n 11374: jump @1003\n      : @386 (gas: 4)\n 11377: i32 a2 = t0 + 0x20\n 11380: u64 [s1 + 0x78] = a2\n 11383: u64 [s1 + 0x98] = a1\n 11387: ra = 366, jump @38\n      : @387 [@dyn 183] (gas: 4)\n 11393: u64 [s1 + 0x70] = a0\n 11396: a0 = u64 [s1 + 0x78]\n 11399: a1 = u64 [s1 + 0x98]\n 11403: ra = 368, jump @38\n      : @388 [@dyn 184] (gas: 4)\n 11409: a1 = a0\n 11411: a0 = u64 [s1 + 0x70]\n 11414: a2 = u64 [s1 + 0x98]\n 11418: ra = 370, jump @6\n      : @389 [@dyn 185] (gas: 1)\n 11424: t0 = 372, jump @1544\n      : @390 [@dyn 186] (gas: 20)\n 11431: t0 = a5 <u a0\n 11434: a0 = a0 <u a1\n 11437: a2 = u64 [s1 + 0xc0]\n 11441: a1 = u64 [s1 + 0x90]\n 11445: a2 = a2 + a1\n 11448: a0 = a0 + a2\n 11451: t0 = t0 + a0\n 11454: a0 = a3 + 0x21\n 11457: u64 [s1 + 0xd8] = a3\n 11461: a1 = a0 <u a3\n 11464: a2 = a4 + a1\n 11467: u64 [s1 + 0xd0] = a4\n 11471: a3 = a2 <u a4\n 11474: a3 = a1 if a1 == 0\n 11477: a3 = a3 + a5\n 11480: u64 [s1 + 0xc8] = a5\n 11484: a1 = a3 <u a5\n 11487: u64 [s1 + 0xc0] = t0\n 11491: a1 = a1 + t0\n 11494: t0 = 374, jump @1537\n      : @391 [@dyn 187] (gas: 1)\n 11501: jump @393 if a1 == 0\n      : @392 (gas: 1)\n 11504: jump @1003\n      : @393 (gas: 6)\n 11507: u64 [s1 + 1336] = 0\n 11511: u64 [s1 + 1328] = 0\n 11515: u64 [s1 + 1320] = 0\n 11519: a1 = s1 + 0x520\n 11523: u64 [s1 + 1312] = 0\n 11527: ra = 376, jump @25\n      : @394 [@dyn 188] (gas: 1)\n 11533: t0 = 378, jump @1570\n      : @395 [@dyn 189] (gas: 1)\n 11540: jump @397 if a0 == 0\n      : @396 (gas: 1)\n 11543: jump @1003\n      : @397 (gas: 55)\n 11546: ra = u64 [s1 + 0xb8]\n 11550: t2 = u64 [s1 + 0xd8]\n 11554: t0 = t2 <u ra\n 11557: a3 = u64 [s1 + 0xb0]\n 11561: a2 = u64 [s1 + 0xd0]\n 11565: a0 = a2 ^ a3\n 11568: a1 = a2 <u a3\n 11571: a5 = a3\n 11573: a1 = t0 if a0 == 0\n 11576: a0 = u64 [s1 + 0xa8]\n 11580: t1 = u64 [s1 + 0xc8]\n 11584: a3 = t1 - a0\n 11587: a4 = a3 <u a1\n 11590: u64 [s1 + 0x98] = a4\n 11594: a0 = t1 <u a0\n 11597: u64 [s1 + 0xc8] = a0\n 11601: a0 = u64 [s1 + 0xa0]\n 11605: a4 = u64 [s1 + 0xc0]\n 11609: t1 = a4 - a0\n 11612: a0 = u64 [s1 + 0x98]\n 11616: a4 = u64 [s1 + 0xc8]\n 11620: a0 = a0 + a4\n 11623: t1 = t1 - a0\n 11626: a1 = a3 - a1\n 11629: a3 = a2 - a5\n 11632: a3 = a3 - t0\n 11635: a2 = t2 - ra\n 11638: a0 = a2 + 0x1\n 11641: a5 = a0 <u 0x1\n 11644: t0 = a3 + a5\n 11647: a4 = a0 | t0\n 11650: a4 = a4 <u 0x1\n 11653: a4 = a4 + a1\n 11656: a5 = a2 + 0x21\n 11659: u64 [s1 + 0xd8] = a5\n 11663: a2 = a5 <u a2\n 11666: a5 = a3 + a2\n 11669: u64 [s1 + 0xd0] = a5\n 11673: a3 = a5 <u a3\n 11676: a3 = a2 if a2 == 0\n 11679: a2 = a4 <u a1\n 11682: a2 = a2 + t1\n 11685: a3 = a3 + a1\n 11688: u64 [s1 + 0xc8] = a3\n 11692: a1 = a3 <u a1\n 11695: a1 = a1 + t1\n 11698: u64 [s1 + 0xc0] = a1\n 11702: a3 = s1 + 0x500\n 11706: u64 [a3] = a0\n 11708: u64 [s1 + 0x508] = t0\n 11712: u64 [a3 + 0x10] = a4\n 11715: a1 = s1 + 0x500\n 11719: u64 [a3 + 0x18] = a2\n 11722: a0 = ra\n 11724: ra = 380, jump @25\n      : @398 [@dyn 190] (gas: 19)\n 11730: a0 = u64 [s1 + 0xc0]\n 11734: u64 [s1 + 0x4d8] = a0\n 11738: a0 = u64 [s1 + 0xc8]\n 11742: u64 [s1 + 0x4d0] = a0\n 11746: a0 = u64 [s1 + 0xd0]\n 11750: u64 [s1 + 0x4c8] = a0\n 11754: a0 = u64 [s1 + 0xd8]\n 11758: u64 [s1 + 0x4c0] = a0\n 11762: a0 = u64 [s1 + 0xa0]\n 11766: u64 [s1 + 0x4f8] = a0\n 11770: a0 = u64 [s1 + 0xa8]\n 11774: u64 [s1 + 0x4f0] = a0\n 11778: a0 = u64 [s1 + 0xb0]\n 11782: u64 [s1 + 0x4e8] = a0\n 11786: a0 = s1 + 0x4e0\n 11790: a1 = s1 + 0x4c0\n 11794: a2 = u64 [s1 + 0xb8]\n 11798: u64 [s1 + 0x4e0] = a2\n 11802: ra = 382, jump @1177\n      : @399 [@dyn 191] (gas: 3)\n 11808: a0 = s1 + 0x4a0\n 11812: a1 = 0x40\n 11815: ra = 384, jump @23\n      : @400 [@dyn 192] (gas: 25)\n 11821: a5 = s1 + 0x400\n 11825: a1 = u64 [a5 + 0xb8]\n 11829: u64 [s1 + 0xd0] = a1\n 11833: a2 = u64 [a5 + 0xb0]\n 11837: u64 [s1 + 0xc8] = a2\n 11841: a4 = u64 [a5 + 0xa8]\n 11845: u64 [s1 + 0xc0] = a4\n 11849: a3 = u64 [a5 + 0xa0]\n 11853: u64 [s1 + 0xd8] = a3\n 11857: a0 = u64 [s1 + 0xa0]\n 11861: u64 [a5 + 0x58] = a0\n 11864: a0 = u64 [s1 + 0xa8]\n 11868: u64 [a5 + 0x50] = a0\n 11871: a0 = u64 [s1 + 0xb0]\n 11875: u64 [a5 + 0x48] = a0\n 11878: a0 = u64 [s1 + 0xb8]\n 11882: u64 [a5 + 0x40] = a0\n 11885: u64 [a5 + 0x78] = a1\n 11888: u64 [a5 + 0x70] = a2\n 11891: u64 [a5 + 0x68] = a4\n 11894: a0 = s1 + 0x480\n 11898: a1 = s1 + 0x460\n 11902: a2 = s1 + 0x440\n 11906: u64 [a5 + 0x60] = a3\n 11909: ra = 386, jump @1187\n      : @401 [@dyn 193] (gas: 1)\n 11915: t0 = 388, jump @1563\n      : @402 [@dyn 194] (gas: 1)\n 11922: jump @404 if a0 == 0\n      : @403 (gas: 1)\n 11925: jump @1003\n      : @404 (gas: 8)\n 11928: t0 = a3\n 11930: a4 = s1 + 0x400\n 11934: a0 = u64 [a4 + 0x88]\n 11938: a1 = u64 [a4 + 0x98]\n 11942: u64 [s1 + 0xb8] = a1\n 11946: t1 = u64 [s1 + 0x480]\n 11950: a3 = u64 [a4 + 0x90]\n 11954: jump @715\n      : @405 (gas: 8)\n 11957: u64 [a2 + 320] = 0\n 11961: u64 [a2 + 312] = 0\n 11965: u64 [a2 + 304] = 0\n 11969: u64 [a2 + 296] = 0\n 11973: a0 = s1 + 0x4000\n 11977: i32 a0 = a0 + 0xfffffffffffff980\n 11981: ecalli 10 // 'value_transferred'\n 11983: fallthrough\n      : @406 (gas: 10)\n 11984: a3 = s1 + 0x3858\n 11988: a4 = a3 + 0x100\n 11992: a0 = u64 [a4 + 0x38]\n 11995: a1 = u64 [a4 + 0x40]\n 11998: a2 = u64 [a4 + 0x30]\n 12001: a3 = u64 [a4 + 0x28]\n 12004: a1 = a1 | a2\n 12007: a0 = a0 | a3\n 12010: a0 = a0 | a1\n 12013: jump @408 if a0 == 0\n      : @407 (gas: 1)\n 12016: jump @1118\n      : @408 (gas: 3)\n 12019: a0 = u64 [s1 + 0x18]\n 12022: a0 = i32 [a0]\n 12024: jump @410 if a0 >u 35\n      : @409 (gas: 1)\n 12028: jump @1119\n      : @410 (gas: 21)\n 12031: a0 = s1 + 0x4000\n 12035: i32 a0 = a0 + 0xfffffffffffff9a0\n 12039: a1 = 0x4\n 12042: ecalli 1 // 'call_data_load'\n 12044: a1 = s1 + 0x3858\n 12048: a2 = a1 + 0x100\n 12052: a0 = u64 [a2 + 0x60]\n 12055: u64 [s1 + 0xd8] = a0\n 12059: a0 = u64 [a2 + 0x58]\n 12062: u64 [s1 + 0xd0] = a0\n 12066: a0 = u64 [a2 + 0x50]\n 12069: u64 [s1 + 0xc8] = a0\n 12073: a0 = u64 [a2 + 0x48]\n 12076: u64 [s1 + 0xc0] = a0\n 12080: u64 [a1 + 384] = 0\n 12084: u64 [a1 + 376] = 0\n 12088: u64 [a1 + 368] = 0\n 12092: u64 [a2 + 104] = 0x2\n 12096: a0 = s1 + 0x1ba0\n 12100: a1 = s1 + 0x39c0\n 12104: ra = 390, jump @27\n      : @411 [@dyn 195] (gas: 9)\n 12110: a2 = s1 + 0x1858\n 12114: a0 = u8 [a2 + 0x348]\n 12118: u64 [a2 + 800] = 0\n 12122: u64 [a2 + 792] = 0\n 12126: u64 [a2 + 0x308] = a0\n 12130: a0 = s1 + 0x1b80\n 12134: a1 = s1 + 0x1b60\n 12138: u64 [a2 + 784] = 0\n 12142: ra = 392, jump @1224\n      : @412 [@dyn 196] (gas: 2)\n 12148: a1 = s1 + 0x1858\n 12152: fallthrough\n      : @413 (gas: 25)\n 12153: t1 = u64 [a1 + 0x340]\n 12157: t0 = u64 [a1 + 0x328]\n 12161: a0 = u64 [a1 + 0x330]\n 12165: a5 = u64 [a1 + 0x338]\n 12169: a3 = 0x3e8\n 12173: a1 = t0 mulhu a3\n 12176: a2 = a0 * a3\n 12179: a1 = a1 + a2\n 12182: a2 = a1 <u a2\n 12185: a0 = a0 mulhu a3\n 12188: a2 = a2 + a0\n 12191: a0 = a5 * a3\n 12194: ra = a2 + a0\n 12197: a2 = ra <u a2\n 12200: t2 = t1 * a3\n 12203: a4 = a5 mulhu a3\n 12206: t2 = t2 + a4\n 12209: a0 = t2 + a2\n 12212: a2 = 0 if a0 != 0\n 12214: t2 = t2 <u a4\n 12217: a4 = t1 mulhu a3\n 12220: a4 = a4 >u 0\n 12222: a4 = a4 | t2\n 12225: a2 = a2 | a4\n 12228: jump @415 if a2 == 0\n      : @414 (gas: 1)\n 12231: jump @1120\n      : @415 (gas: 17)\n 12234: a2 = t0 * 0x3e8\n 12238: a3 = u64 [s1 + 0xc0]\n 12242: a2 = a2 <u a3\n 12245: a4 = u64 [s1 + 0xc8]\n 12249: a3 = a4 ^ a1\n 12252: a1 = a1 <u a4\n 12255: a1 = a2 if a3 == 0\n 12258: a2 = u64 [s1 + 0xd0]\n 12262: t0 = ra <u a2\n 12265: a3 = u64 [s1 + 0xd8]\n 12269: a5 = a3 ^ a0\n 12272: a4 = a0 <u a3\n 12275: a4 = t0 if a5 == 0\n 12278: a0 = a2 ^ ra\n 12281: a0 = a0 | a5\n 12284: a4 = a1 if a0 == 0\n 12287: jump @417 if a4 != 0\n      : @416 (gas: 1)\n 12290: jump @826\n      : @417 (gas: 3)\n 12293: a0 = s1 + 0x18e0\n 12297: a1 = 0x40\n 12300: ra = 394, jump @23\n      : @418 [@dyn 197] (gas: 13)\n 12306: a2 = s1 + 0x1858\n 12310: t0 = u64 [a2 + 0xa0]\n 12314: a5 = u64 [a2 + 0x98]\n 12318: a4 = u64 [a2 + 0x90]\n 12322: a0 = u64 [a2 + 0x88]\n 12326: a3 = a4 | t0\n 12329: a1 = a0 | a5\n 12332: a1 = a1 | a3\n 12335: a1 = a1 >> 0x20\n 12338: a3 = a3 | a5\n 12341: a3 = a3 << 0x20\n 12344: a1 = a1 | a3\n 12347: jump @420 if a1 == 0\n      : @419 (gas: 1)\n 12350: jump @1003\n      : @420 (gas: 11)\n 12353: u64 [a2 + 120] = 0\n 12356: u64 [a2 + 112] = 0\n 12359: u64 [a2 + 104] = 0\n 12362: a3 = 0x8c379a000000000\n 12372: a1 = s1 + 0x18c0\n 12376: u64 [a2 + 0x80] = a3\n 12380: u64 [s1 + 0xd8] = a0\n 12384: u64 [s1 + 0xd0] = a4\n 12388: u64 [s1 + 0xc0] = t0\n 12392: u64 [s1 + 0xc8] = a5\n 12396: ra = 396, jump @25\n      : @421 [@dyn 198] (gas: 1)\n 12402: t0 = 398, jump @1524\n      : @422 [@dyn 199] (gas: 1)\n 12408: jump @424 if a0 != 0\n      : @423 (gas: 1)\n 12411: jump @1003\n      : @424 (gas: 11)\n 12414: i32 a0 = a1 + 0x4\n 12417: a2 = s1 + 0x1858\n 12421: u64 [a2 + 96] = 0\n 12424: u64 [a2 + 88] = 0\n 12427: u64 [a2 + 80] = 0\n 12430: a5 = 0x20\n 12433: a1 = s1 + 0x18a0\n 12437: u64 [a2 + 0x48] = a5\n 12440: u64 [s1 + 0xc8] = a3\n 12444: u64 [s1 + 0xc0] = a4\n 12448: ra = 400, jump @25\n      : @425 [@dyn 200] (gas: 1)\n 12454: t0 = 402, jump @1547\n      : @426 [@dyn 201] (gas: 1)\n 12460: jump @428 if a0 != 0\n      : @427 (gas: 1)\n 12463: jump @1003\n      : @428 (gas: 8)\n 12466: i32 a0 = a1 + 0x24\n 12469: a2 = s1 + 0x1858\n 12473: u64 [a2 + 64] = 0\n 12476: u64 [a2 + 56] = 0\n 12479: u64 [a2 + 40] = 0x20\n 12483: a1 = s1 + 0x1880\n 12487: u64 [a2 + 48] = 0\n 12490: ra = 404, jump @25\n      : @429 [@dyn 202] (gas: 1)\n 12496: t0 = 406, jump @1534\n      : @430 [@dyn 203] (gas: 1)\n 12502: jump @432 if a0 != 0\n      : @431 (gas: 1)\n 12505: jump @1003\n      : @432 (gas: 13)\n 12508: i32 a0 = a3 + 0x44\n 12511: a1 = u64 [0x200c8]\n 12516: a4 = s1 + 0x1858\n 12520: u64 [a4 + 0x20] = a1\n 12523: a1 = u64 [0x200d0]\n 12528: a2 = u64 [0x200d8]\n 12533: a3 = u64 [0x200e0]\n 12538: u64 [a4 + 0x18] = a1\n 12541: u64 [a4 + 0x10] = a2\n 12544: a1 = s1 + 0x1860\n 12548: u64 [a4 + 0x8] = a3\n 12551: ra = 0x4bc\n 12555: jump @25\n      : @433 (gas: 11)\n 12558: u64 [a2 + 1120] = 0\n 12562: u64 [a2 + 1112] = 0\n 12566: u64 [a2 + 1104] = 0\n 12570: u64 [a2 + 1096] = 0\n 12574: a0 = s1 + 0x4000\n 12578: i32 a0 = a0 + 0xfffffffffffffca0\n 12582: ra = 0x198\n 12586: ecalli 10 // 'value_transferred'\n 12588: a0 = 0x4000\n 12592: t0 = 0x19a\n 12596: jump @1576\n      : @434 [@dyn 204] (gas: 2)\n 12600: a0 = 0x4000\n 12604: t0 = 410, jump @1576\n      : @435 [@dyn 205] (gas: 8)\n 12611: a0 = u64 [a4 + 0x58]\n 12614: a1 = u64 [a4 + 0x60]\n 12617: a2 = u64 [a4 + 0x50]\n 12620: a3 = u64 [a4 + 0x48]\n 12623: a1 = a1 | a2\n 12626: a0 = a0 | a3\n 12629: a0 = a0 | a1\n 12632: jump @437 if a0 == 0\n      : @436 (gas: 1)\n 12635: jump @1127\n      : @437 (gas: 4)\n 12638: a0 = u64 [s1 + 0x18]\n 12641: a0 = i32 [a0]\n 12643: a1 = 0x43\n 12646: jump @439 if a1 <u a0\n      : @438 (gas: 1)\n 12649: jump @1128\n      : @439 (gas: 4)\n 12652: a0 = s1 + 0x2be0\n 12656: ra = 0x19c\n 12660: t0 = 0x504\n 12664: jump @1574\n      : @440 [@dyn 206] (gas: 31)\n 12668: a1 = s1 + 0x2858\n 12672: a2 = a1 + 0x300\n 12676: a0 = u64 [a2 + 0x98]\n 12680: u64 [s1 + 0xa0] = a0\n 12684: a0 = u64 [a2 + 0x90]\n 12688: u64 [s1 + 0xc0] = a0\n 12692: a0 = u64 [a2 + 0x88]\n 12696: u64 [s1 + 0xc8] = a0\n 12700: a0 = s1 + 0x4000\n 12704: i32 a0 = a0 + 0xfffffffffffffcc0\n 12708: a1 = 0x24\n 12711: ecalli 1 // 'call_data_load'\n 12713: a0 = s1 + 0x3858\n 12717: a2 = a0 + 0x400\n 12721: a1 = u64 [a2 + 0x80]\n 12725: u64 [s1 + 0x88] = a1\n 12729: a1 = u64 [a2 + 0x78]\n 12732: u64 [s1 + 0x90] = a1\n 12736: a1 = u64 [a2 + 0x70]\n 12739: u64 [s1 + 0x98] = a1\n 12743: a0 = u64 [a2 + 0x68]\n 12746: u64 [s1 + 0xb0] = a0\n 12750: a0 = 0x301b0\n 12755: u64 [s1 + 0xb8] = a0\n 12759: i32 a0 = a0 + 0\n 12761: u64 [s1 + 0xa8] = a0\n 12765: ra = 0x19e\n 12769: ecalli 3 // 'caller'\n 12771: a2 = u64 [s1 + 0xb8]\n 12775: t0 = 0x1a0\n 12779: jump @1520\n      : @441 [@dyn 207] (gas: 2)\n 12782: a2 = u64 [s1 + 0xb8]\n 12786: t0 = 416, jump @1520\n      : @442 [@dyn 208] (gas: 8)\n 12792: u64 [a2 + 896] = 0\n 12796: a4 = a2 + 0x300\n 12800: u64 [a4 + 0x78] = a1\n 12803: u64 [a4 + 0x70] = a0\n 12806: a1 = s1 + 0x2bc0\n 12810: u64 [a4 + 0x68] = a3\n 12813: a0 = 0\n 12815: ra = 418, jump @25\n      : @443 [@dyn 209] (gas: 3)\n 12821: t0 = 0x1a4\n 12825: a1 = s1 + 0x2858\n 12829: fallthrough\n      : @444 [@dyn 210] (gas: 8)\n 12830: u64 [a1 + 864] = 0\n 12834: u64 [a1 + 856] = 0\n 12838: u64 [a1 + 840] = 0x5\n 12843: a2 = a1\n 12845: a0 = 0x20\n 12848: a1 = s1 + 0x2ba0\n 12852: u64 [a2 + 848] = 0\n 12856: ra = 422, jump @25\n      : @445 [@dyn 211] (gas: 3)\n 12862: a1 = 0x2019c\n 12867: a0 = i32 [0x2019c]\n 12872: jump @447 if a0 >u 63\n      : @446 (gas: 2)\n 12876: u32 [0x2019c] = 0x40\n 12882: fallthrough\n      : @447 (gas: 15)\n 12883: a0 = sp + 0xffffffffffffffe0\n 12886: a2 = a0 & 0xffffffffffffffe0\n 12889: u64 [s1 + 0x80] = a2\n 12893: sp = a2\n 12895: a0 = 0x201b0\n 12900: i32 a0 = a0 + 0\n 12902: i32 a2 = a2 + 0\n 12904: u64 [s1 + 0xd8] = a1\n 12908: a1 = 0x40\n 12911: u64 [s1 + 0xd0] = a0\n 12915: ra = 0x1a8\n 12919: ecalli 6 // 'hash_keccak_256'\n 12921: a3 = u64 [s1 + 0x80]\n 12925: t0 = 0x1aa\n 12929: jump @1579\n      : @448 [@dyn 212] (gas: 2)\n 12933: a3 = u64 [s1 + 0x80]\n 12937: t0 = 426, jump @1579\n      : @449 [@dyn 213] (gas: 26)\n 12944: u64 [s1 + 0x78] = a0\n 12947: a0 = reverse a1\n 12949: u64 [s1 + 0x70] = a0\n 12952: a0 = reverse a2\n 12954: u64 [s1 + 0x68] = a0\n 12957: a0 = reverse a3\n 12959: u64 [s1 + 0x60] = a0\n 12962: a0 = sp + 0xffffffffffffffe0\n 12965: a0 = a0 & 0xffffffffffffffe0\n 12968: u64 [s1 + 0x80] = a0\n 12972: sp = a0\n 12974: a0 = u64 [s1 + 0xa0]\n 12978: a0 = a0 << 0x20\n 12981: a1 = a0 >> 0x20\n 12984: a2 = s1 + 0x2858\n 12988: u64 [a2 + 832] = 0\n 12992: u64 [s1 + 0xa0] = a1\n 12996: a3 = a2 + 0x300\n 13000: u64 [a3 + 0x38] = a1\n 13003: a0 = u64 [s1 + 0xc0]\n 13007: u64 [a3 + 0x30] = a0\n 13010: a1 = s1 + 0x2b80\n 13014: a0 = u64 [s1 + 0xc8]\n 13018: u64 [a3 + 0x28] = a0\n 13021: a0 = 0\n 13023: ra = 428, jump @25\n      : @450 [@dyn 214] (gas: 14)\n 13029: a0 = u64 [s1 + 0x60]\n 13032: a1 = s1 + 0x2858\n 13036: a2 = a1 + 0x300\n 13040: u64 [a2 + 0x20] = a0\n 13043: a0 = u64 [s1 + 0x68]\n 13046: u64 [a2 + 0x18] = a0\n 13049: a0 = u64 [s1 + 0x70]\n 13052: u64 [a2 + 0x10] = a0\n 13055: a3 = a1\n 13057: a0 = 0x20\n 13060: a1 = s1 + 0x2b60\n 13064: a2 = u64 [s1 + 0x78]\n 13067: u64 [a3 + 0x308] = a2\n 13071: ra = 430, jump @25\n      : @451 [@dyn 215] (gas: 3)\n 13077: a1 = u64 [s1 + 0xd8]\n 13081: a0 = i32 [a1]\n 13083: jump @453 if a0 >u 63\n      : @452 (gas: 2)\n 13087: u32 [a1 + 0] = 0x40\n 13090: fallthrough\n      : @453 (gas: 4)\n 13091: a0 = sp + 0xffffffffffffffe0\n 13094: a0 = a0 & 0xffffffffffffffe0\n 13097: u64 [s1 + 0x78] = a0\n 13100: t0 = 432, jump @1535\n      : @454 [@dyn 216] (gas: 5)\n 13106: ra = 0x1b2\n 13110: ecalli 6 // 'hash_keccak_256'\n 13112: a3 = u64 [s1 + 0x78]\n 13115: t0 = 0x1b4\n 13119: jump @1529\n      : @455 [@dyn 217] (gas: 2)\n 13122: a3 = u64 [s1 + 0x78]\n 13125: t0 = 436, jump @1529\n      : @456 [@dyn 218] (gas: 7)\n 13131: a1 = u64 [s1 + 0x80]\n 13135: u64 [a1 + 0x18] = a3\n 13138: u64 [a1 + 0x10] = a2\n 13141: u64 [a1 + 0x8] = a4\n 13144: u64 [a1] = a0\n 13146: a0 = s1 + 0x2b40\n 13150: ra = 438, jump @27\n      : @457 [@dyn 219] (gas: 25)\n 13156: t2 = s1 + 0x2858\n 13160: a2 = u64 [t2 + 0x300]\n 13164: a3 = u64 [t2 + 0x2f0]\n 13168: ra = u64 [t2 + 0x2f8]\n 13172: a0 = u64 [t2 + 0x2e8]\n 13176: t1 = u64 [s1 + 0x88]\n 13180: a4 = a2 ^ t1\n 13183: t0 = u64 [s1 + 0x98]\n 13187: a5 = a3 ^ t0\n 13190: u64 [s1 + 0x68] = a3\n 13193: a3 = a3 <u t0\n 13196: u64 [s1 + 0x78] = a0\n 13199: a1 = u64 [s1 + 0xb0]\n 13203: a0 = a0 <u a1\n 13206: a1 = ra\n 13208: a0 = a3 if a5 != 0\n 13211: u64 [s1 + 0x70] = a2\n 13214: a3 = a2 <u t1\n 13217: ra = u64 [s1 + 0x90]\n 13221: a5 = a1 <u ra\n 13224: a5 = a3 if a4 != 0\n 13227: a3 = a1 ^ ra\n 13230: a3 = a3 | a4\n 13233: a0 = a5 if a3 != 0\n 13236: jump @459 if a0 != 0\n      : @458 (gas: 1)\n 13239: jump @776\n      : @459 (gas: 3)\n 13242: a0 = s1 + 0x28c0\n 13246: a1 = 0x40\n 13249: ra = 440, jump @23\n      : @460 [@dyn 220] (gas: 13)\n 13255: a2 = s1 + 0x2858\n 13259: t0 = u64 [a2 + 0x80]\n 13263: a5 = u64 [a2 + 0x78]\n 13266: a4 = u64 [a2 + 0x70]\n 13269: a0 = u64 [a2 + 0x68]\n 13272: a3 = a4 | t0\n 13275: a1 = a0 | a5\n 13278: a1 = a1 | a3\n 13281: a1 = a1 >> 0x20\n 13284: a3 = a3 | a5\n 13287: a3 = a3 << 0x20\n 13290: a1 = a1 | a3\n 13293: jump @462 if a1 == 0\n      : @461 (gas: 1)\n 13296: jump @1003\n      : @462 (gas: 11)\n 13299: u64 [a2 + 88] = 0\n 13302: u64 [a2 + 80] = 0\n 13305: u64 [a2 + 72] = 0\n 13308: a3 = 0x8c379a000000000\n 13318: a1 = s1 + 0x28a0\n 13322: u64 [a2 + 0x60] = a3\n 13325: u64 [s1 + 0xd8] = a0\n 13329: u64 [s1 + 0xd0] = a4\n 13333: u64 [s1 + 0xc0] = t0\n 13337: u64 [s1 + 0xc8] = a5\n 13341: ra = 442, jump @25\n      : @463 [@dyn 221] (gas: 1)\n 13347: t0 = 444, jump @1524\n      : @464 [@dyn 222] (gas: 1)\n 13353: jump @466 if a0 != 0\n      : @465 (gas: 1)\n 13356: jump @1003\n      : @466 (gas: 11)\n 13359: i32 a0 = a1 + 0x4\n 13362: a2 = s1 + 0x2858\n 13366: a5 = 0\n 13368: u64 [a2 + 64] = 0\n 13371: u64 [a2 + 56] = 0\n 13374: u64 [a2 + 40] = 0x20\n 13378: a1 = s1 + 0x2880\n 13382: u64 [a2 + 48] = 0\n 13385: u64 [s1 + 0xc8] = a3\n 13389: u64 [s1 + 0xc0] = a4\n 13393: ra = 446, jump @25\n      : @467 [@dyn 223] (gas: 1)\n 13399: t0 = 448, jump @1547\n      : @468 [@dyn 224] (gas: 1)\n 13405: jump @470 if a0 != 0\n      : @469 (gas: 1)\n 13408: jump @1003\n      : @470 (gas: 8)\n 13411: i32 a0 = a1 + 0x24\n 13414: a2 = s1 + 0x2858\n 13418: u64 [a2 + 32] = 0\n 13421: u64 [a2 + 24] = 0\n 13424: u64 [a2 + 8] = 0x1e\n 13428: a1 = s1 + 0x2860\n 13432: u64 [a2 + 16] = 0\n 13435: ra = 450, jump @25\n      : @471 [@dyn 225] (gas: 1)\n 13441: t0 = 452, jump @1534\n      : @472 [@dyn 226] (gas: 1)\n 13447: jump @474 if a0 != 0\n      : @473 (gas: 1)\n 13450: jump @1003\n      : @474 (gas: 14)\n 13453: i32 a0 = a3 + 0x44\n 13456: a1 = u64 [0x20070]\n 13461: a4 = s1 + 0x2858\n 13465: u64 [a4] = a1\n 13467: a1 = u64 [0x20078]\n 13472: a2 = u64 [0x20080]\n 13477: a3 = u64 [0x20088]\n 13482: a5 = a4 + 0xffffffffffffff00\n 13486: u64 [a5 + 0xf8] = a1\n 13490: u64 [a5 + 0xf0] = a2\n 13494: a1 = s1 + 0x2840\n 13498: u64 [a5 + 0xe8] = a3\n 13502: ra = 0x4bc\n 13506: jump @25\n      : @475 (gas: 8)\n 13509: u64 [a2 + 96] = 0\n 13512: u64 [a2 + 88] = 0\n 13515: u64 [a2 + 80] = 0\n 13518: u64 [a2 + 72] = 0\n 13521: a0 = s1 + 0x4000\n 13525: i32 a0 = a0 + 0xfffffffffffff8a0\n 13529: ecalli 10 // 'value_transferred'\n 13531: fallthrough\n      : @476 (gas: 9)\n 13532: a3 = s1 + 0x3858\n 13536: a0 = u64 [a3 + 0x58]\n 13539: a1 = u64 [a3 + 0x60]\n 13542: a2 = u64 [a3 + 0x50]\n 13545: a3 = u64 [a3 + 0x48]\n 13548: a1 = a1 | a2\n 13551: a0 = a0 | a3\n 13554: a0 = a0 | a1\n 13557: jump @478 if a0 == 0\n      : @477 (gas: 1)\n 13560: jump @1129\n      : @478 (gas: 3)\n 13563: a0 = u64 [s1 + 0x18]\n 13566: a0 = i32 [a0]\n 13568: jump @480 if a0 >u 35\n      : @479 (gas: 1)\n 13572: jump @1130\n      : @480 (gas: 22)\n 13575: a0 = s1 + 0x4000\n 13579: i32 a0 = a0 + 0xfffffffffffff8c0\n 13583: a1 = 0x4\n 13586: ecalli 1 // 'call_data_load'\n 13588: a0 = s1 + 0x3858\n 13592: a1 = u64 [a0 + 0x80]\n 13596: u64 [s1 + 0xd8] = a1\n 13600: a1 = u64 [a0 + 0x78]\n 13603: u64 [s1 + 0xd0] = a1\n 13607: a1 = u64 [a0 + 0x70]\n 13610: u64 [s1 + 0xc8] = a1\n 13614: a0 = u64 [a0 + 0x68]\n 13617: u64 [s1 + 0xc0] = a0\n 13621: a0 = 0x301b0\n 13626: u64 [s1 + 0xb8] = a0\n 13630: i32 a0 = a0 + 0\n 13632: u64 [s1 + 0xa8] = a0\n 13636: ra = 0x1c6\n 13640: ecalli 3 // 'caller'\n 13642: a2 = u64 [s1 + 0xb8]\n 13646: t0 = 0x1c8\n 13650: jump @1521\n      : @481 [@dyn 227] (gas: 2)\n 13653: a2 = u64 [s1 + 0xb8]\n 13657: t0 = 456, jump @1521\n      : @482 [@dyn 228] (gas: 8)\n 13663: u64 [a2 + 1984] = 0\n 13667: a4 = a2 + 0x700\n 13671: u64 [a4 + 0xb8] = a1\n 13675: u64 [a4 + 0xb0] = a0\n 13679: a1 = s1 + 0x1800\n 13683: u64 [a4 + 0xa8] = a3\n 13687: a0 = 0\n 13689: ra = 458, jump @25\n      : @483 [@dyn 229] (gas: 3)\n 13695: t0 = 0x1cc\n 13699: a1 = s1 + 0x1058\n 13703: fallthrough\n      : @484 [@dyn 230] (gas: 8)\n 13704: u64 [a1 + 1952] = 0\n 13708: u64 [a1 + 1944] = 0\n 13712: u64 [a1 + 1928] = 0x4\n 13717: a2 = a1\n 13719: a0 = 0x20\n 13722: a1 = s1 + 0x17e0\n 13726: u64 [a2 + 1936] = 0\n 13730: ra = 462, jump @25\n      : @485 [@dyn 231] (gas: 3)\n 13736: a2 = 0x2019c\n 13741: a0 = i32 [0x2019c]\n 13746: jump @487 if a0 >u 63\n      : @486 (gas: 2)\n 13750: u32 [0x2019c] = 0x40\n 13756: fallthrough\n      : @487 (gas: 15)\n 13757: u64 [s1 + 0x98] = a2\n 13761: a0 = sp + 0xffffffffffffffe0\n 13764: a2 = a0 & 0xffffffffffffffe0\n 13767: u64 [s1 + 0xb0] = a2\n 13771: sp = a2\n 13773: a0 = 0x201b0\n 13778: i32 a0 = a0 + 0\n 13780: i32 a2 = a2 + 0\n 13782: a1 = 0x40\n 13785: u64 [s1 + 0xa0] = a0\n 13789: ra = 0x1d0\n 13793: ecalli 6 // 'hash_keccak_256'\n 13795: a3 = u64 [s1 + 0xb0]\n 13799: t0 = 0x1d2\n 13803: jump @1538\n      : @488 [@dyn 232] (gas: 2)\n 13806: a3 = u64 [s1 + 0xb0]\n 13810: t0 = 466, jump @1538\n      : @489 [@dyn 233] (gas: 7)\n 13816: u64 [a4 + 0xa0] = a3\n 13820: u64 [a4 + 0x98] = a2\n 13824: u64 [a4 + 0x90] = a1\n 13828: u64 [a4 + 0x88] = a0\n 13832: a0 = s1 + 0x17c0\n 13836: a1 = s1 + 0x38e0\n 13840: ra = 468, jump @27\n      : @490 [@dyn 234] (gas: 3)\n 13846: t0 = 0x1d6\n 13850: a3 = s1 + 0x1058\n 13854: fallthrough\n      : @491 [@dyn 235] (gas: 21)\n 13855: a4 = a3 + 0x700\n 13859: a0 = u64 [a4 + 0x70]\n 13862: a1 = u64 [a4 + 0x68]\n 13865: a2 = u64 [a4 + 0x78]\n 13868: a3 = u64 [a4 + 0x80]\n 13872: a5 = u64 [s1 + 0xc8]\n 13876: a4 = a0 ^ a5\n 13879: a0 = a0 <u a5\n 13882: a5 = u64 [s1 + 0xc0]\n 13886: a1 = a1 <u a5\n 13889: a1 = a0 if a4 != 0\n 13892: a4 = u64 [s1 + 0xd8]\n 13896: a0 = a3 ^ a4\n 13899: a3 = a3 <u a4\n 13902: a5 = u64 [s1 + 0xd0]\n 13906: a4 = a2 <u a5\n 13909: a4 = a3 if a0 != 0\n 13912: a2 = a2 ^ a5\n 13915: a0 = a0 | a2\n 13918: a1 = a4 if a0 != 0\n 13921: jump @493 if a1 != 0\n      : @492 (gas: 1)\n 13924: jump @860\n      : @493 (gas: 3)\n 13927: a0 = s1 + 0x1540\n 13931: a1 = 0x40\n 13934: ra = 472, jump @23\n      : @494 [@dyn 236] (gas: 2)\n 13940: a3 = s1 + 0x1058\n 13944: fallthrough\n      : @495 (gas: 13)\n 13945: t0 = u64 [a3 + 0x500]\n 13949: a1 = a3 + 0x400\n 13953: a5 = u64 [a1 + 0xf8]\n 13957: a4 = u64 [a1 + 0xf0]\n 13961: a0 = u64 [a1 + 0xe8]\n 13965: a2 = a4 | t0\n 13968: a1 = a0 | a5\n 13971: a1 = a1 | a2\n 13974: a1 = a1 >> 0x20\n 13977: a2 = a2 | a5\n 13980: a2 = a2 << 0x20\n 13983: a1 = a1 | a2\n 13986: jump @497 if a1 == 0\n      : @496 (gas: 1)\n 13989: jump @1003\n      : @497 (gas: 12)\n 13992: a2 = a3\n 13994: u64 [a3 + 1240] = 0\n 13998: u64 [a3 + 1232] = 0\n 14002: u64 [a3 + 1224] = 0\n 14006: a3 = 0x8c379a000000000\n 14016: a1 = s1 + 0x1520\n 14020: u64 [a2 + 0x4e0] = a3\n 14024: u64 [s1 + 0xd8] = a0\n 14028: u64 [s1 + 0xd0] = a4\n 14032: u64 [s1 + 0xc0] = t0\n 14036: u64 [s1 + 0xc8] = a5\n 14040: ra = 474, jump @25\n      : @498 [@dyn 237] (gas: 1)\n 14046: t0 = 476, jump @1524\n      : @499 [@dyn 238] (gas: 1)\n 14052: jump @501 if a0 != 0\n      : @500 (gas: 1)\n 14055: jump @1003\n      : @501 (gas: 10)\n 14058: i32 a0 = a1 + 0x4\n 14061: a2 = s1 + 0x1058\n 14065: u64 [a2 + 1216] = 0\n 14069: u64 [a2 + 1208] = 0\n 14073: u64 [a2 + 1192] = 0x20\n 14078: a1 = s1 + 0x1500\n 14082: u64 [a2 + 1200] = 0\n 14086: u64 [s1 + 0xc8] = a3\n 14090: u64 [s1 + 0xc0] = a4\n 14094: ra = 478, jump @25\n      : @502 [@dyn 239] (gas: 1)\n 14100: t0 = 480, jump @1547\n      : @503 [@dyn 240] (gas: 1)\n 14106: jump @505 if a0 != 0\n      : @504 (gas: 1)\n 14109: jump @1003\n      : @505 (gas: 8)\n 14112: i32 a0 = a1 + 0x24\n 14115: a2 = s1 + 0x1058\n 14119: u64 [a2 + 1184] = 0\n 14123: u64 [a2 + 1176] = 0\n 14127: u64 [a2 + 1160] = 0x1c\n 14132: a1 = s1 + 0x14e0\n 14136: u64 [a2 + 1168] = 0\n 14140: ra = 482, jump @25\n      : @506 [@dyn 241] (gas: 1)\n 14146: t0 = 484, jump @1534\n      : @507 [@dyn 242] (gas: 1)\n 14152: jump @509 if a0 != 0\n      : @508 (gas: 1)\n 14155: jump @1003\n      : @509 (gas: 14)\n 14158: i32 a0 = a3 + 0x44\n 14161: a1 = u64 [0x20108]\n 14166: a2 = u64 [0x20110]\n 14171: a3 = u64 [0x20118]\n 14176: a4 = s1 + 0x1058\n 14180: a5 = a4 + 0x400\n 14184: u64 [a5 + 0x80] = a1\n 14188: u64 [a5 + 0x78] = a2\n 14191: u64 [a5 + 0x70] = a3\n 14194: a2 = 0x6275726e00000000\n 14204: a1 = s1 + 0x14c0\n 14208: u64 [a5 + 0x68] = a2\n 14211: ra = 0x4bc\n 14215: jump @25\n      : @510 (gas: 9)\n 14218: u64 [a3 + 1568] = 0\n 14222: u64 [a3 + 1560] = 0\n 14226: u64 [a3 + 1552] = 0\n 14230: u64 [a3 + 1544] = 0\n 14234: a0 = s1 + 0x3000\n 14238: i32 a0 = a0 + 0x660\n 14242: ra = 0x1e6\n 14246: ecalli 10 // 'value_transferred'\n 14248: fallthrough\n      : @511 [@dyn 243] (gas: 3)\n 14249: a3 = s1 + 0x3058\n 14253: a4 = a3 + 0x600\n 14257: t0 = 488, jump @1557\n      : @512 [@dyn 244] (gas: 1)\n 14263: jump @514 if a0 == 0\n      : @513 (gas: 1)\n 14266: jump @1131\n      : @514 (gas: 4)\n 14269: a0 = u64 [s1 + 0x18]\n 14272: a0 = i32 [a0]\n 14274: a1 = 0x63\n 14277: jump @516 if a1 <u a0\n      : @515 (gas: 1)\n 14280: jump @1132\n      : @516 (gas: 5)\n 14283: a0 = s1 + 0x7ff\n 14287: a0 = a0 + 0x6c1\n 14291: ra = 0x1ea\n 14295: t0 = 0x504\n 14299: jump @1574\n      : @517 [@dyn 245] (gas: 13)\n 14302: a1 = s1 + 0x7ff\n 14306: a1 = a1 + 0x51\n 14309: a0 = u64 [a1 + 0x670]\n 14313: u64 [s1 + 0xa8] = a0\n 14317: a0 = u64 [a1 + 0x678]\n 14321: u64 [s1 + 0xa0] = a0\n 14325: a0 = u32 [a1 + 0x680]\n 14329: u64 [s1 + 0x98] = a0\n 14333: a0 = s1 + 0x7ff\n 14337: a0 = a0 + 0x6a1\n 14341: ra = 0x1ec\n 14345: t0 = 0x50e\n 14349: jump @1574\n      : @518 [@dyn 246] (gas: 37)\n 14352: a1 = s1 + 0x7ff\n 14356: a1 = a1 + 0x51\n 14359: a2 = a1 + 0x600\n 14363: a0 = u64 [a2 + 0x60]\n 14366: u64 [s1 + 0x58] = a0\n 14369: a0 = u64 [a2 + 0x58]\n 14372: u64 [s1 + 0x48] = a0\n 14375: a0 = u64 [a2 + 0x50]\n 14378: u64 [s1 + 0x50] = a0\n 14381: a0 = s1 + 0x3000\n 14385: i32 a0 = a0 + 0x680\n 14389: a1 = 0x44\n 14392: ecalli 1 // 'call_data_load'\n 14394: a0 = s1 + 0x3058\n 14398: a2 = a0 + 0x600\n 14402: a1 = u64 [a2 + 0x40]\n 14405: u64 [s1 + 0xc8] = a1\n 14409: a1 = u64 [a2 + 0x38]\n 14412: u64 [s1 + 0xc0] = a1\n 14416: a1 = u64 [a2 + 0x30]\n 14419: u64 [s1 + 0xb8] = a1\n 14423: a0 = u64 [a2 + 0x28]\n 14426: u64 [s1 + 0xb0] = a0\n 14430: a0 = s1 + 0x7ff\n 14434: a0 = a0 + 0x51\n 14437: u64 [a0 + 1608] = 0\n 14441: a1 = u64 [s1 + 0x98]\n 14445: a3 = a0 + 0x600\n 14449: u64 [a3 + 0x40] = a1\n 14452: a1 = u64 [s1 + 0xa0]\n 14456: u64 [a3 + 0x38] = a1\n 14459: a1 = s1 + 0x7ff\n 14463: a1 = a1 + 0x681\n 14467: a2 = u64 [s1 + 0xa8]\n 14471: u64 [a3 + 0x30] = a2\n 14474: a0 = 0\n 14476: ra = 494, jump @25\n      : @519 [@dyn 247] (gas: 11)\n 14482: a1 = s1 + 0x7ff\n 14486: a1 = a1 + 0x51\n 14489: u64 [a1 + 1576] = 0\n 14493: u64 [a1 + 1568] = 0\n 14497: u64 [a1 + 1552] = 0x4\n 14502: a2 = a1\n 14504: a0 = 0x20\n 14507: a1 = s1 + 0x7ff\n 14511: a1 = a1 + 0x661\n 14515: u64 [a2 + 1560] = 0\n 14519: ra = 496, jump @25\n      : @520 [@dyn 248] (gas: 3)\n 14525: a1 = 0x2019c\n 14530: a0 = i32 [0x2019c]\n 14535: jump @522 if a0 >u 63\n      : @521 (gas: 2)\n 14539: u32 [0x2019c] = 0x40\n 14545: fallthrough\n      : @522 (gas: 15)\n 14546: a0 = sp + 0xffffffffffffffe0\n 14549: a2 = a0 & 0xffffffffffffffe0\n 14552: u64 [s1 + 0x90] = a2\n 14556: sp = a2\n 14558: a0 = 0x201b0\n 14563: i32 a0 = a0 + 0\n 14565: i32 a2 = a2 + 0\n 14567: u64 [s1 + 0xd8] = a1\n 14571: a1 = 0x40\n 14574: u64 [s1 + 0xd0] = a0\n 14578: ra = 0x1f2\n 14582: ecalli 6 // 'hash_keccak_256'\n 14584: a3 = u64 [s1 + 0x90]\n 14588: t0 = 0x1f4\n 14592: jump @1553\n      : @523 [@dyn 249] (gas: 2)\n 14595: a3 = u64 [s1 + 0x90]\n 14599: t0 = 500, jump @1553\n      : @524 [@dyn 250] (gas: 9)\n 14605: a5 = a4 + 0x600\n 14609: u64 [a5 + 0x60] = a3\n 14612: u64 [a5 + 0x58] = a2\n 14615: u64 [a5 + 0x50] = a1\n 14618: u64 [a5 + 0x48] = a0\n 14621: a0 = s1 + 0x7ff\n 14625: a0 = a0 + 0x641\n 14629: a1 = s1 + 0x36a0\n 14633: ra = 502, jump @27\n      : @525 [@dyn 251] (gas: 32)\n 14639: a4 = s1 + 0x7ff\n 14643: a4 = a4 + 0x51\n 14646: a0 = u64 [a4 + 0x5f8]\n 14650: a1 = u64 [a4 + 0x5f0]\n 14654: a2 = u64 [a4 + 0x600]\n 14658: a3 = u64 [a4 + 0x608]\n 14662: t0 = a4\n 14664: a5 = u64 [s1 + 0xb8]\n 14668: a4 = a0 ^ a5\n 14671: a0 = a0 <u a5\n 14674: a5 = u64 [s1 + 0xb0]\n 14678: a1 = a1 <u a5\n 14681: a1 = a0 if a4 != 0\n 14684: a4 = u64 [s1 + 0xc8]\n 14688: a0 = a3 ^ a4\n 14691: a3 = a3 <u a4\n 14694: a5 = u64 [s1 + 0xc0]\n 14698: a4 = a2 <u a5\n 14701: a4 = a3 if a0 != 0\n 14704: a2 = a2 ^ a5\n 14707: a0 = a0 | a2\n 14710: a1 = a4 if a0 != 0\n 14713: a0 = a1 ^ 0x1\n 14716: u64 [t0 + 1512] = 0\n 14720: u64 [t0 + 1504] = 0\n 14724: u64 [t0 + 0x5d0] = a0\n 14728: a0 = s1 + 0x7ff\n 14732: a0 = a0 + 0x621\n 14736: u64 [t0 + 1496] = 0\n 14740: ra = 0x1f8\n 14744: t0 = 0x564\n 14748: jump @1542\n      : @526 [@dyn 252] (gas: 14)\n 14751: a2 = s1 + 0x7ff\n 14755: a2 = a2 + 0x51\n 14758: u64 [a2 + 1480] = 0\n 14762: a0 = u64 [s1 + 0x98]\n 14766: a3 = a2 + 0x500\n 14770: u64 [a3 + 0xc0] = a0\n 14774: a0 = u64 [s1 + 0xa0]\n 14778: u64 [a3 + 0xb8] = a0\n 14782: a1 = s1 + 0x7ff\n 14786: a1 = a1 + 0x601\n 14790: a0 = u64 [s1 + 0xa8]\n 14794: u64 [a3 + 0xb0] = a0\n 14798: a0 = 0\n 14800: ra = 506, jump @25\n      : @527 [@dyn 253] (gas: 11)\n 14806: a1 = s1 + 0x7ff\n 14810: a1 = a1 + 0x51\n 14813: u64 [a1 + 1448] = 0\n 14817: u64 [a1 + 1440] = 0\n 14821: u64 [a1 + 1424] = 0x5\n 14826: a2 = a1\n 14828: a0 = 0x20\n 14831: a1 = s1 + 0x7ff\n 14835: a1 = a1 + 0x5e1\n 14839: u64 [a2 + 1432] = 0\n 14843: ra = 508, jump @25\n      : @528 [@dyn 254] (gas: 3)\n 14849: a1 = u64 [s1 + 0xd8]\n 14853: a0 = i32 [a1]\n 14855: jump @530 if a0 >u 63\n      : @529 (gas: 2)\n 14859: u32 [a1 + 0] = 0x40\n 14862: fallthrough\n      : @530 (gas: 4)\n 14863: a0 = sp + 0xffffffffffffffe0\n 14866: a0 = a0 & 0xffffffffffffffe0\n 14869: u64 [s1 + 0x90] = a0\n 14873: t0 = 510, jump @1535\n      : @531 [@dyn 255] (gas: 5)\n 14879: ra = 0x200\n 14883: ecalli 6 // 'hash_keccak_256'\n 14885: a3 = u64 [s1 + 0x90]\n 14889: t0 = 0x202\n 14893: jump @1579\n      : @532 [@dyn 256] (gas: 2)\n 14896: a3 = u64 [s1 + 0x90]\n 14900: t0 = 514, jump @1579\n      : @533 [@dyn 257] (gas: 19)\n 14906: u64 [s1 + 0x80] = a0\n 14910: a0 = reverse a1\n 14912: u64 [s1 + 0x78] = a0\n 14915: a0 = reverse a2\n 14917: u64 [s1 + 0x70] = a0\n 14920: a0 = reverse a3\n 14922: u64 [s1 + 0x68] = a0\n 14925: a0 = sp + 0xffffffffffffffe0\n 14928: a0 = a0 & 0xffffffffffffffe0\n 14931: u64 [s1 + 0x88] = a0\n 14935: sp = a0\n 14937: a0 = 0x301b0\n 14942: u64 [s1 + 0x90] = a0\n 14946: i32 a0 = a0 + 0\n 14948: u64 [s1 + 0x60] = a0\n 14951: ra = 0x204\n 14955: ecalli 3 // 'caller'\n 14957: t0 = 0x206\n 14961: jump @1543\n      : @534 [@dyn 258] (gas: 1)\n 14964: t0 = 518, jump @1543\n      : @535 [@dyn 259] (gas: 9)\n 14970: u64 [a2 + 1416] = 0\n 14974: a4 = a2 + 0x500\n 14978: u64 [a4 + 0x80] = a1\n 14982: u64 [a4 + 0x78] = a0\n 14985: a1 = s1 + 0x7ff\n 14989: a1 = a1 + 0x5c1\n 14993: u64 [a4 + 0x70] = a3\n 14996: a0 = 0\n 14998: ra = 520, jump @25\n      : @536 [@dyn 260] (gas: 16)\n 15004: a0 = u64 [s1 + 0x68]\n 15007: a1 = s1 + 0x7ff\n 15011: a1 = a1 + 0x51\n 15014: a2 = a1 + 0x500\n 15018: u64 [a2 + 0x68] = a0\n 15021: a0 = u64 [s1 + 0x70]\n 15024: u64 [a2 + 0x60] = a0\n 15027: a0 = u64 [s1 + 0x78]\n 15030: u64 [a2 + 0x58] = a0\n 15033: a3 = a1\n 15035: a0 = 0x20\n 15038: a1 = s1 + 0x7ff\n 15042: a1 = a1 + 0x5a1\n 15046: a2 = u64 [s1 + 0x80]\n 15050: u64 [a3 + 0x550] = a2\n 15054: ra = 522, jump @25\n      : @537 [@dyn 261] (gas: 3)\n 15060: a1 = u64 [s1 + 0xd8]\n 15064: a0 = i32 [a1]\n 15066: jump @539 if a0 >=u 64\n      : @538 (gas: 2)\n 15070: u32 [a1 + 0] = 0x40\n 15073: fallthrough\n      : @539 (gas: 4)\n 15074: a0 = sp + 0xffffffffffffffe0\n 15077: a0 = a0 & 0xffffffffffffffe0\n 15080: u64 [s1 + 0x80] = a0\n 15084: t0 = 524, jump @1535\n      : @540 [@dyn 262] (gas: 5)\n 15090: ra = 0x20e\n 15094: ecalli 6 // 'hash_keccak_256'\n 15096: a3 = u64 [s1 + 0x80]\n 15100: t0 = 0x210\n 15104: jump @1523\n      : @541 [@dyn 263] (gas: 2)\n 15107: a3 = u64 [s1 + 0x80]\n 15111: t0 = 528, jump @1523\n      : @542 [@dyn 264] (gas: 2)\n 15117: a0 = a0 + 0x581\n 15121: ra = 530, jump @27\n      : @543 [@dyn 265] (gas: 23)\n 15127: t0 = s1 + 0x7ff\n 15131: t0 = t0 + 0x51\n 15134: a2 = t0 + 0x500\n 15138: a0 = u64 [a2 + 0x38]\n 15141: a1 = u64 [a2 + 0x30]\n 15144: a5 = u64 [a2 + 0x40]\n 15147: a3 = u64 [a2 + 0x48]\n 15150: a2 = u64 [s1 + 0xb8]\n 15154: a4 = a0 ^ a2\n 15157: a0 = a0 <u a2\n 15160: a2 = u64 [s1 + 0xb0]\n 15164: a1 = a1 <u a2\n 15167: a1 = a0 if a4 != 0\n 15170: a4 = u64 [s1 + 0xc8]\n 15174: a0 = a3 ^ a4\n 15177: a3 = a3 <u a4\n 15180: a2 = u64 [s1 + 0xc0]\n 15184: a4 = a5 <u a2\n 15187: a4 = a3 if a0 != 0\n 15190: a2 = a2 ^ a5\n 15193: a0 = a0 | a2\n 15196: a1 = a4 if a0 != 0\n 15199: jump @545 if a1 != 0\n      : @544 (gas: 1)\n 15202: jump @892\n      : @545 (gas: 4)\n 15205: a0 = s1 + 0x7ff\n 15209: a0 = a0 + 0x1e1\n 15213: a1 = 0x40\n 15216: ra = 532, jump @23\n      : @546 [@dyn 266] (gas: 15)\n 15222: a2 = s1 + 0x7ff\n 15226: a2 = a2 + 0x51\n 15229: t0 = u64 [a2 + 0x1a8]\n 15233: a1 = a2 + 0x100\n 15237: a5 = u64 [a1 + 0xa0]\n 15241: a4 = u64 [a1 + 0x98]\n 15245: a0 = u64 [a1 + 0x90]\n 15249: a3 = a4 | t0\n 15252: a1 = a0 | a5\n 15255: a1 = a1 | a3\n 15258: a1 = a1 >> 0x20\n 15261: a3 = a3 | a5\n 15264: a3 = a3 << 0x20\n 15267: a1 = a1 | a3\n 15270: jump @548 if a1 == 0\n      : @547 (gas: 1)\n 15273: jump @1003\n      : @548 (gas: 12)\n 15276: u64 [a2 + 384] = 0\n 15280: u64 [a2 + 376] = 0\n 15284: u64 [a2 + 368] = 0\n 15288: a3 = 0x8c379a000000000\n 15298: a1 = s1 + 0x7ff\n 15302: a1 = a1 + 0x1c1\n 15306: u64 [a2 + 0x188] = a3\n 15310: u64 [s1 + 0xd8] = a0\n 15314: u64 [s1 + 0xd0] = a4\n 15318: u64 [s1 + 0xc0] = t0\n 15322: u64 [s1 + 0xc8] = a5\n 15326: ra = 534, jump @25\n      : @549 [@dyn 267] (gas: 1)\n 15332: t0 = 536, jump @1524\n      : @550 [@dyn 268] (gas: 1)\n 15338: jump @552 if a0 != 0\n      : @551 (gas: 1)\n 15341: jump @1003\n      : @552 (gas: 12)\n 15344: i32 a0 = a1 + 0x4\n 15347: a2 = s1 + 0x7ff\n 15351: a2 = a2 + 0x51\n 15354: u64 [a2 + 360] = 0\n 15358: u64 [a2 + 352] = 0\n 15362: u64 [a2 + 336] = 0x20\n 15367: a1 = s1 + 0x7ff\n 15371: a1 = a1 + 0x1a1\n 15375: u64 [a2 + 344] = 0\n 15379: u64 [s1 + 0xc8] = a3\n 15383: u64 [s1 + 0xc0] = a4\n 15387: ra = 538, jump @25\n      : @553 [@dyn 269] (gas: 9)\n 15393: a3 = u64 [s1 + 0xc8]\n 15397: a2 = u64 [s1 + 0xd0]\n 15401: a1 = u64 [s1 + 0xd8]\n 15405: a0 = u64 [s1 + 0xc0]\n 15409: a0 = a0 + 0xffffffffffffffdc\n 15412: a0 = a1 <u a0\n 15415: a0 = 0 if a2 != 0\n 15417: a0 = 0 if a3 != 0\n 15419: jump @555 if a0 != 0\n      : @554 (gas: 1)\n 15422: jump @1003\n      : @555 (gas: 10)\n 15425: i32 a0 = a1 + 0x24\n 15428: a3 = s1 + 0x7ff\n 15432: a3 = a3 + 0x51\n 15435: u64 [a3 + 328] = 0\n 15439: u64 [a3 + 320] = 0\n 15443: u64 [a3 + 304] = 0x16\n 15448: a1 = s1 + 0x7ff\n 15452: a1 = a1 + 0x181\n 15456: u64 [a3 + 312] = 0\n 15460: ra = 540, jump @25\n      : @556 [@dyn 270] (gas: 1)\n 15466: t0 = 542, jump @1534\n      : @557 [@dyn 271] (gas: 1)\n 15472: jump @559 if a0 != 0\n      : @558 (gas: 1)\n 15475: jump @1003\n      : @559 (gas: 15)\n 15478: i32 a0 = a3 + 0x44\n 15481: a1 = u64 [0x20108]\n 15486: a2 = u64 [0x20120]\n 15491: a3 = u64 [0x20128]\n 15496: a4 = s1 + 0x7ff\n 15500: a4 = a4 + 0x51\n 15503: a5 = a4 + 0x100\n 15507: u64 [a5 + 0x28] = a1\n 15510: u64 [a5 + 0x20] = a2\n 15513: u64 [a5 + 0x18] = a3\n 15516: a1 = s1 + 0x7ff\n 15520: a1 = a1 + 0x161\n 15524: u64 [a4 + 272] = 0\n 15528: ra = 0x4bc\n 15532: jump @25\n      : @560 (gas: 1)\n 15535: jump @562 if a0 == 1889567281\n      : @561 (gas: 1)\n 15542: jump @1133\n      : @562 (gas: 9)\n 15545: u64 [a2 + 928] = 0\n 15549: u64 [a2 + 920] = 0\n 15553: u64 [a2 + 912] = 0\n 15557: u64 [a2 + 904] = 0\n 15561: a0 = s1 + 0x4000\n 15565: i32 a0 = a0 + 0xfffffffffffffbe0\n 15569: ra = 0x220\n 15573: ecalli 10 // 'value_transferred'\n 15575: fallthrough\n      : @563 [@dyn 272] (gas: 3)\n 15576: a3 = s1 + 0x3858\n 15580: a4 = a3 + 0x300\n 15584: t0 = 546, jump @1571\n      : @564 [@dyn 273] (gas: 1)\n 15590: jump @566 if a0 == 0\n      : @565 (gas: 1)\n 15593: jump @1138\n      : @566 (gas: 4)\n 15596: a0 = u64 [s1 + 0x18]\n 15599: a0 = i32 [a0]\n 15601: a1 = 0x23\n 15604: jump @568 if a1 <u a0\n      : @567 (gas: 1)\n 15607: jump @1139\n      : @568 (gas: 4)\n 15610: a0 = s1 + 0x25e0\n 15614: ra = 0x224\n 15618: t0 = 0x504\n 15622: jump @1574\n      : @569 [@dyn 274] (gas: 12)\n 15625: a3 = s1 + 0x2058\n 15629: a4 = a3 + 0x500\n 15633: a0 = u64 [a4 + 0x88]\n 15637: a1 = u64 [a4 + 0x90]\n 15641: a2 = u32 [a3 + 0x598]\n 15645: u64 [a3 + 1408] = 0\n 15649: u64 [a4 + 0x78] = a2\n 15652: u64 [a4 + 0x70] = a1\n 15655: a1 = s1 + 0x25c0\n 15659: u64 [a4 + 0x68] = a0\n 15662: a0 = 0\n 15664: ra = 550, jump @25\n      : @570 [@dyn 275] (gas: 3)\n 15670: t0 = 0x228\n 15674: a1 = s1 + 0x2058\n 15678: fallthrough\n      : @571 [@dyn 276] (gas: 8)\n 15679: u64 [a1 + 1376] = 0\n 15683: u64 [a1 + 1368] = 0\n 15687: u64 [a1 + 1352] = 0x4\n 15692: a2 = a1\n 15694: a0 = 0x20\n 15697: a1 = s1 + 0x25a0\n 15701: u64 [a2 + 1360] = 0\n 15705: ra = 554, jump @25\n      : @572 [@dyn 277] (gas: 2)\n 15711: a1 = i32 [0x2019c]\n 15716: jump @574 if a1 >u 63\n      : @573 (gas: 2)\n 15720: u32 [0x2019c] = 0x40\n 15726: fallthrough\n      : @574 (gas: 13)\n 15727: a0 = sp + 0xffffffffffffffe0\n 15730: a2 = a0 & 0xffffffffffffffe0\n 15733: u64 [s1 + 0xd8] = a2\n 15737: sp = a2\n 15739: a0 = 0x201b0\n 15744: i32 a0 = a0 + 0\n 15746: i32 a2 = a2 + 0\n 15748: a1 = 0x40\n 15751: ra = 0x22c\n 15755: ecalli 6 // 'hash_keccak_256'\n 15757: a3 = u64 [s1 + 0xd8]\n 15761: t0 = 0x22e\n 15765: jump @1538\n      : @575 [@dyn 278] (gas: 2)\n 15768: a3 = u64 [s1 + 0xd8]\n 15772: t0 = 558, jump @1538\n      : @576 [@dyn 279] (gas: 8)\n 15778: a5 = a4 + 0x300\n 15782: u64 [a5 + 0xc0] = a3\n 15786: u64 [a5 + 0xb8] = a2\n 15790: u64 [a5 + 0xb0] = a1\n 15794: u64 [a5 + 0xa8] = a0\n 15798: a0 = s1 + 0x2580\n 15802: a1 = s1 + 0x3c00\n 15806: ra = 560, jump @27\n      : @577 [@dyn 280] (gas: 13)\n 15812: a1 = s1 + 0x2058\n 15816: a2 = a1 + 0x500\n 15820: a0 = u64 [a2 + 0x40]\n 15823: u64 [s1 + 0xd8] = a0\n 15827: a0 = u64 [a2 + 0x38]\n 15830: u64 [s1 + 0xd0] = a0\n 15834: a0 = u64 [a2 + 0x30]\n 15837: u64 [s1 + 0xc8] = a0\n 15841: a0 = u64 [a2 + 0x28]\n 15844: u64 [s1 + 0xc0] = a0\n 15848: a0 = s1 + 0x2560\n 15852: a1 = 0x40\n 15855: ra = 562, jump @23\n      : @578 [@dyn 281] (gas: 7)\n 15861: a3 = s1 + 0x2058\n 15865: a5 = a3 + 0x500\n 15869: a0 = u64 [a5 + 0x20]\n 15872: a1 = u64 [a5 + 0x18]\n 15875: a2 = u64 [a5 + 0x10]\n 15878: a4 = u64 [a5 + 0x8]\n 15881: t0 = 564, jump @1526\n      : @579 [@dyn 282] (gas: 1)\n 15887: jump @581 if a0 == 0\n      : @580 (gas: 1)\n 15890: jump @1003\n      : @581 (gas: 14)\n 15893: a0 = u64 [s1 + 0xc0]\n 15897: a1 = a3 + 0x400\n 15901: u64 [a1 + 0xe8] = a0\n 15905: a0 = u64 [s1 + 0xc8]\n 15909: u64 [a1 + 0xf0] = a0\n 15913: a0 = u64 [s1 + 0xd0]\n 15917: u64 [a1 + 0xf8] = a0\n 15921: a1 = s1 + 0x2540\n 15925: a0 = u64 [s1 + 0xd8]\n 15929: u64 [a3 + 0x500] = a0\n 15933: a0 = a4\n 15935: u64 [s1 + 0xd8] = a4\n 15939: ra = 0x410\n 15943: jump @25\n      : @582 (gas: 9)\n 15946: a0 = s1 + 0x3858\n 15950: u64 [a0 + 992] = 0\n 15954: u64 [a0 + 984] = 0\n 15958: u64 [a0 + 976] = 0\n 15962: u64 [a0 + 968] = 0\n 15966: a0 = s1 + 0x4000\n 15970: i32 a0 = a0 + 0xfffffffffffffc20\n 15974: ecalli 10 // 'value_transferred'\n 15976: fallthrough\n      : @583 (gas: 10)\n 15977: a4 = s1 + 0x3858\n 15981: a5 = a4 + 0x300\n 15985: a0 = u64 [a5 + 0xd8]\n 15989: a1 = u64 [a5 + 0xe0]\n 15993: a2 = u64 [a5 + 0xd0]\n 15997: a3 = u64 [a5 + 0xc8]\n 16001: a1 = a1 | a2\n 16004: a0 = a0 | a3\n 16007: a0 = a0 | a1\n 16010: jump @585 if a0 == 0\n      : @584 (gas: 1)\n 16013: jump @1140\n      : @585 (gas: 3)\n 16016: a0 = u64 [s1 + 0x18]\n 16019: a0 = i32 [a0]\n 16021: jump @587 if a0 >u 3\n      : @586 (gas: 1)\n 16025: jump @1141\n      : @587 (gas: 7)\n 16028: u64 [a4 + 1024] = 0\n 16032: u64 [a4 + 1016] = 0\n 16036: u64 [a4 + 1008] = 0\n 16040: u64 [a4 + 1000] = 0x6\n 16045: a0 = s1 + 0x2640\n 16049: a1 = s1 + 0x3c40\n 16053: ra = 566, jump @27\n      : @588 [@dyn 283] (gas: 11)\n 16059: a1 = s1 + 0x2058\n 16063: a2 = a1 + 0x500\n 16067: a0 = u64 [a2 + 0xf8]\n 16071: u64 [s1 + 0xc8] = a0\n 16075: a0 = u64 [a2 + 0xf0]\n 16079: u64 [s1 + 0xd8] = a0\n 16083: a0 = u64 [a2 + 0xe8]\n 16087: u64 [s1 + 0xd0] = a0\n 16091: a0 = s1 + 0x2620\n 16095: a1 = 0x40\n 16098: ra = 568, jump @23\n      : @589 [@dyn 284] (gas: 7)\n 16104: a3 = s1 + 0x2058\n 16108: a5 = a3 + 0x500\n 16112: a4 = u64 [a5 + 0xe0]\n 16116: a1 = u64 [a5 + 0xd8]\n 16120: a2 = u64 [a5 + 0xd0]\n 16124: a0 = u64 [a5 + 0xc8]\n 16128: t0 = 570, jump @1528\n      : @590 [@dyn 285] (gas: 1)\n 16134: jump @592 if a1 == 0\n      : @591 (gas: 1)\n 16137: jump @1003\n      : @592 (gas: 14)\n 16140: a1 = u64 [s1 + 0xc8]\n 16144: a1 = a1 << 0x20\n 16147: a2 = a1 >> 0x20\n 16150: u64 [a3 + 1472] = 0\n 16154: a1 = u64 [s1 + 0xd0]\n 16158: a4 = a3 + 0x500\n 16162: u64 [a4 + 0xa8] = a1\n 16166: a1 = u64 [s1 + 0xd8]\n 16170: u64 [a4 + 0xb0] = a1\n 16174: a1 = s1 + 0x2600\n 16178: u64 [a4 + 0xb8] = a2\n 16182: u64 [s1 + 0xd8] = a0\n 16186: ra = 0x410\n 16190: jump @25\n      : @593 (gas: 9)\n 16193: u64 [a3 + 1824] = 0\n 16197: u64 [a3 + 1816] = 0\n 16201: u64 [a3 + 1808] = 0\n 16205: u64 [a3 + 1800] = 0\n 16209: a0 = s1 + 0x3000\n 16213: i32 a0 = a0 + 0x760\n 16217: ra = 0x23c\n 16221: ecalli 10 // 'value_transferred'\n 16223: fallthrough\n      : @594 [@dyn 286] (gas: 3)\n 16224: a3 = s1 + 0x3058\n 16228: a4 = a3 + 0x700\n 16232: t0 = 574, jump @1557\n      : @595 [@dyn 287] (gas: 1)\n 16238: jump @597 if a0 == 0\n      : @596 (gas: 1)\n 16241: jump @1142\n      : @597 (gas: 4)\n 16244: a0 = u64 [s1 + 0x18]\n 16247: a0 = i32 [a0]\n 16249: a1 = 0x43\n 16252: jump @599 if a1 <u a0\n      : @598 (gas: 1)\n 16255: jump @1143\n      : @599 (gas: 4)\n 16258: a0 = s1 + 0x11c0\n 16262: ra = 0x240\n 16266: t0 = 0x504\n 16270: jump @1574\n      : @600 [@dyn 288] (gas: 17)\n 16273: a1 = s1 + 0x1058\n 16277: a2 = a1 + 0x100\n 16281: a0 = u64 [a2 + 0x78]\n 16284: u64 [s1 + 0xa0] = a0\n 16288: a0 = u64 [a2 + 0x70]\n 16291: u64 [s1 + 0xb8] = a0\n 16295: a0 = u64 [a2 + 0x68]\n 16298: u64 [s1 + 0xc0] = a0\n 16302: a0 = 0x301b0\n 16307: u64 [s1 + 0xb0] = a0\n 16311: i32 a0 = a0 + 0\n 16313: u64 [s1 + 0xa8] = a0\n 16317: ra = 0x242\n 16321: ecalli 3 // 'caller'\n 16323: a2 = u64 [s1 + 0xb0]\n 16327: t0 = 0x244\n 16331: jump @1521\n      : @601 [@dyn 289] (gas: 2)\n 16334: a2 = u64 [s1 + 0xb0]\n 16338: t0 = 580, jump @1521\n      : @602 [@dyn 290] (gas: 8)\n 16344: u64 [a2 + 352] = 0\n 16348: a4 = a2 + 0x100\n 16352: u64 [a4 + 0x58] = a1\n 16355: u64 [a4 + 0x50] = a0\n 16358: a1 = s1 + 0x11a0\n 16362: u64 [a4 + 0x48] = a3\n 16365: a0 = 0\n 16367: ra = 582, jump @25\n      : @603 [@dyn 291] (gas: 3)\n 16373: t0 = 0x248\n 16377: a1 = s1 + 0x1058\n 16381: fallthrough\n      : @604 [@dyn 292] (gas: 8)\n 16382: u64 [a1 + 320] = 0\n 16386: u64 [a1 + 312] = 0\n 16390: u64 [a1 + 296] = 0x5\n 16395: a2 = a1\n 16397: a0 = 0x20\n 16400: a1 = s1 + 0x1180\n 16404: u64 [a2 + 304] = 0\n 16408: ra = 586, jump @25\n      : @605 [@dyn 293] (gas: 4)\n 16414: a0 = 0x2019c\n 16419: u64 [s1 + 0xd8] = a0\n 16423: a0 = i32 [0x2019c]\n 16428: jump @607 if a0 >u 63\n      : @606 (gas: 3)\n 16432: a1 = u64 [s1 + 0xd8]\n 16436: u32 [a1 + 0] = 0x40\n 16439: fallthrough\n      : @607 (gas: 13)\n 16440: a0 = sp + 0xffffffffffffffe0\n 16443: a2 = a0 & 0xffffffffffffffe0\n 16446: u64 [s1 + 0xc8] = a2\n 16450: sp = a2\n 16452: a0 = 0x201b0\n 16457: i32 a0 = a0 + 0\n 16459: i32 a2 = a2 + 0\n 16461: a1 = 0x40\n 16464: u64 [s1 + 0xd0] = a0\n 16468: ra = 0x24c\n 16472: ecalli 6 // 'hash_keccak_256'\n 16474: t0 = 0x24e\n 16478: jump @1546\n      : @608 [@dyn 294] (gas: 1)\n 16481: t0 = 590, jump @1546\n      : @609 [@dyn 295] (gas: 15)\n 16487: a0 = u64 [s1 + 0xa0]\n 16491: a0 = a0 << 0x20\n 16494: a1 = a0 >> 0x20\n 16497: a2 = s1 + 0x1058\n 16501: u64 [a2 + 288] = 0\n 16505: u64 [s1 + 0xa0] = a1\n 16509: a3 = a2 + 0x100\n 16513: u64 [a3 + 0x18] = a1\n 16516: a0 = u64 [s1 + 0xb8]\n 16520: u64 [a3 + 0x10] = a0\n 16523: a1 = s1 + 0x1160\n 16527: a0 = u64 [s1 + 0xc0]\n 16531: u64 [a3 + 0x8] = a0\n 16534: a0 = 0\n 16536: ra = 592, jump @25\n      : @610 [@dyn 296] (gas: 13)\n 16542: a0 = u64 [s1 + 0x80]\n 16546: a1 = s1 + 0x1058\n 16550: u64 [a1 + 0x100] = a0\n 16554: a0 = u64 [s1 + 0x88]\n 16558: u64 [a1 + 0xf8] = a0\n 16562: a0 = u64 [s1 + 0x90]\n 16566: u64 [a1 + 0xf0] = a0\n 16570: a3 = a1\n 16572: a0 = 0x20\n 16575: a1 = s1 + 0x1140\n 16579: a2 = u64 [s1 + 0x98]\n 16583: u64 [a3 + 0xe8] = a2\n 16587: ra = 594, jump @25\n      : @611 [@dyn 297] (gas: 3)\n 16593: a0 = u64 [s1 + 0xd8]\n 16597: a0 = i32 [a0]\n 16599: jump @613 if a0 >u 63\n      : @612 (gas: 3)\n 16603: a0 = u64 [s1 + 0xd8]\n 16607: u32 [a0 + 0] = 0x40\n 16610: fallthrough\n      : @613 (gas: 4)\n 16611: a0 = sp + 0xffffffffffffffe0\n 16614: a0 = a0 & 0xffffffffffffffe0\n 16617: u64 [s1 + 0x98] = a0\n 16621: t0 = 596, jump @1535\n      : @614 [@dyn 298] (gas: 3)\n 16627: ra = 0x256\n 16631: ecalli 6 // 'hash_keccak_256'\n 16633: fallthrough\n      : @615 [@dyn 299] (gas: 7)\n 16634: a3 = u64 [s1 + 0x98]\n 16638: a0 = u64 [a3 + 0x18]\n 16641: a1 = u64 [a3 + 0x10]\n 16644: a2 = u64 [a3 + 0x8]\n 16647: a3 = u64 [a3]\n 16649: a0 = reverse a0\n 16651: t0 = 600, jump @1558\n      : @616 [@dyn 300] (gas: 22)\n 16657: a4 = u64 [s1 + 0xc8]\n 16661: u64 [a4 + 0x18] = a3\n 16664: u64 [a4 + 0x10] = a2\n 16667: u64 [a4 + 0x8] = a1\n 16670: u64 [a4] = a0\n 16672: a0 = s1 + 0x3000\n 16676: i32 a0 = a0 + 0x780\n 16680: a1 = 0x24\n 16683: ecalli 1 // 'call_data_load'\n 16685: a0 = s1 + 0x3058\n 16689: a2 = a0 + 0x700\n 16693: a1 = u64 [a2 + 0x28]\n 16696: u64 [s1 + 0x98] = a1\n 16700: a1 = u64 [a2 + 0x30]\n 16703: u64 [s1 + 0x90] = a1\n 16707: a1 = u64 [a2 + 0x38]\n 16710: u64 [s1 + 0x88] = a1\n 16714: a0 = u64 [a2 + 0x40]\n 16717: u64 [s1 + 0x80] = a0\n 16721: a0 = s1 + 0x1120\n 16725: a1 = u64 [s1 + 0xc8]\n 16729: ra = 602, jump @27\n      : @617 [@dyn 301] (gas: 21)\n 16735: a4 = s1 + 0x1058\n 16739: a3 = u64 [a4 + 0xc8]\n 16743: a0 = u64 [a4 + 0xd0]\n 16747: a1 = u64 [a4 + 0xd8]\n 16751: a2 = u64 [a4 + 0xe0]\n 16755: a5 = u64 [s1 + 0x80]\n 16759: u64 [a4 + 0x80] = a5\n 16763: a5 = u64 [s1 + 0x88]\n 16767: u64 [a4 + 0x78] = a5\n 16770: a5 = u64 [s1 + 0x90]\n 16774: u64 [a4 + 0x70] = a5\n 16777: a5 = u64 [s1 + 0x98]\n 16781: u64 [a4 + 0x68] = a5\n 16784: u64 [a4 + 0xa0] = a2\n 16788: u64 [a4 + 0x98] = a1\n 16792: u64 [a4 + 0x90] = a0\n 16796: a0 = s1 + 0x1100\n 16800: a1 = s1 + 0x10e0\n 16804: a2 = s1 + 0x10c0\n 16808: u64 [a4 + 0x88] = a3\n 16812: ra = 604, jump @1344\n      : @618 [@dyn 302] (gas: 14)\n 16818: a3 = s1 + 0x1058\n 16822: a0 = u64 [a3 + 0xc0]\n 16826: a1 = u64 [a3 + 0xb8]\n 16830: a2 = u64 [a3 + 0xb0]\n 16834: a3 = u64 [a3 + 0xa8]\n 16838: a4 = s1 + 0x3058\n 16842: a5 = a4 + 0x700\n 16846: u64 [a5 + 0x60] = a0\n 16849: u64 [a5 + 0x58] = a1\n 16852: u64 [a5 + 0x50] = a2\n 16855: u64 [a5 + 0x48] = a3\n 16858: a1 = s1 + 0x37a0\n 16862: a0 = u64 [s1 + 0xc8]\n 16866: ra = 606, jump @31\n      : @619 [@dyn 303] (gas: 6)\n 16872: a0 = u64 [s1 + 0xa8]\n 16876: ra = 0x260\n 16880: ecalli 3 // 'caller'\n 16882: a2 = u64 [s1 + 0xb0]\n 16886: t0 = 0x262\n 16890: jump @1521\n      : @620 [@dyn 304] (gas: 2)\n 16893: a2 = u64 [s1 + 0xb0]\n 16897: t0 = 610, jump @1521\n      : @621 [@dyn 305] (gas: 7)\n 16903: u64 [a2 + 96] = 0\n 16906: u64 [a2 + 0x58] = a1\n 16909: u64 [a2 + 0x50] = a0\n 16912: a1 = s1 + 0x10a0\n 16916: u64 [a2 + 0x48] = a3\n 16919: a0 = 0\n 16921: ra = 612, jump @25\n      : @622 [@dyn 306] (gas: 3)\n 16927: t0 = 0x266\n 16931: a1 = s1 + 0x1058\n 16935: fallthrough\n      : @623 [@dyn 307] (gas: 8)\n 16936: u64 [a1 + 64] = 0\n 16939: u64 [a1 + 56] = 0\n 16942: u64 [a1 + 40] = 0x5\n 16946: a2 = a1\n 16948: a0 = 0x20\n 16951: a1 = s1 + 0x1080\n 16955: u64 [a2 + 48] = 0\n 16958: ra = 616, jump @25\n      : @624 [@dyn 308] (gas: 3)\n 16964: a0 = u64 [s1 + 0xd8]\n 16968: a0 = i32 [a0]\n 16970: jump @626 if a0 >u 63\n      : @625 (gas: 3)\n 16974: a0 = u64 [s1 + 0xd8]\n 16978: u32 [a0 + 0] = 0x40\n 16981: fallthrough\n      : @626 (gas: 4)\n 16982: a0 = sp + 0xffffffffffffffe0\n 16985: a0 = a0 & 0xffffffffffffffe0\n 16988: u64 [s1 + 0xc8] = a0\n 16992: t0 = 618, jump @1535\n      : @627 [@dyn 309] (gas: 4)\n 16998: ra = 0x26c\n 17002: ecalli 6 // 'hash_keccak_256'\n 17004: t0 = 0x26e\n 17008: jump @1546\n      : @628 [@dyn 310] (gas: 1)\n 17011: t0 = 622, jump @1546\n      : @629 [@dyn 311] (gas: 11)\n 17017: a2 = s1 + 0x1058\n 17021: u64 [a2 + 32] = 0\n 17024: a0 = u64 [s1 + 0xa0]\n 17028: u64 [a2 + 0x18] = a0\n 17031: a0 = u64 [s1 + 0xb8]\n 17035: u64 [a2 + 0x10] = a0\n 17038: a1 = s1 + 0x1060\n 17042: a0 = u64 [s1 + 0xc0]\n 17046: u64 [a2 + 0x8] = a0\n 17049: a0 = 0\n 17051: ra = 624, jump @25\n      : @630 [@dyn 312] (gas: 13)\n 17057: a0 = u64 [s1 + 0x80]\n 17061: a1 = s1 + 0x1058\n 17065: u64 [a1] = a0\n 17067: a0 = u64 [s1 + 0x88]\n 17071: u64 [a1 + 0xfffffffffffffff8] = a0\n 17074: a0 = u64 [s1 + 0x90]\n 17078: u64 [a1 + 0xfffffffffffffff0] = a0\n 17081: a3 = a1\n 17083: a0 = 0x20\n 17086: a1 = s1 + 0x1040\n 17090: a2 = u64 [s1 + 0x98]\n 17094: u64 [a3 + 0xffffffffffffffe8] = a2\n 17097: ra = 626, jump @25\n      : @631 [@dyn 313] (gas: 3)\n 17103: a0 = u64 [s1 + 0xd8]\n 17107: a0 = i32 [a0]\n 17109: jump @633 if a0 >u 63\n      : @632 (gas: 3)\n 17113: a0 = u64 [s1 + 0xd8]\n 17117: u32 [a0 + 0] = 0x40\n 17120: fallthrough\n      : @633 (gas: 4)\n 17121: a0 = sp + 0xffffffffffffffe0\n 17124: a0 = a0 & 0xffffffffffffffe0\n 17127: u64 [s1 + 0xd8] = a0\n 17131: t0 = 628, jump @1535\n      : @634 [@dyn 314] (gas: 5)\n 17137: ra = 0x276\n 17141: ecalli 6 // 'hash_keccak_256'\n 17143: a3 = u64 [s1 + 0xd8]\n 17147: t0 = 0x278\n 17151: jump @1529\n      : @635 [@dyn 315] (gas: 2)\n 17154: a3 = u64 [s1 + 0xd8]\n 17158: t0 = 632, jump @1529\n      : @636 [@dyn 316] (gas: 7)\n 17164: a1 = u64 [s1 + 0xc8]\n 17168: u64 [a1 + 0x18] = a3\n 17171: u64 [a1 + 0x10] = a2\n 17174: u64 [a1 + 0x8] = a4\n 17177: u64 [a1] = a0\n 17179: a0 = s1 + 0x1020\n 17183: ra = 634, jump @27\n      : @637 [@dyn 317] (gas: 14)\n 17189: a1 = s1 + 0x7ff\n 17193: a1 = a1 + 0x51\n 17196: a2 = a1 + 0x700\n 17200: a0 = u64 [a2 + 0xe8]\n 17204: u64 [s1 + 0xd8] = a0\n 17208: a0 = u64 [a2 + 0xe0]\n 17212: u64 [s1 + 0xd0] = a0\n 17216: a0 = u64 [a2 + 0xd8]\n 17220: u64 [s1 + 0xc8] = a0\n 17224: a0 = u64 [a2 + 0xd0]\n 17228: u64 [s1 + 0x98] = a0\n 17232: a0 = s1 + 0x1000\n 17236: a1 = 0x40\n 17239: ra = 636, jump @23\n      : @638 [@dyn 318] (gas: 8)\n 17245: a3 = s1 + 0x7ff\n 17249: a3 = a3 + 0x51\n 17252: a5 = a3 + 0x700\n 17256: a4 = u64 [a5 + 0xc8]\n 17260: a1 = u64 [a5 + 0xc0]\n 17264: a2 = u64 [a5 + 0xb8]\n 17268: a0 = u64 [a5 + 0xb0]\n 17272: t0 = 638, jump @1528\n      : @639 [@dyn 319] (gas: 1)\n 17278: jump @641 if a1 == 0\n      : @640 (gas: 1)\n 17281: jump @1003\n      : @641 (gas: 13)\n 17284: a1 = u64 [s1 + 0x98]\n 17288: a4 = a3 + 0x700\n 17292: u64 [a4 + 0x90] = a1\n 17296: a1 = u64 [s1 + 0xc8]\n 17300: u64 [a4 + 0x98] = a1\n 17304: a1 = u64 [s1 + 0xd0]\n 17308: u64 [a4 + 0xa0] = a1\n 17312: a1 = s1 + 0x7ff\n 17316: a1 = a1 + 0x7e1\n 17320: a2 = u64 [s1 + 0xd8]\n 17324: u64 [a4 + 0xa8] = a2\n 17328: u64 [s1 + 0xd8] = a0\n 17332: ra = 640, jump @25\n      : @642 [@dyn 320] (gas: 6)\n 17338: a0 = u64 [s1 + 0xa8]\n 17342: ra = 0x282\n 17346: ecalli 3 // 'caller'\n 17348: a2 = u64 [s1 + 0xb0]\n 17352: t0 = 0x284\n 17356: jump @1522\n      : @643 [@dyn 321] (gas: 2)\n 17359: a2 = u64 [s1 + 0xb0]\n 17363: t0 = 644, jump @1522\n      : @644 [@dyn 322] (gas: 58)\n 17369: t0 = a1 | a0\n 17372: a3 = a3 >> 0x20\n 17375: a2 = reverse a2\n 17377: a1 = a2 << 0x20\n 17380: a1 = a1 | a3\n 17383: a2 = a2 >> 0x20\n 17386: a3 = s1 + 0x7ff\n 17390: a3 = a3 + 0x51\n 17393: a0 = u64 [s1 + 0xa0]\n 17397: u64 [a3 + 0x740] = a0\n 17401: a3 = u64 [0x20050]\n 17406: a4 = s1 + 0x7ff\n 17410: a4 = a4 + 0x51\n 17413: u64 [a4 + 1864] = 0\n 17417: a4 = s1 + 0x7ff\n 17421: a4 = a4 + 0x51\n 17424: a0 = u64 [s1 + 0xb8]\n 17428: u64 [a4 + 0x738] = a0\n 17432: a4 = s1 + 0x7ff\n 17436: a4 = a4 + 0x51\n 17439: a0 = u64 [s1 + 0xc0]\n 17443: u64 [a4 + 0x730] = a0\n 17447: a0 = s1 + 0x7ff\n 17451: a0 = a0 + 0x51\n 17454: u64 [a0 + 0x788] = a3\n 17458: a3 = u64 [0x20058]\n 17463: a4 = u64 [0x20060]\n 17468: a5 = u64 [0x20068]\n 17473: a0 = s1 + 0x7ff\n 17477: a0 = a0 + 0x51\n 17480: u64 [a0 + 1896] = 0\n 17484: a0 = s1 + 0x7ff\n 17488: a0 = a0 + 0x51\n 17491: u64 [a0 + 0x780] = a3\n 17495: a0 = s1 + 0x7ff\n 17499: a0 = a0 + 0x51\n 17502: u64 [a0 + 0x778] = a4\n 17506: a0 = s1 + 0x7ff\n 17510: a0 = a0 + 0x51\n 17513: u64 [a0 + 0x770] = a5\n 17517: a0 = s1 + 0x7ff\n 17521: a0 = a0 + 0x51\n 17524: u64 [a0 + 0x760] = a2\n 17528: a0 = s1 + 0x7ff\n 17532: a0 = a0 + 0x51\n 17535: u64 [a0 + 0x758] = a1\n 17539: a1 = 0x20\n 17542: a2 = s1 + 0x7ff\n 17546: a2 = a2 + 0x7c1\n 17550: a3 = s1 + 0x7ff\n 17554: a3 = a3 + 0x7a1\n 17558: a4 = s1 + 0x7ff\n 17562: a4 = a4 + 0x781\n 17566: a0 = s1 + 0x7ff\n 17570: a0 = a0 + 0x51\n 17573: u64 [a0 + 0x750] = t0\n 17577: a0 = u64 [s1 + 0xd8]\n 17581: ra = 646, jump @34\n      : @645 [@dyn 323] (gas: 4)\n 17587: a0 = s1 + 0x7ff\n 17591: a0 = a0 + 0x761\n 17595: a1 = 0x40\n 17598: ra = 648, jump @23\n      : @646 [@dyn 324] (gas: 8)\n 17604: a3 = s1 + 0x7ff\n 17608: a3 = a3 + 0x51\n 17611: a5 = a3 + 0x700\n 17615: a4 = u64 [a5 + 0x28]\n 17618: a1 = u64 [a5 + 0x20]\n 17621: a2 = u64 [a5 + 0x18]\n 17624: a0 = u64 [a5 + 0x10]\n 17627: t0 = 650, jump @1528\n      : @647 [@dyn 325] (gas: 1)\n 17633: jump @649 if a1 == 0\n      : @648 (gas: 1)\n 17636: jump @1003\n      : @649 (gas: 9)\n 17639: u64 [a3 + 1800] = 0\n 17643: u64 [a3 + 1792] = 0\n 17647: u64 [a3 + 1776] = 0x1\n 17652: a1 = s1 + 0x7ff\n 17656: a1 = a1 + 0x741\n 17660: u64 [a3 + 1784] = 0\n 17664: u64 [s1 + 0xd8] = a0\n 17668: ra = 0x410\n 17672: jump @25\n      : @650 (gas: 11)\n 17675: u64 [a2 + 1344] = 0\n 17679: u64 [a2 + 1336] = 0\n 17683: u64 [a2 + 1328] = 0\n 17687: u64 [a2 + 1320] = 0\n 17691: a0 = s1 + 0x4000\n 17695: i32 a0 = a0 + 0xfffffffffffffd80\n 17699: ra = 0x28c\n 17703: ecalli 10 // 'value_transferred'\n 17705: a0 = 0x3858\n 17709: t0 = 0x28e\n 17713: jump @1569\n      : @651 [@dyn 326] (gas: 2)\n 17716: a0 = 0x3858\n 17720: t0 = 654, jump @1569\n      : @652 [@dyn 327] (gas: 1)\n 17726: jump @654 if a0 == 0\n      : @653 (gas: 1)\n 17729: jump @1144\n      : @654 (gas: 3)\n 17732: a0 = u64 [s1 + 0x18]\n 17735: a0 = i32 [a0]\n 17737: jump @656 if a0 >u 35\n      : @655 (gas: 1)\n 17741: jump @1145\n      : @656 (gas: 21)\n 17744: a0 = s1 + 0x4000\n 17748: i32 a0 = a0 + 0xfffffffffffffda0\n 17752: a1 = 0x4\n 17755: ecalli 1 // 'call_data_load'\n 17757: a1 = s1 + 0x3858\n 17761: a2 = a1 + 0x500\n 17765: a0 = u64 [a2 + 0x48]\n 17768: u64 [s1 + 0xd8] = a0\n 17772: a0 = u64 [a2 + 0x50]\n 17775: u64 [s1 + 0xd0] = a0\n 17779: a0 = u64 [a2 + 0x58]\n 17782: u64 [s1 + 0xc8] = a0\n 17786: a0 = u64 [a2 + 0x60]\n 17789: u64 [s1 + 0xc0] = a0\n 17793: u64 [a1 + 1408] = 0\n 17797: u64 [a1 + 1400] = 0\n 17801: u64 [a1 + 1392] = 0\n 17805: u64 [a2 + 104] = 0x2\n 17809: a0 = s1 + 0x3340\n 17813: a1 = s1 + 0x3dc0\n 17817: ra = 656, jump @27\n      : @657 [@dyn 328] (gas: 11)\n 17823: a0 = s1 + 0x3058\n 17827: a2 = u8 [a0 + 0x2e8]\n 17831: u64 [s1 + 0xb8] = a2\n 17835: u64 [a0 + 704] = 0\n 17839: u64 [a0 + 696] = 0\n 17843: u64 [a0 + 688] = 0\n 17847: a3 = a0\n 17849: a0 = s1 + 0x3320\n 17853: a1 = s1 + 0x3300\n 17857: u64 [a3 + 0x2a8] = a2\n 17861: ra = 658, jump @1224\n      : @658 [@dyn 329] (gas: 22)\n 17867: a4 = s1 + 0x3058\n 17871: a5 = a4 + 0x200\n 17875: a0 = u64 [a5 + 0xc8]\n 17879: a1 = u64 [a5 + 0xd0]\n 17883: a2 = u64 [a5 + 0xd8]\n 17887: a3 = u64 [a5 + 0xe0]\n 17891: u64 [a5 + 0x60] = a3\n 17894: u64 [a5 + 0x58] = a2\n 17897: u64 [a5 + 0x50] = a1\n 17900: u64 [a5 + 0x48] = a0\n 17903: a0 = u64 [s1 + 0xc0]\n 17907: u64 [a5 + 0x80] = a0\n 17911: a0 = u64 [s1 + 0xc8]\n 17915: u64 [a5 + 0x78] = a0\n 17918: a0 = u64 [s1 + 0xd0]\n 17922: u64 [a5 + 0x70] = a0\n 17925: a0 = s1 + 0x32e0\n 17929: a1 = s1 + 0x32c0\n 17933: a2 = s1 + 0x32a0\n 17937: a3 = u64 [s1 + 0xd8]\n 17941: u64 [a5 + 0x68] = a3\n 17944: ra = 660, jump @1233\n      : @659 [@dyn 330] (gas: 19)\n 17950: a1 = s1 + 0x3058\n 17954: a2 = a1 + 0x200\n 17958: a0 = u64 [a2 + 0x88]\n 17962: u64 [s1 + 0xb0] = a0\n 17966: a0 = u64 [a2 + 0x90]\n 17970: u64 [s1 + 0xa8] = a0\n 17974: a0 = u64 [a2 + 0x98]\n 17978: u64 [s1 + 0xa0] = a0\n 17982: a0 = u64 [a2 + 0xa0]\n 17986: u64 [s1 + 0x98] = a0\n 17990: u64 [a1 + 544] = 0\n 17994: u64 [a1 + 536] = 0\n 17998: u64 [a1 + 528] = 0\n 18002: a3 = a1\n 18004: a0 = s1 + 0x3280\n 18008: a1 = s1 + 0x3260\n 18012: a2 = u64 [s1 + 0xb8]\n 18016: u64 [a3 + 0x208] = a2\n 18020: ra = 662, jump @1224\n      : @660 [@dyn 331] (gas: 23)\n 18026: a4 = s1 + 0x3058\n 18030: a5 = a4 + 0x200\n 18034: a0 = u64 [a5 + 0x28]\n 18037: a1 = u64 [a5 + 0x30]\n 18040: a2 = u64 [a5 + 0x38]\n 18043: a3 = u64 [a5 + 0x40]\n 18046: a5 = a4 + 0x100\n 18050: u64 [a5 + 0xc0] = a3\n 18054: u64 [a5 + 0xb8] = a2\n 18058: u64 [a5 + 0xb0] = a1\n 18062: u64 [a5 + 0xa8] = a0\n 18066: a0 = u64 [s1 + 0xc0]\n 18070: u64 [a5 + 0xe0] = a0\n 18074: a0 = u64 [s1 + 0xc8]\n 18078: u64 [a5 + 0xd8] = a0\n 18082: a0 = u64 [s1 + 0xd0]\n 18086: u64 [a5 + 0xd0] = a0\n 18090: a0 = s1 + 0x3240\n 18094: a1 = s1 + 0x3220\n 18098: a2 = s1 + 0x3200\n 18102: a3 = u64 [s1 + 0xd8]\n 18106: u64 [a5 + 0xc8] = a3\n 18110: ra = 664, jump @1259\n      : @661 [@dyn 332] (gas: 19)\n 18116: a1 = s1 + 0x3058\n 18120: a2 = a1 + 0x100\n 18124: a0 = u64 [a2 + 0xe8]\n 18128: u64 [s1 + 0xd8] = a0\n 18132: a0 = u64 [a2 + 0xf0]\n 18136: u64 [s1 + 0xd0] = a0\n 18140: a0 = u64 [a2 + 0xf8]\n 18144: u64 [s1 + 0xc8] = a0\n 18148: a0 = u64 [a1 + 0x200]\n 18152: u64 [s1 + 0xc0] = a0\n 18156: u64 [a1 + 384] = 0\n 18160: u64 [a1 + 376] = 0\n 18164: a0 = u64 [s1 + 0xb8]\n 18168: u64 [a2 + 0x68] = a0\n 18171: a2 = a1\n 18173: a0 = s1 + 0x31e0\n 18177: a1 = s1 + 0x31c0\n 18181: u64 [a2 + 368] = 0\n 18185: ra = 666, jump @1284\n      : @662 [@dyn 333] (gas: 13)\n 18191: a4 = s1 + 0x3058\n 18195: a5 = a4 + 0x100\n 18199: a2 = u64 [a5 + 0x88]\n 18203: a0 = u64 [a5 + 0x90]\n 18207: a1 = u64 [a5 + 0x98]\n 18211: a3 = u64 [a5 + 0xa0]\n 18215: u64 [a5 + 0x40] = a3\n 18218: u64 [a5 + 0x38] = a1\n 18221: u64 [a5 + 0x30] = a0\n 18224: a0 = s1 + 0x31a0\n 18228: a1 = s1 + 0x3180\n 18232: u64 [a5 + 0x28] = a2\n 18235: ra = 668, jump @1224\n      : @663 [@dyn 334] (gas: 22)\n 18241: a4 = s1 + 0x3058\n 18245: a5 = a4 + 0x100\n 18249: a0 = u64 [a5 + 0x48]\n 18252: a1 = u64 [a5 + 0x50]\n 18255: a2 = u64 [a5 + 0x58]\n 18258: a3 = u64 [a5 + 0x60]\n 18261: u64 [a4 + 0xe0] = a3\n 18265: u64 [a4 + 0xd8] = a2\n 18269: u64 [a4 + 0xd0] = a1\n 18273: u64 [a4 + 0xc8] = a0\n 18277: a0 = u64 [s1 + 0xc0]\n 18281: u64 [a5] = a0\n 18283: a0 = u64 [s1 + 0xc8]\n 18287: u64 [a4 + 0xf8] = a0\n 18291: a0 = u64 [s1 + 0xd0]\n 18295: u64 [a4 + 0xf0] = a0\n 18299: a0 = s1 + 0x3160\n 18303: a1 = s1 + 0x3140\n 18307: a2 = s1 + 0x3120\n 18311: a3 = u64 [s1 + 0xd8]\n 18315: u64 [a4 + 0xe8] = a3\n 18319: ra = 670, jump @1233\n      : @664 [@dyn 335] (gas: 22)\n 18325: a1 = s1 + 0x3058\n 18329: a2 = a1 + 0x100\n 18333: a0 = u64 [a2 + 0x8]\n 18336: u64 [s1 + 0xb8] = a0\n 18340: a0 = u64 [a2 + 0x10]\n 18343: u64 [s1 + 0x90] = a0\n 18347: a0 = u64 [a2 + 0x18]\n 18350: u64 [s1 + 0x88] = a0\n 18354: a0 = u64 [a2 + 0x20]\n 18357: u64 [s1 + 0x80] = a0\n 18361: a0 = u64 [s1 + 0x98]\n 18365: u64 [a1 + 0xa0] = a0\n 18369: a0 = u64 [s1 + 0xa0]\n 18373: u64 [a1 + 0x98] = a0\n 18377: a0 = u64 [s1 + 0xa8]\n 18381: u64 [a1 + 0x90] = a0\n 18385: a3 = a1\n 18387: a0 = s1 + 0x3100\n 18391: a1 = s1 + 0x30e0\n 18395: a2 = u64 [s1 + 0xb0]\n 18399: u64 [a3 + 0x88] = a2\n 18403: ra = 672, jump @1412\n      : @665 [@dyn 336] (gas: 21)\n 18409: a0 = s1 + 0x3058\n 18413: a1 = u64 [a0 + 0xc0]\n 18417: u64 [s1 + 0xd0] = a1\n 18421: a1 = u64 [a0 + 0xb8]\n 18425: u64 [s1 + 0xc8] = a1\n 18429: a1 = u64 [a0 + 0xb0]\n 18433: u64 [s1 + 0xd8] = a1\n 18437: a1 = u64 [a0 + 0xa8]\n 18441: u64 [s1 + 0xc0] = a1\n 18445: a1 = u64 [s1 + 0x80]\n 18449: u64 [a0 + 0x60] = a1\n 18452: a1 = u64 [s1 + 0x88]\n 18456: u64 [a0 + 0x58] = a1\n 18459: a1 = u64 [s1 + 0x90]\n 18463: u64 [a0 + 0x50] = a1\n 18466: a3 = a0\n 18468: a0 = s1 + 0x30c0\n 18472: a1 = s1 + 0x30a0\n 18476: a2 = u64 [s1 + 0xb8]\n 18480: u64 [a3 + 0x48] = a2\n 18483: ra = 674, jump @1496\n      : @666 [@dyn 337] (gas: 3)\n 18489: t0 = 0x2a4\n 18493: a1 = s1 + 0x3058\n 18497: fallthrough\n      : @667 [@dyn 338] (gas: 11)\n 18498: a0 = u64 [a1 + 0x80]\n 18502: u64 [s1 + 0x88] = a0\n 18506: a0 = u64 [a1 + 0x78]\n 18509: u64 [s1 + 0x80] = a0\n 18513: a0 = u64 [a1 + 0x70]\n 18516: u64 [s1 + 0x90] = a0\n 18520: a0 = u64 [a1 + 0x68]\n 18523: u64 [s1 + 0x98] = a0\n 18527: a0 = s1 + 0x3080\n 18531: a1 = 0x40\n 18534: ra = 678, jump @23\n      : @668 [@dyn 339] (gas: 1)\n 18540: t0 = 680, jump @1564\n      : @669 [@dyn 340] (gas: 1)\n 18546: jump @671 if a0 == 0\n      : @670 (gas: 1)\n 18549: jump @1003\n      : @671 (gas: 11)\n 18552: a0 = s1 + 0x3058\n 18556: a2 = u64 [a0 + 0x40]\n 18559: u64 [s1 + 0xa0] = a2\n 18563: a2 = u64 [a0 + 0x38]\n 18566: u64 [s1 + 0xa8] = a2\n 18570: a2 = u64 [a0 + 0x30]\n 18573: u64 [s1 + 0xb0] = a2\n 18577: a0 = u64 [a0 + 0x28]\n 18580: u64 [s1 + 0xb8] = a0\n 18584: a0 = s1 + 0x3060\n 18588: ra = 682, jump @23\n      : @672 [@dyn 341] (gas: 13)\n 18594: a1 = u64 [s1 + 0xb8]\n 18598: a0 = a1 + 0x20\n 18601: a1 = a0 <u a1\n 18604: a3 = u64 [s1 + 0xb0]\n 18608: a2 = a3 + a1\n 18611: a3 = a2 <u a3\n 18614: a3 = a1 if a1 == 0\n 18617: a1 = u64 [s1 + 0xa8]\n 18621: a3 = a3 + a1\n 18624: a1 = a3 <u a1\n 18627: a4 = u64 [s1 + 0xa0]\n 18631: a1 = a1 + a4\n 18634: t0 = 684, jump @1537\n      : @673 [@dyn 342] (gas: 1)\n 18640: jump @675 if a1 == 0\n      : @674 (gas: 1)\n 18643: jump @1003\n      : @675 (gas: 10)\n 18646: a1 = u64 [s1 + 0xd0]\n 18650: a2 = u64 [s1 + 0xc8]\n 18654: a1 = a1 | a2\n 18657: a2 = 0xffffffe0\n 18667: t0 = u64 [s1 + 0xc0]\n 18671: a2 = t0 <u a2\n 18674: a3 = u64 [s1 + 0xd8]\n 18678: a2 = 0 if a3 != 0\n 18680: a2 = 0 if a1 != 0\n 18682: jump @677 if a2 != 0\n      : @676 (gas: 1)\n 18685: jump @1003\n      : @677 (gas: 13)\n 18688: a2 = s1 + 0x3058\n 18692: t1 = u64 [a2 + 0x20]\n 18695: a5 = u64 [a2 + 0x18]\n 18698: a1 = u64 [a2 + 0x8]\n 18701: a3 = u64 [a2 + 0x10]\n 18704: a4 = a1 | a5\n 18707: a2 = a3 | t1\n 18710: a4 = a4 | a2\n 18713: a4 = a4 >> 0x20\n 18716: a2 = a2 | a5\n 18719: a2 = a2 << 0x20\n 18722: a2 = a2 | a4\n 18725: jump @679 if a2 == 0\n      : @678 (gas: 1)\n 18728: jump @1003\n      : @679 (gas: 7)\n 18731: i32 a2 = t0 + 0x20\n 18734: u64 [s1 + 0x78] = a2\n 18737: u64 [s1 + 0xd0] = t1\n 18741: u64 [s1 + 0xc8] = a5\n 18745: u64 [s1 + 0xc0] = a3\n 18749: u64 [s1 + 0xd8] = a1\n 18753: ra = 686, jump @38\n      : @680 [@dyn 343] (gas: 4)\n 18759: u64 [s1 + 0x70] = a0\n 18762: a0 = u64 [s1 + 0x78]\n 18765: a1 = u64 [s1 + 0xd8]\n 18769: ra = 688, jump @38\n      : @681 [@dyn 344] (gas: 4)\n 18775: a1 = a0\n 18777: a0 = u64 [s1 + 0x70]\n 18780: a2 = u64 [s1 + 0xd8]\n 18784: ra = 690, jump @6\n      : @682 [@dyn 345] (gas: 38)\n 18790: a0 = u64 [s1 + 0xb8]\n 18794: a1 = u64 [s1 + 0xd8]\n 18798: t0 = a1 + a0\n 18801: a0 = t0 <u a1\n 18804: a1 = u64 [s1 + 0xb0]\n 18808: a2 = u64 [s1 + 0xc0]\n 18812: a1 = a1 + a2\n 18815: a5 = a1 + a0\n 18818: a1 = a5 ^ a2\n 18821: a2 = a5 <u a2\n 18824: a2 = a0 if a1 == 0\n 18827: a0 = u64 [s1 + 0xa8]\n 18831: a3 = u64 [s1 + 0xc8]\n 18835: a0 = a0 + a3\n 18838: a4 = a0 + a2\n 18841: a1 = a4 <u a0\n 18844: a0 = a0 <u a3\n 18847: a2 = u64 [s1 + 0xa0]\n 18851: a3 = u64 [s1 + 0xd0]\n 18855: a2 = a2 + a3\n 18858: a0 = a0 + a2\n 18861: t1 = a0 + a1\n 18864: a0 = t0 + 0x20\n 18867: a1 = a0 <u t0\n 18870: a2 = a5 + a1\n 18873: a3 = a2 <u a5\n 18876: a3 = a1 if a1 == 0\n 18879: a3 = a3 + a4\n 18882: a1 = a3 <u a4\n 18885: a1 = a1 + t1\n 18888: a1 = a1 | a2\n 18891: a2 = a0 | a3\n 18894: a2 = a2 | a1\n 18897: a1 = a1 | a3\n 18900: a2 = a2 >> 0x20\n 18903: a1 = a1 << 0x20\n 18906: a1 = a1 | a2\n 18909: jump @684 if a1 == 0\n      : @683 (gas: 1)\n 18912: jump @1003\n      : @684 (gas: 13)\n 18915: u64 [s1 + 0xc0] = t1\n 18919: u64 [s1 + 0xc8] = a4\n 18923: u64 [s1 + 0xd0] = a5\n 18927: u64 [s1 + 0xd8] = t0\n 18931: a1 = s1 + 0x2858\n 18935: u64 [a1 + 2040] = 0\n 18939: u64 [a1 + 2032] = 0\n 18943: u64 [a1 + 2024] = 0\n 18947: a2 = 0x2e00000000000000\n 18957: a1 = s1 + 0x3040\n 18961: a3 = s1 + 0x3058\n 18965: u64 [a3] = a2\n 18967: ra = 692, jump @25\n      : @685 [@dyn 346] (gas: 1)\n 18973: t0 = 694, jump @1560\n      : @686 [@dyn 347] (gas: 1)\n 18979: jump @688 if a0 == 0\n      : @687 (gas: 1)\n 18982: jump @1003\n      : @688 (gas: 2)\n 18985: a0 = s1 + 0x3020\n 18989: ra = 696, jump @23\n      : @689 [@dyn 348] (gas: 13)\n 18995: a1 = u64 [s1 + 0xd8]\n 18999: a0 = a1 + 0x21\n 19002: a1 = a0 <u a1\n 19005: a3 = u64 [s1 + 0xd0]\n 19009: a2 = a3 + a1\n 19012: a3 = a2 <u a3\n 19015: a3 = a1 if a1 == 0\n 19018: a1 = u64 [s1 + 0xc8]\n 19022: a3 = a3 + a1\n 19025: a1 = a3 <u a1\n 19028: a4 = u64 [s1 + 0xc0]\n 19032: a1 = a1 + a4\n 19035: t0 = 698, jump @1537\n      : @690 [@dyn 349] (gas: 1)\n 19041: jump @692 if a1 == 0\n      : @691 (gas: 1)\n 19044: jump @1003\n      : @692 (gas: 10)\n 19047: a1 = u64 [s1 + 0x88]\n 19051: a2 = u64 [s1 + 0x80]\n 19055: a1 = a1 | a2\n 19058: a2 = 0xffffffe0\n 19068: t0 = u64 [s1 + 0x98]\n 19072: a2 = t0 <u a2\n 19075: a3 = u64 [s1 + 0x90]\n 19079: a2 = 0 if a3 != 0\n 19081: a2 = 0 if a1 != 0\n 19083: jump @694 if a2 != 0\n      : @693 (gas: 1)\n 19086: jump @1003\n      : @694 (gas: 17)\n 19089: a5 = s1 + 0x2858\n 19093: a3 = a5 + 0x700\n 19097: a2 = u64 [a3 + 0xe0]\n 19101: a4 = u64 [a3 + 0xd8]\n 19105: a1 = u64 [a3 + 0xc8]\n 19109: a5 = u64 [a3 + 0xd0]\n 19113: a3 = a1 | a4\n 19116: u64 [s1 + 0x90] = a2\n 19120: u64 [s1 + 0x80] = a5\n 19124: a2 = a2 | a5\n 19127: a3 = a3 | a2\n 19130: a3 = a3 >> 0x20\n 19133: u64 [s1 + 0x88] = a4\n 19137: a2 = a2 | a4\n 19140: a2 = a2 << 0x20\n 19143: a2 = a2 | a3\n 19146: jump @696 if a2 == 0\n      : @695 (gas: 1)\n 19149: jump @1003\n      : @696 (gas: 4)\n 19152: i32 a2 = t0 + 0x20\n 19155: u64 [s1 + 0x78] = a2\n 19158: u64 [s1 + 0x98] = a1\n 19162: ra = 700, jump @38\n      : @697 [@dyn 350] (gas: 4)\n 19168: u64 [s1 + 0x70] = a0\n 19171: a0 = u64 [s1 + 0x78]\n 19174: a1 = u64 [s1 + 0x98]\n 19178: ra = 702, jump @38\n      : @698 [@dyn 351] (gas: 4)\n 19184: a1 = a0\n 19186: a0 = u64 [s1 + 0x70]\n 19189: a2 = u64 [s1 + 0x98]\n 19193: ra = 704, jump @6\n      : @699 [@dyn 352] (gas: 1)\n 19199: t0 = 706, jump @1544\n      : @700 [@dyn 353] (gas: 20)\n 19205: t0 = a5 <u a0\n 19208: a0 = a0 <u a1\n 19211: a2 = u64 [s1 + 0xc0]\n 19215: a1 = u64 [s1 + 0x90]\n 19219: a2 = a2 + a1\n 19222: a0 = a0 + a2\n 19225: t0 = t0 + a0\n 19228: a0 = a3 + 0x21\n 19231: u64 [s1 + 0xd8] = a3\n 19235: a1 = a0 <u a3\n 19238: a2 = a4 + a1\n 19241: u64 [s1 + 0xd0] = a4\n 19245: a3 = a2 <u a4\n 19248: a3 = a1 if a1 == 0\n 19251: a3 = a3 + a5\n 19254: u64 [s1 + 0xc8] = a5\n 19258: a1 = a3 <u a5\n 19261: u64 [s1 + 0xc0] = t0\n 19265: a1 = a1 + t0\n 19268: t0 = 708, jump @1537\n      : @701 [@dyn 354] (gas: 1)\n 19274: jump @703 if a1 == 0\n      : @702 (gas: 1)\n 19277: jump @1003\n      : @703 (gas: 7)\n 19280: a2 = s1 + 0x2858\n 19284: u64 [a2 + 1984] = 0\n 19288: u64 [a2 + 1976] = 0\n 19292: u64 [a2 + 1968] = 0\n 19296: a1 = s1 + 0x3000\n 19300: u64 [a2 + 1960] = 0\n 19304: ra = 710, jump @25\n      : @704 [@dyn 355] (gas: 1)\n 19310: t0 = 712, jump @1570\n      : @705 [@dyn 356] (gas: 1)\n 19316: jump @707 if a0 == 0\n      : @706 (gas: 1)\n 19319: jump @1003\n      : @707 (gas: 56)\n 19322: ra = u64 [s1 + 0xb8]\n 19326: t2 = u64 [s1 + 0xd8]\n 19330: t0 = t2 <u ra\n 19333: a3 = u64 [s1 + 0xb0]\n 19337: a2 = u64 [s1 + 0xd0]\n 19341: a0 = a2 ^ a3\n 19344: a1 = a2 <u a3\n 19347: a5 = a3\n 19349: a1 = t0 if a0 == 0\n 19352: a0 = u64 [s1 + 0xa8]\n 19356: t1 = u64 [s1 + 0xc8]\n 19360: a3 = t1 - a0\n 19363: a4 = a3 <u a1\n 19366: u64 [s1 + 0x98] = a4\n 19370: a0 = t1 <u a0\n 19373: u64 [s1 + 0xc8] = a0\n 19377: a0 = u64 [s1 + 0xa0]\n 19381: a4 = u64 [s1 + 0xc0]\n 19385: t1 = a4 - a0\n 19388: a0 = u64 [s1 + 0x98]\n 19392: a4 = u64 [s1 + 0xc8]\n 19396: a0 = a0 + a4\n 19399: t1 = t1 - a0\n 19402: a1 = a3 - a1\n 19405: a3 = a2 - a5\n 19408: a3 = a3 - t0\n 19411: a2 = t2 - ra\n 19414: a0 = a2 + 0x1\n 19417: a5 = a0 <u 0x1\n 19420: t0 = a3 + a5\n 19423: a4 = a0 | t0\n 19426: a4 = a4 <u 0x1\n 19429: a4 = a4 + a1\n 19432: a5 = a2 + 0x21\n 19435: u64 [s1 + 0xd8] = a5\n 19439: a2 = a5 <u a2\n 19442: a5 = a3 + a2\n 19445: u64 [s1 + 0xd0] = a5\n 19449: a3 = a5 <u a3\n 19452: a3 = a2 if a2 == 0\n 19455: a2 = a4 <u a1\n 19458: a2 = a2 + t1\n 19461: a3 = a3 + a1\n 19464: u64 [s1 + 0xc8] = a3\n 19468: a1 = a3 <u a1\n 19471: a1 = a1 + t1\n 19474: u64 [s1 + 0xc0] = a1\n 19478: a3 = s1 + 0x2858\n 19482: a5 = a3 + 0x700\n 19486: u64 [a5 + 0x88] = a0\n 19490: u64 [a3 + 0x790] = t0\n 19494: u64 [a5 + 0x98] = a4\n 19498: a1 = s1 + 0x2fe0\n 19502: u64 [a5 + 0xa0] = a2\n 19506: a0 = ra\n 19508: ra = 714, jump @25\n      : @708 [@dyn 357] (gas: 22)\n 19514: a1 = s1 + 0x2858\n 19518: a0 = u64 [s1 + 0xc0]\n 19522: a2 = a1 + 0x700\n 19526: u64 [a2 + 0x60] = a0\n 19529: a0 = u64 [s1 + 0xc8]\n 19533: u64 [a2 + 0x58] = a0\n 19536: a0 = u64 [s1 + 0xd0]\n 19540: u64 [a2 + 0x50] = a0\n 19543: a0 = u64 [s1 + 0xd8]\n 19547: u64 [a2 + 0x48] = a0\n 19550: a0 = u64 [s1 + 0xa0]\n 19554: u64 [a2 + 0x80] = a0\n 19558: a0 = u64 [s1 + 0xa8]\n 19562: u64 [a2 + 0x78] = a0\n 19565: a0 = u64 [s1 + 0xb0]\n 19569: u64 [a2 + 0x70] = a0\n 19572: a3 = a1\n 19574: a0 = s1 + 0x2fc0\n 19578: a1 = s1 + 0x2fa0\n 19582: a2 = u64 [s1 + 0xb8]\n 19586: u64 [a3 + 0x768] = a2\n 19590: ra = 716, jump @1177\n      : @709 [@dyn 358] (gas: 3)\n 19596: a0 = s1 + 0x2f80\n 19600: a1 = 0x40\n 19603: ra = 718, jump @23\n      : @710 [@dyn 359] (gas: 26)\n 19609: a1 = s1 + 0x2858\n 19613: a2 = u64 [a1 + 0x740]\n 19617: u64 [s1 + 0xd0] = a2\n 19621: a3 = u64 [a1 + 0x738]\n 19625: u64 [s1 + 0xc8] = a3\n 19629: a5 = u64 [a1 + 0x730]\n 19633: u64 [s1 + 0xc0] = a5\n 19637: a4 = u64 [a1 + 0x728]\n 19641: u64 [s1 + 0xd8] = a4\n 19645: a0 = u64 [s1 + 0xa0]\n 19649: u64 [a1 + 0x6e0] = a0\n 19653: a0 = u64 [s1 + 0xa8]\n 19657: u64 [a1 + 0x6d8] = a0\n 19661: a0 = u64 [s1 + 0xb0]\n 19665: u64 [a1 + 0x6d0] = a0\n 19669: a0 = u64 [s1 + 0xb8]\n 19673: u64 [a1 + 0x6c8] = a0\n 19677: u64 [a1 + 0x700] = a2\n 19681: u64 [a1 + 0x6f8] = a3\n 19685: u64 [a1 + 0x6f0] = a5\n 19689: a3 = a1\n 19691: a0 = s1 + 0x2f60\n 19695: a1 = s1 + 0x2f40\n 19699: a2 = s1 + 0x2f20\n 19703: u64 [a3 + 0x6e8] = a4\n 19707: ra = 720, jump @1187\n      : @711 [@dyn 360] (gas: 1)\n 19713: t0 = 722, jump @1563\n      : @712 [@dyn 361] (gas: 1)\n 19719: jump @714 if a0 == 0\n      : @713 (gas: 1)\n 19722: jump @1003\n      : @714 (gas: 9)\n 19725: t0 = a3\n 19727: a1 = s1 + 0x2858\n 19731: a4 = a1 + 0x700\n 19735: a0 = u64 [a4 + 0x10]\n 19738: a3 = u64 [a4 + 0x20]\n 19741: u64 [s1 + 0xb8] = a3\n 19745: t1 = u64 [a1 + 0x708]\n 19749: a3 = u64 [a4 + 0x18]\n 19752: fallthrough\n      : @715 (gas: 28)\n 19753: ra = a0 ^ a2\n 19756: a5 = a0 <u a2\n 19759: t2 = u64 [s1 + 0xd8]\n 19763: a1 = t1 <u t2\n 19766: a5 = a1 if ra == 0\n 19769: a4 = a3 - t0\n 19772: ra = a4 - a5\n 19775: a4 = a4 <u a5\n 19778: u64 [s1 + 0xb0] = a4\n 19782: a3 = a3 <u t0\n 19785: a5 = u64 [s1 + 0xd0]\n 19789: a4 = u64 [s1 + 0xb8]\n 19793: a5 = a4 - a5\n 19796: a5 = a5 - a3\n 19799: a3 = u64 [s1 + 0xb0]\n 19803: a5 = a5 - a3\n 19806: a0 = a0 - a2\n 19809: a0 = a0 - a1\n 19812: a1 = t1 - t2\n 19815: a0 = a0 | a5\n 19818: a2 = a1\n 19820: a1 = a1 | ra\n 19823: a1 = a1 | a0\n 19826: a0 = a0 | ra\n 19829: a1 = a1 >> 0x20\n 19832: a0 = a0 << 0x20\n 19835: a0 = a0 | a1\n 19838: jump @717 if a0 == 0\n      : @716 (gas: 1)\n 19841: jump @1003\n      : @717 (gas: 4)\n 19844: a0 = u64 [s1 + 0xd8]\n 19848: a1 = a2\n 19850: u64 [s1 + 0xd0] = a2\n 19854: ra = 724, jump @38\n      : @718 [@dyn 362] (gas: 5)\n 19860: i32 a1 = a0 + 0\n 19862: a2 = i32 [s1 + 0xd0]\n 19866: a0 = 0\n 19868: ecalli 7 // 'seal_return'\n 19870: jump @945\n      : @719 (gas: 8)\n 19873: u64 [a3 + 1760] = 0\n 19877: u64 [a3 + 1752] = 0\n 19881: u64 [a3 + 1744] = 0\n 19885: u64 [a3 + 1736] = 0\n 19889: a0 = s1 + 0x3000\n 19893: i32 a0 = a0 + 0x720\n 19897: ecalli 10 // 'value_transferred'\n 19899: fallthrough\n      : @720 (gas: 10)\n 19900: a3 = s1 + 0x3058\n 19904: a4 = a3 + 0x600\n 19908: a0 = u64 [a4 + 0xd8]\n 19912: a1 = u64 [a4 + 0xe0]\n 19916: a2 = u64 [a4 + 0xd0]\n 19920: a3 = u64 [a4 + 0xc8]\n 19924: a1 = a1 | a2\n 19927: a0 = a0 | a3\n 19930: a0 = a0 | a1\n 19933: jump @722 if a0 == 0\n      : @721 (gas: 1)\n 19936: jump @1146\n      : @722 (gas: 3)\n 19939: a0 = u64 [s1 + 0x18]\n 19942: a0 = i32 [a0]\n 19944: jump @724 if a0 >u 3\n      : @723 (gas: 1)\n 19948: jump @1147\n      : @724 (gas: 9)\n 19951: a1 = s1 + 0x3058\n 19955: u64 [a1 + 1792] = 0\n 19959: u64 [a1 + 1784] = 0\n 19963: u64 [a1 + 1776] = 0\n 19967: u64 [a1 + 1768] = 0x2\n 19972: a0 = s1 + 0x7ff\n 19976: a0 = a0 + 0x721\n 19980: a1 = s1 + 0x3740\n 19984: ra = 726, jump @27\n      : @725 [@dyn 363] (gas: 8)\n 19990: a0 = s1 + 0x7ff\n 19994: a0 = a0 + 0x51\n 19997: a0 = u64 [a0 + 0x6d0]\n 20001: u64 [s1 + 0xd8] = a0\n 20005: a0 = s1 + 0x7ff\n 20009: a0 = a0 + 0x701\n 20013: a1 = 0x40\n 20016: ra = 728, jump @23\n      : @726 [@dyn 364] (gas: 8)\n 20022: a3 = s1 + 0x7ff\n 20026: a3 = a3 + 0x51\n 20029: a5 = a3 + 0x600\n 20033: a4 = u64 [a5 + 0xc8]\n 20037: a1 = u64 [a5 + 0xc0]\n 20041: a2 = u64 [a5 + 0xb8]\n 20045: a0 = u64 [a5 + 0xb0]\n 20049: t0 = 730, jump @1528\n      : @727 [@dyn 365] (gas: 1)\n 20055: jump @729 if a1 == 0\n      : @728 (gas: 1)\n 20058: jump @1003\n      : @729 (gas: 10)\n 20061: a1 = u8 [s1 + 0xd8]\n 20065: u64 [a3 + 1704] = 0\n 20069: u64 [a3 + 1696] = 0\n 20073: u64 [a3 + 0x690] = a1\n 20077: a1 = s1 + 0x7ff\n 20081: a1 = a1 + 0x6e1\n 20085: u64 [a3 + 1688] = 0\n 20089: u64 [s1 + 0xd8] = a0\n 20093: ra = 0x410\n 20097: jump @25\n      : @730 (gas: 11)\n 20100: u64 [a3 + 1344] = 0\n 20104: u64 [a3 + 1336] = 0\n 20108: u64 [a3 + 1328] = 0\n 20112: u64 [a3 + 1320] = 0\n 20116: a0 = s1 + 0x3000\n 20120: i32 a0 = a0 + 0x580\n 20124: ra = 0x2dc\n 20128: ecalli 10 // 'value_transferred'\n 20130: a0 = 0x3058\n 20134: t0 = 0x2de\n 20138: jump @1569\n      : @731 [@dyn 366] (gas: 2)\n 20141: a0 = 0x3058\n 20145: t0 = 734, jump @1569\n      : @732 [@dyn 367] (gas: 1)\n 20151: jump @734 if a0 == 0\n      : @733 (gas: 1)\n 20154: jump @1148\n      : @734 (gas: 4)\n 20157: a0 = u64 [s1 + 0x18]\n 20160: a0 = i32 [a0]\n 20162: a1 = 0x43\n 20165: jump @736 if a1 <u a0\n      : @735 (gas: 1)\n 20168: jump @1149\n      : @736 (gas: 4)\n 20171: a0 = s1 + 0x420\n 20175: ra = 0x2e0\n 20179: t0 = 0x504\n 20183: jump @1574\n      : @737 [@dyn 368] (gas: 38)\n 20186: a0 = u64 [s1 + 0x430]\n 20190: u64 [s1 + 0xb8] = a0\n 20194: a0 = u64 [s1 + 0x428]\n 20198: u64 [s1 + 0xc8] = a0\n 20202: a0 = u64 [s1 + 0x420]\n 20206: u64 [s1 + 0xd0] = a0\n 20210: a0 = sp + 0xffffffffffffffe0\n 20213: a0 = a0 & 0xffffffffffffffe0\n 20216: u64 [s1 + 0xd8] = a0\n 20220: sp = a0\n 20222: a0 = s1 + 0x3000\n 20226: i32 a0 = a0 + 0x5a0\n 20230: a1 = 0x24\n 20233: ecalli 1 // 'call_data_load'\n 20235: a0 = s1 + 0x3058\n 20239: a4 = a0 + 0x500\n 20243: a1 = u64 [a4 + 0x60]\n 20246: a2 = u64 [a4 + 0x58]\n 20249: a3 = u64 [a4 + 0x50]\n 20252: a0 = u64 [a4 + 0x48]\n 20255: u64 [s1 + 0x78] = a1\n 20258: a4 = u64 [s1 + 0xd8]\n 20262: u64 [a4 + 0x18] = a1\n 20265: u64 [s1 + 0x70] = a2\n 20268: u64 [a4 + 0x10] = a2\n 20271: u64 [s1 + 0x60] = a3\n 20274: u64 [a4 + 0x8] = a3\n 20277: u64 [s1 + 0x58] = a0\n 20280: u64 [a4] = a0\n 20282: a0 = 0x301b0\n 20287: u64 [s1 + 0xc0] = a0\n 20291: i32 a0 = a0 + 0\n 20293: u64 [s1 + 0x68] = a0\n 20296: ra = 0x2e2\n 20300: ecalli 3 // 'caller'\n 20302: a2 = u64 [s1 + 0xc0]\n 20306: t0 = 0x2e4\n 20310: jump @1531\n      : @738 [@dyn 369] (gas: 2)\n 20313: a2 = u64 [s1 + 0xc0]\n 20317: t0 = 740, jump @1531\n      : @739 [@dyn 370] (gas: 8)\n 20323: u64 [s1 + 1048] = 0\n 20327: a2 = s1 + 0x400\n 20331: u64 [a2 + 0x10] = a1\n 20334: u64 [a2 + 0x8] = a0\n 20337: a1 = s1 + 0x400\n 20341: u64 [a2] = a3\n 20343: a0 = 0\n 20345: ra = 742, jump @25\n      : @740 [@dyn 371] (gas: 7)\n 20351: u64 [s1 + 1016] = 0\n 20355: u64 [s1 + 1008] = 0\n 20359: u64 [s1 + 992] = 0x5\n 20364: a0 = 0x20\n 20367: a1 = s1 + 0x3e0\n 20371: u64 [s1 + 1000] = 0\n 20375: ra = 744, jump @25\n      : @741 [@dyn 372] (gas: 3)\n 20381: a1 = 0x2019c\n 20386: a0 = i32 [0x2019c]\n 20391: jump @743 if a0 >u 63\n      : @742 (gas: 2)\n 20395: u32 [0x2019c] = 0x40\n 20401: fallthrough\n      : @743 (gas: 15)\n 20402: a0 = sp + 0xffffffffffffffe0\n 20405: a2 = a0 & 0xffffffffffffffe0\n 20408: u64 [s1 + 0xa0] = a2\n 20412: sp = a2\n 20414: a0 = 0x201b0\n 20419: i32 a0 = a0 + 0\n 20421: i32 a2 = a2 + 0\n 20423: u64 [s1 + 0xb0] = a1\n 20427: a1 = 0x40\n 20430: u64 [s1 + 0xa8] = a0\n 20434: ra = 0x2ea\n 20438: ecalli 6 // 'hash_keccak_256'\n 20440: a3 = u64 [s1 + 0xa0]\n 20444: t0 = 0x2ec\n 20448: jump @1550\n      : @744 [@dyn 373] (gas: 2)\n 20451: a3 = u64 [s1 + 0xa0]\n 20455: t0 = 748, jump @1550\n      : @745 [@dyn 374] (gas: 15)\n 20461: u64 [s1 + 0xa0] = a0\n 20465: sp = a0\n 20467: a0 = u64 [s1 + 0xb8]\n 20471: a0 = a0 << 0x20\n 20474: a0 = a0 >> 0x20\n 20477: u64 [s1 + 984] = 0\n 20481: u64 [s1 + 0x50] = a0\n 20484: u64 [s1 + 0x3d0] = a0\n 20488: a0 = u64 [s1 + 0xc8]\n 20492: u64 [s1 + 0x3c8] = a0\n 20496: a1 = s1 + 0x3c0\n 20500: a0 = u64 [s1 + 0xd0]\n 20504: u64 [s1 + 0x3c0] = a0\n 20508: a0 = 0\n 20510: ra = 750, jump @25\n      : @746 [@dyn 375] (gas: 12)\n 20516: a0 = u64 [s1 + 0x80]\n 20520: a3 = s1 + 0x300\n 20524: u64 [a3 + 0xb8] = a0\n 20528: a0 = u64 [s1 + 0x88]\n 20532: u64 [a3 + 0xb0] = a0\n 20536: a0 = u64 [s1 + 0x90]\n 20540: u64 [a3 + 0xa8] = a0\n 20544: a0 = 0x20\n 20547: a1 = s1 + 0x3a0\n 20551: a2 = u64 [s1 + 0x98]\n 20555: u64 [a3 + 0xa0] = a2\n 20559: ra = 752, jump @25\n      : @747 [@dyn 376] (gas: 3)\n 20565: a1 = u64 [s1 + 0xb0]\n 20569: a0 = i32 [a1]\n 20571: jump @749 if a0 >u 63\n      : @748 (gas: 2)\n 20575: u32 [a1 + 0] = 0x40\n 20578: fallthrough\n      : @749 (gas: 10)\n 20579: a0 = sp + 0xffffffffffffffe0\n 20582: a0 = a0 & 0xffffffffffffffe0\n 20585: u64 [s1 + 0xb8] = a0\n 20589: sp = a0\n 20591: i32 a2 = a0 + 0\n 20593: a1 = 0x40\n 20596: a0 = u64 [s1 + 0xa8]\n 20600: ra = 0x2f2\n 20604: ecalli 6 // 'hash_keccak_256'\n 20606: fallthrough\n      : @750 [@dyn 377] (gas: 7)\n 20607: a3 = u64 [s1 + 0xb8]\n 20611: a0 = u64 [a3 + 0x18]\n 20614: a1 = u64 [a3 + 0x10]\n 20617: a2 = u64 [a3 + 0x8]\n 20620: a3 = u64 [a3]\n 20622: a4 = reverse a0\n 20624: t0 = 756, jump @1558\n      : @751 [@dyn 378] (gas: 7)\n 20630: a0 = u64 [s1 + 0xa0]\n 20634: u64 [a0 + 0x18] = a3\n 20637: u64 [a0 + 0x10] = a2\n 20640: u64 [a0 + 0x8] = a1\n 20643: u64 [a0] = a4\n 20645: a1 = u64 [s1 + 0xd8]\n 20649: ra = 758, jump @31\n      : @752 [@dyn 379] (gas: 3)\n 20655: a0 = s1 + 0x380\n 20659: a1 = 0x40\n 20662: ra = 760, jump @23\n      : @753 [@dyn 380] (gas: 6)\n 20668: a4 = s1 + 0x300\n 20672: a0 = u64 [a4 + 0x98]\n 20676: a1 = u64 [a4 + 0x90]\n 20680: a2 = u64 [a4 + 0x88]\n 20684: a3 = u64 [a4 + 0x80]\n 20688: t0 = 762, jump @1566\n      : @754 [@dyn 381] (gas: 1)\n 20694: jump @756 if a0 == 0\n      : @755 (gas: 1)\n 20697: jump @1003\n      : @756 (gas: 12)\n 20700: a0 = u64 [s1 + 0x58]\n 20703: u64 [s1 + 0x360] = a0\n 20707: a0 = u64 [s1 + 0x60]\n 20710: u64 [s1 + 0x368] = a0\n 20714: a0 = u64 [s1 + 0x70]\n 20717: u64 [s1 + 0x370] = a0\n 20721: a1 = s1 + 0x360\n 20725: a0 = u64 [s1 + 0x78]\n 20728: u64 [s1 + 0x378] = a0\n 20732: a0 = a3\n 20734: u64 [s1 + 0xd8] = a3\n 20738: ra = 764, jump @25\n      : @757 [@dyn 382] (gas: 6)\n 20744: a0 = u64 [s1 + 0x68]\n 20747: ra = 0x2fe\n 20751: ecalli 3 // 'caller'\n 20753: a2 = u64 [s1 + 0xc0]\n 20757: t0 = 0x300\n 20761: jump @1522\n      : @758 [@dyn 383] (gas: 2)\n 20764: a2 = u64 [s1 + 0xc0]\n 20768: t0 = 768, jump @1522\n      : @759 [@dyn 384] (gas: 32)\n 20774: t0 = a1 | a0\n 20777: a3 = a3 >> 0x20\n 20780: a2 = reverse a2\n 20782: a1 = a2 << 0x20\n 20785: a1 = a1 | a3\n 20788: a2 = a2 >> 0x20\n 20791: u64 [s1 + 792] = 0\n 20795: a0 = u64 [s1 + 0x50]\n 20798: u64 [s1 + 0x310] = a0\n 20802: a0 = u64 [s1 + 0xc8]\n 20806: u64 [s1 + 0x308] = a0\n 20810: a0 = u64 [s1 + 0xd0]\n 20814: u64 [s1 + 0x300] = a0\n 20818: u64 [s1 + 824] = 0\n 20822: a3 = u64 [0x20050]\n 20827: a4 = u64 [0x20058]\n 20832: a5 = u64 [0x20060]\n 20837: a0 = u64 [0x20068]\n 20842: u64 [s1 + 0x358] = a3\n 20846: a3 = s1 + 0x300\n 20850: u64 [a3 + 0x50] = a4\n 20853: u64 [a3 + 0x48] = a5\n 20856: u64 [a3 + 0x40] = a0\n 20859: u64 [a3 + 0x30] = a2\n 20862: u64 [a3 + 0x28] = a1\n 20865: a1 = 0x20\n 20868: a2 = s1 + 0x340\n 20872: a3 = s1 + 0x320\n 20876: a4 = s1 + 0x300\n 20880: u64 [s1 + 0x320] = t0\n 20884: a0 = u64 [s1 + 0xd8]\n 20888: ra = 770, jump @34\n      : @760 [@dyn 385] (gas: 3)\n 20894: a0 = s1 + 0x2e0\n 20898: a1 = 0x40\n 20901: ra = 772, jump @23\n      : @761 [@dyn 386] (gas: 6)\n 20907: a4 = s1 + 0x200\n 20911: a3 = u64 [a4 + 0xf8]\n 20915: a1 = u64 [a4 + 0xf0]\n 20919: a2 = u64 [a4 + 0xe8]\n 20923: a0 = u64 [a4 + 0xe0]\n 20927: t0 = 774, jump @1562\n      : @762 [@dyn 387] (gas: 1)\n 20933: jump @764 if a1 == 0\n      : @763 (gas: 1)\n 20936: jump @1003\n      : @764 (gas: 8)\n 20939: u64 [s1 + 728] = 0\n 20943: u64 [s1 + 720] = 0\n 20947: u64 [s1 + 712] = 0\n 20951: a1 = s1 + 0x2c0\n 20955: u64 [s1 + 704] = 0x1\n 20960: u64 [s1 + 0xd8] = a0\n 20964: ra = 0x410\n 20968: jump @25\n      : @765 (gas: 8)\n 20971: u64 [a3 + 1504] = 0\n 20975: u64 [a3 + 1496] = 0\n 20979: u64 [a3 + 1488] = 0\n 20983: u64 [a3 + 1480] = 0\n 20987: a0 = s1 + 0x3000\n 20991: i32 a0 = a0 + 0x620\n 20995: ecalli 10 // 'value_transferred'\n 20997: fallthrough\n      : @766 (gas: 10)\n 20998: a3 = s1 + 0x3058\n 21002: a4 = a3 + 0x500\n 21006: a0 = u64 [a4 + 0xd8]\n 21010: a1 = u64 [a4 + 0xe0]\n 21014: a2 = u64 [a4 + 0xd0]\n 21018: a3 = u64 [a4 + 0xc8]\n 21022: a1 = a1 | a2\n 21025: a0 = a0 | a3\n 21028: a0 = a0 | a1\n 21031: jump @768 if a0 == 0\n      : @767 (gas: 1)\n 21034: jump @1150\n      : @768 (gas: 3)\n 21037: a0 = u64 [s1 + 0x18]\n 21040: a1 = i32 [a0]\n 21042: jump @770 if a1 >u 3\n      : @769 (gas: 1)\n 21046: jump @1151\n      : @770 (gas: 9)\n 21049: a1 = s1 + 0x3058\n 21053: u64 [a1 + 1536] = 0\n 21057: u64 [a1 + 1528] = 0\n 21061: u64 [a1 + 1520] = 0\n 21065: u64 [a1 + 1512] = 0x3\n 21070: a0 = s1 + 0x7ff\n 21074: a0 = a0 + 0x141\n 21078: a1 = s1 + 0x3640\n 21082: ra = 776, jump @27\n      : @771 [@dyn 388] (gas: 14)\n 21088: a1 = s1 + 0x7ff\n 21092: a1 = a1 + 0x51\n 21095: a0 = u64 [a1 + 0x108]\n 21099: u64 [s1 + 0xd8] = a0\n 21103: a0 = u64 [a1 + 0x100]\n 21107: u64 [s1 + 0xd0] = a0\n 21111: a0 = u64 [a1 + 0xf8]\n 21115: u64 [s1 + 0xc8] = a0\n 21119: a0 = u64 [a1 + 0xf0]\n 21123: u64 [s1 + 0xc0] = a0\n 21127: a0 = s1 + 0x7ff\n 21131: a0 = a0 + 0x121\n 21135: a1 = 0x40\n 21138: ra = 778, jump @23\n      : @772 [@dyn 389] (gas: 7)\n 21144: a3 = s1 + 0x7ff\n 21148: a3 = a3 + 0x51\n 21151: a0 = u64 [a3 + 0xe8]\n 21155: a1 = u64 [a3 + 0xe0]\n 21159: a2 = u64 [a3 + 0xd8]\n 21163: a4 = u64 [a3 + 0xd0]\n 21167: t0 = 780, jump @1526\n      : @773 [@dyn 390] (gas: 1)\n 21173: jump @775 if a0 == 0\n      : @774 (gas: 1)\n 21176: jump @1003\n      : @775 (gas: 14)\n 21179: a0 = u64 [s1 + 0xc0]\n 21183: u64 [a3 + 0xb0] = a0\n 21187: a0 = u64 [s1 + 0xc8]\n 21191: u64 [a3 + 0xb8] = a0\n 21195: a0 = u64 [s1 + 0xd0]\n 21199: u64 [a3 + 0xc0] = a0\n 21203: a1 = s1 + 0x7ff\n 21207: a1 = a1 + 0x101\n 21211: a0 = u64 [s1 + 0xd8]\n 21215: u64 [a3 + 0xc8] = a0\n 21219: a0 = a4\n 21221: u64 [s1 + 0xd8] = a4\n 21225: ra = 0x410\n 21229: jump @25\n      : @776 (gas: 21)\n 21232: a0 = sp + 0xffffffffffffffe0\n 21235: a0 = a0 & 0xffffffffffffffe0\n 21238: u64 [s1 + 0x80] = a0\n 21242: sp = a0\n 21244: u64 [t2 + 0x2a0] = t1\n 21248: u64 [t2 + 0x298] = ra\n 21252: u64 [t2 + 0x290] = t0\n 21256: a0 = u64 [s1 + 0xb0]\n 21260: a4 = t2 + 0x200\n 21264: u64 [a4 + 0x88] = a0\n 21268: a0 = u64 [s1 + 0x70]\n 21271: u64 [a4 + 0xc0] = a0\n 21275: u64 [a4 + 0xb8] = a1\n 21279: a0 = u64 [s1 + 0x68]\n 21282: u64 [a4 + 0xb0] = a0\n 21286: a0 = s1 + 0x2b20\n 21290: a1 = s1 + 0x2b00\n 21294: a2 = s1 + 0x2ae0\n 21298: a3 = u64 [s1 + 0x78]\n 21301: u64 [a4 + 0xa8] = a3\n 21305: ra = 782, jump @1336\n      : @777 [@dyn 391] (gas: 2)\n 21311: a0 = 0x3000\n 21315: t0 = 784, jump @1577\n      : @778 [@dyn 392] (gas: 15)\n 21321: a0 = u64 [a4 + 0xd8]\n 21325: a1 = u64 [a4 + 0xe0]\n 21329: a2 = u64 [a4 + 0xc8]\n 21333: a3 = u64 [a4 + 0xd0]\n 21337: a4 = u64 [s1 + 0x80]\n 21341: u64 [a4 + 0x10] = a0\n 21344: u64 [a4 + 0x18] = a1\n 21347: u64 [a4] = a2\n 21349: u64 [a4 + 0x8] = a3\n 21352: a0 = u64 [s1 + 0xa8]\n 21356: ra = 0x312\n 21360: ecalli 3 // 'caller'\n 21362: a2 = u64 [s1 + 0xb8]\n 21366: t0 = 0x314\n 21370: jump @1520\n      : @779 [@dyn 393] (gas: 2)\n 21373: a2 = u64 [s1 + 0xb8]\n 21377: t0 = 788, jump @1520\n      : @780 [@dyn 394] (gas: 8)\n 21383: u64 [a2 + 640] = 0\n 21387: a4 = a2 + 0x200\n 21391: u64 [a4 + 0x78] = a1\n 21394: u64 [a4 + 0x70] = a0\n 21397: a1 = s1 + 0x2ac0\n 21401: u64 [a4 + 0x68] = a3\n 21404: a0 = 0\n 21406: ra = 790, jump @25\n      : @781 [@dyn 395] (gas: 3)\n 21412: t0 = 0x318\n 21416: a1 = s1 + 0x2858\n 21420: fallthrough\n      : @782 [@dyn 396] (gas: 8)\n 21421: u64 [a1 + 608] = 0\n 21425: u64 [a1 + 600] = 0\n 21429: u64 [a1 + 584] = 0x5\n 21434: a2 = a1\n 21436: a0 = 0x20\n 21439: a1 = s1 + 0x2aa0\n 21443: u64 [a2 + 592] = 0\n 21447: ra = 794, jump @25\n      : @783 [@dyn 397] (gas: 3)\n 21453: a1 = u64 [s1 + 0xd8]\n 21457: a0 = i32 [a1]\n 21459: jump @785 if a0 >u 63\n      : @784 (gas: 2)\n 21463: u32 [a1 + 0] = 0x40\n 21466: fallthrough\n      : @785 (gas: 4)\n 21467: a0 = sp + 0xffffffffffffffe0\n 21470: a0 = a0 & 0xffffffffffffffe0\n 21473: u64 [s1 + 0xb0] = a0\n 21477: t0 = 796, jump @1535\n      : @786 [@dyn 398] (gas: 30)\n 21483: ecalli 6 // 'hash_keccak_256'\n 21485: a3 = u64 [s1 + 0xb0]\n 21489: a0 = u64 [a3 + 0x18]\n 21492: a1 = u64 [a3 + 0x10]\n 21495: a2 = u64 [a3 + 0x8]\n 21498: a3 = u64 [a3]\n 21500: a0 = reverse a0\n 21502: u64 [s1 + 0x98] = a0\n 21506: a0 = reverse a1\n 21508: u64 [s1 + 0x90] = a0\n 21512: a0 = reverse a2\n 21514: u64 [s1 + 0x88] = a0\n 21518: a0 = reverse a3\n 21520: u64 [s1 + 0x78] = a0\n 21523: a0 = sp + 0xffffffffffffffe0\n 21526: a0 = a0 & 0xffffffffffffffe0\n 21529: u64 [s1 + 0xb0] = a0\n 21533: sp = a0\n 21535: a2 = s1 + 0x2858\n 21539: u64 [a2 + 576] = 0\n 21543: a0 = u64 [s1 + 0xa0]\n 21547: a3 = a2 + 0x200\n 21551: u64 [a3 + 0x38] = a0\n 21554: a0 = u64 [s1 + 0xc0]\n 21558: u64 [a3 + 0x30] = a0\n 21561: a1 = s1 + 0x2a80\n 21565: a0 = u64 [s1 + 0xc8]\n 21569: u64 [a3 + 0x28] = a0\n 21572: a0 = 0\n 21574: ra = 798, jump @25\n      : @787 [@dyn 399] (gas: 14)\n 21580: a0 = u64 [s1 + 0x78]\n 21583: a1 = s1 + 0x2858\n 21587: a2 = a1 + 0x200\n 21591: u64 [a2 + 0x20] = a0\n 21594: a0 = u64 [s1 + 0x88]\n 21598: u64 [a2 + 0x18] = a0\n 21601: a0 = u64 [s1 + 0x90]\n 21605: u64 [a2 + 0x10] = a0\n 21608: a3 = a1\n 21610: a0 = 0x20\n 21613: a1 = s1 + 0x2a60\n 21617: a2 = u64 [s1 + 0x98]\n 21621: u64 [a3 + 0x208] = a2\n 21625: ra = 800, jump @25\n      : @788 [@dyn 400] (gas: 3)\n 21631: a1 = u64 [s1 + 0xd8]\n 21635: a0 = i32 [a1]\n 21637: jump @790 if a0 >u 63\n      : @789 (gas: 2)\n 21641: u32 [a1 + 0] = 0x40\n 21644: fallthrough\n      : @790 (gas: 4)\n 21645: a0 = sp + 0xffffffffffffffe0\n 21648: a0 = a0 & 0xffffffffffffffe0\n 21651: u64 [s1 + 0x98] = a0\n 21655: t0 = 802, jump @1535\n      : @791 [@dyn 401] (gas: 3)\n 21661: ra = 0x324\n 21665: ecalli 6 // 'hash_keccak_256'\n 21667: fallthrough\n      : @792 [@dyn 402] (gas: 7)\n 21668: a3 = u64 [s1 + 0x98]\n 21672: a0 = u64 [a3 + 0x18]\n 21675: a1 = u64 [a3 + 0x10]\n 21678: a2 = u64 [a3 + 0x8]\n 21681: a3 = u64 [a3]\n 21683: a4 = reverse a0\n 21685: t0 = 806, jump @1558\n      : @793 [@dyn 403] (gas: 7)\n 21691: a0 = u64 [s1 + 0xb0]\n 21695: u64 [a0 + 0x18] = a3\n 21698: u64 [a0 + 0x10] = a2\n 21701: u64 [a0 + 0x8] = a1\n 21704: u64 [a0] = a4\n 21706: a1 = u64 [s1 + 0x80]\n 21710: ra = 808, jump @31\n      : @794 [@dyn 404] (gas: 6)\n 21716: a0 = u64 [s1 + 0xa8]\n 21720: ra = 0x32a\n 21724: ecalli 3 // 'caller'\n 21726: a2 = u64 [s1 + 0xb8]\n 21730: t0 = 0x32c\n 21734: jump @1520\n      : @795 [@dyn 405] (gas: 2)\n 21737: a2 = u64 [s1 + 0xb8]\n 21741: t0 = 812, jump @1520\n      : @796 [@dyn 406] (gas: 8)\n 21747: u64 [a2 + 512] = 0\n 21751: a4 = a2 + 0x100\n 21755: u64 [a4 + 0xf8] = a1\n 21759: u64 [a4 + 0xf0] = a0\n 21763: a1 = s1 + 0x2a40\n 21767: u64 [a4 + 0xe8] = a3\n 21771: a0 = 0\n 21773: ra = 814, jump @25\n      : @797 [@dyn 407] (gas: 3)\n 21779: t0 = 0x330\n 21783: a1 = s1 + 0x2858\n 21787: fallthrough\n      : @798 [@dyn 408] (gas: 8)\n 21788: u64 [a1 + 480] = 0\n 21792: u64 [a1 + 472] = 0\n 21796: u64 [a1 + 456] = 0x5\n 21801: a2 = a1\n 21803: a0 = 0x20\n 21806: a1 = s1 + 0x2a20\n 21810: u64 [a2 + 464] = 0\n 21814: ra = 818, jump @25\n      : @799 [@dyn 409] (gas: 3)\n 21820: a1 = u64 [s1 + 0xd8]\n 21824: a0 = i32 [a1]\n 21826: jump @801 if a0 >u 63\n      : @800 (gas: 2)\n 21830: u32 [a1 + 0] = 0x40\n 21833: fallthrough\n      : @801 (gas: 4)\n 21834: a0 = sp + 0xffffffffffffffe0\n 21837: a0 = a0 & 0xffffffffffffffe0\n 21840: u64 [s1 + 0xb0] = a0\n 21844: t0 = 820, jump @1535\n      : @802 [@dyn 410] (gas: 5)\n 21850: ra = 0x336\n 21854: ecalli 6 // 'hash_keccak_256'\n 21856: a3 = u64 [s1 + 0xb0]\n 21860: t0 = 0x338\n 21864: jump @1550\n      : @803 [@dyn 411] (gas: 2)\n 21867: a3 = u64 [s1 + 0xb0]\n 21871: t0 = 824, jump @1550\n      : @804 [@dyn 412] (gas: 14)\n 21877: u64 [s1 + 0xb0] = a0\n 21881: sp = a0\n 21883: a2 = s1 + 0x2858\n 21887: u64 [a2 + 448] = 0\n 21891: a0 = u64 [s1 + 0xa0]\n 21895: a3 = a2 + 0x100\n 21899: u64 [a3 + 0xb8] = a0\n 21903: a0 = u64 [s1 + 0xc0]\n 21907: u64 [a3 + 0xb0] = a0\n 21911: a1 = s1 + 0x2a00\n 21915: a0 = u64 [s1 + 0xc8]\n 21919: u64 [a3 + 0xa8] = a0\n 21923: a0 = 0\n 21925: ra = 826, jump @25\n      : @805 [@dyn 413] (gas: 14)\n 21931: a0 = u64 [s1 + 0x80]\n 21935: a1 = s1 + 0x2858\n 21939: a2 = a1 + 0x100\n 21943: u64 [a2 + 0xa0] = a0\n 21947: a0 = u64 [s1 + 0x88]\n 21951: u64 [a2 + 0x98] = a0\n 21955: a0 = u64 [s1 + 0x90]\n 21959: u64 [a2 + 0x90] = a0\n 21963: a3 = a1\n 21965: a0 = 0x20\n 21968: a1 = s1 + 0x29e0\n 21972: a2 = u64 [s1 + 0x98]\n 21976: u64 [a3 + 0x188] = a2\n 21980: ra = 828, jump @25\n      : @806 [@dyn 414] (gas: 3)\n 21986: a1 = u64 [s1 + 0xd8]\n 21990: a0 = i32 [a1]\n 21992: jump @808 if a0 >u 63\n      : @807 (gas: 2)\n 21996: u32 [a1 + 0] = 0x40\n 21999: fallthrough\n      : @808 (gas: 4)\n 22000: a0 = sp + 0xffffffffffffffe0\n 22003: a0 = a0 & 0xffffffffffffffe0\n 22006: u64 [s1 + 0xd8] = a0\n 22010: t0 = 830, jump @1535\n      : @809 [@dyn 415] (gas: 5)\n 22016: ra = 0x340\n 22020: ecalli 6 // 'hash_keccak_256'\n 22022: a3 = u64 [s1 + 0xd8]\n 22026: t0 = 0x342\n 22030: jump @1536\n      : @810 [@dyn 416] (gas: 2)\n 22033: a3 = u64 [s1 + 0xd8]\n 22037: t0 = 834, jump @1536\n      : @811 [@dyn 417] (gas: 2)\n 22043: a0 = s1 + 0x29c0\n 22047: ra = 836, jump @27\n      : @812 [@dyn 418] (gas: 3)\n 22053: t0 = 0x346\n 22057: a1 = s1 + 0x2858\n 22061: fallthrough\n      : @813 [@dyn 419] (gas: 12)\n 22062: a2 = a1 + 0x100\n 22066: a0 = u64 [a2 + 0x80]\n 22070: u64 [s1 + 0xd8] = a0\n 22074: a0 = u64 [a2 + 0x78]\n 22077: u64 [s1 + 0xd0] = a0\n 22081: a0 = u64 [a2 + 0x70]\n 22084: u64 [s1 + 0xb0] = a0\n 22088: a0 = u64 [a2 + 0x68]\n 22091: u64 [s1 + 0x98] = a0\n 22095: a0 = s1 + 0x29a0\n 22099: a1 = 0x40\n 22102: ra = 840, jump @23\n      : @814 [@dyn 420] (gas: 7)\n 22108: a3 = s1 + 0x2858\n 22112: a5 = a3 + 0x100\n 22116: a4 = u64 [a5 + 0x60]\n 22119: a1 = u64 [a5 + 0x58]\n 22122: a2 = u64 [a5 + 0x50]\n 22125: a0 = u64 [a5 + 0x48]\n 22128: t0 = 842, jump @1528\n      : @815 [@dyn 421] (gas: 1)\n 22134: jump @817 if a1 == 0\n      : @816 (gas: 1)\n 22137: jump @1003\n      : @817 (gas: 12)\n 22140: a1 = u64 [s1 + 0x98]\n 22144: a4 = a3 + 0x100\n 22148: u64 [a4 + 0x28] = a1\n 22151: a1 = u64 [s1 + 0xb0]\n 22155: u64 [a4 + 0x30] = a1\n 22158: a1 = u64 [s1 + 0xd0]\n 22162: u64 [a4 + 0x38] = a1\n 22165: a1 = s1 + 0x2980\n 22169: a2 = u64 [s1 + 0xd8]\n 22173: u64 [a4 + 0x40] = a2\n 22176: u64 [s1 + 0xd8] = a0\n 22180: ra = 844, jump @25\n      : @818 [@dyn 422] (gas: 6)\n 22186: a0 = u64 [s1 + 0xa8]\n 22190: ra = 0x34e\n 22194: ecalli 3 // 'caller'\n 22196: a2 = u64 [s1 + 0xb8]\n 22200: t0 = 0x350\n 22204: jump @1522\n      : @819 [@dyn 423] (gas: 2)\n 22207: a2 = u64 [s1 + 0xb8]\n 22211: t0 = 848, jump @1522\n      : @820 [@dyn 424] (gas: 43)\n 22217: t0 = a1 | a0\n 22220: a3 = a3 >> 0x20\n 22223: a2 = reverse a2\n 22225: a1 = a2 << 0x20\n 22228: a1 = a1 | a3\n 22231: a2 = a2 >> 0x20\n 22234: a3 = s1 + 0x2858\n 22238: a0 = u64 [s1 + 0xa0]\n 22242: u64 [a3 + 0xd8] = a0\n 22246: a3 = u64 [0x20050]\n 22251: a4 = s1 + 0x2858\n 22255: u64 [a4 + 224] = 0\n 22259: a4 = s1 + 0x2858\n 22263: a0 = u64 [s1 + 0xc0]\n 22267: u64 [a4 + 0xd0] = a0\n 22271: a4 = s1 + 0x2858\n 22275: a0 = u64 [s1 + 0xc8]\n 22279: u64 [a4 + 0xc8] = a0\n 22283: a0 = s1 + 0x2858\n 22287: u64 [a0 + 0x120] = a3\n 22291: a3 = u64 [0x20058]\n 22296: a4 = u64 [0x20060]\n 22301: a5 = u64 [0x20068]\n 22306: a0 = s1 + 0x2858\n 22310: u64 [a0 + 256] = 0\n 22314: a0 = s1 + 0x2858\n 22318: u64 [a0 + 0x118] = a3\n 22322: a0 = s1 + 0x2858\n 22326: u64 [a0 + 0x110] = a4\n 22330: a0 = s1 + 0x2858\n 22334: u64 [a0 + 0x108] = a5\n 22338: a0 = s1 + 0x2858\n 22342: u64 [a0 + 0xf8] = a2\n 22346: a0 = s1 + 0x2858\n 22350: u64 [a0 + 0xf0] = a1\n 22354: a1 = 0x20\n 22357: a2 = s1 + 0x2960\n 22361: a3 = s1 + 0x2940\n 22365: a4 = s1 + 0x2920\n 22369: a0 = s1 + 0x2858\n 22373: u64 [a0 + 0xe8] = t0\n 22377: a0 = u64 [s1 + 0xd8]\n 22381: ra = 850, jump @34\n      : @821 [@dyn 425] (gas: 3)\n 22387: a0 = s1 + 0x2900\n 22391: a1 = 0x40\n 22394: ra = 852, jump @23\n      : @822 [@dyn 426] (gas: 6)\n 22400: a3 = s1 + 0x2858\n 22404: a4 = u64 [a3 + 0xc0]\n 22408: a1 = u64 [a3 + 0xb8]\n 22412: a2 = u64 [a3 + 0xb0]\n 22416: a0 = u64 [a3 + 0xa8]\n 22420: t0 = 854, jump @1528\n      : @823 [@dyn 427] (gas: 1)\n 22426: jump @825 if a1 == 0\n      : @824 (gas: 1)\n 22429: jump @1003\n      : @825 (gas: 8)\n 22432: u64 [a3 + 160] = 0\n 22436: u64 [a3 + 152] = 0\n 22440: u64 [a3 + 136] = 0x1\n 22445: a1 = s1 + 0x28e0\n 22449: u64 [a3 + 144] = 0\n 22453: u64 [s1 + 0xd8] = a0\n 22457: ra = 0x410\n 22461: jump @25\n      : @826 (gas: 9)\n 22464: a0 = 0x301b0\n 22469: u64 [s1 + 0xb0] = a0\n 22473: i32 a0 = a0 + 0\n 22475: u64 [s1 + 0xa0] = a0\n 22479: ra = 0x358\n 22483: ecalli 3 // 'caller'\n 22485: a2 = u64 [s1 + 0xb0]\n 22489: t0 = 0x35a\n 22493: jump @1531\n      : @827 [@dyn 428] (gas: 2)\n 22496: a2 = u64 [s1 + 0xb0]\n 22500: t0 = 858, jump @1531\n      : @828 [@dyn 429] (gas: 9)\n 22506: a2 = s1 + 0x1858\n 22510: u64 [a2 + 768] = 0\n 22514: a4 = a2 + 0x200\n 22518: u64 [a4 + 0xf8] = a1\n 22522: u64 [a4 + 0xf0] = a0\n 22526: a1 = s1 + 0x1b40\n 22530: u64 [a4 + 0xe8] = a3\n 22534: a0 = 0\n 22536: ra = 860, jump @25\n      : @829 [@dyn 430] (gas: 3)\n 22542: t0 = 0x35e\n 22546: a1 = s1 + 0x1858\n 22550: fallthrough\n      : @830 [@dyn 431] (gas: 8)\n 22551: u64 [a1 + 736] = 0\n 22555: u64 [a1 + 728] = 0\n 22559: u64 [a1 + 712] = 0x4\n 22564: a2 = a1\n 22566: a0 = 0x20\n 22569: a1 = s1 + 0x1b20\n 22573: u64 [a2 + 720] = 0\n 22577: ra = 864, jump @25\n      : @831 [@dyn 432] (gas: 6)\n 22583: a0 = sp + 0xffffffffffffffe0\n 22586: a0 = a0 & 0xffffffffffffffe0\n 22589: u64 [s1 + 0xb8] = a0\n 22593: sp = a0\n 22595: a1 = i32 [0x2019c]\n 22600: jump @833 if a1 >u 63\n      : @832 (gas: 2)\n 22604: u32 [0x2019c] = 0x40\n 22610: fallthrough\n      : @833 (gas: 14)\n 22611: a0 = sp + 0xffffffffffffffe0\n 22614: a2 = a0 & 0xffffffffffffffe0\n 22617: u64 [s1 + 0xa8] = a2\n 22621: sp = a2\n 22623: a0 = 0x201b0\n 22628: i32 a0 = a0 + 0\n 22630: i32 a2 = a2 + 0\n 22632: a1 = 0x40\n 22635: u64 [s1 + 0x98] = a0\n 22639: ra = 0x362\n 22643: ecalli 6 // 'hash_keccak_256'\n 22645: a3 = u64 [s1 + 0xa8]\n 22649: t0 = 0x364\n 22653: jump @1529\n      : @834 [@dyn 433] (gas: 2)\n 22656: a3 = u64 [s1 + 0xa8]\n 22660: t0 = 868, jump @1529\n      : @835 [@dyn 434] (gas: 7)\n 22666: a1 = u64 [s1 + 0xb8]\n 22670: u64 [a1 + 0x18] = a3\n 22673: u64 [a1 + 0x10] = a2\n 22676: u64 [a1 + 0x8] = a4\n 22679: u64 [a1] = a0\n 22681: a0 = s1 + 0x1b00\n 22685: ra = 870, jump @27\n      : @836 [@dyn 435] (gas: 22)\n 22691: a4 = s1 + 0x1858\n 22695: a3 = u64 [a4 + 0x2a8]\n 22699: a0 = u64 [a4 + 0x2b0]\n 22703: a1 = u64 [a4 + 0x2b8]\n 22707: a2 = u64 [a4 + 0x2c0]\n 22711: a5 = u64 [s1 + 0xd8]\n 22715: u64 [a4 + 0x260] = a5\n 22719: a5 = u64 [s1 + 0xd0]\n 22723: u64 [a4 + 0x258] = a5\n 22727: a5 = u64 [s1 + 0xc8]\n 22731: u64 [a4 + 0x250] = a5\n 22735: a5 = u64 [s1 + 0xc0]\n 22739: u64 [a4 + 0x248] = a5\n 22743: a5 = a4 + 0x200\n 22747: u64 [a5 + 0x80] = a2\n 22751: u64 [a5 + 0x78] = a1\n 22754: u64 [a5 + 0x70] = a0\n 22757: a0 = s1 + 0x1ae0\n 22761: a1 = s1 + 0x1ac0\n 22765: a2 = s1 + 0x1aa0\n 22769: u64 [a5 + 0x68] = a3\n 22772: ra = 872, jump @1344\n      : @837 [@dyn 436] (gas: 2)\n 22778: a0 = 0x2000\n 22782: t0 = 874, jump @1577\n      : @838 [@dyn 437] (gas: 13)\n 22788: a0 = u64 [a4 + 0xa0]\n 22792: a1 = u64 [a4 + 0x98]\n 22796: a2 = u64 [a4 + 0x90]\n 22800: a3 = u64 [a4 + 0x88]\n 22804: a4 = s1 + 0x3858\n 22808: a5 = a4 + 0x100\n 22812: u64 [a5 + 0xa0] = a0\n 22816: u64 [a5 + 0x98] = a1\n 22820: u64 [a5 + 0x90] = a2\n 22824: u64 [a5 + 0x88] = a3\n 22828: a1 = s1 + 0x39e0\n 22832: a0 = u64 [s1 + 0xb8]\n 22836: ra = 876, jump @31\n      : @839 [@dyn 438] (gas: 8)\n 22842: a0 = s1 + 0x3858\n 22846: u64 [a0 + 448] = 0\n 22850: u64 [a0 + 440] = 0\n 22854: u64 [a0 + 432] = 0\n 22858: u64 [a0 + 424] = 0x3\n 22863: a0 = s1 + 0x1a80\n 22867: a1 = s1 + 0x3a00\n 22871: ra = 878, jump @27\n      : @840 [@dyn 439] (gas: 22)\n 22877: a4 = s1 + 0x1858\n 22881: a3 = u64 [a4 + 0x228]\n 22885: a0 = u64 [a4 + 0x230]\n 22889: a1 = u64 [a4 + 0x238]\n 22893: a2 = u64 [a4 + 0x240]\n 22897: a5 = u64 [s1 + 0xd8]\n 22901: u64 [a4 + 0x1e0] = a5\n 22905: a5 = u64 [s1 + 0xd0]\n 22909: u64 [a4 + 0x1d8] = a5\n 22913: a5 = u64 [s1 + 0xc8]\n 22917: u64 [a4 + 0x1d0] = a5\n 22921: a5 = u64 [s1 + 0xc0]\n 22925: u64 [a4 + 0x1c8] = a5\n 22929: u64 [a4 + 0x200] = a2\n 22933: a5 = a4 + 0x100\n 22937: u64 [a5 + 0xf8] = a1\n 22941: u64 [a5 + 0xf0] = a0\n 22945: a0 = s1 + 0x1a60\n 22949: a1 = s1 + 0x1a40\n 22953: a2 = s1 + 0x1a20\n 22957: u64 [a5 + 0xe8] = a3\n 22961: ra = 880, jump @1344\n      : @841 [@dyn 440] (gas: 2)\n 22967: a0 = 0x2000\n 22971: t0 = 882, jump @1577\n      : @842 [@dyn 441] (gas: 17)\n 22977: a0 = u64 [a4 + 0x8]\n 22980: a1 = u64 [a4 + 0x10]\n 22983: a2 = u64 [a4 + 0x18]\n 22986: a3 = u64 [a4 + 0x20]\n 22989: a4 = s1 + 0x3858\n 22993: u64 [a4 + 480] = 0\n 22997: u64 [a4 + 472] = 0\n 23001: u64 [a4 + 464] = 0\n 23005: u64 [a4 + 456] = 0x3\n 23010: u64 [a4 + 0x200] = a3\n 23014: a3 = a4 + 0x100\n 23018: u64 [a3 + 0xf8] = a2\n 23022: u64 [a3 + 0xf0] = a1\n 23026: u64 [a3 + 0xe8] = a0\n 23030: a0 = s1 + 0x3a20\n 23034: a1 = s1 + 0x3a40\n 23038: ra = 884, jump @31\n      : @843 [@dyn 442] (gas: 3)\n 23044: a0 = s1 + 0x1a00\n 23048: a1 = 0x40\n 23051: ra = 886, jump @23\n      : @844 [@dyn 443] (gas: 7)\n 23057: a3 = s1 + 0x1858\n 23061: a5 = a3 + 0x100\n 23065: a0 = u64 [a5 + 0xc0]\n 23069: a1 = u64 [a5 + 0xb8]\n 23073: a2 = u64 [a5 + 0xb0]\n 23077: a4 = u64 [a5 + 0xa8]\n 23081: t0 = 888, jump @1526\n      : @845 [@dyn 444] (gas: 1)\n 23087: jump @847 if a0 == 0\n      : @846 (gas: 1)\n 23090: jump @1003\n      : @847 (gas: 13)\n 23093: a0 = u64 [s1 + 0xc0]\n 23097: a2 = a3 + 0x100\n 23101: u64 [a2 + 0x88] = a0\n 23105: a0 = u64 [s1 + 0xc8]\n 23109: u64 [a2 + 0x90] = a0\n 23113: a0 = u64 [s1 + 0xd0]\n 23117: u64 [a2 + 0x98] = a0\n 23121: a1 = s1 + 0x19e0\n 23125: a0 = u64 [s1 + 0xd8]\n 23129: u64 [a2 + 0xa0] = a0\n 23133: a0 = a4\n 23135: u64 [s1 + 0xb8] = a4\n 23139: ra = 890, jump @25\n      : @848 [@dyn 445] (gas: 6)\n 23145: a0 = u64 [s1 + 0xa0]\n 23149: ra = 0x37c\n 23153: ecalli 3 // 'caller'\n 23155: a2 = u64 [s1 + 0xb0]\n 23159: t0 = 0x37e\n 23163: jump @1522\n      : @849 [@dyn 446] (gas: 2)\n 23166: a2 = u64 [s1 + 0xb0]\n 23170: t0 = 894, jump @1522\n      : @850 [@dyn 447] (gas: 31)\n 23176: t0 = a1 | a0\n 23179: a3 = a3 >> 0x20\n 23182: a2 = reverse a2\n 23184: a1 = a2 << 0x20\n 23187: a1 = a1 | a3\n 23190: a2 = a2 >> 0x20\n 23193: a3 = u64 [0x200a8]\n 23198: a4 = s1 + 0x1858\n 23202: u64 [a4 + 0x180] = a3\n 23206: a3 = u64 [0x200b0]\n 23211: a4 = u64 [0x200b8]\n 23216: a5 = u64 [0x200c0]\n 23221: a0 = s1 + 0x1858\n 23225: u64 [a0 + 0x178] = a3\n 23229: a0 = s1 + 0x1858\n 23233: u64 [a0 + 0x170] = a4\n 23237: a3 = s1 + 0x1858\n 23241: u64 [a3 + 352] = 0\n 23245: a0 = s1 + 0x1858\n 23249: u64 [a0 + 0x168] = a5\n 23253: a3 = s1 + 0x1858\n 23257: u64 [a3 + 0x158] = a2\n 23261: a2 = s1 + 0x1858\n 23265: u64 [a2 + 0x150] = a1\n 23269: a1 = 0x20\n 23272: a2 = s1 + 0x19c0\n 23276: a3 = s1 + 0x19a0\n 23280: a4 = s1 + 0x1858\n 23284: u64 [a4 + 0x148] = t0\n 23288: a0 = u64 [s1 + 0xb8]\n 23292: ra = 896, jump @32\n      : @851 [@dyn 448] (gas: 3)\n 23298: a0 = s1 + 0x1980\n 23302: a1 = 0x40\n 23305: ra = 898, jump @23\n      : @852 [@dyn 449] (gas: 7)\n 23311: a3 = s1 + 0x1858\n 23315: a5 = a3 + 0x100\n 23319: a0 = u64 [a5 + 0x40]\n 23322: a1 = u64 [a5 + 0x38]\n 23325: a2 = u64 [a5 + 0x30]\n 23328: a4 = u64 [a5 + 0x28]\n 23331: t0 = 900, jump @1526\n      : @853 [@dyn 450] (gas: 1)\n 23337: jump @855 if a0 == 0\n      : @854 (gas: 1)\n 23340: jump @1003\n      : @855 (gas: 13)\n 23343: a0 = u64 [s1 + 0xc0]\n 23347: a2 = a3 + 0x100\n 23351: u64 [a2 + 0x8] = a0\n 23354: a0 = u64 [s1 + 0xc8]\n 23358: u64 [a2 + 0x10] = a0\n 23361: a0 = u64 [s1 + 0xd0]\n 23365: u64 [a2 + 0x18] = a0\n 23368: a1 = s1 + 0x1960\n 23372: a0 = u64 [s1 + 0xd8]\n 23376: u64 [a2 + 0x20] = a0\n 23379: a0 = a4\n 23381: u64 [s1 + 0xd8] = a4\n 23385: ra = 902, jump @25\n      : @856 [@dyn 451] (gas: 6)\n 23391: a0 = u64 [s1 + 0xa0]\n 23395: ra = 0x388\n 23399: ecalli 3 // 'caller'\n 23401: a2 = u64 [s1 + 0xb0]\n 23405: t0 = 0x38a\n 23409: jump @1522\n      : @857 [@dyn 452] (gas: 2)\n 23412: a2 = u64 [s1 + 0xb0]\n 23416: t0 = 906, jump @1522\n      : @858 [@dyn 453] (gas: 29)\n 23422: t0 = a1 | a0\n 23425: a3 = a3 >> 0x20\n 23428: a2 = reverse a2\n 23430: a1 = a2 << 0x20\n 23433: a1 = a1 | a3\n 23436: a2 = a2 >> 0x20\n 23439: a3 = u64 [0x20030]\n 23444: a4 = u64 [0x20038]\n 23449: a5 = u64 [0x20040]\n 23454: a0 = s1 + 0x1858\n 23458: u64 [a0 + 0x100] = a3\n 23462: u64 [a0 + 0xf8] = a4\n 23466: u64 [a0 + 192] = 0\n 23470: u64 [a0 + 0xf0] = a5\n 23474: a3 = u64 [0x20048]\n 23479: u64 [a0 + 224] = 0\n 23483: u64 [a0 + 216] = 0\n 23487: u64 [a0 + 208] = 0\n 23491: u64 [a0 + 0xe8] = a3\n 23495: u64 [a0 + 0xb8] = a2\n 23499: u64 [a0 + 0xb0] = a1\n 23503: u64 [a0 + 0xa8] = t0\n 23507: a1 = 0x20\n 23510: a2 = s1 + 0x1940\n 23514: a3 = s1 + 0x1920\n 23518: a4 = s1 + 0x1900\n 23522: u64 [a0 + 200] = 0\n 23526: a0 = u64 [s1 + 0xd8]\n 23530: ra = 908, jump @34\n      : @859 [@dyn 454] (gas: 5)\n 23536: a0 = 0\n 23538: a1 = u64 [s1 + 0x98]\n 23542: a2 = 0\n 23544: ecalli 7 // 'seal_return'\n 23546: jump @1089\n      : @860 (gas: 6)\n 23549: a0 = u64 [s1 + 0xa8]\n 23553: ra = 0x38e\n 23557: ecalli 3 // 'caller'\n 23559: a2 = u64 [s1 + 0xb8]\n 23563: t0 = 0x390\n 23567: jump @1521\n      : @861 [@dyn 455] (gas: 2)\n 23570: a2 = u64 [s1 + 0xb8]\n 23574: t0 = 912, jump @1521\n      : @862 [@dyn 456] (gas: 8)\n 23580: u64 [a2 + 1888] = 0\n 23584: a4 = a2 + 0x700\n 23588: u64 [a4 + 0x58] = a1\n 23591: u64 [a4 + 0x50] = a0\n 23594: a1 = s1 + 0x17a0\n 23598: u64 [a4 + 0x48] = a3\n 23601: a0 = 0\n 23603: ra = 914, jump @25\n      : @863 [@dyn 457] (gas: 3)\n 23609: t0 = 0x394\n 23613: a1 = s1 + 0x1058\n 23617: fallthrough\n      : @864 [@dyn 458] (gas: 8)\n 23618: u64 [a1 + 1856] = 0\n 23622: u64 [a1 + 1848] = 0\n 23626: u64 [a1 + 1832] = 0x4\n 23631: a2 = a1\n 23633: a0 = 0x20\n 23636: a1 = s1 + 0x1780\n 23640: u64 [a2 + 1840] = 0\n 23644: ra = 918, jump @25\n      : @865 [@dyn 459] (gas: 7)\n 23650: a0 = sp + 0xffffffffffffffe0\n 23653: a0 = a0 & 0xffffffffffffffe0\n 23656: u64 [s1 + 0xb0] = a0\n 23660: sp = a0\n 23662: a2 = u64 [s1 + 0x98]\n 23666: a0 = i32 [a2]\n 23668: jump @867 if a0 >u 63\n      : @866 (gas: 2)\n 23672: u32 [a2 + 0] = 0x40\n 23675: fallthrough\n      : @867 (gas: 12)\n 23676: a0 = sp + 0xffffffffffffffe0\n 23679: a0 = a0 & 0xffffffffffffffe0\n 23682: u64 [s1 + 0x98] = a0\n 23686: sp = a0\n 23688: i32 a2 = a0 + 0\n 23690: a1 = 0x40\n 23693: a0 = u64 [s1 + 0xa0]\n 23697: ra = 0x398\n 23701: ecalli 6 // 'hash_keccak_256'\n 23703: a3 = u64 [s1 + 0x98]\n 23707: t0 = 0x39a\n 23711: jump @1536\n      : @868 [@dyn 460] (gas: 2)\n 23714: a3 = u64 [s1 + 0x98]\n 23718: t0 = 922, jump @1536\n      : @869 [@dyn 461] (gas: 2)\n 23724: a0 = s1 + 0x1760\n 23728: ra = 924, jump @27\n      : @870 [@dyn 462] (gas: 23)\n 23734: a4 = s1 + 0x1058\n 23738: a5 = a4 + 0x700\n 23742: a3 = u64 [a5 + 0x8]\n 23745: a0 = u64 [a5 + 0x10]\n 23748: a1 = u64 [a5 + 0x18]\n 23751: a2 = u64 [a5 + 0x20]\n 23754: a5 = u64 [s1 + 0xd8]\n 23758: u64 [a4 + 0x6c0] = a5\n 23762: a5 = u64 [s1 + 0xd0]\n 23766: u64 [a4 + 0x6b8] = a5\n 23770: a5 = u64 [s1 + 0xc8]\n 23774: u64 [a4 + 0x6b0] = a5\n 23778: a5 = u64 [s1 + 0xc0]\n 23782: u64 [a4 + 0x6a8] = a5\n 23786: a5 = a4 + 0x600\n 23790: u64 [a5 + 0xe0] = a2\n 23794: u64 [a5 + 0xd8] = a1\n 23798: u64 [a5 + 0xd0] = a0\n 23802: a0 = s1 + 0x1740\n 23806: a1 = s1 + 0x1720\n 23810: a2 = s1 + 0x1700\n 23814: u64 [a5 + 0xc8] = a3\n 23818: ra = 926, jump @1336\n      : @871 [@dyn 463] (gas: 14)\n 23824: a3 = s1 + 0x1058\n 23828: a0 = u64 [a3 + 0x700]\n 23832: a4 = a3 + 0x600\n 23836: a1 = u64 [a4 + 0xf8]\n 23840: a2 = u64 [a4 + 0xf0]\n 23844: a3 = u64 [a4 + 0xe8]\n 23848: a4 = s1 + 0x3858\n 23852: u64 [a4 + 0xc0] = a0\n 23856: u64 [a4 + 0xb8] = a1\n 23860: u64 [a4 + 0xb0] = a2\n 23864: u64 [a4 + 0xa8] = a3\n 23868: a1 = s1 + 0x3900\n 23872: a0 = u64 [s1 + 0xb0]\n 23876: ra = 928, jump @31\n      : @872 [@dyn 464] (gas: 8)\n 23882: a0 = s1 + 0x3858\n 23886: u64 [a0 + 224] = 0\n 23890: u64 [a0 + 216] = 0\n 23894: u64 [a0 + 208] = 0\n 23898: u64 [a0 + 200] = 0x3\n 23903: a0 = s1 + 0x16e0\n 23907: a1 = s1 + 0x3920\n 23911: ra = 930, jump @27\n      : @873 [@dyn 465] (gas: 22)\n 23917: a4 = s1 + 0x1058\n 23921: a3 = u64 [a4 + 0x688]\n 23925: a0 = u64 [a4 + 0x690]\n 23929: a1 = u64 [a4 + 0x698]\n 23933: a2 = u64 [a4 + 0x6a0]\n 23937: a5 = u64 [s1 + 0xd8]\n 23941: u64 [a4 + 0x640] = a5\n 23945: a5 = u64 [s1 + 0xd0]\n 23949: u64 [a4 + 0x638] = a5\n 23953: a5 = u64 [s1 + 0xc8]\n 23957: u64 [a4 + 0x630] = a5\n 23961: a5 = u64 [s1 + 0xc0]\n 23965: u64 [a4 + 0x628] = a5\n 23969: a5 = a4 + 0x600\n 23973: u64 [a5 + 0x60] = a2\n 23976: u64 [a5 + 0x58] = a1\n 23979: u64 [a5 + 0x50] = a0\n 23982: a0 = s1 + 0x16c0\n 23986: a1 = s1 + 0x16a0\n 23990: a2 = s1 + 0x1680\n 23994: u64 [a5 + 0x48] = a3\n 23997: ra = 932, jump @1336\n      : @874 [@dyn 466] (gas: 19)\n 24003: a3 = s1 + 0x1058\n 24007: a4 = a3 + 0x600\n 24011: a0 = u64 [a4 + 0x68]\n 24014: a1 = u64 [a4 + 0x70]\n 24017: a2 = u64 [a4 + 0x78]\n 24020: a3 = u64 [a4 + 0x80]\n 24024: a4 = s1 + 0x3858\n 24028: u64 [a4 + 256] = 0\n 24032: u64 [a4 + 248] = 0\n 24036: u64 [a4 + 240] = 0\n 24040: u64 [a4 + 232] = 0x3\n 24045: a5 = a4 + 0x100\n 24049: u64 [a5 + 0x20] = a3\n 24052: u64 [a5 + 0x18] = a2\n 24055: u64 [a5 + 0x10] = a1\n 24058: u64 [a5 + 0x8] = a0\n 24061: a0 = s1 + 0x3940\n 24065: a1 = s1 + 0x3960\n 24069: ra = 934, jump @31\n      : @875 [@dyn 467] (gas: 3)\n 24075: a0 = s1 + 0x1660\n 24079: a1 = 0x40\n 24082: ra = 936, jump @23\n      : @876 [@dyn 468] (gas: 7)\n 24088: a3 = s1 + 0x1058\n 24092: a5 = a3 + 0x600\n 24096: a0 = u64 [a5 + 0x20]\n 24099: a1 = u64 [a5 + 0x18]\n 24102: a2 = u64 [a5 + 0x10]\n 24105: a4 = u64 [a5 + 0x8]\n 24108: t0 = 938, jump @1526\n      : @877 [@dyn 469] (gas: 1)\n 24114: jump @879 if a0 == 0\n      : @878 (gas: 1)\n 24117: jump @1003\n      : @879 (gas: 13)\n 24120: a0 = u64 [s1 + 0xc0]\n 24124: a1 = a3 + 0x500\n 24128: u64 [a1 + 0xe8] = a0\n 24132: a0 = u64 [s1 + 0xc8]\n 24136: u64 [a1 + 0xf0] = a0\n 24140: a0 = u64 [s1 + 0xd0]\n 24144: u64 [a1 + 0xf8] = a0\n 24148: a1 = s1 + 0x1640\n 24152: a0 = u64 [s1 + 0xd8]\n 24156: u64 [a3 + 0x600] = a0\n 24160: a0 = a4\n 24162: u64 [s1 + 0xb0] = a4\n 24166: ra = 940, jump @25\n      : @880 [@dyn 470] (gas: 6)\n 24172: a0 = u64 [s1 + 0xa8]\n 24176: ra = 0x3ae\n 24180: ecalli 3 // 'caller'\n 24182: a2 = u64 [s1 + 0xb8]\n 24186: t0 = 0x3b0\n 24190: jump @1522\n      : @881 [@dyn 471] (gas: 2)\n 24193: a2 = u64 [s1 + 0xb8]\n 24197: t0 = 944, jump @1522\n      : @882 [@dyn 472] (gas: 31)\n 24203: t0 = a1 | a0\n 24206: a3 = a3 >> 0x20\n 24209: a2 = reverse a2\n 24211: a1 = a2 << 0x20\n 24214: a1 = a1 | a3\n 24217: a2 = a2 >> 0x20\n 24220: a3 = u64 [0x200e8]\n 24225: a4 = s1 + 0x1058\n 24229: u64 [a4 + 0x5e0] = a3\n 24233: a3 = u64 [0x200f0]\n 24238: a4 = u64 [0x200f8]\n 24243: a5 = u64 [0x20100]\n 24248: a0 = s1 + 0x1058\n 24252: u64 [a0 + 0x5d8] = a3\n 24256: a0 = s1 + 0x1058\n 24260: u64 [a0 + 0x5d0] = a4\n 24264: a3 = s1 + 0x1058\n 24268: u64 [a3 + 1472] = 0\n 24272: a0 = s1 + 0x1058\n 24276: u64 [a0 + 0x5c8] = a5\n 24280: a3 = s1 + 0x1058\n 24284: u64 [a3 + 0x5b8] = a2\n 24288: a2 = s1 + 0x1058\n 24292: u64 [a2 + 0x5b0] = a1\n 24296: a1 = 0x20\n 24299: a2 = s1 + 0x1620\n 24303: a3 = s1 + 0x1600\n 24307: a4 = s1 + 0x1058\n 24311: u64 [a4 + 0x5a8] = t0\n 24315: a0 = u64 [s1 + 0xb0]\n 24319: ra = 946, jump @32\n      : @883 [@dyn 473] (gas: 3)\n 24325: a0 = s1 + 0x15e0\n 24329: a1 = 0x40\n 24332: ra = 948, jump @23\n      : @884 [@dyn 474] (gas: 7)\n 24338: a3 = s1 + 0x1058\n 24342: a5 = a3 + 0x500\n 24346: a0 = u64 [a5 + 0xa0]\n 24350: a1 = u64 [a5 + 0x98]\n 24354: a2 = u64 [a5 + 0x90]\n 24358: a4 = u64 [a5 + 0x88]\n 24362: t0 = 950, jump @1526\n      : @885 [@dyn 475] (gas: 1)\n 24368: jump @887 if a0 == 0\n      : @886 (gas: 1)\n 24371: jump @1003\n      : @887 (gas: 13)\n 24374: a0 = u64 [s1 + 0xc0]\n 24378: a2 = a3 + 0x500\n 24382: u64 [a2 + 0x68] = a0\n 24385: a0 = u64 [s1 + 0xc8]\n 24389: u64 [a2 + 0x70] = a0\n 24392: a0 = u64 [s1 + 0xd0]\n 24396: u64 [a2 + 0x78] = a0\n 24399: a1 = s1 + 0x15c0\n 24403: a0 = u64 [s1 + 0xd8]\n 24407: u64 [a2 + 0x80] = a0\n 24411: a0 = a4\n 24413: u64 [s1 + 0xd8] = a4\n 24417: ra = 952, jump @25\n      : @888 [@dyn 476] (gas: 6)\n 24423: a0 = u64 [s1 + 0xa8]\n 24427: ra = 0x3ba\n 24431: ecalli 3 // 'caller'\n 24433: a2 = u64 [s1 + 0xb8]\n 24437: t0 = 0x3bc\n 24441: jump @1522\n      : @889 [@dyn 477] (gas: 2)\n 24444: a2 = u64 [s1 + 0xb8]\n 24448: t0 = 956, jump @1522\n      : @890 [@dyn 478] (gas: 30)\n 24454: t0 = a1 | a0\n 24457: a3 = a3 >> 0x20\n 24460: a2 = reverse a2\n 24462: a1 = a2 << 0x20\n 24465: a1 = a1 | a3\n 24468: a2 = a2 >> 0x20\n 24471: a3 = u64 [0x20030]\n 24476: a4 = u64 [0x20038]\n 24481: a5 = u64 [0x20040]\n 24486: a0 = s1 + 0x1058\n 24490: u64 [a0 + 0x560] = a3\n 24494: u64 [a0 + 0x558] = a4\n 24498: u64 [a0 + 1312] = 0\n 24502: a4 = a0 + 0x500\n 24506: u64 [a4 + 0x50] = a5\n 24509: a3 = u64 [0x20048]\n 24514: u64 [a0 + 1304] = 0\n 24518: u64 [a0 + 1296] = 0\n 24522: u64 [a0 + 1288] = 0\n 24526: u64 [a4 + 0x48] = a3\n 24529: u64 [a4 + 0x38] = a2\n 24532: u64 [a4 + 0x30] = a1\n 24535: u64 [a0 + 0x528] = t0\n 24539: a1 = 0x20\n 24542: a2 = s1 + 0x15a0\n 24546: a3 = s1 + 0x1580\n 24550: a4 = s1 + 0x1560\n 24554: u64 [a0 + 1344] = 0\n 24558: a0 = u64 [s1 + 0xd8]\n 24562: ra = 958, jump @34\n      : @891 [@dyn 479] (gas: 5)\n 24568: a0 = 0\n 24570: a1 = u64 [s1 + 0xa0]\n 24574: a2 = 0\n 24576: ecalli 7 // 'seal_return'\n 24578: jump @1089\n      : @892 (gas: 22)\n 24581: a1 = 0xffffffff\n 24591: a2 = u64 [s1 + 0x48]\n 24594: a2 = a2 & 0xffffffffffffffff\n 24597: a3 = u64 [s1 + 0x50]\n 24600: a0 = a3 & 0xffffffffffffffff\n 24603: a3 = u64 [s1 + 0x58]\n 24606: a1 = a1 & a3\n 24609: u64 [s1 + 0x80] = a0\n 24613: u64 [s1 + 0x70] = a1\n 24616: a0 = a0 | a1\n 24619: u64 [s1 + 0x78] = a2\n 24622: a0 = a0 | a2\n 24625: a0 = a0 >u 0\n 24627: u64 [t0 + 1320] = 0\n 24631: u64 [t0 + 1312] = 0\n 24635: u64 [t0 + 0x510] = a0\n 24639: a0 = s1 + 0x7ff\n 24643: a0 = a0 + 0x561\n 24647: u64 [t0 + 1304] = 0\n 24651: ra = 0x3c0\n 24655: t0 = 0x582\n 24659: jump @1542\n      : @893 [@dyn 480] (gas: 13)\n 24662: a2 = s1 + 0x7ff\n 24666: a2 = a2 + 0x51\n 24669: u64 [a2 + 1288] = 0\n 24673: a0 = u64 [s1 + 0x98]\n 24677: u64 [a2 + 0x500] = a0\n 24681: a0 = u64 [s1 + 0xa0]\n 24685: u64 [a2 + 0x4f8] = a0\n 24689: a1 = s1 + 0x7ff\n 24693: a1 = a1 + 0x541\n 24697: a0 = u64 [s1 + 0xa8]\n 24701: u64 [a2 + 0x4f0] = a0\n 24705: a0 = 0\n 24707: ra = 962, jump @25\n      : @894 [@dyn 481] (gas: 11)\n 24713: a0 = s1 + 0x7ff\n 24717: a0 = a0 + 0x51\n 24720: u64 [a0 + 1256] = 0\n 24724: u64 [a0 + 1248] = 0\n 24728: u64 [a0 + 1240] = 0\n 24732: a3 = a0\n 24734: a0 = 0x20\n 24737: a1 = s1 + 0x7ff\n 24741: a1 = a1 + 0x521\n 24745: u64 [a3 + 1232] = 0x4\n 24750: ra = 964, jump @25\n      : @895 [@dyn 482] (gas: 7)\n 24756: a0 = sp + 0xffffffffffffffe0\n 24759: a0 = a0 & 0xffffffffffffffe0\n 24762: u64 [s1 + 0x88] = a0\n 24766: sp = a0\n 24768: a1 = u64 [s1 + 0xd8]\n 24772: a0 = i32 [a1]\n 24774: jump @897 if a0 >u 63\n      : @896 (gas: 2)\n 24778: u32 [a1 + 0] = 0x40\n 24781: fallthrough\n      : @897 (gas: 4)\n 24782: a0 = sp + 0xffffffffffffffe0\n 24785: a0 = a0 & 0xffffffffffffffe0\n 24788: u64 [s1 + 0x68] = a0\n 24791: t0 = 966, jump @1535\n      : @898 [@dyn 483] (gas: 5)\n 24797: ra = 0x3c8\n 24801: ecalli 6 // 'hash_keccak_256'\n 24803: a3 = u64 [s1 + 0x68]\n 24806: t0 = 0x3ca\n 24810: jump @1523\n      : @899 [@dyn 484] (gas: 2)\n 24813: a3 = u64 [s1 + 0x68]\n 24816: t0 = 970, jump @1523\n      : @900 [@dyn 485] (gas: 2)\n 24822: a0 = a0 + 0x501\n 24826: ra = 972, jump @27\n      : @901 [@dyn 486] (gas: 26)\n 24832: a5 = s1 + 0x7ff\n 24836: a5 = a5 + 0x51\n 24839: a3 = u64 [a5 + 0x4b0]\n 24843: a0 = u64 [a5 + 0x4b8]\n 24847: a1 = u64 [a5 + 0x4c0]\n 24851: a2 = u64 [a5 + 0x4c8]\n 24855: a4 = u64 [s1 + 0xc8]\n 24859: u64 [a5 + 0x468] = a4\n 24863: a4 = u64 [s1 + 0xc0]\n 24867: u64 [a5 + 0x460] = a4\n 24871: a4 = u64 [s1 + 0xb8]\n 24875: u64 [a5 + 0x458] = a4\n 24879: a4 = u64 [s1 + 0xb0]\n 24883: u64 [a5 + 0x450] = a4\n 24887: a4 = a5 + 0x400\n 24891: u64 [a4 + 0x88] = a2\n 24895: u64 [a4 + 0x80] = a1\n 24899: u64 [a4 + 0x78] = a0\n 24902: a0 = s1 + 0x7ff\n 24906: a0 = a0 + 0x4e1\n 24910: a1 = s1 + 0x7ff\n 24914: a1 = a1 + 0x4c1\n 24918: a2 = s1 + 0x7ff\n 24922: a2 = a2 + 0x4a1\n 24926: u64 [a4 + 0x70] = a3\n 24929: ra = 974, jump @1336\n      : @902 [@dyn 487] (gas: 16)\n 24935: a3 = s1 + 0x7ff\n 24939: a3 = a3 + 0x51\n 24942: a4 = a3 + 0x400\n 24946: a0 = u64 [a4 + 0xa8]\n 24950: a1 = u64 [a4 + 0xa0]\n 24954: a2 = u64 [a4 + 0x98]\n 24958: a3 = u64 [a4 + 0x90]\n 24962: a4 = s1 + 0x3058\n 24966: a5 = a4 + 0x600\n 24970: u64 [a5 + 0x80] = a0\n 24974: u64 [a5 + 0x78] = a1\n 24977: u64 [a5 + 0x70] = a2\n 24980: u64 [a5 + 0x68] = a3\n 24983: a1 = s1 + 0x36c0\n 24987: a0 = u64 [s1 + 0x88]\n 24991: ra = 976, jump @31\n      : @903 [@dyn 488] (gas: 14)\n 24997: a2 = s1 + 0x7ff\n 25001: a2 = a2 + 0x51\n 25004: u64 [a2 + 1096] = 0\n 25008: a0 = u64 [s1 + 0x70]\n 25011: a3 = a2 + 0x400\n 25015: u64 [a3 + 0x40] = a0\n 25018: a0 = u64 [s1 + 0x78]\n 25021: u64 [a3 + 0x38] = a0\n 25024: a1 = s1 + 0x7ff\n 25028: a1 = a1 + 0x481\n 25032: a0 = u64 [s1 + 0x80]\n 25036: u64 [a3 + 0x30] = a0\n 25039: a0 = 0\n 25041: ra = 978, jump @25\n      : @904 [@dyn 489] (gas: 11)\n 25047: a1 = s1 + 0x7ff\n 25051: a1 = a1 + 0x51\n 25054: u64 [a1 + 1064] = 0\n 25058: u64 [a1 + 1056] = 0\n 25062: u64 [a1 + 1040] = 0x4\n 25067: a2 = a1\n 25069: a0 = 0x20\n 25072: a1 = s1 + 0x7ff\n 25076: a1 = a1 + 0x461\n 25080: u64 [a2 + 1048] = 0\n 25084: ra = 980, jump @25\n      : @905 [@dyn 490] (gas: 7)\n 25090: a1 = u64 [s1 + 0xd8]\n 25094: a0 = sp + 0xffffffffffffffe0\n 25097: a0 = a0 & 0xffffffffffffffe0\n 25100: u64 [s1 + 0x88] = a0\n 25104: sp = a0\n 25106: a0 = i32 [a1]\n 25108: jump @907 if a0 >u 63\n      : @906 (gas: 2)\n 25112: u32 [a1 + 0] = 0x40\n 25115: fallthrough\n      : @907 (gas: 4)\n 25116: a0 = sp + 0xffffffffffffffe0\n 25119: a0 = a0 & 0xffffffffffffffe0\n 25122: u64 [s1 + 0x68] = a0\n 25125: t0 = 982, jump @1535\n      : @908 [@dyn 491] (gas: 5)\n 25131: ra = 0x3d8\n 25135: ecalli 6 // 'hash_keccak_256'\n 25137: a3 = u64 [s1 + 0x68]\n 25140: t0 = 0x3da\n 25144: jump @1523\n      : @909 [@dyn 492] (gas: 2)\n 25147: a3 = u64 [s1 + 0x68]\n 25150: t0 = 986, jump @1523\n      : @910 [@dyn 493] (gas: 2)\n 25156: a0 = a0 + 0x441\n 25160: ra = 988, jump @27\n      : @911 [@dyn 494] (gas: 26)\n 25166: a5 = s1 + 0x7ff\n 25170: a5 = a5 + 0x51\n 25173: a3 = u64 [a5 + 0x3f0]\n 25177: a0 = u64 [a5 + 0x3f8]\n 25181: a1 = u64 [a5 + 0x400]\n 25185: a2 = u64 [a5 + 0x408]\n 25189: a4 = u64 [s1 + 0xc8]\n 25193: u64 [a5 + 0x3a8] = a4\n 25197: a4 = u64 [s1 + 0xc0]\n 25201: u64 [a5 + 0x3a0] = a4\n 25205: a4 = u64 [s1 + 0xb8]\n 25209: u64 [a5 + 0x398] = a4\n 25213: a4 = u64 [s1 + 0xb0]\n 25217: u64 [a5 + 0x390] = a4\n 25221: a4 = a5 + 0x300\n 25225: u64 [a4 + 0xc8] = a2\n 25229: u64 [a4 + 0xc0] = a1\n 25233: u64 [a4 + 0xb8] = a0\n 25237: a0 = s1 + 0x7ff\n 25241: a0 = a0 + 0x421\n 25245: a1 = s1 + 0x7ff\n 25249: a1 = a1 + 0x401\n 25253: a2 = s1 + 0x7ff\n 25257: a2 = a2 + 0x3e1\n 25261: u64 [a4 + 0xb0] = a3\n 25265: ra = 990, jump @1344\n      : @912 [@dyn 495] (gas: 4)\n 25271: a3 = s1 + 0x7ff\n 25275: a3 = a3 + 0x51\n 25278: a4 = a3 + 0x300\n 25282: t0 = 992, jump @1573\n      : @913 [@dyn 496] (gas: 7)\n 25288: u64 [a5 + 0xa0] = a0\n 25292: u64 [a5 + 0x98] = a1\n 25296: u64 [a5 + 0x90] = a2\n 25300: u64 [a5 + 0x88] = a3\n 25304: a1 = s1 + 0x36e0\n 25308: a0 = u64 [s1 + 0x88]\n 25312: ra = 994, jump @31\n      : @914 [@dyn 497] (gas: 14)\n 25318: a2 = s1 + 0x7ff\n 25322: a2 = a2 + 0x51\n 25325: u64 [a2 + 904] = 0\n 25329: a0 = u64 [s1 + 0x98]\n 25333: a3 = a2 + 0x300\n 25337: u64 [a3 + 0x80] = a0\n 25341: a0 = u64 [s1 + 0xa0]\n 25345: u64 [a3 + 0x78] = a0\n 25348: a1 = s1 + 0x7ff\n 25352: a1 = a1 + 0x3c1\n 25356: a0 = u64 [s1 + 0xa8]\n 25360: u64 [a3 + 0x70] = a0\n 25363: a0 = 0\n 25365: ra = 996, jump @25\n      : @915 [@dyn 498] (gas: 11)\n 25371: a1 = s1 + 0x7ff\n 25375: a1 = a1 + 0x51\n 25378: u64 [a1 + 872] = 0\n 25382: u64 [a1 + 864] = 0\n 25386: u64 [a1 + 848] = 0x5\n 25391: a2 = a1\n 25393: a0 = 0x20\n 25396: a1 = s1 + 0x7ff\n 25400: a1 = a1 + 0x3a1\n 25404: u64 [a2 + 856] = 0\n 25408: ra = 998, jump @25\n      : @916 [@dyn 499] (gas: 3)\n 25414: a1 = u64 [s1 + 0xd8]\n 25418: a0 = i32 [a1]\n 25420: jump @918 if a0 >u 63\n      : @917 (gas: 2)\n 25424: u32 [a1 + 0] = 0x40\n 25427: fallthrough\n      : @918 (gas: 4)\n 25428: a0 = sp + 0xffffffffffffffe0\n 25431: a0 = a0 & 0xffffffffffffffe0\n 25434: u64 [s1 + 0x88] = a0\n 25438: t0 = 1000, jump @1535\n      : @919 [@dyn 500] (gas: 5)\n 25444: ra = 0x3ea\n 25448: ecalli 6 // 'hash_keccak_256'\n 25450: a3 = u64 [s1 + 0x88]\n 25454: t0 = 0x3ec\n 25458: jump @1579\n      : @920 [@dyn 501] (gas: 2)\n 25461: a3 = u64 [s1 + 0x88]\n 25465: t0 = 1004, jump @1579\n      : @921 [@dyn 502] (gas: 16)\n 25471: u64 [s1 + 0x68] = a0\n 25474: a0 = reverse a1\n 25476: u64 [s1 + 0x58] = a0\n 25479: a0 = reverse a2\n 25481: u64 [s1 + 0x50] = a0\n 25484: a0 = reverse a3\n 25486: u64 [s1 + 0x48] = a0\n 25489: a0 = sp + 0xffffffffffffffe0\n 25492: a0 = a0 & 0xffffffffffffffe0\n 25495: u64 [s1 + 0x88] = a0\n 25499: sp = a0\n 25501: a0 = u64 [s1 + 0x60]\n 25504: ra = 0x3ee\n 25508: ecalli 3 // 'caller'\n 25510: t0 = 0x3f0\n 25514: jump @1543\n      : @922 [@dyn 503] (gas: 1)\n 25517: t0 = 1008, jump @1543\n      : @923 [@dyn 504] (gas: 9)\n 25523: u64 [a2 + 840] = 0\n 25527: a4 = a2 + 0x300\n 25531: u64 [a4 + 0x40] = a1\n 25534: u64 [a4 + 0x38] = a0\n 25537: a1 = s1 + 0x7ff\n 25541: a1 = a1 + 0x381\n 25545: u64 [a4 + 0x30] = a3\n 25548: a0 = 0\n 25550: ra = 1010, jump @25\n      : @924 [@dyn 505] (gas: 16)\n 25556: a0 = u64 [s1 + 0x48]\n 25559: a1 = s1 + 0x7ff\n 25563: a1 = a1 + 0x51\n 25566: a2 = a1 + 0x300\n 25570: u64 [a2 + 0x28] = a0\n 25573: a0 = u64 [s1 + 0x50]\n 25576: u64 [a2 + 0x20] = a0\n 25579: a0 = u64 [s1 + 0x58]\n 25582: u64 [a2 + 0x18] = a0\n 25585: a3 = a1\n 25587: a0 = 0x20\n 25590: a1 = s1 + 0x7ff\n 25594: a1 = a1 + 0x361\n 25598: a2 = u64 [s1 + 0x68]\n 25601: u64 [a3 + 0x310] = a2\n 25605: ra = 1012, jump @25\n      : @925 [@dyn 506] (gas: 3)\n 25611: a1 = u64 [s1 + 0xd8]\n 25615: a0 = i32 [a1]\n 25617: jump @927 if a0 >u 63\n      : @926 (gas: 2)\n 25621: u32 [a1 + 0] = 0x40\n 25624: fallthrough\n      : @927 (gas: 4)\n 25625: a0 = sp + 0xffffffffffffffe0\n 25628: a0 = a0 & 0xffffffffffffffe0\n 25631: u64 [s1 + 0xd8] = a0\n 25635: t0 = 1014, jump @1535\n      : @928 [@dyn 507] (gas: 5)\n 25641: ra = 0x3f8\n 25645: ecalli 6 // 'hash_keccak_256'\n 25647: a3 = u64 [s1 + 0xd8]\n 25651: t0 = 0x3fa\n 25655: jump @1523\n      : @929 [@dyn 508] (gas: 2)\n 25658: a3 = u64 [s1 + 0xd8]\n 25662: t0 = 1018, jump @1523\n      : @930 [@dyn 509] (gas: 2)\n 25668: a0 = a0 + 0x341\n 25672: ra = 1020, jump @27\n      : @931 [@dyn 510] (gas: 26)\n 25678: a5 = s1 + 0x7ff\n 25682: a5 = a5 + 0x51\n 25685: a3 = u64 [a5 + 0x2f0]\n 25689: a0 = u64 [a5 + 0x2f8]\n 25693: a1 = u64 [a5 + 0x300]\n 25697: a2 = u64 [a5 + 0x308]\n 25701: a4 = u64 [s1 + 0xc8]\n 25705: u64 [a5 + 0x2a8] = a4\n 25709: a4 = u64 [s1 + 0xc0]\n 25713: u64 [a5 + 0x2a0] = a4\n 25717: a4 = u64 [s1 + 0xb8]\n 25721: u64 [a5 + 0x298] = a4\n 25725: a4 = u64 [s1 + 0xb0]\n 25729: u64 [a5 + 0x290] = a4\n 25733: a4 = a5 + 0x200\n 25737: u64 [a4 + 0xc8] = a2\n 25741: u64 [a4 + 0xc0] = a1\n 25745: u64 [a4 + 0xb8] = a0\n 25749: a0 = s1 + 0x7ff\n 25753: a0 = a0 + 0x321\n 25757: a1 = s1 + 0x7ff\n 25761: a1 = a1 + 0x301\n 25765: a2 = s1 + 0x7ff\n 25769: a2 = a2 + 0x2e1\n 25773: u64 [a4 + 0xb0] = a3\n 25777: ra = 1022, jump @1336\n      : @932 [@dyn 511] (gas: 4)\n 25783: a3 = s1 + 0x7ff\n 25787: a3 = a3 + 0x51\n 25790: a4 = a3 + 0x200\n 25794: t0 = 1024, jump @1573\n      : @933 [@dyn 512] (gas: 7)\n 25800: u64 [a5 + 0xc0] = a0\n 25804: u64 [a5 + 0xb8] = a1\n 25808: u64 [a5 + 0xb0] = a2\n 25812: u64 [a5 + 0xa8] = a3\n 25816: a1 = s1 + 0x3700\n 25820: a0 = u64 [s1 + 0x88]\n 25824: ra = 1026, jump @31\n      : @934 [@dyn 513] (gas: 4)\n 25830: a0 = s1 + 0x7ff\n 25834: a0 = a0 + 0x2c1\n 25838: a1 = 0x40\n 25841: ra = 1028, jump @23\n      : @935 [@dyn 514] (gas: 8)\n 25847: a3 = s1 + 0x7ff\n 25851: a3 = a3 + 0x51\n 25854: a5 = a3 + 0x200\n 25858: a0 = u64 [a5 + 0x88]\n 25862: a1 = u64 [a5 + 0x80]\n 25866: a2 = u64 [a5 + 0x78]\n 25869: a4 = u64 [a5 + 0x70]\n 25872: t0 = 1030, jump @1526\n      : @936 [@dyn 515] (gas: 1)\n 25878: jump @1003 if a0 != 0\n      : @937 (gas: 14)\n 25882: a0 = u64 [s1 + 0xb0]\n 25886: a2 = a3 + 0x200\n 25890: u64 [a2 + 0x50] = a0\n 25893: a0 = u64 [s1 + 0xb8]\n 25897: u64 [a2 + 0x58] = a0\n 25900: a0 = u64 [s1 + 0xc0]\n 25904: u64 [a2 + 0x60] = a0\n 25907: a1 = s1 + 0x7ff\n 25911: a1 = a1 + 0x2a1\n 25915: a0 = u64 [s1 + 0xc8]\n 25919: u64 [a2 + 0x68] = a0\n 25922: a0 = a4\n 25924: u64 [s1 + 0xd8] = a4\n 25928: ra = 1032, jump @25\n      : @938 [@dyn 516] (gas: 55)\n 25934: a0 = s1 + 0x7ff\n 25938: a0 = a0 + 0x51\n 25941: u64 [a0 + 520] = 0\n 25945: a0 = s1 + 0x7ff\n 25949: a0 = a0 + 0x51\n 25952: a1 = u64 [s1 + 0x70]\n 25955: u64 [a0 + 0x200] = a1\n 25959: a0 = s1 + 0x7ff\n 25963: a0 = a0 + 0x51\n 25966: a1 = u64 [s1 + 0x78]\n 25969: u64 [a0 + 0x1f8] = a1\n 25973: a0 = s1 + 0x7ff\n 25977: a0 = a0 + 0x51\n 25980: a1 = u64 [s1 + 0x80]\n 25984: u64 [a0 + 0x1f0] = a1\n 25988: a0 = s1 + 0x7ff\n 25992: a0 = a0 + 0x51\n 25995: u64 [a0 + 552] = 0\n 25999: a0 = s1 + 0x7ff\n 26003: a0 = a0 + 0x51\n 26006: a1 = u64 [s1 + 0x98]\n 26010: u64 [a0 + 0x220] = a1\n 26014: a0 = s1 + 0x7ff\n 26018: a0 = a0 + 0x51\n 26021: a1 = u64 [s1 + 0xa0]\n 26025: u64 [a0 + 0x218] = a1\n 26029: a0 = u64 [0x20030]\n 26034: a1 = u64 [0x20038]\n 26039: a2 = u64 [0x20040]\n 26044: a3 = s1 + 0x7ff\n 26048: a3 = a3 + 0x51\n 26051: a4 = u64 [s1 + 0xa8]\n 26055: u64 [a3 + 0x210] = a4\n 26059: a3 = s1 + 0x7ff\n 26063: a3 = a3 + 0x51\n 26066: u64 [a3 + 0x248] = a0\n 26070: a0 = s1 + 0x7ff\n 26074: a0 = a0 + 0x51\n 26077: u64 [a0 + 0x240] = a1\n 26081: a0 = s1 + 0x7ff\n 26085: a0 = a0 + 0x51\n 26088: u64 [a0 + 0x238] = a2\n 26092: a0 = u64 [0x20048]\n 26097: a1 = 0x20\n 26100: a2 = s1 + 0x7ff\n 26104: a2 = a2 + 0x281\n 26108: a3 = s1 + 0x7ff\n 26112: a3 = a3 + 0x261\n 26116: a4 = s1 + 0x7ff\n 26120: a4 = a4 + 0x241\n 26124: a5 = s1 + 0x7ff\n 26128: a5 = a5 + 0x51\n 26131: u64 [a5 + 0x230] = a0\n 26135: a0 = u64 [s1 + 0xd8]\n 26139: ra = 1034, jump @34\n      : @939 [@dyn 517] (gas: 4)\n 26145: a0 = s1 + 0x7ff\n 26149: a0 = a0 + 0x221\n 26153: a1 = 0x40\n 26156: ra = 1036, jump @23\n      : @940 [@dyn 518] (gas: 8)\n 26162: a3 = s1 + 0x7ff\n 26166: a3 = a3 + 0x51\n 26169: a5 = a3 + 0x100\n 26173: a4 = u64 [a5 + 0xe8]\n 26177: a1 = u64 [a5 + 0xe0]\n 26181: a2 = u64 [a5 + 0xd8]\n 26185: a0 = u64 [a5 + 0xd0]\n 26189: t0 = 1038, jump @1528\n      : @941 [@dyn 519] (gas: 1)\n 26195: jump @1003 if a1 != 0\n      : @942 (gas: 8)\n 26199: u64 [a3 + 456] = 0\n 26203: u64 [a3 + 448] = 0\n 26207: u64 [a3 + 432] = 0x1\n 26212: a1 = s1 + 0x7ff\n 26216: a1 = a1 + 0x201\n 26220: u64 [a3 + 440] = 0\n 26224: u64 [s1 + 0xd8] = a0\n 26228: ra = 1040, jump @25\n      : @943 [@dyn 520] (gas: 3)\n 26234: a1 = 0x20\n 26237: a0 = u64 [s1 + 0xd8]\n 26241: ra = 1042, jump @38\n      : @944 [@dyn 521] (gas: 5)\n 26247: i32 a1 = a0 + 0\n 26249: a2 = 0x20\n 26252: a0 = 0\n 26254: ecalli 7 // 'seal_return'\n 26256: fallthrough\n      : @945 (gas: 8)\n 26257: a2 = s1 + 0x2058\n 26261: u64 [a2 + 1920] = 0\n 26265: u64 [a2 + 1912] = 0\n 26269: u64 [a2 + 1904] = 0\n 26273: a1 = s1 + 0x27c0\n 26277: u64 [a2 + 1896] = 0x1\n 26282: a0 = 0\n 26284: ra = 1044, jump @25\n      : @946 [@dyn 522] (gas: 6)\n 26290: a0 = sp + 0xffffffffffffffe0\n 26293: a0 = a0 & 0xffffffffffffffe0\n 26296: u64 [s1 + 0x78] = a0\n 26299: sp = a0\n 26301: a1 = i32 [0x2019c]\n 26306: jump @948 if a1 >u 31\n      : @947 (gas: 2)\n 26310: u32 [0x2019c] = 0x20\n 26316: fallthrough\n      : @948 (gas: 49)\n 26317: a0 = sp + 0xffffffffffffffe0\n 26320: a2 = a0 & 0xffffffffffffffe0\n 26323: u64 [s1 + 0xd0] = a2\n 26327: sp = a2\n 26329: a0 = 0x201b0\n 26334: i32 a0 = a0 + 0\n 26336: i32 a2 = a2 + 0\n 26338: a1 = 0x20\n 26341: ecalli 6 // 'hash_keccak_256'\n 26343: u64 [s1 + 216] = 0\n 26347: t2 = 0\n 26349: t1 = 0\n 26351: t0 = 0\n 26353: a5 = u64 [s1 + 0xd0]\n 26357: a0 = u64 [a5 + 0x18]\n 26360: a1 = u64 [s1 + 0x50]\n 26363: a2 = a1 + 0x20\n 26366: u64 [s1 + 0x70] = a2\n 26369: a1 = a2 <u a1\n 26372: a2 = u64 [s1 + 0x48]\n 26375: a3 = a2 + a1\n 26378: u64 [s1 + 0x68] = a3\n 26381: a4 = a3 <u a2\n 26384: a4 = a1 if a1 == 0\n 26387: a1 = u64 [a5 + 0x10]\n 26390: a2 = u64 [a5 + 0x8]\n 26393: a3 = u64 [a5]\n 26395: a0 = reverse a0\n 26397: a1 = reverse a1\n 26399: ra = reverse a2\n 26401: a2 = reverse a3\n 26403: a5 = u64 [s1 + 0x78]\n 26406: a3 = a2\n 26408: u64 [a5 + 0x18] = a2\n 26411: a2 = ra\n 26413: u64 [s1 + 0xa0] = a2\n 26417: u64 [a5 + 0x10] = a2\n 26420: u64 [s1 + 0xb0] = a1\n 26424: u64 [a5 + 0x8] = a1\n 26427: a2 = a0\n 26429: u64 [a5] = a0\n 26431: a0 = u64 [s1 + 0x40]\n 26434: a4 = a4 + a0\n 26437: u64 [s1 + 0x60] = a4\n 26440: a0 = a4 <u a0\n 26443: a1 = u64 [s1 + 0x38]\n 26446: a0 = a0 + a1\n 26449: u64 [s1 + 0x58] = a0\n 26452: fallthrough\n      : @949 (gas: 19)\n 26453: u64 [s1 + 0xa8] = a3\n 26457: u64 [s1 + 0xb8] = a2\n 26461: a0 = u64 [s1 + 0x98]\n 26465: a1 = u64 [s1 + 0xd8]\n 26469: a0 = a1 <u a0\n 26472: a2 = u64 [s1 + 0x88]\n 26476: a1 = t2 ^ a2\n 26479: a2 = t2 <u a2\n 26482: a2 = a0 if a1 == 0\n 26485: a4 = u64 [s1 + 0x90]\n 26489: a0 = t1 <u a4\n 26492: a3 = u64 [s1 + 0x80]\n 26496: a1 = t0 ^ a3\n 26499: a3 = t0 <u a3\n 26502: a3 = a0 if a1 == 0\n 26505: a0 = t1 ^ a4\n 26508: a0 = a0 | a1\n 26511: a3 = a2 if a0 == 0\n 26514: jump @987 if a3 == 0\n      : @950 (gas: 6)\n 26518: a0 = s1 + 0x27a0\n 26522: a1 = a5\n 26524: u64 [s1 + 0xd0] = t0\n 26528: u64 [s1 + 0xc8] = t1\n 26532: u64 [s1 + 0xc0] = t2\n 26536: ra = 1046, jump @27\n      : @951 [@dyn 523] (gas: 1)\n 26542: t0 = 1048, jump @1540\n      : @952 [@dyn 524] (gas: 6)\n 26548: t0 = a1 <u a5\n 26551: a5 = u64 [s1 + 0xd0]\n 26555: a3 = u64 [s1 + 0x58]\n 26558: a5 = a5 + a3\n 26561: a5 = a5 + t0\n 26564: t0 = 1050, jump @1559\n      : @953 [@dyn 525] (gas: 1)\n 26570: jump @1003 if a1 != 0\n      : @954 (gas: 13)\n 26574: a5 = s1 + 0x2058\n 26578: t0 = u64 [a5 + 0x760]\n 26582: a3 = a5 + 0x700\n 26586: a1 = u64 [a3 + 0x58]\n 26589: a2 = u64 [a3 + 0x50]\n 26592: a4 = u64 [a3 + 0x48]\n 26595: u64 [a3 + 0x28] = a4\n 26598: u64 [a3 + 0x30] = a2\n 26601: u64 [a3 + 0x38] = a1\n 26604: a1 = s1 + 0x2780\n 26608: u64 [a5 + 0x740] = t0\n 26612: u64 [s1 + 0xd8] = t2\n 26616: ra = 1052, jump @25\n      : @955 [@dyn 526] (gas: 37)\n 26622: t0 = u64 [s1 + 0xd0]\n 26626: ra = u64 [s1 + 0xb8]\n 26630: ra = ra + 0x1\n 26633: a0 = ra <u 0x1\n 26636: a3 = u64 [s1 + 0xb0]\n 26640: a3 = a3 + a0\n 26643: a0 = ra | a3\n 26646: a0 = a0 <u 0x1\n 26649: a1 = u64 [s1 + 0xa0]\n 26653: t2 = a1 + a0\n 26656: a1 = t2 <u a1\n 26659: a0 = u64 [s1 + 0xa8]\n 26663: a0 = a0 + a1\n 26666: a1 = u64 [s1 + 0xd8]\n 26670: t1 = a1 + 0x20\n 26673: a2 = t1 <u a1\n 26676: a4 = u64 [s1 + 0xc0]\n 26680: a1 = a4 + a2\n 26683: a4 = a1 <u a4\n 26686: a4 = a2 if a2 == 0\n 26689: a2 = u64 [s1 + 0xc8]\n 26693: a4 = a4 + a2\n 26696: a2 = a4 <u a2\n 26699: t0 = t0 + a2\n 26702: u64 [s1 + 0xb0] = a3\n 26706: a5 = u64 [s1 + 0x78]\n 26709: u64 [a5 + 0x8] = a3\n 26712: a2 = ra\n 26714: u64 [a5] = ra\n 26716: u64 [a5 + 0x10] = t2\n 26719: a3 = a0\n 26721: u64 [a5 + 0x18] = a0\n 26724: u64 [s1 + 0xa0] = t2\n 26728: u64 [s1 + 0xd8] = t1\n 26732: t2 = a1\n 26734: t1 = a4\n 26736: jump @949\n      : @956 (gas: 7)\n 26739: u64 [s1 + 600] = 0\n 26743: u64 [s1 + 592] = 0\n 26747: u64 [s1 + 584] = 0\n 26751: a1 = s1 + 0x240\n 26755: u64 [s1 + 576] = 0\n 26759: a0 = 0\n 26761: ra = 1054, jump @25\n      : @957 [@dyn 527] (gas: 6)\n 26767: a0 = sp + 0xffffffffffffffe0\n 26770: a0 = a0 & 0xffffffffffffffe0\n 26773: u64 [s1 + 0x78] = a0\n 26776: sp = a0\n 26778: a1 = i32 [0x2019c]\n 26783: jump @959 if a1 >u 31\n      : @958 (gas: 2)\n 26787: u32 [0x2019c] = 0x20\n 26793: fallthrough\n      : @959 (gas: 49)\n 26794: a0 = sp + 0xffffffffffffffe0\n 26797: a2 = a0 & 0xffffffffffffffe0\n 26800: u64 [s1 + 0xd0] = a2\n 26804: sp = a2\n 26806: a0 = 0x201b0\n 26811: i32 a0 = a0 + 0\n 26813: i32 a2 = a2 + 0\n 26815: a1 = 0x20\n 26818: ecalli 6 // 'hash_keccak_256'\n 26820: u64 [s1 + 216] = 0\n 26824: t2 = 0\n 26826: t1 = 0\n 26828: t0 = 0\n 26830: a5 = u64 [s1 + 0xd0]\n 26834: a0 = u64 [a5 + 0x18]\n 26837: a1 = u64 [s1 + 0x50]\n 26840: a2 = a1 + 0x20\n 26843: u64 [s1 + 0x70] = a2\n 26846: a1 = a2 <u a1\n 26849: a2 = u64 [s1 + 0x48]\n 26852: a3 = a2 + a1\n 26855: u64 [s1 + 0x68] = a3\n 26858: a4 = a3 <u a2\n 26861: a4 = a1 if a1 == 0\n 26864: a1 = u64 [a5 + 0x10]\n 26867: a2 = u64 [a5 + 0x8]\n 26870: a3 = u64 [a5]\n 26872: a0 = reverse a0\n 26874: a1 = reverse a1\n 26876: ra = reverse a2\n 26878: a2 = reverse a3\n 26880: a5 = u64 [s1 + 0x78]\n 26883: a3 = a2\n 26885: u64 [a5 + 0x18] = a2\n 26888: a2 = ra\n 26890: u64 [s1 + 0xa0] = a2\n 26894: u64 [a5 + 0x10] = a2\n 26897: u64 [s1 + 0xb0] = a1\n 26901: u64 [a5 + 0x8] = a1\n 26904: a2 = a0\n 26906: u64 [a5] = a0\n 26908: a0 = u64 [s1 + 0x40]\n 26911: a4 = a4 + a0\n 26914: u64 [s1 + 0x60] = a4\n 26917: a0 = a4 <u a0\n 26920: a1 = u64 [s1 + 0x38]\n 26923: a0 = a0 + a1\n 26926: u64 [s1 + 0x58] = a0\n 26929: fallthrough\n      : @960 (gas: 19)\n 26930: u64 [s1 + 0xa8] = a3\n 26934: u64 [s1 + 0xb8] = a2\n 26938: a0 = u64 [s1 + 0x98]\n 26942: a1 = u64 [s1 + 0xd8]\n 26946: a0 = a1 <u a0\n 26949: a2 = u64 [s1 + 0x88]\n 26953: a1 = t2 ^ a2\n 26956: a2 = t2 <u a2\n 26959: a2 = a0 if a1 == 0\n 26962: a4 = u64 [s1 + 0x90]\n 26966: a0 = t1 <u a4\n 26969: a3 = u64 [s1 + 0x80]\n 26973: a1 = t0 ^ a3\n 26976: a3 = t0 <u a3\n 26979: a3 = a0 if a1 == 0\n 26982: a0 = t1 ^ a4\n 26985: a0 = a0 | a1\n 26988: a3 = a2 if a0 == 0\n 26991: jump @994 if a3 == 0\n      : @961 (gas: 6)\n 26995: a0 = s1 + 0x220\n 26999: a1 = a5\n 27001: u64 [s1 + 0xd0] = t0\n 27005: u64 [s1 + 0xc8] = t1\n 27009: u64 [s1 + 0xc0] = t2\n 27013: ra = 1056, jump @27\n      : @962 [@dyn 528] (gas: 1)\n 27019: t0 = 1058, jump @1540\n      : @963 [@dyn 529] (gas: 6)\n 27025: t0 = a1 <u a5\n 27028: a5 = u64 [s1 + 0xd0]\n 27032: a3 = u64 [s1 + 0x58]\n 27035: a5 = a5 + a3\n 27038: a5 = a5 + t0\n 27041: t0 = 1060, jump @1559\n      : @964 [@dyn 530] (gas: 1)\n 27047: jump @1003 if a1 != 0\n      : @965 (gas: 12)\n 27051: a3 = s1 + 0x200\n 27055: a2 = u64 [a3 + 0x38]\n 27058: a1 = u64 [a3 + 0x30]\n 27061: a5 = u64 [a3 + 0x28]\n 27064: a4 = u64 [a3 + 0x20]\n 27067: u64 [a3] = a4\n 27069: u64 [a3 + 0x8] = a5\n 27072: u64 [a3 + 0x10] = a1\n 27075: a1 = s1 + 0x200\n 27079: u64 [a3 + 0x18] = a2\n 27082: u64 [s1 + 0xd8] = t2\n 27086: ra = 1062, jump @25\n      : @966 [@dyn 531] (gas: 37)\n 27092: t0 = u64 [s1 + 0xd0]\n 27096: ra = u64 [s1 + 0xb8]\n 27100: ra = ra + 0x1\n 27103: a0 = ra <u 0x1\n 27106: a3 = u64 [s1 + 0xb0]\n 27110: a3 = a3 + a0\n 27113: a0 = ra | a3\n 27116: a0 = a0 <u 0x1\n 27119: a1 = u64 [s1 + 0xa0]\n 27123: t2 = a1 + a0\n 27126: a1 = t2 <u a1\n 27129: a0 = u64 [s1 + 0xa8]\n 27133: a0 = a0 + a1\n 27136: a1 = u64 [s1 + 0xd8]\n 27140: t1 = a1 + 0x20\n 27143: a2 = t1 <u a1\n 27146: a4 = u64 [s1 + 0xc0]\n 27150: a1 = a4 + a2\n 27153: a4 = a1 <u a4\n 27156: a4 = a2 if a2 == 0\n 27159: a2 = u64 [s1 + 0xc8]\n 27163: a4 = a4 + a2\n 27166: a2 = a4 <u a2\n 27169: t0 = t0 + a2\n 27172: u64 [s1 + 0xb0] = a3\n 27176: a5 = u64 [s1 + 0x78]\n 27179: u64 [a5 + 0x8] = a3\n 27182: a2 = ra\n 27184: u64 [a5] = ra\n 27186: u64 [a5 + 0x10] = t2\n 27189: a3 = a0\n 27191: u64 [a5 + 0x18] = a0\n 27194: u64 [s1 + 0xa0] = t2\n 27198: u64 [s1 + 0xd8] = t1\n 27202: t2 = a1\n 27204: t1 = a4\n 27206: jump @960\n      : @967 (gas: 5)\n 27209: a0 = s1 + 0x4000\n 27213: i32 a0 = a0 + 0xfffffffffffffae0\n 27217: a1 = 0x24\n 27220: ecalli 1 // 'call_data_load'\n 27222: fallthrough\n      : @968 (gas: 12)\n 27223: t0 = s1 + 0x3858\n 27227: a0 = t0 + 0x200\n 27231: a5 = u64 [a0 + 0xa0]\n 27235: a3 = u64 [a0 + 0x98]\n 27239: a4 = u64 [a0 + 0x90]\n 27243: a0 = a5 >u 0\n 27245: a1 = a3 >u 0\n 27247: a1 = a0 if a5 != 0\n 27250: a0 = a3 | a5\n 27253: a2 = a4 >u 0\n 27255: a2 = a1 if a0 != 0\n 27258: jump @970 if a2 == 0\n      : @969 (gas: 1)\n 27261: jump @1157\n      : @970 (gas: 19)\n 27264: a1 = u64 [t0 + 0x288]\n 27268: a0 = u64 [s1 + 0x18]\n 27271: t2 = u32 [a0]\n 27273: a0 = a1 + 0x23\n 27276: a2 = a0 <u a1\n 27279: t0 = a4 + a2\n 27282: u64 [s1 + 0x88] = a4\n 27286: a4 = t0 <u a4\n 27289: a4 = a2 if a2 == 0\n 27292: a4 = a4 + a3\n 27295: u64 [s1 + 0x90] = a3\n 27299: a2 = a4 <u a3\n 27302: u64 [s1 + 0x98] = a5\n 27306: a2 = a2 + a5\n 27309: a2 = a2 | a4\n 27312: a0 = a0 <u t2\n 27315: a0 = 0 if t0 != 0\n 27317: a0 = 0 if a2 != 0\n 27319: jump @972 if a0 != 0\n      : @971 (gas: 1)\n 27322: jump @1158\n      : @972 (gas: 24)\n 27325: u64 [s1 + 0x80] = a1\n 27329: i32 a1 = a1 + 0x4\n 27332: a0 = s1 + 0x4000\n 27336: i32 a0 = a0 + 0xfffffffffffffb00\n 27340: ecalli 1 // 'call_data_load'\n 27342: a0 = s1 + 0x3858\n 27346: a5 = a0 + 0x200\n 27350: a3 = u64 [a5 + 0xc0]\n 27354: a1 = u64 [a5 + 0xb8]\n 27358: a2 = u64 [a5 + 0xb0]\n 27362: a4 = u64 [a5 + 0xa8]\n 27366: a5 = s1 + 0x2058\n 27370: u64 [s1 + 0xc8] = a3\n 27374: u64 [a5 + 0x400] = a3\n 27378: u64 [s1 + 0xd0] = a1\n 27382: a3 = a5 + 0x300\n 27386: u64 [a3 + 0xf8] = a1\n 27390: u64 [s1 + 0xd8] = a2\n 27394: u64 [a3 + 0xf0] = a2\n 27398: a0 = s1 + 0x2460\n 27402: a1 = s1 + 0x2440\n 27406: u64 [s1 + 0xc0] = a4\n 27410: u64 [a3 + 0xe8] = a4\n 27414: ra = 1064, jump @1216\n      : @973 [@dyn 532] (gas: 13)\n 27420: a0 = s1 + 0x2058\n 27424: a2 = a0 + 0x400\n 27428: a1 = u64 [a2 + 0x8]\n 27431: u64 [s1 + 0xb8] = a1\n 27435: a1 = u64 [a2 + 0x10]\n 27438: u64 [s1 + 0xb0] = a1\n 27442: a1 = u64 [a2 + 0x18]\n 27445: u64 [s1 + 0xa8] = a1\n 27449: a1 = u64 [a2 + 0x20]\n 27452: u64 [s1 + 0xa0] = a1\n 27456: a0 = s1 + 0x2420\n 27460: a1 = 0x40\n 27463: ra = 1066, jump @23\n      : @974 [@dyn 533] (gas: 26)\n 27469: a0 = s1 + 0x2058\n 27473: a2 = u64 [a0 + 0x3e0]\n 27477: u64 [s1 + 0x30] = a2\n 27480: a1 = u64 [a0 + 0x3d8]\n 27484: u64 [s1 + 0x28] = a1\n 27487: a4 = u64 [a0 + 0x3d0]\n 27491: u64 [s1 + 0x20] = a4\n 27494: a5 = u64 [a0 + 0x3c8]\n 27498: u64 [s1 + 0x58] = a5\n 27501: a3 = u64 [s1 + 0xa0]\n 27505: u64 [a0 + 0x3a0] = a3\n 27509: a3 = u64 [s1 + 0xa8]\n 27513: u64 [a0 + 0x398] = a3\n 27517: a3 = u64 [s1 + 0xb0]\n 27521: u64 [a0 + 0x390] = a3\n 27525: a3 = u64 [s1 + 0xb8]\n 27529: u64 [a0 + 0x388] = a3\n 27533: a3 = a0 + 0x300\n 27537: u64 [a3 + 0xc0] = a2\n 27541: u64 [a3 + 0xb8] = a1\n 27545: u64 [a3 + 0xb0] = a4\n 27549: a2 = a0\n 27551: a0 = s1 + 0x2400\n 27555: a1 = s1 + 0x23e0\n 27559: u64 [a2 + 0x3a8] = a5\n 27563: ra = 1068, jump @1177\n      : @975 [@dyn 534] (gas: 12)\n 27569: a0 = u64 [s1 + 0x58]\n 27572: a1 = u64 [s1 + 0x30]\n 27575: a2 = u64 [s1 + 0x20]\n 27578: a2 = a2 | a1\n 27581: a3 = u64 [s1 + 0x28]\n 27584: a1 = a0 | a3\n 27587: a1 = a1 | a2\n 27590: a1 = a1 >> 0x20\n 27593: a2 = a2 | a3\n 27596: a2 = a2 << 0x20\n 27599: a1 = a1 | a2\n 27602: jump @1003 if a1 != 0\n      : @976 (gas: 12)\n 27606: a2 = s1 + 0x2058\n 27610: a1 = u64 [s1 + 0xc0]\n 27614: a4 = a2 + 0x300\n 27618: u64 [a4 + 0x68] = a1\n 27621: a1 = u64 [s1 + 0xd8]\n 27625: u64 [a4 + 0x70] = a1\n 27628: a1 = u64 [s1 + 0xd0]\n 27632: u64 [a4 + 0x78] = a1\n 27635: a1 = s1 + 0x23c0\n 27639: a3 = u64 [s1 + 0xc8]\n 27643: u64 [a4 + 0x80] = a3\n 27647: ra = 1070, jump @25\n      : @977 [@dyn 535] (gas: 1)\n 27653: t0 = 1072, jump @1575\n      : @978 [@dyn 536] (gas: 50)\n 27659: t0 = t2 <u a0\n 27662: a0 = u64 [s1 + 0x88]\n 27666: ra = a0 + t0\n 27669: a1 = a1 + ra\n 27672: a2 = a2 + t2\n 27675: u64 [s1 + 0x80] = a2\n 27679: a2 = a2 <u t2\n 27682: t1 = a1 + a2\n 27685: a3 = t1 ^ ra\n 27688: a5 = t1 <u ra\n 27691: a5 = a2 if a3 == 0\n 27694: a2 = u64 [s1 + 0xc8]\n 27698: a2 = a2 << 0x5\n 27701: a4 = u64 [s1 + 0xd0]\n 27705: a3 = a4 >> 0x3b\n 27708: a2 = a2 | a3\n 27711: a3 = u64 [s1 + 0xd8]\n 27715: a3 = a3 >> 0x3b\n 27718: a4 = a4 << 0x5\n 27721: a3 = a3 | a4\n 27724: a4 = ra <u a0\n 27727: a4 = t0 if t0 == 0\n 27730: a0 = u64 [s1 + 0x90]\n 27734: t0 = a0 + a4\n 27737: a0 = t0 <u a0\n 27740: a4 = u64 [s1 + 0x98]\n 27744: a4 = a4 + a0\n 27747: a1 = t0 + a3\n 27750: a2 = a2 + a4\n 27753: a0 = a1 <u t0\n 27756: a0 = a0 + a2\n 27759: a3 = a1 + a5\n 27762: a1 = a3 <u a1\n 27765: a5 = a0 + a1\n 27768: a0 = u64 [s1 + 0x18]\n 27771: a0 = u32 [a0]\n 27773: a1 = a5 <u 0x1\n 27776: a2 = a3 <u 0x1\n 27779: a2 = a1 if a5 != 0\n 27782: a1 = u64 [s1 + 0x80]\n 27786: a0 = a0 <u a1\n 27789: a0 = a0 ^ 0x1\n 27792: a1 = t1 <u 0x1\n 27795: u64 [s1 + 0x78] = t1\n 27798: a0 = a1 if t1 != 0\n 27801: u64 [s1 + 0x70] = a3\n 27804: u64 [s1 + 0x68] = a5\n 27807: a1 = a3 | a5\n 27810: a0 = a2 if a1 != 0\n 27813: jump @980 if a0 != 0\n      : @979 (gas: 1)\n 27816: jump @1159\n      : @980 (gas: 10)\n 27819: a0 = 0xffffffe0\n 27829: u64 [s1 + 0x60] = a0\n 27832: a0 = u64 [s1 + 0x58]\n 27835: u64 [s1 + 0xd0] = a0\n 27839: a0 = u64 [s1 + 0x20]\n 27842: u64 [s1 + 0xc8] = a0\n 27846: t1 = u64 [s1 + 0x28]\n 27849: a0 = u64 [s1 + 0x30]\n 27852: u64 [s1 + 0xd8] = a0\n 27856: fallthrough\n      : @981 (gas: 16)\n 27857: a0 = u64 [s1 + 0x80]\n 27861: a0 = t2 <u a0\n 27864: a2 = u64 [s1 + 0x78]\n 27867: a1 = ra ^ a2\n 27870: a2 = ra <u a2\n 27873: a2 = a0 if a1 == 0\n 27876: a0 = u64 [s1 + 0x70]\n 27879: a5 = t0 <u a0\n 27882: a3 = u64 [s1 + 0x68]\n 27885: a1 = a4 ^ a3\n 27888: a3 = a4 <u a3\n 27891: a3 = a5 if a1 == 0\n 27894: a0 = t0 ^ a0\n 27897: a0 = a0 | a1\n 27900: a3 = a2 if a0 == 0\n 27903: jump @1004 if a3 == 0\n      : @982 (gas: 8)\n 27907: a0 = t2 | t0\n 27910: a1 = ra | a4\n 27913: a0 = a0 | a1\n 27916: a0 = a0 >> 0x20\n 27919: a1 = a1 | t0\n 27922: a1 = a1 << 0x20\n 27925: a0 = a0 | a1\n 27928: jump @1003 if a0 != 0\n      : @983 (gas: 10)\n 27932: u64 [s1 + 0xa8] = t0\n 27936: u64 [s1 + 0xb0] = a4\n 27940: u64 [s1 + 0xb8] = ra\n 27944: i32 a1 = t2 + 0\n 27946: a0 = s1 + 0x4000\n 27950: i32 a0 = a0 + 0xfffffffffffffb20\n 27954: u64 [s1 + 0xa0] = t2\n 27958: u64 [s1 + 0xc0] = t1\n 27962: ecalli 1 // 'call_data_load'\n 27964: fallthrough\n      : @984 (gas: 10)\n 27965: a2 = u64 [s1 + 0xc0]\n 27969: a5 = u64 [s1 + 0xd8]\n 27973: a0 = a2 | a5\n 27976: a1 = u64 [s1 + 0x60]\n 27979: a3 = u64 [s1 + 0xd0]\n 27983: a1 = a3 <u a1\n 27986: a4 = u64 [s1 + 0xc8]\n 27990: a1 = 0 if a4 != 0\n 27992: a1 = 0 if a0 != 0\n 27994: jump @1003 if a1 == 0\n      : @985 (gas: 26)\n 27998: a1 = a3 + 0x20\n 28001: a0 = a1 <u a3\n 28004: a3 = a1\n 28006: u64 [s1 + 0x88] = a1\n 28010: a1 = a4 + a0\n 28013: u64 [s1 + 0x98] = a1\n 28017: a1 = a1 <u a4\n 28020: a1 = a0 if a0 == 0\n 28023: a4 = s1 + 0x3858\n 28027: t0 = u64 [a4 + 0x2c8]\n 28031: t2 = u64 [a4 + 0x2d0]\n 28035: a0 = u64 [a4 + 0x2d8]\n 28039: a4 = u64 [a4 + 0x2e0]\n 28043: a1 = a1 + a2\n 28046: u64 [s1 + 0x90] = a1\n 28050: a1 = a1 <u a2\n 28053: a5 = a5 + a1\n 28056: u64 [s1 + 0xd8] = a5\n 28060: a5 = s1 + 0x1858\n 28064: u64 [a5 + 0x3a0] = a4\n 28068: u64 [a5 + 0x398] = a0\n 28072: u64 [a5 + 0x390] = t2\n 28076: a1 = s1 + 0x1be0\n 28080: u64 [a5 + 0x388] = t0\n 28084: a0 = a3\n 28086: ra = 1074, jump @25\n      : @986 [@dyn 537] (gas: 19)\n 28092: a1 = u64 [s1 + 0xa0]\n 28096: a0 = a1 + 0x20\n 28099: a1 = a0 <u a1\n 28102: a3 = u64 [s1 + 0xb8]\n 28106: ra = a3 + a1\n 28109: a3 = ra <u a3\n 28112: a3 = a1 if a1 == 0\n 28115: a1 = u64 [s1 + 0xa8]\n 28119: t0 = a1 + a3\n 28122: a1 = t0 <u a1\n 28125: a4 = u64 [s1 + 0xb0]\n 28129: a4 = a4 + a1\n 28132: a1 = u64 [s1 + 0x88]\n 28136: u64 [s1 + 0xd0] = a1\n 28140: a1 = u64 [s1 + 0x98]\n 28144: u64 [s1 + 0xc8] = a1\n 28148: t1 = u64 [s1 + 0x90]\n 28152: t2 = a0\n 28154: jump @981\n      : @987 (gas: 2)\n 28157: a5 = u64 [s1 + 0x50]\n 28160: fallthrough\n      : @988 (gas: 26)\n 28161: a1 = u64 [s1 + 0xd8]\n 28165: a0 = a1 + 0x20\n 28168: a1 = a0 <u a1\n 28171: a2 = t2 + a1\n 28174: a3 = a2 <u t2\n 28177: a3 = a1 if a1 == 0\n 28180: a3 = a3 + t1\n 28183: a1 = a3 <u t1\n 28186: a4 = t0 + a1\n 28189: a1 = s1 + 0x2058\n 28193: u64 [a1 + 0x6e8] = a5\n 28197: a5 = a1 + 0x600\n 28201: u64 [a5 + 0xc8] = a0\n 28205: a0 = u64 [s1 + 0x48]\n 28208: u64 [a5 + 0xf0] = a0\n 28212: a0 = u64 [s1 + 0x40]\n 28215: u64 [a5 + 0xf8] = a0\n 28219: u64 [a5 + 0xd0] = a2\n 28223: a0 = u64 [s1 + 0x38]\n 28226: u64 [a1 + 0x700] = a0\n 28230: u64 [a5 + 0xd8] = a3\n 28234: a2 = a1\n 28236: a0 = s1 + 0x2740\n 28240: a1 = s1 + 0x2720\n 28244: u64 [a2 + 0x6e0] = a4\n 28248: ra = 1076, jump @1177\n      : @989 [@dyn 538] (gas: 3)\n 28254: a0 = s1 + 0x2700\n 28258: a1 = 0x40\n 28261: ra = 1078, jump @23\n      : @990 [@dyn 539] (gas: 27)\n 28267: a0 = s1 + 0x2058\n 28271: a3 = u64 [a0 + 0x6c0]\n 28275: u64 [s1 + 0xd8] = a3\n 28279: a2 = u64 [a0 + 0x6b8]\n 28283: u64 [s1 + 0xd0] = a2\n 28287: a4 = u64 [a0 + 0x6b0]\n 28291: u64 [s1 + 0xc8] = a4\n 28295: a5 = u64 [a0 + 0x6a8]\n 28299: u64 [s1 + 0xc0] = a5\n 28303: a1 = u64 [s1 + 0x38]\n 28306: u64 [a0 + 0x660] = a1\n 28310: a1 = u64 [s1 + 0x40]\n 28313: u64 [a0 + 0x658] = a1\n 28317: a1 = u64 [s1 + 0x48]\n 28320: u64 [a0 + 0x650] = a1\n 28324: a1 = u64 [s1 + 0x50]\n 28327: u64 [a0 + 0x648] = a1\n 28331: a1 = a0 + 0x600\n 28335: u64 [a1 + 0x80] = a3\n 28339: u64 [a1 + 0x78] = a2\n 28342: u64 [a1 + 0x70] = a4\n 28345: a3 = a0\n 28347: a0 = s1 + 0x26e0\n 28351: a1 = s1 + 0x26c0\n 28355: a2 = s1 + 0x26a0\n 28359: u64 [a3 + 0x668] = a5\n 28363: ra = 1080, jump @1187\n      : @991 [@dyn 540] (gas: 1)\n 28369: t0 = 1082, jump @1561\n      : @992 [@dyn 541] (gas: 1)\n 28375: jump @1003 if a0 != 0\n      : @993 (gas: 9)\n 28379: t0 = a3\n 28381: a1 = s1 + 0x2058\n 28385: a5 = a1 + 0x600\n 28389: a0 = u64 [a5 + 0x90]\n 28393: a3 = u64 [a5 + 0xa0]\n 28397: u64 [s1 + 0xb8] = a3\n 28401: t1 = u64 [a1 + 0x688]\n 28405: a3 = u64 [a5 + 0x98]\n 28409: jump @1001\n      : @994 (gas: 2)\n 28412: a5 = u64 [s1 + 0x50]\n 28415: fallthrough\n      : @995 (gas: 23)\n 28416: a1 = u64 [s1 + 0xd8]\n 28420: a0 = a1 + 0x20\n 28423: a1 = a0 <u a1\n 28426: a2 = t2 + a1\n 28429: a3 = a2 <u t2\n 28432: a3 = a1 if a1 == 0\n 28435: a3 = a3 + t1\n 28438: a1 = a3 <u t1\n 28441: a4 = t0 + a1\n 28444: u64 [s1 + 0x1c0] = a5\n 28448: u64 [s1 + 0x1a0] = a0\n 28452: a0 = u64 [s1 + 0x48]\n 28455: u64 [s1 + 0x1c8] = a0\n 28459: a0 = u64 [s1 + 0x40]\n 28462: u64 [s1 + 0x1d0] = a0\n 28466: u64 [s1 + 0x1a8] = a2\n 28470: a0 = u64 [s1 + 0x38]\n 28473: u64 [s1 + 0x1d8] = a0\n 28477: u64 [s1 + 0x1b0] = a3\n 28481: a0 = s1 + 0x1c0\n 28485: a1 = s1 + 0x1a0\n 28489: u64 [s1 + 0x1b8] = a4\n 28493: ra = 1084, jump @1177\n      : @996 [@dyn 542] (gas: 3)\n 28499: a0 = s1 + 0x180\n 28503: a1 = 0x40\n 28506: ra = 1086, jump @23\n      : @997 [@dyn 543] (gas: 25)\n 28512: a5 = s1 + 0x100\n 28516: a2 = u64 [a5 + 0x98]\n 28520: u64 [s1 + 0xd8] = a2\n 28524: a1 = u64 [a5 + 0x90]\n 28528: u64 [s1 + 0xd0] = a1\n 28532: a3 = u64 [a5 + 0x88]\n 28536: u64 [s1 + 0xc8] = a3\n 28540: a4 = u64 [a5 + 0x80]\n 28544: u64 [s1 + 0xc0] = a4\n 28548: a0 = u64 [s1 + 0x38]\n 28551: u64 [a5 + 0x38] = a0\n 28554: a0 = u64 [s1 + 0x40]\n 28557: u64 [a5 + 0x30] = a0\n 28560: a0 = u64 [s1 + 0x48]\n 28563: u64 [a5 + 0x28] = a0\n 28566: a0 = u64 [s1 + 0x50]\n 28569: u64 [a5 + 0x20] = a0\n 28572: u64 [a5 + 0x58] = a2\n 28575: u64 [a5 + 0x50] = a1\n 28578: u64 [a5 + 0x48] = a3\n 28581: a0 = s1 + 0x160\n 28585: a1 = s1 + 0x140\n 28589: a2 = s1 + 0x120\n 28593: u64 [a5 + 0x40] = a4\n 28596: ra = 1088, jump @1187\n      : @998 [@dyn 544] (gas: 1)\n 28602: t0 = 1090, jump @1561\n      : @999 [@dyn 545] (gas: 1)\n 28608: jump @1003 if a0 != 0\n      : @1000 (gas: 8)\n 28611: t0 = a3\n 28613: a5 = s1 + 0x100\n 28617: a0 = u64 [a5 + 0x68]\n 28620: a1 = u64 [a5 + 0x78]\n 28623: u64 [s1 + 0xb8] = a1\n 28627: t1 = u64 [s1 + 0x160]\n 28631: a3 = u64 [a5 + 0x70]\n 28634: fallthrough\n      : @1001 (gas: 26)\n 28635: t2 = a0 ^ a4\n 28638: a5 = a0 <u a4\n 28641: ra = t1 <u a2\n 28644: a5 = ra if t2 == 0\n 28647: a1 = a3 - t0\n 28650: t2 = a1 - a5\n 28653: a1 = a1 <u a5\n 28656: u64 [s1 + 0xb0] = a1\n 28660: a3 = a3 <u t0\n 28663: a5 = u64 [s1 + 0xd8]\n 28667: a1 = u64 [s1 + 0xb8]\n 28671: a5 = a1 - a5\n 28674: a5 = a5 - a3\n 28677: a1 = u64 [s1 + 0xb0]\n 28681: a5 = a5 - a1\n 28684: a0 = a0 - a4\n 28687: a0 = a0 - ra\n 28690: a1 = t1 - a2\n 28693: a0 = a0 | a5\n 28696: a3 = a1 | t2\n 28699: a3 = a3 | a0\n 28702: a0 = a0 | t2\n 28705: a3 = a3 >> 0x20\n 28708: a0 = a0 << 0x20\n 28711: a0 = a0 | a3\n 28714: jump @1003 if a0 != 0\n      : @1002 (gas: 1)\n 28717: jump @1153\n      : @1003 (gas: 1)\n 28720: trap\n      : @1004 (gas: 8)\n 28721: a1 = s1 + 0x3858\n 28725: u64 [a1 + 768] = 0\n 28729: u64 [a1 + 760] = 0\n 28733: u64 [a1 + 752] = 0\n 28737: u64 [a1 + 744] = 0x6\n 28742: a0 = s1 + 0x23a0\n 28746: a1 = s1 + 0x3b40\n 28750: ra = 1092, jump @27\n      : @1005 [@dyn 546] (gas: 15)\n 28756: a0 = s1 + 0x2058\n 28760: a1 = u64 [a0 + 0x350]\n 28764: u64 [s1 + 0xd8] = a1\n 28768: a1 = u64 [a0 + 0x348]\n 28772: u64 [s1 + 0xd0] = a1\n 28776: a0 = u32 [a0 + 0x358]\n 28780: u64 [s1 + 0xc8] = a0\n 28784: a0 = 0x301b0\n 28789: u64 [s1 + 0xc0] = a0\n 28793: i32 a0 = a0 + 0\n 28795: ra = 0x446\n 28799: ecalli 3 // 'caller'\n 28801: a2 = u64 [s1 + 0xc0]\n 28805: t0 = 0x448\n 28809: jump @1530\n      : @1006 [@dyn 547] (gas: 2)\n 28812: a2 = u64 [s1 + 0xc0]\n 28816: t0 = 1096, jump @1530\n      : @1007 [@dyn 548] (gas: 16)\n 28822: a2 = u64 [s1 + 0xc8]\n 28826: a1 = a1 ^ a2\n 28829: a2 = u64 [s1 + 0xd0]\n 28833: a0 = a0 ^ a2\n 28836: a0 = a0 | a1\n 28839: a1 = u64 [s1 + 0xd8]\n 28843: a1 = a1 ^ a3\n 28846: a0 = a0 | a1\n 28849: a0 = a0 <u 0x1\n 28852: a1 = s1 + 0x2058\n 28856: u64 [a1 + 832] = 0\n 28860: u64 [a1 + 824] = 0\n 28864: u64 [a1 + 0x328] = a0\n 28868: a0 = s1 + 0x2380\n 28872: u64 [a1 + 816] = 0\n 28876: ra = 1098, jump @1352\n      : @1008 [@dyn 549] (gas: 3)\n 28882: a0 = s1 + 0x2360\n 28886: a1 = u64 [s1 + 0x50]\n 28889: ra = 1100, jump @23\n      : @1009 [@dyn 550] (gas: 13)\n 28895: a0 = s1 + 0x2058\n 28899: a2 = a0 + 0x300\n 28903: a1 = u64 [a2 + 0x8]\n 28906: u64 [s1 + 0xd8] = a1\n 28910: a1 = u64 [a2 + 0x18]\n 28913: u64 [s1 + 0xd0] = a1\n 28917: a1 = u64 [a2 + 0x10]\n 28920: u64 [s1 + 0xc8] = a1\n 28924: a1 = u64 [a2 + 0x20]\n 28927: u64 [s1 + 0xc0] = a1\n 28931: a0 = s1 + 0x2340\n 28935: a1 = u64 [s1 + 0x58]\n 28938: ra = 1102, jump @23\n      : @1010 [@dyn 551] (gas: 18)\n 28944: a3 = s1 + 0x2058\n 28948: a0 = u64 [a3 + 0x300]\n 28952: a4 = a3 + 0x200\n 28956: a1 = u64 [a4 + 0xf0]\n 28960: a2 = u64 [a4 + 0xe8]\n 28964: a3 = u64 [a4 + 0xf8]\n 28968: a4 = u64 [s1 + 0xc0]\n 28972: a0 = a0 ^ a4\n 28975: a4 = u64 [s1 + 0xc8]\n 28979: a1 = a1 ^ a4\n 28982: a0 = a0 | a1\n 28985: a1 = u64 [s1 + 0xd0]\n 28989: a1 = a1 ^ a3\n 28992: a3 = u64 [s1 + 0xd8]\n 28996: a2 = a2 ^ a3\n 28999: a1 = a1 | a2\n 29002: a0 = a0 | a1\n 29005: jump @1076 if a0 != 0\n      : @1011 (gas: 7)\n 29009: u64 [s1 + 216] = 0\n 29013: u64 [s1 + 208] = 0\n 29017: u64 [s1 + 192] = 0\n 29021: u64 [s1 + 200] = 0\n 29025: a0 = 0xffffffff\n 29035: u64 [s1 + 0xb8] = a0\n 29039: fallthrough\n      : @1012 (gas: 3)\n 29040: a0 = s1 + 0x2280\n 29044: a1 = u64 [s1 + 0x50]\n 29047: ra = 1104, jump @23\n      : @1013 [@dyn 552] (gas: 22)\n 29053: a5 = s1 + 0x2058\n 29057: a3 = a5 + 0x200\n 29061: a0 = u64 [a3 + 0x30]\n 29064: a1 = u64 [a3 + 0x40]\n 29067: a2 = u64 [a3 + 0x28]\n 29070: t2 = u64 [a5 + 0x238]\n 29074: a3 = u64 [s1 + 0xd0]\n 29078: t1 = a3 ^ a0\n 29081: a0 = a3 <u a0\n 29084: t0 = u64 [s1 + 0xd8]\n 29088: a2 = t0 <u a2\n 29091: a2 = a0 if t1 != 0\n 29094: a4 = u64 [s1 + 0xc0]\n 29098: a0 = a4 <u t2\n 29101: t1 = u64 [s1 + 0xc8]\n 29105: ra = t1 ^ a1\n 29108: a1 = t1 <u a1\n 29111: a1 = a0 if ra == 0\n 29114: a0 = a4 ^ t2\n 29117: a0 = a0 | ra\n 29120: a1 = a2 if a0 == 0\n 29123: jump @1089 if a1 == 0\n      : @1014 (gas: 17)\n 29127: u64 [a5 + 0x1c8] = t0\n 29131: a0 = u64 [s1 + 0x50]\n 29134: a1 = a5 + 0x100\n 29138: u64 [a1 + 0xe8] = a0\n 29142: u64 [a1 + 0xd0] = a3\n 29146: a0 = u64 [s1 + 0x38]\n 29149: u64 [a1 + 0xf0] = a0\n 29153: u64 [a1 + 0xd8] = a4\n 29157: a0 = u64 [s1 + 0x40]\n 29160: u64 [a1 + 0xf8] = a0\n 29164: u64 [a5 + 0x1e0] = t1\n 29168: a0 = s1 + 0x2260\n 29172: a1 = s1 + 0x2240\n 29176: a2 = s1 + 0x2220\n 29180: a3 = u64 [s1 + 0x48]\n 29183: u64 [a5 + 0x200] = a3\n 29187: ra = 1106, jump @1393\n      : @1015 [@dyn 553] (gas: 7)\n 29193: a1 = s1 + 0x2058\n 29197: a4 = a1 + 0x200\n 29201: a0 = u64 [a4 + 0x20]\n 29204: a2 = u64 [a4 + 0x18]\n 29207: a3 = u64 [a4 + 0x10]\n 29210: a1 = u64 [a4 + 0x8]\n 29213: t0 = 1108, jump @1532\n      : @1016 [@dyn 554] (gas: 1)\n 29219: jump @1003 if a0 != 0\n      : @1017 (gas: 2)\n 29223: a0 = s1 + 0x2200\n 29227: ra = 1110, jump @23\n      : @1018 [@dyn 555] (gas: 19)\n 29233: a5 = s1 + 0x2058\n 29237: a0 = u64 [a5 + 0x1b0]\n 29241: a1 = u64 [a5 + 0x1b8]\n 29245: a2 = u64 [a5 + 0x1a8]\n 29249: a0 = a0 & 0xffffffffffffffff\n 29252: a4 = u64 [s1 + 0xb8]\n 29256: a1 = a1 & a4\n 29259: a2 = a2 & 0xffffffffffffffff\n 29262: a1 = a1 | a2\n 29265: a0 = a0 | a1\n 29268: a0 = a0 >u 0\n 29270: u64 [a5 + 416] = 0\n 29274: u64 [a5 + 408] = 0\n 29278: u64 [a5 + 0x188] = a0\n 29282: a0 = s1 + 0x21e0\n 29286: u64 [a5 + 400] = 0\n 29290: ra = 0x458\n 29294: t0 = 0x5c6\n 29298: jump @1542\n      : @1019 [@dyn 556] (gas: 23)\n 29301: a0 = u64 [s1 + 0xc8]\n 29305: a1 = s1 + 0x2058\n 29309: a2 = a1 + 0x100\n 29313: u64 [a2 + 0x40] = a0\n 29316: a0 = u64 [s1 + 0xc0]\n 29320: u64 [a2 + 0x38] = a0\n 29323: a0 = u64 [s1 + 0xd0]\n 29327: u64 [a2 + 0x30] = a0\n 29330: a0 = u64 [s1 + 0xd8]\n 29334: u64 [a2 + 0x28] = a0\n 29337: a0 = u64 [s1 + 0x30]\n 29340: u64 [a2 + 0x60] = a0\n 29343: a0 = u64 [s1 + 0x28]\n 29346: u64 [a2 + 0x58] = a0\n 29349: a0 = u64 [s1 + 0x20]\n 29352: u64 [a2 + 0x50] = a0\n 29355: a4 = a1\n 29357: a0 = s1 + 0x21c0\n 29361: a1 = s1 + 0x21a0\n 29365: a2 = s1 + 0x2180\n 29369: a3 = u64 [s1 + 0x58]\n 29372: u64 [a4 + 0x148] = a3\n 29376: ra = 1114, jump @1393\n      : @1020 [@dyn 557] (gas: 7)\n 29382: a1 = s1 + 0x2058\n 29386: a4 = a1 + 0x100\n 29390: a0 = u64 [a4 + 0x80]\n 29394: a2 = u64 [a4 + 0x78]\n 29397: a3 = u64 [a4 + 0x70]\n 29400: a1 = u64 [a4 + 0x68]\n 29403: t0 = 1116, jump @1532\n      : @1021 [@dyn 558] (gas: 1)\n 29409: jump @1003 if a0 != 0\n      : @1022 (gas: 2)\n 29413: a0 = s1 + 0x2160\n 29417: ra = 1118, jump @23\n      : @1023 [@dyn 559] (gas: 3)\n 29423: t0 = 0x460\n 29427: a1 = s1 + 0x2058\n 29431: fallthrough\n      : @1024 [@dyn 560] (gas: 30)\n 29432: a2 = a1 + 0x100\n 29436: a0 = u64 [a2 + 0x20]\n 29439: u64 [s1 + 0x90] = a0\n 29443: a0 = u64 [a2 + 0x18]\n 29446: u64 [s1 + 0x98] = a0\n 29450: a0 = u64 [a2 + 0x10]\n 29453: u64 [s1 + 0xa0] = a0\n 29457: a0 = u64 [a2 + 0x8]\n 29460: u64 [s1 + 0xa8] = a0\n 29464: a0 = u64 [s1 + 0xc8]\n 29468: u64 [a1 + 0xc0] = a0\n 29472: a0 = u64 [s1 + 0xc0]\n 29476: u64 [a1 + 0xb8] = a0\n 29480: a0 = u64 [s1 + 0xd0]\n 29484: u64 [a1 + 0xb0] = a0\n 29488: a0 = u64 [s1 + 0xd8]\n 29492: u64 [a1 + 0xa8] = a0\n 29496: a0 = u64 [s1 + 0x48]\n 29499: u64 [a1 + 0xe0] = a0\n 29503: a0 = u64 [s1 + 0x40]\n 29506: u64 [a1 + 0xd8] = a0\n 29510: a0 = u64 [s1 + 0x38]\n 29513: u64 [a1 + 0xd0] = a0\n 29517: a4 = a1\n 29519: a0 = s1 + 0x2140\n 29523: a1 = s1 + 0x2120\n 29527: a2 = s1 + 0x2100\n 29531: a3 = u64 [s1 + 0x50]\n 29534: u64 [a4 + 0xc8] = a3\n 29538: ra = 1122, jump @1393\n      : @1025 [@dyn 561] (gas: 6)\n 29544: a1 = s1 + 0x2058\n 29548: a0 = u64 [a1 + 0x100]\n 29552: a2 = u64 [a1 + 0xf8]\n 29556: a3 = u64 [a1 + 0xf0]\n 29560: a1 = u64 [a1 + 0xe8]\n 29564: t0 = 1124, jump @1532\n      : @1026 [@dyn 562] (gas: 1)\n 29570: jump @1003 if a0 != 0\n      : @1027 (gas: 2)\n 29574: a0 = s1 + 0x20e0\n 29578: ra = 1126, jump @23\n      : @1028 [@dyn 563] (gas: 15)\n 29584: a4 = s1 + 0x2058\n 29588: a0 = u64 [a4 + 0x88]\n 29592: a1 = u64 [a4 + 0x90]\n 29596: a2 = u64 [a4 + 0x98]\n 29600: a0 = a0 & 0xffffffffffffffff\n 29603: a1 = a1 & 0xffffffffffffffff\n 29606: a3 = u64 [s1 + 0xb8]\n 29610: a2 = a2 & a3\n 29613: u64 [a4 + 128] = 0\n 29617: u64 [a4 + 0x78] = a2\n 29620: u64 [a4 + 0x70] = a1\n 29623: a1 = s1 + 0x20c0\n 29627: u64 [a4 + 0x68] = a0\n 29630: a0 = 0\n 29632: ra = 1128, jump @25\n      : @1029 [@dyn 564] (gas: 9)\n 29638: a0 = s1 + 0x2058\n 29642: u64 [a0 + 96] = 0\n 29645: u64 [a0 + 88] = 0\n 29648: u64 [a0 + 80] = 0\n 29651: a3 = a0\n 29653: a0 = 0x20\n 29656: a1 = s1 + 0x20a0\n 29660: u64 [a3 + 72] = 0x4\n 29664: ra = 1130, jump @25\n      : @1030 [@dyn 565] (gas: 6)\n 29670: a0 = sp + 0xffffffffffffffe0\n 29673: a0 = a0 & 0xffffffffffffffe0\n 29676: u64 [s1 + 0xb0] = a0\n 29680: sp = a0\n 29682: a1 = i32 [0x2019c]\n 29687: jump @1032 if a1 >u 63\n      : @1031 (gas: 2)\n 29691: u32 [0x2019c] = 0x40\n 29697: fallthrough\n      : @1032 (gas: 13)\n 29698: a0 = sp + 0xffffffffffffffe0\n 29701: a2 = a0 & 0xffffffffffffffe0\n 29704: u64 [s1 + 0x88] = a2\n 29708: sp = a2\n 29710: a0 = 0x201b0\n 29715: i32 a0 = a0 + 0\n 29717: i32 a2 = a2 + 0\n 29719: a1 = 0x40\n 29722: ra = 0x46c\n 29726: ecalli 6 // 'hash_keccak_256'\n 29728: a3 = u64 [s1 + 0x88]\n 29732: t0 = 0x46e\n 29736: jump @1536\n      : @1033 [@dyn 566] (gas: 2)\n 29739: a3 = u64 [s1 + 0x88]\n 29743: t0 = 1134, jump @1536\n      : @1034 [@dyn 567] (gas: 2)\n 29749: a0 = s1 + 0x2080\n 29753: ra = 1136, jump @27\n      : @1035 [@dyn 568] (gas: 22)\n 29759: a3 = s1 + 0x2058\n 29763: t0 = u64 [a3 + 0x28]\n 29766: a0 = u64 [a3 + 0x30]\n 29769: a1 = u64 [a3 + 0x38]\n 29772: a2 = u64 [a3 + 0x40]\n 29775: a5 = s1 + 0x1858\n 29779: a4 = u64 [s1 + 0x90]\n 29783: u64 [a5 + 0x7e0] = a4\n 29787: a4 = u64 [s1 + 0x98]\n 29791: u64 [a5 + 0x7d8] = a4\n 29795: a4 = u64 [s1 + 0xa0]\n 29799: u64 [a5 + 0x7d0] = a4\n 29803: a4 = u64 [s1 + 0xa8]\n 29807: u64 [a5 + 0x7c8] = a4\n 29811: u64 [a3] = a2\n 29813: u64 [a3 + 0xfffffffffffffff8] = a1\n 29816: u64 [a3 + 0xfffffffffffffff0] = a0\n 29819: a0 = s1 + 0x2060\n 29823: a1 = s1 + 0x2040\n 29827: a2 = s1 + 0x2020\n 29831: u64 [a3 + 0xffffffffffffffe8] = t0\n 29834: ra = 1138, jump @1344\n      : @1036 [@dyn 569] (gas: 14)\n 29840: a3 = s1 + 0x2058\n 29844: a0 = u64 [a3 + 0x20]\n 29847: a1 = u64 [a3 + 0x18]\n 29850: a2 = u64 [a3 + 0x10]\n 29853: a3 = u64 [a3 + 0x8]\n 29856: a4 = s1 + 0x3858\n 29860: a5 = a4 + 0x300\n 29864: u64 [a5 + 0x20] = a0\n 29867: u64 [a5 + 0x18] = a1\n 29870: u64 [a5 + 0x10] = a2\n 29873: u64 [a5 + 0x8] = a3\n 29876: a1 = s1 + 0x3b60\n 29880: a0 = u64 [s1 + 0xb0]\n 29884: ra = 1140, jump @31\n      : @1037 [@dyn 570] (gas: 22)\n 29890: a0 = u64 [s1 + 0xc8]\n 29894: a4 = s1 + 0x1858\n 29898: a5 = a4 + 0x700\n 29902: u64 [a5 + 0x80] = a0\n 29906: a0 = u64 [s1 + 0xc0]\n 29910: u64 [a5 + 0x78] = a0\n 29913: a0 = u64 [s1 + 0xd0]\n 29917: u64 [a5 + 0x70] = a0\n 29920: a0 = u64 [s1 + 0xd8]\n 29924: u64 [a5 + 0x68] = a0\n 29927: a0 = u64 [s1 + 0x30]\n 29930: u64 [a5 + 0xa0] = a0\n 29934: a0 = u64 [s1 + 0x28]\n 29937: u64 [a5 + 0x98] = a0\n 29941: a0 = u64 [s1 + 0x20]\n 29944: u64 [a5 + 0x90] = a0\n 29948: a0 = s1 + 0x2000\n 29952: a1 = s1 + 0x1fe0\n 29956: a2 = s1 + 0x1fc0\n 29960: a3 = u64 [s1 + 0x58]\n 29963: u64 [a5 + 0x88] = a3\n 29967: ra = 1142, jump @1393\n      : @1038 [@dyn 571] (gas: 7)\n 29973: a1 = s1 + 0x1858\n 29977: a4 = a1 + 0x700\n 29981: a0 = u64 [a4 + 0xc0]\n 29985: a2 = u64 [a4 + 0xb8]\n 29989: a3 = u64 [a4 + 0xb0]\n 29993: a1 = u64 [a4 + 0xa8]\n 29997: t0 = 1144, jump @1532\n      : @1039 [@dyn 572] (gas: 1)\n 30003: jump @1003 if a0 != 0\n      : @1040 (gas: 2)\n 30007: a0 = s1 + 0x1fa0\n 30011: ra = 1146, jump @23\n      : @1041 [@dyn 573] (gas: 18)\n 30017: a1 = s1 + 0x1858\n 30021: a2 = a1 + 0x700\n 30025: a0 = u64 [a2 + 0x48]\n 30028: u64 [s1 + 0xb0] = a0\n 30032: a0 = u64 [a2 + 0x50]\n 30035: u64 [s1 + 0xa8] = a0\n 30039: a0 = u64 [a2 + 0x58]\n 30042: u64 [s1 + 0xa0] = a0\n 30046: a0 = u64 [a2 + 0x60]\n 30049: u64 [s1 + 0x98] = a0\n 30053: a1 = s1 + 0x3858\n 30057: u64 [a1 + 832] = 0\n 30061: u64 [a1 + 824] = 0\n 30065: u64 [a1 + 816] = 0\n 30069: u64 [a1 + 808] = 0x3\n 30074: a0 = s1 + 0x1f80\n 30078: a1 = s1 + 0x3b80\n 30082: ra = 1148, jump @27\n      : @1042 [@dyn 574] (gas: 22)\n 30088: a4 = s1 + 0x1858\n 30092: a3 = u64 [a4 + 0x728]\n 30096: a0 = u64 [a4 + 0x730]\n 30100: a1 = u64 [a4 + 0x738]\n 30104: a2 = u64 [a4 + 0x740]\n 30108: a5 = u64 [s1 + 0x98]\n 30112: u64 [a4 + 0x6e0] = a5\n 30116: a5 = u64 [s1 + 0xa0]\n 30120: u64 [a4 + 0x6d8] = a5\n 30124: a5 = u64 [s1 + 0xa8]\n 30128: u64 [a4 + 0x6d0] = a5\n 30132: a5 = u64 [s1 + 0xb0]\n 30136: u64 [a4 + 0x6c8] = a5\n 30140: u64 [a4 + 0x700] = a2\n 30144: a5 = a4 + 0x600\n 30148: u64 [a5 + 0xf8] = a1\n 30152: u64 [a5 + 0xf0] = a0\n 30156: a0 = s1 + 0x1f60\n 30160: a1 = s1 + 0x1f40\n 30164: a2 = s1 + 0x1f20\n 30168: u64 [a5 + 0xe8] = a3\n 30172: ra = 1150, jump @1344\n      : @1043 [@dyn 575] (gas: 19)\n 30178: a3 = s1 + 0x1858\n 30182: a4 = a3 + 0x700\n 30186: a0 = u64 [a4 + 0x8]\n 30189: a1 = u64 [a4 + 0x10]\n 30192: a2 = u64 [a4 + 0x18]\n 30195: a3 = u64 [a4 + 0x20]\n 30198: a4 = s1 + 0x3858\n 30202: u64 [a4 + 864] = 0\n 30206: u64 [a4 + 856] = 0\n 30210: u64 [a4 + 848] = 0\n 30214: u64 [a4 + 840] = 0x3\n 30219: a5 = a4 + 0x300\n 30223: u64 [a5 + 0x80] = a3\n 30227: u64 [a5 + 0x78] = a2\n 30230: u64 [a5 + 0x70] = a1\n 30233: u64 [a5 + 0x68] = a0\n 30236: a0 = s1 + 0x3ba0\n 30240: a1 = s1 + 0x3bc0\n 30244: ra = 1152, jump @31\n      : @1044 [@dyn 576] (gas: 23)\n 30250: a0 = u64 [s1 + 0xc8]\n 30254: a1 = s1 + 0x1858\n 30258: a2 = a1 + 0x600\n 30262: u64 [a2 + 0x80] = a0\n 30266: a0 = u64 [s1 + 0xc0]\n 30270: u64 [a2 + 0x78] = a0\n 30273: a0 = u64 [s1 + 0xd0]\n 30277: u64 [a2 + 0x70] = a0\n 30280: a0 = u64 [s1 + 0xd8]\n 30284: u64 [a2 + 0x68] = a0\n 30287: a0 = u64 [s1 + 0x48]\n 30290: u64 [a2 + 0xa0] = a0\n 30294: a0 = u64 [s1 + 0x40]\n 30297: u64 [a2 + 0x98] = a0\n 30301: a0 = u64 [s1 + 0x38]\n 30304: u64 [a2 + 0x90] = a0\n 30308: a4 = a1\n 30310: a0 = s1 + 0x1f00\n 30314: a1 = s1 + 0x1ee0\n 30318: a2 = s1 + 0x1ec0\n 30322: a3 = u64 [s1 + 0x50]\n 30325: u64 [a4 + 0x688] = a3\n 30329: ra = 1154, jump @1393\n      : @1045 [@dyn 577] (gas: 7)\n 30335: a1 = s1 + 0x1858\n 30339: a4 = a1 + 0x600\n 30343: a0 = u64 [a4 + 0xc0]\n 30347: a2 = u64 [a4 + 0xb8]\n 30351: a3 = u64 [a4 + 0xb0]\n 30355: a1 = u64 [a4 + 0xa8]\n 30359: t0 = 1156, jump @1532\n      : @1046 [@dyn 578] (gas: 1)\n 30365: jump @1003 if a0 != 0\n      : @1047 (gas: 2)\n 30369: a0 = s1 + 0x1ea0\n 30373: ra = 1158, jump @23\n      : @1048 [@dyn 579] (gas: 3)\n 30379: t0 = 0x488\n 30383: a1 = s1 + 0x1858\n 30387: fallthrough\n      : @1049 [@dyn 580] (gas: 29)\n 30388: a2 = a1 + 0x600\n 30392: a0 = u64 [a2 + 0x48]\n 30395: u64 [s1 + 0xb0] = a0\n 30399: a0 = u64 [a2 + 0x50]\n 30402: u64 [s1 + 0xa8] = a0\n 30406: a0 = u64 [a2 + 0x58]\n 30409: u64 [s1 + 0xa0] = a0\n 30413: a0 = u64 [s1 + 0xc8]\n 30417: u64 [a2] = a0\n 30419: a0 = u64 [s1 + 0xc0]\n 30423: a3 = a1 + 0x500\n 30427: u64 [a3 + 0xf8] = a0\n 30431: a0 = u64 [s1 + 0xd0]\n 30435: u64 [a3 + 0xf0] = a0\n 30439: a0 = u64 [s1 + 0xd8]\n 30443: u64 [a3 + 0xe8] = a0\n 30447: a0 = u64 [s1 + 0x30]\n 30450: u64 [a2 + 0x20] = a0\n 30453: a0 = u64 [s1 + 0x28]\n 30456: u64 [a2 + 0x18] = a0\n 30459: a0 = u64 [s1 + 0x20]\n 30462: u64 [a2 + 0x10] = a0\n 30465: a4 = a1\n 30467: a0 = s1 + 0x1e80\n 30471: a1 = s1 + 0x1e60\n 30475: a2 = s1 + 0x1e40\n 30479: a3 = u64 [s1 + 0x58]\n 30482: u64 [a4 + 0x608] = a3\n 30486: ra = 1162, jump @1393\n      : @1050 [@dyn 581] (gas: 7)\n 30492: a1 = s1 + 0x1858\n 30496: a4 = a1 + 0x600\n 30500: a0 = u64 [a4 + 0x40]\n 30503: a2 = u64 [a4 + 0x38]\n 30506: a3 = u64 [a4 + 0x30]\n 30509: a1 = u64 [a4 + 0x28]\n 30512: t0 = 1164, jump @1532\n      : @1051 [@dyn 582] (gas: 1)\n 30518: jump @1003 if a0 != 0\n      : @1052 (gas: 2)\n 30522: a0 = s1 + 0x1e20\n 30526: ra = 1166, jump @23\n      : @1053 [@dyn 583] (gas: 3)\n 30532: t0 = 0x490\n 30536: a1 = s1 + 0x1858\n 30540: fallthrough\n      : @1054 [@dyn 584] (gas: 12)\n 30541: a2 = a1 + 0x500\n 30545: a0 = u64 [a2 + 0xe0]\n 30549: u64 [s1 + 0x98] = a0\n 30553: a0 = u64 [a2 + 0xd8]\n 30557: u64 [s1 + 0x90] = a0\n 30561: a0 = u64 [a2 + 0xd0]\n 30565: u64 [s1 + 0x88] = a0\n 30569: a0 = u64 [a2 + 0xc8]\n 30573: u64 [s1 + 0x80] = a0\n 30577: a0 = s1 + 0x1e00\n 30581: a1 = 0x40\n 30584: ra = 1170, jump @23\n      : @1055 [@dyn 585] (gas: 7)\n 30590: a4 = s1 + 0x1858\n 30594: a5 = a4 + 0x500\n 30598: a0 = u64 [a5 + 0xc0]\n 30602: a1 = u64 [a5 + 0xb8]\n 30606: a2 = u64 [a5 + 0xb0]\n 30610: a3 = u64 [a5 + 0xa8]\n 30614: t0 = 1172, jump @1566\n      : @1056 [@dyn 586] (gas: 1)\n 30620: jump @1003 if a0 != 0\n      : @1057 (gas: 1)\n 30624: t0 = 1174, jump @1567\n      : @1058 [@dyn 587] (gas: 12)\n 30630: a2 = a4 + 0x500\n 30634: u64 [a2 + 0x88] = a0\n 30638: a0 = u64 [s1 + 0x88]\n 30642: u64 [a2 + 0x90] = a0\n 30646: a0 = u64 [s1 + 0x90]\n 30650: u64 [a2 + 0x98] = a0\n 30654: a1 = s1 + 0x1de0\n 30658: a0 = u64 [s1 + 0x98]\n 30662: u64 [a2 + 0xa0] = a0\n 30666: a0 = a3\n 30668: u64 [s1 + 0xb0] = a3\n 30672: ra = 1176, jump @25\n      : @1059 [@dyn 588] (gas: 22)\n 30678: a4 = s1 + 0x1858\n 30682: a0 = u64 [s1 + 0x78]\n 30685: a5 = a4 + 0x500\n 30689: u64 [a5 + 0x58] = a0\n 30692: a0 = u64 [s1 + 0xa0]\n 30696: u64 [a5 + 0x50] = a0\n 30699: a0 = u64 [s1 + 0xa8]\n 30703: u64 [a5 + 0x48] = a0\n 30706: a0 = u64 [0x200a8]\n 30711: a1 = u64 [0x200b0]\n 30716: a2 = u64 [0x200b8]\n 30721: a3 = u64 [0x200c0]\n 30726: u64 [a5 + 0x80] = a0\n 30730: u64 [a5 + 0x78] = a1\n 30733: u64 [a5 + 0x70] = a2\n 30736: u64 [a5 + 0x68] = a3\n 30739: a1 = 0x20\n 30742: a2 = s1 + 0x1dc0\n 30746: a3 = s1 + 0x1da0\n 30750: u64 [a4 + 1376] = 0\n 30754: a0 = u64 [s1 + 0xb0]\n 30758: ra = 1178, jump @32\n      : @1060 [@dyn 589] (gas: 3)\n 30764: t0 = 0x49c\n 30768: a1 = s1 + 0x1858\n 30772: fallthrough\n      : @1061 [@dyn 590] (gas: 23)\n 30773: a0 = u64 [s1 + 0xc8]\n 30777: a2 = a1 + 0x500\n 30781: u64 [a2] = a0\n 30783: a0 = u64 [s1 + 0xc0]\n 30787: a3 = a1 + 0x400\n 30791: u64 [a3 + 0xf8] = a0\n 30795: a0 = u64 [s1 + 0xd0]\n 30799: u64 [a3 + 0xf0] = a0\n 30803: a0 = u64 [s1 + 0xd8]\n 30807: u64 [a3 + 0xe8] = a0\n 30811: a0 = u64 [s1 + 0x48]\n 30814: u64 [a2 + 0x20] = a0\n 30817: a0 = u64 [s1 + 0x40]\n 30820: u64 [a2 + 0x18] = a0\n 30823: a0 = u64 [s1 + 0x38]\n 30826: u64 [a2 + 0x10] = a0\n 30829: a4 = a1\n 30831: a0 = s1 + 0x1d80\n 30835: a1 = s1 + 0x1d60\n 30839: a2 = s1 + 0x1d40\n 30843: a3 = u64 [s1 + 0x50]\n 30846: u64 [a4 + 0x508] = a3\n 30850: ra = 1182, jump @1393\n      : @1062 [@dyn 591] (gas: 7)\n 30856: a1 = s1 + 0x1858\n 30860: a4 = a1 + 0x500\n 30864: a0 = u64 [a4 + 0x40]\n 30867: a2 = u64 [a4 + 0x38]\n 30870: a3 = u64 [a4 + 0x30]\n 30873: a1 = u64 [a4 + 0x28]\n 30876: t0 = 1184, jump @1532\n      : @1063 [@dyn 592] (gas: 1)\n 30882: jump @1003 if a0 != 0\n      : @1064 (gas: 2)\n 30886: a0 = s1 + 0x1d20\n 30890: ra = 1186, jump @23\n      : @1065 [@dyn 593] (gas: 29)\n 30896: a1 = s1 + 0x1858\n 30900: a2 = a1 + 0x400\n 30904: a0 = u64 [a2 + 0xc8]\n 30908: u64 [s1 + 0xb0] = a0\n 30912: a0 = u64 [a2 + 0xd0]\n 30916: u64 [s1 + 0xa8] = a0\n 30920: a0 = u64 [a2 + 0xd8]\n 30924: u64 [s1 + 0xa0] = a0\n 30928: a0 = u64 [s1 + 0xc8]\n 30932: u64 [a2 + 0x80] = a0\n 30936: a0 = u64 [s1 + 0xc0]\n 30940: u64 [a2 + 0x78] = a0\n 30943: a0 = u64 [s1 + 0xd0]\n 30947: u64 [a2 + 0x70] = a0\n 30950: a0 = u64 [s1 + 0xd8]\n 30954: u64 [a2 + 0x68] = a0\n 30957: a0 = u64 [s1 + 0x30]\n 30960: u64 [a2 + 0xa0] = a0\n 30964: a0 = u64 [s1 + 0x28]\n 30967: u64 [a2 + 0x98] = a0\n 30971: a0 = u64 [s1 + 0x20]\n 30974: u64 [a2 + 0x90] = a0\n 30978: a4 = a1\n 30980: a0 = s1 + 0x1d00\n 30984: a1 = s1 + 0x1ce0\n 30988: a2 = s1 + 0x1cc0\n 30992: a3 = u64 [s1 + 0x58]\n 30995: u64 [a4 + 0x488] = a3\n 30999: ra = 1188, jump @1393\n      : @1066 [@dyn 594] (gas: 7)\n 31005: a1 = s1 + 0x1858\n 31009: a4 = a1 + 0x400\n 31013: a0 = u64 [a4 + 0xc0]\n 31017: a2 = u64 [a4 + 0xb8]\n 31021: a3 = u64 [a4 + 0xb0]\n 31025: a1 = u64 [a4 + 0xa8]\n 31029: t0 = 1190, jump @1532\n      : @1067 [@dyn 595] (gas: 1)\n 31035: jump @1003 if a0 != 0\n      : @1068 (gas: 2)\n 31039: a0 = s1 + 0x1ca0\n 31043: ra = 1192, jump @23\n      : @1069 [@dyn 596] (gas: 13)\n 31049: a1 = s1 + 0x1858\n 31053: a2 = a1 + 0x400\n 31057: a0 = u64 [a2 + 0x60]\n 31060: u64 [s1 + 0x98] = a0\n 31064: a0 = u64 [a2 + 0x58]\n 31067: u64 [s1 + 0x90] = a0\n 31071: a0 = u64 [a2 + 0x50]\n 31074: u64 [s1 + 0x88] = a0\n 31078: a0 = u64 [a2 + 0x48]\n 31081: u64 [s1 + 0x80] = a0\n 31085: a0 = s1 + 0x1c80\n 31089: a1 = 0x40\n 31092: ra = 1194, jump @23\n      : @1070 [@dyn 597] (gas: 7)\n 31098: a4 = s1 + 0x1858\n 31102: a5 = a4 + 0x400\n 31106: a0 = u64 [a5 + 0x40]\n 31109: a1 = u64 [a5 + 0x38]\n 31112: a2 = u64 [a5 + 0x30]\n 31115: a3 = u64 [a5 + 0x28]\n 31118: t0 = 1196, jump @1566\n      : @1071 [@dyn 598] (gas: 1)\n 31124: jump @1003 if a0 != 0\n      : @1072 (gas: 1)\n 31128: t0 = 1198, jump @1567\n      : @1073 [@dyn 599] (gas: 12)\n 31134: a2 = a4 + 0x400\n 31138: u64 [a2 + 0x8] = a0\n 31141: a0 = u64 [s1 + 0x88]\n 31145: u64 [a2 + 0x10] = a0\n 31148: a0 = u64 [s1 + 0x90]\n 31152: u64 [a2 + 0x18] = a0\n 31155: a1 = s1 + 0x1c60\n 31159: a0 = u64 [s1 + 0x98]\n 31163: u64 [a2 + 0x20] = a0\n 31166: a0 = a3\n 31168: u64 [s1 + 0xb0] = a3\n 31172: ra = 1200, jump @25\n      : @1074 [@dyn 600] (gas: 27)\n 31178: a5 = s1 + 0x1858\n 31182: u64 [a5 + 960] = 0\n 31186: a0 = u64 [s1 + 0x78]\n 31189: a4 = a5 + 0x300\n 31193: u64 [a4 + 0xb8] = a0\n 31197: a0 = u64 [s1 + 0xa0]\n 31201: u64 [a4 + 0xb0] = a0\n 31205: a0 = u64 [s1 + 0xa8]\n 31209: u64 [a4 + 0xa8] = a0\n 31213: u64 [a5 + 992] = 0\n 31217: u64 [a5 + 984] = 0\n 31221: u64 [a5 + 976] = 0\n 31225: a0 = u64 [0x20030]\n 31230: a1 = u64 [0x20038]\n 31235: a2 = u64 [0x20040]\n 31240: a3 = u64 [0x20048]\n 31245: u64 [a5 + 0x400] = a0\n 31249: u64 [a4 + 0xf8] = a1\n 31253: u64 [a4 + 0xf0] = a2\n 31257: u64 [a4 + 0xe8] = a3\n 31261: a1 = 0x20\n 31264: a2 = s1 + 0x1c40\n 31268: a3 = s1 + 0x1c20\n 31272: a4 = s1 + 0x1c00\n 31276: u64 [a5 + 968] = 0\n 31280: a0 = u64 [s1 + 0xb0]\n 31284: ra = 1202, jump @34\n      : @1075 [@dyn 601] (gas: 17)\n 31290: a1 = u64 [s1 + 0xd8]\n 31294: a1 = a1 + 0x1\n 31297: a0 = a1 <u 0x1\n 31300: a2 = u64 [s1 + 0xd0]\n 31304: a2 = a2 + a0\n 31307: u64 [s1 + 0xd8] = a1\n 31311: u64 [s1 + 0xd0] = a2\n 31315: a0 = a1 | a2\n 31318: a0 = a0 <u 0x1\n 31321: a1 = u64 [s1 + 0xc0]\n 31325: a0 = a0 + a1\n 31328: a1 = a0 <u a1\n 31331: a2 = u64 [s1 + 0xc8]\n 31335: a2 = a2 + a1\n 31338: u64 [s1 + 0xc8] = a2\n 31342: u64 [s1 + 0xc0] = a0\n 31346: jump @1012\n      : @1076 (gas: 3)\n 31349: a0 = s1 + 0x2320\n 31353: a1 = 0x40\n 31356: ra = 1204, jump @23\n      : @1077 [@dyn 602] (gas: 16)\n 31362: a2 = s1 + 0x2058\n 31366: a5 = a2 + 0x200\n 31370: a3 = u64 [a5 + 0xe0]\n 31374: a4 = u64 [a5 + 0xd8]\n 31378: a0 = u64 [a5 + 0xd0]\n 31382: a1 = u64 [a5 + 0xc8]\n 31386: u64 [s1 + 0xd0] = a0\n 31390: a0 = a0 | a3\n 31393: u64 [s1 + 0xd8] = a1\n 31397: a1 = a1 | a4\n 31400: a1 = a1 | a0\n 31403: a1 = a1 >> 0x20\n 31406: a0 = a0 | a4\n 31409: a0 = a0 << 0x20\n 31412: a0 = a0 | a1\n 31415: jump @1003 if a0 != 0\n      : @1078 (gas: 10)\n 31419: u64 [a2 + 696] = 0\n 31423: u64 [a2 + 688] = 0\n 31427: u64 [a2 + 680] = 0\n 31431: a0 = 0x8c379a000000000\n 31441: a1 = s1 + 0x2300\n 31445: u64 [a2 + 0x2c0] = a0\n 31449: a0 = u64 [s1 + 0xd8]\n 31453: u64 [s1 + 0xc8] = a3\n 31457: u64 [s1 + 0xc0] = a4\n 31461: ra = 1206, jump @25\n      : @1079 [@dyn 603] (gas: 12)\n 31467: a0 = u64 [s1 + 0xc8]\n 31471: a2 = u64 [s1 + 0xc0]\n 31475: a2 = a2 | a0\n 31478: a3 = 0x100000000\n 31488: a0 = 0xfffffffc\n 31498: a1 = u64 [s1 + 0xd8]\n 31502: a0 = a1 <u a0\n 31505: a1 = u64 [s1 + 0xd0]\n 31509: a0 = 0 if a1 != 0\n 31511: u64 [s1 + 0xc8] = a2\n 31515: a0 = 0 if a2 != 0\n 31517: jump @1003 if a0 == 0\n      : @1080 (gas: 10)\n 31521: a0 = u64 [s1 + 0xd8]\n 31525: i32 a0 = a0 + 0x4\n 31528: a2 = s1 + 0x2058\n 31532: u64 [a2 + 672] = 0\n 31536: u64 [a2 + 664] = 0\n 31540: u64 [a2 + 648] = 0x20\n 31545: a1 = s1 + 0x22e0\n 31549: u64 [a2 + 656] = 0\n 31553: u64 [s1 + 0xc0] = a3\n 31557: ra = 1208, jump @25\n      : @1081 [@dyn 604] (gas: 9)\n 31563: a0 = u64 [s1 + 0xc0]\n 31567: a0 = a0 + 0xffffffffffffffdc\n 31570: a1 = u64 [s1 + 0xd8]\n 31574: a0 = a1 <u a0\n 31577: a1 = u64 [s1 + 0xd0]\n 31581: a0 = 0 if a1 != 0\n 31583: a1 = u64 [s1 + 0xc8]\n 31587: a0 = 0 if a1 != 0\n 31589: jump @1003 if a0 == 0\n      : @1082 (gas: 9)\n 31593: a0 = u64 [s1 + 0xd8]\n 31597: i32 a0 = a0 + 0x24\n 31600: a2 = s1 + 0x2058\n 31604: u64 [a2 + 640] = 0\n 31608: u64 [a2 + 632] = 0\n 31612: u64 [a2 + 616] = 0x16\n 31617: a1 = s1 + 0x22c0\n 31621: u64 [a2 + 624] = 0\n 31625: ra = 1210, jump @25\n      : @1083 [@dyn 605] (gas: 8)\n 31631: a0 = 0xffffffbc\n 31641: a1 = u64 [s1 + 0xd8]\n 31645: a0 = a1 <u a0\n 31648: a1 = u64 [s1 + 0xd0]\n 31652: a0 = 0 if a1 != 0\n 31654: a1 = u64 [s1 + 0xc8]\n 31658: a0 = 0 if a1 != 0\n 31660: jump @1003 if a0 == 0\n      : @1084 (gas: 13)\n 31664: a0 = u64 [s1 + 0xd8]\n 31668: i32 a0 = a0 + 0x44\n 31671: a1 = u64 [0x20090]\n 31676: a2 = u64 [0x20098]\n 31681: a3 = u64 [0x200a0]\n 31686: a4 = s1 + 0x2058\n 31690: a5 = a4 + 0x200\n 31694: u64 [a5 + 0x60] = a1\n 31697: u64 [a5 + 0x58] = a2\n 31700: u64 [a5 + 0x50] = a3\n 31703: a1 = s1 + 0x22a0\n 31707: u64 [a4 + 584] = 0\n 31711: ra = 1212, jump @25\n      : @1085 [@dyn 606] (gas: 3)\n 31717: a1 = 0x64\n 31720: a0 = u64 [s1 + 0xd8]\n 31724: ra = 1214, jump @38\n      : @1086 [@dyn 607] (gas: 5)\n 31730: i32 a1 = a0 + 0\n 31732: a0 = 0x1\n 31735: a2 = 0x64\n 31738: ecalli 7 // 'seal_return'\n 31740: fallthrough\n      : @1087 (gas: 6)\n 31741: a1 = 0x201b0\n 31746: i32 a1 = a1 + 0\n 31748: a0 = 0x1\n 31751: a2 = 0\n 31753: ecalli 7 // 'seal_return'\n 31755: jump @1089\n      : @1088 (gas: 5)\n 31757: i32 a1 = a1 + 0\n 31759: a0 = 0x1\n 31762: a2 = 0\n 31764: ecalli 7 // 'seal_return'\n 31766: fallthrough\n      : @1089 (gas: 6)\n 31767: a1 = 0x201b0\n 31772: i32 a1 = a1 + 0\n 31774: a0 = 0\n 31776: a2 = 0\n 31778: ecalli 7 // 'seal_return'\n 31780: jump @1089\n      : @1090 (gas: 2)\n 31782: a1 = 0x201b0\n 31787: jump @1088\n      : @1091 (gas: 2)\n 31789: a1 = 0x201b0\n 31794: jump @1088\n      : @1092 (gas: 2)\n 31796: a1 = 0x201b0\n 31801: jump @1088\n      : @1093 (gas: 2)\n 31803: a1 = 0x201b0\n 31808: jump @1088\n      : @1094 (gas: 2)\n 31810: a1 = 0x201b0\n 31815: jump @1088\n      : @1095 (gas: 2)\n 31817: a1 = 0x201b0\n 31822: jump @1088\n      : @1096 (gas: 9)\n 31824: a2 = s1 + 0x2058\n 31828: u64 [a2 + 1592] = 0\n 31832: u64 [a2 + 1584] = 0\n 31836: u64 [a2 + 1576] = 0\n 31840: a0 = 0x4e487b7100000000\n 31850: a1 = s1 + 0x2680\n 31854: u64 [a2 + 0x640] = a0\n 31858: a0 = 0\n 31860: ra = 1216, jump @25\n      : @1097 [@dyn 608] (gas: 3)\n 31866: t0 = 0x4c2\n 31870: a1 = s1 + 0x2058\n 31874: fallthrough\n      : @1098 [@dyn 609] (gas: 8)\n 31875: u64 [a1 + 1568] = 0\n 31879: u64 [a1 + 1560] = 0\n 31883: u64 [a1 + 1544] = 0x22\n 31888: a2 = a1\n 31890: a0 = 0x4\n 31893: a1 = s1 + 0x2660\n 31897: u64 [a2 + 1552] = 0\n 31901: ra = 1220, jump @25\n      : @1099 [@dyn 610] (gas: 2)\n 31907: a1 = i32 [0x2019c]\n 31912: jump @1101 if a1 >u 63\n      : @1100 (gas: 3)\n 31916: u32 [0x2019c] = 0x40\n 31922: a1 = 0x201b0\n 31927: jump @1126\n      : @1101 (gas: 2)\n 31930: a1 = 0x201b0\n 31935: jump @1126\n      : @1102 (gas: 2)\n 31938: a1 = 0x201b0\n 31943: jump @1088\n      : @1103 (gas: 2)\n 31946: a1 = 0x201b0\n 31951: jump @1088\n      : @1104 (gas: 2)\n 31954: a1 = 0x201b0\n 31959: jump @1088\n      : @1105 (gas: 2)\n 31962: a1 = 0x201b0\n 31967: jump @1088\n      : @1106 (gas: 6)\n 31970: u64 [s1 + 272] = 0\n 31974: u64 [s1 + 264] = 0\n 31978: u64 [s1 + 256] = 0\n 31982: t0 = 0x4c6\n 31986: a0 = 0x4e487b7100000000\n 31996: fallthrough\n      : @1107 [@dyn 611] (gas: 4)\n 31997: a1 = s1 + 0x100\n 32001: u64 [s1 + 0x118] = a0\n 32005: a0 = 0\n 32007: ra = 1224, jump @25\n      : @1108 [@dyn 612] (gas: 7)\n 32013: u64 [s1 + 248] = 0\n 32017: u64 [s1 + 240] = 0\n 32021: u64 [s1 + 224] = 0x22\n 32026: a0 = 0x4\n 32029: a1 = s1 + 0xe0\n 32033: u64 [s1 + 232] = 0\n 32037: ra = 1226, jump @25\n      : @1109 [@dyn 613] (gas: 2)\n 32043: a1 = i32 [0x2019c]\n 32048: jump @1111 if a1 >u 63\n      : @1110 (gas: 3)\n 32052: u32 [0x2019c] = 0x40\n 32058: a1 = 0x201b0\n 32063: jump @1126\n      : @1111 (gas: 2)\n 32066: a1 = 0x201b0\n 32071: jump @1126\n      : @1112 (gas: 2)\n 32074: a1 = 0x201b0\n 32079: jump @1088\n      : @1113 (gas: 2)\n 32082: a1 = 0x201b0\n 32087: jump @1088\n      : @1114 (gas: 2)\n 32090: a1 = 0x201b0\n 32095: jump @1088\n      : @1115 (gas: 2)\n 32098: a1 = 0x201b0\n 32103: jump @1088\n      : @1116 (gas: 2)\n 32106: a1 = 0x201b0\n 32111: jump @1088\n      : @1117 (gas: 2)\n 32114: a1 = 0x201b0\n 32119: jump @1088\n      : @1118 (gas: 2)\n 32122: a1 = 0x201b0\n 32127: jump @1088\n      : @1119 (gas: 2)\n 32130: a1 = 0x201b0\n 32135: jump @1088\n      : @1120 (gas: 10)\n 32138: a0 = s1 + 0x1058\n 32142: u64 [a0 + 2040] = 0\n 32146: u64 [a0 + 2032] = 0\n 32150: u64 [a0 + 2024] = 0\n 32154: a0 = 0x4e487b7100000000\n 32164: a1 = s1 + 0x1840\n 32168: a2 = s1 + 0x1858\n 32172: u64 [a2] = a0\n 32174: a0 = 0\n 32176: ra = 1228, jump @25\n      : @1121 [@dyn 614] (gas: 3)\n 32182: t0 = 0x4ce\n 32186: a1 = s1 + 0x1058\n 32190: fallthrough\n      : @1122 [@dyn 615] (gas: 8)\n 32191: u64 [a1 + 2016] = 0\n 32195: u64 [a1 + 2008] = 0\n 32199: u64 [a1 + 1992] = 0x11\n 32204: a2 = a1\n 32206: a0 = 0x4\n 32209: a1 = s1 + 0x1820\n 32213: u64 [a2 + 2000] = 0\n 32217: ra = 1232, jump @25\n      : @1123 [@dyn 616] (gas: 2)\n 32223: a1 = i32 [0x2019c]\n 32228: jump @1125 if a1 >u 63\n      : @1124 (gas: 3)\n 32232: u32 [0x2019c] = 0x40\n 32238: a1 = 0x201b0\n 32243: jump @1126\n      : @1125 (gas: 2)\n 32245: a1 = 0x201b0\n 32250: fallthrough\n      : @1126 (gas: 6)\n 32251: i32 a1 = a1 + 0\n 32253: a0 = 0x1\n 32256: a2 = 0x24\n 32259: ecalli 7 // 'seal_return'\n 32261: a1 = 0x201b0\n 32266: jump @1088\n      : @1127 (gas: 2)\n 32269: a1 = 0x201b0\n 32274: jump @1088\n      : @1128 (gas: 2)\n 32277: a1 = 0x201b0\n 32282: jump @1088\n      : @1129 (gas: 2)\n 32285: a1 = 0x201b0\n 32290: jump @1088\n      : @1130 (gas: 2)\n 32293: a1 = 0x201b0\n 32298: jump @1088\n      : @1131 (gas: 2)\n 32301: a1 = 0x201b0\n 32306: jump @1088\n      : @1132 (gas: 2)\n 32309: a1 = 0x201b0\n 32314: jump @1088\n      : @1133 (gas: 1)\n 32317: jump @1137 if a0 != 4076725131\n      : @1134 (gas: 9)\n 32324: a0 = s1 + 0x3858\n 32328: u64 [a0 + 1472] = 0\n 32332: u64 [a0 + 1464] = 0\n 32336: u64 [a0 + 1456] = 0\n 32340: u64 [a0 + 1448] = 0\n 32344: a0 = s1 + 0x4000\n 32348: i32 a0 = a0 + 0xfffffffffffffe00\n 32352: ecalli 10 // 'value_transferred'\n 32354: fallthrough\n      : @1135 (gas: 10)\n 32355: a3 = s1 + 0x3858\n 32359: a4 = a3 + 0x500\n 32363: a0 = u64 [a4 + 0xb8]\n 32367: a1 = u64 [a4 + 0xc0]\n 32371: a2 = u64 [a4 + 0xb0]\n 32375: a3 = u64 [a4 + 0xa8]\n 32379: a1 = a1 | a2\n 32382: a0 = a0 | a3\n 32385: a0 = a0 | a1\n 32388: jump @1155 if a0 == 0\n      : @1136 (gas: 2)\n 32392: a1 = 0x201b0\n 32397: jump @1088\n      : @1137 (gas: 2)\n 32400: a1 = 0x201b0\n 32405: jump @1088\n      : @1138 (gas: 2)\n 32408: a1 = 0x201b0\n 32413: jump @1088\n      : @1139 (gas: 2)\n 32416: a1 = 0x201b0\n 32421: jump @1088\n      : @1140 (gas: 2)\n 32424: a1 = 0x201b0\n 32429: jump @1088\n      : @1141 (gas: 2)\n 32432: a1 = 0x201b0\n 32437: jump @1088\n      : @1142 (gas: 2)\n 32440: a1 = 0x201b0\n 32445: jump @1088\n      : @1143 (gas: 2)\n 32448: a1 = 0x201b0\n 32453: jump @1088\n      : @1144 (gas: 2)\n 32456: a1 = 0x201b0\n 32461: jump @1088\n      : @1145 (gas: 2)\n 32464: a1 = 0x201b0\n 32469: jump @1088\n      : @1146 (gas: 2)\n 32472: a1 = 0x201b0\n 32477: jump @1088\n      : @1147 (gas: 2)\n 32480: a1 = 0x201b0\n 32485: jump @1088\n      : @1148 (gas: 2)\n 32488: a1 = 0x201b0\n 32493: jump @1088\n      : @1149 (gas: 2)\n 32496: a1 = 0x201b0\n 32501: jump @1088\n      : @1150 (gas: 2)\n 32504: a1 = 0x201b0\n 32509: jump @1088\n      : @1151 (gas: 2)\n 32512: a1 = 0x201b0\n 32517: jump @1088\n      : @1152 (gas: 2)\n 32520: a1 = 0x201b0\n 32525: jump @1088\n      : @1153 (gas: 3)\n 32528: a0 = a2\n 32530: u64 [s1 + 0xd8] = a1\n 32534: ra = 1234, jump @38\n      : @1154 [@dyn 617] (gas: 5)\n 32540: i32 a1 = a0 + 0\n 32542: a2 = i32 [s1 + 0xd8]\n 32546: a0 = 0\n 32548: ecalli 7 // 'seal_return'\n 32550: jump @945\n      : @1155 (gas: 4)\n 32553: a0 = u64 [s1 + 0x18]\n 32556: a0 = i32 [a0]\n 32558: a1 = 0x23\n 32561: jump @1160 if a1 <u a0\n      : @1156 (gas: 2)\n 32564: a1 = 0x201b0\n 32569: jump @1088\n      : @1157 (gas: 2)\n 32572: a1 = 0x201b0\n 32577: jump @1088\n      : @1158 (gas: 2)\n 32580: a1 = 0x201b0\n 32585: jump @1088\n      : @1159 (gas: 2)\n 32588: a1 = 0x201b0\n 32593: jump @1088\n      : @1160 (gas: 4)\n 32596: a0 = s1 + 0x34e0\n 32600: ra = 0x4d4\n 32604: t0 = 0x504\n 32608: jump @1574\n      : @1161 [@dyn 618] (gas: 15)\n 32611: a1 = s1 + 0x3058\n 32615: a0 = u64 [a1 + 0x490]\n 32619: u64 [s1 + 0xd8] = a0\n 32623: a0 = u64 [a1 + 0x488]\n 32627: u64 [s1 + 0xd0] = a0\n 32631: a0 = u32 [a1 + 0x498]\n 32635: u64 [s1 + 0xc8] = a0\n 32639: a1 = s1 + 0x3858\n 32643: u64 [a1 + 1504] = 0\n 32647: u64 [a1 + 1496] = 0\n 32651: u64 [a1 + 1488] = 0\n 32655: u64 [a1 + 1480] = 0x6\n 32660: a0 = s1 + 0x34c0\n 32664: a1 = s1 + 0x3e20\n 32668: ra = 1238, jump @27\n      : @1162 [@dyn 619] (gas: 18)\n 32674: a0 = s1 + 0x3058\n 32678: a2 = a0 + 0x400\n 32682: a1 = u64 [a2 + 0x80]\n 32686: u64 [s1 + 0xb8] = a1\n 32690: a1 = u64 [a2 + 0x70]\n 32693: u64 [s1 + 0xb0] = a1\n 32697: a1 = u64 [a2 + 0x68]\n 32700: u64 [s1 + 0xa8] = a1\n 32704: a1 = u64 [a2 + 0x78]\n 32707: u64 [s1 + 0xc0] = a1\n 32711: a0 = 0x301b0\n 32716: u64 [s1 + 0xa0] = a0\n 32720: i32 a0 = a0 + 0\n 32722: ra = 0x4d8\n 32726: ecalli 3 // 'caller'\n 32728: a2 = u64 [s1 + 0xa0]\n 32732: t0 = 0x4da\n 32736: jump @1530\n      : @1163 [@dyn 620] (gas: 2)\n 32739: a2 = u64 [s1 + 0xa0]\n 32743: t0 = 1242, jump @1530\n      : @1164 [@dyn 621] (gas: 18)\n 32749: a2 = u64 [s1 + 0xc0]\n 32753: a2 = a2 << 0x20\n 32756: a2 = a2 >> 0x20\n 32759: a1 = a1 ^ a2\n 32762: a2 = u64 [s1 + 0xa8]\n 32766: a0 = a0 ^ a2\n 32769: a0 = a0 | a1\n 32772: a1 = u64 [s1 + 0xb0]\n 32776: a1 = a1 ^ a3\n 32779: a0 = a0 | a1\n 32782: a0 = a0 <u 0x1\n 32785: a1 = s1 + 0x3058\n 32789: u64 [a1 + 1120] = 0\n 32793: u64 [a1 + 1112] = 0\n 32797: u64 [a1 + 0x448] = a0\n 32801: a0 = s1 + 0x34a0\n 32805: u64 [a1 + 1104] = 0\n 32809: ra = 1244, jump @1352\n      : @1165 [@dyn 622] (gas: 15)\n 32815: a0 = u64 [s1 + 0xd0]\n 32819: a1 = u64 [s1 + 0xc8]\n 32823: a0 = a0 | a1\n 32826: a1 = u64 [s1 + 0xd8]\n 32830: a0 = a0 | a1\n 32833: a0 = a0 >u 0\n 32835: a1 = s1 + 0x3058\n 32839: u64 [a1 + 1088] = 0\n 32843: u64 [a1 + 1080] = 0\n 32847: u64 [a1 + 0x428] = a0\n 32851: a0 = s1 + 0x3480\n 32855: u64 [a1 + 1072] = 0\n 32859: ra = 0x4de\n 32863: t0 = 0x582\n 32867: jump @1542\n      : @1166 [@dyn 623] (gas: 21)\n 32870: a0 = u64 [s1 + 0xc0]\n 32874: a0 = a0 >> 0x20\n 32877: a0 = a0 << 0x20\n 32880: a1 = u64 [s1 + 0xc8]\n 32884: a0 = a0 | a1\n 32887: a1 = s1 + 0x3858\n 32891: u64 [a1 + 1536] = 0\n 32895: u64 [a1 + 1528] = 0\n 32899: u64 [a1 + 1520] = 0\n 32903: u64 [a1 + 1512] = 0x6\n 32908: a2 = u64 [s1 + 0xb8]\n 32912: a3 = a1 + 0x600\n 32916: u64 [a3 + 0x20] = a2\n 32919: u64 [a3 + 0x18] = a0\n 32922: a0 = u64 [s1 + 0xd8]\n 32926: u64 [a3 + 0x10] = a0\n 32929: a0 = u64 [s1 + 0xd0]\n 32933: u64 [a3 + 0x8] = a0\n 32936: a0 = s1 + 0x3e40\n 32940: a1 = s1 + 0x3e60\n 32944: ra = 1248, jump @31\n      : @1167 [@dyn 624] (gas: 6)\n 32950: a1 = 0x201b0\n 32955: i32 a1 = a1 + 0\n 32957: a0 = 0\n 32959: a2 = 0\n 32961: ecalli 7 // 'seal_return'\n 32963: jump @1089\n      : @1168 (gas: 33)\n 32966: sp = sp + 0xffffffffffffffa0\n 32969: u64 [sp + 0x58] = ra\n 32972: u64 [sp + 0x50] = s0\n 32975: u64 [sp + 0x48] = s1\n 32978: s0 = sp + 0x60\n 32981: sp = sp & 0xfffffffffffffff0\n 32984: a2 = u64 [a1 + 0x10]\n 32987: a5 = u64 [a1 + 0x8]\n 32990: a4 = u64 [a1]\n 32992: a1 = u64 [a1 + 0x18]\n 32995: t0 = a2 << 0x3f\n 32998: a3 = a5 >> 0x1\n 33001: t0 = a3 | t0\n 33004: a3 = a1 << 0x3f\n 33007: a2 = a2 >> 0x1\n 33010: a3 = a3 | a2\n 33013: a5 = a5 << 0x3f\n 33016: a2 = a4 >> 0x1\n 33019: a5 = a5 | a2\n 33022: t1 = a1 >> 0x1\n 33025: a4 = a4 & 0x1\n 33028: a1 = -a4\n 33030: s1 = a4 <u 0x1\n 33033: a2 = a5 & 0x7f\n 33036: t2 = a1 & a3\n 33039: a3 = a1 & t0\n 33042: a2 = a5 if a4 != 0\n 33045: a4 = a1 & t1\n 33048: a1 = a2 <u 0x20\n 33051: a1 = 0 if a3 != 0\n 33053: a5 = t2 | a4\n 33056: a1 = 0 if a5 != 0\n 33058: jump @1171 if s1 != a1\n      : @1169 (gas: 5)\n 33061: u64 [a0] = a2\n 33063: u64 [a0 + 0x8] = a3\n 33066: u64 [a0 + 0x10] = t2\n 33069: u64 [a0 + 0x18] = a4\n 33072: t0 = 1250, jump @1572\n      : @1170 [@dyn 625] (gas: 1)\n 33078: ret\n      : @1171 (gas: 1)\n 33080: t0 = 1252, jump @1533\n      : @1172 [@dyn 626] (gas: 1)\n 33086: ra = 1254, jump @25\n      : @1173 [@dyn 627] (gas: 7)\n 33092: u64 [sp + 24] = 0\n 33095: u64 [sp + 16] = 0\n 33098: u64 [sp + 0] = 0x22\n 33101: a0 = 0x4\n 33104: a1 = sp\n 33106: u64 [sp + 8] = 0\n 33109: ra = 1256, jump @25\n      : @1174 [@dyn 628] (gas: 2)\n 33115: a1 = i32 [0x2019c]\n 33120: jump @1176 if a1 >u 63\n      : @1175 (gas: 2)\n 33124: u32 [0x2019c] = 0x40\n 33130: fallthrough\n      : @1176 (gas: 7)\n 33131: a1 = 0x201b0\n 33136: i32 a1 = a1 + 0\n 33138: a0 = 0x1\n 33141: a2 = 0x24\n 33144: ra = 0x4ea\n 33148: ecalli 7 // 'seal_return'\n 33150: fallthrough\n      : @1177 [@dyn 629] (gas: 46)\n 33151: sp = sp + 0xffffffffffffff70\n 33155: u64 [sp + 0x88] = ra\n 33159: u64 [sp + 0x80] = s0\n 33163: u64 [sp + 0x78] = s1\n 33166: s0 = sp + 0x90\n 33170: sp = sp & 0xfffffffffffffff0\n 33173: t0 = a0\n 33175: a2 = u64 [a1]\n 33177: t2 = u64 [a0 + 0x8]\n 33180: a5 = u64 [a1 + 0x8]\n 33183: t1 = u64 [a0]\n 33185: a3 = a2 + 0x1f\n 33188: ra = a3 <u a2\n 33191: a2 = a5 + ra\n 33194: a3 = a3 & 0xffffffffffffffe0\n 33197: u64 [sp + 0x8] = t1\n 33200: t1 = t1 + a3\n 33203: a4 = t1 <u a3\n 33206: a3 = a2 + t2\n 33209: a3 = a3 + a4\n 33212: s1 = a3 ^ a2\n 33215: a0 = a3 <u a2\n 33218: a0 = a4 if s1 == 0\n 33221: a4 = u64 [t0 + 0x18]\n 33224: a5 = a2 <u a5\n 33227: s1 = u64 [a1 + 0x10]\n 33230: t0 = u64 [t0 + 0x10]\n 33233: a1 = u64 [a1 + 0x18]\n 33236: a5 = ra if ra == 0\n 33239: a5 = a5 + s1\n 33242: s1 = a5 <u s1\n 33245: a2 = a5 + t0\n 33248: a0 = a0 + a2\n 33251: a5 = a2 <u a5\n 33254: a2 = a0 <u a2\n 33257: a1 = a1 + a4\n 33260: a1 = a1 + s1\n 33263: a1 = a1 + a5\n 33266: a5 = a1 + a2\n 33269: a1 = a5 >u 0\n 33271: a2 = a0 >u 0\n 33273: a2 = a1 if a5 != 0\n 33276: a1 = a0 | a5\n 33279: s1 = a3 >u 0\n 33281: s1 = a2 if a1 != 0\n 33284: jump @1181 if s1 != 0\n      : @1178 (gas: 13)\n 33287: a1 = u64 [sp + 0x8]\n 33290: a1 = t1 <u a1\n 33293: a2 = a3 ^ t2\n 33296: s1 = a3 <u t2\n 33299: s1 = a1 if a2 == 0\n 33302: a1 = a0 <u t0\n 33305: a2 = a5 ^ a4\n 33308: a4 = a5 <u a4\n 33311: a4 = a1 if a2 == 0\n 33314: a1 = a0 ^ t0\n 33317: a1 = a1 | a2\n 33320: a4 = s1 if a1 == 0\n 33323: jump @1181 if a4 != 0\n      : @1179 (gas: 7)\n 33326: u64 [sp + 0x50] = t1\n 33329: u64 [sp + 0x58] = a3\n 33332: u64 [sp + 0x60] = a0\n 33335: a0 = 0x40\n 33338: a1 = sp + 0x50\n 33341: u64 [sp + 0x68] = a5\n 33344: ra = 1260, jump @25\n      : @1180 [@dyn 630] (gas: 6)\n 33350: sp = s0 + 0xffffffffffffff70\n 33354: ra = u64 [sp + 0x88]\n 33358: s0 = u64 [sp + 0x80]\n 33362: s1 = u64 [sp + 0x78]\n 33365: sp = sp + 0x90\n 33369: ret\n      : @1181 (gas: 1)\n 33371: t0 = 1262, jump @1568\n      : @1182 [@dyn 631] (gas: 1)\n 33377: ra = 1264, jump @25\n      : @1183 [@dyn 632] (gas: 7)\n 33383: u64 [sp + 40] = 0\n 33386: u64 [sp + 32] = 0\n 33389: u64 [sp + 16] = 0x41\n 33393: a0 = 0x4\n 33396: a1 = sp + 0x10\n 33399: u64 [sp + 24] = 0\n 33402: ra = 1266, jump @25\n      : @1184 [@dyn 633] (gas: 2)\n 33408: a1 = i32 [0x2019c]\n 33413: jump @1186 if a1 >u 63\n      : @1185 (gas: 2)\n 33417: u32 [0x2019c] = 0x40\n 33423: fallthrough\n      : @1186 (gas: 7)\n 33424: a1 = 0x201b0\n 33429: i32 a1 = a1 + 0\n 33431: a0 = 0x1\n 33434: a2 = 0x24\n 33437: ra = 0x4f4\n 33441: ecalli 7 // 'seal_return'\n 33443: fallthrough\n      : @1187 [@dyn 634] (gas: 22)\n 33444: sp = sp + 0xfffffffffffffee0\n 33448: u64 [sp + 0x118] = ra\n 33452: u64 [sp + 0x110] = s0\n 33456: u64 [sp + 0x108] = s1\n 33460: s0 = sp + 0x120\n 33464: sp = sp & 0xfffffffffffffff0\n 33467: a4 = u64 [a1 + 0x10]\n 33470: a3 = u64 [a1 + 0x18]\n 33473: a5 = u64 [a1 + 0x8]\n 33476: t0 = u64 [a1]\n 33478: u64 [sp + 0x68] = a3\n 33481: u64 [sp + 0x78] = a5\n 33484: a1 = a5 | a3\n 33487: a3 = t0 | a4\n 33490: a3 = a3 | a1\n 33493: a3 = a3 >> 0x20\n 33496: u64 [sp + 0x70] = a4\n 33499: a1 = a1 | a4\n 33502: a1 = a1 << 0x20\n 33505: a1 = a1 | a3\n 33508: u64 [sp + 0x8] = a0\n 33511: jump @1202 if a1 != 0\n      : @1188 (gas: 15)\n 33515: a0 = u64 [a2 + 0x18]\n 33518: u64 [sp + 0x48] = a0\n 33521: s1 = u64 [a2 + 0x10]\n 33524: a0 = u64 [a2 + 0x8]\n 33527: u64 [sp + 0x50] = a0\n 33530: a0 = u64 [a2]\n 33532: u64 [sp + 0x58] = a0\n 33535: u64 [sp + 248] = 0\n 33539: u64 [sp + 240] = 0\n 33543: u64 [sp + 232] = 0\n 33547: a1 = sp + 0xe0\n 33551: u64 [sp + 224] = 0x20\n 33556: a0 = t0\n 33558: u64 [sp + 0x60] = t0\n 33561: ra = 1270, jump @25\n      : @1189 [@dyn 635] (gas: 12)\n 33567: a1 = u64 [sp + 0x58]\n 33570: a0 = a1 | s1\n 33573: a2 = u64 [sp + 0x48]\n 33576: a3 = u64 [sp + 0x50]\n 33579: a2 = a2 | a3\n 33582: a0 = a0 | a2\n 33585: a0 = a0 >> 0x20\n 33588: u64 [sp + 0x20] = s1\n 33591: a2 = a2 | s1\n 33594: a2 = a2 << 0x20\n 33597: a0 = a0 | a2\n 33600: jump @1202 if a0 != 0\n      : @1190 (gas: 2)\n 33604: a0 = sp + 0xc0\n 33608: ra = 1272, jump @23\n      : @1191 [@dyn 636] (gas: 13)\n 33615: a0 = u64 [sp + 0x70]\n 33618: a1 = u64 [sp + 0x68]\n 33621: a1 = a1 | a0\n 33624: a0 = 0x100000000\n 33634: u64 [sp + 0x10] = a0\n 33637: a0 = 0xffffffe0\n 33647: a2 = u64 [sp + 0x60]\n 33650: a0 = a2 <u a0\n 33653: a3 = u64 [sp + 0x78]\n 33656: a0 = 0 if a3 != 0\n 33658: u64 [sp + 0x18] = a1\n 33661: a0 = 0 if a1 != 0\n 33663: jump @1202 if a0 == 0\n      : @1192 (gas: 16)\n 33667: a3 = u64 [sp + 0xd8]\n 33671: a4 = u64 [sp + 0xd0]\n 33675: a5 = u64 [sp + 0xc8]\n 33679: a1 = u64 [sp + 0xc0]\n 33683: i32 a0 = a2 + 0x20\n 33686: u64 [sp + 0x28] = a1\n 33689: u64 [sp + 0xa0] = a1\n 33693: u64 [sp + 0x30] = a5\n 33696: u64 [sp + 0xa8] = a5\n 33700: u64 [sp + 0x38] = a4\n 33703: u64 [sp + 0xb0] = a4\n 33707: a1 = sp + 0xa0\n 33711: u64 [sp + 0x40] = a3\n 33714: u64 [sp + 0xb8] = a3\n 33718: s1 = a2\n 33720: ra = 1274, jump @25\n      : @1193 [@dyn 637] (gas: 8)\n 33727: a0 = u64 [sp + 0x10]\n 33730: a0 = a0 + 0xffffffffffffffc0\n 33733: a0 = s1 <u a0\n 33736: a1 = u64 [sp + 0x78]\n 33739: a0 = 0 if a1 != 0\n 33741: a1 = u64 [sp + 0x18]\n 33744: a0 = 0 if a1 != 0\n 33746: jump @1202 if a0 == 0\n      : @1194 (gas: 10)\n 33750: a0 = u64 [sp + 0x48]\n 33753: a1 = u64 [sp + 0x20]\n 33756: a0 = a0 | a1\n 33759: a1 = 0xffffffe0\n 33769: a3 = u64 [sp + 0x58]\n 33772: a1 = a3 <u a1\n 33775: a4 = u64 [sp + 0x50]\n 33778: a1 = 0 if a4 != 0\n 33780: a1 = 0 if a0 != 0\n 33782: jump @1202 if a1 == 0\n      : @1195 (gas: 13)\n 33786: a2 = s1\n 33788: a1 = u64 [sp + 0x28]\n 33791: a5 = u64 [sp + 0x38]\n 33794: a0 = a1 | a5\n 33797: a4 = u64 [sp + 0x40]\n 33800: s1 = u64 [sp + 0x30]\n 33803: a4 = a4 | s1\n 33806: a0 = a0 | a4\n 33809: a0 = a0 >> 0x20\n 33812: a4 = a4 | a5\n 33815: a4 = a4 << 0x20\n 33818: a0 = a0 | a4\n 33821: jump @1202 if a0 != 0\n      : @1196 (gas: 5)\n 33825: i32 a0 = a2 + 0x40\n 33828: i32 a3 = a3 + 0x20\n 33831: u64 [sp + 0x58] = a3\n 33834: s1 = a1\n 33836: ra = 1276, jump @38\n      : @1197 [@dyn 638] (gas: 4)\n 33842: u64 [sp + 0x50] = a0\n 33845: a0 = u64 [sp + 0x58]\n 33848: a1 = s1\n 33850: ra = 1278, jump @38\n      : @1198 [@dyn 639] (gas: 4)\n 33856: a1 = a0\n 33858: a0 = u64 [sp + 0x50]\n 33861: a2 = s1\n 33863: ra = 1280, jump @6\n      : @1199 [@dyn 640] (gas: 27)\n 33870: a0 = u64 [sp + 0x60]\n 33873: a0 = a0 + s1\n 33876: a1 = a0 <u s1\n 33879: a2 = u64 [sp + 0x78]\n 33882: a4 = u64 [sp + 0x30]\n 33885: a2 = a2 + a4\n 33888: a2 = a2 + a1\n 33891: a3 = a2 ^ a4\n 33894: a4 = a2 <u a4\n 33897: a4 = a1 if a3 == 0\n 33900: a1 = u64 [sp + 0x70]\n 33903: a3 = u64 [sp + 0x38]\n 33906: a1 = a1 + a3\n 33909: a3 = a1 <u a3\n 33912: a5 = u64 [sp + 0x68]\n 33915: s1 = u64 [sp + 0x40]\n 33918: a5 = a5 + s1\n 33921: a3 = a3 + a5\n 33924: a4 = a4 + a1\n 33927: a1 = a4 <u a1\n 33930: a1 = a1 + a3\n 33933: a1 = a1 | a4\n 33936: a3 = 0xffffffc0\n 33946: a3 = a0 <u a3\n 33949: a3 = 0 if a2 != 0\n 33951: a3 = 0 if a1 != 0\n 33953: jump @1202 if a3 == 0\n      : @1200 (gas: 7)\n 33957: i32 a0 = a0 + 0x40\n 33960: u64 [sp + 152] = 0\n 33964: u64 [sp + 144] = 0\n 33968: u64 [sp + 136] = 0\n 33972: a1 = sp + 0x80\n 33976: u64 [sp + 128] = 0\n 33980: ra = 1282, jump @25\n      : @1201 [@dyn 641] (gas: 35)\n 33987: s1 = u64 [sp + 0x28]\n 33990: s1 = s1 + 0x1f\n 33993: a0 = 0x1ffffffe0\n 34003: a0 = a0 & s1\n 34006: a1 = u64 [sp + 0x60]\n 34009: a0 = a0 + a1\n 34012: a1 = a0 <u a1\n 34015: a3 = u64 [sp + 0x78]\n 34018: a2 = a3 + a1\n 34021: a3 = a2 <u a3\n 34024: a3 = a1 if a1 == 0\n 34027: a1 = u64 [sp + 0x70]\n 34030: a3 = a3 + a1\n 34033: a1 = a3 <u a1\n 34036: a4 = u64 [sp + 0x68]\n 34039: a1 = a1 + a4\n 34042: a4 = a0 + 0x40\n 34045: a0 = a4 <u a0\n 34048: a5 = a2 + a0\n 34051: a2 = a5 <u a2\n 34054: a2 = a0 if a0 == 0\n 34057: a2 = a2 + a3\n 34060: a0 = a2 <u a3\n 34063: a0 = a0 + a1\n 34066: a1 = u64 [sp + 0x8]\n 34069: u64 [a1] = a4\n 34071: u64 [a1 + 0x8] = a5\n 34074: u64 [a1 + 0x10] = a2\n 34077: u64 [a1 + 0x18] = a0\n 34080: sp = s0 + 0xfffffffffffffee0\n 34084: ra = u64 [sp + 0x118]\n 34088: s0 = u64 [sp + 0x110]\n 34092: s1 = u64 [sp + 0x108]\n 34096: sp = sp + 0x120\n 34100: ret\n      : @1202 (gas: 1)\n 34102: trap\n      : @1203 [@dyn 642] (gas: 5)\n 34103: a1 = 0x4\n 34106: ra = 0x506\n 34110: ecalli 1 // 'call_data_load'\n 34112: t0 = 0x508\n 34116: jump @1555\n      : @1204 [@dyn 643] (gas: 1)\n 34119: t0 = 1288, jump @1555\n      : @1205 [@dyn 644] (gas: 1)\n 34125: jump @1208 if a3 == 0\n      : @1206 (gas: 1)\n 34128: t0 = 1290, jump @1565\n      : @1207 [@dyn 645] (gas: 1)\n 34134: ret\n      : @1208 (gas: 8)\n 34136: a1 = 0x201b0\n 34141: i32 a1 = a1 + 0\n 34143: a0 = 0x1\n 34146: a2 = 0\n 34148: ra = 0x50c\n 34152: ecalli 7 // 'seal_return'\n 34154: t0 = 0x50e\n 34158: jump @1574\n      : @1209 [@dyn 646] (gas: 1)\n 34161: t0 = 1294, jump @1574\n      : @1210 [@dyn 647] (gas: 5)\n 34167: a1 = 0x24\n 34170: ra = 0x510\n 34174: ecalli 1 // 'call_data_load'\n 34176: t0 = 0x512\n 34180: jump @1555\n      : @1211 [@dyn 648] (gas: 1)\n 34183: t0 = 1298, jump @1555\n      : @1212 [@dyn 649] (gas: 1)\n 34189: jump @1215 if a3 == 0\n      : @1213 (gas: 1)\n 34192: t0 = 1300, jump @1565\n      : @1214 [@dyn 650] (gas: 1)\n 34198: ret\n      : @1215 (gas: 7)\n 34200: a1 = 0x201b0\n 34205: i32 a1 = a1 + 0\n 34207: a0 = 0x1\n 34210: a2 = 0\n 34212: ra = 0x516\n 34216: ecalli 7 // 'seal_return'\n 34218: fallthrough\n      : @1216 [@dyn 651] (gas: 10)\n 34219: a4 = u64 [a1 + 0x18]\n 34222: a3 = u64 [a1 + 0x10]\n 34225: t1 = u64 [a1 + 0x8]\n 34228: t0 = a4 >u 0\n 34230: a5 = a3 >u 0\n 34232: a5 = t0 if a4 != 0\n 34235: t0 = a3 | a4\n 34238: a2 = t1 >u 0\n 34240: a2 = a5 if t0 != 0\n 34243: jump @1218 if a2 != 0\n      : @1217 (gas: 24)\n 34246: a1 = u64 [a1]\n 34248: a2 = a3 >> 0x3b\n 34251: a4 = a4 << 0x5\n 34254: t0 = a4 | a2\n 34257: a4 = t1 >> 0x3b\n 34260: a3 = a3 << 0x5\n 34263: a3 = a3 | a4\n 34266: a4 = a1 >> 0x3b\n 34269: t1 = t1 << 0x5\n 34272: a4 = t1 | a4\n 34275: a1 = a1 << 0x5\n 34278: a5 = a1 + 0x20\n 34281: a1 = a5 <u a1\n 34284: a2 = a4 + a1\n 34287: a4 = a2 <u a4\n 34290: a4 = a1 if a1 == 0\n 34293: a4 = a4 + a3\n 34296: a1 = a4 <u a3\n 34299: a1 = a1 + t0\n 34302: u64 [a0] = a5\n 34304: u64 [a0 + 0x8] = a2\n 34307: u64 [a0 + 0x10] = a4\n 34310: u64 [a0 + 0x18] = a1\n 34313: ret\n      : @1218 (gas: 6)\n 34315: sp = sp + 0xffffffffffffffb0\n 34318: u64 [sp + 0x48] = ra\n 34321: u64 [sp + 0x40] = s0\n 34324: s0 = sp + 0x50\n 34327: sp = sp & 0xfffffffffffffff0\n 34330: t0 = 1304, jump @1533\n      : @1219 [@dyn 652] (gas: 1)\n 34336: ra = 1306, jump @25\n      : @1220 [@dyn 653] (gas: 7)\n 34343: u64 [sp + 24] = 0\n 34346: u64 [sp + 16] = 0\n 34349: u64 [sp + 0] = 0x41\n 34352: a0 = 0x4\n 34355: a1 = sp\n 34357: u64 [sp + 8] = 0\n 34360: ra = 1308, jump @25\n      : @1221 [@dyn 654] (gas: 2)\n 34367: a1 = i32 [0x2019c]\n 34372: jump @1223 if a1 >u 63\n      : @1222 (gas: 2)\n 34376: u32 [0x2019c] = 0x40\n 34382: fallthrough\n      : @1223 (gas: 7)\n 34383: a1 = 0x201b0\n 34388: i32 a1 = a1 + 0\n 34390: a0 = 0x1\n 34393: a2 = 0x24\n 34396: ra = 0x51e\n 34400: ecalli 7 // 'seal_return'\n 34402: fallthrough\n      : @1224 [@dyn 655] (gas: 9)\n 34403: sp = sp + 0xffffffffffffff40\n 34407: u64 [sp + 0xb8] = ra\n 34411: u64 [sp + 0xb0] = s0\n 34415: u64 [sp + 0xa8] = s1\n 34419: s0 = sp + 0xc0\n 34423: sp = sp & 0xfffffffffffffff0\n 34426: a1 = u8 [a1]\n 34428: a2 = 0x4d\n 34431: jump @1227 if a2 <u a1\n      : @1225 (gas: 13)\n 34434: s1 = a0\n 34436: u64 [sp + 88] = 0\n 34439: u64 [sp + 80] = 0\n 34442: u64 [sp + 72] = 0\n 34445: u64 [sp + 0x40] = a1\n 34448: u64 [sp + 120] = 0\n 34451: u64 [sp + 112] = 0\n 34454: u64 [sp + 96] = 0xa\n 34458: a0 = sp + 0x80\n 34462: a1 = sp + 0x60\n 34465: a2 = sp + 0x40\n 34468: u64 [sp + 104] = 0\n 34471: ra = 1312, jump @0\n      : @1226 [@dyn 656] (gas: 14)\n 34478: a0 = u64 [sp + 0x90]\n 34482: a1 = u64 [sp + 0x98]\n 34486: a2 = u64 [sp + 0x80]\n 34490: a3 = u64 [sp + 0x88]\n 34494: u64 [s1 + 0x10] = a0\n 34497: u64 [s1 + 0x18] = a1\n 34500: u64 [s1] = a2\n 34502: u64 [s1 + 0x8] = a3\n 34505: sp = s0 + 0xffffffffffffff40\n 34509: ra = u64 [sp + 0xb8]\n 34513: s0 = u64 [sp + 0xb0]\n 34517: s1 = u64 [sp + 0xa8]\n 34521: sp = sp + 0xc0\n 34525: ret\n      : @1227 (gas: 1)\n 34527: t0 = 1314, jump @1533\n      : @1228 [@dyn 657] (gas: 1)\n 34533: ra = 1316, jump @25\n      : @1229 [@dyn 658] (gas: 7)\n 34540: u64 [sp + 24] = 0\n 34543: u64 [sp + 16] = 0\n 34546: u64 [sp + 0] = 0x11\n 34549: a0 = 0x4\n 34552: a1 = sp\n 34554: u64 [sp + 8] = 0\n 34557: ra = 1318, jump @25\n      : @1230 [@dyn 659] (gas: 2)\n 34564: a1 = i32 [0x2019c]\n 34569: jump @1232 if a1 >u 63\n      : @1231 (gas: 2)\n 34573: u32 [0x2019c] = 0x40\n 34579: fallthrough\n      : @1232 (gas: 7)\n 34580: a1 = 0x201b0\n 34585: i32 a1 = a1 + 0\n 34587: a0 = 0x1\n 34590: a2 = 0x24\n 34593: ra = 0x528\n 34597: ecalli 7 // 'seal_return'\n 34599: fallthrough\n      : @1233 [@dyn 660] (gas: 16)\n 34600: sp = sp + 0xfffffffffffffef0\n 34604: u64 [sp + 0x108] = ra\n 34608: u64 [sp + 0x100] = s0\n 34612: u64 [sp + 0xf8] = s1\n 34616: s0 = sp + 0x110\n 34620: sp = sp & 0xfffffffffffffff0\n 34623: t1 = u64 [a2 + 0x10]\n 34626: a5 = u64 [a2 + 0x18]\n 34629: s1 = u64 [a2 + 0x8]\n 34632: a2 = u64 [a2]\n 34634: a4 = s1 | a5\n 34637: a3 = a2 | t1\n 34640: a3 = a3 | a4\n 34643: u64 [sp] = a0\n 34645: u64 [sp + 0xa8] = a3\n 34649: jump @1253 if a3 == 0\n      : @1234 (gas: 73)\n 34653: a0 = u64 [a1 + 0x18]\n 34656: ra = u64 [a1 + 0x10]\n 34659: t0 = u64 [a1 + 0x8]\n 34662: t2 = u64 [a1]\n 34664: u64 [sp + 0x60] = t2\n 34667: a1 = clz t1\n 34669: a1 = a1 + 0x40\n 34672: a4 = clz a5\n 34674: a4 = a1 if a5 == 0\n 34677: u64 [sp + 0x30] = a2\n 34680: a1 = clz a2\n 34682: a2 = a1 + 0x40\n 34685: a1 = clz s1\n 34687: u64 [sp + 0x38] = s1\n 34690: a1 = a2 if s1 == 0\n 34693: a2 = a1 + 0x80\n 34697: u64 [sp + 0x40] = a5\n 34700: u64 [sp + 0x48] = t1\n 34703: a3 = t1 | a5\n 34706: a4 = a2 if a3 == 0\n 34709: a2 = a2 <u a1\n 34712: a2 = 0 if a3 != 0\n 34714: a1 = clz ra\n 34716: a1 = a1 + 0x40\n 34719: a5 = clz a0\n 34721: a5 = a1 if a0 == 0\n 34724: a1 = clz t2\n 34726: a1 = a1 + 0x40\n 34729: a3 = clz t0\n 34731: a3 = a1 if t0 == 0\n 34734: a1 = a3 + 0x80\n 34738: s1 = ra | a0\n 34741: a5 = a1 if s1 == 0\n 34744: a1 = a1 <u a3\n 34747: a1 = 0 if s1 != 0\n 34749: t1 = a2 ^ a1\n 34752: s1 = a2 <u a1\n 34755: a3 = a4 <u a5\n 34758: s1 = a3 if t1 == 0\n 34761: a2 = a2 - a1\n 34764: t2 = s1 <u 0x1\n 34767: t2 = t2 + 0xffffffffffffffff\n 34770: a3 = a2 - a3\n 34773: t1 = -s1\n 34775: a1 = a4 - a5\n 34778: a2 = t1 >u 0\n 34780: a4 = t2 >u 0\n 34782: a4 = a2 if t2 == 0\n 34785: u64 [sp + 0xa0] = a1\n 34789: a2 = a1 <u 0x100\n 34793: a2 = a2 ^ 0x1\n 34796: a5 = a3 >u 0\n 34798: a2 = a5 if a3 != 0\n 34801: a2 = a4 if s1 != 0\n 34804: s1 = u64 [sp + 0x60]\n 34807: a4 = s1 | ra\n 34810: a5 = t0 | a0\n 34813: a4 = a4 | a5\n 34816: a1 = u64 [sp + 0xa8]\n 34820: a5 = a1 <u 0x1\n 34823: a4 = a4 <u 0x1\n 34826: a4 = a4 | a5\n 34829: a2 = a2 | a4\n 34832: u64 [sp + 0x68] = a0\n 34835: a1 = a0\n 34837: a1 = 0 if a2 != 0\n 34839: a4 = ra\n 34841: a4 = 0 if a2 != 0\n 34843: u64 [sp + 0x58] = t0\n 34846: a5 = t0\n 34848: a5 = 0 if a2 != 0\n 34850: s1 = 0 if a2 != 0\n 34852: jump @1251 if a2 != 0\n      : @1235 (gas: 7)\n 34856: a0 = u64 [sp + 0xa0]\n 34860: a2 = a0 ^ 0xff\n 34864: t0 = a2 | t1\n 34867: a2 = a3 | t2\n 34870: a2 = t0 | a2\n 34873: a0 = u64 [sp]\n 34875: jump @1252 if a2 == 0\n      : @1236 (gas: 15)\n 34879: a2 = u64 [sp + 0xa0]\n 34883: a1 = a2 + 0x1\n 34886: u64 [sp + 0xa8] = a1\n 34890: u64 [sp + 0x50] = ra\n 34893: a0 = a1 <u 0x1\n 34896: a0 = a0 + a3\n 34899: u64 [sp + 0x80] = a0\n 34903: a0 = a0 | a1\n 34906: a0 = a0 <u 0x1\n 34909: a0 = a0 + t1\n 34912: u64 [sp + 0x70] = a0\n 34915: a0 = a0 <u t1\n 34918: a0 = a0 + t2\n 34921: u64 [sp + 0x78] = a0\n 34924: t0 = 1322, jump @1549\n      : @1237 [@dyn 661] (gas: 4)\n 34930: u64 [sp + 0x28] = s1\n 34933: a0 = u64 [sp + 0x60]\n 34936: a1 = u64 [sp + 0x58]\n 34939: ra = 1324, jump @1580\n      : @1238 [@dyn 662] (gas: 6)\n 34945: u64 [sp + 0x98] = a0\n 34949: u64 [sp + 0x90] = a1\n 34953: a0 = u64 [sp + 0x50]\n 34956: a1 = u64 [sp + 0x68]\n 34959: a2 = s1\n 34961: ra = 1326, jump @1585\n      : @1239 [@dyn 663] (gas: 10)\n 34967: u64 [sp + 0x88] = a0\n 34971: a0 = u64 [sp + 0x90]\n 34975: a0 = a0 | a1\n 34978: u64 [sp + 0x90] = a0\n 34982: a1 = u64 [sp + 0xa0]\n 34986: a2 = 0x7f - a1\n 34989: a0 = u64 [sp + 0x60]\n 34992: s1 = u64 [sp + 0x58]\n 34995: a1 = s1\n 34997: ra = 1328, jump @1585\n      : @1240 [@dyn 664] (gas: 18)\n 35003: a2 = u64 [sp + 0x28]\n 35006: a3 = a2 <u 0x80\n 35010: u64 [sp + 0xa0] = a3\n 35014: a4 = u64 [sp + 0x90]\n 35018: a1 = a4 if a3 != 0\n 35021: a4 = u64 [sp + 0x68]\n 35024: a1 = a4 if a2 == 0\n 35027: u64 [sp + 0x90] = a1\n 35031: a1 = u64 [sp + 0x98]\n 35035: a4 = u64 [sp + 0x88]\n 35039: a1 = a1 | a4\n 35042: a1 = a0 if a3 == 0\n 35045: a0 = u64 [sp + 0x50]\n 35048: a1 = a0 if a2 == 0\n 35051: u64 [sp + 0x98] = a1\n 35055: a0 = u64 [sp + 0x60]\n 35058: a1 = s1\n 35060: ra = 1330, jump @1585\n      : @1241 [@dyn 665] (gas: 13)\n 35066: a5 = u64 [sp + 0x70]\n 35069: a2 = u64 [sp + 0x78]\n 35072: a3 = u64 [sp + 0x80]\n 35076: a3 = a3 | a2\n 35079: a2 = u64 [sp + 0xa8]\n 35083: a2 = a2 | a5\n 35086: a2 = a2 | a3\n 35089: a3 = u64 [sp + 0xa0]\n 35093: a1 = 0 if a3 == 0\n 35095: u64 [sp + 0x88] = a1\n 35099: a0 = 0 if a3 == 0\n 35101: u64 [sp + 0xa0] = a0\n 35105: jump @1249 if a2 == 0\n      : @1242 (gas: 5)\n 35109: s1 = u64 [sp + 0xa8]\n 35113: a2 = s1 + 0xffffffffffffff80\n 35116: a0 = u64 [sp + 0x50]\n 35119: a1 = u64 [sp + 0x68]\n 35122: ra = 1332, jump @1580\n      : @1243 [@dyn 666] (gas: 6)\n 35128: u64 [sp + 0x28] = a0\n 35131: u64 [sp + 0x18] = a1\n 35134: a0 = u64 [sp + 0x60]\n 35137: a1 = u64 [sp + 0x58]\n 35140: a2 = s1\n 35142: ra = 1334, jump @1580\n      : @1244 [@dyn 667] (gas: 6)\n 35148: u64 [sp + 0x10] = a0\n 35151: u64 [sp + 0x20] = a1\n 35154: a2 = 0x80 - s1\n 35158: a0 = u64 [sp + 0x50]\n 35161: a1 = u64 [sp + 0x68]\n 35164: ra = 1336, jump @1585\n      : @1245 [@dyn 668] (gas: 20)\n 35170: a2 = u64 [sp + 0x20]\n 35173: a1 = a1 | a2\n 35176: a2 = s1 <u 0x80\n 35180: u64 [sp + 0x20] = a2\n 35183: a3 = u64 [sp + 0x18]\n 35186: a1 = a3 if a2 == 0\n 35189: a3 = u64 [sp + 0x58]\n 35192: a3 = a1 if s1 != 0\n 35195: u64 [sp + 0x58] = a3\n 35198: a1 = u64 [sp + 0x10]\n 35201: a0 = a0 | a1\n 35204: a1 = u64 [sp + 0x28]\n 35207: a0 = a1 if a2 == 0\n 35210: a1 = u64 [sp + 0x60]\n 35213: a1 = a0 if s1 != 0\n 35216: u64 [sp + 0x60] = a1\n 35219: a0 = u64 [sp + 0x50]\n 35222: a1 = u64 [sp + 0x68]\n 35225: a2 = s1\n 35227: ra = 1338, jump @1580\n      : @1246 [@dyn 669] (gas: 24)\n 35233: t0 = u64 [sp + 0x58]\n 35236: t2 = 0\n 35238: a2 = u64 [sp + 0x20]\n 35241: a1 = 0 if a2 == 0\n 35243: a0 = 0 if a2 == 0\n 35245: u64 [sp + 0x68] = a0\n 35248: a3 = u64 [sp + 0x30]\n 35251: a0 = a3 <u 0x1\n 35254: a2 = u64 [sp + 0x38]\n 35257: a0 = a2 - a0\n 35260: u64 [sp + 0x20] = a0\n 35263: a0 = a3 | a2\n 35266: a0 = a0 <u 0x1\n 35269: a2 = u64 [sp + 0x48]\n 35272: a4 = a2 - a0\n 35275: u64 [sp + 0x18] = a4\n 35278: a0 = a2 <u a0\n 35281: a2 = u64 [sp + 0x40]\n 35284: a2 = a2 - a0\n 35287: u64 [sp + 0x10] = a2\n 35290: a3 = a3 + 0xffffffffffffffff\n 35293: u64 [sp + 0x8] = a3\n 35296: ra = u64 [sp + 0x60]\n 35299: fallthrough\n      : @1247 (gas: 103)\n 35300: u64 [sp + 40] = 0\n 35303: a4 = ra >> 0x3f\n 35306: a3 = t0 << 0x1\n 35309: s1 = t0\n 35311: t0 = a3 | a4\n 35314: a4 = ra << 0x1\n 35317: ra = u64 [sp + 0x90]\n 35321: a2 = ra >> 0x3f\n 35324: a2 = a2 | a4\n 35327: u64 [sp + 0x60] = a2\n 35330: a0 = u64 [sp + 0x20]\n 35333: t1 = a0 ^ t0\n 35336: a4 = a0 <u t0\n 35339: a0 = u64 [sp + 0x8]\n 35342: a5 = t2\n 35344: t2 = a0 <u a2\n 35347: t2 = a4 if t1 != 0\n 35350: a1 = a1 << 0x1\n 35353: a0 = u64 [sp + 0x68]\n 35356: a2 = a0 >> 0x3f\n 35359: a1 = a1 | a2\n 35362: u64 [sp + 0x58] = a1\n 35365: a2 = s1 >> 0x3f\n 35368: a0 = a0 << 0x1\n 35371: t1 = a0 | a2\n 35374: a0 = ra << 0x1\n 35377: a1 = u64 [sp + 0x98]\n 35381: a2 = a1 >> 0x3f\n 35384: a0 = a0 | a2\n 35387: a2 = a1 << 0x1\n 35390: a1 = u64 [sp + 0x88]\n 35394: a4 = a1 >> 0x3f\n 35397: a2 = a2 | a4\n 35400: a4 = a1 << 0x1\n 35403: s1 = u64 [sp + 0xa0]\n 35407: ra = s1 >> 0x3f\n 35410: a4 = a4 | ra\n 35413: s1 = s1 << 0x1\n 35416: a5 = a5 | s1\n 35419: u64 [sp + 0xa0] = a5\n 35423: a4 = a4 | 0\n 35425: u64 [sp + 0x88] = a4\n 35429: a1 = a2 | 0\n 35431: u64 [sp + 0x98] = a1\n 35435: a0 = a0 | 0\n 35437: u64 [sp + 0x90] = a0\n 35441: a2 = u64 [sp + 0x18]\n 35444: a0 = a2 - t1\n 35447: a0 = a0 <u t2\n 35450: a2 = a2 <u t1\n 35453: a4 = u64 [sp + 0x10]\n 35456: a3 = u64 [sp + 0x58]\n 35459: a4 = a4 - a3\n 35462: a4 = a4 - a2\n 35465: a4 = a4 - a0\n 35468: a4 = a4 >>a 0x3f\n 35471: a0 = u64 [sp + 0x30]\n 35474: a1 = a4 & a0\n 35477: u64 [sp + 0x50] = a1\n 35480: a5 = u64 [sp + 0x38]\n 35483: a5 = a5 & a4\n 35486: a0 = t0 ^ a5\n 35489: s1 = t0 <u a5\n 35492: t2 = u64 [sp + 0x60]\n 35495: ra = t2 <u a1\n 35498: s1 = ra if a0 == 0\n 35501: a2 = u64 [sp + 0x48]\n 35504: a2 = a2 & a4\n 35507: a1 = t1 - a2\n 35510: a0 = a1 - s1\n 35513: u64 [sp + 0x68] = a0\n 35516: a0 = a1 <u s1\n 35519: a2 = t1 <u a2\n 35522: s1 = u64 [sp + 0x40]\n 35525: s1 = s1 & a4\n 35528: a1 = a3 - s1\n 35531: a1 = a1 - a2\n 35534: a1 = a1 - a0\n 35537: a3 = t0 - a5\n 35540: t0 = a3 - ra\n 35543: a0 = u64 [sp + 0x50]\n 35546: ra = t2 - a0\n 35549: a5 = u64 [sp + 0xa8]\n 35553: s1 = u64 [sp + 0x80]\n 35557: a0 = a5 | s1\n 35560: a0 = a0 <u 0x1\n 35563: a3 = u64 [sp + 0x70]\n 35566: a2 = a3 <u a0\n 35569: a0 = a3 - a0\n 35572: a3 = a5 <u 0x1\n 35575: s1 = s1 - a3\n 35578: a3 = u64 [sp + 0x78]\n 35581: a3 = a3 - a2\n 35584: a5 = a5 + 0xffffffffffffffff\n 35587: u64 [sp + 0x80] = s1\n 35591: u64 [sp + 0x78] = a3\n 35594: a2 = s1 | a3\n 35597: u64 [sp + 0xa8] = a5\n 35601: a3 = a5 | a0\n 35604: a2 = a2 | a3\n 35607: t2 = a4 & 0x1\n 35610: u64 [sp + 0x70] = a0\n 35613: jump @1247 if a2 != 0\n      : @1248 (gas: 1)\n 35617: jump @1250\n      : @1249 (gas: 3)\n 35619: t2 = 0\n 35621: u64 [sp + 40] = 0\n 35624: fallthrough\n      : @1250 (gas: 21)\n 35625: a3 = u64 [sp + 0x98]\n 35629: a0 = a3 >> 0x3f\n 35632: a1 = u64 [sp + 0x90]\n 35636: a1 = a1 << 0x1\n 35639: a0 = a0 | a1\n 35642: a5 = u64 [sp + 0x88]\n 35646: a1 = a5 >> 0x3f\n 35649: a3 = a3 << 0x1\n 35652: a1 = a1 | a3\n 35655: a2 = u64 [sp + 0xa0]\n 35659: a3 = a2 >> 0x3f\n 35662: a5 = a5 << 0x1\n 35665: s1 = a2 << 0x1\n 35668: s1 = t2 | s1\n 35671: a2 = u64 [sp + 0x28]\n 35674: a3 = a3 | a2\n 35677: a5 = a5 | a3\n 35680: a4 = a2 | a1\n 35683: a1 = a2 | a0\n 35686: a0 = u64 [sp]\n 35688: jump @1252\n      : @1251 (gas: 2)\n 35690: a0 = u64 [sp]\n 35692: fallthrough\n      : @1252 (gas: 10)\n 35693: u64 [a0] = s1\n 35695: u64 [a0 + 0x8] = a5\n 35698: u64 [a0 + 0x10] = a4\n 35701: u64 [a0 + 0x18] = a1\n 35704: sp = s0 + 0xfffffffffffffef0\n 35708: ra = u64 [sp + 0x108]\n 35712: s0 = u64 [sp + 0x100]\n 35716: s1 = u64 [sp + 0xf8]\n 35720: sp = sp + 0x110\n 35724: ret\n      : @1253 (gas: 6)\n 35726: u64 [sp + 224] = 0\n 35730: u64 [sp + 216] = 0\n 35734: u64 [sp + 208] = 0\n 35738: t0 = 0x53c\n 35742: a0 = 0x4e487b7100000000\n 35752: fallthrough\n      : @1254 [@dyn 670] (gas: 4)\n 35753: a1 = sp + 0xd0\n 35757: u64 [sp + 0xe8] = a0\n 35761: a0 = 0\n 35763: ra = 1342, jump @25\n      : @1255 [@dyn 671] (gas: 7)\n 35770: u64 [sp + 200] = 0\n 35774: u64 [sp + 192] = 0\n 35778: u64 [sp + 176] = 0x12\n 35783: a0 = 0x4\n 35786: a1 = sp + 0xb0\n 35790: u64 [sp + 184] = 0\n 35794: ra = 1344, jump @25\n      : @1256 [@dyn 672] (gas: 2)\n 35801: a1 = i32 [0x2019c]\n 35806: jump @1258 if a1 >u 63\n      : @1257 (gas: 2)\n 35810: u32 [0x2019c] = 0x40\n 35816: fallthrough\n      : @1258 (gas: 7)\n 35817: a1 = 0x201b0\n 35822: i32 a1 = a1 + 0\n 35824: a0 = 0x1\n 35827: a2 = 0x24\n 35830: ra = 0x542\n 35834: ecalli 7 // 'seal_return'\n 35836: fallthrough\n      : @1259 [@dyn 673] (gas: 16)\n 35837: sp = sp + 0xfffffffffffffed0\n 35841: u64 [sp + 0x128] = ra\n 35845: u64 [sp + 0x120] = s0\n 35849: u64 [sp + 0x118] = s1\n 35853: s0 = sp + 0x130\n 35857: sp = sp & 0xfffffffffffffff0\n 35860: a5 = u64 [a2 + 0x10]\n 35863: s1 = u64 [a2 + 0x18]\n 35866: t0 = u64 [a2 + 0x8]\n 35869: a4 = u64 [a2]\n 35871: a2 = t0 | s1\n 35874: a3 = a4 | a5\n 35877: a2 = a2 | a3\n 35880: u64 [sp] = a0\n 35882: u64 [sp + 0xc8] = a2\n 35886: jump @1278 if a2 == 0\n      : @1260 (gas: 78)\n 35890: t2 = u64 [a1 + 0x18]\n 35893: t1 = u64 [a1 + 0x10]\n 35896: ra = u64 [a1 + 0x8]\n 35899: a2 = u64 [a1]\n 35901: a0 = clz a5\n 35903: a1 = a0 + 0x40\n 35906: a0 = clz s1\n 35908: a0 = a1 if s1 == 0\n 35911: u64 [sp + 0x68] = a4\n 35914: a1 = clz a4\n 35916: a1 = a1 + 0x40\n 35919: a3 = clz t0\n 35921: u64 [sp + 0x50] = t0\n 35924: a3 = a1 if t0 == 0\n 35927: a1 = a3 + 0x80\n 35931: u64 [sp + 0x60] = a5\n 35934: u64 [sp + 0x58] = s1\n 35937: a4 = a5 | s1\n 35940: a0 = a1 if a4 == 0\n 35943: a1 = a1 <u a3\n 35946: a1 = 0 if a4 != 0\n 35948: a3 = clz t1\n 35950: a4 = a3 + 0x40\n 35953: a3 = clz t2\n 35955: a3 = a4 if t2 == 0\n 35958: a4 = clz a2\n 35960: t0 = a2\n 35962: a4 = a4 + 0x40\n 35965: a5 = clz ra\n 35967: a5 = a4 if ra == 0\n 35970: a4 = a5 + 0x80\n 35974: s1 = t1 | t2\n 35977: a3 = a4 if s1 == 0\n 35980: a4 = a4 <u a5\n 35983: a4 = 0 if s1 != 0\n 35985: a5 = a1 ^ a4\n 35988: s1 = a1 <u a4\n 35991: a2 = a0 <u a3\n 35994: s1 = a2 if a5 == 0\n 35997: a1 = a1 - a4\n 36000: a4 = s1 <u 0x1\n 36003: a4 = a4 + 0xffffffffffffffff\n 36006: a5 = a1 - a2\n 36009: a1 = -s1\n 36011: a2 = a0 - a3\n 36014: u64 [sp + 0xb0] = a1\n 36018: a0 = a1 >u 0\n 36020: a1 = a4 >u 0\n 36022: u64 [sp + 0xb8] = a4\n 36026: a1 = a0 if a4 == 0\n 36029: u64 [sp + 0xc0] = a2\n 36033: a0 = a2 <u 0x100\n 36037: a0 = a0 ^ 0x1\n 36040: a2 = a5 >u 0\n 36042: a0 = a2 if a5 != 0\n 36045: a0 = a1 if s1 != 0\n 36048: a4 = t0\n 36050: a1 = t0 | t1\n 36053: a2 = ra | t2\n 36056: a1 = a1 | a2\n 36059: a2 = u64 [sp + 0xc8]\n 36063: a2 = a2 <u 0x1\n 36066: a1 = a1 <u 0x1\n 36069: a1 = a1 | a2\n 36072: a0 = a0 | a1\n 36075: u64 [sp + 0x8] = t2\n 36078: a2 = t2\n 36080: a2 = 0 if a0 != 0\n 36082: u64 [sp + 0x10] = t1\n 36085: t0 = t1\n 36087: t0 = 0 if a0 != 0\n 36089: u64 [sp + 0x18] = ra\n 36092: a3 = ra\n 36094: a3 = 0 if a0 != 0\n 36096: ra = a4\n 36098: u64 [sp + 0x20] = a4\n 36101: ra = 0 if a0 != 0\n 36103: jump @1277 if a0 != 0\n      : @1261 (gas: 8)\n 36107: a0 = u64 [sp + 0xc0]\n 36111: a0 = a0 ^ 0xff\n 36115: s1 = u64 [sp + 0xb0]\n 36119: a0 = a0 | s1\n 36122: t1 = u64 [sp + 0xb8]\n 36126: a4 = a5 | t1\n 36129: a0 = a0 | a4\n 36132: jump @1277 if a0 == 0\n      : @1262 (gas: 19)\n 36136: a2 = u64 [sp + 0xc0]\n 36140: a1 = a2 + 0x1\n 36143: u64 [sp + 0xc8] = a1\n 36147: a0 = a1 <u 0x1\n 36150: a0 = a0 + a5\n 36153: u64 [sp + 0xa0] = a0\n 36157: a0 = a0 | a1\n 36160: a0 = a0 <u 0x1\n 36163: a0 = a0 + s1\n 36166: u64 [sp + 0x98] = a0\n 36170: a0 = a0 <u s1\n 36173: a0 = a0 + t1\n 36176: u64 [sp + 0xa8] = a0\n 36180: a1 = 0xff - a2\n 36184: u64 [sp + 0x90] = a1\n 36188: a2 = 0x80 - a1\n 36192: a0 = u64 [sp + 0x20]\n 36195: a1 = u64 [sp + 0x18]\n 36198: ra = 1348, jump @1580\n      : @1263 [@dyn 674] (gas: 7)\n 36204: u64 [sp + 0xb8] = a0\n 36208: u64 [sp + 0xb0] = a1\n 36212: a0 = u64 [sp + 0x10]\n 36215: s1 = u64 [sp + 0x8]\n 36218: a1 = s1\n 36220: a2 = u64 [sp + 0x90]\n 36224: ra = 1350, jump @1585\n      : @1264 [@dyn 675] (gas: 9)\n 36230: u64 [sp + 0x88] = a0\n 36234: a0 = u64 [sp + 0xb0]\n 36238: a0 = a0 | a1\n 36241: u64 [sp + 0xb0] = a0\n 36245: a1 = u64 [sp + 0xc0]\n 36249: a2 = 0x7f - a1\n 36252: a0 = u64 [sp + 0x20]\n 36255: a1 = u64 [sp + 0x18]\n 36258: ra = 1352, jump @1585\n      : @1265 [@dyn 676] (gas: 17)\n 36264: a2 = u64 [sp + 0x90]\n 36268: a3 = a2 <u 0x80\n 36272: u64 [sp + 0xc0] = a3\n 36276: a4 = u64 [sp + 0xb0]\n 36280: a1 = a4 if a3 != 0\n 36283: a1 = s1 if a2 == 0\n 36286: u64 [sp + 0xb0] = a1\n 36290: a1 = u64 [sp + 0xb8]\n 36294: a4 = u64 [sp + 0x88]\n 36298: a1 = a1 | a4\n 36301: a1 = a0 if a3 == 0\n 36304: a0 = u64 [sp + 0x10]\n 36307: a1 = a0 if a2 == 0\n 36310: u64 [sp + 0xb8] = a1\n 36314: a0 = u64 [sp + 0x20]\n 36317: a1 = u64 [sp + 0x18]\n 36320: ra = 1354, jump @1585\n      : @1266 [@dyn 677] (gas: 13)\n 36326: a3 = u64 [sp + 0x98]\n 36330: a2 = u64 [sp + 0xa8]\n 36334: a5 = u64 [sp + 0xa0]\n 36338: a5 = a5 | a2\n 36341: s1 = u64 [sp + 0xc8]\n 36345: s1 = s1 | a3\n 36348: a5 = a5 | s1\n 36351: a2 = u64 [sp + 0xc0]\n 36355: a1 = 0 if a2 == 0\n 36357: u64 [sp + 0x90] = a1\n 36361: a0 = 0 if a2 == 0\n 36363: u64 [sp + 0xc0] = a0\n 36367: jump @1275 if a5 == 0\n      : @1267 (gas: 5)\n 36371: s1 = u64 [sp + 0xc8]\n 36375: a2 = s1 + 0xffffffffffffff80\n 36378: a0 = u64 [sp + 0x10]\n 36381: a1 = u64 [sp + 0x8]\n 36384: ra = 1356, jump @1580\n      : @1268 [@dyn 678] (gas: 6)\n 36390: u64 [sp + 0x88] = a0\n 36394: u64 [sp + 0x78] = a1\n 36397: a0 = u64 [sp + 0x20]\n 36400: a1 = u64 [sp + 0x18]\n 36403: a2 = s1\n 36405: ra = 1358, jump @1580\n      : @1269 [@dyn 679] (gas: 6)\n 36411: u64 [sp + 0x70] = a0\n 36414: u64 [sp + 0x80] = a1\n 36418: a2 = 0x80 - s1\n 36422: a0 = u64 [sp + 0x10]\n 36425: a1 = u64 [sp + 0x8]\n 36428: ra = 1360, jump @1585\n      : @1270 [@dyn 680] (gas: 19)\n 36434: a4 = u64 [sp + 0x80]\n 36438: a4 = a4 | a1\n 36441: a2 = s1\n 36443: a1 = s1 <u 0x80\n 36447: u64 [sp + 0x80] = a1\n 36451: a3 = u64 [sp + 0x78]\n 36454: a4 = a3 if a1 == 0\n 36457: a3 = u64 [sp + 0x18]\n 36460: a4 = a3 if s1 == 0\n 36463: u64 [sp + 0x78] = a4\n 36466: s1 = u64 [sp + 0x70]\n 36469: s1 = s1 | a0\n 36472: a0 = u64 [sp + 0x88]\n 36476: s1 = a0 if a1 == 0\n 36479: a0 = u64 [sp + 0x20]\n 36482: s1 = a0 if a2 == 0\n 36485: a0 = u64 [sp + 0x10]\n 36488: a1 = u64 [sp + 0x8]\n 36491: ra = 1362, jump @1580\n      : @1271 [@dyn 681] (gas: 24)\n 36497: t2 = s1\n 36499: t1 = u64 [sp + 0x78]\n 36502: t0 = a0\n 36504: ra = 0\n 36506: a0 = u64 [sp + 0x80]\n 36510: a1 = 0 if a0 == 0\n 36512: t0 = 0 if a0 == 0\n 36514: a2 = u64 [sp + 0x68]\n 36517: a0 = a2 <u 0x1\n 36520: a3 = u64 [sp + 0x50]\n 36523: a0 = a3 - a0\n 36526: u64 [sp + 0x40] = a0\n 36529: a0 = a2 | a3\n 36532: a0 = a0 <u 0x1\n 36535: a3 = u64 [sp + 0x60]\n 36538: a4 = a3 - a0\n 36541: u64 [sp + 0x38] = a4\n 36544: a0 = a3 <u a0\n 36547: a3 = u64 [sp + 0x58]\n 36550: a3 = a3 - a0\n 36553: u64 [sp + 0x30] = a3\n 36556: a2 = a2 + 0xffffffffffffffff\n 36559: u64 [sp + 0x28] = a2\n 36562: fallthrough\n      : @1272 (gas: 93)\n 36563: u64 [sp + 0x88] = ra\n 36567: u64 [sp + 72] = 0\n 36570: a4 = t2 >> 0x3f\n 36573: a3 = t1 << 0x1\n 36576: a3 = a3 | a4\n 36579: a4 = t2 << 0x1\n 36582: ra = u64 [sp + 0xb0]\n 36586: a2 = ra >> 0x3f\n 36589: a2 = a2 | a4\n 36592: u64 [sp + 0x78] = a2\n 36595: a0 = u64 [sp + 0x40]\n 36598: s1 = a0 ^ a3\n 36601: a4 = a0 <u a3\n 36604: a0 = u64 [sp + 0x28]\n 36607: t2 = a0 <u a2\n 36610: t2 = a4 if s1 != 0\n 36613: a1 = a1 << 0x1\n 36616: a2 = t0 >> 0x3f\n 36619: a1 = a1 | a2\n 36622: u64 [sp + 0x80] = a1\n 36626: a2 = t1 >> 0x3f\n 36629: a0 = t0 << 0x1\n 36632: t1 = a0 | a2\n 36635: a0 = ra << 0x1\n 36638: a4 = u64 [sp + 0xb8]\n 36642: a2 = a4 >> 0x3f\n 36645: a0 = a0 | a2\n 36648: a2 = a4 << 0x1\n 36651: s1 = u64 [sp + 0x90]\n 36655: a4 = s1 >> 0x3f\n 36658: a2 = a2 | a4\n 36661: a4 = s1 << 0x1\n 36664: s1 = u64 [sp + 0xc0]\n 36668: ra = s1 >> 0x3f\n 36671: a4 = a4 | ra\n 36674: s1 = s1 << 0x1\n 36677: a1 = u64 [sp + 0x88]\n 36681: s1 = s1 | a1\n 36684: u64 [sp + 0xc0] = s1\n 36688: a4 = a4 | 0\n 36690: u64 [sp + 0x90] = a4\n 36694: a2 = a2 | 0\n 36696: u64 [sp + 0xb8] = a2\n 36700: a0 = a0 | 0\n 36702: u64 [sp + 0xb0] = a0\n 36706: a2 = u64 [sp + 0x38]\n 36709: a0 = a2 - t1\n 36712: a0 = a0 <u t2\n 36715: a2 = a2 <u t1\n 36718: a4 = u64 [sp + 0x30]\n 36721: t2 = u64 [sp + 0x80]\n 36725: a4 = a4 - t2\n 36728: a4 = a4 - a2\n 36731: a4 = a4 - a0\n 36734: a4 = a4 >>a 0x3f\n 36737: a0 = u64 [sp + 0x68]\n 36740: a1 = a4 & a0\n 36743: u64 [sp + 0x70] = a1\n 36746: a5 = u64 [sp + 0x50]\n 36749: a5 = a5 & a4\n 36752: a0 = a3 ^ a5\n 36755: s1 = a3 <u a5\n 36758: t0 = u64 [sp + 0x78]\n 36761: ra = t0 <u a1\n 36764: s1 = ra if a0 == 0\n 36767: a2 = u64 [sp + 0x60]\n 36770: a2 = a2 & a4\n 36773: a1 = t1 - a2\n 36776: a0 = a1 - s1\n 36779: u64 [sp + 0x88] = a0\n 36783: a0 = a1 <u s1\n 36786: a2 = t1 <u a2\n 36789: s1 = u64 [sp + 0x58]\n 36792: s1 = s1 & a4\n 36795: a1 = t2 - s1\n 36798: a1 = a1 - a2\n 36801: a1 = a1 - a0\n 36804: a3 = a3 - a5\n 36807: t1 = a3 - ra\n 36810: a0 = u64 [sp + 0x70]\n 36813: t2 = t0 - a0\n 36816: a5 = u64 [sp + 0xc8]\n 36820: a2 = u64 [sp + 0xa0]\n 36824: a0 = a5 | a2\n 36827: a0 = a0 <u 0x1\n 36830: a3 = u64 [sp + 0x98]\n 36834: s1 = a3 <u a0\n 36837: a0 = a3 - a0\n 36840: a3 = a5 <u 0x1\n 36843: a2 = a2 - a3\n 36846: a3 = u64 [sp + 0xa8]\n 36850: a3 = a3 - s1\n 36853: fallthrough\n      : @1273 (gas: 11)\n 36854: t0 = u64 [sp + 0x88]\n 36858: a5 = a5 + 0xffffffffffffffff\n 36861: u64 [sp + 0xa8] = a3\n 36865: u64 [sp + 0xa0] = a2\n 36869: a2 = a2 | a3\n 36872: u64 [sp + 0xc8] = a5\n 36876: a3 = a5 | a0\n 36879: a2 = a2 | a3\n 36882: ra = a4 & 0x1\n 36885: u64 [sp + 0x98] = a0\n 36889: jump @1272 if a2 != 0\n      : @1274 (gas: 1)\n 36893: jump @1276\n      : @1275 (gas: 3)\n 36895: ra = 0\n 36897: u64 [sp + 72] = 0\n 36900: fallthrough\n      : @1276 (gas: 20)\n 36901: a3 = u64 [sp + 0xb8]\n 36905: a0 = a3 >> 0x3f\n 36908: a1 = u64 [sp + 0xb0]\n 36912: a1 = a1 << 0x1\n 36915: a0 = a0 | a1\n 36918: a5 = u64 [sp + 0x90]\n 36922: a1 = a5 >> 0x3f\n 36925: a3 = a3 << 0x1\n 36928: a1 = a1 | a3\n 36931: a2 = u64 [sp + 0xc0]\n 36935: a3 = a2 >> 0x3f\n 36938: a5 = a5 << 0x1\n 36941: s1 = a2 << 0x1\n 36944: ra = ra | s1\n 36947: a2 = u64 [sp + 0x48]\n 36950: a3 = a3 | a2\n 36953: a3 = a3 | a5\n 36956: t0 = a2 | a1\n 36959: a2 = a2 | a0\n 36962: fallthrough\n      : @1277 (gas: 76)\n 36963: s1 = u64 [sp + 0x68]\n 36966: a0 = s1 mulhu ra\n 36969: a1 = u64 [sp + 0x50]\n 36972: a4 = a1 * ra\n 36975: a0 = a0 + a4\n 36978: a4 = a0 <u a4\n 36981: a5 = a1 mulhu ra\n 36984: a5 = a5 + a4\n 36987: a4 = s1 * a3\n 36990: t2 = a4 + a0\n 36993: a4 = t2 <u a4\n 36996: a0 = a2\n 36998: a2 = s1 mulhu a3\n 37001: a2 = a2 + a4\n 37004: a2 = a2 + a5\n 37007: a4 = a2 <u a5\n 37010: a5 = a1 mulhu a3\n 37013: a4 = a4 + a5\n 37016: a5 = a1 * a3\n 37019: a2 = a2 + a5\n 37022: a5 = a2 <u a5\n 37025: a4 = a4 + a5\n 37028: u64 [sp + 0xc8] = a4\n 37032: a5 = t0 * a1\n 37035: a4 = t0 mulhu s1\n 37038: a4 = a4 + a5\n 37041: a5 = a0 * s1\n 37044: t1 = a4 + a5\n 37047: a0 = u64 [sp + 0x58]\n 37050: a5 = ra * a0\n 37053: a4 = u64 [sp + 0x60]\n 37056: a0 = ra mulhu a4\n 37059: a0 = a0 + a5\n 37062: a3 = a3 * a4\n 37065: a0 = a0 + a3\n 37068: a0 = a0 + t1\n 37071: a3 = ra * a4\n 37074: a1 = t0 * s1\n 37077: a3 = a3 + a1\n 37080: a1 = a3 <u a1\n 37083: a0 = a0 + a1\n 37086: a1 = u64 [sp + 0xc8]\n 37090: a0 = a0 + a1\n 37093: a3 = a3 + a2\n 37096: a1 = a3 <u a2\n 37099: t0 = s1 * ra\n 37102: a2 = u64 [sp + 0x8]\n 37105: a1 = a2 - a1\n 37108: t1 = a1 - a0\n 37111: a1 = u64 [sp + 0x18]\n 37114: a0 = a1 ^ t2\n 37117: a4 = a1 <u t2\n 37120: a2 = u64 [sp + 0x20]\n 37123: a5 = a2 <u t0\n 37126: a4 = a5 if a0 == 0\n 37129: s1 = u64 [sp + 0x10]\n 37132: a0 = s1 <u a3\n 37135: a3 = s1 - a3\n 37138: s1 = a3 <u a4\n 37141: a0 = a0 + s1\n 37144: s1 = t1 - a0\n 37147: a3 = a3 - a4\n 37150: a0 = a1 - a5\n 37153: a0 = a0 - t2\n 37156: a2 = a2 - t0\n 37159: a1 = u64 [sp]\n 37161: u64 [a1] = a2\n 37163: u64 [a1 + 0x8] = a0\n 37166: u64 [a1 + 0x10] = a3\n 37169: u64 [a1 + 0x18] = s1\n 37172: sp = s0 + 0xfffffffffffffed0\n 37176: ra = u64 [sp + 0x128]\n 37180: s0 = u64 [sp + 0x120]\n 37184: s1 = u64 [sp + 0x118]\n 37188: sp = sp + 0x130\n 37192: ret\n      : @1278 (gas: 6)\n 37194: u64 [sp + 256] = 0\n 37198: u64 [sp + 248] = 0\n 37202: u64 [sp + 240] = 0\n 37206: t0 = 0x554\n 37210: a0 = 0x4e487b7100000000\n 37220: fallthrough\n      : @1279 [@dyn 682] (gas: 4)\n 37221: a1 = sp + 0xf0\n 37225: u64 [sp + 0x108] = a0\n 37229: a0 = 0\n 37231: ra = 1366, jump @25\n      : @1280 [@dyn 683] (gas: 7)\n 37238: u64 [sp + 232] = 0\n 37242: u64 [sp + 224] = 0\n 37246: u64 [sp + 208] = 0x12\n 37251: a0 = 0x4\n 37254: a1 = sp + 0xd0\n 37258: u64 [sp + 216] = 0\n 37262: ra = 1368, jump @25\n      : @1281 [@dyn 684] (gas: 2)\n 37269: a1 = i32 [0x2019c]\n 37274: jump @1283 if a1 >u 63\n      : @1282 (gas: 2)\n 37278: u32 [0x2019c] = 0x40\n 37284: fallthrough\n      : @1283 (gas: 7)\n 37285: a1 = 0x201b0\n 37290: i32 a1 = a1 + 0\n 37292: a0 = 0x1\n 37295: a2 = 0x24\n 37298: ra = 0x55a\n 37302: ecalli 7 // 'seal_return'\n 37304: fallthrough\n      : @1284 [@dyn 685] (gas: 18)\n 37305: a2 = u8 [a1]\n 37307: t2 = a2 + 0xfffffffffffffffe\n 37310: a4 = t2 <u a2\n 37313: a2 = a4 + 0xffffffffffffffff\n 37316: a4 = 0 if a2 != 0\n 37318: a3 = a4 >u 0\n 37320: a3 = a3 + 0xffffffffffffffff\n 37323: a4 = a4 + 0xffffffffffffffff\n 37326: t0 = a4 >u 0\n 37328: a5 = a3 >u 0\n 37330: a5 = t0 if a3 == 0\n 37333: t0 = a4 | a3\n 37336: t1 = a2 >u 0\n 37338: a1 = t2 <u 0x100\n 37342: a1 = a1 ^ 0x1\n 37345: a1 = t1 if a2 != 0\n 37348: a1 = a5 if t0 != 0\n 37351: jump @1286 if a1 != 0\n      : @1285 (gas: 5)\n 37354: u64 [a0] = t2\n 37356: u64 [a0 + 0x8] = a2\n 37359: u64 [a0 + 0x10] = a4\n 37362: u64 [a0 + 0x18] = a3\n 37365: ret\n      : @1286 (gas: 6)\n 37367: sp = sp + 0xffffffffffffffb0\n 37370: u64 [sp + 0x48] = ra\n 37373: u64 [sp + 0x40] = s0\n 37376: s0 = sp + 0x50\n 37379: sp = sp & 0xfffffffffffffff0\n 37382: t0 = 1372, jump @1533\n      : @1287 [@dyn 686] (gas: 1)\n 37388: ra = 1374, jump @25\n      : @1288 [@dyn 687] (gas: 7)\n 37395: u64 [sp + 24] = 0\n 37398: u64 [sp + 16] = 0\n 37401: u64 [sp + 0] = 0x11\n 37404: a0 = 0x4\n 37407: a1 = sp\n 37409: u64 [sp + 8] = 0\n 37412: ra = 1376, jump @25\n      : @1289 [@dyn 688] (gas: 2)\n 37419: a1 = i32 [0x2019c]\n 37424: jump @1291 if a1 >u 63\n      : @1290 (gas: 2)\n 37428: u32 [0x2019c] = 0x40\n 37434: fallthrough\n      : @1291 (gas: 8)\n 37435: a1 = 0x201b0\n 37440: i32 a1 = a1 + 0\n 37442: a0 = 0x1\n 37445: a2 = 0x24\n 37448: ra = 0x562\n 37452: ecalli 7 // 'seal_return'\n 37454: t0 = 0x564\n 37458: jump @1542\n      : @1292 [@dyn 689] (gas: 1)\n 37461: t0 = 1380, jump @1542\n      : @1293 [@dyn 690] (gas: 1)\n 37467: jump @1296 if a0 == 0\n      : @1294 (gas: 1)\n 37470: t0 = 1382, jump @1578\n      : @1295 [@dyn 691] (gas: 1)\n 37476: ret\n      : @1296 (gas: 3)\n 37478: a0 = sp + 0xa0\n 37482: a1 = 0x40\n 37485: ra = 1384, jump @23\n      : @1297 [@dyn 692] (gas: 1)\n 37492: t0 = 1386, jump @1541\n      : @1298 [@dyn 693] (gas: 1)\n 37498: jump @1310 if a0 != 0\n      : @1299 (gas: 1)\n 37501: t0 = 1388, jump @1551\n      : @1300 [@dyn 694] (gas: 1)\n 37507: ra = 1390, jump @25\n      : @1301 [@dyn 695] (gas: 1)\n 37514: t0 = 1392, jump @1527\n      : @1302 [@dyn 696] (gas: 1)\n 37520: jump @1310 if a0 == 0\n      : @1303 (gas: 1)\n 37523: t0 = 1394, jump @1556\n      : @1304 [@dyn 697] (gas: 1)\n 37529: ra = 1396, jump @25\n      : @1305 [@dyn 698] (gas: 1)\n 37536: t0 = 1398, jump @1539\n      : @1306 [@dyn 699] (gas: 1)\n 37542: jump @1310 if a0 == 0\n      : @1307 (gas: 8)\n 37545: s1 = u64 [sp + 0x18]\n 37548: i32 a0 = s1 + 0x24\n 37551: u64 [sp + 88] = 0\n 37554: u64 [sp + 80] = 0\n 37557: u64 [sp + 64] = 0x14\n 37561: a1 = sp + 0x40\n 37564: u64 [sp + 72] = 0\n 37567: ra = 1400, jump @25\n      : @1308 [@dyn 700] (gas: 1)\n 37574: t0 = 1402, jump @1545\n      : @1309 [@dyn 701] (gas: 1)\n 37580: jump @1311 if a0 != 0\n      : @1310 (gas: 1)\n 37583: trap\n      : @1311 (gas: 11)\n 37584: s1 = u64 [sp + 0x18]\n 37587: i32 a0 = s1 + 0x44\n 37590: a1 = u64 [0x20130]\n 37595: a2 = u64 [0x20138]\n 37600: u64 [sp + 0x38] = a1\n 37603: u64 [sp + 0x30] = a2\n 37606: a1 = 0x616e636500000000\n 37616: u64 [sp + 0x28] = a1\n 37619: a1 = sp + 0x20\n 37622: u64 [sp + 32] = 0\n 37625: ra = 1404, jump @25\n      : @1312 [@dyn 702] (gas: 3)\n 37632: a1 = 0x64\n 37635: a0 = s1\n 37637: ra = 1406, jump @38\n      : @1313 [@dyn 703] (gas: 7)\n 37644: i32 a1 = a0 + 0\n 37646: a0 = 0x1\n 37649: a2 = 0x64\n 37652: ra = 0x580\n 37656: ecalli 7 // 'seal_return'\n 37658: t0 = 0x582\n 37662: jump @1542\n      : @1314 [@dyn 704] (gas: 1)\n 37665: t0 = 1410, jump @1542\n      : @1315 [@dyn 705] (gas: 1)\n 37671: jump @1318 if a0 == 0\n      : @1316 (gas: 1)\n 37674: t0 = 1412, jump @1578\n      : @1317 [@dyn 706] (gas: 1)\n 37680: ret\n      : @1318 (gas: 3)\n 37682: a0 = sp + 0xa0\n 37686: a1 = 0x40\n 37689: ra = 1414, jump @23\n      : @1319 [@dyn 707] (gas: 1)\n 37696: t0 = 1416, jump @1541\n      : @1320 [@dyn 708] (gas: 1)\n 37702: jump @1332 if a0 != 0\n      : @1321 (gas: 1)\n 37705: t0 = 1418, jump @1551\n      : @1322 [@dyn 709] (gas: 1)\n 37711: ra = 1420, jump @25\n      : @1323 [@dyn 710] (gas: 1)\n 37718: t0 = 1422, jump @1527\n      : @1324 [@dyn 711] (gas: 1)\n 37724: jump @1332 if a0 == 0\n      : @1325 (gas: 1)\n 37727: t0 = 1424, jump @1556\n      : @1326 [@dyn 712] (gas: 1)\n 37733: ra = 1426, jump @25\n      : @1327 [@dyn 713] (gas: 1)\n 37740: t0 = 1428, jump @1539\n      : @1328 [@dyn 714] (gas: 1)\n 37746: jump @1332 if a0 == 0\n      : @1329 (gas: 8)\n 37749: s1 = u64 [sp + 0x18]\n 37752: i32 a0 = s1 + 0x24\n 37755: u64 [sp + 88] = 0\n 37758: u64 [sp + 80] = 0\n 37761: u64 [sp + 64] = 0x1f\n 37765: a1 = sp + 0x40\n 37768: u64 [sp + 72] = 0\n 37771: ra = 1430, jump @25\n      : @1330 [@dyn 715] (gas: 1)\n 37778: t0 = 1432, jump @1545\n      : @1331 [@dyn 716] (gas: 1)\n 37784: jump @1333 if a0 != 0\n      : @1332 (gas: 1)\n 37787: trap\n      : @1333 (gas: 12)\n 37788: s1 = u64 [sp + 0x18]\n 37791: i32 a0 = s1 + 0x44\n 37794: a1 = u64 [0x20140]\n 37799: u64 [sp + 0x38] = a1\n 37802: a1 = u64 [0x20148]\n 37807: a2 = u64 [0x20150]\n 37812: a3 = u64 [0x20158]\n 37817: u64 [sp + 0x30] = a1\n 37820: u64 [sp + 0x28] = a2\n 37823: a1 = sp + 0x20\n 37826: u64 [sp + 0x20] = a3\n 37829: ra = 1434, jump @25\n      : @1334 [@dyn 717] (gas: 3)\n 37836: a1 = 0x64\n 37839: a0 = s1\n 37841: ra = 1436, jump @38\n      : @1335 [@dyn 718] (gas: 6)\n 37848: i32 a1 = a0 + 0\n 37850: a0 = 0x1\n 37853: a2 = 0x64\n 37856: ra = 0x59e\n 37860: ecalli 7 // 'seal_return'\n 37862: fallthrough\n      : @1336 [@dyn 719] (gas: 30)\n 37863: sp = sp + 0xffffffffffffff80\n 37866: u64 [sp + 0x78] = ra\n 37869: u64 [sp + 0x70] = s0\n 37872: u64 [sp + 0x68] = s1\n 37875: s0 = sp + 0x80\n 37879: sp = sp & 0xfffffffffffffff0\n 37882: a4 = u64 [a2]\n 37884: a3 = u64 [a1]\n 37886: s1 = u64 [a2 + 0x8]\n 37889: t1 = u64 [a1 + 0x8]\n 37892: t2 = u64 [a2 + 0x10]\n 37895: a5 = u64 [a1 + 0x10]\n 37898: a2 = u64 [a2 + 0x18]\n 37901: a1 = u64 [a1 + 0x18]\n 37904: t0 = t1 ^ s1\n 37907: u64 [sp + 0x8] = s1\n 37910: s1 = t1 <u s1\n 37913: u64 [sp + 0x18] = a4\n 37916: u64 [sp + 0x10] = a3\n 37919: a3 = a3 <u a4\n 37922: u64 [sp] = a3\n 37924: s1 = a3 if t0 == 0\n 37927: a3 = a1 ^ a2\n 37930: ra = a1 <u a2\n 37933: t0 = a5 <u t2\n 37936: ra = t0 if a3 == 0\n 37939: a4 = a5 ^ t2\n 37942: a3 = a3 | a4\n 37945: ra = s1 if a3 == 0\n 37948: jump @1338 if ra != 0\n      : @1337 (gas: 23)\n 37951: a3 = a5 - t2\n 37954: a1 = a1 - a2\n 37957: a1 = a1 - t0\n 37960: a2 = a3 <u s1\n 37963: a1 = a1 - a2\n 37966: a3 = a3 - s1\n 37969: a2 = u64 [sp + 0x8]\n 37972: a2 = t1 - a2\n 37975: a4 = u64 [sp]\n 37977: a2 = a2 - a4\n 37980: a4 = u64 [sp + 0x18]\n 37983: a5 = u64 [sp + 0x10]\n 37986: a4 = a5 - a4\n 37989: u64 [a0] = a4\n 37991: u64 [a0 + 0x8] = a2\n 37994: u64 [a0 + 0x10] = a3\n 37997: u64 [a0 + 0x18] = a1\n 38000: sp = s0 + 0xffffffffffffff80\n 38003: ra = u64 [sp + 0x78]\n 38006: s0 = u64 [sp + 0x70]\n 38009: s1 = u64 [sp + 0x68]\n 38012: sp = sp + 0x80\n 38016: ret\n      : @1338 (gas: 6)\n 38018: u64 [sp + 80] = 0\n 38021: u64 [sp + 72] = 0\n 38024: u64 [sp + 64] = 0\n 38027: t0 = 0x5a0\n 38031: a0 = 0x4e487b7100000000\n 38041: fallthrough\n      : @1339 [@dyn 720] (gas: 4)\n 38042: a1 = sp + 0x40\n 38045: u64 [sp + 0x58] = a0\n 38048: a0 = 0\n 38050: ra = 1442, jump @25\n      : @1340 [@dyn 721] (gas: 7)\n 38057: u64 [sp + 56] = 0\n 38060: u64 [sp + 48] = 0\n 38063: u64 [sp + 32] = 0x11\n 38067: a0 = 0x4\n 38070: a1 = sp + 0x20\n 38073: u64 [sp + 40] = 0\n 38076: ra = 1444, jump @25\n      : @1341 [@dyn 722] (gas: 2)\n 38083: a1 = i32 [0x2019c]\n 38088: jump @1343 if a1 >u 63\n      : @1342 (gas: 2)\n 38092: u32 [0x2019c] = 0x40\n 38098: fallthrough\n      : @1343 (gas: 7)\n 38099: a1 = 0x201b0\n 38104: i32 a1 = a1 + 0\n 38106: a0 = 0x1\n 38109: a2 = 0x24\n 38112: ra = 0x5a6\n 38116: ecalli 7 // 'seal_return'\n 38118: fallthrough\n      : @1344 [@dyn 723] (gas: 45)\n 38119: sp = sp + 0xffffffffffffff90\n 38122: u64 [sp + 0x68] = ra\n 38125: u64 [sp + 0x60] = s0\n 38128: u64 [sp + 0x58] = s1\n 38131: s0 = sp + 0x70\n 38134: sp = sp & 0xfffffffffffffff0\n 38137: a3 = u64 [a1 + 0x18]\n 38140: u64 [sp + 0x8] = a3\n 38143: a4 = u64 [a2 + 0x18]\n 38146: t2 = u64 [a1]\n 38148: u64 [sp] = t2\n 38150: a3 = u64 [a1 + 0x8]\n 38153: s1 = u64 [a2 + 0x8]\n 38156: a5 = u64 [a2]\n 38158: t1 = u64 [a1 + 0x10]\n 38161: t0 = u64 [a2 + 0x10]\n 38164: a2 = s1 + a3\n 38167: t2 = t2 + a5\n 38170: a5 = t2 <u a5\n 38173: a2 = a2 + a5\n 38176: ra = a2 ^ s1\n 38179: s1 = a2 <u s1\n 38182: s1 = a5 if ra == 0\n 38185: a1 = t0 + t1\n 38188: a5 = u64 [sp + 0x8]\n 38191: a5 = a5 + a4\n 38194: a4 = a1 <u t0\n 38197: a4 = a4 + a5\n 38200: a5 = a1 + s1\n 38203: a1 = a5 <u a1\n 38206: ra = a4 + a1\n 38209: a4 = a2 ^ a3\n 38212: a3 = a2 <u a3\n 38215: a1 = u64 [sp]\n 38217: s1 = t2 <u a1\n 38220: s1 = a3 if a4 != 0\n 38223: t0 = a5 <u t1\n 38226: a1 = u64 [sp + 0x8]\n 38229: a4 = ra ^ a1\n 38232: a3 = ra <u a1\n 38235: a3 = t0 if a4 == 0\n 38238: a1 = a5 ^ t1\n 38241: a1 = a1 | a4\n 38244: s1 = a3 if a1 != 0\n 38247: jump @1346 if s1 != 0\n      : @1345 (gas: 10)\n 38250: u64 [a0] = t2\n 38252: u64 [a0 + 0x8] = a2\n 38255: u64 [a0 + 0x10] = a5\n 38258: u64 [a0 + 0x18] = ra\n 38261: sp = s0 + 0xffffffffffffff90\n 38264: ra = u64 [sp + 0x68]\n 38267: s0 = u64 [sp + 0x60]\n 38270: s1 = u64 [sp + 0x58]\n 38273: sp = sp + 0x70\n 38276: ret\n      : @1346 (gas: 1)\n 38278: t0 = 1448, jump @1568\n      : @1347 [@dyn 724] (gas: 1)\n 38284: ra = 1450, jump @25\n      : @1348 [@dyn 725] (gas: 7)\n 38291: u64 [sp + 40] = 0\n 38294: u64 [sp + 32] = 0\n 38297: u64 [sp + 16] = 0x11\n 38301: a0 = 0x4\n 38304: a1 = sp + 0x10\n 38307: u64 [sp + 24] = 0\n 38310: ra = 1452, jump @25\n      : @1349 [@dyn 726] (gas: 2)\n 38317: a1 = i32 [0x2019c]\n 38322: jump @1351 if a1 >u 63\n      : @1350 (gas: 2)\n 38326: u32 [0x2019c] = 0x40\n 38332: fallthrough\n      : @1351 (gas: 7)\n 38333: a1 = 0x201b0\n 38338: i32 a1 = a1 + 0\n 38340: a0 = 0x1\n 38343: a2 = 0x24\n 38346: ra = 0x5ae\n 38350: ecalli 7 // 'seal_return'\n 38352: fallthrough\n      : @1352 [@dyn 727] (gas: 14)\n 38353: sp = sp + 0xffffffffffffff00\n 38357: u64 [sp + 0xf8] = ra\n 38361: u64 [sp + 0xf0] = s0\n 38365: u64 [sp + 0xe8] = s1\n 38369: s0 = sp + 0x100\n 38373: sp = sp & 0xfffffffffffffff0\n 38376: a1 = u64 [a0 + 0x10]\n 38379: a2 = u64 [a0 + 0x18]\n 38382: a3 = u64 [a0 + 0x8]\n 38385: a0 = u64 [a0]\n 38387: a2 = a2 | a3\n 38390: a0 = a0 | a1\n 38393: a0 = a0 | a2\n 38396: jump @1354 if a0 == 0\n      : @1353 (gas: 6)\n 38399: sp = s0 + 0xffffffffffffff00\n 38403: ra = u64 [sp + 0xf8]\n 38407: s0 = u64 [sp + 0xf0]\n 38411: s1 = u64 [sp + 0xe8]\n 38415: sp = sp + 0x100\n 38419: ret\n      : @1354 (gas: 3)\n 38421: a0 = sp + 0xc0\n 38425: a1 = 0x40\n 38428: ra = 1456, jump @23\n      : @1355 [@dyn 728] (gas: 15)\n 38435: a2 = u64 [sp + 0xd8]\n 38439: s1 = u64 [sp + 0xd0]\n 38443: a0 = u64 [sp + 0xc8]\n 38447: a1 = u64 [sp + 0xc0]\n 38451: u64 [sp + 0x10] = a0\n 38454: u64 [sp + 0x8] = a2\n 38457: a0 = a0 | a2\n 38460: u64 [sp + 0x18] = a1\n 38463: a1 = a1 | s1\n 38466: a1 = a1 | a0\n 38469: a1 = a1 >> 0x20\n 38472: a0 = a0 | s1\n 38475: a0 = a0 << 0x20\n 38478: a0 = a0 | a1\n 38481: jump @1367 if a0 != 0\n      : @1356 (gas: 8)\n 38485: u64 [sp + 176] = 0\n 38489: u64 [sp + 168] = 0\n 38493: u64 [sp + 160] = 0\n 38497: a0 = 0x8c379a000000000\n 38507: a1 = sp + 0xa0\n 38511: u64 [sp + 0xb8] = a0\n 38515: a0 = u64 [sp + 0x18]\n 38518: ra = 1458, jump @25\n      : @1357 [@dyn 729] (gas: 1)\n 38525: t0 = 1460, jump @1527\n      : @1358 [@dyn 730] (gas: 1)\n 38531: jump @1367 if a0 == 0\n      : @1359 (gas: 8)\n 38535: a0 = u64 [sp + 0x18]\n 38538: i32 a0 = a0 + 0x4\n 38541: u64 [sp + 152] = 0\n 38545: u64 [sp + 144] = 0\n 38549: u64 [sp + 128] = 0x20\n 38554: a1 = sp + 0x80\n 38558: u64 [sp + 136] = 0\n 38562: ra = 1462, jump @25\n      : @1360 [@dyn 731] (gas: 1)\n 38569: t0 = 1464, jump @1539\n      : @1361 [@dyn 732] (gas: 1)\n 38575: jump @1367 if a0 == 0\n      : @1362 (gas: 8)\n 38578: s1 = u64 [sp + 0x18]\n 38581: i32 a0 = s1 + 0x24\n 38584: u64 [sp + 120] = 0\n 38587: u64 [sp + 112] = 0\n 38590: u64 [sp + 96] = 0x22\n 38594: a1 = sp + 0x60\n 38597: u64 [sp + 104] = 0\n 38600: ra = 1466, jump @25\n      : @1363 [@dyn 733] (gas: 3)\n 38607: a0 = 0x100000000\n 38617: u64 [sp] = a0\n 38619: t0 = 1468, jump @1545\n      : @1364 [@dyn 734] (gas: 1)\n 38625: jump @1367 if a0 == 0\n      : @1365 (gas: 12)\n 38628: s1 = u64 [sp + 0x18]\n 38631: i32 a0 = s1 + 0x44\n 38634: a1 = u64 [0x20160]\n 38639: u64 [sp + 0x58] = a1\n 38642: a1 = u64 [0x20168]\n 38647: a2 = u64 [0x20170]\n 38652: a3 = u64 [0x20178]\n 38657: u64 [sp + 0x50] = a1\n 38660: u64 [sp + 0x48] = a2\n 38663: a1 = sp + 0x40\n 38666: u64 [sp + 0x40] = a3\n 38669: ra = 1470, jump @25\n      : @1366 [@dyn 735] (gas: 8)\n 38676: a0 = u64 [sp]\n 38678: a0 = a0 + 0xffffffffffffff9c\n 38681: a0 = s1 <u a0\n 38684: a1 = u64 [sp + 0x10]\n 38687: a0 = 0 if a1 != 0\n 38689: a1 = u64 [sp + 0x8]\n 38692: a0 = 0 if a1 != 0\n 38694: jump @1368 if a0 != 0\n      : @1367 (gas: 1)\n 38697: trap\n      : @1368 (gas: 9)\n 38698: s1 = u64 [sp + 0x18]\n 38701: i32 a0 = s1 + 0x64\n 38704: u64 [sp + 48] = 0\n 38707: u64 [sp + 40] = 0\n 38710: a1 = 0x6f6e000000000000\n 38720: u64 [sp + 0x38] = a1\n 38723: a1 = sp + 0x20\n 38726: u64 [sp + 32] = 0\n 38729: ra = 1472, jump @25\n      : @1369 [@dyn 736] (gas: 3)\n 38736: a1 = 0x84\n 38740: a0 = s1\n 38742: ra = 1474, jump @38\n      : @1370 [@dyn 737] (gas: 7)\n 38749: i32 a1 = a0 + 0\n 38751: a0 = 0x1\n 38754: a2 = 0x84\n 38758: ra = 0x5c4\n 38762: ecalli 7 // 'seal_return'\n 38764: t0 = 0x5c6\n 38768: jump @1542\n      : @1371 [@dyn 738] (gas: 1)\n 38771: t0 = 1478, jump @1542\n      : @1372 [@dyn 739] (gas: 1)\n 38777: jump @1375 if a0 == 0\n      : @1373 (gas: 1)\n 38780: t0 = 1480, jump @1578\n      : @1374 [@dyn 740] (gas: 1)\n 38786: ret\n      : @1375 (gas: 3)\n 38788: a0 = sp + 0xa0\n 38792: a1 = 0x40\n 38795: ra = 1482, jump @23\n      : @1376 [@dyn 741] (gas: 1)\n 38802: t0 = 1484, jump @1541\n      : @1377 [@dyn 742] (gas: 1)\n 38808: jump @1389 if a0 != 0\n      : @1378 (gas: 1)\n 38811: t0 = 1486, jump @1551\n      : @1379 [@dyn 743] (gas: 1)\n 38817: ra = 1488, jump @25\n      : @1380 [@dyn 744] (gas: 1)\n 38824: t0 = 1490, jump @1527\n      : @1381 [@dyn 745] (gas: 1)\n 38830: jump @1389 if a0 == 0\n      : @1382 (gas: 1)\n 38833: t0 = 1492, jump @1556\n      : @1383 [@dyn 746] (gas: 1)\n 38839: ra = 1494, jump @25\n      : @1384 [@dyn 747] (gas: 1)\n 38846: t0 = 1496, jump @1539\n      : @1385 [@dyn 748] (gas: 1)\n 38852: jump @1389 if a0 == 0\n      : @1386 (gas: 8)\n 38855: s1 = u64 [sp + 0x18]\n 38858: i32 a0 = s1 + 0x24\n 38861: u64 [sp + 88] = 0\n 38864: u64 [sp + 80] = 0\n 38867: u64 [sp + 64] = 0x1b\n 38871: a1 = sp + 0x40\n 38874: u64 [sp + 72] = 0\n 38877: ra = 1498, jump @25\n      : @1387 [@dyn 749] (gas: 1)\n 38884: t0 = 1500, jump @1545\n      : @1388 [@dyn 750] (gas: 1)\n 38890: jump @1390 if a0 != 0\n      : @1389 (gas: 1)\n 38893: trap\n      : @1390 (gas: 12)\n 38894: s1 = u64 [sp + 0x18]\n 38897: i32 a0 = s1 + 0x44\n 38900: a1 = u64 [0x20180]\n 38905: a2 = u64 [0x20188]\n 38910: a3 = u64 [0x20190]\n 38915: u64 [sp + 0x38] = a1\n 38918: u64 [sp + 0x30] = a2\n 38921: u64 [sp + 0x28] = a3\n 38924: a2 = 0x6573730000000000\n 38934: a1 = sp + 0x20\n 38937: u64 [sp + 0x20] = a2\n 38940: ra = 1502, jump @25\n      : @1391 [@dyn 751] (gas: 3)\n 38947: a1 = 0x64\n 38950: a0 = s1\n 38952: ra = 1504, jump @38\n      : @1392 [@dyn 752] (gas: 6)\n 38959: i32 a1 = a0 + 0\n 38961: a0 = 0x1\n 38964: a2 = 0x64\n 38967: ra = 0x5e2\n 38971: ecalli 7 // 'seal_return'\n 38973: fallthrough\n      : @1393 [@dyn 753] (gas: 22)\n 38974: sp = sp + 0xffffffffffffff40\n 38978: u64 [sp + 0xb8] = ra\n 38982: u64 [sp + 0xb0] = s0\n 38986: u64 [sp + 0xa8] = s1\n 38990: s0 = sp + 0xc0\n 38994: sp = sp & 0xfffffffffffffff0\n 38997: a4 = u64 [a1 + 0x10]\n 39000: a3 = u64 [a1 + 0x18]\n 39003: a5 = u64 [a1 + 0x8]\n 39006: a1 = u64 [a1]\n 39008: u64 [sp + 0x28] = a3\n 39011: u64 [sp + 0x20] = a5\n 39014: a5 = a5 | a3\n 39017: a3 = a1 | a4\n 39020: a3 = a3 | a5\n 39023: a3 = a3 >> 0x20\n 39026: u64 [sp + 0x30] = a4\n 39029: a4 = a4 | a5\n 39032: a4 = a4 << 0x20\n 39035: a3 = a3 | a4\n 39038: u64 [sp + 0x38] = a0\n 39041: jump @1397 if a3 != 0\n      : @1394 (gas: 10)\n 39045: a0 = u64 [a2 + 0x18]\n 39048: u64 [sp + 0x10] = a0\n 39051: s1 = u64 [a2 + 0x10]\n 39054: a0 = u64 [a2 + 0x8]\n 39057: u64 [sp + 0x8] = a0\n 39060: a0 = u64 [a2]\n 39062: u64 [sp] = a0\n 39064: a0 = sp + 0x80\n 39068: u64 [sp + 0x18] = a1\n 39071: ra = 1508, jump @23\n      : @1395 [@dyn 754] (gas: 19)\n 39078: t0 = u64 [sp + 0x10]\n 39081: a5 = u64 [sp + 0x8]\n 39084: t1 = u64 [sp]\n 39086: a0 = u64 [sp + 0x88]\n 39090: a1 = u64 [sp + 0x98]\n 39094: a2 = u64 [sp + 0x80]\n 39098: a3 = u64 [sp + 0x90]\n 39102: a4 = a0 ^ a5\n 39105: a0 = a5 <u a0\n 39108: a2 = t1 <u a2\n 39111: a2 = a0 if a4 != 0\n 39114: a0 = s1 <u a3\n 39117: a4 = a1 ^ t0\n 39120: a1 = t0 <u a1\n 39123: a1 = a0 if a4 == 0\n 39126: a3 = a3 ^ s1\n 39129: a3 = a3 | a4\n 39132: a1 = a2 if a3 == 0\n 39135: jump @1398 if a1 == 0\n      : @1396 (gas: 47)\n 39139: a0 = s1 >> 0x3b\n 39142: a1 = t0 << 0x5\n 39145: t0 = a1 | a0\n 39148: a1 = a5 >> 0x3b\n 39151: s1 = s1 << 0x5\n 39154: a1 = a1 | s1\n 39157: a2 = t1 >> 0x3b\n 39160: a3 = a5 << 0x5\n 39163: a2 = a2 | a3\n 39166: a3 = t1 << 0x5\n 39169: a0 = u64 [sp + 0x18]\n 39172: a3 = a3 + a0\n 39175: a4 = a3 <u a0\n 39178: a5 = u64 [sp + 0x20]\n 39181: a2 = a2 + a5\n 39184: a2 = a2 + a4\n 39187: a0 = a2 ^ a5\n 39190: s1 = a2 <u a5\n 39193: s1 = a4 if a0 == 0\n 39196: a5 = u64 [sp + 0x30]\n 39199: a1 = a1 + a5\n 39202: s1 = s1 + a1\n 39205: a4 = s1 <u a1\n 39208: a1 = a1 <u a5\n 39211: a5 = u64 [sp + 0x28]\n 39214: a0 = a5 + t0\n 39217: a0 = a0 + a1\n 39220: a0 = a0 + a4\n 39223: a1 = a3 + 0x20\n 39226: a3 = a1 <u a3\n 39229: a4 = a2 + a3\n 39232: a2 = a4 <u a2\n 39235: a2 = a3 if a3 == 0\n 39238: a2 = a2 + s1\n 39241: a3 = a2 <u s1\n 39244: a0 = a0 + a3\n 39247: a3 = u64 [sp + 0x38]\n 39250: u64 [a3] = a1\n 39252: u64 [a3 + 0x8] = a4\n 39255: u64 [a3 + 0x10] = a2\n 39258: u64 [a3 + 0x18] = a0\n 39261: sp = s0 + 0xffffffffffffff40\n 39265: ra = u64 [sp + 0xb8]\n 39269: s0 = u64 [sp + 0xb0]\n 39273: s1 = u64 [sp + 0xa8]\n 39277: sp = sp + 0xc0\n 39281: ret\n      : @1397 (gas: 1)\n 39283: trap\n      : @1398 (gas: 6)\n 39284: u64 [sp + 112] = 0\n 39287: u64 [sp + 104] = 0\n 39290: u64 [sp + 96] = 0\n 39293: t0 = 0x5e6\n 39297: a0 = 0x4e487b7100000000\n 39307: fallthrough\n      : @1399 [@dyn 755] (gas: 4)\n 39308: a1 = sp + 0x60\n 39311: u64 [sp + 0x78] = a0\n 39314: a0 = 0\n 39316: ra = 1512, jump @25\n      : @1400 [@dyn 756] (gas: 7)\n 39323: u64 [sp + 88] = 0\n 39326: u64 [sp + 80] = 0\n 39329: u64 [sp + 64] = 0x32\n 39333: a0 = 0x4\n 39336: a1 = sp + 0x40\n 39339: u64 [sp + 72] = 0\n 39342: ra = 1514, jump @25\n      : @1401 [@dyn 757] (gas: 2)\n 39349: a1 = i32 [0x2019c]\n 39354: jump @1403 if a1 >u 63\n      : @1402 (gas: 2)\n 39358: u32 [0x2019c] = 0x40\n 39364: fallthrough\n      : @1403 (gas: 7)\n 39365: a1 = 0x201b0\n 39370: i32 a1 = a1 + 0\n 39372: a0 = 0x1\n 39375: a2 = 0x24\n 39378: ra = 0x5ec\n 39382: ecalli 7 // 'seal_return'\n 39384: fallthrough\n      : @1404 [@dyn 758] (gas: 10)\n 39385: a3 = u64 [a1 + 0x18]\n 39388: a4 = u64 [a1 + 0x10]\n 39391: t0 = u64 [a1 + 0x8]\n 39394: a5 = a3 >u 0\n 39396: a2 = a4 >u 0\n 39398: a2 = a5 if a3 != 0\n 39401: a3 = a3 | a4\n 39404: a4 = t0 >u 0\n 39406: a4 = a2 if a3 != 0\n 39409: jump @1406 if a4 != 0\n      : @1405 (gas: 16)\n 39412: a1 = u64 [a1]\n 39414: a2 = a1 + 0x1f\n 39417: a1 = a2 <u a1\n 39420: a1 = a1 + t0\n 39423: a1 = a1 & 0x1\n 39426: a2 = a2 & 0xffffffffffffffe0\n 39429: a3 = a2 + 0x20\n 39432: a2 = a3 <u a2\n 39435: a4 = a1 + a2\n 39438: a1 = a4 <u a1\n 39441: a1 = a2 if a2 == 0\n 39444: u64 [a0 + 24] = 0\n 39447: u64 [a0] = a3\n 39449: u64 [a0 + 0x8] = a4\n 39452: u64 [a0 + 0x10] = a1\n 39455: ret\n      : @1406 (gas: 6)\n 39457: sp = sp + 0xffffffffffffffb0\n 39460: u64 [sp + 0x48] = ra\n 39463: u64 [sp + 0x40] = s0\n 39466: s0 = sp + 0x50\n 39469: sp = sp & 0xfffffffffffffff0\n 39472: t0 = 1518, jump @1533\n      : @1407 [@dyn 759] (gas: 1)\n 39478: ra = 1520, jump @25\n      : @1408 [@dyn 760] (gas: 7)\n 39485: u64 [sp + 24] = 0\n 39488: u64 [sp + 16] = 0\n 39491: u64 [sp + 0] = 0x41\n 39494: a0 = 0x4\n 39497: a1 = sp\n 39499: u64 [sp + 8] = 0\n 39502: ra = 1522, jump @25\n      : @1409 [@dyn 761] (gas: 2)\n 39509: a1 = i32 [0x2019c]\n 39514: jump @1411 if a1 >u 63\n      : @1410 (gas: 2)\n 39518: u32 [0x2019c] = 0x40\n 39524: fallthrough\n      : @1411 (gas: 7)\n 39525: a1 = 0x201b0\n 39530: i32 a1 = a1 + 0\n 39532: a0 = 0x1\n 39535: a2 = 0x24\n 39538: ra = 0x5f4\n 39542: ecalli 7 // 'seal_return'\n 39544: fallthrough\n      : @1412 [@dyn 762] (gas: 16)\n 39545: sp = sp + 0xfffffffffffffc50\n 39549: a2 = sp + 0x300\n 39553: u64 [a2 + 0xa8] = ra\n 39557: u64 [a2 + 0xa0] = s0\n 39561: u64 [a2 + 0x98] = s1\n 39565: s0 = sp + 0x3b0\n 39569: sp = sp & 0xfffffffffffffff0\n 39572: a3 = u64 [a1 + 0x10]\n 39575: s1 = u64 [a1 + 0x18]\n 39578: a5 = u64 [a1 + 0x8]\n 39581: t0 = u64 [a1]\n 39583: a1 = a5 | s1\n 39586: a2 = t0 | a3\n 39589: a1 = a1 | a2\n 39592: u64 [sp] = a0\n 39594: jump @1468 if a1 == 0\n      : @1413 (gas: 11)\n 39598: u64 [sp + 128] = 0\n 39602: u64 [sp + 120] = 0\n 39605: a0 = 0\n 39607: u64 [sp + 112] = 0\n 39610: u64 [sp + 0x88] = t0\n 39614: u64 [sp + 0x108] = a5\n 39618: a4 = a5\n 39620: u64 [sp + 0x68] = a3\n 39623: u64 [sp + 0x60] = s1\n 39626: a1 = s1\n 39628: fallthrough\n      : @1414 (gas: 6)\n 39629: u64 [sp + 0x100] = a0\n 39633: s1 = a1\n 39635: a0 = t0 | a3\n 39638: a1 = a1 | a4\n 39641: a0 = a0 | a1\n 39644: jump @1432 if a0 == 0\n      : @1415 (gas: 22)\n 39648: t1 = a3\n 39650: t2 = a4\n 39652: a3 = u64 [sp + 0x80]\n 39656: a3 = a3 + 0x1\n 39659: a1 = a3 <u 0x1\n 39662: a4 = u64 [sp + 0x78]\n 39665: a4 = a4 + a1\n 39668: a1 = a3 | a4\n 39671: a1 = a1 <u 0x1\n 39674: a2 = u64 [sp + 0x100]\n 39678: a5 = a2 + a1\n 39681: a1 = a5 <u a2\n 39684: a2 = u64 [sp + 0x70]\n 39687: a2 = a2 + a1\n 39690: u64 [sp + 0x70] = a2\n 39693: u64 [sp + 0x78] = a4\n 39696: a1 = a4 | a2\n 39699: u64 [sp + 0x80] = a3\n 39703: u64 [sp + 0x58] = a5\n 39706: a2 = a3 | a5\n 39709: a1 = a1 | a2\n 39712: jump @1477 if a1 == 0\n      : @1416 (gas: 50)\n 39716: a0 = a0 <u 0x1\n 39719: u64 [sp + 0x100] = a0\n 39723: a0 = clz t1\n 39725: a0 = a0 + 0x40\n 39728: a2 = clz s1\n 39730: a2 = a0 if s1 == 0\n 39733: a0 = clz t0\n 39735: a0 = a0 + 0x40\n 39738: a3 = clz t2\n 39740: a3 = a0 if t2 == 0\n 39743: a0 = a3 + 0x80\n 39747: a4 = t1 | s1\n 39750: a2 = a0 if a4 == 0\n 39753: a3 = a0 <u a3\n 39756: a3 = 0 if a4 != 0\n 39758: a4 = a3 >u 0\n 39760: a0 = a2 <u 0xfd\n 39764: a1 = a0 ^ 0x1\n 39767: a4 = a1 if a3 == 0\n 39770: a0 = a4 <u 0x1\n 39773: u64 [sp + 0xb0] = t1\n 39777: u64 [sp + 0xb8] = s1\n 39781: a5 = a0 + 0xffffffffffffffff\n 39784: t1 = -a4\n 39786: a3 = -a3\n 39788: a3 = a3 - a1\n 39791: ra = 0xfc - a2\n 39795: a1 = t1 >u 0\n 39797: s1 = a5 >u 0\n 39799: s1 = a1 if a5 == 0\n 39802: a2 = a3 >u 0\n 39804: a1 = ra <u 0x100\n 39808: a1 = a1 ^ 0x1\n 39811: u64 [sp + 0xf0] = a3\n 39815: a1 = a2 if a3 != 0\n 39818: a1 = s1 if a4 != 0\n 39821: a2 = u64 [sp + 0x100]\n 39825: a2 = a2 | a1\n 39828: a1 = u64 [sp + 0xb8]\n 39832: a3 = u64 [sp + 0xb0]\n 39836: a1 = 0 if a2 != 0\n 39838: a3 = 0 if a2 != 0\n 39840: u64 [sp + 0x100] = t2\n 39844: a4 = t2\n 39846: a4 = 0 if a2 != 0\n 39848: u64 [sp + 0xa8] = t0\n 39852: t0 = 0 if a2 != 0\n 39854: s1 = u64 [sp + 0x58]\n 39857: a0 = s1\n 39859: jump @1414 if a2 != 0\n      : @1417 (gas: 7)\n 39863: a2 = ra ^ 0xff\n 39867: a2 = a2 | t1\n 39870: a0 = u64 [sp + 0xf0]\n 39874: a0 = a0 | a5\n 39877: a2 = a2 | a0\n 39880: a0 = s1\n 39882: jump @1414 if a2 == 0\n      : @1418 (gas: 18)\n 39886: a1 = ra + 0x1\n 39889: u64 [sp + 0xf8] = a1\n 39893: a0 = a1 <u 0x1\n 39896: a2 = u64 [sp + 0xf0]\n 39900: a0 = a0 + a2\n 39903: u64 [sp + 0xd0] = a0\n 39907: a0 = a0 | a1\n 39910: a0 = a0 <u 0x1\n 39913: a0 = a0 + t1\n 39916: u64 [sp + 0xc0] = a0\n 39920: a0 = a0 <u t1\n 39923: a0 = a0 + a5\n 39926: u64 [sp + 0xc8] = a0\n 39930: s1 = 0xff - ra\n 39934: a2 = 0x80 - s1\n 39938: a0 = u64 [sp + 0xa8]\n 39942: a1 = u64 [sp + 0x100]\n 39946: ra = 1526, jump @1580\n      : @1419 [@dyn 763] (gas: 6)\n 39952: u64 [sp + 0xf0] = a0\n 39956: u64 [sp + 0xe0] = a1\n 39960: a0 = u64 [sp + 0xb0]\n 39964: a1 = u64 [sp + 0xb8]\n 39968: a2 = s1\n 39970: ra = 1528, jump @1585\n      : @1420 [@dyn 764] (gas: 8)\n 39976: u64 [sp + 0xe8] = a0\n 39980: a0 = u64 [sp + 0xe0]\n 39984: a0 = a0 | a1\n 39987: u64 [sp + 0xe0] = a0\n 39991: a2 = s1 + 0xffffffffffffff80\n 39994: a0 = u64 [sp + 0xa8]\n 39998: a1 = u64 [sp + 0x100]\n 40002: ra = 1530, jump @1585\n      : @1421 [@dyn 765] (gas: 18)\n 40008: a2 = s1 <u 0x80\n 40012: u64 [sp + 0xa0] = a2\n 40016: a3 = u64 [sp + 0xe0]\n 40020: a1 = a3 if a2 != 0\n 40023: a3 = u64 [sp + 0xb8]\n 40027: a1 = a3 if s1 == 0\n 40030: u64 [sp + 0xe0] = a1\n 40034: a1 = u64 [sp + 0xf0]\n 40038: a3 = u64 [sp + 0xe8]\n 40042: a1 = a1 | a3\n 40045: a1 = a0 if a2 == 0\n 40048: a0 = u64 [sp + 0xb0]\n 40052: a1 = a0 if s1 == 0\n 40055: u64 [sp + 0xe8] = a1\n 40059: a0 = u64 [sp + 0xa8]\n 40063: a1 = u64 [sp + 0x100]\n 40067: a2 = s1\n 40069: ra = 1532, jump @1585\n      : @1422 [@dyn 766] (gas: 13)\n 40075: a2 = u64 [sp + 0xc0]\n 40079: a3 = u64 [sp + 0xc8]\n 40083: a5 = u64 [sp + 0xd0]\n 40087: a5 = a5 | a3\n 40090: s1 = u64 [sp + 0xf8]\n 40094: s1 = s1 | a2\n 40097: a5 = a5 | s1\n 40100: a2 = u64 [sp + 0xa0]\n 40104: a1 = 0 if a2 == 0\n 40106: u64 [sp + 0xd8] = a1\n 40110: a0 = 0 if a2 == 0\n 40112: u64 [sp + 0xf0] = a0\n 40116: jump @1430 if a5 == 0\n      : @1423 (gas: 5)\n 40120: s1 = u64 [sp + 0xf8]\n 40124: a2 = s1 + 0xffffffffffffff80\n 40127: a0 = u64 [sp + 0xb0]\n 40131: a1 = u64 [sp + 0xb8]\n 40135: ra = 1534, jump @1580\n      : @1424 [@dyn 767] (gas: 6)\n 40141: u64 [sp + 0xa0] = a0\n 40145: u64 [sp + 0x90] = a1\n 40149: a0 = u64 [sp + 0xa8]\n 40153: a1 = u64 [sp + 0x100]\n 40157: a2 = s1\n 40159: ra = 1536, jump @1580\n      : @1425 [@dyn 768] (gas: 6)\n 40165: u64 [sp + 0x50] = a0\n 40168: u64 [sp + 0x98] = a1\n 40172: a2 = 0x80 - s1\n 40176: a0 = u64 [sp + 0xb0]\n 40180: a1 = u64 [sp + 0xb8]\n 40184: ra = 1538, jump @1585\n      : @1426 [@dyn 769] (gas: 20)\n 40190: a2 = u64 [sp + 0x98]\n 40194: a1 = a1 | a2\n 40197: a2 = s1 <u 0x80\n 40201: u64 [sp + 0x98] = a2\n 40205: a3 = u64 [sp + 0x90]\n 40209: a1 = a3 if a2 == 0\n 40212: a3 = u64 [sp + 0x100]\n 40216: a3 = a1 if s1 != 0\n 40219: u64 [sp + 0x100] = a3\n 40223: a1 = u64 [sp + 0x50]\n 40226: a0 = a0 | a1\n 40229: a1 = u64 [sp + 0xa0]\n 40233: a0 = a1 if a2 == 0\n 40236: a1 = u64 [sp + 0xa8]\n 40240: a1 = a0 if s1 != 0\n 40243: u64 [sp + 0xa8] = a1\n 40247: a0 = u64 [sp + 0xb0]\n 40251: a1 = u64 [sp + 0xb8]\n 40255: a2 = s1\n 40257: ra = 1540, jump @1580\n      : @1427 [@dyn 770] (gas: 8)\n 40263: a5 = 0\n 40265: a2 = u64 [sp + 0x98]\n 40269: a1 = 0 if a2 == 0\n 40271: a0 = 0 if a2 == 0\n 40273: u64 [sp + 152] = 0x9\n 40278: u64 [sp + 144] = 0\n 40282: t0 = u64 [sp + 0xa8]\n 40286: fallthrough\n      : @1428 (gas: 85)\n 40287: u64 [sp + 0xa8] = a1\n 40291: u64 [sp + 0xb0] = a5\n 40295: u64 [sp + 160] = 0\n 40299: a2 = t0 >> 0x3f\n 40302: a5 = u64 [sp + 0x100]\n 40306: a3 = a5 << 0x1\n 40309: a3 = a3 | a2\n 40312: t0 = t0 << 0x1\n 40315: t1 = u64 [sp + 0xe0]\n 40319: a4 = t1 >> 0x3f\n 40322: a1 = t0 | a4\n 40325: u64 [sp + 0xb8] = a1\n 40329: t2 = u64 [sp + 0x90]\n 40333: ra = t2 ^ a3\n 40336: a4 = t2 <u a3\n 40339: s1 = u64 [sp + 0x98]\n 40343: t0 = s1 <u a1\n 40346: t0 = a4 if ra != 0\n 40349: a1 = u64 [sp + 0xa8]\n 40353: a1 = a1 << 0x1\n 40356: a4 = a0 >> 0x3f\n 40359: ra = a1 | a4\n 40362: a4 = a5 >> 0x3f\n 40365: a0 = a0 << 0x1\n 40368: a4 = a4 | a0\n 40371: a0 = t1 << 0x1\n 40374: a1 = u64 [sp + 0xe8]\n 40378: s1 = a1 >> 0x3f\n 40381: t1 = a0 | s1\n 40384: s1 = a1 << 0x1\n 40387: a1 = u64 [sp + 0xd8]\n 40391: a5 = a1 >> 0x3f\n 40394: a5 = a5 | s1\n 40397: a0 = a1 << 0x1\n 40400: s1 = u64 [sp + 0xf0]\n 40404: a1 = s1 >> 0x3f\n 40407: a1 = a1 | a0\n 40410: s1 = s1 << 0x1\n 40413: a0 = u64 [sp + 0xb0]\n 40417: s1 = s1 | a0\n 40420: u64 [sp + 0xf0] = s1\n 40424: a1 = a1 | 0\n 40426: u64 [sp + 0xd8] = a1\n 40430: a1 = a5 | 0\n 40432: u64 [sp + 0xe8] = a1\n 40436: a0 = t1 | 0\n 40438: u64 [sp + 0xe0] = a0\n 40442: a0 = t2 - a4\n 40445: a0 = a0 <u t0\n 40448: a1 = t2 <u a4\n 40451: a5 = t2 - ra\n 40454: a5 = a5 - a1\n 40457: a5 = a5 - a0\n 40460: a5 = a5 >>a 0x3f\n 40463: a0 = a5 & 0xa\n 40466: a1 = u64 [sp + 0xb8]\n 40470: t0 = a1 - a0\n 40473: a1 = a1 <u a0\n 40476: a0 = a3 - a1\n 40479: u64 [sp + 0x100] = a0\n 40483: a1 = 0 if a3 != 0\n 40485: a0 = a4 - a1\n 40488: a1 = a4 <u a1\n 40491: a1 = ra - a1\n 40494: s1 = u64 [sp + 0xf8]\n 40498: a3 = u64 [sp + 0xd0]\n 40502: a2 = s1 | a3\n 40505: a2 = a2 <u 0x1\n 40508: a4 = u64 [sp + 0xc0]\n 40512: t1 = a4 <u a2\n 40515: a2 = a4 - a2\n 40518: a4 = s1 <u 0x1\n 40521: a3 = a3 - a4\n 40524: a4 = u64 [sp + 0xc8]\n 40528: a4 = a4 - t1\n 40531: s1 = s1 + 0xffffffffffffffff\n 40534: u64 [sp + 0xd0] = a3\n 40538: u64 [sp + 0xc8] = a4\n 40542: a3 = a3 | a4\n 40545: u64 [sp + 0xf8] = s1\n 40549: a4 = s1 | a2\n 40552: a3 = a3 | a4\n 40555: a5 = a5 & 0x1\n 40558: u64 [sp + 0xc0] = a2\n 40562: jump @1428 if a3 != 0\n      : @1429 (gas: 1)\n 40566: jump @1431\n      : @1430 (gas: 2)\n 40568: u64 [sp + 160] = 0\n 40572: fallthrough\n      : @1431 (gas: 21)\n 40573: a2 = u64 [sp + 0xe8]\n 40577: a0 = a2 >> 0x3f\n 40580: a1 = u64 [sp + 0xe0]\n 40584: a1 = a1 << 0x1\n 40587: a0 = a0 | a1\n 40590: a3 = u64 [sp + 0xd8]\n 40594: a1 = a3 >> 0x3f\n 40597: a2 = a2 << 0x1\n 40600: s1 = a2 | a1\n 40603: a4 = u64 [sp + 0xf0]\n 40607: a2 = a4 >> 0x3f\n 40610: a3 = a3 << 0x1\n 40613: a4 = a4 << 0x1\n 40616: t0 = a5 | a4\n 40619: a1 = u64 [sp + 0xa0]\n 40623: a5 = a1 | a2\n 40626: a4 = a5 | a3\n 40629: a3 = a1 | s1\n 40632: a1 = a1 | a0\n 40635: a0 = u64 [sp + 0x58]\n 40638: jump @1414\n      : @1432 (gas: 12)\n 40641: a0 = u64 [sp + 0x80]\n 40645: a3 = sp + 0x300\n 40649: u64 [a3 + 0x10] = a0\n 40652: a0 = u64 [sp + 0x78]\n 40655: u64 [a3 + 0x18] = a0\n 40658: a0 = u64 [sp + 0x100]\n 40662: u64 [a3 + 0x20] = a0\n 40665: a0 = sp + 0x330\n 40669: a1 = sp + 0x310\n 40673: a2 = u64 [sp + 0x70]\n 40676: u64 [a3 + 0x28] = a2\n 40679: ra = 1542, jump @1404\n      : @1433 [@dyn 771] (gas: 12)\n 40685: a1 = sp + 0x300\n 40689: a0 = u64 [a1 + 0x30]\n 40692: u64 [sp + 0xf8] = a0\n 40696: a0 = u64 [a1 + 0x38]\n 40699: u64 [sp + 0xf0] = a0\n 40703: a0 = u64 [a1 + 0x40]\n 40706: u64 [sp + 0xe8] = a0\n 40710: a0 = u64 [a1 + 0x48]\n 40713: u64 [sp + 0xe0] = a0\n 40717: a0 = sp + 0x2f0\n 40721: a1 = 0x40\n 40724: ra = 1544, jump @23\n      : @1434 [@dyn 772] (gas: 23)\n 40731: a0 = u64 [sp + 0x308]\n 40735: u64 [sp + 0x18] = a0\n 40738: s1 = u64 [sp + 0x300]\n 40742: a4 = sp + 0x200\n 40746: a2 = u64 [a4 + 0xf8]\n 40750: u64 [sp + 0x10] = a2\n 40753: a3 = u64 [a4 + 0xf0]\n 40757: u64 [sp + 0x40] = a3\n 40760: a1 = u64 [sp + 0xe0]\n 40764: u64 [a4 + 0xc8] = a1\n 40768: a1 = u64 [sp + 0xe8]\n 40772: u64 [a4 + 0xc0] = a1\n 40776: a1 = u64 [sp + 0xf0]\n 40780: u64 [a4 + 0xb8] = a1\n 40784: a1 = u64 [sp + 0xf8]\n 40788: u64 [a4 + 0xb0] = a1\n 40792: u64 [a4 + 0xe8] = a0\n 40796: u64 [a4 + 0xe0] = s1\n 40800: u64 [a4 + 0xd8] = a2\n 40804: a0 = sp + 0x2d0\n 40808: a1 = sp + 0x2b0\n 40812: u64 [a4 + 0xd0] = a3\n 40816: ra = 1546, jump @1177\n      : @1435 [@dyn 773] (gas: 12)\n 40822: a0 = u64 [sp + 0x40]\n 40825: a1 = u64 [sp + 0x18]\n 40828: a2 = u64 [sp + 0x10]\n 40831: a2 = a2 | a1\n 40834: a1 = a0 | s1\n 40837: a1 = a1 | a2\n 40840: a1 = a1 >> 0x20\n 40843: u64 [sp + 0x8] = s1\n 40846: a2 = a2 | s1\n 40849: a2 = a2 << 0x20\n 40852: a1 = a1 | a2\n 40855: jump @1476 if a1 != 0\n      : @1436 (gas: 11)\n 40859: a1 = u64 [sp + 0x80]\n 40863: a2 = sp + 0x200\n 40867: u64 [a2 + 0x90] = a1\n 40871: a1 = u64 [sp + 0x78]\n 40874: u64 [a2 + 0x98] = a1\n 40878: a1 = u64 [sp + 0x100]\n 40882: u64 [a2 + 0xa0] = a1\n 40886: a1 = sp + 0x290\n 40890: s1 = u64 [sp + 0x70]\n 40893: u64 [a2 + 0xa8] = s1\n 40897: ra = 1548, jump @25\n      : @1437 [@dyn 774] (gas: 11)\n 40904: a3 = sp + 0x200\n 40908: u64 [a3 + 0x68] = s1\n 40911: a0 = u64 [sp + 0x100]\n 40915: u64 [a3 + 0x60] = a0\n 40918: a0 = u64 [sp + 0x78]\n 40921: u64 [a3 + 0x58] = a0\n 40924: a0 = sp + 0x270\n 40928: a1 = sp + 0x250\n 40932: a2 = u64 [sp + 0x80]\n 40936: u64 [a3 + 0x50] = a2\n 40939: ra = 1550, jump @1404\n      : @1438 [@dyn 775] (gas: 26)\n 40945: a1 = sp + 0x200\n 40949: a0 = u64 [a1 + 0x70]\n 40952: s1 = u64 [a1 + 0x88]\n 40956: a2 = u64 [a1 + 0x78]\n 40959: a3 = u64 [a1 + 0x80]\n 40963: a1 = a0 + 0xffffffffffffffe0\n 40966: a0 = a1 <u a0\n 40969: a4 = a2 + a0\n 40972: a4 = a4 + 0xffffffffffffffff\n 40975: a5 = a4 ^ a2\n 40978: a2 = a4 <u a2\n 40981: a2 = a0 if a5 == 0\n 40984: a0 = a3 + 0xffffffffffffffff\n 40987: a2 = a2 + a0\n 40990: a0 = a2 <u a0\n 40993: a3 = a3 <u 0x1\n 40996: s1 = s1 - a3\n 40999: a0 = a0 + s1\n 41002: a3 = a1 | a2\n 41005: a0 = a0 | a4\n 41008: a3 = a3 | a0\n 41011: a3 = a3 >> 0x20\n 41014: a0 = a0 | a2\n 41017: a0 = a0 << 0x20\n 41020: a0 = a0 | a3\n 41023: jump @1476 if a0 != 0\n      : @1439 (gas: 10)\n 41027: a0 = u64 [sp + 0x18]\n 41030: a2 = u64 [sp + 0x8]\n 41033: a0 = a0 | a2\n 41036: a3 = 0xffffffe0\n 41046: a2 = u64 [sp + 0x40]\n 41049: a3 = a2 <u a3\n 41052: a4 = u64 [sp + 0x10]\n 41055: a3 = 0 if a4 != 0\n 41057: a3 = 0 if a0 != 0\n 41059: jump @1476 if a3 == 0\n      : @1440 (gas: 5)\n 41063: a0 = i32 [0x20198]\n 41068: u64 [sp + 0xf8] = a0\n 41072: i32 a0 = a2 + 0x20\n 41075: s1 = a1\n 41077: ra = 1552, jump @38\n      : @1441 [@dyn 776] (gas: 29)\n 41084: i32 a0 = a0 + 0\n 41086: i32 a1 = s1 + 0\n 41088: a2 = u64 [sp + 0xf8]\n 41092: ecalli 0 // 'call_data_copy'\n 41093: a1 = u64 [sp + 0x40]\n 41096: a0 = a1 + 0x1f\n 41099: u64 [sp + 0x38] = a0\n 41102: a0 = a0 <u a1\n 41105: a3 = u64 [sp + 0x10]\n 41108: a2 = a3 + a0\n 41111: u64 [sp + 0x30] = a2\n 41114: a2 = a2 <u a3\n 41117: a2 = a0 if a0 == 0\n 41120: a0 = u64 [sp + 0x8]\n 41123: a2 = a2 + a0\n 41126: u64 [sp + 0x28] = a2\n 41129: a0 = a2 <u a0\n 41132: a2 = u64 [sp + 0x18]\n 41135: a0 = a0 + a2\n 41138: u64 [sp + 0x20] = a0\n 41141: t1 = u64 [sp + 0x88]\n 41145: t2 = u64 [sp + 0x68]\n 41148: a2 = u64 [sp + 0x60]\n 41151: t0 = u64 [sp + 0x70]\n 41154: a5 = u64 [sp + 0x80]\n 41158: a4 = u64 [sp + 0x78]\n 41161: a3 = u64 [sp + 0x100]\n 41165: s1 = u64 [sp + 0x108]\n 41169: fallthrough\n      : @1442 (gas: 5)\n 41170: a0 = t1 | t2\n 41173: u64 [sp + 0x108] = s1\n 41177: s1 = s1 | a2\n 41180: a0 = a0 | s1\n 41183: jump @1467 if a0 == 0\n      : @1443 (gas: 8)\n 41187: u64 [sp + 0xf8] = a0\n 41191: u64 [sp + 0x60] = a2\n 41194: u64 [sp + 0x68] = t2\n 41197: u64 [sp + 0x88] = t1\n 41201: a0 = a5 | a3\n 41204: a2 = a4 | t0\n 41207: a0 = a0 | a2\n 41210: jump @1483 if a0 == 0\n      : @1444 (gas: 17)\n 41214: a0 = a5 | a4\n 41217: a0 = a0 <u 0x1\n 41220: a2 = a3 <u a0\n 41223: a2 = t0 - a2\n 41226: u64 [sp + 0x90] = a2\n 41230: a0 = a3 - a0\n 41233: u64 [sp + 0x58] = a0\n 41236: a0 = a5 <u 0x1\n 41239: s1 = a4 - a0\n 41242: a0 = a5 + 0xffffffffffffffff\n 41245: u64 [sp + 0x50] = a0\n 41248: a0 = sp + 0x230\n 41252: u64 [sp + 0x70] = t0\n 41255: u64 [sp + 0x80] = a5\n 41259: u64 [sp + 0x78] = a4\n 41262: u64 [sp + 0x100] = a3\n 41266: ra = 1554, jump @23\n      : @1445 [@dyn 777] (gas: 21)\n 41273: a4 = sp + 0x200\n 41277: a0 = u64 [a4 + 0x38]\n 41280: a1 = u64 [a4 + 0x48]\n 41283: a2 = u64 [a4 + 0x30]\n 41286: a3 = u64 [a4 + 0x40]\n 41289: a4 = s1 ^ a0\n 41292: u64 [sp + 0x48] = s1\n 41295: a0 = s1 <u a0\n 41298: a5 = u64 [sp + 0x50]\n 41301: a2 = a5 <u a2\n 41304: a2 = a0 if a4 != 0\n 41307: a5 = u64 [sp + 0x58]\n 41310: a0 = a5 <u a3\n 41313: a4 = u64 [sp + 0x90]\n 41317: s1 = a4 ^ a1\n 41320: a1 = a4 <u a1\n 41323: a1 = a0 if s1 == 0\n 41326: a0 = a5 ^ a3\n 41329: a0 = a0 | s1\n 41332: a1 = a2 if a0 == 0\n 41335: jump @1489 if a1 == 0\n      : @1446 (gas: 32)\n 41339: a0 = u64 [sp + 0x38]\n 41342: a5 = u64 [sp + 0x80]\n 41346: a5 = a5 + a0\n 41349: a0 = a5 <u a0\n 41352: a3 = u64 [sp + 0x30]\n 41355: a1 = u64 [sp + 0x78]\n 41358: a1 = a1 + a3\n 41361: a1 = a1 + a0\n 41364: a2 = a1 ^ a3\n 41367: a3 = a1 <u a3\n 41370: a3 = a0 if a2 == 0\n 41373: a4 = u64 [sp + 0x28]\n 41376: a0 = u64 [sp + 0x100]\n 41380: a0 = a0 + a4\n 41383: a3 = a3 + a0\n 41386: a2 = a3 <u a0\n 41389: a0 = a0 <u a4\n 41392: a4 = u64 [sp + 0x20]\n 41395: s1 = u64 [sp + 0x70]\n 41398: a4 = a4 + s1\n 41401: a0 = a0 + a4\n 41404: a0 = a0 + a2\n 41407: u64 [sp + 0x80] = a5\n 41411: a2 = a5 | a3\n 41414: a0 = a0 | a1\n 41417: a2 = a2 | a0\n 41420: a2 = a2 >> 0x20\n 41423: a0 = a0 | a3\n 41426: a0 = a0 << 0x20\n 41429: a0 = a0 | a2\n 41432: t2 = u64 [sp + 0x88]\n 41436: jump @1476 if a0 != 0\n      : @1447 (gas: 48)\n 41440: a0 = u64 [sp + 0xf8]\n 41444: a0 = a0 <u 0x1\n 41447: u64 [sp + 0x100] = a0\n 41451: t0 = u64 [sp + 0x68]\n 41454: a0 = clz t0\n 41456: a0 = a0 + 0x40\n 41459: t1 = u64 [sp + 0x60]\n 41462: a2 = clz t1\n 41464: a2 = a0 if t1 == 0\n 41467: a0 = clz t2\n 41469: a0 = a0 + 0x40\n 41472: ra = u64 [sp + 0x108]\n 41476: a1 = clz ra\n 41478: a1 = a0 if ra == 0\n 41481: a0 = a1 + 0x80\n 41485: a3 = t0 | t1\n 41488: a2 = a0 if a3 == 0\n 41491: a5 = a0 <u a1\n 41494: a5 = 0 if a3 != 0\n 41496: s1 = a5 >u 0\n 41498: a0 = a2 <u 0xfd\n 41502: a3 = a0 ^ 0x1\n 41505: s1 = a3 if a5 == 0\n 41508: a0 = s1 <u 0x1\n 41511: a0 = a0 + 0xffffffffffffffff\n 41514: a4 = -s1\n 41516: a5 = -a5\n 41518: a3 = a5 - a3\n 41521: a2 = 0xfc - a2\n 41525: u64 [sp + 0xf8] = a4\n 41529: a5 = a4 >u 0\n 41531: a4 = a0 >u 0\n 41533: a4 = a5 if a0 == 0\n 41536: a5 = a3 >u 0\n 41538: a1 = a2 <u 0x100\n 41542: a1 = a1 ^ 0x1\n 41545: a1 = a5 if a3 != 0\n 41548: a1 = a4 if s1 != 0\n 41551: a4 = u64 [sp + 0x100]\n 41555: a1 = a1 | a4\n 41558: t1 = 0 if a1 != 0\n 41560: a5 = t0\n 41562: a5 = 0 if a1 != 0\n 41564: ra = 0 if a1 != 0\n 41566: a4 = t2\n 41568: a4 = 0 if a1 != 0\n 41570: u64 [sp + 0x100] = a4\n 41574: jump @1462 if a1 != 0\n      : @1448 (gas: 7)\n 41578: a1 = a2 ^ 0xff\n 41582: s1 = u64 [sp + 0xf8]\n 41586: a1 = a1 | s1\n 41589: a4 = a3 | a0\n 41592: a1 = a1 | a4\n 41595: t0 = 0xa\n 41598: jump @1465 if a1 == 0\n      : @1449 (gas: 13)\n 41602: a4 = a2 + 0x1\n 41605: u64 [sp + 0x100] = a4\n 41609: a1 = a4 <u 0x1\n 41612: a1 = a1 + a3\n 41615: u64 [sp + 0xd8] = a1\n 41619: a1 = a1 | a4\n 41622: a1 = a1 <u 0x1\n 41625: a1 = a1 + s1\n 41628: u64 [sp + 0xc8] = a1\n 41632: a1 = a1 <u s1\n 41635: a0 = a0 + a1\n 41638: u64 [sp + 0xd0] = a0\n 41642: t0 = 1556, jump @1549\n      : @1450 [@dyn 778] (gas: 3)\n 41648: a0 = t2\n 41650: a1 = u64 [sp + 0x108]\n 41654: ra = 1558, jump @1580\n      : @1451 [@dyn 779] (gas: 6)\n 41660: u64 [sp + 0xf8] = a0\n 41664: u64 [sp + 0xe8] = a1\n 41668: a0 = u64 [sp + 0x68]\n 41671: a1 = u64 [sp + 0x60]\n 41674: a2 = s1\n 41676: ra = 1560, jump @1585\n      : @1452 [@dyn 780] (gas: 8)\n 41682: u64 [sp + 0xf0] = a0\n 41686: a0 = u64 [sp + 0xe8]\n 41690: a0 = a0 | a1\n 41693: u64 [sp + 0xe8] = a0\n 41697: a2 = s1 + 0xffffffffffffff80\n 41700: a0 = u64 [sp + 0x88]\n 41704: a1 = u64 [sp + 0x108]\n 41708: ra = 1562, jump @1585\n      : @1453 [@dyn 781] (gas: 18)\n 41714: a2 = s1 <u 0x80\n 41718: u64 [sp + 0xc0] = a2\n 41722: a3 = u64 [sp + 0xe8]\n 41726: a1 = a3 if a2 != 0\n 41729: a3 = u64 [sp + 0x60]\n 41732: a1 = a3 if s1 == 0\n 41735: u64 [sp + 0xe8] = a1\n 41739: a1 = u64 [sp + 0xf8]\n 41743: a3 = u64 [sp + 0xf0]\n 41747: a1 = a1 | a3\n 41750: a1 = a0 if a2 == 0\n 41753: a0 = u64 [sp + 0x68]\n 41756: a1 = a0 if s1 == 0\n 41759: u64 [sp + 0xf0] = a1\n 41763: a0 = u64 [sp + 0x88]\n 41767: a1 = u64 [sp + 0x108]\n 41771: a2 = s1\n 41773: ra = 1564, jump @1585\n      : @1454 [@dyn 782] (gas: 13)\n 41779: a2 = u64 [sp + 0xc8]\n 41783: a3 = u64 [sp + 0xd0]\n 41787: a5 = u64 [sp + 0xd8]\n 41791: a5 = a5 | a3\n 41794: s1 = u64 [sp + 0x100]\n 41798: s1 = s1 | a2\n 41801: a5 = a5 | s1\n 41804: a2 = u64 [sp + 0xc0]\n 41808: a1 = 0 if a2 == 0\n 41810: u64 [sp + 0xe0] = a1\n 41814: a0 = 0 if a2 == 0\n 41816: u64 [sp + 0xf8] = a0\n 41820: jump @1463 if a5 == 0\n      : @1455 (gas: 5)\n 41824: s1 = u64 [sp + 0x100]\n 41828: a2 = s1 + 0xffffffffffffff80\n 41831: a0 = u64 [sp + 0x68]\n 41834: a1 = u64 [sp + 0x60]\n 41837: ra = 1566, jump @1580\n      : @1456 [@dyn 783] (gas: 6)\n 41843: u64 [sp + 0xc0] = a0\n 41847: u64 [sp + 0xb0] = a1\n 41851: a0 = u64 [sp + 0x88]\n 41855: a1 = u64 [sp + 0x108]\n 41859: a2 = s1\n 41861: ra = 1568, jump @1580\n      : @1457 [@dyn 784] (gas: 6)\n 41867: u64 [sp + 0xa8] = a0\n 41871: u64 [sp + 0xb8] = a1\n 41875: a2 = 0x80 - s1\n 41879: a0 = u64 [sp + 0x68]\n 41882: a1 = u64 [sp + 0x60]\n 41885: ra = 1570, jump @1585\n      : @1458 [@dyn 785] (gas: 19)\n 41891: a2 = u64 [sp + 0xb8]\n 41895: a1 = a1 | a2\n 41898: a2 = s1\n 41900: a3 = s1 <u 0x80\n 41904: u64 [sp + 0xb8] = a3\n 41908: a4 = u64 [sp + 0xb0]\n 41912: a1 = a4 if a3 == 0\n 41915: a4 = u64 [sp + 0x108]\n 41919: a4 = a1 if s1 != 0\n 41922: u64 [sp + 0x108] = a4\n 41926: s1 = u64 [sp + 0xa8]\n 41930: s1 = s1 | a0\n 41933: a0 = u64 [sp + 0xc0]\n 41937: s1 = a0 if a3 == 0\n 41940: a0 = u64 [sp + 0x88]\n 41944: s1 = a0 if a2 == 0\n 41947: a0 = u64 [sp + 0x68]\n 41950: a1 = u64 [sp + 0x60]\n 41953: ra = 1572, jump @1580\n      : @1459 [@dyn 786] (gas: 8)\n 41959: t2 = s1\n 41961: a5 = 0\n 41963: a2 = u64 [sp + 0xb8]\n 41967: a1 = 0 if a2 == 0\n 41969: a0 = 0 if a2 == 0\n 41971: u64 [sp + 160] = 0x9\n 41976: u64 [sp + 152] = 0\n 41980: fallthrough\n      : @1460 (gas: 86)\n 41981: u64 [sp + 0xb0] = a1\n 41985: u64 [sp + 0xb8] = a5\n 41989: u64 [sp + 168] = 0\n 41993: a2 = t2 >> 0x3f\n 41996: a5 = u64 [sp + 0x108]\n 42000: a3 = a5 << 0x1\n 42003: a3 = a3 | a2\n 42006: t2 = t2 << 0x1\n 42009: t1 = u64 [sp + 0xe8]\n 42013: a4 = t1 >> 0x3f\n 42016: a1 = t2 | a4\n 42019: u64 [sp + 0xc0] = a1\n 42023: t2 = u64 [sp + 0x98]\n 42027: ra = t2 ^ a3\n 42030: a4 = t2 <u a3\n 42033: s1 = u64 [sp + 0xa0]\n 42037: t0 = s1 <u a1\n 42040: t0 = a4 if ra != 0\n 42043: a1 = u64 [sp + 0xb0]\n 42047: a1 = a1 << 0x1\n 42050: a4 = a0 >> 0x3f\n 42053: ra = a1 | a4\n 42056: a4 = a5 >> 0x3f\n 42059: a0 = a0 << 0x1\n 42062: a4 = a4 | a0\n 42065: a0 = t1 << 0x1\n 42068: a1 = u64 [sp + 0xf0]\n 42072: s1 = a1 >> 0x3f\n 42075: t1 = a0 | s1\n 42078: s1 = a1 << 0x1\n 42081: a1 = u64 [sp + 0xe0]\n 42085: a5 = a1 >> 0x3f\n 42088: a5 = a5 | s1\n 42091: a0 = a1 << 0x1\n 42094: s1 = u64 [sp + 0xf8]\n 42098: a1 = s1 >> 0x3f\n 42101: a1 = a1 | a0\n 42104: s1 = s1 << 0x1\n 42107: a0 = u64 [sp + 0xb8]\n 42111: s1 = s1 | a0\n 42114: u64 [sp + 0xf8] = s1\n 42118: a1 = a1 | 0\n 42120: u64 [sp + 0xe0] = a1\n 42124: a1 = a5 | 0\n 42126: u64 [sp + 0xf0] = a1\n 42130: a0 = t1 | 0\n 42132: u64 [sp + 0xe8] = a0\n 42136: a0 = t2 - a4\n 42139: a0 = a0 <u t0\n 42142: t0 = 0xa\n 42145: a1 = t2 <u a4\n 42148: a5 = t2 - ra\n 42151: a5 = a5 - a1\n 42154: a5 = a5 - a0\n 42157: a5 = a5 >>a 0x3f\n 42160: a0 = a5 & t0\n 42163: a1 = u64 [sp + 0xc0]\n 42167: t2 = a1 - a0\n 42170: a1 = a1 <u a0\n 42173: a0 = a3 - a1\n 42176: u64 [sp + 0x108] = a0\n 42180: a1 = 0 if a3 != 0\n 42182: a0 = a4 - a1\n 42185: a1 = a4 <u a1\n 42188: a1 = ra - a1\n 42191: s1 = u64 [sp + 0x100]\n 42195: a3 = u64 [sp + 0xd8]\n 42199: a2 = s1 | a3\n 42202: a2 = a2 <u 0x1\n 42205: a4 = u64 [sp + 0xc8]\n 42209: t1 = a4 <u a2\n 42212: a2 = a4 - a2\n 42215: a4 = s1 <u 0x1\n 42218: a3 = a3 - a4\n 42221: a4 = u64 [sp + 0xd0]\n 42225: a4 = a4 - t1\n 42228: s1 = s1 + 0xffffffffffffffff\n 42231: u64 [sp + 0xd8] = a3\n 42235: u64 [sp + 0xd0] = a4\n 42239: a3 = a3 | a4\n 42242: u64 [sp + 0x100] = s1\n 42246: a4 = s1 | a2\n 42249: a3 = a3 | a4\n 42252: a5 = a5 & 0x1\n 42255: u64 [sp + 0xc8] = a2\n 42259: jump @1460 if a3 != 0\n      : @1461 (gas: 1)\n 42263: jump @1464\n      : @1462 (gas: 2)\n 42265: t0 = 0xa\n 42268: jump @1465\n      : @1463 (gas: 3)\n 42270: u64 [sp + 168] = 0\n 42274: t0 = 0xa\n 42277: fallthrough\n      : @1464 (gas: 22)\n 42278: a2 = u64 [sp + 0xf0]\n 42282: a0 = a2 >> 0x3f\n 42285: a1 = u64 [sp + 0xe8]\n 42289: a1 = a1 << 0x1\n 42292: a0 = a0 | a1\n 42295: a3 = u64 [sp + 0xe0]\n 42299: a1 = a3 >> 0x3f\n 42302: a2 = a2 << 0x1\n 42305: a1 = a1 | a2\n 42308: a4 = u64 [sp + 0xf8]\n 42312: a2 = a4 >> 0x3f\n 42315: a3 = a3 << 0x1\n 42318: a4 = a4 << 0x1\n 42321: a4 = a4 | a5\n 42324: u64 [sp + 0x100] = a4\n 42328: a4 = u64 [sp + 0xa8]\n 42332: a2 = a2 | a4\n 42335: ra = a2 | a3\n 42338: a5 = a4 | a1\n 42341: t1 = a4 | a0\n 42344: t2 = u64 [sp + 0x88]\n 42348: fallthrough\n      : @1465 (gas: 11)\n 42349: u64 [sp + 0xf0] = ra\n 42353: u64 [sp + 0xf8] = a5\n 42357: u64 [sp + 0x108] = t1\n 42361: s1 = u64 [sp + 0x100]\n 42365: a0 = s1 * 0xa\n 42368: i32 a0 = t2 - a0\n 42371: a0 = a0 | 0x30\n 42374: u64 [sp + 0xe8] = a0\n 42378: a1 = 0x1\n 42381: a0 = u64 [sp + 0x80]\n 42385: ra = 1574, jump @38\n      : @1466 [@dyn 787] (gas: 12)\n 42392: a1 = u64 [sp + 0xe8]\n 42396: u8 [a0] = a1\n 42398: a5 = u64 [sp + 0x50]\n 42401: a4 = u64 [sp + 0x48]\n 42404: a3 = u64 [sp + 0x58]\n 42407: t0 = u64 [sp + 0x90]\n 42411: t1 = s1\n 42413: s1 = u64 [sp + 0xf0]\n 42417: t2 = u64 [sp + 0xf8]\n 42421: a2 = u64 [sp + 0x108]\n 42425: a1 = u64 [sp + 0x40]\n 42428: jump @1442\n      : @1467 (gas: 5)\n 42431: a0 = u64 [sp]\n 42433: a3 = u64 [sp + 0x18]\n 42436: a2 = u64 [sp + 0x8]\n 42439: s1 = u64 [sp + 0x10]\n 42442: jump @1475\n      : @1468 (gas: 3)\n 42445: a0 = sp + 0x190\n 42449: a1 = 0x40\n 42452: ra = 1576, jump @23\n      : @1469 [@dyn 788] (gas: 18)\n 42459: a0 = u64 [sp + 0x1a8]\n 42463: u64 [sp + 0x18] = a0\n 42466: s1 = u64 [sp + 0x1a0]\n 42470: a1 = u64 [sp + 0x198]\n 42474: u64 [sp + 0x10] = a1\n 42477: a2 = u64 [sp + 0x190]\n 42481: u64 [sp + 0x40] = a2\n 42484: u64 [sp + 360] = 0\n 42488: u64 [sp + 352] = 0\n 42492: u64 [sp + 344] = 0\n 42496: u64 [sp + 336] = 0x40\n 42501: u64 [sp + 0x188] = a0\n 42505: u64 [sp + 0x180] = s1\n 42509: u64 [sp + 0x178] = a1\n 42513: a0 = sp + 0x170\n 42517: a1 = sp + 0x150\n 42521: u64 [sp + 0x170] = a2\n 42525: ra = 1578, jump @1177\n      : @1470 [@dyn 789] (gas: 12)\n 42531: a0 = u64 [sp + 0x40]\n 42534: a2 = u64 [sp + 0x18]\n 42537: a1 = u64 [sp + 0x10]\n 42540: a2 = a2 | a1\n 42543: a1 = a0 | s1\n 42546: a1 = a1 | a2\n 42549: a1 = a1 >> 0x20\n 42552: u64 [sp + 0x8] = s1\n 42555: a2 = a2 | s1\n 42558: a2 = a2 << 0x20\n 42561: a1 = a1 | a2\n 42564: jump @1476 if a1 != 0\n      : @1471 (gas: 7)\n 42568: u64 [sp + 328] = 0\n 42572: u64 [sp + 320] = 0\n 42576: u64 [sp + 312] = 0\n 42580: s1 = 0x1\n 42583: a1 = sp + 0x130\n 42587: u64 [sp + 0x130] = s1\n 42591: ra = 1580, jump @25\n      : @1472 [@dyn 790] (gas: 11)\n 42598: a2 = u64 [sp + 0x40]\n 42601: a1 = u64 [sp + 0x18]\n 42604: a0 = u64 [sp + 0x8]\n 42607: a0 = a0 | a1\n 42610: s1 = s1 << 0x20\n 42613: s1 = s1 + 0xffffffffffffffe0\n 42616: a1 = a2 <u s1\n 42619: s1 = u64 [sp + 0x10]\n 42622: a1 = 0 if s1 != 0\n 42624: a1 = 0 if a0 != 0\n 42626: jump @1476 if a1 == 0\n      : @1473 (gas: 8)\n 42629: i32 a0 = a2 + 0x20\n 42632: u64 [sp + 288] = 0\n 42636: u64 [sp + 280] = 0\n 42640: a1 = 0x3000000000000000\n 42650: u64 [sp + 0x128] = a1\n 42654: a1 = sp + 0x110\n 42658: u64 [sp + 272] = 0\n 42662: ra = 1582, jump @25\n      : @1474 [@dyn 791] (gas: 5)\n 42669: a1 = u64 [sp + 0x40]\n 42672: a0 = u64 [sp]\n 42674: a3 = u64 [sp + 0x18]\n 42677: a2 = u64 [sp + 0x8]\n 42680: fallthrough\n      : @1475 (gas: 11)\n 42681: u64 [a0] = a1\n 42683: u64 [a0 + 0x8] = s1\n 42686: u64 [a0 + 0x10] = a2\n 42689: u64 [a0 + 0x18] = a3\n 42692: sp = s0 + 0xfffffffffffffc50\n 42696: a0 = sp + 0x300\n 42700: ra = u64 [a0 + 0xa8]\n 42704: s0 = u64 [a0 + 0xa0]\n 42708: s1 = u64 [a0 + 0x98]\n 42712: sp = sp + 0x3b0\n 42716: ret\n      : @1476 (gas: 1)\n 42718: trap\n      : @1477 (gas: 7)\n 42719: a2 = sp + 0x300\n 42723: u64 [a2 + 128] = 0\n 42727: u64 [a2 + 120] = 0\n 42730: u64 [a2 + 112] = 0\n 42733: t0 = 0x630\n 42737: a0 = 0x4e487b7100000000\n 42747: fallthrough\n      : @1478 [@dyn 792] (gas: 4)\n 42748: a1 = sp + 0x370\n 42752: u64 [a2 + 0x88] = a0\n 42756: a0 = 0\n 42758: ra = 1586, jump @25\n      : @1479 [@dyn 793] (gas: 8)\n 42765: a2 = sp + 0x300\n 42769: u64 [a2 + 104] = 0\n 42772: u64 [a2 + 96] = 0\n 42775: u64 [a2 + 80] = 0x11\n 42779: a0 = 0x4\n 42782: a1 = sp + 0x350\n 42786: u64 [a2 + 88] = 0\n 42789: ra = 1588, jump @25\n      : @1480 [@dyn 794] (gas: 2)\n 42796: a1 = i32 [0x2019c]\n 42801: jump @1482 if a1 >u 63\n      : @1481 (gas: 3)\n 42805: u32 [0x2019c] = 0x40\n 42811: a1 = 0x201b0\n 42816: jump @1495\n      : @1482 (gas: 2)\n 42819: a1 = 0x201b0\n 42824: jump @1495\n      : @1483 (gas: 6)\n 42827: u64 [sp + 480] = 0\n 42831: u64 [sp + 472] = 0\n 42835: u64 [sp + 464] = 0\n 42839: t0 = 0x636\n 42843: a0 = 0x4e487b7100000000\n 42853: fallthrough\n      : @1484 [@dyn 795] (gas: 4)\n 42854: a1 = sp + 0x1d0\n 42858: u64 [sp + 0x1e8] = a0\n 42862: a0 = 0\n 42864: ra = 1592, jump @25\n      : @1485 [@dyn 796] (gas: 7)\n 42871: u64 [sp + 456] = 0\n 42875: u64 [sp + 448] = 0\n 42879: u64 [sp + 432] = 0x11\n 42884: a0 = 0x4\n 42887: a1 = sp + 0x1b0\n 42891: u64 [sp + 440] = 0\n 42895: ra = 1594, jump @25\n      : @1486 [@dyn 797] (gas: 2)\n 42902: a1 = i32 [0x2019c]\n 42907: jump @1488 if a1 >u 63\n      : @1487 (gas: 3)\n 42911: u32 [0x2019c] = 0x40\n 42917: a1 = 0x201b0\n 42922: jump @1495\n      : @1488 (gas: 2)\n 42924: a1 = 0x201b0\n 42929: jump @1495\n      : @1489 (gas: 7)\n 42931: a2 = sp + 0x200\n 42935: u64 [a2 + 32] = 0\n 42938: u64 [a2 + 24] = 0\n 42941: u64 [a2 + 16] = 0\n 42944: t0 = 0x63c\n 42948: a0 = 0x4e487b7100000000\n 42958: fallthrough\n      : @1490 [@dyn 798] (gas: 4)\n 42959: a1 = sp + 0x210\n 42963: u64 [a2 + 0x28] = a0\n 42966: a0 = 0\n 42968: ra = 1598, jump @25\n      : @1491 [@dyn 799] (gas: 7)\n 42975: u64 [sp + 520] = 0\n 42979: u64 [sp + 512] = 0\n 42983: u64 [sp + 496] = 0x32\n 42988: a0 = 0x4\n 42991: a1 = sp + 0x1f0\n 42995: u64 [sp + 504] = 0\n 42999: ra = 1600, jump @25\n      : @1492 [@dyn 800] (gas: 2)\n 43006: a1 = i32 [0x2019c]\n 43011: jump @1494 if a1 >u 63\n      : @1493 (gas: 3)\n 43015: u32 [0x2019c] = 0x40\n 43021: a1 = 0x201b0\n 43026: jump @1495\n      : @1494 (gas: 2)\n 43028: a1 = 0x201b0\n 43033: fallthrough\n      : @1495 (gas: 6)\n 43034: i32 a1 = a1 + 0\n 43036: a0 = 0x1\n 43039: a2 = 0x24\n 43042: ra = 0x642\n 43046: ecalli 7 // 'seal_return'\n 43048: fallthrough\n      : @1496 [@dyn 801] (gas: 22)\n 43049: sp = sp + 0xfffffffffffffe50\n 43053: u64 [sp + 0x1a8] = ra\n 43057: u64 [sp + 0x1a0] = s0\n 43061: u64 [sp + 0x198] = s1\n 43065: s0 = sp + 0x1b0\n 43069: sp = sp & 0xfffffffffffffff0\n 43072: a2 = u64 [a1 + 0x18]\n 43075: a3 = u64 [a1 + 0x10]\n 43078: a4 = u64 [a1]\n 43080: a1 = u64 [a1 + 0x8]\n 43083: u64 [sp + 0x50] = a0\n 43086: a0 = a3 | a2\n 43089: s1 = a4 <u 0xa\n 43092: s1 = 0 if a1 != 0\n 43094: s1 = 0 if a0 != 0\n 43096: u64 [sp + 0x168] = a2\n 43100: u64 [sp + 0x160] = a3\n 43104: u64 [sp + 0x158] = a1\n 43108: a0 = sp + 0x170\n 43112: a1 = sp + 0x150\n 43116: u64 [sp + 0x150] = a4\n 43120: ra = 1604, jump @1412\n      : @1497 [@dyn 802] (gas: 5)\n 43126: a2 = u64 [sp + 0x188]\n 43130: a4 = u64 [sp + 0x180]\n 43134: a3 = u64 [sp + 0x178]\n 43138: a1 = u64 [sp + 0x170]\n 43142: jump @1516 if s1 == 0\n      : @1498 (gas: 7)\n 43146: u64 [sp + 0x30] = a4\n 43149: u64 [sp + 0x38] = a2\n 43152: u64 [sp + 0x40] = a3\n 43155: u64 [sp + 0x48] = a1\n 43158: a0 = sp + 0x130\n 43162: a1 = 0x40\n 43165: ra = 1606, jump @23\n      : @1499 [@dyn 803] (gas: 16)\n 43172: s1 = u64 [sp + 0x130]\n 43176: a4 = u64 [sp + 0x148]\n 43180: a3 = u64 [sp + 0x138]\n 43184: a5 = u64 [sp + 0x140]\n 43188: a0 = s1 + 0x20\n 43191: a1 = a0 <u s1\n 43194: a2 = a3 + a1\n 43197: u64 [sp + 0x60] = a3\n 43200: a3 = a2 <u a3\n 43203: a3 = a1 if a1 == 0\n 43206: a3 = a3 + a5\n 43209: u64 [sp + 0x58] = a5\n 43212: a1 = a3 <u a5\n 43215: u64 [sp + 0x68] = a4\n 43218: a1 = a1 + a4\n 43221: t0 = 1608, jump @1537\n      : @1500 [@dyn 804] (gas: 1)\n 43227: jump @1517 if a1 != 0\n      : @1501 (gas: 7)\n 43231: u64 [sp + 288] = 0\n 43235: u64 [sp + 280] = 0\n 43239: a1 = 0x3000000000000000\n 43249: u64 [sp + 0x128] = a1\n 43253: a1 = sp + 0x110\n 43257: u64 [sp + 272] = 0\n 43261: ra = 1610, jump @25\n      : @1502 [@dyn 805] (gas: 12)\n 43268: a1 = u64 [sp + 0x48]\n 43271: a4 = u64 [sp + 0x30]\n 43274: a0 = a1 | a4\n 43277: a2 = u64 [sp + 0x40]\n 43280: a3 = u64 [sp + 0x38]\n 43283: a2 = a2 | a3\n 43286: a0 = a0 | a2\n 43289: a0 = a0 >> 0x20\n 43292: a2 = a2 | a4\n 43295: a2 = a2 << 0x20\n 43298: a0 = a0 | a2\n 43301: jump @1517 if a0 != 0\n      : @1503 (gas: 2)\n 43305: a0 = sp + 0xf0\n 43309: ra = 1612, jump @23\n      : @1504 [@dyn 806] (gas: 20)\n 43316: a4 = s1 + 0x21\n 43319: a0 = a4 <u s1\n 43322: a1 = u64 [sp + 0x60]\n 43325: a5 = a1 + a0\n 43328: a1 = a5 <u a1\n 43331: a1 = a0 if a0 == 0\n 43334: a0 = u64 [sp + 0x58]\n 43337: a3 = a0 + a1\n 43340: a0 = a3 <u a0\n 43343: a1 = u64 [sp + 0x68]\n 43346: a2 = s1\n 43348: s1 = a1 + a0\n 43351: a0 = a4 | a3\n 43354: a1 = a5 | s1\n 43357: a0 = a0 | a1\n 43360: a0 = a0 >> 0x20\n 43363: a1 = a1 | a3\n 43366: a1 = a1 << 0x20\n 43369: a0 = a0 | a1\n 43372: jump @1517 if a0 != 0\n      : @1505 (gas: 11)\n 43376: u64 [sp + 0x28] = a2\n 43379: a0 = u64 [sp + 0x38]\n 43382: a1 = u64 [sp + 0x30]\n 43385: t0 = a1 | a0\n 43388: a1 = 0xffffffe0\n 43398: a0 = u64 [sp + 0x48]\n 43401: a1 = a0 <u a1\n 43404: a2 = u64 [sp + 0x40]\n 43407: a1 = 0 if a2 != 0\n 43409: a1 = 0 if t0 != 0\n 43411: jump @1517 if a1 == 0\n      : @1506 (gas: 19)\n 43415: a2 = a0\n 43417: u64 [sp + 0x10] = a5\n 43420: u64 [sp + 0x18] = s1\n 43423: u64 [sp + 0x20] = a3\n 43426: a5 = u64 [sp + 0x108]\n 43430: a3 = u64 [sp + 0x100]\n 43434: a1 = u64 [sp + 0xf0]\n 43438: s1 = u64 [sp + 0xf8]\n 43442: a0 = a1 | a3\n 43445: u64 [sp + 0x30] = s1\n 43448: u64 [sp + 0x40] = a5\n 43451: a5 = a5 | s1\n 43454: a0 = a0 | a5\n 43457: a0 = a0 >> 0x20\n 43460: u64 [sp + 0x38] = a3\n 43463: a3 = a3 | a5\n 43466: a3 = a3 << 0x20\n 43469: a0 = a0 | a3\n 43472: jump @1517 if a0 != 0\n      : @1507 (gas: 6)\n 43476: i32 a0 = a2 + 0x20\n 43479: u64 [sp + 0x8] = a0\n 43482: a0 = a4\n 43484: s1 = a1\n 43486: u64 [sp + 0x48] = a4\n 43489: ra = 1614, jump @38\n      : @1508 [@dyn 807] (gas: 4)\n 43496: u64 [sp] = a0\n 43498: a0 = u64 [sp + 0x8]\n 43501: a1 = s1\n 43503: ra = 1616, jump @38\n      : @1509 [@dyn 808] (gas: 4)\n 43510: a1 = a0\n 43512: a0 = u64 [sp]\n 43514: a2 = s1\n 43516: ra = 1618, jump @6\n      : @1510 [@dyn 809] (gas: 30)\n 43523: u64 [sp + 0x8] = s1\n 43526: a1 = u64 [sp + 0x48]\n 43529: a0 = a1 + s1\n 43532: a1 = a0 <u a1\n 43535: a2 = u64 [sp + 0x30]\n 43538: a4 = u64 [sp + 0x10]\n 43541: a2 = a2 + a4\n 43544: a2 = a2 + a1\n 43547: a3 = a2 ^ a4\n 43550: a4 = a2 <u a4\n 43553: a4 = a1 if a3 == 0\n 43556: a5 = u64 [sp + 0x20]\n 43559: a1 = u64 [sp + 0x38]\n 43562: a1 = a1 + a5\n 43565: a4 = a4 + a1\n 43568: a3 = a4 <u a1\n 43571: a1 = a1 <u a5\n 43574: a5 = u64 [sp + 0x18]\n 43577: s1 = u64 [sp + 0x40]\n 43580: a5 = a5 + s1\n 43583: a1 = a1 + a5\n 43586: a1 = a1 + a3\n 43589: a3 = a0 | a4\n 43592: a1 = a1 | a2\n 43595: a3 = a3 | a1\n 43598: a3 = a3 >> 0x20\n 43601: a1 = a1 | a4\n 43604: a1 = a1 << 0x20\n 43607: a1 = a1 | a3\n 43610: jump @1517 if a1 != 0\n      : @1511 (gas: 6)\n 43614: u64 [sp + 232] = 0\n 43618: u64 [sp + 224] = 0\n 43622: u64 [sp + 216] = 0\n 43626: a1 = sp + 0xd0\n 43630: u64 [sp + 208] = 0\n 43634: ra = 1620, jump @25\n      : @1512 [@dyn 810] (gas: 12)\n 43641: a0 = u64 [sp + 0x28]\n 43644: a2 = u64 [sp + 0x58]\n 43647: a3 = a0 | a2\n 43650: a1 = u64 [sp + 0x60]\n 43653: a4 = u64 [sp + 0x68]\n 43656: a1 = a1 | a4\n 43659: a3 = a3 | a1\n 43662: a3 = a3 >> 0x20\n 43665: a1 = a1 | a2\n 43668: a1 = a1 << 0x20\n 43671: a1 = a1 | a3\n 43674: jump @1517 if a1 != 0\n      : @1513 (gas: 31)\n 43678: a4 = u64 [sp + 0x8]\n 43681: t1 = a4 + 0x1\n 43684: a1 = t1 <u 0x1\n 43687: a5 = u64 [sp + 0x30]\n 43690: t0 = a5 + a1\n 43693: a2 = t1 | t0\n 43696: a2 = a2 <u 0x1\n 43699: s1 = u64 [sp + 0x38]\n 43702: a2 = a2 + s1\n 43705: a3 = a2 <u s1\n 43708: a1 = u64 [sp + 0x40]\n 43711: t2 = a1 + a3\n 43714: a3 = a4 + 0x21\n 43717: u64 [sp + 0x48] = a3\n 43720: a4 = a3 <u a4\n 43723: a3 = a5 + a4\n 43726: u64 [sp + 0x20] = a3\n 43729: a5 = a3 <u a5\n 43732: a5 = a4 if a4 == 0\n 43735: a5 = a5 + s1\n 43738: u64 [sp + 0x30] = a5\n 43741: a4 = a5 <u s1\n 43744: a1 = a1 + a4\n 43747: u64 [sp + 0x40] = a1\n 43750: u64 [sp + 0xb0] = t1\n 43754: u64 [sp + 0xb8] = t0\n 43758: u64 [sp + 0xc0] = a2\n 43762: a1 = sp + 0xb0\n 43766: u64 [sp + 0xc8] = t2\n 43770: s1 = a0\n 43772: ra = 1622, jump @25\n      : @1514 [@dyn 811] (gas: 18)\n 43779: a0 = u64 [sp + 0x40]\n 43782: u64 [sp + 0x88] = a0\n 43786: a0 = u64 [sp + 0x30]\n 43789: u64 [sp + 0x80] = a0\n 43793: a0 = u64 [sp + 0x20]\n 43796: u64 [sp + 0x78] = a0\n 43799: a0 = u64 [sp + 0x48]\n 43802: u64 [sp + 0x70] = a0\n 43805: a0 = u64 [sp + 0x68]\n 43808: u64 [sp + 0xa8] = a0\n 43812: a0 = u64 [sp + 0x58]\n 43815: u64 [sp + 0xa0] = a0\n 43819: a0 = u64 [sp + 0x60]\n 43822: u64 [sp + 0x98] = a0\n 43826: a0 = sp + 0x90\n 43830: a1 = sp + 0x70\n 43833: u64 [sp + 0x90] = s1\n 43837: ra = 1624, jump @1177\n      : @1515 [@dyn 812] (gas: 5)\n 43843: a1 = s1\n 43845: a2 = u64 [sp + 0x68]\n 43848: a3 = u64 [sp + 0x60]\n 43851: a4 = u64 [sp + 0x58]\n 43854: fallthrough\n      : @1516 (gas: 11)\n 43855: a0 = u64 [sp + 0x50]\n 43858: u64 [a0] = a1\n 43860: u64 [a0 + 0x8] = a3\n 43863: u64 [a0 + 0x10] = a4\n 43866: u64 [a0 + 0x18] = a2\n 43869: sp = s0 + 0xfffffffffffffe50\n 43873: ra = u64 [sp + 0x1a8]\n 43877: s0 = u64 [sp + 0x1a0]\n 43881: s1 = u64 [sp + 0x198]\n 43885: sp = sp + 0x1b0\n 43889: ret\n      : @1517 (gas: 1)\n 43891: trap\n      : @1518 [export #0: 'call'] (gas: 2)\n 43892: a0 = 0\n 43894: ra = 1626, jump @44\n      : @1519 [@dyn 813] [export #1: 'deploy'] (gas: 2)\n 43901: a0 = 0x1\n 43904: ra = 1628, jump @44\n      : @1520 [@dyn 814] (gas: 15)\n 43911: a0 = u64 [a2 + 0x8]\n 43914: a1 = i32 [a2 + 0x10]\n 43917: a2 = u64 [a2]\n 43919: a0 = reverse a0\n 43921: a3 = a0 << 0x20\n 43924: a1 = reverse a1\n 43926: a1 = a1 >> 0x20\n 43929: a3 = a3 | a1\n 43932: a0 = a0 >> 0x20\n 43935: a1 = reverse a2\n 43937: a2 = a1 << 0x20\n 43940: a0 = a0 | a2\n 43943: a1 = a1 >> 0x20\n 43946: a2 = s1 + 0x2858\n 43950: jump [t0]\n      : @1521 (gas: 15)\n 43952: a0 = u64 [a2 + 0x8]\n 43955: a1 = i32 [a2 + 0x10]\n 43958: a2 = u64 [a2]\n 43960: a0 = reverse a0\n 43962: a3 = a0 << 0x20\n 43965: a1 = reverse a1\n 43967: a1 = a1 >> 0x20\n 43970: a3 = a3 | a1\n 43973: a0 = a0 >> 0x20\n 43976: a1 = reverse a2\n 43978: a2 = a1 << 0x20\n 43981: a0 = a0 | a2\n 43984: a1 = a1 >> 0x20\n 43987: a2 = s1 + 0x1058\n 43991: jump [t0]\n      : @1522 (gas: 8)\n 43993: a0 = u64 [a2 + 0x8]\n 43996: a1 = i32 [a2 + 0x10]\n 43999: a2 = u64 [a2]\n 44001: a3 = reverse a0\n 44003: a0 = a3 << 0x20\n 44006: a1 = reverse a1\n 44008: a1 = a1 >> 0x20\n 44011: jump [t0]\n      : @1523 (gas: 15)\n 44013: a0 = u64 [a3 + 0x18]\n 44016: a1 = u64 [a3 + 0x10]\n 44019: a2 = u64 [a3 + 0x8]\n 44022: a3 = u64 [a3]\n 44024: a0 = reverse a0\n 44026: a4 = reverse a1\n 44028: a2 = reverse a2\n 44030: a3 = reverse a3\n 44032: a1 = u64 [s1 + 0x88]\n 44036: u64 [a1 + 0x18] = a3\n 44039: u64 [a1 + 0x10] = a2\n 44042: u64 [a1 + 0x8] = a4\n 44045: u64 [a1] = a0\n 44047: a0 = s1 + 0x7ff\n 44051: jump [t0]\n      : @1524 (gas: 11)\n 44053: a1 = u64 [s1 + 0xd8]\n 44057: a0 = u64 [s1 + 0xc8]\n 44061: a3 = u64 [s1 + 0xc0]\n 44065: a3 = a3 | a0\n 44068: a4 = 0x100000000\n 44078: a0 = 0xfffffffc\n 44088: a0 = a1 <u a0\n 44091: a2 = u64 [s1 + 0xd0]\n 44095: a0 = 0 if a2 != 0\n 44097: a0 = 0 if a3 != 0\n 44099: jump [t0]\n      : @1525 (gas: 26)\n 44101: t2 = u64 [s1 + 0x30]\n 44104: a0 = u64 [t2 + 0x18]\n 44107: a1 = u64 [t2 + 0x10]\n 44110: t1 = reverse a0\n 44112: ra = reverse a1\n 44114: a0 = u64 [s1 + 0x40]\n 44117: a1 = a0 + 0x1f\n 44120: a0 = a1 <u a0\n 44123: a3 = u64 [s1 + 0x48]\n 44126: a2 = a3 + a0\n 44129: a3 = a2 <u a3\n 44132: a3 = a0 if a0 == 0\n 44135: a5 = u64 [s1 + 0x50]\n 44138: a0 = a5 + a3\n 44141: a3 = a0 << 0x3b\n 44144: a4 = a2 >> 0x5\n 44147: a3 = a3 | a4\n 44150: a2 = a2 << 0x3b\n 44153: a1 = a1 >> 0x5\n 44156: a1 = a1 | a2\n 44159: a1 = a1 + t1\n 44162: u64 [s1 + 0x38] = a1\n 44165: a1 = a1 <u t1\n 44168: a2 = ra + a1\n 44171: a3 = a3 + a2\n 44174: jump [t0]\n      : @1526 (gas: 8)\n 44176: a0 = a0 | a2\n 44179: a2 = a4 | a1\n 44182: a2 = a2 | a0\n 44185: a2 = a2 >> 0x20\n 44188: a0 = a0 | a1\n 44191: a0 = a0 << 0x20\n 44194: a0 = a0 | a2\n 44197: jump [t0]\n      : @1527 (gas: 11)\n 44199: a2 = u64 [sp + 0x8]\n 44202: a2 = a2 | s1\n 44205: s1 = 0x100000000\n 44215: a0 = 0xfffffffc\n 44225: a1 = u64 [sp + 0x18]\n 44228: a0 = a1 <u a0\n 44231: a1 = u64 [sp + 0x10]\n 44234: a0 = 0 if a1 != 0\n 44236: u64 [sp + 0x8] = a2\n 44239: a0 = 0 if a2 != 0\n 44241: jump [t0]\n      : @1528 (gas: 8)\n 44243: a4 = a4 | a2\n 44246: a2 = a0 | a1\n 44249: a2 = a2 | a4\n 44252: a2 = a2 >> 0x20\n 44255: a1 = a1 | a4\n 44258: a1 = a1 << 0x20\n 44261: a1 = a1 | a2\n 44264: jump [t0]\n      : @1529 (gas: 9)\n 44266: a0 = u64 [a3 + 0x18]\n 44269: a1 = u64 [a3 + 0x10]\n 44272: a2 = u64 [a3 + 0x8]\n 44275: a3 = u64 [a3]\n 44277: a0 = reverse a0\n 44279: a4 = reverse a1\n 44281: a2 = reverse a2\n 44283: a3 = reverse a3\n 44285: jump [t0]\n      : @1530 (gas: 14)\n 44287: a0 = u64 [a2 + 0x8]\n 44290: a1 = u64 [a2]\n 44292: a2 = i32 [a2 + 0x10]\n 44295: a0 = reverse a0\n 44297: a3 = a0 >> 0x20\n 44300: a1 = reverse a1\n 44302: a4 = a1 << 0x20\n 44305: a3 = a3 | a4\n 44308: a0 = a0 << 0x20\n 44311: a2 = reverse a2\n 44313: a2 = a2 >> 0x20\n 44316: a0 = a0 | a2\n 44319: a1 = a1 >> 0x20\n 44322: jump [t0]\n      : @1531 (gas: 14)\n 44324: a0 = u64 [a2 + 0x8]\n 44327: a1 = i32 [a2 + 0x10]\n 44330: a2 = u64 [a2]\n 44332: a0 = reverse a0\n 44334: a3 = a0 << 0x20\n 44337: a1 = reverse a1\n 44339: a1 = a1 >> 0x20\n 44342: a3 = a3 | a1\n 44345: a0 = a0 >> 0x20\n 44348: a1 = reverse a2\n 44350: a2 = a1 << 0x20\n 44353: a0 = a0 | a2\n 44356: a1 = a1 >> 0x20\n 44359: jump [t0]\n      : @1532 (gas: 8)\n 44361: a0 = a0 | a3\n 44364: a3 = a1 | a2\n 44367: a3 = a3 | a0\n 44370: a3 = a3 >> 0x20\n 44373: a0 = a0 | a2\n 44376: a0 = a0 << 0x20\n 44379: a0 = a0 | a3\n 44382: jump [t0]\n      : @1533 (gas: 8)\n 44384: u64 [sp + 48] = 0\n 44387: u64 [sp + 40] = 0\n 44390: u64 [sp + 32] = 0\n 44393: a0 = 0x4e487b7100000000\n 44403: a1 = sp + 0x20\n 44406: u64 [sp + 0x38] = a0\n 44409: a0 = 0\n 44411: jump [t0]\n      : @1534 (gas: 8)\n 44413: a3 = u64 [s1 + 0xd8]\n 44417: a0 = 0xffffffbc\n 44427: a0 = a3 <u a0\n 44430: a1 = u64 [s1 + 0xd0]\n 44434: a0 = 0 if a1 != 0\n 44436: a1 = u64 [s1 + 0xc8]\n 44440: a0 = 0 if a1 != 0\n 44442: jump [t0]\n      : @1535 (gas: 5)\n 44444: sp = a0\n 44446: i32 a2 = a0 + 0\n 44448: a1 = 0x40\n 44451: a0 = u64 [s1 + 0xd0]\n 44455: jump [t0]\n      : @1536 (gas: 14)\n 44457: a0 = u64 [a3 + 0x18]\n 44460: a1 = u64 [a3 + 0x10]\n 44463: a2 = u64 [a3 + 0x8]\n 44466: a3 = u64 [a3]\n 44468: a0 = reverse a0\n 44470: a4 = reverse a1\n 44472: a2 = reverse a2\n 44474: a3 = reverse a3\n 44476: a1 = u64 [s1 + 0xb0]\n 44480: u64 [a1 + 0x18] = a3\n 44483: u64 [a1 + 0x10] = a2\n 44486: u64 [a1 + 0x8] = a4\n 44489: u64 [a1] = a0\n 44491: jump [t0]\n      : @1537 (gas: 8)\n 44493: a4 = a0 | a3\n 44496: a1 = a1 | a2\n 44499: a4 = a4 | a1\n 44502: a4 = a4 >> 0x20\n 44505: a1 = a1 | a3\n 44508: a1 = a1 << 0x20\n 44511: a1 = a1 | a4\n 44514: jump [t0]\n      : @1538 (gas: 10)\n 44516: a0 = u64 [a3 + 0x18]\n 44519: a1 = u64 [a3 + 0x10]\n 44522: a2 = u64 [a3 + 0x8]\n 44525: a3 = u64 [a3]\n 44527: a0 = reverse a0\n 44529: a1 = reverse a1\n 44531: a2 = reverse a2\n 44533: a3 = reverse a3\n 44535: a4 = s1 + 0x3858\n 44539: jump [t0]\n      : @1539 (gas: 8)\n 44541: a0 = s1 + 0xffffffffffffffdc\n 44544: a1 = u64 [sp + 0x18]\n 44547: a0 = a1 <u a0\n 44550: a1 = u64 [sp + 0x10]\n 44553: a0 = 0 if a1 != 0\n 44555: a1 = u64 [sp + 0x8]\n 44558: a0 = 0 if a1 != 0\n 44560: jump [t0]\n      : @1540 (gas: 15)\n 44562: t2 = u64 [s1 + 0xd8]\n 44566: t1 = u64 [s1 + 0xc0]\n 44570: ra = u64 [s1 + 0xc8]\n 44574: a1 = u64 [s1 + 0x70]\n 44577: a0 = a1 + t2\n 44580: a1 = a0 <u a1\n 44583: a4 = u64 [s1 + 0x68]\n 44586: a2 = a4 + t1\n 44589: a2 = a2 + a1\n 44592: a5 = a2 ^ a4\n 44595: a4 = a2 <u a4\n 44598: a4 = a1 if a5 == 0\n 44601: a5 = u64 [s1 + 0x60]\n 44604: a1 = a5 + ra\n 44607: jump [t0]\n      : @1541 (gas: 15)\n 44609: a2 = u64 [sp + 0xb8]\n 44613: s1 = u64 [sp + 0xb0]\n 44617: a0 = u64 [sp + 0xa8]\n 44621: a1 = u64 [sp + 0xa0]\n 44625: u64 [sp + 0x10] = a0\n 44628: u64 [sp + 0x8] = a2\n 44631: a0 = a0 | a2\n 44634: u64 [sp + 0x18] = a1\n 44637: a1 = a1 | s1\n 44640: a1 = a1 | a0\n 44643: a1 = a1 >> 0x20\n 44646: a0 = a0 | s1\n 44649: a0 = a0 << 0x20\n 44652: a0 = a0 | a1\n 44655: jump [t0]\n      : @1542 (gas: 14)\n 44657: sp = sp + 0xffffffffffffff20\n 44661: u64 [sp + 0xd8] = ra\n 44665: u64 [sp + 0xd0] = s0\n 44669: u64 [sp + 0xc8] = s1\n 44673: s0 = sp + 0xe0\n 44677: sp = sp & 0xfffffffffffffff0\n 44680: a1 = u64 [a0 + 0x10]\n 44683: a2 = u64 [a0 + 0x18]\n 44686: a3 = u64 [a0 + 0x8]\n 44689: a0 = u64 [a0]\n 44691: a2 = a2 | a3\n 44694: a0 = a0 | a1\n 44697: a0 = a0 | a2\n 44700: jump [t0]\n      : @1543 (gas: 17)\n 44702: a2 = u64 [s1 + 0x90]\n 44706: a0 = u64 [a2 + 0x8]\n 44709: a1 = i32 [a2 + 0x10]\n 44712: a2 = u64 [a2]\n 44714: a0 = reverse a0\n 44716: a3 = a0 << 0x20\n 44719: a1 = reverse a1\n 44721: a1 = a1 >> 0x20\n 44724: a3 = a3 | a1\n 44727: a0 = a0 >> 0x20\n 44730: a1 = reverse a2\n 44732: a2 = a1 << 0x20\n 44735: a0 = a0 | a2\n 44738: a1 = a1 >> 0x20\n 44741: a2 = s1 + 0x7ff\n 44745: a2 = a2 + 0x51\n 44748: jump [t0]\n      : @1544 (gas: 16)\n 44750: a0 = u64 [s1 + 0xd8]\n 44754: a1 = u64 [s1 + 0x98]\n 44758: a3 = a1 + a0\n 44761: a0 = a3 <u a1\n 44764: a1 = u64 [s1 + 0xd0]\n 44768: a2 = u64 [s1 + 0x80]\n 44772: a1 = a1 + a2\n 44775: a4 = a1 + a0\n 44778: a1 = a4 ^ a2\n 44781: a2 = a4 <u a2\n 44784: a2 = a0 if a1 == 0\n 44787: a0 = u64 [s1 + 0xc8]\n 44791: a1 = u64 [s1 + 0x88]\n 44795: a0 = a0 + a1\n 44798: a5 = a0 + a2\n 44801: jump [t0]\n      : @1545 (gas: 7)\n 44803: a0 = 0xffffffbc\n 44813: a0 = s1 <u a0\n 44816: a1 = u64 [sp + 0x10]\n 44819: a0 = 0 if a1 != 0\n 44821: a1 = u64 [sp + 0x8]\n 44824: a0 = 0 if a1 != 0\n 44826: jump [t0]\n      : @1546 (gas: 18)\n 44828: a3 = u64 [s1 + 0xc8]\n 44832: a0 = u64 [a3 + 0x18]\n 44835: a1 = u64 [a3 + 0x10]\n 44838: a2 = u64 [a3 + 0x8]\n 44841: a3 = u64 [a3]\n 44843: a0 = reverse a0\n 44845: u64 [s1 + 0x98] = a0\n 44849: a0 = reverse a1\n 44851: u64 [s1 + 0x90] = a0\n 44855: a0 = reverse a2\n 44857: u64 [s1 + 0x88] = a0\n 44861: a0 = reverse a3\n 44863: u64 [s1 + 0x80] = a0\n 44867: a0 = sp + 0xffffffffffffffe0\n 44870: a0 = a0 & 0xffffffffffffffe0\n 44873: u64 [s1 + 0xc8] = a0\n 44877: sp = a0\n 44879: jump [t0]\n      : @1547 (gas: 9)\n 44881: a4 = u64 [s1 + 0xc8]\n 44885: a3 = u64 [s1 + 0xd0]\n 44889: a1 = u64 [s1 + 0xd8]\n 44893: a0 = u64 [s1 + 0xc0]\n 44897: a0 = a0 + 0xffffffffffffffdc\n 44900: a0 = a1 <u a0\n 44903: a0 = 0 if a3 != 0\n 44905: a0 = 0 if a4 != 0\n 44907: jump [t0]\n      : @1548 (gas: 14)\n 44909: a4 = u64 [s1 + 0x18]\n 44912: t2 = u64 [s1 + 0x48]\n 44915: ra = u64 [s1 + 0x50]\n 44918: t1 = u64 [s1 + 0x58]\n 44921: t1 = t1 + 0x1\n 44924: a0 = t1 <u 0x1\n 44927: ra = ra + a0\n 44930: a0 = t1 | ra\n 44933: a0 = a0 <u 0x1\n 44936: a1 = u64 [s1 + 0x40]\n 44939: a0 = a0 + a1\n 44942: a1 = a0 <u a1\n 44945: t2 = t2 + a1\n 44948: jump [t0]\n      : @1549 (gas: 4)\n 44950: s1 = 0xff - a2\n 44954: a0 = 0x80\n 44958: a2 = a0 - s1\n 44961: jump [t0]\n      : @1550 (gas: 15)\n 44963: a0 = u64 [a3 + 0x18]\n 44966: a1 = u64 [a3 + 0x10]\n 44969: a2 = u64 [a3 + 0x8]\n 44972: a3 = u64 [a3]\n 44974: a0 = reverse a0\n 44976: u64 [s1 + 0x98] = a0\n 44980: a0 = reverse a1\n 44982: u64 [s1 + 0x90] = a0\n 44986: a0 = reverse a2\n 44988: u64 [s1 + 0x88] = a0\n 44992: a0 = reverse a3\n 44994: u64 [s1 + 0x80] = a0\n 44998: a0 = sp + 0xffffffffffffffe0\n 45001: a0 = a0 & 0xffffffffffffffe0\n 45004: jump [t0]\n      : @1551 (gas: 8)\n 45006: u64 [sp + 144] = 0\n 45010: u64 [sp + 136] = 0\n 45014: u64 [sp + 128] = 0\n 45018: a0 = 0x8c379a000000000\n 45028: a1 = sp + 0x80\n 45032: u64 [sp + 0x98] = a0\n 45036: a0 = u64 [sp + 0x18]\n 45039: jump [t0]\n      : @1552 (gas: 15)\n 45041: a0 = u64 [a3 + 0x18]\n 45044: a1 = u64 [a3 + 0x10]\n 45047: a2 = u64 [a3 + 0x8]\n 45050: a3 = u64 [a3]\n 45052: a0 = reverse a0\n 45054: a4 = reverse a1\n 45056: a2 = reverse a2\n 45058: a3 = reverse a3\n 45060: a1 = u64 [s1 + 0x90]\n 45064: u64 [a1 + 0x18] = a3\n 45067: u64 [a1 + 0x10] = a2\n 45070: u64 [a1 + 0x8] = a4\n 45073: u64 [a1] = a0\n 45075: a0 = 0x3000\n 45079: jump [t0]\n      : @1553 (gas: 10)\n 45081: a0 = u64 [a3 + 0x18]\n 45084: a1 = u64 [a3 + 0x10]\n 45087: a2 = u64 [a3 + 0x8]\n 45090: a3 = u64 [a3]\n 45092: a0 = reverse a0\n 45094: a1 = reverse a1\n 45096: a2 = reverse a2\n 45098: a3 = reverse a3\n 45100: a4 = s1 + 0x3058\n 45104: jump [t0]\n      : @1554 (gas: 10)\n 45106: a0 = u64 [s1 + 0x40]\n 45109: a1 = u64 [s1 + 0x38]\n 45112: a0 = a0 | a1\n 45115: a1 = 0xffffffe0\n 45125: a3 = u64 [s1 + 0x50]\n 45128: a1 = a3 <u a1\n 45131: a2 = u64 [s1 + 0x48]\n 45134: a1 = 0 if a2 != 0\n 45136: a1 = 0 if a0 != 0\n 45138: jump [t0]\n      : @1555 (gas: 10)\n 45140: a0 = u64 [sp + 0x10]\n 45143: a1 = u64 [sp + 0x18]\n 45146: a2 = 0x100000000\n 45156: a2 = a2 ^ a0\n 45159: a2 = a2 | a1\n 45162: a3 = a0 >> 0x20\n 45165: a3 = a3 <u 0x1\n 45168: a3 = 0 if a1 != 0\n 45170: a3 = 0 if a2 == 0\n 45172: jump [t0]\n      : @1556 (gas: 8)\n 45174: a0 = u64 [sp + 0x18]\n 45177: i32 a0 = a0 + 0x4\n 45180: u64 [sp + 120] = 0\n 45183: u64 [sp + 112] = 0\n 45186: u64 [sp + 96] = 0x20\n 45190: a1 = sp + 0x60\n 45193: u64 [sp + 104] = 0\n 45196: jump [t0]\n      : @1557 (gas: 8)\n 45198: a0 = u64 [a4 + 0x18]\n 45201: a1 = u64 [a4 + 0x20]\n 45204: a2 = u64 [a4 + 0x10]\n 45207: a3 = u64 [a4 + 0x8]\n 45210: a1 = a1 | a2\n 45213: a0 = a0 | a3\n 45216: a0 = a0 | a1\n 45219: jump [t0]\n      : @1558 (gas: 4)\n 45221: a1 = reverse a1\n 45223: a2 = reverse a2\n 45225: a3 = reverse a3\n 45227: jump [t0]\n      : @1559 (gas: 11)\n 45229: a4 = a4 + a1\n 45232: a1 = a4 <u a1\n 45235: a1 = a1 + a5\n 45238: a1 = a1 | a2\n 45241: a2 = a0 | a4\n 45244: a2 = a2 | a1\n 45247: a1 = a1 | a4\n 45250: a2 = a2 >> 0x20\n 45253: a1 = a1 << 0x20\n 45256: a1 = a1 | a2\n 45259: jump [t0]\n      : @1560 (gas: 12)\n 45261: a1 = u64 [s1 + 0x98]\n 45265: a4 = u64 [s1 + 0x80]\n 45269: a0 = a1 | a4\n 45272: a2 = u64 [s1 + 0x90]\n 45276: a3 = u64 [s1 + 0x88]\n 45280: a2 = a2 | a3\n 45283: a0 = a0 | a2\n 45286: a0 = a0 >> 0x20\n 45289: a2 = a2 | a4\n 45292: a2 = a2 << 0x20\n 45295: a0 = a0 | a2\n 45298: jump [t0]\n      : @1561 (gas: 12)\n 45300: a4 = u64 [s1 + 0xc8]\n 45304: a2 = u64 [s1 + 0xc0]\n 45308: a0 = u64 [s1 + 0xd8]\n 45312: a0 = a0 | a4\n 45315: a3 = u64 [s1 + 0xd0]\n 45319: a1 = a2 | a3\n 45322: a1 = a1 | a0\n 45325: a1 = a1 >> 0x20\n 45328: a0 = a0 | a3\n 45331: a0 = a0 << 0x20\n 45334: a0 = a0 | a1\n 45337: jump [t0]\n      : @1562 (gas: 8)\n 45339: a3 = a3 | a2\n 45342: a2 = a0 | a1\n 45345: a2 = a2 | a3\n 45348: a2 = a2 >> 0x20\n 45351: a1 = a1 | a3\n 45354: a1 = a1 << 0x20\n 45357: a1 = a1 | a2\n 45360: jump [t0]\n      : @1563 (gas: 13)\n 45362: a1 = u64 [s1 + 0xc0]\n 45366: a2 = a1\n 45368: a0 = u64 [s1 + 0xd0]\n 45372: a0 = a0 | a1\n 45375: a3 = u64 [s1 + 0xc8]\n 45379: a1 = u64 [s1 + 0xd8]\n 45383: a1 = a1 | a3\n 45386: a1 = a1 | a0\n 45389: a1 = a1 >> 0x20\n 45392: a0 = a0 | a3\n 45395: a0 = a0 << 0x20\n 45398: a0 = a0 | a1\n 45401: jump [t0]\n      : @1564 (gas: 12)\n 45403: a1 = u64 [s1 + 0xc0]\n 45407: a0 = u64 [s1 + 0xd0]\n 45411: a2 = u64 [s1 + 0xd8]\n 45415: a0 = a0 | a2\n 45418: a3 = u64 [s1 + 0xc8]\n 45422: a2 = a1 | a3\n 45425: a2 = a2 | a0\n 45428: a2 = a2 >> 0x20\n 45431: a0 = a0 | a3\n 45434: a0 = a0 << 0x20\n 45437: a0 = a0 | a2\n 45440: jump [t0]\n      : @1565 (gas: 12)\n 45442: a2 = u64 [sp]\n 45444: a3 = u64 [sp + 0x8]\n 45447: u64 [s1] = a2\n 45449: u64 [s1 + 0x8] = a3\n 45452: u64 [s1 + 0x10] = a0\n 45455: u64 [s1 + 0x18] = a1\n 45458: sp = s0 + 0xffffffffffffffc0\n 45461: ra = u64 [sp + 0x38]\n 45464: s0 = u64 [sp + 0x30]\n 45467: s1 = u64 [sp + 0x28]\n 45470: sp = sp + 0x40\n 45473: jump [t0]\n      : @1566 (gas: 8)\n 45475: a0 = a0 | a2\n 45478: a2 = a3 | a1\n 45481: a2 = a2 | a0\n 45484: a2 = a2 >> 0x20\n 45487: a0 = a0 | a1\n 45490: a0 = a0 << 0x20\n 45493: a0 = a0 | a2\n 45496: jump [t0]\n      : @1567 (gas: 12)\n 45498: a0 = u64 [s1 + 0xb8]\n 45502: a1 = u64 [s1 + 0xa0]\n 45506: a0 = a0 & a1\n 45509: u64 [s1 + 0x78] = a0\n 45512: a1 = u64 [s1 + 0xa8]\n 45516: a1 = a1 & 0xffffffffffffffff\n 45519: u64 [s1 + 0xa0] = a1\n 45523: a1 = u64 [s1 + 0xb0]\n 45527: a0 = a1 & 0xffffffffffffffff\n 45530: u64 [s1 + 0xa8] = a0\n 45534: a0 = u64 [s1 + 0x80]\n 45538: jump [t0]\n      : @1568 (gas: 8)\n 45540: u64 [sp + 64] = 0\n 45543: u64 [sp + 56] = 0\n 45546: u64 [sp + 48] = 0\n 45549: a0 = 0x4e487b7100000000\n 45559: a1 = sp + 0x30\n 45562: u64 [sp + 0x48] = a0\n 45565: a0 = 0\n 45567: jump [t0]\n      : @1569 (gas: 10)\n 45569: a3 = s1 + a0\n 45572: a4 = a3 + 0x500\n 45576: a0 = u64 [a4 + 0x38]\n 45579: a1 = u64 [a4 + 0x40]\n 45582: a2 = u64 [a4 + 0x30]\n 45585: a3 = u64 [a4 + 0x28]\n 45588: a1 = a1 | a2\n 45591: a0 = a0 | a3\n 45594: a0 = a0 | a1\n 45597: jump [t0]\n      : @1570 (gas: 12)\n 45599: a0 = u64 [s1 + 0xb8]\n 45603: a2 = u64 [s1 + 0xa8]\n 45607: a0 = a0 | a2\n 45610: a1 = u64 [s1 + 0xb0]\n 45614: a3 = u64 [s1 + 0xa0]\n 45618: a1 = a1 | a3\n 45621: a0 = a0 | a1\n 45624: a0 = a0 >> 0x20\n 45627: a1 = a1 | a2\n 45630: a1 = a1 << 0x20\n 45633: a0 = a0 | a1\n 45636: jump [t0]\n      : @1571 (gas: 8)\n 45638: a0 = u64 [a4 + 0x98]\n 45642: a1 = u64 [a4 + 0xa0]\n 45646: a2 = u64 [a4 + 0x90]\n 45650: a3 = u64 [a4 + 0x88]\n 45654: a1 = a1 | a2\n 45657: a0 = a0 | a3\n 45660: a0 = a0 | a1\n 45663: jump [t0]\n      : @1572 (gas: 6)\n 45665: sp = s0 + 0xffffffffffffffa0\n 45668: ra = u64 [sp + 0x58]\n 45671: s0 = u64 [sp + 0x50]\n 45674: s1 = u64 [sp + 0x48]\n 45677: sp = sp + 0x60\n 45680: jump [t0]\n      : @1573 (gas: 7)\n 45682: a0 = u64 [a4 + 0xe8]\n 45686: a1 = u64 [a4 + 0xe0]\n 45690: a2 = u64 [a4 + 0xd8]\n 45694: a3 = u64 [a4 + 0xd0]\n 45698: a4 = s1 + 0x3058\n 45702: a5 = a4 + 0x600\n 45706: jump [t0]\n      : @1574 (gas: 9)\n 45708: sp = sp + 0xffffffffffffffc0\n 45711: u64 [sp + 0x38] = ra\n 45714: u64 [sp + 0x30] = s0\n 45717: u64 [sp + 0x28] = s1\n 45720: s0 = sp + 0x40\n 45723: sp = sp & 0xffffffffffffffe0\n 45726: s1 = a0\n 45728: i32 a0 = sp + 0\n 45730: jump [t0]\n      : @1575 (gas: 9)\n 45732: a2 = u64 [s1 + 0xc0]\n 45736: a0 = a2 >> 0x3b\n 45739: a1 = u64 [s1 + 0xd8]\n 45743: a1 = a1 << 0x5\n 45746: a1 = a1 | a0\n 45749: a2 = a2 << 0x5\n 45752: a0 = u64 [s1 + 0x80]\n 45756: t2 = a0 + 0x24\n 45759: jump [t0]\n      : @1576 (gas: 4)\n 45761: i32 a0 = a0 + 0xfffffffffffff858\n 45765: a3 = s1 + a0\n 45768: a4 = a3 + 0x400\n 45772: jump [t0]\n      : @1577 (gas: 4)\n 45774: i32 a0 = a0 + 0xfffffffffffff858\n 45778: a3 = s1 + a0\n 45781: a4 = a3 + 0x200\n 45785: jump [t0]\n      : @1578 (gas: 6)\n 45787: sp = s0 + 0xffffffffffffff20\n 45791: ra = u64 [sp + 0xd8]\n 45795: s0 = u64 [sp + 0xd0]\n 45799: s1 = u64 [sp + 0xc8]\n 45803: sp = sp + 0xe0\n 45807: jump [t0]\n      : @1579 (gas: 6)\n 45809: a0 = u64 [a3 + 0x18]\n 45812: a1 = u64 [a3 + 0x10]\n 45815: a2 = u64 [a3 + 0x8]\n 45818: a3 = u64 [a3]\n 45820: a0 = reverse a0\n 45822: jump [t0]\n      : @1580 (gas: 2)\n 45824: a3 = a2 & 0x40\n 45827: jump @1584 if a3 != 0\n      : @1581 (gas: 1)\n 45830: jump @1583 if a2 == 0\n      : @1582 (gas: 6)\n 45833: i32 a3 = 0x40 - a2\n 45836: a3 = a1 << a3\n 45839: a1 = a1 >> a2\n 45842: a0 = a0 >> a2\n 45845: a0 = a0 | a3\n 45848: ret\n      : @1583 (gas: 1)\n 45850: ret\n      : @1584 (gas: 4)\n 45852: a0 = a2 + 0xffffffffffffffc0\n 45855: a0 = a1 >> a0\n 45858: a1 = 0\n 45860: ret\n      : @1585 (gas: 2)\n 45862: a3 = a2 & 0x40\n 45865: jump @1589 if a3 != 0\n      : @1586 (gas: 1)\n 45868: jump @1588 if a2 == 0\n      : @1587 (gas: 6)\n 45871: i32 a3 = 0x40 - a2\n 45874: a3 = a0 >> a3\n 45877: a0 = a0 << a2\n 45880: a1 = a1 << a2\n 45883: a1 = a1 | a3\n 45886: ret\n      : @1588 (gas: 1)\n 45888: ret\n      : @1589 (gas: 4)\n 45890: a1 = a2 + 0xffffffffffffffc0\n 45893: a1 = a0 << a1\n 45896: a0 = 0\n 45898: ret\n",
        "bytecode": {
          "object": "50564d0000a3d2000000000000010700c1d001c00080038198445355206b636f4d00656c62617453209bc8e21bad52f2ddaa8d37fc68b0c26916a1c463f1a72b95efb323f54d5af5289bc8e21bad52f2ddaa8d37fc68b0c26916a1c463f1a72b95efb323f54d5af5285b7decebe5e15b8cf3841e7d42714fd11e29b2f7c01403dd25b9c3c7c80a205b657361657263654461776f6c6c6120646f6c65622065636e00006f72657a20776c20737961727241696d206874676e650000686374616d73543a7960a598670f1ede3ca986febcc305a20e4c947d087385683921417d13446c207465637561463031203a74696d69204453554d2030306c6c616320726570803287b4dbf516cc7306bd9de01e5c817acf124418ccff6ca57c395db7fda0716369666675736e496c616220746e6569206f742065636e616c6c6120746e6569000065636e61776f6369666675736e496c616220746e65697420746f6e6e614320726566736e6172206f72657a206f7400737365726464616e776f20796c6e4f70206e616320726574206d726f66726569746361207369686d20746f6e6e61437a206f7420746e6972646461206f72650480bd0b000000000e0000001c0000002a000000300000003d000000480000005700000062000000740000007f00000063616c6c5f646174615f636f707963616c6c5f646174615f6c6f616463616c6c5f646174615f73697a6563616c6c65726465706f7369745f6576656e746765745f73746f72616765686173685f6b656363616b5f3235367365616c5f72657475726e7365745f696d6d757461626c655f646174617365745f73746f7261676576616c75655f7472616e73666572726564051302c074ab0463616c6cc07dab066465706c6f7906c018d0832e02c04cb37502bd03e004f4040505bb0581068806ff06500755078d07e2070f085408830836093c0978099609c2091a0a490afc0a020b3f0b5d0ba20bfe0b460c580c610c7c0c990cc60cdc0c160d470d530d680d8b0d9d0da60d120e1d0e2f0e4e0e620e6e0ead0ed10ea90fb30fb90f8f10c310241178117e116813d713e113e71306144d1429153a157515b815c315ca15ee1564166f168f16b316fa16051727179117d317e917f41714181d183d187c1886189318ea18281955195e197e19bf19ca19d719311a3c1a6e1a7b1a971acb1ae11aec1a961ba31bc21b431c811c511d621d9d1d131e831ebc1ec71e031f3b1f6b1f741f941fde1fe91f022058209320b1200b214e215b217a21b121262233224e228822f9222523342366239223dc23e52305244c245724b624eb2420252b25442575259025e6252c265d268426be26c926ef263a277c27dd272f288128c328f02842299029de290f2a162a4a2a792af42a042b132bc42bcb2bdb2b0a2c812c912ca02ca72ced2c0d2d142dd22d202e2d2e8b2e922e4e2f742f123072307830a630ac30d030d630383143317c31ee31f83115321e323e3285329032e5321533323342334b336433c7332334293457345d348134873455355f357f358835a835ee35f83516361f367436de36e43614371a3742374837a937b737de3710389238bd3803390d392f399f39d639013a1f3a303a3a3a743a7a3a9c3ad43af23a033b0d3b173b763be43bea3b213c6a3c703cd83ce63c093d363d3f3d5f3d983da23dc43df53d0f3ebb3ee83e063f603f6e3f913fce3fd83ff53ffe3f1e40614067409e40d140f340fa4011415f41b241e841fd4107421f4228424442664273427942a142cf42f14202430c4325435d437e43ba43cf43d943b344c444e14434453e459f45cb451e466a46c4460f4741479547e947394842486c487248a248d0484749574966491d4a234a334a614ae04af04aff4a054b4a4b6e4b744b3a4c8c4c994c014d074d944d164e364e574ead4eb74eda4e594f634f7f4f9d4fe34fed4f245055507f509650af50bc50d65008511c5126519e51ab51c55160529852b5523f5349537d538753a453ad53cd53eb534c547f549d54a454bb54d454e954f35413551c553c555a556b557555ab55e255005611561b5625562e565c567656aa56bf56c956735780579a57e057ea570e581758375880588a58a358fa5804593a595d59b759c159045a115a2f5a695a7e5a885a025b0f5b295b5f5b745b7e5bf05b125c1c5c395c425c625ca25cac5cb65c105d4a5d6d5dc35d0b5e185e325e6c5e815e8b5e055f125f305f675f7c5f865ff85f56608960b460dd60ed60f66000616761a561d76102622b623b6244624e62b762c862e6621b634663646375637f63ad63b363d4630b6429643a6444644e64b764c864e664f76416654e652166326653667a668766b266ae67b467ca67fe678f688b699169a769d4691c6b4d6bb16b056c0b6cbc6d5e6e6b6ed16ed76e536f606fba6fc06f54708c709670d270df7010717d710972237231727572c672e172ef72f872687382739073c673e6732b7435743f749074c2741575337541758875e2752a767f769d76ab76b4761c77367744774d777e779c77a677d6772c7835788878a278b0781d793b7949797a7994799e79ca793a7a827aeb7a4b7b8f7be57bf27b7a7c837ca37cfd7c0d7d2b7db67dbf7ddf7d1c7f637fa27fe37fed7f2f806680b68036813e8144815b817f814682618267828082a4821f834f83bf83328440844e84c384378547854d8556857185778587858d859685ab85208627863f866386ae86e586ec8604872887728881889788bb88fa8838894c896289a189a98bba8bd98bfd8b6c8d868da88de68d268e3b8e528e918e659176919591b9910c9213922b9255925b92649274927a9283928a9290929992a092a692c692cc9200930c93219327933093409346934f9356935c9365936c93729392939893cc93d893e7939a94a994c394e7948c959395ad95d19523967d968396a996af96cf96e196149750975d9773977997829792979897a197a897ae97b797be97c497e497ea9723982f983e98a6988c999b99b599d999369a3d9a559a799a109c289c489c8b9ccd9ce59cfe9c479ded9e1b9f769fc89ff19f7ca039a1b0a2bca2d2a2f2a233a373a38ba3a3a3e7a398a5dba523a666a6ada6fca60da72ca766a777a796a7cfa7dfa7fea729a876a8a4a8dba804a934a9e8a9f6a903aa79aa03ab43ab7dab87ab9511807b10787b15707b1668829210829618829a08829b7b1a50d46a09d42b0ad4a9097b1708510989018287187b17608289108285088284330064b73303330a49115801017b15107b12387b16487b17408477019a7b64987b1920330901db7409ca9a07d6930ac87a0ad25b07ca7306c86a0a821560d2b505d28b0b821858ca5806d6b802c86202cab006c86202c8a202ca930acab803c8a303d8a30bc8b205d6890aca8706c86a0aca0902c8a20b7b1b30d82b0cd6090bc8cb0bd86a0ad6870cc8ca0aca070cd60707c8ab0bd8ab0ac8a707c8cb0bd8cb0ac8a707c85707c8b303d8b30ac8a7077b1728ca89087b1858821810ca4809d64407c89707d8970ad6480bc8ba0ac897077b1718d89709c8b909c8a909d8a90ad6880bc8ba0aca880bc89b0cd8bc09c89a0a821720ca7805821860ca840bd67406c85609c8b909c86b0bc85b0bca7406c8b909c8660bd86b06c89606c8bc09d8c90bc86a0a821648c8ba0a7b1a60821c5098ca01821738977b3f97cc3fd4ba0a821b4098bb01d4cb05987b01976c3fd4cb029866016457d4250bd46a0cd4cb0bca4404821030640c7b1a50821a28821518520b9cfe280d330c3303330a49115801018217088218587b787b7c087b73107b7a18821078821570821668951180003200aa876e978a2098aa20977b2098bb20c89b0bc9ba0a979b019abbaeab20ae873751094ec87909647a017c8b95880195ac0178ab64caab9cf42836510934c87909647a017c8b95880195ac0178ab64caab9cf4281c51091a839aff01c8a80b7cbb9599ffc8a70c78cb83aaff5209f032003908a001025108090c3307d0010383770a0828fc0b9511f07b10087b1564896475330820649750100291047c78017c797c7a027c7b03978808d4980897aa1097bb18d4ba0ad4a8087c79057c7a047c7b067c7c07979908d4a90997bb1097cc18d4cb0bd4b909979920d489027c79097c7a087c7b0a7c7c0b979908d4a90997bb1097cc18d4cb0bd4b9097c7a0d7c7b0c7c7c0e7c780f97aa08d4ba0a97cc10978818d4c808d4a808978820d498037c78117c7a107c7b127c7c13978808d4a80897bb1097cc18d4cb0bd4b8087c7a157c7b147c7c167c791797aa08d4ba0a97cc10979918d4c909d4a909979920d4890a7c78197c79187c7b1a7c7c1b978808d4980897bb1097cc18d4cb0bd4b8087c791d7c7b1c7c7c1e7c771f979908d4b90997cc10977718d4c707d49707977720d487076f776fa86f396f2a7b5a187b59107b58087b57821008821595111032009511d87b10207b15187b161082897b19088289087b1982851082861833082050100449036f686f59821a6faa821b086fbb787b18787a10787908787898bc38787c1f98bc30787c1e98bc28787c1d98bc20787c1c98bc18787c1b98bc10787c1a98bb08787b1998ab38787b1798ab30787b1698ab28787b1598ab20787b1498ab18787b1398ab10787b1298aa08787a11989a38787a0f989a30787a0e989a28787a0d989a20787a0c989a18787a0b989a10787a0a98990878790998893878790798893078790698892878790598892078790498891878790398891078790298880878780182102082151882161095112832009511a07b10587b15507b16489515608411e06476828718828910828a0882886f776f996faa6f887b18187b1a107b19087b17491138491130491128491120481140208318831a20831b403309ff33073300060a0501821738821830821928821a206f77501208b7ab007b6a187b69107b68087b6750120a62ad0032009511a07b10587b15509515608411e08272827a08827b108277188283828908828c108288186f746fbb6faa6f276f826fcc6f996f387b17187b1a107b1b087b147b18387b19307b1c287b12208318831a203309ff330b2033070a099551a08210588215509511603200951160ff7b1098007b1590007b1688009515a0008411e082ab7b1b3882ab087b1b3082ab107b1b2882aa187b1a20829a7b1a18829a087b1a10829a107b1a088299187b19648650100c4b0182186f888219086f99821a106faa821b186fbb7b1b587b1a507b19487b18408218206f888219286f99821a306faa821b386fbb7b1b787b1a707b19687b18608379836a8317403308020a04955160ff8210980082159000821688009511a0003200951120ff7b10d8007b15d0007b16c8009515e0008411e082bc7b1c4082bc087b1c4882bc107b1c5082bb187b1b5833020e82ab7b1b1882ab087b1b2082ab107b1b2882aa187b1a308296829a087b1a829a107b1a088299187b1910491138203300102883007b18385010107d6f687b187882186f887b18708218086f887b18688218106f887b18608218186f887b1898008218206f887b1890008218286f887b1888008218306f887b1880008218406f887b18b8008218486f887b18b0008218506f887b18a8008218586f887b18a0008379811a388317603308030a04501212e2ab0032008b7910520931c8780883881f8488e056380000012533099c0102390a9c0102ae8a093d089c0102013308b001028377c887073200009511f07b10087b158475010a02013d07980102510507501014095010161e079511c0fa951700057b70387b75307b7628951540058411e064164926b8024926b0024926a00280003307409568a0024926a80250101811fc4926d8024926d0024926c8024926c0028367c0020a0a01956b000282b7d00082b8d80082b9c80082bac000d49808d4a707d48707520772064926f8024926f0024926e8024926e002956780029568e00250101aaefc826980028267880282689002826a98027b6a58027b6850027b67480295676002956840027b69400250101cbc7895670002827978827a70827c60827b68d49a0788c82094b89478520817017b6c407b6b487b6a507b69584926380249263002492628029568200249262002330750101e4afb39089c010256181f0b20039c010220019517e08479e07b693064913307b00102837783993308200a06501220c8a3008242088249d30a0b7b6a30d80a0adab80a6f946f22d8c708826958c8980898770597893bd49707988805c82707d82709c84808c89808c87a0a7b6a28d87a07c887077b67209517e0847be064b17b6b1801826738d87307826930d39008d89009da8709826c28d8c207826a20d3a408d8a40ada870ad3c207d48707da790a7bb37bb0087bb2107bb418510a34492618034926100349260803492600039568000364b77b63587b60507b64487b6240501022d6fb50122437a600647228963a08000002492640031e49263803492630037b6858033a070800024926280349262003492648037b675003956720039568400350102694fb49267803492670034926680349266003019567000295686003501028fafa956b000282b982b70882b81082ba187b6ad8017b68d0017b67c8019567e0019568c0017b69c00150102a097795670001827af800827bf000827ce8008262e0018ea78eb8dba7088ec7882920859901dbc709d4ab07db7809510918017b62407b6c487b6b507b6a584926b8014926b0014926a8019568a0014926a00101330750102c84f939089c010256181f0b20039c010220019517e08479e07b693064913307b00102837783993308200a0650122e02a2008242088249d30a0b7b6a30d80a0adab80a6f946f22d8c708826958c8980898770597893bd49707988805c82707d82709c84808c89808c87a0a7b6a28d87a07c887077b67209517e0847be064b17b6b1801826738d87307826930d39008d89009da8709826c28d8c207826a20d3a408d8a40ada870ad3c207d48707da790a7bb37bb0087bb2107bb418510a34492698034926900349268803492680039568800364b77b63587b60507b64487b624050103010fa50123271a400647228964926b8034926b0034926a8034926a003014926d0034926c8034926c003081407000000004453554d7b67d8039567a0039568c003501034cdf94926f8034926f0034926e8034926e00302956780019568e00350103633f9826780018268880182699001826a9801847700ff86770649261804492610044926080449260004027b6a38047b6930047b6828047b67200495670004956820045010386af93307b001037b675883777b67500a0382695882970881981082996f77977a206f88988820d4a8087b68489877206f98978920d497077b67409888207b68384926580449265004492648044926400406956760019568400450103a92f88067740197772082687801826938d49707492678044926700449266804956a0004491a60067ba898008268407ba888008268487ba880007ba79000956760049568800450103cc6f882675033003e0a0382695833024028d0a000826958501240c9a000492658017b6850017b674801956840017b6a4001330750104222f749263801492630014926200104330720956820014926280150104405f739089c010256183f0b20039c010240019517e08479e07b694864913307b00102837783993308403300460a0601826a4882a71882a81082a90882aa6f77501248cfa3007b6ab8047b69b0047b68a8047b67a0044926d8044926d0044926c80414070010a5d4e80000007b67487b67c0049567a0049568c00450104af6f74926f8044926f0044926e8044926e004034926180549261005492608058267487b6700059567e0049568000550104cc5f79567000133084050104e11f5956b000182ba1882b81082b90882b7501250b9a3005208ca004926f8004926f0004926e8009568e0008269487b69e0007b674850105213f68267503300540a0382695833025628409e00826958501256399e00d4780298aa206f99979820d4a808989920492698004926b8004926b0004926a8004926a0003a0a1000023a0b1800023a0c2000023a072800027b6ad8007b6bd0007b6cc8007b67c0007b6990007b6888003308209569c000956aa000956b80007b6280008267485010580ff895676033084050105a47f4826a7882687082696882676050125cf2a200510817003308b00102838833070133093300620a07282a7b675850105eb8f88377330833090a28f5f38267583308501060a4f88378330733093300620a0701951110fe7b10e8017b15e0017b16d8019515f001951150c38411e06416956958304929c0044929b8044929a8048000330740956800354929b004501064f1f433079801027b671839079801025517040728d26f956700308377200533083300660a0101956a583081a7e40452475bcba58d0a286a2f5147419bd895c804956958385247d7c257a40a2818225147bb9c05a99506524774eab8c70a28033652473eed62dd0a28f413514703defd06d30c5247b3a75e090a28603f524741eee7140a2899165247dd0d16180a28b3425247dd72b8230a284828524767e53c310a28553e5247519350390a28eb2f5247190fc1400a28560e5247686c96420a285b255247975891570a28411f5147073157680a28312d4929200249291802492910024929080295670040837760fa3300680a0a3307004033026a2829a3003307004050126a21a30050126cdba000510706286a6c82671881775617430728656c95670040837780fa3308040a01019569583895970002827c40827a38827b30d4ca0788b8019478520806283f6c829828028267188074958723d88709c89b027b6b8800d8b20bda990bc8ab0b7b6a9000d8ab097b6c9800c8c909d4b909d847079427949752070628096c7b688000838804956700408377a0fa0a0195675838957c000282ca6082c85882c95082cb48956c58207b6ac8007bcac0047b68d00095ca00047ba8b8007b69d8007ba9b00095672025956800257b6bc0007baba80050106e217595675820957900048298c8007b68b8008298d0007b68b0008298d8007b68a8008298e0007b68a0009567e024330840501070a1f1956758208279a0047b6948827898047b6840827b90047b6b38827c88047b6c50826aa0007b7a6004826aa8007b7a5804826ab0007b7a5004826ab8007b7a4804957a00047ba980007ba8787bab7064799567c0249568a0247b9c68045010726070826750826848826938d48909826a40d4a708d49808988820d4a909979920d4980851080628e85e956958208268c000959b00047bb8288268d8007bb8308268d0007bb83895688024826ac8007bba4050107426f25012762ca100d87402826a8800c82a03c83808c8940cd84c09c89800d3300bd83008dab9088267c800977705826bd00098b93bd497077b67c8008269d80098993b97bb05d4b909d8a30bda220b82679000c87b0bd87b0782629800c87202c8b909c8890ad89a077b6bd800d8b9098268c800c82808c89808c8780b826718807788b80188a901dbb8097b6c8000d8c7078577018808017b6078db08077b6a707b6b68d4ba08db890752070628e56c1407ffffffff000000007b67601407e0ffffff000000007b67588267507b67c8008267387b67c0008260408267487b67d000826bd8000182678000d87407826978d39308d89309da8709826c70d8cb07826a68d3a208d8a20ada870ad3cb07d48707da790a520a0628bb57d4b407d42308d48707987720d4b808978820d4870751070628875d7b60b8007b6bd8007b62a0007b63a8007b64b0008348956700408377c0fa0a01019567583882708002827478028e09984a208eaadb090a826960d39409d40909939a510a06280c69826cd0008269b800d4c903826a58826bc800d8ab0a8268c000948a943a520a06281c5d95ba206472d8ba0b64a77b6a8800c8b80a7b6a9800d88a0adabb0a82237002822b6802c89a0a7b6a9000d89a0ac8ac0c7b6cd000956a58187bab68037ba370037ba478039568c01b7ba0800350107836f08268b000958720d88708826aa800c88a03d8a30ada880a8268d800c88a0ad88a088262a000c88202826888007b68c800826898007b68c00082609000647464ab28b5fe956758384927200449271804492710044927080495670040837760fc33007a0a0a3307004033027c28ee9e003307004050127ce69e0050127ead9c0051070628586882671881775617030728536895672028330840502080005fee95685820958900078297e0007b67388297d8007b67408297d0007b67488297c8007b6750956858384928400449283804492830044928280401956700289568803c5020820044f0956758208274b8078270b0078273c007827ba80797473f980801d4870797383f984901d4980897093f98ba01d49a0c9839017b6bc80084bb019abad2a808d27a02d2a90984c77f7b67d000dab70c7b6c980088c7207b62880094277b6890007b698000d4980894877b6bd80088b801aa7806289167826940826a50d49a07826848826b38d4b808d48707987720d49808978820d47808510806284a5b64a77b60b0007b64b8007b63c00082689800956a582095ab00077bb88800826888007bb89000826890007bb898009568e027826980007bb9a0005020840076ee8267d80051070628615150228600ff9a0052080628f35a8267c800847800ff83a72095695820826ab000959b00077bba107bb8088268b8007bb81895686027826ac0007bba20502088002aee826c503304330333028267d0008e779777057b67d8002876584929a004492998044929900449298804956700408377e0fc33008a000a0a3307004033028c00280d9d003307004050228c00059d0050228e00839c0051070628f5668267188177330843ac780628ef669567002f330090003302040528a29c0095685828958900068297b8007b6790008297b0007b67b0008297a8007b67b80095670040837700fd3308240a0195675838957900048298c0007b68d8008298b8007b68d0008298b0007b68c8008297a8007b67c0003307b001037b67a80083777b678800330092000a038269a80033029400282795008269a800502294001f95004929a006959b00067bb898007bb790009568e02e7bba880033075020960010ed95675828492780064927780649277006647a3307209568c02e492a68060450209800ecec33089c010239079c010256173f0b20039c010240019517e08479e07b69800064913307b00102837783997b68a0003308407b67980033009a000a06826a800033029c0028ee9600826a800050229c00e6960095bc00047bcae0007bc9d8007bc8d0007bc7c8009567a02e9568203d50209e006aed956b582895bc000682c75082c84882c95882ca6064b2826cc800d3c70bd8c707826cc000d8c808dbb708826bd800d3ba07d8ba0a826cd000d8c90bdb7a0bd3c909d49707db7b0885870149224006492238067b2728069567802e492230063300a0003302640528e49600826790009777209879208267b8008268b000d487077b698000d497078e779568582849282006492818067b8708069567602e492810063300a2003302820528a29600826788003300a4000a038269a8003302a60028a293008269a8005022a6009a930049290006959b00057bb8f8007bb7f0009568402e7bbae80033075020a8008beb3302aa0095685828014928e0054928d8054928c8050464893307209568202e4929d0055020ac0062eb8268a0009517e08477e07b6790006471818756173f08480840019517e08477e07b677864718379330840826798003300ae000a06826a783302b00028799700826a785022b000729700837700fec867075020b200feeb956c582882caa80582c7b00582c8b80582c9c005826bd8007bcb6005826bd0007bcb5805826bc8007bcb5005826bc0007bcb480595cb00057bb980007bb8787bb7709567e02d9568c02d9569a02d7bba685020b400037b956a582895ab000582b7a00082b8980082b9900082ba8800956b58387bb7000595b700047b78f8007b79f0007b7ae8009568403d826790005020b600e5eb956958284929400582678000959a00057ba7388267b0007ba7309568802d8267b8007ba72833075020b8004aea3302ba0095685828014928200549281805492808050464893307209568602d492910055020bc0021ea8268a0009517e08477e07b6790006471818755174008480840019517e08477e07b67a00064718379330840826798003300be000a06826aa0003302c00028369600826aa0005022c0002e9600837740fdc867075020c200baea956c582882cae80482c7f00482c8f80482c90005826bd8007bcba004826bd0007bcb9804826bc8007bcb9004826bc0007bcb880495cb00047bb9c0007bb8b8007bb7b0009567202d9568002d9569e02c7bbaa8005020c400bc7a330700305022c6008c980082b7e00082b8d80082b9d00082bac800956b583895bc00057bc7207bc8187bc9107bca089568603d826790005020c8009fea9567c02c3308405020ca00eae7956a582895ac000482cb800082c87882c97082c7685022cc004392005108062896558268c00095ab00047bb8488268c8007bb8508268d0007bb8589568a02c8269d8007bb9607b67d8005020ce00d4e8826788003300d0000a038269a8003302d20028fc90008269a8005022d200f49000d4780298aa206f99979820d4a808989920956a5828826780007ba7f8033a0a300002956b5828492b0004956b58288267b0007bb7f003956b58288267b8007bb7e803956758287b7a40043a0a3800023a0b4000023a0c4800029567582849272004956758287b7a3804956758287b7b3004956758287b7c2804956758287b791804956758287b7810043308209569802c956a602c956b402c956758287b7208048267d8005020d4008cea9567202c3308405020d600c2e6956a582895ac000382cbe00082c8d80082c9d00082c7c8005022d800189100510806286b54492ac003492ab803492aa803019568002c492ab0037b67d8003300100428b4e7492a0005492af804492af004492ae80495670030837740050a0a01956a583095ab000482b7f80082a8000582b9f00082bae800d49808d4a707d4870751070628ab6082671881775617030728a7609567a0023308405020da0022e68267b8027b67388267b0027b67408267a8027b67488267a0027b6750956758304927200549271805492710054927080595678002956860355020dc0010e8826990028264880282629802826c800297973f984801d4870797283f7b69d000989901d4980897493f98ca01d49a0b9829017b6cc80084cc019acad2a808d27a03d2a90984b07fdac00b7b6b980088b7207b63880094377b6890007b698000d4980894877b6cd80088c801aa780628f35f826940826b50d49b07826838826a48d4a808d48707987720d49808978820d47808510806281a5364b77b60b0007b64b8007b62c00082689800956a00027ba860826888007ba868826890007ba87095686002826980007ba9785020de004ee68267d800510706281b4b5022e000d7920052080628cb528267c800847800ff83a720826ab800956900017b9ae8007b98e0008268d0007b98f0009568e001826ac0007b9af8005020e20002e6826c503304330333028267b0008e779777057b67d800284d51492a8007492a7807492a7007492a6807956700308377c0070a0a01956a583095ab000782b77882b8800082b97082ba68d49808d4a707d4870751070628585f8267188177330843ac780628525f9567a0143300e40033020405287d940095685810828750047b67d000828748047b67d800808758047b67c800956700308377e0073308240a0195685830958900078297a0007b67c000829798007b67b800829790007b67b000829788007b67a8004928c0074928b8074928b0074929a8000695678014956800385020e6000ee695675810827830047b68a000827828047b689800807738047b6790003307b001037b67880083773300e8000a03826988003302ea0028478e00826988005022ea003f8e0082699000d3980882699800d39707d487078268a000d3a808d487078877019568581049282004492818047b87080495676014492810045020ec00d4768267d8008268c800d487078268d000d487078e7795685810492800044928f8037b87e803956740144928f0033300ee003302c605283a8f00956958104929e0038267c800959a00037ba7d8008267d0007ba7d000956820148267d8007ba7c80033075020f00034e43302f20095685810014928c0034928b8034928a803046489330720956800144929b0035020f4000be49517e08477e07b67a000647139089c010256183f0b20039c010240019517e08479e07b69980064913307b00102837783993308407b6790003300f6000a06826a98003302f80028108d00826a98005022f800088d008268a0007b8a187b89107b8b087b879567e0135020fa008fe4956b581082ba880382b7900382b8980382b9a003826cc0007bbc4003826cb8007bbc3803826cb0007bbc3003826ca8007bbc280395bc00037bc9607bc8587bc7509567c0139568a013956980137bca485020fc009574956a581095ab000382b7800082b87882b97082ba68956b583095bc00077bc7e0007bc8d8007bc9d0007bcac800956820388267a0005020fe007ae49568583849084918f84918f04918e803956760139568403850200001e0e3956b581095bc000382ca0882c71082c81882c920826cc0007bbcc002826cb8007bbcb802826cb0007bbcb002826ca8007bbca80295bc00027bc9e0007bc8d8007bc7d0009567401395682013956900137bcac80050200201e273956a581095ab000282b7e80082b8f00082b9f80082aa0003956b5838491b20491b18491b10491b08037bba407bb9387bb8307bb728956760389568803850200401bfe39567e012330840502006010ae1956a581095ac000282c7a00082c8980082c9900082cb8800502208011d8b0051070628b34e8267a80095a900027b97688267b0007b97708267b8007b97789568c0128267c0007b97800064b77b6ba00050200a01eee13a07a800029568581049284002956858108269c8007b893802956858107b8760023a07b000023a08b800023a09c00002956a5810826bd0007bab3002956a58107ba75802956758107b785002956758107b7948023308209569a012956a801295675810826bd8007b7b28028267a00050200c0150e39567601233084050200e0132e0956a581095ac000282c72082c81882c91082cb0850221001498a0051070628df4d8267a80095a800017b87e8008267b0007b87f0008267b8007b87f800956840128267c0007ba7000264b77b6bc0005020120117e1956c5810492ca0018267c80095cb00017bb798008267d0007bb790008267d8007bb78800492cc001492cb801492cb0013a073000023a083800023a094000023a0a4800027bb7e0007bb8d8007bb9d0007bbac80033082095692012956a0012956be011492ca8018267c0005020140129e333078268900033090a072814594929a005492998054929900549298805956700408377e0fd330016010a0a01956a583895ab000550221801198f0051070628235a8267188177330843ac7806281d5a1407ffffffff000000007b67d8009567603433001a0133020405282a8f0095685830828708047b67d000828710047b67b000808718047b67a8009567403433001c0133020e0528fe8e0095685830958900038297f8007b67c8008297f0007b67c0008297e8007b67b8004928e0038267a8007b97d8008267b0007b97d0006489956820348267d0007b97c803330750201e01c3df3302200195685830014928c0034928b8034928a803056489330720956800344929b003502022019adf33089c010239079c010256173f0b20039c010240019517e08479e07b69a80064913307b00102837783997b68d0003308407b67b000330024010a06826aa8003302260128a98e00826aa80050222601a18e007b67a0006f877b6798006f977b6790006fa77b6788009517e08477e07b67a80064718267b8008477ff8269c0008498ff8269d800826ac800d2a909956a5830492aa00395ab00037bb998007bb890009568e0337bb78800330750202801e9de8267880095685830958900037b978000826790007b9778826798007b9770648a3307209568c0338269a0007ba9680350202a01b4de8268d000818756173f08480840019517e08477e07b67d800647183793308408267b00033002c010a06826ad80033022e0128ce8700826ad80050222e01c687008268a8007b8a187b89107b8b087b879567a033502030014ddf95685830958900038297607b67d8008297587b67d0008297507b67c8008297487b67c0009567803333084050203201f0dc956a583095ac000382c74082c83882c93082cb2850223401078700510706289d4a8267c00095a900037b97088267c8007b97108267d0007b9718956860338267d8007b972064b77b6bd8003300100428d5dd492a8005492a7805492a7005492a6805956700308377c005330036010a0a01956a583095ab000582b77882b8800082b97082ba68d49808d4a707d487075107062863578267188177330823ac7806285d579567ff079577e100330038013302040528648c00956aff0795aa5182a7900082a8980080a9a000492a88007ba980007ba8789568ff079588c1007ba770330750203a0142dd9568ff079588514918684918604918500464893307209568ff079588a10049195850203c011bdd39089c010256183f0b20039c010240019517e08479e07b69d80064913307b001028377839933084033003e010a06826ad80033024001285f8900826ad8005022400157890095bc00057bcaa0007bc998007bc890007bc788009567ff07957781009568e03550204201a2dd9568ff079588518287307b67d8008287387b67d0008287407b67c8008287487b67c000956758304927c0054927b8054927b00564784928a805029567ff07957761956800365020440157dd9567ff079577517c79107b69b80095670010492738f895670010492730f895670010492728f89567ff079577419568ff07958821956a00107ba920f850204601ed5e95670010827740f895680010828848f8956aff0795aa5182a982aa087b6ad8077b69d0077b68c8077b67c0078267c0007b67f8078267c8007b67f0078267d0007b67e8079567ff079577019568e0079569c007826ad8007b6ae00750204801515f95670010827700f87b67b00095670010827708f87b67a80095670010827710f87b67a00095670010827718f87b6798004926980749269007492688079567a007956880078269b8007b69800750204a013a5e8267a0078268a8078269b007826ab8077b6a38077b6930077b6828077b6720078267c0007b6758078267c8007b6750078267d0007b674807956760079568400795692007826ad8007b6a400750204c018263826760077b67d800826768077b67d000826770077b67c800826778077b67c0004926f8064926f0068267b8007b67e006956700079568e0064926e80650204e01fc68956b000782b982b70882b81082ba187b6ab8067b68b0067b67a8069567c0069568a0067b69a00650205001795d8267c0068268c8068269d006826ad8067b6a58067b6950067b6848067b6740068267c0007b6778068267c8007b6770068267d0007b676806956780069568600695694006826ad8007b6a600650205201ec5d826780067b67b800826788067b679000826790067b678800826798067b678000826798007b6718068267a0007b6710068267a8007b67080695672006956800068269b0007b69000650205401ef70956800068287387b67d0008287307b67c8008287287b67d8008287207b67c000826780007b67d805826788007b67d005826790007b67c8059567e0059568c0058269b8007b69c00550205601517e956800058287f8007b6788008287f0007b6780008287e8007b6790008287e0007b6798009567a0053308405020580156d850225a014c8700510706281746956900058297b8007b67a0008297b0007b67a8008297a8007b67b0008297a0007b67b8009567800550205c011bd88268b800958720d88708826ab000c88a09d8a90ada880a8268a800c88a0ad88a08826ba000c8b80850225e015b830051080628b4458268d0008269c800d498081409e0ffffff000000008262c000d89209826ad80094a99489520906288a458263980595690005829c900082988000829a8800d4c80bd43a09d49b0b98bb20d4c909979920d4b909510906285b458329207b69787b63d0007b6cc8007b6ac0007b68d8005020600113dc7b67708267788268d8005020620103dc64788267708269d80050206401cdd68267b8008268d800c87802d882078268b0008269c000c89808c8780cd39c08d89c09da87098267a800826ac800c8a707c8970bd87b08d8a7078269a000826ad000c8a909c89707c88703952720d82708c88c09d8c90ada880ac8ba0ad8ba08c83808d49808d4a709d48909d4a808989920978820d4980851080628a3447b63c0007b6bc8007b6cd0007b62d80049267005492668051408000000000000002e7b687805956860054926600550206601dbd7502268010985005107062862449567400550206a018ad68268d800958721d88708826ad000c88a09d8a90ada880a8268c800c88a0ad88a08826bc000c8b80850226c01ca81005108062823448268880082698000d498081409e0ffffff0000000082629800d89209826a900094a9948952090628f943956a000582a95882ab5082a84082ac48d4b80a7b6990007b6c8000d4c909d49a0a98aa207b6b8800d4b909979920d4a90951090628c2438329207b69787b68980050206e0186da7b6770826778826898005020700176da6478826770826998005020720140d5502274012e8200d87c02d887078269c00082689000c88909c89707c8720295a7217b6ad800d8a708c88b097b6bd000d8b90ada880ac8ca0a7b6cc800d8ca087b62c000c8280850227601e7800051080628404349263805492630054926280595682005492620055020780192d650227a011285005107062819438260b8008264d800d80402826ab0008269d000d3a907d8a90864acda72088267a8008263c800c9730ad88a0b7b6b9800d873077b67c8008267a000826bc000c97b0382679800826bc800c8b707c97303c98a08c9c90ac92a0ac90409959701887c01c8ca02d4270b88bb01c88b0b959c217b6cd800d89c09c89a0c7b6cd000d8ac0ada990ad88b09c83909c88a0a7b6ac800d88a08c838087b68c000956a00057ba77b6208057bab10956800057ba918640750207c01cdd58267c0007b67d8048267c8007b67d0048267d0007b67c8048267d8007b67c0048267a0007b67f8048267a8007b67f0048267b0007b67e8049567e0049568c0048269b8007b69e00450207e0165539567a0043308405020800138d4956c000482c8b8007b68d00082c9b0007b69c80082cba8007b6bc00082caa0007b6ad8008267a0007bc7588267a8007bc7508267b0007bc7488267b8007bc7407bc8787bc9707bcb689567800495686004956940047bca60502082011f5450228401a78200510706289b4164a2956b000482b7880082b898007b68b8008263800482ba900028771e4929400149293801492930014929280195670040837780f90a0a01956a583895ab000182b73882b84082b93082ba28d49808d4a707d48707510706288a4e82671881775617230728864e956700408377a0f93308040a0195685838958900018297607b67d8008297587b67d0008297507b67c8008297487b67c000492880014928780149287001491968029567a01b9568c0395020860143d5956958187c97480349292003492918037b9708039567801b9568601b4929100350208801f5569568581801828340038282280382873003828c3803330ae803d6a208caa709c89808d89809d6a707c87909caac07c87900d89009caa304d6ac0bc8b404c894079479d8b404d6a30b8ebbd44b0bd4b90951090628c34d9629e803826ac000d8a909826bc800d38b0ad8b808daa9088269d000d89002826ad800d37a0cd8a70bdac20bd30907d4c707da780b520b0628be279567e01833084050208a0153d2956958188292a000829c9800829b900082978800d42b0ad4c708d4a808988820d4ca0a97aa20d4a80851080628f23f491978491970491968140a00000000a079c3089568c0187b9a80007b67d8007b6bd0007b62c0007b6cc80050208c012dd350228e01a37b52070628b53f83870495695818491960491958491950330c209568a0187b9c487b6ac8007b6bc00050209001f9d250229201ab7e52070628813f83872495695818491940491938491928209568801849193050209401cfd250229601ad7c52070628573f83a7443a08c80002956b58187bb8203a08d000023a09d800023a0ae000027bb8187bb910956860187bba083300bc04288ed249296004492958044929500449294804956700408377a0fc330098010a0a3307004033029a01288d81003307004050229a0185810082b75882b86082b95082ba48d49808d4a707d4870751070628b24c8267188177330843ac780628ac4c9567e02b33009c0133020405281481009568582895890003829798007b67a000829790007b67c000829788007b67c800956700408377c0fc3308240a019567583895790004829880007b6888008298787b6890008298707b6898008297687b67b0003307b001037b67b80083777b67a80033009e010a038269b8003302a001289c798269b8005022a001957949298003959b00037bb8787bb7709568c02b7bba6833075020a2018ad13302a40195685828014928600349285803492848030564893307209568a02b492950035020a60161d133089c010239079c010256173f0b20039c010240019517e08479e07b69800064913307b00102837783997b68d8003308407b67d0003300a8010a06826a80003302aa0128708000826a80005022aa016880007b67786f877b67706f977b67686fa77b67609517e08477e07b67800064718267a00097772098782095695828492940037b68a000959a00037ba8388267c0007ba7309568802b8267c8007ba72833075020ac01bad082676095685828958900037b97208267687b97188267707b9710648a3307209568602b8269787ba908035020ae018ad08268d800818756173f08480840019517e08477e07b67785022b001707a3300b2010a06826a783302b40128ab79826a785022b401a579826880007b8a187b89107b8b087b879567402b5020b6012dd19564582882490003824af0028240f8028247e80282638800d3390b82629800d32a0c7b6a68d82a0a7b67788268b000d887076408dbca077b6970d8390a82609000d8080cdbba0cd3080ad4ba0adbac0752070628391f9567c0283308405020b8019ece9569582882928000829c78829b70829768d42b0ad4c708d4a808988820d4ca0a97aa20d4a80851080628403c491958491950491948140a00000000a079c3089568a0287b9a607b67d8007b6bd0007b62c0007b6cc8005020ba017ccf5022bc01f27752070628043c83870495695828330c49194049193849192820956880284919307b6ac8007b6bc0005020be0148cf5022c001fa7a52070628d03b838724956958284919204919184919081e956860284919105020c2011ecf5022c401fc7852070628a63b83a7443a08700002956b58287bb83a087800023a098000023a0a88000295bc00ff7bc8f8007bc9f000956840287bcae8003300bc0428d7ce491960491958491950491948956700408377a0f80a0a01956a583882a75882a86082a95082aa48d49808d4a707d48707510706282549826718817756172307282149956700408377c0f83308040a0195675838827880007b68d8008278787b68d0008278707b68c8008277687b67c0003307b001037b67b80083777b67a8003300c6010a038269b8003302c801285e768269b8005022c80157764929c007959b00077bb8b8007bb7b000956800187bbaa80033075020ca0120ce3302cc0195685810014928a00749289807492888070464893307209568e017492990075020ce01f7cd33099c010239079c010256173f0b20039c010240017b6998009517e08479e07b69b00064913307b00102837783993308407b67a0003300d0010a06826ab0003302d20128f977826ab0005022d201f2777bbaa0007bb998007bb890007bb788009567c0179568e0385020d4017bce3302d601956a58100195ab000782b77082b86882b97882ba8000826cc800d3c70bd8c707826cc000d8c808dbb708826bd800d3ba07d8ba0a826cd000d8c90bdb7a0bd3c909d49707db7b08520806289925956740153308405020d801f1cb956a58100182a2000595a80004828cf800828bf0008287e800d42b09d4c708d49808988820d4c909979920d49808510806288b3964a9492ad804492ad004492ac804140a00000000a079c308956820157b9ae0047b67d8007b6bd0007b62c0007b6cc8005020da01c1cc5022dc013775520706284939838704956958104929c0044929b8044929a80420956800154929b0047b6ac8007b6bc0005020de018bcc5022e0013d78520706281339838724956958104929a00449299804492988041c9568e014492990045020e2015dcc5022e4013b7652070628e53883a7443a080801023a091001023a0a180102956b581095bc00047bc880007bc9787bca701409000000006e7275629568c0147bc9683300bc042812cc492a2006492a1806492a1006492a080695670030837760063300e6010a0a01956a583095ab00065022e801dd785107062873468267188177330863ac7806286d469567ff079577c1063300ea013302040528b17a9568ff07958851828770067b67a800828778067b67a000808780067b6798009567ff079577a1063300ec0133020e05287f7a9568ff07958851958900068297607b67588297587b67488297507b675095670030837780063308440a0195675830957900068298407b68c8008298387b68c0008298307b68b8008297287b67b0009567ff079577514927480682689800957a00067ba8408268a0007ba8389568ff07958881068269a8007ba93033075020ee010dcb9568ff079588514928280649282006492810060464893307209568ff0795886106492918065020f001e2ca33089c010239079c010256173f0b20039c010240019517e08479e07b69900064913307b00102837783997b68d8003308407b67d0003300f2010a06826a90003302f401281977826a90005022f401127795bc00067bca607bc9587bc8507bc7489567ff07957741069568a0365020f60162cb956bff0795bb5182b7f80582b8f00582b9000682ba080664b2826cb800d3c70bd8c707826cb000d8c808dbb708826bc800d3ba07d8ba0a826cc000d8c90bdb7a0bd3c909d49707db7b088587014922e8054922e0057b27d0059567ff07957721064922d8053300f8013302640528d5749569ff079599514929c80582679800959a00057ba7c0008267a0007ba7b8009568ff07958801068267a8007ba7b00033075020fa01c9c99568ff079588514928a8054928a005492890050564893307209568ff079588e105492998055020fc019ec98268d800818756173f08480840019517e08477e07b6790005022fe018373330000020a06826a90003302020228c478826a900050220202bd787b6780006f877b67786f977b67706fa77b67689517e08477e07b67880064713307b001037b67900083777b6760330004020a0333020602282d74502206022a7449298805959b00057bb880007bb7789568ff079588c1057bba7033075020080203c98267689568ff07958851958900057b97688267707b97608267787b9758648a3307209568ff079588a105826980007ba9500550200a02cbc88268d800818755174008480840019517e08477e07b67800050220c02b07233000e020a06826a80003302100228ed70826a800050221002e67095778105502012027ac99562ff0795225195290005829738829830829c40829a488269b800d3970bd897078269b000d89808dbb708826bc800d3ba07d8ba0a8269c000d89c0bdb7a0bd3c909d49707db7b0852080628a3249567ff079577e10133084050201402efc69569ff079599518292a80195980001828ca000828b980082879000d42b0ad4c708d4a808988820d4ca0a97aa20d4a808510806288734492980014929780149297001140a00000000a079c3089568ff079588c1017b9a88017b67d8007b6bd0007b62c0007b6cc80050201602bbc75022180231705207062843348387049569ff07959951492968014929600149295001209568ff079588a101492958017b6ac8007b6bc00050201a027ec7826ac8008269d0008268d8008267c0009577dcd87807949794a752070628f233838724956aff0795aa51492a4801492a4001492a3001169568ff0795888101492a380150201c0235c750221e02137152070628bd3383a7443a080801023a092001023a0a280102956bff0795bb5195bc00017bc8287bc9207bca189568ff0795886101492b10013300bc0428edc651473182a0700a2887414929a003492998034929900349298803956700408377e0fb330020020a0a01956a583895ab000350222202667551070628af418267188177330823ac780628a9419567e0253300240233020405288675956a582095ab000582b7880082b8900080a99805492a80057bb9787bb8709568c0257bb76833075020260269c63302280295685820014928600549285805492848050464893307209568a0254929500550202a0240c639089c010256183f0b20039c010240019517e08479e07b69d80064913307b001028377839933084033002c020a06826ad80033022e02284f70826ad80050222e02487095bc00037bcac0007bc9b8007bc8b0007bc7a800956780259568003c50203002cdc695685820958900058297407b67d8008297387b67d0008297307b67c8008297287b67c000956760253308405020320270c4956a582095ac000582c72082c81882c91082cb0850223402876e510706281e328267c00095a800047b87e8008267c8007b87f0008267d0007b87f800956840258267d8007ba7000564b77b6bd800330010042852c5956758384927e0034927d8034927d0034927c80395670040837720fc0a0a01956b583895bc000382c7d80082c8e00082c9d00082cac800d49808d4a707d48707510706281b40826718817756170307281740492b0004492bf803492bf003492be80306956740269568403c50203602d6c595685820958900058297f8007b67c8008297f0007b67d8008297e8007b67d00095672026330840502038027dc3956a582095ac000582cbe00082c8d80082c9d00082c7c80050223a02d36d5108062827318268c800978820988920492ac0058268d00095ab00057bb8a8008268d8007bb8b000956800267bb9b8007b67d80033001004285bc4492a2007492a1807492a1007492a0807956700308377600733003c020a0a01956a583095ab000750223e02267151070628473f8267188177330843ac780628413f9567c011330040023302040528fe7295685810958900018297787b67a0008297707b67b8008297687b67c0003307b001037b67b00083777b67a800330042020a038269b0003302440228e56b8269b00050224402de6b49296001959b00017bb8587bb7509568a0117bba48330750204602aac3330248029568581001492840014928380149282801056489330720956880114929300150204a0281c333079c01027b67d80039079c010256173f0c8268d800480840019517e08479e07b69c80064913307b00102837783993308407b67d00033004c020a0633024e0228be6e50224e02bb6e8267a00097772098782095695810492920017b68a000959a00017ba8188267b8007ba710956860118267c0007ba70833075020500201c382678000956858107b870001826788007b87f800826790007b87f000648a33072095684011826998007ba9e80050205202cec28267d800817756173f0c8267d800480740019517e08477e07b67980050225402af6c330056020a0601826a980082a71882a81082a90882aa6f77502258029a6f826bc8007bba187bb9107bb8087bb795670030837780073308240a0195675830957900078298287b6898008298307b6890008298387b6888008297407b678000956720118268c80050205a0232c3956b581082bac80082b7d00082b8d80082b9e000826c80007bbc8000826c88007bbc78826c90007bbc70826c98007bbc687bb9a0007bb898007bb79000956700119568e0109569c0107bba880050205c023b53956a581082a7c00082a8b80082a9b00082aaa800956b583095bc00077bc7607bc8587bc9507bca489568a0378267c80050205e0225c38267a800330060020a038269b0003302620228b6698269b00050226202af694919607b98587b97509568a0107b9a4833075020640280c133026602956858100149184049183849182805648933072095688010491930502068025bc18267d800817756173f0c8267d800480740019517e08477e07b67c80050226a023c6b33006c020a0633026e0228ac6c50226e02a96c956958104919208267a0007b97188267b8007b9710956860108267c0007b9708330750207002fec082678000956858107b87826788007b87f8826790007b87f0648a33072095684010826998007ba9e850207202d0c08267d800817756173f0c8267d800480740019517e08477e07b67d80050227402b16a330076020a06826ad8003302780228eb69826ad80050227802e4698268c8007b8a187b89107b8b087b879567201050207a026cc19568ff07958851958900078297e8007b67d8008297e0007b67d0008297d8007b67c8008297d0007b6798009567001033084050207c0208bf956aff0795aa5195ac000782cbc80082c8c00082c9b80082c7b00050227e025b6951080628af2c8268980095ab00077bb890008268c8007bb898008268d0007bb8a0009568ff079588e1078269d8007bb9a8007b67d80050208002e5bf8267a800330082020a038269b00033028402280d688269b000502284020668d4780298aa206f99979820d4a808989920956aff0795aa518267a0007ba740073a0a500002956bff0795bb51492b4807956bff0795bb518267b8007bb73807956bff0795bb518267c0007bb730079567ff079577517b7a88073a0a5800023a0b6000023a0c6800029567ff07957751492768079567ff079577517b7a80079567ff079577517b7b78079567ff079577517b7c70079567ff079577517b7960079567ff079577517b7858073308209569ff079599c107956aff0795aaa107956bff0795bb81079567ff079577517b7250078267d800502086026fc19567ff079577610733084050208802a1bd956aff0795aa5195ac000782cb2882c82082c91882c71050228a02f867510806284c2b492a0807492a0007492af006019568ff0795884107492af8067b67d800330010042891be4929400549293805492930054929280595670040837780fd33008c020a0a3307583833028e0228d06c3307583850228e02c96c510706288739826718817756172307288339956700408377a0fd3308040a0195685838958900058297487b67d8008297507b67d0008297587b67c8008297607b67c00049288005492878054928700549196802956740339568c03d50209002f2be956758307c79e8027b69b8004927c0024927b8024927b002647a95672033956800337ba9a802502092029e40956b583095bc000282c7c80082c8d00082c9d80082cae0007bca607bc9587bc8507bc7488267c0007bc780008267c8007bc7788267d0007bc7709567e0329568c0329569a032826ad8007bca685020940210419568583095890002829788007b67b000829790007b67a800829798007b67a0008297a0007b679800492820024928180249281002648a95678032956860328269b8007ba9080250209602ff3f956b583095bc000282c72882c83082c93882ca4095bc00017bcac0007bc9b8007bc8b0007bc7a8008267c0007bc7e0008267c8007bc7d8008267d0007bc7d000956740329568203295690032826ad8007bcac800502098023f4595685830958900018297e8007b67d8008297f0007b67d0008297f8007b67c800828700027b67c00049288001492878018267b8007b976864899567e0319568c0314929700150209a02b04a956b583095bc000182c9880082c7900082c8980082caa0007bca407bc8387bc7309567a031956880317bc92850209c02283f956b583095bc000182c74882c85082c95882ca607bbae0007bb9d8007bb8d0007bb7c8008267c0007bc78267c8007bb7f8008267d0007bb7f000956760319568403195692031826ad8007bbae80050209e02993f95685830958900018297087b67b8008297107b6790008297187b6788008297207b678000826798007b87a0008267a0007b8798008267a8007b879000648a956700319568e0308269b0007ba988005020a0029652956758308278c0007b68d0008278b8007b68c8008278b0007b68d8008278a8007b68c000826880007b7860826888007b7858826890007b7850647a9567c0309568a0308269b8007ba9485020a202f65f3302a4029568583001828780007b6788008287787b6780008287707b6790008287687b679800956780303308405020a602f9b95022a802ef6851070628bb27956758308279407b69a0008279387b69a8008279307b69b0008277287b67b800956760305020aa02c3b98268b800958720d88708826ab000c88a09d8a90ada880a8268a800c88a0ad88a08826ba000c8b8085022ac020365510806285d278268d0008269c800d498081409e0ffffff000000008262c000d89209826ad80094a9948952090628332795695830829320829c18829808829a10d4c80bd43a09d49b0b98bb20d4c909979920d4b9095109062808278329207b69787b63d0007b6cc8007b6ac0007b68d8005020ae02c0bd7b67708267788268d8005020b002b0bd64788267708269d8005020b2027ab88267b8008268d800c87802d882078268b0008269c000c89808c8780cd39c08d89c09da87098267a800826ac800c8a707c8970bd87b08d8a7078269a000826ad000c8a909c89707c88703952720d82708c88c09d8c90ada880ac8ba0ad8ba08c83808d49808d4a709d48909d4a808989920978820d498085108062850267b63c0007b6bc8007b6cd0007b62d800956858284928f8074928f0074928e8071409000000000000002e95684030956a58307ba95020b40282b95022b602b066510706280a26956720305020b80232b88268d800958721d88708826ad000c88a09d8a90ada880a8268c800c88a0ad88a08826bc000c8b8085022ba02726351080628cc258268880082698000d498081409e0ffffff0000000082629800d89209826a900094a9948952090628a225956c582895ca000782a9e00082abd80082a8c80082acd000d4b80a7b6990007b6c8000d4c909d49a0a98aa207b6b8800d4b909979920d4a9095109062863258329207b69787b6898005020bc0227bc7b6770826778826898005020be0217bc6478826770826998005020c002e1b65022c202cf63d87c02d887078269c00082689000c88909c89707c8720295a7217b6ad800d8a708c88b097b6bd000d8b90ada880ac8ca0a7b6cc800d8ca087b62c000c828085022c402896251080628e324956958284929c0074929b8074929b007956800304929a8075020c60231b85022c802b16651070628b9248260b8008264d800d80402826ab0008269d000d3a907d8a90864acda72088267a8008263c800c9730ad88a0b7b6b9800d873077b67c8008267a000826bc000c97b0382679800826bc800c8b707c97303c98a08c9c90ac92a0ac90409959701887c01c8ca02d4270b88bb01c88b0b959c217b6cd800d89c09c89a0c7b6cd000d8ac0ada990ad88b09c83909c88a0a7b6ac800d88a08c838087b68c000956a582895ac00077bc788007ba290077bcb98009568e02f7bc9a00064075020ca0265b7956858288267c000958900077b97608267c8007b97588267d0007b97508267d8007b97488267a0007b9780008267a8007b97788267b0007b9770648a9567c02f9568a02f8269b8007ba968075020cc02f9349567802f3308405020ce02ccb595685828828940077b69d000828a38077b6ac800828c30077b6cc000828b28077b6bd8008267a0007b87e0068267a8007b87d8068267b0007b87d0068267b8007b87c8067b8900077b8af8067b8cf006648a9567602f9568402f9569202f7babe8065020d002a9355022d202316451070628262364a295685828958b000782b71082ba207b6ab8008283080782ba1801d39700d8970c8264d800d84308da080cc92a0bc9cb00d8cb0b7b6bb000d82a0a826cd000826bb800c9cb0cc9ac0c826ab000c9ac0cc99707c98707c94308d4c7076489d40808d47808d40707988820977720d4870751070628af228267d80064987b69d0005020d40273b983788169d00033070a0728f318492ae006492ad806492ad006492ac80695670030837720070a0a01956a583095ab000682b7d80082b8e00082b9d00082bac800d49808d4a707d4870751070628f83082671881775617030728f43095685830492800074928f8064928f0064928e806029567ff0795772107956840375020d6027bb69567ff079577518277d0067b67d8009567ff07957701073308405020d8022fb4956aff0795aa5195ac000682cbc80082c8c00082c9b80082c7b0005022da02825e51080628d6217c68d800492aa806492aa0067ba890069568ff079588e106492a98067b67d800330010042818b5492a4005492a3805492a3005492a280595670030837780053300dc020a0a330758303302de02285763330758305022de025063510706282e308267188177330843ac7806282830956720043300e0023302040528b563826730047b67b800826728047b67c800826720047b67d0009517e08477e07b67d8006471956700308377a0053308240a0195675830957b000582b86082b95882ba5082b7487b6878826bd8007bb8187b69707bb9107b6a607bba087b67587bb73307b001037b67c00083777b67683300e2020a038269c0003302e40228ce5d8269c0005022e402c75d49261804956900047b98107b9708956800047b9a33075020e60220b44926f8034926f0034926e003053307209568e0034926e8035020e80202b433089c010239079c010256173f0b20039c010240019517e08479e07b69a00064913307b00102837783997b68b0003308407b67a8003300ea020a06826aa0003302ec0228c35f826aa0005022ec02bc5f7b67a00064718267b8009777209877204926d8037b67507b67d0038267c8007b67c8039568c0038267d0007b67c00333075020ee027bb382678000956a00037ba7b800826788007ba7b000826790007ba7a8003307209568a003826998007ba9a0005020f0024ab38268b000818756173f08480840019517e08477e07b67b800647183793308408267a8003300f2020a0601826ab80082a71882a81082a90882aa6f7b5022f40215608267a0007b7a187b79107b78087b7b8268d8005020f6025eb4956780033308405020f802a9b1956b000382b7980082b8900082b9880082ba80005022fa02d36051070628571f8267587b6760038267607b6768038267707b677003956860038267787b67780364a77b6ad8005020fc0297b28267683300fe020a038269c0003302000328c05a8269c00050220003b95ad4780298aa206f99979820d4a808989920492618038267507b6710038267c8007b6708038267d0007b670003492638033a0a5000023a0b5800023a0c6000023a076800027b6a5803956a00037bab507bac487ba7407ba9307ba82833082095694003956a2003956b00037b6220038267d8005020020384b49567e00233084050200403bab0956b000282baf80082b8f00082b9e80082b7e000502206035c5f51080628681e4926d8024926d0024926c8029568c0024926c002017b67d8003300100428b1b1492ae005492ad805492ad005492ac80595670030837720060a0a01956a583095ab000582b7d80082b8e00082b9d00082bac800d49808d4a707d4870751070628ce2c82671881785618030728ca2c95685830492800064928f8054928f0054928e805039567ff0795774101956840365020080331b29568ff07958851828708017b67d800828700017b67d0008287f8007b67c8008287f0007b67c0009567ff079577210133084050200a03cdaf956aff0795aa5182a7e80082a8e00082a9d80082abd00050220c03e15951070628781d8267c0007ba7b0008267c8007ba7b8008267d0007ba7c0009568ff07958801018267d8007ba7c80064b77b6bd8003300100428acb09517e08477e07b67800064717b43a0027b4098027b4290028267b000954b00027bb788008267707bb7c0007bb8b8008267687bb7b0009567202b9568002b9569e02a826a787bbaa80050200e03ae4033070030502210038b5f82b7d80082b8e00082b9c80082bad000826b80007bb7107bb8187bb97bba088267a800330012030a038269b80033021403280d588269b80050221403065849298002959b00027bb8787bb7709568c02a7bba68330750201603fbaf3302180395685828014928600249285802492848020564893307209568a02a4929500250201a03d2af8268d800818756173f08480840019517e08477e07b67b00050221c03b7590a06826ab00082a71882a81082a90882aa6f777b6798006f877b6790006f977b6788006fa77b67789517e08477e07b67b000647195695828492940028267a000959a00027ba7388267c0007ba7309568802a8267c8007ba728330750201e0353af82677895685828958900027b9720826788007b9718826790007b9710648a3307209568602a826998007ba908025020200320af8268d800818756173f08480840019517e08477e07b679800502222030559330024030a0601826a980082a71882a81082a90882aa6f7b50222603f05b8267b0007b7a187b79107b78087b7b826880005020280339b08267a80033002a030a038269b80033022c0328a1568269b80050222c039a5649290002959b00017bb8f8007bb7f0009568402a7bbae800330750202e038cae3302300395685828014928e0014928d8014928c8010564893307209568202a4929d0015020320363ae8268d800818756173f08480840019517e08477e07b67b000502234034858330036030a06826ab00033023803283b5a826ab00050223803345a7b67b0006471956958284929c0018267a000959a00017ba7b8008267c0007ba7b0009568002a8267c8007ba7a800330750203a03f4ad8267800095685828958900017b97a000826788007b979800826790007b979000648a3307209568e029826998007ba9880150203c03bdad8268d800818756173f08480840019517e08477e07b67d80050223e03a257330040030a06826ad80033024203289b57826ad8005022420394579567c029502044036cae33024603956858280195890001829780007b67d8008297787b67d0008297707b67b0008297687b6798009567a0293308405020480309ac956a582895ac000182cb6082c85882c95082c74850224a03635651080628b7198268980095ab00017bb8288268b0007bb8308268d0007bb838956880298269d8007bb9407b67d80050204c03f5ac8267a80033004e030a038269b80033025003281d558269b800502250031655d4780298aa206f99979820d4a808989920956a58288267a0007ba7d8003a0a500002956b5828492be000956b58288267c0007bb7d000956b58288267c8007bb7c800956758287b7a20013a0a5800023a0b6000023a0c6800029567582849270001956758287b7a1801956758287b7b1001956758287b7c0801956758287b79f800956758287b78f00033082095696029956a4029956b2029956758287b72e8008267d80050205203afae9567002933084050205403e5aa956a582882abc00082a8b80082a9b00082a7a800502256033f55510806289318492aa000492a9800492a8800019568e028492a90007b67d8003300100428dcab3307b001037b67b00083777b67a000330058030a038269b00033025a032847558269b00050225a0340559569581849290003959b00027bb8f8007bb7f0009568401b7bbae800330750205c0391ab33025e0395685818014928e0024928d8024928c8020464893307209568201b4929d0025020600368ab9517e08477e07b67b800647139089c010256183f0b20039c010240019517e08479e07b69a80064913307b00102837783993308407b679800330062030a06826aa80033026403286d54826aa8005022640366548268b8007b8a187b89107b8b087b879567001b50206603eeab956b581882baa80282b7b00282b8b80282b9c002826cd8007bbc6002826cd0007bbc5802826cc8007bbc5002826cc0007bbc480295bc00027bc980007bc8787bc7709567e01a9568c01a9569a01a7bca6850206803f33b3307002050226a03d05982b7a00082b8980082b9900082ba8800956b583895bc00017bc7a0007bc898007bc990007bca88009568e0398267b80050206c03d3ab956758384927c0014927b8014927b0014927a801039567801a9568003a50206e0334ab956b581882ba280282b7300282b8380282b94002826cd8007bbce001826cd0007bbcd801826cc8007bbcd001826cc0007bbcc8017bb9000295bc00017bc8f8007bc7f0009567601a9568401a9569201a7bcae80050207003363b3307002050227203135982b70882b81082b91882ba20956b5838492be001492bd801492bd001492bc801037bba000295ba00017ba9f8007ba8f0007ba7e8009567203a9568403a5020740309ab9567001a3308405020760354a8956a581895ac000182c7c00082c8b80082c9b00082cba80050227803675251070628fe158267c00095a900017b9788008267c8007b9790008267d0007b9798009568e0198267d8007b97a00064b77b6bb80050207a0336a98267a00033007c030a038269b00033027e03285e518269b00050227e035751d4780298aa206f99979820d4a8089899203a0aa80002956b58187bba80013a0ab000023a0bb800023a0cc00002956758187b7a7801956758187b7b7001956a5818492a6001956758187b7c6801956a58187ba95801956958187b9850013308209569c019956aa019956b58187bb248018267b8005020800374aa956780193308405020820356a7956a581895ac000182c74082c83882c93082cb28502284036d515107062804158267c00095a900017b97088267c8007b97108267d0007b9718956860198267d8007b972064b77b6bd8005020860340a88267a000330088030a038269b00033028a032868508269b00050228a036150d4780298aa206f99979820d4a8089899203a0a3000023a0b3800023a0c400002956758187b7a00017b7bf8004927c0007b7cf0003a0a4800024927e0004927d8004927d0007b7ae8007b79b8007b78b0007b72a80033082095694019956a2019956b00194927c8008267d80050208c0332aa33078268980033090a07281d208267a80033008e030a038269b8003302900328a14f8269b800502290039a4f49296007959b00077bb8587bb7509568a0177bba4833075020920366a73302940395685810014928400749283807492828070464893307209568801749293007502096033da79517e08477e07b67b000647182699800819756173f08480940019517e08477e07b679800647183793308408267a000330098030a06826a980033029a03280a51826a980050229a0303519567601750209c03dba7956b581095bc000782ca0882c71082c81882c920826cd8007bbcc006826cd0007bbcb806826cc8007bbcb006826cc0007bbca80695bc00067bc9e0007bc8d8007bc7d0009567401795682017956900177bcac80050209e03dd36956a581082a7000795ab000682b8f80082b9f00082bae800956b58387bb7c0007bb8b8007bb9b0007bbaa800956800398267b0005020a003c3a7956758384927e0004927d8004927d0004927c800039567e016956820395020a20324a7956b581082ba880682b7900682b8980682b9a006826cd8007bbc4006826cd0007bbc3806826cc8007bbc3006826cc0007bbc280695bc00067bc9607bc8587bc7509567c0169568a016956980167bca485020a4032a36956a581095ab000682b76882b87082b97882ba8000956b5838492b0001492bf800492bf000492be8000395bc00017bca207bc9187bc8107bc70895674039956860395020a60302a7956760163308405020a8034da4956a581095ac000682c72082c81882c91082cb085022aa03644e51070628fb118267c00095a800057b87e8008267c8007b87f0008267d0007b87f800956840168267d8007ba7000664b77b6bb0005020ac0333a58267a8003300ae030a038269b8003302b003285b4d8269b8005022b003544dd4780298aa206f99979820d4a8089899203a0ae80002956b58107bbae0053a0af000023a0bf800023a0c000102956758107b7ad805956758107b7bd005956a5810492ac005956758107b7cc805956a58107ba9b805956958107b98b00533082095692016956a0016956b58107bb2a8058267b0005020b20371a69567e0153308405020b40353a3956a581095ac000582c7a00082c8980082c9900082cb88005022b603664d51070628fd108267c00095a900057b97688267c8007b97708267d0007b97789568c0158267d8007b97800064b77b6bd8005020b80338a48267a8003300ba030a038269b8003302bc0328604c8269b8005022bc03594cd4780298aa206f99979820d4a8089899203a0a3000023a0b3800023a0c400002956758107b7a60057b7b580549272005957b00057bbc503a0a4800024927180549271005492708057bba487bb9387bb8307b7228053308209569a015956a8015956b6015492740058267d8005020be032aa633078268a00033090a0728151c1408ffffffff000000008269488499ff826a5084a7ff826a58d2a8087b6780007b6870d487077b6978d497078e7749222805492220057b2710059567ff0795776105492218053300c00333028205281e4e9569ff0795995149290805826798007b9700058267a0007b97f8049568ff07958841058267a8007b97f00433075020c20316a39567ff079577514927e8044927e0044927d804647a3307209568ff0795882105492ad004045020c403eba29517e08477e07b67880064718268d800818756173f08480840019517e08477e07b67685022c603c54c3300c8030a06826a683302ca0328034b826a685022ca03fd4a957701055020cc0391a3956cff0795cc5182cab00482c7b80482c8c00482c9c804826bc8007bcb6804826bc0007bcb6004826bb8007bcb5804826bb0007bcb500495cb00047bb988007bb880007bb7789567ff079577e1049568ff079588c1049569ff079599a1047bba705020ce038632956aff0795aa5195ab000482b7a80082b8a00082b9980082ba9000956b583095bc00067bc780007bc8787bc9707bca689568c036826788005020d00368a39569ff0795995149294804826770959a00047ba7408267787ba7389568ff0795888104826780007ba73033075020d203c8a19568ff079588514928280449282004492810040464893307209568ff0795886104492918045020d4039da18268d8009517e08477e07b6788006471818756173f08480840019517e08477e07b67685022d603774b3300d8030a06826a683302da0328b549826a685022da03af49957741045020dc0343a2956cff0795cc5182caf00382c7f80382c8000482c90804826bc8007bcba803826bc0007bcba003826bb8007bcb9803826bb0007bcb900395cb00037bb9c8007bb8c0007bb7b8009567ff07957721049568ff07958801049569ff079599e1037bbab0005020de033632956aff0795aa5195ab00035022e003b04f7bc7a0007bc898007bc990007bca88009568e036826788005020e20327a29569ff079599514929880382679800959a00037ba780008267a0007ba7789568ff079588c1038267a8007ba77033075020e40384a09568ff079588514928680349286003492850030564893307209568ff079588a103492958035020e60359a08268d800818756173f08480840019517e08477e07b6788005022e8033e4a3300ea030a06826a88003302ec03287f4f826a88005022ec03784f7b67686f877b67586f977b67506fa77b67489517e08477e07b67880064718267603300ee030a033302f00328f44a5022f003f14a49294803959b00037bb8407bb7389568ff07958881037bba3033075020f203cb9f8267489568ff07958851958900037b97288267507b97208267587b9718648a3307209568ff07958861038269687ba910035020f403949f8268d800818756173f08480840019517e08477e07b67d8005022f60379493300f8030a06826ad8003302fa0328b647826ad8005022fa03af47957741035020fc0343a0956cff0795cc5182caf00282c7f80282c8000382c90803826bc8007bcba802826bc0007bcba002826bb8007bcb9802826bb0007bcb900295cb00027bb9c8007bb8c0007bb7b8009567ff07957721039568ff07958801039569ff079599e1027bbab0005020fe03362f956aff0795aa5195ab000250220004b04d7bc7c0007bc8b8007bc9b0007bcaa80095680037826788005020020427a09567ff079577c102330840502004046e9d956aff0795aa5195ac000282c7880082c8800082c97882cb7050220604804752071a0b8267b00095a900027b97508267b8007b97588267c0007b97609568ff079588a1028267c8007b976864b77b6bd80050200804519e9567ff07957751492708029567ff079577518268707b7800029567ff079577518268787b78f8019567ff07957751826880007b78f0019567ff07957751492728029567ff07957751826898007b7820029567ff079577518268a0007b7818023a073000023a083800023a09400002956aff0795aa51826ba8007bab1002956aff0795aa517ba748029567ff079577517b7840029567ff079577517b7938023a074800023308209569ff0795998102956aff0795aa6102956bff0795bb4102956cff0795cc517bc730028267d80050200a0401a09567ff079577210233084050200c04339c956aff0795aa5195ac000182cbe80082c8e00082c9d80082c7d00050220e0486465208dd09492ac801492ac001492ab001019568ff0795880102492ab8017b67d80050201004259d3308208267d8005020120480a0837833092033070a0701956958204929800749297807492970079568c0274929680701330750201404ed9c9517e08477e07b6778647139089c010256181f0b20039c010220019517e08479e07b69d00064913307b00102837783993308200a064926d800330433033302826cd00082c7188268509589207b6970d88908826948c8890a7b6a68d89a0bda880b82c81082c90882ca6f776f886f906fa9826c78649a7bc91864097b69a0007bc9107b68b0007bc80864797bc7826740c87b0b7b6b60d87b07826838c887077b6758017b6aa8007b69b800826798008268d800d8780782698800d39408d89409da8709826b9000d8b307826a8000d3a208d8a20ada870ad3b307d48707da790a510a6b069567a02764c87b62d0007b63c8007b64c00050201604e39c502218046446d8c802826cd000826a58c8ac0cc82c0c50221a04e94852086608956c582082c2600795ca000782a85882a95082ab487bab287ba9307ba838956880277bc240077b64d80050201c04a19b8262d0008260b800950001880701826ab000c87a0ad4a0078877018268a000c87804d884088267a800c887078268d800958320d88309826bc000c89b08d8b80bda990b8269c800c89b0bd89b09c892027b6ab000826c787bca0864097bc07bc410647a7bc7187b64a0007b63d800648464b328e5fe4926580249265002492648029568400249264002330750201e04109b9517e08477e07b6778647139089c010256181f0b20039c010220019517e08479e07b69d00064913307b00102837783993308200a064926d800330433033302826cd00082c7188268509589207b6970d88908826948c8890a7b6a68d89a0bda880b82c81082c90882ca6f776f886f906fa9826c78649a7bc91864097b69a0007bc9107b68b0007bc80864797bc7826740c87b0b7b6b60d87b07826838c887077b6758017b6aa8007b69b800826798008268d800d8780782698800d39408d89409da8709826b9000d8b307826a8000d3a208d8a20ada870ad3b307d48707da790a510a8d059567200264c87b62d0007b63c8007b64c00050202004069b502222048744d8c802826cd000826a58c8ac0cc82c0c502224040c4752088906956a000282a93882a83082ac2882ab207bab7bac087ba810956800027ba9187b64d80050202604cb998262d0008260b800950001880701826ab000c87a0ad4a0078877018268a000c87804d884088267a800c887078268d800958320d88309826bc000c89b08d8b80bda990b8269c800c89b0bd89b09c892027b6ab000826c787bca0864097bc07bc410647a7bc7187b64a0007b63d800648464b328ecfe956700408377e0fa3308240a01019562583895270002827ca000827a9800827b90008ec78ea8dbc708d4ca078eb9db780951090628bf14822888028267188074958723d88709c89b027b6b8800d8b20bda990bc8ab0b7b6a9000d8ab097b6c9800c8c909d4b909d8470794279497520706288a147b68800083880495670040837700fb0a0195675838957c000282cac00082c8b80082c9b00082cba800956c58207b6ac8007bca00047b68d00095ca00037ba8f8007b69d8007ba9f00095676024956840247b6bc0007babe80050202804951a95675820957900048298087b68b8008298107b68b0008298187b68a8008298207b68a0009567202433084050202a041897956758208279e0037b69308278d8037b6828827bd0037b6b20827cc8037b6c58826aa0007b7aa003826aa8007b7a9803826ab0007b7a9003826ab8007b7a8803957a00037ba9c0007ba8b8007babb0006479956700249568e0237b9ca80350202c04d415826758826830826920d48909826a28d4a708d49808988820d4a909979920d4980852085e04956958208268c000959b00037bb8688268d8007bb8708268d0007bb8789568c023826ac8007bba800050202e049a97502230049f46d8740282678800c82700c80808c849097b698000d84909c89803d3030ad8030cdaa90c8269c800979905826bd00098ba3bd4a909826ad80098aa3b97bb05d4ba0ad8700bda220b82679000c8b702d87207826b9800c87b0bc8a208c8b909d82807c89707c8c80ad88a08c8870c826718807788c80188a901dbc80982688000d887078577018838017b6378db38077b6a707b6c68d4ca08db890752070628a4121407e0ffffff000000007b67608267587b67d0008267207b67c8008263288267307b67d8000182678000d87407826978d39008d89009da8709826770d8720c826a68d3ab08d8ab0ada8c0ad37207d48707da790a510a3203d42407d4b008d48707987720d42808978820d48707520718037b62a8007b6bb0007b60b800834895670040837720fb7b64a0007b63c0000a01018269c000826cd800d4c907826860826ad000d88a08826bc80094b894785108d60295a820d8a807648a7b688800c87b087b689800d8b808da7708956b583882b2c80282b4d00282b7d80282bbe002c898087b689000d89808c88c0c7b6cd800956c58187bcba0037bc798037bc490039568e01b7bc2880364a750203204e3958268a000958720d88708826ab800c88a00d8a00ada880a8268a800c8a802d88208826bb000c88b0b826888007b68d000826898007b68c80082639000647428d7fe826c50018268d800958720d88708c88409d8490ada880ac83a0ad83a08c8820b956858207b8ce806958c00067bc7c8008267487bc7f0008267407bc7f8007bc9d0008267387b8700077bcad800648995674027956820277b9be0065020340427139567002733084050203604fa9395675820827ac0067b6ad8008279b8067b69d000827bb0067b6bc800827ca8067b6cc0008268387b7860068268407b7858068268487b7850068268507b784806957800067b8a80007b89787b8b70647a9567e0269568c0269569a0267bac680650203804d91350223a0423425207590164a295685820958c000682c7900082caa0007b6ab8008283880682ca980028e200826c50018268d800958720d88708c88409d8490ada880ac83a0ad83a08c8820b7b6cc0017b67a0018267487b67c8018267407b67d0017b69a8018267387b67d8017b6ab0019567c0019568a0017b6bb80150203c0432129567800133084050203e040593956c000182c998007b69d80082c890007b68d00082ca88007b6ac80082cb80007b6bc0008267387bc7388267407bc7308267487bc7288267507bc7207bc9587bc8507bca489567600195684001956920017bcb4050204004f012502242043a4152077064a2956c000182c76882c8787b68b8008263600182ca7001d3b704d8b70cd89300da400cc92a08c9c804d8c8087b68b000d82a0a826cd8008268b800c9c80cc9ac0c8268b000c98c0cc9b707c90707c99308d4c707d4480ad47a0ad4470798aa20977720d4a70752070628e30e0095685838492800034928f8024928f0024928e802069567a0239568403b502044043d9495675820827850037b68d800827848037b68d000807758037b67c8003307b001037b67c0008377330046040a038269c0003302480428763c8269c000502248046f3c8269c800d398088269d000d39707d487078268d800d3a808d487078877019568582049284003492838037b872803956780234928300350204a0405259567602382685050204c04869195675820957900038298087b68d8008298187b68d0008298107b68c8008298207b68c0009567402382685850204e045591956a582082a7000395ab000282b8f00082b9e80082baf800826bc000d3b707826bc800d3b808d487078268d000d3a808826ad800d3a909d49808d48707520728094926d8004926d0004926c0004926c8001407ffffffff000000007b67b800019567802282685050205004e890956c582095ca000282a73082a84082a92882c43802826ad000d37a03d87a078262d800d89209db3709826bc000d84b078263c800d38300d88308da0708d34b07d40707da79085108540a7bc2c80182675095c800017b87e8007b8ad0008267387b87f0007b8bd8008267407b87f8007bc3e001956760229568402295692022826a487bca0002502052043b2695685820958b000282b72082b91882ba1082b808502254042c3b52070dfe95670022502056043490956c582082c7b00182c8b80182c9a8018477ff826bb800d2b8088499ffd49808d487078e77492ca001492c98017bc788019567e021492c9001330058043302c60528ff3b8267c80095685820958900017b97408267c0007b97388267d0007b97308267d8007b97288267307b97608267287b97588267207b9750648b9567c0219568a02195698021826a587bba480150205a047e2595685820958b000182b7800082b97882ba7082b86850225c046e3a52074ffd9567602150205e04768f330260049568582001958900018297207b6790008297187b6798008297107b67a0008297087b67a8008267c8007b87c0008267c0007b87b8008267d0007b87b0008267d8007b87a8008267487b87e0008267407b87d8008267387b87d000648b956740219568202195690021826a507bbac80050206204dc2495685820828700018289f800828af0008288e80050226404cd395207aefc9567e02050206604d58e956b582082b7880082b8900082b998008477ff8488ff826ab800d2a909492b80007bb9787bb8709568c0207bb768330750206804d98f95675820491760491758491750647a3307209568a020491a480450206a04b98f9517e08477e07b67b000647139089c010256183f0b20039c010240019517e08479e07b69880064913307b001028377839933084033006c040a06826a880033026e04288139826a880050226e047a3995678020502070045290956a582082a22882a73082a83882a940956c5818826b90007bcbe007826b98007bcbd807826ba0007bcbd007826ba8007bcbc8077ba97ba8f87ba7f09567602095684020956920207ba2e8502072045d20956a582082a72082a81882a91082aa08956b583895bc00037bc7207bc8187bc9107bca089568603b8267b000502074044b908267c800956b581895bc00077bc780008267c0007bc7788267d0007bc7708267d8007bc7688267307bc7a0008267287bc798008267207bc79000956700209568e01f9569c01f826a587bca8800502076042f2395685818958b000782b7c00082b9b80082bab00082b8a800502278041c385207fdfa9567a01f50207a04248d95685818958900078297487b67b0008297507b67a8008297587b67a0008297607b6798009568583849284003492838034928300349282803039567801f9568803b50207c04098f956b581882ba280782b7300782b8380782b94007826c98007bbce006826ca0007bbcd806826ca8007bbcd006826cb0007bbcc8067bb9000795bc00067bc8f8007bc7f0009567601f9568401f9569201f7bcae80050207e040b1f956a581895ab000782b70882b81082b91882ba20956b5838492b6003492b5803492b5003492b48030395bc00037bca80007bc9787bc8707bc7689567a03b9568c03b50208004e38e8267c80095685818958900067b9780008267c0007b97788267d0007b97708267d8007b97688267487b97a0008267407b9798008267387b979000648b9567001f9568e01e9569c01e826a507bba880650208204c52195685818958b000682b7c00082b9b80082bab00082b8a80050228404b236520793f99567a01e50208604ba8b330288049568581801958900068297487b67b0008297507b67a8008297587b67a0008267c8007b978267c000958a00057ba7f8008267d0007ba7f0008267d8007ba7e8008267307b97208267287b97188267207b9710648b9567801e9568601e9569401e826a587bba080650208a04282195685818958b000682b74082b93882ba3082b82850228c0419365207faf89567201e50208e04218b330290049568581801958900058297e0007b6798008297d8007b6790008297d0007b6788008297c8007b6780009567001e33084050209204e78a956b581895bc000582c7c00082c8b80082c9b00082caa800502294040d3a520794f8502296041a3a95b900057b978800826788007b979000826790007b9798009568e01d826798007b97a00064a77b6ab00050209804c98b956b581882677895bc00057bc7588267a0007bc7508267a8007bc7483a07a800023a08b000023a09b800023a0ac000027bc780007bc8787bc9707bca683308209569c01d956aa01d492b60058267b00050209a044a8d33029c0495685818018267c800958900057b978267c000958a00047ba7f8008267d0007ba7f0008267d8007ba7e8008267487b97208267407b97188267387b9710648b9567801d9568601d9569401d826a507bba080550209e04bc1f95685818958b000582b74082b93882ba3082b8285022a004ad3452078ef79567201d5020a204b58995685818958900048297c8007b67b0008297d0007b67a8008297d8007b67a0008267c8007b9780008267c0007b97788267d0007b97708267d8007b97688267307b97a0008267287b9798008267207b979000648b9567001d9568e01c9569c01c826a587bba88045020a404271f95685818958b000482b7c00082b9b80082bab00082b8a8005022a60414345207f5f69567a01c5020a8041c8995685818958900048297607b6798008297587b6790008297507b6788008297487b6780009567801c3308405020aa04eb88956b581895bc000482c74082c83882c93082ca285022ac04153852079cf65022ae04223895b900047b9708826788007b9710826790007b97189568601c826798007b972064a77b6ab0005020b004d589956c5818492cc00382677895cb00037bb7b8008267a0007bb7b0008267a8007bb7a800492ce003492cd803492cd0033a073000023a083800023a094000023a0a4800027bc700047bb8f8007bb9f0007bbae8003308209569401c956a201c956b001c492cc8038267b0005020b204e88b8268d8009588018887018269d000c879097b68d8007b69d000d498078877018268c000c88707d887088269c800c889097b69c8007b67c00028fef6956720233308405020b404e38795695820959c000282cae00082cbd80082c7d00082c8c8007b67d000d4a7077b68d800d4b808d47808988820d4b707977720d48707520779f54929b8024929b0024929a802140700000000a079c308956800237b97c0028267d8007b6ac8007b6bc0005020b604b4888267c8008269c000d47909140a00000000010000001407fcffffff000000008268d800d878078268d00094877b69c8009497510713f58267d800837704956958204929a0024929980249298802209568e022492990027b6ac0005020b80454888267c0009577dc8268d800d878078268d00094878268c80094875107cbf48267d80083772495695820492980024929780249296802169568c022492970025020ba0410881407bcffffff000000008268d800d878078268d00094878268c8009487510784f48267d8008377443a089000023a099800023a0aa00002956b582095bc00027bc8607bc9587bca509568a022492b48025020bc04ba873308648267d8005020be04158b83783307013309640a07013308b00102838833070133090a07280c838833070133090a07013308b001028388330733090a0728f33308b0010228e23308b0010228db3308b0010228d43308b0010228cd3308b0010228c63308b0010228bf95695820492938064929300649292806140700000000717b484e956880267b97400633075020c00425873302c204956858200149282006492818064928080622648933070495686026492910065020c404fc8639089c010256183f1220039c0102403308b001022844013308b00102283c013308b001022846ff3308b00102283eff3308b001022836ff3308b00102282eff4926100149260801492600013302c604140700000000717b484e01956800017b67180133075020c80492864926f8004926f0004926e000223307049568e0004926e8005020ca04748639089c010256183f1220039c0102403308b0010228bc003308b0010228b4003308b0010228befe3308b0010228b6fe3308b0010228aefe3308b0010228a6fe3308b00102289efe3308b001022896fe3308b00102288efe3308b001022886fe956758104927f8074927f0074927e807140700000000717b484e95684018956958187b9733075020cc04e9853302ce0495685810014928e0074928d8074928c807116489330704956820184929d0075020d004c08539089c010256183f1120039c0102403308b0010228083308b001020183883307013309240a073308b001022803fe3308b0010228fbfd3308b0010228f3fd3308b0010228ebfd3308b0010228e3fd3308b0010228dbfd3308b0010228d3fd52478be3fdf253956758384927c0054927b8054927b0054927a80595670040837700fe0a0a01956a583895ab000582b7b80082b8c00082b9b00082baa800d49808d4a707d487075107a5003308b001022880fd3308b001022878fd3308b001022870fd3308b001022868fd3308b001022860fd3308b001022858fd3308b001022850fd3308b001022848fd3308b001022840fd3308b001022838fd3308b001022830fd3308b001022828fd3308b001022820fd3308b001022818fd3308b001022810fd3308b001022808fd3308b001022800fd64977b68d8005020d204eb8783788169d80033070a07286be78267188177330823ac78233308b0010228d4fc3308b0010228ccfc3308b0010228c4fc3308b0010228bcfc9567e0343300d40433020405282c3395685830828790047b67d800828788047b67d000808798047b67c800956858384928e0054928d8054928d0054928c805069567c0349568203e5020d604ef849567583095790004829880007b68b8008298707b68b0008298687b68a8008298787b68c0003307b001037b67a00083773300d8040a038269a0003302da04281f2d8269a0005022da04182d8269c000979920989920d398088269a800d39707d487078268b000d3a808d487078877019568583049286004492858047b8748049567a034492850045020dc04a8158267d0008268c800d487078268d800d487078e779568583049284004492838047b87280495678034492830043300de0433028205280e2e8267c0009877209777208268c800d4870795685838492800064928f8054928f0054928e805068269b800958a00067ba9207ba7188267d8007ba7108267d0007ba7089567403e9568603e5020e00457843308b001028388330733090a072854fb9511a07b10587b15507b16489515608411f0828910828c08828b82881897923f98ca01d42a02978a3f989901d49a0a97cc3f98b901d49c0c98830184bb019ab888b60184c97fd2a804d2280adbbc09d2380b88982094a8d4b40c94c8ab86167b797b7a087b74107b7b185022e204313132005022e404282c5020e6045b8249111849111049012233070464184911085020e804448239089c010256183f0b20039c010240013308b0010283883307013309243300ea040a0701951170ff7b1088007b1580007b1678951590008411f064728289827408828c088273959a1fd89a00c80c0984aae07b1308c8a303d8a30bc8490ac8ba0ad39a06d89a07da6b07822b18d8c90c828610822210828818da000cc86c0cd86c06c82c09c89707d8c90cd89709c8b808c86808c8c808c8980c8ec88e79dbc809d4c7088ea6db8906520657821808d88308d34a09d84a06da9806d82708d3bc09d8bc0bda980bd32708d49808da860b520b307b13507b1a587b17603307409518507b1c685020ec045981955170ff82108800821580008216789511900032005022ee04892f5020f0043881491128491120491110413307049518104911185020f2041f8139089c010256183f0b20039c010240013308b0010283883307013309243300f4040a07019511e0fe7b1018017b1510017b160801951520018411f0828b10828a18828c0882827b1a687b1c78d4ac08d4b20ad48a0a98aa207b1b70d4b808978820d4a8087b170852084f028297187b17488296108297087b175082977b17584921f8004921f0004921e8009518e0004921e0002064277b12605020f6048080821858d46807821948821a50d4a909d497079877207b1620d46909979920d497075207f6019517c0005020f804177fff821770821868d47808140700000000010000007b17101407e0ffffff00000000821960d87907821a7894a77b181894875107b701821ad800821bd000821cc8008218c0008397207b18287b18a0007b1c307b1ca8007b1b387b1bb0009518a0007b1a407b1ab80064965020fa04e17fff8217109577c0d876078218789487821818948751076401821748821820d487071408e0ffffff00000000821a58d88a08821b5094b89478510840016469821828821c38d4c807821b40821630d46b0bd4b707987720d4cb0b97bb20d4b7075207190183974083aa207b1a5864865020fc04d5827b175082175864685020fe04c7826478821750646950200005937dff821760c86707d86708821978821b30c8b909c88909d3b90ad8b90bdaa80b821870821a38c8a808d8a80a821c68821640c86c0cc8ca0ac88b0bd88b08c8a808d4b808140ac0ffffff00000000d8a70a949a948a510a9500837740492198004921900049218800951880004921800050200205dd7eff82162895661f1407e0ffffff01000000d26707821860c88707d88708821a78c88a09d8a90ada880a821870c88a0ad88a08821b68c8b808957b40d87b07c8790cd89c09da7709c8a909d8a907c887078218087b8b7b8c087b89107b87189551e0fe82101801821510018216080195112001320000330804330006050a013302080528102b502208050d2b510a0b50220a05322c32003308b001028388330701330933000c050a0733020e05281e2d50220e051b2d330824330010050a013302120528d02a50221205cd2a510a0b50221405f22b32003308b0010283883307013309330016050a0701828b18828a108283088eb28eacdbb20cd4ba028e39db2c09520948828898a93b97bb05d49b02983b3b97aa05d4ba0a988b3b973305d4b30b978805958c20d88c08c88b09d8b90bda880bc8ab0bd8ab08c828087b7c7b79087b7b107b781832009511b07b10487b15409515508411f050221805462750201a05797dff491118491110490141330704641849110850201c05617dff39089c010256183f0b20039c010240013308b00102838833070133092433001e050a0701951140ff7b10b8007b15b0007b16a8009515c0008411f07c8833094dac896064764911584911504911487b18404911784911704911600a95178000951860951940491168502020055979ff821790008218980082198000821a88007b67107b68187b697b6a08955140ff8210b8008215b0008216a8009511c000320050222205812650202405b47cff4911184911104901113307046418491108502026059c7cff39089c010256183f0b20039c010240013308b001028388330701330924330028050a07019511f0fe7b1008017b1500017b16f800951510018411f0829310829c188296088299d4c60bd4390ad4ba0a7b177b1aa800510a350482871882801082820882847b1460683895884068cbdac80b7b1930689895894068687b1638da6908958980007b1c407b1348d4c30adaa90bd8890994a96808958840687cda780c6848958840682ada280a95a88000d47006da680cd8a8089468d38903d88906d8cb0ada3a06c989098864019544ffc9a90a9a63c9cb088e398e4bda490b7b18a000888900018599018eacdbac09db6b09821660d4060bd4720cd4cb0b8218a800888c0188bb01d4cb0bd4b9097b176864789498640b949b7b1258642c949c9496520946038217a0008579ff00d43902d44a09d492098217510932038219a0009598017b18a8007b1050888701c8a7077b178000d48707887701c837077b1770d83707c847077b177850222a052a277b162882176082185850202c05852a7b1798007b189000821750821868646950202e05952a7b17880082179000d487077b1790008218a0009a897f821760821658646850203005712a821928889a80007b1aa000821b9000dbab08821b68da9b087b18900082189800821b8800d4b808daa708821750da97087b189800821760646850203205322a821c70821978821a8000d49a0a8219a800d4c909d4a909821aa00093a87b18880093a77b17a000510902028216a80095698082175082186850203405ce297b17287b1818821760821858646950203605ba297b17107b18209a69800082175082186850203805ca29821920d49808886980007b1920821a18da9a08821a58db680a7b1a58821810d48707821828da9807821860db67087b1860821750821868646950203a0565298212583304821920939893977b1768821a3088a701821938c979077b1720d49a07887701821948c9790b7b1b18d87907821940c979097b191095aaff7b1a0882106001491128980b3f972a016426d4ba02970b018210900098093fd4b9097b1960821720d32703d8270b821708644cd89704db3b0497880182176898793fd498087b185898693f977701d497039707018218980098893fd4970797890182188800988b3fd4b909978b018216a00098603fd40b0b976601d46c0c7b1ca00086bb7b1b880086987b18980086777b179000821918c93907d84707d83909821b10821a58c9ab0bc99b0bc97b0b99bb3f821730d27b087b1850821c38d2bc0cd3c207d8c206821460d88400da7006821948d2b909c99308c968077b1768d86807d89309821640d2b606c96a08c99808c97808c9c20ac90a02821750c97400821ca80082168000d46c07887701821a70d87a09c97a0788ca01c9a606821a78c99a0a95ccff7b1680007b1a78d4a6097b1ca800d47c0ad4a90984b4017b17705209c7fe2808330449112801821a980098a73f82189000978801d48707821c880098c83f97aa01d4a8088219a000989a3f97cc01979601d46406821928d49a0ad4ac0cd4890bd47908821728058217017b767b7c087b7b107b78189551f0fe82100801821500018216f8009511100132004921e0004921d8004921d00033023c05140700000000717b484e019518d0007b17e800330750203e05e677ff4921c8004921c0004921b000123307049518b0004921b80050204005c777ff39089c010256183f0b20039c010240013308b001028388330701330924330042050a07019511d0fe7b1028017b1520017b161801951530018411f0829c10829618829208829bd46209d4cb0ad4a9097b177b19c80051091c05828418828310828008828968c79578406867da68077b1b6868b8958840682a7b1250da280a95a880007b1c607b1658d46c0bdab807d8a80894b8683a95ab40684ada4b0a689b649295bb40680cda0b0c95cb8000d44306da6b0ad8cb0b946bd3b80cd8b806d8a709dac906c9b808886b0195bbffc9980c9a68c9a7097b18b0008e878eb87b1bb800dab7087b19c000889700018577018ec9dbc907db6807642bd43208d44009d498088219c800889901888801d49808d487077b1408644994797b1310643294727b1018640a947a64b07b1b20947052075c038217c0008577ff008216b000d467078213b800d43c0bd4b70751073f038219c0009598017b18c800888701c8c7077b17a000d48707887701c867077b179800d86707c837077b17a8009a98ff007b1890009a898000821720821818502044059a257b17b8007b18b00082171082160864688219900050204605a6257b1788008217b000d487077b17b0008218c0009a897f82172082181850204805842582199000889a80007b1ac000821bb000dbab08da96087b18b0008218b800821b8800d4b808daa708821710da97087b18b80082172082181850204a054625821a98008219a800821ca000d49c0c8216c800d4a606d46c0c8219c00093987b18900093977b17c000510c10028216c80095698082171082180850204c05e0247b1788007b1878821720821818646950204e05cb247b17707b1880009a69800082171082180850205005da24821b8000d48b0b6469886880007b188000821a78da8a0b821a18da6a0b7b1b78821670d4760682178800da8706821720da97068217108218085020520575246464821378647233008217800093789372821968889701821a50c97a077b1740d4a907887701821a60c97a0b7b1b38d87a07821a58c97a0a7b1a309599ff7b1928017b108800491148984b3f973a01d4ba0a974b018210b00098093fd4b9097b1978821740d3a706d8a70b821728d89704db6b0497880198293fd498087b18800098393f972701d49703970701821bb80098b93fd4970797b90182169000986b3fd4b909976b018216c00098603fd40b0b97660182188800d486067b16c00086bb7b1b900086997b19b80086777b17b000821938c93907d84707d83909821b3082148000c94b0bc99b0bc97b0b99bb3f821768d27b087b1870821c50d2bc0cd3ca07d8ca06821278d88200da7006821960d2b909c99308c968077b178800d86807d89309821658d2b606c96408c99808c97808c9ca0ac90a03821770c97204821cc8008219a000d49c07887701821a9800d87a06c97a0788ca01c9a909821aa800c96a0a018212880095ccff7b1aa8007b19a000d4a9097b1cc800d47c0ad4a90984b0017b1798005209bafe2808330049114801821ab80098a73f8218b000978801d48707821c900098c83f97aa01d4a8088219c000989a3f97cc01979601d46000821948d49a0ad4ca0ad48902d4790901821668d60607821850ca080bc8b707d8b70bd6080cc8bc0ccaa60bc87b04d8b40b6497d6a609c8b909c8c909d8c90bd6a80cc8cb0bcaa80cc8c909d8c90cc8cb0b7b1bc800ca820cd6620bc8cb0bca670cc8cb03821758ca700c821b60d6b007c8c707caba0ac8a707c83707cab00aca6208c88a0ad88a08c887078218c800c88707c89a0ad89a08ca0602821908c98908c97803821818d34807d8480b821920d8290cda7c0b821610d8a607c9a60ad8ba06c86707c97306c9ba0ac9c807c94707c9290982187b897b87087b8a107b86189551d0fe821028018215200182161801951130013200492100014921f8004921f00033025405140700000000717b484e019518f0007b1708013307502056052a72ff4921e8004921e0004921d000123307049518d0004921d800502058050b72ff39089c010256183f0b20039c010240013308b00102838833070133092433005a050a07017c899594fed8940b95b9ff949b8eba95aaff95bbff8eb28eacdaa20cd4ab028e9388480001858801db9308db2c085208107b747b79087b7b107b7a1832009511b07b10487b15409515508411f050225c055a1b50205e058d71ff4911184911104901113307046418491108502060057571ff39089c010256183f0b20039c010240013308b001028388330701330924330062050a0733026405281f1c502264051c1c51070b502266057d2032009517a00033084050206805f26fff50226a05cd1b52075550226c05511d50206e051671ff502270051d1a51073f50227205e31d502074050071ff502276055d1b5107298216188367244911584911504911401495184049114850207805da70ff50227a053d1c520704008216188367443a083001023a093801027b18387b193014080000000065636e617b182895182049112050207c05a070ff330864646750207e05fc73ff8378330701330964330080050a073302820528531b50228205501b51070b50228405b11f32009517a00033084050208605266fff50228805011b52075550228a05851c50208c054a70ff50228e05511951073f50229005171d502092053470ff50229405911a5107298216188367244911584911504911401f951840491148502096050e70ff50229805711b520704008216188367443a084001027b18383a084801023a095001023a0a5801027b18307b19289518207b1a2050209a05d46fff330864646750209c053073ff837833070133096433009e050a07019511807b10787b15707b1668951580008411f0829b828a829608828308829410828c10829918828818d363027b1608d863067b1b187b1a10d8ba0a7b1ada2a06d3980ad89800d84c02daa200d34c0bd4ba0adaa600520046c94c0ac99808c92808d86a09c99808c96a0a821908c99309821bc9b909821b18821c10c9bc0b7b7b7b79087b7a107b78189551808210788215708216689511800032004911504911484911403302a005140700000000717b484e019518407b175833075020a205f76eff491138491130491120113307049518204911285020a405dd6eff39089c010256183f0b20039c010240013308b0010283883307013309243300a6050a07019511907b10687b15607b16589515708411f0828a187b1a08829b1882847b14828a08829608829c828310829210c8a609c8c404d8c40cc8c909d36900d86906da0c06c83208821c08c8bc0cd8280bc8cb0bc8680cd88c08c88b00d3a90bd8a90a8218d88406dbba06d83c02821808d3800bd8800adab20ad33c08d4b808db8a0652061f7b747b79087b7c107b701895519082106882156082165895117032005022a8055e1c5020aa050d6eff491128491120491110113307049518104911185020ac05f36dff39089c010256183f0b20039c010240013308b0010283883307013309243300ae050a0701951100ff7b10f8007b15f0007b16e800951500018411f0827810827918827a088277d4a909d48707d49707510719955100ff8210f8008215f0008216e8009511000132009517c0003308405020b005436cff8219d8008216d0008217c8008218c0007b17107b1908d497077b1818d46808d47808988820d46707977720d487075207d8004921b0004921a8004921a000140700000000a079c3089518a0007b17b8008217185020b205236dff5022b4052a165107a6008217188377044921980049219000492180002095188000492188005020b605f76cff5022b805541751077a821618836724491178491170491160229518604911685020ba05d16cff140700000000010000007b175022bc0528185107488216188367443a086001027b18583a086801023a097001023a0a7801027b18507b19489518407b1a405020be058c6cff821795779cd87607821810948782180894875207040082161883676449113049112814080000000000006e6f7b18389518204911205020c005506cff3308840064675020c205ab6fff8378330701330984003300c4050a073302c6052801175022c605fe1651070b5022c8055f1b32009517a0003308405020ca05d46aff5022cc05af165207555022ce0533185020d005f86bff5022d205ff1451073f5022d405c5185020d605e26bff5022d8053f165107298216188367244911584911504911401b9518404911485020da05bc6bff5022dc051f17520704008216188367443a088001023a098801023a0a9001027b18387b19307b1a28140900000000007373659518207b19205020de057d6bff33086464675020e005d96eff83783307013309643300e2050a0701951140ff7b10b8007b15b0007b16a8009515c0008411f0828b10828a18828c0882887b1a287b1c20d4ac0cd4b80ad4ca0a98aa207b1b30d4cb0b97bb20d4ba0a7b1738520af2008297187b17108296108297087b170882977b17951780007b18185020e405c069ff821210821c088213821788008218980082198000821a9000d3c70bd87c07d89309dbb709d8a607d3280bd88208dab708d36a0ad4ba0adaa9085108950098673b972805d4780298c83b976605d4680898393b97ca05d4a909973a05821718c87a0ad87a0b821c20c8c909c8b909d3c907d8c906da7b06821c30c8c808c88606d8860bd8c808821c28c82c07c88707c8b70795a820d8a80ac8a90bd89b09daaa09c86909d8690ac8a707821a387ba87bab087ba9107ba718955140ff8210b8008215b0008216a8009511c0003200004911704911684911603302e605140700000000717b484e019518607b177833075020e805056aff491158491150491140323307049518404911485020ea05eb69ff39089c010256183f0b20039c010240013308b0010283883307013309243300ec050a0701828a18828b108282088eac8eb9dbac09d4ba0a8e2bdba90b520b30828895891fd88908c828088488018499e0959a20d89a09c8980bd88b08da99084917187b7a7b7b087b781032009511b07b10487b15409515508411f05022ee0530135020f0056369ff49111849111049014133070464184911085020f2054b69ff39089c010256183f0b20039c010240013308b0010283883307013309243300f4050a0701951150fc951900037b90a8007b95a0007b9698009515b0038411f0828a10828618828c088282d46c08d4a209d498087b175108230b4921800049117833074911707b1288007b1c080164cb7b1a687b16606468017b1700016486d4a207d4b808d487075107e50364a364b4821a800095aa0188a801821b78c88b0bd4ba0888880182190001c8890cd89c08821970c889097b19707b1b78d49b087b1a80007b1c58d4ca09d498085108bf0b8877017b17000168379577406869da67096827957740684ada470a95a78000d4630bdab709d8a70a94ba8eab8897fd00857801daa80b88b7017b13b0007b16b800957cff9ab39aaac98a0a9a90fc008e388ec6dac8068ea9880800018588017b1af000dba908dbb60882190001d489098218b800821ab0009498949a7b140001644b949b7b12a8009492821658646752091aff8509ff00d439098217f000d4c707d479096467510903ff9508017b18f8008887018219f000c897077b17d000d48707887701c837077b17c000d83707c8c7077b17c8009a06ff009a6980008217a800821800015020f605f6167b17f0007b18e0008217b0008218b80064695020f80504177b17e8008217e000d487077b17e0009569808217a800821800015020fa05e416886980007b19a000821ae000db9a08821ab800da6a087b18e0008218f000821ae800d4a808da97088217b000da67087b18e8008217a8008218000164695020fc05a1168219c000821ac800821cd000d4ac0c8216f800d49606d46c0c8219a00093987b18d80093977b17f000510cc4018216f8009569808217b0008218b8005020fe0539167b17a0007b1890008217a8008218000164695020000621167b17507b1898009a6980008217b0008218b800502002062e1682199800d49808886980007b199800821a9000da9a08821a0001db680a7b1a0001821850d487078218a000da98078218a800db67087b18a8008217b0008218b800646950200406bf15330c82199800939893974921980009492190008212a800017b18a8007b1cb0004921a00098293f821c000197ca01d49a0a9722018213e000983b3fd4b2087b18b80082149000d3a400d8a40b82169800d88602db0b028218a800978801987b3fd4b80098cb3f977701d47b0b9737018218e80098863fd467039786018218d800988c3fd46c0c9787018216f00098683fd478089766018217b000d476067b16f00086887b18d80086c87b18e80086377b17e000c9b407d82707d8b408c9040cc98c0cc97c0c99cc3f84c70a8218b800c97802d87808c98a077b17000194a8c98b07d88b08c980088216f800821ad000d4a609889901821bc000d89b03c99b09886b01c9ba0a821bc800c93b0b9566ff7b1ad0007b1bc800d4ba0a7b16f800d4960bd4ba0a84cc017b19c000520aedfe28074921a000018219e80098973f8218e000978801d48707821ad80098a83f979901d48906821bf00098b93f97aa0197bb01d4bc028218a000d4980cd4ac0bd4680ad47808821758280ffc82178000951a00037ba7108217787ba718821700017ba72095173003951810038219707ba92850200606f2fa951800038287307b17f8008287387b17f0008287407b17e8008287487b17e0009517f002330840502008064b63ff821708037b171882160003951b000282b9f8007b191082baf0007b1a408218e0007bb8c8008218e8007bb8c0008218f0007bb8b8008218f8007bb8b0007bb7e8007bb6e0007bb9d8009517d0029518b0027bbad00050200a060fe2821740821818821910d48909d46708d498089888207b1608d46909979920d498085208470782188000951900027b9890008218787b989800821800017b98a000951890028216707b96a80050200c06d863ff951a00027ba668821700017ba7608217787ba7589517700295185002821980007ba95050200e06eef99518000282877082868800828978828a80009578e0d87807c8790b95bbffd39b0cd89b09dac70995a7ffc87909d8790788aa01c9a606c86707d4980ad4b707d47a0a98aa20d49707977720d4a70752079f06821718821908d49707140ae0ffffff00000000821940d8a90a821b1094ba947a510a7b0639079801027b17f8008397206486502010068c66ff837783688219f8000a82184095871f7b1738d88707821a10c87a097b1930d8a909da7709821708c879097b1928d87907821918c897077b172082138800821468821960821270821c8000821b78821a00018216080101d443077b160801d49606d467075107e0047b17f8007b19607b14687b138800d4ac07d42b09d4970751075106d4bc07887701d87a09c992097b199000c97a077b175888c701c97b0695c7ff7b1750951730027b12707b1c80007b1b787b1a0001502012062d61ff951b000282b73882b84882b93082ba40d3760b7b1648d87607821c50d89c09dbb709821c58d8ac07821b9000d38b06d88b08da6708d3ac07d46707da790851083c06821738821c8000c87c0cd87c07821a30821878c8a808c87808d3a809d8a80ada970a821b2882170001c8b707c87a0ad87a09d8b707821b20821670c86b0bc8b707c897077b1c8000d4ac09d48707d47909989920d4a707977720d4970782148800520702058217f8008877017b17000182126868279577408213606839da37096847957740821008016808da070895878000d4320adaa709d8870c94ac8ec68897fd00857a01daca068867019577ff9a6b9accc9ac0a9a99fc007b1bf8008ebc8e7bda7c0b8eac88980001858801dbac08db6b08821b0001d4b8089483642c948c9480644b948b7b1b00015208b3028598ff008216f800d46808d47a0bd4b80833020a5108ef02959b017b1b000188b801c8a8087b18d800d4b808888801c868087b18c800d86808c887077b17d00050221406ec0c644782180801502016064a107b17f8007b18e8008217688218606469502018065a107b17f0008217e800d487077b17e800956980821788008218080150201a063a10886980007b19c000821ae800db9a08821a60da6a087b18e8008218f800821af000d4a808da9708821768da67087b18f0008217880082180801646950201c06f90f8219c800821ad000821cd800d4ac0c82160001d49606d46c0c8219c00093987b18e00093977b17f800510cc2018216000195698082176882186050201e06930f7b17c0007b18b00082178800821808016469502020067b0f7b17a8007b18b8009a69800082176882186050202206890f8219b800d498086469886a80007b1ab800821bb000daab08821b0801db680b7b1b08018216a800d476068217c000daa70682178800da9706821768821860502024061f0f6464330c8219b800939893974921a0000949219800017b18b0007b1cb8004921a80098493f821c080197ca01d49a0a9744018213e800983b3fd4b4087b18c00082149800d3a400d8a40b8216a000d88602db0b028218b000978801987b3fd4b80098cb3f977701d47b0b9737018218f00098863fd467039786018218e000988c3fd46c0c9787018216f80098683fd478089766018217b800d476067b16f80086887b18e00086c87b18f00086377b17e800c9b407d8270733020ad8b408c9040cc98c0cc97c0c99cc3fd22c078218c000c97804d87808c98a077b17080194a8c98b07d88b08c9800882160001821ad800d4a609889901821bc800d89b03c99b09886b01c9ba0a821bd000c93b0b9566ff7b1ad8007b1bd000d4ba0a7b160001d4960bd4ba0a84cc017b19c800520aeafe280f33020a28514921a80033020a018219f00098973f8218e800978801d48707821ae00098a83f979901d49808821bf80098b93f97aa0197bb01d4cb0b7b1b0001821ba800d4b909d4a900d48b0cd47b0382148800017b10f0007b1cf8007b1308018216000196670abf74078677307b17e80033080182178000502026067061ff8218e8007878821c50821b48821a588212900064638216f0008214f800821908018218402816fb8217821a1882190882161028ef0095179001330840502028068b5cff8217a8017b17188216a001821898017b1810821990017b194049216801492160014921580149215001407b1788017b1680017b18780195177001951850017b19700150202a0662db821740821918821810d48909d46708d498089888207b1608d46909979920d4980852089a00492148014921400149213801330601951830017b16300150202c063a5dff821940821818821708d487079766209566e0d869088216109468947851085c8397204921200149211801140800000000000000307b182801951810014921100150202e06f35cff8218408217821a18821908017b787b76087b79107b7a18955150fc951700038270a8008275a000827698009511b003320000951900034929800049197849197033023006140700000000717b484e01951870037b978800330750203206935cff95190003491968491960491950113307049518500349195850203406745cff39089c010256183f1220039c0102403308b0010228da003308b0010228d2004921e0014921d8014921d00133023606140700000000717b484e019518d0017b17e801330750203806295cff4921c8014921c0014921b001113307049518b0014921b80150203a060a5cff39089c010256183f1120039c0102403308b0010228703308b0010228699519000249192049191849191033023c06140700000000717b484e01951810027b9728330750203e06c15bff49210802492100024921f001323307049518f0014921f80150204006a25bff39089c010256183f1120039c0102403308b0010228083308b00102018388330701330924330042060a0701951150fe7b10a8017b15a0017b1698019515b0018411f0828918828a10828b8288087b1750d49a0788b60a948694767b1968017b1a60017b18580195177001951850017b1b50015020440609f282198801821b8001821a7801821870015106c9027b1b307b19387b1a407b18489517300133084050204606c259ff82163001821b4801821a3801821c4001956720d86708c88a097b1a60d8a90ada880ac8ca0a7b1c58d8ca087b1b68c8b80850224806f804520898024921200149211801140800000000000000307b182801951810014921100150204a069c5aff821848821b30d4b807821940821a38d4a909d49707987720d4b909979920d4970752074e029517f00050204c063259ff956b21d86b07821860c8780cd88c08da7708821758c8870ad87a078218686469c87806d4ab07d46c08d48707987720d4a808978820d48707520707027b1928821738821830d478021408e0ffffff00000000821748d88708821940949894285108e00164797b1c107b16187b1a20821c0801821a00018218f0008216f800d4a8077b16307b1c40d46c0cd4c7079877207b1a38d4ca0a97aa20d4a7075207a3018397207b170864b764867b1b4850204e06205dff7b17821708646850205006125dff64788217646950205206de57ff7b1608821848c86807d88708821930821b10c8b909c88909d3b90ad8b90bdaa80b821c20821838c8c808c88b0bd88b0ad8c808821c18821640c86c0cc8c808c8a808d4b70ad49808d48a0a98aa20d4b808978820d4a808520819014921e8004921e0004921d8009518d0004921d000502054062759ff821728821958d4970a821860821b68d4b808d48a0a98aa20d49808978820d4a8085208d900821b0895b301883801821c30c88c02d42309889901821638c86909d8690a821840c8a80495ba217b1a48d8ba0bc8bc0a7b1a20d8ca0cdabb0cc86c0c7b1c30d86c0bc8b8087b18407b13b0007b12b8007b19c0009518b0007b14c8006476502056069d58ff8217407b1788008217307b1780008217207b17788217487b17708217687b17a8008217587b17a0008217607b179800951790009518707b1690005020580642d66468821968821a60821b58018217507b787b7a087b7b107b7918955150fe8210a8018215a001821698019511b001320000330750205a06c05bff33070150205c06b65bff82970881981082996f77977a206f88988820d48a0a9877206f98978920d4970798882095695828320282970881981082996f77977a206f88988820d48a0a9877206f98978920d4970798882095695810320282970881981082996f7a97a7206f88988820320282a71882a81082a90882aa6f776f8b6f996faa826888007b8a187b89107b8b087b879567ff0732028268d8008267c800826ac000d47a0a140b00000000010000001407fcffffff00000000d878078269d000949794a732028264308247188248106f736f8082674095781fd87807826a48c87a09d8a90ada770a826c50c8ac07977a3b989b05d4ba0a97993b988805d49808c838087b6838d83808c88009c89a0a3202d49707d48b09d47909989920d48707977720d497073202821908d46909140600000000010000001407fcffffff00000000821818d8780782181094877b190894973202d49b0bd48709d4b909989920d4b808978820d49808320282a71882a81082a90882aa6f776f8b6f996faa320282970882988199106f77987a206f88978b20d4ba0a9777206f99989920d49707988820320282970881981082996f77977a206f88988820d48a0a9877206f98978920d497079888203202d4a707d4980ad47a0a98aa20d49707977720d4a7073202491130491128491120140700000000717b484e9518207b173833073202826ad8001407bcffffff00000000d87a078268d00094878268c80094873202647183793308408267d000320282a71882a81082a90882aa6f776f8b6f996faa8268b0007b8a187b89107b8b087b873202d4a70bd49808d48b0b98bb20d4a808978820d4b808320282a71882a81082a90882aa6f776f886f996faa956b583832029567dc821818d878078218109487821808948732028264d8008263c0008260c800826870c84807d88708826b68c83b09c88909d3b90cd8b90bdac80b826c60c80c0832028219b8008216b0008217a8008218a0007b17107b1908d497077b1818d46808d47808988820d46707977720d487073202951120ff7b10d8007b15d0007b16c8009515e0008411f0827810827918827a088277d4a909d48707d4970732028269900082970881981082996f77977a206f88988820d48a0a9877206f98978920d497079888209569ff0795995132028267d80082689800c8780ad88a078268d00082698000c89808c8780bd39b08d89b09da87098267c80082688800c88707c8970c32021407bcffffff00000000d87607821810948782180894873202826ac80082a71882a81082a90882aa6f777b6798006f877b6790006f977b6788006fa77b6780009517e08477e07b67c80064713202826bc800826ad0008268d8008267c0009577dcd8780794a794b73202826b18826448826050826358953301883701c87000d40307887701826840c88707d88708c8840432029a96ff0033078000c96709320282a71882a81082a90882aa6f777b6798006f877b6790006f977b6788006fa77b6780009517e08477e03202492190004921880049218000140700000000a079c308951880007b179800821718320282a71882a81082a90882aa6f776f8b6f996faa826890007b8a187b89107b8b087b8733070030320282a71882a81082a90882aa6f776f886f996faa956b58303202826740826838d487071408e0ffffff00000000826a50d88a0882694894989478320282171082181814090000000001000000d37909d48909987a2088aa01948a939a320282171883770449117849117049116020951860491168320282b71882b82082b91082ba08d49808d4a707d4870732026f886f996faa3202c88b0bd88b08c8c808d49808d4b709d48909d4b808989920978820d49808320282689800826b8000d4b80782699000826a8800d4a909d49707987720d4b909979920d497073202826bc8008269c0008267d800d4b707826ad000d4a908d47808988820d4a707977720d487073202d49a0ad48709d4a909989920d4a808978820d4980832028268c00064898267d000d48707826ac8008268d800d4a808d47808988820d4a707977720d4870732028268c0008267d0008269d800d49707826ac800d4a809d47909989920d4a707977720d4970732028219821a087b697b6a087b67107b68189551c08210388215308216289511403202d49707d48a09d47909989920d48707977720d4970732028267b8008268a000d287077b67788268a8008488ff7b68a0008268b0008487ff7b67a800826780003202491140491138491130140700000000717b484e9518307b174833073202c8760a95ab000582b73882b84082b93082ba28d49808d4a707d4870732028267b8008269a800d497078268b000826aa000d4a808d48707987720d49808978820d48707320282b7980082b8a00082b9900082ba8800d49808d4a707d4870732029551a0821058821550821648951160320282b7e80082b8e00082b9d80082bad000956b583095bc000632029511c07b10387b15307b16289515408411e06476831732028269c00098973b8268d800978805d47808979905826780009574243202837758f8c8760a95ab00043202837758f8c8760a95ab00023202955120ff8210d8008215d0008216c8009511e000320282a71882a81082a90882aa6f773202849a40520a195109148d9a40cfa80ad09808d09707d4a707320032009597c0d0780733083200849a40520a195109148d9a40d0a70acf9707cf9808d4a808320032009598c0cf8708330732004992a424492449553149524992244992244992244992244992244992244992244992244992244992244992244992244992a4244949a22a2625491225499294242da994b4a452322525850895a44a2125499224499224499224499224499224499224499224499224499224499224495295a49492a4a424a12a2529499224499224499224499224499224499224499224494a92a42455252949a224a5495290a4a02449494a525595a42429492549111191922449499254a8945292a494529254524444141111294992a42449524a924812a592929222458a142952a44851928292244108094369521a12212249a48820112122221a111149222222224444444444844892a422492222a2102298a45029484952499224499224499924499224494a9288882849425021444488888808111122429424222222444444a52449244944442884082629540a52925492244992244952264992244992922422224a92105444848810404484880811212222121121222222849492544a929224111122422492888888442222425212092222a210111211420493142a69925410111111012422424484884844844888240511119148484a224152928888082184888888444424242149820ca55442352954694444448a882011212444224a23020988400202092420904002092490400209249040222222522422089214894823922425919244924824a9241251449244444444444484888888888848884824128988888888488a88902449922489884422110941224992241249449224924892482449492249922449000920894412319224499224499224491211114534224a4952129144a292942291442492888888089144924822111151898888881489088224452241442412894444848820222292244992484912894411299224499224498a888888888888082209241189882412912055944844444414111108242949444444444444448a88888888085144111181888888828888122108218249142a12514444202222228288242992482289244922222222228948a488888888882822221011115110312294882092a8c8249588129140248888888888888888242212444444444444440411118944a42062442811412451914954228a880844828888888888888888888808221011119124114124888824812422914844228828222290942422424444444444082122222222222211111141248888880824112122221111118d88884892a448248844229188888808222292249224899424894411299224499224498a8888442211092209241189888888882055944844444423124992242589888888888888141111111111112122888888881045111181482491242222228848a4888888888888888888288818114a449044218249142a1145440422491144444444444444248988041191242222222288928808229224222222222222222288888888249124114124888888082411894422a20842444444841022222222221111114124884892401211111111510411111111111121841011918888088a4a444444342290a42401444444444444444444444444444444115110312294882084082651a84844111181288a22892291884444444441444424522222882293a84414111188244510914824129120224902494422918814918888886844224992a42411111189888844a4209244894810229844a1124544042222222282482291484444142211441211111191484410111129111111111191888820222222222222222222828888888888888888880822222222222222228892444444041111111111111111111144444444444444444404914824121111111111414444444444824012111111111144124922890492880410894a222222499224494444904450228848229224114912912449922449922411111101444410482288249244120924110920129544922422492449920892084a04812422492289249148208988882090442422291149242212912449922489249224914414891444444444444444444404912022222222229148244944240824454444242222a2114992244991881491482412111111414444444410232222499224495252924424924422499224124444449224499204101111110449224922114190249288044192100921249148444444141111489224494a1211111111111191222212894488228a48041149a420624428114108114ca250918822220229a524512411118944a4201149921289208a4c124489248824451011119148924849224992448288244992244912402422220892444944228220492411098224210a214444442449221a49922449918814118944224411452482888888828811a14404214430922854228a480411111141c448129144124924499248102322224992244544001111114190242242444410248988101104494208119104108944444444238224258988482422222222229148922422452412894424221289881444224289882084082651a84844118920922422824844449144124924491211111191484444444444412422948808a2c82482282211442925894294281244442252904824494a44441045261144118920824824492491441249922422412422229224491211014444444410248944848888082222924a128908111104494208914812119140222222a2114192924444222222924841c48850228210c1240a9528221144444444109148241291202249822422222222a28844444444232222922429121121228888888888041111114112494444444444222222a21141929244442212894488228a48041149a420624428114188109149142a11458248222212894841444444948808a2884c228846920a224911292291482422828888888844221111111144444444924404114524822491828849944810456412411409229148440a228a444a448228229308a2884410498a20121111111191201211114112111111111111441491089292442242242211918848841022118948442212914844444424228848108924099288101111898888882212419222112922914824222222828888882222888888489288482422224144444444444414111144244944444444444444441011111111111129228288888824110922922422228a8888888820229148242222228a8808222222222212891411092246241289481024914824121144124922890449440288442591244992244922228224821241441291248948928824499224499224898888880820a220482288249244120992880410894a2222221291249224490449042582208948924822492412241111114190442422291149242212912449922489249224914444444414444422914844245244441009222222222222222222228a880882a48824229348924422924892942449124550542222221a11119124499188881011412422224124222282242222222212111111452482242589884444442451448a489244922485285144228848a2828890882084082651a848441189208a2412111151101111118988208a4ca212d1485241242982481011114192482422510489221241529248444444082144244912111141248888882089880811898888684444449224452222424404918888888888049188882089888888882822491411119188444424820822222229114524828824521031229488208a4c22289254144549a2888844225290884422252282283289201a492a88244510514422888888288818114a4410452611441189208a888888882888888888281111449149045144228820624424128948109124411291482422114414910892924444888888888808214444444444442422222288041111112411212222218a2822114444444441c488502282240a114ca2508928221144922288888888888888882422124410111111111111444484882022222222222222222222820892242222444444441009222222822422222222a208228a48044949424408212222222222221111114482882409928844221129828822124152921042444484888888484444044525a288441091440a2246841211245114994425a28844104144924444444444444444041111111111111144448488202222222222222249442488481211112192242288041149122411111111114510514422484a1222420811111111111189888820124444440449442291882882882212415292104244442444449248444404452580244922498a8888884824222222220a22115122429044516492204a244104918888888888888848444444824844444444928820128924119182484428111144121599248812491041242222222222222222222222824804111111412422221211298844841211411499441045248294529228512488482252904824494a442288229308a28844104124222222222222222222222282480411111141448248442441442412898814412422894822121189484424228410898844242211121111118908221244222222888810111124825223222214242944308942a5a82249922449aa4a2912a92449322222912412499244141141904812444424491211414412492289441249224924951251898888822485082651a814552449922449552945229524494644249244224992882222081249828824298944109144924822914492481249a5445422d28888a8a424919244924824a924125144444444444444444410914824129120229148242222222222a28808922449924444241289882048248924492492489244124992242949244992240920894412234992244992489224111145443422894445522492888848241111115110492489241211112523499224222291884414114124888888888844229188488a88088228222222929124491291484422222288041111111191244992242212042992884c922491882492244992242322424410111111218a2212412492481211111144828844229188041111119148229124222202889120224944124924922489484424221111910822922488082222124952444444242212894492242922124144240922828891482412111111118944a2884804111111440411114924924841242911411285082651a84411892082489288888888288988049124114912114444442291442211118920222222880822128944222222440411111111111111111111114424494444884812114444442291442251442482888888202288188944228a88888824498a8844109124414410312222222222414444441041444444441441241289841042244944441031a28888884892a4884804114912440411111111119148249148141189202222228808221289442212442449104124128948114424222222224208212222111111441289482289442412444444442249928888002222228848000144a22822111122228844a2282211112282002251149110424492882011943494aad4505528140a85421111014414448c082522081184848484848444440430a220222422081184848484848484848484444404105141c4885022821041282c2924242424242424101111118d88884812212121212121212121212121212121212145505452121212121211898888888888101144442412891045118920924412492222228288448a8888884824918888109144221141a84a9224494992244952922429a524414190242508110c25d18848a49292244992244992244992a49292244992244992244144240a822492042182a1241a1111495292244992489294888850822449922411812401248024a5888848229188448124294592009254942449922492142405a540922449922449922401a42211111148024892244992244992a4241111d144912041a114458244912041a1144d52494949922449922449494a92048124298110c150128d8888949424494492404444522222a2209024251022184aa211119124252922492925a524922495524a24294992a454225292249124a94a1511498a4824892449122409229282884424294844248988248914249148a2282292044952904412249124499224490a522a49922449922499a42492244949922449224924892489a228922449922449922449922449922422499224892492242a2391449248922449b524111151444400230a448444044204434934222292a4244524a99494924892544aa544929224494a5424222525892449a552a588884412914822492411114910911441442292041111494424492441442492288a8824412429484412448a4892249124094a452549922449928c24492449922449244924892491241245512449224992244992248924499224114924496424229124a232124924892449924c9224495292244912499224499224492449922449922449924a12111145440430a24044484420443094444b524925459294a424491048921208110c25512448502410240804090241922492409049084900490229501245820445024182409020102449220904998484109224900225d1248954922449929424499224499292a4244912258900260592481208110c25d12449925452922449922449929224499294244952104822492044309444232222494a928888281288884892244922220288482088242244048224492481000a928484109224509252264900490251a04414091214090409024182409024892410641242481240124881926844442449499224492249529140524444922449924892244992244992244992244992942422229a24029814482249204430944493545252922449929292244120494a204430944423222292a42445a44494344a1215499244922489249128a594485291242295a8148924125151518a482445229148124944440411110511894404119148442491882888884412451191882022a220111141242212892412898882a242c48848248924228924922449248924912412455124499244922849441249124944224944311249248924892449229244229220128944221288444422111111111111114192244992888844442402914812110922914892244992244992481240928a102950314992244992249244222692882492449244922491480422499224492249924824499224912449924892241191484929512249459254222a45924855454424492492481249044510911444241211444492884892882888884412451191248888288888248814118944241249828a0a312212492289482289244912492249248944511449922489245192882492249288449288526424924812491291243122224924025192282292922412884424121121222222489224491211918840922449251101444420254b121111d188240218512092482410220809898808604481889088408820148a2411c048818890884088201496442322224949521111114144442449241011912449922488880022229024499224229024499294244912491240928a92444424499224915402a540154892244992244992244992444444049224499244922449922449922449444414482492249148442228c9942422225a2081a45292924449a5242589924a29495591a42822124000892a4925499224499224494992a424800092944a922425a9aa9452929294544a52929224494902482a0248145589925415492a499294a4aa28494a454492244992222292244992222222494a522495929424524412912489480a202915492a8aa248a22222922a4992244952444a525114455244041091925415498a9254152509204995049024559244529224a92a499224292211499214118924494a922445918824498a88449224959224494a92244524918844942480a4124992a488442449524444929224454444942449158924912251248a888892544992249554922449250500"
        },
        "methodIdentifiers": {
          "allowance(address,address)": "dd62ed3e",
          "amountInUSD(uint256)": "c7b8ea74",
          "approve(address,uint256)": "095ea7b3",
          "balanceOf(address)": "70a08231",
          "balanceOfInUSD(address)": "14e7ee41",
          "batchMint(address[],uint256[])": "68573107",
          "burn(uint256)": "42966c68",
          "decimals()": "313ce567",
          "decreaseAllowance(address,uint256)": "a457c2d7",
          "faucet(uint256)": "57915897",
          "increaseAllowance(address,uint256)": "39509351",
          "mint(address,uint256)": "40c10f19",
          "name()": "06fdde03",
          "owner()": "8da5cb5b",
          "symbol()": "95d89b41",
          "totalSupply()": "18160ddd",
          "transfer(address,uint256)": "a9059cbb",
          "transferFrom(address,address,uint256)": "23b872dd",
          "transferOwnership(address)": "f2fde38b"
        }
      },
      "hash": "67cf2522082dbacb00a6b679f435a7a17bf780e75ccfb99b262c166758e10a7d",
      "factoryDependencies": {}
    }
  }
}