{"contracts/MockUSDStableCoin.sol":{"MockUSDStableCoin":{"abi":[{"inputs":[],"stateMutability":"nonpayable","type":"constructor"},{"inputs":[{"internalType":"address","name":"spender","type":"address"},{"internalType":"uint256","name":"allowance","type":"uint256"},{"internalType":"uint256","name":"needed","type":"uint256"}],"name":"ERC20InsufficientAllowance","type":"error"},{"inputs":[{"internalType":"address","name":"sender","type":"address"},{"internalType":"uint256","name":"balance","type":"uint256"},{"internalType":"uint256","name":"needed","type":"uint256"}],"name":"ERC20InsufficientBalance","type":"error"},{"inputs":[{"internalType":"address","name":"approver","type":"address"}],"name":"ERC20InvalidApprover","type":"error"},{"inputs":[{"internalType":"address","name":"receiver","type":"address"}],"name":"ERC20InvalidReceiver","type":"error"},{"inputs":[{"internalType":"address","name":"sender","type":"address"}],"name":"ERC20InvalidSender","type":"error"},{"inputs":[{"internalType":"address","name":"spender","type":"address"}],"name":"ERC20InvalidSpender","type":"error"},{"inputs":[{"internalType":"address","name":"owner","type":"address"}],"name":"OwnableInvalidOwner","type":"error"},{"inputs":[{"internalType":"address","name":"account","type":"address"}],"name":"OwnableUnauthorizedAccount","type":"error"},{"anonymous":false,"inputs":[{"indexed":true,"internalType":"address","name":"owner","type":"address"},{"indexed":true,"internalType":"address","name":"spender","type":"address"},{"indexed":false,"internalType":"uint256","name":"value","type":"uint256"}],"name":"Approval","type":"event"},{"anonymous":false,"inputs":[{"indexed":true,"internalType":"address","name":"previousOwner","type":"address"},{"indexed":true,"internalType":"address","name":"newOwner","type":"address"}],"name":"OwnershipTransferred","type":"event"},{"anonymous":false,"inputs":[{"indexed":true,"internalType":"address","name":"from","type":"address"},{"indexed":true,"internalType":"address","name":"to","type":"address"},{"indexed":false,"internalType":"uint256","name":"value","type":"uint256"}],"name":"Transfer","type":"event"},{"inputs":[{"internalType":"address","name":"owner","type":"address"},{"internalType":"address","name":"spender","type":"address"}],"name":"allowance","outputs":[{"internalType":"uint256","name":"","type":"uint256"}],"stateMutability":"view","type":"function"},{"inputs":[{"internalType":"address","name":"spender","type":"address"},{"internalType":"uint256","name":"value","type":"uint256"}],"name":"approve","outputs":[{"internalType":"bool","name":"","type":"bool"}],"stateMutability":"nonpayable","type":"function"},{"inputs":[{"internalType":"address","name":"account","type":"address"}],"name":"balanceOf","outputs":[{"internalType":"uint256","name":"","type":"uint256"}],"stateMutability":"view","type":"function"},{"inputs":[{"internalType":"address[]","name":"recipients","type":"address[]"},{"internalType":"uint256[]","name":"amounts","type":"uint256[]"}],"name":"batchMint","outputs":[],"stateMutability":"nonpayable","type":"function"},{"inputs":[{"internalType":"uint256","name":"amount","type":"uint256"}],"name":"burn","outputs":[],"stateMutability":"nonpayable","type":"function"},{"inputs":[],"name":"decimals","outputs":[{"internalType":"uint8","name":"","type":"uint8"}],"stateMutability":"view","type":"function"},{"inputs":[{"internalType":"uint256","name":"amount","type":"uint256"}],"name":"faucet","outputs":[],"stateMutability":"nonpayable","type":"function"},{"inputs":[{"internalType":"address","name":"to","type":"address"},{"internalType":"uint256","name":"amount","type":"uint256"}],"name":"mint","outputs":[],"stateMutability":"nonpayable","type":"function"},{"inputs":[],"name":"name","outputs":[{"internalType":"string","name":"","type":"string"}],"stateMutability":"view","type":"function"},{"inputs":[],"name":"owner","outputs":[{"internalType":"address","name":"","type":"address"}],"stateMutability":"view","type":"function"},{"inputs":[],"name":"renounceOwnership","outputs":[],"stateMutability":"nonpayable","type":"function"},{"inputs":[],"name":"symbol","outputs":[{"internalType":"string","name":"","type":"string"}],"stateMutability":"view","type":"function"},{"inputs":[],"name":"totalSupply","outputs":[{"internalType":"uint256","name":"","type":"uint256"}],"stateMutability":"view","type":"function"},{"inputs":[{"internalType":"address","name":"to","type":"address"},{"internalType":"uint256","name":"value","type":"uint256"}],"name":"transfer","outputs":[{"internalType":"bool","name":"","type":"bool"}],"stateMutability":"nonpayable","type":"function"},{"inputs":[{"internalType":"address","name":"from","type":"address"},{"internalType":"address","name":"to","type":"address"},{"internalType":"uint256","name":"value","type":"uint256"}],"name":"transferFrom","outputs":[{"internalType":"bool","name":"","type":"bool"}],"stateMutability":"nonpayable","type":"function"},{"inputs":[{"internalType":"address","name":"newOwner","type":"address"}],"name":"transferOwnership","outputs":[],"stateMutability":"nonpayable","type":"function"}],"evm":{"assembly":"// RO data = 0/0 bytes\n// RW data = 400/65984 bytes\n// Stack size = 32768 bytes\n\n// Instructions = 8262\n// Code size = 29170 bytes\n\n      : @0 (gas: 1)\n     0: jump @14 if a0 == a1\n      : @1 (gas: 9)\n     3: a3 = a1 << 0x20\n     6: a3 = a3 >> 0x20\n     9: a4 = a0 << 0x20\n    12: a4 = a4 >> 0x20\n    15: a4 = a4 + a2\n    18: a3 = a3 - a4\n    21: a4 = a2 << 0x1\n    24: a4 = -a4\n    26: jump @7 if a4 >=u a3\n      : @2 (gas: 1)\n    29: jump @11 if a0 >=u a1\n      : @3 (gas: 1)\n    32: jump @14 if a2 == 0\n      : @4 (gas: 3)\n    35: a2 = a2 + a0\n    38: a3 = a0\n    40: fallthrough\n      : @5 (gas: 6)\n    41: a4 = u8 [a1]\n    43: a1 = a1 + 0x1\n    46: a5 = a3 + 0x1\n    49: u8 [a3] = a4\n    51: a3 = a5\n    53: jump @5 if a5 != a2\n      : @6 (gas: 1)\n    56: jump @14\n      : @7 (gas: 1)\n    58: jump @14 if a2 == 0\n      : @8 (gas: 3)\n    61: a2 = a2 + a0\n    64: a3 = a0\n    66: fallthrough\n      : @9 (gas: 6)\n    67: a4 = u8 [a1]\n    69: a1 = a1 + 0x1\n    72: a5 = a3 + 0x1\n    75: u8 [a3] = a4\n    77: a3 = a5\n    79: jump @9 if a5 != a2\n      : @10 (gas: 1)\n    82: jump @14\n      : @11 (gas: 1)\n    84: jump @14 if a2 == 0\n      : @12 (gas: 2)\n    87: i32 a3 = a2 + 0xffffffffffffffff\n    90: fallthrough\n      : @13 (gas: 7)\n    91: a4 = a1 + a3\n    94: a4 = u8 [a4]\n    96: a2 = a2 + 0xffffffffffffffff\n    99: a5 = a0 + a3\n   102: u8 [a5] = a4\n   104: i32 a3 = a3 + 0xffffffffffffffff\n   107: jump @13 if a2 != 0\n      : @14 (gas: 1)\n   110: ret\n      : @15 (gas: 2)\n   112: a1 = i32 [0x20198]\n   117: jump @255 if a1 == 0\n      : @16 (gas: 4)\n   121: a0 = 0x301c0\n   126: i32 a0 = a0 + 0\n   128: ecalli 8 // 'set_immutable_data'\n   130: jump @255\n      : @17 (gas: 8)\n   133: sp = sp + 0xfffffffffffffff0\n   136: u64 [sp + 0x8] = ra\n   139: u64 [sp] = s0\n   141: a2 = a1\n   143: s0 = a0\n   145: a1 = 0x20\n   148: a0 = a2\n   150: ra = 2, jump @26\n      : @18 [@dyn 1] (gas: 100)\n   155: a1 = u8 [a0 + 0x1]\n   158: a2 = u8 [a0]\n   160: a3 = u8 [a0 + 0x2]\n   163: a4 = u8 [a0 + 0x3]\n   166: a1 = a1 << 0x8\n   169: a1 = a1 | a2\n   172: a3 = a3 << 0x10\n   175: a4 = a4 << 0x18\n   178: a3 = a3 | a4\n   181: a1 = a1 | a3\n   184: a2 = u8 [a0 + 0x5]\n   187: a3 = u8 [a0 + 0x4]\n   190: a4 = u8 [a0 + 0x6]\n   193: a5 = u8 [a0 + 0x7]\n   196: a2 = a2 << 0x8\n   199: a2 = a2 | a3\n   202: a4 = a4 << 0x10\n   205: a5 = a5 << 0x18\n   208: a4 = a4 | a5\n   211: a2 = a2 | a4\n   214: a2 = a2 << 0x20\n   217: t0 = a2 | a1\n   220: a2 = u8 [a0 + 0x9]\n   223: a3 = u8 [a0 + 0x8]\n   226: a4 = u8 [a0 + 0xa]\n   229: a5 = u8 [a0 + 0xb]\n   232: a2 = a2 << 0x8\n   235: a2 = a2 | a3\n   238: a4 = a4 << 0x10\n   241: a5 = a5 << 0x18\n   244: a4 = a4 | a5\n   247: a2 = a2 | a4\n   250: a3 = u8 [a0 + 0xd]\n   253: a4 = u8 [a0 + 0xc]\n   256: a5 = u8 [a0 + 0xe]\n   259: a1 = u8 [a0 + 0xf]\n   262: a3 = a3 << 0x8\n   265: a3 = a3 | a4\n   268: a5 = a5 << 0x10\n   271: a1 = a1 << 0x18\n   274: a1 = a1 | a5\n   277: a1 = a1 | a3\n   280: a1 = a1 << 0x20\n   283: t1 = a1 | a2\n   286: a1 = u8 [a0 + 0x11]\n   289: a3 = u8 [a0 + 0x10]\n   292: a4 = u8 [a0 + 0x12]\n   295: a5 = u8 [a0 + 0x13]\n   298: a1 = a1 << 0x8\n   301: a1 = a1 | a3\n   304: a4 = a4 << 0x10\n   307: a5 = a5 << 0x18\n   310: a4 = a4 | a5\n   313: a1 = a1 | a4\n   316: a3 = u8 [a0 + 0x15]\n   319: a4 = u8 [a0 + 0x14]\n   322: a5 = u8 [a0 + 0x16]\n   325: a2 = u8 [a0 + 0x17]\n   328: a3 = a3 << 0x8\n   331: a3 = a3 | a4\n   334: a5 = a5 << 0x10\n   337: a2 = a2 << 0x18\n   340: a2 = a2 | a5\n   343: a2 = a2 | a3\n   346: a2 = a2 << 0x20\n   349: a3 = a2 | a1\n   352: a1 = u8 [a0 + 0x19]\n   355: a2 = u8 [a0 + 0x18]\n   358: a4 = u8 [a0 + 0x1a]\n   361: a5 = u8 [a0 + 0x1b]\n   364: a1 = a1 << 0x8\n   367: a1 = a1 | a2\n   370: a4 = a4 << 0x10\n   373: a5 = a5 << 0x18\n   376: a4 = a4 | a5\n   379: a1 = a1 | a4\n   382: a2 = u8 [a0 + 0x1d]\n   385: a4 = u8 [a0 + 0x1c]\n   388: a5 = u8 [a0 + 0x1e]\n   391: a0 = u8 [a0 + 0x1f]\n   394: a2 = a2 << 0x8\n   397: a2 = a2 | a4\n   400: a5 = a5 << 0x10\n   403: a0 = a0 << 0x18\n   406: a0 = a0 | a5\n   409: a0 = a0 | a2\n   412: a0 = a0 << 0x20\n   415: a0 = a0 | a1\n   418: a0 = reverse a0\n   420: a1 = reverse a3\n   422: a2 = reverse t1\n   424: a3 = reverse t0\n   426: u64 [s0 + 0x18] = a3\n   429: u64 [s0 + 0x10] = a2\n   432: u64 [s0 + 0x8] = a1\n   435: u64 [s0] = a0\n   437: ra = u64 [sp + 0x8]\n   440: s0 = u64 [sp]\n   442: sp = sp + 0x10\n   445: ret\n      : @19 (gas: 12)\n   447: sp = sp + 0xffffffffffffffd8\n   450: u64 [sp + 0x20] = ra\n   453: u64 [sp + 0x18] = s0\n   456: u64 [sp + 0x10] = s1\n   459: a2 = u64 [a1]\n   461: u64 [sp + 0x8] = a2\n   464: a2 = u64 [a1 + 0x8]\n   467: u64 [sp] = a2\n   469: s0 = u64 [a1 + 0x10]\n   472: s1 = u64 [a1 + 0x18]\n   475: a1 = 0x20\n   478: ra = 4, jump @26\n      : @20 [@dyn 2] (gas: 71)\n   483: a1 = reverse s1\n   485: a2 = reverse s0\n   487: a3 = u64 [sp]\n   489: a3 = reverse a3\n   491: a4 = u64 [sp + 0x8]\n   494: a4 = reverse a4\n   496: u8 [a0 + 0x18] = a4\n   499: u8 [a0 + 0x10] = a3\n   502: u8 [a0 + 0x8] = a2\n   505: u8 [a0] = a1\n   507: a5 = a4 >> 0x38\n   510: u8 [a0 + 0x1f] = a5\n   513: a5 = a4 >> 0x30\n   516: u8 [a0 + 0x1e] = a5\n   519: a5 = a4 >> 0x28\n   522: u8 [a0 + 0x1d] = a5\n   525: a5 = a4 >> 0x20\n   528: u8 [a0 + 0x1c] = a5\n   531: a5 = a4 >> 0x18\n   534: u8 [a0 + 0x1b] = a5\n   537: a5 = a4 >> 0x10\n   540: u8 [a0 + 0x1a] = a5\n   543: a4 = a4 >> 0x8\n   546: u8 [a0 + 0x19] = a4\n   549: a4 = a3 >> 0x38\n   552: u8 [a0 + 0x17] = a4\n   555: a4 = a3 >> 0x30\n   558: u8 [a0 + 0x16] = a4\n   561: a4 = a3 >> 0x28\n   564: u8 [a0 + 0x15] = a4\n   567: a4 = a3 >> 0x20\n   570: u8 [a0 + 0x14] = a4\n   573: a4 = a3 >> 0x18\n   576: u8 [a0 + 0x13] = a4\n   579: a4 = a3 >> 0x10\n   582: u8 [a0 + 0x12] = a4\n   585: a3 = a3 >> 0x8\n   588: u8 [a0 + 0x11] = a3\n   591: a3 = a2 >> 0x38\n   594: u8 [a0 + 0xf] = a3\n   597: a3 = a2 >> 0x30\n   600: u8 [a0 + 0xe] = a3\n   603: a3 = a2 >> 0x28\n   606: u8 [a0 + 0xd] = a3\n   609: a3 = a2 >> 0x20\n   612: u8 [a0 + 0xc] = a3\n   615: a3 = a2 >> 0x18\n   618: u8 [a0 + 0xb] = a3\n   621: a3 = a2 >> 0x10\n   624: u8 [a0 + 0xa] = a3\n   627: a2 = a2 >> 0x8\n   630: u8 [a0 + 0x9] = a2\n   633: a2 = a1 >> 0x38\n   636: u8 [a0 + 0x7] = a2\n   639: a2 = a1 >> 0x30\n   642: u8 [a0 + 0x6] = a2\n   645: a2 = a1 >> 0x28\n   648: u8 [a0 + 0x5] = a2\n   651: a2 = a1 >> 0x20\n   654: u8 [a0 + 0x4] = a2\n   657: a2 = a1 >> 0x18\n   660: u8 [a0 + 0x3] = a2\n   663: a2 = a1 >> 0x10\n   666: u8 [a0 + 0x2] = a2\n   669: a1 = a1 >> 0x8\n   672: u8 [a0 + 0x1] = a1\n   675: ra = u64 [sp + 0x20]\n   678: s0 = u64 [sp + 0x18]\n   681: s1 = u64 [sp + 0x10]\n   684: sp = sp + 0x28\n   687: ret\n      : @21 (gas: 48)\n   689: sp = sp + 0xffffffffffffffa0\n   692: u64 [sp + 0x58] = ra\n   695: u64 [sp + 0x50] = s0\n   698: u64 [sp + 0x48] = s1\n   701: s0 = sp + 0x60\n   704: sp = sp & 0xffffffffffffffe0\n   707: s1 = a0\n   709: a0 = u64 [a1 + 0x18]\n   712: a2 = u64 [a1 + 0x10]\n   715: a3 = u64 [a1 + 0x8]\n   718: a1 = u64 [a1]\n   720: a0 = reverse a0\n   722: a2 = reverse a2\n   724: a3 = reverse a3\n   726: a1 = reverse a1\n   728: u64 [sp + 0x18] = a1\n   731: u64 [sp + 0x10] = a3\n   734: u64 [sp + 0x8] = a2\n   737: u64 [sp] = a0\n   739: u64 [sp + 56] = 0\n   742: u64 [sp + 48] = 0\n   745: u64 [sp + 40] = 0\n   748: u64 [sp + 32] = 0\n   751: u32 [sp + 64] = 0x20\n   755: i32 a1 = sp + 0\n   757: i32 a3 = sp + 0x20\n   760: i32 a4 = sp + 0x40\n   763: a2 = 0xffffffffffffffff\n   766: a0 = 0\n   768: ecalli 5 // 'get_storage'\n   770: a0 = u64 [sp + 0x38]\n   773: a1 = u64 [sp + 0x30]\n   776: a2 = u64 [sp + 0x28]\n   779: a3 = u64 [sp + 0x20]\n   782: a0 = reverse a0\n   784: a1 = reverse a1\n   786: a2 = reverse a2\n   788: a3 = reverse a3\n   790: u64 [s1 + 0x18] = a3\n   793: u64 [s1 + 0x10] = a2\n   796: u64 [s1 + 0x8] = a1\n   799: u64 [s1] = a0\n   801: sp = s0 + 0xffffffffffffffa0\n   804: ra = u64 [sp + 0x58]\n   807: s0 = u64 [sp + 0x50]\n   810: s1 = u64 [sp + 0x48]\n   813: sp = sp + 0x60\n   816: ret\n      : @22 (gas: 40)\n   818: sp = sp + 0xffffffffffffffa0\n   821: u64 [sp + 0x58] = ra\n   824: u64 [sp + 0x50] = s0\n   827: s0 = sp + 0x60\n   830: sp = sp & 0xffffffffffffffe0\n   833: t0 = u64 [a0]\n   835: a3 = u64 [a0 + 0x8]\n   838: a4 = u64 [a0 + 0x10]\n   841: a0 = u64 [a0 + 0x18]\n   844: t1 = u64 [a1]\n   846: a2 = u64 [a1 + 0x8]\n   849: a5 = u64 [a1 + 0x10]\n   852: a1 = u64 [a1 + 0x18]\n   855: t2 = reverse a0\n   857: a4 = reverse a4\n   859: a3 = reverse a3\n   861: a0 = reverse t0\n   863: t0 = reverse a1\n   865: a5 = reverse a5\n   867: a2 = reverse a2\n   869: a1 = reverse t1\n   871: u64 [sp + 0x18] = a0\n   874: u64 [sp + 0x10] = a3\n   877: u64 [sp + 0x8] = a4\n   880: u64 [sp] = t2\n   882: u64 [sp + 0x38] = a1\n   885: u64 [sp + 0x30] = a2\n   888: u64 [sp + 0x28] = a5\n   891: u64 [sp + 0x20] = t0\n   894: i32 a1 = sp + 0\n   896: i32 a3 = sp + 0x20\n   899: a2 = 0xffffffffffffffff\n   902: a4 = 0x20\n   905: a0 = 0\n   907: ecalli 9 // 'set_storage'\n   909: sp = s0 + 0xffffffffffffffa0\n   912: ra = u64 [sp + 0x58]\n   915: s0 = u64 [sp + 0x50]\n   918: sp = sp + 0x60\n   921: ret\n      : @23 (gas: 33)\n   923: sp = sp + 0xffffffffffffff20\n   927: u64 [sp + 0xd8] = ra\n   931: u64 [sp + 0xd0] = s0\n   935: u64 [sp + 0xc8] = s1\n   939: s0 = sp + 0xe0\n   943: sp = sp & 0xffffffffffffffe0\n   946: a5 = u64 [a4]\n   948: u64 [sp + 0x40] = a5\n   951: a5 = u64 [a4 + 0x8]\n   954: u64 [sp + 0x48] = a5\n   957: a5 = u64 [a4 + 0x10]\n   960: u64 [sp + 0x50] = a5\n   963: a4 = u64 [a4 + 0x18]\n   966: u64 [sp + 0x58] = a4\n   969: t0 = 0x6\n   972: a4 = u64 [a3]\n   974: u64 [sp + 0x18] = a4\n   977: a4 = u64 [a3 + 0x8]\n   980: u64 [sp + 0x20] = a4\n   983: a4 = u64 [a3 + 0x10]\n   986: u64 [sp + 0x28] = a4\n   989: a3 = u64 [a3 + 0x18]\n   992: u64 [sp + 0x30] = a3\n   995: s1 = u64 [a2]\n   997: a3 = u64 [a2 + 0x8]\n  1000: u64 [sp] = a3\n  1002: a3 = u64 [a2 + 0x10]\n  1005: u64 [sp + 0x8] = a3\n  1008: a2 = u64 [a2 + 0x18]\n  1011: u64 [sp + 0x10] = a2\n  1014: u64 [sp + 0x38] = a1\n  1017: ra = 0x8\n  1020: jump @26\n      : @24 [@dyn 3] (gas: 2)\n  1023: u64 [sp + 0x38] = a1\n  1026: ra = 8, jump @26\n      : @25 [@dyn 4] (gas: 46)\n  1031: a1 = reverse s1\n  1033: u64 [sp + 0x78] = a1\n  1036: a1 = u64 [sp]\n  1038: a1 = reverse a1\n  1040: u64 [sp + 0x70] = a1\n  1043: a1 = u64 [sp + 0x8]\n  1046: a1 = reverse a1\n  1048: u64 [sp + 0x68] = a1\n  1051: a1 = u64 [sp + 0x10]\n  1054: a1 = reverse a1\n  1056: u64 [sp + 0x60] = a1\n  1059: a1 = u64 [sp + 0x18]\n  1062: a1 = reverse a1\n  1064: u64 [sp + 0x98] = a1\n  1068: a1 = u64 [sp + 0x20]\n  1071: a1 = reverse a1\n  1073: u64 [sp + 0x90] = a1\n  1077: a1 = u64 [sp + 0x28]\n  1080: a1 = reverse a1\n  1082: u64 [sp + 0x88] = a1\n  1086: a1 = u64 [sp + 0x30]\n  1089: a1 = reverse a1\n  1091: u64 [sp + 0x80] = a1\n  1095: a1 = u64 [sp + 0x40]\n  1098: a1 = reverse a1\n  1100: u64 [sp + 0xb8] = a1\n  1104: a1 = u64 [sp + 0x48]\n  1107: a1 = reverse a1\n  1109: u64 [sp + 0xb0] = a1\n  1113: a1 = u64 [sp + 0x50]\n  1116: a1 = reverse a1\n  1118: u64 [sp + 0xa8] = a1\n  1122: a1 = u64 [sp + 0x58]\n  1125: a1 = reverse a1\n  1127: u64 [sp + 0xa0] = a1\n  1131: i32 a2 = a0 + 0\n  1133: a3 = i32 [sp + 0x38]\n  1136: i32 a0 = sp + 0x60\n  1139: a1 = 0x3\n  1142: ecalli 4 // 'deposit_event'\n  1144: sp = s0 + 0xffffffffffffff20\n  1148: ra = u64 [sp + 0xd8]\n  1152: s0 = u64 [sp + 0xd0]\n  1156: s1 = u64 [sp + 0xc8]\n  1160: sp = sp + 0xe0\n  1164: ret\n      : @26 (gas: 2)\n  1166: i32 a2 = a0 >> 0x10\n  1169: jump @31 if a2 != 0\n      : @27 (gas: 4)\n  1172: a1 = a1 + a0\n  1175: i32 a1 = a1 + 0x1f\n  1178: a1 = a1 & 0xffffffffffffffe0\n  1181: jump @31 if a1 >u 65536\n      : @28 (gas: 3)\n  1187: a2 = 0x20194\n  1192: a3 = i32 [0x20194]\n  1197: jump @30 if a3 >=u a1\n      : @29 (gas: 2)\n  1200: u32 [0x20194] = a1\n  1205: fallthrough\n      : @30 (gas: 4)\n  1206: a1 = 0x201a0\n  1211: i32 a0 = a0 + 0\n  1213: a0 = a0 + a1\n  1216: ret\n      : @31 (gas: 1)\n  1218: trap\n      : @32 (gas: 6)\n  1219: sp = sp + 0xfffffffffffffff0\n  1222: u64 [sp + 0x8] = ra\n  1225: u64 [sp] = s0\n  1227: s0 = a0 & 0x1\n  1230: ecalli 2 // 'call_data_size'\n  1232: fallthrough\n      : @33 (gas: 2)\n  1233: u32 [0x20190] = a0\n  1238: jump @35 if s0 == 0\n      : @34 (gas: 1)\n  1241: ra = 10, jump @36\n      : @35 [@dyn 5] (gas: 18)\n  1245: ra = 0xc\n  1248: sp = sp + 0xfffffffffffffe10\n  1252: u64 [sp + 0x1e8] = ra\n  1256: u64 [sp + 0x1e0] = s0\n  1260: u64 [sp + 0x1d8] = s1\n  1264: s0 = sp + 0x1f0\n  1268: sp = sp + 0xffffffffffffe4b0\n  1272: sp = sp & 0xffffffffffffffe0\n  1275: s1 = sp\n  1277: a2 = s1 + 0x1078\n  1281: u64 [a2 + 1728] = 0\n  1285: u64 [a2 + 1720] = 0\n  1289: u64 [a2 + 1704] = 0x80\n  1295: a0 = 0x40\n  1298: a1 = s1 + 0x1720\n  1302: u64 [a2 + 1712] = 0\n  1306: ra = 0x10c\n  1310: jump @19\n      : @36 [@dyn 6] (gas: 16)\n  1313: sp = sp + 0xfffffffffffff808\n  1317: a0 = sp + 0x700\n  1321: u64 [a0 + 0xf0] = ra\n  1325: u64 [a0 + 0xe8] = s0\n  1329: u64 [a0 + 0xe0] = s1\n  1333: s0 = sp + 0x7f8\n  1337: sp = sp + 0xfffffffffffffd38\n  1341: sp = sp & 0xffffffffffffffe0\n  1344: s1 = sp\n  1346: u64 [s1 + 1976] = 0\n  1350: u64 [s1 + 1968] = 0\n  1354: u64 [s1 + 1952] = 0x80\n  1360: a0 = 0x40\n  1363: a1 = s1 + 0x7a0\n  1367: u64 [s1 + 1960] = 0\n  1371: ra = 14, jump @19\n      : @37 [@dyn 7] (gas: 7)\n  1376: u64 [s1 + 2008] = 0\n  1380: u64 [s1 + 2000] = 0\n  1384: u64 [s1 + 1992] = 0\n  1388: u64 [s1 + 1984] = 0\n  1392: i32 a0 = s1 + 0x7c0\n  1396: ecalli 10 // 'value_transferred'\n  1398: fallthrough\n      : @38 (gas: 9)\n  1399: a4 = s1 + 0x700\n  1403: a0 = u64 [a4 + 0xd0]\n  1407: a1 = u64 [a4 + 0xd8]\n  1411: a2 = u64 [a4 + 0xc8]\n  1415: a3 = u64 [a4 + 0xc0]\n  1419: a1 = a1 | a2\n  1422: a0 = a0 | a3\n  1425: a0 = a0 | a1\n  1428: jump @40 if a0 == 0\n      : @39 (gas: 1)\n  1431: jump @204\n      : @40 (gas: 3)\n  1434: a0 = s1 + 0x780\n  1438: a1 = 0x40\n  1441: ra = 16, jump @17\n      : @41 [@dyn 8] (gas: 15)\n  1446: t1 = u64 [s1 + 0x798]\n  1450: a4 = u64 [s1 + 0x790]\n  1454: a5 = u64 [s1 + 0x788]\n  1458: t2 = u64 [s1 + 0x780]\n  1462: a0 = t1 >u 0\n  1464: a1 = a4 >u 0\n  1466: a1 = a0 if t1 != 0\n  1469: a0 = a5 >u 0\n  1471: a2 = t2 <u 0xffffffffffffffc0\n  1474: a2 = a2 ^ 0x1\n  1477: a2 = a0 if a5 != 0\n  1480: a0 = a4 | t1\n  1483: u64 [s1 + 0x118] = a0\n  1487: a2 = a1 if a0 != 0\n  1490: jump @43 if a2 == 0\n      : @42 (gas: 1)\n  1493: jump @205\n      : @43 (gas: 20)\n  1496: a0 = t2 + 0x40\n  1499: a1 = a0 <u t2\n  1502: a2 = a5 + a1\n  1505: a3 = a2 <u a5\n  1508: a3 = a1 if a1 == 0\n  1511: a3 = a3 + a4\n  1514: a1 = a3 <u a4\n  1517: t0 = t1 + a1\n  1520: a1 = s1 + 0x700\n  1524: u64 [a1 + 0x60] = a0\n  1527: u64 [a1 + 0x68] = a2\n  1530: u64 [a1 + 0x70] = a3\n  1533: a0 = 0x40\n  1536: a1 = s1 + 0x760\n  1540: u64 [s1 + 0x778] = t0\n  1544: u64 [s1 + 0xa0] = t1\n  1548: u64 [s1 + 0x98] = a4\n  1552: u64 [s1 + 0xa8] = a5\n  1556: u64 [s1 + 0xb0] = t2\n  1560: ra = 18, jump @19\n      : @44 [@dyn 9] (gas: 12)\n  1565: a0 = u64 [s1 + 0xb0]\n  1569: a2 = u64 [s1 + 0x98]\n  1573: a4 = a0 | a2\n  1576: a1 = u64 [s1 + 0xa0]\n  1580: a3 = u64 [s1 + 0xa8]\n  1584: a1 = a1 | a3\n  1587: a4 = a4 | a1\n  1590: a4 = a4 >> 0x20\n  1593: a1 = a1 | a2\n  1596: a1 = a1 << 0x20\n  1599: a1 = a1 | a4\n  1602: jump @46 if a1 == 0\n      : @45 (gas: 1)\n  1605: jump @203\n      : @46 (gas: 6)\n  1608: u64 [s1 + 1880] = 0\n  1612: u64 [s1 + 1872] = 0\n  1616: u64 [s1 + 1864] = 0\n  1620: a1 = s1 + 0x740\n  1624: u64 [s1 + 1856] = 0xf\n  1629: ra = 20, jump @19\n      : @47 [@dyn 10] (gas: 8)\n  1634: a2 = u64 [s1 + 0xb0]\n  1638: a0 = 0xffffffe0\n  1648: a0 = a2 <u a0\n  1651: a1 = u64 [s1 + 0xa8]\n  1655: a0 = 0 if a1 != 0\n  1657: a1 = u64 [s1 + 0x118]\n  1661: a0 = 0 if a1 != 0\n  1663: jump @49 if a0 != 0\n      : @48 (gas: 1)\n  1666: jump @203\n      : @49 (gas: 10)\n  1669: i32 a0 = a2 + 0x20\n  1672: u64 [s1 + 1832] = 0\n  1676: a3 = u64 [0x20000]\n  1681: a2 = u64 [0x20008]\n  1686: u64 [s1 + 1824] = 0\n  1690: u64 [s1 + 0x738] = a3\n  1694: a1 = s1 + 0x720\n  1698: u64 [s1 + 0x730] = a2\n  1702: u64 [s1 + 0xd0] = a0\n  1706: ra = 22, jump @19\n      : @50 [@dyn 11] (gas: 3)\n  1711: a0 = s1 + 0x700\n  1715: a1 = 0x40\n  1718: ra = 24, jump @17\n      : @51 [@dyn 12] (gas: 16)\n  1723: t2 = u64 [s1 + 0x718]\n  1727: a1 = s1 + 0x700\n  1731: a5 = u64 [a1 + 0x10]\n  1734: a4 = u64 [a1 + 0x8]\n  1737: a0 = u64 [a1]\n  1739: a2 = t2 >u 0\n  1741: a1 = a5 >u 0\n  1743: a1 = a2 if t2 != 0\n  1746: a3 = a4 >u 0\n  1748: a2 = a0 <u 0xffffffffffffffc0\n  1751: a2 = a2 ^ 0x1\n  1754: a2 = a3 if a4 != 0\n  1757: a3 = a5 | t2\n  1760: u64 [s1 + 0x118] = a3\n  1764: a2 = a1 if a3 != 0\n  1767: jump @53 if a2 == 0\n      : @52 (gas: 1)\n  1770: jump @211\n      : @53 (gas: 19)\n  1773: t1 = a0 + 0x40\n  1776: a1 = t1 <u a0\n  1779: a2 = a4 + a1\n  1782: a3 = a2 <u a4\n  1785: a3 = a1 if a1 == 0\n  1788: a3 = a3 + a5\n  1791: a1 = a3 <u a5\n  1794: u64 [s1 + 0x80] = a0\n  1798: t0 = t2 + a1\n  1801: u64 [s1 + 0x6e0] = t1\n  1805: u64 [s1 + 0x6e8] = a2\n  1809: u64 [s1 + 0x6f0] = a3\n  1813: a0 = 0x40\n  1816: a1 = s1 + 0x6e0\n  1820: u64 [s1 + 0x6f8] = t0\n  1824: u64 [s1 + 0x70] = a5\n  1827: u64 [s1 + 0x78] = a4\n  1830: u64 [s1 + 0x68] = t2\n  1833: ra = 26, jump @19\n      : @54 [@dyn 13] (gas: 12)\n  1838: a0 = u64 [s1 + 0x80]\n  1842: a2 = u64 [s1 + 0x70]\n  1845: a3 = a0 | a2\n  1848: a1 = u64 [s1 + 0x78]\n  1851: a4 = u64 [s1 + 0x68]\n  1854: a1 = a1 | a4\n  1857: a3 = a3 | a1\n  1860: a3 = a3 >> 0x20\n  1863: a1 = a1 | a2\n  1866: a1 = a1 << 0x20\n  1869: a1 = a1 | a3\n  1872: jump @56 if a1 == 0\n      : @55 (gas: 1)\n  1875: jump @203\n      : @56 (gas: 6)\n  1878: u64 [s1 + 1752] = 0\n  1882: u64 [s1 + 1744] = 0\n  1886: u64 [s1 + 1736] = 0\n  1890: a1 = s1 + 0x6c0\n  1894: u64 [s1 + 1728] = 0x4\n  1899: ra = 28, jump @19\n      : @57 [@dyn 14] (gas: 8)\n  1904: a2 = u64 [s1 + 0x80]\n  1908: a0 = 0xffffffe0\n  1918: a0 = a2 <u a0\n  1921: a1 = u64 [s1 + 0x78]\n  1924: a0 = 0 if a1 != 0\n  1926: a1 = u64 [s1 + 0x118]\n  1930: a0 = 0 if a1 != 0\n  1932: jump @59 if a0 != 0\n      : @58 (gas: 1)\n  1935: jump @203\n      : @59 (gas: 9)\n  1938: i32 a0 = a2 + 0x20\n  1941: u64 [s1 + 1712] = 0\n  1945: u64 [s1 + 1704] = 0\n  1949: u64 [s1 + 1696] = 0\n  1953: a2 = 0x4d55534400000000\n  1963: a1 = s1 + 0x6a0\n  1967: u64 [s1 + 0x6b8] = a2\n  1971: u64 [s1 + 0x18] = a0\n  1974: ra = 30, jump @19\n      : @60 [@dyn 15] (gas: 3)\n  1979: a0 = s1 + 0x680\n  1983: a1 = u64 [s1 + 0xb0]\n  1987: ra = 32, jump @17\n      : @61 [@dyn 16] (gas: 17)\n  1992: a0 = s1 + 0x600\n  1996: a3 = u64 [a0 + 0x98]\n  2000: a1 = u64 [a0 + 0x90]\n  2004: a2 = u64 [a0 + 0x88]\n  2008: a0 = a3 >u 0\n  2010: a4 = a1 >u 0\n  2012: a4 = a0 if a3 != 0\n  2015: u64 [s1 + 0xc8] = a2\n  2019: a0 = a2 >u 0\n  2021: u64 [s1 + 0x58] = a1\n  2024: u64 [s1 + 0xc0] = a3\n  2028: a1 = a1 | a3\n  2031: u64 [s1 + 0x50] = a0\n  2034: u64 [s1 + 0x88] = a4\n  2038: u64 [s1 + 0xb8] = a1\n  2042: a0 = a4 if a1 != 0\n  2045: jump @63 if a0 == 0\n      : @62 (gas: 1)\n  2048: jump @217\n      : @63 (gas: 9)\n  2051: a0 = u64 [s1 + 0x680]\n  2055: u64 [s1 + 0x60] = a0\n  2058: u64 [s1 + 2040] = 0\n  2062: u64 [s1 + 2032] = 0\n  2066: u64 [s1 + 2024] = 0\n  2070: u64 [s1 + 2016] = 0x3\n  2075: a0 = s1 + 0x660\n  2079: a1 = s1 + 0x7e0\n  2083: ra = 34, jump @21\n      : @64 [@dyn 17] (gas: 6)\n  2088: a4 = s1 + 0x600\n  2092: a0 = u64 [a4 + 0x70]\n  2095: a1 = u64 [a4 + 0x68]\n  2098: a2 = u64 [a4 + 0x60]\n  2101: a3 = u64 [a4 + 0x78]\n  2104: t0 = 36, jump @974\n      : @65 [@dyn 18] (gas: 12)\n  2109: t0 = a2 <u 0x1\n  2112: ra = a1 & 0x7f\n  2115: t2 = a5 & a0\n  2118: a4 = a5 & t1\n  2121: ra = a1 if a2 != 0\n  2124: a1 = ra <u 0x20\n  2127: a5 = a5 & a3\n  2130: a2 = a1\n  2132: a2 = 0 if a4 != 0\n  2134: a0 = t2 | a5\n  2137: a2 = 0 if a0 != 0\n  2139: jump @67 if t0 == a2\n      : @66 (gas: 1)\n  2142: jump @223\n      : @67 (gas: 1)\n  2145: t0 = 38, jump @979\n      : @68 [@dyn 19] (gas: 4)\n  2150: a0 = u64 [s1 + 0x60]\n  2153: a0 = a0 <u 0x20\n  2156: u64 [s1 + 0x90] = a0\n  2160: jump @80 if a3 == 0\n      : @69 (gas: 11)\n  2164: u64 [s1 + 0xf0] = a4\n  2168: u64 [s1 + 0xf8] = ra\n  2172: u64 [s1 + 0x100] = a5\n  2176: u64 [s1 + 0x110] = t2\n  2180: u64 [s1 + 1624] = 0\n  2184: u64 [s1 + 1616] = 0\n  2188: u64 [s1 + 1608] = 0\n  2192: a1 = s1 + 0x640\n  2196: u64 [s1 + 1600] = 0x3\n  2201: a0 = 0\n  2203: ra = 40, jump @19\n      : @70 [@dyn 20] (gas: 2)\n  2208: a1 = i32 [0x20194]\n  2213: jump @72 if a1 >u 31\n      : @71 (gas: 2)\n  2217: u32 [0x20194] = 0x20\n  2223: fallthrough\n      : @72 (gas: 11)\n  2224: a0 = sp + 0xffffffffffffffe0\n  2227: a2 = a0 & 0xffffffffffffffe0\n  2230: u64 [s1 + 0x108] = a2\n  2234: sp = a2\n  2236: a0 = 0x201a0\n  2241: i32 a0 = a0 + 0\n  2243: i32 a2 = a2 + 0\n  2245: a1 = 0x20\n  2248: ra = 0x2a\n  2251: ecalli 6 // 'hash_keccak_256'\n  2253: fallthrough\n      : @73 [@dyn 21] (gas: 9)\n  2254: a0 = u64 [s1 + 0x60]\n  2257: a1 = a0 + 0x1f\n  2260: a0 = a1 <u a0\n  2263: a5 = u64 [s1 + 0xc8]\n  2267: a2 = a5 + a0\n  2270: a3 = a2 <u a5\n  2273: a3 = a0 if a0 == 0\n  2276: a4 = u64 [s1 + 0x58]\n  2279: t0 = 44, jump @972\n      : @74 [@dyn 22] (gas: 35)\n  2284: a1 = u64 [s1 + 0x90]\n  2288: a1 = 0 if a5 != 0\n  2290: a3 = u64 [s1 + 0xb8]\n  2294: a1 = 0 if a3 != 0\n  2296: a4 = 0 if a1 != 0\n  2298: a0 = 0 if a1 != 0\n  2300: t0 = t2 + a0\n  2303: a0 = t0 <u t2\n  2306: a5 = a2 + a0\n  2309: a4 = a4 + a5\n  2312: u64 [s1 + 0x118] = a4\n  2316: a5 = a4 ^ a2\n  2319: a3 = a4 <u a2\n  2322: a3 = a0 if a5 == 0\n  2325: u64 [s1 + 0xe0] = a3\n  2329: a0 = u64 [s1 + 0xf8]\n  2333: ra = a0 + 0x1f\n  2336: a4 = ra <u a0\n  2339: a3 = u64 [s1 + 0xf0]\n  2343: a0 = a3 + a4\n  2346: a5 = a0 <u a3\n  2349: a5 = a4 if a4 == 0\n  2352: t1 = u64 [s1 + 0x110]\n  2356: t1 = t1 + a5\n  2359: a4 = t1 << 0x3b\n  2362: a3 = a0 >> 0x5\n  2365: a3 = a3 | a4\n  2368: a0 = a0 << 0x3b\n  2371: a4 = ra >> 0x5\n  2374: a0 = a0 | a4\n  2377: a0 = a0 + t2\n  2380: u64 [s1 + 0xf8] = a0\n  2384: a0 = a0 <u t2\n  2387: t2 = t0\n  2389: t0 = 46, jump @988\n      : @75 [@dyn 23] (gas: 16)\n  2394: a0 = u64 [s1 + 0x58]\n  2397: a0 = a4 <u a0\n  2400: a3 = u64 [s1 + 0xc0]\n  2404: a0 = a0 + a3\n  2407: a3 = a4 >> 0x5\n  2410: a4 = a0 << 0x3b\n  2413: a3 = a3 | a4\n  2416: a4 = u64 [s1 + 0x108]\n  2420: t0 = u64 [a4]\n  2422: a4 = u64 [a4 + 0x8]\n  2425: a0 = a0 >> 0x5\n  2428: a3 = 0 if a1 != 0\n  2430: a0 = 0 if a1 != 0\n  2432: a1 = reverse a4\n  2434: a4 = reverse t0\n  2436: t0 = 48, jump @993\n      : @76 [@dyn 24] (gas: 24)\n  2441: t0 = a0 + a3\n  2444: a0 = u64 [s1 + 0x110]\n  2448: a0 = t1 <u a0\n  2451: a3 = u64 [s1 + 0x100]\n  2455: a0 = a0 + a3\n  2458: a3 = t1 >> 0x5\n  2461: a5 = a0 << 0x3b\n  2464: a3 = a3 | a5\n  2467: a0 = a0 >> 0x5\n  2470: a0 = a0 + a4\n  2473: a4 = u64 [s1 + 0x118]\n  2477: a3 = a3 + a1\n  2480: a1 = a3 <u a1\n  2483: a0 = a0 + a1\n  2486: a2 = a2 + a3\n  2489: u64 [s1 + 0xe8] = a2\n  2493: a1 = a2 <u a3\n  2496: a0 = a0 + a1\n  2499: u64 [s1 + 0xe0] = a0\n  2503: a0 = sp + 0xffffffffffffffe0\n  2506: t1 = a0 & 0xffffffffffffffe0\n  2509: sp = t1\n  2511: u64 [s1 + 0xd8] = t1\n  2515: fallthrough\n      : @77 (gas: 20)\n  2516: a0 = u64 [s1 + 0xf8]\n  2520: a0 = t2 <u a0\n  2523: a2 = u64 [s1 + 0xf0]\n  2527: a1 = a4 ^ a2\n  2530: a2 = a4 <u a2\n  2533: a2 = a0 if a1 == 0\n  2536: a5 = u64 [s1 + 0xe8]\n  2540: a0 = ra <u a5\n  2543: a3 = u64 [s1 + 0xe0]\n  2547: a1 = t0 ^ a3\n  2550: a3 = t0 <u a3\n  2553: a3 = a0 if a1 == 0\n  2556: a0 = ra ^ a5\n  2559: a0 = a0 | a1\n  2562: a3 = a2 if a0 == 0\n  2565: u64 [t1] = t2\n  2567: u64 [t1 + 0x8] = a4\n  2570: u64 [t1 + 0x10] = ra\n  2573: u64 [t1 + 0x18] = t0\n  2576: jump @80 if a3 == 0\n      : @78 (gas: 16)\n  2579: a0 = s1 + 0x1000\n  2583: u64 [a0 + 4294965272] = 0\n  2587: a0 = s1 + 0x1000\n  2591: u64 [a0 + 4294965264] = 0\n  2595: a0 = s1 + 0x1000\n  2599: u64 [a0 + 4294965256] = 0\n  2603: a0 = s1 + 0x1000\n  2607: u64 [a0 + 4294965248] = 0\n  2611: a1 = s1 + 0x7ff\n  2615: a1 = a1 + 0x1\n  2618: a0 = t1\n  2620: u64 [s1 + 0x110] = t2\n  2624: u64 [s1 + 0x118] = a4\n  2628: u64 [s1 + 0x108] = t0\n  2632: u64 [s1 + 0x100] = ra\n  2636: ra = 50, jump @22\n      : @79 [@dyn 25] (gas: 15)\n  2641: t1 = u64 [s1 + 0xd8]\n  2645: t0 = u64 [s1 + 0x108]\n  2649: a4 = u64 [s1 + 0x118]\n  2653: t2 = u64 [s1 + 0x110]\n  2657: t2 = t2 + 0x1\n  2660: a0 = t2 <u 0x1\n  2663: a4 = a4 + a0\n  2666: a0 = t2 | a4\n  2669: a0 = a0 <u 0x1\n  2672: a1 = u64 [s1 + 0x100]\n  2676: a0 = a0 + a1\n  2679: a1 = a0 <u a1\n  2682: t0 = t0 + a1\n  2685: ra = a0\n  2687: jump @77\n      : @80 (gas: 26)\n  2690: a0 = u64 [s1 + 0x90]\n  2694: a0 = a0 ^ 0x1\n  2697: a4 = u64 [s1 + 0xc8]\n  2701: a1 = u64 [s1 + 0x50]\n  2704: a0 = a1 if a4 != 0\n  2707: a1 = u64 [s1 + 0x88]\n  2711: a2 = u64 [s1 + 0xb8]\n  2715: a0 = a1 if a2 != 0\n  2718: t1 = u64 [s1 + 0xc0]\n  2722: a1 = a4 | t1\n  2725: u64 [s1 + 0x90] = a1\n  2729: a1 = u64 [s1 + 0x58]\n  2732: t2 = a1 >> 0x3f\n  2735: t1 = t1 << 0x1\n  2738: a5 = a4 >> 0x3f\n  2741: t0 = a1 << 0x1\n  2744: a3 = u64 [s1 + 0x60]\n  2747: ra = a3 >> 0x3f\n  2750: a4 = a4 << 0x1\n  2753: a2 = a3 << 0x1\n  2756: u64 [s1 + 0x48] = a2\n  2759: u64 [s1 + 0x40] = t1\n  2762: u64 [s1 + 0x38] = ra\n  2765: u64 [s1 + 0x30] = a5\n  2768: u64 [s1 + 0x50] = t0\n  2771: jump @91 if a0 == 0\n      : @81 (gas: 11)\n  2775: u64 [s1 + 0x28] = a4\n  2778: u64 [s1 + 0x20] = t2\n  2781: a3 = a3 & 0xffffffffffffffe0\n  2784: u64 [s1 + 0x88] = a3\n  2788: u64 [s1 + 1560] = 0\n  2792: u64 [s1 + 1552] = 0\n  2796: u64 [s1 + 1544] = 0\n  2800: a1 = s1 + 0x600\n  2804: u64 [s1 + 1536] = 0x3\n  2809: a0 = 0\n  2811: ra = 52, jump @19\n      : @82 [@dyn 26] (gas: 7)\n  2816: a0 = sp + 0xffffffffffffffe0\n  2819: a0 = a0 & 0xffffffffffffffe0\n  2822: u64 [s1 + 0xf8] = a0\n  2826: sp = a0\n  2828: a1 = 0x20\n  2831: a0 = 0\n  2833: ra = 54, jump @26\n      : @83 [@dyn 27] (gas: 35)\n  2838: a1 = sp + 0xffffffffffffffe0\n  2841: a1 = a1 & 0xffffffffffffffe0\n  2844: u64 [s1 + 0xf0] = a1\n  2848: sp = a1\n  2850: i32 a0 = a0 + 0\n  2852: i32 a2 = a1 + 0\n  2854: a1 = 0x20\n  2857: ecalli 6 // 'hash_keccak_256'\n  2859: u64 [s1 + 280] = 0x20\n  2864: t0 = 0\n  2866: u64 [s1 + 272] = 0\n  2870: u64 [s1 + 264] = 0\n  2874: a4 = 0\n  2876: a5 = 0\n  2878: ra = 0\n  2880: u64 [s1 + 256] = 0\n  2884: a3 = u64 [s1 + 0xf0]\n  2888: a0 = u64 [a3 + 0x18]\n  2891: a1 = u64 [a3 + 0x10]\n  2894: a2 = u64 [a3 + 0x8]\n  2897: t1 = u64 [a3]\n  2899: a0 = reverse a0\n  2901: a1 = reverse a1\n  2903: a3 = reverse a2\n  2905: t1 = reverse t1\n  2907: t2 = t1\n  2909: a2 = u64 [s1 + 0xf8]\n  2913: u64 [a2 + 0x18] = t1\n  2916: u64 [s1 + 0xd0] = a3\n  2920: u64 [a2 + 0x10] = a3\n  2923: u64 [s1 + 0xf0] = a1\n  2927: u64 [a2 + 0x8] = a1\n  2930: a3 = a0\n  2932: u64 [a2] = a0\n  2934: fallthrough\n      : @84 (gas: 25)\n  2935: u64 [s1 + 0xe8] = t2\n  2939: t1 = a3\n  2941: a0 = u64 [s1 + 0x88]\n  2945: u64 [s1 + 0xe0] = a4\n  2949: a0 = a4 <u a0\n  2952: a4 = a0 ^ 0x1\n  2955: u64 [s1 + 0xd8] = a5\n  2959: a4 = 0x1 if a5 != 0\n  2962: a5 = s1 + 0x100\n  2966: a0 = u64 [a5]\n  2968: a0 = ra | a0\n  2971: a4 = 0x1 if a0 != 0\n  2974: a1 = u64 [s1 + 0xb0]\n  2978: a0 = u64 [a5 + 0x18]\n  2981: a1 = a1 + a0\n  2984: a3 = u64 [s1 + 0xa8]\n  2988: a3 = a3 + t0\n  2991: a2 = u64 [s1 + 0x98]\n  2995: a0 = u64 [a5 + 0x10]\n  2998: a2 = a2 + a0\n  3001: a0 = u64 [s1 + 0xa0]\n  3005: t2 = u64 [s1 + 0x108]\n  3009: t2 = t2 + a0\n  3012: a0 = u64 [s1 + 0x90]\n  3016: jump @93 if a4 != 0\n      : @85 (gas: 9)\n  3020: a0 = u64 [s1 + 0x118]\n  3024: a4 = a1 <u a0\n  3027: a3 = a3 + a4\n  3030: a0 = t0\n  3032: t0 = a3 ^ t0\n  3035: u64 [s1 + 0xc0] = a0\n  3039: a5 = a3 <u a0\n  3042: a5 = a4 if t0 == 0\n  3045: t0 = 56, jump @973\n      : @86 [@dyn 28] (gas: 2)\n  3050: u64 [s1 + 0xc8] = t1\n  3054: jump @88 if a0 == 0\n      : @87 (gas: 1)\n  3057: jump @203\n      : @88 (gas: 3)\n  3060: a0 = s1 + 0x220\n  3064: u64 [s1 + 0xb8] = ra\n  3068: ra = 58, jump @17\n      : @89 [@dyn 29] (gas: 17)\n  3073: a4 = s1 + 0x200\n  3077: a0 = u64 [a4 + 0x38]\n  3080: a1 = u64 [a4 + 0x30]\n  3083: a2 = u64 [a4 + 0x28]\n  3086: a3 = u64 [a4 + 0x20]\n  3089: a4 = s1 + 0x1000\n  3093: u64 [a4 + 0xfffffffffffff838] = a0\n  3097: a0 = s1 + 0x1000\n  3101: u64 [a0 + 0xfffffffffffff830] = a1\n  3105: a0 = s1 + 0x1000\n  3109: u64 [a0 + 0xfffffffffffff828] = a2\n  3113: a0 = s1 + 0x1000\n  3117: u64 [a0 + 0xfffffffffffff820] = a3\n  3121: a1 = s1 + 0x7ff\n  3125: a1 = a1 + 0x21\n  3128: a0 = u64 [s1 + 0xf8]\n  3132: ra = 60, jump @22\n      : @90 [@dyn 30] (gas: 57)\n  3137: t2 = u64 [s1 + 0xc8]\n  3141: t2 = t2 + 0x1\n  3144: a0 = t2 <u 0x1\n  3147: t0 = u64 [s1 + 0xf0]\n  3151: t0 = t0 + a0\n  3154: a0 = t2 | t0\n  3157: a0 = a0 <u 0x1\n  3160: a1 = u64 [s1 + 0xd0]\n  3164: t1 = a1 + a0\n  3167: a1 = t1 <u a1\n  3170: a0 = u64 [s1 + 0xe8]\n  3174: a0 = a0 + a1\n  3177: a1 = u64 [s1 + 0x118]\n  3181: a2 = a1 + 0x20\n  3184: u64 [s1 + 0xe8] = a2\n  3188: a3 = a2 <u a1\n  3191: a1 = u64 [s1 + 0xc0]\n  3195: a2 = a1 + a3\n  3198: u64 [s1 + 0xc8] = a2\n  3202: a4 = a2 <u a1\n  3205: a4 = a3 if a3 == 0\n  3208: a1 = u64 [s1 + 0x110]\n  3212: ra = a1 + a4\n  3215: a4 = ra <u a1\n  3218: a1 = u64 [s1 + 0x108]\n  3222: a1 = a1 + a4\n  3225: u64 [s1 + 0x108] = a1\n  3229: a1 = u64 [s1 + 0xe0]\n  3233: a4 = a1 + 0x20\n  3236: a5 = a4 <u a1\n  3239: a2 = u64 [s1 + 0xd8]\n  3243: a1 = a2 + a5\n  3246: a2 = a1 <u a2\n  3249: a2 = a5 if a5 == 0\n  3252: a3 = u64 [s1 + 0xb8]\n  3256: a2 = a2 + a3\n  3259: a5 = a2 <u a3\n  3262: a3 = u64 [s1 + 0x100]\n  3266: a3 = a3 + a5\n  3269: u64 [s1 + 0x100] = a3\n  3273: a3 = t0\n  3275: u64 [s1 + 0xf0] = a3\n  3279: a5 = u64 [s1 + 0xf8]\n  3283: u64 [a5 + 0x8] = a3\n  3286: a3 = t2\n  3288: u64 [a5] = t2\n  3290: u64 [a5 + 0x10] = t1\n  3293: t2 = a0\n  3295: u64 [a5 + 0x18] = a0\n  3298: u64 [s1 + 0xd0] = t1\n  3302: a0 = u64 [s1 + 0xe8]\n  3306: u64 [s1 + 0x118] = a0\n  3310: t0 = u64 [s1 + 0xc8]\n  3314: u64 [s1 + 0x110] = ra\n  3318: a5 = a1\n  3320: ra = a2\n  3322: jump @84\n      : @91 (gas: 4)\n  3325: a0 = a3 | a1\n  3328: a1 = u64 [s1 + 0x90]\n  3332: a0 = a0 | a1\n  3335: jump @108 if a0 != 0\n      : @92 (gas: 9)\n  3339: u64 [s1 + 256] = 0\n  3343: u64 [s1 + 248] = 0\n  3347: u64 [s1 + 264] = 0\n  3351: u64 [s1 + 272] = 0\n  3355: t1 = u64 [s1 + 0x40]\n  3358: t0 = u64 [s1 + 0x38]\n  3361: a1 = u64 [s1 + 0x30]\n  3364: a5 = u64 [s1 + 0x50]\n  3367: jump @110\n      : @93 (gas: 10)\n  3370: ra = t0\n  3372: t1 = u64 [s1 + 0x60]\n  3375: a4 = u64 [s1 + 0x88]\n  3379: a4 = a4 ^ t1\n  3382: a5 = u64 [s1 + 0x58]\n  3385: a4 = a4 | a5\n  3388: a4 = a4 | a0\n  3391: t0 = u64 [s1 + 0x28]\n  3394: a5 = u64 [s1 + 0x50]\n  3397: jump @107 if a4 == 0\n      : @94 (gas: 7)\n  3401: a0 = u64 [s1 + 0x118]\n  3405: a4 = a1 <u a0\n  3408: a3 = a3 + a4\n  3411: t0 = a3 ^ ra\n  3414: a5 = a3 <u ra\n  3417: a5 = a4 if t0 == 0\n  3420: t0 = 62, jump @973\n      : @95 [@dyn 31] (gas: 1)\n  3425: jump @97 if a0 == 0\n      : @96 (gas: 1)\n  3428: jump @203\n      : @97 (gas: 2)\n  3431: a0 = s1 + 0x5e0\n  3435: ra = 64, jump @17\n      : @98 [@dyn 32] (gas: 11)\n  3440: a1 = s1 + 0x500\n  3444: a0 = u64 [a1 + 0xf8]\n  3448: u64 [s1 + 0x110] = a0\n  3452: a0 = u64 [a1 + 0xf0]\n  3456: u64 [s1 + 0x108] = a0\n  3460: a0 = u64 [a1 + 0xe8]\n  3464: u64 [s1 + 0x100] = a0\n  3468: a0 = u64 [a1 + 0xe0]\n  3472: u64 [s1 + 0xf0] = a0\n  3476: a0 = u64 [s1 + 0x60]\n  3479: t0 = 66, jump @989\n      : @99 [@dyn 33] (gas: 1)\n  3484: ra = 68, jump @1005\n      : @100 [@dyn 34] (gas: 6)\n  3489: u64 [s1 + 0xe8] = a0\n  3493: u64 [s1 + 0xd0] = a1\n  3497: a0 = 0xffffffffffffffff\n  3500: a1 = 0xffffffffffffffff\n  3503: a2 = u64 [s1 + 0x118]\n  3507: ra = 70, jump @1000\n      : @101 [@dyn 35] (gas: 1)\n  3512: t0 = 72, jump @990\n      : @102 [@dyn 36] (gas: 1)\n  3517: ra = 74, jump @1000\n      : @103 [@dyn 37] (gas: 1)\n  3522: t0 = 76, jump @969\n      : @104 [@dyn 38] (gas: 2)\n  3527: a2 = u64 [s1 + 0x100]\n  3531: t0 = 78, jump @997\n      : @105 [@dyn 39] (gas: 12)\n  3536: a4 = s1 + 0x1000\n  3540: u64 [a4 + 0xfffffffffffff858] = a3\n  3544: a3 = s1 + 0x1000\n  3548: u64 [a3 + 0xfffffffffffff850] = a2\n  3552: a2 = s1 + 0x1000\n  3556: u64 [a2 + 0xfffffffffffff848] = a1\n  3560: a1 = s1 + 0x1000\n  3564: u64 [a1 + 0xfffffffffffff840] = a0\n  3568: a1 = s1 + 0x7ff\n  3572: a1 = a1 + 0x41\n  3575: a0 = u64 [s1 + 0xf8]\n  3579: ra = 80, jump @22\n      : @106 [@dyn 40] (gas: 3)\n  3584: a5 = u64 [s1 + 0x50]\n  3587: t0 = u64 [s1 + 0x28]\n  3590: fallthrough\n      : @107 (gas: 31)\n  3591: a0 = u64 [s1 + 0x20]\n  3594: a1 = u64 [s1 + 0x40]\n  3597: a0 = a0 | a1\n  3600: a1 = u64 [s1 + 0x30]\n  3603: a1 = a1 | a5\n  3606: a2 = u64 [s1 + 0x38]\n  3609: a2 = t0 | a2\n  3612: a3 = u64 [s1 + 0x48]\n  3615: a3 = a3 + 0x1\n  3618: a4 = s1 + 0x1000\n  3622: u64 [a4 + 4294965368] = 0\n  3626: a4 = s1 + 0x1000\n  3630: u64 [a4 + 4294965360] = 0\n  3634: a4 = s1 + 0x1000\n  3638: u64 [a4 + 4294965352] = 0\n  3642: a5 = s1 + 0x1000\n  3646: u64 [a5 + 4294965344] = 0x3\n  3651: a4 = s1 + 0x1000\n  3655: u64 [a4 + 0xfffffffffffff880] = a3\n  3659: a3 = s1 + 0x1000\n  3663: u64 [a3 + 0xfffffffffffff888] = a2\n  3667: a2 = s1 + 0x7ff\n  3671: a2 = a2 + 0x91\n  3675: u64 [a2] = a1\n  3677: u64 [a2 + 0x8] = a0\n  3680: a0 = s1 + 0x7ff\n  3684: a0 = a0 + 0x61\n  3687: a1 = s1 + 0x7ff\n  3691: a1 = a1 + 0x81\n  3695: ra = 0x60\n  3698: jump @22\n      : @108 (gas: 5)\n  3701: a0 = s1 + 0x620\n  3705: a1 = u64 [s1 + 0xd0]\n  3709: u64 [s1 + 0x20] = t2\n  3712: u64 [s1 + 0x28] = a4\n  3715: ra = 82, jump @17\n      : @109 [@dyn 41] (gas: 17)\n  3720: a5 = u64 [s1 + 0x50]\n  3723: a4 = u64 [s1 + 0x28]\n  3726: a1 = u64 [s1 + 0x30]\n  3729: t0 = u64 [s1 + 0x38]\n  3732: t1 = u64 [s1 + 0x40]\n  3735: t2 = u64 [s1 + 0x20]\n  3738: a3 = u64 [s1 + 0x60]\n  3741: a2 = s1 + 0x600\n  3745: a0 = u64 [a2 + 0x38]\n  3748: u64 [s1 + 0x110] = a0\n  3752: a0 = u64 [a2 + 0x30]\n  3755: u64 [s1 + 0x108] = a0\n  3759: a0 = u64 [a2 + 0x28]\n  3762: u64 [s1 + 0xf8] = a0\n  3766: a0 = u64 [a2 + 0x20]\n  3769: u64 [s1 + 0x100] = a0\n  3773: fallthrough\n      : @110 (gas: 7)\n  3774: a0 = a5 | a1\n  3777: u64 [s1 + 0xf0] = a0\n  3781: a0 = t1 | t2\n  3784: u64 [s1 + 0xe8] = a0\n  3788: a0 = a4 | t0\n  3791: u64 [s1 + 0xe0] = a0\n  3795: t0 = 84, jump @995\n      : @111 [@dyn 42] (gas: 1)\n  3800: ra = 86, jump @1005\n      : @112 [@dyn 43] (gas: 7)\n  3805: u64 [s1 + 0xc0] = a0\n  3809: u64 [s1 + 0xd8] = a1\n  3813: a0 = u64 [s1 + 0x60]\n  3816: i32 a2 = a0 << 0x3\n  3819: a0 = 0xffffffffffffffff\n  3822: a1 = 0xffffffffffffffff\n  3825: ra = 88, jump @1000\n      : @113 [@dyn 44] (gas: 10)\n  3830: u64 [s1 + 0xd0] = a0\n  3834: u64 [s1 + 0xc8] = a1\n  3838: a1 = u64 [s1 + 0xc0]\n  3842: a0 = a0 | a1\n  3845: u64 [s1 + 0xc0] = a0\n  3849: a0 = u64 [s1 + 0x118]\n  3853: i32 a2 = a0 + 0xffffffffffffff80\n  3856: a0 = 0xffffffffffffffff\n  3859: a1 = 0xffffffffffffffff\n  3862: ra = 90, jump @1000\n      : @114 [@dyn 45] (gas: 7)\n  3867: a4 = u64 [s1 + 0x118]\n  3871: a2 = a4 <u 0x80\n  3875: a3 = u64 [s1 + 0xc0]\n  3879: a0 = a3 if a2 != 0\n  3882: a5 = u64 [s1 + 0xc8]\n  3886: a3 = u64 [s1 + 0xd8]\n  3890: t0 = 92, jump @996\n      : @115 [@dyn 46] (gas: 2)\n  3895: a4 = u64 [s1 + 0xd0]\n  3899: t0 = 94, jump @976\n      : @116 [@dyn 47] (gas: 23)\n  3904: a4 = u64 [s1 + 0x48]\n  3907: a0 = a0 | a4\n  3910: a4 = u64 [s1 + 0xe0]\n  3914: a1 = a1 | a4\n  3917: a4 = u64 [s1 + 0xe8]\n  3921: a3 = a3 | a4\n  3924: a4 = u64 [s1 + 0xf0]\n  3928: a2 = a2 | a4\n  3931: a5 = s1 + 0x7ff\n  3935: a5 = a5 + 0x91\n  3939: u64 [a5 + 16] = 0x3\n  3943: u64 [a5 + 0x40] = a2\n  3946: u64 [a5 + 0x48] = a3\n  3949: u64 [a5 + 0x38] = a1\n  3952: u64 [a5 + 0x30] = a0\n  3955: u64 [a5 + 40] = 0\n  3958: u64 [a5 + 32] = 0\n  3961: u64 [a5 + 24] = 0\n  3964: a0 = s1 + 0x7ff\n  3968: a0 = a0 + 0xa1\n  3972: a1 = s1 + 0x7ff\n  3976: a1 = a1 + 0xc1\n  3980: ra = 96, jump @22\n      : @117 [@dyn 48] (gas: 3)\n  3985: a0 = s1 + 0x5c0\n  3989: a1 = u64 [s1 + 0x80]\n  3993: ra = 98, jump @17\n      : @118 [@dyn 49] (gas: 17)\n  3998: a0 = s1 + 0x500\n  4002: a3 = u64 [a0 + 0xd8]\n  4006: a2 = u64 [a0 + 0xd0]\n  4010: a1 = u64 [a0 + 0xc8]\n  4014: a0 = a3 >u 0\n  4016: a4 = a2 >u 0\n  4018: a4 = a0 if a3 != 0\n  4021: u64 [s1 + 0x98] = a1\n  4025: a0 = a1 >u 0\n  4027: u64 [s1 + 0x90] = a2\n  4031: u64 [s1 + 0x88] = a3\n  4035: a2 = a2 | a3\n  4038: u64 [s1 + 0xb8] = a0\n  4042: u64 [s1 + 0xc0] = a4\n  4046: u64 [s1 + 0xd0] = a2\n  4050: a0 = a4 if a2 != 0\n  4053: jump @229 if a0 != 0\n      : @119 (gas: 12)\n  4057: a0 = u64 [s1 + 0x5c0]\n  4061: u64 [s1 + 0xa0] = a0\n  4065: a1 = s1 + 0x7ff\n  4069: a1 = a1 + 0x91\n  4073: u64 [a1 + 104] = 0\n  4076: u64 [a1 + 96] = 0\n  4079: u64 [a1 + 88] = 0\n  4082: u64 [a1 + 80] = 0x4\n  4086: a0 = s1 + 0x5a0\n  4090: a1 = s1 + 0x7ff\n  4094: a1 = a1 + 0xe1\n  4098: ra = 100, jump @21\n      : @120 [@dyn 50] (gas: 6)\n  4103: a4 = s1 + 0x500\n  4107: a0 = u64 [a4 + 0xb0]\n  4111: a1 = u64 [a4 + 0xa8]\n  4115: a2 = u64 [a4 + 0xa0]\n  4119: a3 = u64 [a4 + 0xb8]\n  4123: t0 = 102, jump @974\n      : @121 [@dyn 51] (gas: 12)\n  4128: t0 = a2 <u 0x1\n  4131: ra = a1 & 0x7f\n  4134: t2 = a5 & a0\n  4137: a4 = a5 & t1\n  4140: ra = a1 if a2 != 0\n  4143: a1 = ra <u 0x20\n  4146: a5 = a5 & a3\n  4149: a2 = a1\n  4151: a2 = 0 if a4 != 0\n  4153: a0 = t2 | a5\n  4156: a2 = 0 if a0 != 0\n  4158: jump @235 if t0 != a2\n      : @122 (gas: 1)\n  4162: t0 = 104, jump @979\n      : @123 [@dyn 52] (gas: 4)\n  4167: a0 = u64 [s1 + 0xa0]\n  4171: a0 = a0 <u 0x20\n  4174: u64 [s1 + 0xc8] = a0\n  4178: jump @135 if a3 == 0\n      : @124 (gas: 11)\n  4182: u64 [s1 + 0xf0] = a4\n  4186: u64 [s1 + 0xf8] = ra\n  4190: u64 [s1 + 0x100] = a5\n  4194: u64 [s1 + 0x110] = t2\n  4198: u64 [s1 + 1432] = 0\n  4202: u64 [s1 + 1424] = 0\n  4206: u64 [s1 + 1416] = 0\n  4210: a1 = s1 + 0x580\n  4214: u64 [s1 + 1408] = 0x4\n  4219: a0 = 0\n  4221: ra = 106, jump @19\n      : @125 [@dyn 53] (gas: 2)\n  4226: a1 = i32 [0x20194]\n  4231: jump @127 if a1 >u 31\n      : @126 (gas: 2)\n  4235: u32 [0x20194] = 0x20\n  4241: fallthrough\n      : @127 (gas: 11)\n  4242: a0 = sp + 0xffffffffffffffe0\n  4245: a2 = a0 & 0xffffffffffffffe0\n  4248: u64 [s1 + 0x108] = a2\n  4252: sp = a2\n  4254: a0 = 0x201a0\n  4259: i32 a0 = a0 + 0\n  4261: i32 a2 = a2 + 0\n  4263: a1 = 0x20\n  4266: ra = 0x6c\n  4269: ecalli 6 // 'hash_keccak_256'\n  4271: fallthrough\n      : @128 [@dyn 54] (gas: 9)\n  4272: a0 = u64 [s1 + 0xa0]\n  4276: a1 = a0 + 0x1f\n  4279: a0 = a1 <u a0\n  4282: a5 = u64 [s1 + 0x98]\n  4286: a2 = a5 + a0\n  4289: a3 = a2 <u a5\n  4292: a3 = a0 if a0 == 0\n  4295: a4 = u64 [s1 + 0x90]\n  4299: t0 = 110, jump @972\n      : @129 [@dyn 55] (gas: 35)\n  4304: a1 = u64 [s1 + 0xc8]\n  4308: a1 = 0 if a5 != 0\n  4310: a3 = u64 [s1 + 0xd0]\n  4314: a1 = 0 if a3 != 0\n  4316: a4 = 0 if a1 != 0\n  4318: a0 = 0 if a1 != 0\n  4320: t0 = t2 + a0\n  4323: a0 = t0 <u t2\n  4326: a5 = a2 + a0\n  4329: a4 = a4 + a5\n  4332: u64 [s1 + 0x118] = a4\n  4336: a5 = a4 ^ a2\n  4339: a3 = a4 <u a2\n  4342: a3 = a0 if a5 == 0\n  4345: u64 [s1 + 0xe0] = a3\n  4349: a0 = u64 [s1 + 0xf8]\n  4353: ra = a0 + 0x1f\n  4356: a4 = ra <u a0\n  4359: a3 = u64 [s1 + 0xf0]\n  4363: a0 = a3 + a4\n  4366: a5 = a0 <u a3\n  4369: a5 = a4 if a4 == 0\n  4372: t1 = u64 [s1 + 0x110]\n  4376: t1 = t1 + a5\n  4379: a4 = t1 << 0x3b\n  4382: a3 = a0 >> 0x5\n  4385: a3 = a3 | a4\n  4388: a0 = a0 << 0x3b\n  4391: a4 = ra >> 0x5\n  4394: a0 = a0 | a4\n  4397: a0 = a0 + t2\n  4400: u64 [s1 + 0xf8] = a0\n  4404: a0 = a0 <u t2\n  4407: t2 = t0\n  4409: t0 = 112, jump @988\n      : @130 [@dyn 56] (gas: 16)\n  4414: a0 = u64 [s1 + 0x90]\n  4418: a0 = a4 <u a0\n  4421: a3 = u64 [s1 + 0x88]\n  4425: a0 = a0 + a3\n  4428: a3 = a4 >> 0x5\n  4431: a4 = a0 << 0x3b\n  4434: a3 = a3 | a4\n  4437: a4 = u64 [s1 + 0x108]\n  4441: t0 = u64 [a4]\n  4443: a4 = u64 [a4 + 0x8]\n  4446: a0 = a0 >> 0x5\n  4449: a3 = 0 if a1 != 0\n  4451: a0 = 0 if a1 != 0\n  4453: a1 = reverse a4\n  4455: a4 = reverse t0\n  4457: t0 = 114, jump @993\n      : @131 [@dyn 57] (gas: 24)\n  4462: t0 = a0 + a3\n  4465: a0 = u64 [s1 + 0x110]\n  4469: a0 = t1 <u a0\n  4472: a3 = u64 [s1 + 0x100]\n  4476: a0 = a0 + a3\n  4479: a3 = t1 >> 0x5\n  4482: a5 = a0 << 0x3b\n  4485: a3 = a3 | a5\n  4488: a0 = a0 >> 0x5\n  4491: a0 = a0 + a4\n  4494: a4 = u64 [s1 + 0x118]\n  4498: a3 = a3 + a1\n  4501: a1 = a3 <u a1\n  4504: a0 = a0 + a1\n  4507: a2 = a2 + a3\n  4510: u64 [s1 + 0xe8] = a2\n  4514: a1 = a2 <u a3\n  4517: a0 = a0 + a1\n  4520: u64 [s1 + 0xe0] = a0\n  4524: a0 = sp + 0xffffffffffffffe0\n  4527: t1 = a0 & 0xffffffffffffffe0\n  4530: sp = t1\n  4532: u64 [s1 + 0xd8] = t1\n  4536: fallthrough\n      : @132 (gas: 20)\n  4537: a0 = u64 [s1 + 0xf8]\n  4541: a0 = t2 <u a0\n  4544: a2 = u64 [s1 + 0xf0]\n  4548: a1 = a4 ^ a2\n  4551: a2 = a4 <u a2\n  4554: a2 = a0 if a1 == 0\n  4557: a5 = u64 [s1 + 0xe8]\n  4561: a0 = ra <u a5\n  4564: a3 = u64 [s1 + 0xe0]\n  4568: a1 = t0 ^ a3\n  4571: a3 = t0 <u a3\n  4574: a3 = a0 if a1 == 0\n  4577: a0 = ra ^ a5\n  4580: a0 = a0 | a1\n  4583: a3 = a2 if a0 == 0\n  4586: u64 [t1] = t2\n  4588: u64 [t1 + 0x8] = a4\n  4591: u64 [t1 + 0x10] = ra\n  4594: u64 [t1 + 0x18] = t0\n  4597: jump @135 if a3 == 0\n      : @133 (gas: 14)\n  4600: a0 = s1 + 0x7ff\n  4604: a0 = a0 + 0x91\n  4608: u64 [a0 + 136] = 0\n  4612: u64 [a0 + 128] = 0\n  4616: u64 [a0 + 120] = 0\n  4619: u64 [a0 + 112] = 0\n  4622: a1 = s1 + 0x7ff\n  4626: a1 = a1 + 0x101\n  4630: a0 = t1\n  4632: u64 [s1 + 0x110] = t2\n  4636: u64 [s1 + 0x118] = a4\n  4640: u64 [s1 + 0x108] = t0\n  4644: u64 [s1 + 0x100] = ra\n  4648: ra = 116, jump @22\n      : @134 [@dyn 58] (gas: 15)\n  4653: t1 = u64 [s1 + 0xd8]\n  4657: t0 = u64 [s1 + 0x108]\n  4661: a4 = u64 [s1 + 0x118]\n  4665: t2 = u64 [s1 + 0x110]\n  4669: t2 = t2 + 0x1\n  4672: a0 = t2 <u 0x1\n  4675: a4 = a4 + a0\n  4678: a0 = t2 | a4\n  4681: a0 = a0 <u 0x1\n  4684: a1 = u64 [s1 + 0x100]\n  4688: a0 = a0 + a1\n  4691: a1 = a0 <u a1\n  4694: t0 = t0 + a1\n  4697: ra = a0\n  4699: jump @132\n      : @135 (gas: 9)\n  4702: a0 = u64 [s1 + 0xc8]\n  4706: a0 = a0 ^ 0x1\n  4709: a2 = u64 [s1 + 0x98]\n  4713: a1 = u64 [s1 + 0xb8]\n  4717: a0 = a1 if a2 != 0\n  4720: a1 = u64 [s1 + 0xc0]\n  4724: a3 = u64 [s1 + 0xd0]\n  4728: a0 = a1 if a3 != 0\n  4731: jump @145 if a0 == 0\n      : @136 (gas: 10)\n  4735: a0 = u64 [s1 + 0xa0]\n  4739: a0 = a0 & 0xffffffffffffffe0\n  4742: u64 [s1 + 0xa8] = a0\n  4746: u64 [s1 + 1368] = 0\n  4750: u64 [s1 + 1360] = 0\n  4754: u64 [s1 + 1352] = 0\n  4758: a1 = s1 + 0x540\n  4762: u64 [s1 + 1344] = 0x4\n  4767: a0 = 0\n  4769: ra = 118, jump @19\n      : @137 [@dyn 59] (gas: 7)\n  4774: a0 = sp + 0xffffffffffffffe0\n  4777: a0 = a0 & 0xffffffffffffffe0\n  4780: u64 [s1 + 0x100] = a0\n  4784: sp = a0\n  4786: a1 = 0x20\n  4789: a0 = 0\n  4791: ra = 120, jump @26\n      : @138 [@dyn 60] (gas: 40)\n  4796: a1 = sp + 0xffffffffffffffe0\n  4799: a1 = a1 & 0xffffffffffffffe0\n  4802: u64 [s1 + 0xf8] = a1\n  4806: sp = a1\n  4808: i32 a0 = a0 + 0\n  4810: i32 a2 = a1 + 0\n  4812: a1 = 0x20\n  4815: ecalli 6 // 'hash_keccak_256'\n  4817: u64 [s1 + 280] = 0x20\n  4822: a5 = 0\n  4824: u64 [s1 + 264] = 0\n  4828: u64 [s1 + 272] = 0\n  4832: a4 = 0\n  4834: a3 = 0\n  4836: a2 = 0\n  4838: t1 = 0\n  4840: a0 = u64 [s1 + 0xf8]\n  4844: t0 = u64 [a0 + 0x18]\n  4847: a1 = u64 [a0 + 0x10]\n  4850: ra = u64 [a0 + 0x8]\n  4853: a0 = u64 [a0]\n  4855: u64 [s1 + 0xf0] = a0\n  4859: a0 = reverse t0\n  4861: u64 [s1 + 0xf8] = a0\n  4865: t2 = reverse a1\n  4867: t0 = reverse ra\n  4869: a0 = u64 [s1 + 0xf0]\n  4873: a1 = reverse a0\n  4875: ra = a1\n  4877: a0 = u64 [s1 + 0x100]\n  4881: u64 [a0 + 0x18] = a1\n  4884: a1 = t0\n  4886: u64 [s1 + 0xb8] = a1\n  4890: u64 [a0 + 0x10] = a1\n  4893: a1 = t2\n  4895: u64 [s1 + 0xe8] = a1\n  4899: u64 [a0 + 0x8] = a1\n  4902: a1 = u64 [s1 + 0xf8]\n  4906: u64 [a0] = a1\n  4908: fallthrough\n      : @139 (gas: 24)\n  4909: u64 [s1 + 0xe0] = ra\n  4913: a0 = u64 [s1 + 0xa8]\n  4917: u64 [s1 + 0xd0] = a4\n  4921: a0 = a4 <u a0\n  4924: a4 = a0 ^ 0x1\n  4927: u64 [s1 + 0xc8] = a3\n  4931: a4 = 0x1 if a3 != 0\n  4934: u64 [s1 + 0xf0] = t1\n  4938: u64 [s1 + 0xd8] = a2\n  4942: a0 = a2 | t1\n  4945: a4 = 0x1 if a0 != 0\n  4948: a0 = u64 [s1 + 0x80]\n  4952: a1 = u64 [s1 + 0x118]\n  4956: a1 = a1 + a0\n  4959: a3 = u64 [s1 + 0x78]\n  4962: u64 [s1 + 0xc0] = a5\n  4966: t0 = a3 + a5\n  4969: t2 = u64 [s1 + 0x70]\n  4972: a2 = u64 [s1 + 0x108]\n  4976: a2 = a2 + t2\n  4979: t1 = u64 [s1 + 0x68]\n  4982: a5 = u64 [s1 + 0x110]\n  4986: t1 = t1 + a5\n  4989: jump @147 if a4 != 0\n      : @140 (gas: 6)\n  4993: ra = a1 <u a0\n  4996: a4 = t0 + ra\n  4999: t0 = a4 ^ a3\n  5002: a5 = a4 <u a3\n  5005: a5 = ra if t0 == 0\n  5008: t0 = 122, jump @977\n      : @141 [@dyn 61] (gas: 1)\n  5013: jump @203 if a0 != 0\n      : @142 (gas: 2)\n  5017: a0 = s1 + 0x2c0\n  5021: ra = 124, jump @17\n      : @143 [@dyn 62] (gas: 15)\n  5026: a4 = s1 + 0x200\n  5030: a0 = u64 [a4 + 0xd8]\n  5034: a1 = u64 [a4 + 0xd0]\n  5038: a2 = u64 [a4 + 0xc8]\n  5042: a3 = u64 [a4 + 0xc0]\n  5046: a4 = s1 + 0x7ff\n  5050: a4 = a4 + 0x91\n  5054: u64 [a4 + 0xa8] = a0\n  5058: u64 [a4 + 0xa0] = a1\n  5062: u64 [a4 + 0x98] = a2\n  5066: u64 [a4 + 0x90] = a3\n  5070: a1 = s1 + 0x7ff\n  5074: a1 = a1 + 0x121\n  5078: a0 = u64 [s1 + 0x100]\n  5082: ra = 126, jump @22\n      : @144 [@dyn 63] (gas: 55)\n  5087: ra = u64 [s1 + 0xf8]\n  5091: ra = ra + 0x1\n  5094: a0 = ra <u 0x1\n  5097: a3 = u64 [s1 + 0xe8]\n  5101: a3 = a3 + a0\n  5104: a0 = ra | a3\n  5107: a0 = a0 <u 0x1\n  5110: a1 = u64 [s1 + 0xb8]\n  5114: a0 = a0 + a1\n  5117: a1 = a0 <u a1\n  5120: t0 = u64 [s1 + 0xe0]\n  5124: t0 = t0 + a1\n  5127: a1 = u64 [s1 + 0x118]\n  5131: a2 = a1 + 0x20\n  5134: u64 [s1 + 0xe0] = a2\n  5138: a1 = a2 <u a1\n  5141: a2 = u64 [s1 + 0xc0]\n  5145: a4 = a2 + a1\n  5148: u64 [s1 + 0xb0] = a4\n  5152: a4 = a4 <u a2\n  5155: a4 = a1 if a1 == 0\n  5158: a1 = u64 [s1 + 0x108]\n  5162: t2 = a1 + a4\n  5165: a4 = t2 <u a1\n  5168: a1 = u64 [s1 + 0x110]\n  5172: a1 = a1 + a4\n  5175: u64 [s1 + 0x110] = a1\n  5179: a1 = u64 [s1 + 0xd0]\n  5183: a4 = a1 + 0x20\n  5186: a5 = a4 <u a1\n  5189: a2 = u64 [s1 + 0xc8]\n  5193: a1 = a2 + a5\n  5196: a2 = a1 <u a2\n  5199: a2 = a5 if a5 == 0\n  5202: a5 = u64 [s1 + 0xd8]\n  5206: a2 = a2 + a5\n  5209: a5 = a2 <u a5\n  5212: t1 = u64 [s1 + 0xf0]\n  5216: t1 = t1 + a5\n  5219: u64 [s1 + 0xe8] = a3\n  5223: a5 = u64 [s1 + 0x100]\n  5227: u64 [a5 + 0x8] = a3\n  5230: a3 = ra\n  5232: u64 [s1 + 0xf8] = a3\n  5236: u64 [a5] = a3\n  5238: u64 [a5 + 0x10] = a0\n  5241: ra = t0\n  5243: u64 [a5 + 0x18] = t0\n  5246: u64 [s1 + 0xb8] = a0\n  5250: a0 = u64 [s1 + 0xe0]\n  5254: u64 [s1 + 0x118] = a0\n  5258: a5 = u64 [s1 + 0xb0]\n  5262: u64 [s1 + 0x108] = t2\n  5266: a3 = a1\n  5268: jump @139\n      : @145 (gas: 7)\n  5271: a3 = u64 [s1 + 0xa0]\n  5275: a4 = u64 [s1 + 0x90]\n  5279: a0 = a3 | a4\n  5282: a5 = u64 [s1 + 0x88]\n  5286: a1 = a2 | a5\n  5289: a0 = a0 | a1\n  5292: jump @161 if a0 != 0\n      : @146 (gas: 5)\n  5296: u64 [s1 + 256] = 0\n  5300: u64 [s1 + 248] = 0\n  5304: u64 [s1 + 264] = 0\n  5308: u64 [s1 + 272] = 0\n  5312: jump @163\n      : @147 (gas: 12)\n  5315: a4 = u64 [s1 + 0xa8]\n  5319: a5 = u64 [s1 + 0xa0]\n  5323: a4 = a4 ^ a5\n  5326: ra = u64 [s1 + 0x90]\n  5330: a4 = a4 | ra\n  5333: u64 [s1 + 0x118] = a4\n  5337: a5 = u64 [s1 + 0x98]\n  5341: a4 = u64 [s1 + 0x88]\n  5345: a5 = a5 | a4\n  5348: a4 = u64 [s1 + 0x118]\n  5352: a4 = a4 | a5\n  5355: jump @160 if a4 == 0\n      : @148 (gas: 6)\n  5359: ra = a1 <u a0\n  5362: a4 = t0 + ra\n  5365: t0 = a4 ^ a3\n  5368: a5 = a4 <u a3\n  5371: a5 = ra if t0 == 0\n  5374: t0 = 128, jump @977\n      : @149 [@dyn 64] (gas: 1)\n  5380: jump @203 if a0 != 0\n      : @150 (gas: 2)\n  5384: a0 = s1 + 0x520\n  5388: ra = 130, jump @17\n      : @151 [@dyn 65] (gas: 11)\n  5394: a1 = s1 + 0x500\n  5398: a0 = u64 [a1 + 0x38]\n  5401: u64 [s1 + 0x110] = a0\n  5405: a0 = u64 [a1 + 0x30]\n  5408: u64 [s1 + 0x108] = a0\n  5412: a0 = u64 [a1 + 0x28]\n  5415: u64 [s1 + 0xf8] = a0\n  5419: a0 = u64 [a1 + 0x20]\n  5422: u64 [s1 + 0xf0] = a0\n  5426: a0 = u64 [s1 + 0xa0]\n  5430: t0 = 132, jump @989\n      : @152 [@dyn 66] (gas: 1)\n  5436: ra = 134, jump @1005\n      : @153 [@dyn 67] (gas: 6)\n  5442: u64 [s1 + 0xe8] = a0\n  5446: u64 [s1 + 0xd0] = a1\n  5450: a0 = 0xffffffffffffffff\n  5453: a1 = 0xffffffffffffffff\n  5456: a2 = u64 [s1 + 0x118]\n  5460: ra = 136, jump @1000\n      : @154 [@dyn 68] (gas: 1)\n  5466: t0 = 138, jump @990\n      : @155 [@dyn 69] (gas: 1)\n  5472: ra = 140, jump @1000\n      : @156 [@dyn 70] (gas: 1)\n  5478: t0 = 142, jump @969\n      : @157 [@dyn 71] (gas: 2)\n  5484: a2 = u64 [s1 + 0xf8]\n  5488: t0 = 144, jump @997\n      : @158 [@dyn 72] (gas: 10)\n  5494: a4 = s1 + 0x7ff\n  5498: a4 = a4 + 0x91\n  5502: u64 [a4 + 0xc8] = a3\n  5506: u64 [a4 + 0xc0] = a2\n  5510: u64 [a4 + 0xb8] = a1\n  5514: u64 [a4 + 0xb0] = a0\n  5518: a1 = s1 + 0x7ff\n  5522: a1 = a1 + 0x141\n  5526: a0 = u64 [s1 + 0x100]\n  5530: ra = 146, jump @22\n      : @159 [@dyn 73] (gas: 2)\n  5536: ra = u64 [s1 + 0x90]\n  5540: fallthrough\n      : @160 (gas: 30)\n  5541: a0 = ra >> 0x3f\n  5544: a1 = u64 [s1 + 0x88]\n  5548: a1 = a1 << 0x1\n  5551: a0 = a0 | a1\n  5554: a3 = u64 [s1 + 0x98]\n  5558: a1 = a3 >> 0x3f\n  5561: a2 = ra << 0x1\n  5564: a1 = a1 | a2\n  5567: a4 = u64 [s1 + 0xa0]\n  5571: a2 = a4 >> 0x3f\n  5574: a3 = a3 << 0x1\n  5577: a2 = a2 | a3\n  5580: a3 = a4 << 0x1\n  5583: a3 = a3 + 0x1\n  5586: a5 = s1 + 0x7ff\n  5590: a5 = a5 + 0x91\n  5594: u64 [a5 + 232] = 0\n  5598: u64 [a5 + 224] = 0\n  5602: u64 [a5 + 216] = 0\n  5606: u64 [a5 + 208] = 0x4\n  5611: u64 [a5 + 0xf0] = a3\n  5615: u64 [a5 + 0xf8] = a2\n  5619: u64 [a5 + 0x100] = a1\n  5623: u64 [a5 + 0x108] = a0\n  5627: a0 = s1 + 0x7ff\n  5631: a0 = a0 + 0x161\n  5635: a1 = s1 + 0x7ff\n  5639: a1 = a1 + 0x181\n  5643: ra = 0xa2\n  5647: jump @22\n      : @161 (gas: 3)\n  5650: a0 = s1 + 0x560\n  5654: a1 = u64 [s1 + 0x18]\n  5657: ra = 148, jump @17\n      : @162 [@dyn 74] (gas: 14)\n  5663: a5 = u64 [s1 + 0x88]\n  5667: a4 = u64 [s1 + 0x90]\n  5671: a2 = u64 [s1 + 0x98]\n  5675: a3 = u64 [s1 + 0xa0]\n  5679: a1 = s1 + 0x500\n  5683: a0 = u64 [a1 + 0x78]\n  5686: u64 [s1 + 0x110] = a0\n  5690: a0 = u64 [a1 + 0x70]\n  5693: u64 [s1 + 0x108] = a0\n  5697: a0 = u64 [a1 + 0x68]\n  5700: u64 [s1 + 0xf8] = a0\n  5704: a0 = u64 [a1 + 0x60]\n  5707: u64 [s1 + 0x100] = a0\n  5711: fallthrough\n      : @163 (gas: 15)\n  5712: a0 = a2 >> 0x3f\n  5715: a1 = a4 << 0x1\n  5718: a0 = a0 | a1\n  5721: u64 [s1 + 0xf0] = a0\n  5725: a0 = a4 >> 0x3f\n  5728: a1 = a5 << 0x1\n  5731: a0 = a0 | a1\n  5734: u64 [s1 + 0xe8] = a0\n  5738: a0 = a3 >> 0x3f\n  5741: a1 = a2 << 0x1\n  5744: a0 = a0 | a1\n  5747: u64 [s1 + 0xe0] = a0\n  5751: a0 = a3 << 0x1\n  5754: u64 [s1 + 0xd8] = a0\n  5758: t0 = 150, jump @995\n      : @164 [@dyn 75] (gas: 1)\n  5764: ra = 152, jump @1005\n      : @165 [@dyn 76] (gas: 7)\n  5770: u64 [s1 + 0xb8] = a0\n  5774: u64 [s1 + 0xd0] = a1\n  5778: a0 = u64 [s1 + 0xa0]\n  5782: i32 a2 = a0 << 0x3\n  5785: a0 = 0xffffffffffffffff\n  5788: a1 = 0xffffffffffffffff\n  5791: ra = 154, jump @1000\n      : @166 [@dyn 77] (gas: 10)\n  5797: u64 [s1 + 0xc8] = a0\n  5801: u64 [s1 + 0xc0] = a1\n  5805: a1 = u64 [s1 + 0xb8]\n  5809: a0 = a0 | a1\n  5812: u64 [s1 + 0xb8] = a0\n  5816: a0 = u64 [s1 + 0x118]\n  5820: i32 a2 = a0 + 0xffffffffffffff80\n  5823: a0 = 0xffffffffffffffff\n  5826: a1 = 0xffffffffffffffff\n  5829: ra = 156, jump @1000\n      : @167 [@dyn 78] (gas: 7)\n  5835: a4 = u64 [s1 + 0x118]\n  5839: a2 = a4 <u 0x80\n  5843: a3 = u64 [s1 + 0xb8]\n  5847: a0 = a3 if a2 != 0\n  5850: a5 = u64 [s1 + 0xc0]\n  5854: a3 = u64 [s1 + 0xd0]\n  5858: t0 = 158, jump @996\n      : @168 [@dyn 79] (gas: 2)\n  5864: a4 = u64 [s1 + 0xc8]\n  5868: t0 = 160, jump @976\n      : @169 [@dyn 80] (gas: 24)\n  5874: a4 = u64 [s1 + 0xd8]\n  5878: a0 = a0 | a4\n  5881: a4 = u64 [s1 + 0xe0]\n  5885: a1 = a1 | a4\n  5888: a4 = u64 [s1 + 0xe8]\n  5892: a3 = a3 | a4\n  5895: a4 = u64 [s1 + 0xf0]\n  5899: a2 = a2 | a4\n  5902: a5 = s1 + 0x7ff\n  5906: a5 = a5 + 0x91\n  5910: u64 [a5 + 272] = 0x4\n  5915: a4 = a5 + 0x100\n  5919: u64 [a4 + 0x40] = a2\n  5922: u64 [a4 + 0x48] = a3\n  5925: u64 [a4 + 0x38] = a1\n  5928: u64 [a4 + 0x30] = a0\n  5931: u64 [a5 + 296] = 0\n  5935: u64 [a5 + 288] = 0\n  5939: u64 [a5 + 280] = 0\n  5943: a0 = s1 + 0x7ff\n  5947: a0 = a0 + 0x1a1\n  5951: a1 = s1 + 0x7ff\n  5955: a1 = a1 + 0x1c1\n  5959: ra = 162, jump @22\n      : @170 [@dyn 81] (gas: 9)\n  5965: a0 = 0x301a0\n  5970: u64 [s1 + 0x118] = a0\n  5974: i32 a0 = a0 + 0\n  5976: u64 [s1 + 0x110] = a0\n  5980: ra = 0xa4\n  5984: ecalli 3 // 'caller'\n  5986: a2 = u64 [s1 + 0x118]\n  5990: t0 = 0xa6\n  5994: jump @991\n      : @171 [@dyn 82] (gas: 2)\n  5997: a2 = u64 [s1 + 0x118]\n  6001: t0 = 166, jump @991\n      : @172 [@dyn 83] (gas: 1)\n  6007: jump @241 if a0 == 0\n      : @173 (gas: 13)\n  6011: u64 [s1 + 264] = 0xd3c2\n  6018: a0 = 0x1bcecceda1000000\n  6028: u64 [s1 + 0x100] = a0\n  6032: a1 = s1 + 0x7ff\n  6036: a1 = a1 + 0x91\n  6040: u64 [a1 + 360] = 0\n  6044: u64 [a1 + 352] = 0\n  6048: u64 [a1 + 344] = 0\n  6052: u64 [a1 + 336] = 0x5\n  6057: a0 = s1 + 0x500\n  6061: a1 = s1 + 0x7ff\n  6065: a1 = a1 + 0x1e1\n  6069: ra = 168, jump @21\n      : @174 [@dyn 84] (gas: 15)\n  6075: a1 = s1 + 0x500\n  6079: a0 = u64 [a1]\n  6081: u64 [s1 + 0xf0] = a0\n  6085: a0 = u64 [a1 + 0x8]\n  6088: u64 [s1 + 0xe8] = a0\n  6092: a0 = u64 [a1 + 0x18]\n  6095: u64 [s1 + 0xe0] = a0\n  6099: a0 = u64 [a1 + 0x10]\n  6102: u64 [s1 + 0xf8] = a0\n  6106: a0 = u64 [s1 + 0x110]\n  6110: ra = 0xaa\n  6114: ecalli 3 // 'caller'\n  6116: a2 = u64 [s1 + 0x118]\n  6120: t0 = 0xac\n  6124: jump @975\n      : @175 [@dyn 85] (gas: 2)\n  6127: a2 = u64 [s1 + 0x118]\n  6131: t0 = 172, jump @975\n      : @176 [@dyn 86] (gas: 21)\n  6137: a3 = u64 [s1 + 0xf8]\n  6141: a3 = a3 >> 0x20\n  6144: a3 = a3 << 0x20\n  6147: a2 = a2 | a3\n  6150: a3 = s1 + 0x7ff\n  6154: a3 = a3 + 0x91\n  6158: u64 [a3 + 392] = 0\n  6162: u64 [a3 + 384] = 0\n  6166: u64 [a3 + 376] = 0\n  6170: a5 = a3 + 0x100\n  6174: u64 [a5 + 112] = 0x5\n  6178: a4 = u64 [s1 + 0xe0]\n  6182: u64 [a5 + 0xa8] = a4\n  6186: u64 [a5 + 0xa0] = a2\n  6190: u64 [a5 + 0x98] = a0\n  6194: u64 [a5 + 0x90] = a1\n  6198: a0 = s1 + 0x7ff\n  6202: a0 = a0 + 0x201\n  6206: a1 = s1 + 0x7ff\n  6210: a1 = a1 + 0x221\n  6214: ra = 174, jump @22\n      : @177 [@dyn 87] (gas: 6)\n  6220: a0 = u64 [s1 + 0x110]\n  6224: ra = 0xb0\n  6228: ecalli 3 // 'caller'\n  6230: a2 = u64 [s1 + 0x118]\n  6234: t0 = 0xb2\n  6238: jump @971\n      : @178 [@dyn 88] (gas: 2)\n  6241: a2 = u64 [s1 + 0x118]\n  6245: t0 = 178, jump @971\n      : @179 [@dyn 89] (gas: 33)\n  6251: t0 = a1 | a0\n  6254: a3 = a3 >> 0x20\n  6257: a2 = reverse a2\n  6259: a1 = a2 << 0x20\n  6262: a1 = a1 | a3\n  6265: a2 = a2 >> 0x20\n  6268: a3 = u64 [s1 + 0xf8]\n  6272: a3 = a3 << 0x20\n  6275: a3 = a3 >> 0x20\n  6278: u64 [s1 + 1208] = 0\n  6282: u64 [s1 + 1240] = 0\n  6286: u64 [s1 + 0x4d0] = a3\n  6290: a0 = u64 [s1 + 0xe8]\n  6294: u64 [s1 + 0x4c8] = a0\n  6298: a0 = u64 [s1 + 0xf0]\n  6302: u64 [s1 + 0x4c0] = a0\n  6306: a3 = u64 [0x20010]\n  6311: a4 = u64 [0x20018]\n  6316: a5 = u64 [0x20020]\n  6321: a0 = u64 [0x20028]\n  6326: u64 [s1 + 0x4f8] = a3\n  6330: u64 [s1 + 0x4f0] = a4\n  6334: u64 [s1 + 0x4e8] = a5\n  6338: u64 [s1 + 0x4e0] = a0\n  6342: u64 [s1 + 0x4b0] = a2\n  6346: u64 [s1 + 0x4a8] = a1\n  6350: a2 = s1 + 0x4e0\n  6354: a3 = s1 + 0x4c0\n  6358: a4 = s1 + 0x4a0\n  6362: u64 [s1 + 0x4a0] = t0\n  6366: a0 = 0\n  6368: a1 = 0\n  6370: ra = 180, jump @23\n      : @180 [@dyn 90] (gas: 10)\n  6376: a0 = s1 + 0x7ff\n  6380: a0 = a0 + 0x91\n  6384: u64 [a0 + 456] = 0\n  6388: u64 [a0 + 448] = 0\n  6392: u64 [a0 + 440] = 0\n  6396: u64 [a0 + 432] = 0x2\n  6401: a0 = s1 + 0x480\n  6405: a1 = s1 + 0x7ff\n  6409: a1 = a1 + 0x241\n  6413: ra = 182, jump @21\n      : @181 [@dyn 91] (gas: 34)\n  6419: a0 = u64 [s1 + 0x498]\n  6423: u64 [s1 + 0xf8] = a0\n  6427: t2 = u64 [s1 + 0x490]\n  6431: a3 = u64 [s1 + 0x488]\n  6435: ra = u64 [s1 + 0x480]\n  6439: a1 = sp + 0xffffffffffffffe0\n  6442: a1 = a1 & 0xffffffffffffffe0\n  6445: sp = a1\n  6447: t1 = u64 [s1 + 0x100]\n  6451: t1 = t1 + ra\n  6454: a0 = t1 <u ra\n  6457: a2 = u64 [s1 + 0x108]\n  6461: a2 = a2 + a3\n  6464: a2 = a2 + a0\n  6467: a4 = a2 ^ a3\n  6470: a5 = a2 <u a3\n  6473: a5 = a0 if a4 == 0\n  6476: t0 = u64 [0x20030]\n  6481: a0 = a3 ^ 0xffffffffffff2c3d\n  6486: a3 = a3 >u 0xffffffffffff2c3d\n  6491: a4 = t0 <u ra\n  6494: a4 = a3 if a0 != 0\n  6497: u64 [a1 + 0x8] = a2\n  6500: u64 [a1] = t1\n  6502: a5 = a5 + t2\n  6505: u64 [a1 + 0x10] = a5\n  6508: a0 = a5 <u t2\n  6511: a2 = u64 [s1 + 0xf8]\n  6515: a0 = a0 + a2\n  6518: a2 = t2 & a2\n  6521: a2 = a2 + 0x1\n  6524: a4 = 0 if a2 != 0\n  6526: u64 [a1 + 0x18] = a0\n  6529: jump @246 if a4 != 0\n      : @182 (gas: 9)\n  6533: a0 = s1 + 0x7ff\n  6537: a0 = a0 + 0x91\n  6541: u64 [a0 + 488] = 0\n  6545: u64 [a0 + 480] = 0\n  6549: u64 [a0 + 472] = 0\n  6553: u64 [a0 + 464] = 0x2\n  6558: a0 = s1 + 0x7ff\n  6562: a0 = a0 + 0x261\n  6566: ra = 184, jump @22\n      : @183 [@dyn 92] (gas: 6)\n  6572: a0 = u64 [s1 + 0x110]\n  6576: ra = 0xba\n  6580: ecalli 3 // 'caller'\n  6582: a2 = u64 [s1 + 0x118]\n  6586: t0 = 0xbc\n  6590: jump @966\n      : @184 [@dyn 93] (gas: 2)\n  6593: a2 = u64 [s1 + 0x118]\n  6597: t0 = 188, jump @966\n      : @185 [@dyn 94] (gas: 8)\n  6603: u64 [s1 + 1144] = 0\n  6607: a2 = s1 + 0x400\n  6611: u64 [a2 + 0x70] = a1\n  6614: u64 [a2 + 0x68] = a0\n  6617: a1 = s1 + 0x460\n  6621: u64 [a2 + 0x60] = a3\n  6624: a0 = 0\n  6626: ra = 190, jump @19\n      : @186 [@dyn 95] (gas: 7)\n  6632: u64 [s1 + 1112] = 0\n  6636: u64 [s1 + 1104] = 0\n  6640: u64 [s1 + 1096] = 0\n  6644: a0 = 0x20\n  6647: a1 = s1 + 0x440\n  6651: u64 [s1 + 1088] = 0\n  6655: ra = 192, jump @19\n      : @187 [@dyn 96] (gas: 6)\n  6661: a0 = sp + 0xffffffffffffffe0\n  6664: a0 = a0 & 0xffffffffffffffe0\n  6667: u64 [s1 + 0xf8] = a0\n  6671: sp = a0\n  6673: a1 = i32 [0x20194]\n  6678: jump @189 if a1 >u 63\n      : @188 (gas: 2)\n  6682: u32 [0x20194] = 0x40\n  6688: fallthrough\n      : @189 (gas: 13)\n  6689: a0 = sp + 0xffffffffffffffe0\n  6692: a2 = a0 & 0xffffffffffffffe0\n  6695: u64 [s1 + 0xf0] = a2\n  6699: sp = a2\n  6701: a0 = 0x201a0\n  6706: i32 a0 = a0 + 0\n  6708: i32 a2 = a2 + 0\n  6710: a1 = 0x40\n  6713: ra = 0xc2\n  6717: ecalli 6 // 'hash_keccak_256'\n  6719: a3 = u64 [s1 + 0xf0]\n  6723: t0 = 0xc4\n  6727: jump @967\n      : @190 [@dyn 97] (gas: 2)\n  6730: a3 = u64 [s1 + 0xf0]\n  6734: t0 = 196, jump @967\n      : @191 [@dyn 98] (gas: 7)\n  6740: a1 = u64 [s1 + 0xf8]\n  6744: u64 [a1 + 0x18] = a3\n  6747: u64 [a1 + 0x10] = a2\n  6750: u64 [a1 + 0x8] = a4\n  6753: u64 [a1] = a0\n  6755: a0 = s1 + 0x420\n  6759: ra = 198, jump @21\n      : @192 [@dyn 99] (gas: 26)\n  6765: a0 = u64 [s1 + 0x428]\n  6769: a1 = u64 [s1 + 0x420]\n  6773: t0 = u64 [s1 + 0x438]\n  6777: a3 = u64 [s1 + 0x430]\n  6781: a4 = u64 [s1 + 0x108]\n  6785: a4 = a4 + a0\n  6788: a5 = u64 [s1 + 0x100]\n  6792: a5 = a5 + a1\n  6795: a1 = a5 <u a1\n  6798: a4 = a4 + a1\n  6801: a2 = a4 ^ a0\n  6804: a0 = a4 <u a0\n  6807: a0 = a1 if a2 == 0\n  6810: a0 = a0 + a3\n  6813: a1 = a0 <u a3\n  6816: a1 = a1 + t0\n  6819: a2 = s1 + 0x7ff\n  6823: a2 = a2 + 0x91\n  6827: u64 [a2 + 0x1f0] = a5\n  6831: u64 [a2 + 0x1f8] = a4\n  6835: u64 [a2 + 0x200] = a0\n  6839: u64 [a2 + 0x208] = a1\n  6843: a1 = s1 + 0x7ff\n  6847: a1 = a1 + 0x281\n  6851: a0 = u64 [s1 + 0xf8]\n  6855: ra = 200, jump @22\n      : @193 [@dyn 100] (gas: 3)\n  6861: a0 = s1 + 0x400\n  6865: a1 = 0x40\n  6868: ra = 202, jump @17\n      : @194 [@dyn 101] (gas: 1)\n  6874: t0 = 204, jump @981\n      : @195 [@dyn 102] (gas: 1)\n  6880: jump @203 if a0 != 0\n      : @196 (gas: 9)\n  6884: u64 [s1 + 1016] = 0\n  6888: u64 [s1 + 1008] = 0\n  6892: u64 [s1 + 1000] = 0xd3c2\n  6899: a0 = 0x1bcecceda1000000\n  6909: a1 = s1 + 0x3e0\n  6913: u64 [s1 + 0x3e0] = a0\n  6917: a0 = a3\n  6919: u64 [s1 + 0x108] = a3\n  6923: ra = 206, jump @19\n      : @197 [@dyn 103] (gas: 6)\n  6929: a0 = u64 [s1 + 0x110]\n  6933: ra = 0xd0\n  6937: ecalli 3 // 'caller'\n  6939: a2 = u64 [s1 + 0x118]\n  6943: t0 = 0xd2\n  6947: jump @971\n      : @198 [@dyn 104] (gas: 2)\n  6950: a2 = u64 [s1 + 0x118]\n  6954: t0 = 210, jump @971\n      : @199 [@dyn 105] (gas: 28)\n  6960: t0 = a1 | a0\n  6963: a3 = a3 >> 0x20\n  6966: a2 = reverse a2\n  6968: a1 = a2 << 0x20\n  6971: a1 = a1 | a3\n  6974: a2 = a2 >> 0x20\n  6977: u64 [s1 + 920] = 0\n  6981: u64 [s1 + 952] = 0\n  6985: u64 [s1 + 944] = 0\n  6989: u64 [s1 + 936] = 0\n  6993: u64 [s1 + 928] = 0\n  6997: a3 = u64 [0x20038]\n  7002: a4 = u64 [0x20040]\n  7007: a5 = u64 [0x20048]\n  7012: a0 = u64 [0x20050]\n  7017: u64 [s1 + 0x3d8] = a3\n  7021: u64 [s1 + 0x3d0] = a4\n  7025: u64 [s1 + 0x3c8] = a5\n  7029: u64 [s1 + 0x3c0] = a0\n  7033: u64 [s1 + 0x390] = a2\n  7037: u64 [s1 + 0x388] = a1\n  7041: a1 = 0x20\n  7044: a2 = s1 + 0x3c0\n  7048: a3 = s1 + 0x3a0\n  7052: a4 = s1 + 0x380\n  7056: u64 [s1 + 0x380] = t0\n  7060: a0 = u64 [s1 + 0x108]\n  7064: ra = 212, jump @23\n      : @200 [@dyn 106] (gas: 3)\n  7070: a0 = s1 + 0x360\n  7074: a1 = 0x40\n  7077: ra = 214, jump @17\n      : @201 [@dyn 107] (gas: 6)\n  7083: a4 = s1 + 0x300\n  7087: a3 = u64 [a4 + 0x78]\n  7090: a1 = u64 [a4 + 0x70]\n  7093: a2 = u64 [a4 + 0x68]\n  7096: a0 = u64 [a4 + 0x60]\n  7099: t0 = 216, jump @970\n      : @202 [@dyn 108] (gas: 1)\n  7105: jump @253 if a1 == 0\n      : @203 (gas: 1)\n  7109: trap\n      : @204 (gas: 6)\n  7110: a1 = 0x201a0\n  7115: i32 a1 = a1 + 0\n  7117: a0 = 0x1\n  7120: a2 = 0\n  7122: ecalli 7 // 'seal_return'\n  7124: fallthrough\n      : @205 (gas: 6)\n  7125: u64 [s1 + 336] = 0\n  7129: u64 [s1 + 328] = 0\n  7133: u64 [s1 + 320] = 0\n  7137: t0 = 0xda\n  7141: a0 = 0x4e487b7100000000\n  7151: fallthrough\n      : @206 [@dyn 109] (gas: 4)\n  7152: a1 = s1 + 0x140\n  7156: u64 [s1 + 0x158] = a0\n  7160: a0 = 0\n  7162: ra = 220, jump @19\n      : @207 [@dyn 110] (gas: 7)\n  7168: u64 [s1 + 312] = 0\n  7172: u64 [s1 + 304] = 0\n  7176: u64 [s1 + 288] = 0x41\n  7181: a0 = 0x4\n  7184: a1 = s1 + 0x120\n  7188: u64 [s1 + 296] = 0\n  7192: ra = 222, jump @19\n      : @208 [@dyn 111] (gas: 2)\n  7198: a1 = i32 [0x20194]\n  7203: jump @210 if a1 >u 63\n      : @209 (gas: 3)\n  7207: u32 [0x20194] = 0x40\n  7213: a1 = 0x201a0\n  7218: jump @252\n      : @210 (gas: 2)\n  7221: a1 = 0x201a0\n  7226: jump @252\n      : @211 (gas: 6)\n  7229: u64 [s1 + 400] = 0\n  7233: u64 [s1 + 392] = 0\n  7237: u64 [s1 + 384] = 0\n  7241: t0 = 0xe0\n  7245: a0 = 0x4e487b7100000000\n  7255: fallthrough\n      : @212 [@dyn 112] (gas: 4)\n  7256: a1 = s1 + 0x180\n  7260: u64 [s1 + 0x198] = a0\n  7264: a0 = 0\n  7266: ra = 226, jump @19\n      : @213 [@dyn 113] (gas: 7)\n  7272: u64 [s1 + 376] = 0\n  7276: u64 [s1 + 368] = 0\n  7280: u64 [s1 + 352] = 0x41\n  7285: a0 = 0x4\n  7288: a1 = s1 + 0x160\n  7292: u64 [s1 + 360] = 0\n  7296: ra = 228, jump @19\n      : @214 [@dyn 114] (gas: 2)\n  7302: a1 = i32 [0x20194]\n  7307: jump @216 if a1 >u 63\n      : @215 (gas: 3)\n  7311: u32 [0x20194] = 0x40\n  7317: a1 = 0x201a0\n  7322: jump @252\n      : @216 (gas: 2)\n  7325: a1 = 0x201a0\n  7330: jump @252\n      : @217 (gas: 6)\n  7333: u64 [s1 + 464] = 0\n  7337: u64 [s1 + 456] = 0\n  7341: u64 [s1 + 448] = 0\n  7345: t0 = 0xe6\n  7349: a0 = 0x4e487b7100000000\n  7359: fallthrough\n      : @218 [@dyn 115] (gas: 4)\n  7360: a1 = s1 + 0x1c0\n  7364: u64 [s1 + 0x1d8] = a0\n  7368: a0 = 0\n  7370: ra = 232, jump @19\n      : @219 [@dyn 116] (gas: 7)\n  7376: u64 [s1 + 440] = 0\n  7380: u64 [s1 + 432] = 0\n  7384: u64 [s1 + 416] = 0x41\n  7389: a0 = 0x4\n  7392: a1 = s1 + 0x1a0\n  7396: u64 [s1 + 424] = 0\n  7400: ra = 234, jump @19\n      : @220 [@dyn 117] (gas: 2)\n  7406: a1 = i32 [0x20194]\n  7411: jump @222 if a1 >u 63\n      : @221 (gas: 3)\n  7415: u32 [0x20194] = 0x40\n  7421: a1 = 0x201a0\n  7426: jump @252\n      : @222 (gas: 2)\n  7429: a1 = 0x201a0\n  7434: jump @252\n      : @223 (gas: 6)\n  7437: u64 [s1 + 528] = 0\n  7441: u64 [s1 + 520] = 0\n  7445: u64 [s1 + 512] = 0\n  7449: t0 = 0xec\n  7453: a0 = 0x4e487b7100000000\n  7463: fallthrough\n      : @224 [@dyn 118] (gas: 4)\n  7464: a1 = s1 + 0x200\n  7468: u64 [s1 + 0x218] = a0\n  7472: a0 = 0\n  7474: ra = 238, jump @19\n      : @225 [@dyn 119] (gas: 7)\n  7480: u64 [s1 + 504] = 0\n  7484: u64 [s1 + 496] = 0\n  7488: u64 [s1 + 480] = 0x22\n  7493: a0 = 0x4\n  7496: a1 = s1 + 0x1e0\n  7500: u64 [s1 + 488] = 0\n  7504: ra = 240, jump @19\n      : @226 [@dyn 120] (gas: 2)\n  7510: a1 = i32 [0x20194]\n  7515: jump @228 if a1 >u 63\n      : @227 (gas: 3)\n  7519: u32 [0x20194] = 0x40\n  7525: a1 = 0x201a0\n  7530: jump @252\n      : @228 (gas: 2)\n  7533: a1 = 0x201a0\n  7538: jump @252\n      : @229 (gas: 6)\n  7541: u64 [s1 + 624] = 0\n  7545: u64 [s1 + 616] = 0\n  7549: u64 [s1 + 608] = 0\n  7553: t0 = 0xf2\n  7557: a0 = 0x4e487b7100000000\n  7567: fallthrough\n      : @230 [@dyn 121] (gas: 4)\n  7568: a1 = s1 + 0x260\n  7572: u64 [s1 + 0x278] = a0\n  7576: a0 = 0\n  7578: ra = 244, jump @19\n      : @231 [@dyn 122] (gas: 7)\n  7584: u64 [s1 + 600] = 0\n  7588: u64 [s1 + 592] = 0\n  7592: u64 [s1 + 576] = 0x41\n  7597: a0 = 0x4\n  7600: a1 = s1 + 0x240\n  7604: u64 [s1 + 584] = 0\n  7608: ra = 246, jump @19\n      : @232 [@dyn 123] (gas: 2)\n  7614: a1 = i32 [0x20194]\n  7619: jump @234 if a1 >u 63\n      : @233 (gas: 3)\n  7623: u32 [0x20194] = 0x40\n  7629: a1 = 0x201a0\n  7634: jump @252\n      : @234 (gas: 2)\n  7637: a1 = 0x201a0\n  7642: jump @252\n      : @235 (gas: 6)\n  7645: u64 [s1 + 688] = 0\n  7649: u64 [s1 + 680] = 0\n  7653: u64 [s1 + 672] = 0\n  7657: t0 = 0xf8\n  7661: a0 = 0x4e487b7100000000\n  7671: fallthrough\n      : @236 [@dyn 124] (gas: 4)\n  7672: a1 = s1 + 0x2a0\n  7676: u64 [s1 + 0x2b8] = a0\n  7680: a0 = 0\n  7682: ra = 250, jump @19\n      : @237 [@dyn 125] (gas: 7)\n  7688: u64 [s1 + 664] = 0\n  7692: u64 [s1 + 656] = 0\n  7696: u64 [s1 + 640] = 0x22\n  7701: a0 = 0x4\n  7704: a1 = s1 + 0x280\n  7708: u64 [s1 + 648] = 0\n  7712: ra = 252, jump @19\n      : @238 [@dyn 126] (gas: 2)\n  7718: a1 = i32 [0x20194]\n  7723: jump @240 if a1 >u 63\n      : @239 (gas: 3)\n  7727: u32 [0x20194] = 0x40\n  7733: a1 = 0x201a0\n  7738: jump @252\n      : @240 (gas: 2)\n  7741: a1 = 0x201a0\n  7746: jump @252\n      : @241 (gas: 8)\n  7749: u64 [s1 + 784] = 0\n  7753: u64 [s1 + 776] = 0\n  7757: u64 [s1 + 768] = 0\n  7761: a0 = 0x1e4fbdf700000000\n  7771: a1 = s1 + 0x300\n  7775: u64 [s1 + 0x318] = a0\n  7779: a0 = 0\n  7781: ra = 254, jump @19\n      : @242 [@dyn 127] (gas: 7)\n  7787: u64 [s1 + 760] = 0\n  7791: u64 [s1 + 752] = 0\n  7795: u64 [s1 + 744] = 0\n  7799: a0 = 0x4\n  7802: a1 = s1 + 0x2e0\n  7806: u64 [s1 + 736] = 0\n  7810: ra = 256, jump @19\n      : @243 [@dyn 128] (gas: 2)\n  7816: a1 = i32 [0x20194]\n  7821: jump @245 if a1 >u 63\n      : @244 (gas: 3)\n  7825: u32 [0x20194] = 0x40\n  7831: a1 = 0x201a0\n  7836: jump @252\n      : @245 (gas: 2)\n  7838: a1 = 0x201a0\n  7843: jump @252\n      : @246 (gas: 6)\n  7845: u64 [s1 + 848] = 0\n  7849: u64 [s1 + 840] = 0\n  7853: u64 [s1 + 832] = 0\n  7857: t0 = 0x102\n  7861: a0 = 0x4e487b7100000000\n  7871: fallthrough\n      : @247 [@dyn 129] (gas: 4)\n  7872: a1 = s1 + 0x340\n  7876: u64 [s1 + 0x358] = a0\n  7880: a0 = 0\n  7882: ra = 260, jump @19\n      : @248 [@dyn 130] (gas: 7)\n  7888: u64 [s1 + 824] = 0\n  7892: u64 [s1 + 816] = 0\n  7896: u64 [s1 + 800] = 0x11\n  7901: a0 = 0x4\n  7904: a1 = s1 + 0x320\n  7908: u64 [s1 + 808] = 0\n  7912: ra = 262, jump @19\n      : @249 [@dyn 131] (gas: 2)\n  7918: a1 = i32 [0x20194]\n  7923: jump @251 if a1 >u 63\n      : @250 (gas: 3)\n  7927: u32 [0x20194] = 0x40\n  7933: a1 = 0x201a0\n  7938: jump @252\n      : @251 (gas: 2)\n  7940: a1 = 0x201a0\n  7945: fallthrough\n      : @252 (gas: 7)\n  7946: i32 a1 = a1 + 0\n  7948: a0 = 0x1\n  7951: a2 = 0x24\n  7954: ecalli 7 // 'seal_return'\n  7956: u64 [s1 + 0x118] = a0\n  7960: ra = 0x108\n  7964: jump @26\n      : @253 (gas: 2)\n  7967: u64 [s1 + 0x118] = a0\n  7971: ra = 264, jump @26\n      : @254 [@dyn 132] (gas: 5)\n  7977: i32 a0 = a0 + 0\n  7979: a1 = 0\n  7981: a2 = 0\n  7983: ecalli 0 // 'call_data_copy'\n  7984: jump @15\n      : @255 (gas: 3)\n  7987: a0 = u64 [s1 + 0x118]\n  7991: a1 = 0\n  7993: ra = 266, jump @26\n      : @256 [@dyn 133] (gas: 5)\n  7999: i32 a1 = a0 + 0\n  8001: a0 = 0\n  8003: a2 = 0\n  8005: ecalli 7 // 'seal_return'\n  8007: jump @205\n      : @257 [@dyn 134] (gas: 4)\n  8010: a0 = 0x20190\n  8015: u64 [s1 + 0x38] = a0\n  8018: a0 = i32 [0x20190]\n  8023: jump @259 if a0 >=u 4\n      : @258 (gas: 1)\n  8027: jump @784\n      : @259 (gas: 6)\n  8030: a0 = s1 + 0x1000\n  8034: i32 a0 = a0 + 0x740\n  8038: a1 = 0\n  8040: ra = 0x10e\n  8044: ecalli 1 // 'call_data_load'\n  8046: fallthrough\n      : @260 [@dyn 135] (gas: 3)\n  8047: a3 = s1 + 0x1078\n  8051: a0 = i32 [a3 + 0x6e4]\n  8055: jump @262 if a0 != 2376452955\n      : @261 (gas: 1)\n  8062: jump @423\n      : @262 (gas: 1)\n  8065: jump @332 if a0 == 2514000705\n      : @263 (gas: 2)\n  8073: a2 = s1 + 0x1878\n  8077: jump @265 if a0 != 2835717307\n      : @264 (gas: 1)\n  8084: jump @552\n      : @265 (gas: 1)\n  8087: jump @267 if a0 != 3714247998\n      : @266 (gas: 1)\n  8094: jump @488\n      : @267 (gas: 1)\n  8097: jump @309 if a0 == 117300739\n      : @268 (gas: 1)\n  8105: jump @270 if a0 != 157198259\n      : @269 (gas: 1)\n  8112: jump @515\n      : @270 (gas: 1)\n  8115: jump @350 if a0 == 404098525\n      : @271 (gas: 1)\n  8123: jump @273 if a0 != 599290589\n      : @272 (gas: 1)\n  8130: jump @435\n      : @273 (gas: 1)\n  8133: jump @322 if a0 == 826074471\n      : @274 (gas: 1)\n  8141: jump @360 if a0 == 1117154408\n      : @275 (gas: 1)\n  8149: jump @400 if a0 == 1469143191\n      : @276 (gas: 1)\n  8157: jump @278 if a0 == 1750544647\n      : @277 (gas: 1)\n  8164: jump @565\n      : @278 (gas: 8)\n  8167: u64 [a2 + 448] = 0\n  8171: u64 [a2 + 440] = 0\n  8175: u64 [a2 + 432] = 0\n  8179: u64 [a2 + 424] = 0\n  8183: a0 = s1 + 0x2000\n  8187: i32 a0 = a0 + 0xfffffffffffffa20\n  8191: ecalli 10 // 'value_transferred'\n  8193: fallthrough\n      : @279 (gas: 10)\n  8194: a3 = s1 + 0x1878\n  8198: a4 = a3 + 0x100\n  8202: a0 = u64 [a4 + 0xb8]\n  8206: a1 = u64 [a4 + 0xc0]\n  8210: a2 = u64 [a4 + 0xb0]\n  8214: a3 = u64 [a4 + 0xa8]\n  8218: a1 = a1 | a2\n  8221: a0 = a0 | a3\n  8224: a0 = a0 | a1\n  8227: jump @281 if a0 == 0\n      : @280 (gas: 1)\n  8230: jump @683\n      : @281 (gas: 3)\n  8233: a0 = u64 [s1 + 0x38]\n  8236: a0 = i32 [a0]\n  8238: jump @283 if a0 >u 67\n      : @282 (gas: 1)\n  8242: jump @684\n      : @283 (gas: 5)\n  8245: a0 = s1 + 0x2000\n  8249: i32 a0 = a0 + 0xfffffffffffffa40\n  8253: a1 = 0x4\n  8256: ecalli 1 // 'call_data_load'\n  8258: fallthrough\n      : @284 (gas: 9)\n  8259: a2 = s1 + 0x1878\n  8263: a0 = a2 + 0x100\n  8267: a5 = u64 [a0 + 0xe0]\n  8271: a3 = u64 [a0 + 0xd8]\n  8275: a4 = u64 [a0 + 0xd0]\n  8279: a0 = a3 | a5\n  8282: a1 = a4 <u 0x1\n  8285: a1 = 0 if a0 != 0\n  8287: jump @286 if a1 != 0\n      : @285 (gas: 1)\n  8290: jump @685\n      : @286 (gas: 19)\n  8293: a1 = u64 [a2 + 0x1c8]\n  8297: a0 = u64 [s1 + 0x38]\n  8300: t2 = u32 [a0]\n  8302: a0 = a1 + 0x23\n  8305: a2 = a0 <u a1\n  8308: t0 = a4 + a2\n  8311: u64 [s1 + 0xa8] = a4\n  8315: a4 = t0 <u a4\n  8318: a4 = a2 if a2 == 0\n  8321: a4 = a4 + a3\n  8324: u64 [s1 + 0xb0] = a3\n  8328: a2 = a4 <u a3\n  8331: u64 [s1 + 0xb8] = a5\n  8335: a2 = a2 + a5\n  8338: a2 = a2 | a4\n  8341: a0 = a0 <u t2\n  8344: a0 = 0 if t0 != 0\n  8346: a0 = 0 if a2 != 0\n  8348: jump @288 if a0 != 0\n      : @287 (gas: 1)\n  8351: jump @686\n      : @288 (gas: 23)\n  8354: u64 [s1 + 0xa0] = a1\n  8358: i32 a1 = a1 + 0x4\n  8361: a0 = s1 + 0x2000\n  8365: i32 a0 = a0 + 0xfffffffffffffa60\n  8369: ecalli 1 // 'call_data_load'\n  8371: a0 = s1 + 0x1878\n  8375: a3 = u64 [a0 + 0x200]\n  8379: a5 = a0 + 0x100\n  8383: a1 = u64 [a5 + 0xf8]\n  8387: a2 = u64 [a5 + 0xf0]\n  8391: a4 = u64 [a5 + 0xe8]\n  8395: a5 = s1 + 0x1078\n  8399: u64 [s1 + 0xe8] = a3\n  8403: u64 [a5 + 0x40] = a3\n  8406: u64 [s1 + 0xf0] = a1\n  8410: u64 [a5 + 0x38] = a1\n  8413: u64 [s1 + 0xf8] = a2\n  8417: u64 [a5 + 0x30] = a2\n  8420: a0 = s1 + 0x10c0\n  8424: a1 = s1 + 0x10a0\n  8428: u64 [s1 + 0xe0] = a4\n  8432: u64 [a5 + 0x28] = a4\n  8435: ra = 272, jump @854\n      : @289 [@dyn 136] (gas: 12)\n  8441: a0 = s1 + 0x1078\n  8445: a1 = u64 [a0 + 0x48]\n  8448: u64 [s1 + 0xd8] = a1\n  8452: a1 = u64 [a0 + 0x50]\n  8455: u64 [s1 + 0xd0] = a1\n  8459: a1 = u64 [a0 + 0x58]\n  8462: u64 [s1 + 0xc8] = a1\n  8466: a1 = u64 [a0 + 0x60]\n  8469: u64 [s1 + 0xc0] = a1\n  8473: a0 = s1 + 0x1080\n  8477: a1 = 0x40\n  8480: ra = 274, jump @17\n      : @290 [@dyn 137] (gas: 27)\n  8486: a1 = s1 + 0x1078\n  8490: a3 = u64 [a1 + 0x20]\n  8493: u64 [s1 + 0x68] = a3\n  8496: a2 = u64 [a1 + 0x18]\n  8499: u64 [s1 + 0x60] = a2\n  8502: a5 = u64 [a1 + 0x10]\n  8505: u64 [s1 + 0x58] = a5\n  8508: t0 = u64 [a1 + 0x8]\n  8511: u64 [s1 + 0x70] = t0\n  8514: a0 = s1 + 0x7ff\n  8518: a0 = a0 + 0x79\n  8521: a4 = u64 [s1 + 0xc0]\n  8525: u64 [a0 + 0x7e0] = a4\n  8529: a4 = u64 [s1 + 0xc8]\n  8533: u64 [a0 + 0x7d8] = a4\n  8537: a4 = u64 [s1 + 0xd0]\n  8541: u64 [a0 + 0x7d0] = a4\n  8545: a4 = u64 [s1 + 0xd8]\n  8549: u64 [a0 + 0x7c8] = a4\n  8553: u64 [a1] = a3\n  8555: u64 [a1 + 0xfffffffffffffff8] = a2\n  8558: u64 [a1 + 0xfffffffffffffff0] = a5\n  8561: a2 = a1\n  8563: a0 = s1 + 0x1060\n  8567: a1 = s1 + 0x1040\n  8571: u64 [a2 + 0xffffffffffffffe8] = t0\n  8574: ra = 276, jump @844\n      : @291 [@dyn 138] (gas: 12)\n  8580: a0 = u64 [s1 + 0x70]\n  8583: a1 = u64 [s1 + 0x68]\n  8586: a2 = u64 [s1 + 0x58]\n  8589: a2 = a2 | a1\n  8592: a3 = u64 [s1 + 0x60]\n  8595: a1 = a0 | a3\n  8598: a1 = a1 | a2\n  8601: a1 = a1 >> 0x20\n  8604: a2 = a2 | a3\n  8607: a2 = a2 << 0x20\n  8610: a1 = a1 | a2\n  8613: jump @293 if a1 == 0\n      : @292 (gas: 1)\n  8616: jump @635\n      : @293 (gas: 13)\n  8619: a2 = s1 + 0x7ff\n  8623: a2 = a2 + 0x79\n  8626: a1 = u64 [s1 + 0xe0]\n  8630: a4 = a2 + 0x700\n  8634: u64 [a4 + 0xa8] = a1\n  8638: a1 = u64 [s1 + 0xf8]\n  8642: u64 [a4 + 0xb0] = a1\n  8646: a1 = u64 [s1 + 0xf0]\n  8650: u64 [a4 + 0xb8] = a1\n  8654: a1 = s1 + 0x1020\n  8658: a3 = u64 [s1 + 0xe8]\n  8662: u64 [a4 + 0xc0] = a3\n  8666: ra = 278, jump @19\n      : @294 [@dyn 139] (gas: 1)\n  8672: t0 = 280, jump @992\n      : @295 [@dyn 140] (gas: 52)\n  8678: t0 = t2 <u a0\n  8681: a3 = u64 [s1 + 0xa8]\n  8685: t1 = a3 + t0\n  8688: a1 = a1 + t1\n  8691: a5 = t2 + a2\n  8694: a2 = a5 <u t2\n  8697: ra = a1 + a2\n  8700: a4 = ra ^ t1\n  8703: a1 = ra <u t1\n  8706: a1 = a2 if a4 == 0\n  8709: a0 = u64 [s1 + 0xe8]\n  8713: a0 = a0 << 0x5\n  8716: a4 = u64 [s1 + 0xf0]\n  8720: a2 = a4 >> 0x3b\n  8723: a0 = a0 | a2\n  8726: u64 [s1 + 0xe8] = a0\n  8730: a2 = u64 [s1 + 0xf8]\n  8734: a2 = a2 >> 0x3b\n  8737: a4 = a4 << 0x5\n  8740: a2 = a2 | a4\n  8743: a4 = t1 <u a3\n  8746: a4 = t0 if t0 == 0\n  8749: a0 = u64 [s1 + 0xb0]\n  8753: a4 = a4 + a0\n  8756: a0 = a4 <u a0\n  8759: t0 = u64 [s1 + 0xb8]\n  8763: t0 = t0 + a0\n  8766: a2 = a2 + a4\n  8769: a3 = a2 + a1\n  8772: a0 = a3 <u a2\n  8775: u64 [s1 + 0xf8] = a4\n  8779: a2 = a2 <u a4\n  8782: a1 = u64 [s1 + 0xe8]\n  8786: a1 = a1 + t0\n  8789: a1 = a1 + a2\n  8792: a4 = a1 + a0\n  8795: a0 = u64 [s1 + 0x38]\n  8798: a0 = u32 [a0]\n  8800: a1 = a4 <u 0x1\n  8803: a2 = a3 <u 0x1\n  8806: a2 = a1 if a4 != 0\n  8809: u64 [s1 + 0xa0] = a5\n  8813: a0 = a0 <u a5\n  8816: a0 = a0 ^ 0x1\n  8819: a1 = ra <u 0x1\n  8822: u64 [s1 + 0x98] = ra\n  8826: a0 = a1 if ra != 0\n  8829: u64 [s1 + 0x90] = a3\n  8833: u64 [s1 + 0x88] = a4\n  8837: a1 = a3 | a4\n  8840: a0 = a2 if a1 != 0\n  8843: jump @297 if a0 != 0\n      : @296 (gas: 1)\n  8846: jump @757\n      : @297 (gas: 13)\n  8849: a0 = 0xffffffff\n  8859: u64 [s1 + 0x80] = a0\n  8863: a0 = 0xffffffe0\n  8873: u64 [s1 + 0x78] = a0\n  8876: a0 = u64 [s1 + 0x70]\n  8879: u64 [s1 + 0xe8] = a0\n  8883: a0 = u64 [s1 + 0x58]\n  8886: u64 [s1 + 0xe0] = a0\n  8890: ra = u64 [s1 + 0x60]\n  8893: a0 = u64 [s1 + 0x68]\n  8896: u64 [s1 + 0xf0] = a0\n  8900: a4 = u64 [s1 + 0xf8]\n  8904: fallthrough\n      : @298 (gas: 16)\n  8905: a0 = u64 [s1 + 0xa0]\n  8909: a0 = t2 <u a0\n  8912: a2 = u64 [s1 + 0x98]\n  8916: a1 = t1 ^ a2\n  8919: a2 = t1 <u a2\n  8922: a2 = a0 if a1 == 0\n  8925: a5 = u64 [s1 + 0x90]\n  8929: a0 = a4 <u a5\n  8932: a3 = u64 [s1 + 0x88]\n  8936: a1 = t0 ^ a3\n  8939: a3 = t0 <u a3\n  8942: a3 = a0 if a1 == 0\n  8945: a0 = a4 ^ a5\n  8948: a0 = a0 | a1\n  8951: a3 = a2 if a0 == 0\n  8954: jump @300 if a3 != 0\n      : @299 (gas: 1)\n  8957: jump @607\n      : @300 (gas: 8)\n  8960: a0 = t2 | a4\n  8963: a1 = t1 | t0\n  8966: a0 = a0 | a1\n  8969: a0 = a0 >> 0x20\n  8972: a1 = a1 | a4\n  8975: a1 = a1 << 0x20\n  8978: a0 = a0 | a1\n  8981: jump @302 if a0 == 0\n      : @301 (gas: 1)\n  8984: jump @635\n      : @302 (gas: 10)\n  8987: u64 [s1 + 0xd8] = ra\n  8991: u64 [s1 + 0xf8] = a4\n  8995: u64 [s1 + 0xc0] = t0\n  8999: u64 [s1 + 0xc8] = t1\n  9003: u64 [s1 + 0xd0] = t2\n  9007: i32 a1 = t2 + 0\n  9009: a0 = s1 + 0x2000\n  9013: i32 a0 = a0 + 0xfffffffffffffa80\n  9017: ecalli 1 // 'call_data_load'\n  9019: fallthrough\n      : @303 (gas: 12)\n  9020: a0 = s1 + 0x1878\n  9024: ra = u64 [a0 + 0x220]\n  9028: t2 = u64 [a0 + 0x218]\n  9032: a2 = ra >u 0\n  9034: a3 = t2 >> 0x20\n  9037: a3 = a3 >u 0\n  9039: a3 = a2 if ra != 0\n  9042: a2 = u64 [s1 + 0x80]\n  9046: a2 = t2 ^ a2\n  9049: a2 = a2 | ra\n  9052: a3 = 0 if a2 == 0\n  9054: jump @305 if a3 == 0\n      : @304 (gas: 1)\n  9057: jump @680\n      : @305 (gas: 10)\n  9060: a5 = u64 [s1 + 0xf0]\n  9064: a2 = u64 [s1 + 0xd8]\n  9068: t1 = a2 | a5\n  9071: a3 = u64 [s1 + 0x78]\n  9074: a4 = u64 [s1 + 0xe8]\n  9078: a3 = a4 <u a3\n  9081: a1 = u64 [s1 + 0xe0]\n  9085: a3 = 0 if a1 != 0\n  9087: a3 = 0 if t1 != 0\n  9089: jump @307 if a3 != 0\n      : @306 (gas: 1)\n  9092: jump @635\n      : @307 (gas: 25)\n  9095: a3 = a4 + 0x20\n  9098: t0 = a0\n  9100: a4 = a3 <u a4\n  9103: a0 = a3\n  9105: u64 [s1 + 0xa8] = a3\n  9109: a3 = a1 + a4\n  9112: u64 [s1 + 0xb8] = a3\n  9116: a3 = a3 <u a1\n  9119: a3 = a4 if a4 == 0\n  9122: t1 = u64 [t0 + 0x210]\n  9126: a4 = u64 [t0 + 0x208]\n  9130: a3 = a3 + a2\n  9133: u64 [s1 + 0xb0] = a3\n  9137: a3 = a3 <u a2\n  9140: a5 = a5 + a3\n  9143: u64 [s1 + 0xf0] = a5\n  9147: a3 = s1 + 0x7ff\n  9151: a3 = a3 + 0x79\n  9154: u64 [a3 + 0x348] = a4\n  9158: u64 [a3 + 0x350] = t1\n  9162: u64 [a3 + 0x358] = t2\n  9166: a1 = s1 + 0x7ff\n  9170: a1 = a1 + 0x3c1\n  9174: u64 [a3 + 0x360] = ra\n  9178: ra = 282, jump @19\n      : @308 [@dyn 141] (gas: 20)\n  9184: a1 = u64 [s1 + 0xd0]\n  9188: a0 = a1 + 0x20\n  9191: a1 = a0 <u a1\n  9194: a3 = u64 [s1 + 0xc8]\n  9198: t1 = a3 + a1\n  9201: a3 = t1 <u a3\n  9204: a3 = a1 if a1 == 0\n  9207: a1 = u64 [s1 + 0xf8]\n  9211: a3 = a3 + a1\n  9214: a1 = a3 <u a1\n  9217: t0 = u64 [s1 + 0xc0]\n  9221: t0 = t0 + a1\n  9224: a1 = u64 [s1 + 0xa8]\n  9228: u64 [s1 + 0xe8] = a1\n  9232: a1 = u64 [s1 + 0xb8]\n  9236: u64 [s1 + 0xe0] = a1\n  9240: ra = u64 [s1 + 0xb0]\n  9244: t2 = a0\n  9246: a4 = a3\n  9248: jump @298\n      : @309 (gas: 8)\n  9251: u64 [a3 + 1792] = 0\n  9255: u64 [a3 + 1784] = 0\n  9259: u64 [a3 + 1776] = 0\n  9263: u64 [a3 + 1768] = 0\n  9267: a0 = s1 + 0x1000\n  9271: i32 a0 = a0 + 0x760\n  9275: ecalli 10 // 'value_transferred'\n  9277: fallthrough\n      : @310 (gas: 10)\n  9278: a4 = s1 + 0x1078\n  9282: a5 = a4 + 0x600\n  9286: a0 = u64 [a5 + 0xf8]\n  9290: a1 = u64 [a4 + 0x700]\n  9294: a2 = u64 [a5 + 0xf0]\n  9298: a3 = u64 [a5 + 0xe8]\n  9302: a1 = a1 | a2\n  9305: a0 = a0 | a3\n  9308: a0 = a0 | a1\n  9311: jump @312 if a0 == 0\n      : @311 (gas: 1)\n  9314: jump @687\n      : @312 (gas: 3)\n  9317: a0 = u64 [s1 + 0x38]\n  9320: a1 = i32 [a0]\n  9322: jump @314 if a1 >u 3\n      : @313 (gas: 1)\n  9326: jump @688\n      : @314 (gas: 7)\n  9329: u64 [a4 + 1824] = 0\n  9333: u64 [a4 + 1816] = 0\n  9337: u64 [a4 + 1808] = 0\n  9341: u64 [a4 + 1800] = 0x3\n  9346: a0 = s1 + 0x2a0\n  9350: a1 = s1 + 0x1780\n  9354: ra = 284, jump @21\n      : @315 [@dyn 142] (gas: 34)\n  9360: a1 = s1 + 0x200\n  9364: a2 = u64 [a1 + 0xb0]\n  9368: a3 = u64 [a1 + 0xa8]\n  9372: a5 = u64 [a1 + 0xb8]\n  9376: a0 = u64 [a1 + 0xa0]\n  9380: a4 = a2 << 0x3f\n  9383: a1 = a3 >> 0x1\n  9386: t0 = a1 | a4\n  9389: a1 = a5 << 0x3f\n  9392: u64 [s1 + 0xf0] = a2\n  9396: a2 = a2 >> 0x1\n  9399: a1 = a1 | a2\n  9402: u64 [s1 + 0xe0] = a3\n  9406: a2 = a3 << 0x3f\n  9409: a3 = a0 >> 0x1\n  9412: a4 = a3 | a2\n  9415: u64 [s1 + 0xe8] = a5\n  9419: t1 = a5 >> 0x1\n  9422: u64 [s1 + 0xd0] = a0\n  9426: a5 = a0 & 0x1\n  9429: a3 = -a5\n  9431: t2 = a3 & a1\n  9434: a2 = a3 & t0\n  9437: a3 = a3 & t1\n  9440: a0 = a4 & 0x7f\n  9443: u64 [s1 + 0xd8] = a0\n  9447: a4 = a0 if a5 == 0\n  9450: a0 = a4 <u 0x20\n  9453: a0 = 0 if a2 != 0\n  9455: a1 = t2 | a3\n  9458: a0 = 0 if a1 != 0\n  9460: u64 [s1 + 0xf8] = a5\n  9464: a1 = a5 <u 0x1\n  9467: jump @317 if a1 == a0\n      : @316 (gas: 1)\n  9470: jump @689\n      : @317 (gas: 12)\n  9473: u64 [s1 + 0xb8] = a4\n  9477: a5 = s1 + 0x200\n  9481: u64 [a5 + 0x80] = a4\n  9485: u64 [s1 + 0xa8] = a2\n  9489: u64 [a5 + 0x88] = a2\n  9493: u64 [s1 + 0xb0] = t2\n  9497: u64 [s1 + 0x290] = t2\n  9501: a0 = 0x80\n  9505: a1 = s1 + 0x280\n  9509: u64 [s1 + 0xa0] = a3\n  9513: u64 [a5 + 0x98] = a3\n  9517: ra = 286, jump @19\n      : @318 [@dyn 143] (gas: 2)\n  9523: a0 = u64 [s1 + 0xf8]\n  9527: jump @320 if a0 == 0\n      : @319 (gas: 1)\n  9530: jump @586\n      : @320 (gas: 13)\n  9533: a0 = u64 [s1 + 0xd0]\n  9537: a0 = a0 & 0xffffffffffffff00\n  9541: a1 = u64 [s1 + 0xe0]\n  9545: a2 = s1 + 0x200\n  9549: u64 [a2 + 0x8] = a1\n  9552: u64 [a2] = a0\n  9554: a0 = u64 [s1 + 0xf0]\n  9558: u64 [a2 + 0x10] = a0\n  9561: a0 = u64 [s1 + 0xe8]\n  9565: u64 [a2 + 0x18] = a0\n  9568: a0 = 0xa0\n  9572: a1 = s1 + 0x200\n  9576: ra = 288, jump @19\n      : @321 [@dyn 144] (gas: 7)\n  9582: a1 = 0\n  9584: a0 = 0\n  9586: t0 = 0\n  9588: a3 = 0xc0\n  9592: a2 = u64 [s1 + 0xd8]\n  9596: a3 = 0xa0 if a2 == 0\n  9600: jump @594\n      : @322 (gas: 8)\n  9603: u64 [a2 + 32] = 0\n  9606: u64 [a2 + 24] = 0\n  9609: u64 [a2 + 16] = 0\n  9612: u64 [a2 + 8] = 0\n  9615: a0 = s1 + 0x2000\n  9619: i32 a0 = a0 + 0xfffffffffffff880\n  9623: ecalli 10 // 'value_transferred'\n  9625: fallthrough\n      : @323 (gas: 9)\n  9626: a3 = s1 + 0x1878\n  9630: a0 = u64 [a3 + 0x18]\n  9633: a1 = u64 [a3 + 0x20]\n  9636: a2 = u64 [a3 + 0x10]\n  9639: a3 = u64 [a3 + 0x8]\n  9642: a1 = a1 | a2\n  9645: a0 = a0 | a3\n  9648: a0 = a0 | a1\n  9651: jump @325 if a0 == 0\n      : @324 (gas: 1)\n  9654: jump @695\n      : @325 (gas: 3)\n  9657: a0 = u64 [s1 + 0x38]\n  9660: a0 = i32 [a0]\n  9662: jump @327 if a0 >u 3\n      : @326 (gas: 1)\n  9666: jump @696\n      : @327 (gas: 4)\n  9669: a0 = s1 + 0x7ff\n  9673: a0 = a0 + 0x41\n  9676: a1 = 0x40\n  9679: ra = 290, jump @17\n      : @328 [@dyn 145] (gas: 9)\n  9685: a0 = s1 + 0x1000\n  9689: a3 = u64 [a0 + 0xfffffffffffff858]\n  9693: a0 = s1 + 0x1000\n  9697: a1 = u64 [a0 + 0xfffffffffffff850]\n  9701: a0 = s1 + 0x1000\n  9705: a2 = u64 [a0 + 0xfffffffffffff848]\n  9709: a0 = s1 + 0x1000\n  9713: a0 = u64 [a0 + 0xfffffffffffff840]\n  9717: t0 = 292, jump @970\n      : @329 [@dyn 146] (gas: 1)\n  9723: jump @331 if a1 == 0\n      : @330 (gas: 1)\n  9726: jump @635\n      : @331 (gas: 13)\n  9729: a1 = s1 + 0x1000\n  9733: u64 [a1 + 4294965304] = 0\n  9737: a1 = s1 + 0x1000\n  9741: u64 [a1 + 4294965296] = 0\n  9745: a1 = s1 + 0x1000\n  9749: u64 [a1 + 4294965288] = 0\n  9753: a1 = s1 + 0x7ff\n  9757: a1 = a1 + 0x21\n  9760: a3 = s1 + 0x1000\n  9764: u64 [a3 + 4294965280] = 0x12\n  9769: u64 [s1 + 0xf8] = a0\n  9773: ra = 0x21a\n  9777: jump @19\n      : @332 (gas: 9)\n  9780: a0 = s1 + 0x1878\n  9784: u64 [a0 + 928] = 0\n  9788: u64 [a0 + 920] = 0\n  9792: u64 [a0 + 912] = 0\n  9796: u64 [a0 + 904] = 0\n  9800: a0 = s1 + 0x2000\n  9804: i32 a0 = a0 + 0xfffffffffffffc00\n  9808: ecalli 10 // 'value_transferred'\n  9810: fallthrough\n      : @333 (gas: 10)\n  9811: a3 = s1 + 0x1878\n  9815: a4 = a3 + 0x300\n  9819: a0 = u64 [a4 + 0x98]\n  9823: a1 = u64 [a4 + 0xa0]\n  9827: a2 = u64 [a4 + 0x90]\n  9831: a3 = u64 [a4 + 0x88]\n  9835: a1 = a1 | a2\n  9838: a0 = a0 | a3\n  9841: a0 = a0 | a1\n  9844: jump @335 if a0 == 0\n      : @334 (gas: 1)\n  9847: jump @697\n      : @335 (gas: 3)\n  9850: a0 = u64 [s1 + 0x38]\n  9853: a0 = i32 [a0]\n  9855: jump @337 if a0 >u 3\n      : @336 (gas: 1)\n  9859: jump @698\n      : @337 (gas: 3)\n  9862: a0 = s1 + 0x1440\n  9866: a1 = 0x40\n  9869: ra = 294, jump @17\n      : @338 [@dyn 147] (gas: 18)\n  9875: a1 = s1 + 0x1078\n  9879: a2 = a1 + 0x300\n  9883: a0 = u64 [a2 + 0xe0]\n  9887: u64 [s1 + 0x58] = a0\n  9890: a0 = u64 [a2 + 0xd8]\n  9894: u64 [s1 + 0x60] = a0\n  9897: a0 = u64 [a2 + 0xd0]\n  9901: u64 [s1 + 0x68] = a0\n  9904: a0 = u64 [a2 + 0xc8]\n  9908: u64 [s1 + 0x70] = a0\n  9911: a1 = s1 + 0x1878\n  9915: u64 [a1 + 960] = 0\n  9919: u64 [a1 + 952] = 0\n  9923: u64 [a1 + 944] = 0\n  9927: u64 [a1 + 936] = 0x4\n  9932: a0 = s1 + 0x1420\n  9936: a1 = s1 + 0x1c20\n  9940: ra = 296, jump @21\n      : @339 [@dyn 148] (gas: 35)\n  9946: a0 = s1 + 0x1078\n  9950: t2 = u64 [a0 + 0x3b8]\n  9954: ra = u64 [a0 + 0x3b0]\n  9958: t1 = u64 [a0 + 0x3c0]\n  9962: a4 = u64 [a0 + 0x3a8]\n  9966: a0 = t2 << 0x3f\n  9969: a1 = ra >> 0x1\n  9972: a0 = a0 | a1\n  9975: a1 = t1 << 0x3f\n  9978: a2 = t2 >> 0x1\n  9981: a1 = a1 | a2\n  9984: a2 = ra << 0x3f\n  9987: a3 = a4 >> 0x1\n  9990: a5 = a3 | a2\n  9993: a2 = t1 >> 0x1\n  9996: u64 [s1 + 0xe8] = a4\n 10000: a4 = a4 & 0x1\n 10003: a3 = -a4\n 10005: a1 = a1 & a3\n 10008: t0 = a3 & a0\n 10011: a2 = a2 & a3\n 10014: a0 = a5 & 0x7f\n 10017: u64 [s1 + 0xf0] = a0\n 10021: a5 = a0 if a4 == 0\n 10024: u64 [s1 + 0xb8] = a5\n 10028: a0 = a5 <u 0x20\n 10031: u64 [s1 + 0xa8] = t0\n 10035: a0 = 0 if t0 != 0\n 10037: u64 [s1 + 0xb0] = a1\n 10041: u64 [s1 + 0xa0] = a2\n 10045: a1 = a1 | a2\n 10048: a0 = 0 if a1 != 0\n 10050: u64 [s1 + 0xf8] = a4\n 10054: a1 = a4 <u 0x1\n 10057: jump @341 if a1 == a0\n      : @340 (gas: 1)\n 10060: jump @699\n      : @341 (gas: 12)\n 10063: a2 = u64 [s1 + 0x60]\n 10066: a3 = u64 [s1 + 0x70]\n 10069: a0 = a3 | a2\n 10072: a1 = u64 [s1 + 0x68]\n 10075: a4 = u64 [s1 + 0x58]\n 10078: a1 = a1 | a4\n 10081: a0 = a0 | a1\n 10084: a0 = a0 >> 0x20\n 10087: a1 = a1 | a2\n 10090: a1 = a1 << 0x20\n 10093: a1 = a1 | a0\n 10096: jump @343 if a1 == 0\n      : @342 (gas: 1)\n 10099: jump @635\n      : @343 (gas: 16)\n 10102: a0 = a3\n 10104: u64 [s1 + 0xd0] = ra\n 10108: u64 [s1 + 0xd8] = t2\n 10112: u64 [s1 + 0xe0] = t1\n 10116: a1 = u64 [s1 + 0xb8]\n 10120: a3 = s1 + 0x1078\n 10124: a4 = a3 + 0x300\n 10128: u64 [a4 + 0x88] = a1\n 10132: a1 = u64 [s1 + 0xa8]\n 10136: u64 [a4 + 0x90] = a1\n 10140: a1 = u64 [s1 + 0xb0]\n 10144: u64 [a4 + 0x98] = a1\n 10148: a1 = s1 + 0x1400\n 10152: a2 = u64 [s1 + 0xa0]\n 10156: u64 [a4 + 0xa0] = a2\n 10160: ra = 298, jump @19\n      : @344 [@dyn 149] (gas: 2)\n 10166: a0 = u64 [s1 + 0xf8]\n 10170: jump @346 if a0 == 0\n      : @345 (gas: 1)\n 10173: jump @600\n      : @346 (gas: 10)\n 10176: a0 = u64 [s1 + 0x60]\n 10179: a1 = u64 [s1 + 0x58]\n 10182: a0 = a0 | a1\n 10185: a1 = 0xffffffe0\n 10195: a3 = u64 [s1 + 0x70]\n 10198: a1 = a3 <u a1\n 10201: a2 = u64 [s1 + 0x68]\n 10204: a1 = 0 if a2 != 0\n 10206: a1 = 0 if a0 != 0\n 10208: jump @348 if a1 != 0\n      : @347 (gas: 1)\n 10211: jump @635\n      : @348 (gas: 14)\n 10214: a0 = u64 [s1 + 0xe8]\n 10218: a1 = a0 & 0xffffffffffffff00\n 10222: i32 a0 = a3 + 0x20\n 10225: a2 = s1 + 0x1078\n 10229: a3 = u64 [s1 + 0xd0]\n 10233: a4 = a2 + 0x300\n 10237: u64 [a4 + 0x10] = a3\n 10240: u64 [a4 + 0x8] = a1\n 10243: a1 = u64 [s1 + 0xd8]\n 10247: u64 [a4 + 0x18] = a1\n 10250: a1 = s1 + 0x1380\n 10254: a3 = u64 [s1 + 0xe0]\n 10258: u64 [a4 + 0x20] = a3\n 10261: ra = 300, jump @19\n      : @349 [@dyn 150] (gas: 9)\n 10267: a5 = u64 [s1 + 0x70]\n 10270: t2 = 0\n 10272: t1 = 0\n 10274: t0 = 0\n 10276: a0 = u64 [s1 + 0xf0]\n 10280: a0 = a0 >u 0\n 10282: a0 = a0 << 0x5\n 10285: u64 [s1 + 0xf8] = a0\n 10289: jump @628\n      : @350 (gas: 8)\n 10292: u64 [a3 + 1920] = 0\n 10296: u64 [a3 + 1912] = 0\n 10300: u64 [a3 + 1904] = 0\n 10304: u64 [a3 + 1896] = 0\n 10308: a0 = s1 + 0x1000\n 10312: i32 a0 = a0 + 0x7e0\n 10316: ecalli 10 // 'value_transferred'\n 10318: fallthrough\n      : @351 (gas: 10)\n 10319: a4 = s1 + 0x1078\n 10323: a5 = a4 + 0x700\n 10327: a0 = u64 [a5 + 0x78]\n 10330: a1 = u64 [a5 + 0x80]\n 10334: a2 = u64 [a5 + 0x70]\n 10337: a3 = u64 [a5 + 0x68]\n 10340: a1 = a1 | a2\n 10343: a0 = a0 | a3\n 10346: a0 = a0 | a1\n 10349: jump @353 if a0 == 0\n      : @352 (gas: 1)\n 10352: jump @706\n      : @353 (gas: 3)\n 10355: a0 = u64 [s1 + 0x38]\n 10358: a0 = i32 [a0]\n 10360: jump @355 if a0 >u 3\n      : @354 (gas: 1)\n 10364: jump @707\n      : @355 (gas: 7)\n 10367: u64 [a4 + 1952] = 0\n 10371: u64 [a4 + 1944] = 0\n 10375: u64 [a4 + 1936] = 0\n 10379: u64 [a4 + 1928] = 0x2\n 10384: a0 = s1 + 0x500\n 10388: a1 = s1 + 0x1800\n 10392: ra = 302, jump @21\n      : @356 [@dyn 151] (gas: 12)\n 10398: a1 = s1 + 0x500\n 10402: a0 = u64 [a1 + 0x18]\n 10405: u64 [s1 + 0xf8] = a0\n 10409: a0 = u64 [a1 + 0x10]\n 10412: u64 [s1 + 0xf0] = a0\n 10416: a0 = u64 [a1 + 0x8]\n 10419: u64 [s1 + 0xe8] = a0\n 10423: a0 = u64 [a1]\n 10425: u64 [s1 + 0xe0] = a0\n 10429: a0 = s1 + 0x4e0\n 10433: a1 = 0x40\n 10436: ra = 304, jump @17\n      : @357 [@dyn 152] (gas: 13)\n 10442: a4 = s1 + 0x400\n 10446: a0 = u64 [a4 + 0xf8]\n 10450: a1 = u64 [a4 + 0xf0]\n 10454: a2 = u64 [a4 + 0xe8]\n 10458: a3 = u64 [a4 + 0xe0]\n 10462: a0 = a0 | a2\n 10465: a2 = a3 | a1\n 10468: a2 = a2 | a0\n 10471: a2 = a2 >> 0x20\n 10474: a0 = a0 | a1\n 10477: a0 = a0 << 0x20\n 10480: a0 = a0 | a2\n 10483: jump @359 if a0 == 0\n      : @358 (gas: 1)\n 10486: jump @635\n      : @359 (gas: 14)\n 10489: a0 = u64 [s1 + 0xe0]\n 10493: a2 = s1 + 0x400\n 10497: u64 [a2 + 0xc0] = a0\n 10501: a0 = u64 [s1 + 0xe8]\n 10505: u64 [a2 + 0xc8] = a0\n 10509: a0 = u64 [s1 + 0xf0]\n 10513: u64 [a2 + 0xd0] = a0\n 10517: a1 = s1 + 0x4c0\n 10521: a0 = u64 [s1 + 0xf8]\n 10525: u64 [a2 + 0xd8] = a0\n 10529: a0 = a3\n 10531: u64 [s1 + 0xf8] = a3\n 10535: ra = 0x21a\n 10539: jump @19\n      : @360 (gas: 8)\n 10542: u64 [a2 + 128] = 0\n 10546: u64 [a2 + 120] = 0\n 10549: u64 [a2 + 112] = 0\n 10552: u64 [a2 + 104] = 0\n 10555: a0 = s1 + 0x2000\n 10559: i32 a0 = a0 + 0xfffffffffffff8e0\n 10563: ecalli 10 // 'value_transferred'\n 10565: fallthrough\n      : @361 (gas: 9)\n 10566: a3 = s1 + 0x1878\n 10570: a0 = u64 [a3 + 0x78]\n 10573: a1 = u64 [a3 + 0x80]\n 10577: a2 = u64 [a3 + 0x70]\n 10580: a3 = u64 [a3 + 0x68]\n 10583: a1 = a1 | a2\n 10586: a0 = a0 | a3\n 10589: a0 = a0 | a1\n 10592: jump @363 if a0 == 0\n      : @362 (gas: 1)\n 10595: jump @708\n      : @363 (gas: 3)\n 10598: a0 = u64 [s1 + 0x38]\n 10601: a0 = i32 [a0]\n 10603: jump @365 if a0 >u 35\n      : @364 (gas: 1)\n 10607: jump @709\n      : @365 (gas: 22)\n 10610: a0 = s1 + 0x2000\n 10614: i32 a0 = a0 + 0xfffffffffffff900\n 10618: a1 = 0x4\n 10621: ecalli 1 // 'call_data_load'\n 10623: a0 = s1 + 0x1878\n 10627: a1 = u64 [a0 + 0xa0]\n 10631: u64 [s1 + 0xf8] = a1\n 10635: a1 = u64 [a0 + 0x98]\n 10639: u64 [s1 + 0xe8] = a1\n 10643: a1 = u64 [a0 + 0x90]\n 10647: u64 [s1 + 0xe0] = a1\n 10651: a0 = u64 [a0 + 0x88]\n 10655: u64 [s1 + 0xf0] = a0\n 10659: a0 = 0x301a0\n 10664: u64 [s1 + 0xd8] = a0\n 10668: i32 a0 = a0 + 0\n 10670: u64 [s1 + 0xd0] = a0\n 10674: ra = 0x132\n 10678: ecalli 3 // 'caller'\n 10680: a2 = u64 [s1 + 0xd8]\n 10684: t0 = 0x134\n 10688: jump @991\n      : @366 [@dyn 153] (gas: 2)\n 10691: a2 = u64 [s1 + 0xd8]\n 10695: t0 = 308, jump @991\n      : @367 [@dyn 154] (gas: 1)\n 10701: jump @369 if a0 != 0\n      : @368 (gas: 1)\n 10704: jump @710\n      : @369 (gas: 5)\n 10707: a0 = u64 [s1 + 0xd0]\n 10711: ra = 0x136\n 10715: ecalli 3 // 'caller'\n 10717: t0 = 0x138\n 10721: jump @965\n      : @370 [@dyn 155] (gas: 1)\n 10724: t0 = 312, jump @965\n      : @371 [@dyn 156] (gas: 9)\n 10730: u64 [a2 + 608] = 0\n 10734: a4 = a2 + 0x200\n 10738: u64 [a4 + 0x58] = a1\n 10741: u64 [a4 + 0x50] = a0\n 10744: a1 = s1 + 0x7ff\n 10748: a1 = a1 + 0x2c1\n 10752: u64 [a4 + 0x48] = a3\n 10755: a0 = 0\n 10757: ra = 314, jump @19\n      : @372 [@dyn 157] (gas: 11)\n 10763: a0 = s1 + 0x7ff\n 10767: a0 = a0 + 0x79\n 10770: u64 [a0 + 576] = 0\n 10774: u64 [a0 + 568] = 0\n 10778: u64 [a0 + 560] = 0\n 10782: a2 = a0\n 10784: a0 = 0x20\n 10787: a1 = s1 + 0x7ff\n 10791: a1 = a1 + 0x2a1\n 10795: u64 [a2 + 552] = 0\n 10799: ra = 316, jump @19\n      : @373 [@dyn 158] (gas: 3)\n 10805: a2 = 0x20194\n 10810: a0 = i32 [0x20194]\n 10815: jump @375 if a0 >u 63\n      : @374 (gas: 2)\n 10819: u32 [0x20194] = 0x40\n 10825: fallthrough\n      : @375 (gas: 15)\n 10826: u64 [s1 + 0xc0] = a2\n 10830: a0 = sp + 0xffffffffffffffe0\n 10833: a2 = a0 & 0xffffffffffffffe0\n 10836: u64 [s1 + 0xb8] = a2\n 10840: sp = a2\n 10842: a0 = 0x201a0\n 10847: i32 a0 = a0 + 0\n 10849: i32 a2 = a2 + 0\n 10851: a1 = 0x40\n 10854: u64 [s1 + 0xc8] = a0\n 10858: ra = 0x13e\n 10862: ecalli 6 // 'hash_keccak_256'\n 10864: a3 = u64 [s1 + 0xb8]\n 10868: t0 = 0x140\n 10872: jump @968\n      : @376 [@dyn 159] (gas: 2)\n 10875: a3 = u64 [s1 + 0xb8]\n 10879: t0 = 320, jump @968\n      : @377 [@dyn 160] (gas: 8)\n 10885: u64 [a4 + 0xc0] = a3\n 10889: u64 [a4 + 0xb8] = a2\n 10893: u64 [a4 + 0xb0] = a1\n 10897: u64 [a4 + 0xa8] = a0\n 10901: a0 = s1 + 0x7ff\n 10905: a0 = a0 + 0x281\n 10909: a1 = s1 + 0x1920\n 10913: ra = 322, jump @21\n      : @378 [@dyn 161] (gas: 30)\n 10919: a0 = s1 + 0x7ff\n 10923: a0 = a0 + 0x79\n 10926: a1 = a0 + 0x200\n 10930: a2 = u64 [a1 + 0x20]\n 10933: a4 = u64 [a1 + 0x18]\n 10936: a5 = u64 [a1 + 0x10]\n 10939: a0 = u64 [a1 + 0x8]\n 10942: a1 = u64 [s1 + 0xf8]\n 10946: t1 = a2 ^ a1\n 10949: u64 [s1 + 0xa8] = a2\n 10953: a1 = a2 <u a1\n 10956: a2 = u64 [s1 + 0xe8]\n 10960: a3 = a4 <u a2\n 10963: u64 [s1 + 0x90] = a3\n 10967: a1 = a3 if t1 == 0\n 10970: a3 = u64 [s1 + 0xe0]\n 10974: t0 = a5 ^ a3\n 10977: u64 [s1 + 0xb0] = a5\n 10981: a5 = a5 <u a3\n 10984: a3 = u64 [s1 + 0xf0]\n 10988: u64 [s1 + 0xb8] = a0\n 10992: a0 = a0 <u a3\n 10995: u64 [s1 + 0x98] = a0\n 10999: a5 = a0 if t0 == 0\n 11002: u64 [s1 + 0xa0] = a4\n 11006: a2 = a2 ^ a4\n 11009: a0 = a2 | t1\n 11012: u64 [s1 + 0x88] = a5\n 11016: a1 = a5 if a0 == 0\n 11019: jump @380 if a1 == 0\n      : @379 (gas: 1)\n 11022: jump @715\n      : @380 (gas: 5)\n 11025: a0 = u64 [s1 + 0xd0]\n 11029: ra = 0x144\n 11033: ecalli 3 // 'caller'\n 11035: t0 = 0x146\n 11039: jump @965\n      : @381 [@dyn 162] (gas: 1)\n 11042: t0 = 326, jump @965\n      : @382 [@dyn 163] (gas: 9)\n 11048: u64 [a2 + 512] = 0\n 11052: a4 = a2 + 0x100\n 11056: u64 [a4 + 0xf8] = a1\n 11060: u64 [a4 + 0xf0] = a0\n 11064: a1 = s1 + 0x7ff\n 11068: a1 = a1 + 0x261\n 11072: u64 [a4 + 0xe8] = a3\n 11076: a0 = 0\n 11078: ra = 328, jump @19\n      : @383 [@dyn 164] (gas: 11)\n 11084: a0 = s1 + 0x7ff\n 11088: a0 = a0 + 0x79\n 11091: u64 [a0 + 480] = 0\n 11095: u64 [a0 + 472] = 0\n 11099: u64 [a0 + 464] = 0\n 11103: a2 = a0\n 11105: a0 = 0x20\n 11108: a1 = s1 + 0x7ff\n 11112: a1 = a1 + 0x241\n 11116: u64 [a2 + 456] = 0\n 11120: ra = 330, jump @19\n      : @384 [@dyn 165] (gas: 27)\n 11126: a0 = u64 [s1 + 0xe8]\n 11130: a1 = u64 [s1 + 0xa0]\n 11134: a0 = a1 - a0\n 11137: a1 = u64 [s1 + 0x88]\n 11141: a2 = a0 - a1\n 11144: u64 [s1 + 0xa0] = a2\n 11148: a0 = a0 <u a1\n 11151: a1 = u64 [s1 + 0xf8]\n 11155: a2 = u64 [s1 + 0xa8]\n 11159: a1 = a2 - a1\n 11162: a2 = u64 [s1 + 0x90]\n 11166: a1 = a1 - a2\n 11169: a1 = a1 - a0\n 11172: u64 [s1 + 0xa8] = a1\n 11176: a2 = u64 [s1 + 0xc0]\n 11180: a0 = i32 [a2]\n 11182: a1 = u64 [s1 + 0xe0]\n 11186: a3 = u64 [s1 + 0xb0]\n 11190: a1 = a3 - a1\n 11193: a3 = u64 [s1 + 0x98]\n 11197: a1 = a1 - a3\n 11200: u64 [s1 + 0xb0] = a1\n 11204: a3 = u64 [s1 + 0xf0]\n 11208: a4 = u64 [s1 + 0xb8]\n 11212: a4 = a4 - a3\n 11215: u64 [s1 + 0xb8] = a4\n 11219: jump @386 if a0 >u 63\n      : @385 (gas: 2)\n 11223: u32 [a2 + 0] = 0x40\n 11226: fallthrough\n      : @386 (gas: 12)\n 11227: a0 = sp + 0xffffffffffffffe0\n 11230: a0 = a0 & 0xffffffffffffffe0\n 11233: u64 [s1 + 0xc0] = a0\n 11237: sp = a0\n 11239: i32 a2 = a0 + 0\n 11241: a1 = 0x40\n 11244: a0 = u64 [s1 + 0xc8]\n 11248: ra = 0x14c\n 11252: ecalli 6 // 'hash_keccak_256'\n 11254: a3 = u64 [s1 + 0xc0]\n 11258: t0 = 0x14e\n 11262: jump @968\n      : @387 [@dyn 166] (gas: 2)\n 11265: a3 = u64 [s1 + 0xc0]\n 11269: t0 = 334, jump @968\n      : @388 [@dyn 167] (gas: 15)\n 11275: u64 [a4 + 0xe0] = a3\n 11279: u64 [a4 + 0xd8] = a2\n 11283: u64 [a4 + 0xd0] = a1\n 11287: u64 [a4 + 0xc8] = a0\n 11291: a0 = u64 [s1 + 0xa8]\n 11295: u64 [a4 + 0x100] = a0\n 11299: a0 = u64 [s1 + 0xa0]\n 11303: u64 [a4 + 0xf8] = a0\n 11307: a0 = u64 [s1 + 0xb0]\n 11311: u64 [a4 + 0xf0] = a0\n 11315: a0 = u64 [s1 + 0xb8]\n 11319: u64 [a4 + 0xe8] = a0\n 11323: a0 = s1 + 0x1940\n 11327: a1 = s1 + 0x1960\n 11331: ra = 336, jump @22\n      : @389 [@dyn 168] (gas: 9)\n 11337: a0 = s1 + 0x1878\n 11341: u64 [a0 + 288] = 0\n 11345: u64 [a0 + 280] = 0\n 11349: u64 [a0 + 272] = 0\n 11353: u64 [a0 + 264] = 0x2\n 11358: a0 = s1 + 0x7ff\n 11362: a0 = a0 + 0x221\n 11366: a1 = s1 + 0x1980\n 11370: ra = 338, jump @21\n      : @390 [@dyn 169] (gas: 37)\n 11376: a0 = s1 + 0x7ff\n 11380: a0 = a0 + 0x79\n 11383: a1 = u64 [a0 + 0x1b0]\n 11387: t0 = u64 [a0 + 0x1c0]\n 11391: t1 = u64 [a0 + 0x1a8]\n 11395: a3 = u64 [a0 + 0x1b8]\n 11399: a4 = u64 [s1 + 0xe0]\n 11403: a0 = a1 ^ a4\n 11406: a5 = a1 <u a4\n 11409: ra = u64 [s1 + 0xf0]\n 11413: t2 = t1 <u ra\n 11416: a5 = t2 if a0 == 0\n 11419: a0 = u64 [s1 + 0xe8]\n 11423: a2 = a3 - a0\n 11426: a3 = a3 <u a0\n 11429: a0 = u64 [s1 + 0xf8]\n 11433: a0 = t0 - a0\n 11436: a0 = a0 - a3\n 11439: a3 = a2 <u a5\n 11442: a0 = a0 - a3\n 11445: a3 = a2 - a5\n 11448: a1 = a1 - a4\n 11451: a1 = a1 - t2\n 11454: a4 = s1 + 0x1878\n 11458: a5 = a4 + 0x100\n 11462: u64 [a5 + 40] = 0x2\n 11466: a2 = t1 - ra\n 11469: u64 [a5 + 0x48] = a2\n 11472: u64 [a5 + 0x50] = a1\n 11475: u64 [a5 + 0x58] = a3\n 11478: u64 [a5 + 0x60] = a0\n 11481: u64 [a4 + 320] = 0\n 11485: u64 [a4 + 312] = 0\n 11489: u64 [a4 + 304] = 0\n 11493: a0 = s1 + 0x19a0\n 11497: a1 = s1 + 0x19c0\n 11501: ra = 340, jump @22\n      : @391 [@dyn 170] (gas: 4)\n 11507: a0 = s1 + 0x7ff\n 11511: a0 = a0 + 0x201\n 11515: a1 = 0x40\n 11518: ra = 342, jump @17\n      : @392 [@dyn 171] (gas: 8)\n 11524: a3 = s1 + 0x7ff\n 11528: a3 = a3 + 0x79\n 11531: a5 = a3 + 0x100\n 11535: a4 = u64 [a5 + 0xa0]\n 11539: a1 = u64 [a5 + 0x98]\n 11543: a2 = u64 [a5 + 0x90]\n 11547: a0 = u64 [a5 + 0x88]\n 11551: t0 = 344, jump @986\n      : @393 [@dyn 172] (gas: 1)\n 11557: jump @395 if a1 == 0\n      : @394 (gas: 1)\n 11560: jump @635\n      : @395 (gas: 13)\n 11563: a1 = u64 [s1 + 0xf0]\n 11567: a4 = a3 + 0x100\n 11571: u64 [a4 + 0x68] = a1\n 11574: a1 = u64 [s1 + 0xe0]\n 11578: u64 [a4 + 0x70] = a1\n 11581: a1 = u64 [s1 + 0xe8]\n 11585: u64 [a4 + 0x78] = a1\n 11588: a1 = s1 + 0x7ff\n 11592: a1 = a1 + 0x1e1\n 11596: a2 = u64 [s1 + 0xf8]\n 11600: u64 [a4 + 0x80] = a2\n 11604: u64 [s1 + 0xf8] = a0\n 11608: ra = 346, jump @19\n      : @396 [@dyn 173] (gas: 6)\n 11614: a0 = u64 [s1 + 0xd0]\n 11618: ra = 0x15c\n 11622: ecalli 3 // 'caller'\n 11624: a2 = u64 [s1 + 0xd8]\n 11628: t0 = 0x15e\n 11632: jump @971\n      : @397 [@dyn 174] (gas: 2)\n 11635: a2 = u64 [s1 + 0xd8]\n 11639: t0 = 350, jump @971\n      : @398 [@dyn 175] (gas: 34)\n 11645: t0 = a1 | a0\n 11648: a3 = a3 >> 0x20\n 11651: a2 = reverse a2\n 11653: a1 = a2 << 0x20\n 11656: a1 = a1 | a3\n 11659: a2 = a2 >> 0x20\n 11662: a3 = u64 [0x200f0]\n 11667: a4 = u64 [0x200f8]\n 11672: a5 = u64 [0x20100]\n 11677: a0 = s1 + 0x7ff\n 11681: a0 = a0 + 0x79\n 11684: u64 [a0 + 0x160] = a3\n 11688: u64 [a0 + 0x158] = a4\n 11692: u64 [a0 + 288] = 0\n 11696: a4 = a0 + 0x100\n 11700: u64 [a4 + 0x50] = a5\n 11703: a3 = u64 [0x20108]\n 11708: u64 [a0 + 280] = 0\n 11712: u64 [a0 + 272] = 0\n 11716: u64 [a0 + 264] = 0\n 11720: u64 [a4 + 0x48] = a3\n 11723: u64 [a4 + 0x38] = a2\n 11726: u64 [a4 + 0x30] = a1\n 11729: u64 [a0 + 0x128] = t0\n 11733: a1 = 0x20\n 11736: a2 = s1 + 0x7ff\n 11740: a2 = a2 + 0x1c1\n 11744: a3 = s1 + 0x7ff\n 11748: a3 = a3 + 0x1a1\n 11752: a4 = s1 + 0x7ff\n 11756: a4 = a4 + 0x181\n 11760: u64 [a0 + 320] = 0\n 11764: a0 = u64 [s1 + 0xf8]\n 11768: ra = 352, jump @23\n      : @399 [@dyn 176] (gas: 5)\n 11774: a0 = 0\n 11776: a1 = u64 [s1 + 0xc8]\n 11780: a2 = 0\n 11782: ecalli 7 // 'seal_return'\n 11784: jump @682\n      : @400 (gas: 8)\n 11787: u64 [a2 + 384] = 0\n 11791: u64 [a2 + 376] = 0\n 11795: u64 [a2 + 368] = 0\n 11799: u64 [a2 + 360] = 0\n 11803: a0 = s1 + 0x2000\n 11807: i32 a0 = a0 + 0xfffffffffffff9e0\n 11811: ecalli 10 // 'value_transferred'\n 11813: fallthrough\n      : @401 (gas: 10)\n 11814: a3 = s1 + 0x1878\n 11818: a4 = a3 + 0x100\n 11822: a0 = u64 [a4 + 0x78]\n 11825: a1 = u64 [a4 + 0x80]\n 11829: a2 = u64 [a4 + 0x70]\n 11832: a3 = u64 [a4 + 0x68]\n 11835: a1 = a1 | a2\n 11838: a0 = a0 | a3\n 11841: a0 = a0 | a1\n 11844: jump @403 if a0 == 0\n      : @402 (gas: 1)\n 11847: jump @724\n      : @403 (gas: 3)\n 11850: a0 = u64 [s1 + 0x38]\n 11853: a0 = i32 [a0]\n 11855: jump @405 if a0 >u 35\n      : @404 (gas: 1)\n 11859: jump @725\n      : @405 (gas: 5)\n 11862: a0 = s1 + 0x2000\n 11866: i32 a0 = a0 + 0xfffffffffffffa00\n 11870: a1 = 0x4\n 11873: ecalli 1 // 'call_data_load'\n 11875: fallthrough\n      : @406 (gas: 14)\n 11876: a1 = s1 + 0x1878\n 11880: t0 = u64 [a1 + 0x188]\n 11884: a0 = u64 [0x200c8]\n 11889: a2 = a1 + 0x100\n 11893: a4 = u64 [a2 + 0x90]\n 11897: a3 = u64 [a2 + 0xa0]\n 11901: a5 = u64 [a2 + 0x98]\n 11905: a0 = t0 <u a0\n 11908: a1 = a4 + 0xffffffffffffffca\n 11911: a2 = a4 <u 0x36\n 11914: a2 = a0 if a1 == 0\n 11917: a0 = a5 | a3\n 11920: a2 = 0 if a0 != 0\n 11922: jump @408 if a2 == 0\n      : @407 (gas: 1)\n 11925: jump @726\n      : @408 (gas: 4)\n 11928: a0 = s1 + 0x7ff\n 11932: a0 = a0 + 0x361\n 11936: a1 = 0x40\n 11939: ra = 354, jump @17\n      : @409 [@dyn 177] (gas: 15)\n 11945: a2 = s1 + 0x7ff\n 11949: a2 = a2 + 0x79\n 11952: t0 = u64 [a2 + 0x300]\n 11956: a1 = a2 + 0x200\n 11960: a5 = u64 [a1 + 0xf8]\n 11964: a4 = u64 [a1 + 0xf0]\n 11968: a0 = u64 [a1 + 0xe8]\n 11972: a3 = a4 | t0\n 11975: a1 = a0 | a5\n 11978: a1 = a1 | a3\n 11981: a1 = a1 >> 0x20\n 11984: a3 = a3 | a5\n 11987: a3 = a3 << 0x20\n 11990: a1 = a1 | a3\n 11993: jump @411 if a1 == 0\n      : @410 (gas: 1)\n 11996: jump @635\n      : @411 (gas: 12)\n 11999: u64 [a2 + 728] = 0\n 12003: u64 [a2 + 720] = 0\n 12007: u64 [a2 + 712] = 0\n 12011: a3 = 0x8c379a000000000\n 12021: a1 = s1 + 0x7ff\n 12025: a1 = a1 + 0x341\n 12029: u64 [a2 + 0x2e0] = a3\n 12033: u64 [s1 + 0xf8] = a0\n 12037: u64 [s1 + 0xf0] = a4\n 12041: u64 [s1 + 0xe0] = t0\n 12045: u64 [s1 + 0xe8] = a5\n 12049: ra = 356, jump @19\n      : @412 [@dyn 178] (gas: 1)\n 12055: t0 = 358, jump @978\n      : @413 [@dyn 179] (gas: 1)\n 12061: jump @415 if a0 != 0\n      : @414 (gas: 1)\n 12064: jump @635\n      : @415 (gas: 13)\n 12067: i32 a0 = a1 + 0x4\n 12070: a2 = s1 + 0x7ff\n 12074: a2 = a2 + 0x79\n 12077: u64 [a2 + 704] = 0\n 12081: u64 [a2 + 696] = 0\n 12085: u64 [a2 + 688] = 0\n 12089: a5 = 0x20\n 12092: a1 = s1 + 0x7ff\n 12096: a1 = a1 + 0x321\n 12100: u64 [a2 + 0x2a8] = a5\n 12104: u64 [s1 + 0xe8] = a3\n 12108: u64 [s1 + 0xe0] = a4\n 12112: ra = 360, jump @19\n      : @416 [@dyn 180] (gas: 9)\n 12118: a4 = u64 [s1 + 0xe8]\n 12122: a3 = u64 [s1 + 0xf0]\n 12126: a1 = u64 [s1 + 0xf8]\n 12130: a0 = u64 [s1 + 0xe0]\n 12134: a0 = a0 + 0xffffffffffffffdc\n 12137: a0 = a1 <u a0\n 12140: a0 = 0 if a3 != 0\n 12142: a0 = 0 if a4 != 0\n 12144: jump @418 if a0 != 0\n      : @417 (gas: 1)\n 12147: jump @635\n      : @418 (gas: 10)\n 12150: i32 a0 = a1 + 0x24\n 12153: a2 = s1 + 0x7ff\n 12157: a2 = a2 + 0x79\n 12160: u64 [a2 + 672] = 0\n 12164: u64 [a2 + 664] = 0\n 12168: u64 [a2 + 648] = 0x20\n 12173: a1 = s1 + 0x7ff\n 12177: a1 = a1 + 0x301\n 12181: u64 [a2 + 656] = 0\n 12185: ra = 362, jump @19\n      : @419 [@dyn 181] (gas: 1)\n 12191: t0 = 364, jump @983\n      : @420 [@dyn 182] (gas: 1)\n 12197: jump @422 if a0 != 0\n      : @421 (gas: 1)\n 12200: jump @635\n      : @422 (gas: 16)\n 12203: i32 a0 = a3 + 0x44\n 12206: a1 = u64 [0x200d0]\n 12211: a4 = s1 + 0x7ff\n 12215: a4 = a4 + 0x79\n 12218: a5 = a4 + 0x200\n 12222: u64 [a5 + 0x80] = a1\n 12226: a1 = u64 [0x200d8]\n 12231: a2 = u64 [0x200e0]\n 12236: a3 = u64 [0x200e8]\n 12241: u64 [a5 + 0x78] = a1\n 12244: u64 [a5 + 0x70] = a2\n 12247: a1 = s1 + 0x7ff\n 12251: a1 = a1 + 0x2e1\n 12255: u64 [a5 + 0x68] = a3\n 12258: ra = 0x276\n 12262: jump @19\n      : @423 (gas: 9)\n 12265: a0 = s1 + 0x1878\n 12269: u64 [a0 + 864] = 0\n 12273: u64 [a0 + 856] = 0\n 12277: u64 [a0 + 848] = 0\n 12281: u64 [a0 + 840] = 0\n 12285: a0 = s1 + 0x2000\n 12289: i32 a0 = a0 + 0xfffffffffffffbc0\n 12293: ecalli 10 // 'value_transferred'\n 12295: fallthrough\n      : @424 (gas: 10)\n 12296: a4 = s1 + 0x1878\n 12300: a5 = a4 + 0x300\n 12304: a0 = u64 [a5 + 0x58]\n 12307: a1 = u64 [a5 + 0x60]\n 12310: a2 = u64 [a5 + 0x50]\n 12313: a3 = u64 [a5 + 0x48]\n 12316: a1 = a1 | a2\n 12319: a0 = a0 | a3\n 12322: a0 = a0 | a1\n 12325: jump @426 if a0 == 0\n      : @425 (gas: 1)\n 12328: jump @730\n      : @426 (gas: 3)\n 12331: a0 = u64 [s1 + 0x38]\n 12334: a0 = i32 [a0]\n 12336: jump @428 if a0 >u 3\n      : @427 (gas: 1)\n 12340: jump @731\n      : @428 (gas: 7)\n 12343: u64 [a4 + 896] = 0\n 12347: u64 [a4 + 888] = 0\n 12351: u64 [a4 + 880] = 0\n 12355: u64 [a4 + 872] = 0x5\n 12360: a0 = s1 + 0x1260\n 12364: a1 = s1 + 0x1be0\n 12368: ra = 366, jump @21\n      : @429 [@dyn 183] (gas: 3)\n 12374: t0 = 0x170\n 12378: a1 = s1 + 0x1078\n 12382: fallthrough\n      : @430 [@dyn 184] (gas: 10)\n 12383: a2 = a1 + 0x100\n 12387: a0 = u64 [a2 + 0xf8]\n 12391: u64 [s1 + 0xe8] = a0\n 12395: a0 = u64 [a2 + 0xf0]\n 12399: u64 [s1 + 0xf8] = a0\n 12403: a0 = u64 [a2 + 0xe8]\n 12407: u64 [s1 + 0xf0] = a0\n 12411: a0 = s1 + 0x1240\n 12415: a1 = 0x40\n 12418: ra = 370, jump @17\n      : @431 [@dyn 185] (gas: 7)\n 12424: a3 = s1 + 0x1078\n 12428: a5 = a3 + 0x100\n 12432: a4 = u64 [a5 + 0xe0]\n 12436: a1 = u64 [a5 + 0xd8]\n 12440: a2 = u64 [a5 + 0xd0]\n 12444: a0 = u64 [a5 + 0xc8]\n 12448: t0 = 372, jump @986\n      : @432 [@dyn 186] (gas: 1)\n 12454: jump @434 if a1 == 0\n      : @433 (gas: 1)\n 12457: jump @635\n      : @434 (gas: 14)\n 12460: a1 = u64 [s1 + 0xe8]\n 12464: a1 = a1 << 0x20\n 12467: a2 = a1 >> 0x20\n 12470: u64 [a3 + 448] = 0\n 12474: a1 = u64 [s1 + 0xf0]\n 12478: a4 = a3 + 0x100\n 12482: u64 [a4 + 0xa8] = a1\n 12486: a1 = u64 [s1 + 0xf8]\n 12490: u64 [a4 + 0xb0] = a1\n 12494: a1 = s1 + 0x1220\n 12498: u64 [a4 + 0xb8] = a2\n 12502: u64 [s1 + 0xf8] = a0\n 12506: ra = 0x21a\n 12510: jump @19\n      : @435 (gas: 9)\n 12513: u64 [a3 + 1984] = 0\n 12517: u64 [a3 + 1976] = 0\n 12521: u64 [a3 + 1968] = 0\n 12525: u64 [a3 + 1960] = 0\n 12529: a0 = s1 + 0x2000\n 12533: i32 a0 = a0 + 0xfffffffffffff820\n 12537: ra = 0x176\n 12541: ecalli 10 // 'value_transferred'\n 12543: fallthrough\n      : @436 [@dyn 187] (gas: 10)\n 12544: a3 = s1 + 0x1078\n 12548: a4 = a3 + 0x700\n 12552: a0 = u64 [a4 + 0xb8]\n 12556: a1 = u64 [a4 + 0xc0]\n 12560: a2 = u64 [a4 + 0xb0]\n 12564: a3 = u64 [a4 + 0xa8]\n 12568: a1 = a1 | a2\n 12571: a0 = a0 | a3\n 12574: a0 = a0 | a1\n 12577: jump @438 if a0 == 0\n      : @437 (gas: 1)\n 12580: jump @732\n      : @438 (gas: 4)\n 12583: a0 = u64 [s1 + 0x38]\n 12586: a0 = i32 [a0]\n 12588: a1 = 0x63\n 12591: jump @440 if a1 <u a0\n      : @439 (gas: 1)\n 12594: jump @733\n      : @440 (gas: 5)\n 12597: a0 = s1 + 0x7ff\n 12601: a0 = a0 + 0x1\n 12604: ra = 0x178\n 12608: t0 = 0x2e4\n 12612: jump @994\n      : @441 [@dyn 188] (gas: 16)\n 12615: a0 = s1 + 0x1000\n 12619: a0 = u64 [a0 + 0xfffffffffffff818]\n 12623: u64 [s1 + 0xa8] = a0\n 12627: a0 = s1 + 0x1000\n 12631: a0 = u64 [a0 + 0xfffffffffffff810]\n 12635: u64 [s1 + 0xc8] = a0\n 12639: a0 = s1 + 0x1000\n 12643: a0 = u64 [a0 + 0xfffffffffffff808]\n 12647: u64 [s1 + 0xf8] = a0\n 12651: a0 = s1 + 0x1000\n 12655: a0 = u64 [a0 + 0xfffffffffffff800]\n 12659: u64 [s1 + 0xf0] = a0\n 12663: a0 = s1 + 0x7e0\n 12667: ra = 0x17a\n 12671: t0 = 0x2ee\n 12675: jump @994\n      : @442 [@dyn 189] (gas: 35)\n 12678: a0 = u64 [s1 + 0x7f8]\n 12682: u64 [s1 + 0xa0] = a0\n 12686: a0 = u64 [s1 + 0x7f0]\n 12690: u64 [s1 + 0x98] = a0\n 12694: a0 = u64 [s1 + 0x7e8]\n 12698: u64 [s1 + 0x90] = a0\n 12702: a0 = u64 [s1 + 0x7e0]\n 12706: u64 [s1 + 0x88] = a0\n 12710: a0 = s1 + 0x2000\n 12714: i32 a0 = a0 + 0xfffffffffffff840\n 12718: a1 = 0x44\n 12721: ecalli 1 // 'call_data_load'\n 12723: a0 = s1 + 0x1078\n 12727: a2 = a0 + 0x700\n 12731: a1 = u64 [a2 + 0xe0]\n 12735: u64 [s1 + 0xe8] = a1\n 12739: a1 = u64 [a2 + 0xd8]\n 12743: u64 [s1 + 0xe0] = a1\n 12747: a1 = u64 [a2 + 0xd0]\n 12751: u64 [s1 + 0xd0] = a1\n 12755: a0 = u64 [a2 + 0xc8]\n 12759: u64 [s1 + 0xd8] = a0\n 12763: a0 = u64 [s1 + 0xc8]\n 12767: a0 = a0 << 0x20\n 12770: a0 = a0 >> 0x20\n 12773: u64 [s1 + 2008] = 0\n 12777: u64 [s1 + 0x78] = a0\n 12780: u64 [s1 + 0x7d0] = a0\n 12784: a0 = u64 [s1 + 0xf8]\n 12788: u64 [s1 + 0x7c8] = a0\n 12792: a1 = s1 + 0x7c0\n 12796: a0 = u64 [s1 + 0xf0]\n 12800: u64 [s1 + 0x7c0] = a0\n 12804: a0 = 0\n 12806: ra = 380, jump @19\n      : @443 [@dyn 190] (gas: 7)\n 12812: u64 [s1 + 1976] = 0\n 12816: u64 [s1 + 1968] = 0\n 12820: u64 [s1 + 1952] = 0x1\n 12825: a0 = 0x20\n 12828: a1 = s1 + 0x7a0\n 12832: u64 [s1 + 1960] = 0\n 12836: ra = 382, jump @19\n      : @444 [@dyn 191] (gas: 3)\n 12842: a1 = 0x20194\n 12847: a0 = i32 [0x20194]\n 12852: jump @446 if a0 >u 63\n      : @445 (gas: 2)\n 12856: u32 [0x20194] = 0x40\n 12862: fallthrough\n      : @446 (gas: 15)\n 12863: a0 = sp + 0xffffffffffffffe0\n 12866: a2 = a0 & 0xffffffffffffffe0\n 12869: u64 [s1 + 0xb0] = a2\n 12873: sp = a2\n 12875: a0 = 0x201a0\n 12880: i32 a0 = a0 + 0\n 12882: i32 a2 = a2 + 0\n 12884: u64 [s1 + 0xb8] = a1\n 12888: a1 = 0x40\n 12891: u64 [s1 + 0xc0] = a0\n 12895: ra = 0x180\n 12899: ecalli 6 // 'hash_keccak_256'\n 12901: a3 = u64 [s1 + 0xb0]\n 12905: t0 = 0x182\n 12909: jump @998\n      : @447 [@dyn 192] (gas: 2)\n 12912: a3 = u64 [s1 + 0xb0]\n 12916: t0 = 386, jump @998\n      : @448 [@dyn 193] (gas: 20)\n 12922: u64 [s1 + 0x68] = a0\n 12925: a0 = reverse a1\n 12927: u64 [s1 + 0x60] = a0\n 12930: a0 = reverse a2\n 12932: u64 [s1 + 0x58] = a0\n 12935: a0 = reverse a3\n 12937: u64 [s1 + 0x50] = a0\n 12940: a0 = sp + 0xffffffffffffffe0\n 12943: a0 = a0 & 0xffffffffffffffe0\n 12946: u64 [s1 + 0x70] = a0\n 12949: sp = a0\n 12951: a0 = 0x301a0\n 12956: u64 [s1 + 0xb0] = a0\n 12960: i32 a0 = a0 + 0\n 12962: u64 [s1 + 0x80] = a0\n 12966: ra = 0x184\n 12970: ecalli 3 // 'caller'\n 12972: a2 = u64 [s1 + 0xb0]\n 12976: t0 = 0x186\n 12980: jump @966\n      : @449 [@dyn 194] (gas: 2)\n 12983: a2 = u64 [s1 + 0xb0]\n 12987: t0 = 390, jump @966\n      : @450 [@dyn 195] (gas: 7)\n 12993: u64 [s1 + 1944] = 0\n 12997: u64 [s1 + 0x790] = a1\n 13001: u64 [s1 + 0x788] = a0\n 13005: a1 = s1 + 0x780\n 13009: u64 [s1 + 0x780] = a3\n 13013: a0 = 0\n 13015: ra = 392, jump @19\n      : @451 [@dyn 196] (gas: 12)\n 13021: a0 = u64 [s1 + 0x50]\n 13024: a3 = s1 + 0x700\n 13028: u64 [a3 + 0x78] = a0\n 13031: a0 = u64 [s1 + 0x58]\n 13034: u64 [a3 + 0x70] = a0\n 13037: a0 = u64 [s1 + 0x60]\n 13040: u64 [a3 + 0x68] = a0\n 13043: a0 = 0x20\n 13046: a1 = s1 + 0x760\n 13050: a2 = u64 [s1 + 0x68]\n 13053: u64 [a3 + 0x60] = a2\n 13056: ra = 394, jump @19\n      : @452 [@dyn 197] (gas: 3)\n 13062: a1 = u64 [s1 + 0xb8]\n 13066: a0 = i32 [a1]\n 13068: jump @454 if a0 >u 63\n      : @453 (gas: 2)\n 13072: u32 [a1 + 0] = 0x40\n 13075: fallthrough\n      : @454 (gas: 4)\n 13076: a0 = sp + 0xffffffffffffffe0\n 13079: a0 = a0 & 0xffffffffffffffe0\n 13082: u64 [s1 + 0x68] = a0\n 13085: t0 = 396, jump @999\n      : @455 [@dyn 198] (gas: 5)\n 13091: ra = 0x18e\n 13095: ecalli 6 // 'hash_keccak_256'\n 13097: a3 = u64 [s1 + 0x68]\n 13100: t0 = 0x190\n 13104: jump @967\n      : @456 [@dyn 199] (gas: 2)\n 13107: a3 = u64 [s1 + 0x68]\n 13110: t0 = 400, jump @967\n      : @457 [@dyn 200] (gas: 7)\n 13116: a1 = u64 [s1 + 0x70]\n 13119: u64 [a1 + 0x18] = a3\n 13122: u64 [a1 + 0x10] = a2\n 13125: u64 [a1 + 0x8] = a4\n 13128: u64 [a1] = a0\n 13130: a0 = s1 + 0x740\n 13134: ra = 402, jump @21\n      : @458 [@dyn 201] (gas: 8)\n 13140: t2 = u64 [s1 + 0x758]\n 13144: a3 = u64 [s1 + 0x750]\n 13148: a4 = u64 [s1 + 0x748]\n 13152: t0 = u64 [s1 + 0x740]\n 13156: a0 = a4 & t2\n 13159: a1 = t0 & a3\n 13162: a0 = a0 & a1\n 13165: jump @482 if a0 == 4294967295\n      : @459 (gas: 20)\n 13170: a0 = u64 [s1 + 0xd8]\n 13174: t1 = t0 <u a0\n 13177: a1 = u64 [s1 + 0xd0]\n 13181: a0 = a4 ^ a1\n 13184: a5 = a4 <u a1\n 13187: a5 = t1 if a0 == 0\n 13190: a2 = u64 [s1 + 0xe0]\n 13194: ra = a3 <u a2\n 13197: a1 = u64 [s1 + 0xe8]\n 13201: a0 = t2 ^ a1\n 13204: a1 = t2 <u a1\n 13207: a1 = ra if a0 == 0\n 13210: a2 = a2 ^ a3\n 13213: a0 = a0 | a2\n 13216: a1 = a5 if a0 == 0\n 13219: u64 [s1 + 0x70] = t0\n 13222: u64 [s1 + 0x68] = a4\n 13225: u64 [s1 + 0x60] = t2\n 13228: u64 [s1 + 0x58] = a3\n 13231: jump @461 if a1 == 0\n      : @460 (gas: 1)\n 13234: jump @758\n      : @461 (gas: 9)\n 13237: u64 [s1 + 0x40] = ra\n 13240: u64 [s1 + 0x48] = a5\n 13243: u64 [s1 + 0x50] = t1\n 13246: a0 = u64 [s1 + 0xf0]\n 13250: a1 = u64 [s1 + 0x78]\n 13253: a0 = a0 | a1\n 13256: a1 = u64 [s1 + 0xf8]\n 13260: a0 = a0 | a1\n 13263: jump @463 if a0 != 0\n      : @462 (gas: 1)\n 13266: jump @767\n      : @463 (gas: 6)\n 13269: a0 = u64 [s1 + 0x80]\n 13273: ra = 0x194\n 13277: ecalli 3 // 'caller'\n 13279: a2 = u64 [s1 + 0xb0]\n 13283: t0 = 0x196\n 13287: jump @991\n      : @464 [@dyn 202] (gas: 2)\n 13290: a2 = u64 [s1 + 0xb0]\n 13294: t0 = 406, jump @991\n      : @465 [@dyn 203] (gas: 1)\n 13300: jump @467 if a0 != 0\n      : @466 (gas: 1)\n 13303: jump @769\n      : @467 (gas: 10)\n 13306: u64 [s1 + 1848] = 0\n 13310: a0 = u64 [s1 + 0xf0]\n 13314: u64 [s1 + 0x720] = a0\n 13318: a0 = u64 [s1 + 0xf8]\n 13322: u64 [s1 + 0x728] = a0\n 13326: a1 = s1 + 0x720\n 13330: a0 = u64 [s1 + 0x78]\n 13333: u64 [s1 + 0x730] = a0\n 13337: a0 = 0\n 13339: ra = 408, jump @19\n      : @468 [@dyn 204] (gas: 7)\n 13345: u64 [s1 + 1816] = 0\n 13349: u64 [s1 + 1808] = 0\n 13353: u64 [s1 + 1792] = 0x1\n 13358: a0 = 0x20\n 13361: a1 = s1 + 0x700\n 13365: u64 [s1 + 1800] = 0\n 13369: ra = 410, jump @19\n      : @469 [@dyn 205] (gas: 3)\n 13375: a1 = u64 [s1 + 0xb8]\n 13379: a0 = i32 [a1]\n 13381: jump @471 if a0 >u 63\n      : @470 (gas: 2)\n 13385: u32 [a1 + 0] = 0x40\n 13388: fallthrough\n      : @471 (gas: 4)\n 13389: a0 = sp + 0xffffffffffffffe0\n 13392: a0 = a0 & 0xffffffffffffffe0\n 13395: u64 [s1 + 0x78] = a0\n 13398: t0 = 412, jump @999\n      : @472 [@dyn 206] (gas: 5)\n 13404: ra = 0x19e\n 13408: ecalli 6 // 'hash_keccak_256'\n 13410: a3 = u64 [s1 + 0x78]\n 13413: t0 = 0x1a0\n 13417: jump @998\n      : @473 [@dyn 207] (gas: 2)\n 13420: a3 = u64 [s1 + 0x78]\n 13423: t0 = 416, jump @998\n      : @474 [@dyn 208] (gas: 17)\n 13429: u64 [s1 + 0x38] = a0\n 13432: a0 = reverse a1\n 13434: u64 [s1 + 0x30] = a0\n 13437: a0 = reverse a2\n 13439: u64 [s1 + 0x28] = a0\n 13442: a0 = reverse a3\n 13444: u64 [s1 + 0x20] = a0\n 13447: a0 = sp + 0xffffffffffffffe0\n 13450: a0 = a0 & 0xffffffffffffffe0\n 13453: u64 [s1 + 0x78] = a0\n 13456: sp = a0\n 13458: a0 = u64 [s1 + 0x80]\n 13462: ra = 0x1a2\n 13466: ecalli 3 // 'caller'\n 13468: a2 = u64 [s1 + 0xb0]\n 13472: t0 = 0x1a4\n 13476: jump @966\n      : @475 [@dyn 209] (gas: 2)\n 13479: a2 = u64 [s1 + 0xb0]\n 13483: t0 = 420, jump @966\n      : @476 [@dyn 210] (gas: 7)\n 13489: u64 [s1 + 1784] = 0\n 13493: u64 [s1 + 0x6f0] = a1\n 13497: u64 [s1 + 0x6e8] = a0\n 13501: a1 = s1 + 0x6e0\n 13505: u64 [s1 + 0x6e0] = a3\n 13509: a0 = 0\n 13511: ra = 422, jump @19\n      : @477 [@dyn 211] (gas: 12)\n 13517: a0 = u64 [s1 + 0x20]\n 13520: a3 = s1 + 0x600\n 13524: u64 [a3 + 0xd8] = a0\n 13528: a0 = u64 [s1 + 0x28]\n 13531: u64 [a3 + 0xd0] = a0\n 13535: a0 = u64 [s1 + 0x30]\n 13538: u64 [a3 + 0xc8] = a0\n 13542: a0 = 0x20\n 13545: a1 = s1 + 0x6c0\n 13549: a2 = u64 [s1 + 0x38]\n 13552: u64 [a3 + 0xc0] = a2\n 13556: ra = 424, jump @19\n      : @478 [@dyn 212] (gas: 3)\n 13562: a1 = u64 [s1 + 0xb8]\n 13566: a0 = i32 [a1]\n 13568: jump @480 if a0 >u 63\n      : @479 (gas: 2)\n 13572: u32 [a1 + 0] = 0x40\n 13575: fallthrough\n      : @480 (gas: 4)\n 13576: a0 = sp + 0xffffffffffffffe0\n 13579: a0 = a0 & 0xffffffffffffffe0\n 13582: u64 [s1 + 0xb8] = a0\n 13586: t0 = 426, jump @999\n      : @481 [@dyn 213] (gas: 43)\n 13592: ecalli 6 // 'hash_keccak_256'\n 13594: a0 = u64 [s1 + 0xe0]\n 13598: a1 = u64 [s1 + 0x58]\n 13601: a0 = a1 - a0\n 13604: a2 = u64 [s1 + 0x48]\n 13607: a1 = a0 - a2\n 13610: a0 = a0 <u a2\n 13613: a2 = u64 [s1 + 0xe8]\n 13617: a3 = u64 [s1 + 0x60]\n 13620: a2 = a3 - a2\n 13623: a3 = u64 [s1 + 0x40]\n 13626: a2 = a2 - a3\n 13629: a2 = a2 - a0\n 13632: a0 = u64 [s1 + 0xd0]\n 13636: a3 = u64 [s1 + 0x68]\n 13639: a0 = a3 - a0\n 13642: a3 = u64 [s1 + 0x50]\n 13645: a0 = a0 - a3\n 13648: a3 = s1 + 0x1878\n 13652: u64 [a3] = a2\n 13654: a5 = a3 + 0xffffffffffffff00\n 13658: u64 [a5 + 0xf8] = a1\n 13662: u64 [a5 + 0xf0] = a0\n 13666: a4 = u64 [s1 + 0xb8]\n 13670: a0 = u64 [a4]\n 13672: a1 = u64 [s1 + 0xd8]\n 13676: a2 = u64 [s1 + 0x70]\n 13679: a1 = a2 - a1\n 13682: u64 [a5 + 0xe8] = a1\n 13686: a1 = u64 [a4 + 0x8]\n 13689: a2 = reverse a0\n 13691: a0 = u64 [s1 + 0x78]\n 13694: u64 [a0 + 0x18] = a2\n 13697: a3 = u64 [a4 + 0x10]\n 13700: a2 = u64 [a4 + 0x18]\n 13703: a1 = reverse a1\n 13705: u64 [a0 + 0x10] = a1\n 13708: a1 = reverse a3\n 13710: u64 [a0 + 0x8] = a1\n 13713: a1 = reverse a2\n 13715: u64 [a0] = a1\n 13717: a1 = s1 + 0x1860\n 13721: ra = 428, jump @22\n      : @482 [@dyn 214] (gas: 28)\n 13727: a0 = u64 [s1 + 0xd8]\n 13731: u64 [s1 + 0x560] = a0\n 13735: a0 = u64 [s1 + 0x88]\n 13739: u64 [s1 + 0x580] = a0\n 13743: a0 = u64 [s1 + 0xf0]\n 13747: u64 [s1 + 0x5a0] = a0\n 13751: a0 = u64 [s1 + 0xd0]\n 13755: u64 [s1 + 0x568] = a0\n 13759: a0 = u64 [s1 + 0x90]\n 13763: u64 [s1 + 0x588] = a0\n 13767: a0 = u64 [s1 + 0xf8]\n 13771: u64 [s1 + 0x5a8] = a0\n 13775: a0 = u64 [s1 + 0xe0]\n 13779: u64 [s1 + 0x570] = a0\n 13783: a0 = u64 [s1 + 0x98]\n 13787: u64 [s1 + 0x590] = a0\n 13791: a0 = u64 [s1 + 0xc8]\n 13795: u64 [s1 + 0x5b0] = a0\n 13799: a0 = u64 [s1 + 0xe8]\n 13803: u64 [s1 + 0x578] = a0\n 13807: a0 = u64 [s1 + 0xa0]\n 13811: u64 [s1 + 0x598] = a0\n 13815: a0 = s1 + 0x5a0\n 13819: a1 = s1 + 0x580\n 13823: a2 = s1 + 0x560\n 13827: a3 = u64 [s1 + 0xa8]\n 13831: u64 [s1 + 0x5b8] = a3\n 13835: ra = 430, jump @873\n      : @483 [@dyn 215] (gas: 3)\n 13841: a0 = s1 + 0x540\n 13845: a1 = 0x40\n 13848: ra = 432, jump @17\n      : @484 [@dyn 216] (gas: 6)\n 13854: a4 = s1 + 0x500\n 13858: a3 = u64 [a4 + 0x58]\n 13861: a1 = u64 [a4 + 0x50]\n 13864: a2 = u64 [a4 + 0x48]\n 13867: a0 = u64 [a4 + 0x40]\n 13870: t0 = 434, jump @970\n      : @485 [@dyn 217] (gas: 1)\n 13876: jump @487 if a1 == 0\n      : @486 (gas: 1)\n 13879: jump @635\n      : @487 (gas: 8)\n 13882: u64 [s1 + 1336] = 0\n 13886: u64 [s1 + 1328] = 0\n 13890: u64 [s1 + 1320] = 0\n 13894: a1 = s1 + 0x520\n 13898: u64 [s1 + 1312] = 0x1\n 13903: u64 [s1 + 0xf8] = a0\n 13907: ra = 0x21a\n 13911: jump @19\n      : @488 (gas: 8)\n 13914: u64 [a2 + 1056] = 0\n 13918: u64 [a2 + 1048] = 0\n 13922: u64 [a2 + 1040] = 0\n 13926: u64 [a2 + 1032] = 0\n 13930: a0 = s1 + 0x2000\n 13934: i32 a0 = a0 + 0xfffffffffffffc80\n 13938: ecalli 10 // 'value_transferred'\n 13940: fallthrough\n      : @489 (gas: 10)\n 13941: a3 = s1 + 0x1878\n 13945: a4 = a3 + 0x400\n 13949: a0 = u64 [a4 + 0x18]\n 13952: a1 = u64 [a4 + 0x20]\n 13955: a2 = u64 [a4 + 0x10]\n 13958: a3 = u64 [a4 + 0x8]\n 13961: a1 = a1 | a2\n 13964: a0 = a0 | a3\n 13967: a0 = a0 | a1\n 13970: jump @491 if a0 == 0\n      : @490 (gas: 1)\n 13973: jump @734\n      : @491 (gas: 4)\n 13976: a0 = u64 [s1 + 0x38]\n 13979: a0 = i32 [a0]\n 13981: a1 = 0x43\n 13984: jump @493 if a1 <u a0\n      : @492 (gas: 1)\n 13987: jump @735\n      : @493 (gas: 6)\n 13990: a0 = 0xffffffff\n 14000: u64 [s1 + 0xf8] = a0\n 14004: a0 = s1 + 0x1620\n 14008: ra = 0x1b4\n 14012: t0 = 0x2e4\n 14016: jump @994\n      : @494 [@dyn 218] (gas: 11)\n 14019: a1 = s1 + 0x1078\n 14023: a0 = u64 [a1 + 0x5a8]\n 14027: u64 [s1 + 0xf0] = a0\n 14031: a0 = u64 [a1 + 0x5b0]\n 14035: u64 [s1 + 0xd0] = a0\n 14039: a0 = u32 [a1 + 0x5b8]\n 14043: u64 [s1 + 0xc8] = a0\n 14047: a0 = s1 + 0x1600\n 14051: ra = 0x1b6\n 14055: t0 = 0x2ee\n 14059: jump @994\n      : @495 [@dyn 219] (gas: 3)\n 14062: t0 = 0x1b8\n 14066: a1 = s1 + 0x1078\n 14070: fallthrough\n      : @496 [@dyn 220] (gas: 18)\n 14071: a2 = a1 + 0x500\n 14075: a0 = u64 [a2 + 0x98]\n 14079: u64 [s1 + 0xe8] = a0\n 14083: a0 = u64 [a2 + 0x90]\n 14087: u64 [s1 + 0xe0] = a0\n 14091: a0 = u64 [a2 + 0x88]\n 14095: u64 [s1 + 0xd8] = a0\n 14099: u64 [a1 + 1408] = 0\n 14103: a0 = u64 [s1 + 0xc8]\n 14107: u64 [a2 + 0x78] = a0\n 14110: a0 = u64 [s1 + 0xd0]\n 14114: u64 [a2 + 0x70] = a0\n 14117: a2 = a1\n 14119: a1 = s1 + 0x15e0\n 14123: a0 = u64 [s1 + 0xf0]\n 14127: u64 [a2 + 0x568] = a0\n 14131: a0 = 0\n 14133: ra = 442, jump @19\n      : @497 [@dyn 221] (gas: 3)\n 14139: t0 = 0x1bc\n 14143: a1 = s1 + 0x1078\n 14147: fallthrough\n      : @498 [@dyn 222] (gas: 8)\n 14148: u64 [a1 + 1376] = 0\n 14152: u64 [a1 + 1368] = 0\n 14156: u64 [a1 + 1352] = 0x1\n 14161: a2 = a1\n 14163: a0 = 0x20\n 14166: a1 = s1 + 0x15c0\n 14170: u64 [a2 + 1360] = 0\n 14174: ra = 446, jump @19\n      : @499 [@dyn 223] (gas: 3)\n 14180: a1 = 0x20194\n 14185: a0 = i32 [0x20194]\n 14190: jump @501 if a0 >u 63\n      : @500 (gas: 2)\n 14194: u32 [0x20194] = 0x40\n 14200: fallthrough\n      : @501 (gas: 15)\n 14201: a0 = sp + 0xffffffffffffffe0\n 14204: a2 = a0 & 0xffffffffffffffe0\n 14207: u64 [s1 + 0xc8] = a2\n 14211: sp = a2\n 14213: a0 = 0x201a0\n 14218: i32 a0 = a0 + 0\n 14220: i32 a2 = a2 + 0\n 14222: u64 [s1 + 0xf0] = a1\n 14226: a1 = 0x40\n 14229: u64 [s1 + 0xd0] = a0\n 14233: ra = 0x1c0\n 14237: ecalli 6 // 'hash_keccak_256'\n 14239: a3 = u64 [s1 + 0xc8]\n 14243: t0 = 0x1c2\n 14247: jump @998\n      : @502 [@dyn 224] (gas: 2)\n 14250: a3 = u64 [s1 + 0xc8]\n 14254: t0 = 450, jump @998\n      : @503 [@dyn 225] (gas: 27)\n 14260: u64 [s1 + 0xc0] = a0\n 14264: a0 = reverse a1\n 14266: u64 [s1 + 0xb8] = a0\n 14270: a0 = reverse a2\n 14272: u64 [s1 + 0xb0] = a0\n 14276: a0 = reverse a3\n 14278: u64 [s1 + 0xa8] = a0\n 14282: a0 = sp + 0xffffffffffffffe0\n 14285: a0 = a0 & 0xffffffffffffffe0\n 14288: u64 [s1 + 0xc8] = a0\n 14292: sp = a0\n 14294: a0 = u64 [s1 + 0xd8]\n 14298: a0 = a0 & 0xffffffffffffffff\n 14301: a2 = u64 [s1 + 0xe0]\n 14305: a1 = a2 & 0xffffffffffffffff\n 14308: a2 = u64 [s1 + 0xf8]\n 14312: a3 = u64 [s1 + 0xe8]\n 14316: a2 = a2 & a3\n 14319: a3 = s1 + 0x1078\n 14323: u64 [a3 + 1344] = 0\n 14327: a4 = a3 + 0x500\n 14331: u64 [a4 + 0x38] = a2\n 14334: u64 [a4 + 0x30] = a1\n 14337: a1 = s1 + 0x15a0\n 14341: u64 [a4 + 0x28] = a0\n 14344: a0 = 0\n 14346: ra = 452, jump @19\n      : @504 [@dyn 226] (gas: 14)\n 14352: a0 = u64 [s1 + 0xa8]\n 14356: a1 = s1 + 0x1078\n 14360: a2 = a1 + 0x500\n 14364: u64 [a2 + 0x20] = a0\n 14367: a0 = u64 [s1 + 0xb0]\n 14371: u64 [a2 + 0x18] = a0\n 14374: a0 = u64 [s1 + 0xb8]\n 14378: u64 [a2 + 0x10] = a0\n 14381: a3 = a1\n 14383: a0 = 0x20\n 14386: a1 = s1 + 0x1580\n 14390: a2 = u64 [s1 + 0xc0]\n 14394: u64 [a3 + 0x508] = a2\n 14398: ra = 454, jump @19\n      : @505 [@dyn 227] (gas: 3)\n 14404: a1 = u64 [s1 + 0xf0]\n 14408: a0 = i32 [a1]\n 14410: jump @507 if a0 >u 63\n      : @506 (gas: 2)\n 14414: u32 [a1 + 0] = 0x40\n 14417: fallthrough\n      : @507 (gas: 12)\n 14418: a0 = sp + 0xffffffffffffffe0\n 14421: a0 = a0 & 0xffffffffffffffe0\n 14424: u64 [s1 + 0xf8] = a0\n 14428: sp = a0\n 14430: i32 a2 = a0 + 0\n 14432: a1 = 0x40\n 14435: a0 = u64 [s1 + 0xd0]\n 14439: ra = 0x1c8\n 14443: ecalli 6 // 'hash_keccak_256'\n 14445: a3 = u64 [s1 + 0xf8]\n 14449: t0 = 0x1ca\n 14453: jump @967\n      : @508 [@dyn 228] (gas: 2)\n 14456: a3 = u64 [s1 + 0xf8]\n 14460: t0 = 458, jump @967\n      : @509 [@dyn 229] (gas: 7)\n 14466: a1 = u64 [s1 + 0xc8]\n 14470: u64 [a1 + 0x18] = a3\n 14473: u64 [a1 + 0x10] = a2\n 14476: u64 [a1 + 0x8] = a4\n 14479: u64 [a1] = a0\n 14481: a0 = s1 + 0x1560\n 14485: ra = 460, jump @21\n      : @510 [@dyn 230] (gas: 3)\n 14491: t0 = 0x1ce\n 14495: a1 = s1 + 0x1078\n 14499: fallthrough\n      : @511 [@dyn 231] (gas: 12)\n 14500: a0 = u64 [a1 + 0x500]\n 14504: u64 [s1 + 0xf8] = a0\n 14508: a2 = a1 + 0x400\n 14512: a0 = u64 [a2 + 0xf8]\n 14516: u64 [s1 + 0xf0] = a0\n 14520: a0 = u64 [a2 + 0xf0]\n 14524: u64 [s1 + 0xe8] = a0\n 14528: a0 = u64 [a2 + 0xe8]\n 14532: u64 [s1 + 0xe0] = a0\n 14536: a0 = s1 + 0x1540\n 14540: a1 = 0x40\n 14543: ra = 464, jump @17\n      : @512 [@dyn 232] (gas: 14)\n 14549: a3 = s1 + 0x1078\n 14553: a5 = a3 + 0x400\n 14557: a0 = u64 [a5 + 0xe0]\n 14561: a1 = u64 [a5 + 0xd8]\n 14565: a2 = u64 [a5 + 0xd0]\n 14569: a4 = u64 [a5 + 0xc8]\n 14573: a0 = a0 | a2\n 14576: a2 = a4 | a1\n 14579: a2 = a2 | a0\n 14582: a2 = a2 >> 0x20\n 14585: a0 = a0 | a1\n 14588: a0 = a0 << 0x20\n 14591: a0 = a0 | a2\n 14594: jump @514 if a0 == 0\n      : @513 (gas: 1)\n 14597: jump @635\n      : @514 (gas: 14)\n 14600: a0 = u64 [s1 + 0xe0]\n 14604: a2 = a3 + 0x400\n 14608: u64 [a2 + 0xa8] = a0\n 14612: a0 = u64 [s1 + 0xe8]\n 14616: u64 [a2 + 0xb0] = a0\n 14620: a0 = u64 [s1 + 0xf0]\n 14624: u64 [a2 + 0xb8] = a0\n 14628: a1 = s1 + 0x1520\n 14632: a0 = u64 [s1 + 0xf8]\n 14636: u64 [a2 + 0xc0] = a0\n 14640: a0 = a4\n 14642: u64 [s1 + 0xf8] = a4\n 14646: ra = 0x21a\n 14650: jump @19\n      : @515 (gas: 9)\n 14653: u64 [a3 + 1856] = 0\n 14657: u64 [a3 + 1848] = 0\n 14661: u64 [a3 + 1840] = 0\n 14665: u64 [a3 + 1832] = 0\n 14669: a0 = s1 + 0x1000\n 14673: i32 a0 = a0 + 0x7a0\n 14677: ra = 0x1d2\n 14681: ecalli 10 // 'value_transferred'\n 14683: fallthrough\n      : @516 [@dyn 233] (gas: 10)\n 14684: a3 = s1 + 0x1078\n 14688: a4 = a3 + 0x700\n 14692: a0 = u64 [a4 + 0x38]\n 14695: a1 = u64 [a4 + 0x40]\n 14698: a2 = u64 [a4 + 0x30]\n 14701: a3 = u64 [a4 + 0x28]\n 14704: a1 = a1 | a2\n 14707: a0 = a0 | a3\n 14710: a0 = a0 | a1\n 14713: jump @518 if a0 == 0\n      : @517 (gas: 1)\n 14716: jump @736\n      : @518 (gas: 4)\n 14719: a0 = u64 [s1 + 0x38]\n 14722: a0 = i32 [a0]\n 14724: a1 = 0x43\n 14727: jump @520 if a1 <u a0\n      : @519 (gas: 1)\n 14730: jump @737\n      : @520 (gas: 4)\n 14733: a0 = s1 + 0x4a0\n 14737: ra = 0x1d4\n 14741: t0 = 0x2e4\n 14745: jump @994\n      : @521 [@dyn 234] (gas: 39)\n 14748: a1 = s1 + 0x400\n 14752: a0 = u64 [a1 + 0xb0]\n 14756: u64 [s1 + 0xd8] = a0\n 14760: a0 = u64 [a1 + 0xa8]\n 14764: u64 [s1 + 0xf0] = a0\n 14768: a0 = u64 [a1 + 0xa0]\n 14772: u64 [s1 + 0xf8] = a0\n 14776: a0 = sp + 0xffffffffffffffe0\n 14779: a0 = a0 & 0xffffffffffffffe0\n 14782: u64 [s1 + 0xe0] = a0\n 14786: sp = a0\n 14788: a0 = s1 + 0x1000\n 14792: i32 a0 = a0 + 0x7c0\n 14796: a1 = 0x24\n 14799: ecalli 1 // 'call_data_load'\n 14801: a0 = s1 + 0x1078\n 14805: a4 = a0 + 0x700\n 14809: a1 = u64 [a4 + 0x60]\n 14812: a2 = u64 [a4 + 0x58]\n 14815: a3 = u64 [a4 + 0x50]\n 14818: a0 = u64 [a4 + 0x48]\n 14821: u64 [s1 + 0x90] = a1\n 14825: a4 = u64 [s1 + 0xe0]\n 14829: u64 [a4 + 0x18] = a1\n 14832: u64 [s1 + 0x88] = a2\n 14836: u64 [a4 + 0x10] = a2\n 14839: u64 [s1 + 0x80] = a3\n 14843: u64 [a4 + 0x8] = a3\n 14846: u64 [s1 + 0x78] = a0\n 14849: u64 [a4] = a0\n 14851: a0 = 0x301a0\n 14856: u64 [s1 + 0xe8] = a0\n 14860: i32 a0 = a0 + 0\n 14862: u64 [s1 + 0xd0] = a0\n 14866: ra = 0x1d6\n 14870: ecalli 3 // 'caller'\n 14872: a2 = u64 [s1 + 0xe8]\n 14876: t0 = 0x1d8\n 14880: jump @991\n      : @522 [@dyn 235] (gas: 2)\n 14883: a2 = u64 [s1 + 0xe8]\n 14887: t0 = 472, jump @991\n      : @523 [@dyn 236] (gas: 1)\n 14893: jump @525 if a0 != 0\n      : @524 (gas: 1)\n 14896: jump @738\n      : @525 (gas: 9)\n 14899: a0 = u64 [s1 + 0xd8]\n 14903: a0 = a0 << 0x20\n 14906: a1 = a0 >> 0x20\n 14909: a0 = u64 [s1 + 0xf0]\n 14913: a2 = u64 [s1 + 0xf8]\n 14917: a0 = a0 | a2\n 14920: u64 [s1 + 0xd8] = a1\n 14924: a0 = a0 | a1\n 14927: jump @527 if a0 != 0\n      : @526 (gas: 1)\n 14930: jump @743\n      : @527 (gas: 6)\n 14933: a0 = u64 [s1 + 0xd0]\n 14937: ra = 0x1da\n 14941: ecalli 3 // 'caller'\n 14943: a2 = u64 [s1 + 0xe8]\n 14947: t0 = 0x1dc\n 14951: jump @966\n      : @528 [@dyn 237] (gas: 2)\n 14954: a2 = u64 [s1 + 0xe8]\n 14958: t0 = 476, jump @966\n      : @529 [@dyn 238] (gas: 7)\n 14964: u64 [s1 + 1176] = 0\n 14968: u64 [s1 + 0x490] = a1\n 14972: u64 [s1 + 0x488] = a0\n 14976: a1 = s1 + 0x480\n 14980: u64 [s1 + 0x480] = a3\n 14984: a0 = 0\n 14986: ra = 478, jump @19\n      : @530 [@dyn 239] (gas: 7)\n 14992: u64 [s1 + 1144] = 0\n 14996: u64 [s1 + 1136] = 0\n 15000: u64 [s1 + 1120] = 0x1\n 15005: a0 = 0x20\n 15008: a1 = s1 + 0x460\n 15012: u64 [s1 + 1128] = 0\n 15016: ra = 480, jump @19\n      : @531 [@dyn 240] (gas: 3)\n 15022: a1 = 0x20194\n 15027: a0 = i32 [0x20194]\n 15032: jump @533 if a0 >u 63\n      : @532 (gas: 2)\n 15036: u32 [0x20194] = 0x40\n 15042: fallthrough\n      : @533 (gas: 15)\n 15043: a0 = sp + 0xffffffffffffffe0\n 15046: a2 = a0 & 0xffffffffffffffe0\n 15049: u64 [s1 + 0xb8] = a2\n 15053: sp = a2\n 15055: a0 = 0x201a0\n 15060: i32 a0 = a0 + 0\n 15062: i32 a2 = a2 + 0\n 15064: u64 [s1 + 0xc8] = a1\n 15068: a1 = 0x40\n 15071: u64 [s1 + 0xc0] = a0\n 15075: ra = 0x1e2\n 15079: ecalli 6 // 'hash_keccak_256'\n 15081: a3 = u64 [s1 + 0xb8]\n 15085: t0 = 0x1e4\n 15089: jump @998\n      : @534 [@dyn 241] (gas: 2)\n 15092: a3 = u64 [s1 + 0xb8]\n 15096: t0 = 484, jump @998\n      : @535 [@dyn 242] (gas: 21)\n 15102: u64 [s1 + 0xb0] = a0\n 15106: a0 = reverse a1\n 15108: u64 [s1 + 0xa8] = a0\n 15112: a0 = reverse a2\n 15114: u64 [s1 + 0xa0] = a0\n 15118: a0 = reverse a3\n 15120: u64 [s1 + 0x98] = a0\n 15124: a0 = sp + 0xffffffffffffffe0\n 15127: a0 = a0 & 0xffffffffffffffe0\n 15130: u64 [s1 + 0xb8] = a0\n 15134: sp = a0\n 15136: u64 [s1 + 1112] = 0\n 15140: a0 = u64 [s1 + 0xd8]\n 15144: u64 [s1 + 0x450] = a0\n 15148: a0 = u64 [s1 + 0xf0]\n 15152: u64 [s1 + 0x448] = a0\n 15156: a1 = s1 + 0x440\n 15160: a0 = u64 [s1 + 0xf8]\n 15164: u64 [s1 + 0x440] = a0\n 15168: a0 = 0\n 15170: ra = 486, jump @19\n      : @536 [@dyn 243] (gas: 12)\n 15176: a0 = u64 [s1 + 0x98]\n 15180: a3 = s1 + 0x400\n 15184: u64 [a3 + 0x38] = a0\n 15187: a0 = u64 [s1 + 0xa0]\n 15191: u64 [a3 + 0x30] = a0\n 15194: a0 = u64 [s1 + 0xa8]\n 15198: u64 [a3 + 0x28] = a0\n 15201: a0 = 0x20\n 15204: a1 = s1 + 0x420\n 15208: a2 = u64 [s1 + 0xb0]\n 15212: u64 [a3 + 0x20] = a2\n 15215: ra = 488, jump @19\n      : @537 [@dyn 244] (gas: 3)\n 15221: a1 = u64 [s1 + 0xc8]\n 15225: a0 = i32 [a1]\n 15227: jump @539 if a0 >u 63\n      : @538 (gas: 2)\n 15231: u32 [a1 + 0] = 0x40\n 15234: fallthrough\n      : @539 (gas: 4)\n 15235: a0 = sp + 0xffffffffffffffe0\n 15238: a0 = a0 & 0xffffffffffffffe0\n 15241: u64 [s1 + 0xc8] = a0\n 15245: t0 = 490, jump @999\n      : @540 [@dyn 245] (gas: 17)\n 15251: ecalli 6 // 'hash_keccak_256'\n 15253: a3 = u64 [s1 + 0xc8]\n 15257: a0 = u64 [a3 + 0x18]\n 15260: a1 = u64 [a3 + 0x10]\n 15263: a2 = u64 [a3 + 0x8]\n 15266: a3 = u64 [a3]\n 15268: a4 = reverse a0\n 15270: a1 = reverse a1\n 15272: a2 = reverse a2\n 15274: a3 = reverse a3\n 15276: a0 = u64 [s1 + 0xb8]\n 15280: u64 [a0 + 0x18] = a3\n 15283: u64 [a0 + 0x10] = a2\n 15286: u64 [a0 + 0x8] = a1\n 15289: u64 [a0] = a4\n 15291: a1 = u64 [s1 + 0xe0]\n 15295: ra = 492, jump @22\n      : @541 [@dyn 246] (gas: 3)\n 15301: a0 = s1 + 0x400\n 15305: a1 = 0x40\n 15308: ra = 494, jump @17\n      : @542 [@dyn 247] (gas: 1)\n 15314: t0 = 496, jump @981\n      : @543 [@dyn 248] (gas: 1)\n 15320: jump @635 if a0 != 0\n      : @544 (gas: 12)\n 15324: a0 = u64 [s1 + 0x78]\n 15327: u64 [s1 + 0x3e0] = a0\n 15331: a0 = u64 [s1 + 0x80]\n 15335: u64 [s1 + 0x3e8] = a0\n 15339: a0 = u64 [s1 + 0x88]\n 15343: u64 [s1 + 0x3f0] = a0\n 15347: a1 = s1 + 0x3e0\n 15351: a0 = u64 [s1 + 0x90]\n 15355: u64 [s1 + 0x3f8] = a0\n 15359: a0 = a3\n 15361: u64 [s1 + 0xe0] = a3\n 15365: ra = 498, jump @19\n      : @545 [@dyn 249] (gas: 6)\n 15371: a0 = u64 [s1 + 0xd0]\n 15375: ra = 0x1f4\n 15379: ecalli 3 // 'caller'\n 15381: a2 = u64 [s1 + 0xe8]\n 15385: t0 = 0x1f6\n 15389: jump @971\n      : @546 [@dyn 250] (gas: 2)\n 15392: a2 = u64 [s1 + 0xe8]\n 15396: t0 = 502, jump @971\n      : @547 [@dyn 251] (gas: 31)\n 15402: t0 = a1 | a0\n 15405: a3 = a3 >> 0x20\n 15408: a2 = reverse a2\n 15410: a1 = a2 << 0x20\n 15413: a1 = a1 | a3\n 15416: a2 = a2 >> 0x20\n 15419: u64 [s1 + 920] = 0\n 15423: a0 = u64 [s1 + 0xd8]\n 15427: u64 [s1 + 0x390] = a0\n 15431: a0 = u64 [s1 + 0xf0]\n 15435: u64 [s1 + 0x388] = a0\n 15439: a0 = u64 [s1 + 0xf8]\n 15443: u64 [s1 + 0x380] = a0\n 15447: u64 [s1 + 952] = 0\n 15451: a3 = u64 [0x20110]\n 15456: a4 = u64 [0x20118]\n 15461: a5 = u64 [0x20120]\n 15466: a0 = u64 [0x20128]\n 15471: u64 [s1 + 0x3d8] = a3\n 15475: u64 [s1 + 0x3d0] = a4\n 15479: u64 [s1 + 0x3c8] = a5\n 15483: u64 [s1 + 0x3c0] = a0\n 15487: u64 [s1 + 0x3b0] = a2\n 15491: u64 [s1 + 0x3a8] = a1\n 15495: a1 = 0x20\n 15498: a2 = s1 + 0x3c0\n 15502: a3 = s1 + 0x3a0\n 15506: a4 = s1 + 0x380\n 15510: u64 [s1 + 0x3a0] = t0\n 15514: a0 = u64 [s1 + 0xe0]\n 15518: ra = 504, jump @23\n      : @548 [@dyn 252] (gas: 3)\n 15524: a0 = s1 + 0x360\n 15528: a1 = 0x40\n 15531: ra = 506, jump @17\n      : @549 [@dyn 253] (gas: 6)\n 15537: a4 = s1 + 0x300\n 15541: a3 = u64 [a4 + 0x78]\n 15544: a1 = u64 [a4 + 0x70]\n 15547: a2 = u64 [a4 + 0x68]\n 15550: a0 = u64 [a4 + 0x60]\n 15553: t0 = 508, jump @970\n      : @550 [@dyn 254] (gas: 1)\n 15559: jump @635 if a1 != 0\n      : @551 (gas: 8)\n 15563: u64 [s1 + 856] = 0\n 15567: u64 [s1 + 848] = 0\n 15571: u64 [s1 + 840] = 0\n 15575: a1 = s1 + 0x340\n 15579: u64 [s1 + 832] = 0x1\n 15584: u64 [s1 + 0xf8] = a0\n 15588: ra = 0x21a\n 15592: jump @19\n      : @552 (gas: 8)\n 15595: u64 [a2 + 992] = 0\n 15599: u64 [a2 + 984] = 0\n 15603: u64 [a2 + 976] = 0\n 15607: u64 [a2 + 968] = 0\n 15611: a0 = s1 + 0x2000\n 15615: i32 a0 = a0 + 0xfffffffffffffc40\n 15619: ecalli 10 // 'value_transferred'\n 15621: fallthrough\n      : @553 (gas: 10)\n 15622: a3 = s1 + 0x1878\n 15626: a4 = a3 + 0x300\n 15630: a0 = u64 [a4 + 0xd8]\n 15634: a1 = u64 [a4 + 0xe0]\n 15638: a2 = u64 [a4 + 0xd0]\n 15642: a3 = u64 [a4 + 0xc8]\n 15646: a1 = a1 | a2\n 15649: a0 = a0 | a3\n 15652: a0 = a0 | a1\n 15655: jump @555 if a0 == 0\n      : @554 (gas: 1)\n 15658: jump @749\n      : @555 (gas: 4)\n 15661: a0 = u64 [s1 + 0x38]\n 15664: a0 = i32 [a0]\n 15666: a1 = 0x43\n 15669: jump @557 if a1 <u a0\n      : @556 (gas: 1)\n 15672: jump @750\n      : @557 (gas: 4)\n 15675: a0 = s1 + 0x1500\n 15679: ra = 0x1fe\n 15683: t0 = 0x2e4\n 15687: jump @994\n      : @558 [@dyn 255] (gas: 32)\n 15690: a1 = s1 + 0x1078\n 15694: a2 = a1 + 0x400\n 15698: a0 = u64 [a2 + 0x88]\n 15702: u64 [s1 + 0xf8] = a0\n 15706: a0 = u64 [a2 + 0x90]\n 15710: u64 [s1 + 0xf0] = a0\n 15714: a0 = u64 [a2 + 0x98]\n 15718: u64 [s1 + 0xe8] = a0\n 15722: a0 = u64 [a2 + 0xa0]\n 15726: u64 [s1 + 0xe0] = a0\n 15730: a0 = s1 + 0x2000\n 15734: i32 a0 = a0 + 0xfffffffffffffc60\n 15738: a1 = 0x24\n 15741: ecalli 1 // 'call_data_load'\n 15743: a0 = s1 + 0x1878\n 15747: a2 = a0 + 0x300\n 15751: a1 = u64 [a2 + 0xe8]\n 15755: u64 [s1 + 0xd8] = a1\n 15759: a1 = u64 [a2 + 0xf0]\n 15763: u64 [s1 + 0xd0] = a1\n 15767: a1 = u64 [a2 + 0xf8]\n 15771: u64 [s1 + 0xc8] = a1\n 15775: a0 = u64 [a0 + 0x400]\n 15779: u64 [s1 + 0xc0] = a0\n 15783: a0 = 0x301a0\n 15788: u64 [s1 + 0xb8] = a0\n 15792: i32 a0 = a0 + 0\n 15794: ra = 0x200\n 15798: ecalli 3 // 'caller'\n 15800: a2 = u64 [s1 + 0xb8]\n 15804: t0 = 0x202\n 15808: jump @975\n      : @559 [@dyn 256] (gas: 2)\n 15811: a2 = u64 [s1 + 0xb8]\n 15815: t0 = 514, jump @975\n      : @560 [@dyn 257] (gas: 26)\n 15821: a3 = s1 + 0x1078\n 15825: a4 = u64 [s1 + 0xc0]\n 15829: a5 = a3 + 0x400\n 15833: u64 [a5 + 0x40] = a4\n 15836: a4 = u64 [s1 + 0xc8]\n 15840: u64 [a5 + 0x38] = a4\n 15843: a4 = u64 [s1 + 0xd0]\n 15847: u64 [a5 + 0x30] = a4\n 15850: a4 = u64 [s1 + 0xd8]\n 15854: u64 [a5 + 0x28] = a4\n 15857: a4 = u64 [s1 + 0xe0]\n 15861: u64 [a5 + 0x60] = a4\n 15864: a4 = u64 [s1 + 0xe8]\n 15868: u64 [a5 + 0x58] = a4\n 15871: a4 = u64 [s1 + 0xf0]\n 15875: u64 [a5 + 0x50] = a4\n 15878: a4 = u64 [s1 + 0xf8]\n 15882: u64 [a5 + 0x48] = a4\n 15885: u64 [a5 + 0x78] = a2\n 15888: u64 [a5 + 0x70] = a0\n 15891: u64 [a5 + 0x68] = a1\n 15894: a0 = s1 + 0x14e0\n 15898: a1 = s1 + 0x14c0\n 15902: a2 = s1 + 0x14a0\n 15906: u64 [a3 + 1152] = 0\n 15910: ra = 516, jump @873\n      : @561 [@dyn 258] (gas: 3)\n 15916: a0 = s1 + 0x1480\n 15920: a1 = 0x40\n 15923: ra = 518, jump @17\n      : @562 [@dyn 259] (gas: 7)\n 15929: a3 = s1 + 0x1078\n 15933: a5 = a3 + 0x400\n 15937: a4 = u64 [a5 + 0x20]\n 15940: a1 = u64 [a5 + 0x18]\n 15943: a2 = u64 [a5 + 0x10]\n 15946: a0 = u64 [a5 + 0x8]\n 15949: t0 = 520, jump @986\n      : @563 [@dyn 260] (gas: 1)\n 15955: jump @635 if a1 != 0\n      : @564 (gas: 8)\n 15959: u64 [a3 + 1024] = 0\n 15963: u64 [a3 + 1016] = 0\n 15967: u64 [a3 + 1000] = 0x1\n 15972: a1 = s1 + 0x1460\n 15976: u64 [a3 + 1008] = 0\n 15980: u64 [s1 + 0xf8] = a0\n 15984: ra = 0x21a\n 15988: jump @19\n      : @565 (gas: 1)\n 15991: jump @567 if a0 == 1889567281\n      : @566 (gas: 1)\n 15998: jump @751\n      : @567 (gas: 8)\n 16001: u64 [a2 + 672] = 0\n 16005: u64 [a2 + 664] = 0\n 16009: u64 [a2 + 656] = 0\n 16013: u64 [a2 + 648] = 0\n 16017: a0 = s1 + 0x2000\n 16021: i32 a0 = a0 + 0xfffffffffffffb00\n 16025: ecalli 10 // 'value_transferred'\n 16027: fallthrough\n      : @568 (gas: 10)\n 16028: a3 = s1 + 0x1878\n 16032: a4 = a3 + 0x200\n 16036: a0 = u64 [a4 + 0x98]\n 16040: a1 = u64 [a4 + 0xa0]\n 16044: a2 = u64 [a4 + 0x90]\n 16048: a3 = u64 [a4 + 0x88]\n 16052: a1 = a1 | a2\n 16055: a0 = a0 | a3\n 16058: a0 = a0 | a1\n 16061: jump @570 if a0 == 0\n      : @569 (gas: 1)\n 16064: jump @755\n      : @570 (gas: 4)\n 16067: a0 = u64 [s1 + 0x38]\n 16070: a0 = i32 [a0]\n 16072: a1 = 0x23\n 16075: jump @572 if a1 <u a0\n      : @571 (gas: 1)\n 16078: jump @756\n      : @572 (gas: 4)\n 16081: a0 = s1 + 0x1180\n 16085: ra = 0x20a\n 16089: t0 = 0x2e4\n 16093: jump @994\n      : @573 [@dyn 261] (gas: 11)\n 16096: a3 = s1 + 0x1078\n 16100: a0 = u64 [a3 + 0x108]\n 16104: a1 = u64 [a3 + 0x110]\n 16108: a2 = u32 [a3 + 0x118]\n 16112: u64 [a3 + 256] = 0\n 16116: u64 [a3 + 0xf8] = a2\n 16120: u64 [a3 + 0xf0] = a1\n 16124: a1 = s1 + 0x1160\n 16128: u64 [a3 + 0xe8] = a0\n 16132: a0 = 0\n 16134: ra = 524, jump @19\n      : @574 [@dyn 262] (gas: 9)\n 16140: a0 = s1 + 0x1078\n 16144: u64 [a0 + 224] = 0\n 16148: u64 [a0 + 216] = 0\n 16152: u64 [a0 + 208] = 0\n 16156: a2 = a0\n 16158: a0 = 0x20\n 16161: a1 = s1 + 0x1140\n 16165: u64 [a2 + 200] = 0\n 16169: ra = 526, jump @19\n      : @575 [@dyn 263] (gas: 2)\n 16175: a1 = i32 [0x20194]\n 16180: jump @577 if a1 >u 63\n      : @576 (gas: 2)\n 16184: u32 [0x20194] = 0x40\n 16190: fallthrough\n      : @577 (gas: 13)\n 16191: a0 = sp + 0xffffffffffffffe0\n 16194: a2 = a0 & 0xffffffffffffffe0\n 16197: u64 [s1 + 0xf8] = a2\n 16201: sp = a2\n 16203: a0 = 0x201a0\n 16208: i32 a0 = a0 + 0\n 16210: i32 a2 = a2 + 0\n 16212: a1 = 0x40\n 16215: ra = 0x210\n 16219: ecalli 6 // 'hash_keccak_256'\n 16221: a3 = u64 [s1 + 0xf8]\n 16225: t0 = 0x212\n 16229: jump @968\n      : @578 [@dyn 264] (gas: 2)\n 16232: a3 = u64 [s1 + 0xf8]\n 16236: t0 = 530, jump @968\n      : @579 [@dyn 265] (gas: 8)\n 16242: a5 = a4 + 0x200\n 16246: u64 [a5 + 0xc0] = a3\n 16250: u64 [a5 + 0xb8] = a2\n 16254: u64 [a5 + 0xb0] = a1\n 16258: u64 [a5 + 0xa8] = a0\n 16262: a0 = s1 + 0x1120\n 16266: a1 = s1 + 0x1b20\n 16270: ra = 532, jump @21\n      : @580 [@dyn 266] (gas: 3)\n 16276: t0 = 0x216\n 16280: a1 = s1 + 0x1078\n 16284: fallthrough\n      : @581 [@dyn 267] (gas: 11)\n 16285: a0 = u64 [a1 + 0xc0]\n 16289: u64 [s1 + 0xf8] = a0\n 16293: a0 = u64 [a1 + 0xb8]\n 16297: u64 [s1 + 0xf0] = a0\n 16301: a0 = u64 [a1 + 0xb0]\n 16305: u64 [s1 + 0xe8] = a0\n 16309: a0 = u64 [a1 + 0xa8]\n 16313: u64 [s1 + 0xe0] = a0\n 16317: a0 = s1 + 0x1100\n 16321: a1 = 0x40\n 16324: ra = 536, jump @17\n      : @582 [@dyn 268] (gas: 13)\n 16330: a3 = s1 + 0x1078\n 16334: a0 = u64 [a3 + 0xa0]\n 16338: a1 = u64 [a3 + 0x98]\n 16342: a2 = u64 [a3 + 0x90]\n 16346: a4 = u64 [a3 + 0x88]\n 16350: a0 = a0 | a2\n 16353: a2 = a4 | a1\n 16356: a2 = a2 | a0\n 16359: a2 = a2 >> 0x20\n 16362: a0 = a0 | a1\n 16365: a0 = a0 << 0x20\n 16368: a0 = a0 | a2\n 16371: jump @635 if a0 != 0\n      : @583 (gas: 12)\n 16375: a0 = u64 [s1 + 0xe0]\n 16379: u64 [a3 + 0x68] = a0\n 16382: a0 = u64 [s1 + 0xe8]\n 16386: u64 [a3 + 0x70] = a0\n 16389: a0 = u64 [s1 + 0xf0]\n 16393: u64 [a3 + 0x78] = a0\n 16396: a1 = s1 + 0x10e0\n 16400: a0 = u64 [s1 + 0xf8]\n 16404: u64 [a3 + 0x80] = a0\n 16408: a0 = a4\n 16410: u64 [s1 + 0xf8] = a4\n 16414: ra = 538, jump @19\n      : @584 [@dyn 269] (gas: 3)\n 16420: a1 = 0x20\n 16423: a0 = u64 [s1 + 0xf8]\n 16427: ra = 540, jump @26\n      : @585 [@dyn 270] (gas: 5)\n 16433: i32 a1 = a0 + 0\n 16435: a2 = 0x20\n 16438: a0 = 0\n 16440: ecalli 7 // 'seal_return'\n 16442: fallthrough\n      : @586 (gas: 7)\n 16443: u64 [s1 + 632] = 0\n 16447: u64 [s1 + 624] = 0\n 16451: u64 [s1 + 616] = 0\n 16455: a1 = s1 + 0x260\n 16459: u64 [s1 + 608] = 0x3\n 16464: a0 = 0\n 16466: ra = 542, jump @19\n      : @587 [@dyn 271] (gas: 21)\n 16472: a0 = sp + 0xffffffffffffffe0\n 16475: a1 = a0 & 0xffffffffffffffe0\n 16478: sp = a1\n 16480: u64 [s1 + 248] = 0\n 16484: a5 = 0\n 16486: t2 = 0\n 16488: t1 = 0\n 16490: t0 = u64 [0x20130]\n 16495: a2 = u64 [0x20138]\n 16500: ra = u64 [0x20140]\n 16505: a0 = u64 [0x20148]\n 16510: u64 [a1 + 0x18] = t0\n 16513: u64 [s1 + 0xd0] = a2\n 16517: u64 [a1 + 0x10] = a2\n 16520: u64 [a1 + 0x8] = ra\n 16523: a2 = a0\n 16525: u64 [a1] = a0\n 16527: a0 = 0xffffff60\n 16537: u64 [s1 + 0x98] = a0\n 16541: u64 [s1 + 0x90] = a1\n 16545: fallthrough\n      : @588 (gas: 19)\n 16546: u64 [s1 + 0xd8] = a2\n 16550: a0 = u64 [s1 + 0xb8]\n 16554: a2 = u64 [s1 + 0xf8]\n 16558: a0 = a2 <u a0\n 16561: a2 = u64 [s1 + 0xa8]\n 16565: a3 = a5 ^ a2\n 16568: u64 [s1 + 0xf0] = a5\n 16572: a2 = a5 <u a2\n 16575: a2 = a0 if a3 == 0\n 16578: a4 = u64 [s1 + 0xb0]\n 16582: a0 = t2 <u a4\n 16585: a3 = u64 [s1 + 0xa0]\n 16589: a5 = t1 ^ a3\n 16592: a3 = t1 <u a3\n 16595: a3 = a0 if a5 == 0\n 16598: a0 = t2 ^ a4\n 16601: a0 = a0 | a5\n 16604: a3 = a2 if a0 == 0\n 16607: jump @593 if a3 == 0\n      : @589 (gas: 6)\n 16611: a0 = s1 + 0x240\n 16615: u64 [s1 + 0xe8] = t1\n 16619: u64 [s1 + 0xc8] = t0\n 16623: u64 [s1 + 0xe0] = t2\n 16627: u64 [s1 + 0xc0] = ra\n 16631: ra = 544, jump @21\n      : @590 [@dyn 272] (gas: 10)\n 16637: a5 = u64 [s1 + 0xe0]\n 16641: a0 = u64 [s1 + 0xe8]\n 16645: a0 = a0 | a5\n 16648: a1 = u64 [s1 + 0xf8]\n 16652: a2 = u64 [s1 + 0x98]\n 16656: a1 = a1 <u a2\n 16659: a2 = u64 [s1 + 0xf0]\n 16663: a1 = 0 if a2 != 0\n 16665: a1 = 0 if a0 != 0\n 16667: jump @635 if a1 == 0\n      : @591 (gas: 13)\n 16671: t0 = u64 [s1 + 0x258]\n 16675: a2 = s1 + 0x200\n 16679: a1 = u64 [a2 + 0x50]\n 16682: a3 = u64 [a2 + 0x48]\n 16685: a4 = u64 [a2 + 0x40]\n 16688: a0 = u64 [s1 + 0xf8]\n 16692: i32 a0 = a0 + 0xa0\n 16696: u64 [a2 + 0x20] = a4\n 16699: u64 [a2 + 0x28] = a3\n 16702: u64 [a2 + 0x30] = a1\n 16705: a1 = s1 + 0x220\n 16709: u64 [s1 + 0x238] = t0\n 16713: ra = 546, jump @19\n      : @592 [@dyn 273] (gas: 36)\n 16719: t1 = u64 [s1 + 0xe8]\n 16723: a5 = u64 [s1 + 0xd8]\n 16727: a5 = a5 + 0x1\n 16730: a0 = a5 <u 0x1\n 16733: ra = u64 [s1 + 0xc0]\n 16737: ra = ra + a0\n 16740: a0 = a5 | ra\n 16743: a0 = a0 <u 0x1\n 16746: a1 = u64 [s1 + 0xd0]\n 16750: a0 = a0 + a1\n 16753: a1 = a0 <u a1\n 16756: a3 = u64 [s1 + 0xc8]\n 16760: a3 = a3 + a1\n 16763: a1 = u64 [s1 + 0xf8]\n 16767: t0 = a1 + 0x20\n 16770: a2 = t0 <u a1\n 16773: a4 = u64 [s1 + 0xf0]\n 16777: t2 = a4 + a2\n 16780: a4 = t2 <u a4\n 16783: a4 = a2 if a2 == 0\n 16786: a1 = u64 [s1 + 0xe0]\n 16790: a4 = a4 + a1\n 16793: a2 = a4 <u a1\n 16796: t1 = t1 + a2\n 16799: a1 = u64 [s1 + 0x90]\n 16803: u64 [a1 + 0x8] = ra\n 16806: a2 = a5\n 16808: u64 [a1] = a5\n 16810: u64 [a1 + 0x10] = a0\n 16813: u64 [a1 + 0x18] = a3\n 16816: u64 [s1 + 0xd0] = a0\n 16820: u64 [s1 + 0xf8] = t0\n 16824: a5 = t2\n 16826: t2 = a4\n 16828: t0 = a3\n 16830: jump @588\n      : @593 (gas: 11)\n 16833: a0 = u64 [s1 + 0xf8]\n 16837: a3 = a0 + 0xa0\n 16841: a0 = a3 <u a0\n 16844: a2 = u64 [s1 + 0xf0]\n 16848: a1 = a2 + a0\n 16851: a2 = a1 <u a2\n 16854: a2 = a0 if a0 == 0\n 16857: a0 = t2 + a2\n 16860: t0 = a0 <u t2\n 16863: t0 = t0 + t1\n 16866: fallthrough\n      : @594 (gas: 24)\n 16867: a4 = a3 + 0xffffffffffffff80\n 16870: a3 = a4 <u a3\n 16873: a5 = a1 + a3\n 16876: a5 = a5 + 0xffffffffffffffff\n 16879: a2 = a5 ^ a1\n 16882: a1 = a5 <u a1\n 16885: a1 = a3 if a2 == 0\n 16888: a2 = a0 + 0xffffffffffffffff\n 16891: a1 = a1 + a2\n 16894: a2 = a1 <u a2\n 16897: a0 = a0 <u 0x1\n 16900: a0 = t0 - a0\n 16903: a2 = a2 + a0\n 16906: u64 [s1 + 504] = 0\n 16910: u64 [s1 + 496] = 0\n 16914: u64 [s1 + 488] = 0\n 16918: u64 [s1 + 480] = 0x80\n 16924: u64 [s1 + 0x1c0] = a4\n 16928: u64 [s1 + 0x1c8] = a5\n 16932: u64 [s1 + 0x1d0] = a1\n 16936: a0 = s1 + 0x1e0\n 16940: a1 = s1 + 0x1c0\n 16944: u64 [s1 + 0x1d8] = a2\n 16948: ra = 548, jump @844\n      : @595 [@dyn 274] (gas: 3)\n 16954: a0 = s1 + 0x1a0\n 16958: a1 = 0x40\n 16961: ra = 550, jump @17\n      : @596 [@dyn 275] (gas: 21)\n 16967: a5 = s1 + 0x100\n 16971: a2 = u64 [a5 + 0xb8]\n 16975: u64 [s1 + 0xf8] = a2\n 16979: a1 = u64 [a5 + 0xb0]\n 16983: u64 [s1 + 0xf0] = a1\n 16987: a3 = u64 [a5 + 0xa8]\n 16991: u64 [s1 + 0xe8] = a3\n 16995: a4 = u64 [a5 + 0xa0]\n 16999: u64 [s1 + 0xe0] = a4\n 17003: u64 [s1 + 344] = 0\n 17007: u64 [s1 + 336] = 0\n 17011: u64 [s1 + 328] = 0\n 17015: u64 [a5 + 64] = 0x80\n 17020: u64 [a5 + 0x78] = a2\n 17023: u64 [a5 + 0x70] = a1\n 17026: u64 [a5 + 0x68] = a3\n 17029: a0 = s1 + 0x180\n 17033: a1 = s1 + 0x160\n 17037: a2 = s1 + 0x140\n 17041: u64 [a5 + 0x60] = a4\n 17044: ra = 552, jump @815\n      : @597 [@dyn 276] (gas: 1)\n 17050: t0 = 554, jump @984\n      : @598 [@dyn 277] (gas: 1)\n 17056: jump @635 if a0 != 0\n      : @599 (gas: 8)\n 17060: t0 = a3\n 17062: a5 = s1 + 0x100\n 17066: a0 = u64 [a5 + 0x88]\n 17070: a1 = u64 [a5 + 0x98]\n 17074: u64 [s1 + 0xd8] = a1\n 17078: t1 = u64 [s1 + 0x180]\n 17082: a3 = u64 [a5 + 0x90]\n 17086: jump @634\n      : @600 (gas: 8)\n 17089: a2 = s1 + 0x1078\n 17093: u64 [a2 + 896] = 0\n 17097: u64 [a2 + 888] = 0\n 17101: u64 [a2 + 880] = 0\n 17105: a1 = s1 + 0x13e0\n 17109: u64 [a2 + 872] = 0x4\n 17114: a0 = 0\n 17116: ra = 556, jump @19\n      : @601 [@dyn 278] (gas: 37)\n 17122: a0 = sp + 0xffffffffffffffe0\n 17125: a4 = a0 & 0xffffffffffffffe0\n 17128: sp = a4\n 17130: u64 [s1 + 248] = 0\n 17134: t2 = 0\n 17136: t1 = 0\n 17138: t0 = 0\n 17140: ra = u64 [0x20078]\n 17145: a3 = u64 [0x20080]\n 17150: a1 = u64 [s1 + 0x70]\n 17153: a0 = a1 + 0x20\n 17156: u64 [s1 + 0x98] = a0\n 17160: a0 = a0 <u a1\n 17163: a1 = u64 [s1 + 0x68]\n 17166: a2 = a1 + a0\n 17169: u64 [s1 + 0x90] = a2\n 17173: a1 = a2 <u a1\n 17176: a1 = a0 if a0 == 0\n 17179: a5 = u64 [0x20088]\n 17184: a0 = u64 [0x20090]\n 17189: u64 [a4 + 0x18] = ra\n 17192: u64 [s1 + 0xc0] = a3\n 17196: u64 [a4 + 0x10] = a3\n 17199: u64 [s1 + 0xd0] = a5\n 17203: u64 [a4 + 0x8] = a5\n 17206: a5 = a4\n 17208: a2 = a0\n 17210: u64 [a4] = a0\n 17212: a0 = u64 [s1 + 0x60]\n 17215: a1 = a1 + a0\n 17218: u64 [s1 + 0x88] = a1\n 17222: a0 = a1 <u a0\n 17225: a1 = u64 [s1 + 0x58]\n 17228: a0 = a0 + a1\n 17231: u64 [s1 + 0x80] = a0\n 17235: u64 [s1 + 0x78] = a4\n 17238: fallthrough\n      : @602 (gas: 19)\n 17239: u64 [s1 + 0xc8] = a2\n 17243: u64 [s1 + 0xd8] = ra\n 17247: a0 = u64 [s1 + 0xb8]\n 17251: a1 = u64 [s1 + 0xf8]\n 17255: a0 = a1 <u a0\n 17258: a2 = u64 [s1 + 0xa8]\n 17262: a1 = t2 ^ a2\n 17265: a2 = t2 <u a2\n 17268: a2 = a0 if a1 == 0\n 17271: a4 = u64 [s1 + 0xb0]\n 17275: a0 = t1 <u a4\n 17278: a3 = u64 [s1 + 0xa0]\n 17282: a1 = t0 ^ a3\n 17285: a3 = t0 <u a3\n 17288: a3 = a0 if a1 == 0\n 17291: a0 = t1 ^ a4\n 17294: a0 = a0 | a1\n 17297: a3 = a2 if a0 == 0\n 17300: jump @627 if a3 == 0\n      : @603 (gas: 6)\n 17304: a0 = s1 + 0x13c0\n 17308: a1 = a5\n 17310: u64 [s1 + 0xf0] = t0\n 17314: u64 [s1 + 0xe8] = t1\n 17318: u64 [s1 + 0xe0] = t2\n 17322: ra = 558, jump @21\n      : @604 [@dyn 279] (gas: 30)\n 17328: t2 = u64 [s1 + 0xf8]\n 17332: t1 = u64 [s1 + 0xe0]\n 17336: ra = u64 [s1 + 0xe8]\n 17340: a1 = u64 [s1 + 0x98]\n 17344: a0 = a1 + t2\n 17347: a1 = a0 <u a1\n 17350: a4 = u64 [s1 + 0x90]\n 17354: a2 = a4 + t1\n 17357: a2 = a2 + a1\n 17360: a5 = a2 ^ a4\n 17363: a4 = a2 <u a4\n 17366: a4 = a1 if a5 == 0\n 17369: a5 = u64 [s1 + 0x88]\n 17373: a1 = a5 + ra\n 17376: t0 = a1 <u a5\n 17379: a5 = u64 [s1 + 0xf0]\n 17383: a3 = u64 [s1 + 0x80]\n 17387: a5 = a5 + a3\n 17390: a5 = a5 + t0\n 17393: a4 = a4 + a1\n 17396: a1 = a4 <u a1\n 17399: a1 = a1 + a5\n 17402: a1 = a1 | a2\n 17405: a2 = a0 | a4\n 17408: a2 = a2 | a1\n 17411: a1 = a1 | a4\n 17414: a2 = a2 >> 0x20\n 17417: a1 = a1 << 0x20\n 17420: a1 = a1 | a2\n 17423: jump @635 if a1 != 0\n      : @605 (gas: 13)\n 17427: a5 = s1 + 0x1078\n 17431: t0 = u64 [a5 + 0x360]\n 17435: a3 = a5 + 0x300\n 17439: a1 = u64 [a3 + 0x58]\n 17442: a2 = u64 [a3 + 0x50]\n 17445: a4 = u64 [a3 + 0x48]\n 17448: u64 [a3 + 0x28] = a4\n 17451: u64 [a3 + 0x30] = a2\n 17454: u64 [a3 + 0x38] = a1\n 17457: a1 = s1 + 0x13a0\n 17461: u64 [a5 + 0x340] = t0\n 17465: u64 [s1 + 0xf8] = t2\n 17469: ra = 560, jump @19\n      : @606 [@dyn 280] (gas: 39)\n 17475: t0 = u64 [s1 + 0xf0]\n 17479: a3 = u64 [s1 + 0xc8]\n 17483: a3 = a3 + 0x1\n 17486: a0 = a3 <u 0x1\n 17489: ra = u64 [s1 + 0xd0]\n 17493: ra = ra + a0\n 17496: a0 = a3 | ra\n 17499: a0 = a0 <u 0x1\n 17502: a1 = u64 [s1 + 0xc0]\n 17506: t2 = a1 + a0\n 17509: a1 = t2 <u a1\n 17512: a0 = u64 [s1 + 0xd8]\n 17516: a0 = a0 + a1\n 17519: a1 = u64 [s1 + 0xf8]\n 17523: t1 = a1 + 0x20\n 17526: a2 = t1 <u a1\n 17529: a4 = u64 [s1 + 0xe0]\n 17533: a1 = a4 + a2\n 17536: a4 = a1 <u a4\n 17539: a4 = a2 if a2 == 0\n 17542: a2 = u64 [s1 + 0xe8]\n 17546: a4 = a4 + a2\n 17549: a2 = a4 <u a2\n 17552: t0 = t0 + a2\n 17555: a2 = ra\n 17557: u64 [s1 + 0xd0] = a2\n 17561: a5 = u64 [s1 + 0x78]\n 17564: u64 [a5 + 0x8] = a2\n 17567: a2 = a3\n 17569: u64 [a5] = a3\n 17571: a3 = t2\n 17573: u64 [a5 + 0x10] = a3\n 17576: ra = a0\n 17578: u64 [a5 + 0x18] = a0\n 17581: u64 [s1 + 0xc0] = a3\n 17585: u64 [s1 + 0xf8] = t1\n 17589: t2 = a1\n 17591: t1 = a4\n 17593: jump @602\n      : @607 (gas: 5)\n 17596: a0 = s1 + 0x2000\n 17600: i32 a0 = a0 + 0xfffffffffffffaa0\n 17604: a1 = 0x24\n 17607: ecalli 1 // 'call_data_load'\n 17609: fallthrough\n      : @608 (gas: 12)\n 17610: t0 = s1 + 0x1878\n 17614: a0 = t0 + 0x200\n 17618: a5 = u64 [a0 + 0x40]\n 17621: a3 = u64 [a0 + 0x38]\n 17624: a4 = u64 [a0 + 0x30]\n 17627: a0 = a5 >u 0\n 17629: a1 = a3 >u 0\n 17631: a1 = a0 if a5 != 0\n 17634: a0 = a3 | a5\n 17637: a2 = a4 >u 0\n 17639: a2 = a1 if a0 != 0\n 17642: jump @610 if a2 == 0\n      : @609 (gas: 1)\n 17645: jump @785\n      : @610 (gas: 19)\n 17648: a1 = u64 [t0 + 0x228]\n 17652: a0 = u64 [s1 + 0x38]\n 17655: t2 = u32 [a0]\n 17657: a0 = a1 + 0x23\n 17660: a2 = a0 <u a1\n 17663: t0 = a4 + a2\n 17666: u64 [s1 + 0xa8] = a4\n 17670: a4 = t0 <u a4\n 17673: a4 = a2 if a2 == 0\n 17676: a4 = a4 + a3\n 17679: u64 [s1 + 0xb0] = a3\n 17683: a2 = a4 <u a3\n 17686: u64 [s1 + 0xb8] = a5\n 17690: a2 = a2 + a5\n 17693: a2 = a2 | a4\n 17696: a0 = a0 <u t2\n 17699: a0 = 0 if t0 != 0\n 17701: a0 = 0 if a2 != 0\n 17703: jump @612 if a0 != 0\n      : @611 (gas: 1)\n 17706: jump @786\n      : @612 (gas: 26)\n 17709: u64 [s1 + 0xa0] = a1\n 17713: i32 a1 = a1 + 0x4\n 17716: a0 = s1 + 0x2000\n 17720: i32 a0 = a0 + 0xfffffffffffffac0\n 17724: ecalli 1 // 'call_data_load'\n 17726: a0 = s1 + 0x1878\n 17730: a5 = a0 + 0x200\n 17734: a3 = u64 [a5 + 0x60]\n 17737: a1 = u64 [a5 + 0x58]\n 17740: a2 = u64 [a5 + 0x50]\n 17743: a4 = u64 [a5 + 0x48]\n 17746: a5 = s1 + 0x7ff\n 17750: a5 = a5 + 0x79\n 17753: u64 [s1 + 0xe8] = a3\n 17757: u64 [a5 + 0x780] = a3\n 17761: u64 [s1 + 0xf0] = a1\n 17765: a3 = a5 + 0x700\n 17769: u64 [a3 + 0x78] = a1\n 17772: u64 [s1 + 0xf8] = a2\n 17776: u64 [a3 + 0x70] = a2\n 17779: a0 = s1 + 0x1000\n 17783: a1 = s1 + 0x7ff\n 17787: a1 = a1 + 0x7e1\n 17791: u64 [s1 + 0xe0] = a4\n 17795: u64 [a3 + 0x68] = a4\n 17798: ra = 562, jump @854\n      : @613 [@dyn 281] (gas: 15)\n 17804: a0 = s1 + 0x7ff\n 17808: a0 = a0 + 0x79\n 17811: a2 = a0 + 0x700\n 17815: a1 = u64 [a2 + 0x88]\n 17819: u64 [s1 + 0xd8] = a1\n 17823: a1 = u64 [a2 + 0x90]\n 17827: u64 [s1 + 0xd0] = a1\n 17831: a1 = u64 [a2 + 0x98]\n 17835: u64 [s1 + 0xc8] = a1\n 17839: a1 = u64 [a2 + 0xa0]\n 17843: u64 [s1 + 0xc0] = a1\n 17847: a0 = s1 + 0x7ff\n 17851: a0 = a0 + 0x7c1\n 17855: a1 = 0x40\n 17858: ra = 564, jump @17\n      : @614 [@dyn 282] (gas: 29)\n 17864: a0 = s1 + 0x7ff\n 17868: a0 = a0 + 0x79\n 17871: a2 = u64 [a0 + 0x760]\n 17875: u64 [s1 + 0x50] = a2\n 17878: a1 = u64 [a0 + 0x758]\n 17882: u64 [s1 + 0x48] = a1\n 17885: a4 = u64 [a0 + 0x750]\n 17889: u64 [s1 + 0x40] = a4\n 17892: a5 = u64 [a0 + 0x748]\n 17896: u64 [s1 + 0x78] = a5\n 17899: a3 = u64 [s1 + 0xc0]\n 17903: u64 [a0 + 0x720] = a3\n 17907: a3 = u64 [s1 + 0xc8]\n 17911: u64 [a0 + 0x718] = a3\n 17915: a3 = u64 [s1 + 0xd0]\n 17919: u64 [a0 + 0x710] = a3\n 17923: a3 = u64 [s1 + 0xd8]\n 17927: u64 [a0 + 0x708] = a3\n 17931: a3 = a0 + 0x700\n 17935: u64 [a3 + 0x40] = a2\n 17938: u64 [a3 + 0x38] = a1\n 17941: u64 [a3 + 0x30] = a4\n 17944: a2 = a0\n 17946: a0 = s1 + 0x7ff\n 17950: a0 = a0 + 0x7a1\n 17954: a1 = s1 + 0x7ff\n 17958: a1 = a1 + 0x781\n 17962: u64 [a2 + 0x728] = a5\n 17966: ra = 566, jump @844\n      : @615 [@dyn 283] (gas: 12)\n 17972: a0 = u64 [s1 + 0x78]\n 17975: a1 = u64 [s1 + 0x50]\n 17978: a2 = u64 [s1 + 0x40]\n 17981: a2 = a2 | a1\n 17984: a3 = u64 [s1 + 0x48]\n 17987: a1 = a0 | a3\n 17990: a1 = a1 | a2\n 17993: a1 = a1 >> 0x20\n 17996: a2 = a2 | a3\n 17999: a2 = a2 << 0x20\n 18002: a1 = a1 | a2\n 18005: jump @635 if a1 != 0\n      : @616 (gas: 14)\n 18009: a2 = s1 + 0x7ff\n 18013: a2 = a2 + 0x79\n 18016: a1 = u64 [s1 + 0xe0]\n 18020: a3 = a2 + 0x600\n 18024: u64 [a3 + 0xe8] = a1\n 18028: a1 = u64 [s1 + 0xf8]\n 18032: u64 [a3 + 0xf0] = a1\n 18036: a1 = u64 [s1 + 0xf0]\n 18040: u64 [a3 + 0xf8] = a1\n 18044: a1 = s1 + 0x7ff\n 18048: a1 = a1 + 0x761\n 18052: a3 = u64 [s1 + 0xe8]\n 18056: u64 [a2 + 0x700] = a3\n 18060: ra = 568, jump @19\n      : @617 [@dyn 284] (gas: 1)\n 18066: t0 = 570, jump @992\n      : @618 [@dyn 285] (gas: 50)\n 18072: t0 = t2 <u a0\n 18075: a0 = u64 [s1 + 0xa8]\n 18079: ra = a0 + t0\n 18082: a1 = a1 + ra\n 18085: a2 = a2 + t2\n 18088: u64 [s1 + 0xa0] = a2\n 18092: a2 = a2 <u t2\n 18095: t1 = a1 + a2\n 18098: a3 = t1 ^ ra\n 18101: a5 = t1 <u ra\n 18104: a5 = a2 if a3 == 0\n 18107: a2 = u64 [s1 + 0xe8]\n 18111: a2 = a2 << 0x5\n 18114: a4 = u64 [s1 + 0xf0]\n 18118: a3 = a4 >> 0x3b\n 18121: a2 = a2 | a3\n 18124: a3 = u64 [s1 + 0xf8]\n 18128: a3 = a3 >> 0x3b\n 18131: a4 = a4 << 0x5\n 18134: a3 = a3 | a4\n 18137: a4 = ra <u a0\n 18140: a4 = t0 if t0 == 0\n 18143: a0 = u64 [s1 + 0xb0]\n 18147: t0 = a0 + a4\n 18150: a0 = t0 <u a0\n 18153: a4 = u64 [s1 + 0xb8]\n 18157: a4 = a4 + a0\n 18160: a1 = t0 + a3\n 18163: a2 = a2 + a4\n 18166: a0 = a1 <u t0\n 18169: a0 = a0 + a2\n 18172: a3 = a1 + a5\n 18175: a1 = a3 <u a1\n 18178: a5 = a0 + a1\n 18181: a0 = u64 [s1 + 0x38]\n 18184: a0 = u32 [a0]\n 18186: a1 = a5 <u 0x1\n 18189: a2 = a3 <u 0x1\n 18192: a2 = a1 if a5 != 0\n 18195: a1 = u64 [s1 + 0xa0]\n 18199: a0 = a0 <u a1\n 18202: a0 = a0 ^ 0x1\n 18205: a1 = t1 <u 0x1\n 18208: u64 [s1 + 0x98] = t1\n 18212: a0 = a1 if t1 != 0\n 18215: u64 [s1 + 0x90] = a3\n 18219: u64 [s1 + 0x88] = a5\n 18223: a1 = a3 | a5\n 18226: a0 = a2 if a1 != 0\n 18229: jump @620 if a0 != 0\n      : @619 (gas: 1)\n 18232: jump @789\n      : @620 (gas: 10)\n 18235: a0 = 0xffffffe0\n 18245: u64 [s1 + 0x80] = a0\n 18249: a0 = u64 [s1 + 0x78]\n 18252: u64 [s1 + 0xf0] = a0\n 18256: a0 = u64 [s1 + 0x40]\n 18259: u64 [s1 + 0xe8] = a0\n 18263: t1 = u64 [s1 + 0x48]\n 18266: a0 = u64 [s1 + 0x50]\n 18269: u64 [s1 + 0xf8] = a0\n 18273: fallthrough\n      : @621 (gas: 16)\n 18274: a0 = u64 [s1 + 0xa0]\n 18278: a0 = t2 <u a0\n 18281: a2 = u64 [s1 + 0x98]\n 18285: a1 = ra ^ a2\n 18288: a2 = ra <u a2\n 18291: a2 = a0 if a1 == 0\n 18294: a0 = u64 [s1 + 0x90]\n 18298: a5 = t0 <u a0\n 18301: a3 = u64 [s1 + 0x88]\n 18305: a1 = a4 ^ a3\n 18308: a3 = a4 <u a3\n 18311: a3 = a5 if a1 == 0\n 18314: a0 = t0 ^ a0\n 18317: a0 = a0 | a1\n 18320: a3 = a2 if a0 == 0\n 18323: jump @636 if a3 == 0\n      : @622 (gas: 8)\n 18327: a0 = t2 | t0\n 18330: a1 = ra | a4\n 18333: a0 = a0 | a1\n 18336: a0 = a0 >> 0x20\n 18339: a1 = a1 | t0\n 18342: a1 = a1 << 0x20\n 18345: a0 = a0 | a1\n 18348: jump @635 if a0 != 0\n      : @623 (gas: 10)\n 18352: u64 [s1 + 0xc8] = t0\n 18356: u64 [s1 + 0xd0] = a4\n 18360: u64 [s1 + 0xd8] = ra\n 18364: i32 a1 = t2 + 0\n 18366: a0 = s1 + 0x2000\n 18370: i32 a0 = a0 + 0xfffffffffffffae0\n 18374: u64 [s1 + 0xc0] = t2\n 18378: u64 [s1 + 0xe0] = t1\n 18382: ecalli 1 // 'call_data_load'\n 18384: fallthrough\n      : @624 (gas: 10)\n 18385: a2 = u64 [s1 + 0xe0]\n 18389: a5 = u64 [s1 + 0xf8]\n 18393: a0 = a2 | a5\n 18396: a1 = u64 [s1 + 0x80]\n 18400: a3 = u64 [s1 + 0xf0]\n 18404: a1 = a3 <u a1\n 18407: a4 = u64 [s1 + 0xe8]\n 18411: a1 = 0 if a4 != 0\n 18413: a1 = 0 if a0 != 0\n 18415: jump @635 if a1 == 0\n      : @625 (gas: 28)\n 18419: a1 = a3 + 0x20\n 18422: a0 = a1 <u a3\n 18425: a3 = a1\n 18427: u64 [s1 + 0xa8] = a1\n 18431: a1 = a4 + a0\n 18434: u64 [s1 + 0xb8] = a1\n 18438: a1 = a1 <u a4\n 18441: a1 = a0 if a0 == 0\n 18444: a4 = s1 + 0x1878\n 18448: t0 = u64 [a4 + 0x268]\n 18452: t2 = u64 [a4 + 0x270]\n 18456: a0 = u64 [a4 + 0x278]\n 18460: a4 = u64 [a4 + 0x280]\n 18464: a1 = a1 + a2\n 18467: u64 [s1 + 0xb0] = a1\n 18471: a1 = a1 <u a2\n 18474: a5 = a5 + a1\n 18477: u64 [s1 + 0xf8] = a5\n 18481: a5 = s1 + 0x7ff\n 18485: a5 = a5 + 0x79\n 18488: u64 [a5 + 0x380] = a4\n 18492: u64 [a5 + 0x378] = a0\n 18496: u64 [a5 + 0x370] = t2\n 18500: a1 = s1 + 0x7ff\n 18504: a1 = a1 + 0x3e1\n 18508: u64 [a5 + 0x368] = t0\n 18512: a0 = a3\n 18514: ra = 572, jump @19\n      : @626 [@dyn 286] (gas: 19)\n 18520: a1 = u64 [s1 + 0xc0]\n 18524: a0 = a1 + 0x20\n 18527: a1 = a0 <u a1\n 18530: a3 = u64 [s1 + 0xd8]\n 18534: ra = a3 + a1\n 18537: a3 = ra <u a3\n 18540: a3 = a1 if a1 == 0\n 18543: a1 = u64 [s1 + 0xc8]\n 18547: t0 = a1 + a3\n 18550: a1 = t0 <u a1\n 18553: a4 = u64 [s1 + 0xd0]\n 18557: a4 = a4 + a1\n 18560: a1 = u64 [s1 + 0xa8]\n 18564: u64 [s1 + 0xf0] = a1\n 18568: a1 = u64 [s1 + 0xb8]\n 18572: u64 [s1 + 0xe8] = a1\n 18576: t1 = u64 [s1 + 0xb0]\n 18580: t2 = a0\n 18582: jump @621\n      : @627 (gas: 2)\n 18585: a5 = u64 [s1 + 0x70]\n 18588: fallthrough\n      : @628 (gas: 26)\n 18589: a1 = u64 [s1 + 0xf8]\n 18593: a0 = a1 + 0x20\n 18596: a1 = a0 <u a1\n 18599: a2 = t2 + a1\n 18602: a3 = a2 <u t2\n 18605: a3 = a1 if a1 == 0\n 18608: a3 = a3 + t1\n 18611: a1 = a3 <u t1\n 18614: a4 = t0 + a1\n 18617: a1 = s1 + 0x1078\n 18621: u64 [a1 + 0x2e8] = a5\n 18625: a5 = a1 + 0x200\n 18629: u64 [a5 + 0xc8] = a0\n 18633: a0 = u64 [s1 + 0x68]\n 18636: u64 [a5 + 0xf0] = a0\n 18640: a0 = u64 [s1 + 0x60]\n 18643: u64 [a5 + 0xf8] = a0\n 18647: u64 [a5 + 0xd0] = a2\n 18651: a0 = u64 [s1 + 0x58]\n 18654: u64 [a1 + 0x300] = a0\n 18658: u64 [a5 + 0xd8] = a3\n 18662: a2 = a1\n 18664: a0 = s1 + 0x1360\n 18668: a1 = s1 + 0x1340\n 18672: u64 [a2 + 0x2e0] = a4\n 18676: ra = 574, jump @844\n      : @629 [@dyn 287] (gas: 3)\n 18682: a0 = s1 + 0x1320\n 18686: a1 = 0x40\n 18689: ra = 576, jump @17\n      : @630 [@dyn 288] (gas: 27)\n 18695: a0 = s1 + 0x1078\n 18699: a3 = u64 [a0 + 0x2c0]\n 18703: u64 [s1 + 0xf8] = a3\n 18707: a2 = u64 [a0 + 0x2b8]\n 18711: u64 [s1 + 0xf0] = a2\n 18715: a4 = u64 [a0 + 0x2b0]\n 18719: u64 [s1 + 0xe8] = a4\n 18723: a5 = u64 [a0 + 0x2a8]\n 18727: u64 [s1 + 0xe0] = a5\n 18731: a1 = u64 [s1 + 0x58]\n 18734: u64 [a0 + 0x260] = a1\n 18738: a1 = u64 [s1 + 0x60]\n 18741: u64 [a0 + 0x258] = a1\n 18745: a1 = u64 [s1 + 0x68]\n 18748: u64 [a0 + 0x250] = a1\n 18752: a1 = u64 [s1 + 0x70]\n 18755: u64 [a0 + 0x248] = a1\n 18759: a1 = a0 + 0x200\n 18763: u64 [a1 + 0x80] = a3\n 18767: u64 [a1 + 0x78] = a2\n 18770: u64 [a1 + 0x70] = a4\n 18773: a3 = a0\n 18775: a0 = s1 + 0x1300\n 18779: a1 = s1 + 0x12e0\n 18783: a2 = s1 + 0x12c0\n 18787: u64 [a3 + 0x268] = a5\n 18791: ra = 578, jump @815\n      : @631 [@dyn 289] (gas: 1)\n 18797: t0 = 580, jump @984\n      : @632 [@dyn 290] (gas: 1)\n 18803: jump @635 if a0 != 0\n      : @633 (gas: 9)\n 18806: t0 = a3\n 18808: a1 = s1 + 0x1078\n 18812: a5 = a1 + 0x200\n 18816: a0 = u64 [a5 + 0x90]\n 18820: a3 = u64 [a5 + 0xa0]\n 18824: u64 [s1 + 0xd8] = a3\n 18828: t1 = u64 [a1 + 0x288]\n 18832: a3 = u64 [a5 + 0x98]\n 18836: fallthrough\n      : @634 (gas: 26)\n 18837: t2 = a0 ^ a4\n 18840: a5 = a0 <u a4\n 18843: ra = t1 <u a2\n 18846: a5 = ra if t2 == 0\n 18849: a1 = a3 - t0\n 18852: t2 = a1 - a5\n 18855: a1 = a1 <u a5\n 18858: u64 [s1 + 0xd0] = a1\n 18862: a3 = a3 <u t0\n 18865: a5 = u64 [s1 + 0xf8]\n 18869: a1 = u64 [s1 + 0xd8]\n 18873: a5 = a1 - a5\n 18876: a5 = a5 - a3\n 18879: a1 = u64 [s1 + 0xd0]\n 18883: a5 = a5 - a1\n 18886: a0 = a0 - a4\n 18889: a0 = a0 - ra\n 18892: a1 = t1 - a2\n 18895: a0 = a0 | a5\n 18898: a3 = a1 | t2\n 18901: a3 = a3 | a0\n 18904: a0 = a0 | t2\n 18907: a3 = a3 >> 0x20\n 18910: a0 = a0 << 0x20\n 18913: a0 = a0 | a3\n 18916: jump @774 if a0 == 0\n      : @635 (gas: 1)\n 18920: trap\n      : @636 (gas: 1)\n 18921: ra = 582, jump @923\n      : @637 [@dyn 291] (gas: 4)\n 18927: a0 = s1 + 0x7ff\n 18931: a0 = a0 + 0x741\n 18935: a1 = u64 [s1 + 0x70]\n 18938: ra = 584, jump @17\n      : @638 [@dyn 292] (gas: 15)\n 18944: a1 = s1 + 0x7ff\n 18948: a1 = a1 + 0x79\n 18951: a2 = a1 + 0x600\n 18955: a0 = u64 [a2 + 0xc8]\n 18959: u64 [s1 + 0xf8] = a0\n 18963: a0 = u64 [a2 + 0xd8]\n 18967: u64 [s1 + 0xf0] = a0\n 18971: a0 = u64 [a2 + 0xd0]\n 18975: u64 [s1 + 0xe8] = a0\n 18979: a0 = u64 [a2 + 0xe0]\n 18983: u64 [s1 + 0xe0] = a0\n 18987: a0 = s1 + 0x7ff\n 18991: a0 = a0 + 0x721\n 18995: a1 = u64 [s1 + 0x78]\n 18998: ra = 586, jump @17\n      : @639 [@dyn 293] (gas: 19)\n 19004: a3 = s1 + 0x7ff\n 19008: a3 = a3 + 0x79\n 19011: a4 = a3 + 0x600\n 19015: a0 = u64 [a4 + 0xc0]\n 19019: a1 = u64 [a4 + 0xb0]\n 19023: a2 = u64 [a4 + 0xa8]\n 19027: a3 = u64 [a4 + 0xb8]\n 19031: a4 = u64 [s1 + 0xe0]\n 19035: a0 = a0 ^ a4\n 19038: a4 = u64 [s1 + 0xe8]\n 19042: a1 = a1 ^ a4\n 19045: a0 = a0 | a1\n 19048: a1 = u64 [s1 + 0xf0]\n 19052: a1 = a1 ^ a3\n 19055: a3 = u64 [s1 + 0xf8]\n 19059: a2 = a2 ^ a3\n 19062: a1 = a1 | a2\n 19065: a0 = a0 | a1\n 19068: jump @658 if a0 != 0\n      : @640 (gas: 7)\n 19072: u64 [s1 + 248] = 0\n 19076: u64 [s1 + 240] = 0\n 19080: u64 [s1 + 224] = 0\n 19084: u64 [s1 + 232] = 0\n 19088: a0 = 0xffffffff\n 19098: u64 [s1 + 0xd8] = a0\n 19102: fallthrough\n      : @641 (gas: 4)\n 19103: a0 = s1 + 0x7ff\n 19107: a0 = a0 + 0x661\n 19111: a1 = u64 [s1 + 0x70]\n 19114: ra = 588, jump @17\n      : @642 [@dyn 294] (gas: 22)\n 19120: a4 = s1 + 0x7ff\n 19124: a4 = a4 + 0x79\n 19127: a0 = u64 [a4 + 0x5f0]\n 19131: a1 = u64 [a4 + 0x600]\n 19135: a2 = u64 [a4 + 0x5e8]\n 19139: t2 = u64 [a4 + 0x5f8]\n 19143: ra = u64 [s1 + 0xf0]\n 19147: t1 = ra ^ a0\n 19150: a0 = ra <u a0\n 19153: t0 = u64 [s1 + 0xf8]\n 19157: a2 = t0 <u a2\n 19160: a2 = a0 if t1 != 0\n 19163: a5 = u64 [s1 + 0xe0]\n 19167: a0 = a5 <u t2\n 19170: a3 = u64 [s1 + 0xe8]\n 19174: t1 = a3 ^ a1\n 19177: a1 = a3 <u a1\n 19180: a1 = a0 if t1 == 0\n 19183: a0 = a5 ^ t2\n 19186: a0 = a0 | t1\n 19189: a1 = a2 if a0 == 0\n 19192: jump @682 if a1 == 0\n      : @643 (gas: 20)\n 19196: u64 [a4 + 0x588] = t0\n 19200: a0 = u64 [s1 + 0x70]\n 19203: u64 [a4 + 0x5a8] = a0\n 19207: u64 [a4 + 0x590] = ra\n 19211: a0 = u64 [s1 + 0x58]\n 19214: u64 [a4 + 0x5b0] = a0\n 19218: u64 [a4 + 0x598] = a5\n 19222: a0 = u64 [s1 + 0x60]\n 19225: a5 = a4 + 0x500\n 19229: u64 [a5 + 0xb8] = a0\n 19233: u64 [a5 + 0xa0] = a3\n 19237: a0 = s1 + 0x7ff\n 19241: a0 = a0 + 0x641\n 19245: a1 = s1 + 0x7ff\n 19249: a1 = a1 + 0x621\n 19253: a2 = s1 + 0x7ff\n 19257: a2 = a2 + 0x601\n 19261: a3 = u64 [s1 + 0x68]\n 19264: u64 [a5 + 0xc0] = a3\n 19268: ra = 590, jump @862\n      : @644 [@dyn 295] (gas: 8)\n 19274: a1 = s1 + 0x7ff\n 19278: a1 = a1 + 0x79\n 19281: a4 = a1 + 0x500\n 19285: a0 = u64 [a4 + 0xe0]\n 19289: a2 = u64 [a4 + 0xd8]\n 19293: a3 = u64 [a4 + 0xd0]\n 19297: a1 = u64 [a4 + 0xc8]\n 19301: t0 = 592, jump @985\n      : @645 [@dyn 296] (gas: 1)\n 19307: jump @635 if a0 != 0\n      : @646 (gas: 3)\n 19311: a0 = s1 + 0x7ff\n 19315: a0 = a0 + 0x5e1\n 19319: ra = 594, jump @17\n      : @647 [@dyn 297] (gas: 13)\n 19325: a5 = s1 + 0x7ff\n 19329: a5 = a5 + 0x79\n 19332: a3 = a5 + 0x500\n 19336: a0 = u64 [a3 + 0x70]\n 19339: a1 = u64 [a3 + 0x78]\n 19342: a2 = u64 [a3 + 0x68]\n 19345: a0 = a0 & 0xffffffffffffffff\n 19348: a4 = u64 [s1 + 0xd8]\n 19352: a1 = a1 & a4\n 19355: a2 = a2 & 0xffffffffffffffff\n 19358: a1 = a1 | a2\n 19361: a0 = a0 | a1\n 19364: jump @669 if a0 == 0\n      : @648 (gas: 24)\n 19368: a0 = u64 [s1 + 0xf8]\n 19372: a3 = a5 + 0x500\n 19376: u64 [a3 + 0x8] = a0\n 19379: a0 = u64 [s1 + 0x70]\n 19382: u64 [a3 + 0x28] = a0\n 19385: a0 = u64 [s1 + 0xf0]\n 19389: u64 [a3 + 0x10] = a0\n 19392: a0 = u64 [s1 + 0x58]\n 19395: u64 [a3 + 0x30] = a0\n 19398: a0 = u64 [s1 + 0xe0]\n 19402: u64 [a3 + 0x18] = a0\n 19405: a0 = u64 [s1 + 0x60]\n 19408: u64 [a3 + 0x38] = a0\n 19411: a0 = u64 [s1 + 0xe8]\n 19415: u64 [a3 + 0x20] = a0\n 19418: a0 = s1 + 0x7ff\n 19422: a0 = a0 + 0x5c1\n 19426: a1 = s1 + 0x7ff\n 19430: a1 = a1 + 0x5a1\n 19434: a2 = s1 + 0x7ff\n 19438: a2 = a2 + 0x581\n 19442: a4 = u64 [s1 + 0x68]\n 19445: u64 [a3 + 0x40] = a4\n 19448: ra = 596, jump @862\n      : @649 [@dyn 298] (gas: 8)\n 19454: a1 = s1 + 0x7ff\n 19458: a1 = a1 + 0x79\n 19461: a4 = a1 + 0x500\n 19465: a0 = u64 [a4 + 0x60]\n 19468: a2 = u64 [a4 + 0x58]\n 19471: a3 = u64 [a4 + 0x50]\n 19474: a1 = u64 [a4 + 0x48]\n 19477: t0 = 598, jump @985\n      : @650 [@dyn 299] (gas: 1)\n 19483: jump @635 if a0 != 0\n      : @651 (gas: 3)\n 19487: a0 = s1 + 0x7ff\n 19491: a0 = a0 + 0x561\n 19495: ra = 600, jump @17\n      : @652 [@dyn 300] (gas: 51)\n 19501: a0 = s1 + 0x7ff\n 19505: a0 = a0 + 0x79\n 19508: a0 = u64 [a0 + 0x4f8]\n 19512: u64 [s1 + 0xd0] = a0\n 19516: a0 = s1 + 0x7ff\n 19520: a0 = a0 + 0x79\n 19523: a0 = u64 [a0 + 0x4f0]\n 19527: u64 [s1 + 0xc8] = a0\n 19531: a0 = s1 + 0x7ff\n 19535: a0 = a0 + 0x79\n 19538: a0 = u64 [a0 + 0x4e8]\n 19542: u64 [s1 + 0xc0] = a0\n 19546: a0 = s1 + 0x7ff\n 19550: a0 = a0 + 0x79\n 19553: a1 = u64 [s1 + 0xe8]\n 19557: u64 [a0 + 0x4a0] = a1\n 19561: a0 = s1 + 0x7ff\n 19565: a0 = a0 + 0x79\n 19568: a1 = u64 [s1 + 0xe0]\n 19572: u64 [a0 + 0x498] = a1\n 19576: a0 = s1 + 0x7ff\n 19580: a0 = a0 + 0x79\n 19583: a1 = u64 [s1 + 0xf0]\n 19587: u64 [a0 + 0x490] = a1\n 19591: a0 = s1 + 0x7ff\n 19595: a0 = a0 + 0x79\n 19598: a1 = u64 [s1 + 0xf8]\n 19602: u64 [a0 + 0x488] = a1\n 19606: a0 = u64 [s1 + 0x50]\n 19609: a1 = s1 + 0x7ff\n 19613: a1 = a1 + 0x79\n 19616: u64 [a1 + 0x4c0] = a0\n 19620: a0 = u64 [s1 + 0x48]\n 19623: a1 = s1 + 0x7ff\n 19627: a1 = a1 + 0x79\n 19630: u64 [a1 + 0x4b8] = a0\n 19634: a0 = u64 [s1 + 0x40]\n 19637: a1 = s1 + 0x7ff\n 19641: a1 = a1 + 0x79\n 19644: u64 [a1 + 0x4b0] = a0\n 19648: a0 = s1 + 0x7ff\n 19652: a0 = a0 + 0x541\n 19656: a1 = s1 + 0x7ff\n 19660: a1 = a1 + 0x521\n 19664: a2 = s1 + 0x7ff\n 19668: a2 = a2 + 0x501\n 19672: a3 = u64 [s1 + 0x78]\n 19675: a4 = s1 + 0x7ff\n 19679: a4 = a4 + 0x79\n 19682: u64 [a4 + 0x4a8] = a3\n 19686: ra = 602, jump @862\n      : @653 [@dyn 301] (gas: 8)\n 19692: a1 = s1 + 0x7ff\n 19696: a1 = a1 + 0x79\n 19699: a4 = a1 + 0x400\n 19703: a0 = u64 [a4 + 0xe0]\n 19707: a2 = u64 [a4 + 0xd8]\n 19711: a3 = u64 [a4 + 0xd0]\n 19715: a1 = u64 [a4 + 0xc8]\n 19719: t0 = 604, jump @985\n      : @654 [@dyn 302] (gas: 1)\n 19725: jump @635 if a0 != 0\n      : @655 (gas: 13)\n 19729: a2 = u64 [s1 + 0xc0]\n 19733: a2 = a2 & 0xffffffffffffffff\n 19736: u64 [s1 + 0xc0] = a2\n 19740: a2 = u64 [s1 + 0xc8]\n 19744: a0 = a2 & 0xffffffffffffffff\n 19747: u64 [s1 + 0xc8] = a0\n 19751: a0 = u64 [s1 + 0xd8]\n 19755: a2 = u64 [s1 + 0xd0]\n 19759: a0 = a0 & a2\n 19762: u64 [s1 + 0xd0] = a0\n 19766: a0 = s1 + 0x7ff\n 19770: a0 = a0 + 0x4e1\n 19774: ra = 606, jump @17\n      : @656 [@dyn 303] (gas: 23)\n 19780: a4 = s1 + 0x7ff\n 19784: a4 = a4 + 0x79\n 19787: a5 = a4 + 0x400\n 19791: a0 = u64 [a5 + 0x68]\n 19794: a1 = u64 [a5 + 0x70]\n 19797: a2 = u64 [a5 + 0x78]\n 19800: a3 = u64 [a5 + 0x80]\n 19804: u64 [a5 + 0x40] = a3\n 19807: u64 [a5 + 0x38] = a2\n 19810: u64 [a5 + 0x30] = a1\n 19813: u64 [a5 + 0x28] = a0\n 19816: u64 [a4 + 1120] = 0\n 19820: a0 = u64 [s1 + 0xd0]\n 19824: u64 [a5 + 0x58] = a0\n 19827: a0 = u64 [s1 + 0xc8]\n 19831: u64 [a5 + 0x50] = a0\n 19834: a0 = s1 + 0x7ff\n 19838: a0 = a0 + 0x4c1\n 19842: a1 = s1 + 0x7ff\n 19846: a1 = a1 + 0x4a1\n 19850: a2 = u64 [s1 + 0xc0]\n 19854: u64 [a5 + 0x48] = a2\n 19857: ra = 608, jump @932\n      : @657 [@dyn 304] (gas: 17)\n 19863: a1 = u64 [s1 + 0xf8]\n 19867: a1 = a1 + 0x1\n 19870: a0 = a1 <u 0x1\n 19873: a2 = u64 [s1 + 0xf0]\n 19877: a2 = a2 + a0\n 19880: u64 [s1 + 0xf8] = a1\n 19884: u64 [s1 + 0xf0] = a2\n 19888: a0 = a1 | a2\n 19891: a0 = a0 <u 0x1\n 19894: a1 = u64 [s1 + 0xe0]\n 19898: a0 = a0 + a1\n 19901: a1 = a0 <u a1\n 19904: a2 = u64 [s1 + 0xe8]\n 19908: a2 = a2 + a1\n 19911: u64 [s1 + 0xe8] = a2\n 19915: u64 [s1 + 0xe0] = a0\n 19919: jump @641\n      : @658 (gas: 4)\n 19922: a0 = s1 + 0x7ff\n 19926: a0 = a0 + 0x701\n 19930: a1 = 0x40\n 19933: ra = 610, jump @17\n      : @659 [@dyn 305] (gas: 15)\n 19939: a2 = s1 + 0x7ff\n 19943: a2 = a2 + 0x79\n 19946: t0 = u64 [a2 + 0x6a0]\n 19950: a1 = a2 + 0x600\n 19954: a5 = u64 [a1 + 0x98]\n 19958: a4 = u64 [a1 + 0x90]\n 19962: a0 = u64 [a1 + 0x88]\n 19966: a3 = a4 | t0\n 19969: a1 = a0 | a5\n 19972: a1 = a1 | a3\n 19975: a1 = a1 >> 0x20\n 19978: a3 = a3 | a5\n 19981: a3 = a3 << 0x20\n 19984: a1 = a1 | a3\n 19987: jump @635 if a1 != 0\n      : @660 (gas: 12)\n 19991: u64 [a2 + 1656] = 0\n 19995: u64 [a2 + 1648] = 0\n 19999: u64 [a2 + 1640] = 0\n 20003: a3 = 0x8c379a000000000\n 20013: a1 = s1 + 0x7ff\n 20017: a1 = a1 + 0x6e1\n 20021: u64 [a2 + 0x680] = a3\n 20025: u64 [s1 + 0xf8] = a0\n 20029: u64 [s1 + 0xf0] = a4\n 20033: u64 [s1 + 0xe0] = t0\n 20037: u64 [s1 + 0xe8] = a5\n 20041: ra = 612, jump @19\n      : @661 [@dyn 306] (gas: 1)\n 20047: t0 = 614, jump @978\n      : @662 [@dyn 307] (gas: 1)\n 20053: jump @635 if a0 == 0\n      : @663 (gas: 12)\n 20057: i32 a0 = a1 + 0x4\n 20060: a2 = s1 + 0x7ff\n 20064: a2 = a2 + 0x79\n 20067: u64 [a2 + 1632] = 0\n 20071: u64 [a2 + 1624] = 0\n 20075: u64 [a2 + 1608] = 0x20\n 20080: a1 = s1 + 0x7ff\n 20084: a1 = a1 + 0x6c1\n 20088: u64 [a2 + 1616] = 0\n 20092: u64 [s1 + 0xe8] = a3\n 20096: u64 [s1 + 0xe0] = a4\n 20100: ra = 616, jump @19\n      : @664 [@dyn 308] (gas: 9)\n 20106: a3 = u64 [s1 + 0xe8]\n 20110: a2 = u64 [s1 + 0xf0]\n 20114: a1 = u64 [s1 + 0xf8]\n 20118: a0 = u64 [s1 + 0xe0]\n 20122: a0 = a0 + 0xffffffffffffffdc\n 20125: a0 = a1 <u a0\n 20128: a0 = 0 if a2 != 0\n 20130: a0 = 0 if a3 != 0\n 20132: jump @635 if a0 == 0\n      : @665 (gas: 10)\n 20136: i32 a0 = a1 + 0x24\n 20139: a3 = s1 + 0x7ff\n 20143: a3 = a3 + 0x79\n 20146: u64 [a3 + 1600] = 0\n 20150: u64 [a3 + 1592] = 0\n 20154: u64 [a3 + 1576] = 0x16\n 20159: a1 = s1 + 0x7ff\n 20163: a1 = a1 + 0x6a1\n 20167: u64 [a3 + 1584] = 0\n 20171: ra = 618, jump @19\n      : @666 [@dyn 309] (gas: 1)\n 20177: t0 = 620, jump @983\n      : @667 [@dyn 310] (gas: 1)\n 20183: jump @635 if a0 == 0\n      : @668 (gas: 15)\n 20187: i32 a0 = a3 + 0x44\n 20190: a1 = u64 [0x20098]\n 20195: a2 = u64 [0x200a0]\n 20200: a3 = u64 [0x200a8]\n 20205: a4 = s1 + 0x7ff\n 20209: a4 = a4 + 0x79\n 20212: a5 = a4 + 0x600\n 20216: u64 [a5 + 0x20] = a1\n 20219: u64 [a5 + 0x18] = a2\n 20222: u64 [a5 + 0x10] = a3\n 20225: a1 = s1 + 0x7ff\n 20229: a1 = a1 + 0x681\n 20233: u64 [a4 + 1544] = 0\n 20237: ra = 0x276\n 20241: jump @19\n      : @669 (gas: 4)\n 20244: a0 = s1 + 0x7ff\n 20248: a0 = a0 + 0x481\n 20252: a1 = 0x40\n 20255: ra = 622, jump @17\n      : @670 [@dyn 311] (gas: 17)\n 20261: a2 = s1 + 0x7ff\n 20265: a2 = a2 + 0x79\n 20268: a5 = a2 + 0x400\n 20272: a3 = u64 [a5 + 0x20]\n 20275: a4 = u64 [a5 + 0x18]\n 20278: a0 = u64 [a5 + 0x10]\n 20281: a1 = u64 [a5 + 0x8]\n 20284: u64 [s1 + 0xf0] = a0\n 20288: a0 = a0 | a3\n 20291: u64 [s1 + 0xf8] = a1\n 20295: a1 = a1 | a4\n 20298: a1 = a1 | a0\n 20301: a1 = a1 >> 0x20\n 20304: a0 = a0 | a4\n 20307: a0 = a0 << 0x20\n 20310: a0 = a0 | a1\n 20313: jump @635 if a0 != 0\n      : @671 (gas: 11)\n 20317: u64 [a2 + 1016] = 0\n 20321: u64 [a2 + 1008] = 0\n 20325: u64 [a2 + 1000] = 0\n 20329: a0 = 0x8c379a000000000\n 20339: a1 = s1 + 0x7ff\n 20343: a1 = a1 + 0x461\n 20347: u64 [a2 + 0x400] = a0\n 20351: a0 = u64 [s1 + 0xf8]\n 20355: u64 [s1 + 0xe8] = a3\n 20359: u64 [s1 + 0xe0] = a4\n 20363: ra = 624, jump @19\n      : @672 [@dyn 312] (gas: 13)\n 20369: a0 = u64 [s1 + 0xe8]\n 20373: a2 = u64 [s1 + 0xe0]\n 20377: a2 = a2 | a0\n 20380: a0 = 0x100000000\n 20390: u64 [s1 + 0xe0] = a0\n 20394: a0 = 0xfffffffc\n 20404: a1 = u64 [s1 + 0xf8]\n 20408: a0 = a1 <u a0\n 20411: a1 = u64 [s1 + 0xf0]\n 20415: a0 = 0 if a1 != 0\n 20417: u64 [s1 + 0xe8] = a2\n 20421: a0 = 0 if a2 != 0\n 20423: jump @635 if a0 == 0\n      : @673 (gas: 11)\n 20427: a0 = u64 [s1 + 0xf8]\n 20431: i32 a0 = a0 + 0x4\n 20434: a2 = s1 + 0x7ff\n 20438: a2 = a2 + 0x79\n 20441: u64 [a2 + 992] = 0\n 20445: u64 [a2 + 984] = 0\n 20449: u64 [a2 + 968] = 0x20\n 20454: a1 = s1 + 0x7ff\n 20458: a1 = a1 + 0x441\n 20462: u64 [a2 + 976] = 0\n 20466: ra = 626, jump @19\n      : @674 [@dyn 313] (gas: 9)\n 20472: a0 = u64 [s1 + 0xe0]\n 20476: a0 = a0 + 0xffffffffffffffdc\n 20479: a1 = u64 [s1 + 0xf8]\n 20483: a0 = a1 <u a0\n 20486: a1 = u64 [s1 + 0xf0]\n 20490: a0 = 0 if a1 != 0\n 20492: a1 = u64 [s1 + 0xe8]\n 20496: a0 = 0 if a1 != 0\n 20498: jump @635 if a0 == 0\n      : @675 (gas: 11)\n 20502: a0 = u64 [s1 + 0xf8]\n 20506: i32 a0 = a0 + 0x24\n 20509: a2 = s1 + 0x7ff\n 20513: a2 = a2 + 0x79\n 20516: u64 [a2 + 960] = 0\n 20520: u64 [a2 + 952] = 0\n 20524: u64 [a2 + 936] = 0x1b\n 20529: a1 = s1 + 0x7ff\n 20533: a1 = a1 + 0x421\n 20537: u64 [a2 + 944] = 0\n 20541: ra = 628, jump @19\n      : @676 [@dyn 314] (gas: 8)\n 20547: a0 = 0xffffffbc\n 20557: a1 = u64 [s1 + 0xf8]\n 20561: a0 = a1 <u a0\n 20564: a1 = u64 [s1 + 0xf0]\n 20568: a0 = 0 if a1 != 0\n 20570: a1 = u64 [s1 + 0xe8]\n 20574: a0 = 0 if a1 != 0\n 20576: jump @635 if a0 == 0\n      : @677 (gas: 16)\n 20580: a0 = u64 [s1 + 0xf8]\n 20584: i32 a0 = a0 + 0x44\n 20587: a1 = u64 [0x200b0]\n 20592: a2 = u64 [0x200b8]\n 20597: a3 = u64 [0x200c0]\n 20602: a4 = s1 + 0x7ff\n 20606: a4 = a4 + 0x79\n 20609: a5 = a4 + 0x300\n 20613: u64 [a5 + 0xa0] = a1\n 20617: u64 [a5 + 0x98] = a2\n 20621: u64 [a5 + 0x90] = a3\n 20625: a2 = 0x6573730000000000\n 20635: a1 = s1 + 0x7ff\n 20639: a1 = a1 + 0x401\n 20643: u64 [a5 + 0x88] = a2\n 20647: ra = 630, jump @19\n      : @678 [@dyn 315] (gas: 3)\n 20653: a1 = 0x64\n 20656: a0 = u64 [s1 + 0xf8]\n 20660: ra = 632, jump @26\n      : @679 [@dyn 316] (gas: 5)\n 20666: i32 a1 = a0 + 0\n 20668: a0 = 0x1\n 20671: a2 = 0x64\n 20674: ecalli 7 // 'seal_return'\n 20676: fallthrough\n      : @680 (gas: 6)\n 20677: a1 = 0x201a0\n 20682: i32 a1 = a1 + 0\n 20684: a0 = 0x1\n 20687: a2 = 0\n 20689: ecalli 7 // 'seal_return'\n 20691: jump @682\n      : @681 (gas: 5)\n 20693: i32 a1 = a1 + 0\n 20695: a0 = 0x1\n 20698: a2 = 0\n 20700: ecalli 7 // 'seal_return'\n 20702: fallthrough\n      : @682 (gas: 6)\n 20703: a1 = 0x201a0\n 20708: i32 a1 = a1 + 0\n 20710: a0 = 0\n 20712: a2 = 0\n 20714: ecalli 7 // 'seal_return'\n 20716: jump @682\n      : @683 (gas: 2)\n 20718: a1 = 0x201a0\n 20723: jump @681\n      : @684 (gas: 2)\n 20725: a1 = 0x201a0\n 20730: jump @681\n      : @685 (gas: 2)\n 20732: a1 = 0x201a0\n 20737: jump @681\n      : @686 (gas: 2)\n 20739: a1 = 0x201a0\n 20744: jump @681\n      : @687 (gas: 2)\n 20746: a1 = 0x201a0\n 20751: jump @681\n      : @688 (gas: 2)\n 20753: a1 = 0x201a0\n 20758: jump @681\n      : @689 (gas: 6)\n 20760: u64 [s1 + 304] = 0\n 20764: u64 [s1 + 296] = 0\n 20768: u64 [s1 + 288] = 0\n 20772: t0 = 0x27a\n 20776: a0 = 0x4e487b7100000000\n 20786: fallthrough\n      : @690 [@dyn 317] (gas: 4)\n 20787: a1 = s1 + 0x120\n 20791: u64 [s1 + 0x138] = a0\n 20795: a0 = 0\n 20797: ra = 636, jump @19\n      : @691 [@dyn 318] (gas: 7)\n 20803: u64 [s1 + 280] = 0\n 20807: u64 [s1 + 272] = 0\n 20811: u64 [s1 + 256] = 0x22\n 20816: a0 = 0x4\n 20819: a1 = s1 + 0x100\n 20823: u64 [s1 + 264] = 0\n 20827: ra = 638, jump @19\n      : @692 [@dyn 319] (gas: 2)\n 20833: a1 = i32 [0x20194]\n 20838: jump @694 if a1 >u 63\n      : @693 (gas: 3)\n 20842: u32 [0x20194] = 0x40\n 20848: a1 = 0x201a0\n 20853: jump @748\n      : @694 (gas: 2)\n 20856: a1 = 0x201a0\n 20861: jump @748\n      : @695 (gas: 2)\n 20864: a1 = 0x201a0\n 20869: jump @681\n      : @696 (gas: 2)\n 20872: a1 = 0x201a0\n 20877: jump @681\n      : @697 (gas: 2)\n 20880: a1 = 0x201a0\n 20885: jump @681\n      : @698 (gas: 2)\n 20888: a1 = 0x201a0\n 20893: jump @681\n      : @699 (gas: 7)\n 20896: a2 = s1 + 0x1078\n 20900: u64 [a2 + 568] = 0\n 20904: u64 [a2 + 560] = 0\n 20908: u64 [a2 + 552] = 0\n 20912: t0 = 0x280\n 20916: a0 = 0x4e487b7100000000\n 20926: fallthrough\n      : @700 [@dyn 320] (gas: 4)\n 20927: a1 = s1 + 0x12a0\n 20931: u64 [a2 + 0x240] = a0\n 20935: a0 = 0\n 20937: ra = 642, jump @19\n      : @701 [@dyn 321] (gas: 3)\n 20943: t0 = 0x284\n 20947: a1 = s1 + 0x1078\n 20951: fallthrough\n      : @702 [@dyn 322] (gas: 8)\n 20952: u64 [a1 + 544] = 0\n 20956: u64 [a1 + 536] = 0\n 20960: u64 [a1 + 520] = 0x22\n 20965: a2 = a1\n 20967: a0 = 0x4\n 20970: a1 = s1 + 0x1280\n 20974: u64 [a2 + 528] = 0\n 20978: ra = 646, jump @19\n      : @703 [@dyn 323] (gas: 2)\n 20984: a1 = i32 [0x20194]\n 20989: jump @705 if a1 >u 63\n      : @704 (gas: 3)\n 20993: u32 [0x20194] = 0x40\n 20999: a1 = 0x201a0\n 21004: jump @748\n      : @705 (gas: 2)\n 21007: a1 = 0x201a0\n 21012: jump @748\n      : @706 (gas: 2)\n 21015: a1 = 0x201a0\n 21020: jump @681\n      : @707 (gas: 2)\n 21023: a1 = 0x201a0\n 21028: jump @681\n      : @708 (gas: 2)\n 21031: a1 = 0x201a0\n 21036: jump @681\n      : @709 (gas: 2)\n 21039: a1 = 0x201a0\n 21044: jump @681\n      : @710 (gas: 12)\n 21047: a0 = s1 + 0x7ff\n 21051: a0 = a0 + 0x79\n 21054: u64 [a0 + 120] = 0\n 21057: u64 [a0 + 112] = 0\n 21060: u64 [a0 + 104] = 0\n 21063: a2 = a0\n 21065: a0 = 0x96c6fd1e00000000\n 21075: a1 = s1 + 0x7ff\n 21079: a1 = a1 + 0xe1\n 21083: u64 [a2 + 0x80] = a0\n 21087: a0 = 0\n 21089: ra = 648, jump @19\n      : @711 [@dyn 324] (gas: 11)\n 21095: a0 = s1 + 0x7ff\n 21099: a0 = a0 + 0x79\n 21102: u64 [a0 + 96] = 0\n 21105: u64 [a0 + 88] = 0\n 21108: u64 [a0 + 80] = 0\n 21111: a2 = a0\n 21113: a0 = 0x4\n 21116: a1 = s1 + 0x7ff\n 21120: a1 = a1 + 0xc1\n 21124: u64 [a2 + 72] = 0\n 21127: ra = 650, jump @19\n      : @712 [@dyn 325] (gas: 2)\n 21133: a1 = i32 [0x20194]\n 21138: jump @714 if a1 >u 63\n      : @713 (gas: 3)\n 21142: u32 [0x20194] = 0x40\n 21148: a1 = 0x201a0\n 21153: jump @748\n      : @714 (gas: 2)\n 21156: a1 = 0x201a0\n 21161: jump @748\n      : @715 (gas: 12)\n 21164: a0 = s1 + 0x7ff\n 21168: a0 = a0 + 0x79\n 21171: u64 [a0 + 248] = 0\n 21175: u64 [a0 + 240] = 0\n 21179: u64 [a0 + 232] = 0\n 21183: a2 = a0\n 21185: a0 = 0xe450d38c00000000\n 21195: a1 = s1 + 0x7ff\n 21199: a1 = a1 + 0x161\n 21203: u64 [a2 + 0x100] = a0\n 21207: a0 = 0\n 21209: ra = 652, jump @19\n      : @716 [@dyn 326] (gas: 5)\n 21215: a0 = u64 [s1 + 0xd0]\n 21219: ra = 0x28e\n 21223: ecalli 3 // 'caller'\n 21225: t0 = 0x290\n 21229: jump @965\n      : @717 [@dyn 327] (gas: 1)\n 21232: t0 = 656, jump @965\n      : @718 [@dyn 328] (gas: 8)\n 21238: u64 [a2 + 224] = 0\n 21242: u64 [a2 + 0xd8] = a1\n 21246: u64 [a2 + 0xd0] = a0\n 21250: a0 = 0x4\n 21253: a1 = s1 + 0x7ff\n 21257: a1 = a1 + 0x141\n 21261: u64 [a2 + 0xc8] = a3\n 21265: ra = 658, jump @19\n      : @719 [@dyn 329] (gas: 14)\n 21271: a0 = u64 [s1 + 0xa8]\n 21275: a3 = s1 + 0x7ff\n 21279: a3 = a3 + 0x79\n 21282: u64 [a3 + 0xc0] = a0\n 21286: a0 = u64 [s1 + 0xa0]\n 21290: u64 [a3 + 0xb8] = a0\n 21294: a0 = u64 [s1 + 0xb0]\n 21298: u64 [a3 + 0xb0] = a0\n 21302: a0 = 0x24\n 21305: a1 = s1 + 0x7ff\n 21309: a1 = a1 + 0x121\n 21313: a2 = u64 [s1 + 0xb8]\n 21317: u64 [a3 + 0xa8] = a2\n 21321: ra = 660, jump @19\n      : @720 [@dyn 330] (gas: 15)\n 21327: a0 = u64 [s1 + 0xf8]\n 21331: a1 = s1 + 0x7ff\n 21335: a1 = a1 + 0x79\n 21338: u64 [a1 + 0xa0] = a0\n 21342: a0 = u64 [s1 + 0xe8]\n 21346: u64 [a1 + 0x98] = a0\n 21350: a0 = u64 [s1 + 0xe0]\n 21354: u64 [a1 + 0x90] = a0\n 21358: a3 = a1\n 21360: a0 = 0x44\n 21363: a1 = s1 + 0x7ff\n 21367: a1 = a1 + 0x101\n 21371: a2 = u64 [s1 + 0xf0]\n 21375: u64 [a3 + 0x88] = a2\n 21379: ra = 662, jump @19\n      : @721 [@dyn 331] (gas: 3)\n 21385: a0 = u64 [s1 + 0xc0]\n 21389: a0 = i32 [a0]\n 21391: jump @723 if a0 >u 127\n      : @722 (gas: 3)\n 21395: a1 = u64 [s1 + 0xc0]\n 21399: u32 [a1 + 0] = 0x80\n 21403: fallthrough\n      : @723 (gas: 6)\n 21404: a0 = 0x1\n 21407: a2 = 0x64\n 21410: a1 = u64 [s1 + 0xc8]\n 21414: ecalli 7 // 'seal_return'\n 21416: a1 = 0x201a0\n 21421: jump @681\n      : @724 (gas: 2)\n 21424: a1 = 0x201a0\n 21429: jump @681\n      : @725 (gas: 2)\n 21432: a1 = 0x201a0\n 21437: jump @681\n      : @726 (gas: 11)\n 21440: a0 = 0x301a0\n 21445: u64 [s1 + 0xd8] = a0\n 21449: i32 a0 = a0 + 0\n 21451: u64 [s1 + 0xf8] = t0\n 21455: u64 [s1 + 0xf0] = a4\n 21459: u64 [s1 + 0xe8] = a5\n 21463: u64 [s1 + 0xe0] = a3\n 21467: ra = 0x298\n 21471: ecalli 3 // 'caller'\n 21473: t0 = 0x29a\n 21477: jump @965\n      : @727 [@dyn 332] (gas: 1)\n 21480: t0 = 666, jump @965\n      : @728 [@dyn 333] (gas: 18)\n 21486: a4 = u64 [s1 + 0xe0]\n 21490: a5 = a2 + 0x300\n 21494: u64 [a5 + 0x20] = a4\n 21497: a4 = u64 [s1 + 0xe8]\n 21501: u64 [a5 + 0x18] = a4\n 21504: a4 = u64 [s1 + 0xf0]\n 21508: u64 [a5 + 0x10] = a4\n 21511: a4 = u64 [s1 + 0xf8]\n 21515: u64 [a5 + 0x8] = a4\n 21518: u64 [a2 + 832] = 0\n 21522: u64 [a5 + 0x38] = a1\n 21525: u64 [a5 + 0x30] = a0\n 21528: a0 = s1 + 0x7ff\n 21532: a0 = a0 + 0x3a1\n 21536: a1 = s1 + 0x7ff\n 21540: a1 = a1 + 0x381\n 21544: u64 [a5 + 0x28] = a3\n 21547: ra = 668, jump @932\n      : @729 [@dyn 334] (gas: 6)\n 21553: a1 = 0x201a0\n 21558: i32 a1 = a1 + 0\n 21560: a0 = 0\n 21562: a2 = 0\n 21564: ecalli 7 // 'seal_return'\n 21566: jump @682\n      : @730 (gas: 2)\n 21569: a1 = 0x201a0\n 21574: jump @681\n      : @731 (gas: 2)\n 21577: a1 = 0x201a0\n 21582: jump @681\n      : @732 (gas: 2)\n 21585: a1 = 0x201a0\n 21590: jump @681\n      : @733 (gas: 2)\n 21593: a1 = 0x201a0\n 21598: jump @681\n      : @734 (gas: 2)\n 21601: a1 = 0x201a0\n 21606: jump @681\n      : @735 (gas: 2)\n 21609: a1 = 0x201a0\n 21614: jump @681\n      : @736 (gas: 2)\n 21617: a1 = 0x201a0\n 21622: jump @681\n      : @737 (gas: 2)\n 21625: a1 = 0x201a0\n 21630: jump @681\n      : @738 (gas: 8)\n 21633: u64 [s1 + 752] = 0\n 21637: u64 [s1 + 744] = 0\n 21641: u64 [s1 + 736] = 0\n 21645: a0 = 0xe602df0500000000\n 21655: a1 = s1 + 0x2e0\n 21659: u64 [s1 + 0x2f8] = a0\n 21663: a0 = 0\n 21665: ra = 670, jump @19\n      : @739 [@dyn 335] (gas: 7)\n 21671: u64 [s1 + 728] = 0\n 21675: u64 [s1 + 720] = 0\n 21679: u64 [s1 + 712] = 0\n 21683: a0 = 0x4\n 21686: a1 = s1 + 0x2c0\n 21690: u64 [s1 + 704] = 0\n 21694: ra = 672, jump @19\n      : @740 [@dyn 336] (gas: 2)\n 21700: a1 = i32 [0x20194]\n 21705: jump @742 if a1 >u 63\n      : @741 (gas: 3)\n 21709: u32 [0x20194] = 0x40\n 21715: a1 = 0x201a0\n 21720: jump @748\n      : @742 (gas: 2)\n 21722: a1 = 0x201a0\n 21727: jump @748\n      : @743 (gas: 8)\n 21729: u64 [s1 + 816] = 0\n 21733: u64 [s1 + 808] = 0\n 21737: u64 [s1 + 800] = 0\n 21741: a0 = 0x94280d6200000000\n 21751: a1 = s1 + 0x320\n 21755: u64 [s1 + 0x338] = a0\n 21759: a0 = 0\n 21761: ra = 674, jump @19\n      : @744 [@dyn 337] (gas: 7)\n 21767: u64 [s1 + 792] = 0\n 21771: u64 [s1 + 784] = 0\n 21775: u64 [s1 + 776] = 0\n 21779: a0 = 0x4\n 21782: a1 = s1 + 0x300\n 21786: u64 [s1 + 768] = 0\n 21790: ra = 676, jump @19\n      : @745 [@dyn 338] (gas: 2)\n 21796: a1 = i32 [0x20194]\n 21801: jump @747 if a1 >u 63\n      : @746 (gas: 3)\n 21805: u32 [0x20194] = 0x40\n 21811: a1 = 0x201a0\n 21816: jump @748\n      : @747 (gas: 2)\n 21818: a1 = 0x201a0\n 21823: fallthrough\n      : @748 (gas: 6)\n 21824: i32 a1 = a1 + 0\n 21826: a0 = 0x1\n 21829: a2 = 0x24\n 21832: ecalli 7 // 'seal_return'\n 21834: a1 = 0x201a0\n 21839: jump @681\n      : @749 (gas: 2)\n 21842: a1 = 0x201a0\n 21847: jump @681\n      : @750 (gas: 2)\n 21850: a1 = 0x201a0\n 21855: jump @681\n      : @751 (gas: 1)\n 21858: jump @776 if a0 != 4076725131\n      : @752 (gas: 9)\n 21866: a0 = s1 + 0x1878\n 21870: u64 [a0 + 1088] = 0\n 21874: u64 [a0 + 1080] = 0\n 21878: u64 [a0 + 1072] = 0\n 21882: u64 [a0 + 1064] = 0\n 21886: a0 = s1 + 0x2000\n 21890: i32 a0 = a0 + 0xfffffffffffffca0\n 21894: ecalli 10 // 'value_transferred'\n 21896: fallthrough\n      : @753 (gas: 10)\n 21897: a3 = s1 + 0x1878\n 21901: a4 = a3 + 0x400\n 21905: a0 = u64 [a4 + 0x38]\n 21908: a1 = u64 [a4 + 0x40]\n 21911: a2 = u64 [a4 + 0x30]\n 21914: a3 = u64 [a4 + 0x28]\n 21917: a1 = a1 | a2\n 21920: a0 = a0 | a3\n 21923: a0 = a0 | a1\n 21926: jump @787 if a0 == 0\n      : @754 (gas: 2)\n 21930: a1 = 0x201a0\n 21935: jump @681\n      : @755 (gas: 2)\n 21938: a1 = 0x201a0\n 21943: jump @681\n      : @756 (gas: 2)\n 21946: a1 = 0x201a0\n 21951: jump @681\n      : @757 (gas: 2)\n 21954: a1 = 0x201a0\n 21959: jump @681\n      : @758 (gas: 8)\n 21962: u64 [s1 + 1584] = 0\n 21966: u64 [s1 + 1576] = 0\n 21970: u64 [s1 + 1568] = 0\n 21974: a0 = 0xfb8f41b200000000\n 21984: a1 = s1 + 0x620\n 21988: u64 [s1 + 0x638] = a0\n 21992: a0 = 0\n 21994: ra = 678, jump @19\n      : @759 [@dyn 339] (gas: 6)\n 22000: a0 = u64 [s1 + 0x80]\n 22004: ra = 0x2a8\n 22008: ecalli 3 // 'caller'\n 22010: a2 = u64 [s1 + 0xb0]\n 22014: t0 = 0x2aa\n 22018: jump @966\n      : @760 [@dyn 340] (gas: 2)\n 22021: a2 = u64 [s1 + 0xb0]\n 22025: t0 = 682, jump @966\n      : @761 [@dyn 341] (gas: 8)\n 22031: u64 [s1 + 1560] = 0\n 22035: a2 = s1 + 0x600\n 22039: u64 [a2 + 0x10] = a1\n 22042: u64 [a2 + 0x8] = a0\n 22045: a0 = 0x4\n 22048: a1 = s1 + 0x600\n 22052: u64 [a2] = a3\n 22054: ra = 684, jump @19\n      : @762 [@dyn 342] (gas: 11)\n 22060: a0 = u64 [s1 + 0x60]\n 22063: u64 [s1 + 0x5f8] = a0\n 22067: a0 = u64 [s1 + 0x58]\n 22070: u64 [s1 + 0x5f0] = a0\n 22074: a0 = u64 [s1 + 0x68]\n 22077: u64 [s1 + 0x5e8] = a0\n 22081: a0 = 0x24\n 22084: a1 = s1 + 0x5e0\n 22088: a2 = u64 [s1 + 0x70]\n 22091: u64 [s1 + 0x5e0] = a2\n 22095: ra = 686, jump @19\n      : @763 [@dyn 343] (gas: 12)\n 22101: a0 = u64 [s1 + 0xe8]\n 22105: a3 = s1 + 0x500\n 22109: u64 [a3 + 0xd8] = a0\n 22113: a0 = u64 [s1 + 0xe0]\n 22117: u64 [a3 + 0xd0] = a0\n 22121: a0 = u64 [s1 + 0xd0]\n 22125: u64 [a3 + 0xc8] = a0\n 22129: a0 = 0x44\n 22132: a1 = s1 + 0x5c0\n 22136: a2 = u64 [s1 + 0xd8]\n 22140: u64 [a3 + 0xc0] = a2\n 22144: ra = 688, jump @19\n      : @764 [@dyn 344] (gas: 3)\n 22150: a0 = u64 [s1 + 0xb8]\n 22154: a0 = i32 [a0]\n 22156: jump @766 if a0 >u 127\n      : @765 (gas: 7)\n 22160: a1 = u64 [s1 + 0xb8]\n 22164: u32 [a1 + 0] = 0x80\n 22168: a0 = 0x1\n 22171: a2 = 0x64\n 22174: a1 = u64 [s1 + 0xc0]\n 22178: ecalli 7 // 'seal_return'\n 22180: jump @774\n      : @766 (gas: 5)\n 22183: a0 = 0x1\n 22186: a2 = 0x64\n 22189: a1 = u64 [s1 + 0xc0]\n 22193: ecalli 7 // 'seal_return'\n 22195: jump @774\n      : @767 (gas: 8)\n 22198: u64 [s1 + 1648] = 0\n 22202: u64 [s1 + 1640] = 0\n 22206: u64 [s1 + 1632] = 0\n 22210: a0 = 0xe602df0500000000\n 22220: a1 = s1 + 0x660\n 22224: u64 [s1 + 0x678] = a0\n 22228: a0 = 0\n 22230: ra = 690, jump @19\n      : @768 [@dyn 345] (gas: 8)\n 22236: u64 [s1 + 1624] = 0\n 22240: u64 [s1 + 1616] = 0\n 22244: u64 [s1 + 1608] = 0\n 22248: a0 = 0x4\n 22251: a1 = s1 + 0x640\n 22255: u64 [s1 + 1600] = 0\n 22259: ra = 0x2b6\n 22263: jump @19\n      : @769 (gas: 8)\n 22266: u64 [s1 + 1712] = 0\n 22270: u64 [s1 + 1704] = 0\n 22274: u64 [s1 + 1696] = 0\n 22278: a0 = 0x94280d6200000000\n 22288: a1 = s1 + 0x6a0\n 22292: u64 [s1 + 0x6b8] = a0\n 22296: a0 = 0\n 22298: ra = 692, jump @19\n      : @770 [@dyn 346] (gas: 7)\n 22304: u64 [s1 + 1688] = 0\n 22308: u64 [s1 + 1680] = 0\n 22312: u64 [s1 + 1672] = 0\n 22316: a0 = 0x4\n 22319: a1 = s1 + 0x680\n 22323: u64 [s1 + 1664] = 0\n 22327: ra = 694, jump @19\n      : @771 [@dyn 347] (gas: 3)\n 22333: a0 = u64 [s1 + 0xb8]\n 22337: a0 = i32 [a0]\n 22339: jump @773 if a0 >u 63\n      : @772 (gas: 7)\n 22343: a1 = u64 [s1 + 0xb8]\n 22347: u32 [a1 + 0] = 0x40\n 22350: a0 = 0x1\n 22353: a2 = 0x24\n 22356: a1 = u64 [s1 + 0xc0]\n 22360: ecalli 7 // 'seal_return'\n 22362: jump @774\n      : @773 (gas: 5)\n 22364: a0 = 0x1\n 22367: a2 = 0x24\n 22370: a1 = u64 [s1 + 0xc0]\n 22374: ecalli 7 // 'seal_return'\n 22376: fallthrough\n      : @774 (gas: 3)\n 22377: a0 = a2\n 22379: u64 [s1 + 0xf8] = a1\n 22383: ra = 696, jump @26\n      : @775 [@dyn 348] (gas: 5)\n 22389: i32 a1 = a0 + 0\n 22391: a2 = i32 [s1 + 0xf8]\n 22395: a0 = 0\n 22397: ecalli 7 // 'seal_return'\n 22399: jump @586\n      : @776 (gas: 1)\n 22402: jump @780 if a0 != 1086394137\n      : @777 (gas: 9)\n 22409: a0 = s1 + 0x1878\n 22413: u64 [a0 + 64] = 0\n 22416: u64 [a0 + 56] = 0\n 22419: u64 [a0 + 48] = 0\n 22422: u64 [a0 + 40] = 0\n 22425: a0 = s1 + 0x2000\n 22429: i32 a0 = a0 + 0xfffffffffffff8a0\n 22433: ecalli 10 // 'value_transferred'\n 22435: fallthrough\n      : @778 (gas: 9)\n 22436: a3 = s1 + 0x1878\n 22440: a0 = u64 [a3 + 0x38]\n 22443: a1 = u64 [a3 + 0x40]\n 22446: a2 = u64 [a3 + 0x30]\n 22449: a3 = u64 [a3 + 0x28]\n 22452: a1 = a1 | a2\n 22455: a0 = a0 | a3\n 22458: a0 = a0 | a1\n 22461: jump @790 if a0 == 0\n      : @779 (gas: 2)\n 22465: a1 = 0x201a0\n 22470: jump @681\n      : @780 (gas: 1)\n 22473: jump @784 if a0 != 1901074598\n      : @781 (gas: 9)\n 22480: a0 = s1 + 0x1878\n 22484: u64 [a0 + 736] = 0\n 22488: u64 [a0 + 728] = 0\n 22492: u64 [a0 + 720] = 0\n 22496: u64 [a0 + 712] = 0\n 22500: a0 = s1 + 0x2000\n 22504: i32 a0 = a0 + 0xfffffffffffffb40\n 22508: ecalli 10 // 'value_transferred'\n 22510: fallthrough\n      : @782 (gas: 10)\n 22511: a3 = s1 + 0x1878\n 22515: a4 = a3 + 0x200\n 22519: a0 = u64 [a4 + 0xd8]\n 22523: a1 = u64 [a4 + 0xe0]\n 22527: a2 = u64 [a4 + 0xd0]\n 22531: a3 = u64 [a4 + 0xc8]\n 22535: a1 = a1 | a2\n 22538: a0 = a0 | a3\n 22541: a0 = a0 | a1\n 22544: jump @799 if a0 == 0\n      : @783 (gas: 2)\n 22548: a1 = 0x201a0\n 22553: jump @681\n      : @784 (gas: 2)\n 22556: a1 = 0x201a0\n 22561: jump @681\n      : @785 (gas: 2)\n 22564: a1 = 0x201a0\n 22569: jump @681\n      : @786 (gas: 2)\n 22572: a1 = 0x201a0\n 22577: jump @681\n      : @787 (gas: 4)\n 22580: a0 = u64 [s1 + 0x38]\n 22583: a0 = i32 [a0]\n 22585: a1 = 0x23\n 22588: jump @792 if a1 <u a0\n      : @788 (gas: 2)\n 22591: a1 = 0x201a0\n 22596: jump @681\n      : @789 (gas: 2)\n 22599: a1 = 0x201a0\n 22604: jump @681\n      : @790 (gas: 4)\n 22607: a0 = u64 [s1 + 0x38]\n 22610: a0 = i32 [a0]\n 22612: a1 = 0x43\n 22615: jump @801 if a1 <u a0\n      : @791 (gas: 2)\n 22619: a1 = 0x201a0\n 22624: jump @681\n      : @792 (gas: 4)\n 22627: a0 = s1 + 0x1700\n 22631: ra = 0x2ba\n 22635: t0 = 0x2e4\n 22639: jump @994\n      : @793 [@dyn 349] (gas: 8)\n 22642: a0 = s1 + 0x1078\n 22646: a1 = u64 [a0 + 0x690]\n 22650: u64 [s1 + 0xf0] = a1\n 22654: a1 = u64 [a0 + 0x688]\n 22658: u64 [s1 + 0xf8] = a1\n 22662: a0 = u32 [a0 + 0x698]\n 22666: u64 [s1 + 0xe8] = a0\n 22670: ra = 700, jump @923\n      : @794 [@dyn 350] (gas: 6)\n 22676: a0 = u64 [s1 + 0xf8]\n 22680: a1 = u64 [s1 + 0xe8]\n 22684: a0 = a0 | a1\n 22687: a1 = u64 [s1 + 0xf0]\n 22691: a0 = a0 | a1\n 22694: jump @805 if a0 == 0\n      : @795 (gas: 10)\n 22698: a0 = 0xffffffff\n 22708: u64 [s1 + 0xe0] = a0\n 22712: a0 = s1 + 0x1878\n 22716: u64 [a0 + 1120] = 0\n 22720: u64 [a0 + 1112] = 0\n 22724: u64 [a0 + 1104] = 0\n 22728: u64 [a0 + 1096] = 0x5\n 22733: a0 = s1 + 0x16e0\n 22737: a1 = s1 + 0x1cc0\n 22741: ra = 702, jump @21\n      : @796 [@dyn 351] (gas: 28)\n 22747: a1 = s1 + 0x1078\n 22751: a3 = a1 + 0x600\n 22755: a0 = u64 [a3 + 0x70]\n 22758: u64 [s1 + 0xd8] = a0\n 22762: a0 = u64 [a3 + 0x80]\n 22766: a2 = u64 [a3 + 0x78]\n 22769: u64 [s1 + 0xc8] = a2\n 22773: a1 = u64 [a3 + 0x68]\n 22776: u64 [s1 + 0xd0] = a1\n 22780: a1 = s1 + 0x1878\n 22784: a4 = a1 + 0x400\n 22788: u64 [a4 + 104] = 0x5\n 22792: u64 [a4 + 0xa0] = a0\n 22796: a0 = a2 >> 0x20\n 22799: a0 = a0 << 0x20\n 22802: a2 = u64 [s1 + 0xe8]\n 22806: a0 = a0 | a2\n 22809: u64 [a4 + 0x98] = a0\n 22813: u64 [a1 + 1152] = 0\n 22817: u64 [a1 + 1144] = 0\n 22821: u64 [a1 + 1136] = 0\n 22825: a0 = u64 [s1 + 0xf0]\n 22829: u64 [a4 + 0x90] = a0\n 22833: a0 = u64 [s1 + 0xf8]\n 22837: u64 [a4 + 0x88] = a0\n 22841: a0 = s1 + 0x1ce0\n 22845: a1 = s1 + 0x1d00\n 22849: ra = 704, jump @22\n      : @797 [@dyn 352] (gas: 35)\n 22855: a0 = u64 [s1 + 0xd0]\n 22859: a0 = a0 & 0xffffffffffffffff\n 22862: a2 = u64 [s1 + 0xd8]\n 22866: a1 = a2 & 0xffffffffffffffff\n 22869: a2 = u64 [s1 + 0xe0]\n 22873: a3 = u64 [s1 + 0xc8]\n 22877: a2 = a2 & a3\n 22880: a4 = s1 + 0x1078\n 22884: u64 [a4 + 1568] = 0\n 22888: a3 = u64 [s1 + 0xe8]\n 22892: a5 = a4 + 0x600\n 22896: u64 [a5 + 0x18] = a3\n 22899: a3 = u64 [s1 + 0xf0]\n 22903: u64 [a5 + 0x10] = a3\n 22906: a3 = u64 [s1 + 0xf8]\n 22910: u64 [a5 + 0x8] = a3\n 22913: u64 [a4 + 1600] = 0\n 22917: u64 [a5 + 0x38] = a2\n 22920: u64 [a5 + 0x30] = a1\n 22923: a1 = u64 [0x20058]\n 22928: a2 = u64 [0x20060]\n 22933: a3 = u64 [0x20068]\n 22938: u64 [a5 + 0x28] = a0\n 22941: u64 [a5 + 0x60] = a1\n 22944: u64 [a5 + 0x58] = a2\n 22947: u64 [a5 + 0x50] = a3\n 22950: a1 = a4\n 22952: a0 = u64 [0x20070]\n 22957: a2 = s1 + 0x16c0\n 22961: a3 = s1 + 0x16a0\n 22965: a4 = s1 + 0x1680\n 22969: u64 [a1 + 0x648] = a0\n 22973: a0 = 0\n 22975: a1 = 0\n 22977: ra = 706, jump @23\n      : @798 [@dyn 353] (gas: 6)\n 22983: a1 = 0x201a0\n 22988: i32 a1 = a1 + 0\n 22990: a0 = 0\n 22992: a2 = 0\n 22994: ecalli 7 // 'seal_return'\n 22996: jump @682\n      : @799 (gas: 3)\n 22999: a0 = u64 [s1 + 0x38]\n 23002: a0 = i32 [a0]\n 23004: jump @810 if a0 >u 3\n      : @800 (gas: 2)\n 23009: a1 = 0x201a0\n 23014: jump @681\n      : @801 (gas: 5)\n 23017: a0 = s1 + 0x7ff\n 23021: a0 = a0 + 0xa1\n 23025: ra = 0x2c4\n 23029: t0 = 0x2e4\n 23033: jump @994\n      : @802 [@dyn 354] (gas: 11)\n 23036: a1 = s1 + 0x7ff\n 23040: a1 = a1 + 0x79\n 23043: a0 = u64 [a1 + 0x28]\n 23046: u64 [s1 + 0xf8] = a0\n 23050: a0 = u64 [a1 + 0x30]\n 23053: u64 [s1 + 0xf0] = a0\n 23057: a0 = u64 [a1 + 0x38]\n 23060: u64 [s1 + 0xe8] = a0\n 23064: a0 = u64 [a1 + 0x40]\n 23067: u64 [s1 + 0xe0] = a0\n 23071: ra = 710, jump @923\n      : @803 [@dyn 355] (gas: 30)\n 23077: a0 = s1 + 0x2000\n 23081: i32 a0 = a0 + 0xfffffffffffff8c0\n 23085: a1 = 0x24\n 23088: ecalli 1 // 'call_data_load'\n 23090: a3 = s1 + 0x1878\n 23094: a0 = u64 [a3 + 0x48]\n 23097: a1 = u64 [a3 + 0x50]\n 23100: a2 = u64 [a3 + 0x58]\n 23103: a3 = u64 [a3 + 0x60]\n 23106: a4 = s1 + 0x7ff\n 23110: a4 = a4 + 0x79\n 23113: u64 [a4] = a3\n 23115: u64 [a4 + 0xfffffffffffffff8] = a2\n 23118: a2 = s1 + 0x1000\n 23122: u64 [a2 + 0xfffffffffffff868] = a1\n 23126: a1 = s1 + 0x1000\n 23130: u64 [a1 + 0xfffffffffffff860] = a0\n 23134: a0 = u64 [s1 + 0xe0]\n 23138: u64 [a4 + 0x20] = a0\n 23141: a0 = u64 [s1 + 0xe8]\n 23145: u64 [a4 + 0x18] = a0\n 23148: a0 = u64 [s1 + 0xf0]\n 23152: u64 [a4 + 0x10] = a0\n 23155: a0 = s1 + 0x7ff\n 23159: a0 = a0 + 0x81\n 23163: a1 = s1 + 0x7ff\n 23167: a1 = a1 + 0x61\n 23170: a2 = u64 [s1 + 0xf8]\n 23174: u64 [a4 + 0x8] = a2\n 23177: ra = 712, jump @932\n      : @804 [@dyn 356] (gas: 6)\n 23183: a1 = 0x201a0\n 23188: i32 a1 = a1 + 0\n 23190: a0 = 0\n 23192: a2 = 0\n 23194: ecalli 7 // 'seal_return'\n 23196: jump @682\n      : @805 (gas: 10)\n 23199: a0 = s1 + 0x1078\n 23203: u64 [a0 + 1528] = 0\n 23207: u64 [a0 + 1520] = 0\n 23211: u64 [a0 + 1512] = 0\n 23215: a2 = a0\n 23217: a0 = 0x1e4fbdf700000000\n 23227: a1 = s1 + 0x1660\n 23231: u64 [a2 + 0x600] = a0\n 23235: a0 = 0\n 23237: ra = 714, jump @19\n      : @806 [@dyn 357] (gas: 9)\n 23243: a0 = s1 + 0x1078\n 23247: u64 [a0 + 1504] = 0\n 23251: u64 [a0 + 1496] = 0\n 23255: u64 [a0 + 1488] = 0\n 23259: a2 = a0\n 23261: a0 = 0x4\n 23264: a1 = s1 + 0x1640\n 23268: u64 [a2 + 1480] = 0\n 23272: ra = 716, jump @19\n      : @807 [@dyn 358] (gas: 2)\n 23278: a1 = i32 [0x20194]\n 23283: jump @809 if a1 >u 63\n      : @808 (gas: 3)\n 23287: u32 [0x20194] = 0x40\n 23293: a1 = 0x201a0\n 23298: jump @748\n      : @809 (gas: 2)\n 23301: a1 = 0x201a0\n 23306: jump @748\n      : @810 (gas: 1)\n 23309: ra = 718, jump @923\n      : @811 [@dyn 359] (gas: 8)\n 23315: a1 = s1 + 0x1878\n 23319: u64 [a1 + 768] = 0\n 23323: u64 [a1 + 760] = 0\n 23327: u64 [a1 + 752] = 0\n 23331: u64 [a1 + 744] = 0x5\n 23336: a0 = s1 + 0x1200\n 23340: a1 = s1 + 0x1b60\n 23344: ra = 720, jump @21\n      : @812 [@dyn 360] (gas: 24)\n 23350: a1 = s1 + 0x1078\n 23354: a3 = a1 + 0x100\n 23358: a2 = u64 [a3 + 0x98]\n 23362: u64 [s1 + 0xe8] = a2\n 23366: a0 = u64 [a3 + 0x88]\n 23370: u64 [s1 + 0xf8] = a0\n 23374: a0 = u64 [a3 + 0x90]\n 23378: u64 [s1 + 0xf0] = a0\n 23382: a0 = u64 [a3 + 0xa0]\n 23386: a1 = a2 >> 0x20\n 23389: a1 = a1 << 0x20\n 23392: a2 = s1 + 0x1878\n 23396: u64 [a2 + 800] = 0\n 23400: u64 [a2 + 792] = 0\n 23404: u64 [a2 + 784] = 0\n 23408: a4 = a2 + 0x300\n 23412: u64 [a4 + 8] = 0x5\n 23416: u64 [a2 + 816] = 0\n 23420: u64 [a2 + 808] = 0\n 23424: u64 [a4 + 0x40] = a0\n 23427: u64 [a4 + 0x38] = a1\n 23430: a0 = s1 + 0x1b80\n 23434: a1 = s1 + 0x1ba0\n 23438: ra = 722, jump @22\n      : @813 [@dyn 361] (gas: 30)\n 23444: a0 = u64 [s1 + 0xe8]\n 23448: a0 = a0 << 0x20\n 23451: a0 = a0 >> 0x20\n 23454: a3 = s1 + 0x1078\n 23458: u64 [a3 + 320] = 0\n 23462: u64 [a3 + 312] = 0\n 23466: u64 [a3 + 304] = 0\n 23470: u64 [a3 + 296] = 0\n 23474: u64 [a3 + 352] = 0\n 23478: a5 = a3 + 0x100\n 23482: u64 [a5 + 0x58] = a0\n 23485: a0 = u64 [s1 + 0xf0]\n 23489: u64 [a5 + 0x50] = a0\n 23492: a0 = u64 [0x20058]\n 23497: a1 = u64 [0x20060]\n 23502: a2 = u64 [0x20068]\n 23507: a4 = u64 [s1 + 0xf8]\n 23511: u64 [a5 + 0x48] = a4\n 23514: u64 [a5 + 0x80] = a0\n 23518: u64 [a5 + 0x78] = a1\n 23521: u64 [a5 + 0x70] = a2\n 23524: a1 = a3\n 23526: a0 = u64 [0x20070]\n 23531: a2 = s1 + 0x11e0\n 23535: a3 = s1 + 0x11c0\n 23539: a4 = s1 + 0x11a0\n 23543: u64 [a1 + 0x168] = a0\n 23547: a0 = 0\n 23549: a1 = 0\n 23551: ra = 724, jump @23\n      : @814 [@dyn 362] (gas: 6)\n 23557: a1 = 0x201a0\n 23562: i32 a1 = a1 + 0\n 23564: a0 = 0\n 23566: a2 = 0\n 23568: ecalli 7 // 'seal_return'\n 23570: jump @682\n      : @815 (gas: 22)\n 23573: sp = sp + 0xfffffffffffffee0\n 23577: u64 [sp + 0x118] = ra\n 23581: u64 [sp + 0x110] = s0\n 23585: u64 [sp + 0x108] = s1\n 23589: s0 = sp + 0x120\n 23593: sp = sp & 0xfffffffffffffff0\n 23596: a4 = u64 [a1 + 0x10]\n 23599: a3 = u64 [a1 + 0x18]\n 23602: a5 = u64 [a1 + 0x8]\n 23605: t0 = u64 [a1]\n 23607: u64 [sp + 0x68] = a3\n 23610: u64 [sp + 0x78] = a5\n 23613: a1 = a5 | a3\n 23616: a3 = t0 | a4\n 23619: a3 = a3 | a1\n 23622: a3 = a3 >> 0x20\n 23625: u64 [sp + 0x70] = a4\n 23628: a1 = a1 | a4\n 23631: a1 = a1 << 0x20\n 23634: a1 = a1 | a3\n 23637: u64 [sp + 0x8] = a0\n 23640: jump @830 if a1 != 0\n      : @816 (gas: 15)\n 23644: a0 = u64 [a2 + 0x18]\n 23647: u64 [sp + 0x48] = a0\n 23650: s1 = u64 [a2 + 0x10]\n 23653: a0 = u64 [a2 + 0x8]\n 23656: u64 [sp + 0x50] = a0\n 23659: a0 = u64 [a2]\n 23661: u64 [sp + 0x58] = a0\n 23664: u64 [sp + 248] = 0\n 23668: u64 [sp + 240] = 0\n 23672: u64 [sp + 232] = 0\n 23676: a1 = sp + 0xe0\n 23680: u64 [sp + 224] = 0x20\n 23685: a0 = t0\n 23687: u64 [sp + 0x60] = t0\n 23690: ra = 726, jump @19\n      : @817 [@dyn 363] (gas: 12)\n 23696: a1 = u64 [sp + 0x58]\n 23699: a0 = a1 | s1\n 23702: a2 = u64 [sp + 0x48]\n 23705: a3 = u64 [sp + 0x50]\n 23708: a2 = a2 | a3\n 23711: a0 = a0 | a2\n 23714: a0 = a0 >> 0x20\n 23717: u64 [sp + 0x20] = s1\n 23720: a2 = a2 | s1\n 23723: a2 = a2 << 0x20\n 23726: a0 = a0 | a2\n 23729: jump @830 if a0 != 0\n      : @818 (gas: 2)\n 23733: a0 = sp + 0xc0\n 23737: ra = 728, jump @17\n      : @819 [@dyn 364] (gas: 13)\n 23743: a0 = u64 [sp + 0x70]\n 23746: a1 = u64 [sp + 0x68]\n 23749: a1 = a1 | a0\n 23752: a0 = 0x100000000\n 23762: u64 [sp + 0x10] = a0\n 23765: a0 = 0xffffffe0\n 23775: a2 = u64 [sp + 0x60]\n 23778: a0 = a2 <u a0\n 23781: a3 = u64 [sp + 0x78]\n 23784: a0 = 0 if a3 != 0\n 23786: u64 [sp + 0x18] = a1\n 23789: a0 = 0 if a1 != 0\n 23791: jump @830 if a0 == 0\n      : @820 (gas: 16)\n 23795: a3 = u64 [sp + 0xd8]\n 23799: a4 = u64 [sp + 0xd0]\n 23803: a5 = u64 [sp + 0xc8]\n 23807: a1 = u64 [sp + 0xc0]\n 23811: i32 a0 = a2 + 0x20\n 23814: u64 [sp + 0x28] = a1\n 23817: u64 [sp + 0xa0] = a1\n 23821: u64 [sp + 0x30] = a5\n 23824: u64 [sp + 0xa8] = a5\n 23828: u64 [sp + 0x38] = a4\n 23831: u64 [sp + 0xb0] = a4\n 23835: a1 = sp + 0xa0\n 23839: u64 [sp + 0x40] = a3\n 23842: u64 [sp + 0xb8] = a3\n 23846: s1 = a2\n 23848: ra = 730, jump @19\n      : @821 [@dyn 365] (gas: 8)\n 23854: a0 = u64 [sp + 0x10]\n 23857: a0 = a0 + 0xffffffffffffffc0\n 23860: a0 = s1 <u a0\n 23863: a1 = u64 [sp + 0x78]\n 23866: a0 = 0 if a1 != 0\n 23868: a1 = u64 [sp + 0x18]\n 23871: a0 = 0 if a1 != 0\n 23873: jump @830 if a0 == 0\n      : @822 (gas: 10)\n 23877: a0 = u64 [sp + 0x48]\n 23880: a1 = u64 [sp + 0x20]\n 23883: a0 = a0 | a1\n 23886: a1 = 0xffffffe0\n 23896: a3 = u64 [sp + 0x58]\n 23899: a1 = a3 <u a1\n 23902: a4 = u64 [sp + 0x50]\n 23905: a1 = 0 if a4 != 0\n 23907: a1 = 0 if a0 != 0\n 23909: jump @830 if a1 == 0\n      : @823 (gas: 13)\n 23913: a2 = s1\n 23915: a1 = u64 [sp + 0x28]\n 23918: a5 = u64 [sp + 0x38]\n 23921: a0 = a1 | a5\n 23924: a4 = u64 [sp + 0x40]\n 23927: s1 = u64 [sp + 0x30]\n 23930: a4 = a4 | s1\n 23933: a0 = a0 | a4\n 23936: a0 = a0 >> 0x20\n 23939: a4 = a4 | a5\n 23942: a4 = a4 << 0x20\n 23945: a0 = a0 | a4\n 23948: jump @830 if a0 != 0\n      : @824 (gas: 5)\n 23952: i32 a0 = a2 + 0x40\n 23955: i32 a3 = a3 + 0x20\n 23958: u64 [sp + 0x58] = a3\n 23961: s1 = a1\n 23963: ra = 732, jump @26\n      : @825 [@dyn 366] (gas: 4)\n 23969: u64 [sp + 0x50] = a0\n 23972: a0 = u64 [sp + 0x58]\n 23975: a1 = s1\n 23977: ra = 734, jump @26\n      : @826 [@dyn 367] (gas: 4)\n 23983: a1 = a0\n 23985: a0 = u64 [sp + 0x50]\n 23988: a2 = s1\n 23990: ra = 736, jump @0\n      : @827 [@dyn 368] (gas: 27)\n 23996: a0 = u64 [sp + 0x60]\n 23999: a0 = a0 + s1\n 24002: a1 = a0 <u s1\n 24005: a2 = u64 [sp + 0x78]\n 24008: a4 = u64 [sp + 0x30]\n 24011: a2 = a2 + a4\n 24014: a2 = a2 + a1\n 24017: a3 = a2 ^ a4\n 24020: a4 = a2 <u a4\n 24023: a4 = a1 if a3 == 0\n 24026: a1 = u64 [sp + 0x70]\n 24029: a3 = u64 [sp + 0x38]\n 24032: a1 = a1 + a3\n 24035: a3 = a1 <u a3\n 24038: a5 = u64 [sp + 0x68]\n 24041: s1 = u64 [sp + 0x40]\n 24044: a5 = a5 + s1\n 24047: a3 = a3 + a5\n 24050: a4 = a4 + a1\n 24053: a1 = a4 <u a1\n 24056: a1 = a1 + a3\n 24059: a1 = a1 | a4\n 24062: a3 = 0xffffffc0\n 24072: a3 = a0 <u a3\n 24075: a3 = 0 if a2 != 0\n 24077: a3 = 0 if a1 != 0\n 24079: jump @830 if a3 == 0\n      : @828 (gas: 7)\n 24083: i32 a0 = a0 + 0x40\n 24086: u64 [sp + 152] = 0\n 24090: u64 [sp + 144] = 0\n 24094: u64 [sp + 136] = 0\n 24098: a1 = sp + 0x80\n 24102: u64 [sp + 128] = 0\n 24106: ra = 738, jump @19\n      : @829 [@dyn 369] (gas: 35)\n 24112: s1 = u64 [sp + 0x28]\n 24115: s1 = s1 + 0x1f\n 24118: a0 = 0x1ffffffe0\n 24128: a0 = a0 & s1\n 24131: a1 = u64 [sp + 0x60]\n 24134: a0 = a0 + a1\n 24137: a1 = a0 <u a1\n 24140: a3 = u64 [sp + 0x78]\n 24143: a2 = a3 + a1\n 24146: a3 = a2 <u a3\n 24149: a3 = a1 if a1 == 0\n 24152: a1 = u64 [sp + 0x70]\n 24155: a3 = a3 + a1\n 24158: a1 = a3 <u a1\n 24161: a4 = u64 [sp + 0x68]\n 24164: a1 = a1 + a4\n 24167: a4 = a0 + 0x40\n 24170: a0 = a4 <u a0\n 24173: a5 = a2 + a0\n 24176: a2 = a5 <u a2\n 24179: a2 = a0 if a0 == 0\n 24182: a2 = a2 + a3\n 24185: a0 = a2 <u a3\n 24188: a0 = a0 + a1\n 24191: a1 = u64 [sp + 0x8]\n 24194: u64 [a1] = a4\n 24196: u64 [a1 + 0x8] = a5\n 24199: u64 [a1 + 0x10] = a2\n 24202: u64 [a1 + 0x18] = a0\n 24205: sp = s0 + 0xfffffffffffffee0\n 24209: ra = u64 [sp + 0x118]\n 24213: s0 = u64 [sp + 0x110]\n 24217: s1 = u64 [sp + 0x108]\n 24221: sp = sp + 0x120\n 24225: ret\n      : @830 (gas: 1)\n 24227: trap\n      : @831 [@dyn 370] (gas: 5)\n 24228: a1 = 0x4\n 24231: ra = 0x2e6\n 24235: ecalli 1 // 'call_data_load'\n 24237: t0 = 0x2e8\n 24241: jump @980\n      : @832 [@dyn 371] (gas: 1)\n 24244: t0 = 744, jump @980\n      : @833 [@dyn 372] (gas: 1)\n 24250: jump @836 if a3 == 0\n      : @834 (gas: 1)\n 24253: t0 = 746, jump @987\n      : @835 [@dyn 373] (gas: 1)\n 24259: ret\n      : @836 (gas: 8)\n 24261: a1 = 0x201a0\n 24266: i32 a1 = a1 + 0\n 24268: a0 = 0x1\n 24271: a2 = 0\n 24273: ra = 0x2ec\n 24277: ecalli 7 // 'seal_return'\n 24279: t0 = 0x2ee\n 24283: jump @994\n      : @837 [@dyn 374] (gas: 1)\n 24286: t0 = 750, jump @994\n      : @838 [@dyn 375] (gas: 5)\n 24292: a1 = 0x24\n 24295: ra = 0x2f0\n 24299: ecalli 1 // 'call_data_load'\n 24301: t0 = 0x2f2\n 24305: jump @980\n      : @839 [@dyn 376] (gas: 1)\n 24308: t0 = 754, jump @980\n      : @840 [@dyn 377] (gas: 1)\n 24314: jump @843 if a3 == 0\n      : @841 (gas: 1)\n 24317: t0 = 756, jump @987\n      : @842 [@dyn 378] (gas: 1)\n 24323: ret\n      : @843 (gas: 7)\n 24325: a1 = 0x201a0\n 24330: i32 a1 = a1 + 0\n 24332: a0 = 0x1\n 24335: a2 = 0\n 24337: ra = 0x2f6\n 24341: ecalli 7 // 'seal_return'\n 24343: fallthrough\n      : @844 [@dyn 379] (gas: 46)\n 24344: sp = sp + 0xffffffffffffff70\n 24348: u64 [sp + 0x88] = ra\n 24352: u64 [sp + 0x80] = s0\n 24356: u64 [sp + 0x78] = s1\n 24359: s0 = sp + 0x90\n 24363: sp = sp & 0xfffffffffffffff0\n 24366: t0 = a0\n 24368: a2 = u64 [a1]\n 24370: t2 = u64 [a0 + 0x8]\n 24373: a5 = u64 [a1 + 0x8]\n 24376: t1 = u64 [a0]\n 24378: a3 = a2 + 0x1f\n 24381: ra = a3 <u a2\n 24384: a2 = a5 + ra\n 24387: a3 = a3 & 0xffffffffffffffe0\n 24390: u64 [sp + 0x8] = t1\n 24393: t1 = t1 + a3\n 24396: a4 = t1 <u a3\n 24399: a3 = a2 + t2\n 24402: a3 = a3 + a4\n 24405: s1 = a3 ^ a2\n 24408: a0 = a3 <u a2\n 24411: a0 = a4 if s1 == 0\n 24414: a4 = u64 [t0 + 0x18]\n 24417: a5 = a2 <u a5\n 24420: s1 = u64 [a1 + 0x10]\n 24423: t0 = u64 [t0 + 0x10]\n 24426: a1 = u64 [a1 + 0x18]\n 24429: a5 = ra if ra == 0\n 24432: a5 = a5 + s1\n 24435: s1 = a5 <u s1\n 24438: a2 = a5 + t0\n 24441: a0 = a0 + a2\n 24444: a5 = a2 <u a5\n 24447: a2 = a0 <u a2\n 24450: a1 = a1 + a4\n 24453: a1 = a1 + s1\n 24456: a1 = a1 + a5\n 24459: a5 = a1 + a2\n 24462: a1 = a5 >u 0\n 24464: a2 = a0 >u 0\n 24466: a2 = a1 if a5 != 0\n 24469: a1 = a0 | a5\n 24472: s1 = a3 >u 0\n 24474: s1 = a2 if a1 != 0\n 24477: jump @848 if s1 != 0\n      : @845 (gas: 13)\n 24480: a1 = u64 [sp + 0x8]\n 24483: a1 = t1 <u a1\n 24486: a2 = a3 ^ t2\n 24489: s1 = a3 <u t2\n 24492: s1 = a1 if a2 == 0\n 24495: a1 = a0 <u t0\n 24498: a2 = a5 ^ a4\n 24501: a4 = a5 <u a4\n 24504: a4 = a1 if a2 == 0\n 24507: a1 = a0 ^ t0\n 24510: a1 = a1 | a2\n 24513: a4 = s1 if a1 == 0\n 24516: jump @848 if a4 != 0\n      : @846 (gas: 7)\n 24519: u64 [sp + 0x50] = t1\n 24522: u64 [sp + 0x58] = a3\n 24525: u64 [sp + 0x60] = a0\n 24528: a0 = 0x40\n 24531: a1 = sp + 0x50\n 24534: u64 [sp + 0x68] = a5\n 24537: ra = 760, jump @19\n      : @847 [@dyn 380] (gas: 6)\n 24543: sp = s0 + 0xffffffffffffff70\n 24547: ra = u64 [sp + 0x88]\n 24551: s0 = u64 [sp + 0x80]\n 24555: s1 = u64 [sp + 0x78]\n 24558: sp = sp + 0x90\n 24562: ret\n      : @848 (gas: 6)\n 24564: u64 [sp + 64] = 0\n 24567: u64 [sp + 56] = 0\n 24570: u64 [sp + 48] = 0\n 24573: t0 = 0x2fa\n 24577: a0 = 0x4e487b7100000000\n 24587: fallthrough\n      : @849 [@dyn 381] (gas: 4)\n 24588: a1 = sp + 0x30\n 24591: u64 [sp + 0x48] = a0\n 24594: a0 = 0\n 24596: ra = 764, jump @19\n      : @850 [@dyn 382] (gas: 7)\n 24602: u64 [sp + 40] = 0\n 24605: u64 [sp + 32] = 0\n 24608: u64 [sp + 16] = 0x41\n 24612: a0 = 0x4\n 24615: a1 = sp + 0x10\n 24618: u64 [sp + 24] = 0\n 24621: ra = 766, jump @19\n      : @851 [@dyn 383] (gas: 2)\n 24627: a1 = i32 [0x20194]\n 24632: jump @853 if a1 >u 63\n      : @852 (gas: 2)\n 24636: u32 [0x20194] = 0x40\n 24642: fallthrough\n      : @853 (gas: 7)\n 24643: a1 = 0x201a0\n 24648: i32 a1 = a1 + 0\n 24650: a0 = 0x1\n 24653: a2 = 0x24\n 24656: ra = 0x300\n 24660: ecalli 7 // 'seal_return'\n 24662: fallthrough\n      : @854 [@dyn 384] (gas: 10)\n 24663: a4 = u64 [a1 + 0x18]\n 24666: a3 = u64 [a1 + 0x10]\n 24669: t1 = u64 [a1 + 0x8]\n 24672: t0 = a4 >u 0\n 24674: a5 = a3 >u 0\n 24676: a5 = t0 if a4 != 0\n 24679: t0 = a3 | a4\n 24682: a2 = t1 >u 0\n 24684: a2 = a5 if t0 != 0\n 24687: jump @856 if a2 != 0\n      : @855 (gas: 24)\n 24690: a1 = u64 [a1]\n 24692: a2 = a3 >> 0x3b\n 24695: a4 = a4 << 0x5\n 24698: t0 = a4 | a2\n 24701: a4 = t1 >> 0x3b\n 24704: a3 = a3 << 0x5\n 24707: a3 = a3 | a4\n 24710: a4 = a1 >> 0x3b\n 24713: t1 = t1 << 0x5\n 24716: a4 = t1 | a4\n 24719: a1 = a1 << 0x5\n 24722: a5 = a1 + 0x20\n 24725: a1 = a5 <u a1\n 24728: a2 = a4 + a1\n 24731: a4 = a2 <u a4\n 24734: a4 = a1 if a1 == 0\n 24737: a4 = a4 + a3\n 24740: a1 = a4 <u a3\n 24743: a1 = a1 + t0\n 24746: u64 [a0] = a5\n 24748: u64 [a0 + 0x8] = a2\n 24751: u64 [a0 + 0x10] = a4\n 24754: u64 [a0 + 0x18] = a1\n 24757: ret\n      : @856 (gas: 11)\n 24759: sp = sp + 0xffffffffffffffb0\n 24762: u64 [sp + 0x48] = ra\n 24765: u64 [sp + 0x40] = s0\n 24768: s0 = sp + 0x50\n 24771: sp = sp & 0xfffffffffffffff0\n 24774: u64 [sp + 48] = 0\n 24777: u64 [sp + 40] = 0\n 24780: u64 [sp + 32] = 0\n 24783: t0 = 0x302\n 24787: a0 = 0x4e487b7100000000\n 24797: fallthrough\n      : @857 [@dyn 385] (gas: 4)\n 24798: a1 = sp + 0x20\n 24801: u64 [sp + 0x38] = a0\n 24804: a0 = 0\n 24806: ra = 772, jump @19\n      : @858 [@dyn 386] (gas: 7)\n 24812: u64 [sp + 24] = 0\n 24815: u64 [sp + 16] = 0\n 24818: u64 [sp + 0] = 0x41\n 24821: a0 = 0x4\n 24824: a1 = sp\n 24826: u64 [sp + 8] = 0\n 24829: ra = 774, jump @19\n      : @859 [@dyn 387] (gas: 2)\n 24835: a1 = i32 [0x20194]\n 24840: jump @861 if a1 >u 63\n      : @860 (gas: 2)\n 24844: u32 [0x20194] = 0x40\n 24850: fallthrough\n      : @861 (gas: 7)\n 24851: a1 = 0x201a0\n 24856: i32 a1 = a1 + 0\n 24858: a0 = 0x1\n 24861: a2 = 0x24\n 24864: ra = 0x308\n 24868: ecalli 7 // 'seal_return'\n 24870: fallthrough\n      : @862 [@dyn 388] (gas: 22)\n 24871: sp = sp + 0xffffffffffffff40\n 24875: u64 [sp + 0xb8] = ra\n 24879: u64 [sp + 0xb0] = s0\n 24883: u64 [sp + 0xa8] = s1\n 24887: s0 = sp + 0xc0\n 24891: sp = sp & 0xfffffffffffffff0\n 24894: a4 = u64 [a1 + 0x10]\n 24897: a3 = u64 [a1 + 0x18]\n 24900: a5 = u64 [a1 + 0x8]\n 24903: a1 = u64 [a1]\n 24905: u64 [sp + 0x28] = a3\n 24908: u64 [sp + 0x20] = a5\n 24911: a5 = a5 | a3\n 24914: a3 = a1 | a4\n 24917: a3 = a3 | a5\n 24920: a3 = a3 >> 0x20\n 24923: u64 [sp + 0x30] = a4\n 24926: a4 = a4 | a5\n 24929: a4 = a4 << 0x20\n 24932: a3 = a3 | a4\n 24935: u64 [sp + 0x38] = a0\n 24938: jump @866 if a3 != 0\n      : @863 (gas: 10)\n 24942: a0 = u64 [a2 + 0x18]\n 24945: u64 [sp + 0x10] = a0\n 24948: s1 = u64 [a2 + 0x10]\n 24951: a0 = u64 [a2 + 0x8]\n 24954: u64 [sp + 0x8] = a0\n 24957: a0 = u64 [a2]\n 24959: u64 [sp] = a0\n 24961: a0 = sp + 0x80\n 24965: u64 [sp + 0x18] = a1\n 24968: ra = 778, jump @17\n      : @864 [@dyn 389] (gas: 19)\n 24974: t0 = u64 [sp + 0x10]\n 24977: a5 = u64 [sp + 0x8]\n 24980: t1 = u64 [sp]\n 24982: a0 = u64 [sp + 0x88]\n 24986: a1 = u64 [sp + 0x98]\n 24990: a2 = u64 [sp + 0x80]\n 24994: a3 = u64 [sp + 0x90]\n 24998: a4 = a0 ^ a5\n 25001: a0 = a5 <u a0\n 25004: a2 = t1 <u a2\n 25007: a2 = a0 if a4 != 0\n 25010: a0 = s1 <u a3\n 25013: a4 = a1 ^ t0\n 25016: a1 = t0 <u a1\n 25019: a1 = a0 if a4 == 0\n 25022: a3 = a3 ^ s1\n 25025: a3 = a3 | a4\n 25028: a1 = a2 if a3 == 0\n 25031: jump @867 if a1 == 0\n      : @865 (gas: 47)\n 25035: a0 = s1 >> 0x3b\n 25038: a1 = t0 << 0x5\n 25041: t0 = a1 | a0\n 25044: a1 = a5 >> 0x3b\n 25047: s1 = s1 << 0x5\n 25050: a1 = a1 | s1\n 25053: a2 = t1 >> 0x3b\n 25056: a3 = a5 << 0x5\n 25059: a2 = a2 | a3\n 25062: a3 = t1 << 0x5\n 25065: a0 = u64 [sp + 0x18]\n 25068: a3 = a3 + a0\n 25071: a4 = a3 <u a0\n 25074: a5 = u64 [sp + 0x20]\n 25077: a2 = a2 + a5\n 25080: a2 = a2 + a4\n 25083: a0 = a2 ^ a5\n 25086: s1 = a2 <u a5\n 25089: s1 = a4 if a0 == 0\n 25092: a5 = u64 [sp + 0x30]\n 25095: a1 = a1 + a5\n 25098: s1 = s1 + a1\n 25101: a4 = s1 <u a1\n 25104: a1 = a1 <u a5\n 25107: a5 = u64 [sp + 0x28]\n 25110: a0 = a5 + t0\n 25113: a0 = a0 + a1\n 25116: a0 = a0 + a4\n 25119: a1 = a3 + 0x20\n 25122: a3 = a1 <u a3\n 25125: a4 = a2 + a3\n 25128: a2 = a4 <u a2\n 25131: a2 = a3 if a3 == 0\n 25134: a2 = a2 + s1\n 25137: a3 = a2 <u s1\n 25140: a0 = a0 + a3\n 25143: a3 = u64 [sp + 0x38]\n 25146: u64 [a3] = a1\n 25148: u64 [a3 + 0x8] = a4\n 25151: u64 [a3 + 0x10] = a2\n 25154: u64 [a3 + 0x18] = a0\n 25157: sp = s0 + 0xffffffffffffff40\n 25161: ra = u64 [sp + 0xb8]\n 25165: s0 = u64 [sp + 0xb0]\n 25169: s1 = u64 [sp + 0xa8]\n 25173: sp = sp + 0xc0\n 25177: ret\n      : @866 (gas: 1)\n 25179: trap\n      : @867 (gas: 6)\n 25180: u64 [sp + 112] = 0\n 25183: u64 [sp + 104] = 0\n 25186: u64 [sp + 96] = 0\n 25189: t0 = 0x30c\n 25193: a0 = 0x4e487b7100000000\n 25203: fallthrough\n      : @868 [@dyn 390] (gas: 4)\n 25204: a1 = sp + 0x60\n 25207: u64 [sp + 0x78] = a0\n 25210: a0 = 0\n 25212: ra = 782, jump @19\n      : @869 [@dyn 391] (gas: 7)\n 25218: u64 [sp + 88] = 0\n 25221: u64 [sp + 80] = 0\n 25224: u64 [sp + 64] = 0x32\n 25228: a0 = 0x4\n 25231: a1 = sp + 0x40\n 25234: u64 [sp + 72] = 0\n 25237: ra = 784, jump @19\n      : @870 [@dyn 392] (gas: 2)\n 25243: a1 = i32 [0x20194]\n 25248: jump @872 if a1 >u 63\n      : @871 (gas: 2)\n 25252: u32 [0x20194] = 0x40\n 25258: fallthrough\n      : @872 (gas: 7)\n 25259: a1 = 0x201a0\n 25264: i32 a1 = a1 + 0\n 25266: a0 = 0x1\n 25269: a2 = 0x24\n 25272: ra = 0x312\n 25276: ecalli 7 // 'seal_return'\n 25278: fallthrough\n      : @873 [@dyn 393] (gas: 14)\n 25279: sp = sp + 0xfffffffffffffc20\n 25283: a3 = sp + 0x300\n 25287: u64 [a3 + 0xd8] = ra\n 25291: u64 [a3 + 0xd0] = s0\n 25295: u64 [a3 + 0xc8] = s1\n 25299: s0 = sp + 0x3e0\n 25303: sp = sp & 0xffffffffffffffe0\n 25306: s1 = sp\n 25308: t2 = u32 [a0 + 0x10]\n 25311: a3 = u64 [a0]\n 25313: a4 = u64 [a0 + 0x8]\n 25316: a0 = a3 | t2\n 25319: a0 = a0 | a4\n 25322: jump @905 if a0 == 0\n      : @874 (gas: 13)\n 25326: t0 = u64 [a1 + 0x10]\n 25329: t1 = u64 [a1 + 0x8]\n 25332: ra = u64 [a1]\n 25334: a5 = 0xffffffff\n 25344: a1 = t1 & 0xffffffffffffffff\n 25347: a0 = ra & 0xffffffffffffffff\n 25350: a5 = t0 & a5\n 25353: u64 [s1 + 0x48] = a0\n 25356: u64 [s1 + 0x38] = a5\n 25359: a0 = a0 | a5\n 25362: u64 [s1 + 0x40] = a1\n 25365: a0 = a0 | a1\n 25368: jump @910 if a0 == 0\n      : @875 (gas: 18)\n 25372: a0 = u64 [a2 + 0x18]\n 25375: u64 [s1 + 0x98] = a0\n 25379: a0 = u64 [a2 + 0x10]\n 25382: u64 [s1 + 0x88] = a0\n 25386: a0 = u64 [a2 + 0x8]\n 25389: u64 [s1 + 0x80] = a0\n 25393: a0 = u64 [a2]\n 25395: u64 [s1 + 0x90] = a0\n 25399: u64 [s1 + 824] = 0\n 25403: u64 [s1 + 0x60] = a3\n 25406: u64 [s1 + 0x320] = a3\n 25410: u64 [s1 + 0x58] = a4\n 25413: u64 [s1 + 0x328] = a4\n 25417: a1 = s1 + 0x320\n 25421: u64 [s1 + 0x50] = t2\n 25424: u64 [s1 + 0x330] = t2\n 25428: a0 = 0\n 25430: ra = 788, jump @19\n      : @876 [@dyn 394] (gas: 7)\n 25436: u64 [s1 + 792] = 0\n 25440: u64 [s1 + 784] = 0\n 25444: u64 [s1 + 776] = 0\n 25448: a0 = 0x20\n 25451: a1 = s1 + 0x300\n 25455: u64 [s1 + 768] = 0\n 25459: ra = 790, jump @19\n      : @877 [@dyn 395] (gas: 3)\n 25465: a2 = 0x20194\n 25470: a0 = i32 [0x20194]\n 25475: jump @879 if a0 >u 63\n      : @878 (gas: 2)\n 25479: u32 [0x20194] = 0x40\n 25485: fallthrough\n      : @879 (gas: 15)\n 25486: u64 [s1 + 0x70] = a2\n 25489: a0 = sp + 0xffffffffffffffe0\n 25492: a2 = a0 & 0xffffffffffffffe0\n 25495: u64 [s1 + 0x68] = a2\n 25498: sp = a2\n 25500: a0 = 0x201a0\n 25505: i32 a0 = a0 + 0\n 25507: i32 a2 = a2 + 0\n 25509: a1 = 0x40\n 25512: u64 [s1 + 0x78] = a0\n 25515: ra = 0x318\n 25519: ecalli 6 // 'hash_keccak_256'\n 25521: a3 = u64 [s1 + 0x68]\n 25524: t0 = 0x31a\n 25528: jump @982\n      : @880 [@dyn 396] (gas: 2)\n 25531: a3 = u64 [s1 + 0x68]\n 25534: t0 = 794, jump @982\n      : @881 [@dyn 397] (gas: 7)\n 25540: u64 [a4 + 0x58] = a3\n 25543: u64 [a4 + 0x50] = a2\n 25546: u64 [a4 + 0x48] = a1\n 25549: u64 [a4 + 0x40] = a0\n 25552: a0 = s1 + 0x2e0\n 25556: a1 = s1 + 0x340\n 25560: ra = 796, jump @21\n      : @882 [@dyn 398] (gas: 28)\n 25566: a1 = s1 + 0x200\n 25570: a2 = u64 [a1 + 0xf8]\n 25574: a0 = u64 [a1 + 0xf0]\n 25578: a5 = u64 [a1 + 0xe8]\n 25582: a4 = u64 [a1 + 0xe0]\n 25586: a1 = u64 [s1 + 0x98]\n 25590: t1 = a2 ^ a1\n 25593: u64 [s1 + 0x28] = a2\n 25596: a1 = a2 <u a1\n 25599: a2 = u64 [s1 + 0x88]\n 25603: a3 = a0 <u a2\n 25606: u64 [s1 + 0x10] = a3\n 25609: a1 = a3 if t1 == 0\n 25612: a3 = u64 [s1 + 0x80]\n 25616: t0 = a5 ^ a3\n 25619: u64 [s1 + 0x30] = a5\n 25622: a5 = a5 <u a3\n 25625: a3 = u64 [s1 + 0x90]\n 25629: u64 [s1 + 0x68] = a4\n 25632: a3 = a4 <u a3\n 25635: u64 [s1 + 0x18] = a3\n 25638: a5 = a3 if t0 == 0\n 25641: u64 [s1 + 0x20] = a0\n 25644: a2 = a2 ^ a0\n 25647: a0 = a2 | t1\n 25650: u64 [s1 + 0x8] = a5\n 25653: a1 = a5 if a0 == 0\n 25656: jump @916 if a1 != 0\n      : @883 (gas: 11)\n 25660: u64 [s1 + 728] = 0\n 25664: a0 = u64 [s1 + 0x60]\n 25667: a2 = s1 + 0x200\n 25671: u64 [a2 + 0xc0] = a0\n 25675: a0 = u64 [s1 + 0x58]\n 25678: u64 [a2 + 0xc8] = a0\n 25682: a1 = s1 + 0x2c0\n 25686: a0 = u64 [s1 + 0x50]\n 25689: u64 [a2 + 0xd0] = a0\n 25693: a0 = 0\n 25695: ra = 798, jump @19\n      : @884 [@dyn 399] (gas: 7)\n 25701: u64 [s1 + 696] = 0\n 25705: u64 [s1 + 688] = 0\n 25709: u64 [s1 + 680] = 0\n 25713: a0 = 0x20\n 25716: a1 = s1 + 0x2a0\n 25720: u64 [s1 + 672] = 0\n 25724: ra = 800, jump @19\n      : @885 [@dyn 400] (gas: 27)\n 25730: a0 = u64 [s1 + 0x88]\n 25734: a1 = u64 [s1 + 0x20]\n 25737: a0 = a1 - a0\n 25740: a2 = u64 [s1 + 0x8]\n 25743: a1 = a0 - a2\n 25746: u64 [s1 + 0x20] = a1\n 25749: a0 = a0 <u a2\n 25752: a1 = u64 [s1 + 0x98]\n 25756: a2 = u64 [s1 + 0x28]\n 25759: a1 = a2 - a1\n 25762: a2 = u64 [s1 + 0x10]\n 25765: a1 = a1 - a2\n 25768: a1 = a1 - a0\n 25771: u64 [s1 + 0x28] = a1\n 25774: a2 = u64 [s1 + 0x70]\n 25777: a0 = i32 [a2]\n 25779: a1 = u64 [s1 + 0x80]\n 25783: a3 = u64 [s1 + 0x30]\n 25786: a1 = a3 - a1\n 25789: a3 = u64 [s1 + 0x18]\n 25792: a1 = a1 - a3\n 25795: u64 [s1 + 0x30] = a1\n 25798: a1 = u64 [s1 + 0x90]\n 25802: a3 = u64 [s1 + 0x68]\n 25805: a3 = a3 - a1\n 25808: u64 [s1 + 0x68] = a3\n 25811: jump @887 if a0 >u 63\n      : @886 (gas: 2)\n 25815: u32 [a2 + 0] = 0x40\n 25818: fallthrough\n      : @887 (gas: 12)\n 25819: a0 = sp + 0xffffffffffffffe0\n 25822: a0 = a0 & 0xffffffffffffffe0\n 25825: u64 [s1 + 0x18] = a0\n 25828: sp = a0\n 25830: i32 a2 = a0 + 0\n 25832: a1 = 0x40\n 25835: a0 = u64 [s1 + 0x78]\n 25838: ra = 0x322\n 25842: ecalli 6 // 'hash_keccak_256'\n 25844: a3 = u64 [s1 + 0x18]\n 25847: t0 = 0x324\n 25851: jump @982\n      : @888 [@dyn 401] (gas: 2)\n 25854: a3 = u64 [s1 + 0x18]\n 25857: t0 = 804, jump @982\n      : @889 [@dyn 402] (gas: 15)\n 25863: u64 [a4 + 0x78] = a3\n 25866: u64 [a4 + 0x70] = a2\n 25869: u64 [a4 + 0x68] = a1\n 25872: u64 [a4 + 0x60] = a0\n 25875: a0 = u64 [s1 + 0x28]\n 25878: u64 [a4 + 0x98] = a0\n 25882: a0 = u64 [s1 + 0x20]\n 25885: u64 [a4 + 0x90] = a0\n 25889: a0 = u64 [s1 + 0x30]\n 25892: u64 [a4 + 0x88] = a0\n 25896: a0 = u64 [s1 + 0x68]\n 25899: u64 [a4 + 0x80] = a0\n 25903: a0 = s1 + 0x360\n 25907: a1 = s1 + 0x380\n 25911: ra = 806, jump @22\n      : @890 [@dyn 403] (gas: 11)\n 25917: u64 [s1 + 664] = 0\n 25921: a0 = u64 [s1 + 0x38]\n 25924: a2 = s1 + 0x200\n 25928: u64 [a2 + 0x90] = a0\n 25932: a0 = u64 [s1 + 0x40]\n 25935: u64 [a2 + 0x88] = a0\n 25939: a1 = s1 + 0x280\n 25943: a0 = u64 [s1 + 0x48]\n 25946: u64 [a2 + 0x80] = a0\n 25950: a0 = 0\n 25952: ra = 808, jump @19\n      : @891 [@dyn 404] (gas: 7)\n 25958: u64 [s1 + 632] = 0\n 25962: u64 [s1 + 624] = 0\n 25966: u64 [s1 + 616] = 0\n 25970: a0 = 0x20\n 25973: a1 = s1 + 0x260\n 25977: u64 [s1 + 608] = 0\n 25981: ra = 810, jump @19\n      : @892 [@dyn 405] (gas: 7)\n 25987: a1 = u64 [s1 + 0x70]\n 25990: a0 = sp + 0xffffffffffffffe0\n 25993: a0 = a0 & 0xffffffffffffffe0\n 25996: u64 [s1 + 0x68] = a0\n 25999: sp = a0\n 26001: a0 = i32 [a1]\n 26003: jump @894 if a0 >u 63\n      : @893 (gas: 2)\n 26007: u32 [a1 + 0] = 0x40\n 26010: fallthrough\n      : @894 (gas: 12)\n 26011: a0 = sp + 0xffffffffffffffe0\n 26014: a0 = a0 & 0xffffffffffffffe0\n 26017: u64 [s1 + 0x70] = a0\n 26020: sp = a0\n 26022: i32 a2 = a0 + 0\n 26024: a1 = 0x40\n 26027: a0 = u64 [s1 + 0x78]\n 26030: ra = 0x32c\n 26034: ecalli 6 // 'hash_keccak_256'\n 26036: a3 = u64 [s1 + 0x70]\n 26039: t0 = 0x32e\n 26043: jump @967\n      : @895 [@dyn 406] (gas: 2)\n 26046: a3 = u64 [s1 + 0x70]\n 26049: t0 = 814, jump @967\n      : @896 [@dyn 407] (gas: 7)\n 26055: a1 = u64 [s1 + 0x68]\n 26058: u64 [a1 + 0x18] = a3\n 26061: u64 [a1 + 0x10] = a2\n 26064: u64 [a1 + 0x8] = a4\n 26067: u64 [a1] = a0\n 26069: a0 = s1 + 0x240\n 26073: ra = 816, jump @21\n      : @897 [@dyn 408] (gas: 30)\n 26079: a0 = u64 [s1 + 0x248]\n 26083: a1 = u64 [s1 + 0x240]\n 26087: t0 = u64 [s1 + 0x258]\n 26091: a3 = u64 [s1 + 0x250]\n 26095: a4 = u64 [s1 + 0x80]\n 26099: a4 = a4 + a0\n 26102: a5 = u64 [s1 + 0x90]\n 26106: a5 = a5 + a1\n 26109: a1 = a5 <u a1\n 26112: a4 = a4 + a1\n 26115: a2 = a4 ^ a0\n 26118: a0 = a4 <u a0\n 26121: a0 = a1 if a2 == 0\n 26124: a1 = u64 [s1 + 0x88]\n 26128: a1 = a1 + a3\n 26131: a2 = u64 [s1 + 0x98]\n 26135: t0 = t0 + a2\n 26138: a2 = a1 <u a3\n 26141: a2 = a2 + t0\n 26144: a0 = a0 + a1\n 26147: a1 = a0 <u a1\n 26150: a1 = a1 + a2\n 26153: a2 = s1 + 0x300\n 26157: u64 [a2 + 0xa0] = a5\n 26161: u64 [a2 + 0xa8] = a4\n 26165: u64 [a2 + 0xb0] = a0\n 26169: u64 [a2 + 0xb8] = a1\n 26173: a1 = s1 + 0x3a0\n 26177: a0 = u64 [s1 + 0x68]\n 26180: ra = 818, jump @22\n      : @898 [@dyn 409] (gas: 3)\n 26186: a0 = s1 + 0x220\n 26190: a1 = 0x40\n 26193: ra = 820, jump @17\n      : @899 [@dyn 410] (gas: 6)\n 26199: a4 = s1 + 0x200\n 26203: a3 = u64 [a4 + 0x38]\n 26206: a1 = u64 [a4 + 0x30]\n 26209: a2 = u64 [a4 + 0x28]\n 26212: a0 = u64 [a4 + 0x20]\n 26215: t0 = 822, jump @970\n      : @900 [@dyn 411] (gas: 1)\n 26221: jump @904 if a1 != 0\n      : @901 (gas: 12)\n 26225: a1 = u64 [s1 + 0x90]\n 26229: a3 = s1 + 0x200\n 26233: u64 [a3] = a1\n 26235: a1 = u64 [s1 + 0x80]\n 26239: u64 [a3 + 0x8] = a1\n 26242: a1 = u64 [s1 + 0x88]\n 26246: u64 [a3 + 0x10] = a1\n 26249: a1 = s1 + 0x200\n 26253: a2 = u64 [s1 + 0x98]\n 26257: u64 [a3 + 0x18] = a2\n 26260: u64 [s1 + 0x98] = a0\n 26264: ra = 824, jump @19\n      : @902 [@dyn 412] (gas: 29)\n 26270: u64 [s1 + 440] = 0\n 26274: a0 = u64 [s1 + 0x38]\n 26277: a5 = s1 + 0x100\n 26281: u64 [a5 + 0xb0] = a0\n 26285: a0 = u64 [s1 + 0x40]\n 26288: u64 [a5 + 0xa8] = a0\n 26292: a0 = u64 [s1 + 0x48]\n 26295: u64 [a5 + 0xa0] = a0\n 26299: u64 [s1 + 472] = 0\n 26303: a0 = u64 [s1 + 0x50]\n 26306: u64 [a5 + 0xd0] = a0\n 26310: a0 = u64 [s1 + 0x58]\n 26313: u64 [a5 + 0xc8] = a0\n 26317: a0 = u64 [0x20150]\n 26322: a1 = u64 [0x20158]\n 26327: a2 = u64 [0x20160]\n 26332: a3 = u64 [s1 + 0x60]\n 26335: u64 [a5 + 0xc0] = a3\n 26339: u64 [a5 + 0xf8] = a0\n 26343: u64 [a5 + 0xf0] = a1\n 26347: u64 [a5 + 0xe8] = a2\n 26351: a0 = u64 [0x20168]\n 26356: a1 = 0x20\n 26359: a2 = s1 + 0x1e0\n 26363: a3 = s1 + 0x1c0\n 26367: a4 = s1 + 0x1a0\n 26371: u64 [a5 + 0xe0] = a0\n 26375: a0 = u64 [s1 + 0x98]\n 26379: ra = 826, jump @23\n      : @903 [@dyn 413] (gas: 7)\n 26385: sp = s0 + 0xfffffffffffffc20\n 26389: a0 = sp + 0x300\n 26393: ra = u64 [a0 + 0xd8]\n 26397: s0 = u64 [a0 + 0xd0]\n 26401: s1 = u64 [a0 + 0xc8]\n 26405: sp = sp + 0x3e0\n 26409: ret\n      : @904 (gas: 1)\n 26411: trap\n      : @905 (gas: 8)\n 26412: u64 [s1 + 208] = 0\n 26416: u64 [s1 + 200] = 0\n 26420: u64 [s1 + 192] = 0\n 26424: a0 = 0x96c6fd1e00000000\n 26434: a1 = s1 + 0xc0\n 26438: u64 [s1 + 0xd8] = a0\n 26442: a0 = 0\n 26444: ra = 828, jump @19\n      : @906 [@dyn 414] (gas: 7)\n 26450: u64 [s1 + 184] = 0\n 26454: u64 [s1 + 176] = 0\n 26458: u64 [s1 + 168] = 0\n 26462: a0 = 0x4\n 26465: a1 = s1 + 0xa0\n 26469: u64 [s1 + 160] = 0\n 26473: ra = 830, jump @19\n      : @907 [@dyn 415] (gas: 2)\n 26479: a1 = i32 [0x20194]\n 26484: jump @909 if a1 >u 63\n      : @908 (gas: 3)\n 26488: u32 [0x20194] = 0x40\n 26494: a1 = 0x201a0\n 26499: jump @915\n      : @909 (gas: 2)\n 26501: a1 = 0x201a0\n 26506: jump @915\n      : @910 (gas: 8)\n 26508: u64 [s1 + 272] = 0\n 26512: u64 [s1 + 264] = 0\n 26516: u64 [s1 + 256] = 0\n 26520: a0 = 0xec442f0500000000\n 26530: a1 = s1 + 0x100\n 26534: u64 [s1 + 0x118] = a0\n 26538: a0 = 0\n 26540: ra = 832, jump @19\n      : @911 [@dyn 416] (gas: 7)\n 26546: u64 [s1 + 248] = 0\n 26550: u64 [s1 + 240] = 0\n 26554: u64 [s1 + 232] = 0\n 26558: a0 = 0x4\n 26561: a1 = s1 + 0xe0\n 26565: u64 [s1 + 224] = 0\n 26569: ra = 834, jump @19\n      : @912 [@dyn 417] (gas: 2)\n 26575: a1 = i32 [0x20194]\n 26580: jump @914 if a1 >u 63\n      : @913 (gas: 3)\n 26584: u32 [0x20194] = 0x40\n 26590: a1 = 0x201a0\n 26595: jump @915\n      : @914 (gas: 2)\n 26597: a1 = 0x201a0\n 26602: fallthrough\n      : @915 (gas: 5)\n 26603: i32 a1 = a1 + 0\n 26605: a0 = 0x1\n 26608: a2 = 0x24\n 26611: ecalli 7 // 'seal_return'\n 26613: fallthrough\n      : @916 (gas: 8)\n 26614: u64 [s1 + 400] = 0\n 26618: u64 [s1 + 392] = 0\n 26622: u64 [s1 + 384] = 0\n 26626: a0 = 0xe450d38c00000000\n 26636: a1 = s1 + 0x180\n 26640: u64 [s1 + 0x198] = a0\n 26644: a0 = 0\n 26646: ra = 836, jump @19\n      : @917 [@dyn 418] (gas: 10)\n 26652: u64 [s1 + 376] = 0\n 26656: a0 = u64 [s1 + 0x50]\n 26659: u64 [s1 + 0x170] = a0\n 26663: a0 = u64 [s1 + 0x58]\n 26666: u64 [s1 + 0x168] = a0\n 26670: a0 = 0x4\n 26673: a1 = s1 + 0x160\n 26677: a2 = u64 [s1 + 0x60]\n 26680: u64 [s1 + 0x160] = a2\n 26684: ra = 838, jump @19\n      : @918 [@dyn 419] (gas: 11)\n 26690: a0 = u64 [s1 + 0x28]\n 26693: u64 [s1 + 0x158] = a0\n 26697: a0 = u64 [s1 + 0x20]\n 26700: u64 [s1 + 0x150] = a0\n 26704: a0 = u64 [s1 + 0x30]\n 26707: u64 [s1 + 0x148] = a0\n 26711: a0 = 0x24\n 26714: a1 = s1 + 0x140\n 26718: a2 = u64 [s1 + 0x68]\n 26721: u64 [s1 + 0x140] = a2\n 26725: ra = 840, jump @19\n      : @919 [@dyn 420] (gas: 12)\n 26731: a0 = u64 [s1 + 0x98]\n 26735: a3 = s1 + 0x100\n 26739: u64 [a3 + 0x38] = a0\n 26742: a0 = u64 [s1 + 0x88]\n 26746: u64 [a3 + 0x30] = a0\n 26749: a0 = u64 [s1 + 0x80]\n 26753: u64 [a3 + 0x28] = a0\n 26756: a0 = 0x44\n 26759: a1 = s1 + 0x120\n 26763: a2 = u64 [s1 + 0x90]\n 26767: u64 [a3 + 0x20] = a2\n 26770: ra = 842, jump @19\n      : @920 [@dyn 421] (gas: 3)\n 26776: a0 = u64 [s1 + 0x70]\n 26779: a0 = i32 [a0]\n 26781: jump @922 if a0 >u 127\n      : @921 (gas: 3)\n 26785: a1 = u64 [s1 + 0x70]\n 26788: u32 [a1 + 0] = 0x80\n 26792: fallthrough\n      : @922 (gas: 6)\n 26793: a0 = 0x1\n 26796: a2 = 0x64\n 26799: a1 = u64 [s1 + 0x78]\n 26802: ra = 0x34c\n 26806: ecalli 7 // 'seal_return'\n 26808: fallthrough\n      : @923 [@dyn 422] (gas: 13)\n 26809: sp = sp + 0xffffffffffffff40\n 26813: u64 [sp + 0xb8] = ra\n 26817: u64 [sp + 0xb0] = s0\n 26821: u64 [sp + 0xa8] = s1\n 26825: s0 = sp + 0xc0\n 26829: sp = sp & 0xffffffffffffffe0\n 26832: u64 [sp + 152] = 0\n 26836: u64 [sp + 144] = 0\n 26840: u64 [sp + 136] = 0\n 26844: u64 [sp + 128] = 0x5\n 26849: a0 = sp + 0x60\n 26852: a1 = sp + 0x80\n 26856: ra = 846, jump @21\n      : @924 [@dyn 423] (gas: 11)\n 26862: a0 = u64 [sp + 0x68]\n 26865: u64 [sp + 0x18] = a0\n 26868: a0 = u64 [sp + 0x60]\n 26871: u64 [sp + 0x10] = a0\n 26874: a0 = u32 [sp + 0x70]\n 26877: u64 [sp + 0x8] = a0\n 26880: s1 = 0x301a0\n 26885: i32 a0 = s1 + 0\n 26887: u64 [sp] = a0\n 26889: ecalli 3 // 'caller'\n 26891: fallthrough\n      : @925 (gas: 22)\n 26892: a0 = u64 [0x301a8]\n 26897: a1 = u64 [0x301a0]\n 26902: a2 = i32 [0x301b0]\n 26907: a0 = reverse a0\n 26909: a3 = a0 >> 0x20\n 26912: a1 = reverse a1\n 26914: a4 = a1 << 0x20\n 26917: a3 = a3 | a4\n 26920: a0 = a0 << 0x20\n 26923: a2 = reverse a2\n 26925: a2 = a2 >> 0x20\n 26928: a0 = a0 | a2\n 26931: a1 = a1 >> 0x20\n 26934: a2 = u64 [sp + 0x8]\n 26937: a1 = a1 ^ a2\n 26940: a2 = u64 [sp + 0x10]\n 26943: a0 = a0 ^ a2\n 26946: a0 = a0 | a1\n 26949: a1 = u64 [sp + 0x18]\n 26952: a1 = a1 ^ a3\n 26955: a0 = a0 | a1\n 26958: jump @927 if a0 != 0\n      : @926 (gas: 6)\n 26961: sp = s0 + 0xffffffffffffff40\n 26965: ra = u64 [sp + 0xb8]\n 26969: s0 = u64 [sp + 0xb0]\n 26973: s1 = u64 [sp + 0xa8]\n 26977: sp = sp + 0xc0\n 26981: ret\n      : @927 (gas: 8)\n 26983: u64 [sp + 80] = 0\n 26986: u64 [sp + 72] = 0\n 26989: u64 [sp + 64] = 0\n 26992: a0 = 0x118cdaa700000000\n 27002: a1 = sp + 0x40\n 27005: u64 [sp + 0x58] = a0\n 27008: a0 = 0\n 27010: ra = 848, jump @19\n      : @928 [@dyn 424] (gas: 22)\n 27016: a0 = u64 [sp]\n 27018: ecalli 3 // 'caller'\n 27020: a0 = u64 [s1 + 0x8]\n 27023: a1 = i32 [s1 + 0x10]\n 27026: a2 = u64 [s1]\n 27028: a0 = reverse a0\n 27030: a3 = a0 << 0x20\n 27033: a1 = reverse a1\n 27035: a1 = a1 >> 0x20\n 27038: a3 = a3 | a1\n 27041: a0 = a0 >> 0x20\n 27044: a1 = reverse a2\n 27046: a2 = a1 << 0x20\n 27049: a0 = a0 | a2\n 27052: a1 = a1 >> 0x20\n 27055: u64 [sp + 56] = 0\n 27058: u64 [sp + 0x30] = a1\n 27061: u64 [sp + 0x28] = a0\n 27064: a0 = 0x4\n 27067: a1 = sp + 0x20\n 27070: u64 [sp + 0x20] = a3\n 27073: ra = 850, jump @19\n      : @929 [@dyn 425] (gas: 2)\n 27079: a1 = i32 [0x20194]\n 27084: jump @931 if a1 >u 63\n      : @930 (gas: 2)\n 27088: u32 [0x20194] = 0x40\n 27094: fallthrough\n      : @931 (gas: 7)\n 27095: a1 = 0x201a0\n 27100: i32 a1 = a1 + 0\n 27102: a0 = 0x1\n 27105: a2 = 0x24\n 27108: ra = 0x354\n 27112: ecalli 7 // 'seal_return'\n 27114: fallthrough\n      : @932 [@dyn 426] (gas: 17)\n 27115: sp = sp + 0xfffffffffffffd80\n 27119: a2 = sp + 0x200\n 27123: u64 [a2 + 0x78] = ra\n 27126: u64 [a2 + 0x70] = s0\n 27129: u64 [a2 + 0x68] = s1\n 27132: s0 = sp + 0x280\n 27136: sp = sp & 0xffffffffffffffe0\n 27139: s1 = sp\n 27141: a3 = u32 [a0 + 0x10]\n 27144: a2 = u64 [a0]\n 27146: a4 = u64 [a0 + 0x8]\n 27149: u64 [s1 + 0x30] = a2\n 27152: u64 [s1 + 0x28] = a3\n 27155: a0 = a2 | a3\n 27158: u64 [s1 + 0x20] = a4\n 27161: a0 = a0 | a4\n 27164: jump @951 if a0 == 0\n      : @933 (gas: 15)\n 27168: a0 = u64 [a1 + 0x18]\n 27171: u64 [s1 + 0x58] = a0\n 27174: a0 = u64 [a1 + 0x10]\n 27177: u64 [s1 + 0x50] = a0\n 27180: a0 = u64 [a1 + 0x8]\n 27183: u64 [s1 + 0x48] = a0\n 27186: a0 = u64 [a1]\n 27188: u64 [s1 + 0x40] = a0\n 27191: u64 [s1 + 536] = 0\n 27195: u64 [s1 + 528] = 0\n 27199: u64 [s1 + 520] = 0\n 27203: u64 [s1 + 512] = 0x2\n 27208: a0 = s1 + 0x1e0\n 27212: a1 = s1 + 0x200\n 27216: ra = 854, jump @21\n      : @934 [@dyn 427] (gas: 38)\n 27222: t2 = u64 [s1 + 0x1f8]\n 27226: a1 = s1 + 0x100\n 27230: a0 = u64 [a1 + 0xf0]\n 27234: a4 = u64 [a1 + 0xe0]\n 27238: a5 = u64 [a1 + 0xe8]\n 27242: a1 = sp + 0xffffffffffffffe0\n 27245: a1 = a1 & 0xffffffffffffffe0\n 27248: sp = a1\n 27250: a3 = u64 [s1 + 0x48]\n 27253: a3 = a3 + a5\n 27256: t0 = u64 [s1 + 0x40]\n 27259: t0 = t0 + a4\n 27262: a4 = t0 <u a4\n 27265: a3 = a3 + a4\n 27268: t1 = a3 ^ a5\n 27271: a2 = a3 <u a5\n 27274: a2 = a4 if t1 == 0\n 27277: a4 = u64 [s1 + 0x50]\n 27280: a4 = a4 + a0\n 27283: a5 = a4 + a2\n 27286: t1 = a5 <u a4\n 27289: ra = u64 [s1 + 0x58]\n 27292: ra = ra + t2\n 27295: a4 = a4 <u a0\n 27298: a4 = a4 + ra\n 27301: ra = a4 + t1\n 27304: t1 = a5 <u a0\n 27307: a4 = t2 ^ ra\n 27310: t2 = ra <u t2\n 27313: t2 = t1 if a4 == 0\n 27316: a0 = a0 ^ a5\n 27319: a0 = a0 | a4\n 27322: t2 = a2 if a0 == 0\n 27325: u64 [a1 + 0x10] = a5\n 27328: u64 [a1 + 0x8] = a3\n 27331: u64 [a1] = t0\n 27333: u64 [a1 + 0x18] = ra\n 27336: jump @956 if t2 != 0\n      : @935 (gas: 6)\n 27340: u64 [s1 + 568] = 0\n 27344: u64 [s1 + 560] = 0\n 27348: u64 [s1 + 552] = 0\n 27352: u64 [s1 + 544] = 0x2\n 27357: a0 = s1 + 0x220\n 27361: ra = 856, jump @22\n      : @936 [@dyn 428] (gas: 11)\n 27367: u64 [s1 + 472] = 0\n 27371: a0 = u64 [s1 + 0x28]\n 27374: a2 = s1 + 0x100\n 27378: u64 [a2 + 0xd0] = a0\n 27382: a0 = u64 [s1 + 0x20]\n 27385: u64 [a2 + 0xc8] = a0\n 27389: a1 = s1 + 0x1c0\n 27393: a0 = u64 [s1 + 0x30]\n 27396: u64 [a2 + 0xc0] = a0\n 27400: a0 = 0\n 27402: ra = 858, jump @19\n      : @937 [@dyn 429] (gas: 7)\n 27408: u64 [s1 + 440] = 0\n 27412: u64 [s1 + 432] = 0\n 27416: u64 [s1 + 424] = 0\n 27420: a0 = 0x20\n 27423: a1 = s1 + 0x1a0\n 27427: u64 [s1 + 416] = 0\n 27431: ra = 860, jump @19\n      : @938 [@dyn 430] (gas: 6)\n 27437: a0 = sp + 0xffffffffffffffe0\n 27440: a0 = a0 & 0xffffffffffffffe0\n 27443: u64 [s1 + 0x38] = a0\n 27446: sp = a0\n 27448: a1 = i32 [0x20194]\n 27453: jump @940 if a1 >u 63\n      : @939 (gas: 2)\n 27457: u32 [0x20194] = 0x40\n 27463: fallthrough\n      : @940 (gas: 13)\n 27464: a0 = sp + 0xffffffffffffffe0\n 27467: a2 = a0 & 0xffffffffffffffe0\n 27470: u64 [s1 + 0x18] = a2\n 27473: sp = a2\n 27475: a0 = 0x201a0\n 27480: i32 a0 = a0 + 0\n 27482: i32 a2 = a2 + 0\n 27484: a1 = 0x40\n 27487: ra = 0x35e\n 27491: ecalli 6 // 'hash_keccak_256'\n 27493: a3 = u64 [s1 + 0x18]\n 27496: t0 = 0x360\n 27500: jump @967\n      : @941 [@dyn 431] (gas: 2)\n 27503: a3 = u64 [s1 + 0x18]\n 27506: t0 = 864, jump @967\n      : @942 [@dyn 432] (gas: 7)\n 27512: a1 = u64 [s1 + 0x38]\n 27515: u64 [a1 + 0x18] = a3\n 27518: u64 [a1 + 0x10] = a2\n 27521: u64 [a1 + 0x8] = a4\n 27524: u64 [a1] = a0\n 27526: a0 = s1 + 0x180\n 27530: ra = 866, jump @21\n      : @943 [@dyn 433] (gas: 30)\n 27536: a0 = u64 [s1 + 0x188]\n 27540: a1 = u64 [s1 + 0x180]\n 27544: t0 = u64 [s1 + 0x198]\n 27548: a3 = u64 [s1 + 0x190]\n 27552: a4 = u64 [s1 + 0x48]\n 27555: a4 = a4 + a0\n 27558: a5 = u64 [s1 + 0x40]\n 27561: a5 = a5 + a1\n 27564: a1 = a5 <u a1\n 27567: a4 = a4 + a1\n 27570: a2 = a4 ^ a0\n 27573: a0 = a4 <u a0\n 27576: a0 = a1 if a2 == 0\n 27579: a1 = u64 [s1 + 0x50]\n 27582: a1 = a1 + a3\n 27585: a2 = u64 [s1 + 0x58]\n 27588: t0 = t0 + a2\n 27591: a2 = a1 <u a3\n 27594: a2 = a2 + t0\n 27597: a0 = a0 + a1\n 27600: a1 = a0 <u a1\n 27603: a1 = a1 + a2\n 27606: a2 = s1 + 0x200\n 27610: u64 [a2 + 0x40] = a5\n 27613: u64 [a2 + 0x48] = a4\n 27616: u64 [a2 + 0x50] = a0\n 27619: u64 [a2 + 0x58] = a1\n 27622: a1 = s1 + 0x240\n 27626: a0 = u64 [s1 + 0x38]\n 27629: ra = 868, jump @22\n      : @944 [@dyn 434] (gas: 3)\n 27635: a0 = s1 + 0x160\n 27639: a1 = 0x40\n 27642: ra = 870, jump @17\n      : @945 [@dyn 435] (gas: 6)\n 27648: a4 = s1 + 0x100\n 27652: a3 = u64 [a4 + 0x78]\n 27655: a1 = u64 [a4 + 0x70]\n 27658: a2 = u64 [a4 + 0x68]\n 27661: a0 = u64 [a4 + 0x60]\n 27664: t0 = 872, jump @970\n      : @946 [@dyn 436] (gas: 1)\n 27670: jump @950 if a1 != 0\n      : @947 (gas: 11)\n 27674: a1 = u64 [s1 + 0x40]\n 27677: u64 [s1 + 0x140] = a1\n 27681: a1 = u64 [s1 + 0x48]\n 27684: u64 [s1 + 0x148] = a1\n 27688: a1 = u64 [s1 + 0x50]\n 27691: u64 [s1 + 0x150] = a1\n 27695: a1 = s1 + 0x140\n 27699: a2 = u64 [s1 + 0x58]\n 27702: u64 [s1 + 0x158] = a2\n 27706: u64 [s1 + 0x58] = a0\n 27709: ra = 874, jump @19\n      : @948 [@dyn 437] (gas: 26)\n 27715: u64 [s1 + 248] = 0\n 27719: a0 = u64 [s1 + 0x28]\n 27722: u64 [s1 + 0xf0] = a0\n 27726: a0 = u64 [s1 + 0x20]\n 27729: u64 [s1 + 0xe8] = a0\n 27733: a0 = u64 [s1 + 0x30]\n 27736: u64 [s1 + 0xe0] = a0\n 27740: u64 [s1 + 280] = 0\n 27744: u64 [s1 + 272] = 0\n 27748: u64 [s1 + 264] = 0\n 27752: a0 = u64 [0x20170]\n 27757: a1 = u64 [0x20178]\n 27762: a2 = u64 [0x20180]\n 27767: u64 [s1 + 256] = 0\n 27771: a5 = s1 + 0x100\n 27775: u64 [a5 + 0x38] = a0\n 27778: u64 [a5 + 0x30] = a1\n 27781: u64 [a5 + 0x28] = a2\n 27784: a0 = u64 [0x20188]\n 27789: a1 = 0x20\n 27792: a2 = s1 + 0x120\n 27796: a3 = s1 + 0x100\n 27800: a4 = s1 + 0xe0\n 27804: u64 [a5 + 0x20] = a0\n 27807: a0 = u64 [s1 + 0x58]\n 27810: ra = 876, jump @23\n      : @949 [@dyn 438] (gas: 7)\n 27816: sp = s0 + 0xfffffffffffffd80\n 27820: a0 = sp + 0x200\n 27824: ra = u64 [a0 + 0x78]\n 27827: s0 = u64 [a0 + 0x70]\n 27830: s1 = u64 [a0 + 0x68]\n 27833: sp = sp + 0x280\n 27837: ret\n      : @950 (gas: 1)\n 27839: trap\n      : @951 (gas: 8)\n 27840: u64 [s1 + 144] = 0\n 27844: u64 [s1 + 136] = 0\n 27848: u64 [s1 + 128] = 0\n 27852: a0 = 0xec442f0500000000\n 27862: a1 = s1 + 0x80\n 27866: u64 [s1 + 0x98] = a0\n 27870: a0 = 0\n 27872: ra = 878, jump @19\n      : @952 [@dyn 439] (gas: 7)\n 27878: u64 [s1 + 120] = 0\n 27881: u64 [s1 + 112] = 0\n 27884: u64 [s1 + 104] = 0\n 27887: a0 = 0x4\n 27890: a1 = s1 + 0x60\n 27893: u64 [s1 + 96] = 0\n 27896: ra = 880, jump @19\n      : @953 [@dyn 440] (gas: 2)\n 27902: a1 = i32 [0x20194]\n 27907: jump @955 if a1 >u 63\n      : @954 (gas: 3)\n 27911: u32 [0x20194] = 0x40\n 27917: a1 = 0x201a0\n 27922: jump @962\n      : @955 (gas: 2)\n 27924: a1 = 0x201a0\n 27929: jump @962\n      : @956 (gas: 6)\n 27931: u64 [s1 + 208] = 0\n 27935: u64 [s1 + 200] = 0\n 27939: u64 [s1 + 192] = 0\n 27943: t0 = 0x372\n 27947: a0 = 0x4e487b7100000000\n 27957: fallthrough\n      : @957 [@dyn 441] (gas: 4)\n 27958: a1 = s1 + 0xc0\n 27962: u64 [s1 + 0xd8] = a0\n 27966: a0 = 0\n 27968: ra = 884, jump @19\n      : @958 [@dyn 442] (gas: 7)\n 27974: u64 [s1 + 184] = 0\n 27978: u64 [s1 + 176] = 0\n 27982: u64 [s1 + 160] = 0x11\n 27987: a0 = 0x4\n 27990: a1 = s1 + 0xa0\n 27994: u64 [s1 + 168] = 0\n 27998: ra = 886, jump @19\n      : @959 [@dyn 443] (gas: 2)\n 28004: a1 = i32 [0x20194]\n 28009: jump @961 if a1 >u 63\n      : @960 (gas: 3)\n 28013: u32 [0x20194] = 0x40\n 28019: a1 = 0x201a0\n 28024: jump @962\n      : @961 (gas: 2)\n 28026: a1 = 0x201a0\n 28031: fallthrough\n      : @962 (gas: 7)\n 28032: i32 a1 = a1 + 0\n 28034: a0 = 0x1\n 28037: a2 = 0x24\n 28040: ecalli 7 // 'seal_return'\n 28042: a0 = 0\n 28044: ra = 0x378\n 28048: jump @32\n      : @963 [export #0: 'call'] (gas: 2)\n 28051: a0 = 0\n 28053: ra = 888, jump @32\n      : @964 [@dyn 444] [export #1: 'deploy'] (gas: 2)\n 28059: a0 = 0x1\n 28062: ra = 890, jump @32\n      : @965 [@dyn 445] (gas: 17)\n 28068: a2 = u64 [s1 + 0xd8]\n 28072: a0 = u64 [a2 + 0x8]\n 28075: a1 = i32 [a2 + 0x10]\n 28078: a2 = u64 [a2]\n 28080: a0 = reverse a0\n 28082: a3 = a0 << 0x20\n 28085: a1 = reverse a1\n 28087: a1 = a1 >> 0x20\n 28090: a3 = a3 | a1\n 28093: a0 = a0 >> 0x20\n 28096: a1 = reverse a2\n 28098: a2 = a1 << 0x20\n 28101: a0 = a0 | a2\n 28104: a1 = a1 >> 0x20\n 28107: a2 = s1 + 0x7ff\n 28111: a2 = a2 + 0x79\n 28114: jump [t0]\n      : @966 (gas: 14)\n 28116: a0 = u64 [a2 + 0x8]\n 28119: a1 = i32 [a2 + 0x10]\n 28122: a2 = u64 [a2]\n 28124: a0 = reverse a0\n 28126: a3 = a0 << 0x20\n 28129: a1 = reverse a1\n 28131: a1 = a1 >> 0x20\n 28134: a3 = a3 | a1\n 28137: a0 = a0 >> 0x20\n 28140: a1 = reverse a2\n 28142: a2 = a1 << 0x20\n 28145: a0 = a0 | a2\n 28148: a1 = a1 >> 0x20\n 28151: jump [t0]\n      : @967 (gas: 9)\n 28153: a0 = u64 [a3 + 0x18]\n 28156: a1 = u64 [a3 + 0x10]\n 28159: a2 = u64 [a3 + 0x8]\n 28162: a3 = u64 [a3]\n 28164: a0 = reverse a0\n 28166: a4 = reverse a1\n 28168: a2 = reverse a2\n 28170: a3 = reverse a3\n 28172: jump [t0]\n      : @968 (gas: 10)\n 28174: a0 = u64 [a3 + 0x18]\n 28177: a1 = u64 [a3 + 0x10]\n 28180: a2 = u64 [a3 + 0x8]\n 28183: a3 = u64 [a3]\n 28185: a0 = reverse a0\n 28187: a1 = reverse a1\n 28189: a2 = reverse a2\n 28191: a3 = reverse a3\n 28193: a4 = s1 + 0x1878\n 28197: jump [t0]\n      : @969 (gas: 16)\n 28199: a4 = u64 [s1 + 0x118]\n 28203: a2 = a4 <u 0x80\n 28207: a3 = u64 [s1 + 0xd0]\n 28211: a1 = a3 if a2 != 0\n 28214: a5 = u64 [s1 + 0xd8]\n 28218: a3 = u64 [s1 + 0xe8]\n 28222: a3 = a3 | a5\n 28225: a3 = a0 if a2 == 0\n 28228: a1 = 0xffffffffffffffff if a4 == 0\n 28231: a3 = 0xffffffffffffffff if a4 == 0\n 28234: a4 = u64 [s1 + 0xe0]\n 28238: a4 = 0 if a2 == 0\n 28240: a5 = 0 if a2 == 0\n 28242: a0 = u64 [s1 + 0xf0]\n 28246: a0 = a0 & ~a3\n 28249: jump [t0]\n      : @970 (gas: 8)\n 28251: a3 = a3 | a2\n 28254: a2 = a0 | a1\n 28257: a2 = a2 | a3\n 28260: a2 = a2 >> 0x20\n 28263: a1 = a1 | a3\n 28266: a1 = a1 << 0x20\n 28269: a1 = a1 | a2\n 28272: jump [t0]\n      : @971 (gas: 8)\n 28274: a0 = u64 [a2 + 0x8]\n 28277: a1 = i32 [a2 + 0x10]\n 28280: a2 = u64 [a2]\n 28282: a3 = reverse a0\n 28284: a0 = a3 << 0x20\n 28287: a1 = reverse a1\n 28289: a1 = a1 >> 0x20\n 28292: jump [t0]\n      : @972 (gas: 14)\n 28294: a3 = a3 + a4\n 28297: u64 [s1 + 0xe8] = a3\n 28301: a3 = a3 << 0x3b\n 28304: a4 = a2 >> 0x5\n 28307: a4 = a4 | a3\n 28310: a0 = u64 [s1 + 0x108]\n 28314: t1 = u64 [a0 + 0x18]\n 28317: a2 = a2 << 0x3b\n 28320: a3 = u64 [a0 + 0x10]\n 28323: a1 = a1 >> 0x5\n 28326: a0 = a1 | a2\n 28329: t2 = reverse t1\n 28331: a2 = reverse a3\n 28333: jump [t0]\n      : @973 (gas: 14)\n 28335: a5 = a5 + a2\n 28338: a4 = a5 <u a2\n 28341: a0 = u64 [s1 + 0x110]\n 28345: a2 = a2 <u a0\n 28348: a0 = t2 + a2\n 28351: a0 = a0 + a4\n 28354: a2 = a1 | a5\n 28357: a0 = a0 | a3\n 28360: a2 = a2 | a0\n 28363: a2 = a2 >> 0x20\n 28366: a0 = a0 | a5\n 28369: a0 = a0 << 0x20\n 28372: a0 = a0 | a2\n 28375: jump [t0]\n      : @974 (gas: 13)\n 28377: a4 = a0 << 0x3f\n 28380: a5 = a1 >> 0x1\n 28383: t1 = a5 | a4\n 28386: a5 = a3 << 0x3f\n 28389: a0 = a0 >> 0x1\n 28392: a0 = a0 | a5\n 28395: a1 = a1 << 0x3f\n 28398: a5 = a2 >> 0x1\n 28401: a1 = a1 | a5\n 28404: a3 = a3 >> 0x1\n 28407: a2 = a2 & 0x1\n 28410: a5 = -a2\n 28412: jump [t0]\n      : @975 (gas: 14)\n 28414: a0 = u64 [a2 + 0x8]\n 28417: a1 = i32 [a2 + 0x10]\n 28420: a2 = u64 [a2]\n 28422: a0 = reverse a0\n 28424: a3 = a0 << 0x20\n 28427: a1 = reverse a1\n 28429: a1 = a1 >> 0x20\n 28432: a1 = a1 | a3\n 28435: a0 = a0 >> 0x20\n 28438: a2 = reverse a2\n 28440: a3 = a2 << 0x20\n 28443: a0 = a0 | a3\n 28446: a2 = a2 >> 0x20\n 28449: jump [t0]\n      : @976 (gas: 10)\n 28451: a4 = 0 if a2 == 0\n 28453: a1 = u64 [s1 + 0xf8]\n 28457: a1 = a1 & ~a3\n 28460: a2 = u64 [s1 + 0x100]\n 28464: a0 = a2 & ~a0\n 28467: a2 = u64 [s1 + 0x108]\n 28471: a2 = a2 & ~a4\n 28474: a3 = u64 [s1 + 0x110]\n 28478: a3 = a3 & ~a5\n 28481: jump [t0]\n      : @977 (gas: 13)\n 28483: a5 = a5 + a2\n 28486: a3 = a5 <u a2\n 28489: a2 = a2 <u t2\n 28492: a0 = t1 + a2\n 28495: a0 = a0 + a3\n 28498: a2 = a1 | a5\n 28501: a0 = a0 | a4\n 28504: a2 = a2 | a0\n 28507: a2 = a2 >> 0x20\n 28510: a0 = a0 | a5\n 28513: a0 = a0 << 0x20\n 28516: a0 = a0 | a2\n 28519: jump [t0]\n      : @978 (gas: 11)\n 28521: a1 = u64 [s1 + 0xf8]\n 28525: a0 = u64 [s1 + 0xe8]\n 28529: a3 = u64 [s1 + 0xe0]\n 28533: a3 = a3 | a0\n 28536: a4 = 0x100000000\n 28546: a0 = 0xfffffffc\n 28556: a0 = a1 <u a0\n 28559: a2 = u64 [s1 + 0xf0]\n 28563: a0 = 0 if a2 != 0\n 28565: a0 = 0 if a3 != 0\n 28567: jump [t0]\n      : @979 (gas: 8)\n 28569: a2 = a4 >u 0\n 28571: a1 = a1 ^ 0x1\n 28574: a1 = a2 if a4 != 0\n 28577: a2 = t2 >u 0\n 28579: a3 = a5 >u 0\n 28581: a3 = a2 if a5 == 0\n 28584: a3 = a1 if a0 == 0\n 28587: jump [t0]\n      : @980 (gas: 10)\n 28589: a0 = u64 [sp + 0x10]\n 28592: a1 = u64 [sp + 0x18]\n 28595: a2 = 0x100000000\n 28605: a2 = a2 ^ a0\n 28608: a2 = a2 | a1\n 28611: a3 = a0 >> 0x20\n 28614: a3 = a3 <u 0x1\n 28617: a3 = 0 if a1 != 0\n 28619: a3 = 0 if a2 == 0\n 28621: jump [t0]\n      : @981 (gas: 13)\n 28623: a4 = s1 + 0x400\n 28627: a0 = u64 [a4 + 0x18]\n 28630: a1 = u64 [a4 + 0x10]\n 28633: a2 = u64 [a4 + 0x8]\n 28636: a3 = u64 [a4]\n 28638: a0 = a0 | a2\n 28641: a2 = a3 | a1\n 28644: a2 = a2 | a0\n 28647: a2 = a2 >> 0x20\n 28650: a0 = a0 | a1\n 28653: a0 = a0 << 0x20\n 28656: a0 = a0 | a2\n 28659: jump [t0]\n      : @982 (gas: 10)\n 28661: a0 = u64 [a3 + 0x18]\n 28664: a1 = u64 [a3 + 0x10]\n 28667: a2 = u64 [a3 + 0x8]\n 28670: a3 = u64 [a3]\n 28672: a0 = reverse a0\n 28674: a1 = reverse a1\n 28676: a2 = reverse a2\n 28678: a3 = reverse a3\n 28680: a4 = s1 + 0x300\n 28684: jump [t0]\n      : @983 (gas: 8)\n 28686: a3 = u64 [s1 + 0xf8]\n 28690: a0 = 0xffffffbc\n 28700: a0 = a3 <u a0\n 28703: a1 = u64 [s1 + 0xf0]\n 28707: a0 = 0 if a1 != 0\n 28709: a1 = u64 [s1 + 0xe8]\n 28713: a0 = 0 if a1 != 0\n 28715: jump [t0]\n      : @984 (gas: 12)\n 28717: a4 = u64 [s1 + 0xe8]\n 28721: a2 = u64 [s1 + 0xe0]\n 28725: a0 = u64 [s1 + 0xf8]\n 28729: a0 = a0 | a4\n 28732: a3 = u64 [s1 + 0xf0]\n 28736: a1 = a2 | a3\n 28739: a1 = a1 | a0\n 28742: a1 = a1 >> 0x20\n 28745: a0 = a0 | a3\n 28748: a0 = a0 << 0x20\n 28751: a0 = a0 | a1\n 28754: jump [t0]\n      : @985 (gas: 8)\n 28756: a0 = a0 | a3\n 28759: a3 = a1 | a2\n 28762: a3 = a3 | a0\n 28765: a3 = a3 >> 0x20\n 28768: a0 = a0 | a2\n 28771: a0 = a0 << 0x20\n 28774: a0 = a0 | a3\n 28777: jump [t0]\n      : @986 (gas: 8)\n 28779: a4 = a4 | a2\n 28782: a2 = a0 | a1\n 28785: a2 = a2 | a4\n 28788: a2 = a2 >> 0x20\n 28791: a1 = a1 | a4\n 28794: a1 = a1 << 0x20\n 28797: a1 = a1 | a2\n 28800: jump [t0]\n      : @987 (gas: 12)\n 28802: a2 = u64 [sp]\n 28804: a3 = u64 [sp + 0x8]\n 28807: u64 [s1] = a2\n 28809: u64 [s1 + 0x8] = a3\n 28812: u64 [s1 + 0x10] = a0\n 28815: u64 [s1 + 0x18] = a1\n 28818: sp = s0 + 0xffffffffffffffc0\n 28821: ra = u64 [sp + 0x38]\n 28824: s0 = u64 [sp + 0x30]\n 28827: s1 = u64 [sp + 0x28]\n 28830: sp = sp + 0x40\n 28833: jump [t0]\n      : @988 (gas: 8)\n 28835: a4 = a2 + a0\n 28838: a4 = a4 + a3\n 28841: a3 = a4 ^ a2\n 28844: u64 [s1 + 0xf0] = a4\n 28848: a2 = a4 <u a2\n 28851: a2 = a0 if a3 == 0\n 28854: a4 = u64 [s1 + 0xe8]\n 28858: jump [t0]\n      : @989 (gas: 7)\n 28860: a0 = a0 << 0x3b\n 28863: a1 = a0 >> 0x38\n 28866: u64 [s1 + 0x118] = a1\n 28870: a2 = 0x80 - a1\n 28874: a0 = 0xffffffffffffffff\n 28877: a1 = 0xffffffffffffffff\n 28880: jump [t0]\n      : @990 (gas: 10)\n 28882: u64 [s1 + 0xd8] = a0\n 28886: u64 [s1 + 0xe0] = a1\n 28890: a0 = u64 [s1 + 0xd0]\n 28894: a0 = a0 | a1\n 28897: u64 [s1 + 0xd0] = a0\n 28901: a0 = u64 [s1 + 0x118]\n 28905: a2 = a0 + 0xffffffffffffff80\n 28908: a0 = 0xffffffffffffffff\n 28911: a1 = 0xffffffffffffffff\n 28914: jump [t0]\n      : @991 (gas: 6)\n 28916: a0 = u32 [a2 + 0x10]\n 28919: a1 = u64 [a2]\n 28921: a2 = u64 [a2 + 0x8]\n 28924: a0 = a0 | a1\n 28927: a0 = a0 | a2\n 28930: jump [t0]\n      : @992 (gas: 9)\n 28932: a2 = u64 [s1 + 0xe0]\n 28936: a0 = a2 >> 0x3b\n 28939: a1 = u64 [s1 + 0xf8]\n 28943: a1 = a1 << 0x5\n 28946: a1 = a1 | a0\n 28949: a2 = a2 << 0x5\n 28952: a0 = u64 [s1 + 0xa0]\n 28956: t2 = a0 + 0x24\n 28959: jump [t0]\n      : @993 (gas: 8)\n 28961: a0 = a0 + a4\n 28964: a3 = a3 + a1\n 28967: a5 = a3 <u a1\n 28970: a0 = a0 + a5\n 28973: ra = u64 [s1 + 0xe0]\n 28977: ra = ra + a3\n 28980: a3 = ra <u a3\n 28983: jump [t0]\n      : @994 (gas: 9)\n 28985: sp = sp + 0xffffffffffffffc0\n 28988: u64 [sp + 0x38] = ra\n 28991: u64 [sp + 0x30] = s0\n 28994: u64 [sp + 0x28] = s1\n 28997: s0 = sp + 0x40\n 29000: sp = sp & 0xffffffffffffffe0\n 29003: s1 = a0\n 29005: i32 a0 = sp + 0\n 29007: jump [t0]\n      : @995 (gas: 6)\n 29009: a1 = a3 << 0x3\n 29012: u64 [s1 + 0x118] = a1\n 29016: i32 a2 = 0x80 - a1\n 29020: a0 = 0xffffffffffffffff\n 29023: a1 = 0xffffffffffffffff\n 29026: jump [t0]\n      : @996 (gas: 7)\n 29028: a3 = a3 | a5\n 29031: a3 = a1 if a2 == 0\n 29034: a1 = 0xffffffffffffffff\n 29037: a0 = a1 if a4 == 0\n 29040: a3 = a1 if a4 == 0\n 29043: a5 = 0 if a2 == 0\n 29045: jump [t0]\n      : @997 (gas: 6)\n 29047: a1 = a2 & ~a1\n 29050: a2 = u64 [s1 + 0x108]\n 29054: a2 = a2 & ~a5\n 29057: a3 = u64 [s1 + 0x110]\n 29061: a3 = a3 & ~a4\n 29064: jump [t0]\n      : @998 (gas: 6)\n 29066: a0 = u64 [a3 + 0x18]\n 29069: a1 = u64 [a3 + 0x10]\n 29072: a2 = u64 [a3 + 0x8]\n 29075: a3 = u64 [a3]\n 29077: a0 = reverse a0\n 29079: jump [t0]\n      : @999 (gas: 5)\n 29081: sp = a0\n 29083: i32 a2 = a0 + 0\n 29085: a1 = 0x40\n 29088: a0 = u64 [s1 + 0xc0]\n 29092: jump [t0]\n      : @1000 (gas: 2)\n 29094: a3 = a2 & 0x40\n 29097: jump @1004 if a3 != 0\n      : @1001 (gas: 1)\n 29100: jump @1003 if a2 == 0\n      : @1002 (gas: 6)\n 29103: i32 a3 = 0x40 - a2\n 29106: a3 = a1 << a3\n 29109: a1 = a1 >> a2\n 29112: a0 = a0 >> a2\n 29115: a0 = a0 | a3\n 29118: ret\n      : @1003 (gas: 1)\n 29120: ret\n      : @1004 (gas: 4)\n 29122: a0 = a2 + 0xffffffffffffffc0\n 29125: a0 = a1 >> a0\n 29128: a1 = 0\n 29130: ret\n      : @1005 (gas: 2)\n 29132: a3 = a2 & 0x40\n 29135: jump @1009 if a3 != 0\n      : @1006 (gas: 1)\n 29138: jump @1008 if a2 == 0\n      : @1007 (gas: 6)\n 29141: i32 a3 = 0x40 - a2\n 29144: a3 = a0 >> a3\n 29147: a0 = a0 << a2\n 29150: a1 = a1 << a2\n 29153: a1 = a1 | a3\n 29156: ret\n      : @1008 (gas: 1)\n 29158: ret\n      : @1009 (gas: 4)\n 29160: a1 = a2 + 0xffffffffffffffc0\n 29163: a1 = a0 << a1\n 29166: a0 = 0\n 29168: ret\n","bytecode":{"object":"50564d00003486000000000000010700c1c001c00080038190445355206b636f4d00656c6261745320145916539c07e08b84f2a4d01fcd4413afdaa322977f4919e057646b6f18b4e3ffffff5e123331e49bc8e21bad52f2ddaa8d37fc68b0c26916a1c463f1a72b95efb323f54d5af528145916539c07e08b84f2a4d01fcd4413afdaa322977f4919e057646b6f18b4e31af85fc1fbac358af209d74f347dae39c6658caab400868e9bd16be37ffe4bb66c20737961727241696d206874676e650000686374616d736d20746f6e6e61437a206f7420746e6972646461206f72650100a0dec5adc9356c207465637561463031203a74696d69204453554d2030306c6c6163207265709bc8e21bad52f2ddaa8d37fc68b0c26916a1c463f1a72b95efb323f54d5af5285b7decebe5e15b8cf3841e7d42714fd11e29b2f7c01403dd25b9c3c7c80a205b003c599e0e5a57c228db122fc9f859f9d002053b5a39c3695bf8716f4416255e9bc8e21bad52f2ddaa8d37fc68b0c26916a1c463f1a72b95efb323f54d5af5289bc8e21bad52f2ddaa8d37fc68b0c26916a1c463f1a72b95efb323f54d5af5280480bd0b000000000e0000001c0000002a000000300000003d000000480000005700000062000000740000007f00000063616c6c5f646174615f636f707963616c6c5f646174615f6c6f616463616c6c5f646174615f73697a6563616c6c65726465706f7369745f6576656e746765745f73746f72616765686173685f6b656363616b5f3235367365616c5f72657475726e7365745f696d6d757461626c655f646174617365745f73746f7261676576616c75655f7472616e73666572726564051302c0936d0463616c6cc09b6d066465706c6f7906c0b18381bd02c0f2719b00e301ff030704dd0421056005a6051d066206af06bb062e077007bb07c80728083d086608a008ce08ec085a098909510a000b160bea0b010c410c610d700d9c0da10db80dbd0dc20dc70dd00d000e880ed80edd0ef60e1b0f370f400f910f9e0f0710201047108210b010d0103e116e112d12a612bc129513a213df13041512153c1542155a15601566156c157615a0151f1684168a16a516cb16e816f2164d176d177717bb17ef17f9174c1861186b18e8181319ac19c119cb19e819051a4a1a541a6d1acd1ada1ae01a111b261b301b9e1bab1bc11bf01b001c1e1c581c681c861cc01cd01cee1c281d381d561d901da01dbe1df81d081e261e6b1e881ec01ed01eee1e291f3f1f4a1f6f1ff92026218421e021e621e023902433256e25d525fb259326da26b6271b289e28ca28c329cd29e429ea290b2a352a7b2a852aa72a222b282b4c2b762b012c0b2c492c702cf32c042d252d5e2d732d7d2dfe2da92e172f1d2f562f9f2fa52f56305f308830a6300031473186310c322a3270327a32b732c132dd320633233333333c335433ea33f43321343f345c346c347534a734b134cd34fa3418359f3511361e363436c336ee36f7363b3744376437aa37b43710384438783882389b38a438d5385c399c39233a2d3a6a3a743a903aae3af43afe3a483b753b933bc53bd23bd83b0b3c203c2a3ca43cb13cc73c4a3dc33dcd3d2c3e393e533ee03e0c3f2f3f683f723f943f9d3fca3f244031405840fd404f413a4247429a42a042e242b04343448c45c8453446924698465848fa4807496d497349ef49004a3c4ab04a4a4b6b4b7d4bfe4b1b4c2d4cec4c0d4d444d974de34d4f4e554e8a4ed14ed74e254f914ff84f4350ad50ba50335143516151bf51cf51d851f85167528d52df52f052f65217534f538953e853ee533154a754c45407552455f05505560f562c5655568656dc5620573d57755772589458db584759c759fc59255a8f5acb5aee5a135b365b945b055c905cbf5c2e5da15daf5dbc5d305ea45eb45eba5ec35ede5ee45ef45efa5e035f185fdf5f0c601a6033605760de60ec60036127618e61746282629b62bf625c637963bb63c463de6365648264fe6407653d6566658365be65c765df654a6657666d669e66116752676f67b267cf671c6842686b689868b968ee688869c769eb69566ae76a106b2d6b6f6b786b906bf36b006c166c436ca86ce66cfe6c366d466d646d9b6da46daa876e978a2098aa20977b2098bb20c89b0bc9ba0a979b019abbaeab20ae873751094ec87909647a017c8b95880195ac0178ab64caab9cf42836510934c87909647a017c8b95880195ac0178ab64caab9cf4281c51091a839aff01c8a80b7cbb9599ffc8a70c78cb83aaff5209f0320039089801025108be1e3307c0010383770a0828b11e9511f07b10087b15648964753308206497501002f8037c78017c797c7a027c7b03978808d4980897aa1097bb18d4ba0ad4a8087c79057c7a047c7b067c7c07979908d4a90997bb1097cc18d4cb0bd4b909979920d489027c79097c7a087c7b0a7c7c0b979908d4a90997bb1097cc18d4cb0bd4b9097c7a0d7c7b0c7c7c0e7c780f97aa08d4ba0a97cc10978818d4c808d4a808978820d498037c78117c7a107c7b127c7c13978808d4a80897bb1097cc18d4cb0bd4b8087c7a157c7b147c7c167c791797aa08d4ba0a97cc10979918d4c909d4a909979920d4890a7c78197c79187c7b1a7c7c1b978808d4980897bb1097cc18d4cb0bd4b8087c791d7c7b1c7c7c1e7c771f979908d4b90997cc10977718d4c707d49707977720d487076f776fa86f396f2a7b5a187b59107b58087b57821008821595111032009511d87b10207b15187b161082897b19088289087b19828510828618330820501004b0026f686f59821a6faa821b086fbb787b18787a10787908787898bc38787c1f98bc30787c1e98bc28787c1d98bc20787c1c98bc18787c1b98bc10787c1a98bb08787b1998ab38787b1798ab30787b1698ab28787b1598ab20787b1498ab18787b1398ab10787b1298aa08787a11989a38787a0f989a30787a0e989a28787a0d989a20787a0c989a18787a0b989a10787a0a98990878790998893878790798893078790698892878790598892078790498891878790398891078790298880878780182102082151882161095112832009511a07b10587b15507b16489515608411e06476828718828910828a0882886f776f996faa6f887b18187b1a107b19087b17491138491130491128491120481140208318831a20831b403309ff33070a05821738821830821928821a206f776f886f996faa7b6a187b69107b68087b679551a082105882155082164895116032009511a07b10587b15509515608411e08272827a08827b108277188283828908828c108288186f746fbb6faa6f276f826fcc6f996f387b17187b1a107b1b087b147b18387b19307b1c287b12208318831a203309ff330b2033070a099551a08210588215509511603200951120ff7b10d8007b15d0007b16c8009515e0008411e082bc7b1c4082bc087b1c4882bc107b1c5082bb187b1b5833020682ab7b1b1882ab087b1b2082ab107b1b2882aa187b1a308296829a087b1a829a107b1a088299187b19107b18383300082892007b18385010088c006f687b187882186f887b18708218086f887b18688218106f887b18608218186f887b1898008218206f887b1890008218286f887b1888008218306f887b1880008218406f887b18b8008218486f887b18b0008218506f887b18a8008218586f887b18a0008379811a388317603308030a04955120ff8210d8008215d0008216c8009511e00032008b7910520931c8780883881f8488e05638000001253309940102390a940102ae8a093d08940102013308a001028377c887073200009511f07b10087b158475010a02013d0790010251050750100a4833000c951110fe7b10e8017b15e0017b16d8019515f0019511b0e48411e06416956978104929c0064929b8064929a8068000330740956820174929b00633000c0128a1fc951108f8951700077b70f0007b75e8007b76e0009515f807951138fd8411e064164926b8074926b0074926a00780003307409568a0074926a80750100e64fc4926d8074926d0074926c8074926c0078367c0070a0a01956b000782b7d00082b8d80082b9c80082bac000d49808d4a707d48707510706282f1695678007330840501010e4fa82639807826b9007826c8807826480078e378eb8db37088ec78849c0859901dbc709d43b077b671801db7809510906280016954740d84708c88c09d8c90ada880ac8ba0ad8ba08c88302956800077b87607b89687b8a70330740956860077b6278077b63a0007b6b98007b6ca8007b64b000501012a7fb8267b00082699800d4970b8268a000826aa800d4a808d48b0b98bb20d49808978820d4b80851080628801549265807492650074926480795684007492640070f50101462fb8269b0001407e0ffffff00000000d879078268a8009487826818019487520706284315839720492628073a0a0000023a09080002492620077b6a3807956820077b6930077b67d00050101615fb95670007330840501018cff98264180795680007828c10828b0882878e498ec8db49088eba8879c0859901dbba09d44c0a7b6a1801dba809510906285315957340d87308c88b09d8b90ada880ac8ca0ad8ca087b678000c884027b63e0067b69e8067b6af0063307409568e0067b62f8067b6c707b6b787b646850101a96fa82678000826970d4970a826878826b68d4b808d48a0a98aa20d49808978820d4a8085108062872144926d8064926d0064926c8069568c0064926c0060450101c54fa826980001407e0ffffff00000000d8790782687894878268180194875207062836148397204926b0064926a8064926a0061409000000004453554d9568a0067b69b8067b671850101e09fa956780068268b000501020c2f895670006827a980082789000827988008ea78e8bdba70b7b69c8008e977b68587b6ac000d4a8087b67507b6b88007b68b800db8b0751070628a514826780067b67604926f8074926f0074926e8074926e00703956760069568e0075010228efa956b000682b77082b86882b96082ba78501224a16688920184807fd27c04d23c0bdb9800880820d2ac0c648994b9d4c4079479aa920628af1450122638678267608877207b679000510a12027b6bf0007b60f8007b6c00017b641001492658064926500649264806956840064926400603330750102824f9390894010256181f0b200394010220019517e08479e07b69080164913307a001028377839933082033002a0a060182676095781fd87807826cc800c87c09d8c90ada770a826b5850122c9f658268900094c8826ab80094a8948b9487c87402d84207c8790cc8cb0b7b6b1801d39b0cd89b0adac70a7b6ae0008267f80095701fd8700b826af000c8ba07d8a70cdabb0c82631001c8c303973b3b987a05d4ba0a97773b980b05d4b707c847077b67f800d84707642450122e4e67826758d87b07826ac000c8a70798ba05977b3bd4ba0a826b080182b282bb08987705948a94876fb86f2b5012309d67c8a70282671001d87307826a0001c8a707983a05977c3bd4ca0a987705c8b707826b1801c88a0ad88a08c88707c8a9097b69e800d8a908c887077b67e0009517e08473e064317b63d800018267f800d874078269f000d39b08d89b09da8709826ce800d8c007826ae000d3a208d8a20ada870ad3c007d48707da790a7b347b3b087b30107b3218510a7295670010492718f895670010492710f895670010492708f895670010492700f89568ff0795880164377b6410017b6b18017b6208017b600001501032e6f88263d80082620801826b180182641001954401884701c87b0bd4b40788770182680001c88707d88708c8820264702855ff82679000857701826bc800826850dbb807826888008269b800db98078263c000d43b087b68900082685898843f97330198bc3f978201826a6098a03f97bb0197a9017b69487b63407b60387b6c307b625051072a027b6b287b642084aae07b6a88004926180649261006492608069568000649260006033307501034c4f69517e08477e07b67f800647133082033075010367df99518e08488e07b68f0006481837783893308200a06492618012033024926100149260801330b330c330049260001826af00082a71882a81082a90882a36f776f886f9a6f3364348269f8007b93187b6ad0007b9a107b68f0007b9808647a7b97017b64e80064a3826788007b6be000d87b07857b017b6cd80094cb01956c000182c7d47007947b018268b00082c718c87808826aa800c82a0a8269980082c710c879098267a00082640801c8740482679000520b620182671801d8780bc8ba0a6427d32a027b67c000d87a0cda2b0c501238ca627b63c80051070628d40f956720027b60b80050103a89f4956b000282b73882b83082b92882ba20956b00107bb738f8956700107b7830f8956700107b7928f8956700107b7a20f89568ff079588218267f80050103cf6f68264c8009544018847018262f000c87202d424078877018268d000c87803d883088267e800c88707826818019589207b69e800d8890a8268c000c8a8097b69c800d8890bdaaa0b82681001c8b800d8800b82680801c8b8087b6808018268e000958b20d88b0c8269d800c8c908d89809dacc09826ab800c8a909d8a90c826a0001c8ca0a7b6a0001642a7b6af000826cf8007bca08644a7bc47bc31064747bc7187b63d0008267e8007b6718018262c8007b601001648c6490287dfed48a0782689000d4870752076e01492600014926f8004926080149261001826340826238826830826c502897016420826360826b8800d33b0b826c58d4cb0bd47b0b826228826c50510bc20082671801d8780bc8ba0ad30a02d80a0cda2b0c50123e536151070628610e9567e0055010401af3956800058287f8007b6710018287f0007b6708018287e8007b6700018287e0007b67f000826760501242256350104430647b67e8007b68d0003307ff3308ff82691801501046f3635012481a6350104ae96350124c65608269000150124eac63956b00107bba58f8956a00107ba950f8956900107b9848f8956800107b8740f89568ff079588418267f80050105037f5826c5082622801826720826840d48707826830d4c808826938d49209826a4895aa01956b0010492b78f8956b0010492b70f8956b0010492b68f8956c0010492c60f803956b00107bba80f8956a00107ba988f89569ff07959991007b987b97089567ff079577619568ff079588810033006028c0f4956720068268d0007b64207b6b2850105202f2826c50826b28826830826238826340826420826a60956900068297387b6710018297307b6708018297287b67f8008297207b67000101d48c077b67f000d443077b67e800d42b077b67e0005012547e62501056f4627b67c0007b68d8008267608a79033307ff3308ff501058b5627b67d0007b68c8008268c000d487077b67c000826718018379803307ff3308ff50105a9062826b180188b98000826ac000db9a07826cc800826ad80050125c3262826bd00050125ee85f826b48d4b707826be000d4b808826be800d4ba0a826bf000d4b909956cff0795cc9100491c10037bc9407bca487bc8387bc730491c28491c20491c189567ff079577a1009568ff079588c100501060a6f39567c00582688000501062ecf095670005827ad8008279d0008278c8008ea78e9bdba70b7b6898008e877b6990007b6a8800d4a9097b67b8007b6bc0007b69d000db9b075207a00d8267c0057b67a0009568ff0795889100491868491860491858491850049567a0059568ff079588e100501064aff2956b000582b7b00082b8a80082b9a00082bab800501266be5e88920184807fd27c04d23c0bdb9800880820d2ac0c648994b9d4c4079479ab929f0d501268575f8267a0008877207b67c800510a0c027b6bf0007b60f8007b6c00017b641001492698054926900549268805956880054926800504330750106a42f1390894010256181f0b200394010220019517e08479e07b69080164913307a001028377839933082033006c0a06018267a00095781fd87807826c9800c87c09d8c90ada770a826b900050126ebb5d8268c80094c8826ad00094a8948b9487c87402d84207c8790cc8cb0b7b6b1801d39b0cd89b0adac70a7b6ae0008267f80095701fd8700b826af000c8ba07d8a70cdabb0c82631001c8c303973b3b987a05d4ba0a97773b980b05d4b707c847077b67f800d8470764245012706a5f82679000d87b07826a8800c8a70798ba05977b3bd4ba0a826b080182b282bb08987705948a94876fb86f2b501272b85fc8a70282671001d87307826a0001c8a707983a05977c3bd4ca0a987705c8b707826b1801c88a0ad88a08c88707c8a9097b69e800d8a908c887077b67e0009517e08473e064317b63d800018267f800d874078269f000d39b08d89b09da8709826ce800d8c007826ae000d3a208d8a20ada870ad3c007d48707da790a7b347b3b087b30107b3218510a699567ff079577910049278800492780004917784917709568ff079588010164377b6410017b6b18017b6208017b6000015010740af18263d80082620801826b180182641001954401884701c87b0bd4b40788770182680001c88707d88708c882026470285eff8267c800857701826998008268b800db98078268c000826ad000dba80751071c028267a0008477e07b67a80049265805492650054926480595684005492640050433075010761eef9517e08477e07b67000164713308203307501078d7f19518e08488e07b68f8006481837783893308200a064926180120330c4926080149261001330b330a330933038267f80082721882781082700882777b67f0006f277b67f8006f846f028267f0006f786480826700017b781864287b68b8007b781064487b68e8007b78088268f8007b78017b60e0008267a8007b6bd000d87b07857b017b6ac80094ab017b63f0007b69d800d43907947b018267800082681801c87808826a787b6cc000c8ca0282647082690801c84909826368826c1001c8c303520b4601d87800c8020bd3ab02d8ab0cda200c50127ab35b520730089567c00250107ce8ec956b000282b7d80082b8d00082b9c80082bac000956bff0795bb91007bb7a8007bb8a0007bb998007bba90009568ff07958821018267000150107e58ef8260f800950001880701826ae800c87a0ad4a0078877018268b800c88707d887088262e000c88202826818019589207b69e000d889088269c000c8890b7b6bb000d89b0bda880b82680801c8b804d8840b82681001c8b8087b6810018268d000958b20d88b0c8269c800c8c908d89809dacc09826cd800c8c909d8c90c8263f000c8c3037b6ae800826c00017bca08640a7b6af8007bca7bc71064207bc2187b67b8008267e0007b671801826cb0007b640801648a2899fe826aa000826b9000d4ba07826c8800d4c908d4870752076601492600014926f8004926080149261001289001826ba800826ca000d3cb0b82609000d40b0b7b6b1801826c9800826b8800d4bc0c826b1801d4cb0b510bba00d87800c8020bd3ab02d8ab0cda200c50228000455a5207c106956720055020820079eb956800058287387b6710018287307b6708018287287b67f8008287207b67f0008267a00050228400865b50208600905c7b67e8007b68d0003307ff3308ff8269180150208800525c50228a00785b50208c00465c50228e00c1588269f80050229000075c956bff0795bb91007bbac8007bb9c0007bb8b8007bb7b0009568ff0795884101826700015020920098ed826090000198073f82688800978801d48707826a980098a83f970901d49808826ba00098b93f97aa01d4a90997ba0195aa01956cff0795cc9100492ce800492ce000492cd800492cd000047bcaf0007bc9f8007bc800017bc708019567ff07957761019568ff07958881013300a2002823ed95676005826818502094006cea826c8800826b900082699800826aa000956800058287787b6710018287707b6708018287687b67f8008287607b6700010198973f97b801d487077b67f00098b73f97c801d487077b67e80098a73f979801d487077b67e00097a7017b67d80050229600d35a50209800485b7b67b8007b68d0008267a0008a79033307ff3308ff50209a00075b7b67c8007b68c0008268b800d487077b67b800826718018379803307ff3308ff50209c00e15a826b180188b98000826ab800db9a07826cc000826ad00050229e00825a826bc8005022a0003758826bd800d4b707826be000d4b808826be800d4ba0a826bf000d4b909956cff0795cc9100492c10010495cb00017bb9407bba487bb8387bb730492c2801492c2001492c18019567ff079577a1019568ff079588c1015020a200ebeb3307a001037b67180183777b6710013300a4000a03826918013302a600288a59826918015022a60083595107ce0649260801c2d3001407000000a1edccce1b7b6700019568ff07958891004928680149286001492858014928500105956700059568ff079588e1015020a800fcea9568000582877b67f0008287087b67e8008287187b67e0008287107b67f800826710013300aa000a03826918013302ac00281257826918015022ac000b57826af80098aa2097aa20d4a909956aff0795aa9100492a8801492a8001492a780195ac0001491c7005826be0007bcba8007bc9a0007bc798007bc890009567ff07957701029568ff07958821025020ae00ecea826710013300b0000a03826918013302b200281456826918015022b2000d56d4780298aa206f99979820d4a808989920826af80097aa2098aa204926b8044926d8047b6ad0048267e8007b67c8048267f0007b67c0043a0a1000023a0b1800023a0c2000023a072800027b6af8047b6bf0047b6ce8047b67e0047b69b0047b68a8049569e004956ac004956ba0047b62a004330733085020b400b9ea9567ff07957791004927c8014927c0014927b8014927b00102956780049568ff07958841025020b600a4e9826798047b67f80082649004826a8804826080049518e08488e0648182630001c80303d8030782690801c8a909c87909d3a90bd8a90cdab70c3a0230000285a73d2cff8eaa3d2cffd8020bdb7a0b7b89087b83c84c0c7b8c10d84c078269f800c89707d29409959901949b7b8718520b24059567ff07957791004927e8014927e0014927d8014927d001029567ff07957761025020b8008ce9826710013300ba000a03826918013302bc00281654826918015022bc000f5449267804956900047b98707b9768956860047b9a6033075020be00dde749265804492650044926480433072095684004492640045020c000c0e79517e08477e07b67f8006471390894010256183f0b200394010240019517e08479e07b69f00064913307a00102837783993308403300c2000a06826af0003302c40028b253826af0005022c400ab538268f8007b8a187b89107b8b087b87956720045020c6004ae8826728048268200482623804826a3004826b0801c87b0b826c0001c88c0cd88c08c88b0bd37b09d87b07da9807c8a707d8a708c828089569ff07959991007b9cf0017b9bf8017b9700027b9808029568ff07958881028267f8005020c8006be8956700043308405020ca00b1e55022cc00f5545207e5004926f8034926f0034926e803c2d3001407000000a1edccce1b9568e0037b67e00364a77b6a08015020ce00b4e6826710013300d0000a03826918013302d200284f53826918015022d2004853d4780298aa206f99979820d4a808989920492698034926b8034926b0034926a8034926a0033a0a3800023a0b4000023a0c4800023a075000027b6ad8037b6bd0037b6cc8037b67c0037b6990037b6888033308209569c003956aa003956b80037b628003826708015020d40003e8956760033308405020d600e0e4956b000382ba7882b87082b96882b7605022d800a05251085e03003308a00102838833070133090a07014926500149264801492640013302da00140700000000717b484e01956840017b67580133075020dc00c5e54926380149263001492620014133070495682001492628015020de00a7e5390894010256183f122003940102403308a0010228d8023308a0010228d0024926900149268801492680013302e000140700000000717b484e01956880017b67980133075020e2005de54926780149267001492660014133070495686001492668015020e4003fe5390894010256183f122003940102403308a001022870023308a001022868024926d0014926c8014926c0013302e600140700000000717b484e019568c0017b67d80133075020e800f5e44926b8014926b0014926a001413307049568a0014926a8015020ea00d7e4390894010256183f122003940102403308a001022808023308a001022800024926100249260802492600023302ec00140700000000717b484e01956800027b67180233075020ee008de44926f8014926f0014926e001223307049568e0014926e8015020f0006fe4390894010256183f122003940102403308a0010228a0013308a001022898014926700249266802492660023302f200140700000000717b484e01956860027b67780233075020f40025e44926580249265002492640024133070495684002492648025020f60007e4390894010256183f122003940102403308a001022838013308a001022830014926b0024926a8024926a0023302f800140700000000717b484e019568a0027b67b80233075020fa00bde34926980249269002492680022233070495688002492688025020fc009fe3390894010256183f122003940102403308a0010228d0003308a0010228c800492610034926080349260003140700000000f7bd4f1e956800037b67180333075020fe005ae34926f8024926f0024926e8023307049568e0024926e002502000013de3390894010256183f112003940102403308a00102286e3308a00102286749265003492648034926400333020201140700000000717b484e01956840037b675803330750200401f5e249263803492630034926200311330704956820034926280350200601d7e2390894010256183f112003940102403308a0010228083308a001020183883307013309240a077b671801330008012872e57b671801502008016be58377330833090a2840e182671801330850200a0155e58378330733090a07288efc33079001027b673839079001025517040728c1389567001083774007330833000e010a0101956a781081a7e40652475bcba58d0a286b105147419bd895b306956978185247bb9c05a90a28571d52473eed62dd0a28bc16514703defd0682045247b3a75e090a288d195147dd0d161881085247dd72b8230a281f11514767e53c31be055147686c96426109514797589157360e5147073157680a28931e4929c0014929b8014929b0014929a80195670020837720fa0a0a01956a781895ab000182b7b80082b8c00082b9b00082baa800d49808d4a707d4870751070628c83082673881775617430728c33095670020837740fa3308040a01019569781895970001827ce000827ad800827bd000d4ca0788b8019478520806289a308298c8018267388074958723d88709c89b027b6ba800d8b20bda990bc8ab0b7b6ab000d8ab097b6cb800c8c909d4b909d84707942794975207062864307b68a00083880495670020837760fa0a0195677818827a0002957c000182c8f80082c9f00082cbe800956c78107b6ae8007bca407b68f0007bc8387b69f8007bc9309567c0109568a0107b6be0007bcb2850201001643f956778108278487b68d8008278507b68d0008278587b68c8008278607b68c000956780103308405020120165df95687810828a207b6a688289187b6960828c107b6c588282087b62709567ff07957779826bc0007b7be007826bc8007b7bd807826bd0007b7bd007826bd8007b7bc8077b8a7b89f87b8cf0648995676010956840107b92e8502014019a3d826770826868826958d48909826a60d4a708d49808988820d4a909979920d498085108062840289569ff079599798268e000959b00077bb8a8008268f8007bb8b0008268f0007bb8b80095682010826ae8007bbac00050201601e5df50221801244fd87402826aa800c82a03c83808c8940cd84c09c89800d3300bd83008dab9088267e800977705826bf00098b93bd497077b67e8008269f80098993b97bb05d4b909d8a30bda220b8267b000c87b0bd87b078262b800c87202c8b909c8890ad89a077b6bf800d8b9098268e800c82808c89808c8780b826738807788b80188a901dbb8097b6ca000d8c7078577018808017b609800db08077b6a90007b6b8800d4ba08db89075207062834331407ffffffff000000007b6780001407e0ffffff000000007b67788267707b67e8008267587b67e0008260608267687b67f000826bf800018267a000d8740782699800d39308d89309da8709826c9000d8cb07826a8800d3a208d8a20ada870ad3cb07d48707da790a520a0628bf21d4b407d42308d48707987720d4b808978820d4870751070628d0267b60d8007b6bf8007b62c0007b63c8007b64d000834895670020837780fa0a01019567781882702002827418028e09984a208eaadb090a82698000d39409d40909939a510a0628642d826cf0008269d800d4c903826a78826be800d8ab0a8268e000948a943a520a0628642695ba206472d8ba0b64a77b6aa800c8b80a7b6ab800d88a0adabb0a82231002822b0802c89a0a7b6ab000d89a0ac8ac0c7b6cf000956aff0795aa797bab48037ba350037ba458039568ff079588c1037ba0600350201a01e5dd8268d000958720d88708826ac800c88a03d8a30ada880a8268f800c88a0ad88a088262c000c882028268a8007b68e8008268b8007b68e0008260b000647464ab28a9fe492a0007492af806492af006492ae80695670010837760070a0a01956b781095bc000682c7f80082b8000782c9f00082cae800d49808d4a707d4870751070628a82c82673881785618030728a32c492b2007492b1807492b1007492b0807039567a0029568801750201c0127de956800028289b000828aa800828cb8008287a000979b3f98a801d4b80297c83f7b69f000989901d498087b6ae00097a93f987a01d49a0b7b6ce80098c3017b67d000847c019acad28a04d22a09d23a0a84b77f7b67d800dac70b88b7209497d4a40894877b6cf80088c801aa7806281a2c7b6bb800956c00027bcb80007b69a8007bc988007b64b0007b64900233078000956880027b6aa0007bca980050201e0192dc8267f80051070628011b8267d000847700ff8268e000956900027b98087b978267f0007b97108267e8007b97183307a000956800025020200157dc330833073302330ac0008269d800939aa00028631c49192049191849191049190895670020837780f80a0a01956a781882a71882a82082a91082aa08d49808d4a707d4870751070628ca2b82673881775617030728c62b9567ff0795774133084050202201b6da95670010827a58f895670010827850f895670010827948f895670010827740f850222401664851080628ea2395680010492838f895680010492830f895680010492828f89568ff07958821956a0010492a20f8127b67f80033001a02288edb956778184927a00349279803492790034927880395670020837700fc0a0a01956a781895ab000382b7980082b8a00082b9900082ba8800d49808d4a707d4870751070628192b82673881775617030728152b9567401433084050202601f8d995687810958900038297e0007b67588297d8007b67608297d0007b67688297c8007b6770956878184928c0034928b8034928b0034928a80304956720149568201c50202801dddb956778108274b8038270b0038273c003827ba80397473f980801d4870797383f984901d4980897093f98ba01d49a0c9839017b6be80084bb019abad2a808d27a02d2a90984c77f7b67f000dab70c7b6cb80088c7207b62a80094277b68b0007b69a000d4980894877b6bf80088b801aa780628542a826960826a70d49a07826868826b58d4b808d48707987720d49808978820d4780851080628752264a77b60d0007b64d8007b63e0008268b800956a781095ab00037bb888008268a8007bb890008268b0007bb89800956800148269a0007bb9a00050202a010fda8267f80051070628041b826760826858d487071408e0ffffff00000000826a70d88a08826968949894785208062805228267e800847800ff83a72095697810826ad000959b00037bba107bb8088268d8007bb81895688013826ae0007bba2050202c01aad9826c703304330333028267f0008e779777057b67f800286c20492a8007492a7807492a7007492a6807956700108377e0070a0a01956b781095bc000782c77882c8800082c97082ca68d49808d4a707d4870751070628a72982673881775617030728a329492ba007492b9807492b9007492b880702956700059568001850202e0119da956800058287187b67f8008287107b67f0008287087b67e80082877b67e0009567e00433084050203001c1d7956b000482b7f80082b8f00082b9e80082bae000d49707d48a09d47909989920d48707977720d4970751070628f2208267e000956900047b97c0008267e8007b97c8008267f0007b97d0009568c0048267f8007b97d80064a77b6af80033001a022894d849298000491978491970491968956700208377e0f80a0a01956a781882a77882a8800082a97082aa68d49808d4a707d4870751070628c42882673881775617230728c02895670020837700f93308040a01956778188278a0007b68f800827898007b68e800827890007b68e000827788007b67f0003307a001037b67d80083777b67d000330032010a038269d800330234012834478269d800502234012d475207062867288267d000330036010a033302380128c34350223801c04349296002959b00027bb8587bb7509568ff079588c1027bba48330750203a01bad79567ff0795777949274002492738024927300264793307209568ff079588a1024929280250203c0190d73309940102390794010256173f0b200394010240017b69c0009517e08479e07b69b80064913307a00102837783993308407b67c80033003e010a06826ab80033024001289643826ab800502240018f437bbac0007bb9b8007bb8b0007bb7a8009567ff0795778102956820195020420110d89567ff0795777995780002828920828b18828c108287088268f800d389037b69a800d889088269e800d89b0a7b6a9000da3a08826ae000d3ac027b6cb000d8ac0c826af0007b67b800d8a7077b679800da270c7b6ba000d3b909d439077b6c8800da7c08510806289e278267d000330044010a033302460128854250224601824249290002959b00017bb8f8007bb7f0009568ff07958861027bbae80033075020480179d69567ff079577794927e0014927d8014927d00164793307209568ff07958841024929c80150204a014fd68267e8008268a000c9780782688800c987097b69a000d887078268f8008269a800c9890882699000c99808c978087b68a8008269c00081978268e000826ab000c98a08826a9800c9a8087b68b000826af000826bb800c9ab0b7b6bb80056173f08480940019517e08477e07b67c000647183793308408267c80033004c010a06826ac00033024e01281042826ac00050224e0109427bbae0007bb9d8007bb8d0007bb7c8008267a8007bb700018267a0007bb7f8008267b0007bb7f0008267b8007bb7e800956740199568601950205001efd69567781849272001492718014927100149270801029567ff0795772102956880195020520147d69567ff079577798278b0018272c0018273a801827ab801826be000d3b807d8b80c8260f000d80304da740c8267e800c97a09d87a0a8267f800c97207c9a707d8c90ac9a707c9c90ac9b808c94808956b781895bc0001491c2802c903097bc9487bc8507bca587bc760492b4001492b3801492b30019567a0199568c0195020540145d69567ff07957701023308405020560187d3956aff0795aa7995ac000182cba00082c8980082c9900082c78800502258014c4351080628c01c8268f00095ab00017bb8688268e0007bb8708268e8007bb8789568ff079588e1018269f8007bb980007b67f80050205a0167d48267d00033005c010a038269d80033025e012802418269d80050225e01fb40d4780298aa206f99979820d4a8089899203a0af000023a0bf800023a0c0001029567ff079577797b7a60017b7b580149272001957b00017bbc503a0a0801024927180149271001492708017bba487bb9387bb8307b7228013308209569ff079599c101956aff0795aaa101956bff0795bb8101492740018267f80050206001a3d533078268c80033090a0728d72249298001492978014929700149296801956700208377e0f90a0a01956a781895ab000182b77882b8800082b97082ba68d49808d4a707d4870751070628692582673881775617230728652595670020837700fa3308040a010195687818828288013a07c8000295890001829b9000829aa000829c9800d8720795b8ca88b936da8709d4ac079479510906282b259567ff079577610333084050206201e2d19569ff079599798292000395980002828cf800828bf0008287e800d42b0ad4c708d4a808988820d4ca0a97aa20d4a808510806280c1b4929d8024929d0024929c802140a00000000a079c3089568ff07958841037b9ae0027b67f8007b6bf0007b62e0007b6ce80050206401aed250226601524052070628c81a8387049569ff079599794929c0024929b8024929b002330c209568ff07958821037b9ca8027b6ae8007b6be000502068016fd2826be800826af0008268f8008267e0009577dcd8780794a794b752070628751a8387249569ff079599794929a0024929980249298802209568ff07958801034929900250206a0126d250226c016f4052070628401a83a7443a08d00002956bff0795bb7995bc00027bc880003a08d800023a09e000023a0ae800027bc8787bc9709568ff079588e1027bca683300760228d9d19567781849276003492758034927500349274803956700208377c0fb0a0a01956b781895bc000382c75882c86082c95082ca48d49808d4a707d48707510706281924826738817756170307281524492b8003492b7803492b7003492b680305956760129568e01b50206e0161d2330270019568781001958900018297f8007b67e8008297f0007b67f8008297e8007b67f000956740123308405020720103d0956a781095ac000182cbe00082c8d80082c9d00082c7c80050227401cb3f510806283f198268e800978820988920492ac0018268f00095ab00017bb8a8008268f8007bb8b000956820127bb9b8007b67f80033001a0228e1d0492ac007492ab807492ab007492aa80795670020837720f8330076010a0a01956a781095ab000782b7b80082b8c00082b9b00082baa800d49808d4a707d48707510706282d238267388177330863ac78062827239567ff07957701330078013302e40228f53f95670010827718f87b67a80095670010827710f87b67c80095670010827708f87b67f80095670010827700f87b67f0009567e00733007a013302ee0228b63f8267f8077b67a0008267f0077b6798008267e8077b6790008267e0077b67880095670020837740f83308440a0195677810957900078298e0007b68e8008298d8007b68e0008298d0007b68d0008297c8007b67d8008267c8009777209877204926d8077b67787b67d0078267f8007b67c8079568c0078267f0007b67c007330750207c01b9cf4926b8074926b0074926a007013307209568a0074926a80750207e019bcf3308940102390794010256173f0b200394010240019517e08479e07b69b00064913307a00102837783997b68b8003308407b67c000330080010a06826ab00033028201281d3f826ab00050228201163f7b67686f877b67606f977b67586fa77b67509517e08477e07b677064713307a001037b67b00083777b678000330084010a038269b0003302860128203b8269b00050228601193b492698077b6890077b678807956880077b6a8007330750208801e8ce826750956a00077ba7788267587ba7708267607ba768330720956860078269687ba96050208a01bfce8268b800818756173f08480840019517e08477e07b676850228c017c3e33008e010a06826a683302900128c93a826a6850229001c33a8268707b8a187b89107b8b087b87956740075020920163cf82645807826a5007826b480782624007d24b07d2a208d287075117ff32028267d800d872038268d000d38b07d88b0cda730c8269e000d89a008268e800d38407d88408da7008d3a909d49707da7c087b62707b6b687b64607b6a585108062818227b60407b6c487b63508267f000826878d487078268f800d4870752070628e42282678000330094010a038269b00033029601280d3d8269b00050229601063d520706280323492638078267f0007b6720078267f8007b672807956820078267787b673007330750209801a4cd49261807492610074926000701330720956800074926080750209a0186cd8268b800818756173f08480840019517e08477e07b677850229c01433d33009e010a06826a783302a00128213d826a785022a0011b3d7b67386f877b67306f977b67286fa77b67209517e08477e07b67786471826780003300a2010a038269b0003302a4012830398269b0005022a40129394926f8067b68f0067b67e8069568e0067b6ae00633075020a601f8cc826720956a00067ba7d8008267287ba7d0008267307ba7c8003307209568c0068269387ba9c0005020a801cbcc8268b800818756173f08480840019517e08477e07b67b8005022aa01873c0a068267e000826858c97807826948c99708d897078269e800826a60c99a09826a40c9a909c979098267d000826a68c97a07826a50c9a707956a78187ba995ac00ff7bc8f8007bc7f000826bb80082b78268d800826970c989087bc8e80082b8086f798267787b791882ba1082b9186f887b78106fa87b78086f987b78956860185020ac0199cd8267d8007b676005826788007b6780058267f0007b67a0058267d0007b676805826790007b6788058267f8007b67a8058267e0007b677005826798007b6790058267c8007b67b0058267e8007b6778058267a0007b6798059567a0059568800595696005826aa8007b6ab8055020ae01b42c956740053308405020b0016dca956b000582ba5882b85082b94882b7405022b2012d3851080628b1134926380549263005492628059568200549262005017b67f80033001a022868cb4929200449291804492910044929080495670020837780fc0a0a01956a781895ab000482b71882b82082b91082ba08d49808d4a707d4870751070628cc1d8267388177330843ac780628c61d1407ffffffff000000007b67f800956720163300b4013302e40228793a956878108287a8057b67f0008287b0057b67d0008087b8057b67c800956700163300b6013302ee02284e3a3302b801956878100195890005829798007b67e800829790007b67e000829788007b67d800492880058267c8007b97788267d0007b977064899568e0158267f0007b97680533075020ba018aca3302bc0195687810014928600549285805492848050164893307209568c015492950055020be0161ca3308940102390794010256173f0b200394010240019517e08479e07b69c80064913307a00102837783997b68f0003308407b67d0003300c0010a06826ac8003302c20128e339826ac8005022c201dc397b67c0006f877b67b8006f977b67b0006fa77b67a8009517e08477e07b67c80064718267d8008477ff8269e0008498ff8269f800826ae800d2a909956a7810492a400595ab00057bb9387bb8309568a0157bb72833075020c401b5c98267a80095687810958900057b97208267b0007b97188267b8007b9710648a330720956880158269c0007ba908055020c60181c98268f000818756173f08480840019517e08477e07b67f800647183793308408267d0003300c8010a06826af8003302ca01288435826af8005022ca017d358268c8007b8a187b89107b8b087b87956760155020cc011cca3302ce019568781001828700057b67f800958900048297f8007b67f0008297f0007b67e8008297e8007b67e000956740153308405020d001b6c7956a781095ac000482c7e00082c8d80082c9d00082cbc800d49707d48b09d47909989920d48707977720d4970751070628e3108267e00095a900047b97a8008267e8007b97b0008267f0007b97b800956820158267f8007b97c00064b77b6bf80033001a022885c8492a4007492a3807492a3007492a2807956700108377a0073300d2010a0a01956a781095ab000782b73882b84082b93082ba28d49808d4a707d4870751070628f51a8267388177330843ac780628ef1a9567a0043300d4013302e40228a037956800048287b0007b67d8008287a8007b67f0008287a0007b67f8009517e08477e07b67e0006471956700108377c0073308240a0195677810957b000782b86082b95882ba5082b7487b689000826be0007bb8187b6988007bb9107b6a80007bba087b67787bb73307a001037b67e80083777b67d0003300d6010a038269e8003302d80128d4368269e8005022d801cd3652070628511a8267d8009777209878208267f0008269f800d497077b68d800d48707520706288f1a8267d0003300da010a038269e8003302dc01286d338269e8005022dc016633492698047b6890047b678804956880047b6a800433075020de0135c74926780449267004492660040133072095686004492668045020e00117c73308940102390794010256173f0b200394010240019517e08479e07b69b80064913307a00102837783997b68c8003308407b67c0003300e2010a06826ab8003302e401289936826ab8005022e40192367b67b0006f877b67a8006f977b67a0006fa77b6798009517e08477e07b67b8006471492658048267d8007b6750048267f0007b674804956840048267f8007b67400433075020e6017dc682679800956a00047ba7388267a0007ba7308267a8007ba728330720956820048269b0007ba9205020e80150c68268c800818756173f08480840019517e08477e07b67c8005022ea010c360a06826ac80082a71882a81082a90882aa6f7b6f886f996faa8267b8007b7a187b79107b78087b7b8268e0005020ec0173c7956700043308405020ee01b9c45022f001fd335207100e8267787b67e003826780007b67e803826788007b67f0039568e003826790007b67f80364a77b6ae0005020f201bac58267d0003300f4010a038269e8003302f6012855328269e8005022f6014e32d4780298aa206f99979820d4a808989920492698038267d8007b6790038267f0007b6788038267f8007b6780034926b8033a0a1001023a0b1801023a0c2001023a072801027b6ad8037b6bd0037b6cc8037b67c0037b69b0037b68a8033308209569c003956aa003956b80037b62a0038267e0005020f801fdc6956760033308405020fa01dac3956b000382ba7882b87082b96882b7605022fc019a315208210d4926580349265003492648039568400349264003017b67f80033001a0228d7c44929e0034929d8034929d0034929c80395670020837740fc0a0a01956a781895ab000382b7d80082b8e00082b9d00082bac800d49808d4a707d487075107062828188267388177330843ac7806282218956700153300fe013302e40228f2339568781095890004829788007b67f800829790007b67f000829798007b67e8008297a0007b67e00095670020837760fc3308240a0195677818957900038298e8007b68d8008298f0007b68d0008298f8007b68c800827700047b67c0003307a001037b67b8008377330000020a038269b80033020202283e318269b800502202023731956a7810826bc00095ac00047bcb40826bc8007bcb38826bd0007bcb30826bd8007bcb28826be0007bcb60826be8007bcb58826bf0007bcb50826bf8007bcb487bc9787bc7707bc8689567e0149568c0149569a014492a8004502004029924956780143308405020060252c2956a781095ac000482cb2082c81882c91082c708502208021e325208950b492a0004492af803492ae8030195686014492af0037b67f80033001a02284bc351473182a0700a28e4164929a00249299802492990024929880295670020837700fb0a0a01956a781895ab000282b7980082b8a00082b9900082ba8800d49808d4a707d4870751070628f2168267388177330823ac780628ec169567801133000a023302e402285c32956a781082a7080182a8100180a91801492a00017ba9f8007ba8f000956860117ba7e800330750200c02b9c2956778104927e0004927d8004927d0006479330720956840114929c80050200e0296c2390894010256183f0b200394010240019517e08479e07b69f80064913307a0010283778399330840330010020a06826af8003302120228a92e826af80050221202a22e95bc00027bcac0007bc9b8007bc8b0007bc7a800956720119568201b5020140223c33302160295687810018287c0007b67f8008287b8007b67f0008287b0007b67e8008287a8007b67e0009567001133084050201802c1c0956a781082a7a00082a8980082a9900082ab8800d49707d48b09d47909989920d48707977720d497075207f5098267e0007ba7688267e8007ba7708267f0007ba7789568e0108267f8007ba7800064b77b6bf80050201a02a1c13308208267f80050201c0263c4837833092033070a0701492678024926700249266802956860024926600203330750201e026dc19517e08478e064814926f800330c330433033a023001023a093801023a004001023a074801027b82187b69d0007b89107b800864797b87140760ffffff000000007b6798007b689000017b69d8008267b8008269f800d879078269a800d39c0a7b6cf000d89c09daa709826bb000d8b407826aa000d3a30cd8a30adac70ad3b407d4c707da790a510ae200956740027b63e8007b62c8007b64e0007b60c00050202002bac1826ce0008267e800d4c7078268f80082699800d898088269f000949894785108cd088262580295690002829850829a48829b408267f8008377a0007b9b207b9a287b9830956820027b6238025020220276c08263e800826cd80095cc0188c7018260c000c87000d40c078877018268d000c88707d88708826ac800c88a0a8268f800958220d88209826bf000c89b04d8b40bda990b8268e000c88b0bd88b09c89303826890007b800864c97b8c7b87107b8a187b67d0007b62f800644c64b464a228e4fe8267f800957aa000d87a078269f000c87908d89809da7709c89407d84702c832020195ab80d8ab0ac8a80c95ccffd38c09d88c08da9a089579ffc89808d89809887701c97207c879094926f8014926f0014926e8014926e00180007b6bc0017b6cc8017b68d0019567e0019568c0017b69d80150202402e41c9567a0013308405020260244be956c000182c9b8007b69f80082c8b0007b68f00082caa8007b6ae80082cba0007b6be000492658014926500149264801491c4080007bc9787bc8707bca689567800195686001956940017bcb6050202802811950222a02932d5207480764a2956c000182c7880082c898007b68d8008263800182ca900028d706956978104929800349297803492970039568e0134929680304330750202c02e3be9517e0847be064b14926f8003304330333023a007800023a0a8000028268709587207b679800d88707826868c878097b699000d88908da77083a0c8800023a079000027bb0187b6ac0007bba107b6cd0007bbc0864bc64797bb7826760c878087b688800d87807826858c887077b6780007b6b78017b69c8007b60d8008267b8008268f800d878078269a800d39408d89409da8709826bb000d8b307826aa000d3a208d8a20ada870ad3b307d48707da790a510a05059567c01364c87b62f0007b63e8007b64e00050202e0207bf8264f8008263e0008260e80082689800c84807d88708826b9000c83b09c88909d3b90cd8b90bdac80b826c8800c80c08d8c802826cf000826a8000c8ac0cc82c0cc88b0bd88b08c8c808d49808d4b709d48909d4b808989920978820d498085208d905956c781082c2600395ca000382a85882a95082ab487bab287ba9307ba8389568a0137bc240037b64f8005020300282bd8262f000826ac80095aa0188a7018260d000c87000d40a078877018268c000c87804d884088267d800c887078268f800958320d88309826be000c89b08d8b80bda990b8269e800c89b0bd89b09c8920264097b69d000826c787bc90864a97bca644a7bca1064707bc7187b6ac0007b63f800648464b3289efe956700208377a0fa3308240a01019562781895270002827c40827a38827b308ec78ea8dbc708d4ca078eb9db7809510906283713822828028267388074958723d88709c89b027b6ba800d8b20bda990bc8ab0b7b6ab000d8ab097b6cb800c8c909d4b909d84707942794975207062802137b68a000838804956700208377c0fa0a0195677818957c000282ca6082c85882c95082cb48956cff0795cc797b6ae8007bca80077b68f00095ca00077ba8787b69f8007ba970956700109568ff079588e1077b6be0007bab6850203202d11a9567ff0795777995790007829888007b68d800829890007b68d000829898007b68c8008298a0007b68c0009567ff079577c10733084050203402c3ba9567ff07957779827960077b6950827858077b6848827b50077b6b40827c48077b6c78826ac0007b7a2007826ac8007b7a1807826ad0007b7a1007826ad8007b7a0807957a00077ba9407ba8387bab3064799567ff079577a1079568ff07958881077b9c280750203602ea18826778826850826940d48909826a48d4a708d49808988820d4a909979920d49808520893039569ff079599798268e000959a00067ba8e8008268f8007ba8f0008268f0007ba8f8009568ff0795886107826ae8007b9a00075020380233bb50223a02722ad874028267a800c82700c80808c849097b69a000d84909c89803d3030ad8030cdaa90c8269e800979905826bf00098ba3bd4a909826af80098aa3b97bb05d4ba0ad8700bda220b8267b000c8b702d87207826bb800c87b0bc8a208c8b909d82807c89707c8c80ad88a08c8870c826738807788c80188a901dbc8098268a000d887078577018838017b639800db38077b6a90007b6c8800d4ca08db8907520706280f111407e0ffffff000000007b6780008267787b67f0008267407b67e8008263488267507b67f800018267a000d8740782699800d39008d89009da870982679000d8720c826a8800d3ab08d8ab0ada8c0ad37207d48707da790a510a5602d42407d4b008d48707987720d42808978820d4870752073c027b62c8007b6bd0007b60d8008348956700208377e0fa7b64c0007b63e0000a01018269e000826cf800d4c90782688000826af000d88a08826be80094b894785108f90195a820d8a807648a7b68a800c87b087b68b800d8b808da7708956b781882b2680282b4700282b7780282bb8002c898087b68b000d89808c88c0c7b6cf800956cff0795cc797bcb80037bc778037bc470039568ff079588e1037bc2680364a750203c026db98268c000958720d88708826ad800c88a00d8a00ada880a8268c800c8a802d88208826bd000c88b0b8268a8007b68f0008268b8007b68e8008263b000647428ccfe826c70018268f800958720d88708c88409d8490ada880ac83a0ad83a08c8820b956878107b8ce802958c00027bc7c8008267687bc7f0008267607bc7f8007bc9d0008267587b8700037bcad800648995676013956840137b9be00250203e022416956720133308405020400284b795677810827ac0027b6af8008279b8027b69f000827bb0027b6be800827ca8027b6ce0008268587b7860028268607b7858028268687b7850028268707b784802957800027b8a80007b89787b8b70647a956700139568e0129569c0127bac680250204202ae1250224402c02652077564a295687810958c000282c7900082caa0007b6ad8008283880282ca980001d3b704d8b70cd89300da400cc92a08c9c804d8c8087b68d000d82a0a826cf8008268d800c9c80cc9ac0c8268d000c98c0cc9b707c90707c99308d4c707d4480ad47a0ad4470798aa20977720d4a7075107850d0050204602d01e9567ff0795774107826870502048028bb69568ff07958879958900068297c8007b67f8008297d8007b67f0008297d0007b67e8008297e0007b67e0009567ff079577210782687850204a024fb6956aff0795aa7995ab000682b7c00082b8b00082b9a80082bab800826be000d3b707826be800d3b808d487078268f000d3a808826af800d3a909d49808d48707520756034926f8004926f0004926e0004926e8001407ffffffff000000007b67d800019567ff079577610682687050204c02dbb5956bff0795bb7982b7f00582b8000682b9e80582b4f8058260f000d37003d870078262f800d89209db3709826ce000d84c07826ae800d38a03d88a08da3708d34c07d43707da79085108e7057bb288058267707bb7a8057bb090058267587bb7b0057bbc980582676095bc00057bc7b8007bcaa0009567ff07957741069568ff07958821069569ff0795990106826a687bcac00050204e02e3159568ff07958879958b000582b7e00082b9d80082bad00082b8c80050225002ef2452077dfe9567ff079577e105502052020eb5956cff0795cc7995ca000582a77082a87882a9688477ff826bd800d2b8088499ffd49808d48707510770038267f80095ca00057ba7088267707ba7288267f0007ba7108267587ba7308267e0007ba7188267607ba7388267e8007ba7209567ff079577c1059568ff079588a1059569ff0795998105826b687bab40502054022f159568ff07958879958b000582b76082b95882ba5082b848502256023f245207cdfd9567ff0795776105502058025eb49567ff079577798277f8047b67d0009567ff079577798277f0047b67c8009567ff079577798277e8047b67c0009567ff079577798268e8007b78a0049567ff079577798268e0007b7898049567ff079577798268f0007b7890049567ff079577798268f8007b7888048267509568ff079588797b87c0048267489568ff079588797b87b8048267409568ff079588797b87b0049567ff07957741059568ff07958821059569ff0795990105826a78956bff0795bb797bbaa80450205a0241149568ff07958879958b000482b7e00082b9d80082bad00082b8c80050225c024d235207dbfc8269c0008499ff7b69c0008269c8008497ff7b67c8008267d8008269d000d297077b67d0009567ff079577e10450205e0247b3956bff0795bb7995bc000482c76882c87082c97882ca80007bca407bc9387bc8307bc728492b60048267d0007bc7588267c8007bc7509567ff079577c1049568ff079588a1048269c0007bc948502060025a1c8268f8009588018887018269f000c879097b68f8007b69f000d498078877018268e000c88707d887088269e800c889097b69e8007b67e00028d0fc9567ff079577010733084050206202a8b29569ff079599798292a00695980006828c9800828b900082878800d42b0ad4c708d4a808988820d4ca0a97aa20d4a8085208d5fb492978064929700649296806140a00000000a079c3089568ff079588e1067b9a80067b67f8007b6bf0007b62e0007b6ce8005020640276b3502266021a21510793fb8387049569ff07959979492960064929580649294806209568ff079588c106492950067b6ae8007b6be000502068023bb3826ae8008269f0008268f8008267e0009577dcd87807949794a7510744fb838724956aff0795aa79492a4006492a3806492a2806169568ff079588a106492a300650206a02f4b250226c023d21510711fb83a7443a089800023a09a000023a0aa80002956bff0795bb7995bc00067bc8207bc9187bca109568ff0795888106492b08063300760228aeb29567ff079577810433084050206e0266b19569ff07959979959c000482ca2082cb1882c71082c8087b67f000d4a7077b68f800d4b808d47808988820d4b707977720d4870752078ffa4929f8034929f0034929e803140700000000a079c3089568ff07958861047b9700048267f8007b6ae8007b6be0005020700234b28267e8008269e000d47909140700000000010000007b67e0001407fcffffff000000008268f800d878078268f00094877b69e8009497510721fa8267f8008377049569ff079599794929e0034929d8034929c803209568ff07958841044929d00350207202cdb18267e0009577dc8268f800d878078268f00094878268e80094875107d6f98267f8008377249569ff079599794929c0034929b8034929a8031b9568ff07958821044929b0035020740282b11407bcffffff000000008268f800d878078268f00094878268e8009487510788f98267f8008377443a08b000023a09b800023a0ac00002956bff0795bb7995bc00037bc8a0007bc998007bca9000140900000000007373659568ff07958801047bc988005020760218b13308648267f80050207802dab383783307013309640a07013308a00102838833070133090a07280c838833070133090a07013308a001028388330733090a0728f33308a0010228e23308a0010228db3308a0010228d43308a0010228cd3308a0010228c63308a0010228bf49263001492628014926200133027a02140700000000717b484e01956820017b673801330750207c0282b049261801492610014926000122330704956800014926080150207e0264b0390894010256183f122003940102403308a0010228cb033308a0010228c3033308a001022850ff3308a001022848ff3308a001022840ff3308a001022838ff9569781049293802492930024929280233028002140700000000717b484e019568a0127b974002330750208202f6af330284029568781001492820024928180249280802226489330704956880124929100250208602cdaf390894010256183f122003940102403308a001022834033308a00102282c033308a0010228b9fe3308a0010228b1fe3308a0010228a9fe3308a0010228a1fe9567ff0795777949177849177049176864791407000000001efdc6969568ff079588e1007b9780003307502088025eaf9567ff0795777949176049175849175064793307049568ff079588c10049194850208a0238af390894010256183f122003940102403308a00102289f023308a001022897029567ff079577794927f8004927f0004927e80064791407000000008cd350e49568ff07958861017b970001330750208c02e6ae8267d00033008e020a033302900228b71a50229002b41a4929e0007b98d8007b97d0003307049568ff07958841017b9ac80050209202aeae8267a800956aff0795aa797ba7c0008267a0007ba7b8008267b0007ba7b0003307249568ff07958821018269b8007ba9a8005020940276ae8267f8009568ff079588797b87a0008267e8007b8798008267e0007b879000648a3307449568ff07958801018269f0007ba98800502096023cae8267c000817756177f0d8268c00048088000013307013309648268c8000a073308a001022828fd3308a001022820fd3308a001022818fd3307a001037b67d80083777b62f8007b6bf0007b6ce8007b6ae000330098020a0333029a0228bf1950229a02bc19826be000959c00037bcb20826be8007bcb18826bf0007bcb10826bf8007bcb08492940037bc8387bc7309567ff079577a1039568ff07958881037bca2850209c02c0153308a001028388330733090a0728a1fc3308a00102288ffc3308a001022887fc3308a00102287ffc3308a001022877fc3308a00102286ffc3308a001022867fc3308a00102285ffc3308a001022857fc4926f0024926e8024926e00214070000000005df02e69568e0027b67f802330750209e021ead4926d8024926d0024926c8023307049568c0024926c0025020a00201ad390894010256183f112003940102403308a0010228683308a001022861492630034926280349262003140700000000620d2894956820037b67380333075020a202beac49261803492610034926080333070495680003492600035020a402a1ac390894010256183f112003940102403308a0010228083308a001020183883307013309240a073308a001022886fb3308a00102287efb3308a001022876fb52478be3fdf220029567781849274004492738044927300449272804956700208377a0fc0a0a01956a781895ab000482b73882b84082b93082ba28d49808d4a707d4870751078e023308a001022826fb3308a00102281efb3308a001022816fb3308a00102280efb492630064926280649262006140700000000b2418ffb956820067b67380633075020a602d5ab826780003300a8020a038269b0003302aa0228d2178269b0005022aa02cb1749261806956900067b98107b9708330704956800067b9a5020ac0299ab8267607b67f8058267587b67f0058267687b67e8053307249568e0058269707b69e0055020ae0270ab8267e800956a00057ba7d8008267e0007ba7d0008267d0007ba7c8003307449568c0058269d8007ba9c0005020b0023fab8267b800817756177f1b8268b800480880003307013309648268c0000a0728c5003307013309648268c0000a0728b60049267006492668064926600614070000000005df02e6956860067b67780633075020b202e9aa49265806492650064926480633070495684006492640063300b60228c8aa4926b0064926a8064926a006140700000000620d28949568a0067b67b80633075020b402a5aa49269806492690064926880633070495688006492680065020b60288aa8267b800817756173f198268b8004808403307013309248268c0000a07280f3307013309248268c0000a070164977b68f8005020b8021fad83788169f80033070a0728bce85247190fc1404795677818491740491738491730491728956700208377a0f80a0a01956a781882a73882a84082a93082aa28d49808d4a707d48707510792003308a00102280ff95247a618507153956778184927e0024927d8024927d0024927c80295670020837740fb0a0a01956a781895ab000282b7d80082b8e00082b9d00082bac800d49808d4a707d487075107c7013308a0010228bcf83308a0010228b4f83308a0010228acf83308a0010228a4f88267388177330823ac78273308a001022891f83308a001022889f88267388177330843ac7892013308a001022875f8956700173300ba023302e40228ca1895677810827890067b68f000827888067b68f800807798067b67e8005020bc022b108267f8008268e800d487078268f000d487075107f9011407ffffffff000000007b67e0009567781849276004492758044927500449274804059567e0169568c01c5020be02dca995687810958a000682a7707b67d80082a7800082a9787b69c80082a8687b68d00095687818958b0004491b68057bb7a0009897209777208269e800d497077bb798004928800449287804492870048267f0007bb790008267f8007bb788009567e01c9568001d5020c002f1a98267d0008477ff8269d8008498ff8269e000826ac800d2a909956b7810492b2006826ae80095bc00067bca18826af0007bca10826af8007bca08492b40067bc9387bc8303a085800023a096000023a0a6800027bc7287bc8607bc9587bca5064b83a077000029569c016956aa016956b80167b874806330733085020c202daa93308a001028388330733090a07280bf7826738817756170331013308a0010228eff69567ff079577a1003300c4023302e4022840179568ff079588798287287b67f8008287307b67f0008287387b67e8008287407b67e0005020c6029a0e956700208377c0f83308240a01956a781882a74882a85082a95882aa60956bff0795bb797bba7bb9f8956900107b9868f8956800107b8760f88267e0007bb7208267e8007bb7188267f0007bb7109567ff07957781009568ff079588618269f8007bb9085020c802620f3308a001028388330733090a072843f6956778104927f8054927f0054927e8056479140700000000f7bd4f1e956860167b97000633075020ca02faa6956778104927e0054927d8054927d0056479330704956840164929c8055020cc02d7a6390894010256183f122003940102403308a00102283efa3308a001022836fa5020ce02ac0d95687818492800034928f8024928f0024928e80205956700129568601b5020d00281a795687810958a000182a998007b69e80082a788007b67f80082a790007b67f00082a7a00098982097882095697818492920034929180349291003959b0003491b080549293003492928037bb7407bb8389567801b9568a01b5020d202a4a78267e800977720987720956a7810492a4001492a3801492a3001492a2801492a600195ac00017bc7588267f0007bc7503a075800023a086000023a09680002826bf8007bcb487bc780007bc8787bc97064a83a077000029569e011956ac011956ba0117b876801330733085020d4029ca73308a001028388330733090a0728cdf49511e0fe7b1018017b1510017b160801951520018411f0828b10828a18828c0882827b1a687b1c78d4ac08d4b20ad48a0a98aa207b1b70d4b808978820d4a8087b170852084b028297187b17488296108297087b175082977b17584921f8004921f0004921e8009518e0004921e0002064277b12605020d60235a5821858d46807821948821a50d4a909d497079877207b1620d46909979920d497075207f2019517c0005020d802cca3821770821868d47808140700000000010000007b17101407e0ffffff00000000821960d87907821a7894a77b181894875107b401821ad800821bd000821cc8008218c0008397207b18287b18a0007b1c307b1ca8007b1b387b1bb0009518a0007b1a407b1ab80064965020da0297a48217109577c0d876078218789487821818948751076201821748821820d487071408e0ffffff00000000821a58d88a08821b5094b8947851083e016469821828821c38d4c807821b40821630d46b0bd4b707987720d4cb0b97bb20d4b7075207170183974083aa207b1a5864865020dc02f3a67b175082175864685020de02e5a6647882175064695020e0024aa2821760c86707d86708821978821b30c8b909c88909d3b90ad8b90bdaa80b821870821a38c8a808d8a80a821c68821640c86c0cc8ca0ac88b0bd88b08c8a808d4b808140ac0ffffff00000000d8a70a949a948a510a940083774049219800492190004921880095188000492180005020e20295a382162895661f1407e0ffffff01000000d26707821860c88707d88708821a78c88a09d8a90ada880a821870c88a0ad88a08821b68c8b808957b40d87b07c8790cd89c09da7709c8a909d8a907c887078218087b8b7b8c087b89107b87189551e0fe821018018215100182160801951120013200003308043300e6020a013302e80228fc105022e802f910510a0b5022ea02c51132003308a00102838833070133093300ec020a073302ee02285e125022ee025b123308243300f0020a013302f20228bc105022f202b910510a0b5022f402851132003308a00102838833070133093300f6020a0701951170ff7b1088007b1580007b1678951590008411f064728289827408828c088273959a1fd89a00c80c0984aae07b1308c8a303d8a30bc8490ac8ba0ad39a06d89a07da6b07822b18d8c90c828610822210828818da000cc86c0cd86c06c82c09c89707d8c90cd89709c8b808c86808c8c808c8980c8ec88e79dbc809d4c7088ea6db8906520657821808d88308d34a09d84a06da9806d82708d3bc09d8bc0bda980bd32708d49808da860b520b307b13507b1a587b17603307409518507b1c685020f802e6a1955170ff82108800821580008216789511900032004911404911384911303302fa02140700000000717b484e019518307b174833075020fc02aba1491128491120491110413307049518104911185020fe0292a1390894010256183f0b200394010240013308a001028388330701330924330000030a0701828b18828a108283088eb28eacdbb20cd4ba028e39db2c09520948828898a93b97bb05d49b02983b3b97aa05d4ba0a988b3b973305d4b30b978805958c20d88c08c88b09d8b90bda880bc8ab0bd8ab08c828087b7c7b79087b7b107b781832009511b07b10487b15409515508411f049113049112849112033020203140700000000717b484e019518207b1738330750200403d9a0491118491110490141330704641849110850200603c2a0390894010256183f0b200394010240013308a001028388330701330924330008030a0701951140ff7b10b8007b15b0007b16a8009515c0008411f0828b10828a18828c0882887b1a287b1c20d4ac0cd4b80ad4ca0a98aa207b1b30d4cb0b97bb20d4ba0a7b1738520af1008297187b17108296108297087b170882977b17951780007b181850200a03fd9e821210821c088213821788008218980082198000821a9000d3c70bd87c07d89309dbb709d8a607d3280bd88208dab708d36a0ad4ba0adaa9085108950098673b972805d4780298c83b976605d4680898393b97ca05d4a909973a05821718c87a0ad87a0b821c20c8c909c8b909d3c907d8c906da7b06821c30c8c808c88606d8860bd8c808821c28c82c07c88707c8b70795a820d8a80ac8a90bd89b09daaa09c86909d8690ac8a707821a387ba87bab087ba9107ba718955140ff8210b8008215b0008216a8009511c00032000049117049116849116033020c03140700000000717b484e019518607b1778330750200e03439f49115849115049114032330704951840491148502010032a9f390894010256183f0b200394010240013308a001028388330701330924330012030a0701951120fc951a00037ba0d8007ba5d0007ba6c8009515e0038411e06416807410827a827b08d44a07d4b707510742048282108283088280140cffffffff000000008438ff8407ffd2c20c7b67487b6c38d4c7077b6840d48707510774048297187b6798008297107b6788008297087b67800082977b679000492638037b6a607b6a20037b6b587b6b2803956820037b64507b643003330750201403699e4926180349261003492608033307209568000349260003502016034c9e3309940102390794010256173f0b200394010240017b69709517e08479e07b696864913307a00102837783993308407b6778330018030a06826a6833021a03283d0c826a6850221a03370c7bba587bb9507bb8487bb7409567e0029568400350201c03d99e956800028289f8008287f000828ce800828be00082689800d389037b6928d8890882698800d8970a7b6a10da3a08826a8000d3ac027b6c30d8ac0c826a90007b6b68d8ab0a7b6a18da2a0c7b6720d37909d439077b6c08da7c085208be034926d802826760956900027b97c0008267587b97c8009568c0028267507b97d000330750201e03609d4926b8024926b0024926a8023307209568a0024926a00250202003439d82678800826820c97807826908c997087b6820d8970782689800826928c98908826910c99808c978087b6828826970819782688000826a30c98a08826a18c9a8087b683082689000826a68c98a0a7b6a6856173f08480940019517e08477e07b671864718379330840826778330022030a06826a183302240328fa0a826a1850222403f40a7bba787bb9707bb8687bb7608267287bb798008267207bb790008267307bb788008267687bb78000956760039568800350202603fb9d49269802826738956900027b9790008267407b978800956880028267487b9780003307502028035f9c492678024926700249266802330720956860024926600250202a03429c8268709517e08477e07b67686471818756173f08480840019517e08477e07b67706471837933084082677833002c030a06826a7033022e03283e08826a7050222e0338088268687b8a187b89107b8b087b879567400250203003d89c826748028268400282625802826a5002826b8000c87b0b826c9000c88c0cd88c08c88b0bd37b09d87b07da980782688800c8a80882699800c89202d8a809c82909c88707d88708c89808956900037b9ca0007b9ba8007b97b0007b98b8009568a00382676850203203ee9c9567200233084050203403349a956b000282ba3882b83082b92882b72050223603f4075208be0082689000956a00027ba8826880007ba808826888007ba81095680002826998007ba9187b67980050203803279b4926b801826738956c00017bc7b0008267407bc7a8008267487bc7a0004926d8018267507bc7d0008267587bc7c8003a075001023a085801023a09600102826a607bcac0007bc7f8007bc8f0007bc9e8003a076801023308209569e001956ac001956ba0017bc7e0008267980050203a03909c955120fc951700038270d8008275d0008276c8009511e0033200004926d0004926c8004926c0001407000000001efdc6969568c0007b67d800330750203c03739a4926b8004926b0004926a8003307049568a0004926a00050203e03569a390894010256183f112003940102403308a0010228683308a001022861492610014926080149260001140700000000052f44ec956800017b671801330750204003139a4926f8004926f0004926e8003307049568e0004926e00050204203f699390894010256183f112003940102403308a0010228083308a001020183883307013309240a07014926900149268801492680011407000000008cd350e4956880017b679801330750204403a999492678018267507b6770018267587b676801330704956860018269607b6960015020460383998267287b6758018267207b6750018267307b674801330724956840018269687b694001502048035a9982679800956a00017ba738826788007ba730826780007ba72833074495682001826990007ba92050204a032d99826770817756177f0c826870480880000133070133096482687833004c030a0701951140ff7b10b8007b15b0007b16a8009515c0008411e049219800492190004921880049218000059517609518800050204e03c9998217687b17188217607b17108017707b17083306a0010383677b170a03013a07a801033a08a001033909b001036f77987a206f88978b20d4ba0a9777206f99989920d49707988820821908d39808821910d39707d48707821818d3a808d48707520719955140ff8210b8008215b0008216a8009511c0003200491150491148491140140700000000a7da8c119518407b17583307502050033d9882170a0382670881681082696f77977a206f88988820d48a0a9877206f98978920d497079888204911387b18307b17283307049518207b1a2050205203fe97390894010256183f0b200394010240013308a001028388330701330924330054030a0701951180fd951900027b90787b95707b9668951580028411e06416807a108279827b087b69307b6a28d4a9077b6b20d4b7075107a4028287187b67588287107b67508287087b674882877b674049261802492610024926080249260002029567e001956800025020560361988264f801956800018287f000828be000828ce8009518e08488e06481826a48c8ca0a826240c8b202d8b20bc8ba0ad3ca03d8ca09da3b09826b50c87b0bc89b0cd8bc03826058c84000d87b0bc80b0bc83b00d87c03d3040bd84004dab304d3c707d4b707da79047b8c107b8a087b827b8018520453024926380249263002492628024926200202956720025020580351984926d801826728956900017b97d0008267207b97c8009568c0018267307b97c000330750205a03b5964926b8014926b0014926a8013307209568a0014926a00150205c0398969517e08477e07b67386471390894010256183f0b200394010240019517e08479e07b691864913307a001028377839933084033005e030a06826a1833026003288d02826a185022600387028268387b8a187b89107b8b087b8795678001502062032797826788018268800182629801826a9001826b48c87b0b826c40c88c0cd88c08c88b0bd37b09d87b07da9807826850c8a808826958c89202d8a809c82909c88707d88708c89808956900027b9c407b9b487b97507b98589568400282673850206403459795676001330840502066038b94956b000182ba7882b87082b96882b760502268034b025208a9008268407b6840018268487b6848018268507b685001956840018269587b6958017b675850206a0382954926f8008267287b67f0008267207b67e8008267307b67e0004926180149261001492608013a077001023a087801023a0980010249260001956c00017bc7387bc8307bc9283a0788010233082095692001956a0001956be0007bc72082675850206c03f996955180fd9517000282707882757082766895118002320000492690004926880049268000140700000000052f44ec956880007b679800330750206e03df9449167849167049166833070495686049166050207003c794390894010256183f112003940102403308a00102286e3308a0010228674926d0004926c8004926c00033027203140700000000717b484e019568c0007b67d8003307502074037f944926b8004926b0004926a000113307049568a0004926a800502076036194390894010256183f112003940102403308a0010228083308a001020183883307013309240a073307330078032833973307502078032e9733070150207a0325978269d80082970881981082996f77977a206f88988820d48a0a9877206f98978920d497079888209569ff07959979320282970881981082996f77977a206f88988820d48a0a9877206f98978920d49707988820320282a71882a81082a90882aa6f776f8b6f996faa320282a71882a81082a90882aa6f776f886f996faa956b78183202826b180188b98000826ad000db9a08826cd800826ae800d4ca0ada970a93b8ff93baff826be000939b939c8267f000e0a7073202d49a0ad48709d4a909989920d4a808978820d49808320282970881981082996f7a97a7206f889888203202c8ba0a7b6ae80097aa3b989b05d4ab0b8267080182731897993b827a10988805d498076f346fa93202c89c0cd89c0b82671001d87909c89407c8b707d4c809d4a707d47909989920d4c707977720d497073202977b3f988c01d4bc0397ac3f987701d4c70797883f989c01d4c80898aa018499019a9c320282970881981082996f77977a206f88988820d4a8089877206f99979a20d4a7079899203202939b8268f800e0a80882690001e0790782690801e0b909826a1001e0ca0a3202c89c0cd89c0ad84909c89307c8a707d4c809d4b707d47909989920d4c707977720d4970732028268f8008267e800826ae000d47a0a140b00000000010000001407fcffffff00000000d878078269f000949794a732028eb9858801dbb9088e498ecadac90ada780a320282171082181814090000000001000000d37909d48909987a2088aa01948a939a3202956b000482b71882b81082b90882bad49707d48a09d47909989920d48707977720d49707320282a71882a81082a90882aa6f776f886f996faa956b00033202826af8001407bcffffff00000000d87a078268f00094878268e80094873202826be8008269e0008267f800d4b707826af000d4a908d47808988820d4a707977720d487073202d4a707d4980ad47a0a98aa20d49707977720d4a7073202d49b0bd48709d4b909989920d4b808978820d4980832028219821a087b697b6a087b67107b68189551c08210388215308216289511403202c8790bc8ab0bd39b0a7b6bf000d89b09daa709826be800320297773b9878387b6818019a8980003307ff3308ff32027b67d8007b68e0008267d000d487077b67d000826718019579803307ff3308ff32028097108298829908d48707d4970732028269e00098973b8268f800978805d478089799058267a0009574243202c8b707c88a0ad88a0cc8c7078260e000c8a000d8a00a32029511c07b10387b15307b16289515408411e064768317320297a8037b6818018d8980003307ff3308ff3202d4ca0ada980a3308ffdab807dab80a939c3202e0890882690801e0c909826a1001e0ba0a320282a71882a81082a90882aa6f773202647183793308408267c0003202849a40520a195109148d9a40cfa80ad09808d09707d4a707320032009597c0d0780733083200849a40520a195109148d9a40d0a70acf9707cf9808d4a808320032009598c0cf87083307320049922425494b2a252da9944c4949214225a952484992244992244992244992244992244992244992244992244992244992244992542529a524292949a84a494a922449922449922449922449922449922449922449929224294955494a92284925495592922425494a5292aaaa242549492a498a88889424495292242925499284524949499122458a142952a428491111519224082161284d4a4322111111292282444422222222450489081111d18888489244424444a52489244992249124111111212211499224111121440089a2241142444484488848aa942491244992442222114942244992244944440811405294242202884888081111952891442489444488089124214992544a421211111111110a218249142a6992489210459524912422892491244912292491245152151289244922492289a4188924914892a42489888888881411112222922491a44422894824922449922489241111110a49944212550a45541149aa2a1289d42822894449249148221211498924441211224922222222221122892491442291482491442292481249248a48a5444444259188884892944892242249129208111111119110229208218408111111119108c92449924444444488888828918824220949922412894462229108212249424424224988884484084924128988244912111122424444258a4844242222924444848888084992a452844844444444442884082651a8a49144920851544912492292481249922491422492244aaa4222912449244924911423912412499294241111494411112122224912494a24221189484444844212a590449542115591a4282a2a52a4483422924844129144124924922421224444444444444484482249249148241249249188249244128948514a4444948844121111894824221289244910114422914844104424110441104144444444043191449248924444448888888888448288884824128949224924894410444492202212912488884404114422914844882489888888204411452482080410111111222288229148441491082249444444444444444410514422484a12494444448410424444444444051111112222888888a4482249124248529248522222224244105144228848220511918820894204932854a2884410498a20222212499224898888888820120411110820a208228a480449492222228410222222121111412488240962283522228011051121114188202424222280110511211141882024242222801105112111418820242422228011051121114188202424222280110511211141882024242222801105112111418820242422028828888844042182502822228011051121114188201496149108aa8982aa84844844d188400222904002020908242020209088888846444424495224228d8888a4245292481289249544228a888888482412110922914824224124499244222222224a8a48902449922489444444444404412249922412494492249248924824494922492422490288009248241123912412499224499224898888221a11a54452129144a2929422914424928844444404914492482211115189888868444444922445222244041111912491449248a42489a414492222222222228824222245221141151149928846922449522492202222222248222222221122121111118d88884892a4482488884422918888101144444492244912294922912822459224499224491111111111111141244902485249442222894424481525121111d188449224499188081141241289221244444492244922222222228a48248968249224498a44a4888888880851441189208928124424112988444489882084084612854a441189202222228248244924128944221189441249228a04111111511089881211414422918844125144221191884ca212514422888888888888880822224244049188884822892492244944244922222288481089888820894824121111414411892029490821121191101149221111111141518988886844224992a448441a112222922425110922111191244992880820222222822049242212111141444452492211212282204988448410928844222222a211499224499188081141c488888888041111114112494444444444222222a2111111499294241291888888888888884844444444448a88888888882412111151101112118410c1240a1589282211a49492a410451491082222a22091244924411499248812499024451011912444224924922449922449249124a2884490444444240a2242228228324910259220a59424451491082222a2201189442211449149044592249224912451444491444a92522a82888888888888888888888888880822412449904444848844444434224992242949001111898888888848c48888888848a488288818114a4410420493285424a28844104551245124129188482205119148a4444410452651892822114492228818111111119120222222499224111111111145242222221a91244992942422121111114914912292242291480a51441189208924229124a28844101111051121114108114ca25091882212411445914411111111051189441291208a4c2228925415498a20120491888888882288282211242589888888082184888888444444100922498288880811898888684444449224258988444444444444a488888888881045118920221289442291482449444410092292248888101191402222221a11119124494922221111111151101151228210c1240a952822114444444410312222222212444444922489482412114590084a8d880805495185104222a900224644229144224992888888202211898a8824114922828824924412892492449248251155221249924c922449924444101111114482888888888888902422120451444444222222142445154212492209219148954492c888884492482449125144041111492449228948922449928888244922228848224924914822492429922a25a212914624a9a424919244924824a924125144924422221289884810898888888888049148241289888888882445444490244992242211111111111104892491248944124992482249922425892491882409201289244622492492248924491211514444231291a8488a441211118924221111110591449248221111513292244922221289484411114482888888884824128988a488882048111111314992442292489224491283880491888888888848108988884824914812111101c48804918888482289449224118948442222222222114422222288882012491249121149224924894444442441249224888820121189884444222211918848442291482412111111894410898888202211898844441089249124118944444482482211492491884424884444449224898808202222228220128908111111444424158944848808824808211249222212912012491289244922220288888808221240041089a2884422424404914814452412112222082012451109214422220288882011943494aad4505528140a85421111018c28880889084204212121212121111111c088828811a144042182909090909090489202888882489212912044101212898802888882882241442422828844444422228288444444898808a2889844212121218a88882241442291482411110942554242424242424242222280888288484410220885222280888288484410220885258584840444444444239224498484848444440011051145248288245190482412892022222212114114114994244a44041051101189884444001105119188208a481295448ba0a8042249221a4992244202111111d1888888241112121292929090940889884444444410914804101111212288484422111191442222222222824824221111894422092124492122a282509514422222124924128920224592444a4444241289884482509588880288288888281141882024248888081141444444442411111111494410494444442412428844528888a8205425222292a4244992249124291111a1044992244922822401248024a588884822918844419294224900492a4a92244912490a92825290244992244992244900a94844440449004992244992244992942422229a2812242894a248902812242894a2119148252549922449922449922449252549922449922449828848942402981424912408110c25d12495949424499224499294a424499208605290242508110c25d188884892922449924492a42241524444922449924892244992244992244992244992942422229a2402981424912408110c25d188888894924452004992249148248a482422511011890842886092142a89124990241141444444924812492249922411894844a2202212114492249124498a244924894c524994488224492412898820129188444144242248928a4c5249944882242982888848244912892449222222124482489220228a4422124124229188442284908888908888082222221a11014414444422821041281411014414444422821041282c69440410511089442211241289442288482492880429129344232222111112419224a11a42282529499224492222a22401240595544a529224498210c150128d48122925491249929488081141444424254992244992244992242911112182484422120511918820492182490a9528910449520411114992244992244924492488049124412412894824884422111121848824211191041149a211114044419224418820148a880860444144484410220885251529481049a524258994544a529292545592aaa28848449244454a922425955222492449aa24922449929224499254522949492a1289444a922449922222010490a84a2a29092049aa48529224294955510490282a221249929424494a9224959224494a1249944424454422929492148924919224929224a912919424a9442225a92a519224492595244952490100"},"methodIdentifiers":{"allowance(address,address)":"dd62ed3e","approve(address,uint256)":"095ea7b3","balanceOf(address)":"70a08231","batchMint(address[],uint256[])":"68573107","burn(uint256)":"42966c68","decimals()":"313ce567","faucet(uint256)":"57915897","mint(address,uint256)":"40c10f19","name()":"06fdde03","owner()":"8da5cb5b","renounceOwnership()":"715018a6","symbol()":"95d89b41","totalSupply()":"18160ddd","transfer(address,uint256)":"a9059cbb","transferFrom(address,address,uint256)":"23b872dd","transferOwnership(address)":"f2fde38b"}},"hash":"62f3e17c6fdf6dbaf7771b9279d4a07431094a4a3137e312dcd0edc51cb2fe4e","factoryDependencies":{}}}}